{
    "callToSuicideThenExtcodehash_d0g0v0_Istanbul" : {
        "_info" : {
            "comment" : "https://github.com/ethereum/tests/issues/652",
            "filling-rpc-server" : "Geth-1.9.7-unstable-b566cfdf-20191104",
            "filling-tool-version" : "retesteth-0.0.1+commit.47c32403.Linux.g++",
            "lllcversion" : "Version: 0.5.12-develop.2019.9.13+commit.2d601a4f.Linux.g++",
            "source" : "src/GeneralStateTestsFiller/stExtCodeHash/callToSuicideThenExtcodehashFiller.json",
            "sourceHash" : "d64787bab2322f058261a98c1482ecf5cfa5917bec267d236d521fcff3eebfa6"
        },
        "genesisBlockHeader" : {
            "bloom" : "0x00000000000000000000000000000000000000000000000000000000000000000000000000000000000000000000000000000000000000000000000000000000000000000000000000000000000000000000000000000000000000000000000000000000000000000000000000000000000000000000000000000000000000000000000000000000000000000000000000000000000000000000000000000000000000000000000000000000000000000000000000000000000000000000000000000000000000000000000000000000000000000000000000000000000000000000000000000000000000000000000000000000000000000000000000000000",
            "coinbase" : "0x2adc25665018aa1fe0e6bc666dac8fc2697ff9ba",
            "difficulty" : "0x20000",
            "extraData" : "0x00",
            "gasLimit" : "0xb2d05e00",
            "gasUsed" : "0x0",
            "hash" : "0x81f7e70bd830a801c02274f2cd92ae844b29a697d5d7ec153c083592966aa5c9",
            "mixHash" : "0x0000000000000000000000000000000000000000000000000000000000000000",
            "nonce" : "0x0000000000000000",
            "number" : "0x0",
            "parentHash" : "0x0000000000000000000000000000000000000000000000000000000000000000",
            "receiptTrie" : "0x56e81f171bcc55a6ff8345e692c0f86e5b48e01b996cadc001622fb5e363b421",
            "stateRoot" : "0xe1e735af46d9d05aad8fc0d52d262d0285d246e4c54541c652d9327e8f420f82",
            "timestamp" : "0x0",
            "transactionsTrie" : "0x56e81f171bcc55a6ff8345e692c0f86e5b48e01b996cadc001622fb5e363b421",
            "uncleHash" : "0x1dcc4de8dec75d7aab85b567b6ccd41ad312451b948a7413f0a142fd40d49347"
        },
        "pre" : {
            "0x1000000000000000000000000000000000000000" : {
                "balance" : "0x00",
                "code" : "0x604060006040600060006000355af200",
                "nonce" : "0x00",
                "storage" : {
                    "0x01" : "0x1122"
                }
            },
            "0x1000000000000000000000000000000000000001" : {
                "balance" : "0x00",
                "code" : "0x6000600060006000600073dead00000000000000000000000000000000000162028488f160005573dead0000000000000000000000000000000000013f60015500",
                "nonce" : "0x00",
                "storage" : {
                }
            },
            "0x2000000000000000000000000000000000000001" : {
                "balance" : "0x00",
                "code" : "0x6000600060006000600073dead00000000000000000000000000000000000162028488f260005573dead0000000000000000000000000000000000013f60015500",
                "nonce" : "0x00",
                "storage" : {
                }
            },
            "0x3000000000000000000000000000000000000001" : {
                "balance" : "0x00",
                "code" : "0x600060006000600073dead00000000000000000000000000000000000162028488f460005573dead0000000000000000000000000000000000013f60015500",
                "nonce" : "0x00",
                "storage" : {
                }
            },
            "0x4000000000000000000000000000000000000001" : {
                "balance" : "0x00",
                "code" : "0x600060006000600073dead00000000000000000000000000000000000162028488fa60005573dead0000000000000000000000000000000000013f60015500",
                "nonce" : "0x00",
                "storage" : {
                }
            },
            "0xa94f5374fce5edbc8e2a8697c15331677e6ebf0b" : {
                "balance" : "0x0de0b6b3a7640000",
                "code" : "0x",
                "nonce" : "0x00",
                "storage" : {
                }
            },
            "0xdead000000000000000000000000000000000001" : {
                "balance" : "0x014b230ce3",
                "code" : "0x6025ff00",
                "nonce" : "0x00",
                "storage" : {
                }
            }
        },
        "postState" : {
            "0xa94f5374fce5edbc8e2a8697c15331677e6ebf0b" : {
                "code" : "0x",
                "nonce" : "0x01",
                "balance" : "0x0de0b6b3a7632bd5",
                "storage" : {
                }
            },
            "0x4000000000000000000000000000000000000001" : {
                "code" : "0x600060006000600073dead00000000000000000000000000000000000162028488fa60005573dead0000000000000000000000000000000000013f60015500",
                "nonce" : "0x00",
                "balance" : "0x00",
                "storage" : {
                }
            },
            "0x1000000000000000000000000000000000000001" : {
                "code" : "0x6000600060006000600073dead00000000000000000000000000000000000162028488f160005573dead0000000000000000000000000000000000013f60015500",
                "nonce" : "0x00",
                "balance" : "0x00",
                "storage" : {
                }
            },
            "0x3000000000000000000000000000000000000001" : {
                "code" : "0x600060006000600073dead00000000000000000000000000000000000162028488f460005573dead0000000000000000000000000000000000013f60015500",
                "nonce" : "0x00",
                "balance" : "0x00",
                "storage" : {
                }
            },
            "0x0000000000000000000000000000000000000025" : {
                "code" : "0x",
                "nonce" : "0x00",
                "balance" : "0x014b230ce3",
                "storage" : {
                }
            },
            "0x2000000000000000000000000000000000000001" : {
                "code" : "0x6000600060006000600073dead00000000000000000000000000000000000162028488f260005573dead0000000000000000000000000000000000013f60015500",
                "nonce" : "0x00",
                "balance" : "0x00",
                "storage" : {
                }
            },
            "0x2adc25665018aa1fe0e6bc666dac8fc2697ff9ba" : {
                "code" : "0x",
                "nonce" : "0x00",
                "balance" : "0x1bc16d674ec8d42a",
                "storage" : {
                }
            },
            "0x1000000000000000000000000000000000000000" : {
                "code" : "0x604060006040600060006000355af200",
                "nonce" : "0x00",
                "balance" : "0x01",
                "storage" : {
                    "0x00" : "0x01",
                    "0x01" : "0x2f715723d7cde71586406b2995d4fc62acc9ce1adb8df087cc8d4502d047d3ca"
                }
            }
        },
        "network" : "Istanbul",
        "sealEngine" : "NoProof",
        "lastblockhash" : "0x562602d4d5add6ebf7b4a0bc5a5a399e314a5211938412607954aa21aec7592d",
        "genesisRLP" : "0xf901f9f901f4a00000000000000000000000000000000000000000000000000000000000000000a01dcc4de8dec75d7aab85b567b6ccd41ad312451b948a7413f0a142fd40d49347942adc25665018aa1fe0e6bc666dac8fc2697ff9baa0e1e735af46d9d05aad8fc0d52d262d0285d246e4c54541c652d9327e8f420f82a056e81f171bcc55a6ff8345e692c0f86e5b48e01b996cadc001622fb5e363b421a056e81f171bcc55a6ff8345e692c0f86e5b48e01b996cadc001622fb5e363b421b9010000000000000000000000000000000000000000000000000000000000000000000000000000000000000000000000000000000000000000000000000000000000000000000000000000000000000000000000000000000000000000000000000000000000000000000000000000000000000000000000000000000000000000000000000000000000000000000000000000000000000000000000000000000000000000000000000000000000000000000000000000000000000000000000000000000000000000000000000000000000000000000000000000000000000000000000000000000000000000000000000000000000000000000000000000000000830200008084b2d05e00808000a00000000000000000000000000000000000000000000000000000000000000000880000000000000000c0c0",
        "blocks" : [
            {
                "rlp" : "0xf90280f901f8a081f7e70bd830a801c02274f2cd92ae844b29a697d5d7ec153c083592966aa5c9a01dcc4de8dec75d7aab85b567b6ccd41ad312451b948a7413f0a142fd40d49347942adc25665018aa1fe0e6bc666dac8fc2697ff9baa0ca3ca79b6682f60af9a609e582d54613ec81d2de77671009d627c1ab5400c84da08d0265a731e4dcbf3f9f7daf504a5cfad7f4ccc6210e49cd49eed5d546f0d4b5a0e7dd4f2ddbb58b5e6ad24a5ac57a265a9af0c1e3f167a4a640391dab7de2a44ab9010000000000000000000000000000000000000000000000000000000000000000000000000000000000000000000000000000000000000000000000000000000000000000000000000000000000000000000000000000000000000000000000000000000000000000000000000000000000000000000000000000000000000000000000000000000000000000000000000000000000000000000000000000000000000000000000000000000000000000000000000000000000000000000000000000000000000000000000000000000000000000000000000000000000000000000000000000000000000000000000000000000000000000000000000000000000830200000184b2fd121682d42a8203e800a00000000000000000000000000000000000000000000000000000000000000000880000000000000000f882f8808001830493e094100000000000000000000000000000000000000001a000000000000000000000000010000000000000000000000000000000000000011ba0d7b9b9b6125d940541c5c13fea8b93a88c43cec679b086feb984d87e8e4978d9a01eadc7f2d37dfd466ef0e689cd01dd94e586ebdad87f6d3ff149f214e41e9732c0",
                "blockHeader" : {
                    "bloom" : "0x00000000000000000000000000000000000000000000000000000000000000000000000000000000000000000000000000000000000000000000000000000000000000000000000000000000000000000000000000000000000000000000000000000000000000000000000000000000000000000000000000000000000000000000000000000000000000000000000000000000000000000000000000000000000000000000000000000000000000000000000000000000000000000000000000000000000000000000000000000000000000000000000000000000000000000000000000000000000000000000000000000000000000000000000000000000",
                    "coinbase" : "0x2adc25665018aa1fe0e6bc666dac8fc2697ff9ba",
                    "difficulty" : "0x20000",
                    "extraData" : "0x00",
                    "gasLimit" : "0xb2fd1216",
                    "gasUsed" : "0xd42a",
                    "hash" : "0x562602d4d5add6ebf7b4a0bc5a5a399e314a5211938412607954aa21aec7592d",
                    "mixHash" : "0x0000000000000000000000000000000000000000000000000000000000000000",
                    "nonce" : "0x0000000000000000",
                    "number" : "0x1",
                    "parentHash" : "0x81f7e70bd830a801c02274f2cd92ae844b29a697d5d7ec153c083592966aa5c9",
                    "receiptTrie" : "0xe7dd4f2ddbb58b5e6ad24a5ac57a265a9af0c1e3f167a4a640391dab7de2a44a",
                    "stateRoot" : "0xca3ca79b6682f60af9a609e582d54613ec81d2de77671009d627c1ab5400c84d",
                    "timestamp" : "0x3e8",
                    "transactionsTrie" : "0x8d0265a731e4dcbf3f9f7daf504a5cfad7f4ccc6210e49cd49eed5d546f0d4b5",
                    "uncleHash" : "0x1dcc4de8dec75d7aab85b567b6ccd41ad312451b948a7413f0a142fd40d49347"
                },
                "transactions" : [
                    {
                        "data" : "0x0000000000000000000000001000000000000000000000000000000000000001",
                        "gasLimit" : "0x0493e0",
                        "gasPrice" : "0x01",
                        "nonce" : "0x00",
                        "to" : "0x1000000000000000000000000000000000000000",
                        "value" : "0x01",
                        "v" : "0x1b",
                        "r" : "0xd7b9b9b6125d940541c5c13fea8b93a88c43cec679b086feb984d87e8e4978d9",
                        "s" : "0x1eadc7f2d37dfd466ef0e689cd01dd94e586ebdad87f6d3ff149f214e41e9732"
                    }
                ]
            }
        ]
    },
    "callToSuicideThenExtcodehash_d1g0v0_Istanbul" : {
        "_info" : {
            "comment" : "https://github.com/ethereum/tests/issues/652",
            "filling-rpc-server" : "Geth-1.9.7-unstable-b566cfdf-20191104",
            "filling-tool-version" : "retesteth-0.0.1+commit.47c32403.Linux.g++",
            "lllcversion" : "Version: 0.5.12-develop.2019.9.13+commit.2d601a4f.Linux.g++",
            "source" : "src/GeneralStateTestsFiller/stExtCodeHash/callToSuicideThenExtcodehashFiller.json",
            "sourceHash" : "d64787bab2322f058261a98c1482ecf5cfa5917bec267d236d521fcff3eebfa6"
        },
        "genesisBlockHeader" : {
            "bloom" : "0x00000000000000000000000000000000000000000000000000000000000000000000000000000000000000000000000000000000000000000000000000000000000000000000000000000000000000000000000000000000000000000000000000000000000000000000000000000000000000000000000000000000000000000000000000000000000000000000000000000000000000000000000000000000000000000000000000000000000000000000000000000000000000000000000000000000000000000000000000000000000000000000000000000000000000000000000000000000000000000000000000000000000000000000000000000000",
            "coinbase" : "0x2adc25665018aa1fe0e6bc666dac8fc2697ff9ba",
            "difficulty" : "0x20000",
            "extraData" : "0x00",
            "gasLimit" : "0xb2d05e00",
            "gasUsed" : "0x0",
            "hash" : "0x81f7e70bd830a801c02274f2cd92ae844b29a697d5d7ec153c083592966aa5c9",
            "mixHash" : "0x0000000000000000000000000000000000000000000000000000000000000000",
            "nonce" : "0x0000000000000000",
            "number" : "0x0",
            "parentHash" : "0x0000000000000000000000000000000000000000000000000000000000000000",
            "receiptTrie" : "0x56e81f171bcc55a6ff8345e692c0f86e5b48e01b996cadc001622fb5e363b421",
            "stateRoot" : "0xe1e735af46d9d05aad8fc0d52d262d0285d246e4c54541c652d9327e8f420f82",
            "timestamp" : "0x0",
            "transactionsTrie" : "0x56e81f171bcc55a6ff8345e692c0f86e5b48e01b996cadc001622fb5e363b421",
            "uncleHash" : "0x1dcc4de8dec75d7aab85b567b6ccd41ad312451b948a7413f0a142fd40d49347"
        },
        "pre" : {
            "0x1000000000000000000000000000000000000000" : {
                "balance" : "0x00",
                "code" : "0x604060006040600060006000355af200",
                "nonce" : "0x00",
                "storage" : {
                    "0x01" : "0x1122"
                }
            },
            "0x1000000000000000000000000000000000000001" : {
                "balance" : "0x00",
                "code" : "0x6000600060006000600073dead00000000000000000000000000000000000162028488f160005573dead0000000000000000000000000000000000013f60015500",
                "nonce" : "0x00",
                "storage" : {
                }
            },
            "0x2000000000000000000000000000000000000001" : {
                "balance" : "0x00",
                "code" : "0x6000600060006000600073dead00000000000000000000000000000000000162028488f260005573dead0000000000000000000000000000000000013f60015500",
                "nonce" : "0x00",
                "storage" : {
                }
            },
            "0x3000000000000000000000000000000000000001" : {
                "balance" : "0x00",
                "code" : "0x600060006000600073dead00000000000000000000000000000000000162028488f460005573dead0000000000000000000000000000000000013f60015500",
                "nonce" : "0x00",
                "storage" : {
                }
            },
            "0x4000000000000000000000000000000000000001" : {
                "balance" : "0x00",
                "code" : "0x600060006000600073dead00000000000000000000000000000000000162028488fa60005573dead0000000000000000000000000000000000013f60015500",
                "nonce" : "0x00",
                "storage" : {
                }
            },
            "0xa94f5374fce5edbc8e2a8697c15331677e6ebf0b" : {
                "balance" : "0x0de0b6b3a7640000",
                "code" : "0x",
                "nonce" : "0x00",
                "storage" : {
                }
            },
            "0xdead000000000000000000000000000000000001" : {
                "balance" : "0x014b230ce3",
                "code" : "0x6025ff00",
                "nonce" : "0x00",
                "storage" : {
                }
            }
        },
        "postState" : {
            "0xa94f5374fce5edbc8e2a8697c15331677e6ebf0b" : {
                "code" : "0x",
                "nonce" : "0x01",
                "balance" : "0x0de0b6b3a7632bd5",
                "storage" : {
                }
            },
            "0x4000000000000000000000000000000000000001" : {
                "code" : "0x600060006000600073dead00000000000000000000000000000000000162028488fa60005573dead0000000000000000000000000000000000013f60015500",
                "nonce" : "0x00",
                "balance" : "0x00",
                "storage" : {
                }
            },
            "0x1000000000000000000000000000000000000001" : {
                "code" : "0x6000600060006000600073dead00000000000000000000000000000000000162028488f160005573dead0000000000000000000000000000000000013f60015500",
                "nonce" : "0x00",
                "balance" : "0x00",
                "storage" : {
                }
            },
            "0x3000000000000000000000000000000000000001" : {
                "code" : "0x600060006000600073dead00000000000000000000000000000000000162028488f460005573dead0000000000000000000000000000000000013f60015500",
                "nonce" : "0x00",
                "balance" : "0x00",
                "storage" : {
                }
            },
            "0x0000000000000000000000000000000000000025" : {
                "code" : "0x",
                "nonce" : "0x00",
                "balance" : "0x01",
                "storage" : {
                }
            },
            "0x2000000000000000000000000000000000000001" : {
                "code" : "0x6000600060006000600073dead00000000000000000000000000000000000162028488f260005573dead0000000000000000000000000000000000013f60015500",
                "nonce" : "0x00",
                "balance" : "0x00",
                "storage" : {
                }
            },
            "0x2adc25665018aa1fe0e6bc666dac8fc2697ff9ba" : {
                "code" : "0x",
                "nonce" : "0x00",
                "balance" : "0x1bc16d674ec8d42a",
                "storage" : {
                }
            },
            "0xdead000000000000000000000000000000000001" : {
                "code" : "0x6025ff00",
                "nonce" : "0x00",
                "balance" : "0x014b230ce3",
                "storage" : {
                }
            }
        },
        "network" : "Istanbul",
        "sealEngine" : "NoProof",
        "lastblockhash" : "0x4e6f93dc8882317792a39687e62a2a6a68e34460129cbf45edeb076efd435bcb",
        "genesisRLP" : "0xf901f9f901f4a00000000000000000000000000000000000000000000000000000000000000000a01dcc4de8dec75d7aab85b567b6ccd41ad312451b948a7413f0a142fd40d49347942adc25665018aa1fe0e6bc666dac8fc2697ff9baa0e1e735af46d9d05aad8fc0d52d262d0285d246e4c54541c652d9327e8f420f82a056e81f171bcc55a6ff8345e692c0f86e5b48e01b996cadc001622fb5e363b421a056e81f171bcc55a6ff8345e692c0f86e5b48e01b996cadc001622fb5e363b421b9010000000000000000000000000000000000000000000000000000000000000000000000000000000000000000000000000000000000000000000000000000000000000000000000000000000000000000000000000000000000000000000000000000000000000000000000000000000000000000000000000000000000000000000000000000000000000000000000000000000000000000000000000000000000000000000000000000000000000000000000000000000000000000000000000000000000000000000000000000000000000000000000000000000000000000000000000000000000000000000000000000000000000000000000000000000000830200008084b2d05e00808000a00000000000000000000000000000000000000000000000000000000000000000880000000000000000c0c0",
        "blocks" : [
            {
                "rlp" : "0xf90280f901f8a081f7e70bd830a801c02274f2cd92ae844b29a697d5d7ec153c083592966aa5c9a01dcc4de8dec75d7aab85b567b6ccd41ad312451b948a7413f0a142fd40d49347942adc25665018aa1fe0e6bc666dac8fc2697ff9baa02bbe725a96114fc870ca1bf0b85e87a4b6e62beb5bf158ca96902ba798f3adf5a0c2087215d011397ab5497e0e38480e74cf93a7c7ccaebded3d65ac46a7007ef0a0e7dd4f2ddbb58b5e6ad24a5ac57a265a9af0c1e3f167a4a640391dab7de2a44ab9010000000000000000000000000000000000000000000000000000000000000000000000000000000000000000000000000000000000000000000000000000000000000000000000000000000000000000000000000000000000000000000000000000000000000000000000000000000000000000000000000000000000000000000000000000000000000000000000000000000000000000000000000000000000000000000000000000000000000000000000000000000000000000000000000000000000000000000000000000000000000000000000000000000000000000000000000000000000000000000000000000000000000000000000000000000000830200000184b2fd121682d42a8203e800a00000000000000000000000000000000000000000000000000000000000000000880000000000000000f882f8808001830493e094100000000000000000000000000000000000000001a000000000000000000000000020000000000000000000000000000000000000011ca0d0efa5daf15afd2399db78a4bb510359878a3c27570ecfba935b4726f8302dd7a01a4b18f61801c14fe5509961f5d35f20a63b6b456987569180fea987fbd9916ec0",
                "blockHeader" : {
                    "bloom" : "0x00000000000000000000000000000000000000000000000000000000000000000000000000000000000000000000000000000000000000000000000000000000000000000000000000000000000000000000000000000000000000000000000000000000000000000000000000000000000000000000000000000000000000000000000000000000000000000000000000000000000000000000000000000000000000000000000000000000000000000000000000000000000000000000000000000000000000000000000000000000000000000000000000000000000000000000000000000000000000000000000000000000000000000000000000000000",
                    "coinbase" : "0x2adc25665018aa1fe0e6bc666dac8fc2697ff9ba",
                    "difficulty" : "0x20000",
                    "extraData" : "0x00",
                    "gasLimit" : "0xb2fd1216",
                    "gasUsed" : "0xd42a",
                    "hash" : "0x4e6f93dc8882317792a39687e62a2a6a68e34460129cbf45edeb076efd435bcb",
                    "mixHash" : "0x0000000000000000000000000000000000000000000000000000000000000000",
                    "nonce" : "0x0000000000000000",
                    "number" : "0x1",
                    "parentHash" : "0x81f7e70bd830a801c02274f2cd92ae844b29a697d5d7ec153c083592966aa5c9",
                    "receiptTrie" : "0xe7dd4f2ddbb58b5e6ad24a5ac57a265a9af0c1e3f167a4a640391dab7de2a44a",
                    "stateRoot" : "0x2bbe725a96114fc870ca1bf0b85e87a4b6e62beb5bf158ca96902ba798f3adf5",
                    "timestamp" : "0x3e8",
                    "transactionsTrie" : "0xc2087215d011397ab5497e0e38480e74cf93a7c7ccaebded3d65ac46a7007ef0",
                    "uncleHash" : "0x1dcc4de8dec75d7aab85b567b6ccd41ad312451b948a7413f0a142fd40d49347"
                },
                "transactions" : [
                    {
                        "data" : "0x0000000000000000000000002000000000000000000000000000000000000001",
                        "gasLimit" : "0x0493e0",
                        "gasPrice" : "0x01",
                        "nonce" : "0x00",
                        "to" : "0x1000000000000000000000000000000000000000",
                        "value" : "0x01",
                        "v" : "0x1c",
                        "r" : "0xd0efa5daf15afd2399db78a4bb510359878a3c27570ecfba935b4726f8302dd7",
                        "s" : "0x1a4b18f61801c14fe5509961f5d35f20a63b6b456987569180fea987fbd9916e"
                    }
                ]
            }
        ]
    },
    "callToSuicideThenExtcodehash_d2g0v0_Istanbul" : {
        "_info" : {
            "comment" : "https://github.com/ethereum/tests/issues/652",
            "filling-rpc-server" : "Geth-1.9.7-unstable-b566cfdf-20191104",
            "filling-tool-version" : "retesteth-0.0.1+commit.47c32403.Linux.g++",
            "lllcversion" : "Version: 0.5.12-develop.2019.9.13+commit.2d601a4f.Linux.g++",
            "source" : "src/GeneralStateTestsFiller/stExtCodeHash/callToSuicideThenExtcodehashFiller.json",
            "sourceHash" : "d64787bab2322f058261a98c1482ecf5cfa5917bec267d236d521fcff3eebfa6"
        },
        "genesisBlockHeader" : {
            "bloom" : "0x00000000000000000000000000000000000000000000000000000000000000000000000000000000000000000000000000000000000000000000000000000000000000000000000000000000000000000000000000000000000000000000000000000000000000000000000000000000000000000000000000000000000000000000000000000000000000000000000000000000000000000000000000000000000000000000000000000000000000000000000000000000000000000000000000000000000000000000000000000000000000000000000000000000000000000000000000000000000000000000000000000000000000000000000000000000",
            "coinbase" : "0x2adc25665018aa1fe0e6bc666dac8fc2697ff9ba",
            "difficulty" : "0x20000",
            "extraData" : "0x00",
            "gasLimit" : "0xb2d05e00",
            "gasUsed" : "0x0",
            "hash" : "0x81f7e70bd830a801c02274f2cd92ae844b29a697d5d7ec153c083592966aa5c9",
            "mixHash" : "0x0000000000000000000000000000000000000000000000000000000000000000",
            "nonce" : "0x0000000000000000",
            "number" : "0x0",
            "parentHash" : "0x0000000000000000000000000000000000000000000000000000000000000000",
            "receiptTrie" : "0x56e81f171bcc55a6ff8345e692c0f86e5b48e01b996cadc001622fb5e363b421",
            "stateRoot" : "0xe1e735af46d9d05aad8fc0d52d262d0285d246e4c54541c652d9327e8f420f82",
            "timestamp" : "0x0",
            "transactionsTrie" : "0x56e81f171bcc55a6ff8345e692c0f86e5b48e01b996cadc001622fb5e363b421",
            "uncleHash" : "0x1dcc4de8dec75d7aab85b567b6ccd41ad312451b948a7413f0a142fd40d49347"
        },
        "pre" : {
            "0x1000000000000000000000000000000000000000" : {
                "balance" : "0x00",
                "code" : "0x604060006040600060006000355af200",
                "nonce" : "0x00",
                "storage" : {
                    "0x01" : "0x1122"
                }
            },
            "0x1000000000000000000000000000000000000001" : {
                "balance" : "0x00",
                "code" : "0x6000600060006000600073dead00000000000000000000000000000000000162028488f160005573dead0000000000000000000000000000000000013f60015500",
                "nonce" : "0x00",
                "storage" : {
                }
            },
            "0x2000000000000000000000000000000000000001" : {
                "balance" : "0x00",
                "code" : "0x6000600060006000600073dead00000000000000000000000000000000000162028488f260005573dead0000000000000000000000000000000000013f60015500",
                "nonce" : "0x00",
                "storage" : {
                }
            },
            "0x3000000000000000000000000000000000000001" : {
                "balance" : "0x00",
                "code" : "0x600060006000600073dead00000000000000000000000000000000000162028488f460005573dead0000000000000000000000000000000000013f60015500",
                "nonce" : "0x00",
                "storage" : {
                }
            },
            "0x4000000000000000000000000000000000000001" : {
                "balance" : "0x00",
                "code" : "0x600060006000600073dead00000000000000000000000000000000000162028488fa60005573dead0000000000000000000000000000000000013f60015500",
                "nonce" : "0x00",
                "storage" : {
                }
            },
            "0xa94f5374fce5edbc8e2a8697c15331677e6ebf0b" : {
                "balance" : "0x0de0b6b3a7640000",
                "code" : "0x",
                "nonce" : "0x00",
                "storage" : {
                }
            },
            "0xdead000000000000000000000000000000000001" : {
                "balance" : "0x014b230ce3",
                "code" : "0x6025ff00",
                "nonce" : "0x00",
                "storage" : {
                }
            }
        },
        "postState" : {
            "0xa94f5374fce5edbc8e2a8697c15331677e6ebf0b" : {
                "code" : "0x",
                "nonce" : "0x01",
                "balance" : "0x0de0b6b3a7632bd8",
                "storage" : {
                }
            },
            "0x4000000000000000000000000000000000000001" : {
                "code" : "0x600060006000600073dead00000000000000000000000000000000000162028488fa60005573dead0000000000000000000000000000000000013f60015500",
                "nonce" : "0x00",
                "balance" : "0x00",
                "storage" : {
                }
            },
            "0x1000000000000000000000000000000000000001" : {
                "code" : "0x6000600060006000600073dead00000000000000000000000000000000000162028488f160005573dead0000000000000000000000000000000000013f60015500",
                "nonce" : "0x00",
                "balance" : "0x00",
                "storage" : {
                }
            },
            "0x3000000000000000000000000000000000000001" : {
                "code" : "0x600060006000600073dead00000000000000000000000000000000000162028488f460005573dead0000000000000000000000000000000000013f60015500",
                "nonce" : "0x00",
                "balance" : "0x00",
                "storage" : {
                }
            },
            "0x0000000000000000000000000000000000000025" : {
                "code" : "0x",
                "nonce" : "0x00",
                "balance" : "0x01",
                "storage" : {
                }
            },
            "0x2000000000000000000000000000000000000001" : {
                "code" : "0x6000600060006000600073dead00000000000000000000000000000000000162028488f260005573dead0000000000000000000000000000000000013f60015500",
                "nonce" : "0x00",
                "balance" : "0x00",
                "storage" : {
                }
            },
            "0x2adc25665018aa1fe0e6bc666dac8fc2697ff9ba" : {
                "code" : "0x",
                "nonce" : "0x00",
                "balance" : "0x1bc16d674ec8d427",
                "storage" : {
                }
            },
            "0xdead000000000000000000000000000000000001" : {
                "code" : "0x6025ff00",
                "nonce" : "0x00",
                "balance" : "0x014b230ce3",
                "storage" : {
                }
            }
        },
        "network" : "Istanbul",
        "sealEngine" : "NoProof",
        "lastblockhash" : "0x811853259979ce038915d6a3999d42bc8f19e182a490ae5da1e93587860c241b",
        "genesisRLP" : "0xf901f9f901f4a00000000000000000000000000000000000000000000000000000000000000000a01dcc4de8dec75d7aab85b567b6ccd41ad312451b948a7413f0a142fd40d49347942adc25665018aa1fe0e6bc666dac8fc2697ff9baa0e1e735af46d9d05aad8fc0d52d262d0285d246e4c54541c652d9327e8f420f82a056e81f171bcc55a6ff8345e692c0f86e5b48e01b996cadc001622fb5e363b421a056e81f171bcc55a6ff8345e692c0f86e5b48e01b996cadc001622fb5e363b421b9010000000000000000000000000000000000000000000000000000000000000000000000000000000000000000000000000000000000000000000000000000000000000000000000000000000000000000000000000000000000000000000000000000000000000000000000000000000000000000000000000000000000000000000000000000000000000000000000000000000000000000000000000000000000000000000000000000000000000000000000000000000000000000000000000000000000000000000000000000000000000000000000000000000000000000000000000000000000000000000000000000000000000000000000000000000000830200008084b2d05e00808000a00000000000000000000000000000000000000000000000000000000000000000880000000000000000c0c0",
        "blocks" : [
            {
                "rlp" : "0xf90280f901f8a081f7e70bd830a801c02274f2cd92ae844b29a697d5d7ec153c083592966aa5c9a01dcc4de8dec75d7aab85b567b6ccd41ad312451b948a7413f0a142fd40d49347942adc25665018aa1fe0e6bc666dac8fc2697ff9baa05f5b09f6c00c4198e8ca45424fd9274479ee85c109a21f4df5515f9a9643ee76a0b03e5408b1d9b6c0423a92fd8aa91b4717ab6cc61e9254b79e47d9526c9c5429a0235fce3350f150ba978a488a7239d479f2f8e4f8c09d295bd1db8f765862223bb9010000000000000000000000000000000000000000000000000000000000000000000000000000000000000000000000000000000000000000000000000000000000000000000000000000000000000000000000000000000000000000000000000000000000000000000000000000000000000000000000000000000000000000000000000000000000000000000000000000000000000000000000000000000000000000000000000000000000000000000000000000000000000000000000000000000000000000000000000000000000000000000000000000000000000000000000000000000000000000000000000000000000000000000000000000000000830200000184b2fd121682d4278203e800a00000000000000000000000000000000000000000000000000000000000000000880000000000000000f882f8808001830493e094100000000000000000000000000000000000000001a000000000000000000000000030000000000000000000000000000000000000011ba0e60b48b282f13522fe9e33ebad5c8eb07e3cac3c94ff3fe1efb5104f4575d2a0a05df50fd6059e774a65773ebbcfd44697b623716c0b906f9ab7734fb25ec5d53bc0",
                "blockHeader" : {
                    "bloom" : "0x00000000000000000000000000000000000000000000000000000000000000000000000000000000000000000000000000000000000000000000000000000000000000000000000000000000000000000000000000000000000000000000000000000000000000000000000000000000000000000000000000000000000000000000000000000000000000000000000000000000000000000000000000000000000000000000000000000000000000000000000000000000000000000000000000000000000000000000000000000000000000000000000000000000000000000000000000000000000000000000000000000000000000000000000000000000",
                    "coinbase" : "0x2adc25665018aa1fe0e6bc666dac8fc2697ff9ba",
                    "difficulty" : "0x20000",
                    "extraData" : "0x00",
                    "gasLimit" : "0xb2fd1216",
                    "gasUsed" : "0xd427",
                    "hash" : "0x811853259979ce038915d6a3999d42bc8f19e182a490ae5da1e93587860c241b",
                    "mixHash" : "0x0000000000000000000000000000000000000000000000000000000000000000",
                    "nonce" : "0x0000000000000000",
                    "number" : "0x1",
                    "parentHash" : "0x81f7e70bd830a801c02274f2cd92ae844b29a697d5d7ec153c083592966aa5c9",
                    "receiptTrie" : "0x235fce3350f150ba978a488a7239d479f2f8e4f8c09d295bd1db8f765862223b",
                    "stateRoot" : "0x5f5b09f6c00c4198e8ca45424fd9274479ee85c109a21f4df5515f9a9643ee76",
                    "timestamp" : "0x3e8",
                    "transactionsTrie" : "0xb03e5408b1d9b6c0423a92fd8aa91b4717ab6cc61e9254b79e47d9526c9c5429",
                    "uncleHash" : "0x1dcc4de8dec75d7aab85b567b6ccd41ad312451b948a7413f0a142fd40d49347"
                },
                "transactions" : [
                    {
                        "data" : "0x0000000000000000000000003000000000000000000000000000000000000001",
                        "gasLimit" : "0x0493e0",
                        "gasPrice" : "0x01",
                        "nonce" : "0x00",
                        "to" : "0x1000000000000000000000000000000000000000",
                        "value" : "0x01",
                        "v" : "0x1b",
                        "r" : "0xe60b48b282f13522fe9e33ebad5c8eb07e3cac3c94ff3fe1efb5104f4575d2a0",
                        "s" : "0x5df50fd6059e774a65773ebbcfd44697b623716c0b906f9ab7734fb25ec5d53b"
                    }
                ]
            }
        ]
    },
    "callToSuicideThenExtcodehash_d3g0v0_Istanbul" : {
        "_info" : {
            "comment" : "https://github.com/ethereum/tests/issues/652",
            "filling-rpc-server" : "Geth-1.9.7-unstable-b566cfdf-20191104",
            "filling-tool-version" : "retesteth-0.0.1+commit.47c32403.Linux.g++",
            "lllcversion" : "Version: 0.5.12-develop.2019.9.13+commit.2d601a4f.Linux.g++",
            "source" : "src/GeneralStateTestsFiller/stExtCodeHash/callToSuicideThenExtcodehashFiller.json",
            "sourceHash" : "d64787bab2322f058261a98c1482ecf5cfa5917bec267d236d521fcff3eebfa6"
        },
        "genesisBlockHeader" : {
            "bloom" : "0x00000000000000000000000000000000000000000000000000000000000000000000000000000000000000000000000000000000000000000000000000000000000000000000000000000000000000000000000000000000000000000000000000000000000000000000000000000000000000000000000000000000000000000000000000000000000000000000000000000000000000000000000000000000000000000000000000000000000000000000000000000000000000000000000000000000000000000000000000000000000000000000000000000000000000000000000000000000000000000000000000000000000000000000000000000000",
            "coinbase" : "0x2adc25665018aa1fe0e6bc666dac8fc2697ff9ba",
            "difficulty" : "0x20000",
            "extraData" : "0x00",
            "gasLimit" : "0xb2d05e00",
            "gasUsed" : "0x0",
            "hash" : "0x81f7e70bd830a801c02274f2cd92ae844b29a697d5d7ec153c083592966aa5c9",
            "mixHash" : "0x0000000000000000000000000000000000000000000000000000000000000000",
            "nonce" : "0x0000000000000000",
            "number" : "0x0",
            "parentHash" : "0x0000000000000000000000000000000000000000000000000000000000000000",
            "receiptTrie" : "0x56e81f171bcc55a6ff8345e692c0f86e5b48e01b996cadc001622fb5e363b421",
            "stateRoot" : "0xe1e735af46d9d05aad8fc0d52d262d0285d246e4c54541c652d9327e8f420f82",
            "timestamp" : "0x0",
            "transactionsTrie" : "0x56e81f171bcc55a6ff8345e692c0f86e5b48e01b996cadc001622fb5e363b421",
            "uncleHash" : "0x1dcc4de8dec75d7aab85b567b6ccd41ad312451b948a7413f0a142fd40d49347"
        },
        "pre" : {
            "0x1000000000000000000000000000000000000000" : {
                "balance" : "0x00",
                "code" : "0x604060006040600060006000355af200",
                "nonce" : "0x00",
                "storage" : {
                    "0x01" : "0x1122"
                }
            },
            "0x1000000000000000000000000000000000000001" : {
                "balance" : "0x00",
                "code" : "0x6000600060006000600073dead00000000000000000000000000000000000162028488f160005573dead0000000000000000000000000000000000013f60015500",
                "nonce" : "0x00",
                "storage" : {
                }
            },
            "0x2000000000000000000000000000000000000001" : {
                "balance" : "0x00",
                "code" : "0x6000600060006000600073dead00000000000000000000000000000000000162028488f260005573dead0000000000000000000000000000000000013f60015500",
                "nonce" : "0x00",
                "storage" : {
                }
            },
            "0x3000000000000000000000000000000000000001" : {
                "balance" : "0x00",
                "code" : "0x600060006000600073dead00000000000000000000000000000000000162028488f460005573dead0000000000000000000000000000000000013f60015500",
                "nonce" : "0x00",
                "storage" : {
                }
            },
            "0x4000000000000000000000000000000000000001" : {
                "balance" : "0x00",
                "code" : "0x600060006000600073dead00000000000000000000000000000000000162028488fa60005573dead0000000000000000000000000000000000013f60015500",
                "nonce" : "0x00",
                "storage" : {
                }
            },
            "0xa94f5374fce5edbc8e2a8697c15331677e6ebf0b" : {
                "balance" : "0x0de0b6b3a7640000",
                "code" : "0x",
                "nonce" : "0x00",
                "storage" : {
                }
            },
            "0xdead000000000000000000000000000000000001" : {
                "balance" : "0x014b230ce3",
                "code" : "0x6025ff00",
                "nonce" : "0x00",
                "storage" : {
                }
            }
        },
        "postState" : {
            "0xa94f5374fce5edbc8e2a8697c15331677e6ebf0b" : {
                "code" : "0x",
                "nonce" : "0x01",
                "balance" : "0x0de0b6b3a76109c3",
                "storage" : {
                }
            },
            "0x4000000000000000000000000000000000000001" : {
                "code" : "0x600060006000600073dead00000000000000000000000000000000000162028488fa60005573dead0000000000000000000000000000000000013f60015500",
                "nonce" : "0x00",
                "balance" : "0x00",
                "storage" : {
                }
            },
            "0x1000000000000000000000000000000000000001" : {
                "code" : "0x6000600060006000600073dead00000000000000000000000000000000000162028488f160005573dead0000000000000000000000000000000000013f60015500",
                "nonce" : "0x00",
                "balance" : "0x00",
                "storage" : {
                }
            },
            "0x3000000000000000000000000000000000000001" : {
                "code" : "0x600060006000600073dead00000000000000000000000000000000000162028488f460005573dead0000000000000000000000000000000000013f60015500",
                "nonce" : "0x00",
                "balance" : "0x00",
                "storage" : {
                }
            },
            "0x2000000000000000000000000000000000000001" : {
                "code" : "0x6000600060006000600073dead00000000000000000000000000000000000162028488f260005573dead0000000000000000000000000000000000013f60015500",
                "nonce" : "0x00",
                "balance" : "0x00",
                "storage" : {
                }
            },
            "0x2adc25665018aa1fe0e6bc666dac8fc2697ff9ba" : {
                "code" : "0x",
                "nonce" : "0x00",
                "balance" : "0x1bc16d674ecaf63c",
                "storage" : {
                }
            },
            "0xdead000000000000000000000000000000000001" : {
                "code" : "0x6025ff00",
                "nonce" : "0x00",
                "balance" : "0x014b230ce3",
                "storage" : {
                }
            },
            "0x1000000000000000000000000000000000000000" : {
                "code" : "0x604060006040600060006000355af200",
                "nonce" : "0x00",
                "balance" : "0x01",
                "storage" : {
                    "0x01" : "0x2f715723d7cde71586406b2995d4fc62acc9ce1adb8df087cc8d4502d047d3ca"
                }
            }
        },
        "network" : "Istanbul",
        "sealEngine" : "NoProof",
        "lastblockhash" : "0xfde1a0714d8db81b6d03bfe6e5f43c11d9231ca320c4d2f339545d554447b333",
        "genesisRLP" : "0xf901f9f901f4a00000000000000000000000000000000000000000000000000000000000000000a01dcc4de8dec75d7aab85b567b6ccd41ad312451b948a7413f0a142fd40d49347942adc25665018aa1fe0e6bc666dac8fc2697ff9baa0e1e735af46d9d05aad8fc0d52d262d0285d246e4c54541c652d9327e8f420f82a056e81f171bcc55a6ff8345e692c0f86e5b48e01b996cadc001622fb5e363b421a056e81f171bcc55a6ff8345e692c0f86e5b48e01b996cadc001622fb5e363b421b9010000000000000000000000000000000000000000000000000000000000000000000000000000000000000000000000000000000000000000000000000000000000000000000000000000000000000000000000000000000000000000000000000000000000000000000000000000000000000000000000000000000000000000000000000000000000000000000000000000000000000000000000000000000000000000000000000000000000000000000000000000000000000000000000000000000000000000000000000000000000000000000000000000000000000000000000000000000000000000000000000000000000000000000000000000000000830200008084b2d05e00808000a00000000000000000000000000000000000000000000000000000000000000000880000000000000000c0c0",
        "blocks" : [
            {
                "rlp" : "0xf90281f901f9a081f7e70bd830a801c02274f2cd92ae844b29a697d5d7ec153c083592966aa5c9a01dcc4de8dec75d7aab85b567b6ccd41ad312451b948a7413f0a142fd40d49347942adc25665018aa1fe0e6bc666dac8fc2697ff9baa06809595b8aa03f481103369e13d007e6590d92f0bcccd37b641fc2e67848d105a0289b5d3231dce67c6fd2b7f22e12d87886b1ae0d72b4ac2653b4ca66af6c6dbea0388d19e81ae85866f8d61191300ecef3a1866fbbd7f738c09f49cd670a80dc62b9010000000000000000000000000000000000000000000000000000000000000000000000000000000000000000000000000000000000000000000000000000000000000000000000000000000000000000000000000000000000000000000000000000000000000000000000000000000000000000000000000000000000000000000000000000000000000000000000000000000000000000000000000000000000000000000000000000000000000000000000000000000000000000000000000000000000000000000000000000000000000000000000000000000000000000000000000000000000000000000000000000000000000000000000000000000000830200000184b2fd12168302f63c8203e800a00000000000000000000000000000000000000000000000000000000000000000880000000000000000f882f8808001830493e094100000000000000000000000000000000000000001a000000000000000000000000040000000000000000000000000000000000000011ba01ee88725685e44d98c968151b5b8fb7e8482237b91293e94fc0a7d58efc337d5a070133fa4e26e348c4c328fd7280c1ee7bf102a09e6efab24cc7f734a919357e2c0",
                "blockHeader" : {
                    "bloom" : "0x00000000000000000000000000000000000000000000000000000000000000000000000000000000000000000000000000000000000000000000000000000000000000000000000000000000000000000000000000000000000000000000000000000000000000000000000000000000000000000000000000000000000000000000000000000000000000000000000000000000000000000000000000000000000000000000000000000000000000000000000000000000000000000000000000000000000000000000000000000000000000000000000000000000000000000000000000000000000000000000000000000000000000000000000000000000",
                    "coinbase" : "0x2adc25665018aa1fe0e6bc666dac8fc2697ff9ba",
                    "difficulty" : "0x20000",
                    "extraData" : "0x00",
                    "gasLimit" : "0xb2fd1216",
                    "gasUsed" : "0x2f63c",
                    "hash" : "0xfde1a0714d8db81b6d03bfe6e5f43c11d9231ca320c4d2f339545d554447b333",
                    "mixHash" : "0x0000000000000000000000000000000000000000000000000000000000000000",
                    "nonce" : "0x0000000000000000",
                    "number" : "0x1",
                    "parentHash" : "0x81f7e70bd830a801c02274f2cd92ae844b29a697d5d7ec153c083592966aa5c9",
                    "receiptTrie" : "0x388d19e81ae85866f8d61191300ecef3a1866fbbd7f738c09f49cd670a80dc62",
                    "stateRoot" : "0x6809595b8aa03f481103369e13d007e6590d92f0bcccd37b641fc2e67848d105",
                    "timestamp" : "0x3e8",
                    "transactionsTrie" : "0x289b5d3231dce67c6fd2b7f22e12d87886b1ae0d72b4ac2653b4ca66af6c6dbe",
                    "uncleHash" : "0x1dcc4de8dec75d7aab85b567b6ccd41ad312451b948a7413f0a142fd40d49347"
                },
                "transactions" : [
                    {
                        "data" : "0x0000000000000000000000004000000000000000000000000000000000000001",
                        "gasLimit" : "0x0493e0",
                        "gasPrice" : "0x01",
                        "nonce" : "0x00",
                        "to" : "0x1000000000000000000000000000000000000000",
                        "value" : "0x01",
                        "v" : "0x1b",
                        "r" : "0x1ee88725685e44d98c968151b5b8fb7e8482237b91293e94fc0a7d58efc337d5",
                        "s" : "0x70133fa4e26e348c4c328fd7280c1ee7bf102a09e6efab24cc7f734a919357e2"
                    }
                ]
            }
        ]
    }
}