{
    "callToNonExistent_d0g0v0_Istanbul" : {
        "_info" : {
            "comment" : "https://github.com/ethereum/tests/issues/652",
            "filling-rpc-server" : "Geth-1.9.7-unstable-b566cfdf-20191104",
            "filling-tool-version" : "retesteth-0.0.1+commit.47c32403.Linux.g++",
            "lllcversion" : "Version: 0.5.12-develop.2019.9.13+commit.2d601a4f.Linux.g++",
            "source" : "src/GeneralStateTestsFiller/stExtCodeHash/callToNonExistentFiller.json",
            "sourceHash" : "5eef8c0b0ca809ea5d2e876805427281893e13cc053f06177d648ebcc57e361e"
        },
        "genesisBlockHeader" : {
            "bloom" : "0x00000000000000000000000000000000000000000000000000000000000000000000000000000000000000000000000000000000000000000000000000000000000000000000000000000000000000000000000000000000000000000000000000000000000000000000000000000000000000000000000000000000000000000000000000000000000000000000000000000000000000000000000000000000000000000000000000000000000000000000000000000000000000000000000000000000000000000000000000000000000000000000000000000000000000000000000000000000000000000000000000000000000000000000000000000000",
            "coinbase" : "0x2adc25665018aa1fe0e6bc666dac8fc2697ff9ba",
            "difficulty" : "0x20000",
            "extraData" : "0x00",
            "gasLimit" : "0xb2d05e00",
            "gasUsed" : "0x0",
            "hash" : "0x211ae9f6ddb16a3501a74144d291bef32a2de3484230a695ff804229549c4ac9",
            "mixHash" : "0x0000000000000000000000000000000000000000000000000000000000000000",
            "nonce" : "0x0000000000000000",
            "number" : "0x0",
            "parentHash" : "0x0000000000000000000000000000000000000000000000000000000000000000",
            "receiptTrie" : "0x56e81f171bcc55a6ff8345e692c0f86e5b48e01b996cadc001622fb5e363b421",
            "stateRoot" : "0xcd93c7f9d042b85b6a673eb1ba0e2681a325a66528df3599ca21390d4f1a1911",
            "timestamp" : "0x0",
            "transactionsTrie" : "0x56e81f171bcc55a6ff8345e692c0f86e5b48e01b996cadc001622fb5e363b421",
            "uncleHash" : "0x1dcc4de8dec75d7aab85b567b6ccd41ad312451b948a7413f0a142fd40d49347"
        },
        "pre" : {
            "0x1000000000000000000000000000000000000000" : {
                "balance" : "0x00",
                "code" : "0x604060006040600060006000355af200",
                "nonce" : "0x00",
                "storage" : {
                    "0x01" : "0x1122"
                }
            },
            "0x1000000000000000000000000000000000000001" : {
                "balance" : "0x00",
                "code" : "0x6000600060006000600073dead0000000000000000000000000000000000016161a8f160005573dead0000000000000000000000000000000000013f60015500",
                "nonce" : "0x00",
                "storage" : {
                }
            },
            "0x2000000000000000000000000000000000000001" : {
                "balance" : "0x00",
                "code" : "0x6000600060006000600073dead0000000000000000000000000000000000016161a8f260005573dead0000000000000000000000000000000000013f60015500",
                "nonce" : "0x00",
                "storage" : {
                }
            },
            "0x3000000000000000000000000000000000000001" : {
                "balance" : "0x00",
                "code" : "0x600060006000600073dead0000000000000000000000000000000000016161a8f460005573dead0000000000000000000000000000000000013f60015500",
                "nonce" : "0x00",
                "storage" : {
                }
            },
            "0x4000000000000000000000000000000000000001" : {
                "balance" : "0x00",
                "code" : "0x600060006000600073dead0000000000000000000000000000000000016161a8fa60005573dead0000000000000000000000000000000000013f60015500",
                "nonce" : "0x00",
                "storage" : {
                }
            },
            "0xa94f5374fce5edbc8e2a8697c15331677e6ebf0b" : {
                "balance" : "0x0de0b6b3a7640000",
                "code" : "0x",
                "nonce" : "0x00",
                "storage" : {
                }
            }
        },
        "postState" : {
            "0xa94f5374fce5edbc8e2a8697c15331677e6ebf0b" : {
                "code" : "0x",
                "nonce" : "0x01",
                "balance" : "0x0de0b6b3a7637de0",
                "storage" : {
                }
            },
            "0x4000000000000000000000000000000000000001" : {
                "code" : "0x600060006000600073dead0000000000000000000000000000000000016161a8fa60005573dead0000000000000000000000000000000000013f60015500",
                "nonce" : "0x00",
                "balance" : "0x00",
                "storage" : {
                }
            },
            "0x1000000000000000000000000000000000000001" : {
                "code" : "0x6000600060006000600073dead0000000000000000000000000000000000016161a8f160005573dead0000000000000000000000000000000000013f60015500",
                "nonce" : "0x00",
                "balance" : "0x00",
                "storage" : {
                }
            },
            "0x3000000000000000000000000000000000000001" : {
                "code" : "0x600060006000600073dead0000000000000000000000000000000000016161a8f460005573dead0000000000000000000000000000000000013f60015500",
                "nonce" : "0x00",
                "balance" : "0x00",
                "storage" : {
                }
            },
            "0x2000000000000000000000000000000000000001" : {
                "code" : "0x6000600060006000600073dead0000000000000000000000000000000000016161a8f260005573dead0000000000000000000000000000000000013f60015500",
                "nonce" : "0x00",
                "balance" : "0x00",
                "storage" : {
                }
            },
            "0x2adc25665018aa1fe0e6bc666dac8fc2697ff9ba" : {
                "code" : "0x",
                "nonce" : "0x00",
                "balance" : "0x1bc16d674ec8821f",
                "storage" : {
                }
            },
            "0x1000000000000000000000000000000000000000" : {
                "code" : "0x604060006040600060006000355af200",
                "nonce" : "0x00",
                "balance" : "0x01",
                "storage" : {
                    "0x00" : "0x01"
                }
            }
        },
        "network" : "Istanbul",
        "sealEngine" : "NoProof",
        "lastblockhash" : "0xc89d2e51e67ee0d0dc4afdc394a9c554a930f01228acf6b7b75ceaf94ad676d8",
        "genesisRLP" : "0xf901f9f901f4a00000000000000000000000000000000000000000000000000000000000000000a01dcc4de8dec75d7aab85b567b6ccd41ad312451b948a7413f0a142fd40d49347942adc25665018aa1fe0e6bc666dac8fc2697ff9baa0cd93c7f9d042b85b6a673eb1ba0e2681a325a66528df3599ca21390d4f1a1911a056e81f171bcc55a6ff8345e692c0f86e5b48e01b996cadc001622fb5e363b421a056e81f171bcc55a6ff8345e692c0f86e5b48e01b996cadc001622fb5e363b421b9010000000000000000000000000000000000000000000000000000000000000000000000000000000000000000000000000000000000000000000000000000000000000000000000000000000000000000000000000000000000000000000000000000000000000000000000000000000000000000000000000000000000000000000000000000000000000000000000000000000000000000000000000000000000000000000000000000000000000000000000000000000000000000000000000000000000000000000000000000000000000000000000000000000000000000000000000000000000000000000000000000000000000000000000000000000000830200008084b2d05e00808000a00000000000000000000000000000000000000000000000000000000000000000880000000000000000c0c0",
        "blocks" : [
            {
                "rlp" : "0xf90280f901f8a0211ae9f6ddb16a3501a74144d291bef32a2de3484230a695ff804229549c4ac9a01dcc4de8dec75d7aab85b567b6ccd41ad312451b948a7413f0a142fd40d49347942adc25665018aa1fe0e6bc666dac8fc2697ff9baa071a73ae8813921a02459927f1a3d534ed790498034dee89cd50ab67dc3a98444a0a3b18cc21e0e4c864e7d21bb6ec933775a2bdfad2bbbb79b905d7d2b3620cc5ea0f2b9f764e45cb435f39843c7dea513e495a9afa594a286b0813bd861afa33509b9010000000000000000000000000000000000000000000000000000000000000000000000000000000000000000000000000000000000000000000000000000000000000000000000000000000000000000000000000000000000000000000000000000000000000000000000000000000000000000000000000000000000000000000000000000000000000000000000000000000000000000000000000000000000000000000000000000000000000000000000000000000000000000000000000000000000000000000000000000000000000000000000000000000000000000000000000000000000000000000000000000000000000000000000000000000000830200000184b2fd121682821f8203e800a00000000000000000000000000000000000000000000000000000000000000000880000000000000000f882f8808001830186a094100000000000000000000000000000000000000001a000000000000000000000000010000000000000000000000000000000000000011ca050cff3c5301f4bcdd5a6a7b7942d878b3f88a4e2a20274a6e15b7290e69686d8a061b9333e32db6f2392268ccbd261cb5b0d94804baccdacd770639b769388b04dc0",
                "blockHeader" : {
                    "bloom" : "0x00000000000000000000000000000000000000000000000000000000000000000000000000000000000000000000000000000000000000000000000000000000000000000000000000000000000000000000000000000000000000000000000000000000000000000000000000000000000000000000000000000000000000000000000000000000000000000000000000000000000000000000000000000000000000000000000000000000000000000000000000000000000000000000000000000000000000000000000000000000000000000000000000000000000000000000000000000000000000000000000000000000000000000000000000000000",
                    "coinbase" : "0x2adc25665018aa1fe0e6bc666dac8fc2697ff9ba",
                    "difficulty" : "0x20000",
                    "extraData" : "0x00",
                    "gasLimit" : "0xb2fd1216",
                    "gasUsed" : "0x821f",
                    "hash" : "0xc89d2e51e67ee0d0dc4afdc394a9c554a930f01228acf6b7b75ceaf94ad676d8",
                    "mixHash" : "0x0000000000000000000000000000000000000000000000000000000000000000",
                    "nonce" : "0x0000000000000000",
                    "number" : "0x1",
                    "parentHash" : "0x211ae9f6ddb16a3501a74144d291bef32a2de3484230a695ff804229549c4ac9",
                    "receiptTrie" : "0xf2b9f764e45cb435f39843c7dea513e495a9afa594a286b0813bd861afa33509",
                    "stateRoot" : "0x71a73ae8813921a02459927f1a3d534ed790498034dee89cd50ab67dc3a98444",
                    "timestamp" : "0x3e8",
                    "transactionsTrie" : "0xa3b18cc21e0e4c864e7d21bb6ec933775a2bdfad2bbbb79b905d7d2b3620cc5e",
                    "uncleHash" : "0x1dcc4de8dec75d7aab85b567b6ccd41ad312451b948a7413f0a142fd40d49347"
                },
                "transactions" : [
                    {
                        "data" : "0x0000000000000000000000001000000000000000000000000000000000000001",
                        "gasLimit" : "0x0186a0",
                        "gasPrice" : "0x01",
                        "nonce" : "0x00",
                        "to" : "0x1000000000000000000000000000000000000000",
                        "value" : "0x01",
                        "v" : "0x1c",
                        "r" : "0x50cff3c5301f4bcdd5a6a7b7942d878b3f88a4e2a20274a6e15b7290e69686d8",
                        "s" : "0x61b9333e32db6f2392268ccbd261cb5b0d94804baccdacd770639b769388b04d"
                    }
                ]
            }
        ]
    },
    "callToNonExistent_d1g0v0_Istanbul" : {
        "_info" : {
            "comment" : "https://github.com/ethereum/tests/issues/652",
            "filling-rpc-server" : "Geth-1.9.7-unstable-b566cfdf-20191104",
            "filling-tool-version" : "retesteth-0.0.1+commit.47c32403.Linux.g++",
            "lllcversion" : "Version: 0.5.12-develop.2019.9.13+commit.2d601a4f.Linux.g++",
            "source" : "src/GeneralStateTestsFiller/stExtCodeHash/callToNonExistentFiller.json",
            "sourceHash" : "5eef8c0b0ca809ea5d2e876805427281893e13cc053f06177d648ebcc57e361e"
        },
        "genesisBlockHeader" : {
            "bloom" : "0x00000000000000000000000000000000000000000000000000000000000000000000000000000000000000000000000000000000000000000000000000000000000000000000000000000000000000000000000000000000000000000000000000000000000000000000000000000000000000000000000000000000000000000000000000000000000000000000000000000000000000000000000000000000000000000000000000000000000000000000000000000000000000000000000000000000000000000000000000000000000000000000000000000000000000000000000000000000000000000000000000000000000000000000000000000000",
            "coinbase" : "0x2adc25665018aa1fe0e6bc666dac8fc2697ff9ba",
            "difficulty" : "0x20000",
            "extraData" : "0x00",
            "gasLimit" : "0xb2d05e00",
            "gasUsed" : "0x0",
            "hash" : "0x211ae9f6ddb16a3501a74144d291bef32a2de3484230a695ff804229549c4ac9",
            "mixHash" : "0x0000000000000000000000000000000000000000000000000000000000000000",
            "nonce" : "0x0000000000000000",
            "number" : "0x0",
            "parentHash" : "0x0000000000000000000000000000000000000000000000000000000000000000",
            "receiptTrie" : "0x56e81f171bcc55a6ff8345e692c0f86e5b48e01b996cadc001622fb5e363b421",
            "stateRoot" : "0xcd93c7f9d042b85b6a673eb1ba0e2681a325a66528df3599ca21390d4f1a1911",
            "timestamp" : "0x0",
            "transactionsTrie" : "0x56e81f171bcc55a6ff8345e692c0f86e5b48e01b996cadc001622fb5e363b421",
            "uncleHash" : "0x1dcc4de8dec75d7aab85b567b6ccd41ad312451b948a7413f0a142fd40d49347"
        },
        "pre" : {
            "0x1000000000000000000000000000000000000000" : {
                "balance" : "0x00",
                "code" : "0x604060006040600060006000355af200",
                "nonce" : "0x00",
                "storage" : {
                    "0x01" : "0x1122"
                }
            },
            "0x1000000000000000000000000000000000000001" : {
                "balance" : "0x00",
                "code" : "0x6000600060006000600073dead0000000000000000000000000000000000016161a8f160005573dead0000000000000000000000000000000000013f60015500",
                "nonce" : "0x00",
                "storage" : {
                }
            },
            "0x2000000000000000000000000000000000000001" : {
                "balance" : "0x00",
                "code" : "0x6000600060006000600073dead0000000000000000000000000000000000016161a8f260005573dead0000000000000000000000000000000000013f60015500",
                "nonce" : "0x00",
                "storage" : {
                }
            },
            "0x3000000000000000000000000000000000000001" : {
                "balance" : "0x00",
                "code" : "0x600060006000600073dead0000000000000000000000000000000000016161a8f460005573dead0000000000000000000000000000000000013f60015500",
                "nonce" : "0x00",
                "storage" : {
                }
            },
            "0x4000000000000000000000000000000000000001" : {
                "balance" : "0x00",
                "code" : "0x600060006000600073dead0000000000000000000000000000000000016161a8fa60005573dead0000000000000000000000000000000000013f60015500",
                "nonce" : "0x00",
                "storage" : {
                }
            },
            "0xa94f5374fce5edbc8e2a8697c15331677e6ebf0b" : {
                "balance" : "0x0de0b6b3a7640000",
                "code" : "0x",
                "nonce" : "0x00",
                "storage" : {
                }
            }
        },
        "postState" : {
            "0xa94f5374fce5edbc8e2a8697c15331677e6ebf0b" : {
                "code" : "0x",
                "nonce" : "0x01",
                "balance" : "0x0de0b6b3a7637de0",
                "storage" : {
                }
            },
            "0x4000000000000000000000000000000000000001" : {
                "code" : "0x600060006000600073dead0000000000000000000000000000000000016161a8fa60005573dead0000000000000000000000000000000000013f60015500",
                "nonce" : "0x00",
                "balance" : "0x00",
                "storage" : {
                }
            },
            "0x1000000000000000000000000000000000000001" : {
                "code" : "0x6000600060006000600073dead0000000000000000000000000000000000016161a8f160005573dead0000000000000000000000000000000000013f60015500",
                "nonce" : "0x00",
                "balance" : "0x00",
                "storage" : {
                }
            },
            "0x3000000000000000000000000000000000000001" : {
                "code" : "0x600060006000600073dead0000000000000000000000000000000000016161a8f460005573dead0000000000000000000000000000000000013f60015500",
                "nonce" : "0x00",
                "balance" : "0x00",
                "storage" : {
                }
            },
            "0x2000000000000000000000000000000000000001" : {
                "code" : "0x6000600060006000600073dead0000000000000000000000000000000000016161a8f260005573dead0000000000000000000000000000000000013f60015500",
                "nonce" : "0x00",
                "balance" : "0x00",
                "storage" : {
                }
            },
            "0x2adc25665018aa1fe0e6bc666dac8fc2697ff9ba" : {
                "code" : "0x",
                "nonce" : "0x00",
                "balance" : "0x1bc16d674ec8821f",
                "storage" : {
                }
            },
            "0x1000000000000000000000000000000000000000" : {
                "code" : "0x604060006040600060006000355af200",
                "nonce" : "0x00",
                "balance" : "0x01",
                "storage" : {
                    "0x00" : "0x01"
                }
            }
        },
        "network" : "Istanbul",
        "sealEngine" : "NoProof",
        "lastblockhash" : "0x4b2182d00ea1fbd1e67fa059ff4d6b094eb0bca23a21d1e9e193b3de00e6c1f0",
        "genesisRLP" : "0xf901f9f901f4a00000000000000000000000000000000000000000000000000000000000000000a01dcc4de8dec75d7aab85b567b6ccd41ad312451b948a7413f0a142fd40d49347942adc25665018aa1fe0e6bc666dac8fc2697ff9baa0cd93c7f9d042b85b6a673eb1ba0e2681a325a66528df3599ca21390d4f1a1911a056e81f171bcc55a6ff8345e692c0f86e5b48e01b996cadc001622fb5e363b421a056e81f171bcc55a6ff8345e692c0f86e5b48e01b996cadc001622fb5e363b421b9010000000000000000000000000000000000000000000000000000000000000000000000000000000000000000000000000000000000000000000000000000000000000000000000000000000000000000000000000000000000000000000000000000000000000000000000000000000000000000000000000000000000000000000000000000000000000000000000000000000000000000000000000000000000000000000000000000000000000000000000000000000000000000000000000000000000000000000000000000000000000000000000000000000000000000000000000000000000000000000000000000000000000000000000000000000000830200008084b2d05e00808000a00000000000000000000000000000000000000000000000000000000000000000880000000000000000c0c0",
        "blocks" : [
            {
                "rlp" : "0xf90280f901f8a0211ae9f6ddb16a3501a74144d291bef32a2de3484230a695ff804229549c4ac9a01dcc4de8dec75d7aab85b567b6ccd41ad312451b948a7413f0a142fd40d49347942adc25665018aa1fe0e6bc666dac8fc2697ff9baa071a73ae8813921a02459927f1a3d534ed790498034dee89cd50ab67dc3a98444a0581027715eb4dabeafebc2db6a061855cdefcdfee55dcf7fb1a9128ad2a0e34ba0f2b9f764e45cb435f39843c7dea513e495a9afa594a286b0813bd861afa33509b9010000000000000000000000000000000000000000000000000000000000000000000000000000000000000000000000000000000000000000000000000000000000000000000000000000000000000000000000000000000000000000000000000000000000000000000000000000000000000000000000000000000000000000000000000000000000000000000000000000000000000000000000000000000000000000000000000000000000000000000000000000000000000000000000000000000000000000000000000000000000000000000000000000000000000000000000000000000000000000000000000000000000000000000000000000000000830200000184b2fd121682821f8203e800a00000000000000000000000000000000000000000000000000000000000000000880000000000000000f882f8808001830186a094100000000000000000000000000000000000000001a000000000000000000000000020000000000000000000000000000000000000011ba083a4cda8ba4c4de764c922ef7914c62113ee8fc34a0738631e9c191eb38d6060a04e89cee33c8696bf934b3389c672c5a42ad3be569f4e2d48c7eaf3c77664b22cc0",
                "blockHeader" : {
                    "bloom" : "0x00000000000000000000000000000000000000000000000000000000000000000000000000000000000000000000000000000000000000000000000000000000000000000000000000000000000000000000000000000000000000000000000000000000000000000000000000000000000000000000000000000000000000000000000000000000000000000000000000000000000000000000000000000000000000000000000000000000000000000000000000000000000000000000000000000000000000000000000000000000000000000000000000000000000000000000000000000000000000000000000000000000000000000000000000000000",
                    "coinbase" : "0x2adc25665018aa1fe0e6bc666dac8fc2697ff9ba",
                    "difficulty" : "0x20000",
                    "extraData" : "0x00",
                    "gasLimit" : "0xb2fd1216",
                    "gasUsed" : "0x821f",
                    "hash" : "0x4b2182d00ea1fbd1e67fa059ff4d6b094eb0bca23a21d1e9e193b3de00e6c1f0",
                    "mixHash" : "0x0000000000000000000000000000000000000000000000000000000000000000",
                    "nonce" : "0x0000000000000000",
                    "number" : "0x1",
                    "parentHash" : "0x211ae9f6ddb16a3501a74144d291bef32a2de3484230a695ff804229549c4ac9",
                    "receiptTrie" : "0xf2b9f764e45cb435f39843c7dea513e495a9afa594a286b0813bd861afa33509",
                    "stateRoot" : "0x71a73ae8813921a02459927f1a3d534ed790498034dee89cd50ab67dc3a98444",
                    "timestamp" : "0x3e8",
                    "transactionsTrie" : "0x581027715eb4dabeafebc2db6a061855cdefcdfee55dcf7fb1a9128ad2a0e34b",
                    "uncleHash" : "0x1dcc4de8dec75d7aab85b567b6ccd41ad312451b948a7413f0a142fd40d49347"
                },
                "transactions" : [
                    {
                        "data" : "0x0000000000000000000000002000000000000000000000000000000000000001",
                        "gasLimit" : "0x0186a0",
                        "gasPrice" : "0x01",
                        "nonce" : "0x00",
                        "to" : "0x1000000000000000000000000000000000000000",
                        "value" : "0x01",
                        "v" : "0x1b",
                        "r" : "0x83a4cda8ba4c4de764c922ef7914c62113ee8fc34a0738631e9c191eb38d6060",
                        "s" : "0x4e89cee33c8696bf934b3389c672c5a42ad3be569f4e2d48c7eaf3c77664b22c"
                    }
                ]
            }
        ]
    },
    "callToNonExistent_d2g0v0_Istanbul" : {
        "_info" : {
            "comment" : "https://github.com/ethereum/tests/issues/652",
            "filling-rpc-server" : "Geth-1.9.7-unstable-b566cfdf-20191104",
            "filling-tool-version" : "retesteth-0.0.1+commit.47c32403.Linux.g++",
            "lllcversion" : "Version: 0.5.12-develop.2019.9.13+commit.2d601a4f.Linux.g++",
            "source" : "src/GeneralStateTestsFiller/stExtCodeHash/callToNonExistentFiller.json",
            "sourceHash" : "5eef8c0b0ca809ea5d2e876805427281893e13cc053f06177d648ebcc57e361e"
        },
        "genesisBlockHeader" : {
            "bloom" : "0x00000000000000000000000000000000000000000000000000000000000000000000000000000000000000000000000000000000000000000000000000000000000000000000000000000000000000000000000000000000000000000000000000000000000000000000000000000000000000000000000000000000000000000000000000000000000000000000000000000000000000000000000000000000000000000000000000000000000000000000000000000000000000000000000000000000000000000000000000000000000000000000000000000000000000000000000000000000000000000000000000000000000000000000000000000000",
            "coinbase" : "0x2adc25665018aa1fe0e6bc666dac8fc2697ff9ba",
            "difficulty" : "0x20000",
            "extraData" : "0x00",
            "gasLimit" : "0xb2d05e00",
            "gasUsed" : "0x0",
            "hash" : "0x211ae9f6ddb16a3501a74144d291bef32a2de3484230a695ff804229549c4ac9",
            "mixHash" : "0x0000000000000000000000000000000000000000000000000000000000000000",
            "nonce" : "0x0000000000000000",
            "number" : "0x0",
            "parentHash" : "0x0000000000000000000000000000000000000000000000000000000000000000",
            "receiptTrie" : "0x56e81f171bcc55a6ff8345e692c0f86e5b48e01b996cadc001622fb5e363b421",
            "stateRoot" : "0xcd93c7f9d042b85b6a673eb1ba0e2681a325a66528df3599ca21390d4f1a1911",
            "timestamp" : "0x0",
            "transactionsTrie" : "0x56e81f171bcc55a6ff8345e692c0f86e5b48e01b996cadc001622fb5e363b421",
            "uncleHash" : "0x1dcc4de8dec75d7aab85b567b6ccd41ad312451b948a7413f0a142fd40d49347"
        },
        "pre" : {
            "0x1000000000000000000000000000000000000000" : {
                "balance" : "0x00",
                "code" : "0x604060006040600060006000355af200",
                "nonce" : "0x00",
                "storage" : {
                    "0x01" : "0x1122"
                }
            },
            "0x1000000000000000000000000000000000000001" : {
                "balance" : "0x00",
                "code" : "0x6000600060006000600073dead0000000000000000000000000000000000016161a8f160005573dead0000000000000000000000000000000000013f60015500",
                "nonce" : "0x00",
                "storage" : {
                }
            },
            "0x2000000000000000000000000000000000000001" : {
                "balance" : "0x00",
                "code" : "0x6000600060006000600073dead0000000000000000000000000000000000016161a8f260005573dead0000000000000000000000000000000000013f60015500",
                "nonce" : "0x00",
                "storage" : {
                }
            },
            "0x3000000000000000000000000000000000000001" : {
                "balance" : "0x00",
                "code" : "0x600060006000600073dead0000000000000000000000000000000000016161a8f460005573dead0000000000000000000000000000000000013f60015500",
                "nonce" : "0x00",
                "storage" : {
                }
            },
            "0x4000000000000000000000000000000000000001" : {
                "balance" : "0x00",
                "code" : "0x600060006000600073dead0000000000000000000000000000000000016161a8fa60005573dead0000000000000000000000000000000000013f60015500",
                "nonce" : "0x00",
                "storage" : {
                }
            },
            "0xa94f5374fce5edbc8e2a8697c15331677e6ebf0b" : {
                "balance" : "0x0de0b6b3a7640000",
                "code" : "0x",
                "nonce" : "0x00",
                "storage" : {
                }
            }
        },
        "postState" : {
            "0xa94f5374fce5edbc8e2a8697c15331677e6ebf0b" : {
                "code" : "0x",
                "nonce" : "0x01",
                "balance" : "0x0de0b6b3a7637de3",
                "storage" : {
                }
            },
            "0x4000000000000000000000000000000000000001" : {
                "code" : "0x600060006000600073dead0000000000000000000000000000000000016161a8fa60005573dead0000000000000000000000000000000000013f60015500",
                "nonce" : "0x00",
                "balance" : "0x00",
                "storage" : {
                }
            },
            "0x1000000000000000000000000000000000000001" : {
                "code" : "0x6000600060006000600073dead0000000000000000000000000000000000016161a8f160005573dead0000000000000000000000000000000000013f60015500",
                "nonce" : "0x00",
                "balance" : "0x00",
                "storage" : {
                }
            },
            "0x3000000000000000000000000000000000000001" : {
                "code" : "0x600060006000600073dead0000000000000000000000000000000000016161a8f460005573dead0000000000000000000000000000000000013f60015500",
                "nonce" : "0x00",
                "balance" : "0x00",
                "storage" : {
                }
            },
            "0x2000000000000000000000000000000000000001" : {
                "code" : "0x6000600060006000600073dead0000000000000000000000000000000000016161a8f260005573dead0000000000000000000000000000000000013f60015500",
                "nonce" : "0x00",
                "balance" : "0x00",
                "storage" : {
                }
            },
            "0x2adc25665018aa1fe0e6bc666dac8fc2697ff9ba" : {
                "code" : "0x",
                "nonce" : "0x00",
                "balance" : "0x1bc16d674ec8821c",
                "storage" : {
                }
            },
            "0x1000000000000000000000000000000000000000" : {
                "code" : "0x604060006040600060006000355af200",
                "nonce" : "0x00",
                "balance" : "0x01",
                "storage" : {
                    "0x00" : "0x01"
                }
            }
        },
        "network" : "Istanbul",
        "sealEngine" : "NoProof",
        "lastblockhash" : "0x75c57e8a5ba88bda2101e9d2cffa29664f360da35c6e4526081fdf47c8953dde",
        "genesisRLP" : "0xf901f9f901f4a00000000000000000000000000000000000000000000000000000000000000000a01dcc4de8dec75d7aab85b567b6ccd41ad312451b948a7413f0a142fd40d49347942adc25665018aa1fe0e6bc666dac8fc2697ff9baa0cd93c7f9d042b85b6a673eb1ba0e2681a325a66528df3599ca21390d4f1a1911a056e81f171bcc55a6ff8345e692c0f86e5b48e01b996cadc001622fb5e363b421a056e81f171bcc55a6ff8345e692c0f86e5b48e01b996cadc001622fb5e363b421b9010000000000000000000000000000000000000000000000000000000000000000000000000000000000000000000000000000000000000000000000000000000000000000000000000000000000000000000000000000000000000000000000000000000000000000000000000000000000000000000000000000000000000000000000000000000000000000000000000000000000000000000000000000000000000000000000000000000000000000000000000000000000000000000000000000000000000000000000000000000000000000000000000000000000000000000000000000000000000000000000000000000000000000000000000000000000830200008084b2d05e00808000a00000000000000000000000000000000000000000000000000000000000000000880000000000000000c0c0",
        "blocks" : [
            {
                "rlp" : "0xf90280f901f8a0211ae9f6ddb16a3501a74144d291bef32a2de3484230a695ff804229549c4ac9a01dcc4de8dec75d7aab85b567b6ccd41ad312451b948a7413f0a142fd40d49347942adc25665018aa1fe0e6bc666dac8fc2697ff9baa05c93c43eeb96070e4f2dcc11d63e9bea6acdf1eac494e77370ce06e65d9c7008a072d8027d343384b436c04b5c4380ef1b667cb4f2cd033fcbb0cae841d3633eb4a008180c2632139924a4d18ad9141b1609b49d962d68009c04b8c5bacbee8fc6bcb9010000000000000000000000000000000000000000000000000000000000000000000000000000000000000000000000000000000000000000000000000000000000000000000000000000000000000000000000000000000000000000000000000000000000000000000000000000000000000000000000000000000000000000000000000000000000000000000000000000000000000000000000000000000000000000000000000000000000000000000000000000000000000000000000000000000000000000000000000000000000000000000000000000000000000000000000000000000000000000000000000000000000000000000000000000000000830200000184b2fd121682821c8203e800a00000000000000000000000000000000000000000000000000000000000000000880000000000000000f882f8808001830186a094100000000000000000000000000000000000000001a000000000000000000000000030000000000000000000000000000000000000011ca0cac1027b1302f05f37918c8ff968f808e2efe428295e011f6a1ddf38e562f05da05fcca2c5aaacdc6d64610373ead3e68d419ae17d6a142170e35457545fff3d18c0",
                "blockHeader" : {
                    "bloom" : "0x00000000000000000000000000000000000000000000000000000000000000000000000000000000000000000000000000000000000000000000000000000000000000000000000000000000000000000000000000000000000000000000000000000000000000000000000000000000000000000000000000000000000000000000000000000000000000000000000000000000000000000000000000000000000000000000000000000000000000000000000000000000000000000000000000000000000000000000000000000000000000000000000000000000000000000000000000000000000000000000000000000000000000000000000000000000",
                    "coinbase" : "0x2adc25665018aa1fe0e6bc666dac8fc2697ff9ba",
                    "difficulty" : "0x20000",
                    "extraData" : "0x00",
                    "gasLimit" : "0xb2fd1216",
                    "gasUsed" : "0x821c",
                    "hash" : "0x75c57e8a5ba88bda2101e9d2cffa29664f360da35c6e4526081fdf47c8953dde",
                    "mixHash" : "0x0000000000000000000000000000000000000000000000000000000000000000",
                    "nonce" : "0x0000000000000000",
                    "number" : "0x1",
                    "parentHash" : "0x211ae9f6ddb16a3501a74144d291bef32a2de3484230a695ff804229549c4ac9",
                    "receiptTrie" : "0x08180c2632139924a4d18ad9141b1609b49d962d68009c04b8c5bacbee8fc6bc",
                    "stateRoot" : "0x5c93c43eeb96070e4f2dcc11d63e9bea6acdf1eac494e77370ce06e65d9c7008",
                    "timestamp" : "0x3e8",
                    "transactionsTrie" : "0x72d8027d343384b436c04b5c4380ef1b667cb4f2cd033fcbb0cae841d3633eb4",
                    "uncleHash" : "0x1dcc4de8dec75d7aab85b567b6ccd41ad312451b948a7413f0a142fd40d49347"
                },
                "transactions" : [
                    {
                        "data" : "0x0000000000000000000000003000000000000000000000000000000000000001",
                        "gasLimit" : "0x0186a0",
                        "gasPrice" : "0x01",
                        "nonce" : "0x00",
                        "to" : "0x1000000000000000000000000000000000000000",
                        "value" : "0x01",
                        "v" : "0x1c",
                        "r" : "0xcac1027b1302f05f37918c8ff968f808e2efe428295e011f6a1ddf38e562f05d",
                        "s" : "0x5fcca2c5aaacdc6d64610373ead3e68d419ae17d6a142170e35457545fff3d18"
                    }
                ]
            }
        ]
    },
    "callToNonExistent_d3g0v0_Istanbul" : {
        "_info" : {
            "comment" : "https://github.com/ethereum/tests/issues/652",
            "filling-rpc-server" : "Geth-1.9.7-unstable-b566cfdf-20191104",
            "filling-tool-version" : "retesteth-0.0.1+commit.47c32403.Linux.g++",
            "lllcversion" : "Version: 0.5.12-develop.2019.9.13+commit.2d601a4f.Linux.g++",
            "source" : "src/GeneralStateTestsFiller/stExtCodeHash/callToNonExistentFiller.json",
            "sourceHash" : "5eef8c0b0ca809ea5d2e876805427281893e13cc053f06177d648ebcc57e361e"
        },
        "genesisBlockHeader" : {
            "bloom" : "0x00000000000000000000000000000000000000000000000000000000000000000000000000000000000000000000000000000000000000000000000000000000000000000000000000000000000000000000000000000000000000000000000000000000000000000000000000000000000000000000000000000000000000000000000000000000000000000000000000000000000000000000000000000000000000000000000000000000000000000000000000000000000000000000000000000000000000000000000000000000000000000000000000000000000000000000000000000000000000000000000000000000000000000000000000000000",
            "coinbase" : "0x2adc25665018aa1fe0e6bc666dac8fc2697ff9ba",
            "difficulty" : "0x20000",
            "extraData" : "0x00",
            "gasLimit" : "0xb2d05e00",
            "gasUsed" : "0x0",
            "hash" : "0x211ae9f6ddb16a3501a74144d291bef32a2de3484230a695ff804229549c4ac9",
            "mixHash" : "0x0000000000000000000000000000000000000000000000000000000000000000",
            "nonce" : "0x0000000000000000",
            "number" : "0x0",
            "parentHash" : "0x0000000000000000000000000000000000000000000000000000000000000000",
            "receiptTrie" : "0x56e81f171bcc55a6ff8345e692c0f86e5b48e01b996cadc001622fb5e363b421",
            "stateRoot" : "0xcd93c7f9d042b85b6a673eb1ba0e2681a325a66528df3599ca21390d4f1a1911",
            "timestamp" : "0x0",
            "transactionsTrie" : "0x56e81f171bcc55a6ff8345e692c0f86e5b48e01b996cadc001622fb5e363b421",
            "uncleHash" : "0x1dcc4de8dec75d7aab85b567b6ccd41ad312451b948a7413f0a142fd40d49347"
        },
        "pre" : {
            "0x1000000000000000000000000000000000000000" : {
                "balance" : "0x00",
                "code" : "0x604060006040600060006000355af200",
                "nonce" : "0x00",
                "storage" : {
                    "0x01" : "0x1122"
                }
            },
            "0x1000000000000000000000000000000000000001" : {
                "balance" : "0x00",
                "code" : "0x6000600060006000600073dead0000000000000000000000000000000000016161a8f160005573dead0000000000000000000000000000000000013f60015500",
                "nonce" : "0x00",
                "storage" : {
                }
            },
            "0x2000000000000000000000000000000000000001" : {
                "balance" : "0x00",
                "code" : "0x6000600060006000600073dead0000000000000000000000000000000000016161a8f260005573dead0000000000000000000000000000000000013f60015500",
                "nonce" : "0x00",
                "storage" : {
                }
            },
            "0x3000000000000000000000000000000000000001" : {
                "balance" : "0x00",
                "code" : "0x600060006000600073dead0000000000000000000000000000000000016161a8f460005573dead0000000000000000000000000000000000013f60015500",
                "nonce" : "0x00",
                "storage" : {
                }
            },
            "0x4000000000000000000000000000000000000001" : {
                "balance" : "0x00",
                "code" : "0x600060006000600073dead0000000000000000000000000000000000016161a8fa60005573dead0000000000000000000000000000000000013f60015500",
                "nonce" : "0x00",
                "storage" : {
                }
            },
            "0xa94f5374fce5edbc8e2a8697c15331677e6ebf0b" : {
                "balance" : "0x0de0b6b3a7640000",
                "code" : "0x",
                "nonce" : "0x00",
                "storage" : {
                }
            }
        },
        "postState" : {
            "0xa94f5374fce5edbc8e2a8697c15331677e6ebf0b" : {
                "code" : "0x",
                "nonce" : "0x01",
                "balance" : "0x0de0b6b3a7637de3",
                "storage" : {
                }
            },
            "0x4000000000000000000000000000000000000001" : {
                "code" : "0x600060006000600073dead0000000000000000000000000000000000016161a8fa60005573dead0000000000000000000000000000000000013f60015500",
                "nonce" : "0x00",
                "balance" : "0x00",
                "storage" : {
                }
            },
            "0x1000000000000000000000000000000000000001" : {
                "code" : "0x6000600060006000600073dead0000000000000000000000000000000000016161a8f160005573dead0000000000000000000000000000000000013f60015500",
                "nonce" : "0x00",
                "balance" : "0x00",
                "storage" : {
                }
            },
            "0x3000000000000000000000000000000000000001" : {
                "code" : "0x600060006000600073dead0000000000000000000000000000000000016161a8f460005573dead0000000000000000000000000000000000013f60015500",
                "nonce" : "0x00",
                "balance" : "0x00",
                "storage" : {
                }
            },
            "0x2000000000000000000000000000000000000001" : {
                "code" : "0x6000600060006000600073dead0000000000000000000000000000000000016161a8f260005573dead0000000000000000000000000000000000013f60015500",
                "nonce" : "0x00",
                "balance" : "0x00",
                "storage" : {
                }
            },
            "0x2adc25665018aa1fe0e6bc666dac8fc2697ff9ba" : {
                "code" : "0x",
                "nonce" : "0x00",
                "balance" : "0x1bc16d674ec8821c",
                "storage" : {
                }
            },
            "0x1000000000000000000000000000000000000000" : {
                "code" : "0x604060006040600060006000355af200",
                "nonce" : "0x00",
                "balance" : "0x01",
                "storage" : {
                    "0x00" : "0x01"
                }
            }
        },
        "network" : "Istanbul",
        "sealEngine" : "NoProof",
        "lastblockhash" : "0xd70a3b5836d619ea94bc1aaad7445cf5ee4d59b1a524eb0be07535dbf585d8fd",
        "genesisRLP" : "0xf901f9f901f4a00000000000000000000000000000000000000000000000000000000000000000a01dcc4de8dec75d7aab85b567b6ccd41ad312451b948a7413f0a142fd40d49347942adc25665018aa1fe0e6bc666dac8fc2697ff9baa0cd93c7f9d042b85b6a673eb1ba0e2681a325a66528df3599ca21390d4f1a1911a056e81f171bcc55a6ff8345e692c0f86e5b48e01b996cadc001622fb5e363b421a056e81f171bcc55a6ff8345e692c0f86e5b48e01b996cadc001622fb5e363b421b9010000000000000000000000000000000000000000000000000000000000000000000000000000000000000000000000000000000000000000000000000000000000000000000000000000000000000000000000000000000000000000000000000000000000000000000000000000000000000000000000000000000000000000000000000000000000000000000000000000000000000000000000000000000000000000000000000000000000000000000000000000000000000000000000000000000000000000000000000000000000000000000000000000000000000000000000000000000000000000000000000000000000000000000000000000000000830200008084b2d05e00808000a00000000000000000000000000000000000000000000000000000000000000000880000000000000000c0c0",
        "blocks" : [
            {
                "rlp" : "0xf90280f901f8a0211ae9f6ddb16a3501a74144d291bef32a2de3484230a695ff804229549c4ac9a01dcc4de8dec75d7aab85b567b6ccd41ad312451b948a7413f0a142fd40d49347942adc25665018aa1fe0e6bc666dac8fc2697ff9baa05c93c43eeb96070e4f2dcc11d63e9bea6acdf1eac494e77370ce06e65d9c7008a0aa4b0d063aedd88ad4dfb646db91ae0a0286ebb953d7e8ff46f176ae3047fc8da008180c2632139924a4d18ad9141b1609b49d962d68009c04b8c5bacbee8fc6bcb9010000000000000000000000000000000000000000000000000000000000000000000000000000000000000000000000000000000000000000000000000000000000000000000000000000000000000000000000000000000000000000000000000000000000000000000000000000000000000000000000000000000000000000000000000000000000000000000000000000000000000000000000000000000000000000000000000000000000000000000000000000000000000000000000000000000000000000000000000000000000000000000000000000000000000000000000000000000000000000000000000000000000000000000000000000000000830200000184b2fd121682821c8203e800a00000000000000000000000000000000000000000000000000000000000000000880000000000000000f882f8808001830186a094100000000000000000000000000000000000000001a000000000000000000000000040000000000000000000000000000000000000011ba040cba002b9295055fb9cc1629eb28cdc473d792e114469bcbebaacc62975ba17a03a77cadcbd8e2f9ce80b5ba28b6a1a2358cd9f9e1e598be1515eb00899afea66c0",
                "blockHeader" : {
                    "bloom" : "0x00000000000000000000000000000000000000000000000000000000000000000000000000000000000000000000000000000000000000000000000000000000000000000000000000000000000000000000000000000000000000000000000000000000000000000000000000000000000000000000000000000000000000000000000000000000000000000000000000000000000000000000000000000000000000000000000000000000000000000000000000000000000000000000000000000000000000000000000000000000000000000000000000000000000000000000000000000000000000000000000000000000000000000000000000000000",
                    "coinbase" : "0x2adc25665018aa1fe0e6bc666dac8fc2697ff9ba",
                    "difficulty" : "0x20000",
                    "extraData" : "0x00",
                    "gasLimit" : "0xb2fd1216",
                    "gasUsed" : "0x821c",
                    "hash" : "0xd70a3b5836d619ea94bc1aaad7445cf5ee4d59b1a524eb0be07535dbf585d8fd",
                    "mixHash" : "0x0000000000000000000000000000000000000000000000000000000000000000",
                    "nonce" : "0x0000000000000000",
                    "number" : "0x1",
                    "parentHash" : "0x211ae9f6ddb16a3501a74144d291bef32a2de3484230a695ff804229549c4ac9",
                    "receiptTrie" : "0x08180c2632139924a4d18ad9141b1609b49d962d68009c04b8c5bacbee8fc6bc",
                    "stateRoot" : "0x5c93c43eeb96070e4f2dcc11d63e9bea6acdf1eac494e77370ce06e65d9c7008",
                    "timestamp" : "0x3e8",
                    "transactionsTrie" : "0xaa4b0d063aedd88ad4dfb646db91ae0a0286ebb953d7e8ff46f176ae3047fc8d",
                    "uncleHash" : "0x1dcc4de8dec75d7aab85b567b6ccd41ad312451b948a7413f0a142fd40d49347"
                },
                "transactions" : [
                    {
                        "data" : "0x0000000000000000000000004000000000000000000000000000000000000001",
                        "gasLimit" : "0x0186a0",
                        "gasPrice" : "0x01",
                        "nonce" : "0x00",
                        "to" : "0x1000000000000000000000000000000000000000",
                        "value" : "0x01",
                        "v" : "0x1b",
                        "r" : "0x40cba002b9295055fb9cc1629eb28cdc473d792e114469bcbebaacc62975ba17",
                        "s" : "0x3a77cadcbd8e2f9ce80b5ba28b6a1a2358cd9f9e1e598be1515eb00899afea66"
                    }
                ]
            }
        ]
    }
}