{
    "codeCopyZero_d0g0v0_Istanbul" : {
        "_info" : {
            "comment" : "https://github.com/ethereum/tests/issues/493,  CODECOPY and EXTCODECOPY where codesize = 0",
            "filling-rpc-server" : "Geth-1.9.6-unstable-63b18027-20190920",
            "filling-tool-version" : "retesteth-0.0.1+commit.0ae18aef.Linux.g++",
            "lllcversion" : "Version: 0.5.12-develop.2019.9.13+commit.2d601a4f.Linux.g++",
            "source" : "src/GeneralStateTestsFiller/stExtCodeHash/codeCopyZeroFiller.yml",
            "sourceHash" : "4498dd51a560fa0c4504fdbedd3eae384ff65215bde6aaa70ea000edb9a482c4"
        },
        "genesisBlockHeader" : {
            "bloom" : "0x00000000000000000000000000000000000000000000000000000000000000000000000000000000000000000000000000000000000000000000000000000000000000000000000000000000000000000000000000000000000000000000000000000000000000000000000000000000000000000000000000000000000000000000000000000000000000000000000000000000000000000000000000000000000000000000000000000000000000000000000000000000000000000000000000000000000000000000000000000000000000000000000000000000000000000000000000000000000000000000000000000000000000000000000000000000",
            "coinbase" : "0x2adc25665018aa1fe0e6bc666dac8fc2697ff9ba",
            "difficulty" : "0x20000",
            "extraData" : "0x00",
            "gasLimit" : "0x989680",
            "gasUsed" : "0x0",
            "hash" : "0xd161a1b81ee586f70902e8a44afcfecc73cbadcda65aa77f4760b896bba47c21",
            "mixHash" : "0x0000000000000000000000000000000000000000000000000000000000000000",
            "nonce" : "0x0000000000000000",
            "number" : "0x0",
            "parentHash" : "0x0000000000000000000000000000000000000000000000000000000000000000",
            "receiptTrie" : "0x56e81f171bcc55a6ff8345e692c0f86e5b48e01b996cadc001622fb5e363b421",
            "stateRoot" : "0xa7a08073c2056a211a5ccaccd85b9fad63ae25285552b68b2bb2135fbc29b051",
            "timestamp" : "0x0",
            "transactionsTrie" : "0x56e81f171bcc55a6ff8345e692c0f86e5b48e01b996cadc001622fb5e363b421",
            "uncleHash" : "0x1dcc4de8dec75d7aab85b567b6ccd41ad312451b948a7413f0a142fd40d49347"
        },
        "pre" : {
            "0xa000000000000000000000000000000000000000" : {
                "balance" : "0x0de0b6b3a7640000",
                "code" : "0x60206000600073a2220000000000000000000000000000000000003c60005160105573a2220000000000000000000000000000000000003b60115573a2220000000000000000000000000000000000003f6012556000600060006000600073a22200000000000000000000000000000000000061c350f260135560206000600073a2000000000000000000000000000000000000003c60005160205573a2000000000000000000000000000000000000003b60215573a2000000000000000000000000000000000000003f6022556000600060006000600073a20000000000000000000000000000000000000061c350f260235560206000600073a3000000000000000000000000000000000000003c60005160305573a3000000000000000000000000000000000000003b60315573a3000000000000000000000000000000000000003f6032556000600060006000600073a30000000000000000000000000000000000000061c350f26033556020600060006000600073a10000000000000000000000000000000000000062086470f15060005160405500",
                "nonce" : "0x00",
                "storage" : {
                }
            },
            "0xa100000000000000000000000000000000000000" : {
                "balance" : "0x0de0b6b3a7640000",
                "code" : "0x6000603980601a60003960006000f560005260206000f30000fe60206000600039600051605055303b605155303f605255600060006000600060003061c350f23b605355602060006000303c60005160545500",
                "nonce" : "0x00",
                "storage" : {
                }
            },
            "0xa200000000000000000000000000000000000000" : {
                "balance" : "0x0de0b6b3a7640000",
                "code" : "0x",
                "nonce" : "0x00",
                "storage" : {
                }
            },
            "0xa300000000000000000000000000000000000000" : {
                "balance" : "0x00",
                "code" : "0x",
                "nonce" : "0x00",
                "storage" : {
                }
            },
            "0xa94f5374fce5edbc8e2a8697c15331677e6ebf0b" : {
                "balance" : "0x0de0b6b3a7640000",
                "code" : "0x00",
                "nonce" : "0x00",
                "storage" : {
                }
            }
        },
        "postState" : {
            "0xa94f5374fce5edbc8e2a8697c15331677e6ebf0b" : {
                "code" : "0x00",
                "nonce" : "0x01",
                "balance" : "0x0de0b6b3a760b919",
                "storage" : {
                }
            },
            "0xa000000000000000000000000000000000000000" : {
                "code" : "0x60206000600073a2220000000000000000000000000000000000003c60005160105573a2220000000000000000000000000000000000003b60115573a2220000000000000000000000000000000000003f6012556000600060006000600073a22200000000000000000000000000000000000061c350f260135560206000600073a2000000000000000000000000000000000000003c60005160205573a2000000000000000000000000000000000000003b60215573a2000000000000000000000000000000000000003f6022556000600060006000600073a20000000000000000000000000000000000000061c350f260235560206000600073a3000000000000000000000000000000000000003c60005160305573a3000000000000000000000000000000000000003b60315573a3000000000000000000000000000000000000003f6032556000600060006000600073a30000000000000000000000000000000000000061c350f26033556020600060006000600073a10000000000000000000000000000000000000062086470f15060005160405500",
                "nonce" : "0x00",
                "balance" : "0x0de0b6b3a7640001",
                "storage" : {
                    "0x40" : "0x64bc50092fd622c9cc47d658b99c1af75aaa3d68",
                    "0x22" : "0xc5d2460186f7233c927e7db2dcc703c0e500b653ca82273b7bfad8045d85a470",
                    "0x13" : "0x01",
                    "0x33" : "0x01",
                    "0x23" : "0x01"
                }
            },
            "0xa200000000000000000000000000000000000000" : {
                "code" : "0x",
                "nonce" : "0x00",
                "balance" : "0x0de0b6b3a7640000",
                "storage" : {
                }
            },
            "0xa100000000000000000000000000000000000000" : {
                "code" : "0x6000603980601a60003960006000f560005260206000f30000fe60206000600039600051605055303b605155303f605255600060006000600060003061c350f23b605355602060006000303c60005160545500",
                "nonce" : "0x01",
                "balance" : "0x0de0b6b3a7640000",
                "storage" : {
                }
            },
            "0x64bc50092fd622c9cc47d658b99c1af75aaa3d68" : {
                "code" : "0x",
                "nonce" : "0x01",
                "balance" : "0x00",
                "storage" : {
                    "0x50" : "0x60206000600039600051605055303b605155303f605255600060006000600060",
                    "0x52" : "0xc5d2460186f7233c927e7db2dcc703c0e500b653ca82273b7bfad8045d85a470"
                }
            },
            "0x2adc25665018aa1fe0e6bc666dac8fc2697ff9ba" : {
                "code" : "0x",
                "nonce" : "0x00",
                "balance" : "0x1bc16d674ecb46e6",
                "storage" : {
                }
            },
            "0xa300000000000000000000000000000000000000" : {
                "code" : "0x",
                "nonce" : "0x00",
                "balance" : "0x00",
                "storage" : {
                }
            }
        },
        "network" : "Istanbul",
        "sealEngine" : "NoProof",
        "lastblockhash" : "0x0f84ff6bc57aebb7aebf0e7864b0706ad693bc688bac0d4d7eeaf2ce65c87192",
        "genesisRLP" : "0xf901f8f901f3a00000000000000000000000000000000000000000000000000000000000000000a01dcc4de8dec75d7aab85b567b6ccd41ad312451b948a7413f0a142fd40d49347942adc25665018aa1fe0e6bc666dac8fc2697ff9baa0a7a08073c2056a211a5ccaccd85b9fad63ae25285552b68b2bb2135fbc29b051a056e81f171bcc55a6ff8345e692c0f86e5b48e01b996cadc001622fb5e363b421a056e81f171bcc55a6ff8345e692c0f86e5b48e01b996cadc001622fb5e363b421b9010000000000000000000000000000000000000000000000000000000000000000000000000000000000000000000000000000000000000000000000000000000000000000000000000000000000000000000000000000000000000000000000000000000000000000000000000000000000000000000000000000000000000000000000000000000000000000000000000000000000000000000000000000000000000000000000000000000000000000000000000000000000000000000000000000000000000000000000000000000000000000000000000000000000000000000000000000000000000000000000000000000000000000000000000000000000830200008083989680808000a00000000000000000000000000000000000000000000000000000000000000000880000000000000000c0c0",
        "blocks" : [
            {
                "rlp" : "0xf90260f901f8a0d161a1b81ee586f70902e8a44afcfecc73cbadcda65aa77f4760b896bba47c21a01dcc4de8dec75d7aab85b567b6ccd41ad312451b948a7413f0a142fd40d49347942adc25665018aa1fe0e6bc666dac8fc2697ff9baa077188cc24330a2b124cd1c05aaeb4d969f36eeae4e75a73d2e07b06030d53d73a063f918f4c10ef217c29655216cc6d1e3e1361e25ce60384173212693965664b0a0c6667b342c27299605498845b37802f33df2008558570d1c4a8cd3f7e61005f5b901000000000000000000000000000000000000000000000000000000000000000000000000000000000000000000000000000000000000000000000000000000000000000000000000000000000000000000000000000000000000000000000000000000000000000000000000000000000000000000000000000000000000000000000000000000000000000000000000000000000000000000000000000000000000000000000000000000000000000000000000000000000000000000000000000000000000000000000000000000000000000000000000000000000000000000000000000000000000000000000000000000000000000000000000000000000083020000018398bca4830346e68203e800a00000000000000000000000000000000000000000000000000000000000000000880000000000000000f862f860800183155cc094a00000000000000000000000000000000000000001801ca07ddc7347a8189bfa10ae01da00fb656711d84bfd825821c173341786917403d8a0633658eaf844aae185c3c551c6bc4fb3691c84f62d775dcfc36d92ff66e07621c0",
                "blockHeader" : {
                    "bloom" : "0x00000000000000000000000000000000000000000000000000000000000000000000000000000000000000000000000000000000000000000000000000000000000000000000000000000000000000000000000000000000000000000000000000000000000000000000000000000000000000000000000000000000000000000000000000000000000000000000000000000000000000000000000000000000000000000000000000000000000000000000000000000000000000000000000000000000000000000000000000000000000000000000000000000000000000000000000000000000000000000000000000000000000000000000000000000000",
                    "coinbase" : "0x2adc25665018aa1fe0e6bc666dac8fc2697ff9ba",
                    "difficulty" : "0x20000",
                    "extraData" : "0x00",
                    "gasLimit" : "0x98bca4",
                    "gasUsed" : "0x346e6",
                    "hash" : "0x0f84ff6bc57aebb7aebf0e7864b0706ad693bc688bac0d4d7eeaf2ce65c87192",
                    "mixHash" : "0x0000000000000000000000000000000000000000000000000000000000000000",
                    "nonce" : "0x0000000000000000",
                    "number" : "0x1",
                    "parentHash" : "0xd161a1b81ee586f70902e8a44afcfecc73cbadcda65aa77f4760b896bba47c21",
                    "receiptTrie" : "0xc6667b342c27299605498845b37802f33df2008558570d1c4a8cd3f7e61005f5",
                    "stateRoot" : "0x77188cc24330a2b124cd1c05aaeb4d969f36eeae4e75a73d2e07b06030d53d73",
                    "timestamp" : "0x3e8",
                    "transactionsTrie" : "0x63f918f4c10ef217c29655216cc6d1e3e1361e25ce60384173212693965664b0",
                    "uncleHash" : "0x1dcc4de8dec75d7aab85b567b6ccd41ad312451b948a7413f0a142fd40d49347"
                },
                "transactions" : [
                    {
                        "data" : "0x",
                        "gasLimit" : "0x155cc0",
                        "gasPrice" : "0x01",
                        "nonce" : "0x00",
                        "to" : "0xa000000000000000000000000000000000000000",
                        "value" : "0x01",
                        "v" : "0x1c",
                        "r" : "0x7ddc7347a8189bfa10ae01da00fb656711d84bfd825821c173341786917403d8",
                        "s" : "0x633658eaf844aae185c3c551c6bc4fb3691c84f62d775dcfc36d92ff66e07621"
                    }
                ]
            }
        ]
    }
}