{
    "dynamicAccountOverwriteEmpty_d0g0v0_Istanbul" : {
        "_info" : {
            "comment" : "EXTCODEHASH of empty account, then CREATE or CREATE2 over it, EXTCODEHASH again. This should check that code hash cache is correctly updated during the transaction.",
            "filling-rpc-server" : "Geth-1.9.6-unstable-63b18027-20190920",
            "filling-tool-version" : "retesteth-0.0.1+commit.0ae18aef.Linux.g++",
            "lllcversion" : "Version: 0.5.12-develop.2019.9.13+commit.2d601a4f.Linux.g++",
            "source" : "src/GeneralStateTestsFiller/stExtCodeHash/dynamicAccountOverwriteEmptyFiller.yml",
            "sourceHash" : "35e31479052e5dd454574261e64bc9b23f97bd533d2ce97b01f5d32c55b316ed"
        },
        "genesisBlockHeader" : {
            "bloom" : "0x00000000000000000000000000000000000000000000000000000000000000000000000000000000000000000000000000000000000000000000000000000000000000000000000000000000000000000000000000000000000000000000000000000000000000000000000000000000000000000000000000000000000000000000000000000000000000000000000000000000000000000000000000000000000000000000000000000000000000000000000000000000000000000000000000000000000000000000000000000000000000000000000000000000000000000000000000000000000000000000000000000000000000000000000000000000",
            "coinbase" : "0x2adc25665018aa1fe0e6bc666dac8fc2697ff9ba",
            "difficulty" : "0x20000",
            "extraData" : "0x00",
            "gasLimit" : "0xf4240",
            "gasUsed" : "0x0",
            "hash" : "0x89276ca43064f3914eb3dbd9a792e834d7c7aefdf899e921300f2d303b38513d",
            "mixHash" : "0x0000000000000000000000000000000000000000000000000000000000000000",
            "nonce" : "0x0000000000000000",
            "number" : "0x0",
            "parentHash" : "0x0000000000000000000000000000000000000000000000000000000000000000",
            "receiptTrie" : "0x56e81f171bcc55a6ff8345e692c0f86e5b48e01b996cadc001622fb5e363b421",
            "stateRoot" : "0x683de494aeef968b923e3da92797ce6228cf5775561e6becbb7c291ef81bf92d",
            "timestamp" : "0x0",
            "transactionsTrie" : "0x56e81f171bcc55a6ff8345e692c0f86e5b48e01b996cadc001622fb5e363b421",
            "uncleHash" : "0x1dcc4de8dec75d7aab85b567b6ccd41ad312451b948a7413f0a142fd40d49347"
        },
        "pre" : {
            "0x095e7baea6a6c7c4c2dfeb977efac326af552d87" : {
                "balance" : "0x0de0b6b3a7640000",
                "code" : "0x73e713449c212d891357cc2966816b1d528cfb59e03f60005573e713449c212d891357cc2966816b1d528cfb59e03b60015560206000600073e713449c212d891357cc2966816b1d528cfb59e03c6000516002556000600060006000600073e713449c212d891357cc2966816b1d528cfb59e061c350f26003556000603d8061010860003960006000f55073e713449c212d891357cc2966816b1d528cfb59e03f60045573e713449c212d891357cc2966816b1d528cfb59e03b60055560206000600073e713449c212d891357cc2966816b1d528cfb59e03c6000516006556000600060006000600073e713449c212d891357cc2966816b1d528cfb59e061c350f26007550000fe73dddddddd000000000000000000000000000000003b6000526000516000602073dddddddd000000000000000000000000000000003c6000516020f300",
                "nonce" : "0x00",
                "storage" : {
                }
            },
            "0xa94f5374fce5edbc8e2a8697c15331677e6ebf0b" : {
                "balance" : "0x0de0b6b3a7640000",
                "code" : "0x00",
                "nonce" : "0x00",
                "storage" : {
                }
            },
            "0xdddddddd00000000000000000000000000000000" : {
                "balance" : "0x0de0b6b3a7640000",
                "code" : "0x600b60505500",
                "nonce" : "0x00",
                "storage" : {
                }
            },
            "0xe713449c212d891357cc2966816b1d528cfb59e0" : {
                "balance" : "0x00",
                "code" : "0x",
                "nonce" : "0x00",
                "storage" : {
                    "0x01" : "0x01"
                }
            }
        },
        "postState" : {
            "0xa94f5374fce5edbc8e2a8697c15331677e6ebf0b" : {
                "code" : "0x00",
                "nonce" : "0x01",
                "balance" : "0x0de0b6b3a762611b",
                "storage" : {
                }
            },
            "0x095e7baea6a6c7c4c2dfeb977efac326af552d87" : {
                "code" : "0x73e713449c212d891357cc2966816b1d528cfb59e03f60005573e713449c212d891357cc2966816b1d528cfb59e03b60015560206000600073e713449c212d891357cc2966816b1d528cfb59e03c6000516002556000600060006000600073e713449c212d891357cc2966816b1d528cfb59e061c350f26003556000603d8061010860003960006000f55073e713449c212d891357cc2966816b1d528cfb59e03f60045573e713449c212d891357cc2966816b1d528cfb59e03b60055560206000600073e713449c212d891357cc2966816b1d528cfb59e03c6000516006556000600060006000600073e713449c212d891357cc2966816b1d528cfb59e061c350f26007550000fe73dddddddd000000000000000000000000000000003b6000526000516000602073dddddddd000000000000000000000000000000003c6000516020f300",
                "nonce" : "0x01",
                "balance" : "0x0de0b6b3a7640001",
                "storage" : {
                    "0x07" : "0x01",
                    "0x03" : "0x01"
                }
            },
            "0xe713449c212d891357cc2966816b1d528cfb59e0" : {
                "code" : "0x",
                "nonce" : "0x00",
                "balance" : "0x00",
                "storage" : {
                    "0x01" : "0x01"
                }
            },
            "0x2adc25665018aa1fe0e6bc666dac8fc2697ff9ba" : {
                "code" : "0x",
                "nonce" : "0x00",
                "balance" : "0x1bc16d674ec99ee4",
                "storage" : {
                }
            },
            "0xdddddddd00000000000000000000000000000000" : {
                "code" : "0x600b60505500",
                "nonce" : "0x00",
                "balance" : "0x0de0b6b3a7640000",
                "storage" : {
                }
            },
            "0xc5691dc90d9fd2a2e9a5fa5bd28bf77ffd60aa78" : {
                "code" : "0x600b60505500",
                "nonce" : "0x01",
                "balance" : "0x00",
                "storage" : {
                }
            }
        },
        "network" : "Istanbul",
        "sealEngine" : "NoProof",
        "lastblockhash" : "0xde9b41a29f1f651d21f70abd530b17976fb91546de474e5c2fa9ac358ef4f9af",
        "genesisRLP" : "0xf901f8f901f3a00000000000000000000000000000000000000000000000000000000000000000a01dcc4de8dec75d7aab85b567b6ccd41ad312451b948a7413f0a142fd40d49347942adc25665018aa1fe0e6bc666dac8fc2697ff9baa0683de494aeef968b923e3da92797ce6228cf5775561e6becbb7c291ef81bf92da056e81f171bcc55a6ff8345e692c0f86e5b48e01b996cadc001622fb5e363b421a056e81f171bcc55a6ff8345e692c0f86e5b48e01b996cadc001622fb5e363b421b90100000000000000000000000000000000000000000000000000000000000000000000000000000000000000000000000000000000000000000000000000000000000000000000000000000000000000000000000000000000000000000000000000000000000000000000000000000000000000000000000000000000000000000000000000000000000000000000000000000000000000000000000000000000000000000000000000000000000000000000000000000000000000000000000000000000000000000000000000000000000000000000000000000000000000000000000000000000000000000000000000000000000000000000000000000000008302000080830f4240808000a00000000000000000000000000000000000000000000000000000000000000000880000000000000000c0c0",
        "blocks" : [
            {
                "rlp" : "0xf90260f901f8a089276ca43064f3914eb3dbd9a792e834d7c7aefdf899e921300f2d303b38513da01dcc4de8dec75d7aab85b567b6ccd41ad312451b948a7413f0a142fd40d49347942adc25665018aa1fe0e6bc666dac8fc2697ff9baa020f8e65f7e2e78e90e60ce0cb235a003e962b915ec28c25a3cf1a64bddc2dedba0f2fde0741a86c3f5b87ccee3cce6faafd15be92989188f40919cb13422672757a07544ffc7e4be6549b9971f232e1f8306217d8717a6d59e5725b600674ba89db4b90100000000000000000000000000000000000000000000000000000000000000000000000000000000000000000000000000000000000000000000000000000000000000000000000000000000000000000000000000000000000000000000000000000000000000000000000000000000000000000000000000000000000000000000000000000000000000000000000000000000000000000000000000000000000000000000000000000000000000000000000000000000000000000000000000000000000000000000000000000000000000000000000000000000000000000000000000000000000000000000000000000000000000000000000000000000008302000001830f460f83019ee48203e800a00000000000000000000000000000000000000000000000000000000000000000880000000000000000f862f860800183061a8094095e7baea6a6c7c4c2dfeb977efac326af552d8701801ca0ae29a79903b187c6d075320f9834a330b5134244c7fb0476eba58cd87b175fd6a027a8f85308f5f08f4e2f6b2e23d9dcfd740108f8f96517e50c9e1dc86288a673c0",
                "blockHeader" : {
                    "bloom" : "0x00000000000000000000000000000000000000000000000000000000000000000000000000000000000000000000000000000000000000000000000000000000000000000000000000000000000000000000000000000000000000000000000000000000000000000000000000000000000000000000000000000000000000000000000000000000000000000000000000000000000000000000000000000000000000000000000000000000000000000000000000000000000000000000000000000000000000000000000000000000000000000000000000000000000000000000000000000000000000000000000000000000000000000000000000000000",
                    "coinbase" : "0x2adc25665018aa1fe0e6bc666dac8fc2697ff9ba",
                    "difficulty" : "0x20000",
                    "extraData" : "0x00",
                    "gasLimit" : "0xf460f",
                    "gasUsed" : "0x19ee4",
                    "hash" : "0xde9b41a29f1f651d21f70abd530b17976fb91546de474e5c2fa9ac358ef4f9af",
                    "mixHash" : "0x0000000000000000000000000000000000000000000000000000000000000000",
                    "nonce" : "0x0000000000000000",
                    "number" : "0x1",
                    "parentHash" : "0x89276ca43064f3914eb3dbd9a792e834d7c7aefdf899e921300f2d303b38513d",
                    "receiptTrie" : "0x7544ffc7e4be6549b9971f232e1f8306217d8717a6d59e5725b600674ba89db4",
                    "stateRoot" : "0x20f8e65f7e2e78e90e60ce0cb235a003e962b915ec28c25a3cf1a64bddc2dedb",
                    "timestamp" : "0x3e8",
                    "transactionsTrie" : "0xf2fde0741a86c3f5b87ccee3cce6faafd15be92989188f40919cb13422672757",
                    "uncleHash" : "0x1dcc4de8dec75d7aab85b567b6ccd41ad312451b948a7413f0a142fd40d49347"
                },
                "transactions" : [
                    {
                        "data" : "0x",
                        "gasLimit" : "0x061a80",
                        "gasPrice" : "0x01",
                        "nonce" : "0x00",
                        "to" : "0x095e7baea6a6c7c4c2dfeb977efac326af552d87",
                        "value" : "0x01",
                        "v" : "0x1c",
                        "r" : "0xae29a79903b187c6d075320f9834a330b5134244c7fb0476eba58cd87b175fd6",
                        "s" : "0x27a8f85308f5f08f4e2f6b2e23d9dcfd740108f8f96517e50c9e1dc86288a673"
                    }
                ]
            }
        ]
    }
}