{
    "extCodeHashCreatedAndDeletedAccountStaticCall_d0g0v0_Istanbul" : {
        "_info" : {
            "comment" : "EXTCODEHASH/EXTCODESIZE of an account created then deleted via STATICCALL in same transaction",
            "filling-rpc-server" : "Geth-1.9.6-unstable-63b18027-20190920",
            "filling-tool-version" : "retesteth-0.0.1+commit.0ae18aef.Linux.g++",
            "lllcversion" : "Version: 0.5.12-develop.2019.9.13+commit.2d601a4f.Linux.g++",
            "source" : "src/GeneralStateTestsFiller/stExtCodeHash/extCodeHashCreatedAndDeletedAccountStaticCallFiller.json",
            "sourceHash" : "a74adb938591fd8a6c3b6871a4a85c817fec2086d00b86b01829a0b500cf669a"
        },
        "genesisBlockHeader" : {
            "bloom" : "0x00000000000000000000000000000000000000000000000000000000000000000000000000000000000000000000000000000000000000000000000000000000000000000000000000000000000000000000000000000000000000000000000000000000000000000000000000000000000000000000000000000000000000000000000000000000000000000000000000000000000000000000000000000000000000000000000000000000000000000000000000000000000000000000000000000000000000000000000000000000000000000000000000000000000000000000000000000000000000000000000000000000000000000000000000000000",
            "coinbase" : "0x2adc25665018aa1fe0e6bc666dac8fc2697ff9ba",
            "difficulty" : "0x20000",
            "extraData" : "0x00",
            "gasLimit" : "0xf4240",
            "gasUsed" : "0x0",
            "hash" : "0xd5529e18d9b7b5f649d2df8485f9f093b5c5b2cb596e680377091680cfb5c6ad",
            "mixHash" : "0x0000000000000000000000000000000000000000000000000000000000000000",
            "nonce" : "0x0000000000000000",
            "number" : "0x0",
            "parentHash" : "0x0000000000000000000000000000000000000000000000000000000000000000",
            "receiptTrie" : "0x56e81f171bcc55a6ff8345e692c0f86e5b48e01b996cadc001622fb5e363b421",
            "stateRoot" : "0xf69efcb024becec16c43ffa744dbfd9bef2a894950284976a4044a28b5d694e1",
            "timestamp" : "0x0",
            "transactionsTrie" : "0x56e81f171bcc55a6ff8345e692c0f86e5b48e01b996cadc001622fb5e363b421",
            "uncleHash" : "0x1dcc4de8dec75d7aab85b567b6ccd41ad312451b948a7413f0a142fd40d49347"
        },
        "pre" : {
            "0xa94f5374fce5edbc8e2a8697c15331677e6ebf0b" : {
                "balance" : "0x0de0b6b3a7640000",
                "code" : "0x",
                "nonce" : "0x00",
                "storage" : {
                }
            },
            "0xdeadbeef00000000000000000000000000000000" : {
                "balance" : "0x0de0b6b3a7640000",
                "code" : "0x6010601180604260803960806000f56000526000513f6000556000513b600155600060006000600060005162010000fa506000513f6002556000513b6003550000fe600480600d6000396000f300fe6000ff00",
                "nonce" : "0x00",
                "storage" : {
                }
            }
        },
        "postState" : {
            "0xa94f5374fce5edbc8e2a8697c15331677e6ebf0b" : {
                "code" : "0x",
                "nonce" : "0x01",
                "balance" : "0x0de0b6b3a760e722",
                "storage" : {
                }
            },
            "0x2adc25665018aa1fe0e6bc666dac8fc2697ff9ba" : {
                "code" : "0x",
                "nonce" : "0x00",
                "balance" : "0x1bc16d674ecb18dd",
                "storage" : {
                }
            },
            "0x123f4c415171383dcf6f3ac6c3b70fe321e11b5e" : {
                "code" : "0x6000ff00",
                "nonce" : "0x01",
                "balance" : "0x00",
                "storage" : {
                }
            },
            "0xdeadbeef00000000000000000000000000000000" : {
                "code" : "0x6010601180604260803960806000f56000526000513f6000556000513b600155600060006000600060005162010000fa506000513f6002556000513b6003550000fe600480600d6000396000f300fe6000ff00",
                "nonce" : "0x01",
                "balance" : "0x0de0b6b3a7640001",
                "storage" : {
                    "0x00" : "0x73c5f15b1290fd9e66722596c2fa1e1c9341f7acb185530dce0bf0e0fec7dfc6",
                    "0x02" : "0x73c5f15b1290fd9e66722596c2fa1e1c9341f7acb185530dce0bf0e0fec7dfc6",
                    "0x01" : "0x04",
                    "0x03" : "0x04"
                }
            }
        },
        "network" : "Istanbul",
        "sealEngine" : "NoProof",
        "lastblockhash" : "0xa038c6454bfdbdad165afd5f8f57f12c4c901e9a22339c03e530ac1ad52ee3cd",
        "genesisRLP" : "0xf901f8f901f3a00000000000000000000000000000000000000000000000000000000000000000a01dcc4de8dec75d7aab85b567b6ccd41ad312451b948a7413f0a142fd40d49347942adc25665018aa1fe0e6bc666dac8fc2697ff9baa0f69efcb024becec16c43ffa744dbfd9bef2a894950284976a4044a28b5d694e1a056e81f171bcc55a6ff8345e692c0f86e5b48e01b996cadc001622fb5e363b421a056e81f171bcc55a6ff8345e692c0f86e5b48e01b996cadc001622fb5e363b421b90100000000000000000000000000000000000000000000000000000000000000000000000000000000000000000000000000000000000000000000000000000000000000000000000000000000000000000000000000000000000000000000000000000000000000000000000000000000000000000000000000000000000000000000000000000000000000000000000000000000000000000000000000000000000000000000000000000000000000000000000000000000000000000000000000000000000000000000000000000000000000000000000000000000000000000000000000000000000000000000000000000000000000000000000000000000008302000080830f4240808000a00000000000000000000000000000000000000000000000000000000000000000880000000000000000c0c0",
        "blocks" : [
            {
                "rlp" : "0xf90260f901f8a0d5529e18d9b7b5f649d2df8485f9f093b5c5b2cb596e680377091680cfb5c6ada01dcc4de8dec75d7aab85b567b6ccd41ad312451b948a7413f0a142fd40d49347942adc25665018aa1fe0e6bc666dac8fc2697ff9baa03c781b2b160052d5b470d8cabc4eab184d7ce6e840a6c816f4721250cf0badeea0324788bcaeb3ef4ea52657457b25024fd8e28f4e686f0b44f9df8c55c10854a3a070377ca65ce47c6b3ea2e1bedb60de692074c8d7b505b80def4ccd586f38cd59b90100000000000000000000000000000000000000000000000000000000000000000000000000000000000000000000000000000000000000000000000000000000000000000000000000000000000000000000000000000000000000000000000000000000000000000000000000000000000000000000000000000000000000000000000000000000000000000000000000000000000000000000000000000000000000000000000000000000000000000000000000000000000000000000000000000000000000000000000000000000000000000000000000000000000000000000000000000000000000000000000000000000000000000000000000000000008302000001830f460f830318dd8203e800a00000000000000000000000000000000000000000000000000000000000000000880000000000000000f862f860800183061a8094deadbeef0000000000000000000000000000000001801ca0c202f0d1337e2d44fa1bf35877e7278363f8a0870146a587e8f75bbd10df9240a05cb792200832e3876d0213563d9dc7705e255718f25455ca28eec91736e98c55c0",
                "blockHeader" : {
                    "bloom" : "0x00000000000000000000000000000000000000000000000000000000000000000000000000000000000000000000000000000000000000000000000000000000000000000000000000000000000000000000000000000000000000000000000000000000000000000000000000000000000000000000000000000000000000000000000000000000000000000000000000000000000000000000000000000000000000000000000000000000000000000000000000000000000000000000000000000000000000000000000000000000000000000000000000000000000000000000000000000000000000000000000000000000000000000000000000000000",
                    "coinbase" : "0x2adc25665018aa1fe0e6bc666dac8fc2697ff9ba",
                    "difficulty" : "0x20000",
                    "extraData" : "0x00",
                    "gasLimit" : "0xf460f",
                    "gasUsed" : "0x318dd",
                    "hash" : "0xa038c6454bfdbdad165afd5f8f57f12c4c901e9a22339c03e530ac1ad52ee3cd",
                    "mixHash" : "0x0000000000000000000000000000000000000000000000000000000000000000",
                    "nonce" : "0x0000000000000000",
                    "number" : "0x1",
                    "parentHash" : "0xd5529e18d9b7b5f649d2df8485f9f093b5c5b2cb596e680377091680cfb5c6ad",
                    "receiptTrie" : "0x70377ca65ce47c6b3ea2e1bedb60de692074c8d7b505b80def4ccd586f38cd59",
                    "stateRoot" : "0x3c781b2b160052d5b470d8cabc4eab184d7ce6e840a6c816f4721250cf0badee",
                    "timestamp" : "0x3e8",
                    "transactionsTrie" : "0x324788bcaeb3ef4ea52657457b25024fd8e28f4e686f0b44f9df8c55c10854a3",
                    "uncleHash" : "0x1dcc4de8dec75d7aab85b567b6ccd41ad312451b948a7413f0a142fd40d49347"
                },
                "transactions" : [
                    {
                        "data" : "0x",
                        "gasLimit" : "0x061a80",
                        "gasPrice" : "0x01",
                        "nonce" : "0x00",
                        "to" : "0xdeadbeef00000000000000000000000000000000",
                        "value" : "0x01",
                        "v" : "0x1c",
                        "r" : "0xc202f0d1337e2d44fa1bf35877e7278363f8a0870146a587e8f75bbd10df9240",
                        "s" : "0x5cb792200832e3876d0213563d9dc7705e255718f25455ca28eec91736e98c55"
                    }
                ]
            }
        ]
    }
}