{
    "extCodeHashDeletedAccount3_d0g0v0_Istanbul" : {
        "_info" : {
            "comment" : "3) Call creates Account A (0x95ab1c33798981918da6d27056f70376674878d2)\nCall to Account B do the following:\n- stores Account A code hash to 1\n- stores Account A code size to 2\n- stores Account A code to 3\n- Run selfdestruct on A\n- stores Account A code hash to 4\n- stores Account A code size to 5\n- stores Account A code to 6\n",
            "filling-rpc-server" : "Geth-1.9.6-unstable-63b18027-20190920",
            "filling-tool-version" : "retesteth-0.0.1+commit.0ae18aef.Linux.g++",
            "lllcversion" : "Version: 0.5.12-develop.2019.9.13+commit.2d601a4f.Linux.g++",
            "source" : "src/GeneralStateTestsFiller/stExtCodeHash/extCodeHashDeletedAccount3Filler.yml",
            "sourceHash" : "142a6faaed68d53c0969aca1496df17381a2bdd892cb1f764b8bc144682a02b0"
        },
        "genesisBlockHeader" : {
            "bloom" : "0x00000000000000000000000000000000000000000000000000000000000000000000000000000000000000000000000000000000000000000000000000000000000000000000000000000000000000000000000000000000000000000000000000000000000000000000000000000000000000000000000000000000000000000000000000000000000000000000000000000000000000000000000000000000000000000000000000000000000000000000000000000000000000000000000000000000000000000000000000000000000000000000000000000000000000000000000000000000000000000000000000000000000000000000000000000000",
            "coinbase" : "0x2adc25665018aa1fe0e6bc666dac8fc2697ff9ba",
            "difficulty" : "0x20000",
            "extraData" : "0x00",
            "gasLimit" : "0xf4240",
            "gasUsed" : "0x0",
            "hash" : "0x310e1e0f682ef59fecc9d26154c8658a4f2e4186e140a71c7301001fdb860394",
            "mixHash" : "0x0000000000000000000000000000000000000000000000000000000000000000",
            "nonce" : "0x0000000000000000",
            "number" : "0x0",
            "parentHash" : "0x0000000000000000000000000000000000000000000000000000000000000000",
            "receiptTrie" : "0x56e81f171bcc55a6ff8345e692c0f86e5b48e01b996cadc001622fb5e363b421",
            "stateRoot" : "0x7dc9de67572f4dc62db7b5907ffdf73a4d721e8067c6fa206d704ea114ca81a8",
            "timestamp" : "0x0",
            "transactionsTrie" : "0x56e81f171bcc55a6ff8345e692c0f86e5b48e01b996cadc001622fb5e363b421",
            "uncleHash" : "0x1dcc4de8dec75d7aab85b567b6ccd41ad312451b948a7413f0a142fd40d49347"
        },
        "pre" : {
            "0x095e7baea6a6c7c4c2dfeb977efac326af552d87" : {
                "balance" : "0x0de0b6b3a7640000",
                "code" : "0x6000603d80604060003960006000f56000526000516000556020600060006000600073bbbbbbbb00000000000000000000000000000000620249f0f1500000fe73cccccccc000000000000000000000000000000003b6000526000516000602073cccccccc000000000000000000000000000000003c6000516020f300",
                "nonce" : "0x00",
                "storage" : {
                }
            },
            "0xa94f5374fce5edbc8e2a8697c15331677e6ebf0b" : {
                "balance" : "0x0de0b6b3a7640000",
                "code" : "0x00",
                "nonce" : "0x00",
                "storage" : {
                }
            },
            "0xbbbbbbbb00000000000000000000000000000000" : {
                "balance" : "0x0de0b6b3a7640000",
                "code" : "0x73554e36262c0e0ab156397c32444e4a018fe93b183f60015573554e36262c0e0ab156397c32444e4a018fe93b183b6002556002546000600073554e36262c0e0ab156397c32444e4a018fe93b183c6000516003556020600060006000600073554e36262c0e0ab156397c32444e4a018fe93b18620249f0f15073554e36262c0e0ab156397c32444e4a018fe93b183f60045573554e36262c0e0ab156397c32444e4a018fe93b183b6005556005546000602073554e36262c0e0ab156397c32444e4a018fe93b183c60205160065500",
                "nonce" : "0x00",
                "storage" : {
                }
            },
            "0xcccccccc00000000000000000000000000000000" : {
                "balance" : "0x00",
                "code" : "0x73bbbbbbbb00000000000000000000000000000000ff00",
                "nonce" : "0x00",
                "storage" : {
                }
            }
        },
        "postState" : {
            "0xa94f5374fce5edbc8e2a8697c15331677e6ebf0b" : {
                "code" : "0x00",
                "nonce" : "0x01",
                "balance" : "0x0de0b6b3a76123d7",
                "storage" : {
                }
            },
            "0x095e7baea6a6c7c4c2dfeb977efac326af552d87" : {
                "code" : "0x6000603d80604060003960006000f56000526000516000556020600060006000600073bbbbbbbb00000000000000000000000000000000620249f0f1500000fe73cccccccc000000000000000000000000000000003b6000526000516000602073cccccccc000000000000000000000000000000003c6000516020f300",
                "nonce" : "0x01",
                "balance" : "0x0de0b6b3a7640001",
                "storage" : {
                    "0x00" : "0x554e36262c0e0ab156397c32444e4a018fe93b18"
                }
            },
            "0xbbbbbbbb00000000000000000000000000000000" : {
                "code" : "0x73554e36262c0e0ab156397c32444e4a018fe93b183f60015573554e36262c0e0ab156397c32444e4a018fe93b183b6002556002546000600073554e36262c0e0ab156397c32444e4a018fe93b183c6000516003556020600060006000600073554e36262c0e0ab156397c32444e4a018fe93b18620249f0f15073554e36262c0e0ab156397c32444e4a018fe93b183f60045573554e36262c0e0ab156397c32444e4a018fe93b183b6005556005546000602073554e36262c0e0ab156397c32444e4a018fe93b183c60205160065500",
                "nonce" : "0x00",
                "balance" : "0x0de0b6b3a7640000",
                "storage" : {
                    "0x05" : "0x17",
                    "0x02" : "0x17",
                    "0x04" : "0xbc0e1b58b60bffd44555bf2c703da0fc6e1e3971797e9c5554512d69f45e7a52",
                    "0x01" : "0xbc0e1b58b60bffd44555bf2c703da0fc6e1e3971797e9c5554512d69f45e7a52",
                    "0x03" : "0x73bbbbbbbb00000000000000000000000000000000ff00000000000000000000",
                    "0x06" : "0x73bbbbbbbb00000000000000000000000000000000ff00000000000000000000"
                }
            },
            "0xcccccccc00000000000000000000000000000000" : {
                "code" : "0x73bbbbbbbb00000000000000000000000000000000ff00",
                "nonce" : "0x00",
                "balance" : "0x00",
                "storage" : {
                }
            },
            "0x2adc25665018aa1fe0e6bc666dac8fc2697ff9ba" : {
                "code" : "0x",
                "nonce" : "0x00",
                "balance" : "0x1bc16d674ecadc28",
                "storage" : {
                }
            }
        },
        "network" : "Istanbul",
        "sealEngine" : "NoProof",
        "lastblockhash" : "0xe5de6bb1a9bc60375df51c520f9ea72552e1938e23b13a5f56d72ce0fa76e92b",
        "genesisRLP" : "0xf901f8f901f3a00000000000000000000000000000000000000000000000000000000000000000a01dcc4de8dec75d7aab85b567b6ccd41ad312451b948a7413f0a142fd40d49347942adc25665018aa1fe0e6bc666dac8fc2697ff9baa07dc9de67572f4dc62db7b5907ffdf73a4d721e8067c6fa206d704ea114ca81a8a056e81f171bcc55a6ff8345e692c0f86e5b48e01b996cadc001622fb5e363b421a056e81f171bcc55a6ff8345e692c0f86e5b48e01b996cadc001622fb5e363b421b90100000000000000000000000000000000000000000000000000000000000000000000000000000000000000000000000000000000000000000000000000000000000000000000000000000000000000000000000000000000000000000000000000000000000000000000000000000000000000000000000000000000000000000000000000000000000000000000000000000000000000000000000000000000000000000000000000000000000000000000000000000000000000000000000000000000000000000000000000000000000000000000000000000000000000000000000000000000000000000000000000000000000000000000000000000000008302000080830f4240808000a00000000000000000000000000000000000000000000000000000000000000000880000000000000000c0c0",
        "blocks" : [
            {
                "rlp" : "0xf90260f901f8a0310e1e0f682ef59fecc9d26154c8658a4f2e4186e140a71c7301001fdb860394a01dcc4de8dec75d7aab85b567b6ccd41ad312451b948a7413f0a142fd40d49347942adc25665018aa1fe0e6bc666dac8fc2697ff9baa0093b44766b67bb4425f0d7bfdcb90acd7724e1e1d633aad87f9023f8c35409c7a0f2fde0741a86c3f5b87ccee3cce6faafd15be92989188f40919cb13422672757a01caaf8ed722e35d2ec56ae82f9b018cd9ee545b59c7bfd5e160ee215de7bec5fb90100000000000000000000000000000000000000000000000000000000000000000000000000000000000000000000000000000000000000000000000000000000000000000000000000000000000000000000000000000000000000000000000000000000000000000000000000000000000000000000000000000000000000000000000000000000000000000000000000000000000000000000000000000000000000000000000000000000000000000000000000000000000000000000000000000000000000000000000000000000000000000000000000000000000000000000000000000000000000000000000000000000000000000000000000000000008302000001830f460f8302dc288203e800a00000000000000000000000000000000000000000000000000000000000000000880000000000000000f862f860800183061a8094095e7baea6a6c7c4c2dfeb977efac326af552d8701801ca0ae29a79903b187c6d075320f9834a330b5134244c7fb0476eba58cd87b175fd6a027a8f85308f5f08f4e2f6b2e23d9dcfd740108f8f96517e50c9e1dc86288a673c0",
                "blockHeader" : {
                    "bloom" : "0x00000000000000000000000000000000000000000000000000000000000000000000000000000000000000000000000000000000000000000000000000000000000000000000000000000000000000000000000000000000000000000000000000000000000000000000000000000000000000000000000000000000000000000000000000000000000000000000000000000000000000000000000000000000000000000000000000000000000000000000000000000000000000000000000000000000000000000000000000000000000000000000000000000000000000000000000000000000000000000000000000000000000000000000000000000000",
                    "coinbase" : "0x2adc25665018aa1fe0e6bc666dac8fc2697ff9ba",
                    "difficulty" : "0x20000",
                    "extraData" : "0x00",
                    "gasLimit" : "0xf460f",
                    "gasUsed" : "0x2dc28",
                    "hash" : "0xe5de6bb1a9bc60375df51c520f9ea72552e1938e23b13a5f56d72ce0fa76e92b",
                    "mixHash" : "0x0000000000000000000000000000000000000000000000000000000000000000",
                    "nonce" : "0x0000000000000000",
                    "number" : "0x1",
                    "parentHash" : "0x310e1e0f682ef59fecc9d26154c8658a4f2e4186e140a71c7301001fdb860394",
                    "receiptTrie" : "0x1caaf8ed722e35d2ec56ae82f9b018cd9ee545b59c7bfd5e160ee215de7bec5f",
                    "stateRoot" : "0x093b44766b67bb4425f0d7bfdcb90acd7724e1e1d633aad87f9023f8c35409c7",
                    "timestamp" : "0x3e8",
                    "transactionsTrie" : "0xf2fde0741a86c3f5b87ccee3cce6faafd15be92989188f40919cb13422672757",
                    "uncleHash" : "0x1dcc4de8dec75d7aab85b567b6ccd41ad312451b948a7413f0a142fd40d49347"
                },
                "transactions" : [
                    {
                        "data" : "0x",
                        "gasLimit" : "0x061a80",
                        "gasPrice" : "0x01",
                        "nonce" : "0x00",
                        "to" : "0x095e7baea6a6c7c4c2dfeb977efac326af552d87",
                        "value" : "0x01",
                        "v" : "0x1c",
                        "r" : "0xae29a79903b187c6d075320f9834a330b5134244c7fb0476eba58cd87b175fd6",
                        "s" : "0x27a8f85308f5f08f4e2f6b2e23d9dcfd740108f8f96517e50c9e1dc86288a673"
                    }
                ]
            }
        ]
    }
}