{
    "extCodeHashCreatedAndDeletedAccountRecheckInOuterCall_d0g0v0_Istanbul" : {
        "_info" : {
            "comment" : "EXTCODEHASH/EXTCODESIZE of an account created then deleted in a CALL, checking results after the CALL returns",
            "filling-rpc-server" : "Geth-1.9.6-unstable-63b18027-20190920",
            "filling-tool-version" : "retesteth-0.0.1+commit.0ae18aef.Linux.g++",
            "lllcversion" : "Version: 0.5.12-develop.2019.9.13+commit.2d601a4f.Linux.g++",
            "source" : "src/GeneralStateTestsFiller/stExtCodeHash/extCodeHashCreatedAndDeletedAccountRecheckInOuterCallFiller.json",
            "sourceHash" : "d26a93b92e3cef1c963d1c8b54fdff60170953cb5329af2f0cd126ecfdf5e92e"
        },
        "genesisBlockHeader" : {
            "bloom" : "0x00000000000000000000000000000000000000000000000000000000000000000000000000000000000000000000000000000000000000000000000000000000000000000000000000000000000000000000000000000000000000000000000000000000000000000000000000000000000000000000000000000000000000000000000000000000000000000000000000000000000000000000000000000000000000000000000000000000000000000000000000000000000000000000000000000000000000000000000000000000000000000000000000000000000000000000000000000000000000000000000000000000000000000000000000000000",
            "coinbase" : "0x2adc25665018aa1fe0e6bc666dac8fc2697ff9ba",
            "difficulty" : "0x20000",
            "extraData" : "0x00",
            "gasLimit" : "0xf4240",
            "gasUsed" : "0x0",
            "hash" : "0x54362681b12dc71c6822ad70e87b874f81ebb6c66b4c03121471fbdbd7952fa8",
            "mixHash" : "0x0000000000000000000000000000000000000000000000000000000000000000",
            "nonce" : "0x0000000000000000",
            "number" : "0x0",
            "parentHash" : "0x0000000000000000000000000000000000000000000000000000000000000000",
            "receiptTrie" : "0x56e81f171bcc55a6ff8345e692c0f86e5b48e01b996cadc001622fb5e363b421",
            "stateRoot" : "0x364acaef62df9edb803f9d16d6e2b61a669317fb6c2b0cf25caf66154d335279",
            "timestamp" : "0x0",
            "transactionsTrie" : "0x56e81f171bcc55a6ff8345e692c0f86e5b48e01b996cadc001622fb5e363b421",
            "uncleHash" : "0x1dcc4de8dec75d7aab85b567b6ccd41ad312451b948a7413f0a142fd40d49347"
        },
        "pre" : {
            "0xa94f5374fce5edbc8e2a8697c15331677e6ebf0b" : {
                "balance" : "0x0de0b6b3a7640000",
                "code" : "0x",
                "nonce" : "0x00",
                "storage" : {
                }
            },
            "0xdeadbeef00000000000000000000000000000000" : {
                "balance" : "0x0de0b6b3a7640000",
                "code" : "0x6010601180604460803960806000f56000526000513f6000556000513b6001556000600060006000600060005162010000f1506000513f6002556000513b6003550000fe600480600d6000396000f300fe6000ff00",
                "nonce" : "0x00",
                "storage" : {
                }
            },
            "0xdeadbeef00000000000000000000000000000001" : {
                "balance" : "0x0de0b6b3a7640000",
                "code" : "0x6000600060006000600073deadbeef0000000000000000000000000000000062020000f15073123f4c415171383dcf6f3ac6c3b70fe321e11b5e3f60005573123f4c415171383dcf6f3ac6c3b70fe321e11b5e3b6001550000",
                "nonce" : "0x00",
                "storage" : {
                }
            }
        },
        "postState" : {
            "0xa94f5374fce5edbc8e2a8697c15331677e6ebf0b" : {
                "code" : "0x",
                "nonce" : "0x01",
                "balance" : "0x0de0b6b3a7618cbd",
                "storage" : {
                }
            },
            "0x2adc25665018aa1fe0e6bc666dac8fc2697ff9ba" : {
                "code" : "0x",
                "nonce" : "0x00",
                "balance" : "0x1bc16d674eca7342",
                "storage" : {
                }
            },
            "0xdeadbeef00000000000000000000000000000000" : {
                "code" : "0x6010601180604460803960806000f56000526000513f6000556000513b6001556000600060006000600060005162010000f1506000513f6002556000513b6003550000fe600480600d6000396000f300fe6000ff00",
                "nonce" : "0x01",
                "balance" : "0x0de0b6b3a7640000",
                "storage" : {
                    "0x00" : "0x73c5f15b1290fd9e66722596c2fa1e1c9341f7acb185530dce0bf0e0fec7dfc6",
                    "0x02" : "0x73c5f15b1290fd9e66722596c2fa1e1c9341f7acb185530dce0bf0e0fec7dfc6",
                    "0x01" : "0x04",
                    "0x03" : "0x04"
                }
            },
            "0xdeadbeef00000000000000000000000000000001" : {
                "code" : "0x6000600060006000600073deadbeef0000000000000000000000000000000062020000f15073123f4c415171383dcf6f3ac6c3b70fe321e11b5e3f60005573123f4c415171383dcf6f3ac6c3b70fe321e11b5e3b6001550000",
                "nonce" : "0x00",
                "balance" : "0x0de0b6b3a7640001",
                "storage" : {
                    "0x00" : "0x73c5f15b1290fd9e66722596c2fa1e1c9341f7acb185530dce0bf0e0fec7dfc6",
                    "0x01" : "0x04"
                }
            }
        },
        "network" : "Istanbul",
        "sealEngine" : "NoProof",
        "lastblockhash" : "0xb737d39f4edc4fe48f9cf9959528cfef7a13de3603f27ba7bfe1970eda22c3cb",
        "genesisRLP" : "0xf901f8f901f3a00000000000000000000000000000000000000000000000000000000000000000a01dcc4de8dec75d7aab85b567b6ccd41ad312451b948a7413f0a142fd40d49347942adc25665018aa1fe0e6bc666dac8fc2697ff9baa0364acaef62df9edb803f9d16d6e2b61a669317fb6c2b0cf25caf66154d335279a056e81f171bcc55a6ff8345e692c0f86e5b48e01b996cadc001622fb5e363b421a056e81f171bcc55a6ff8345e692c0f86e5b48e01b996cadc001622fb5e363b421b90100000000000000000000000000000000000000000000000000000000000000000000000000000000000000000000000000000000000000000000000000000000000000000000000000000000000000000000000000000000000000000000000000000000000000000000000000000000000000000000000000000000000000000000000000000000000000000000000000000000000000000000000000000000000000000000000000000000000000000000000000000000000000000000000000000000000000000000000000000000000000000000000000000000000000000000000000000000000000000000000000000000000000000000000000000000008302000080830f4240808000a00000000000000000000000000000000000000000000000000000000000000000880000000000000000c0c0",
        "blocks" : [
            {
                "rlp" : "0xf90260f901f8a054362681b12dc71c6822ad70e87b874f81ebb6c66b4c03121471fbdbd7952fa8a01dcc4de8dec75d7aab85b567b6ccd41ad312451b948a7413f0a142fd40d49347942adc25665018aa1fe0e6bc666dac8fc2697ff9baa0d930257ff9de803e62aa6321ce8b4b7ffc0fd5fb5ec6ed0efc529ad94acf32e7a09213f762caa85d49ef9d5bf425ffd1d0ba814cdfe0e12aa53740e5aee29a481fa0a9eea8804b78afbbf03c8355f74e1f99099e1de29ae7e88600b04f8a77113730b90100000000000000000000000000000000000000000000000000000000000000000000000000000000000000000000000000000000000000000000000000000000000000000000000000000000000000000000000000000000000000000000000000000000000000000000000000000000000000000000000000000000000000000000000000000000000000000000000000000000000000000000000000000000000000000000000000000000000000000000000000000000000000000000000000000000000000000000000000000000000000000000000000000000000000000000000000000000000000000000000000000000000000000000000000000000008302000001830f460f830273428203e800a00000000000000000000000000000000000000000000000000000000000000000880000000000000000f862f860800183061a8094deadbeef0000000000000000000000000000000101801ca052adf3b876b2b63352ca31ecde66783574c333c957135265eecba278b27d177ba06d3e5c5a0ea5414786ef955b4babc5db60430145f5419853dae17eca4bf34546c0",
                "blockHeader" : {
                    "bloom" : "0x00000000000000000000000000000000000000000000000000000000000000000000000000000000000000000000000000000000000000000000000000000000000000000000000000000000000000000000000000000000000000000000000000000000000000000000000000000000000000000000000000000000000000000000000000000000000000000000000000000000000000000000000000000000000000000000000000000000000000000000000000000000000000000000000000000000000000000000000000000000000000000000000000000000000000000000000000000000000000000000000000000000000000000000000000000000",
                    "coinbase" : "0x2adc25665018aa1fe0e6bc666dac8fc2697ff9ba",
                    "difficulty" : "0x20000",
                    "extraData" : "0x00",
                    "gasLimit" : "0xf460f",
                    "gasUsed" : "0x27342",
                    "hash" : "0xb737d39f4edc4fe48f9cf9959528cfef7a13de3603f27ba7bfe1970eda22c3cb",
                    "mixHash" : "0x0000000000000000000000000000000000000000000000000000000000000000",
                    "nonce" : "0x0000000000000000",
                    "number" : "0x1",
                    "parentHash" : "0x54362681b12dc71c6822ad70e87b874f81ebb6c66b4c03121471fbdbd7952fa8",
                    "receiptTrie" : "0xa9eea8804b78afbbf03c8355f74e1f99099e1de29ae7e88600b04f8a77113730",
                    "stateRoot" : "0xd930257ff9de803e62aa6321ce8b4b7ffc0fd5fb5ec6ed0efc529ad94acf32e7",
                    "timestamp" : "0x3e8",
                    "transactionsTrie" : "0x9213f762caa85d49ef9d5bf425ffd1d0ba814cdfe0e12aa53740e5aee29a481f",
                    "uncleHash" : "0x1dcc4de8dec75d7aab85b567b6ccd41ad312451b948a7413f0a142fd40d49347"
                },
                "transactions" : [
                    {
                        "data" : "0x",
                        "gasLimit" : "0x061a80",
                        "gasPrice" : "0x01",
                        "nonce" : "0x00",
                        "to" : "0xdeadbeef00000000000000000000000000000001",
                        "value" : "0x01",
                        "v" : "0x1c",
                        "r" : "0x52adf3b876b2b63352ca31ecde66783574c333c957135265eecba278b27d177b",
                        "s" : "0x6d3e5c5a0ea5414786ef955b4babc5db60430145f5419853dae17eca4bf34546"
                    }
                ]
            }
        ]
    }
}