{
    "extCodeHashSelfInInit_d0g0v0_Istanbul" : {
        "_info" : {
            "comment" : "EXTCODEHASH/EXTCODESIZE of the account currently being created",
            "filling-rpc-server" : "Geth-1.9.6-unstable-63b18027-20190920",
            "filling-tool-version" : "retesteth-0.0.1+commit.0ae18aef.Linux.g++",
            "lllcversion" : "Version: 0.5.12-develop.2019.9.13+commit.2d601a4f.Linux.g++",
            "source" : "src/GeneralStateTestsFiller/stExtCodeHash/extCodeHashSelfInInitFiller.json",
            "sourceHash" : "e1fa61e78c43efb68805856123d7b7662acdfebd8770467517ba8aa5ad3f7cc7"
        },
        "genesisBlockHeader" : {
            "bloom" : "0x00000000000000000000000000000000000000000000000000000000000000000000000000000000000000000000000000000000000000000000000000000000000000000000000000000000000000000000000000000000000000000000000000000000000000000000000000000000000000000000000000000000000000000000000000000000000000000000000000000000000000000000000000000000000000000000000000000000000000000000000000000000000000000000000000000000000000000000000000000000000000000000000000000000000000000000000000000000000000000000000000000000000000000000000000000000",
            "coinbase" : "0x2adc25665018aa1fe0e6bc666dac8fc2697ff9ba",
            "difficulty" : "0x20000",
            "extraData" : "0x00",
            "gasLimit" : "0xf4240",
            "gasUsed" : "0x0",
            "hash" : "0x6c0b84c8e3ffb3fe0d9e60e5c87693b2038e976622f62aad5349ade93b17a67a",
            "mixHash" : "0x0000000000000000000000000000000000000000000000000000000000000000",
            "nonce" : "0x0000000000000000",
            "number" : "0x0",
            "parentHash" : "0x0000000000000000000000000000000000000000000000000000000000000000",
            "receiptTrie" : "0x56e81f171bcc55a6ff8345e692c0f86e5b48e01b996cadc001622fb5e363b421",
            "stateRoot" : "0x0932f3fb5cf0b6ff18ecd0de313d5ac52c16386cd944d533a7ec7c1ddee0aad5",
            "timestamp" : "0x0",
            "transactionsTrie" : "0x56e81f171bcc55a6ff8345e692c0f86e5b48e01b996cadc001622fb5e363b421",
            "uncleHash" : "0x1dcc4de8dec75d7aab85b567b6ccd41ad312451b948a7413f0a142fd40d49347"
        },
        "pre" : {
            "0xa94f5374fce5edbc8e2a8697c15331677e6ebf0b" : {
                "balance" : "0x0de0b6b3a7640000",
                "code" : "0x",
                "nonce" : "0x00",
                "storage" : {
                }
            },
            "0xdeadbeef00000000000000000000000000000000" : {
                "balance" : "0x0de0b6b3a7640000",
                "code" : "0x6010601080601360003960006000f5500000fe303f600055303b60015560006000f300",
                "nonce" : "0x00",
                "storage" : {
                    "0x00" : "0xdeadbeef"
                }
            }
        },
        "postState" : {
            "0xa94f5374fce5edbc8e2a8697c15331677e6ebf0b" : {
                "code" : "0x",
                "nonce" : "0x01",
                "balance" : "0x0de0b6b3a762da09",
                "storage" : {
                }
            },
            "0x2adc25665018aa1fe0e6bc666dac8fc2697ff9ba" : {
                "code" : "0x",
                "nonce" : "0x00",
                "balance" : "0x1bc16d674ec925f6",
                "storage" : {
                }
            },
            "0xdeadbeef00000000000000000000000000000000" : {
                "code" : "0x6010601080601360003960006000f5500000fe303f600055303b60015560006000f300",
                "nonce" : "0x01",
                "balance" : "0x0de0b6b3a7640001",
                "storage" : {
                    "0x00" : "0xdeadbeef"
                }
            },
            "0x8d540e2aaf9828712749afedf7c53ed034a6fd0e" : {
                "code" : "0x",
                "nonce" : "0x01",
                "balance" : "0x00",
                "storage" : {
                    "0x00" : "0xc5d2460186f7233c927e7db2dcc703c0e500b653ca82273b7bfad8045d85a470"
                }
            }
        },
        "network" : "Istanbul",
        "sealEngine" : "NoProof",
        "lastblockhash" : "0xf4d2be6f1d78759e3f39a4bbf17e2219d57df3f04682d1fd9f0780154408baed",
        "genesisRLP" : "0xf901f8f901f3a00000000000000000000000000000000000000000000000000000000000000000a01dcc4de8dec75d7aab85b567b6ccd41ad312451b948a7413f0a142fd40d49347942adc25665018aa1fe0e6bc666dac8fc2697ff9baa00932f3fb5cf0b6ff18ecd0de313d5ac52c16386cd944d533a7ec7c1ddee0aad5a056e81f171bcc55a6ff8345e692c0f86e5b48e01b996cadc001622fb5e363b421a056e81f171bcc55a6ff8345e692c0f86e5b48e01b996cadc001622fb5e363b421b90100000000000000000000000000000000000000000000000000000000000000000000000000000000000000000000000000000000000000000000000000000000000000000000000000000000000000000000000000000000000000000000000000000000000000000000000000000000000000000000000000000000000000000000000000000000000000000000000000000000000000000000000000000000000000000000000000000000000000000000000000000000000000000000000000000000000000000000000000000000000000000000000000000000000000000000000000000000000000000000000000000000000000000000000000000000008302000080830f4240808000a00000000000000000000000000000000000000000000000000000000000000000880000000000000000c0c0",
        "blocks" : [
            {
                "rlp" : "0xf90260f901f8a06c0b84c8e3ffb3fe0d9e60e5c87693b2038e976622f62aad5349ade93b17a67aa01dcc4de8dec75d7aab85b567b6ccd41ad312451b948a7413f0a142fd40d49347942adc25665018aa1fe0e6bc666dac8fc2697ff9baa0eee78b9c98dd975933cb7eced8af4da9c2ad924a371b0d96d66653532535a359a0324788bcaeb3ef4ea52657457b25024fd8e28f4e686f0b44f9df8c55c10854a3a03559b48f858f290af472a989f645abd9fbbc64be03c320bb915bc9ac3b74ad40b90100000000000000000000000000000000000000000000000000000000000000000000000000000000000000000000000000000000000000000000000000000000000000000000000000000000000000000000000000000000000000000000000000000000000000000000000000000000000000000000000000000000000000000000000000000000000000000000000000000000000000000000000000000000000000000000000000000000000000000000000000000000000000000000000000000000000000000000000000000000000000000000000000000000000000000000000000000000000000000000000000000000000000000000000000000000008302000001830f460f830125f68203e800a00000000000000000000000000000000000000000000000000000000000000000880000000000000000f862f860800183061a8094deadbeef0000000000000000000000000000000001801ca0c202f0d1337e2d44fa1bf35877e7278363f8a0870146a587e8f75bbd10df9240a05cb792200832e3876d0213563d9dc7705e255718f25455ca28eec91736e98c55c0",
                "blockHeader" : {
                    "bloom" : "0x00000000000000000000000000000000000000000000000000000000000000000000000000000000000000000000000000000000000000000000000000000000000000000000000000000000000000000000000000000000000000000000000000000000000000000000000000000000000000000000000000000000000000000000000000000000000000000000000000000000000000000000000000000000000000000000000000000000000000000000000000000000000000000000000000000000000000000000000000000000000000000000000000000000000000000000000000000000000000000000000000000000000000000000000000000000",
                    "coinbase" : "0x2adc25665018aa1fe0e6bc666dac8fc2697ff9ba",
                    "difficulty" : "0x20000",
                    "extraData" : "0x00",
                    "gasLimit" : "0xf460f",
                    "gasUsed" : "0x125f6",
                    "hash" : "0xf4d2be6f1d78759e3f39a4bbf17e2219d57df3f04682d1fd9f0780154408baed",
                    "mixHash" : "0x0000000000000000000000000000000000000000000000000000000000000000",
                    "nonce" : "0x0000000000000000",
                    "number" : "0x1",
                    "parentHash" : "0x6c0b84c8e3ffb3fe0d9e60e5c87693b2038e976622f62aad5349ade93b17a67a",
                    "receiptTrie" : "0x3559b48f858f290af472a989f645abd9fbbc64be03c320bb915bc9ac3b74ad40",
                    "stateRoot" : "0xeee78b9c98dd975933cb7eced8af4da9c2ad924a371b0d96d66653532535a359",
                    "timestamp" : "0x3e8",
                    "transactionsTrie" : "0x324788bcaeb3ef4ea52657457b25024fd8e28f4e686f0b44f9df8c55c10854a3",
                    "uncleHash" : "0x1dcc4de8dec75d7aab85b567b6ccd41ad312451b948a7413f0a142fd40d49347"
                },
                "transactions" : [
                    {
                        "data" : "0x",
                        "gasLimit" : "0x061a80",
                        "gasPrice" : "0x01",
                        "nonce" : "0x00",
                        "to" : "0xdeadbeef00000000000000000000000000000000",
                        "value" : "0x01",
                        "v" : "0x1c",
                        "r" : "0xc202f0d1337e2d44fa1bf35877e7278363f8a0870146a587e8f75bbd10df9240",
                        "s" : "0x5cb792200832e3876d0213563d9dc7705e255718f25455ca28eec91736e98c55"
                    }
                ]
            }
        ]
    }
}