{
    "extCodeHashSTATICCALL_d0g0v0_Istanbul" : {
        "_info" : {
            "comment" : "EXTCODEHASH of an account during a STATICCALL",
            "filling-rpc-server" : "Geth-1.9.6-unstable-63b18027-20190920",
            "filling-tool-version" : "retesteth-0.0.1+commit.0ae18aef.Linux.g++",
            "lllcversion" : "Version: 0.5.12-develop.2019.9.13+commit.2d601a4f.Linux.g++",
            "source" : "src/GeneralStateTestsFiller/stExtCodeHash/extCodeHashSTATICCALLFiller.json",
            "sourceHash" : "f0f850dd48c1682d36b57550a6077d5684c87074c2d2ea71c708c1a579389852"
        },
        "genesisBlockHeader" : {
            "bloom" : "0x00000000000000000000000000000000000000000000000000000000000000000000000000000000000000000000000000000000000000000000000000000000000000000000000000000000000000000000000000000000000000000000000000000000000000000000000000000000000000000000000000000000000000000000000000000000000000000000000000000000000000000000000000000000000000000000000000000000000000000000000000000000000000000000000000000000000000000000000000000000000000000000000000000000000000000000000000000000000000000000000000000000000000000000000000000000",
            "coinbase" : "0x2adc25665018aa1fe0e6bc666dac8fc2697ff9ba",
            "difficulty" : "0x20000",
            "extraData" : "0x00",
            "gasLimit" : "0xf4240",
            "gasUsed" : "0x0",
            "hash" : "0xc33c867180ed770c9d08b839840b1f8571ad20266328ad07eb2495f602e2c81e",
            "mixHash" : "0x0000000000000000000000000000000000000000000000000000000000000000",
            "nonce" : "0x0000000000000000",
            "number" : "0x0",
            "parentHash" : "0x0000000000000000000000000000000000000000000000000000000000000000",
            "receiptTrie" : "0x56e81f171bcc55a6ff8345e692c0f86e5b48e01b996cadc001622fb5e363b421",
            "stateRoot" : "0x37ef368f56f7f8be500743bc1f22b490e42bd50df7a78a0f6eb53b596bf4163a",
            "timestamp" : "0x0",
            "transactionsTrie" : "0x56e81f171bcc55a6ff8345e692c0f86e5b48e01b996cadc001622fb5e363b421",
            "uncleHash" : "0x1dcc4de8dec75d7aab85b567b6ccd41ad312451b948a7413f0a142fd40d49347"
        },
        "pre" : {
            "0x095e7baea6a6c7c4c2dfeb977efac326af552d87" : {
                "balance" : "0x0de0b6b3a7640000",
                "code" : "0x602060006000600073deadbeef00000000000000000000000000000000620249f0fa506020600060003e600051600055602060006000600073aeadbeef00000000000000000000000000000000620249f0fa506020600060003e60005160015500",
                "nonce" : "0x00",
                "storage" : {
                    "0x00" : "0xdeadbeef"
                }
            },
            "0xa94f5374fce5edbc8e2a8697c15331677e6ebf0b" : {
                "balance" : "0x0de0b6b3a7640000",
                "code" : "0x",
                "nonce" : "0x00",
                "storage" : {
                }
            },
            "0xaeadbeef00000000000000000000000000000000" : {
                "balance" : "0x0de0b6b3a7640000",
                "code" : "0x73deadbeef000000000000000000000000000000013b60005260206000f300",
                "nonce" : "0x00",
                "storage" : {
                    "0x00" : "0xdeadbeef"
                }
            },
            "0xdeadbeef00000000000000000000000000000000" : {
                "balance" : "0x0de0b6b3a7640000",
                "code" : "0x73deadbeef000000000000000000000000000000013f60005260206000f300",
                "nonce" : "0x00",
                "storage" : {
                    "0x00" : "0xdeadbeef"
                }
            },
            "0xdeadbeef00000000000000000000000000000001" : {
                "balance" : "0x0de0b6b3a7640000",
                "code" : "0x1234",
                "nonce" : "0x00",
                "storage" : {
                }
            }
        },
        "postState" : {
            "0xa94f5374fce5edbc8e2a8697c15331677e6ebf0b" : {
                "code" : "0x",
                "nonce" : "0x01",
                "balance" : "0x0de0b6b3a76340e0",
                "storage" : {
                }
            },
            "0xaeadbeef00000000000000000000000000000000" : {
                "code" : "0x73deadbeef000000000000000000000000000000013b60005260206000f300",
                "nonce" : "0x00",
                "balance" : "0x0de0b6b3a7640000",
                "storage" : {
                    "0x00" : "0xdeadbeef"
                }
            },
            "0x095e7baea6a6c7c4c2dfeb977efac326af552d87" : {
                "code" : "0x602060006000600073deadbeef00000000000000000000000000000000620249f0fa506020600060003e600051600055602060006000600073aeadbeef00000000000000000000000000000000620249f0fa506020600060003e60005160015500",
                "nonce" : "0x00",
                "balance" : "0x0de0b6b3a7640001",
                "storage" : {
                    "0x00" : "0x56570de287d73cd1cb6092bb8fdee6173974955fdef345ae579ee9f475ea7432",
                    "0x01" : "0x02"
                }
            },
            "0x2adc25665018aa1fe0e6bc666dac8fc2697ff9ba" : {
                "code" : "0x",
                "nonce" : "0x00",
                "balance" : "0x1bc16d674ec8bf1f",
                "storage" : {
                }
            },
            "0xdeadbeef00000000000000000000000000000000" : {
                "code" : "0x73deadbeef000000000000000000000000000000013f60005260206000f300",
                "nonce" : "0x00",
                "balance" : "0x0de0b6b3a7640000",
                "storage" : {
                    "0x00" : "0xdeadbeef"
                }
            },
            "0xdeadbeef00000000000000000000000000000001" : {
                "code" : "0x1234",
                "nonce" : "0x00",
                "balance" : "0x0de0b6b3a7640000",
                "storage" : {
                }
            }
        },
        "network" : "Istanbul",
        "sealEngine" : "NoProof",
        "lastblockhash" : "0x001f0a8fef475350d29c2131f6b779d2598ba7fd95e73c815d96519ee48279e3",
        "genesisRLP" : "0xf901f8f901f3a00000000000000000000000000000000000000000000000000000000000000000a01dcc4de8dec75d7aab85b567b6ccd41ad312451b948a7413f0a142fd40d49347942adc25665018aa1fe0e6bc666dac8fc2697ff9baa037ef368f56f7f8be500743bc1f22b490e42bd50df7a78a0f6eb53b596bf4163aa056e81f171bcc55a6ff8345e692c0f86e5b48e01b996cadc001622fb5e363b421a056e81f171bcc55a6ff8345e692c0f86e5b48e01b996cadc001622fb5e363b421b90100000000000000000000000000000000000000000000000000000000000000000000000000000000000000000000000000000000000000000000000000000000000000000000000000000000000000000000000000000000000000000000000000000000000000000000000000000000000000000000000000000000000000000000000000000000000000000000000000000000000000000000000000000000000000000000000000000000000000000000000000000000000000000000000000000000000000000000000000000000000000000000000000000000000000000000000000000000000000000000000000000000000000000000000000000000008302000080830f4240808000a00000000000000000000000000000000000000000000000000000000000000000880000000000000000c0c0",
        "blocks" : [
            {
                "rlp" : "0xf9025ff901f7a0c33c867180ed770c9d08b839840b1f8571ad20266328ad07eb2495f602e2c81ea01dcc4de8dec75d7aab85b567b6ccd41ad312451b948a7413f0a142fd40d49347942adc25665018aa1fe0e6bc666dac8fc2697ff9baa0f7e3aec58f57d5b6d7dc0e030c43b3094ef31eb4f65cc795acf7eee3b77f878fa0f2fde0741a86c3f5b87ccee3cce6faafd15be92989188f40919cb13422672757a0d75ce864dadada873271945fcac717f5e78f8533d9d65564ef9a317a7b7980d5b90100000000000000000000000000000000000000000000000000000000000000000000000000000000000000000000000000000000000000000000000000000000000000000000000000000000000000000000000000000000000000000000000000000000000000000000000000000000000000000000000000000000000000000000000000000000000000000000000000000000000000000000000000000000000000000000000000000000000000000000000000000000000000000000000000000000000000000000000000000000000000000000000000000000000000000000000000000000000000000000000000000000000000000000000000000000008302000001830f460f82bf1f8203e800a00000000000000000000000000000000000000000000000000000000000000000880000000000000000f862f860800183061a8094095e7baea6a6c7c4c2dfeb977efac326af552d8701801ca0ae29a79903b187c6d075320f9834a330b5134244c7fb0476eba58cd87b175fd6a027a8f85308f5f08f4e2f6b2e23d9dcfd740108f8f96517e50c9e1dc86288a673c0",
                "blockHeader" : {
                    "bloom" : "0x00000000000000000000000000000000000000000000000000000000000000000000000000000000000000000000000000000000000000000000000000000000000000000000000000000000000000000000000000000000000000000000000000000000000000000000000000000000000000000000000000000000000000000000000000000000000000000000000000000000000000000000000000000000000000000000000000000000000000000000000000000000000000000000000000000000000000000000000000000000000000000000000000000000000000000000000000000000000000000000000000000000000000000000000000000000",
                    "coinbase" : "0x2adc25665018aa1fe0e6bc666dac8fc2697ff9ba",
                    "difficulty" : "0x20000",
                    "extraData" : "0x00",
                    "gasLimit" : "0xf460f",
                    "gasUsed" : "0xbf1f",
                    "hash" : "0x001f0a8fef475350d29c2131f6b779d2598ba7fd95e73c815d96519ee48279e3",
                    "mixHash" : "0x0000000000000000000000000000000000000000000000000000000000000000",
                    "nonce" : "0x0000000000000000",
                    "number" : "0x1",
                    "parentHash" : "0xc33c867180ed770c9d08b839840b1f8571ad20266328ad07eb2495f602e2c81e",
                    "receiptTrie" : "0xd75ce864dadada873271945fcac717f5e78f8533d9d65564ef9a317a7b7980d5",
                    "stateRoot" : "0xf7e3aec58f57d5b6d7dc0e030c43b3094ef31eb4f65cc795acf7eee3b77f878f",
                    "timestamp" : "0x3e8",
                    "transactionsTrie" : "0xf2fde0741a86c3f5b87ccee3cce6faafd15be92989188f40919cb13422672757",
                    "uncleHash" : "0x1dcc4de8dec75d7aab85b567b6ccd41ad312451b948a7413f0a142fd40d49347"
                },
                "transactions" : [
                    {
                        "data" : "0x",
                        "gasLimit" : "0x061a80",
                        "gasPrice" : "0x01",
                        "nonce" : "0x00",
                        "to" : "0x095e7baea6a6c7c4c2dfeb977efac326af552d87",
                        "value" : "0x01",
                        "v" : "0x1c",
                        "r" : "0xae29a79903b187c6d075320f9834a330b5134244c7fb0476eba58cd87b175fd6",
                        "s" : "0x27a8f85308f5f08f4e2f6b2e23d9dcfd740108f8f96517e50c9e1dc86288a673"
                    }
                ]
            }
        ]
    }
}