{
    "extCodeHashSelf_d0g0v0_Istanbul" : {
        "_info" : {
            "comment" : "EXTCODEHASH/EXTCODESIZE of the currently executing account",
            "filling-rpc-server" : "Geth-1.9.6-unstable-63b18027-20190920",
            "filling-tool-version" : "retesteth-0.0.1+commit.0ae18aef.Linux.g++",
            "lllcversion" : "Version: 0.5.12-develop.2019.9.13+commit.2d601a4f.Linux.g++",
            "source" : "src/GeneralStateTestsFiller/stExtCodeHash/extCodeHashSelfFiller.json",
            "sourceHash" : "4017b309c1e77e746f717b2d7b609df19a2cd1ed9bd2a09742c68c1dd970b8c5"
        },
        "genesisBlockHeader" : {
            "bloom" : "0x00000000000000000000000000000000000000000000000000000000000000000000000000000000000000000000000000000000000000000000000000000000000000000000000000000000000000000000000000000000000000000000000000000000000000000000000000000000000000000000000000000000000000000000000000000000000000000000000000000000000000000000000000000000000000000000000000000000000000000000000000000000000000000000000000000000000000000000000000000000000000000000000000000000000000000000000000000000000000000000000000000000000000000000000000000000",
            "coinbase" : "0x2adc25665018aa1fe0e6bc666dac8fc2697ff9ba",
            "difficulty" : "0x20000",
            "extraData" : "0x00",
            "gasLimit" : "0xf4240",
            "gasUsed" : "0x0",
            "hash" : "0x33d7eb57173cdc7b0ecc1245a9d9b97ac29f06b9e4647e48bfca042217a2b73b",
            "mixHash" : "0x0000000000000000000000000000000000000000000000000000000000000000",
            "nonce" : "0x0000000000000000",
            "number" : "0x0",
            "parentHash" : "0x0000000000000000000000000000000000000000000000000000000000000000",
            "receiptTrie" : "0x56e81f171bcc55a6ff8345e692c0f86e5b48e01b996cadc001622fb5e363b421",
            "stateRoot" : "0xf845fd83f9c5a6257f24eaf030ae7d75cff501aeaa844438176f2fcd81941ba8",
            "timestamp" : "0x0",
            "transactionsTrie" : "0x56e81f171bcc55a6ff8345e692c0f86e5b48e01b996cadc001622fb5e363b421",
            "uncleHash" : "0x1dcc4de8dec75d7aab85b567b6ccd41ad312451b948a7413f0a142fd40d49347"
        },
        "pre" : {
            "0xa94f5374fce5edbc8e2a8697c15331677e6ebf0b" : {
                "balance" : "0x0de0b6b3a7640000",
                "code" : "0x",
                "nonce" : "0x00",
                "storage" : {
                }
            },
            "0xdeadbeef00000000000000000000000000000000" : {
                "balance" : "0x0de0b6b3a7640000",
                "code" : "0x73deadbeef000000000000000000000000000000003f60005573deadbeef000000000000000000000000000000003b60015500",
                "nonce" : "0x00",
                "storage" : {
                    "0x00" : "0xdeadbeef"
                }
            }
        },
        "postState" : {
            "0xa94f5374fce5edbc8e2a8697c15331677e6ebf0b" : {
                "code" : "0x",
                "nonce" : "0x01",
                "balance" : "0x0de0b6b3a76346cb",
                "storage" : {
                }
            },
            "0x2adc25665018aa1fe0e6bc666dac8fc2697ff9ba" : {
                "code" : "0x",
                "nonce" : "0x00",
                "balance" : "0x1bc16d674ec8b934",
                "storage" : {
                }
            },
            "0xdeadbeef00000000000000000000000000000000" : {
                "code" : "0x73deadbeef000000000000000000000000000000003f60005573deadbeef000000000000000000000000000000003b60015500",
                "nonce" : "0x00",
                "balance" : "0x0de0b6b3a7640001",
                "storage" : {
                    "0x00" : "0x8807d680db87f5e22d9914d421554ef0f43ec8f589fff85a094c52a35525d2bf",
                    "0x01" : "0x33"
                }
            }
        },
        "network" : "Istanbul",
        "sealEngine" : "NoProof",
        "lastblockhash" : "0xff99fdc1f5ba9ff99b5932437636530949e82b60fc1f0e17579fba73249b1bd0",
        "genesisRLP" : "0xf901f8f901f3a00000000000000000000000000000000000000000000000000000000000000000a01dcc4de8dec75d7aab85b567b6ccd41ad312451b948a7413f0a142fd40d49347942adc25665018aa1fe0e6bc666dac8fc2697ff9baa0f845fd83f9c5a6257f24eaf030ae7d75cff501aeaa844438176f2fcd81941ba8a056e81f171bcc55a6ff8345e692c0f86e5b48e01b996cadc001622fb5e363b421a056e81f171bcc55a6ff8345e692c0f86e5b48e01b996cadc001622fb5e363b421b90100000000000000000000000000000000000000000000000000000000000000000000000000000000000000000000000000000000000000000000000000000000000000000000000000000000000000000000000000000000000000000000000000000000000000000000000000000000000000000000000000000000000000000000000000000000000000000000000000000000000000000000000000000000000000000000000000000000000000000000000000000000000000000000000000000000000000000000000000000000000000000000000000000000000000000000000000000000000000000000000000000000000000000000000000000000008302000080830f4240808000a00000000000000000000000000000000000000000000000000000000000000000880000000000000000c0c0",
        "blocks" : [
            {
                "rlp" : "0xf9025ff901f7a033d7eb57173cdc7b0ecc1245a9d9b97ac29f06b9e4647e48bfca042217a2b73ba01dcc4de8dec75d7aab85b567b6ccd41ad312451b948a7413f0a142fd40d49347942adc25665018aa1fe0e6bc666dac8fc2697ff9baa0a016d73a5b6f6ba9221401e19b5968801ad2955ce9cfdba5fbcdce01e4ce18d8a0324788bcaeb3ef4ea52657457b25024fd8e28f4e686f0b44f9df8c55c10854a3a03d2bc37a65cc6f45eb651fae0e734cb44b82bc1555660ed209cbd6f3374373a4b90100000000000000000000000000000000000000000000000000000000000000000000000000000000000000000000000000000000000000000000000000000000000000000000000000000000000000000000000000000000000000000000000000000000000000000000000000000000000000000000000000000000000000000000000000000000000000000000000000000000000000000000000000000000000000000000000000000000000000000000000000000000000000000000000000000000000000000000000000000000000000000000000000000000000000000000000000000000000000000000000000000000000000000000000000000000008302000001830f460f82b9348203e800a00000000000000000000000000000000000000000000000000000000000000000880000000000000000f862f860800183061a8094deadbeef0000000000000000000000000000000001801ca0c202f0d1337e2d44fa1bf35877e7278363f8a0870146a587e8f75bbd10df9240a05cb792200832e3876d0213563d9dc7705e255718f25455ca28eec91736e98c55c0",
                "blockHeader" : {
                    "bloom" : "0x00000000000000000000000000000000000000000000000000000000000000000000000000000000000000000000000000000000000000000000000000000000000000000000000000000000000000000000000000000000000000000000000000000000000000000000000000000000000000000000000000000000000000000000000000000000000000000000000000000000000000000000000000000000000000000000000000000000000000000000000000000000000000000000000000000000000000000000000000000000000000000000000000000000000000000000000000000000000000000000000000000000000000000000000000000000",
                    "coinbase" : "0x2adc25665018aa1fe0e6bc666dac8fc2697ff9ba",
                    "difficulty" : "0x20000",
                    "extraData" : "0x00",
                    "gasLimit" : "0xf460f",
                    "gasUsed" : "0xb934",
                    "hash" : "0xff99fdc1f5ba9ff99b5932437636530949e82b60fc1f0e17579fba73249b1bd0",
                    "mixHash" : "0x0000000000000000000000000000000000000000000000000000000000000000",
                    "nonce" : "0x0000000000000000",
                    "number" : "0x1",
                    "parentHash" : "0x33d7eb57173cdc7b0ecc1245a9d9b97ac29f06b9e4647e48bfca042217a2b73b",
                    "receiptTrie" : "0x3d2bc37a65cc6f45eb651fae0e734cb44b82bc1555660ed209cbd6f3374373a4",
                    "stateRoot" : "0xa016d73a5b6f6ba9221401e19b5968801ad2955ce9cfdba5fbcdce01e4ce18d8",
                    "timestamp" : "0x3e8",
                    "transactionsTrie" : "0x324788bcaeb3ef4ea52657457b25024fd8e28f4e686f0b44f9df8c55c10854a3",
                    "uncleHash" : "0x1dcc4de8dec75d7aab85b567b6ccd41ad312451b948a7413f0a142fd40d49347"
                },
                "transactions" : [
                    {
                        "data" : "0x",
                        "gasLimit" : "0x061a80",
                        "gasPrice" : "0x01",
                        "nonce" : "0x00",
                        "to" : "0xdeadbeef00000000000000000000000000000000",
                        "value" : "0x01",
                        "v" : "0x1c",
                        "r" : "0xc202f0d1337e2d44fa1bf35877e7278363f8a0870146a587e8f75bbd10df9240",
                        "s" : "0x5cb792200832e3876d0213563d9dc7705e255718f25455ca28eec91736e98c55"
                    }
                ]
            }
        ]
    }
}