{
    "extCodeHashDeletedAccount4_d0g0v0_Istanbul" : {
        "_info" : {
            "comment" : "4) Call creates Account A\nCall to Account B stores Account A hash to 1\nCall to Account C runs self destruct on A\nCall to Account B stores Account a hash to 2\n",
            "filling-rpc-server" : "Geth-1.9.6-unstable-63b18027-20190920",
            "filling-tool-version" : "retesteth-0.0.1+commit.0ae18aef.Linux.g++",
            "lllcversion" : "Version: 0.5.12-develop.2019.9.13+commit.2d601a4f.Linux.g++",
            "source" : "src/GeneralStateTestsFiller/stExtCodeHash/extCodeHashDeletedAccount4Filler.yml",
            "sourceHash" : "54d8f1d4884b0b2067a161f85226f2f959126e830879c7baf1121533f0343f2d"
        },
        "genesisBlockHeader" : {
            "bloom" : "0x00000000000000000000000000000000000000000000000000000000000000000000000000000000000000000000000000000000000000000000000000000000000000000000000000000000000000000000000000000000000000000000000000000000000000000000000000000000000000000000000000000000000000000000000000000000000000000000000000000000000000000000000000000000000000000000000000000000000000000000000000000000000000000000000000000000000000000000000000000000000000000000000000000000000000000000000000000000000000000000000000000000000000000000000000000000",
            "coinbase" : "0x2adc25665018aa1fe0e6bc666dac8fc2697ff9ba",
            "difficulty" : "0x20000",
            "extraData" : "0x00",
            "gasLimit" : "0xf4240",
            "gasUsed" : "0x0",
            "hash" : "0x4a1cbf02e1c9425534beedeaeb75ca0d4bba5d0f6eab1bee772cba16c4ca3728",
            "mixHash" : "0x0000000000000000000000000000000000000000000000000000000000000000",
            "nonce" : "0x0000000000000000",
            "number" : "0x0",
            "parentHash" : "0x0000000000000000000000000000000000000000000000000000000000000000",
            "receiptTrie" : "0x56e81f171bcc55a6ff8345e692c0f86e5b48e01b996cadc001622fb5e363b421",
            "stateRoot" : "0x27aae31cd3acfc4fbba59f14045953a9c014b21542a3fb50530de49d154861a8",
            "timestamp" : "0x0",
            "transactionsTrie" : "0x56e81f171bcc55a6ff8345e692c0f86e5b48e01b996cadc001622fb5e363b421",
            "uncleHash" : "0x1dcc4de8dec75d7aab85b567b6ccd41ad312451b948a7413f0a142fd40d49347"
        },
        "pre" : {
            "0x095e7baea6a6c7c4c2dfeb977efac326af552d87" : {
                "balance" : "0x0de0b6b3a7640000",
                "code" : "0x6000603d80609460003960006000f560005260005160005560016020526020600060206020600073bbbbbbbb00000000000000000000000000000000620249f0f1506020600060006000600073cccccccc00000000000000000000000000000000620249f0f15060046040526020600060206040600073bbbbbbbb00000000000000000000000000000000620249f0f1500000fe73dddddddd000000000000000000000000000000003b6000526000516000602073dddddddd000000000000000000000000000000003c6000516020f300",
                "nonce" : "0x00",
                "storage" : {
                }
            },
            "0xa94f5374fce5edbc8e2a8697c15331677e6ebf0b" : {
                "balance" : "0x0de0b6b3a7640000",
                "code" : "0x",
                "nonce" : "0x00",
                "storage" : {
                }
            },
            "0xbbbbbbbb00000000000000000000000000000000" : {
                "balance" : "0x0de0b6b3a7640000",
                "code" : "0x6020600060003773c5691dc90d9fd2a2e9a5fa5bd28bf77ffd60aa783f6000515560016000510160005273c5691dc90d9fd2a2e9a5fa5bd28bf77ffd60aa783b60005155600051546000602073c5691dc90d9fd2a2e9a5fa5bd28bf77ffd60aa783c6001600051016000526020516000515500",
                "nonce" : "0x00",
                "storage" : {
                }
            },
            "0xcccccccc00000000000000000000000000000000" : {
                "balance" : "0x00",
                "code" : "0x6020600060006000600073c5691dc90d9fd2a2e9a5fa5bd28bf77ffd60aa78620249f0f100",
                "nonce" : "0x00",
                "storage" : {
                }
            },
            "0xdddddddd00000000000000000000000000000000" : {
                "balance" : "0x00",
                "code" : "0x73bbbbbbbb00000000000000000000000000000000ff00",
                "nonce" : "0x00",
                "storage" : {
                }
            }
        },
        "postState" : {
            "0xa94f5374fce5edbc8e2a8697c15331677e6ebf0b" : {
                "code" : "0x",
                "nonce" : "0x01",
                "balance" : "0x0de0b6b3a7611d97",
                "storage" : {
                }
            },
            "0x095e7baea6a6c7c4c2dfeb977efac326af552d87" : {
                "code" : "0x6000603d80609460003960006000f560005260005160005560016020526020600060206020600073bbbbbbbb00000000000000000000000000000000620249f0f1506020600060006000600073cccccccc00000000000000000000000000000000620249f0f15060046040526020600060206040600073bbbbbbbb00000000000000000000000000000000620249f0f1500000fe73dddddddd000000000000000000000000000000003b6000526000516000602073dddddddd000000000000000000000000000000003c6000516020f300",
                "nonce" : "0x01",
                "balance" : "0x0de0b6b3a7640001",
                "storage" : {
                    "0x00" : "0xc5691dc90d9fd2a2e9a5fa5bd28bf77ffd60aa78"
                }
            },
            "0xbbbbbbbb00000000000000000000000000000000" : {
                "code" : "0x6020600060003773c5691dc90d9fd2a2e9a5fa5bd28bf77ffd60aa783f6000515560016000510160005273c5691dc90d9fd2a2e9a5fa5bd28bf77ffd60aa783b60005155600051546000602073c5691dc90d9fd2a2e9a5fa5bd28bf77ffd60aa783c6001600051016000526020516000515500",
                "nonce" : "0x00",
                "balance" : "0x0de0b6b3a7640000",
                "storage" : {
                    "0x05" : "0x17",
                    "0x02" : "0x17",
                    "0x04" : "0xbc0e1b58b60bffd44555bf2c703da0fc6e1e3971797e9c5554512d69f45e7a52",
                    "0x01" : "0xbc0e1b58b60bffd44555bf2c703da0fc6e1e3971797e9c5554512d69f45e7a52",
                    "0x03" : "0x73bbbbbbbb00000000000000000000000000000000ff00000000000000000000",
                    "0x06" : "0x73bbbbbbbb00000000000000000000000000000000ff00000000000000000000"
                }
            },
            "0xcccccccc00000000000000000000000000000000" : {
                "code" : "0x6020600060006000600073c5691dc90d9fd2a2e9a5fa5bd28bf77ffd60aa78620249f0f100",
                "nonce" : "0x00",
                "balance" : "0x00",
                "storage" : {
                }
            },
            "0x2adc25665018aa1fe0e6bc666dac8fc2697ff9ba" : {
                "code" : "0x",
                "nonce" : "0x00",
                "balance" : "0x1bc16d674ecae268",
                "storage" : {
                }
            },
            "0xdddddddd00000000000000000000000000000000" : {
                "code" : "0x73bbbbbbbb00000000000000000000000000000000ff00",
                "nonce" : "0x00",
                "balance" : "0x00",
                "storage" : {
                }
            }
        },
        "network" : "Istanbul",
        "sealEngine" : "NoProof",
        "lastblockhash" : "0x9c053c19f3fb14d350dd6796b46adce33486d3058ea31adbb8ceab2b4a35643d",
        "genesisRLP" : "0xf901f8f901f3a00000000000000000000000000000000000000000000000000000000000000000a01dcc4de8dec75d7aab85b567b6ccd41ad312451b948a7413f0a142fd40d49347942adc25665018aa1fe0e6bc666dac8fc2697ff9baa027aae31cd3acfc4fbba59f14045953a9c014b21542a3fb50530de49d154861a8a056e81f171bcc55a6ff8345e692c0f86e5b48e01b996cadc001622fb5e363b421a056e81f171bcc55a6ff8345e692c0f86e5b48e01b996cadc001622fb5e363b421b90100000000000000000000000000000000000000000000000000000000000000000000000000000000000000000000000000000000000000000000000000000000000000000000000000000000000000000000000000000000000000000000000000000000000000000000000000000000000000000000000000000000000000000000000000000000000000000000000000000000000000000000000000000000000000000000000000000000000000000000000000000000000000000000000000000000000000000000000000000000000000000000000000000000000000000000000000000000000000000000000000000000000000000000000000000000008302000080830f4240808000a00000000000000000000000000000000000000000000000000000000000000000880000000000000000c0c0",
        "blocks" : [
            {
                "rlp" : "0xf90260f901f8a04a1cbf02e1c9425534beedeaeb75ca0d4bba5d0f6eab1bee772cba16c4ca3728a01dcc4de8dec75d7aab85b567b6ccd41ad312451b948a7413f0a142fd40d49347942adc25665018aa1fe0e6bc666dac8fc2697ff9baa085e9169a80acef656beaec403ca880173c501367fb1a81f03bde8d3047d1c7efa0f2fde0741a86c3f5b87ccee3cce6faafd15be92989188f40919cb13422672757a0a4e2a31f743f2a7efa8097707f902945e1140987bd3958202ccd74342429c35ab90100000000000000000000000000000000000000000000000000000000000000000000000000000000000000000000000000000000000000000000000000000000000000000000000000000000000000000000000000000000000000000000000000000000000000000000000000000000000000000000000000000000000000000000000000000000000000000000000000000000000000000000000000000000000000000000000000000000000000000000000000000000000000000000000000000000000000000000000000000000000000000000000000000000000000000000000000000000000000000000000000000000000000000000000000000000008302000001830f460f8302e2688203e800a00000000000000000000000000000000000000000000000000000000000000000880000000000000000f862f860800183061a8094095e7baea6a6c7c4c2dfeb977efac326af552d8701801ca0ae29a79903b187c6d075320f9834a330b5134244c7fb0476eba58cd87b175fd6a027a8f85308f5f08f4e2f6b2e23d9dcfd740108f8f96517e50c9e1dc86288a673c0",
                "blockHeader" : {
                    "bloom" : "0x00000000000000000000000000000000000000000000000000000000000000000000000000000000000000000000000000000000000000000000000000000000000000000000000000000000000000000000000000000000000000000000000000000000000000000000000000000000000000000000000000000000000000000000000000000000000000000000000000000000000000000000000000000000000000000000000000000000000000000000000000000000000000000000000000000000000000000000000000000000000000000000000000000000000000000000000000000000000000000000000000000000000000000000000000000000",
                    "coinbase" : "0x2adc25665018aa1fe0e6bc666dac8fc2697ff9ba",
                    "difficulty" : "0x20000",
                    "extraData" : "0x00",
                    "gasLimit" : "0xf460f",
                    "gasUsed" : "0x2e268",
                    "hash" : "0x9c053c19f3fb14d350dd6796b46adce33486d3058ea31adbb8ceab2b4a35643d",
                    "mixHash" : "0x0000000000000000000000000000000000000000000000000000000000000000",
                    "nonce" : "0x0000000000000000",
                    "number" : "0x1",
                    "parentHash" : "0x4a1cbf02e1c9425534beedeaeb75ca0d4bba5d0f6eab1bee772cba16c4ca3728",
                    "receiptTrie" : "0xa4e2a31f743f2a7efa8097707f902945e1140987bd3958202ccd74342429c35a",
                    "stateRoot" : "0x85e9169a80acef656beaec403ca880173c501367fb1a81f03bde8d3047d1c7ef",
                    "timestamp" : "0x3e8",
                    "transactionsTrie" : "0xf2fde0741a86c3f5b87ccee3cce6faafd15be92989188f40919cb13422672757",
                    "uncleHash" : "0x1dcc4de8dec75d7aab85b567b6ccd41ad312451b948a7413f0a142fd40d49347"
                },
                "transactions" : [
                    {
                        "data" : "0x",
                        "gasLimit" : "0x061a80",
                        "gasPrice" : "0x01",
                        "nonce" : "0x00",
                        "to" : "0x095e7baea6a6c7c4c2dfeb977efac326af552d87",
                        "value" : "0x01",
                        "v" : "0x1c",
                        "r" : "0xae29a79903b187c6d075320f9834a330b5134244c7fb0476eba58cd87b175fd6",
                        "s" : "0x27a8f85308f5f08f4e2f6b2e23d9dcfd740108f8f96517e50c9e1dc86288a673"
                    }
                ]
            }
        ]
    }
}