{
    "GasLimitHigherThan2p63m1_Istanbul" : {
        "_info" : {
            "comment" : "",
            "filling-rpc-server" : "Geth-1.9.11-unstable-a382d783-20200127",
            "filling-tool-version" : "retesteth-0.0.2+commit.e8723140.Linux.g++",
            "lllcversion" : "Version: 0.5.14-develop.2019.11.27+commit.8f259595.Linux.g++",
            "source" : "src/BlockchainTestsFiller/InvalidBlocks/bcInvalidHeaderTest/GasLimitHigherThan2p63m1Filler.json",
            "sourceHash" : "fe1983cd931e080c9601c5a021133a0c1299135698d3cfbce4c99f592976c34c"
        },
        "sealEngine" : "NoProof",
        "network" : "Istanbul",
        "pre" : {
            "0xa94f5374fce5edbc8e2a8697c15331677e6ebf0b" : {
                "balance" : "0x4a723dc6b40b8a9a000000",
                "code" : "0x",
                "nonce" : "0x00",
                "storage" : {
                }
            },
            "0xaaaf5374fce5edbc8e2a8697c15331677e6ebf0b" : {
                "balance" : "0x00",
                "code" : "0x73a94f5374fce5edbc8e2a8697c15331677e6ebf0bff",
                "nonce" : "0x00",
                "storage" : {
                }
            }
        },
        "genesisBlockHeader" : {
            "bloom" : "0x00000000000000000000000000000000000000000000000000000000000000000000000000000000000000000000000000000000000000000000000000000000000000000000000000000000000000000000000000000000000000000000000000000000000000000000000000000000000000000000000000000000000000000000000000000000000000000000000000000000000000000000000000000000000000000000000000000000000000000000000000000000000000000000000000000000000000000000000000000000000000000000000000000000000000000000000000000000000000000000000000000000000000000000000000000000",
            "coinbase" : "0x8888f1f195afa192cfee860698584c030f4c9db1",
            "difficulty" : "0x020000",
            "extraData" : "0x42",
            "gasLimit" : "0x7fffffffffffffff",
            "gasUsed" : "0x00",
            "hash" : "0xaaa5a29c5d6e97aec09d08fc701563ba8f750337ff443bd924af58b1900ab010",
            "mixHash" : "0x0000000000000000000000000000000000000000000000000000000000000000",
            "nonce" : "0x0000000000000000",
            "number" : "0x00",
            "parentHash" : "0x0000000000000000000000000000000000000000000000000000000000000000",
            "receiptTrie" : "0x56e81f171bcc55a6ff8345e692c0f86e5b48e01b996cadc001622fb5e363b421",
            "stateRoot" : "0xf167e92b17dc69bf11b1d6e03021c3866d4b624022bed987beaf2bbd0f62c79b",
            "timestamp" : "0x54c98c81",
            "transactionsTrie" : "0x56e81f171bcc55a6ff8345e692c0f86e5b48e01b996cadc001622fb5e363b421",
            "uncleHash" : "0x1dcc4de8dec75d7aab85b567b6ccd41ad312451b948a7413f0a142fd40d49347"
        },
        "genesisRLP" : "0xf90201f901fca00000000000000000000000000000000000000000000000000000000000000000a01dcc4de8dec75d7aab85b567b6ccd41ad312451b948a7413f0a142fd40d49347948888f1f195afa192cfee860698584c030f4c9db1a0f167e92b17dc69bf11b1d6e03021c3866d4b624022bed987beaf2bbd0f62c79ba056e81f171bcc55a6ff8345e692c0f86e5b48e01b996cadc001622fb5e363b421a056e81f171bcc55a6ff8345e692c0f86e5b48e01b996cadc001622fb5e363b421b90100000000000000000000000000000000000000000000000000000000000000000000000000000000000000000000000000000000000000000000000000000000000000000000000000000000000000000000000000000000000000000000000000000000000000000000000000000000000000000000000000000000000000000000000000000000000000000000000000000000000000000000000000000000000000000000000000000000000000000000000000000000000000000000000000000000000000000000000000000000000000000000000000000000000000000000000000000000000000000000000000000000000000000000000000000000008302000080887fffffffffffffff808454c98c8142a00000000000000000000000000000000000000000000000000000000000000000880000000000000000c0c0",
        "blocks" : [
            {
                "chainname" : "default",
                "blocknumber" : "1",
                "expectException" : "InvalidGasLimit",
                "rlp" : "0xf90265f901fea0aaa5a29c5d6e97aec09d08fc701563ba8f750337ff443bd924af58b1900ab010a01dcc4de8dec75d7aab85b567b6ccd41ad312451b948a7413f0a142fd40d49347948888f1f195afa192cfee860698584c030f4c9db1a001698d18db7e3230d04030589f44326a0acb0401d51bffa36028e0b5b692d41aa0dbc1f88867947bb05dfd11571e831749c0412517e5178823f4266c84751eefa0a0642cd2bcdba228efb3996bf53981250d3608289522b80754c4e3c085c93c806fb901000000000000000000000000000000000000000000000000000000000000000000000000000000000000000000000000000000000000000000000000000000000000000000000000000000000000000000000000000000000000000000000000000000000000000000000000000000000000000000000000000000000000000000000000000000000000000000000000000000000000000000000000000000000000000000000000000000000000000000000000000000000000000000000000000000000000000000000000000000000000000000000000000000000000000000000000000000000000000000000000000000000000000000000000000000000083020000018880000000000000008252088454c9906942a00000000000000000000000000000000000000000000000000000000000000000880000000000000000f861f85f800a82520894aaaf5374fce5edbc8e2a8697c15331677e6ebf0b0a801ca0e466f357bdad09fd9846d431318547b679e29a922f37893c6e6419cfa3e9d998a03d254e0054d7fdf7c1f5fcddf9d5e511d111fc3f1001396597672744e5747792c0"
            }
        ],
        "postState" : {
            "0xa94f5374fce5edbc8e2a8697c15331677e6ebf0b" : {
                "code" : "0x",
                "nonce" : "0x00",
                "balance" : "0x4a723dc6b40b8a9a000000",
                "storage" : {
                }
            },
            "0xaaaf5374fce5edbc8e2a8697c15331677e6ebf0b" : {
                "code" : "0x73a94f5374fce5edbc8e2a8697c15331677e6ebf0bff",
                "nonce" : "0x00",
                "balance" : "0x00",
                "storage" : {
                }
            }
        },
        "lastblockhash" : "0xaaa5a29c5d6e97aec09d08fc701563ba8f750337ff443bd924af58b1900ab010"
    }
}