{
    "shl_-1_1_d0g0v0_Istanbul" : {
        "_info" : {
            "comment" : "",
            "filling-rpc-server" : "Geth-1.9.6-unstable-63b18027-20190920",
            "filling-tool-version" : "retesteth-0.0.1+commit.0ae18aef.Linux.g++",
            "lllcversion" : "Version: 0.5.12-develop.2019.9.13+commit.2d601a4f.Linux.g++",
            "source" : "src/GeneralStateTestsFiller/stShift/shl_-1_1Filler.json",
            "sourceHash" : "4551d059620bd80113c50a9cef75fbac49f36caf3c2044ecd4e1dbc97ae1d726"
        },
        "genesisBlockHeader" : {
            "bloom" : "0x00000000000000000000000000000000000000000000000000000000000000000000000000000000000000000000000000000000000000000000000000000000000000000000000000000000000000000000000000000000000000000000000000000000000000000000000000000000000000000000000000000000000000000000000000000000000000000000000000000000000000000000000000000000000000000000000000000000000000000000000000000000000000000000000000000000000000000000000000000000000000000000000000000000000000000000000000000000000000000000000000000000000000000000000000000000",
            "coinbase" : "0x2adc25665018aa1fe0e6bc666dac8fc2697ff9ba",
            "difficulty" : "0x20000",
            "extraData" : "0x00",
            "gasLimit" : "0xf4240",
            "gasUsed" : "0x0",
            "hash" : "0xade3766cdd6a7549e76baac575290ef53d2c4868f60395a1ec1ea1c4d3f245eb",
            "mixHash" : "0x0000000000000000000000000000000000000000000000000000000000000000",
            "nonce" : "0x0000000000000000",
            "number" : "0x0",
            "parentHash" : "0x0000000000000000000000000000000000000000000000000000000000000000",
            "receiptTrie" : "0x56e81f171bcc55a6ff8345e692c0f86e5b48e01b996cadc001622fb5e363b421",
            "stateRoot" : "0x5475169e3925f4b72167daf8350a0b38c0148aaae017bd2972768de3599f4f04",
            "timestamp" : "0x0",
            "transactionsTrie" : "0x56e81f171bcc55a6ff8345e692c0f86e5b48e01b996cadc001622fb5e363b421",
            "uncleHash" : "0x1dcc4de8dec75d7aab85b567b6ccd41ad312451b948a7413f0a142fd40d49347"
        },
        "pre" : {
            "0x095e7baea6a6c7c4c2dfeb977efac326af552d87" : {
                "balance" : "0x0de0b6b3a7640000",
                "code" : "0x7fffffffffffffffffffffffffffffffffffffffffffffffffffffffffffffffff60011b600055",
                "nonce" : "0x00",
                "storage" : {
                    "0x00" : "0x03"
                }
            },
            "0xa94f5374fce5edbc8e2a8697c15331677e6ebf0b" : {
                "balance" : "0x0de0b6b3a7640000",
                "code" : "0x",
                "nonce" : "0x00",
                "storage" : {
                }
            }
        },
        "postState" : {
            "0xa94f5374fce5edbc8e2a8697c15331677e6ebf0b" : {
                "code" : "0x",
                "nonce" : "0x01",
                "balance" : "0x0de0b6b3a76213c4",
                "storage" : {
                }
            },
            "0x095e7baea6a6c7c4c2dfeb977efac326af552d87" : {
                "code" : "0x7fffffffffffffffffffffffffffffffffffffffffffffffffffffffffffffffff60011b600055",
                "nonce" : "0x00",
                "balance" : "0x0de0b6b3a76586a0",
                "storage" : {
                    "0x00" : "0xfffffffffffffffffffffffffffffffffffffffffffffffffffffffffffffffe"
                }
            },
            "0x2adc25665018aa1fe0e6bc666dac8fc2697ff9ba" : {
                "code" : "0x",
                "nonce" : "0x00",
                "balance" : "0x1bc16d674ec8659c",
                "storage" : {
                }
            }
        },
        "network" : "Istanbul",
        "sealEngine" : "NoProof",
        "lastblockhash" : "0x5e19e97023dbc0d361d5dbde0836eb3c9340a0171fa5841de4b2747a6fba84ad",
        "genesisRLP" : "0xf901f8f901f3a00000000000000000000000000000000000000000000000000000000000000000a01dcc4de8dec75d7aab85b567b6ccd41ad312451b948a7413f0a142fd40d49347942adc25665018aa1fe0e6bc666dac8fc2697ff9baa05475169e3925f4b72167daf8350a0b38c0148aaae017bd2972768de3599f4f04a056e81f171bcc55a6ff8345e692c0f86e5b48e01b996cadc001622fb5e363b421a056e81f171bcc55a6ff8345e692c0f86e5b48e01b996cadc001622fb5e363b421b90100000000000000000000000000000000000000000000000000000000000000000000000000000000000000000000000000000000000000000000000000000000000000000000000000000000000000000000000000000000000000000000000000000000000000000000000000000000000000000000000000000000000000000000000000000000000000000000000000000000000000000000000000000000000000000000000000000000000000000000000000000000000000000000000000000000000000000000000000000000000000000000000000000000000000000000000000000000000000000000000000000000000000000000000000000000008302000080830f4240808000a00000000000000000000000000000000000000000000000000000000000000000880000000000000000c0c0",
        "blocks" : [
            {
                "rlp" : "0xf90262f901f7a0ade3766cdd6a7549e76baac575290ef53d2c4868f60395a1ec1ea1c4d3f245eba01dcc4de8dec75d7aab85b567b6ccd41ad312451b948a7413f0a142fd40d49347942adc25665018aa1fe0e6bc666dac8fc2697ff9baa0e9e44970c826047a9f5d91861755a2ef39c68efefe13b383e7951e210ffeca1da093ca2a18d52e7c1846f7b104e2fc1e5fdc71ebe38187248f9437d39e74f43aaba0f5a4cad211681b78d25e6fde8dea45961dd1d222a43e4d75e3b7733e50889203b90100000000000000000000000000000000000000000000000000000000000000000000000000000000000000000000000000000000000000000000000000000000000000000000000000000000000000000000000000000000000000000000000000000000000000000000000000000000000000000000000000000000000000000000000000000000000000000000000000000000000000000000000000000000000000000000000000000000000000000000000000000000000000000000000000000000000000000000000000000000000000000000000000000000000000000000000000000000000000000000000000000000000000000000000000000000008302000001830f460f82659c8203e800a00000000000000000000000000000000000000000000000000000000000000000880000000000000000f865f863800183061a8094095e7baea6a6c7c4c2dfeb977efac326af552d87830186a0801ca0e94818d1f3b0c69eb37720145a5ead7fbf6f8d80139dd53953b4a782301050a3a01fcf46908c01576715411be0857e30027d6be3250a3653f049b3ff8d74d2540cc0",
                "blockHeader" : {
                    "bloom" : "0x00000000000000000000000000000000000000000000000000000000000000000000000000000000000000000000000000000000000000000000000000000000000000000000000000000000000000000000000000000000000000000000000000000000000000000000000000000000000000000000000000000000000000000000000000000000000000000000000000000000000000000000000000000000000000000000000000000000000000000000000000000000000000000000000000000000000000000000000000000000000000000000000000000000000000000000000000000000000000000000000000000000000000000000000000000000",
                    "coinbase" : "0x2adc25665018aa1fe0e6bc666dac8fc2697ff9ba",
                    "difficulty" : "0x20000",
                    "extraData" : "0x00",
                    "gasLimit" : "0xf460f",
                    "gasUsed" : "0x659c",
                    "hash" : "0x5e19e97023dbc0d361d5dbde0836eb3c9340a0171fa5841de4b2747a6fba84ad",
                    "mixHash" : "0x0000000000000000000000000000000000000000000000000000000000000000",
                    "nonce" : "0x0000000000000000",
                    "number" : "0x1",
                    "parentHash" : "0xade3766cdd6a7549e76baac575290ef53d2c4868f60395a1ec1ea1c4d3f245eb",
                    "receiptTrie" : "0xf5a4cad211681b78d25e6fde8dea45961dd1d222a43e4d75e3b7733e50889203",
                    "stateRoot" : "0xe9e44970c826047a9f5d91861755a2ef39c68efefe13b383e7951e210ffeca1d",
                    "timestamp" : "0x3e8",
                    "transactionsTrie" : "0x93ca2a18d52e7c1846f7b104e2fc1e5fdc71ebe38187248f9437d39e74f43aab",
                    "uncleHash" : "0x1dcc4de8dec75d7aab85b567b6ccd41ad312451b948a7413f0a142fd40d49347"
                },
                "transactions" : [
                    {
                        "data" : "0x",
                        "gasLimit" : "0x061a80",
                        "gasPrice" : "0x01",
                        "nonce" : "0x00",
                        "to" : "0x095e7baea6a6c7c4c2dfeb977efac326af552d87",
                        "value" : "0x0186a0",
                        "v" : "0x1c",
                        "r" : "0xe94818d1f3b0c69eb37720145a5ead7fbf6f8d80139dd53953b4a782301050a3",
                        "s" : "0x1fcf46908c01576715411be0857e30027d6be3250a3653f049b3ff8d74d2540c"
                    }
                ]
            }
        ]
    }
}