{
    "createNameRegistratorPerTxsAfter_d0g0v0_Istanbul" : {
        "_info" : {
            "comment" : "",
            "filling-rpc-server" : "Geth-1.9.6-unstable-63b18027-20190920",
            "filling-tool-version" : "retesteth-0.0.1+commit.0ae18aef.Linux.g++",
            "lllcversion" : "Version: 0.5.12-develop.2019.9.13+commit.2d601a4f.Linux.g++",
            "source" : "src/GeneralStateTestsFiller/stTransitionTest/createNameRegistratorPerTxsAfterFiller.json",
            "sourceHash" : "ba2e97f357fcffab967dd07e503b4c56a3f61ea6f2fbdf0e0219f543f2429fba"
        },
        "genesisBlockHeader" : {
            "bloom" : "0x00000000000000000000000000000000000000000000000000000000000000000000000000000000000000000000000000000000000000000000000000000000000000000000000000000000000000000000000000000000000000000000000000000000000000000000000000000000000000000000000000000000000000000000000000000000000000000000000000000000000000000000000000000000000000000000000000000000000000000000000000000000000000000000000000000000000000000000000000000000000000000000000000000000000000000000000000000000000000000000000000000000000000000000000000000000",
            "coinbase" : "0x2adc25665018aa1fe0e6bc666dac8fc2697ff9ba",
            "difficulty" : "0x20000",
            "extraData" : "0x00",
            "gasLimit" : "0x2540be400",
            "gasUsed" : "0x0",
            "hash" : "0x1eb728876c7a8e147fcdfc7cc3a6a893cffc6bfec9ab3b52034851f16b2f8337",
            "mixHash" : "0x0000000000000000000000000000000000000000000000000000000000000000",
            "nonce" : "0x0000000000000000",
            "number" : "0x0",
            "parentHash" : "0x0000000000000000000000000000000000000000000000000000000000000000",
            "receiptTrie" : "0x56e81f171bcc55a6ff8345e692c0f86e5b48e01b996cadc001622fb5e363b421",
            "stateRoot" : "0x517f2cdf6adb1a644878c390ffab4e130f1bed4b498ef7ce58c5addd98d61018",
            "timestamp" : "0x0",
            "transactionsTrie" : "0x56e81f171bcc55a6ff8345e692c0f86e5b48e01b996cadc001622fb5e363b421",
            "uncleHash" : "0x1dcc4de8dec75d7aab85b567b6ccd41ad312451b948a7413f0a142fd40d49347"
        },
        "pre" : {
            "0xa94f5374fce5edbc8e2a8697c15331677e6ebf0b" : {
                "balance" : "0x0de0b6b3a7640000",
                "code" : "0x",
                "nonce" : "0x00",
                "storage" : {
                }
            }
        },
        "postState" : {
            "0xa94f5374fce5edbc8e2a8697c15331677e6ebf0b" : {
                "code" : "0x",
                "nonce" : "0x01",
                "balance" : "0x0de0b6b3a7614dc2",
                "storage" : {
                }
            },
            "0x2adc25665018aa1fe0e6bc666dac8fc2697ff9ba" : {
                "code" : "0x",
                "nonce" : "0x00",
                "balance" : "0x1bc16d674ec92b9e",
                "storage" : {
                }
            },
            "0x6295ee1b4f6dd65047762f924ecd367c17eabf8f" : {
                "code" : "0x396000f3006000355415600957005b60",
                "nonce" : "0x01",
                "balance" : "0x0186a0",
                "storage" : {
                    "0x01" : "0x01"
                }
            }
        },
        "network" : "Istanbul",
        "sealEngine" : "NoProof",
        "lastblockhash" : "0x7901adc5b802f78a8e53bc17d04f84a8e179736e38ef4937a7425be11c92047c",
        "genesisRLP" : "0xf901faf901f5a00000000000000000000000000000000000000000000000000000000000000000a01dcc4de8dec75d7aab85b567b6ccd41ad312451b948a7413f0a142fd40d49347942adc25665018aa1fe0e6bc666dac8fc2697ff9baa0517f2cdf6adb1a644878c390ffab4e130f1bed4b498ef7ce58c5addd98d61018a056e81f171bcc55a6ff8345e692c0f86e5b48e01b996cadc001622fb5e363b421a056e81f171bcc55a6ff8345e692c0f86e5b48e01b996cadc001622fb5e363b421b901000000000000000000000000000000000000000000000000000000000000000000000000000000000000000000000000000000000000000000000000000000000000000000000000000000000000000000000000000000000000000000000000000000000000000000000000000000000000000000000000000000000000000000000000000000000000000000000000000000000000000000000000000000000000000000000000000000000000000000000000000000000000000000000000000000000000000000000000000000000000000000000000000000000000000000000000000000000000000000000000000000000000000000000000000000000083020000808502540be400808000a00000000000000000000000000000000000000000000000000000000000000000880000000000000000c0c0",
        "blocks" : [
            {
                "rlp" : "0xf90273f901faa01eb728876c7a8e147fcdfc7cc3a6a893cffc6bfec9ab3b52034851f16b2f8337a01dcc4de8dec75d7aab85b567b6ccd41ad312451b948a7413f0a142fd40d49347942adc25665018aa1fe0e6bc666dac8fc2697ff9baa0d176b1613c8c7b2af6771d3c8e7f75938e6ba6a471d50fbcb4c56ad9ddb437a9a057e145e810fd4e0699f320f49dedc139a87d8567921868842c93b3cd2c432ea5a00d74813d3224f12e995ee730f2071b7a65bfbdc306a080b01cf21d8bf3fb7570b90100000000000000000000000000000000000000000000000000000000000000000000000000000000000000000000000000000000000000000000000000000000000000000000000000000000000000000000000000000000000000000000000000000000000000000000000000000000000000000000000000000000000000000000000000000000000000000000000000000000000000000000000000000000000000000000000000000000000000000000000000000000000000000000000000000000000000000000000000000000000000000000000000000000000000000000000000000000000000000000000000000000000000000000000000000000008302000001850254a0e6f883012b9e8203e800a00000000000000000000000000000000000000000000000000000000000000000880000000000000000f873f87180018301314e80830186a0a26001600155601080600c6000396000f3006000355415600957005b602035600035551ba09389a7ae1b7f964e5a9f59f8ac38ac3ed6e4465e345999c8b36b5ba0845fea57a00e110cde0059ae2a62be4283754c4143deac61954deaa17310c157b9849a42c4c0",
                "blockHeader" : {
                    "bloom" : "0x00000000000000000000000000000000000000000000000000000000000000000000000000000000000000000000000000000000000000000000000000000000000000000000000000000000000000000000000000000000000000000000000000000000000000000000000000000000000000000000000000000000000000000000000000000000000000000000000000000000000000000000000000000000000000000000000000000000000000000000000000000000000000000000000000000000000000000000000000000000000000000000000000000000000000000000000000000000000000000000000000000000000000000000000000000000",
                    "coinbase" : "0x2adc25665018aa1fe0e6bc666dac8fc2697ff9ba",
                    "difficulty" : "0x20000",
                    "extraData" : "0x00",
                    "gasLimit" : "0x254a0e6f8",
                    "gasUsed" : "0x12b9e",
                    "hash" : "0x7901adc5b802f78a8e53bc17d04f84a8e179736e38ef4937a7425be11c92047c",
                    "mixHash" : "0x0000000000000000000000000000000000000000000000000000000000000000",
                    "nonce" : "0x0000000000000000",
                    "number" : "0x1",
                    "parentHash" : "0x1eb728876c7a8e147fcdfc7cc3a6a893cffc6bfec9ab3b52034851f16b2f8337",
                    "receiptTrie" : "0x0d74813d3224f12e995ee730f2071b7a65bfbdc306a080b01cf21d8bf3fb7570",
                    "stateRoot" : "0xd176b1613c8c7b2af6771d3c8e7f75938e6ba6a471d50fbcb4c56ad9ddb437a9",
                    "timestamp" : "0x3e8",
                    "transactionsTrie" : "0x57e145e810fd4e0699f320f49dedc139a87d8567921868842c93b3cd2c432ea5",
                    "uncleHash" : "0x1dcc4de8dec75d7aab85b567b6ccd41ad312451b948a7413f0a142fd40d49347"
                },
                "transactions" : [
                    {
                        "data" : "0x6001600155601080600c6000396000f3006000355415600957005b60203560003555",
                        "gasLimit" : "0x01314e",
                        "gasPrice" : "0x01",
                        "nonce" : "0x00",
                        "to" : "",
                        "value" : "0x0186a0",
                        "v" : "0x1b",
                        "r" : "0x9389a7ae1b7f964e5a9f59f8ac38ac3ed6e4465e345999c8b36b5ba0845fea57",
                        "s" : "0x0e110cde0059ae2a62be4283754c4143deac61954deaa17310c157b9849a42c4"
                    }
                ]
            }
        ]
    }
}