{
    "CallcodeLoseGasOOG_d0g1v0_Istanbul" : {
        "_info" : {
            "comment" : "",
            "filling-rpc-server" : "Geth-1.9.6-unstable-63b18027-20190920",
            "filling-tool-version" : "retesteth-0.0.1+commit.0ae18aef.Linux.g++",
            "lllcversion" : "Version: 0.5.12-develop.2019.9.13+commit.2d601a4f.Linux.g++",
            "source" : "src/GeneralStateTestsFiller/stCallCreateCallCodeTest/CallcodeLoseGasOOGFiller.json",
            "sourceHash" : "202afa75de0bcb2ba4573a3625b4b6c9d79c523ccc21d237a84aec13ef3e3edb"
        },
        "genesisBlockHeader" : {
            "bloom" : "0x00000000000000000000000000000000000000000000000000000000000000000000000000000000000000000000000000000000000000000000000000000000000000000000000000000000000000000000000000000000000000000000000000000000000000000000000000000000000000000000000000000000000000000000000000000000000000000000000000000000000000000000000000000000000000000000000000000000000000000000000000000000000000000000000000000000000000000000000000000000000000000000000000000000000000000000000000000000000000000000000000000000000000000000000000000000",
            "coinbase" : "0xb94f5374fce5edbc8e2a8697c15331677e6ebf0b",
            "difficulty" : "0x20000",
            "extraData" : "0x00",
            "gasLimit" : "0x7fffffffffffffff",
            "gasUsed" : "0x0",
            "hash" : "0xf1433c2e3f28d4fbfda0c24ee80189e5e967c1c741362e4ed8a0d4b943a6bc17",
            "mixHash" : "0x0000000000000000000000000000000000000000000000000000000000000000",
            "nonce" : "0x0000000000000000",
            "number" : "0x0",
            "parentHash" : "0x0000000000000000000000000000000000000000000000000000000000000000",
            "receiptTrie" : "0x56e81f171bcc55a6ff8345e692c0f86e5b48e01b996cadc001622fb5e363b421",
            "stateRoot" : "0xb72c5914559fa67f90daa444c953bc8d4ceda07560307ef0abfabf843164e48d",
            "timestamp" : "0x0",
            "transactionsTrie" : "0x56e81f171bcc55a6ff8345e692c0f86e5b48e01b996cadc001622fb5e363b421",
            "uncleHash" : "0x1dcc4de8dec75d7aab85b567b6ccd41ad312451b948a7413f0a142fd40d49347"
        },
        "pre" : {
            "0xa94f5374fce5edbc8e2a8697c15331677e6ebf0b" : {
                "balance" : "0xffffffffffffffffffffffffffffffff",
                "code" : "0x",
                "nonce" : "0x00",
                "storage" : {
                }
            },
            "0xaaaf5374fce5edbc8e2a8697c15331677e6ebf0b" : {
                "balance" : "0x1b58",
                "code" : "0x",
                "nonce" : "0x00",
                "storage" : {
                }
            },
            "0xbbbf5374fce5edbc8e2a8697c15331677e6ebf0b" : {
                "balance" : "0x0400",
                "code" : "0x6001600054016000556000600060006000600073bbbf5374fce5edbc8e2a8697c15331677e6ebf0b620186a060005402600101f26001556103e86000540260010160025500",
                "nonce" : "0x00",
                "storage" : {
                }
            }
        },
        "postState" : {
            "0xa94f5374fce5edbc8e2a8697c15331677e6ebf0b" : {
                "code" : "0x",
                "nonce" : "0x01",
                "balance" : "0xfffffffffffffffffffffffffffd9d99",
                "storage" : {
                }
            },
            "0xbbbf5374fce5edbc8e2a8697c15331677e6ebf0b" : {
                "code" : "0x6001600054016000556000600060006000600073bbbf5374fce5edbc8e2a8697c15331677e6ebf0b620186a060005402600101f26001556103e86000540260010160025500",
                "nonce" : "0x00",
                "balance" : "0x0400",
                "storage" : {
                }
            },
            "0xaaaf5374fce5edbc8e2a8697c15331677e6ebf0b" : {
                "code" : "0x",
                "nonce" : "0x00",
                "balance" : "0x1b58",
                "storage" : {
                }
            },
            "0xb94f5374fce5edbc8e2a8697c15331677e6ebf0b" : {
                "code" : "0x",
                "nonce" : "0x00",
                "balance" : "0x1bc16d674eca6266",
                "storage" : {
                }
            }
        },
        "network" : "Istanbul",
        "sealEngine" : "NoProof",
        "lastblockhash" : "0x0a6c6aebe9f47cb2b430d8cef9a3531b4dc553884d00b8ab73253d3f7402c954",
        "genesisRLP" : "0xf901fdf901f8a00000000000000000000000000000000000000000000000000000000000000000a01dcc4de8dec75d7aab85b567b6ccd41ad312451b948a7413f0a142fd40d4934794b94f5374fce5edbc8e2a8697c15331677e6ebf0ba0b72c5914559fa67f90daa444c953bc8d4ceda07560307ef0abfabf843164e48da056e81f171bcc55a6ff8345e692c0f86e5b48e01b996cadc001622fb5e363b421a056e81f171bcc55a6ff8345e692c0f86e5b48e01b996cadc001622fb5e363b421b90100000000000000000000000000000000000000000000000000000000000000000000000000000000000000000000000000000000000000000000000000000000000000000000000000000000000000000000000000000000000000000000000000000000000000000000000000000000000000000000000000000000000000000000000000000000000000000000000000000000000000000000000000000000000000000000000000000000000000000000000000000000000000000000000000000000000000000000000000000000000000000000000000000000000000000000000000000000000000000000000000000000000000000000000000000000008302000080887fffffffffffffff808000a00000000000000000000000000000000000000000000000000000000000000000880000000000000000c0c0",
        "blocks" : [
            {
                "rlp" : "0xf90265f901fda0f1433c2e3f28d4fbfda0c24ee80189e5e967c1c741362e4ed8a0d4b943a6bc17a01dcc4de8dec75d7aab85b567b6ccd41ad312451b948a7413f0a142fd40d4934794b94f5374fce5edbc8e2a8697c15331677e6ebf0ba04edba5e1544bf535242466e6f334330daea26470ff65037fa4827e06fbd7e836a0e53e0ef744a21709aa23b0f0a29c81a13fae91036b93c1356e982cfdbe8f90fba0331fa886375d7e2de8d8346ad3a53f6b3e9dea00b25034c213655392db378fe2b90100000000000000000000000000000000000000000000000000000000000000000000000000000000000000000000000000000000000000000000000000000000000000000000000000000000000000000000000000000000000000000000000000000000000000000000000000000000000000000000000000000000000000000000000000000000000000000000000000000000000000000000000000000000000000000000000000000000000000000000000000000000000000000000000000000000000000000000000000000000000000000000000000000000000000000000000000000000000000000000000000000000000000000000000000000000008302000001887fffffffffffffff830262668203e800a00000000000000000000000000000000000000000000000000000000000000000880000000000000000f862f86080018302626694bbbf5374fce5edbc8e2a8697c15331677e6ebf0b0a801ba034d506e7cca6d89bc8eb7d56fa20fab7ef9288c8b35fcff4a5d253fabda7f189a0446175239e7c9e9c1d6e00574779756e003f1111c36bd27f1ceeec7cde7d03cbc0",
                "blockHeader" : {
                    "bloom" : "0x00000000000000000000000000000000000000000000000000000000000000000000000000000000000000000000000000000000000000000000000000000000000000000000000000000000000000000000000000000000000000000000000000000000000000000000000000000000000000000000000000000000000000000000000000000000000000000000000000000000000000000000000000000000000000000000000000000000000000000000000000000000000000000000000000000000000000000000000000000000000000000000000000000000000000000000000000000000000000000000000000000000000000000000000000000000",
                    "coinbase" : "0xb94f5374fce5edbc8e2a8697c15331677e6ebf0b",
                    "difficulty" : "0x20000",
                    "extraData" : "0x00",
                    "gasLimit" : "0x7fffffffffffffff",
                    "gasUsed" : "0x26266",
                    "hash" : "0x0a6c6aebe9f47cb2b430d8cef9a3531b4dc553884d00b8ab73253d3f7402c954",
                    "mixHash" : "0x0000000000000000000000000000000000000000000000000000000000000000",
                    "nonce" : "0x0000000000000000",
                    "number" : "0x1",
                    "parentHash" : "0xf1433c2e3f28d4fbfda0c24ee80189e5e967c1c741362e4ed8a0d4b943a6bc17",
                    "receiptTrie" : "0x331fa886375d7e2de8d8346ad3a53f6b3e9dea00b25034c213655392db378fe2",
                    "stateRoot" : "0x4edba5e1544bf535242466e6f334330daea26470ff65037fa4827e06fbd7e836",
                    "timestamp" : "0x3e8",
                    "transactionsTrie" : "0xe53e0ef744a21709aa23b0f0a29c81a13fae91036b93c1356e982cfdbe8f90fb",
                    "uncleHash" : "0x1dcc4de8dec75d7aab85b567b6ccd41ad312451b948a7413f0a142fd40d49347"
                },
                "transactions" : [
                    {
                        "data" : "0x",
                        "gasLimit" : "0x026266",
                        "gasPrice" : "0x01",
                        "nonce" : "0x00",
                        "to" : "0xbbbf5374fce5edbc8e2a8697c15331677e6ebf0b",
                        "value" : "0x0a",
                        "v" : "0x1b",
                        "r" : "0x34d506e7cca6d89bc8eb7d56fa20fab7ef9288c8b35fcff4a5d253fabda7f189",
                        "s" : "0x446175239e7c9e9c1d6e00574779756e003f1111c36bd27f1ceeec7cde7d03cb"
                    }
                ]
            }
        ]
    },
    "CallcodeLoseGasOOG_d0g0v0_Istanbul" : {
        "_info" : {
            "comment" : "",
            "filling-rpc-server" : "Geth-1.9.6-unstable-63b18027-20190920",
            "filling-tool-version" : "retesteth-0.0.1+commit.0ae18aef.Linux.g++",
            "lllcversion" : "Version: 0.5.12-develop.2019.9.13+commit.2d601a4f.Linux.g++",
            "source" : "src/GeneralStateTestsFiller/stCallCreateCallCodeTest/CallcodeLoseGasOOGFiller.json",
            "sourceHash" : "202afa75de0bcb2ba4573a3625b4b6c9d79c523ccc21d237a84aec13ef3e3edb"
        },
        "genesisBlockHeader" : {
            "bloom" : "0x00000000000000000000000000000000000000000000000000000000000000000000000000000000000000000000000000000000000000000000000000000000000000000000000000000000000000000000000000000000000000000000000000000000000000000000000000000000000000000000000000000000000000000000000000000000000000000000000000000000000000000000000000000000000000000000000000000000000000000000000000000000000000000000000000000000000000000000000000000000000000000000000000000000000000000000000000000000000000000000000000000000000000000000000000000000",
            "coinbase" : "0xb94f5374fce5edbc8e2a8697c15331677e6ebf0b",
            "difficulty" : "0x20000",
            "extraData" : "0x00",
            "gasLimit" : "0x7fffffffffffffff",
            "gasUsed" : "0x0",
            "hash" : "0xf1433c2e3f28d4fbfda0c24ee80189e5e967c1c741362e4ed8a0d4b943a6bc17",
            "mixHash" : "0x0000000000000000000000000000000000000000000000000000000000000000",
            "nonce" : "0x0000000000000000",
            "number" : "0x0",
            "parentHash" : "0x0000000000000000000000000000000000000000000000000000000000000000",
            "receiptTrie" : "0x56e81f171bcc55a6ff8345e692c0f86e5b48e01b996cadc001622fb5e363b421",
            "stateRoot" : "0xb72c5914559fa67f90daa444c953bc8d4ceda07560307ef0abfabf843164e48d",
            "timestamp" : "0x0",
            "transactionsTrie" : "0x56e81f171bcc55a6ff8345e692c0f86e5b48e01b996cadc001622fb5e363b421",
            "uncleHash" : "0x1dcc4de8dec75d7aab85b567b6ccd41ad312451b948a7413f0a142fd40d49347"
        },
        "pre" : {
            "0xa94f5374fce5edbc8e2a8697c15331677e6ebf0b" : {
                "balance" : "0xffffffffffffffffffffffffffffffff",
                "code" : "0x",
                "nonce" : "0x00",
                "storage" : {
                }
            },
            "0xaaaf5374fce5edbc8e2a8697c15331677e6ebf0b" : {
                "balance" : "0x1b58",
                "code" : "0x",
                "nonce" : "0x00",
                "storage" : {
                }
            },
            "0xbbbf5374fce5edbc8e2a8697c15331677e6ebf0b" : {
                "balance" : "0x0400",
                "code" : "0x6001600054016000556000600060006000600073bbbf5374fce5edbc8e2a8697c15331677e6ebf0b620186a060005402600101f26001556103e86000540260010160025500",
                "nonce" : "0x00",
                "storage" : {
                }
            }
        },
        "postState" : {
            "0xa94f5374fce5edbc8e2a8697c15331677e6ebf0b" : {
                "code" : "0x",
                "nonce" : "0x01",
                "balance" : "0xfffffffffffffffffffffffffffd7b8a",
                "storage" : {
                }
            },
            "0xbbbf5374fce5edbc8e2a8697c15331677e6ebf0b" : {
                "code" : "0x6001600054016000556000600060006000600073bbbf5374fce5edbc8e2a8697c15331677e6ebf0b620186a060005402600101f26001556103e86000540260010160025500",
                "nonce" : "0x00",
                "balance" : "0x040a",
                "storage" : {
                    "0x00" : "0x01",
                    "0x02" : "0x03e9"
                }
            },
            "0xaaaf5374fce5edbc8e2a8697c15331677e6ebf0b" : {
                "code" : "0x",
                "nonce" : "0x00",
                "balance" : "0x1b58",
                "storage" : {
                }
            },
            "0xb94f5374fce5edbc8e2a8697c15331677e6ebf0b" : {
                "code" : "0x",
                "nonce" : "0x00",
                "balance" : "0x1bc16d674eca846b",
                "storage" : {
                }
            }
        },
        "network" : "Istanbul",
        "sealEngine" : "NoProof",
        "lastblockhash" : "0x1eec8ae9190e7b892ad97ca2c38e694c73b3866aa480bbc32c1720a21f9c9405",
        "genesisRLP" : "0xf901fdf901f8a00000000000000000000000000000000000000000000000000000000000000000a01dcc4de8dec75d7aab85b567b6ccd41ad312451b948a7413f0a142fd40d4934794b94f5374fce5edbc8e2a8697c15331677e6ebf0ba0b72c5914559fa67f90daa444c953bc8d4ceda07560307ef0abfabf843164e48da056e81f171bcc55a6ff8345e692c0f86e5b48e01b996cadc001622fb5e363b421a056e81f171bcc55a6ff8345e692c0f86e5b48e01b996cadc001622fb5e363b421b90100000000000000000000000000000000000000000000000000000000000000000000000000000000000000000000000000000000000000000000000000000000000000000000000000000000000000000000000000000000000000000000000000000000000000000000000000000000000000000000000000000000000000000000000000000000000000000000000000000000000000000000000000000000000000000000000000000000000000000000000000000000000000000000000000000000000000000000000000000000000000000000000000000000000000000000000000000000000000000000000000000000000000000000000000000000008302000080887fffffffffffffff808000a00000000000000000000000000000000000000000000000000000000000000000880000000000000000c0c0",
        "blocks" : [
            {
                "rlp" : "0xf90265f901fda0f1433c2e3f28d4fbfda0c24ee80189e5e967c1c741362e4ed8a0d4b943a6bc17a01dcc4de8dec75d7aab85b567b6ccd41ad312451b948a7413f0a142fd40d4934794b94f5374fce5edbc8e2a8697c15331677e6ebf0ba0836e44555f29e1b64e79b1b524996ee98fcb5a7d1abd80331ec33650a0715630a0930b96e51a2ecd5435a7297b94143f9d14526ce3aac5667bb06c29b263b34511a08b3666be65d407e996195edf50bc8fe855065a7ef8002ceb66d8f584df70be6db90100000000000000000000000000000000000000000000000000000000000000000000000000000000000000000000000000000000000000000000000000000000000000000000000000000000000000000000000000000000000000000000000000000000000000000000000000000000000000000000000000000000000000000000000000000000000000000000000000000000000000000000000000000000000000000000000000000000000000000000000000000000000000000000000000000000000000000000000000000000000000000000000000000000000000000000000000000000000000000000000000000000000000000000000000000000008302000001887fffffffffffffff8302846b8203e800a00000000000000000000000000000000000000000000000000000000000000000880000000000000000f862f86080018302897694bbbf5374fce5edbc8e2a8697c15331677e6ebf0b0a801ba0cd600f2ae2ff3787336c74911d1d25e053b81ae72dd849703c712558be496f7fa006d28736b0f78feb5c662d1fd09efcda95a090c2df24897cbbecd3c993bbf316c0",
                "blockHeader" : {
                    "bloom" : "0x00000000000000000000000000000000000000000000000000000000000000000000000000000000000000000000000000000000000000000000000000000000000000000000000000000000000000000000000000000000000000000000000000000000000000000000000000000000000000000000000000000000000000000000000000000000000000000000000000000000000000000000000000000000000000000000000000000000000000000000000000000000000000000000000000000000000000000000000000000000000000000000000000000000000000000000000000000000000000000000000000000000000000000000000000000000",
                    "coinbase" : "0xb94f5374fce5edbc8e2a8697c15331677e6ebf0b",
                    "difficulty" : "0x20000",
                    "extraData" : "0x00",
                    "gasLimit" : "0x7fffffffffffffff",
                    "gasUsed" : "0x2846b",
                    "hash" : "0x1eec8ae9190e7b892ad97ca2c38e694c73b3866aa480bbc32c1720a21f9c9405",
                    "mixHash" : "0x0000000000000000000000000000000000000000000000000000000000000000",
                    "nonce" : "0x0000000000000000",
                    "number" : "0x1",
                    "parentHash" : "0xf1433c2e3f28d4fbfda0c24ee80189e5e967c1c741362e4ed8a0d4b943a6bc17",
                    "receiptTrie" : "0x8b3666be65d407e996195edf50bc8fe855065a7ef8002ceb66d8f584df70be6d",
                    "stateRoot" : "0x836e44555f29e1b64e79b1b524996ee98fcb5a7d1abd80331ec33650a0715630",
                    "timestamp" : "0x3e8",
                    "transactionsTrie" : "0x930b96e51a2ecd5435a7297b94143f9d14526ce3aac5667bb06c29b263b34511",
                    "uncleHash" : "0x1dcc4de8dec75d7aab85b567b6ccd41ad312451b948a7413f0a142fd40d49347"
                },
                "transactions" : [
                    {
                        "data" : "0x",
                        "gasLimit" : "0x028976",
                        "gasPrice" : "0x01",
                        "nonce" : "0x00",
                        "to" : "0xbbbf5374fce5edbc8e2a8697c15331677e6ebf0b",
                        "value" : "0x0a",
                        "v" : "0x1b",
                        "r" : "0xcd600f2ae2ff3787336c74911d1d25e053b81ae72dd849703c712558be496f7f",
                        "s" : "0x06d28736b0f78feb5c662d1fd09efcda95a090c2df24897cbbecd3c993bbf316"
                    }
                ]
            }
        ]
    }
}