{
    "callWithHighValueOOGinCall_d0g0v0_Istanbul" : {
        "_info" : {
            "comment" : "",
            "filling-rpc-server" : "Geth-1.9.6-unstable-63b18027-20190920",
            "filling-tool-version" : "retesteth-0.0.1+commit.0ae18aef.Linux.g++",
            "lllcversion" : "Version: 0.5.12-develop.2019.9.13+commit.2d601a4f.Linux.g++",
            "source" : "src/GeneralStateTestsFiller/stCallCreateCallCodeTest/callWithHighValueOOGinCallFiller.json",
            "sourceHash" : "ef812c32cf2d2470bc11a64e285e3dea088398270037a21c353a093c6d44aa70"
        },
        "genesisBlockHeader" : {
            "bloom" : "0x00000000000000000000000000000000000000000000000000000000000000000000000000000000000000000000000000000000000000000000000000000000000000000000000000000000000000000000000000000000000000000000000000000000000000000000000000000000000000000000000000000000000000000000000000000000000000000000000000000000000000000000000000000000000000000000000000000000000000000000000000000000000000000000000000000000000000000000000000000000000000000000000000000000000000000000000000000000000000000000000000000000000000000000000000000000",
            "coinbase" : "0x2adc25665018aa1fe0e6bc666dac8fc2697ff9ba",
            "difficulty" : "0x20000",
            "extraData" : "0x00",
            "gasLimit" : "0x1c9c380",
            "gasUsed" : "0x0",
            "hash" : "0xc65275120a2b7cacae2d7307828e5d5827db0436146eb8b2aa23066a0fe421d4",
            "mixHash" : "0x0000000000000000000000000000000000000000000000000000000000000000",
            "nonce" : "0x0000000000000000",
            "number" : "0x0",
            "parentHash" : "0x0000000000000000000000000000000000000000000000000000000000000000",
            "receiptTrie" : "0x56e81f171bcc55a6ff8345e692c0f86e5b48e01b996cadc001622fb5e363b421",
            "stateRoot" : "0x57e4723599c93c12e6ed41265af483167aad11f87a81e2cffd181efd08482dac",
            "timestamp" : "0x0",
            "transactionsTrie" : "0x56e81f171bcc55a6ff8345e692c0f86e5b48e01b996cadc001622fb5e363b421",
            "uncleHash" : "0x1dcc4de8dec75d7aab85b567b6ccd41ad312451b948a7413f0a142fd40d49347"
        },
        "pre" : {
            "0x095e7baea6a6c7c4c2dfeb977efac326af552d87" : {
                "balance" : "0x0186a0",
                "code" : "0x60016000600060006000601773945304eb96065b2a98b57a48a06ae28d285a71b5612710f10160005500",
                "nonce" : "0x00",
                "storage" : {
                }
            },
            "0x945304eb96065b2a98b57a48a06ae28d285a71b5" : {
                "balance" : "0x17",
                "code" : "0x6001600155603760005360026000f3",
                "nonce" : "0x00",
                "storage" : {
                }
            },
            "0xa94f5374fce5edbc8e2a8697c15331677e6ebf0b" : {
                "balance" : "0x0de0b6b3a7640000",
                "code" : "0x",
                "nonce" : "0x00",
                "storage" : {
                }
            }
        },
        "postState" : {
            "0xa94f5374fce5edbc8e2a8697c15331677e6ebf0b" : {
                "code" : "0x",
                "nonce" : "0x01",
                "balance" : "0x0de0b6b3a76312c6",
                "storage" : {
                }
            },
            "0x095e7baea6a6c7c4c2dfeb977efac326af552d87" : {
                "code" : "0x60016000600060006000601773945304eb96065b2a98b57a48a06ae28d285a71b5612710f10160005500",
                "nonce" : "0x00",
                "balance" : "0x0186a0",
                "storage" : {
                    "0x00" : "0x01"
                }
            },
            "0x2adc25665018aa1fe0e6bc666dac8fc2697ff9ba" : {
                "code" : "0x",
                "nonce" : "0x00",
                "balance" : "0x1bc16d674ec8ed3a",
                "storage" : {
                }
            },
            "0x945304eb96065b2a98b57a48a06ae28d285a71b5" : {
                "code" : "0x6001600155603760005360026000f3",
                "nonce" : "0x00",
                "balance" : "0x17",
                "storage" : {
                }
            }
        },
        "network" : "Istanbul",
        "sealEngine" : "NoProof",
        "lastblockhash" : "0xc4e8d80b50ec4c6d76022f7ed35a65179edccefc615dd5a0c4fe4d06df6588c6",
        "genesisRLP" : "0xf901f9f901f4a00000000000000000000000000000000000000000000000000000000000000000a01dcc4de8dec75d7aab85b567b6ccd41ad312451b948a7413f0a142fd40d49347942adc25665018aa1fe0e6bc666dac8fc2697ff9baa057e4723599c93c12e6ed41265af483167aad11f87a81e2cffd181efd08482daca056e81f171bcc55a6ff8345e692c0f86e5b48e01b996cadc001622fb5e363b421a056e81f171bcc55a6ff8345e692c0f86e5b48e01b996cadc001622fb5e363b421b901000000000000000000000000000000000000000000000000000000000000000000000000000000000000000000000000000000000000000000000000000000000000000000000000000000000000000000000000000000000000000000000000000000000000000000000000000000000000000000000000000000000000000000000000000000000000000000000000000000000000000000000000000000000000000000000000000000000000000000000000000000000000000000000000000000000000000000000000000000000000000000000000000000000000000000000000000000000000000000000000000000000000000000000000000000000083020000808401c9c380808000a00000000000000000000000000000000000000000000000000000000000000000880000000000000000c0c0",
        "blocks" : [
            {
                "rlp" : "0xf90260f901f8a0c65275120a2b7cacae2d7307828e5d5827db0436146eb8b2aa23066a0fe421d4a01dcc4de8dec75d7aab85b567b6ccd41ad312451b948a7413f0a142fd40d49347942adc25665018aa1fe0e6bc666dac8fc2697ff9baa0ffbc7cf0ad7d1570db9c0f03fc0e1d8ccbed4738e37a3ea7d60294a2456b91b2a03c263f26889a2249612b8057a77007a00ad873cbf85ba2aced30b5c7feb1c8c8a0759053c3f84293a88962c54f53cd6de112d1e7709c83de7e2a120ec64174e6acb901000000000000000000000000000000000000000000000000000000000000000000000000000000000000000000000000000000000000000000000000000000000000000000000000000000000000000000000000000000000000000000000000000000000000000000000000000000000000000000000000000000000000000000000000000000000000000000000000000000000000000000000000000000000000000000000000000000000000000000000000000000000000000000000000000000000000000000000000000000000000000000000000000000000000000000000000000000000000000000000000000000000000000000000000000000000083020000018401ca35ef82ed3a8203e800a00000000000000000000000000000000000000000000000000000000000000000880000000000000000f862f8608001832dc6c094095e7baea6a6c7c4c2dfeb977efac326af552d8780801ba0c980cc618a5b9cb1ac487e6f794c548f104b18a5987b531cdf3f90d85b4d1557a05113d252a095f1b8a80121f08956f3af1d2ac155ea11d6ed81e1038166096668c0",
                "blockHeader" : {
                    "bloom" : "0x00000000000000000000000000000000000000000000000000000000000000000000000000000000000000000000000000000000000000000000000000000000000000000000000000000000000000000000000000000000000000000000000000000000000000000000000000000000000000000000000000000000000000000000000000000000000000000000000000000000000000000000000000000000000000000000000000000000000000000000000000000000000000000000000000000000000000000000000000000000000000000000000000000000000000000000000000000000000000000000000000000000000000000000000000000000",
                    "coinbase" : "0x2adc25665018aa1fe0e6bc666dac8fc2697ff9ba",
                    "difficulty" : "0x20000",
                    "extraData" : "0x00",
                    "gasLimit" : "0x1ca35ef",
                    "gasUsed" : "0xed3a",
                    "hash" : "0xc4e8d80b50ec4c6d76022f7ed35a65179edccefc615dd5a0c4fe4d06df6588c6",
                    "mixHash" : "0x0000000000000000000000000000000000000000000000000000000000000000",
                    "nonce" : "0x0000000000000000",
                    "number" : "0x1",
                    "parentHash" : "0xc65275120a2b7cacae2d7307828e5d5827db0436146eb8b2aa23066a0fe421d4",
                    "receiptTrie" : "0x759053c3f84293a88962c54f53cd6de112d1e7709c83de7e2a120ec64174e6ac",
                    "stateRoot" : "0xffbc7cf0ad7d1570db9c0f03fc0e1d8ccbed4738e37a3ea7d60294a2456b91b2",
                    "timestamp" : "0x3e8",
                    "transactionsTrie" : "0x3c263f26889a2249612b8057a77007a00ad873cbf85ba2aced30b5c7feb1c8c8",
                    "uncleHash" : "0x1dcc4de8dec75d7aab85b567b6ccd41ad312451b948a7413f0a142fd40d49347"
                },
                "transactions" : [
                    {
                        "data" : "0x",
                        "gasLimit" : "0x2dc6c0",
                        "gasPrice" : "0x01",
                        "nonce" : "0x00",
                        "to" : "0x095e7baea6a6c7c4c2dfeb977efac326af552d87",
                        "value" : "0x00",
                        "v" : "0x1b",
                        "r" : "0xc980cc618a5b9cb1ac487e6f794c548f104b18a5987b531cdf3f90d85b4d1557",
                        "s" : "0x5113d252a095f1b8a80121f08956f3af1d2ac155ea11d6ed81e1038166096668"
                    }
                ]
            }
        ]
    }
}