{
    "createNameRegistratorPreStore1NotEnoughGas_d0g0v0_Istanbul" : {
        "_info" : {
            "comment" : "",
            "filling-rpc-server" : "Geth-1.9.6-unstable-63b18027-20190920",
            "filling-tool-version" : "retesteth-0.0.1+commit.0ae18aef.Linux.g++",
            "lllcversion" : "Version: 0.5.12-develop.2019.9.13+commit.2d601a4f.Linux.g++",
            "source" : "src/GeneralStateTestsFiller/stCallCreateCallCodeTest/createNameRegistratorPreStore1NotEnoughGasFiller.json",
            "sourceHash" : "3f0834298785cae716b256973ebe6338a6b655a8598c0f2d7d3a85e3d50c4703"
        },
        "genesisBlockHeader" : {
            "bloom" : "0x00000000000000000000000000000000000000000000000000000000000000000000000000000000000000000000000000000000000000000000000000000000000000000000000000000000000000000000000000000000000000000000000000000000000000000000000000000000000000000000000000000000000000000000000000000000000000000000000000000000000000000000000000000000000000000000000000000000000000000000000000000000000000000000000000000000000000000000000000000000000000000000000000000000000000000000000000000000000000000000000000000000000000000000000000000000",
            "coinbase" : "0x2adc25665018aa1fe0e6bc666dac8fc2697ff9ba",
            "difficulty" : "0x20000",
            "extraData" : "0x00",
            "gasLimit" : "0x5f5e100",
            "gasUsed" : "0x0",
            "hash" : "0xea01f479bfddf2ead1ec9a9cdfb7e3ba549aa1395725496b11e9cdef46135f98",
            "mixHash" : "0x0000000000000000000000000000000000000000000000000000000000000000",
            "nonce" : "0x0000000000000000",
            "number" : "0x0",
            "parentHash" : "0x0000000000000000000000000000000000000000000000000000000000000000",
            "receiptTrie" : "0x56e81f171bcc55a6ff8345e692c0f86e5b48e01b996cadc001622fb5e363b421",
            "stateRoot" : "0xab16ceae093e3074185fbd89af9f6aa553b7a4e55ba5c6d89e7411c8ca04504a",
            "timestamp" : "0x0",
            "transactionsTrie" : "0x56e81f171bcc55a6ff8345e692c0f86e5b48e01b996cadc001622fb5e363b421",
            "uncleHash" : "0x1dcc4de8dec75d7aab85b567b6ccd41ad312451b948a7413f0a142fd40d49347"
        },
        "pre" : {
            "0x095e7baea6a6c7c4c2dfeb977efac326af552d87" : {
                "balance" : "0x0de0b6b3a7640000",
                "code" : "0x7f6001600155601080600c6000396000f3006000355415600957005b602035600060005260356020536055602153602260006017f000",
                "nonce" : "0x00",
                "storage" : {
                }
            },
            "0xa94f5374fce5edbc8e2a8697c15331677e6ebf0b" : {
                "balance" : "0x0de0b6b3a7640000",
                "code" : "0x",
                "nonce" : "0x00",
                "storage" : {
                }
            }
        },
        "postState" : {
            "0xa94f5374fce5edbc8e2a8697c15331677e6ebf0b" : {
                "code" : "0x",
                "nonce" : "0x01",
                "balance" : "0x0de0b6b3a7615d29",
                "storage" : {
                }
            },
            "0x095e7baea6a6c7c4c2dfeb977efac326af552d87" : {
                "code" : "0x7f6001600155601080600c6000396000f3006000355415600957005b602035600060005260356020536055602153602260006017f000",
                "nonce" : "0x01",
                "balance" : "0x0de0b6b3a76586a0",
                "storage" : {
                }
            },
            "0x2adc25665018aa1fe0e6bc666dac8fc2697ff9ba" : {
                "code" : "0x",
                "nonce" : "0x00",
                "balance" : "0x1bc16d674ec91c37",
                "storage" : {
                }
            }
        },
        "network" : "Istanbul",
        "sealEngine" : "NoProof",
        "lastblockhash" : "0x1962d7f7f815ea667b30c897d9b2ff77ac3a330e1ced2c02a81b50c64dcd0fa6",
        "genesisRLP" : "0xf901f9f901f4a00000000000000000000000000000000000000000000000000000000000000000a01dcc4de8dec75d7aab85b567b6ccd41ad312451b948a7413f0a142fd40d49347942adc25665018aa1fe0e6bc666dac8fc2697ff9baa0ab16ceae093e3074185fbd89af9f6aa553b7a4e55ba5c6d89e7411c8ca04504aa056e81f171bcc55a6ff8345e692c0f86e5b48e01b996cadc001622fb5e363b421a056e81f171bcc55a6ff8345e692c0f86e5b48e01b996cadc001622fb5e363b421b901000000000000000000000000000000000000000000000000000000000000000000000000000000000000000000000000000000000000000000000000000000000000000000000000000000000000000000000000000000000000000000000000000000000000000000000000000000000000000000000000000000000000000000000000000000000000000000000000000000000000000000000000000000000000000000000000000000000000000000000000000000000000000000000000000000000000000000000000000000000000000000000000000000000000000000000000000000000000000000000000000000000000000000000000000000000083020000808405f5e100808000a00000000000000000000000000000000000000000000000000000000000000000880000000000000000c0c0",
        "blocks" : [
            {
                "rlp" : "0xf90264f901f9a0ea01f479bfddf2ead1ec9a9cdfb7e3ba549aa1395725496b11e9cdef46135f98a01dcc4de8dec75d7aab85b567b6ccd41ad312451b948a7413f0a142fd40d49347942adc25665018aa1fe0e6bc666dac8fc2697ff9baa00511d9d8bec1d82dd5df35bc92e0fe66821394fc76d74ee231c9107ac6836726a09a35ab835ac69cae038675cbd857d1588cf3bc6400652623a05536d372b4377fa0262820f7255ac55c2e4bcbc683131951f28e84ac21928a7750fbc18f854f0be6b901000000000000000000000000000000000000000000000000000000000000000000000000000000000000000000000000000000000000000000000000000000000000000000000000000000000000000000000000000000000000000000000000000000000000000000000000000000000000000000000000000000000000000000000000000000000000000000000000000000000000000000000000000000000000000000000000000000000000000000000000000000000000000000000000000000000000000000000000000000000000000000000000000000000000000000000000000000000000000000000000000000000000000000000000000000000083020000018405f75e7783011c378203e800a00000000000000000000000000000000000000000000000000000000000000000880000000000000000f865f863800183011d6f94095e7baea6a6c7c4c2dfeb977efac326af552d87830186a0801ba0e52a8786c301a23f49aba7106e9c9a71668d21bd67211f76ee996f9faba35655a045ec70d8cede5a1995b23759cc81118ccd1e34b5903ddbc9ee2dfd7064ae06aac0",
                "blockHeader" : {
                    "bloom" : "0x00000000000000000000000000000000000000000000000000000000000000000000000000000000000000000000000000000000000000000000000000000000000000000000000000000000000000000000000000000000000000000000000000000000000000000000000000000000000000000000000000000000000000000000000000000000000000000000000000000000000000000000000000000000000000000000000000000000000000000000000000000000000000000000000000000000000000000000000000000000000000000000000000000000000000000000000000000000000000000000000000000000000000000000000000000000",
                    "coinbase" : "0x2adc25665018aa1fe0e6bc666dac8fc2697ff9ba",
                    "difficulty" : "0x20000",
                    "extraData" : "0x00",
                    "gasLimit" : "0x5f75e77",
                    "gasUsed" : "0x11c37",
                    "hash" : "0x1962d7f7f815ea667b30c897d9b2ff77ac3a330e1ced2c02a81b50c64dcd0fa6",
                    "mixHash" : "0x0000000000000000000000000000000000000000000000000000000000000000",
                    "nonce" : "0x0000000000000000",
                    "number" : "0x1",
                    "parentHash" : "0xea01f479bfddf2ead1ec9a9cdfb7e3ba549aa1395725496b11e9cdef46135f98",
                    "receiptTrie" : "0x262820f7255ac55c2e4bcbc683131951f28e84ac21928a7750fbc18f854f0be6",
                    "stateRoot" : "0x0511d9d8bec1d82dd5df35bc92e0fe66821394fc76d74ee231c9107ac6836726",
                    "timestamp" : "0x3e8",
                    "transactionsTrie" : "0x9a35ab835ac69cae038675cbd857d1588cf3bc6400652623a05536d372b4377f",
                    "uncleHash" : "0x1dcc4de8dec75d7aab85b567b6ccd41ad312451b948a7413f0a142fd40d49347"
                },
                "transactions" : [
                    {
                        "data" : "0x",
                        "gasLimit" : "0x011d6f",
                        "gasPrice" : "0x01",
                        "nonce" : "0x00",
                        "to" : "0x095e7baea6a6c7c4c2dfeb977efac326af552d87",
                        "value" : "0x0186a0",
                        "v" : "0x1b",
                        "r" : "0xe52a8786c301a23f49aba7106e9c9a71668d21bd67211f76ee996f9faba35655",
                        "s" : "0x45ec70d8cede5a1995b23759cc81118ccd1e34b5903ddbc9ee2dfd7064ae06aa"
                    }
                ]
            }
        ]
    }
}