{
    "selfBalanceUpdate_d0g0v0_Istanbul" : {
        "_info" : {
            "comment" : "",
            "filling-rpc-server" : "Geth-1.9.6-unstable-63b18027-20190920",
            "filling-tool-version" : "retesteth-0.0.1+commit.0ae18aef.Linux.g++",
            "lllcversion" : "Version: 0.5.12-develop.2019.9.13+commit.2d601a4f.Linux.g++",
            "source" : "src/GeneralStateTestsFiller/stSelfBalance/selfBalanceUpdateFiller.json",
            "sourceHash" : "928dc9207aa93670f7bb0a06c73b3ea2960ec433bdfa994e69dcf17bbe8b1230"
        },
        "genesisBlockHeader" : {
            "bloom" : "0x00000000000000000000000000000000000000000000000000000000000000000000000000000000000000000000000000000000000000000000000000000000000000000000000000000000000000000000000000000000000000000000000000000000000000000000000000000000000000000000000000000000000000000000000000000000000000000000000000000000000000000000000000000000000000000000000000000000000000000000000000000000000000000000000000000000000000000000000000000000000000000000000000000000000000000000000000000000000000000000000000000000000000000000000000000000",
            "coinbase" : "0x2adc25665018aa1fe0e6bc666dac8fc2697ff9ba",
            "difficulty" : "0x20000",
            "extraData" : "0x00",
            "gasLimit" : "0x2540be400",
            "gasUsed" : "0x0",
            "hash" : "0xe57cf7fc0240ddc6b60cbcf92d2da585e883a02b43102060ed7f38c244cfe619",
            "mixHash" : "0x0000000000000000000000000000000000000000000000000000000000000000",
            "nonce" : "0x0000000000000000",
            "number" : "0x0",
            "parentHash" : "0x0000000000000000000000000000000000000000000000000000000000000000",
            "receiptTrie" : "0x56e81f171bcc55a6ff8345e692c0f86e5b48e01b996cadc001622fb5e363b421",
            "stateRoot" : "0x391fc4f851a6c1b2ca7385ad5e23eacef8de9519839f7d9eb6e8db0ad923d99d",
            "timestamp" : "0x0",
            "transactionsTrie" : "0x56e81f171bcc55a6ff8345e692c0f86e5b48e01b996cadc001622fb5e363b421",
            "uncleHash" : "0x1dcc4de8dec75d7aab85b567b6ccd41ad312451b948a7413f0a142fd40d49347"
        },
        "pre" : {
            "0x1000000000000000000000000000000000000000" : {
                "balance" : "0x01f4",
                "code" : "0x47806001556000600060006000600160006000f1504780600255900360035500",
                "nonce" : "0x00",
                "storage" : {
                }
            },
            "0xa94f5374fce5edbc8e2a8697c15331677e6ebf0b" : {
                "balance" : "0x3635c9adc5dea00000",
                "code" : "0x",
                "nonce" : "0x00",
                "storage" : {
                }
            }
        },
        "postState" : {
            "0xa94f5374fce5edbc8e2a8697c15331677e6ebf0b" : {
                "code" : "0x",
                "nonce" : "0x01",
                "balance" : "0x3635c9adc5de9e44d2",
                "storage" : {
                }
            },
            "0x0000000000000000000000000000000000000000" : {
                "code" : "0x",
                "nonce" : "0x00",
                "balance" : "0x01",
                "storage" : {
                }
            },
            "0x2adc25665018aa1fe0e6bc666dac8fc2697ff9ba" : {
                "code" : "0x",
                "nonce" : "0x00",
                "balance" : "0x1bc16d674ec9bb2e",
                "storage" : {
                }
            },
            "0x1000000000000000000000000000000000000000" : {
                "code" : "0x47806001556000600060006000600160006000f1504780600255900360035500",
                "nonce" : "0x00",
                "balance" : "0x01f3",
                "storage" : {
                    "0x02" : "0x01f3",
                    "0x01" : "0x01f4",
                    "0x03" : "0x01"
                }
            }
        },
        "network" : "Istanbul",
        "sealEngine" : "NoProof",
        "lastblockhash" : "0x34946e6cd8b387336ce82b57383bc394ea7b6f02376aeb0dadf54b50f1f63d4c",
        "genesisRLP" : "0xf901faf901f5a00000000000000000000000000000000000000000000000000000000000000000a01dcc4de8dec75d7aab85b567b6ccd41ad312451b948a7413f0a142fd40d49347942adc25665018aa1fe0e6bc666dac8fc2697ff9baa0391fc4f851a6c1b2ca7385ad5e23eacef8de9519839f7d9eb6e8db0ad923d99da056e81f171bcc55a6ff8345e692c0f86e5b48e01b996cadc001622fb5e363b421a056e81f171bcc55a6ff8345e692c0f86e5b48e01b996cadc001622fb5e363b421b901000000000000000000000000000000000000000000000000000000000000000000000000000000000000000000000000000000000000000000000000000000000000000000000000000000000000000000000000000000000000000000000000000000000000000000000000000000000000000000000000000000000000000000000000000000000000000000000000000000000000000000000000000000000000000000000000000000000000000000000000000000000000000000000000000000000000000000000000000000000000000000000000000000000000000000000000000000000000000000000000000000000000000000000000000000000083020000808502540be400808000a00000000000000000000000000000000000000000000000000000000000000000880000000000000000c0c0",
        "blocks" : [
            {
                "rlp" : "0xf90263f901faa0e57cf7fc0240ddc6b60cbcf92d2da585e883a02b43102060ed7f38c244cfe619a01dcc4de8dec75d7aab85b567b6ccd41ad312451b948a7413f0a142fd40d49347942adc25665018aa1fe0e6bc666dac8fc2697ff9baa0d8c1f67c8953b2e486bdd911dc8fd66426473bb86cbbf45657e97c582f89c5a3a016e5b063445220e09ec13fd1aed3931266d500508f54a9e99ede6f1a1571fe3ea0d2977d714cd53a9388748491a1fb1c9c69947077122c87f776a89eecd2f92352b90100000000000000000000000000000000000000000000000000000000000000000000000000000000000000000000000000000000000000000000000000000000000000000000000000000000000000000000000000000000000000000000000000000000000000000000000000000000000000000000000000000000000000000000000000000000000000000000000000000000000000000000000000000000000000000000000000000000000000000000000000000000000000000000000000000000000000000000000000000000000000000000000000000000000000000000000000000000000000000000000000000000000000000000000000000000008302000001850254a0e6f88301bb2e8203e800a00000000000000000000000000000000000000000000000000000000000000000880000000000000000f863f86180018405f5e10094100000000000000000000000000000000000000080801ba09f8ca9700e6a3b71055abc8dfc192d898370672b4140371b6b471abcb621fc23a06acc85dae9d6c1cb18b37eade48cc511b4611285cd673725d15bb60a53cf871ac0",
                "blockHeader" : {
                    "bloom" : "0x00000000000000000000000000000000000000000000000000000000000000000000000000000000000000000000000000000000000000000000000000000000000000000000000000000000000000000000000000000000000000000000000000000000000000000000000000000000000000000000000000000000000000000000000000000000000000000000000000000000000000000000000000000000000000000000000000000000000000000000000000000000000000000000000000000000000000000000000000000000000000000000000000000000000000000000000000000000000000000000000000000000000000000000000000000000",
                    "coinbase" : "0x2adc25665018aa1fe0e6bc666dac8fc2697ff9ba",
                    "difficulty" : "0x20000",
                    "extraData" : "0x00",
                    "gasLimit" : "0x254a0e6f8",
                    "gasUsed" : "0x1bb2e",
                    "hash" : "0x34946e6cd8b387336ce82b57383bc394ea7b6f02376aeb0dadf54b50f1f63d4c",
                    "mixHash" : "0x0000000000000000000000000000000000000000000000000000000000000000",
                    "nonce" : "0x0000000000000000",
                    "number" : "0x1",
                    "parentHash" : "0xe57cf7fc0240ddc6b60cbcf92d2da585e883a02b43102060ed7f38c244cfe619",
                    "receiptTrie" : "0xd2977d714cd53a9388748491a1fb1c9c69947077122c87f776a89eecd2f92352",
                    "stateRoot" : "0xd8c1f67c8953b2e486bdd911dc8fd66426473bb86cbbf45657e97c582f89c5a3",
                    "timestamp" : "0x3e8",
                    "transactionsTrie" : "0x16e5b063445220e09ec13fd1aed3931266d500508f54a9e99ede6f1a1571fe3e",
                    "uncleHash" : "0x1dcc4de8dec75d7aab85b567b6ccd41ad312451b948a7413f0a142fd40d49347"
                },
                "transactions" : [
                    {
                        "data" : "0x",
                        "gasLimit" : "0x05f5e100",
                        "gasPrice" : "0x01",
                        "nonce" : "0x00",
                        "to" : "0x1000000000000000000000000000000000000000",
                        "value" : "0x00",
                        "v" : "0x1b",
                        "r" : "0x9f8ca9700e6a3b71055abc8dfc192d898370672b4140371b6b471abcb621fc23",
                        "s" : "0x6acc85dae9d6c1cb18b37eade48cc511b4611285cd673725d15bb60a53cf871a"
                    }
                ]
            }
        ]
    }
}