{
    "selfBalanceCallTypes_d0g0v0_Istanbul" : {
        "_info" : {
            "comment" : "SELFBALANCE tests inside CALL, DELEGATECALL, and CALLCODE",
            "filling-rpc-server" : "besu/v1.3.7/osx-x86_64/corretto-java-11",
            "filling-tool-version" : "retesteth-0.0.1+commit.f19c40da.Darwin.appleclang",
            "lllcversion" : "Version: 0.5.12-develop.2019.9.16+commit.2d601a4f.Darwin.appleclang",
            "source" : "src/GeneralStateTestsFiller/stSelfBalance/selfBalanceCallTypesFiller.json",
            "sourceHash" : "2093ce19cc0abdb4b5c1d3b295fff6b756b41eddcb569b592a2e4cc86324ea5d"
        },
        "genesisBlockHeader" : {
            "bloom" : "0x00000000000000000000000000000000000000000000000000000000000000000000000000000000000000000000000000000000000000000000000000000000000000000000000000000000000000000000000000000000000000000000000000000000000000000000000000000000000000000000000000000000000000000000000000000000000000000000000000000000000000000000000000000000000000000000000000000000000000000000000000000000000000000000000000000000000000000000000000000000000000000000000000000000000000000000000000000000000000000000000000000000000000000000000000000000",
            "coinbase" : "0x2adc25665018aa1fe0e6bc666dac8fc2697ff9ba",
            "difficulty" : "0x20000",
            "extraData" : "0x00",
            "gasLimit" : "0x2540be400",
            "gasUsed" : "0x0",
            "hash" : "0x299b26035962d7c4fad54c4c0c25f3740f0713122935f4dce7572c64f9d22552",
            "mixHash" : "0x0000000000000000000000000000000000000000000000000000000000000000",
            "nonce" : "0x0000000000000000",
            "number" : "0x0",
            "parentHash" : "0x0000000000000000000000000000000000000000000000000000000000000000",
            "receiptTrie" : "0x56e81f171bcc55a6ff8345e692c0f86e5b48e01b996cadc001622fb5e363b421",
            "stateRoot" : "0xda6f652faa3533e8bfa79ff1b0afd3238bbb07d48b104f38a63029295a0fc858",
            "timestamp" : "0x0",
            "transactionsTrie" : "0x56e81f171bcc55a6ff8345e692c0f86e5b48e01b996cadc001622fb5e363b421",
            "uncleHash" : "0x1dcc4de8dec75d7aab85b567b6ccd41ad312451b948a7413f0a142fd40d49347"
        },
        "pre" : {
            "0x1100000000000000000000000000000000000000" : {
                "balance" : "0x1000",
                "code" : "0x3031471460115500",
                "nonce" : "0x00",
                "storage" : {
                }
            },
            "0x1200000000000000000000000000000000000000" : {
                "balance" : "0x1100",
                "code" : "0x4760215500",
                "nonce" : "0x00",
                "storage" : {
                }
            },
            "0x1300000000000000000000000000000000000000" : {
                "balance" : "0x1200",
                "code" : "0x5a475a905090036002900360315500",
                "nonce" : "0x00",
                "storage" : {
                }
            },
            "0x1400000000000000000000000000000000000000" : {
                "balance" : "0x1300",
                "code" : "0x47806041556000600060006000600160006000f1504780604255900360435500",
                "nonce" : "0x00",
                "storage" : {
                }
            },
            "0x2000000000000000000000000000000000000000" : {
                "balance" : "0x2000",
                "code" : "0x60006080525b608051541560755760003560011415602c57600060006000600060006080515460155a03f1505b6000356002141560495760006000600060006080515460155a03f4505b60003560031415606857600060006000600060006080515460155a03f2505b6001608051016080526005565b00",
                "nonce" : "0x00",
                "storage" : {
                    "0x00" : "0x1100000000000000000000000000000000000000",
                    "0x01" : "0x1200000000000000000000000000000000000000",
                    "0x02" : "0x1300000000000000000000000000000000000000",
                    "0x03" : "0x1400000000000000000000000000000000000000"
                }
            },
            "0xa94f5374fce5edbc8e2a8697c15331677e6ebf0b" : {
                "balance" : "0x3635c9adc5dea00000",
                "code" : "0x",
                "nonce" : "0x00",
                "storage" : {
                }
            }
        },
        "postState" : {
            "0xa94f5374fce5edbc8e2a8697c15331677e6ebf0b" : {
                "code" : "0x",
                "nonce" : "0x01",
                "balance" : "0x3635c9adc5de9d2d0d",
                "storage" : {
                }
            },
            "0x1300000000000000000000000000000000000000" : {
                "code" : "0x5a475a905090036002900360315500",
                "nonce" : "0x00",
                "balance" : "0x1200",
                "storage" : {
                    "0x31" : "0x05"
                }
            },
            "0x1100000000000000000000000000000000000000" : {
                "code" : "0x3031471460115500",
                "nonce" : "0x00",
                "balance" : "0x1000",
                "storage" : {
                    "0x11" : "0x01"
                }
            },
            "0x0000000000000000000000000000000000000000" : {
                "code" : "0x",
                "nonce" : "0x00",
                "balance" : "0x01",
                "storage" : {
                }
            },
            "0x1400000000000000000000000000000000000000" : {
                "code" : "0x47806041556000600060006000600160006000f1504780604255900360435500",
                "nonce" : "0x00",
                "balance" : "0x12ff",
                "storage" : {
                    "0x42" : "0x12ff",
                    "0x41" : "0x1300",
                    "0x43" : "0x01"
                }
            },
            "0x2000000000000000000000000000000000000000" : {
                "code" : "0x60006080525b608051541560755760003560011415602c57600060006000600060006080515460155a03f1505b6000356002141560495760006000600060006080515460155a03f4505b60003560031415606857600060006000600060006080515460155a03f2505b6001608051016080526005565b00",
                "nonce" : "0x00",
                "balance" : "0x2000",
                "storage" : {
                    "0x00" : "0x1100000000000000000000000000000000000000",
                    "0x02" : "0x1300000000000000000000000000000000000000",
                    "0x01" : "0x1200000000000000000000000000000000000000",
                    "0x03" : "0x1400000000000000000000000000000000000000"
                }
            },
            "0x2adc25665018aa1fe0e6bc666dac8fc2697ff9ba" : {
                "code" : "0x",
                "nonce" : "0x00",
                "balance" : "0x1bc16d674ecad2f3",
                "storage" : {
                }
            },
            "0x1200000000000000000000000000000000000000" : {
                "code" : "0x4760215500",
                "nonce" : "0x00",
                "balance" : "0x1100",
                "storage" : {
                    "0x21" : "0x1100"
                }
            }
        },
        "network" : "Istanbul",
        "sealEngine" : "NoProof",
        "lastblockhash" : "0x2e7d1f896ab80e52d013accd4c55ce3dab5387dd666f64e39125e25fb5c43ee3",
        "genesisRLP" : "0xf901faf901f5a00000000000000000000000000000000000000000000000000000000000000000a01dcc4de8dec75d7aab85b567b6ccd41ad312451b948a7413f0a142fd40d49347942adc25665018aa1fe0e6bc666dac8fc2697ff9baa0da6f652faa3533e8bfa79ff1b0afd3238bbb07d48b104f38a63029295a0fc858a056e81f171bcc55a6ff8345e692c0f86e5b48e01b996cadc001622fb5e363b421a056e81f171bcc55a6ff8345e692c0f86e5b48e01b996cadc001622fb5e363b421b901000000000000000000000000000000000000000000000000000000000000000000000000000000000000000000000000000000000000000000000000000000000000000000000000000000000000000000000000000000000000000000000000000000000000000000000000000000000000000000000000000000000000000000000000000000000000000000000000000000000000000000000000000000000000000000000000000000000000000000000000000000000000000000000000000000000000000000000000000000000000000000000000000000000000000000000000000000000000000000000000000000000000000000000000000000000083020000808502540be400808000a00000000000000000000000000000000000000000000000000000000000000000880000000000000000c0c0",
        "blocks" : [
            {
                "rlp" : "0xf90282f901faa0299b26035962d7c4fad54c4c0c25f3740f0713122935f4dce7572c64f9d22552a01dcc4de8dec75d7aab85b567b6ccd41ad312451b948a7413f0a142fd40d49347942adc25665018aa1fe0e6bc666dac8fc2697ff9baa004025d81bf3a13f8d895edf6d72ece05211ebc307da763af62d6abb0d8aa6354a06b49aed65a6464e1aa57b9fd86c287dba681b78f7e9d76d5bb7a2afffb404876a0488b867a012506c0a4fb877d8c9a64e1fb5132a33b41295796615eef3e138e8fb901000000000000000000000000000000000000000000000000000000000000000000000000000000000000000000000000000000000000000000000000000000000000000000000000000000000000000000000000000000000000000000000000000000000000000000000000000000000000000000000000000000000000000000000000000000000000000000000000000000000000000000000000000000000000000000000000000000000000000000000000000000000000000000000000000000000000000000000000000000000000000000000000000000000000000000000000000000000000000000000000000000000000000000000000000000000083020000018502540be4008302d2f38203e880a00000000000000000000000000000000000000000000000000000000000000000880000000000000000f882f8808001830f424094200000000000000000000000000000000000000080a000000000000000000000000000000000000000000000000000000000000000011ba0fb697fdfcfbf956565e6addd59f3bc074de660be78685ac1faf066ed83d5b714a05363aa787c8c33213414b0b3786070646c8f4844f835c73120bfee5540340cc3c0",
                "blockHeader" : {
                    "bloom" : "0x00000000000000000000000000000000000000000000000000000000000000000000000000000000000000000000000000000000000000000000000000000000000000000000000000000000000000000000000000000000000000000000000000000000000000000000000000000000000000000000000000000000000000000000000000000000000000000000000000000000000000000000000000000000000000000000000000000000000000000000000000000000000000000000000000000000000000000000000000000000000000000000000000000000000000000000000000000000000000000000000000000000000000000000000000000000",
                    "coinbase" : "0x2adc25665018aa1fe0e6bc666dac8fc2697ff9ba",
                    "difficulty" : "0x20000",
                    "extraData" : "0x",
                    "gasLimit" : "0x2540be400",
                    "gasUsed" : "0x2d2f3",
                    "hash" : "0x2e7d1f896ab80e52d013accd4c55ce3dab5387dd666f64e39125e25fb5c43ee3",
                    "mixHash" : "0x0000000000000000000000000000000000000000000000000000000000000000",
                    "nonce" : "0x0000000000000000",
                    "number" : "0x1",
                    "parentHash" : "0x299b26035962d7c4fad54c4c0c25f3740f0713122935f4dce7572c64f9d22552",
                    "receiptTrie" : "0x488b867a012506c0a4fb877d8c9a64e1fb5132a33b41295796615eef3e138e8f",
                    "stateRoot" : "0x04025d81bf3a13f8d895edf6d72ece05211ebc307da763af62d6abb0d8aa6354",
                    "timestamp" : "0x3e8",
                    "transactionsTrie" : "0x6b49aed65a6464e1aa57b9fd86c287dba681b78f7e9d76d5bb7a2afffb404876",
                    "uncleHash" : "0x1dcc4de8dec75d7aab85b567b6ccd41ad312451b948a7413f0a142fd40d49347"
                },
                "transactions" : [
                    {
                        "data" : "0x0000000000000000000000000000000000000000000000000000000000000001",
                        "gasLimit" : "0x0f4240",
                        "gasPrice" : "0x01",
                        "nonce" : "0x00",
                        "to" : "0x2000000000000000000000000000000000000000",
                        "value" : "0x00",
                        "v" : "0x1b",
                        "r" : "0xfb697fdfcfbf956565e6addd59f3bc074de660be78685ac1faf066ed83d5b714",
                        "s" : "0x5363aa787c8c33213414b0b3786070646c8f4844f835c73120bfee5540340cc3"
                    }
                ]
            }
        ]
    },
    "selfBalanceCallTypes_d1g0v0_Istanbul" : {
        "_info" : {
            "comment" : "SELFBALANCE tests inside CALL, DELEGATECALL, and CALLCODE",
            "filling-rpc-server" : "besu/v1.3.7/osx-x86_64/corretto-java-11",
            "filling-tool-version" : "retesteth-0.0.1+commit.f19c40da.Darwin.appleclang",
            "lllcversion" : "Version: 0.5.12-develop.2019.9.16+commit.2d601a4f.Darwin.appleclang",
            "source" : "src/GeneralStateTestsFiller/stSelfBalance/selfBalanceCallTypesFiller.json",
            "sourceHash" : "2093ce19cc0abdb4b5c1d3b295fff6b756b41eddcb569b592a2e4cc86324ea5d"
        },
        "genesisBlockHeader" : {
            "bloom" : "0x00000000000000000000000000000000000000000000000000000000000000000000000000000000000000000000000000000000000000000000000000000000000000000000000000000000000000000000000000000000000000000000000000000000000000000000000000000000000000000000000000000000000000000000000000000000000000000000000000000000000000000000000000000000000000000000000000000000000000000000000000000000000000000000000000000000000000000000000000000000000000000000000000000000000000000000000000000000000000000000000000000000000000000000000000000000",
            "coinbase" : "0x2adc25665018aa1fe0e6bc666dac8fc2697ff9ba",
            "difficulty" : "0x20000",
            "extraData" : "0x00",
            "gasLimit" : "0x2540be400",
            "gasUsed" : "0x0",
            "hash" : "0x299b26035962d7c4fad54c4c0c25f3740f0713122935f4dce7572c64f9d22552",
            "mixHash" : "0x0000000000000000000000000000000000000000000000000000000000000000",
            "nonce" : "0x0000000000000000",
            "number" : "0x0",
            "parentHash" : "0x0000000000000000000000000000000000000000000000000000000000000000",
            "receiptTrie" : "0x56e81f171bcc55a6ff8345e692c0f86e5b48e01b996cadc001622fb5e363b421",
            "stateRoot" : "0xda6f652faa3533e8bfa79ff1b0afd3238bbb07d48b104f38a63029295a0fc858",
            "timestamp" : "0x0",
            "transactionsTrie" : "0x56e81f171bcc55a6ff8345e692c0f86e5b48e01b996cadc001622fb5e363b421",
            "uncleHash" : "0x1dcc4de8dec75d7aab85b567b6ccd41ad312451b948a7413f0a142fd40d49347"
        },
        "pre" : {
            "0x1100000000000000000000000000000000000000" : {
                "balance" : "0x1000",
                "code" : "0x3031471460115500",
                "nonce" : "0x00",
                "storage" : {
                }
            },
            "0x1200000000000000000000000000000000000000" : {
                "balance" : "0x1100",
                "code" : "0x4760215500",
                "nonce" : "0x00",
                "storage" : {
                }
            },
            "0x1300000000000000000000000000000000000000" : {
                "balance" : "0x1200",
                "code" : "0x5a475a905090036002900360315500",
                "nonce" : "0x00",
                "storage" : {
                }
            },
            "0x1400000000000000000000000000000000000000" : {
                "balance" : "0x1300",
                "code" : "0x47806041556000600060006000600160006000f1504780604255900360435500",
                "nonce" : "0x00",
                "storage" : {
                }
            },
            "0x2000000000000000000000000000000000000000" : {
                "balance" : "0x2000",
                "code" : "0x60006080525b608051541560755760003560011415602c57600060006000600060006080515460155a03f1505b6000356002141560495760006000600060006080515460155a03f4505b60003560031415606857600060006000600060006080515460155a03f2505b6001608051016080526005565b00",
                "nonce" : "0x00",
                "storage" : {
                    "0x00" : "0x1100000000000000000000000000000000000000",
                    "0x01" : "0x1200000000000000000000000000000000000000",
                    "0x02" : "0x1300000000000000000000000000000000000000",
                    "0x03" : "0x1400000000000000000000000000000000000000"
                }
            },
            "0xa94f5374fce5edbc8e2a8697c15331677e6ebf0b" : {
                "balance" : "0x3635c9adc5dea00000",
                "code" : "0x",
                "nonce" : "0x00",
                "storage" : {
                }
            }
        },
        "postState" : {
            "0xa94f5374fce5edbc8e2a8697c15331677e6ebf0b" : {
                "code" : "0x",
                "nonce" : "0x01",
                "balance" : "0x3635c9adc5de9d2d19",
                "storage" : {
                }
            },
            "0x1300000000000000000000000000000000000000" : {
                "code" : "0x5a475a905090036002900360315500",
                "nonce" : "0x00",
                "balance" : "0x1200",
                "storage" : {
                }
            },
            "0x1100000000000000000000000000000000000000" : {
                "code" : "0x3031471460115500",
                "nonce" : "0x00",
                "balance" : "0x1000",
                "storage" : {
                }
            },
            "0x0000000000000000000000000000000000000000" : {
                "code" : "0x",
                "nonce" : "0x00",
                "balance" : "0x01",
                "storage" : {
                }
            },
            "0x1400000000000000000000000000000000000000" : {
                "code" : "0x47806041556000600060006000600160006000f1504780604255900360435500",
                "nonce" : "0x00",
                "balance" : "0x1300",
                "storage" : {
                }
            },
            "0x2000000000000000000000000000000000000000" : {
                "code" : "0x60006080525b608051541560755760003560011415602c57600060006000600060006080515460155a03f1505b6000356002141560495760006000600060006080515460155a03f4505b60003560031415606857600060006000600060006080515460155a03f2505b6001608051016080526005565b00",
                "nonce" : "0x00",
                "balance" : "0x1fff",
                "storage" : {
                    "0x00" : "0x1100000000000000000000000000000000000000",
                    "0x11" : "0x01",
                    "0x42" : "0x1fff",
                    "0x21" : "0x2000",
                    "0x02" : "0x1300000000000000000000000000000000000000",
                    "0x41" : "0x2000",
                    "0x43" : "0x01",
                    "0x01" : "0x1200000000000000000000000000000000000000",
                    "0x03" : "0x1400000000000000000000000000000000000000",
                    "0x31" : "0x05"
                }
            },
            "0x2adc25665018aa1fe0e6bc666dac8fc2697ff9ba" : {
                "code" : "0x",
                "nonce" : "0x00",
                "balance" : "0x1bc16d674ecad2e7",
                "storage" : {
                }
            },
            "0x1200000000000000000000000000000000000000" : {
                "code" : "0x4760215500",
                "nonce" : "0x00",
                "balance" : "0x1100",
                "storage" : {
                }
            }
        },
        "network" : "Istanbul",
        "sealEngine" : "NoProof",
        "lastblockhash" : "0xb12ecabda8551627bd508f9651c67ae16bab00c62ec99fbfb6ae0114e21e0b05",
        "genesisRLP" : "0xf901faf901f5a00000000000000000000000000000000000000000000000000000000000000000a01dcc4de8dec75d7aab85b567b6ccd41ad312451b948a7413f0a142fd40d49347942adc25665018aa1fe0e6bc666dac8fc2697ff9baa0da6f652faa3533e8bfa79ff1b0afd3238bbb07d48b104f38a63029295a0fc858a056e81f171bcc55a6ff8345e692c0f86e5b48e01b996cadc001622fb5e363b421a056e81f171bcc55a6ff8345e692c0f86e5b48e01b996cadc001622fb5e363b421b901000000000000000000000000000000000000000000000000000000000000000000000000000000000000000000000000000000000000000000000000000000000000000000000000000000000000000000000000000000000000000000000000000000000000000000000000000000000000000000000000000000000000000000000000000000000000000000000000000000000000000000000000000000000000000000000000000000000000000000000000000000000000000000000000000000000000000000000000000000000000000000000000000000000000000000000000000000000000000000000000000000000000000000000000000000000083020000808502540be400808000a00000000000000000000000000000000000000000000000000000000000000000880000000000000000c0c0",
        "blocks" : [
            {
                "rlp" : "0xf90282f901faa0299b26035962d7c4fad54c4c0c25f3740f0713122935f4dce7572c64f9d22552a01dcc4de8dec75d7aab85b567b6ccd41ad312451b948a7413f0a142fd40d49347942adc25665018aa1fe0e6bc666dac8fc2697ff9baa0c51ccc001adf6bb4882f9daca9a7dfc34cd629d07bd6f0f9346f29d36fced51aa0173711cfbdbb8aea373b0c87363f3b5408db64e057350047582b8fd2c787d1f0a070f5c13ad18c865643d603b89af75f1d0e01915d345f76f8b51dfa055209869cb901000000000000000000000000000000000000000000000000000000000000000000000000000000000000000000000000000000000000000000000000000000000000000000000000000000000000000000000000000000000000000000000000000000000000000000000000000000000000000000000000000000000000000000000000000000000000000000000000000000000000000000000000000000000000000000000000000000000000000000000000000000000000000000000000000000000000000000000000000000000000000000000000000000000000000000000000000000000000000000000000000000000000000000000000000000000083020000018502540be4008302d2e78203e880a00000000000000000000000000000000000000000000000000000000000000000880000000000000000f882f8808001830f424094200000000000000000000000000000000000000080a000000000000000000000000000000000000000000000000000000000000000021ba02cceedeb1497b046b31cd755ee8534002f79617ee3635bb31033880fab839fdfa02df1cf632dda558dacf07b7d919eefce8a9712dd9354bef577144c1577598499c0",
                "blockHeader" : {
                    "bloom" : "0x00000000000000000000000000000000000000000000000000000000000000000000000000000000000000000000000000000000000000000000000000000000000000000000000000000000000000000000000000000000000000000000000000000000000000000000000000000000000000000000000000000000000000000000000000000000000000000000000000000000000000000000000000000000000000000000000000000000000000000000000000000000000000000000000000000000000000000000000000000000000000000000000000000000000000000000000000000000000000000000000000000000000000000000000000000000",
                    "coinbase" : "0x2adc25665018aa1fe0e6bc666dac8fc2697ff9ba",
                    "difficulty" : "0x20000",
                    "extraData" : "0x",
                    "gasLimit" : "0x2540be400",
                    "gasUsed" : "0x2d2e7",
                    "hash" : "0xb12ecabda8551627bd508f9651c67ae16bab00c62ec99fbfb6ae0114e21e0b05",
                    "mixHash" : "0x0000000000000000000000000000000000000000000000000000000000000000",
                    "nonce" : "0x0000000000000000",
                    "number" : "0x1",
                    "parentHash" : "0x299b26035962d7c4fad54c4c0c25f3740f0713122935f4dce7572c64f9d22552",
                    "receiptTrie" : "0x70f5c13ad18c865643d603b89af75f1d0e01915d345f76f8b51dfa055209869c",
                    "stateRoot" : "0xc51ccc001adf6bb4882f9daca9a7dfc34cd629d07bd6f0f9346f29d36fced51a",
                    "timestamp" : "0x3e8",
                    "transactionsTrie" : "0x173711cfbdbb8aea373b0c87363f3b5408db64e057350047582b8fd2c787d1f0",
                    "uncleHash" : "0x1dcc4de8dec75d7aab85b567b6ccd41ad312451b948a7413f0a142fd40d49347"
                },
                "transactions" : [
                    {
                        "data" : "0x0000000000000000000000000000000000000000000000000000000000000002",
                        "gasLimit" : "0x0f4240",
                        "gasPrice" : "0x01",
                        "nonce" : "0x00",
                        "to" : "0x2000000000000000000000000000000000000000",
                        "value" : "0x00",
                        "v" : "0x1b",
                        "r" : "0x2cceedeb1497b046b31cd755ee8534002f79617ee3635bb31033880fab839fdf",
                        "s" : "0x2df1cf632dda558dacf07b7d919eefce8a9712dd9354bef577144c1577598499"
                    }
                ]
            }
        ]
    },
    "selfBalanceCallTypes_d2g0v0_Istanbul" : {
        "_info" : {
            "comment" : "SELFBALANCE tests inside CALL, DELEGATECALL, and CALLCODE",
            "filling-rpc-server" : "besu/v1.3.7/osx-x86_64/corretto-java-11",
            "filling-tool-version" : "retesteth-0.0.1+commit.f19c40da.Darwin.appleclang",
            "lllcversion" : "Version: 0.5.12-develop.2019.9.16+commit.2d601a4f.Darwin.appleclang",
            "source" : "src/GeneralStateTestsFiller/stSelfBalance/selfBalanceCallTypesFiller.json",
            "sourceHash" : "2093ce19cc0abdb4b5c1d3b295fff6b756b41eddcb569b592a2e4cc86324ea5d"
        },
        "genesisBlockHeader" : {
            "bloom" : "0x00000000000000000000000000000000000000000000000000000000000000000000000000000000000000000000000000000000000000000000000000000000000000000000000000000000000000000000000000000000000000000000000000000000000000000000000000000000000000000000000000000000000000000000000000000000000000000000000000000000000000000000000000000000000000000000000000000000000000000000000000000000000000000000000000000000000000000000000000000000000000000000000000000000000000000000000000000000000000000000000000000000000000000000000000000000",
            "coinbase" : "0x2adc25665018aa1fe0e6bc666dac8fc2697ff9ba",
            "difficulty" : "0x20000",
            "extraData" : "0x00",
            "gasLimit" : "0x2540be400",
            "gasUsed" : "0x0",
            "hash" : "0x299b26035962d7c4fad54c4c0c25f3740f0713122935f4dce7572c64f9d22552",
            "mixHash" : "0x0000000000000000000000000000000000000000000000000000000000000000",
            "nonce" : "0x0000000000000000",
            "number" : "0x0",
            "parentHash" : "0x0000000000000000000000000000000000000000000000000000000000000000",
            "receiptTrie" : "0x56e81f171bcc55a6ff8345e692c0f86e5b48e01b996cadc001622fb5e363b421",
            "stateRoot" : "0xda6f652faa3533e8bfa79ff1b0afd3238bbb07d48b104f38a63029295a0fc858",
            "timestamp" : "0x0",
            "transactionsTrie" : "0x56e81f171bcc55a6ff8345e692c0f86e5b48e01b996cadc001622fb5e363b421",
            "uncleHash" : "0x1dcc4de8dec75d7aab85b567b6ccd41ad312451b948a7413f0a142fd40d49347"
        },
        "pre" : {
            "0x1100000000000000000000000000000000000000" : {
                "balance" : "0x1000",
                "code" : "0x3031471460115500",
                "nonce" : "0x00",
                "storage" : {
                }
            },
            "0x1200000000000000000000000000000000000000" : {
                "balance" : "0x1100",
                "code" : "0x4760215500",
                "nonce" : "0x00",
                "storage" : {
                }
            },
            "0x1300000000000000000000000000000000000000" : {
                "balance" : "0x1200",
                "code" : "0x5a475a905090036002900360315500",
                "nonce" : "0x00",
                "storage" : {
                }
            },
            "0x1400000000000000000000000000000000000000" : {
                "balance" : "0x1300",
                "code" : "0x47806041556000600060006000600160006000f1504780604255900360435500",
                "nonce" : "0x00",
                "storage" : {
                }
            },
            "0x2000000000000000000000000000000000000000" : {
                "balance" : "0x2000",
                "code" : "0x60006080525b608051541560755760003560011415602c57600060006000600060006080515460155a03f1505b6000356002141560495760006000600060006080515460155a03f4505b60003560031415606857600060006000600060006080515460155a03f2505b6001608051016080526005565b00",
                "nonce" : "0x00",
                "storage" : {
                    "0x00" : "0x1100000000000000000000000000000000000000",
                    "0x01" : "0x1200000000000000000000000000000000000000",
                    "0x02" : "0x1300000000000000000000000000000000000000",
                    "0x03" : "0x1400000000000000000000000000000000000000"
                }
            },
            "0xa94f5374fce5edbc8e2a8697c15331677e6ebf0b" : {
                "balance" : "0x3635c9adc5dea00000",
                "code" : "0x",
                "nonce" : "0x00",
                "storage" : {
                }
            }
        },
        "postState" : {
            "0xa94f5374fce5edbc8e2a8697c15331677e6ebf0b" : {
                "code" : "0x",
                "nonce" : "0x01",
                "balance" : "0x3635c9adc5de9d2d0d",
                "storage" : {
                }
            },
            "0x1300000000000000000000000000000000000000" : {
                "code" : "0x5a475a905090036002900360315500",
                "nonce" : "0x00",
                "balance" : "0x1200",
                "storage" : {
                }
            },
            "0x1100000000000000000000000000000000000000" : {
                "code" : "0x3031471460115500",
                "nonce" : "0x00",
                "balance" : "0x1000",
                "storage" : {
                }
            },
            "0x0000000000000000000000000000000000000000" : {
                "code" : "0x",
                "nonce" : "0x00",
                "balance" : "0x01",
                "storage" : {
                }
            },
            "0x1400000000000000000000000000000000000000" : {
                "code" : "0x47806041556000600060006000600160006000f1504780604255900360435500",
                "nonce" : "0x00",
                "balance" : "0x1300",
                "storage" : {
                }
            },
            "0x2000000000000000000000000000000000000000" : {
                "code" : "0x60006080525b608051541560755760003560011415602c57600060006000600060006080515460155a03f1505b6000356002141560495760006000600060006080515460155a03f4505b60003560031415606857600060006000600060006080515460155a03f2505b6001608051016080526005565b00",
                "nonce" : "0x00",
                "balance" : "0x1fff",
                "storage" : {
                    "0x00" : "0x1100000000000000000000000000000000000000",
                    "0x11" : "0x01",
                    "0x42" : "0x1fff",
                    "0x21" : "0x2000",
                    "0x02" : "0x1300000000000000000000000000000000000000",
                    "0x41" : "0x2000",
                    "0x43" : "0x01",
                    "0x01" : "0x1200000000000000000000000000000000000000",
                    "0x03" : "0x1400000000000000000000000000000000000000",
                    "0x31" : "0x05"
                }
            },
            "0x2adc25665018aa1fe0e6bc666dac8fc2697ff9ba" : {
                "code" : "0x",
                "nonce" : "0x00",
                "balance" : "0x1bc16d674ecad2f3",
                "storage" : {
                }
            },
            "0x1200000000000000000000000000000000000000" : {
                "code" : "0x4760215500",
                "nonce" : "0x00",
                "balance" : "0x1100",
                "storage" : {
                }
            }
        },
        "network" : "Istanbul",
        "sealEngine" : "NoProof",
        "lastblockhash" : "0xf59dd43e9f0d919b0bf15580632587952a8fa86590bd25fb2ff3b83223a59f1b",
        "genesisRLP" : "0xf901faf901f5a00000000000000000000000000000000000000000000000000000000000000000a01dcc4de8dec75d7aab85b567b6ccd41ad312451b948a7413f0a142fd40d49347942adc25665018aa1fe0e6bc666dac8fc2697ff9baa0da6f652faa3533e8bfa79ff1b0afd3238bbb07d48b104f38a63029295a0fc858a056e81f171bcc55a6ff8345e692c0f86e5b48e01b996cadc001622fb5e363b421a056e81f171bcc55a6ff8345e692c0f86e5b48e01b996cadc001622fb5e363b421b901000000000000000000000000000000000000000000000000000000000000000000000000000000000000000000000000000000000000000000000000000000000000000000000000000000000000000000000000000000000000000000000000000000000000000000000000000000000000000000000000000000000000000000000000000000000000000000000000000000000000000000000000000000000000000000000000000000000000000000000000000000000000000000000000000000000000000000000000000000000000000000000000000000000000000000000000000000000000000000000000000000000000000000000000000000000083020000808502540be400808000a00000000000000000000000000000000000000000000000000000000000000000880000000000000000c0c0",
        "blocks" : [
            {
                "rlp" : "0xf90282f901faa0299b26035962d7c4fad54c4c0c25f3740f0713122935f4dce7572c64f9d22552a01dcc4de8dec75d7aab85b567b6ccd41ad312451b948a7413f0a142fd40d49347942adc25665018aa1fe0e6bc666dac8fc2697ff9baa0d26bbc1835b8591d4b4b08e60a9885a01fb2c38f56a3a1a4bdbd36d3f37f867aa0ae11156246919b4fa0812ed53b810b5a54fa28a028009240ec3940fa84f0e88ca0488b867a012506c0a4fb877d8c9a64e1fb5132a33b41295796615eef3e138e8fb901000000000000000000000000000000000000000000000000000000000000000000000000000000000000000000000000000000000000000000000000000000000000000000000000000000000000000000000000000000000000000000000000000000000000000000000000000000000000000000000000000000000000000000000000000000000000000000000000000000000000000000000000000000000000000000000000000000000000000000000000000000000000000000000000000000000000000000000000000000000000000000000000000000000000000000000000000000000000000000000000000000000000000000000000000000000083020000018502540be4008302d2f38203e880a00000000000000000000000000000000000000000000000000000000000000000880000000000000000f882f8808001830f424094200000000000000000000000000000000000000080a000000000000000000000000000000000000000000000000000000000000000031ca094b91c4a95169a354c13c6a03f6a54e3b489237d9f5420b694649cd851ed6570a028cacd2fedccd082b73341441f701cc7318ab56961ff98ffceb35099b6031e91c0",
                "blockHeader" : {
                    "bloom" : "0x00000000000000000000000000000000000000000000000000000000000000000000000000000000000000000000000000000000000000000000000000000000000000000000000000000000000000000000000000000000000000000000000000000000000000000000000000000000000000000000000000000000000000000000000000000000000000000000000000000000000000000000000000000000000000000000000000000000000000000000000000000000000000000000000000000000000000000000000000000000000000000000000000000000000000000000000000000000000000000000000000000000000000000000000000000000",
                    "coinbase" : "0x2adc25665018aa1fe0e6bc666dac8fc2697ff9ba",
                    "difficulty" : "0x20000",
                    "extraData" : "0x",
                    "gasLimit" : "0x2540be400",
                    "gasUsed" : "0x2d2f3",
                    "hash" : "0xf59dd43e9f0d919b0bf15580632587952a8fa86590bd25fb2ff3b83223a59f1b",
                    "mixHash" : "0x0000000000000000000000000000000000000000000000000000000000000000",
                    "nonce" : "0x0000000000000000",
                    "number" : "0x1",
                    "parentHash" : "0x299b26035962d7c4fad54c4c0c25f3740f0713122935f4dce7572c64f9d22552",
                    "receiptTrie" : "0x488b867a012506c0a4fb877d8c9a64e1fb5132a33b41295796615eef3e138e8f",
                    "stateRoot" : "0xd26bbc1835b8591d4b4b08e60a9885a01fb2c38f56a3a1a4bdbd36d3f37f867a",
                    "timestamp" : "0x3e8",
                    "transactionsTrie" : "0xae11156246919b4fa0812ed53b810b5a54fa28a028009240ec3940fa84f0e88c",
                    "uncleHash" : "0x1dcc4de8dec75d7aab85b567b6ccd41ad312451b948a7413f0a142fd40d49347"
                },
                "transactions" : [
                    {
                        "data" : "0x0000000000000000000000000000000000000000000000000000000000000003",
                        "gasLimit" : "0x0f4240",
                        "gasPrice" : "0x01",
                        "nonce" : "0x00",
                        "to" : "0x2000000000000000000000000000000000000000",
                        "value" : "0x00",
                        "v" : "0x1c",
                        "r" : "0x94b91c4a95169a354c13c6a03f6a54e3b489237d9f5420b694649cd851ed6570",
                        "s" : "0x28cacd2fedccd082b73341441f701cc7318ab56961ff98ffceb35099b6031e91"
                    }
                ]
            }
        ]
    }
}