{
    "CallContractFromNotBestBlock_Istanbul" : {
        "_info" : {
            "comment" : "",
            "filledwith" : "testeth 1.8.0-alpha.0-12+commit.b120a12c.dirty",
            "lllcversion" : "Version: 0.5.12-develop.2019.9.13+commit.2d601a4f.Linux.g++",
            "source" : "src/BlockchainTestsFiller/ValidBlocks/bcMultiChainTest/CallContractFromNotBestBlockFiller.json",
            "sourceHash" : "76a85102f61052cfdc8774d50641955814fc0dee00020934baff86ad8167f009"
        },
        "blocks" : [
            {
                "blockHeader" : {
                    "bloom" : "0x00000000000000000000000000000000000000000000000000000000000000000000000000000000000000000000000000000000000000000000000000000000000000000000000000000000000000000000000000000000000000000000000000000000000000000000000000000000000000000000000000000000000000000000000000000000000000000000000000000000000000000000000000000000000000000000000000000000000000000000000000000000000000000000000000000000000000000000000000000000000000000000000000000000000000000000000000000000000000000000000000000000000000000000000000000000",
                    "coinbase" : "0x8888f1f195afa192cfee860698584c030f4c9db1",
                    "difficulty" : "0x020000",
                    "extraData" : "",
                    "gasLimit" : "0x2fefba",
                    "gasUsed" : "0x5208",
                    "hash" : "0x00346690e6d36dec9b21b26475c007f6c4789ab51ca7315d260a70c089b0e094",
                    "mixHash" : "0x0000000000000000000000000000000000000000000000000000000000000000",
                    "nonce" : "0x0000000000000000",
                    "number" : "0x01",
                    "parentHash" : "0x5a39ed1020c04d4d84539975b893a4e7c53eab6c2965db8bc3468093a31bc5ae",
                    "receiptTrie" : "0x056b23fbba480696b65fe5a59b8f2148a1299103c4f57df839233af2cf4ca2d2",
                    "stateRoot" : "0x9f975da0cdc4d5f074009af73873d83f3e29d9e7f33fee3f11a38133166034e5",
                    "timestamp" : "0x5db731f0",
                    "transactionsTrie" : "0x5c9151c2413d1cd25c51ffb4ac38948acc1359bf08c6b49f283660e9bcf0f516",
                    "uncleHash" : "0x1dcc4de8dec75d7aab85b567b6ccd41ad312451b948a7413f0a142fd40d49347"
                },
                "blocknumber" : "1",
                "chainname" : "A",
                "rlp" : "0xf90261f901f9a05a39ed1020c04d4d84539975b893a4e7c53eab6c2965db8bc3468093a31bc5aea01dcc4de8dec75d7aab85b567b6ccd41ad312451b948a7413f0a142fd40d49347948888f1f195afa192cfee860698584c030f4c9db1a09f975da0cdc4d5f074009af73873d83f3e29d9e7f33fee3f11a38133166034e5a05c9151c2413d1cd25c51ffb4ac38948acc1359bf08c6b49f283660e9bcf0f516a0056b23fbba480696b65fe5a59b8f2148a1299103c4f57df839233af2cf4ca2d2b90100000000000000000000000000000000000000000000000000000000000000000000000000000000000000000000000000000000000000000000000000000000000000000000000000000000000000000000000000000000000000000000000000000000000000000000000000000000000000000000000000000000000000000000000000000000000000000000000000000000000000000000000000000000000000000000000000000000000000000000000000000000000000000000000000000000000000000000000000000000000000000000000000000000000000000000000000000000000000000000000000000000000000000000000000000000008302000001832fefba825208845db731f080a00000000000000000000000000000000000000000000000000000000000000000880000000000000000f862f86080018304cb2f94095e7baea6a6c7c4c2dfeb977efac326af552d870a801ba077c7cd36820c71821c1aed59de46e70e701c4a8dd89c9ba508ab722210f60da8a03f29825d40c7c3f7bff3ca69267e0f3fb74b2d18b8c2c4e3c135b5d3b06e288dc0",
                "transactions" : [
                    {
                        "data" : "0x",
                        "gasLimit" : "0x04cb2f",
                        "gasPrice" : "0x01",
                        "nonce" : "0x00",
                        "r" : "0x77c7cd36820c71821c1aed59de46e70e701c4a8dd89c9ba508ab722210f60da8",
                        "s" : "0x3f29825d40c7c3f7bff3ca69267e0f3fb74b2d18b8c2c4e3c135b5d3b06e288d",
                        "to" : "0x095e7baea6a6c7c4c2dfeb977efac326af552d87",
                        "v" : "0x1b",
                        "value" : "0x0a"
                    }
                ],
                "uncleHeaders" : [
                ]
            },
            {
                "blockHeader" : {
                    "bloom" : "0x00000000000000000000000000000000000000000000000000000000000000000000000000000000000000000000000000000000000000000000000000000000000000000000000000000000000000000000000000000000000000000000000000000000000000000000000000000000000000000000000000000000000000000000000000000000000000000000000000000000000000000000000000000000000000000000000000000000000000000000000000000000000000000000000000000000000000000000000000000000000000000000000000000000000000000000000000000000000000000000000000000000000000000000000000000000",
                    "coinbase" : "0x8888f1f195afa192cfee860698584c030f4c9db1",
                    "difficulty" : "0x020040",
                    "extraData" : "",
                    "gasLimit" : "0x2fefba",
                    "gasUsed" : "0x012b67",
                    "hash" : "0xabac186c08f4e0d68b7f3bcb9d2d1b4a006ff024acc2ed37445d198267f8181f",
                    "mixHash" : "0x0000000000000000000000000000000000000000000000000000000000000000",
                    "nonce" : "0x0000000000000000",
                    "number" : "0x02",
                    "parentHash" : "0x00346690e6d36dec9b21b26475c007f6c4789ab51ca7315d260a70c089b0e094",
                    "receiptTrie" : "0xf838c2e26e803bb81f82f9d4a668ca96bbd26519146df3872866fbd037be0bbf",
                    "stateRoot" : "0xec82ff576ff718f770c765467973ef460c6fe19be4ade42df4d34cc506778ef9",
                    "timestamp" : "0x5db731f1",
                    "transactionsTrie" : "0x73605c813df801dea03161bc2f66993a59f86babc47efa9d0e952bc79a26fabd",
                    "uncleHash" : "0x1dcc4de8dec75d7aab85b567b6ccd41ad312451b948a7413f0a142fd40d49347"
                },
                "blocknumber" : "2",
                "chainname" : "A",
                "rlp" : "0xf902cdf901faa000346690e6d36dec9b21b26475c007f6c4789ab51ca7315d260a70c089b0e094a01dcc4de8dec75d7aab85b567b6ccd41ad312451b948a7413f0a142fd40d49347948888f1f195afa192cfee860698584c030f4c9db1a0ec82ff576ff718f770c765467973ef460c6fe19be4ade42df4d34cc506778ef9a073605c813df801dea03161bc2f66993a59f86babc47efa9d0e952bc79a26fabda0f838c2e26e803bb81f82f9d4a668ca96bbd26519146df3872866fbd037be0bbfb90100000000000000000000000000000000000000000000000000000000000000000000000000000000000000000000000000000000000000000000000000000000000000000000000000000000000000000000000000000000000000000000000000000000000000000000000000000000000000000000000000000000000000000000000000000000000000000000000000000000000000000000000000000000000000000000000000000000000000000000000000000000000000000000000000000000000000000000000000000000000000000000000000000000000000000000000000000000000000000000000000000000000000000000000000000000008302004002832fefba83012b67845db731f180a00000000000000000000000000000000000000000000000000000000000000000880000000000000000f8cdf8cb01018304cb2f8080b87e6060604052606e8060106000396000f360606040526000357c010000000000000000000000000000000000000000000000000000000090048063c0406226146037576035565b005b60406004506056565b6040518082815260200191505060405180910390f35b6000600560006000508190555060059050606b565b90561ca0b5a59222c12d3a9d52fddef1c7881a0dc7e72f5aed83be3cd7d7fdf868ec92a2a0551fea14e12dc99b6d78884bf5f0edae2da6ad4102d955057251d5d2aa8f54a5c0",
                "transactions" : [
                    {
                        "data" : "0x6060604052606e8060106000396000f360606040526000357c010000000000000000000000000000000000000000000000000000000090048063c0406226146037576035565b005b60406004506056565b6040518082815260200191505060405180910390f35b6000600560006000508190555060059050606b565b9056",
                        "gasLimit" : "0x04cb2f",
                        "gasPrice" : "0x01",
                        "nonce" : "0x01",
                        "r" : "0xb5a59222c12d3a9d52fddef1c7881a0dc7e72f5aed83be3cd7d7fdf868ec92a2",
                        "s" : "0x551fea14e12dc99b6d78884bf5f0edae2da6ad4102d955057251d5d2aa8f54a5",
                        "to" : "",
                        "v" : "0x1c",
                        "value" : "0x00"
                    }
                ],
                "uncleHeaders" : [
                ]
            },
            {
                "blockHeader" : {
                    "bloom" : "0x00000000000000000000000000000000000000000000000000000000000000000000000000000000000000000000000000000000000000000000000000000000000000000000000000000000000000000000000000000000000000000000000000000000000000000000000000000000000000000000000000000000000000000000000000000000000000000000000000000000000000000000000000000000000000000000000000000000000000000000000000000000000000000000000000000000000000000000000000000000000000000000000000000000000000000000000000000000000000000000000000000000000000000000000000000000",
                    "coinbase" : "0x8888f1f195afa192cfee860698584c030f4c9db1",
                    "difficulty" : "0x020080",
                    "extraData" : "",
                    "gasLimit" : "0x2fefba",
                    "gasUsed" : "0x524d",
                    "hash" : "0xbfbe2b1c178301d6bd09893869026a8184419ba4144fa52ca198a8ada1080c92",
                    "mixHash" : "0x0000000000000000000000000000000000000000000000000000000000000000",
                    "nonce" : "0x0000000000000000",
                    "number" : "0x03",
                    "parentHash" : "0xabac186c08f4e0d68b7f3bcb9d2d1b4a006ff024acc2ed37445d198267f8181f",
                    "receiptTrie" : "0x652b8794906a678d040dafb6b1c2c04038ff1e9d7a3ecbb8a61c67527cbc9207",
                    "stateRoot" : "0xfcdbf95d3403345d9e889d8913268a1414ffa16e7c8a8b24f14286ae3a916afd",
                    "timestamp" : "0x5db731f2",
                    "transactionsTrie" : "0x88d2ec6b9860aae1a2c3b299f72b6a5d70d7f7ba4722c78f2c49ba96273c2158",
                    "uncleHash" : "0x1dcc4de8dec75d7aab85b567b6ccd41ad312451b948a7413f0a142fd40d49347"
                },
                "blocknumber" : "3",
                "chainname" : "A",
                "rlp" : "0xf90261f901f9a0abac186c08f4e0d68b7f3bcb9d2d1b4a006ff024acc2ed37445d198267f8181fa01dcc4de8dec75d7aab85b567b6ccd41ad312451b948a7413f0a142fd40d49347948888f1f195afa192cfee860698584c030f4c9db1a0fcdbf95d3403345d9e889d8913268a1414ffa16e7c8a8b24f14286ae3a916afda088d2ec6b9860aae1a2c3b299f72b6a5d70d7f7ba4722c78f2c49ba96273c2158a0652b8794906a678d040dafb6b1c2c04038ff1e9d7a3ecbb8a61c67527cbc9207b90100000000000000000000000000000000000000000000000000000000000000000000000000000000000000000000000000000000000000000000000000000000000000000000000000000000000000000000000000000000000000000000000000000000000000000000000000000000000000000000000000000000000000000000000000000000000000000000000000000000000000000000000000000000000000000000000000000000000000000000000000000000000000000000000000000000000000000000000000000000000000000000000000000000000000000000000000000000000000000000000000000000000000000000000000000000008302008003832fefba82524d845db731f280a00000000000000000000000000000000000000000000000000000000000000000880000000000000000f862f86002018304cb2f94ec0e71ad0a90ffe1909d27dac207f7680abba42d01801ba03a347e72953c860f32b1eb2c78a680d8734b2ea08085d949d729479796f218d5a047ea6239d9e31ccac8af3366f5ca37184d26e7646e3191a3aeb81c4cf74de500c0",
                "transactions" : [
                    {
                        "data" : "0x",
                        "gasLimit" : "0x04cb2f",
                        "gasPrice" : "0x01",
                        "nonce" : "0x02",
                        "r" : "0x3a347e72953c860f32b1eb2c78a680d8734b2ea08085d949d729479796f218d5",
                        "s" : "0x47ea6239d9e31ccac8af3366f5ca37184d26e7646e3191a3aeb81c4cf74de500",
                        "to" : "0xec0e71ad0a90ffe1909d27dac207f7680abba42d",
                        "v" : "0x1b",
                        "value" : "0x01"
                    }
                ],
                "uncleHeaders" : [
                ]
            },
            {
                "blockHeader" : {
                    "bloom" : "0x00000000000000000000000000000000000000000000000000000000000000000000000000000000000000000000000000000000000000000000000000000000000000000000000000000000000000000000000000000000000000000000000000000000000000000000000000000000000000000000000000000000000000000000000000000000000000000000000000000000000000000000000000000000000000000000000000000000000000000000000000000000000000000000000000000000000000000000000000000000000000000000000000000000000000000000000000000000000000000000000000000000000000000000000000000000",
                    "coinbase" : "0x8888f1f195afa192cfee860698584c030f4c9db1",
                    "difficulty" : "0x020000",
                    "extraData" : "",
                    "gasLimit" : "0x2fefba",
                    "gasUsed" : "0xa120",
                    "hash" : "0x42227fec59d471d675d54b518d593a9ac947a63bbaa1a43f417d06313205607a",
                    "mixHash" : "0x0000000000000000000000000000000000000000000000000000000000000000",
                    "nonce" : "0x0000000000000000",
                    "number" : "0x03",
                    "parentHash" : "0xabac186c08f4e0d68b7f3bcb9d2d1b4a006ff024acc2ed37445d198267f8181f",
                    "receiptTrie" : "0x4851364b4a3a5ecae2675f5a1ae2d1c11164b752f44a6f074f9da05104c65cd7",
                    "stateRoot" : "0x4380a93cc3042752146066a33f50d12a224d34235772c708a4f4cdd95a66866a",
                    "timestamp" : "0x5db75901",
                    "transactionsTrie" : "0xae80fba3191a520feaeaa816d72180278bb03b7dd46f02f742d9384935122e6d",
                    "uncleHash" : "0x1dcc4de8dec75d7aab85b567b6ccd41ad312451b948a7413f0a142fd40d49347"
                },
                "blocknumber" : "3",
                "chainname" : "A",
                "rlp" : "0xf90265f901f9a0abac186c08f4e0d68b7f3bcb9d2d1b4a006ff024acc2ed37445d198267f8181fa01dcc4de8dec75d7aab85b567b6ccd41ad312451b948a7413f0a142fd40d49347948888f1f195afa192cfee860698584c030f4c9db1a04380a93cc3042752146066a33f50d12a224d34235772c708a4f4cdd95a66866aa0ae80fba3191a520feaeaa816d72180278bb03b7dd46f02f742d9384935122e6da04851364b4a3a5ecae2675f5a1ae2d1c11164b752f44a6f074f9da05104c65cd7b90100000000000000000000000000000000000000000000000000000000000000000000000000000000000000000000000000000000000000000000000000000000000000000000000000000000000000000000000000000000000000000000000000000000000000000000000000000000000000000000000000000000000000000000000000000000000000000000000000000000000000000000000000000000000000000000000000000000000000000000000000000000000000000000000000000000000000000000000000000000000000000000000000000000000000000000000000000000000000000000000000000000000000000000000000000000008302000003832fefba82a120845db7590180a00000000000000000000000000000000000000000000000000000000000000000880000000000000000f866f86402018304cb2f94ec0e71ad0a90ffe1909d27dac207f7680abba42d0284c04062261ba0a3bb6e8efde6041f73e1efa10baef697fd1dab7662cb6f6fb699d72e9906e428a07cd441a417a5969d49af5651a05131a5d717b6823db4595aee2ef2e7bcb4f705c0",
                "transactions" : [
                    {
                        "data" : "0xc0406226",
                        "gasLimit" : "0x04cb2f",
                        "gasPrice" : "0x01",
                        "nonce" : "0x02",
                        "r" : "0xa3bb6e8efde6041f73e1efa10baef697fd1dab7662cb6f6fb699d72e9906e428",
                        "s" : "0x7cd441a417a5969d49af5651a05131a5d717b6823db4595aee2ef2e7bcb4f705",
                        "to" : "0xec0e71ad0a90ffe1909d27dac207f7680abba42d",
                        "v" : "0x1b",
                        "value" : "0x02"
                    }
                ],
                "uncleHeaders" : [
                ]
            }
        ],
        "genesisBlockHeader" : {
            "bloom" : "0x00000000000000000000000000000000000000000000000000000000000000000000000000000000000000000000000000000000000000000000000000000000000000000000000000000000000000000000000000000000000000000000000000000000000000000000000000000000000000000000000000000000000000000000000000000000000000000000000000000000000000000000000000000000000000000000000000000000000000000000000000000000000000000000000000000000000000000000000000000000000000000000000000000000000000000000000000000000000000000000000000000000000000000000000000000000",
            "coinbase" : "0x8888f1f195afa192cfee860698584c030f4c9db1",
            "difficulty" : "0x020000",
            "extraData" : "0x42",
            "gasLimit" : "0x2fefd8",
            "gasUsed" : "0x00",
            "hash" : "0x5a39ed1020c04d4d84539975b893a4e7c53eab6c2965db8bc3468093a31bc5ae",
            "mixHash" : "0x56e81f171bcc55a6ff8345e692c0f86e5b48e01b996cadc001622fb5e363b421",
            "nonce" : "0x0102030405060708",
            "number" : "0x00",
            "parentHash" : "0x0000000000000000000000000000000000000000000000000000000000000000",
            "receiptTrie" : "0x56e81f171bcc55a6ff8345e692c0f86e5b48e01b996cadc001622fb5e363b421",
            "stateRoot" : "0x7dba07d6b448a186e9612e5f737d1c909dce473e53199901a302c00646d523c1",
            "timestamp" : "0x54c98c81",
            "transactionsTrie" : "0x56e81f171bcc55a6ff8345e692c0f86e5b48e01b996cadc001622fb5e363b421",
            "uncleHash" : "0x1dcc4de8dec75d7aab85b567b6ccd41ad312451b948a7413f0a142fd40d49347"
        },
        "genesisRLP" : "0xf901fcf901f7a00000000000000000000000000000000000000000000000000000000000000000a01dcc4de8dec75d7aab85b567b6ccd41ad312451b948a7413f0a142fd40d49347948888f1f195afa192cfee860698584c030f4c9db1a07dba07d6b448a186e9612e5f737d1c909dce473e53199901a302c00646d523c1a056e81f171bcc55a6ff8345e692c0f86e5b48e01b996cadc001622fb5e363b421a056e81f171bcc55a6ff8345e692c0f86e5b48e01b996cadc001622fb5e363b421b90100000000000000000000000000000000000000000000000000000000000000000000000000000000000000000000000000000000000000000000000000000000000000000000000000000000000000000000000000000000000000000000000000000000000000000000000000000000000000000000000000000000000000000000000000000000000000000000000000000000000000000000000000000000000000000000000000000000000000000000000000000000000000000000000000000000000000000000000000000000000000000000000000000000000000000000000000000000000000000000000000000000000000000000000000000000008302000080832fefd8808454c98c8142a056e81f171bcc55a6ff8345e692c0f86e5b48e01b996cadc001622fb5e363b421880102030405060708c0c0",
        "lastblockhash" : "0xbfbe2b1c178301d6bd09893869026a8184419ba4144fa52ca198a8ada1080c92",
        "network" : "Istanbul",
        "postState" : {
            "0x095e7baea6a6c7c4c2dfeb977efac326af552d87" : {
                "balance" : "0x0a",
                "code" : "",
                "nonce" : "0x00",
                "storage" : {
                }
            },
            "0x8888f1f195afa192cfee860698584c030f4c9db1" : {
                "balance" : "0x53444835ec59cfbc",
                "code" : "",
                "nonce" : "0x00",
                "storage" : {
                }
            },
            "0xa94f5374fce5edbc8e2a8697c15331677e6ebf0b" : {
                "balance" : "0x09184e70d039",
                "code" : "",
                "nonce" : "0x03",
                "storage" : {
                }
            },
            "0xec0e71ad0a90ffe1909d27dac207f7680abba42d" : {
                "balance" : "0x01",
                "code" : "0x60606040526000357c010000000000000000000000000000000000000000000000000000000090048063c0406226146037576035565b005b60406004506056565b6040518082815260200191505060405180910390f35b6000600560006000508190555060059050606b565b9056",
                "nonce" : "0x01",
                "storage" : {
                }
            }
        },
        "pre" : {
            "0xa94f5374fce5edbc8e2a8697c15331677e6ebf0b" : {
                "balance" : "0x09184e72a000",
                "code" : "",
                "nonce" : "0x00",
                "storage" : {
                }
            }
        },
        "sealEngine" : "NoProof"
    }
}