{
    "ChainAtoChainB_BlockHash_Istanbul" : {
        "_info" : {
            "comment" : "",
            "filling-rpc-server" : "Geth-1.9.11-unstable-a382d783-20200127",
            "filling-tool-version" : "retesteth-0.0.2+commit.e8723140.Linux.g++",
            "lllcversion" : "Version: 0.5.14-develop.2019.11.27+commit.8f259595.Linux.g++",
            "source" : "src/BlockchainTestsFiller/ValidBlocks/bcMultiChainTest/ChainAtoChainB_BlockHashFiller.json",
            "sourceHash" : "7573ed5267bf2f526d4ab9fab738bcd36ad2502250cf6aac4ccc39baa857123e"
        },
        "sealEngine" : "NoProof",
        "network" : "Istanbul",
        "pre" : {
            "0x095e7baea6a6c7c4c2dfeb977efac326af552d87" : {
                "balance" : "0x09184e72a000",
                "code" : "0x60014060015500",
                "nonce" : "0x00",
                "storage" : {
                }
            },
            "0xa94f5374fce5edbc8e2a8697c15331677e6ebf0b" : {
                "balance" : "0x09184e72a000",
                "code" : "0x",
                "nonce" : "0x00",
                "storage" : {
                }
            }
        },
        "genesisBlockHeader" : {
            "bloom" : "0x00000000000000000000000000000000000000000000000000000000000000000000000000000000000000000000000000000000000000000000000000000000000000000000000000000000000000000000000000000000000000000000000000000000000000000000000000000000000000000000000000000000000000000000000000000000000000000000000000000000000000000000000000000000000000000000000000000000000000000000000000000000000000000000000000000000000000000000000000000000000000000000000000000000000000000000000000000000000000000000000000000000000000000000000000000000",
            "coinbase" : "0x8888f1f195afa192cfee860698584c030f4c9db1",
            "difficulty" : "0x020000",
            "extraData" : "0x42",
            "gasLimit" : "0x2fefd8",
            "gasUsed" : "0x00",
            "hash" : "0x89fda572c0dfc82228f6e1ef0943ddd301ae9a03c7d7ce41b994dbdb9f8fbed5",
            "mixHash" : "0x0000000000000000000000000000000000000000000000000000000000000000",
            "nonce" : "0x0000000000000000",
            "number" : "0x00",
            "parentHash" : "0x0000000000000000000000000000000000000000000000000000000000000000",
            "receiptTrie" : "0x56e81f171bcc55a6ff8345e692c0f86e5b48e01b996cadc001622fb5e363b421",
            "stateRoot" : "0xe40304cc97ba8f8f1cbd9a5968721dfa6c852fc9ad4b83040351fda98fb850d4",
            "timestamp" : "0x54c98c81",
            "transactionsTrie" : "0x56e81f171bcc55a6ff8345e692c0f86e5b48e01b996cadc001622fb5e363b421",
            "uncleHash" : "0x1dcc4de8dec75d7aab85b567b6ccd41ad312451b948a7413f0a142fd40d49347"
        },
        "genesisRLP" : "0xf901fcf901f7a00000000000000000000000000000000000000000000000000000000000000000a01dcc4de8dec75d7aab85b567b6ccd41ad312451b948a7413f0a142fd40d49347948888f1f195afa192cfee860698584c030f4c9db1a0e40304cc97ba8f8f1cbd9a5968721dfa6c852fc9ad4b83040351fda98fb850d4a056e81f171bcc55a6ff8345e692c0f86e5b48e01b996cadc001622fb5e363b421a056e81f171bcc55a6ff8345e692c0f86e5b48e01b996cadc001622fb5e363b421b90100000000000000000000000000000000000000000000000000000000000000000000000000000000000000000000000000000000000000000000000000000000000000000000000000000000000000000000000000000000000000000000000000000000000000000000000000000000000000000000000000000000000000000000000000000000000000000000000000000000000000000000000000000000000000000000000000000000000000000000000000000000000000000000000000000000000000000000000000000000000000000000000000000000000000000000000000000000000000000000000000000000000000000000000000000000008302000080832fefd8808454c98c8142a00000000000000000000000000000000000000000000000000000000000000000880000000000000000c0c0",
        "blocks" : [
            {
                "chainname" : "A",
                "blocknumber" : "1",
                "uncleHeaders" : [
                ],
                "blockHeader" : {
                    "bloom" : "0x00000000000000000000000000000000000000000000000000000000000000000000000000000000000000000000000000000000000000000000000000000000000000000000000000000000000000000000000000000000000000000000000000000000000000000000000000000000000000000000000000000000000000000000000000000000000000000000000000000000000000000000000000000000000000000000000000000000000000000000000000000000000000000000000000000000000000000000000000000000000000000000000000000000000000000000000000000000000000000000000000000000000000000000000000000000",
                    "coinbase" : "0x8888f1f195afa192cfee860698584c030f4c9db1",
                    "difficulty" : "0x020000",
                    "extraData" : "0x42",
                    "gasLimit" : "0x2ffbd2",
                    "gasUsed" : "0x5208",
                    "hash" : "0x31a7517a6a965fe3a44e4bd7e96974353d3becc4ce6a297361d8a51e5db0b863",
                    "mixHash" : "0x0000000000000000000000000000000000000000000000000000000000000000",
                    "nonce" : "0x0000000000000000",
                    "number" : "0x01",
                    "parentHash" : "0x89fda572c0dfc82228f6e1ef0943ddd301ae9a03c7d7ce41b994dbdb9f8fbed5",
                    "receiptTrie" : "0x056b23fbba480696b65fe5a59b8f2148a1299103c4f57df839233af2cf4ca2d2",
                    "stateRoot" : "0xffdec9148a41d4aa012c41256989581c54c63db8d75693ce27f7aded5f5db9d6",
                    "timestamp" : "0x54c99069",
                    "transactionsTrie" : "0xf80217763f8d00269566918ebd3c7729465f8b9818a0f437bf215a8190884d5d",
                    "uncleHash" : "0x1dcc4de8dec75d7aab85b567b6ccd41ad312451b948a7413f0a142fd40d49347"
                },
                "transactions" : [
                    {
                        "data" : "0x",
                        "gasLimit" : "0x04cb2f",
                        "gasPrice" : "0x01",
                        "nonce" : "0x00",
                        "r" : "0x886931af2e4e440628e6e862e50944534ff3068c38cabb908dc708fa3736bfe0",
                        "s" : "0x3de874195b35641546d6c48409cca106127e5260a67fe7ed21a35dfb1f7a08b5",
                        "to" : "0xa95e7baea6a6c7c4c2dfeb977efac326af552d87",
                        "v" : "0x1c",
                        "value" : "0x0a"
                    }
                ],
                "rlp" : "0xf90261f901f9a089fda572c0dfc82228f6e1ef0943ddd301ae9a03c7d7ce41b994dbdb9f8fbed5a01dcc4de8dec75d7aab85b567b6ccd41ad312451b948a7413f0a142fd40d49347948888f1f195afa192cfee860698584c030f4c9db1a0ffdec9148a41d4aa012c41256989581c54c63db8d75693ce27f7aded5f5db9d6a0f80217763f8d00269566918ebd3c7729465f8b9818a0f437bf215a8190884d5da0056b23fbba480696b65fe5a59b8f2148a1299103c4f57df839233af2cf4ca2d2b90100000000000000000000000000000000000000000000000000000000000000000000000000000000000000000000000000000000000000000000000000000000000000000000000000000000000000000000000000000000000000000000000000000000000000000000000000000000000000000000000000000000000000000000000000000000000000000000000000000000000000000000000000000000000000000000000000000000000000000000000000000000000000000000000000000000000000000000000000000000000000000000000000000000000000000000000000000000000000000000000000000000000000000000000000000000008302000001832ffbd28252088454c9906942a00000000000000000000000000000000000000000000000000000000000000000880000000000000000f862f86080018304cb2f94a95e7baea6a6c7c4c2dfeb977efac326af552d870a801ca0886931af2e4e440628e6e862e50944534ff3068c38cabb908dc708fa3736bfe0a03de874195b35641546d6c48409cca106127e5260a67fe7ed21a35dfb1f7a08b5c0"
            },
            {
                "chainname" : "A",
                "blocknumber" : "2",
                "uncleHeaders" : [
                ],
                "blockHeader" : {
                    "bloom" : "0x00000000000000000000000000000000000000000000000000000000000000000000000000000000000000000000000000000000000000000000000000000000000000000000000000000000000000000000000000000000000000000000000000000000000000000000000000000000000000000000000000000000000000000000000000000000000000000000000000000000000000000000000000000000000000000000000000000000000000000000000000000000000000000000000000000000000000000000000000000000000000000000000000000000000000000000000000000000000000000000000000000000000000000000000000000000",
                    "coinbase" : "0x8888f1f195afa192cfee860698584c030f4c9db1",
                    "difficulty" : "0x020000",
                    "extraData" : "0x42",
                    "gasLimit" : "0x3007cf",
                    "gasUsed" : "0xa042",
                    "hash" : "0xc953abd44c5db24c0c1f0ea492d75c8d2c080398a2725ec094323dd7ba13ec5f",
                    "mixHash" : "0x0000000000000000000000000000000000000000000000000000000000000000",
                    "nonce" : "0x0000000000000000",
                    "number" : "0x02",
                    "parentHash" : "0x31a7517a6a965fe3a44e4bd7e96974353d3becc4ce6a297361d8a51e5db0b863",
                    "receiptTrie" : "0x3218a5c148a88742bf17461fb0acd6bf6caf81038570f36a5016b10b414fe6f8",
                    "stateRoot" : "0x856fb66f11bdcbd20f20478bb75d6fa561551896b06a354ae84f4eac1cf3a561",
                    "timestamp" : "0x54c99451",
                    "transactionsTrie" : "0xc673e076264c4669a5c2e479f1757b78e42511efe33b5fd2c0a23b929c7f87f5",
                    "uncleHash" : "0x1dcc4de8dec75d7aab85b567b6ccd41ad312451b948a7413f0a142fd40d49347"
                },
                "transactions" : [
                    {
                        "data" : "0x",
                        "gasLimit" : "0x04cb2f",
                        "gasPrice" : "0x01",
                        "nonce" : "0x01",
                        "r" : "0x33c86e64d708c97c6b135cadff79dbf45985aa0b53694789e90d15f756765f23",
                        "s" : "0x001d0f8caa2a16405148c9d85581be5814960010f3cba938b5501590cea1f7cf",
                        "to" : "0x095e7baea6a6c7c4c2dfeb977efac326af552d87",
                        "v" : "0x1b",
                        "value" : "0x0a"
                    }
                ],
                "rlp" : "0xf90260f901f9a031a7517a6a965fe3a44e4bd7e96974353d3becc4ce6a297361d8a51e5db0b863a01dcc4de8dec75d7aab85b567b6ccd41ad312451b948a7413f0a142fd40d49347948888f1f195afa192cfee860698584c030f4c9db1a0856fb66f11bdcbd20f20478bb75d6fa561551896b06a354ae84f4eac1cf3a561a0c673e076264c4669a5c2e479f1757b78e42511efe33b5fd2c0a23b929c7f87f5a03218a5c148a88742bf17461fb0acd6bf6caf81038570f36a5016b10b414fe6f8b90100000000000000000000000000000000000000000000000000000000000000000000000000000000000000000000000000000000000000000000000000000000000000000000000000000000000000000000000000000000000000000000000000000000000000000000000000000000000000000000000000000000000000000000000000000000000000000000000000000000000000000000000000000000000000000000000000000000000000000000000000000000000000000000000000000000000000000000000000000000000000000000000000000000000000000000000000000000000000000000000000000000000000000000000000000000008302000002833007cf82a0428454c9945142a00000000000000000000000000000000000000000000000000000000000000000880000000000000000f861f85f01018304cb2f94095e7baea6a6c7c4c2dfeb977efac326af552d870a801ba033c86e64d708c97c6b135cadff79dbf45985aa0b53694789e90d15f756765f239f1d0f8caa2a16405148c9d85581be5814960010f3cba938b5501590cea1f7cfc0"
            },
            {
                "chainname" : "A",
                "blocknumber" : "3",
                "uncleHeaders" : [
                ],
                "blockHeader" : {
                    "bloom" : "0x00000000000000000000000000000000000000000000000000000000000000000000000000000000000000000000000000000000000000000000000000000000000000000000000000000000000000000000000000000000000000000000000000000000000000000000000000000000000000000000000000000000000000000000000000000000000000000000000000000000000000000000000000000000000000000000000000000000000000000000000000000000000000000000000000000000000000000000000000000000000000000000000000000000000000000000000000000000000000000000000000000000000000000000000000000000",
                    "coinbase" : "0x8888f1f195afa192cfee860698584c030f4c9db1",
                    "difficulty" : "0x020000",
                    "extraData" : "0x42",
                    "gasLimit" : "0x3013cf",
                    "gasUsed" : "0x5208",
                    "hash" : "0xbc516fc116fa4ad4ea73d83ccd53ec0ad53cb80702374419223ea322a9032595",
                    "mixHash" : "0x0000000000000000000000000000000000000000000000000000000000000000",
                    "nonce" : "0x0000000000000000",
                    "number" : "0x03",
                    "parentHash" : "0xc953abd44c5db24c0c1f0ea492d75c8d2c080398a2725ec094323dd7ba13ec5f",
                    "receiptTrie" : "0x056b23fbba480696b65fe5a59b8f2148a1299103c4f57df839233af2cf4ca2d2",
                    "stateRoot" : "0xb2328b65208601ea81789ff1132d3f05c4a45a28a0a030befba568c69340a317",
                    "timestamp" : "0x54c99469",
                    "transactionsTrie" : "0xe4ddf887030952f0f259c5e4ea01be3271c08e931e39f32f7b8fa6d7c772e759",
                    "uncleHash" : "0x1dcc4de8dec75d7aab85b567b6ccd41ad312451b948a7413f0a142fd40d49347"
                },
                "transactions" : [
                    {
                        "data" : "0x",
                        "gasLimit" : "0x04cb2f",
                        "gasPrice" : "0x01",
                        "nonce" : "0x02",
                        "r" : "0x4c5dbd975005a9dd8c5d871ca55eae1ebc2931db605bae918121448cddd02e74",
                        "s" : "0x42df3d63071196c4c66fe0db760150fe7c176f3dce7daba73b5c8bcadc53f102",
                        "to" : "0xa95e7baea6a6c7c4c2dfeb977efac326af552d87",
                        "v" : "0x1c",
                        "value" : "0x0a"
                    }
                ],
                "rlp" : "0xf90261f901f9a0c953abd44c5db24c0c1f0ea492d75c8d2c080398a2725ec094323dd7ba13ec5fa01dcc4de8dec75d7aab85b567b6ccd41ad312451b948a7413f0a142fd40d49347948888f1f195afa192cfee860698584c030f4c9db1a0b2328b65208601ea81789ff1132d3f05c4a45a28a0a030befba568c69340a317a0e4ddf887030952f0f259c5e4ea01be3271c08e931e39f32f7b8fa6d7c772e759a0056b23fbba480696b65fe5a59b8f2148a1299103c4f57df839233af2cf4ca2d2b90100000000000000000000000000000000000000000000000000000000000000000000000000000000000000000000000000000000000000000000000000000000000000000000000000000000000000000000000000000000000000000000000000000000000000000000000000000000000000000000000000000000000000000000000000000000000000000000000000000000000000000000000000000000000000000000000000000000000000000000000000000000000000000000000000000000000000000000000000000000000000000000000000000000000000000000000000000000000000000000000000000000000000000000000000000000008302000003833013cf8252088454c9946942a00000000000000000000000000000000000000000000000000000000000000000880000000000000000f862f86002018304cb2f94a95e7baea6a6c7c4c2dfeb977efac326af552d870a801ca04c5dbd975005a9dd8c5d871ca55eae1ebc2931db605bae918121448cddd02e74a042df3d63071196c4c66fe0db760150fe7c176f3dce7daba73b5c8bcadc53f102c0"
            },
            {
                "chainname" : "B",
                "blocknumber" : "1",
                "uncleHeaders" : [
                ],
                "blockHeader" : {
                    "bloom" : "0x00000000000000000000000000000000000000000000000000000000000000000000000000000000000000000000000000000000000000000000000000000000000000000000000000000000000000000000000000000000000000000000000000000000000000000000000000000000000000000000000000000000000000000000000000000000000000000000000000000000000000000000000000000000000000000000000000000000000000000000000000000000000000000000000000000000000000000000000000000000000000000000000000000000000000000000000000000000000000000000000000000000000000000000000000000000",
                    "coinbase" : "0x8888f1f195afa192cfee860698584c030f4c9db1",
                    "difficulty" : "0x020000",
                    "extraData" : "0x42",
                    "gasLimit" : "0x2ffbd2",
                    "gasUsed" : "0x5208",
                    "hash" : "0xd53890f927de4244eb4ebca7d21ff767c235d27834eedce92a79ee394413a38e",
                    "mixHash" : "0x0000000000000000000000000000000000000000000000000000000000000000",
                    "nonce" : "0x0000000000000000",
                    "number" : "0x01",
                    "parentHash" : "0x89fda572c0dfc82228f6e1ef0943ddd301ae9a03c7d7ce41b994dbdb9f8fbed5",
                    "receiptTrie" : "0x056b23fbba480696b65fe5a59b8f2148a1299103c4f57df839233af2cf4ca2d2",
                    "stateRoot" : "0xdff5ffce79ddf4989989ae67d77cb987d310a788e92b08d4535581e8df54e6e2",
                    "timestamp" : "0x54c99069",
                    "transactionsTrie" : "0xda4ff51d21fb53978f91cc0bae0c01cfe4ed3485b999e4ef55d16441198223b5",
                    "uncleHash" : "0x1dcc4de8dec75d7aab85b567b6ccd41ad312451b948a7413f0a142fd40d49347"
                },
                "transactions" : [
                    {
                        "data" : "0x",
                        "gasLimit" : "0x04cb2f",
                        "gasPrice" : "0x01",
                        "nonce" : "0x00",
                        "r" : "0x8d9a64385e3a24e9f6fdd49256c9f7d23cd501deaa55c5b4283fc58b2a601039",
                        "s" : "0x2518fdccd38aa1caaf4b49c907f750961f325d3d70104a22700b16d9af0d0557",
                        "to" : "0xa95e7baea6a6c7c4c2dfeb977efac326af552d87",
                        "v" : "0x1b",
                        "value" : "0x64"
                    }
                ],
                "rlp" : "0xf90261f901f9a089fda572c0dfc82228f6e1ef0943ddd301ae9a03c7d7ce41b994dbdb9f8fbed5a01dcc4de8dec75d7aab85b567b6ccd41ad312451b948a7413f0a142fd40d49347948888f1f195afa192cfee860698584c030f4c9db1a0dff5ffce79ddf4989989ae67d77cb987d310a788e92b08d4535581e8df54e6e2a0da4ff51d21fb53978f91cc0bae0c01cfe4ed3485b999e4ef55d16441198223b5a0056b23fbba480696b65fe5a59b8f2148a1299103c4f57df839233af2cf4ca2d2b90100000000000000000000000000000000000000000000000000000000000000000000000000000000000000000000000000000000000000000000000000000000000000000000000000000000000000000000000000000000000000000000000000000000000000000000000000000000000000000000000000000000000000000000000000000000000000000000000000000000000000000000000000000000000000000000000000000000000000000000000000000000000000000000000000000000000000000000000000000000000000000000000000000000000000000000000000000000000000000000000000000000000000000000000000000000008302000001832ffbd28252088454c9906942a00000000000000000000000000000000000000000000000000000000000000000880000000000000000f862f86080018304cb2f94a95e7baea6a6c7c4c2dfeb977efac326af552d8764801ba08d9a64385e3a24e9f6fdd49256c9f7d23cd501deaa55c5b4283fc58b2a601039a02518fdccd38aa1caaf4b49c907f750961f325d3d70104a22700b16d9af0d0557c0"
            },
            {
                "chainname" : "B",
                "blocknumber" : "2",
                "uncleHeaders" : [
                ],
                "blockHeader" : {
                    "bloom" : "0x00000000000000000000000000000000000000000000000000000000000000000000000000000000000000000000000000000000000000000000000000000000000000000000000000000000000000000000000000000000000000000000000000000000000000000000000000000000000000000000000000000000000000000000000000000000000000000000000000000000000000000000000000000000000000000000000000000000000000000000000000000000000000000000000000000000000000000000000000000000000000000000000000000000000000000000000000000000000000000000000000000000000000000000000000000000",
                    "coinbase" : "0x8888f1f195afa192cfee860698584c030f4c9db1",
                    "difficulty" : "0x020000",
                    "extraData" : "0x42",
                    "gasLimit" : "0x3007cf",
                    "gasUsed" : "0xa042",
                    "hash" : "0x4ca52a0f55203183c4523d6d10ad3d7e3a413d7071f535d69332088ca2f95f1f",
                    "mixHash" : "0x0000000000000000000000000000000000000000000000000000000000000000",
                    "nonce" : "0x0000000000000000",
                    "number" : "0x02",
                    "parentHash" : "0xd53890f927de4244eb4ebca7d21ff767c235d27834eedce92a79ee394413a38e",
                    "receiptTrie" : "0x3218a5c148a88742bf17461fb0acd6bf6caf81038570f36a5016b10b414fe6f8",
                    "stateRoot" : "0x2c9b41ea883d6a2d5009242335ce425b039e8a3a520e4e68d6c3e1f332ce0758",
                    "timestamp" : "0x54c99451",
                    "transactionsTrie" : "0x7d90b54544a650e638e06d360a7dc2eee226c40373df61476b792ca3eccae35b",
                    "uncleHash" : "0x1dcc4de8dec75d7aab85b567b6ccd41ad312451b948a7413f0a142fd40d49347"
                },
                "transactions" : [
                    {
                        "data" : "0x",
                        "gasLimit" : "0x04bb2b",
                        "gasPrice" : "0x01",
                        "nonce" : "0x01",
                        "r" : "0xb66e1a2ee26689bdbb87af26141f167ded19e6b2041407bf4f80a36ce30a1b1b",
                        "s" : "0x084e5def3deddc4ba0bd7dd8cebf184a8c3a3c2d5d9af5cb642bdf819d2e0be4",
                        "to" : "0x095e7baea6a6c7c4c2dfeb977efac326af552d87",
                        "v" : "0x1c",
                        "value" : "0x64"
                    }
                ],
                "rlp" : "0xf90261f901f9a0d53890f927de4244eb4ebca7d21ff767c235d27834eedce92a79ee394413a38ea01dcc4de8dec75d7aab85b567b6ccd41ad312451b948a7413f0a142fd40d49347948888f1f195afa192cfee860698584c030f4c9db1a02c9b41ea883d6a2d5009242335ce425b039e8a3a520e4e68d6c3e1f332ce0758a07d90b54544a650e638e06d360a7dc2eee226c40373df61476b792ca3eccae35ba03218a5c148a88742bf17461fb0acd6bf6caf81038570f36a5016b10b414fe6f8b90100000000000000000000000000000000000000000000000000000000000000000000000000000000000000000000000000000000000000000000000000000000000000000000000000000000000000000000000000000000000000000000000000000000000000000000000000000000000000000000000000000000000000000000000000000000000000000000000000000000000000000000000000000000000000000000000000000000000000000000000000000000000000000000000000000000000000000000000000000000000000000000000000000000000000000000000000000000000000000000000000000000000000000000000000000000008302000002833007cf82a0428454c9945142a00000000000000000000000000000000000000000000000000000000000000000880000000000000000f862f86001018304bb2b94095e7baea6a6c7c4c2dfeb977efac326af552d8764801ca0b66e1a2ee26689bdbb87af26141f167ded19e6b2041407bf4f80a36ce30a1b1ba0084e5def3deddc4ba0bd7dd8cebf184a8c3a3c2d5d9af5cb642bdf819d2e0be4c0"
            },
            {
                "chainname" : "B",
                "blocknumber" : "3",
                "uncleHeaders" : [
                ],
                "blockHeader" : {
                    "bloom" : "0x00000000000000000000000000000000000000000000000000000000000000000000000000000000000000000000000000000000000000000000000000000000000000000000000000000000000000000000000000000000000000000000000000000000000000000000000000000000000000000000000000000000000000000000000000000000000000000000000000000000000000000000000000000000000000000000000000000000000000000000000000000000000000000000000000000000000000000000000000000000000000000000000000000000000000000000000000000000000000000000000000000000000000000000000000000000",
                    "coinbase" : "0x8888f1f195afa192cfee860698584c030f4c9db1",
                    "difficulty" : "0x020040",
                    "extraData" : "0x42",
                    "gasLimit" : "0x3013cf",
                    "gasUsed" : "0xa78a",
                    "hash" : "0x5cb225106de2080717015b62e7b2cc03e9acdd8fd8aa3602635bbdb66a9d6525",
                    "mixHash" : "0x0000000000000000000000000000000000000000000000000000000000000000",
                    "nonce" : "0x0000000000000000",
                    "number" : "0x03",
                    "parentHash" : "0x4ca52a0f55203183c4523d6d10ad3d7e3a413d7071f535d69332088ca2f95f1f",
                    "receiptTrie" : "0x90d46b126d3754720be652abdcd11fc235a4efb0d4b0a1f23757b072b3ac147e",
                    "stateRoot" : "0xbf1586bf3a5cf3231cc401be969466deeaaa12b776f72e38a60e4a6a1d9b5da2",
                    "timestamp" : "0x54c99455",
                    "transactionsTrie" : "0xdc4835e461e554b15b7cff146b8f5e4790884dc5b95ba55dcdb9413324e8e9d1",
                    "uncleHash" : "0x1dcc4de8dec75d7aab85b567b6ccd41ad312451b948a7413f0a142fd40d49347"
                },
                "transactions" : [
                    {
                        "data" : "0x34534540",
                        "gasLimit" : "0x04bced",
                        "gasPrice" : "0x01",
                        "nonce" : "0x02",
                        "r" : "0x01b915c97ee89b7016ee84e5466b4cd53977ace84e8dd3e9030652862e722ea9",
                        "s" : "0x367362887662049d155f976aedec5a5c4083b88bb0761b889ef8961f83fc6493",
                        "to" : "0xa95e7baea6a6c7c4c2dfeb977efac326af552d87",
                        "v" : "0x1c",
                        "value" : "0x64"
                    },
                    {
                        "data" : "0x",
                        "gasLimit" : "0x04bced",
                        "gasPrice" : "0x01",
                        "nonce" : "0x03",
                        "r" : "0xf744123591e70b1daa1c642f5d229b1aff459c3fc3e14bb883cc3963b3baefaf",
                        "s" : "0x79a36255b16361f7c101ed3144f1f97308731ddffa6dab8c3304918d6b937007",
                        "to" : "0x095e7baea6a6c7c4c2dfeb977efac326af552d87",
                        "v" : "0x1c",
                        "value" : "0x14"
                    }
                ],
                "rlp" : "0xf902c7f901f9a04ca52a0f55203183c4523d6d10ad3d7e3a413d7071f535d69332088ca2f95f1fa01dcc4de8dec75d7aab85b567b6ccd41ad312451b948a7413f0a142fd40d49347948888f1f195afa192cfee860698584c030f4c9db1a0bf1586bf3a5cf3231cc401be969466deeaaa12b776f72e38a60e4a6a1d9b5da2a0dc4835e461e554b15b7cff146b8f5e4790884dc5b95ba55dcdb9413324e8e9d1a090d46b126d3754720be652abdcd11fc235a4efb0d4b0a1f23757b072b3ac147eb90100000000000000000000000000000000000000000000000000000000000000000000000000000000000000000000000000000000000000000000000000000000000000000000000000000000000000000000000000000000000000000000000000000000000000000000000000000000000000000000000000000000000000000000000000000000000000000000000000000000000000000000000000000000000000000000000000000000000000000000000000000000000000000000000000000000000000000000000000000000000000000000000000000000000000000000000000000000000000000000000000000000000000000000000000000000008302004003833013cf82a78a8454c9945542a00000000000000000000000000000000000000000000000000000000000000000880000000000000000f8c8f86402018304bced94a95e7baea6a6c7c4c2dfeb977efac326af552d876484345345401ca001b915c97ee89b7016ee84e5466b4cd53977ace84e8dd3e9030652862e722ea9a0367362887662049d155f976aedec5a5c4083b88bb0761b889ef8961f83fc6493f86003018304bced94095e7baea6a6c7c4c2dfeb977efac326af552d8714801ca0f744123591e70b1daa1c642f5d229b1aff459c3fc3e14bb883cc3963b3baefafa079a36255b16361f7c101ed3144f1f97308731ddffa6dab8c3304918d6b937007c0"
            },
            {
                "chainname" : "B",
                "blocknumber" : "4",
                "uncleHeaders" : [
                ],
                "blockHeader" : {
                    "bloom" : "0x00000000000000000000000000000000000000000000000000000000000000000000000000000000000000000000000000000000000000000000000000000000000000000000000000000000000000000000000000000000000000000000000000000000000000000000000000000000000000000000000000000000000000000000000000000000000000000000000000000000000000000000000000000000000000000000000000000000000000000000000000000000000000000000000000000000000000000000000000000000000000000000000000000000000000000000000000000000000000000000000000000000000000000000000000000000",
                    "coinbase" : "0x8888f1f195afa192cfee860698584c030f4c9db1",
                    "difficulty" : "0x020000",
                    "extraData" : "0x42",
                    "gasLimit" : "0x301fd2",
                    "gasUsed" : "0x00",
                    "hash" : "0xe37ec330ac22ec58b3ba7c297ff5bfc2c3ad1809810102d2d3e449933748f13d",
                    "mixHash" : "0x0000000000000000000000000000000000000000000000000000000000000000",
                    "nonce" : "0x0000000000000000",
                    "number" : "0x04",
                    "parentHash" : "0x5cb225106de2080717015b62e7b2cc03e9acdd8fd8aa3602635bbdb66a9d6525",
                    "receiptTrie" : "0x56e81f171bcc55a6ff8345e692c0f86e5b48e01b996cadc001622fb5e363b421",
                    "stateRoot" : "0xbc221a3f6a85de2410551624bc6cc357398b73e5d3463b75e089f1a3bc80774d",
                    "timestamp" : "0x54c9983d",
                    "transactionsTrie" : "0x56e81f171bcc55a6ff8345e692c0f86e5b48e01b996cadc001622fb5e363b421",
                    "uncleHash" : "0x1dcc4de8dec75d7aab85b567b6ccd41ad312451b948a7413f0a142fd40d49347"
                },
                "transactions" : [
                ],
                "rlp" : "0xf901fcf901f7a05cb225106de2080717015b62e7b2cc03e9acdd8fd8aa3602635bbdb66a9d6525a01dcc4de8dec75d7aab85b567b6ccd41ad312451b948a7413f0a142fd40d49347948888f1f195afa192cfee860698584c030f4c9db1a0bc221a3f6a85de2410551624bc6cc357398b73e5d3463b75e089f1a3bc80774da056e81f171bcc55a6ff8345e692c0f86e5b48e01b996cadc001622fb5e363b421a056e81f171bcc55a6ff8345e692c0f86e5b48e01b996cadc001622fb5e363b421b9010000000000000000000000000000000000000000000000000000000000000000000000000000000000000000000000000000000000000000000000000000000000000000000000000000000000000000000000000000000000000000000000000000000000000000000000000000000000000000000000000000000000000000000000000000000000000000000000000000000000000000000000000000000000000000000000000000000000000000000000000000000000000000000000000000000000000000000000000000000000000000000000000000000000000000000000000000000000000000000000000000000000000000000000000000000000830200000483301fd2808454c9983d42a00000000000000000000000000000000000000000000000000000000000000000880000000000000000c0c0"
            }
        ],
        "postState" : {
            "0xa94f5374fce5edbc8e2a8697c15331677e6ebf0b" : {
                "code" : "0x",
                "nonce" : "0x04",
                "balance" : "0x09184e7104ec",
                "storage" : {
                }
            },
            "0x095e7baea6a6c7c4c2dfeb977efac326af552d87" : {
                "code" : "0x60014060015500",
                "nonce" : "0x00",
                "balance" : "0x09184e72a078",
                "storage" : {
                    "0x01" : "0xd53890f927de4244eb4ebca7d21ff767c235d27834eedce92a79ee394413a38e"
                }
            },
            "0xa95e7baea6a6c7c4c2dfeb977efac326af552d87" : {
                "code" : "0x",
                "nonce" : "0x00",
                "balance" : "0xc8",
                "storage" : {
                }
            },
            "0x8888f1f195afa192cfee860698584c030f4c9db1" : {
                "code" : "0x",
                "nonce" : "0x00",
                "balance" : "0x6f05b59d3b2199d4",
                "storage" : {
                }
            }
        },
        "lastblockhash" : "0xe37ec330ac22ec58b3ba7c297ff5bfc2c3ad1809810102d2d3e449933748f13d"
    }
}