{
    "ChainAtoChainB_BlockHash_Istanbul" : {
        "_info" : {
            "comment" : "",
            "filledwith" : "testeth 1.8.0-alpha.0-12+commit.b120a12c.dirty",
            "lllcversion" : "Version: 0.5.12-develop.2019.9.13+commit.2d601a4f.Linux.g++",
            "source" : "src/BlockchainTestsFiller/ValidBlocks/bcMultiChainTest/ChainAtoChainB_BlockHashFiller.json",
            "sourceHash" : "316566791aa7712392c00e64f25875a64c48bdbfb20a900fc6c3dd368bb7e743"
        },
        "blocks" : [
            {
                "blockHeader" : {
                    "bloom" : "0x00000000000000000000000000000000000000000000000000000000000000000000000000000000000000000000000000000000000000000000000000000000000000000000000000000000000000000000000000000000000000000000000000000000000000000000000000000000000000000000000000000000000000000000000000000000000000000000000000000000000000000000000000000000000000000000000000000000000000000000000000000000000000000000000000000000000000000000000000000000000000000000000000000000000000000000000000000000000000000000000000000000000000000000000000000000",
                    "coinbase" : "0x8888f1f195afa192cfee860698584c030f4c9db1",
                    "difficulty" : "0x020000",
                    "extraData" : "",
                    "gasLimit" : "0x2fefba",
                    "gasUsed" : "0x5208",
                    "hash" : "0x419d415d5581a789dc1c68c3dda461e9a2497957b6a6d8f017a77e20686de869",
                    "mixHash" : "0xca82bbb4349fcfe41c739cbf9d805740b0bf28978aed84adc6c95d59257f1a44",
                    "nonce" : "0xd794e55daf526d2c",
                    "number" : "0x01",
                    "parentHash" : "0x5fe820cd7eaea7e661d919a12ef6d5f075c74af92902d36c303582bc0361d2b1",
                    "receiptTrie" : "0x056b23fbba480696b65fe5a59b8f2148a1299103c4f57df839233af2cf4ca2d2",
                    "stateRoot" : "0xffdec9148a41d4aa012c41256989581c54c63db8d75693ce27f7aded5f5db9d6",
                    "timestamp" : "0x5db731c9",
                    "transactionsTrie" : "0xf80217763f8d00269566918ebd3c7729465f8b9818a0f437bf215a8190884d5d",
                    "uncleHash" : "0x1dcc4de8dec75d7aab85b567b6ccd41ad312451b948a7413f0a142fd40d49347"
                },
                "blocknumber" : "1",
                "chainname" : "A",
                "rlp" : "0xf90261f901f9a05fe820cd7eaea7e661d919a12ef6d5f075c74af92902d36c303582bc0361d2b1a01dcc4de8dec75d7aab85b567b6ccd41ad312451b948a7413f0a142fd40d49347948888f1f195afa192cfee860698584c030f4c9db1a0ffdec9148a41d4aa012c41256989581c54c63db8d75693ce27f7aded5f5db9d6a0f80217763f8d00269566918ebd3c7729465f8b9818a0f437bf215a8190884d5da0056b23fbba480696b65fe5a59b8f2148a1299103c4f57df839233af2cf4ca2d2b90100000000000000000000000000000000000000000000000000000000000000000000000000000000000000000000000000000000000000000000000000000000000000000000000000000000000000000000000000000000000000000000000000000000000000000000000000000000000000000000000000000000000000000000000000000000000000000000000000000000000000000000000000000000000000000000000000000000000000000000000000000000000000000000000000000000000000000000000000000000000000000000000000000000000000000000000000000000000000000000000000000000000000000000000000000000008302000001832fefba825208845db731c980a0ca82bbb4349fcfe41c739cbf9d805740b0bf28978aed84adc6c95d59257f1a4488d794e55daf526d2cf862f86080018304cb2f94a95e7baea6a6c7c4c2dfeb977efac326af552d870a801ca0886931af2e4e440628e6e862e50944534ff3068c38cabb908dc708fa3736bfe0a03de874195b35641546d6c48409cca106127e5260a67fe7ed21a35dfb1f7a08b5c0",
                "transactions" : [
                    {
                        "data" : "0x",
                        "gasLimit" : "0x04cb2f",
                        "gasPrice" : "0x01",
                        "nonce" : "0x00",
                        "r" : "0x886931af2e4e440628e6e862e50944534ff3068c38cabb908dc708fa3736bfe0",
                        "s" : "0x3de874195b35641546d6c48409cca106127e5260a67fe7ed21a35dfb1f7a08b5",
                        "to" : "0xa95e7baea6a6c7c4c2dfeb977efac326af552d87",
                        "v" : "0x1c",
                        "value" : "0x0a"
                    }
                ],
                "uncleHeaders" : [
                ]
            },
            {
                "blockHeader" : {
                    "bloom" : "0x00000000000000000000000000000000000000000000000000000000000000000000000000000000000000000000000000000000000000000000000000000000000000000000000000000000000000000000000000000000000000000000000000000000000000000000000000000000000000000000000000000000000000000000000000000000000000000000000000000000000000000000000000000000000000000000000000000000000000000000000000000000000000000000000000000000000000000000000000000000000000000000000000000000000000000000000000000000000000000000000000000000000000000000000000000000",
                    "coinbase" : "0x8888f1f195afa192cfee860698584c030f4c9db1",
                    "difficulty" : "0x020040",
                    "extraData" : "",
                    "gasLimit" : "0x2fefba",
                    "gasUsed" : "0xa042",
                    "hash" : "0x4d9fc086c211bf47d6ef921148150b038fc14dfcc6da2cc6d2ea0209d191c2d6",
                    "mixHash" : "0xa5367c78c8ef3c8ef47369e5262939ed2ec8a29598eb2c59f2dca76f30229223",
                    "nonce" : "0x6bfa0a1cde83a4e2",
                    "number" : "0x02",
                    "parentHash" : "0x419d415d5581a789dc1c68c3dda461e9a2497957b6a6d8f017a77e20686de869",
                    "receiptTrie" : "0x3218a5c148a88742bf17461fb0acd6bf6caf81038570f36a5016b10b414fe6f8",
                    "stateRoot" : "0x334f5cb014b83c9df5007a0e7f358c58ba0e3528d634c3e55c238fbe399b321b",
                    "timestamp" : "0x5db731ca",
                    "transactionsTrie" : "0xc673e076264c4669a5c2e479f1757b78e42511efe33b5fd2c0a23b929c7f87f5",
                    "uncleHash" : "0x1dcc4de8dec75d7aab85b567b6ccd41ad312451b948a7413f0a142fd40d49347"
                },
                "blocknumber" : "2",
                "chainname" : "A",
                "rlp" : "0xf90260f901f9a0419d415d5581a789dc1c68c3dda461e9a2497957b6a6d8f017a77e20686de869a01dcc4de8dec75d7aab85b567b6ccd41ad312451b948a7413f0a142fd40d49347948888f1f195afa192cfee860698584c030f4c9db1a0334f5cb014b83c9df5007a0e7f358c58ba0e3528d634c3e55c238fbe399b321ba0c673e076264c4669a5c2e479f1757b78e42511efe33b5fd2c0a23b929c7f87f5a03218a5c148a88742bf17461fb0acd6bf6caf81038570f36a5016b10b414fe6f8b90100000000000000000000000000000000000000000000000000000000000000000000000000000000000000000000000000000000000000000000000000000000000000000000000000000000000000000000000000000000000000000000000000000000000000000000000000000000000000000000000000000000000000000000000000000000000000000000000000000000000000000000000000000000000000000000000000000000000000000000000000000000000000000000000000000000000000000000000000000000000000000000000000000000000000000000000000000000000000000000000000000000000000000000000000000000008302004002832fefba82a042845db731ca80a0a5367c78c8ef3c8ef47369e5262939ed2ec8a29598eb2c59f2dca76f30229223886bfa0a1cde83a4e2f861f85f01018304cb2f94095e7baea6a6c7c4c2dfeb977efac326af552d870a801ba033c86e64d708c97c6b135cadff79dbf45985aa0b53694789e90d15f756765f239f1d0f8caa2a16405148c9d85581be5814960010f3cba938b5501590cea1f7cfc0",
                "transactions" : [
                    {
                        "data" : "0x",
                        "gasLimit" : "0x04cb2f",
                        "gasPrice" : "0x01",
                        "nonce" : "0x01",
                        "r" : "0x33c86e64d708c97c6b135cadff79dbf45985aa0b53694789e90d15f756765f23",
                        "s" : "0x1d0f8caa2a16405148c9d85581be5814960010f3cba938b5501590cea1f7cf",
                        "to" : "0x095e7baea6a6c7c4c2dfeb977efac326af552d87",
                        "v" : "0x1b",
                        "value" : "0x0a"
                    }
                ],
                "uncleHeaders" : [
                ]
            },
            {
                "blockHeader" : {
                    "bloom" : "0x00000000000000000000000000000000000000000000000000000000000000000000000000000000000000000000000000000000000000000000000000000000000000000000000000000000000000000000000000000000000000000000000000000000000000000000000000000000000000000000000000000000000000000000000000000000000000000000000000000000000000000000000000000000000000000000000000000000000000000000000000000000000000000000000000000000000000000000000000000000000000000000000000000000000000000000000000000000000000000000000000000000000000000000000000000000",
                    "coinbase" : "0x8888f1f195afa192cfee860698584c030f4c9db1",
                    "difficulty" : "0x020000",
                    "extraData" : "",
                    "gasLimit" : "0x2fefba",
                    "gasUsed" : "0x5208",
                    "hash" : "0xa1fcd4599fea78bc1937377dd5be52b2f04819d41986b9b767e2f670aeb5a383",
                    "mixHash" : "0xcc564613624b4888d32807cecdc16a5cb8e4c213e9e8695b3b6a82816009c125",
                    "nonce" : "0xfb340ad110dbdef8",
                    "number" : "0x03",
                    "parentHash" : "0x4d9fc086c211bf47d6ef921148150b038fc14dfcc6da2cc6d2ea0209d191c2d6",
                    "receiptTrie" : "0x056b23fbba480696b65fe5a59b8f2148a1299103c4f57df839233af2cf4ca2d2",
                    "stateRoot" : "0x91074f61c1cbdc2dfee9b8644fcdca5f8ff902f0585c004f4d6e614c2d8e751b",
                    "timestamp" : "0x5db731e2",
                    "transactionsTrie" : "0xe4ddf887030952f0f259c5e4ea01be3271c08e931e39f32f7b8fa6d7c772e759",
                    "uncleHash" : "0x1dcc4de8dec75d7aab85b567b6ccd41ad312451b948a7413f0a142fd40d49347"
                },
                "blocknumber" : "3",
                "chainname" : "A",
                "rlp" : "0xf90261f901f9a04d9fc086c211bf47d6ef921148150b038fc14dfcc6da2cc6d2ea0209d191c2d6a01dcc4de8dec75d7aab85b567b6ccd41ad312451b948a7413f0a142fd40d49347948888f1f195afa192cfee860698584c030f4c9db1a091074f61c1cbdc2dfee9b8644fcdca5f8ff902f0585c004f4d6e614c2d8e751ba0e4ddf887030952f0f259c5e4ea01be3271c08e931e39f32f7b8fa6d7c772e759a0056b23fbba480696b65fe5a59b8f2148a1299103c4f57df839233af2cf4ca2d2b90100000000000000000000000000000000000000000000000000000000000000000000000000000000000000000000000000000000000000000000000000000000000000000000000000000000000000000000000000000000000000000000000000000000000000000000000000000000000000000000000000000000000000000000000000000000000000000000000000000000000000000000000000000000000000000000000000000000000000000000000000000000000000000000000000000000000000000000000000000000000000000000000000000000000000000000000000000000000000000000000000000000000000000000000000000000008302000003832fefba825208845db731e280a0cc564613624b4888d32807cecdc16a5cb8e4c213e9e8695b3b6a82816009c12588fb340ad110dbdef8f862f86002018304cb2f94a95e7baea6a6c7c4c2dfeb977efac326af552d870a801ca04c5dbd975005a9dd8c5d871ca55eae1ebc2931db605bae918121448cddd02e74a042df3d63071196c4c66fe0db760150fe7c176f3dce7daba73b5c8bcadc53f102c0",
                "transactions" : [
                    {
                        "data" : "0x",
                        "gasLimit" : "0x04cb2f",
                        "gasPrice" : "0x01",
                        "nonce" : "0x02",
                        "r" : "0x4c5dbd975005a9dd8c5d871ca55eae1ebc2931db605bae918121448cddd02e74",
                        "s" : "0x42df3d63071196c4c66fe0db760150fe7c176f3dce7daba73b5c8bcadc53f102",
                        "to" : "0xa95e7baea6a6c7c4c2dfeb977efac326af552d87",
                        "v" : "0x1c",
                        "value" : "0x0a"
                    }
                ],
                "uncleHeaders" : [
                ]
            },
            {
                "blockHeader" : {
                    "bloom" : "0x00000000000000000000000000000000000000000000000000000000000000000000000000000000000000000000000000000000000000000000000000000000000000000000000000000000000000000000000000000000000000000000000000000000000000000000000000000000000000000000000000000000000000000000000000000000000000000000000000000000000000000000000000000000000000000000000000000000000000000000000000000000000000000000000000000000000000000000000000000000000000000000000000000000000000000000000000000000000000000000000000000000000000000000000000000000",
                    "coinbase" : "0x8888f1f195afa192cfee860698584c030f4c9db1",
                    "difficulty" : "0x020000",
                    "extraData" : "",
                    "gasLimit" : "0x2fefba",
                    "gasUsed" : "0x5208",
                    "hash" : "0xcf7327323258a2454354ed499fb2ae30ead3f2c7d006e53e8e845d8cb7b77a62",
                    "mixHash" : "0x0cfb95ef2ef4b13f89d619dfb49451ac9b623d97ffa9ad119e63a1f55efadb9b",
                    "nonce" : "0x323b9ba4b71c25a4",
                    "number" : "0x01",
                    "parentHash" : "0x5fe820cd7eaea7e661d919a12ef6d5f075c74af92902d36c303582bc0361d2b1",
                    "receiptTrie" : "0x056b23fbba480696b65fe5a59b8f2148a1299103c4f57df839233af2cf4ca2d2",
                    "stateRoot" : "0xdff5ffce79ddf4989989ae67d77cb987d310a788e92b08d4535581e8df54e6e2",
                    "timestamp" : "0x5db731cc",
                    "transactionsTrie" : "0xda4ff51d21fb53978f91cc0bae0c01cfe4ed3485b999e4ef55d16441198223b5",
                    "uncleHash" : "0x1dcc4de8dec75d7aab85b567b6ccd41ad312451b948a7413f0a142fd40d49347"
                },
                "blocknumber" : "1",
                "chainname" : "B",
                "rlp" : "0xf90261f901f9a05fe820cd7eaea7e661d919a12ef6d5f075c74af92902d36c303582bc0361d2b1a01dcc4de8dec75d7aab85b567b6ccd41ad312451b948a7413f0a142fd40d49347948888f1f195afa192cfee860698584c030f4c9db1a0dff5ffce79ddf4989989ae67d77cb987d310a788e92b08d4535581e8df54e6e2a0da4ff51d21fb53978f91cc0bae0c01cfe4ed3485b999e4ef55d16441198223b5a0056b23fbba480696b65fe5a59b8f2148a1299103c4f57df839233af2cf4ca2d2b90100000000000000000000000000000000000000000000000000000000000000000000000000000000000000000000000000000000000000000000000000000000000000000000000000000000000000000000000000000000000000000000000000000000000000000000000000000000000000000000000000000000000000000000000000000000000000000000000000000000000000000000000000000000000000000000000000000000000000000000000000000000000000000000000000000000000000000000000000000000000000000000000000000000000000000000000000000000000000000000000000000000000000000000000000000000008302000001832fefba825208845db731cc80a00cfb95ef2ef4b13f89d619dfb49451ac9b623d97ffa9ad119e63a1f55efadb9b88323b9ba4b71c25a4f862f86080018304cb2f94a95e7baea6a6c7c4c2dfeb977efac326af552d8764801ba08d9a64385e3a24e9f6fdd49256c9f7d23cd501deaa55c5b4283fc58b2a601039a02518fdccd38aa1caaf4b49c907f750961f325d3d70104a22700b16d9af0d0557c0",
                "transactions" : [
                    {
                        "data" : "0x",
                        "gasLimit" : "0x04cb2f",
                        "gasPrice" : "0x01",
                        "nonce" : "0x00",
                        "r" : "0x8d9a64385e3a24e9f6fdd49256c9f7d23cd501deaa55c5b4283fc58b2a601039",
                        "s" : "0x2518fdccd38aa1caaf4b49c907f750961f325d3d70104a22700b16d9af0d0557",
                        "to" : "0xa95e7baea6a6c7c4c2dfeb977efac326af552d87",
                        "v" : "0x1b",
                        "value" : "0x64"
                    }
                ],
                "uncleHeaders" : [
                ]
            },
            {
                "blockHeader" : {
                    "bloom" : "0x00000000000000000000000000000000000000000000000000000000000000000000000000000000000000000000000000000000000000000000000000000000000000000000000000000000000000000000000000000000000000000000000000000000000000000000000000000000000000000000000000000000000000000000000000000000000000000000000000000000000000000000000000000000000000000000000000000000000000000000000000000000000000000000000000000000000000000000000000000000000000000000000000000000000000000000000000000000000000000000000000000000000000000000000000000000",
                    "coinbase" : "0x8888f1f195afa192cfee860698584c030f4c9db1",
                    "difficulty" : "0x020040",
                    "extraData" : "",
                    "gasLimit" : "0x2fefba",
                    "gasUsed" : "0xa042",
                    "hash" : "0xf3da05c00ef7d41e8631308d337455bb81de57f6ce4a78b4089fed577b7cc821",
                    "mixHash" : "0xc0ba2a22d15b2ea7b0c33d5bbd8601a8566d1e073d9bf83b5bae1807f88d846a",
                    "nonce" : "0xf86d76d09a1cfec7",
                    "number" : "0x02",
                    "parentHash" : "0xcf7327323258a2454354ed499fb2ae30ead3f2c7d006e53e8e845d8cb7b77a62",
                    "receiptTrie" : "0x3218a5c148a88742bf17461fb0acd6bf6caf81038570f36a5016b10b414fe6f8",
                    "stateRoot" : "0x123c59257cc905a9a6d6d2b2e252560ee00d5ff53f823d4a6fc004b5bc21ff27",
                    "timestamp" : "0x5db731cd",
                    "transactionsTrie" : "0x7d90b54544a650e638e06d360a7dc2eee226c40373df61476b792ca3eccae35b",
                    "uncleHash" : "0x1dcc4de8dec75d7aab85b567b6ccd41ad312451b948a7413f0a142fd40d49347"
                },
                "blocknumber" : "2",
                "chainname" : "B",
                "rlp" : "0xf90261f901f9a0cf7327323258a2454354ed499fb2ae30ead3f2c7d006e53e8e845d8cb7b77a62a01dcc4de8dec75d7aab85b567b6ccd41ad312451b948a7413f0a142fd40d49347948888f1f195afa192cfee860698584c030f4c9db1a0123c59257cc905a9a6d6d2b2e252560ee00d5ff53f823d4a6fc004b5bc21ff27a07d90b54544a650e638e06d360a7dc2eee226c40373df61476b792ca3eccae35ba03218a5c148a88742bf17461fb0acd6bf6caf81038570f36a5016b10b414fe6f8b90100000000000000000000000000000000000000000000000000000000000000000000000000000000000000000000000000000000000000000000000000000000000000000000000000000000000000000000000000000000000000000000000000000000000000000000000000000000000000000000000000000000000000000000000000000000000000000000000000000000000000000000000000000000000000000000000000000000000000000000000000000000000000000000000000000000000000000000000000000000000000000000000000000000000000000000000000000000000000000000000000000000000000000000000000000000008302004002832fefba82a042845db731cd80a0c0ba2a22d15b2ea7b0c33d5bbd8601a8566d1e073d9bf83b5bae1807f88d846a88f86d76d09a1cfec7f862f86001018304bb2b94095e7baea6a6c7c4c2dfeb977efac326af552d8764801ca0b66e1a2ee26689bdbb87af26141f167ded19e6b2041407bf4f80a36ce30a1b1ba0084e5def3deddc4ba0bd7dd8cebf184a8c3a3c2d5d9af5cb642bdf819d2e0be4c0",
                "transactions" : [
                    {
                        "data" : "0x",
                        "gasLimit" : "0x04bb2b",
                        "gasPrice" : "0x01",
                        "nonce" : "0x01",
                        "r" : "0xb66e1a2ee26689bdbb87af26141f167ded19e6b2041407bf4f80a36ce30a1b1b",
                        "s" : "0x084e5def3deddc4ba0bd7dd8cebf184a8c3a3c2d5d9af5cb642bdf819d2e0be4",
                        "to" : "0x095e7baea6a6c7c4c2dfeb977efac326af552d87",
                        "v" : "0x1c",
                        "value" : "0x64"
                    }
                ],
                "uncleHeaders" : [
                ]
            },
            {
                "blockHeader" : {
                    "bloom" : "0x00000000000000000000000000000000000000000000000000000000000000000000000000000000000000000000000000000000000000000000000000000000000000000000000000000000000000000000000000000000000000000000000000000000000000000000000000000000000000000000000000000000000000000000000000000000000000000000000000000000000000000000000000000000000000000000000000000000000000000000000000000000000000000000000000000000000000000000000000000000000000000000000000000000000000000000000000000000000000000000000000000000000000000000000000000000",
                    "coinbase" : "0x8888f1f195afa192cfee860698584c030f4c9db1",
                    "difficulty" : "0x020080",
                    "extraData" : "",
                    "gasLimit" : "0x2fefba",
                    "gasUsed" : "0xa78a",
                    "hash" : "0x9659c015890e9b3cc8e85ba4a83b1c25fcc1c90b7e8ffd764f6fc7a4eace8ae7",
                    "mixHash" : "0x478d2769bbcf30dfdbff0e1c4762556bad9ffa8149a2722b977fc5a1be65a59f",
                    "nonce" : "0x4ef583d75dc7b81f",
                    "number" : "0x03",
                    "parentHash" : "0xf3da05c00ef7d41e8631308d337455bb81de57f6ce4a78b4089fed577b7cc821",
                    "receiptTrie" : "0x90d46b126d3754720be652abdcd11fc235a4efb0d4b0a1f23757b072b3ac147e",
                    "stateRoot" : "0x1585a89f25f142a6af92b7113ce99e737c0862187772f0184c2247748eb916e0",
                    "timestamp" : "0x5db731d1",
                    "transactionsTrie" : "0xdc4835e461e554b15b7cff146b8f5e4790884dc5b95ba55dcdb9413324e8e9d1",
                    "uncleHash" : "0x1dcc4de8dec75d7aab85b567b6ccd41ad312451b948a7413f0a142fd40d49347"
                },
                "blocknumber" : "3",
                "chainname" : "B",
                "rlp" : "0xf902c7f901f9a0f3da05c00ef7d41e8631308d337455bb81de57f6ce4a78b4089fed577b7cc821a01dcc4de8dec75d7aab85b567b6ccd41ad312451b948a7413f0a142fd40d49347948888f1f195afa192cfee860698584c030f4c9db1a01585a89f25f142a6af92b7113ce99e737c0862187772f0184c2247748eb916e0a0dc4835e461e554b15b7cff146b8f5e4790884dc5b95ba55dcdb9413324e8e9d1a090d46b126d3754720be652abdcd11fc235a4efb0d4b0a1f23757b072b3ac147eb90100000000000000000000000000000000000000000000000000000000000000000000000000000000000000000000000000000000000000000000000000000000000000000000000000000000000000000000000000000000000000000000000000000000000000000000000000000000000000000000000000000000000000000000000000000000000000000000000000000000000000000000000000000000000000000000000000000000000000000000000000000000000000000000000000000000000000000000000000000000000000000000000000000000000000000000000000000000000000000000000000000000000000000000000000000000008302008003832fefba82a78a845db731d180a0478d2769bbcf30dfdbff0e1c4762556bad9ffa8149a2722b977fc5a1be65a59f884ef583d75dc7b81ff8c8f86402018304bced94a95e7baea6a6c7c4c2dfeb977efac326af552d876484345345401ca001b915c97ee89b7016ee84e5466b4cd53977ace84e8dd3e9030652862e722ea9a0367362887662049d155f976aedec5a5c4083b88bb0761b889ef8961f83fc6493f86003018304bced94095e7baea6a6c7c4c2dfeb977efac326af552d8714801ca0f744123591e70b1daa1c642f5d229b1aff459c3fc3e14bb883cc3963b3baefafa079a36255b16361f7c101ed3144f1f97308731ddffa6dab8c3304918d6b937007c0",
                "transactions" : [
                    {
                        "data" : "0x34534540",
                        "gasLimit" : "0x04bced",
                        "gasPrice" : "0x01",
                        "nonce" : "0x02",
                        "r" : "0x01b915c97ee89b7016ee84e5466b4cd53977ace84e8dd3e9030652862e722ea9",
                        "s" : "0x367362887662049d155f976aedec5a5c4083b88bb0761b889ef8961f83fc6493",
                        "to" : "0xa95e7baea6a6c7c4c2dfeb977efac326af552d87",
                        "v" : "0x1c",
                        "value" : "0x64"
                    },
                    {
                        "data" : "0x",
                        "gasLimit" : "0x04bced",
                        "gasPrice" : "0x01",
                        "nonce" : "0x03",
                        "r" : "0xf744123591e70b1daa1c642f5d229b1aff459c3fc3e14bb883cc3963b3baefaf",
                        "s" : "0x79a36255b16361f7c101ed3144f1f97308731ddffa6dab8c3304918d6b937007",
                        "to" : "0x095e7baea6a6c7c4c2dfeb977efac326af552d87",
                        "v" : "0x1c",
                        "value" : "0x14"
                    }
                ],
                "uncleHeaders" : [
                ]
            },
            {
                "blockHeader" : {
                    "bloom" : "0x00000000000000000000000000000000000000000000000000000000000000000000000000000000000000000000000000000000000000000000000000000000000000000000000000000000000000000000000000000000000000000000000000000000000000000000000000000000000000000000000000000000000000000000000000000000000000000000000000000000000000000000000000000000000000000000000000000000000000000000000000000000000000000000000000000000000000000000000000000000000000000000000000000000000000000000000000000000000000000000000000000000000000000000000000000000",
                    "coinbase" : "0x8888f1f195afa192cfee860698584c030f4c9db1",
                    "difficulty" : "0x0200c0",
                    "extraData" : "",
                    "gasLimit" : "0x2fefba",
                    "gasUsed" : "0x00",
                    "hash" : "0x63427550f1affd7f4ee0cd6ec390269fd03d7f29e9300a437496c2d28cb9d53c",
                    "mixHash" : "0x9dc5288b65601107286e28d8432880a3458c2174e92c149230afd3ac7282adcc",
                    "nonce" : "0xb0ba3fe0cdc0fb1d",
                    "number" : "0x04",
                    "parentHash" : "0x9659c015890e9b3cc8e85ba4a83b1c25fcc1c90b7e8ffd764f6fc7a4eace8ae7",
                    "receiptTrie" : "0x56e81f171bcc55a6ff8345e692c0f86e5b48e01b996cadc001622fb5e363b421",
                    "stateRoot" : "0x7ba175de873da233a4429e1a5050d0b2c281097d1a34df654ccd4cf06ddec76b",
                    "timestamp" : "0x5db731d2",
                    "transactionsTrie" : "0x56e81f171bcc55a6ff8345e692c0f86e5b48e01b996cadc001622fb5e363b421",
                    "uncleHash" : "0x1dcc4de8dec75d7aab85b567b6ccd41ad312451b948a7413f0a142fd40d49347"
                },
                "blocknumber" : "4",
                "chainname" : "B",
                "rlp" : "0xf901fcf901f7a09659c015890e9b3cc8e85ba4a83b1c25fcc1c90b7e8ffd764f6fc7a4eace8ae7a01dcc4de8dec75d7aab85b567b6ccd41ad312451b948a7413f0a142fd40d49347948888f1f195afa192cfee860698584c030f4c9db1a07ba175de873da233a4429e1a5050d0b2c281097d1a34df654ccd4cf06ddec76ba056e81f171bcc55a6ff8345e692c0f86e5b48e01b996cadc001622fb5e363b421a056e81f171bcc55a6ff8345e692c0f86e5b48e01b996cadc001622fb5e363b421b9010000000000000000000000000000000000000000000000000000000000000000000000000000000000000000000000000000000000000000000000000000000000000000000000000000000000000000000000000000000000000000000000000000000000000000000000000000000000000000000000000000000000000000000000000000000000000000000000000000000000000000000000000000000000000000000000000000000000000000000000000000000000000000000000000000000000000000000000000000000000000000000000000000000000000000000000000000000000000000000000000000000000000000000000000000000000830200c004832fefba80845db731d280a09dc5288b65601107286e28d8432880a3458c2174e92c149230afd3ac7282adcc88b0ba3fe0cdc0fb1dc0c0",
                "transactions" : [
                ],
                "uncleHeaders" : [
                ]
            }
        ],
        "genesisBlockHeader" : {
            "bloom" : "0x00000000000000000000000000000000000000000000000000000000000000000000000000000000000000000000000000000000000000000000000000000000000000000000000000000000000000000000000000000000000000000000000000000000000000000000000000000000000000000000000000000000000000000000000000000000000000000000000000000000000000000000000000000000000000000000000000000000000000000000000000000000000000000000000000000000000000000000000000000000000000000000000000000000000000000000000000000000000000000000000000000000000000000000000000000000",
            "coinbase" : "0x8888f1f195afa192cfee860698584c030f4c9db1",
            "difficulty" : "0x020000",
            "extraData" : "0x42",
            "gasLimit" : "0x2fefd8",
            "gasUsed" : "0x00",
            "hash" : "0x5fe820cd7eaea7e661d919a12ef6d5f075c74af92902d36c303582bc0361d2b1",
            "mixHash" : "0x56e81f171bcc55a6ff8345e692c0f86e5b48e01b996cadc001622fb5e363b421",
            "nonce" : "0x0102030405060708",
            "number" : "0x00",
            "parentHash" : "0x0000000000000000000000000000000000000000000000000000000000000000",
            "receiptTrie" : "0x56e81f171bcc55a6ff8345e692c0f86e5b48e01b996cadc001622fb5e363b421",
            "stateRoot" : "0xe40304cc97ba8f8f1cbd9a5968721dfa6c852fc9ad4b83040351fda98fb850d4",
            "timestamp" : "0x54c98c81",
            "transactionsTrie" : "0x56e81f171bcc55a6ff8345e692c0f86e5b48e01b996cadc001622fb5e363b421",
            "uncleHash" : "0x1dcc4de8dec75d7aab85b567b6ccd41ad312451b948a7413f0a142fd40d49347"
        },
        "genesisRLP" : "0xf901fcf901f7a00000000000000000000000000000000000000000000000000000000000000000a01dcc4de8dec75d7aab85b567b6ccd41ad312451b948a7413f0a142fd40d49347948888f1f195afa192cfee860698584c030f4c9db1a0e40304cc97ba8f8f1cbd9a5968721dfa6c852fc9ad4b83040351fda98fb850d4a056e81f171bcc55a6ff8345e692c0f86e5b48e01b996cadc001622fb5e363b421a056e81f171bcc55a6ff8345e692c0f86e5b48e01b996cadc001622fb5e363b421b90100000000000000000000000000000000000000000000000000000000000000000000000000000000000000000000000000000000000000000000000000000000000000000000000000000000000000000000000000000000000000000000000000000000000000000000000000000000000000000000000000000000000000000000000000000000000000000000000000000000000000000000000000000000000000000000000000000000000000000000000000000000000000000000000000000000000000000000000000000000000000000000000000000000000000000000000000000000000000000000000000000000000000000000000000000000008302000080832fefd8808454c98c8142a056e81f171bcc55a6ff8345e692c0f86e5b48e01b996cadc001622fb5e363b421880102030405060708c0c0",
        "lastblockhash" : "0x63427550f1affd7f4ee0cd6ec390269fd03d7f29e9300a437496c2d28cb9d53c",
        "network" : "Istanbul",
        "postState" : {
            "0x095e7baea6a6c7c4c2dfeb977efac326af552d87" : {
                "balance" : "0x09184e72a078",
                "code" : "0x60014060015500",
                "nonce" : "0x00",
                "storage" : {
                    "0x01" : "0xcf7327323258a2454354ed499fb2ae30ead3f2c7d006e53e8e845d8cb7b77a62"
                }
            },
            "0x8888f1f195afa192cfee860698584c030f4c9db1" : {
                "balance" : "0x6f05b59d3b2199d4",
                "code" : "",
                "nonce" : "0x00",
                "storage" : {
                }
            },
            "0xa94f5374fce5edbc8e2a8697c15331677e6ebf0b" : {
                "balance" : "0x09184e7104ec",
                "code" : "",
                "nonce" : "0x04",
                "storage" : {
                }
            },
            "0xa95e7baea6a6c7c4c2dfeb977efac326af552d87" : {
                "balance" : "0xc8",
                "code" : "",
                "nonce" : "0x00",
                "storage" : {
                }
            }
        },
        "pre" : {
            "0x095e7baea6a6c7c4c2dfeb977efac326af552d87" : {
                "balance" : "0x09184e72a000",
                "code" : "0x60014060015500",
                "nonce" : "0x00",
                "storage" : {
                }
            },
            "0xa94f5374fce5edbc8e2a8697c15331677e6ebf0b" : {
                "balance" : "0x09184e72a000",
                "code" : "",
                "nonce" : "0x00",
                "storage" : {
                }
            }
        },
        "sealEngine" : "Ethash"
    }
}