{
    "ChainAtoChainB_Istanbul" : {
        "_info" : {
            "comment" : "",
            "filledwith" : "testeth 1.8.0-alpha.0-12+commit.b120a12c.dirty",
            "lllcversion" : "Version: 0.5.12-develop.2019.9.13+commit.2d601a4f.Linux.g++",
            "source" : "src/BlockchainTestsFiller/ValidBlocks/bcMultiChainTest/ChainAtoChainBFiller.json",
            "sourceHash" : "5805db085def57de5682a8bc53f8e21cd5e4feaa85ec8aa187116b154517074e"
        },
        "blocks" : [
            {
                "blockHeader" : {
                    "bloom" : "0x00000000000000000000000000000000000000000000000000000000000000000000000000000000000000000000000000000000000000000000000000000000000000000000000000000000000000000000000000000000000000000000000000000000000000000000000000000000000000000000000000000000000000000000000000000000000000000000000000000000000000000000000000000000000000000000000000000000000000000000000000000000000000000000000000000000000000000000000000000000000000000000000000000000000000000000000000000000000000000000000000000000000000000000000000000000",
                    "coinbase" : "0x8888f1f195afa192cfee860698584c030f4c9db1",
                    "difficulty" : "0x020000",
                    "extraData" : "",
                    "gasLimit" : "0x2fefba",
                    "gasUsed" : "0x5208",
                    "hash" : "0x8ab26dd856e7dcda8db130414055fd984d1a79a3a2418e2e63e8752f8c185a4a",
                    "mixHash" : "0xc90d9f2dc6dc537d9818344b37b6b2b77d6443ec3b357afd531bde41f1063b42",
                    "nonce" : "0xd472f718323d1b83",
                    "number" : "0x01",
                    "parentHash" : "0x5a39ed1020c04d4d84539975b893a4e7c53eab6c2965db8bc3468093a31bc5ae",
                    "receiptTrie" : "0x056b23fbba480696b65fe5a59b8f2148a1299103c4f57df839233af2cf4ca2d2",
                    "stateRoot" : "0x9f975da0cdc4d5f074009af73873d83f3e29d9e7f33fee3f11a38133166034e5",
                    "timestamp" : "0x5db731f0",
                    "transactionsTrie" : "0x5c9151c2413d1cd25c51ffb4ac38948acc1359bf08c6b49f283660e9bcf0f516",
                    "uncleHash" : "0x1dcc4de8dec75d7aab85b567b6ccd41ad312451b948a7413f0a142fd40d49347"
                },
                "blocknumber" : "1",
                "chainname" : "A",
                "rlp" : "0xf90261f901f9a05a39ed1020c04d4d84539975b893a4e7c53eab6c2965db8bc3468093a31bc5aea01dcc4de8dec75d7aab85b567b6ccd41ad312451b948a7413f0a142fd40d49347948888f1f195afa192cfee860698584c030f4c9db1a09f975da0cdc4d5f074009af73873d83f3e29d9e7f33fee3f11a38133166034e5a05c9151c2413d1cd25c51ffb4ac38948acc1359bf08c6b49f283660e9bcf0f516a0056b23fbba480696b65fe5a59b8f2148a1299103c4f57df839233af2cf4ca2d2b90100000000000000000000000000000000000000000000000000000000000000000000000000000000000000000000000000000000000000000000000000000000000000000000000000000000000000000000000000000000000000000000000000000000000000000000000000000000000000000000000000000000000000000000000000000000000000000000000000000000000000000000000000000000000000000000000000000000000000000000000000000000000000000000000000000000000000000000000000000000000000000000000000000000000000000000000000000000000000000000000000000000000000000000000000000000008302000001832fefba825208845db731f080a0c90d9f2dc6dc537d9818344b37b6b2b77d6443ec3b357afd531bde41f1063b4288d472f718323d1b83f862f86080018304cb2f94095e7baea6a6c7c4c2dfeb977efac326af552d870a801ba077c7cd36820c71821c1aed59de46e70e701c4a8dd89c9ba508ab722210f60da8a03f29825d40c7c3f7bff3ca69267e0f3fb74b2d18b8c2c4e3c135b5d3b06e288dc0",
                "transactions" : [
                    {
                        "data" : "0x",
                        "gasLimit" : "0x04cb2f",
                        "gasPrice" : "0x01",
                        "nonce" : "0x00",
                        "r" : "0x77c7cd36820c71821c1aed59de46e70e701c4a8dd89c9ba508ab722210f60da8",
                        "s" : "0x3f29825d40c7c3f7bff3ca69267e0f3fb74b2d18b8c2c4e3c135b5d3b06e288d",
                        "to" : "0x095e7baea6a6c7c4c2dfeb977efac326af552d87",
                        "v" : "0x1b",
                        "value" : "0x0a"
                    }
                ],
                "uncleHeaders" : [
                ]
            },
            {
                "blockHeader" : {
                    "bloom" : "0x00000000000000000000000000000000000000000000000000000000000000000000000000000000000000000000000000000000000000000000000000000000000000000000000000000000000000000000000000000000000000000000000000000000000000000000000000000000000000000000000000000000000000000000000000000000000000000000000000000000000000000000000000000000000000000000000000000000000000000000000000000000000000000000000000000000000000000000000000000000000000000000000000000000000000000000000000000000000000000000000000000000000000000000000000000000",
                    "coinbase" : "0x8888f1f195afa192cfee860698584c030f4c9db1",
                    "difficulty" : "0x020040",
                    "extraData" : "",
                    "gasLimit" : "0x2fefba",
                    "gasUsed" : "0x5208",
                    "hash" : "0x2e71df525bc051e74474e7f1e971d5fe13c431515ff32690f9a6f806510f6392",
                    "mixHash" : "0xcc00acdf2d1f2a392173dd97f146e80e8af584a68d58070a95b6b6f997cc6d89",
                    "nonce" : "0x819b05185d049e7d",
                    "number" : "0x02",
                    "parentHash" : "0x8ab26dd856e7dcda8db130414055fd984d1a79a3a2418e2e63e8752f8c185a4a",
                    "receiptTrie" : "0x056b23fbba480696b65fe5a59b8f2148a1299103c4f57df839233af2cf4ca2d2",
                    "stateRoot" : "0xdf68925b0ee17b44c826ce4537dc0924700f7b7aa1c7c1b1d489a779b1be2525",
                    "timestamp" : "0x5db731f1",
                    "transactionsTrie" : "0xc673e076264c4669a5c2e479f1757b78e42511efe33b5fd2c0a23b929c7f87f5",
                    "uncleHash" : "0x1dcc4de8dec75d7aab85b567b6ccd41ad312451b948a7413f0a142fd40d49347"
                },
                "blocknumber" : "2",
                "chainname" : "A",
                "rlp" : "0xf90260f901f9a08ab26dd856e7dcda8db130414055fd984d1a79a3a2418e2e63e8752f8c185a4aa01dcc4de8dec75d7aab85b567b6ccd41ad312451b948a7413f0a142fd40d49347948888f1f195afa192cfee860698584c030f4c9db1a0df68925b0ee17b44c826ce4537dc0924700f7b7aa1c7c1b1d489a779b1be2525a0c673e076264c4669a5c2e479f1757b78e42511efe33b5fd2c0a23b929c7f87f5a0056b23fbba480696b65fe5a59b8f2148a1299103c4f57df839233af2cf4ca2d2b90100000000000000000000000000000000000000000000000000000000000000000000000000000000000000000000000000000000000000000000000000000000000000000000000000000000000000000000000000000000000000000000000000000000000000000000000000000000000000000000000000000000000000000000000000000000000000000000000000000000000000000000000000000000000000000000000000000000000000000000000000000000000000000000000000000000000000000000000000000000000000000000000000000000000000000000000000000000000000000000000000000000000000000000000000000000008302004002832fefba825208845db731f180a0cc00acdf2d1f2a392173dd97f146e80e8af584a68d58070a95b6b6f997cc6d8988819b05185d049e7df861f85f01018304cb2f94095e7baea6a6c7c4c2dfeb977efac326af552d870a801ba033c86e64d708c97c6b135cadff79dbf45985aa0b53694789e90d15f756765f239f1d0f8caa2a16405148c9d85581be5814960010f3cba938b5501590cea1f7cfc0",
                "transactions" : [
                    {
                        "data" : "0x",
                        "gasLimit" : "0x04cb2f",
                        "gasPrice" : "0x01",
                        "nonce" : "0x01",
                        "r" : "0x33c86e64d708c97c6b135cadff79dbf45985aa0b53694789e90d15f756765f23",
                        "s" : "0x1d0f8caa2a16405148c9d85581be5814960010f3cba938b5501590cea1f7cf",
                        "to" : "0x095e7baea6a6c7c4c2dfeb977efac326af552d87",
                        "v" : "0x1b",
                        "value" : "0x0a"
                    }
                ],
                "uncleHeaders" : [
                ]
            },
            {
                "blockHeader" : {
                    "bloom" : "0x00000000000000000000000000000000000000000000000000000000000000000000000000000000000000000000000000000000000000000000000000000000000000000000000000000000000000000000000000000000000000000000000000000000000000000000000000000000000000000000000000000000000000000000000000000000000000000000000000000000000000000000000000000000000000000000000000000000000000000000000000000000000000000000000000000000000000000000000000000000000000000000000000000000000000000000000000000000000000000000000000000000000000000000000000000000",
                    "coinbase" : "0x8888f1f195afa192cfee860698584c030f4c9db1",
                    "difficulty" : "0x020080",
                    "extraData" : "",
                    "gasLimit" : "0x2fefba",
                    "gasUsed" : "0x5208",
                    "hash" : "0xed1924f465b25612c3bceb77ddf9957180e766e528be3eb35ad80d864f985417",
                    "mixHash" : "0x0eafa2e08c0206624ebc3e922907176a1f897ebe4e534e4bc1727ee3e2a7fba2",
                    "nonce" : "0xcbdcaf1d5761e45d",
                    "number" : "0x03",
                    "parentHash" : "0x2e71df525bc051e74474e7f1e971d5fe13c431515ff32690f9a6f806510f6392",
                    "receiptTrie" : "0x056b23fbba480696b65fe5a59b8f2148a1299103c4f57df839233af2cf4ca2d2",
                    "stateRoot" : "0xa886e704f7f73b0aa9dbfe288bcd7b6ab47c82b37cd29fabb7b5d21bbae3e72b",
                    "timestamp" : "0x5db731f2",
                    "transactionsTrie" : "0x1722b8a91bfc4f5614ce36ee77c7cce6620ab4af36d3c54baa66d7dbeb7bce1a",
                    "uncleHash" : "0x1dcc4de8dec75d7aab85b567b6ccd41ad312451b948a7413f0a142fd40d49347"
                },
                "blocknumber" : "3",
                "chainname" : "A",
                "rlp" : "0xf90261f901f9a02e71df525bc051e74474e7f1e971d5fe13c431515ff32690f9a6f806510f6392a01dcc4de8dec75d7aab85b567b6ccd41ad312451b948a7413f0a142fd40d49347948888f1f195afa192cfee860698584c030f4c9db1a0a886e704f7f73b0aa9dbfe288bcd7b6ab47c82b37cd29fabb7b5d21bbae3e72ba01722b8a91bfc4f5614ce36ee77c7cce6620ab4af36d3c54baa66d7dbeb7bce1aa0056b23fbba480696b65fe5a59b8f2148a1299103c4f57df839233af2cf4ca2d2b90100000000000000000000000000000000000000000000000000000000000000000000000000000000000000000000000000000000000000000000000000000000000000000000000000000000000000000000000000000000000000000000000000000000000000000000000000000000000000000000000000000000000000000000000000000000000000000000000000000000000000000000000000000000000000000000000000000000000000000000000000000000000000000000000000000000000000000000000000000000000000000000000000000000000000000000000000000000000000000000000000000000000000000000000000000000008302008003832fefba825208845db731f280a00eafa2e08c0206624ebc3e922907176a1f897ebe4e534e4bc1727ee3e2a7fba288cbdcaf1d5761e45df862f86002018304cb2f94095e7baea6a6c7c4c2dfeb977efac326af552d870a801ca015eb1cc916728b9799e55c489857727669afb2986433d5f54cde11faaed9f0eea05d36f6d06c34aae8d0a2a5895c8ba4a17ad46a5fa59f361cb3e7e01a23030e38c0",
                "transactions" : [
                    {
                        "data" : "0x",
                        "gasLimit" : "0x04cb2f",
                        "gasPrice" : "0x01",
                        "nonce" : "0x02",
                        "r" : "0x15eb1cc916728b9799e55c489857727669afb2986433d5f54cde11faaed9f0ee",
                        "s" : "0x5d36f6d06c34aae8d0a2a5895c8ba4a17ad46a5fa59f361cb3e7e01a23030e38",
                        "to" : "0x095e7baea6a6c7c4c2dfeb977efac326af552d87",
                        "v" : "0x1c",
                        "value" : "0x0a"
                    }
                ],
                "uncleHeaders" : [
                ]
            },
            {
                "blockHeader" : {
                    "bloom" : "0x00000000000000000000000000000000000000000000000000000000000000000000000000000000000000000000000000000000000000000000000000000000000000000000000000000000000000000000000000000000000000000000000000000000000000000000000000000000000000000000000000000000000000000000000000000000000000000000000000000000000000000000000000000000000000000000000000000000000000000000000000000000000000000000000000000000000000000000000000000000000000000000000000000000000000000000000000000000000000000000000000000000000000000000000000000000",
                    "coinbase" : "0x8888f1f195afa192cfee860698584c030f4c9db1",
                    "difficulty" : "0x020000",
                    "extraData" : "",
                    "gasLimit" : "0x2fefba",
                    "gasUsed" : "0x5208",
                    "hash" : "0xc3ab502cb54f6cc2a64d9f56a7c534420ae5ed5f4dea3f2f1fbfa7fe245f475a",
                    "mixHash" : "0x7ef47b13aabb5850c49d1bab97ae222ab3fffdbf325a01f31ec429cc287728da",
                    "nonce" : "0x3adf880e0230bb94",
                    "number" : "0x01",
                    "parentHash" : "0x5a39ed1020c04d4d84539975b893a4e7c53eab6c2965db8bc3468093a31bc5ae",
                    "receiptTrie" : "0x056b23fbba480696b65fe5a59b8f2148a1299103c4f57df839233af2cf4ca2d2",
                    "stateRoot" : "0x74911c1ce56b0de8b0d482916f80fe3943ed5c9a5633f7e988216d64a43959e0",
                    "timestamp" : "0x5db731f4",
                    "transactionsTrie" : "0x89176230d5c4ac60168e999c7a9fbea712992e712c253d635601a9d625c640fa",
                    "uncleHash" : "0x1dcc4de8dec75d7aab85b567b6ccd41ad312451b948a7413f0a142fd40d49347"
                },
                "blocknumber" : "1",
                "chainname" : "B",
                "rlp" : "0xf90261f901f9a05a39ed1020c04d4d84539975b893a4e7c53eab6c2965db8bc3468093a31bc5aea01dcc4de8dec75d7aab85b567b6ccd41ad312451b948a7413f0a142fd40d49347948888f1f195afa192cfee860698584c030f4c9db1a074911c1ce56b0de8b0d482916f80fe3943ed5c9a5633f7e988216d64a43959e0a089176230d5c4ac60168e999c7a9fbea712992e712c253d635601a9d625c640faa0056b23fbba480696b65fe5a59b8f2148a1299103c4f57df839233af2cf4ca2d2b90100000000000000000000000000000000000000000000000000000000000000000000000000000000000000000000000000000000000000000000000000000000000000000000000000000000000000000000000000000000000000000000000000000000000000000000000000000000000000000000000000000000000000000000000000000000000000000000000000000000000000000000000000000000000000000000000000000000000000000000000000000000000000000000000000000000000000000000000000000000000000000000000000000000000000000000000000000000000000000000000000000000000000000000000000000000008302000001832fefba825208845db731f480a07ef47b13aabb5850c49d1bab97ae222ab3fffdbf325a01f31ec429cc287728da883adf880e0230bb94f862f86080018304cb2f94095e7baea6a6c7c4c2dfeb977efac326af552d8764801ca066995adf6b8ce265233fe0ef11b24f7571908674be85c347eed4359396cfa4b1a0458062325e034ea6722559f0153094069424c0d508b7b104f2635a52bfaaa532c0",
                "transactions" : [
                    {
                        "data" : "0x",
                        "gasLimit" : "0x04cb2f",
                        "gasPrice" : "0x01",
                        "nonce" : "0x00",
                        "r" : "0x66995adf6b8ce265233fe0ef11b24f7571908674be85c347eed4359396cfa4b1",
                        "s" : "0x458062325e034ea6722559f0153094069424c0d508b7b104f2635a52bfaaa532",
                        "to" : "0x095e7baea6a6c7c4c2dfeb977efac326af552d87",
                        "v" : "0x1c",
                        "value" : "0x64"
                    }
                ],
                "uncleHeaders" : [
                ]
            },
            {
                "blockHeader" : {
                    "bloom" : "0x00000000000000000000000000000000000000000000000000000000000000000000000000000000000000000000000000000000000000000000000000000000000000000000000000000000000000000000000000000000000000000000000000000000000000000000000000000000000000000000000000000000000000000000000000000000000000000000000000000000000000000000000000000000000000000000000000000000000000000000000000000000000000000000000000000000000000000000000000000000000000000000000000000000000000000000000000000000000000000000000000000000000000000000000000000000",
                    "coinbase" : "0x8888f1f195afa192cfee860698584c030f4c9db1",
                    "difficulty" : "0x020040",
                    "extraData" : "",
                    "gasLimit" : "0x2fefba",
                    "gasUsed" : "0x5208",
                    "hash" : "0xbd3322a86562de4f3ed1caaa9e71dfc00f5e79c52eb38e628ed160d2b3ab993c",
                    "mixHash" : "0x4b0be3fbb791b964c6f22ef5ecbd11c6be42422867101a1d81dd27dad71bd49e",
                    "nonce" : "0x3240b159aefda465",
                    "number" : "0x02",
                    "parentHash" : "0xc3ab502cb54f6cc2a64d9f56a7c534420ae5ed5f4dea3f2f1fbfa7fe245f475a",
                    "receiptTrie" : "0x056b23fbba480696b65fe5a59b8f2148a1299103c4f57df839233af2cf4ca2d2",
                    "stateRoot" : "0x8daafacfff641da90c023de5c93b10ff206978c92a108e90697aaca480a0f188",
                    "timestamp" : "0x5db731f6",
                    "transactionsTrie" : "0x1517d551f5e39788f89454305805e9e71f154ea0919d5e052b03d652ef6f657d",
                    "uncleHash" : "0x1dcc4de8dec75d7aab85b567b6ccd41ad312451b948a7413f0a142fd40d49347"
                },
                "blocknumber" : "2",
                "chainname" : "B",
                "rlp" : "0xf90260f901f9a0c3ab502cb54f6cc2a64d9f56a7c534420ae5ed5f4dea3f2f1fbfa7fe245f475aa01dcc4de8dec75d7aab85b567b6ccd41ad312451b948a7413f0a142fd40d49347948888f1f195afa192cfee860698584c030f4c9db1a08daafacfff641da90c023de5c93b10ff206978c92a108e90697aaca480a0f188a01517d551f5e39788f89454305805e9e71f154ea0919d5e052b03d652ef6f657da0056b23fbba480696b65fe5a59b8f2148a1299103c4f57df839233af2cf4ca2d2b90100000000000000000000000000000000000000000000000000000000000000000000000000000000000000000000000000000000000000000000000000000000000000000000000000000000000000000000000000000000000000000000000000000000000000000000000000000000000000000000000000000000000000000000000000000000000000000000000000000000000000000000000000000000000000000000000000000000000000000000000000000000000000000000000000000000000000000000000000000000000000000000000000000000000000000000000000000000000000000000000000000000000000000000000000000000008302004002832fefba825208845db731f680a04b0be3fbb791b964c6f22ef5ecbd11c6be42422867101a1d81dd27dad71bd49e883240b159aefda465f861f85f010182795394095e7baea6a6c7c4c2dfeb977efac326af552d8764801ba06ae7ce87f0c32417d409ba74b51cdf591f7515007c1c7ce9a4255010f46e1467a064b5f4b57fad4d9582bd666e1befd1e8943ba2f3ce7afc107f04aa4530d5a995c0",
                "transactions" : [
                    {
                        "data" : "0x",
                        "gasLimit" : "0x7953",
                        "gasPrice" : "0x01",
                        "nonce" : "0x01",
                        "r" : "0x6ae7ce87f0c32417d409ba74b51cdf591f7515007c1c7ce9a4255010f46e1467",
                        "s" : "0x64b5f4b57fad4d9582bd666e1befd1e8943ba2f3ce7afc107f04aa4530d5a995",
                        "to" : "0x095e7baea6a6c7c4c2dfeb977efac326af552d87",
                        "v" : "0x1b",
                        "value" : "0x64"
                    }
                ],
                "uncleHeaders" : [
                ]
            },
            {
                "blockHeader" : {
                    "bloom" : "0x00000000000000000000000000000000000000000000000000000000000000000000000000000000000000000000000000000000000000000000000000000000000000000000000000000000000000000000000000000000000000000000000000000000000000000000000000000000000000000000000000000000000000000000000000000000000000000000000000000000000000000000000000000000000000000000000000000000000000000000000000000000000000000000000000000000000000000000000000000000000000000000000000000000000000000000000000000000000000000000000000000000000000000000000000000000",
                    "coinbase" : "0x8888f1f195afa192cfee860698584c030f4c9db1",
                    "difficulty" : "0x020080",
                    "extraData" : "",
                    "gasLimit" : "0x2fefba",
                    "gasUsed" : "0xa450",
                    "hash" : "0xf4d04a294ed9da46a9dc2c7f0dfb8284570713aa714e8f28464e851bc2faec04",
                    "mixHash" : "0x1c302f22d8e82eebb3ea08ab90b8f7a0b4c32dac91834556eabe01f0c2c4dc0f",
                    "nonce" : "0x318197b9d11ceafd",
                    "number" : "0x03",
                    "parentHash" : "0xbd3322a86562de4f3ed1caaa9e71dfc00f5e79c52eb38e628ed160d2b3ab993c",
                    "receiptTrie" : "0x6947a841b9d386e883da931b35678aeb5694a996a75c3382a049674f79cadbdb",
                    "stateRoot" : "0x958b42df4914b63110bfe4f1c891c2626b774a341e288b9f353696376c9febce",
                    "timestamp" : "0x5db731f7",
                    "transactionsTrie" : "0x78477aaf28ad6a7c05765196a0e352baef952d24592631e2d954955cc6f903f0",
                    "uncleHash" : "0x1dcc4de8dec75d7aab85b567b6ccd41ad312451b948a7413f0a142fd40d49347"
                },
                "blocknumber" : "3",
                "chainname" : "B",
                "rlp" : "0xf902c5f901f9a0bd3322a86562de4f3ed1caaa9e71dfc00f5e79c52eb38e628ed160d2b3ab993ca01dcc4de8dec75d7aab85b567b6ccd41ad312451b948a7413f0a142fd40d49347948888f1f195afa192cfee860698584c030f4c9db1a0958b42df4914b63110bfe4f1c891c2626b774a341e288b9f353696376c9febcea078477aaf28ad6a7c05765196a0e352baef952d24592631e2d954955cc6f903f0a06947a841b9d386e883da931b35678aeb5694a996a75c3382a049674f79cadbdbb90100000000000000000000000000000000000000000000000000000000000000000000000000000000000000000000000000000000000000000000000000000000000000000000000000000000000000000000000000000000000000000000000000000000000000000000000000000000000000000000000000000000000000000000000000000000000000000000000000000000000000000000000000000000000000000000000000000000000000000000000000000000000000000000000000000000000000000000000000000000000000000000000000000000000000000000000000000000000000000000000000000000000000000000000000000000008302008003832fefba82a450845db731f780a01c302f22d8e82eebb3ea08ab90b8f7a0b4c32dac91834556eabe01f0c2c4dc0f88318197b9d11ceafdf8c6f8630201827b1594095e7baea6a6c7c4c2dfeb977efac326af552d876484345345401ba0c912adcf452d35df5a1f79eaf137953512e39a643d44c25419acb9526baf1913a04d4529643671cfa998a7fb0ed28618f822d4141cee5796e43badf52cb46f435cf85f0301827b1594095e7baea6a6c7c4c2dfeb977efac326af552d8714801ca04ae9ddaa1757ec78622ffb35ca33ade06b0e771a2fd2f9036a0fe855030246b5a053b9db67598fc4d139f3c304d6f63b23a6872b654407ed4260738f054da4b6ffc0",
                "transactions" : [
                    {
                        "data" : "0x34534540",
                        "gasLimit" : "0x7b15",
                        "gasPrice" : "0x01",
                        "nonce" : "0x02",
                        "r" : "0xc912adcf452d35df5a1f79eaf137953512e39a643d44c25419acb9526baf1913",
                        "s" : "0x4d4529643671cfa998a7fb0ed28618f822d4141cee5796e43badf52cb46f435c",
                        "to" : "0x095e7baea6a6c7c4c2dfeb977efac326af552d87",
                        "v" : "0x1b",
                        "value" : "0x64"
                    },
                    {
                        "data" : "0x",
                        "gasLimit" : "0x7b15",
                        "gasPrice" : "0x01",
                        "nonce" : "0x03",
                        "r" : "0x4ae9ddaa1757ec78622ffb35ca33ade06b0e771a2fd2f9036a0fe855030246b5",
                        "s" : "0x53b9db67598fc4d139f3c304d6f63b23a6872b654407ed4260738f054da4b6ff",
                        "to" : "0x095e7baea6a6c7c4c2dfeb977efac326af552d87",
                        "v" : "0x1c",
                        "value" : "0x14"
                    }
                ],
                "uncleHeaders" : [
                ]
            },
            {
                "blockHeader" : {
                    "bloom" : "0x00000000000000000000000000000000000000000000000000000000000000000000000000000000000000000000000000000000000000000000000000000000000000000000000000000000000000000000000000000000000000000000000000000000000000000000000000000000000000000000000000000000000000000000000000000000000000000000000000000000000000000000000000000000000000000000000000000000000000000000000000000000000000000000000000000000000000000000000000000000000000000000000000000000000000000000000000000000000000000000000000000000000000000000000000000000",
                    "coinbase" : "0x8888f1f195afa192cfee860698584c030f4c9db1",
                    "difficulty" : "0x0200c0",
                    "extraData" : "",
                    "gasLimit" : "0x2fefba",
                    "gasUsed" : "0x5208",
                    "hash" : "0x2c7eae713f73e29efb5f7bc01bbc787dcb2afe155e1fc346c28f749520ae899f",
                    "mixHash" : "0xe9ea733365411963589968c801596ce9c60f4160feb87415986dfa21352ac0b6",
                    "nonce" : "0xfc6b8042eeffa9d6",
                    "number" : "0x04",
                    "parentHash" : "0xf4d04a294ed9da46a9dc2c7f0dfb8284570713aa714e8f28464e851bc2faec04",
                    "receiptTrie" : "0x056b23fbba480696b65fe5a59b8f2148a1299103c4f57df839233af2cf4ca2d2",
                    "stateRoot" : "0xe2760835259f1d0a549cda7b9c03a75ffe726ffb6c4a761bf1cb29025c23c887",
                    "timestamp" : "0x5db731fa",
                    "transactionsTrie" : "0x43c0b898ea93246c6f00333bf6a14de6b819c74d039d2cdf382ef1b7e895447c",
                    "uncleHash" : "0x1dcc4de8dec75d7aab85b567b6ccd41ad312451b948a7413f0a142fd40d49347"
                },
                "blocknumber" : "4",
                "chainname" : "B",
                "rlp" : "0xf90260f901f9a0f4d04a294ed9da46a9dc2c7f0dfb8284570713aa714e8f28464e851bc2faec04a01dcc4de8dec75d7aab85b567b6ccd41ad312451b948a7413f0a142fd40d49347948888f1f195afa192cfee860698584c030f4c9db1a0e2760835259f1d0a549cda7b9c03a75ffe726ffb6c4a761bf1cb29025c23c887a043c0b898ea93246c6f00333bf6a14de6b819c74d039d2cdf382ef1b7e895447ca0056b23fbba480696b65fe5a59b8f2148a1299103c4f57df839233af2cf4ca2d2b9010000000000000000000000000000000000000000000000000000000000000000000000000000000000000000000000000000000000000000000000000000000000000000000000000000000000000000000000000000000000000000000000000000000000000000000000000000000000000000000000000000000000000000000000000000000000000000000000000000000000000000000000000000000000000000000000000000000000000000000000000000000000000000000000000000000000000000000000000000000000000000000000000000000000000000000000000000000000000000000000000000000000000000000000000000000000830200c004832fefba825208845db731fa80a0e9ea733365411963589968c801596ce9c60f4160feb87415986dfa21352ac0b688fc6b8042eeffa9d6f861f85f040182795394095e7baea6a6c7c4c2dfeb977efac326af552d8764801ba082a2dec18c512127304e5a7d1f5b3e513c26b43d85a095a6f448afdbe89431afa020ae86c5ade7d19c7f5110f4c3cf7b4cae94f1c774c66ac4252501e90d84c1cac0",
                "transactions" : [
                    {
                        "data" : "0x",
                        "gasLimit" : "0x7953",
                        "gasPrice" : "0x01",
                        "nonce" : "0x04",
                        "r" : "0x82a2dec18c512127304e5a7d1f5b3e513c26b43d85a095a6f448afdbe89431af",
                        "s" : "0x20ae86c5ade7d19c7f5110f4c3cf7b4cae94f1c774c66ac4252501e90d84c1ca",
                        "to" : "0x095e7baea6a6c7c4c2dfeb977efac326af552d87",
                        "v" : "0x1b",
                        "value" : "0x64"
                    }
                ],
                "uncleHeaders" : [
                ]
            }
        ],
        "genesisBlockHeader" : {
            "bloom" : "0x00000000000000000000000000000000000000000000000000000000000000000000000000000000000000000000000000000000000000000000000000000000000000000000000000000000000000000000000000000000000000000000000000000000000000000000000000000000000000000000000000000000000000000000000000000000000000000000000000000000000000000000000000000000000000000000000000000000000000000000000000000000000000000000000000000000000000000000000000000000000000000000000000000000000000000000000000000000000000000000000000000000000000000000000000000000",
            "coinbase" : "0x8888f1f195afa192cfee860698584c030f4c9db1",
            "difficulty" : "0x020000",
            "extraData" : "0x42",
            "gasLimit" : "0x2fefd8",
            "gasUsed" : "0x00",
            "hash" : "0x5a39ed1020c04d4d84539975b893a4e7c53eab6c2965db8bc3468093a31bc5ae",
            "mixHash" : "0x56e81f171bcc55a6ff8345e692c0f86e5b48e01b996cadc001622fb5e363b421",
            "nonce" : "0x0102030405060708",
            "number" : "0x00",
            "parentHash" : "0x0000000000000000000000000000000000000000000000000000000000000000",
            "receiptTrie" : "0x56e81f171bcc55a6ff8345e692c0f86e5b48e01b996cadc001622fb5e363b421",
            "stateRoot" : "0x7dba07d6b448a186e9612e5f737d1c909dce473e53199901a302c00646d523c1",
            "timestamp" : "0x54c98c81",
            "transactionsTrie" : "0x56e81f171bcc55a6ff8345e692c0f86e5b48e01b996cadc001622fb5e363b421",
            "uncleHash" : "0x1dcc4de8dec75d7aab85b567b6ccd41ad312451b948a7413f0a142fd40d49347"
        },
        "genesisRLP" : "0xf901fcf901f7a00000000000000000000000000000000000000000000000000000000000000000a01dcc4de8dec75d7aab85b567b6ccd41ad312451b948a7413f0a142fd40d49347948888f1f195afa192cfee860698584c030f4c9db1a07dba07d6b448a186e9612e5f737d1c909dce473e53199901a302c00646d523c1a056e81f171bcc55a6ff8345e692c0f86e5b48e01b996cadc001622fb5e363b421a056e81f171bcc55a6ff8345e692c0f86e5b48e01b996cadc001622fb5e363b421b90100000000000000000000000000000000000000000000000000000000000000000000000000000000000000000000000000000000000000000000000000000000000000000000000000000000000000000000000000000000000000000000000000000000000000000000000000000000000000000000000000000000000000000000000000000000000000000000000000000000000000000000000000000000000000000000000000000000000000000000000000000000000000000000000000000000000000000000000000000000000000000000000000000000000000000000000000000000000000000000000000000000000000000000000000000000008302000080832fefd8808454c98c8142a056e81f171bcc55a6ff8345e692c0f86e5b48e01b996cadc001622fb5e363b421880102030405060708c0c0",
        "lastblockhash" : "0x2c7eae713f73e29efb5f7bc01bbc787dcb2afe155e1fc346c28f749520ae899f",
        "network" : "Istanbul",
        "postState" : {
            "0x095e7baea6a6c7c4c2dfeb977efac326af552d87" : {
                "balance" : "0x01a4",
                "code" : "",
                "nonce" : "0x00",
                "storage" : {
                }
            },
            "0x8888f1f195afa192cfee860698584c030f4c9db1" : {
                "balance" : "0x6f05b59d3b219a68",
                "code" : "",
                "nonce" : "0x00",
                "storage" : {
                }
            },
            "0xa94f5374fce5edbc8e2a8697c15331677e6ebf0b" : {
                "balance" : "0x09184e7103f4",
                "code" : "",
                "nonce" : "0x05",
                "storage" : {
                }
            }
        },
        "pre" : {
            "0xa94f5374fce5edbc8e2a8697c15331677e6ebf0b" : {
                "balance" : "0x09184e72a000",
                "code" : "",
                "nonce" : "0x00",
                "storage" : {
                }
            }
        },
        "sealEngine" : "Ethash"
    }
}