{
    "create2collisionStorage_d0g0v0_Istanbul" : {
        "_info" : {
            "comment" : "create2 generates an account that already exists and has storage != 0",
            "filling-rpc-server" : "Geth-1.9.6-unstable-63b18027-20190920",
            "filling-tool-version" : "retesteth-0.0.1+commit.0ae18aef.Linux.g++",
            "lllcversion" : "Version: 0.5.12-develop.2019.9.13+commit.2d601a4f.Linux.g++",
            "source" : "src/GeneralStateTestsFiller/stCreate2/create2collisionStorageFiller.json",
            "sourceHash" : "8c7556b21fb16966854368d382b4c315cada1b12c78a8bed75729b3dd0f78fa2"
        },
        "genesisBlockHeader" : {
            "bloom" : "0x00000000000000000000000000000000000000000000000000000000000000000000000000000000000000000000000000000000000000000000000000000000000000000000000000000000000000000000000000000000000000000000000000000000000000000000000000000000000000000000000000000000000000000000000000000000000000000000000000000000000000000000000000000000000000000000000000000000000000000000000000000000000000000000000000000000000000000000000000000000000000000000000000000000000000000000000000000000000000000000000000000000000000000000000000000000",
            "coinbase" : "0x2adc25665018aa1fe0e6bc666dac8fc2697ff9ba",
            "difficulty" : "0x20000",
            "extraData" : "0x00",
            "gasLimit" : "0xf4240",
            "gasUsed" : "0x0",
            "hash" : "0xa0aeed0d6735247ae877d760809a8bb9db04d74a1697deb1bf3a1af168ad54cf",
            "mixHash" : "0x0000000000000000000000000000000000000000000000000000000000000000",
            "nonce" : "0x0000000000000000",
            "number" : "0x0",
            "parentHash" : "0x0000000000000000000000000000000000000000000000000000000000000000",
            "receiptTrie" : "0x56e81f171bcc55a6ff8345e692c0f86e5b48e01b996cadc001622fb5e363b421",
            "stateRoot" : "0xd07addde6420f48a5daa734b13b9c5aab5ba137c965c298be6ec3f21ca4daa22",
            "timestamp" : "0x0",
            "transactionsTrie" : "0x56e81f171bcc55a6ff8345e692c0f86e5b48e01b996cadc001622fb5e363b421",
            "uncleHash" : "0x1dcc4de8dec75d7aab85b567b6ccd41ad312451b948a7413f0a142fd40d49347"
        },
        "pre" : {
            "0xa94f5374fce5edbc8e2a8697c15331677e6ebf0b" : {
                "balance" : "0x0de0b6b3a7640000",
                "code" : "0x",
                "nonce" : "0x00",
                "storage" : {
                }
            },
            "0xaf3ecba2fe09a4f6c19f16a9d119e44e08c2da01" : {
                "balance" : "0x00",
                "code" : "0x",
                "nonce" : "0x00",
                "storage" : {
                    "0x00" : "0x01"
                }
            },
            "0xe2b35478fdd26477cc576dd906e6277761246a3c" : {
                "balance" : "0x00",
                "code" : "0x",
                "nonce" : "0x00",
                "storage" : {
                    "0x00" : "0x01"
                }
            },
            "0xec2c6832d00680ece8ff9254f81fdab0a5a2ac50" : {
                "balance" : "0x00",
                "code" : "0x",
                "nonce" : "0x00",
                "storage" : {
                    "0x00" : "0x01"
                }
            }
        },
        "postState" : {
            "0xa94f5374fce5edbc8e2a8697c15331677e6ebf0b" : {
                "code" : "0x",
                "nonce" : "0x01",
                "balance" : "0x0de0b6b3a762b387",
                "storage" : {
                }
            },
            "0xaf3ecba2fe09a4f6c19f16a9d119e44e08c2da01" : {
                "code" : "0x",
                "nonce" : "0x00",
                "balance" : "0x00",
                "storage" : {
                    "0x00" : "0x01"
                }
            },
            "0xe2b35478fdd26477cc576dd906e6277761246a3c" : {
                "code" : "0x",
                "nonce" : "0x01",
                "balance" : "0x00",
                "storage" : {
                }
            },
            "0xec2c6832d00680ece8ff9254f81fdab0a5a2ac50" : {
                "code" : "0x",
                "nonce" : "0x00",
                "balance" : "0x00",
                "storage" : {
                    "0x00" : "0x01"
                }
            },
            "0x2adc25665018aa1fe0e6bc666dac8fc2697ff9ba" : {
                "code" : "0x",
                "nonce" : "0x00",
                "balance" : "0x1bc16d674ec94c78",
                "storage" : {
                }
            },
            "0x6295ee1b4f6dd65047762f924ecd367c17eabf8f" : {
                "code" : "0x",
                "nonce" : "0x02",
                "balance" : "0x01",
                "storage" : {
                }
            }
        },
        "network" : "Istanbul",
        "sealEngine" : "NoProof",
        "lastblockhash" : "0x8e1917721ade35e4e8f0b425505b2d2f17a83a8b3d3f367583b7de893a749f79",
        "genesisRLP" : "0xf901f8f901f3a00000000000000000000000000000000000000000000000000000000000000000a01dcc4de8dec75d7aab85b567b6ccd41ad312451b948a7413f0a142fd40d49347942adc25665018aa1fe0e6bc666dac8fc2697ff9baa0d07addde6420f48a5daa734b13b9c5aab5ba137c965c298be6ec3f21ca4daa22a056e81f171bcc55a6ff8345e692c0f86e5b48e01b996cadc001622fb5e363b421a056e81f171bcc55a6ff8345e692c0f86e5b48e01b996cadc001622fb5e363b421b90100000000000000000000000000000000000000000000000000000000000000000000000000000000000000000000000000000000000000000000000000000000000000000000000000000000000000000000000000000000000000000000000000000000000000000000000000000000000000000000000000000000000000000000000000000000000000000000000000000000000000000000000000000000000000000000000000000000000000000000000000000000000000000000000000000000000000000000000000000000000000000000000000000000000000000000000000000000000000000000000000000000000000000000000000000000008302000080830f4240808000a00000000000000000000000000000000000000000000000000000000000000000880000000000000000c0c0",
        "blocks" : [
            {
                "rlp" : "0xf90256f901f8a0a0aeed0d6735247ae877d760809a8bb9db04d74a1697deb1bf3a1af168ad54cfa01dcc4de8dec75d7aab85b567b6ccd41ad312451b948a7413f0a142fd40d49347942adc25665018aa1fe0e6bc666dac8fc2697ff9baa01cd6deeb17ac1ca50998555687df5d6536467c3ef193aad4fee397770578359ba0cb78bc75980eae8d7960f231fc2c50ef9cbef258e84c6837772533088169499da0ffba55d2cd6b66343d4197b3e5596e4f8e8cfa0512d323a7ee640905e8891db4b90100000000000000000000000000000000000000000000000000000000000000000000000000000000000000000000000000000000000000000000000000000000000000000000000000000000000000000000000000000000000000000000000000000000000000000000000000000000000000000000000000000000000000000000000000000000000000000000000000000000000000000000000000000000000000000000000000000000000000000000000000000000000000000000000000000000000000000000000000000000000000000000000000000000000000000000000000000000000000000000000000000000000000000000000000000000008302000001830f460f83014c788203e800a00000000000000000000000000000000000000000000000000000000000000000880000000000000000f858f856800183061a8080018a6000600060006000f5001ca0a0da1615185b0cf9297c5c3a46bbe8c7fe31d5e9ce718006ff1135b53bc3d871a0066a0f540cefb4e67203c384e9003eeeeb788068cb69877435a86ef2551a7b21c0",
                "blockHeader" : {
                    "bloom" : "0x00000000000000000000000000000000000000000000000000000000000000000000000000000000000000000000000000000000000000000000000000000000000000000000000000000000000000000000000000000000000000000000000000000000000000000000000000000000000000000000000000000000000000000000000000000000000000000000000000000000000000000000000000000000000000000000000000000000000000000000000000000000000000000000000000000000000000000000000000000000000000000000000000000000000000000000000000000000000000000000000000000000000000000000000000000000",
                    "coinbase" : "0x2adc25665018aa1fe0e6bc666dac8fc2697ff9ba",
                    "difficulty" : "0x20000",
                    "extraData" : "0x00",
                    "gasLimit" : "0xf460f",
                    "gasUsed" : "0x14c78",
                    "hash" : "0x8e1917721ade35e4e8f0b425505b2d2f17a83a8b3d3f367583b7de893a749f79",
                    "mixHash" : "0x0000000000000000000000000000000000000000000000000000000000000000",
                    "nonce" : "0x0000000000000000",
                    "number" : "0x1",
                    "parentHash" : "0xa0aeed0d6735247ae877d760809a8bb9db04d74a1697deb1bf3a1af168ad54cf",
                    "receiptTrie" : "0xffba55d2cd6b66343d4197b3e5596e4f8e8cfa0512d323a7ee640905e8891db4",
                    "stateRoot" : "0x1cd6deeb17ac1ca50998555687df5d6536467c3ef193aad4fee397770578359b",
                    "timestamp" : "0x3e8",
                    "transactionsTrie" : "0xcb78bc75980eae8d7960f231fc2c50ef9cbef258e84c6837772533088169499d",
                    "uncleHash" : "0x1dcc4de8dec75d7aab85b567b6ccd41ad312451b948a7413f0a142fd40d49347"
                },
                "transactions" : [
                    {
                        "data" : "0x6000600060006000f500",
                        "gasLimit" : "0x061a80",
                        "gasPrice" : "0x01",
                        "nonce" : "0x00",
                        "to" : "",
                        "value" : "0x01",
                        "v" : "0x1c",
                        "r" : "0xa0da1615185b0cf9297c5c3a46bbe8c7fe31d5e9ce718006ff1135b53bc3d871",
                        "s" : "0x066a0f540cefb4e67203c384e9003eeeeb788068cb69877435a86ef2551a7b21"
                    }
                ]
            }
        ]
    },
    "create2collisionStorage_d1g0v0_Istanbul" : {
        "_info" : {
            "comment" : "create2 generates an account that already exists and has storage != 0",
            "filling-rpc-server" : "Geth-1.9.6-unstable-63b18027-20190920",
            "filling-tool-version" : "retesteth-0.0.1+commit.0ae18aef.Linux.g++",
            "lllcversion" : "Version: 0.5.12-develop.2019.9.13+commit.2d601a4f.Linux.g++",
            "source" : "src/GeneralStateTestsFiller/stCreate2/create2collisionStorageFiller.json",
            "sourceHash" : "8c7556b21fb16966854368d382b4c315cada1b12c78a8bed75729b3dd0f78fa2"
        },
        "genesisBlockHeader" : {
            "bloom" : "0x00000000000000000000000000000000000000000000000000000000000000000000000000000000000000000000000000000000000000000000000000000000000000000000000000000000000000000000000000000000000000000000000000000000000000000000000000000000000000000000000000000000000000000000000000000000000000000000000000000000000000000000000000000000000000000000000000000000000000000000000000000000000000000000000000000000000000000000000000000000000000000000000000000000000000000000000000000000000000000000000000000000000000000000000000000000",
            "coinbase" : "0x2adc25665018aa1fe0e6bc666dac8fc2697ff9ba",
            "difficulty" : "0x20000",
            "extraData" : "0x00",
            "gasLimit" : "0xf4240",
            "gasUsed" : "0x0",
            "hash" : "0xa0aeed0d6735247ae877d760809a8bb9db04d74a1697deb1bf3a1af168ad54cf",
            "mixHash" : "0x0000000000000000000000000000000000000000000000000000000000000000",
            "nonce" : "0x0000000000000000",
            "number" : "0x0",
            "parentHash" : "0x0000000000000000000000000000000000000000000000000000000000000000",
            "receiptTrie" : "0x56e81f171bcc55a6ff8345e692c0f86e5b48e01b996cadc001622fb5e363b421",
            "stateRoot" : "0xd07addde6420f48a5daa734b13b9c5aab5ba137c965c298be6ec3f21ca4daa22",
            "timestamp" : "0x0",
            "transactionsTrie" : "0x56e81f171bcc55a6ff8345e692c0f86e5b48e01b996cadc001622fb5e363b421",
            "uncleHash" : "0x1dcc4de8dec75d7aab85b567b6ccd41ad312451b948a7413f0a142fd40d49347"
        },
        "pre" : {
            "0xa94f5374fce5edbc8e2a8697c15331677e6ebf0b" : {
                "balance" : "0x0de0b6b3a7640000",
                "code" : "0x",
                "nonce" : "0x00",
                "storage" : {
                }
            },
            "0xaf3ecba2fe09a4f6c19f16a9d119e44e08c2da01" : {
                "balance" : "0x00",
                "code" : "0x",
                "nonce" : "0x00",
                "storage" : {
                    "0x00" : "0x01"
                }
            },
            "0xe2b35478fdd26477cc576dd906e6277761246a3c" : {
                "balance" : "0x00",
                "code" : "0x",
                "nonce" : "0x00",
                "storage" : {
                    "0x00" : "0x01"
                }
            },
            "0xec2c6832d00680ece8ff9254f81fdab0a5a2ac50" : {
                "balance" : "0x00",
                "code" : "0x",
                "nonce" : "0x00",
                "storage" : {
                    "0x00" : "0x01"
                }
            }
        },
        "postState" : {
            "0xa94f5374fce5edbc8e2a8697c15331677e6ebf0b" : {
                "code" : "0x",
                "nonce" : "0x01",
                "balance" : "0x0de0b6b3a76264b3",
                "storage" : {
                }
            },
            "0xaf3ecba2fe09a4f6c19f16a9d119e44e08c2da01" : {
                "code" : "0x",
                "nonce" : "0x01",
                "balance" : "0x00",
                "storage" : {
                    "0x01" : "0x01"
                }
            },
            "0xe2b35478fdd26477cc576dd906e6277761246a3c" : {
                "code" : "0x",
                "nonce" : "0x00",
                "balance" : "0x00",
                "storage" : {
                    "0x00" : "0x01"
                }
            },
            "0xec2c6832d00680ece8ff9254f81fdab0a5a2ac50" : {
                "code" : "0x",
                "nonce" : "0x00",
                "balance" : "0x00",
                "storage" : {
                    "0x00" : "0x01"
                }
            },
            "0x2adc25665018aa1fe0e6bc666dac8fc2697ff9ba" : {
                "code" : "0x",
                "nonce" : "0x00",
                "balance" : "0x1bc16d674ec99b4c",
                "storage" : {
                }
            },
            "0x6295ee1b4f6dd65047762f924ecd367c17eabf8f" : {
                "code" : "0x",
                "nonce" : "0x02",
                "balance" : "0x01",
                "storage" : {
                }
            }
        },
        "network" : "Istanbul",
        "sealEngine" : "NoProof",
        "lastblockhash" : "0x308acc5b759b7465eda885b45327ef6ace2aea8888f9421addef55bbb181d657",
        "genesisRLP" : "0xf901f8f901f3a00000000000000000000000000000000000000000000000000000000000000000a01dcc4de8dec75d7aab85b567b6ccd41ad312451b948a7413f0a142fd40d49347942adc25665018aa1fe0e6bc666dac8fc2697ff9baa0d07addde6420f48a5daa734b13b9c5aab5ba137c965c298be6ec3f21ca4daa22a056e81f171bcc55a6ff8345e692c0f86e5b48e01b996cadc001622fb5e363b421a056e81f171bcc55a6ff8345e692c0f86e5b48e01b996cadc001622fb5e363b421b90100000000000000000000000000000000000000000000000000000000000000000000000000000000000000000000000000000000000000000000000000000000000000000000000000000000000000000000000000000000000000000000000000000000000000000000000000000000000000000000000000000000000000000000000000000000000000000000000000000000000000000000000000000000000000000000000000000000000000000000000000000000000000000000000000000000000000000000000000000000000000000000000000000000000000000000000000000000000000000000000000000000000000000000000000000000008302000080830f4240808000a00000000000000000000000000000000000000000000000000000000000000000880000000000000000c0c0",
        "blocks" : [
            {
                "rlp" : "0xf9025ff901f8a0a0aeed0d6735247ae877d760809a8bb9db04d74a1697deb1bf3a1af168ad54cfa01dcc4de8dec75d7aab85b567b6ccd41ad312451b948a7413f0a142fd40d49347942adc25665018aa1fe0e6bc666dac8fc2697ff9baa0ecc7b52cd3737d3711548d0be332296a3a1d0d3023ef60a97ea9a811fea8d819a0a85a0a1d452f17fa5061656bebc184a3a9e4aa6ed4ec369eeec692c5e2086b01a03dca28d828c1101fbeb4fbbf5c4aa3681cf570ee96578eed7ec3fa52d63cf2f3b90100000000000000000000000000000000000000000000000000000000000000000000000000000000000000000000000000000000000000000000000000000000000000000000000000000000000000000000000000000000000000000000000000000000000000000000000000000000000000000000000000000000000000000000000000000000000000000000000000000000000000000000000000000000000000000000000000000000000000000000000000000000000000000000000000000000000000000000000000000000000000000000000000000000000000000000000000000000000000000000000000000000000000000000000000000000008302000001830f460f83019b4c8203e800a00000000000000000000000000000000000000000000000000000000000000000880000000000000000f861f85f800183061a8080019364600160015560005260006005601b6000f5001ca0a539ac265ca9cce8ec080a472b0a8066c704c8dcbb4c8df0bf3e24c1ff521925a02908146c1b34267e873efd470b04efeababa06b921dc2dceaa4f2ca2d3138b29c0",
                "blockHeader" : {
                    "bloom" : "0x00000000000000000000000000000000000000000000000000000000000000000000000000000000000000000000000000000000000000000000000000000000000000000000000000000000000000000000000000000000000000000000000000000000000000000000000000000000000000000000000000000000000000000000000000000000000000000000000000000000000000000000000000000000000000000000000000000000000000000000000000000000000000000000000000000000000000000000000000000000000000000000000000000000000000000000000000000000000000000000000000000000000000000000000000000000",
                    "coinbase" : "0x2adc25665018aa1fe0e6bc666dac8fc2697ff9ba",
                    "difficulty" : "0x20000",
                    "extraData" : "0x00",
                    "gasLimit" : "0xf460f",
                    "gasUsed" : "0x19b4c",
                    "hash" : "0x308acc5b759b7465eda885b45327ef6ace2aea8888f9421addef55bbb181d657",
                    "mixHash" : "0x0000000000000000000000000000000000000000000000000000000000000000",
                    "nonce" : "0x0000000000000000",
                    "number" : "0x1",
                    "parentHash" : "0xa0aeed0d6735247ae877d760809a8bb9db04d74a1697deb1bf3a1af168ad54cf",
                    "receiptTrie" : "0x3dca28d828c1101fbeb4fbbf5c4aa3681cf570ee96578eed7ec3fa52d63cf2f3",
                    "stateRoot" : "0xecc7b52cd3737d3711548d0be332296a3a1d0d3023ef60a97ea9a811fea8d819",
                    "timestamp" : "0x3e8",
                    "transactionsTrie" : "0xa85a0a1d452f17fa5061656bebc184a3a9e4aa6ed4ec369eeec692c5e2086b01",
                    "uncleHash" : "0x1dcc4de8dec75d7aab85b567b6ccd41ad312451b948a7413f0a142fd40d49347"
                },
                "transactions" : [
                    {
                        "data" : "0x64600160015560005260006005601b6000f500",
                        "gasLimit" : "0x061a80",
                        "gasPrice" : "0x01",
                        "nonce" : "0x00",
                        "to" : "",
                        "value" : "0x01",
                        "v" : "0x1c",
                        "r" : "0xa539ac265ca9cce8ec080a472b0a8066c704c8dcbb4c8df0bf3e24c1ff521925",
                        "s" : "0x2908146c1b34267e873efd470b04efeababa06b921dc2dceaa4f2ca2d3138b29"
                    }
                ]
            }
        ]
    },
    "create2collisionStorage_d2g0v0_Istanbul" : {
        "_info" : {
            "comment" : "create2 generates an account that already exists and has storage != 0",
            "filling-rpc-server" : "Geth-1.9.6-unstable-63b18027-20190920",
            "filling-tool-version" : "retesteth-0.0.1+commit.0ae18aef.Linux.g++",
            "lllcversion" : "Version: 0.5.12-develop.2019.9.13+commit.2d601a4f.Linux.g++",
            "source" : "src/GeneralStateTestsFiller/stCreate2/create2collisionStorageFiller.json",
            "sourceHash" : "8c7556b21fb16966854368d382b4c315cada1b12c78a8bed75729b3dd0f78fa2"
        },
        "genesisBlockHeader" : {
            "bloom" : "0x00000000000000000000000000000000000000000000000000000000000000000000000000000000000000000000000000000000000000000000000000000000000000000000000000000000000000000000000000000000000000000000000000000000000000000000000000000000000000000000000000000000000000000000000000000000000000000000000000000000000000000000000000000000000000000000000000000000000000000000000000000000000000000000000000000000000000000000000000000000000000000000000000000000000000000000000000000000000000000000000000000000000000000000000000000000",
            "coinbase" : "0x2adc25665018aa1fe0e6bc666dac8fc2697ff9ba",
            "difficulty" : "0x20000",
            "extraData" : "0x00",
            "gasLimit" : "0xf4240",
            "gasUsed" : "0x0",
            "hash" : "0xa0aeed0d6735247ae877d760809a8bb9db04d74a1697deb1bf3a1af168ad54cf",
            "mixHash" : "0x0000000000000000000000000000000000000000000000000000000000000000",
            "nonce" : "0x0000000000000000",
            "number" : "0x0",
            "parentHash" : "0x0000000000000000000000000000000000000000000000000000000000000000",
            "receiptTrie" : "0x56e81f171bcc55a6ff8345e692c0f86e5b48e01b996cadc001622fb5e363b421",
            "stateRoot" : "0xd07addde6420f48a5daa734b13b9c5aab5ba137c965c298be6ec3f21ca4daa22",
            "timestamp" : "0x0",
            "transactionsTrie" : "0x56e81f171bcc55a6ff8345e692c0f86e5b48e01b996cadc001622fb5e363b421",
            "uncleHash" : "0x1dcc4de8dec75d7aab85b567b6ccd41ad312451b948a7413f0a142fd40d49347"
        },
        "pre" : {
            "0xa94f5374fce5edbc8e2a8697c15331677e6ebf0b" : {
                "balance" : "0x0de0b6b3a7640000",
                "code" : "0x",
                "nonce" : "0x00",
                "storage" : {
                }
            },
            "0xaf3ecba2fe09a4f6c19f16a9d119e44e08c2da01" : {
                "balance" : "0x00",
                "code" : "0x",
                "nonce" : "0x00",
                "storage" : {
                    "0x00" : "0x01"
                }
            },
            "0xe2b35478fdd26477cc576dd906e6277761246a3c" : {
                "balance" : "0x00",
                "code" : "0x",
                "nonce" : "0x00",
                "storage" : {
                    "0x00" : "0x01"
                }
            },
            "0xec2c6832d00680ece8ff9254f81fdab0a5a2ac50" : {
                "balance" : "0x00",
                "code" : "0x",
                "nonce" : "0x00",
                "storage" : {
                    "0x00" : "0x01"
                }
            }
        },
        "postState" : {
            "0xa94f5374fce5edbc8e2a8697c15331677e6ebf0b" : {
                "code" : "0x",
                "nonce" : "0x01",
                "balance" : "0x0de0b6b3a762ae5b",
                "storage" : {
                }
            },
            "0xaf3ecba2fe09a4f6c19f16a9d119e44e08c2da01" : {
                "code" : "0x",
                "nonce" : "0x00",
                "balance" : "0x00",
                "storage" : {
                    "0x00" : "0x01"
                }
            },
            "0xe2b35478fdd26477cc576dd906e6277761246a3c" : {
                "code" : "0x",
                "nonce" : "0x00",
                "balance" : "0x00",
                "storage" : {
                    "0x00" : "0x01"
                }
            },
            "0xec2c6832d00680ece8ff9254f81fdab0a5a2ac50" : {
                "code" : "0x6001600155",
                "nonce" : "0x01",
                "balance" : "0x00",
                "storage" : {
                }
            },
            "0x2adc25665018aa1fe0e6bc666dac8fc2697ff9ba" : {
                "code" : "0x",
                "nonce" : "0x00",
                "balance" : "0x1bc16d674ec951a4",
                "storage" : {
                }
            },
            "0x6295ee1b4f6dd65047762f924ecd367c17eabf8f" : {
                "code" : "0x",
                "nonce" : "0x02",
                "balance" : "0x01",
                "storage" : {
                }
            }
        },
        "network" : "Istanbul",
        "sealEngine" : "NoProof",
        "lastblockhash" : "0xcd873291032a636d4f36c8aabe880b2dd2e3dbbc7654505227b422cdc4455e60",
        "genesisRLP" : "0xf901f8f901f3a00000000000000000000000000000000000000000000000000000000000000000a01dcc4de8dec75d7aab85b567b6ccd41ad312451b948a7413f0a142fd40d49347942adc25665018aa1fe0e6bc666dac8fc2697ff9baa0d07addde6420f48a5daa734b13b9c5aab5ba137c965c298be6ec3f21ca4daa22a056e81f171bcc55a6ff8345e692c0f86e5b48e01b996cadc001622fb5e363b421a056e81f171bcc55a6ff8345e692c0f86e5b48e01b996cadc001622fb5e363b421b90100000000000000000000000000000000000000000000000000000000000000000000000000000000000000000000000000000000000000000000000000000000000000000000000000000000000000000000000000000000000000000000000000000000000000000000000000000000000000000000000000000000000000000000000000000000000000000000000000000000000000000000000000000000000000000000000000000000000000000000000000000000000000000000000000000000000000000000000000000000000000000000000000000000000000000000000000000000000000000000000000000000000000000000000000000000008302000080830f4240808000a00000000000000000000000000000000000000000000000000000000000000000880000000000000000c0c0",
        "blocks" : [
            {
                "rlp" : "0xf90268f901f8a0a0aeed0d6735247ae877d760809a8bb9db04d74a1697deb1bf3a1af168ad54cfa01dcc4de8dec75d7aab85b567b6ccd41ad312451b948a7413f0a142fd40d49347942adc25665018aa1fe0e6bc666dac8fc2697ff9baa09a596a1842dcb6e142e6902b092b16f2a3f8cd2f59dd7d94db1f5cd29645663fa08a84d9fe4b88938bf05f62b943f0747517a98cf0e70885601af119b8c2a083fea0251f50c5ca9907c5bec4bafbd587c978dfbbff5dd146342ee9d499f252f2e886b90100000000000000000000000000000000000000000000000000000000000000000000000000000000000000000000000000000000000000000000000000000000000000000000000000000000000000000000000000000000000000000000000000000000000000000000000000000000000000000000000000000000000000000000000000000000000000000000000000000000000000000000000000000000000000000000000000000000000000000000000000000000000000000000000000000000000000000000000000000000000000000000000000000000000000000000000000000000000000000000000000000000000000000000000000000000008302000001830f460f830151a48203e800a00000000000000000000000000000000000000000000000000000000000000000880000000000000000f86af868800183061a8080019c6d6460016001556000526005601bf36000526000600e60126000f5001ba06a582e8e58f8a8d37af8c6b553a08186e695b13fa7b3a48fbabcc668679af88fa03d816f5e5c388c2a6d002695905e3d8d3e1558f0164f298dd02b59bbe094f190c0",
                "blockHeader" : {
                    "bloom" : "0x00000000000000000000000000000000000000000000000000000000000000000000000000000000000000000000000000000000000000000000000000000000000000000000000000000000000000000000000000000000000000000000000000000000000000000000000000000000000000000000000000000000000000000000000000000000000000000000000000000000000000000000000000000000000000000000000000000000000000000000000000000000000000000000000000000000000000000000000000000000000000000000000000000000000000000000000000000000000000000000000000000000000000000000000000000000",
                    "coinbase" : "0x2adc25665018aa1fe0e6bc666dac8fc2697ff9ba",
                    "difficulty" : "0x20000",
                    "extraData" : "0x00",
                    "gasLimit" : "0xf460f",
                    "gasUsed" : "0x151a4",
                    "hash" : "0xcd873291032a636d4f36c8aabe880b2dd2e3dbbc7654505227b422cdc4455e60",
                    "mixHash" : "0x0000000000000000000000000000000000000000000000000000000000000000",
                    "nonce" : "0x0000000000000000",
                    "number" : "0x1",
                    "parentHash" : "0xa0aeed0d6735247ae877d760809a8bb9db04d74a1697deb1bf3a1af168ad54cf",
                    "receiptTrie" : "0x251f50c5ca9907c5bec4bafbd587c978dfbbff5dd146342ee9d499f252f2e886",
                    "stateRoot" : "0x9a596a1842dcb6e142e6902b092b16f2a3f8cd2f59dd7d94db1f5cd29645663f",
                    "timestamp" : "0x3e8",
                    "transactionsTrie" : "0x8a84d9fe4b88938bf05f62b943f0747517a98cf0e70885601af119b8c2a083fe",
                    "uncleHash" : "0x1dcc4de8dec75d7aab85b567b6ccd41ad312451b948a7413f0a142fd40d49347"
                },
                "transactions" : [
                    {
                        "data" : "0x6d6460016001556000526005601bf36000526000600e60126000f500",
                        "gasLimit" : "0x061a80",
                        "gasPrice" : "0x01",
                        "nonce" : "0x00",
                        "to" : "",
                        "value" : "0x01",
                        "v" : "0x1b",
                        "r" : "0x6a582e8e58f8a8d37af8c6b553a08186e695b13fa7b3a48fbabcc668679af88f",
                        "s" : "0x3d816f5e5c388c2a6d002695905e3d8d3e1558f0164f298dd02b59bbe094f190"
                    }
                ]
            }
        ]
    }
}