{
    "create2collisionSelfdestructed2_d0g0v0_Istanbul" : {
        "_info" : {
            "comment" : "A contract which performs SUICIDE, and is then attempted to be recreated (different code, same init-code) during the same transaction. This ought to fail, since the code is not cleaned out until after the transaction is ended.",
            "filling-rpc-server" : "Geth-1.9.6-unstable-63b18027-20190920",
            "filling-tool-version" : "retesteth-0.0.1+commit.0ae18aef.Linux.g++",
            "lllcversion" : "Version: 0.5.12-develop.2019.9.13+commit.2d601a4f.Linux.g++",
            "source" : "src/GeneralStateTestsFiller/stCreate2/create2collisionSelfdestructed2Filler.json",
            "sourceHash" : "fd31942086bbac075dd7f0d643cd69070a935537c7809d149629fbe77f1ce258"
        },
        "genesisBlockHeader" : {
            "bloom" : "0x00000000000000000000000000000000000000000000000000000000000000000000000000000000000000000000000000000000000000000000000000000000000000000000000000000000000000000000000000000000000000000000000000000000000000000000000000000000000000000000000000000000000000000000000000000000000000000000000000000000000000000000000000000000000000000000000000000000000000000000000000000000000000000000000000000000000000000000000000000000000000000000000000000000000000000000000000000000000000000000000000000000000000000000000000000000",
            "coinbase" : "0x2adc25665018aa1fe0e6bc666dac8fc2697ff9ba",
            "difficulty" : "0x20000",
            "extraData" : "0x00",
            "gasLimit" : "0xf4240",
            "gasUsed" : "0x0",
            "hash" : "0xc8f65c3d5f0b1dfa5381e5f4c6eff3dad6db37ad00178e6e79035c16bab63171",
            "mixHash" : "0x0000000000000000000000000000000000000000000000000000000000000000",
            "nonce" : "0x0000000000000000",
            "number" : "0x0",
            "parentHash" : "0x0000000000000000000000000000000000000000000000000000000000000000",
            "receiptTrie" : "0x56e81f171bcc55a6ff8345e692c0f86e5b48e01b996cadc001622fb5e363b421",
            "stateRoot" : "0xce163876ce89b2e1c36ee5d840f2e76cdfa8e8fa2baf0c2f1402716473f29373",
            "timestamp" : "0x0",
            "transactionsTrie" : "0x56e81f171bcc55a6ff8345e692c0f86e5b48e01b996cadc001622fb5e363b421",
            "uncleHash" : "0x1dcc4de8dec75d7aab85b567b6ccd41ad312451b948a7413f0a142fd40d49347"
        },
        "pre" : {
            "0xa94f5374fce5edbc8e2a8697c15331677e6ebf0b" : {
                "balance" : "0x0de0b6b3a7640000",
                "code" : "0x626010ff6000526003601df300",
                "nonce" : "0x00",
                "storage" : {
                }
            },
            "0xcff64f4c5df8f436c4f2c1af4b2e3f9e3004c779" : {
                "balance" : "0x01",
                "code" : "0x6010ff",
                "nonce" : "0x01",
                "storage" : {
                }
            },
            "0xfce41d047b4a1d4450382dcc29ec7e5fedc5f9a3" : {
                "balance" : "0x01",
                "code" : "0x6010ff00",
                "nonce" : "0x00",
                "storage" : {
                }
            }
        },
        "postState" : {
            "0xa94f5374fce5edbc8e2a8697c15331677e6ebf0b" : {
                "code" : "0x626010ff6000526003601df300",
                "nonce" : "0x01",
                "balance" : "0x0de0b6b3a75e548b",
                "storage" : {
                }
            },
            "0x0000000000000000000000000000000000000010" : {
                "code" : "0x",
                "nonce" : "0x00",
                "balance" : "0x01",
                "storage" : {
                }
            },
            "0x2adc25665018aa1fe0e6bc666dac8fc2697ff9ba" : {
                "code" : "0x",
                "nonce" : "0x00",
                "balance" : "0x1bc16d674ecdab75",
                "storage" : {
                }
            },
            "0xcff64f4c5df8f436c4f2c1af4b2e3f9e3004c779" : {
                "code" : "0x6010ff",
                "nonce" : "0x01",
                "balance" : "0x01",
                "storage" : {
                }
            },
            "0x6295ee1b4f6dd65047762f924ecd367c17eabf8f" : {
                "code" : "0x",
                "nonce" : "0x02",
                "balance" : "0x00",
                "storage" : {
                }
            }
        },
        "network" : "Istanbul",
        "sealEngine" : "NoProof",
        "lastblockhash" : "0xd3b7c77c4d956cadd6267b4db2c64db2afd2df46f6150982670fb37106481bd3",
        "genesisRLP" : "0xf901f8f901f3a00000000000000000000000000000000000000000000000000000000000000000a01dcc4de8dec75d7aab85b567b6ccd41ad312451b948a7413f0a142fd40d49347942adc25665018aa1fe0e6bc666dac8fc2697ff9baa0ce163876ce89b2e1c36ee5d840f2e76cdfa8e8fa2baf0c2f1402716473f29373a056e81f171bcc55a6ff8345e692c0f86e5b48e01b996cadc001622fb5e363b421a056e81f171bcc55a6ff8345e692c0f86e5b48e01b996cadc001622fb5e363b421b90100000000000000000000000000000000000000000000000000000000000000000000000000000000000000000000000000000000000000000000000000000000000000000000000000000000000000000000000000000000000000000000000000000000000000000000000000000000000000000000000000000000000000000000000000000000000000000000000000000000000000000000000000000000000000000000000000000000000000000000000000000000000000000000000000000000000000000000000000000000000000000000000000000000000000000000000000000000000000000000000000000000000000000000000000000000008302000080830f4240808000a00000000000000000000000000000000000000000000000000000000000000000880000000000000000c0c0",
        "blocks" : [
            {
                "rlp" : "0xf9028bf901f8a0c8f65c3d5f0b1dfa5381e5f4c6eff3dad6db37ad00178e6e79035c16bab63171a01dcc4de8dec75d7aab85b567b6ccd41ad312451b948a7413f0a142fd40d49347942adc25665018aa1fe0e6bc666dac8fc2697ff9baa0db5b81602d3e11360899cb2f7a27d2ee169ee0da1a41a0d3d027d75c135421f1a0ad5b6276b75467a02f705345db1f401a6636964c0c904b2d0e931e8c0ef4ac3fa0e8a6674325af16f124920266e335be66cbe29e6d925ffc9c0200a28b451d68ebb90100000000000000000000000000000000000000000000000000000000000000000000000000000000000000000000000000000000000000000000000000000000000000000000000000000000000000000000000000000000000000000000000000000000000000000000000000000000000000000000000000000000000000000000000000000000000000000000000000000000000000000000000000000000000000000000000000000000000000000000000000000000000000000000000000000000000000000000000000000000000000000000000000000000000000000000000000000000000000000000000000000000000000000000000000000000008302000001830f460f8305ab758203e800a00000000000000000000000000000000000000000000000000000000000000000880000000000000000f88df88b800183061a808080b83e6000600060006000600073fce41d047b4a1d4450382dcc29ec7e5fedc5f9a361c350f1506b620102036000526003601df36000526000600c60146000f5001ba0ec0d427aa7ad86598010c057e4aa2c1e1a1b433151651df1584eac27ac3080b7a028c002ba4d57a401b0a24db8d099cb86166d039fd79fd5009169fdbb343ab512c0",
                "blockHeader" : {
                    "bloom" : "0x00000000000000000000000000000000000000000000000000000000000000000000000000000000000000000000000000000000000000000000000000000000000000000000000000000000000000000000000000000000000000000000000000000000000000000000000000000000000000000000000000000000000000000000000000000000000000000000000000000000000000000000000000000000000000000000000000000000000000000000000000000000000000000000000000000000000000000000000000000000000000000000000000000000000000000000000000000000000000000000000000000000000000000000000000000000",
                    "coinbase" : "0x2adc25665018aa1fe0e6bc666dac8fc2697ff9ba",
                    "difficulty" : "0x20000",
                    "extraData" : "0x00",
                    "gasLimit" : "0xf460f",
                    "gasUsed" : "0x5ab75",
                    "hash" : "0xd3b7c77c4d956cadd6267b4db2c64db2afd2df46f6150982670fb37106481bd3",
                    "mixHash" : "0x0000000000000000000000000000000000000000000000000000000000000000",
                    "nonce" : "0x0000000000000000",
                    "number" : "0x1",
                    "parentHash" : "0xc8f65c3d5f0b1dfa5381e5f4c6eff3dad6db37ad00178e6e79035c16bab63171",
                    "receiptTrie" : "0xe8a6674325af16f124920266e335be66cbe29e6d925ffc9c0200a28b451d68eb",
                    "stateRoot" : "0xdb5b81602d3e11360899cb2f7a27d2ee169ee0da1a41a0d3d027d75c135421f1",
                    "timestamp" : "0x3e8",
                    "transactionsTrie" : "0xad5b6276b75467a02f705345db1f401a6636964c0c904b2d0e931e8c0ef4ac3f",
                    "uncleHash" : "0x1dcc4de8dec75d7aab85b567b6ccd41ad312451b948a7413f0a142fd40d49347"
                },
                "transactions" : [
                    {
                        "data" : "0x6000600060006000600073fce41d047b4a1d4450382dcc29ec7e5fedc5f9a361c350f1506b620102036000526003601df36000526000600c60146000f500",
                        "gasLimit" : "0x061a80",
                        "gasPrice" : "0x01",
                        "nonce" : "0x00",
                        "to" : "",
                        "value" : "0x00",
                        "v" : "0x1b",
                        "r" : "0xec0d427aa7ad86598010c057e4aa2c1e1a1b433151651df1584eac27ac3080b7",
                        "s" : "0x28c002ba4d57a401b0a24db8d099cb86166d039fd79fd5009169fdbb343ab512"
                    }
                ]
            }
        ]
    },
    "create2collisionSelfdestructed2_d1g0v0_Istanbul" : {
        "_info" : {
            "comment" : "A contract which performs SUICIDE, and is then attempted to be recreated (different code, same init-code) during the same transaction. This ought to fail, since the code is not cleaned out until after the transaction is ended.",
            "filling-rpc-server" : "Geth-1.9.6-unstable-63b18027-20190920",
            "filling-tool-version" : "retesteth-0.0.1+commit.0ae18aef.Linux.g++",
            "lllcversion" : "Version: 0.5.12-develop.2019.9.13+commit.2d601a4f.Linux.g++",
            "source" : "src/GeneralStateTestsFiller/stCreate2/create2collisionSelfdestructed2Filler.json",
            "sourceHash" : "fd31942086bbac075dd7f0d643cd69070a935537c7809d149629fbe77f1ce258"
        },
        "genesisBlockHeader" : {
            "bloom" : "0x00000000000000000000000000000000000000000000000000000000000000000000000000000000000000000000000000000000000000000000000000000000000000000000000000000000000000000000000000000000000000000000000000000000000000000000000000000000000000000000000000000000000000000000000000000000000000000000000000000000000000000000000000000000000000000000000000000000000000000000000000000000000000000000000000000000000000000000000000000000000000000000000000000000000000000000000000000000000000000000000000000000000000000000000000000000",
            "coinbase" : "0x2adc25665018aa1fe0e6bc666dac8fc2697ff9ba",
            "difficulty" : "0x20000",
            "extraData" : "0x00",
            "gasLimit" : "0xf4240",
            "gasUsed" : "0x0",
            "hash" : "0xc8f65c3d5f0b1dfa5381e5f4c6eff3dad6db37ad00178e6e79035c16bab63171",
            "mixHash" : "0x0000000000000000000000000000000000000000000000000000000000000000",
            "nonce" : "0x0000000000000000",
            "number" : "0x0",
            "parentHash" : "0x0000000000000000000000000000000000000000000000000000000000000000",
            "receiptTrie" : "0x56e81f171bcc55a6ff8345e692c0f86e5b48e01b996cadc001622fb5e363b421",
            "stateRoot" : "0xce163876ce89b2e1c36ee5d840f2e76cdfa8e8fa2baf0c2f1402716473f29373",
            "timestamp" : "0x0",
            "transactionsTrie" : "0x56e81f171bcc55a6ff8345e692c0f86e5b48e01b996cadc001622fb5e363b421",
            "uncleHash" : "0x1dcc4de8dec75d7aab85b567b6ccd41ad312451b948a7413f0a142fd40d49347"
        },
        "pre" : {
            "0xa94f5374fce5edbc8e2a8697c15331677e6ebf0b" : {
                "balance" : "0x0de0b6b3a7640000",
                "code" : "0x626010ff6000526003601df300",
                "nonce" : "0x00",
                "storage" : {
                }
            },
            "0xcff64f4c5df8f436c4f2c1af4b2e3f9e3004c779" : {
                "balance" : "0x01",
                "code" : "0x6010ff",
                "nonce" : "0x01",
                "storage" : {
                }
            },
            "0xfce41d047b4a1d4450382dcc29ec7e5fedc5f9a3" : {
                "balance" : "0x01",
                "code" : "0x6010ff00",
                "nonce" : "0x00",
                "storage" : {
                }
            }
        },
        "postState" : {
            "0xa94f5374fce5edbc8e2a8697c15331677e6ebf0b" : {
                "code" : "0x626010ff6000526003601df300",
                "nonce" : "0x01",
                "balance" : "0x0de0b6b3a75e548b",
                "storage" : {
                }
            },
            "0x0000000000000000000000000000000000000010" : {
                "code" : "0x",
                "nonce" : "0x00",
                "balance" : "0x01",
                "storage" : {
                }
            },
            "0x2adc25665018aa1fe0e6bc666dac8fc2697ff9ba" : {
                "code" : "0x",
                "nonce" : "0x00",
                "balance" : "0x1bc16d674ecdab75",
                "storage" : {
                }
            },
            "0xfce41d047b4a1d4450382dcc29ec7e5fedc5f9a3" : {
                "code" : "0x6010ff00",
                "nonce" : "0x00",
                "balance" : "0x01",
                "storage" : {
                }
            },
            "0x6295ee1b4f6dd65047762f924ecd367c17eabf8f" : {
                "code" : "0x",
                "nonce" : "0x02",
                "balance" : "0x00",
                "storage" : {
                }
            }
        },
        "network" : "Istanbul",
        "sealEngine" : "NoProof",
        "lastblockhash" : "0xf9f79c75222c953d48eedf62c22fbbaa3e510dbd9d27ed86753396c43223c679",
        "genesisRLP" : "0xf901f8f901f3a00000000000000000000000000000000000000000000000000000000000000000a01dcc4de8dec75d7aab85b567b6ccd41ad312451b948a7413f0a142fd40d49347942adc25665018aa1fe0e6bc666dac8fc2697ff9baa0ce163876ce89b2e1c36ee5d840f2e76cdfa8e8fa2baf0c2f1402716473f29373a056e81f171bcc55a6ff8345e692c0f86e5b48e01b996cadc001622fb5e363b421a056e81f171bcc55a6ff8345e692c0f86e5b48e01b996cadc001622fb5e363b421b90100000000000000000000000000000000000000000000000000000000000000000000000000000000000000000000000000000000000000000000000000000000000000000000000000000000000000000000000000000000000000000000000000000000000000000000000000000000000000000000000000000000000000000000000000000000000000000000000000000000000000000000000000000000000000000000000000000000000000000000000000000000000000000000000000000000000000000000000000000000000000000000000000000000000000000000000000000000000000000000000000000000000000000000000000000000008302000080830f4240808000a00000000000000000000000000000000000000000000000000000000000000000880000000000000000c0c0",
        "blocks" : [
            {
                "rlp" : "0xf9028af901f8a0c8f65c3d5f0b1dfa5381e5f4c6eff3dad6db37ad00178e6e79035c16bab63171a01dcc4de8dec75d7aab85b567b6ccd41ad312451b948a7413f0a142fd40d49347942adc25665018aa1fe0e6bc666dac8fc2697ff9baa08e09cccf3224e911f62e868094ae99decfc85438b4f88e432d225094bace8a0ea004eb228a2bd28f07d334504d6cd6700dfcf02fb174f3948d200c16ac36b83e28a0e8a6674325af16f124920266e335be66cbe29e6d925ffc9c0200a28b451d68ebb90100000000000000000000000000000000000000000000000000000000000000000000000000000000000000000000000000000000000000000000000000000000000000000000000000000000000000000000000000000000000000000000000000000000000000000000000000000000000000000000000000000000000000000000000000000000000000000000000000000000000000000000000000000000000000000000000000000000000000000000000000000000000000000000000000000000000000000000000000000000000000000000000000000000000000000000000000000000000000000000000000000000000000000000000000000000008302000001830f460f8305ab758203e800a00000000000000000000000000000000000000000000000000000000000000000880000000000000000f88cf88a800183061a808080b83e6000600060006000600073cff64f4c5df8f436c4f2c1af4b2e3f9e3004c77961c350f1506b626010ff6000526003601df36000526000600c60146000f5001ba02205880ef32ee08ad18d3d1a078eda0febf36963198becb3b5e793fc4e61c2839f16825526afe7be074c8ddacbaecbef2e268c0ec5368e50bd9d0340379a74f2c0",
                "blockHeader" : {
                    "bloom" : "0x00000000000000000000000000000000000000000000000000000000000000000000000000000000000000000000000000000000000000000000000000000000000000000000000000000000000000000000000000000000000000000000000000000000000000000000000000000000000000000000000000000000000000000000000000000000000000000000000000000000000000000000000000000000000000000000000000000000000000000000000000000000000000000000000000000000000000000000000000000000000000000000000000000000000000000000000000000000000000000000000000000000000000000000000000000000",
                    "coinbase" : "0x2adc25665018aa1fe0e6bc666dac8fc2697ff9ba",
                    "difficulty" : "0x20000",
                    "extraData" : "0x00",
                    "gasLimit" : "0xf460f",
                    "gasUsed" : "0x5ab75",
                    "hash" : "0xf9f79c75222c953d48eedf62c22fbbaa3e510dbd9d27ed86753396c43223c679",
                    "mixHash" : "0x0000000000000000000000000000000000000000000000000000000000000000",
                    "nonce" : "0x0000000000000000",
                    "number" : "0x1",
                    "parentHash" : "0xc8f65c3d5f0b1dfa5381e5f4c6eff3dad6db37ad00178e6e79035c16bab63171",
                    "receiptTrie" : "0xe8a6674325af16f124920266e335be66cbe29e6d925ffc9c0200a28b451d68eb",
                    "stateRoot" : "0x8e09cccf3224e911f62e868094ae99decfc85438b4f88e432d225094bace8a0e",
                    "timestamp" : "0x3e8",
                    "transactionsTrie" : "0x04eb228a2bd28f07d334504d6cd6700dfcf02fb174f3948d200c16ac36b83e28",
                    "uncleHash" : "0x1dcc4de8dec75d7aab85b567b6ccd41ad312451b948a7413f0a142fd40d49347"
                },
                "transactions" : [
                    {
                        "data" : "0x6000600060006000600073cff64f4c5df8f436c4f2c1af4b2e3f9e3004c77961c350f1506b626010ff6000526003601df36000526000600c60146000f500",
                        "gasLimit" : "0x061a80",
                        "gasPrice" : "0x01",
                        "nonce" : "0x00",
                        "to" : "",
                        "value" : "0x00",
                        "v" : "0x1b",
                        "r" : "0x2205880ef32ee08ad18d3d1a078eda0febf36963198becb3b5e793fc4e61c283",
                        "s" : "0x0016825526afe7be074c8ddacbaecbef2e268c0ec5368e50bd9d0340379a74f2"
                    }
                ]
            }
        ]
    }
}