{
    "Create2OOGafterInitCodeReturndataSize_d0g0v0_Istanbul" : {
        "_info" : {
            "comment" : "Calls a contract that runs CREATE2 which deploy a code. then OOG happens upon deployment of the actual code. check the RETURNDATASIZE after create. fails with OOG if RETURNDATASIZE != 0",
            "filling-rpc-server" : "Geth-1.9.6-unstable-63b18027-20190920",
            "filling-tool-version" : "retesteth-0.0.1+commit.0ae18aef.Linux.g++",
            "lllcversion" : "Version: 0.5.12-develop.2019.9.13+commit.2d601a4f.Linux.g++",
            "source" : "src/GeneralStateTestsFiller/stCreate2/Create2OOGafterInitCodeReturndataSizeFiller.json",
            "sourceHash" : "302df6ddb80d91898140f533bc9798e9e528a6629da05a73760b66a69c12b9b5"
        },
        "genesisBlockHeader" : {
            "bloom" : "0x00000000000000000000000000000000000000000000000000000000000000000000000000000000000000000000000000000000000000000000000000000000000000000000000000000000000000000000000000000000000000000000000000000000000000000000000000000000000000000000000000000000000000000000000000000000000000000000000000000000000000000000000000000000000000000000000000000000000000000000000000000000000000000000000000000000000000000000000000000000000000000000000000000000000000000000000000000000000000000000000000000000000000000000000000000000",
            "coinbase" : "0x2adc25665018aa1fe0e6bc666dac8fc2697ff9ba",
            "difficulty" : "0x20000",
            "extraData" : "0x00",
            "gasLimit" : "0x989680",
            "gasUsed" : "0x0",
            "hash" : "0xd37038038df84253a8c2fd5519686eefaf209a4aedbda16a4ef7f8088c23f07c",
            "mixHash" : "0x0000000000000000000000000000000000000000000000000000000000000000",
            "nonce" : "0x0000000000000000",
            "number" : "0x0",
            "parentHash" : "0x0000000000000000000000000000000000000000000000000000000000000000",
            "receiptTrie" : "0x56e81f171bcc55a6ff8345e692c0f86e5b48e01b996cadc001622fb5e363b421",
            "stateRoot" : "0x7603b6a66cfde3f58a3815bba0199b7041024a9be53135599852c9c5d65eefe5",
            "timestamp" : "0x0",
            "transactionsTrie" : "0x56e81f171bcc55a6ff8345e692c0f86e5b48e01b996cadc001622fb5e363b421",
            "uncleHash" : "0x1dcc4de8dec75d7aab85b567b6ccd41ad312451b948a7413f0a142fd40d49347"
        },
        "pre" : {
            "0xa94f5374fce5edbc8e2a8697c15331677e6ebf0b" : {
                "balance" : "0xe8d4a51000",
                "code" : "0x",
                "nonce" : "0x00",
                "storage" : {
                }
            },
            "0xb94f5374fce5edbc8e2a8697c15331677e6ebf0b" : {
                "balance" : "0x00",
                "code" : "0x726960016001556001600255600052600a6016f360005260006013600d6000f5503d60020a00",
                "nonce" : "0x00",
                "storage" : {
                }
            }
        },
        "postState" : {
            "0xa94f5374fce5edbc8e2a8697c15331677e6ebf0b" : {
                "code" : "0x",
                "nonce" : "0x01",
                "balance" : "0xe8d4a438ff",
                "storage" : {
                }
            },
            "0x2adc25665018aa1fe0e6bc666dac8fc2697ff9ba" : {
                "code" : "0x",
                "nonce" : "0x00",
                "balance" : "0x1bc16d674ec8d700",
                "storage" : {
                }
            },
            "0xb94f5374fce5edbc8e2a8697c15331677e6ebf0b" : {
                "code" : "0x726960016001556001600255600052600a6016f360005260006013600d6000f5503d60020a00",
                "nonce" : "0x01",
                "balance" : "0x01",
                "storage" : {
                }
            }
        },
        "network" : "Istanbul",
        "sealEngine" : "NoProof",
        "lastblockhash" : "0x9a515d7e6af5c9728cdc06ad3273c5edd3cb6152fda21049a3f01fad0d74c7c0",
        "genesisRLP" : "0xf901f8f901f3a00000000000000000000000000000000000000000000000000000000000000000a01dcc4de8dec75d7aab85b567b6ccd41ad312451b948a7413f0a142fd40d49347942adc25665018aa1fe0e6bc666dac8fc2697ff9baa07603b6a66cfde3f58a3815bba0199b7041024a9be53135599852c9c5d65eefe5a056e81f171bcc55a6ff8345e692c0f86e5b48e01b996cadc001622fb5e363b421a056e81f171bcc55a6ff8345e692c0f86e5b48e01b996cadc001622fb5e363b421b9010000000000000000000000000000000000000000000000000000000000000000000000000000000000000000000000000000000000000000000000000000000000000000000000000000000000000000000000000000000000000000000000000000000000000000000000000000000000000000000000000000000000000000000000000000000000000000000000000000000000000000000000000000000000000000000000000000000000000000000000000000000000000000000000000000000000000000000000000000000000000000000000000000000000000000000000000000000000000000000000000000000000000000000000000000000000830200008083989680808000a00000000000000000000000000000000000000000000000000000000000000000880000000000000000c0c0",
        "blocks" : [
            {
                "rlp" : "0xf9025ef901f7a0d37038038df84253a8c2fd5519686eefaf209a4aedbda16a4ef7f8088c23f07ca01dcc4de8dec75d7aab85b567b6ccd41ad312451b948a7413f0a142fd40d49347942adc25665018aa1fe0e6bc666dac8fc2697ff9baa04e21edfc7c662a4744eda28b165024ad900a50f65a105d171086b9883f023117a038fb65926470d792dd2742e0d2323ad32fc3f334c32ff4d5c55d6832029b8f22a0fcdac727dc260882d90dc117234fe2e3c5c08b0353b7aa256bb73ef2a9f50eb3b901000000000000000000000000000000000000000000000000000000000000000000000000000000000000000000000000000000000000000000000000000000000000000000000000000000000000000000000000000000000000000000000000000000000000000000000000000000000000000000000000000000000000000000000000000000000000000000000000000000000000000000000000000000000000000000000000000000000000000000000000000000000000000000000000000000000000000000000000000000000000000000000000000000000000000000000000000000000000000000000000000000000000000000000000000000000083020000018398bca482d7008203e800a00000000000000000000000000000000000000000000000000000000000000000880000000000000000f861f85f800182d70e94b94f5374fce5edbc8e2a8697c15331677e6ebf0b01801ba07529ad747ccaac2ef9598a125b4d41f3e2f487ae4636838e8b37ee24b97d5e3aa02441844ea0a26e310920f6130502d08e27d0fe7c0c7afc6eda91daf762a3fcc5c0",
                "blockHeader" : {
                    "bloom" : "0x00000000000000000000000000000000000000000000000000000000000000000000000000000000000000000000000000000000000000000000000000000000000000000000000000000000000000000000000000000000000000000000000000000000000000000000000000000000000000000000000000000000000000000000000000000000000000000000000000000000000000000000000000000000000000000000000000000000000000000000000000000000000000000000000000000000000000000000000000000000000000000000000000000000000000000000000000000000000000000000000000000000000000000000000000000000",
                    "coinbase" : "0x2adc25665018aa1fe0e6bc666dac8fc2697ff9ba",
                    "difficulty" : "0x20000",
                    "extraData" : "0x00",
                    "gasLimit" : "0x98bca4",
                    "gasUsed" : "0xd700",
                    "hash" : "0x9a515d7e6af5c9728cdc06ad3273c5edd3cb6152fda21049a3f01fad0d74c7c0",
                    "mixHash" : "0x0000000000000000000000000000000000000000000000000000000000000000",
                    "nonce" : "0x0000000000000000",
                    "number" : "0x1",
                    "parentHash" : "0xd37038038df84253a8c2fd5519686eefaf209a4aedbda16a4ef7f8088c23f07c",
                    "receiptTrie" : "0xfcdac727dc260882d90dc117234fe2e3c5c08b0353b7aa256bb73ef2a9f50eb3",
                    "stateRoot" : "0x4e21edfc7c662a4744eda28b165024ad900a50f65a105d171086b9883f023117",
                    "timestamp" : "0x3e8",
                    "transactionsTrie" : "0x38fb65926470d792dd2742e0d2323ad32fc3f334c32ff4d5c55d6832029b8f22",
                    "uncleHash" : "0x1dcc4de8dec75d7aab85b567b6ccd41ad312451b948a7413f0a142fd40d49347"
                },
                "transactions" : [
                    {
                        "data" : "0x",
                        "gasLimit" : "0xd70e",
                        "gasPrice" : "0x01",
                        "nonce" : "0x00",
                        "to" : "0xb94f5374fce5edbc8e2a8697c15331677e6ebf0b",
                        "value" : "0x01",
                        "v" : "0x1b",
                        "r" : "0x7529ad747ccaac2ef9598a125b4d41f3e2f487ae4636838e8b37ee24b97d5e3a",
                        "s" : "0x2441844ea0a26e310920f6130502d08e27d0fe7c0c7afc6eda91daf762a3fcc5"
                    }
                ]
            }
        ]
    }
}