{
    "create2collisionSelfdestructedOOG_d0g0v0_Istanbul" : {
        "_info" : {
            "comment" : "collision with address that has been selfdestructed in the same transaction but then OOG",
            "filling-rpc-server" : "Geth-1.9.6-unstable-63b18027-20190920",
            "filling-tool-version" : "retesteth-0.0.1+commit.0ae18aef.Linux.g++",
            "lllcversion" : "Version: 0.5.12-develop.2019.9.13+commit.2d601a4f.Linux.g++",
            "source" : "src/GeneralStateTestsFiller/stCreate2/create2collisionSelfdestructedOOGFiller.json",
            "sourceHash" : "e607491107b9e6f45147a4b8ff57fc30c6d7ebaabb03ed115628145dcf8d9bd9"
        },
        "genesisBlockHeader" : {
            "bloom" : "0x00000000000000000000000000000000000000000000000000000000000000000000000000000000000000000000000000000000000000000000000000000000000000000000000000000000000000000000000000000000000000000000000000000000000000000000000000000000000000000000000000000000000000000000000000000000000000000000000000000000000000000000000000000000000000000000000000000000000000000000000000000000000000000000000000000000000000000000000000000000000000000000000000000000000000000000000000000000000000000000000000000000000000000000000000000000",
            "coinbase" : "0x2adc25665018aa1fe0e6bc666dac8fc2697ff9ba",
            "difficulty" : "0x20000",
            "extraData" : "0x00",
            "gasLimit" : "0xf4240",
            "gasUsed" : "0x0",
            "hash" : "0xf309d97dface725f6101989ddca517bfd7eb0085be438cc0a833cd84845801fd",
            "mixHash" : "0x0000000000000000000000000000000000000000000000000000000000000000",
            "nonce" : "0x0000000000000000",
            "number" : "0x0",
            "parentHash" : "0x0000000000000000000000000000000000000000000000000000000000000000",
            "receiptTrie" : "0x56e81f171bcc55a6ff8345e692c0f86e5b48e01b996cadc001622fb5e363b421",
            "stateRoot" : "0x4594d2100d042aefe0881e9fbb8f04fd5791022a6d78a282f0506d82ebd4242b",
            "timestamp" : "0x0",
            "transactionsTrie" : "0x56e81f171bcc55a6ff8345e692c0f86e5b48e01b996cadc001622fb5e363b421",
            "uncleHash" : "0x1dcc4de8dec75d7aab85b567b6ccd41ad312451b948a7413f0a142fd40d49347"
        },
        "pre" : {
            "0xa94f5374fce5edbc8e2a8697c15331677e6ebf0b" : {
                "balance" : "0x0de0b6b3a7640000",
                "code" : "0x",
                "nonce" : "0x00",
                "storage" : {
                }
            },
            "0xaf3ecba2fe09a4f6c19f16a9d119e44e08c2da01" : {
                "balance" : "0x01",
                "code" : "0x6010ff00",
                "nonce" : "0x00",
                "storage" : {
                }
            },
            "0xe2b35478fdd26477cc576dd906e6277761246a3c" : {
                "balance" : "0x01",
                "code" : "0x6010ff00",
                "nonce" : "0x00",
                "storage" : {
                }
            },
            "0xec2c6832d00680ece8ff9254f81fdab0a5a2ac50" : {
                "balance" : "0x01",
                "code" : "0x6010ff00",
                "nonce" : "0x00",
                "storage" : {
                }
            }
        },
        "postState" : {
            "0xa94f5374fce5edbc8e2a8697c15331677e6ebf0b" : {
                "code" : "0x",
                "nonce" : "0x01",
                "balance" : "0x0de0b6b3a760f2c0",
                "storage" : {
                }
            },
            "0xaf3ecba2fe09a4f6c19f16a9d119e44e08c2da01" : {
                "code" : "0x6010ff00",
                "nonce" : "0x00",
                "balance" : "0x01",
                "storage" : {
                }
            },
            "0xe2b35478fdd26477cc576dd906e6277761246a3c" : {
                "code" : "0x6010ff00",
                "nonce" : "0x00",
                "balance" : "0x01",
                "storage" : {
                }
            },
            "0xec2c6832d00680ece8ff9254f81fdab0a5a2ac50" : {
                "code" : "0x6010ff00",
                "nonce" : "0x00",
                "balance" : "0x01",
                "storage" : {
                }
            },
            "0x2adc25665018aa1fe0e6bc666dac8fc2697ff9ba" : {
                "code" : "0x",
                "nonce" : "0x00",
                "balance" : "0x1bc16d674ecb0d40",
                "storage" : {
                }
            }
        },
        "network" : "Istanbul",
        "sealEngine" : "NoProof",
        "lastblockhash" : "0xb196eae6ae3bd63209c4aac5250f81ce6a469541decbcb12c66c5a5c2cbcf592",
        "genesisRLP" : "0xf901f8f901f3a00000000000000000000000000000000000000000000000000000000000000000a01dcc4de8dec75d7aab85b567b6ccd41ad312451b948a7413f0a142fd40d49347942adc25665018aa1fe0e6bc666dac8fc2697ff9baa04594d2100d042aefe0881e9fbb8f04fd5791022a6d78a282f0506d82ebd4242ba056e81f171bcc55a6ff8345e692c0f86e5b48e01b996cadc001622fb5e363b421a056e81f171bcc55a6ff8345e692c0f86e5b48e01b996cadc001622fb5e363b421b90100000000000000000000000000000000000000000000000000000000000000000000000000000000000000000000000000000000000000000000000000000000000000000000000000000000000000000000000000000000000000000000000000000000000000000000000000000000000000000000000000000000000000000000000000000000000000000000000000000000000000000000000000000000000000000000000000000000000000000000000000000000000000000000000000000000000000000000000000000000000000000000000000000000000000000000000000000000000000000000000000000000000000000000000000000000008302000080830f4240808000a00000000000000000000000000000000000000000000000000000000000000000880000000000000000c0c0",
        "blocks" : [
            {
                "rlp" : "0xf90282f901f8a0f309d97dface725f6101989ddca517bfd7eb0085be438cc0a833cd84845801fda01dcc4de8dec75d7aab85b567b6ccd41ad312451b948a7413f0a142fd40d49347942adc25665018aa1fe0e6bc666dac8fc2697ff9baa037ef8293589faf9cb9bb034d7ab4f6662020abd8df2645213edd0acdbca5066aa06aa06a9392775a32915b4f76beb6d7b2e9e607cba5b28933c0002225e9c3150ea0ea5b87d12423d7570eb418dcdbb9f547f8fcc0577bd026d2189fd8fb550b85cfb90100000000000000000000000000000000000000000000000000000000000000000000000000000000000000000000000000000000000000000000000000000000000000000000000000000000000000000000000000000000000000000000000000000000000000000000000000000000000000000000000000000000000000000000000000000000000000000000000000000000000000000000000000000000000000000000000000000000000000000000000000000000000000000000000000000000000000000000000000000000000000000000000000000000000000000000000000000000000000000000000000000000000000000000000000000000008302000001830f460f83030d408203e800a00000000000000000000000000000000000000000000000000000000000000000880000000000000000f884f882800183030d408001b66000600060006000600073e2b35478fdd26477cc576dd906e6277761246a3c61c350f1506000600060006000f55062112233600055001ba039ff2a005cb203eb9f8afb8522f214decf8d6b90346d0a47953710b466c369eba06f5fe327fa5e0a46582717d6df07ae8d11953d0cde000c65da4967b87c34aca2c0",
                "blockHeader" : {
                    "bloom" : "0x00000000000000000000000000000000000000000000000000000000000000000000000000000000000000000000000000000000000000000000000000000000000000000000000000000000000000000000000000000000000000000000000000000000000000000000000000000000000000000000000000000000000000000000000000000000000000000000000000000000000000000000000000000000000000000000000000000000000000000000000000000000000000000000000000000000000000000000000000000000000000000000000000000000000000000000000000000000000000000000000000000000000000000000000000000000",
                    "coinbase" : "0x2adc25665018aa1fe0e6bc666dac8fc2697ff9ba",
                    "difficulty" : "0x20000",
                    "extraData" : "0x00",
                    "gasLimit" : "0xf460f",
                    "gasUsed" : "0x30d40",
                    "hash" : "0xb196eae6ae3bd63209c4aac5250f81ce6a469541decbcb12c66c5a5c2cbcf592",
                    "mixHash" : "0x0000000000000000000000000000000000000000000000000000000000000000",
                    "nonce" : "0x0000000000000000",
                    "number" : "0x1",
                    "parentHash" : "0xf309d97dface725f6101989ddca517bfd7eb0085be438cc0a833cd84845801fd",
                    "receiptTrie" : "0xea5b87d12423d7570eb418dcdbb9f547f8fcc0577bd026d2189fd8fb550b85cf",
                    "stateRoot" : "0x37ef8293589faf9cb9bb034d7ab4f6662020abd8df2645213edd0acdbca5066a",
                    "timestamp" : "0x3e8",
                    "transactionsTrie" : "0x6aa06a9392775a32915b4f76beb6d7b2e9e607cba5b28933c0002225e9c3150e",
                    "uncleHash" : "0x1dcc4de8dec75d7aab85b567b6ccd41ad312451b948a7413f0a142fd40d49347"
                },
                "transactions" : [
                    {
                        "data" : "0x6000600060006000600073e2b35478fdd26477cc576dd906e6277761246a3c61c350f1506000600060006000f5506211223360005500",
                        "gasLimit" : "0x030d40",
                        "gasPrice" : "0x01",
                        "nonce" : "0x00",
                        "to" : "",
                        "value" : "0x01",
                        "v" : "0x1b",
                        "r" : "0x39ff2a005cb203eb9f8afb8522f214decf8d6b90346d0a47953710b466c369eb",
                        "s" : "0x6f5fe327fa5e0a46582717d6df07ae8d11953d0cde000c65da4967b87c34aca2"
                    }
                ]
            }
        ]
    },
    "create2collisionSelfdestructedOOG_d1g0v0_Istanbul" : {
        "_info" : {
            "comment" : "collision with address that has been selfdestructed in the same transaction but then OOG",
            "filling-rpc-server" : "Geth-1.9.6-unstable-63b18027-20190920",
            "filling-tool-version" : "retesteth-0.0.1+commit.0ae18aef.Linux.g++",
            "lllcversion" : "Version: 0.5.12-develop.2019.9.13+commit.2d601a4f.Linux.g++",
            "source" : "src/GeneralStateTestsFiller/stCreate2/create2collisionSelfdestructedOOGFiller.json",
            "sourceHash" : "e607491107b9e6f45147a4b8ff57fc30c6d7ebaabb03ed115628145dcf8d9bd9"
        },
        "genesisBlockHeader" : {
            "bloom" : "0x00000000000000000000000000000000000000000000000000000000000000000000000000000000000000000000000000000000000000000000000000000000000000000000000000000000000000000000000000000000000000000000000000000000000000000000000000000000000000000000000000000000000000000000000000000000000000000000000000000000000000000000000000000000000000000000000000000000000000000000000000000000000000000000000000000000000000000000000000000000000000000000000000000000000000000000000000000000000000000000000000000000000000000000000000000000",
            "coinbase" : "0x2adc25665018aa1fe0e6bc666dac8fc2697ff9ba",
            "difficulty" : "0x20000",
            "extraData" : "0x00",
            "gasLimit" : "0xf4240",
            "gasUsed" : "0x0",
            "hash" : "0xf309d97dface725f6101989ddca517bfd7eb0085be438cc0a833cd84845801fd",
            "mixHash" : "0x0000000000000000000000000000000000000000000000000000000000000000",
            "nonce" : "0x0000000000000000",
            "number" : "0x0",
            "parentHash" : "0x0000000000000000000000000000000000000000000000000000000000000000",
            "receiptTrie" : "0x56e81f171bcc55a6ff8345e692c0f86e5b48e01b996cadc001622fb5e363b421",
            "stateRoot" : "0x4594d2100d042aefe0881e9fbb8f04fd5791022a6d78a282f0506d82ebd4242b",
            "timestamp" : "0x0",
            "transactionsTrie" : "0x56e81f171bcc55a6ff8345e692c0f86e5b48e01b996cadc001622fb5e363b421",
            "uncleHash" : "0x1dcc4de8dec75d7aab85b567b6ccd41ad312451b948a7413f0a142fd40d49347"
        },
        "pre" : {
            "0xa94f5374fce5edbc8e2a8697c15331677e6ebf0b" : {
                "balance" : "0x0de0b6b3a7640000",
                "code" : "0x",
                "nonce" : "0x00",
                "storage" : {
                }
            },
            "0xaf3ecba2fe09a4f6c19f16a9d119e44e08c2da01" : {
                "balance" : "0x01",
                "code" : "0x6010ff00",
                "nonce" : "0x00",
                "storage" : {
                }
            },
            "0xe2b35478fdd26477cc576dd906e6277761246a3c" : {
                "balance" : "0x01",
                "code" : "0x6010ff00",
                "nonce" : "0x00",
                "storage" : {
                }
            },
            "0xec2c6832d00680ece8ff9254f81fdab0a5a2ac50" : {
                "balance" : "0x01",
                "code" : "0x6010ff00",
                "nonce" : "0x00",
                "storage" : {
                }
            }
        },
        "postState" : {
            "0xa94f5374fce5edbc8e2a8697c15331677e6ebf0b" : {
                "code" : "0x",
                "nonce" : "0x01",
                "balance" : "0x0de0b6b3a760f2c0",
                "storage" : {
                }
            },
            "0xaf3ecba2fe09a4f6c19f16a9d119e44e08c2da01" : {
                "code" : "0x6010ff00",
                "nonce" : "0x00",
                "balance" : "0x01",
                "storage" : {
                }
            },
            "0xe2b35478fdd26477cc576dd906e6277761246a3c" : {
                "code" : "0x6010ff00",
                "nonce" : "0x00",
                "balance" : "0x01",
                "storage" : {
                }
            },
            "0xec2c6832d00680ece8ff9254f81fdab0a5a2ac50" : {
                "code" : "0x6010ff00",
                "nonce" : "0x00",
                "balance" : "0x01",
                "storage" : {
                }
            },
            "0x2adc25665018aa1fe0e6bc666dac8fc2697ff9ba" : {
                "code" : "0x",
                "nonce" : "0x00",
                "balance" : "0x1bc16d674ecb0d40",
                "storage" : {
                }
            }
        },
        "network" : "Istanbul",
        "sealEngine" : "NoProof",
        "lastblockhash" : "0xc6271c4b5d934c814d4673859f210f15a130573a9efc66cfac227d89cb4cc397",
        "genesisRLP" : "0xf901f8f901f3a00000000000000000000000000000000000000000000000000000000000000000a01dcc4de8dec75d7aab85b567b6ccd41ad312451b948a7413f0a142fd40d49347942adc25665018aa1fe0e6bc666dac8fc2697ff9baa04594d2100d042aefe0881e9fbb8f04fd5791022a6d78a282f0506d82ebd4242ba056e81f171bcc55a6ff8345e692c0f86e5b48e01b996cadc001622fb5e363b421a056e81f171bcc55a6ff8345e692c0f86e5b48e01b996cadc001622fb5e363b421b90100000000000000000000000000000000000000000000000000000000000000000000000000000000000000000000000000000000000000000000000000000000000000000000000000000000000000000000000000000000000000000000000000000000000000000000000000000000000000000000000000000000000000000000000000000000000000000000000000000000000000000000000000000000000000000000000000000000000000000000000000000000000000000000000000000000000000000000000000000000000000000000000000000000000000000000000000000000000000000000000000000000000000000000000000000000008302000080830f4240808000a00000000000000000000000000000000000000000000000000000000000000000880000000000000000c0c0",
        "blocks" : [
            {
                "rlp" : "0xf9028cf901f8a0f309d97dface725f6101989ddca517bfd7eb0085be438cc0a833cd84845801fda01dcc4de8dec75d7aab85b567b6ccd41ad312451b948a7413f0a142fd40d49347942adc25665018aa1fe0e6bc666dac8fc2697ff9baa037ef8293589faf9cb9bb034d7ab4f6662020abd8df2645213edd0acdbca5066aa082241feecc68ec4e692397774cc7ab9417269faf8ce2390ece17bb77a1830992a0ea5b87d12423d7570eb418dcdbb9f547f8fcc0577bd026d2189fd8fb550b85cfb90100000000000000000000000000000000000000000000000000000000000000000000000000000000000000000000000000000000000000000000000000000000000000000000000000000000000000000000000000000000000000000000000000000000000000000000000000000000000000000000000000000000000000000000000000000000000000000000000000000000000000000000000000000000000000000000000000000000000000000000000000000000000000000000000000000000000000000000000000000000000000000000000000000000000000000000000000000000000000000000000000000000000000000000000000000000008302000001830f460f83030d408203e800a00000000000000000000000000000000000000000000000000000000000000000880000000000000000f88ef88c800183030d408001b83f6000600060006000600073af3ecba2fe09a4f6c19f16a9d119e44e08c2da0161c350f15064600160015560005260006005601b6000f55062112233600055001ba0b12f234809fa1637e92555a39ec350934da226fff897aaffbf880f8807cf2699a078dd3b811eddcefc03a32c49f2c7a69dcf18b4494275d4ace34f6ea0fea3b4f3c0",
                "blockHeader" : {
                    "bloom" : "0x00000000000000000000000000000000000000000000000000000000000000000000000000000000000000000000000000000000000000000000000000000000000000000000000000000000000000000000000000000000000000000000000000000000000000000000000000000000000000000000000000000000000000000000000000000000000000000000000000000000000000000000000000000000000000000000000000000000000000000000000000000000000000000000000000000000000000000000000000000000000000000000000000000000000000000000000000000000000000000000000000000000000000000000000000000000",
                    "coinbase" : "0x2adc25665018aa1fe0e6bc666dac8fc2697ff9ba",
                    "difficulty" : "0x20000",
                    "extraData" : "0x00",
                    "gasLimit" : "0xf460f",
                    "gasUsed" : "0x30d40",
                    "hash" : "0xc6271c4b5d934c814d4673859f210f15a130573a9efc66cfac227d89cb4cc397",
                    "mixHash" : "0x0000000000000000000000000000000000000000000000000000000000000000",
                    "nonce" : "0x0000000000000000",
                    "number" : "0x1",
                    "parentHash" : "0xf309d97dface725f6101989ddca517bfd7eb0085be438cc0a833cd84845801fd",
                    "receiptTrie" : "0xea5b87d12423d7570eb418dcdbb9f547f8fcc0577bd026d2189fd8fb550b85cf",
                    "stateRoot" : "0x37ef8293589faf9cb9bb034d7ab4f6662020abd8df2645213edd0acdbca5066a",
                    "timestamp" : "0x3e8",
                    "transactionsTrie" : "0x82241feecc68ec4e692397774cc7ab9417269faf8ce2390ece17bb77a1830992",
                    "uncleHash" : "0x1dcc4de8dec75d7aab85b567b6ccd41ad312451b948a7413f0a142fd40d49347"
                },
                "transactions" : [
                    {
                        "data" : "0x6000600060006000600073af3ecba2fe09a4f6c19f16a9d119e44e08c2da0161c350f15064600160015560005260006005601b6000f5506211223360005500",
                        "gasLimit" : "0x030d40",
                        "gasPrice" : "0x01",
                        "nonce" : "0x00",
                        "to" : "",
                        "value" : "0x01",
                        "v" : "0x1b",
                        "r" : "0xb12f234809fa1637e92555a39ec350934da226fff897aaffbf880f8807cf2699",
                        "s" : "0x78dd3b811eddcefc03a32c49f2c7a69dcf18b4494275d4ace34f6ea0fea3b4f3"
                    }
                ]
            }
        ]
    },
    "create2collisionSelfdestructedOOG_d2g0v0_Istanbul" : {
        "_info" : {
            "comment" : "collision with address that has been selfdestructed in the same transaction but then OOG",
            "filling-rpc-server" : "Geth-1.9.6-unstable-63b18027-20190920",
            "filling-tool-version" : "retesteth-0.0.1+commit.0ae18aef.Linux.g++",
            "lllcversion" : "Version: 0.5.12-develop.2019.9.13+commit.2d601a4f.Linux.g++",
            "source" : "src/GeneralStateTestsFiller/stCreate2/create2collisionSelfdestructedOOGFiller.json",
            "sourceHash" : "e607491107b9e6f45147a4b8ff57fc30c6d7ebaabb03ed115628145dcf8d9bd9"
        },
        "genesisBlockHeader" : {
            "bloom" : "0x00000000000000000000000000000000000000000000000000000000000000000000000000000000000000000000000000000000000000000000000000000000000000000000000000000000000000000000000000000000000000000000000000000000000000000000000000000000000000000000000000000000000000000000000000000000000000000000000000000000000000000000000000000000000000000000000000000000000000000000000000000000000000000000000000000000000000000000000000000000000000000000000000000000000000000000000000000000000000000000000000000000000000000000000000000000",
            "coinbase" : "0x2adc25665018aa1fe0e6bc666dac8fc2697ff9ba",
            "difficulty" : "0x20000",
            "extraData" : "0x00",
            "gasLimit" : "0xf4240",
            "gasUsed" : "0x0",
            "hash" : "0xf309d97dface725f6101989ddca517bfd7eb0085be438cc0a833cd84845801fd",
            "mixHash" : "0x0000000000000000000000000000000000000000000000000000000000000000",
            "nonce" : "0x0000000000000000",
            "number" : "0x0",
            "parentHash" : "0x0000000000000000000000000000000000000000000000000000000000000000",
            "receiptTrie" : "0x56e81f171bcc55a6ff8345e692c0f86e5b48e01b996cadc001622fb5e363b421",
            "stateRoot" : "0x4594d2100d042aefe0881e9fbb8f04fd5791022a6d78a282f0506d82ebd4242b",
            "timestamp" : "0x0",
            "transactionsTrie" : "0x56e81f171bcc55a6ff8345e692c0f86e5b48e01b996cadc001622fb5e363b421",
            "uncleHash" : "0x1dcc4de8dec75d7aab85b567b6ccd41ad312451b948a7413f0a142fd40d49347"
        },
        "pre" : {
            "0xa94f5374fce5edbc8e2a8697c15331677e6ebf0b" : {
                "balance" : "0x0de0b6b3a7640000",
                "code" : "0x",
                "nonce" : "0x00",
                "storage" : {
                }
            },
            "0xaf3ecba2fe09a4f6c19f16a9d119e44e08c2da01" : {
                "balance" : "0x01",
                "code" : "0x6010ff00",
                "nonce" : "0x00",
                "storage" : {
                }
            },
            "0xe2b35478fdd26477cc576dd906e6277761246a3c" : {
                "balance" : "0x01",
                "code" : "0x6010ff00",
                "nonce" : "0x00",
                "storage" : {
                }
            },
            "0xec2c6832d00680ece8ff9254f81fdab0a5a2ac50" : {
                "balance" : "0x01",
                "code" : "0x6010ff00",
                "nonce" : "0x00",
                "storage" : {
                }
            }
        },
        "postState" : {
            "0xa94f5374fce5edbc8e2a8697c15331677e6ebf0b" : {
                "code" : "0x",
                "nonce" : "0x01",
                "balance" : "0x0de0b6b3a760f2c0",
                "storage" : {
                }
            },
            "0xaf3ecba2fe09a4f6c19f16a9d119e44e08c2da01" : {
                "code" : "0x6010ff00",
                "nonce" : "0x00",
                "balance" : "0x01",
                "storage" : {
                }
            },
            "0xe2b35478fdd26477cc576dd906e6277761246a3c" : {
                "code" : "0x6010ff00",
                "nonce" : "0x00",
                "balance" : "0x01",
                "storage" : {
                }
            },
            "0xec2c6832d00680ece8ff9254f81fdab0a5a2ac50" : {
                "code" : "0x6010ff00",
                "nonce" : "0x00",
                "balance" : "0x01",
                "storage" : {
                }
            },
            "0x2adc25665018aa1fe0e6bc666dac8fc2697ff9ba" : {
                "code" : "0x",
                "nonce" : "0x00",
                "balance" : "0x1bc16d674ecb0d40",
                "storage" : {
                }
            }
        },
        "network" : "Istanbul",
        "sealEngine" : "NoProof",
        "lastblockhash" : "0x4eccd0edaf4d738f834af3a29dd45371ed800c1584c54de8dcb2d8d7912660a7",
        "genesisRLP" : "0xf901f8f901f3a00000000000000000000000000000000000000000000000000000000000000000a01dcc4de8dec75d7aab85b567b6ccd41ad312451b948a7413f0a142fd40d49347942adc25665018aa1fe0e6bc666dac8fc2697ff9baa04594d2100d042aefe0881e9fbb8f04fd5791022a6d78a282f0506d82ebd4242ba056e81f171bcc55a6ff8345e692c0f86e5b48e01b996cadc001622fb5e363b421a056e81f171bcc55a6ff8345e692c0f86e5b48e01b996cadc001622fb5e363b421b90100000000000000000000000000000000000000000000000000000000000000000000000000000000000000000000000000000000000000000000000000000000000000000000000000000000000000000000000000000000000000000000000000000000000000000000000000000000000000000000000000000000000000000000000000000000000000000000000000000000000000000000000000000000000000000000000000000000000000000000000000000000000000000000000000000000000000000000000000000000000000000000000000000000000000000000000000000000000000000000000000000000000000000000000000000000008302000080830f4240808000a00000000000000000000000000000000000000000000000000000000000000000880000000000000000c0c0",
        "blocks" : [
            {
                "rlp" : "0xf90294f901f8a0f309d97dface725f6101989ddca517bfd7eb0085be438cc0a833cd84845801fda01dcc4de8dec75d7aab85b567b6ccd41ad312451b948a7413f0a142fd40d49347942adc25665018aa1fe0e6bc666dac8fc2697ff9baa037ef8293589faf9cb9bb034d7ab4f6662020abd8df2645213edd0acdbca5066aa002784d5e78169a6f17b83699ebc55b390e32bacb0ef6c9c0a817774fe3333db9a0ea5b87d12423d7570eb418dcdbb9f547f8fcc0577bd026d2189fd8fb550b85cfb90100000000000000000000000000000000000000000000000000000000000000000000000000000000000000000000000000000000000000000000000000000000000000000000000000000000000000000000000000000000000000000000000000000000000000000000000000000000000000000000000000000000000000000000000000000000000000000000000000000000000000000000000000000000000000000000000000000000000000000000000000000000000000000000000000000000000000000000000000000000000000000000000000000000000000000000000000000000000000000000000000000000000000000000000000000000008302000001830f460f83030d408203e800a00000000000000000000000000000000000000000000000000000000000000000880000000000000000f896f894800183030d408001b8486000600060006000600073ec2c6832d00680ece8ff9254f81fdab0a5a2ac5061c350f1506d6460016001556000526005601bf36000526000600e60126000f55062112233600055001ca075c025fa350005cc9d989fc760d8c4289dd67929abbdca5a1dcbf4686fdc7b5f9fe7c99f1d6e1a135684635e50140ba8bff784e99b6f19e324ef958127b88c87c0",
                "blockHeader" : {
                    "bloom" : "0x00000000000000000000000000000000000000000000000000000000000000000000000000000000000000000000000000000000000000000000000000000000000000000000000000000000000000000000000000000000000000000000000000000000000000000000000000000000000000000000000000000000000000000000000000000000000000000000000000000000000000000000000000000000000000000000000000000000000000000000000000000000000000000000000000000000000000000000000000000000000000000000000000000000000000000000000000000000000000000000000000000000000000000000000000000000",
                    "coinbase" : "0x2adc25665018aa1fe0e6bc666dac8fc2697ff9ba",
                    "difficulty" : "0x20000",
                    "extraData" : "0x00",
                    "gasLimit" : "0xf460f",
                    "gasUsed" : "0x30d40",
                    "hash" : "0x4eccd0edaf4d738f834af3a29dd45371ed800c1584c54de8dcb2d8d7912660a7",
                    "mixHash" : "0x0000000000000000000000000000000000000000000000000000000000000000",
                    "nonce" : "0x0000000000000000",
                    "number" : "0x1",
                    "parentHash" : "0xf309d97dface725f6101989ddca517bfd7eb0085be438cc0a833cd84845801fd",
                    "receiptTrie" : "0xea5b87d12423d7570eb418dcdbb9f547f8fcc0577bd026d2189fd8fb550b85cf",
                    "stateRoot" : "0x37ef8293589faf9cb9bb034d7ab4f6662020abd8df2645213edd0acdbca5066a",
                    "timestamp" : "0x3e8",
                    "transactionsTrie" : "0x02784d5e78169a6f17b83699ebc55b390e32bacb0ef6c9c0a817774fe3333db9",
                    "uncleHash" : "0x1dcc4de8dec75d7aab85b567b6ccd41ad312451b948a7413f0a142fd40d49347"
                },
                "transactions" : [
                    {
                        "data" : "0x6000600060006000600073ec2c6832d00680ece8ff9254f81fdab0a5a2ac5061c350f1506d6460016001556000526005601bf36000526000600e60126000f5506211223360005500",
                        "gasLimit" : "0x030d40",
                        "gasPrice" : "0x01",
                        "nonce" : "0x00",
                        "to" : "",
                        "value" : "0x01",
                        "v" : "0x1c",
                        "r" : "0x75c025fa350005cc9d989fc760d8c4289dd67929abbdca5a1dcbf4686fdc7b5f",
                        "s" : "0x00e7c99f1d6e1a135684635e50140ba8bff784e99b6f19e324ef958127b88c87"
                    }
                ]
            }
        ]
    }
}