{
    "CREATE2_Bounds3_d0g0v0_Istanbul" : {
        "_info" : {
            "comment" : "",
            "filling-rpc-server" : "Geth-1.9.6-unstable-63b18027-20190920",
            "filling-tool-version" : "retesteth-0.0.1+commit.0ae18aef.Linux.g++",
            "lllcversion" : "Version: 0.5.12-develop.2019.9.13+commit.2d601a4f.Linux.g++",
            "source" : "src/GeneralStateTestsFiller/stCreate2/CREATE2_Bounds3Filler.json",
            "sourceHash" : "501269342e7268cf9e3fcce9537c161b0b65067d3cb50dfd475168c4a6102eab"
        },
        "genesisBlockHeader" : {
            "bloom" : "0x00000000000000000000000000000000000000000000000000000000000000000000000000000000000000000000000000000000000000000000000000000000000000000000000000000000000000000000000000000000000000000000000000000000000000000000000000000000000000000000000000000000000000000000000000000000000000000000000000000000000000000000000000000000000000000000000000000000000000000000000000000000000000000000000000000000000000000000000000000000000000000000000000000000000000000000000000000000000000000000000000000000000000000000000000000000",
            "coinbase" : "0x2adc25665018aa1fe0e6bc666dac8fc2697ff9ba",
            "difficulty" : "0x20000",
            "extraData" : "0x00",
            "gasLimit" : "0x7fffffffffffffff",
            "gasUsed" : "0x0",
            "hash" : "0x2002cdc6070519dca2b7d4f294a4da5212bf84861cdb82e47272b35cf7eda79a",
            "mixHash" : "0x0000000000000000000000000000000000000000000000000000000000000000",
            "nonce" : "0x0000000000000000",
            "number" : "0x0",
            "parentHash" : "0x0000000000000000000000000000000000000000000000000000000000000000",
            "receiptTrie" : "0x56e81f171bcc55a6ff8345e692c0f86e5b48e01b996cadc001622fb5e363b421",
            "stateRoot" : "0x474665e6b4e0683bf79317d4e68c4f2cce57fb4e652f3d4f2cb485bbc28d4e35",
            "timestamp" : "0x0",
            "transactionsTrie" : "0x56e81f171bcc55a6ff8345e692c0f86e5b48e01b996cadc001622fb5e363b421",
            "uncleHash" : "0x1dcc4de8dec75d7aab85b567b6ccd41ad312451b948a7413f0a142fd40d49347"
        },
        "pre" : {
            "0x1000000000000000000000000000000000000000" : {
                "balance" : "0x64",
                "code" : "0x7f6001600155601080600c6000396000f3006000355415600957005b602035600060005260356020536055602153600067ffffffffffffffff60006001f55060006fffffffffffffffffffffffffffffffff60006001f55060007fffffffffffffffffffffffffffffffffffffffffffffffffffffffffffffffff60006001f55060006000630fffffff6001f5506000600063ffffffff6001f5506000600067ffffffffffffffff6001f550600060006fffffffffffffffffffffffffffffffff6001f550600060007fffffffffffffffffffffffffffffffffffffffffffffffffffffffffffffffff6001f5506000630fffffff630fffffff6001f550600063ffffffff63ffffffff6001f550600067ffffffffffffffff67ffffffffffffffff6001f55060006fffffffffffffffffffffffffffffffff6fffffffffffffffffffffffffffffffff6001f55060007fffffffffffffffffffffffffffffffffffffffffffffffffffffffffffffffff7fffffffffffffffffffffffffffffffffffffffffffffffffffffffffffffffff6001f500",
                "nonce" : "0x00",
                "storage" : {
                }
            },
            "0xa94f5374fce5edbc8e2a8697c15331677e6ebf0b" : {
                "balance" : "0x0fffffffffffffffffffffffffffffffffffffffffffffffff",
                "code" : "0x",
                "nonce" : "0x00",
                "storage" : {
                }
            }
        },
        "postState" : {
            "0xa94f5374fce5edbc8e2a8697c15331677e6ebf0b" : {
                "code" : "0x",
                "nonce" : "0x01",
                "balance" : "0x0ffffffffffffffffffffffffffffffffffffffffffffdb60f",
                "storage" : {
                }
            },
            "0x2adc25665018aa1fe0e6bc666dac8fc2697ff9ba" : {
                "code" : "0x",
                "nonce" : "0x00",
                "balance" : "0x1bc16d674eca49f0",
                "storage" : {
                }
            },
            "0x1000000000000000000000000000000000000000" : {
                "code" : "0x7f6001600155601080600c6000396000f3006000355415600957005b602035600060005260356020536055602153600067ffffffffffffffff60006001f55060006fffffffffffffffffffffffffffffffff60006001f55060007fffffffffffffffffffffffffffffffffffffffffffffffffffffffffffffffff60006001f55060006000630fffffff6001f5506000600063ffffffff6001f5506000600067ffffffffffffffff6001f550600060006fffffffffffffffffffffffffffffffff6001f550600060007fffffffffffffffffffffffffffffffffffffffffffffffffffffffffffffffff6001f5506000630fffffff630fffffff6001f550600063ffffffff63ffffffff6001f550600067ffffffffffffffff67ffffffffffffffff6001f55060006fffffffffffffffffffffffffffffffff6fffffffffffffffffffffffffffffffff6001f55060007fffffffffffffffffffffffffffffffffffffffffffffffffffffffffffffffff7fffffffffffffffffffffffffffffffffffffffffffffffffffffffffffffffff6001f500",
                "nonce" : "0x00",
                "balance" : "0x64",
                "storage" : {
                }
            }
        },
        "network" : "Istanbul",
        "sealEngine" : "NoProof",
        "lastblockhash" : "0xec6783bef04c6dbf91675f689a284a4d267dbbacab6c04b77d05d55ea88e5459",
        "genesisRLP" : "0xf901fdf901f8a00000000000000000000000000000000000000000000000000000000000000000a01dcc4de8dec75d7aab85b567b6ccd41ad312451b948a7413f0a142fd40d49347942adc25665018aa1fe0e6bc666dac8fc2697ff9baa0474665e6b4e0683bf79317d4e68c4f2cce57fb4e652f3d4f2cb485bbc28d4e35a056e81f171bcc55a6ff8345e692c0f86e5b48e01b996cadc001622fb5e363b421a056e81f171bcc55a6ff8345e692c0f86e5b48e01b996cadc001622fb5e363b421b90100000000000000000000000000000000000000000000000000000000000000000000000000000000000000000000000000000000000000000000000000000000000000000000000000000000000000000000000000000000000000000000000000000000000000000000000000000000000000000000000000000000000000000000000000000000000000000000000000000000000000000000000000000000000000000000000000000000000000000000000000000000000000000000000000000000000000000000000000000000000000000000000000000000000000000000000000000000000000000000000000000000000000000000000000000000008302000080887fffffffffffffff808000a00000000000000000000000000000000000000000000000000000000000000000880000000000000000c0c0",
        "blocks" : [
            {
                "rlp" : "0xf90265f901fda02002cdc6070519dca2b7d4f294a4da5212bf84861cdb82e47272b35cf7eda79aa01dcc4de8dec75d7aab85b567b6ccd41ad312451b948a7413f0a142fd40d49347942adc25665018aa1fe0e6bc666dac8fc2697ff9baa0cf3b2e276d604e17eff83e51f77dfe5ed06521740afd8d7653f67be261435e6aa01b8e596a9db7ec729190ec7a6678c3dd8e7c9a3a1017c8460bb56eb845d06688a0a0e10907f175886de9bd8cd4ac2c21d1db4109a3a9fecf60f54015ee102803fdb90100000000000000000000000000000000000000000000000000000000000000000000000000000000000000000000000000000000000000000000000000000000000000000000000000000000000000000000000000000000000000000000000000000000000000000000000000000000000000000000000000000000000000000000000000000000000000000000000000000000000000000000000000000000000000000000000000000000000000000000000000000000000000000000000000000000000000000000000000000000000000000000000000000000000000000000000000000000000000000000000000000000000000000000000000000000008302000001887fffffffffffffff830249f08203e800a00000000000000000000000000000000000000000000000000000000000000000880000000000000000f862f8608001830249f094100000000000000000000000000000000000000080801ca05e9a8d9240c75515986647d9630197613462976cda4a542b6725e0b7eb4fedf3a01d242de15a6e46330a9a0d411f18ca2c9d27201fb6feefffe70b9313634e7be2c0",
                "blockHeader" : {
                    "bloom" : "0x00000000000000000000000000000000000000000000000000000000000000000000000000000000000000000000000000000000000000000000000000000000000000000000000000000000000000000000000000000000000000000000000000000000000000000000000000000000000000000000000000000000000000000000000000000000000000000000000000000000000000000000000000000000000000000000000000000000000000000000000000000000000000000000000000000000000000000000000000000000000000000000000000000000000000000000000000000000000000000000000000000000000000000000000000000000",
                    "coinbase" : "0x2adc25665018aa1fe0e6bc666dac8fc2697ff9ba",
                    "difficulty" : "0x20000",
                    "extraData" : "0x00",
                    "gasLimit" : "0x7fffffffffffffff",
                    "gasUsed" : "0x249f0",
                    "hash" : "0xec6783bef04c6dbf91675f689a284a4d267dbbacab6c04b77d05d55ea88e5459",
                    "mixHash" : "0x0000000000000000000000000000000000000000000000000000000000000000",
                    "nonce" : "0x0000000000000000",
                    "number" : "0x1",
                    "parentHash" : "0x2002cdc6070519dca2b7d4f294a4da5212bf84861cdb82e47272b35cf7eda79a",
                    "receiptTrie" : "0xa0e10907f175886de9bd8cd4ac2c21d1db4109a3a9fecf60f54015ee102803fd",
                    "stateRoot" : "0xcf3b2e276d604e17eff83e51f77dfe5ed06521740afd8d7653f67be261435e6a",
                    "timestamp" : "0x3e8",
                    "transactionsTrie" : "0x1b8e596a9db7ec729190ec7a6678c3dd8e7c9a3a1017c8460bb56eb845d06688",
                    "uncleHash" : "0x1dcc4de8dec75d7aab85b567b6ccd41ad312451b948a7413f0a142fd40d49347"
                },
                "transactions" : [
                    {
                        "data" : "0x",
                        "gasLimit" : "0x0249f0",
                        "gasPrice" : "0x01",
                        "nonce" : "0x00",
                        "to" : "0x1000000000000000000000000000000000000000",
                        "value" : "0x00",
                        "v" : "0x1c",
                        "r" : "0x5e9a8d9240c75515986647d9630197613462976cda4a542b6725e0b7eb4fedf3",
                        "s" : "0x1d242de15a6e46330a9a0d411f18ca2c9d27201fb6feefffe70b9313634e7be2"
                    }
                ]
            }
        ]
    },
    "CREATE2_Bounds3_d0g1v0_Istanbul" : {
        "_info" : {
            "comment" : "",
            "filling-rpc-server" : "Geth-1.9.6-unstable-63b18027-20190920",
            "filling-tool-version" : "retesteth-0.0.1+commit.0ae18aef.Linux.g++",
            "lllcversion" : "Version: 0.5.12-develop.2019.9.13+commit.2d601a4f.Linux.g++",
            "source" : "src/GeneralStateTestsFiller/stCreate2/CREATE2_Bounds3Filler.json",
            "sourceHash" : "501269342e7268cf9e3fcce9537c161b0b65067d3cb50dfd475168c4a6102eab"
        },
        "genesisBlockHeader" : {
            "bloom" : "0x00000000000000000000000000000000000000000000000000000000000000000000000000000000000000000000000000000000000000000000000000000000000000000000000000000000000000000000000000000000000000000000000000000000000000000000000000000000000000000000000000000000000000000000000000000000000000000000000000000000000000000000000000000000000000000000000000000000000000000000000000000000000000000000000000000000000000000000000000000000000000000000000000000000000000000000000000000000000000000000000000000000000000000000000000000000",
            "coinbase" : "0x2adc25665018aa1fe0e6bc666dac8fc2697ff9ba",
            "difficulty" : "0x20000",
            "extraData" : "0x00",
            "gasLimit" : "0x7fffffffffffffff",
            "gasUsed" : "0x0",
            "hash" : "0x2002cdc6070519dca2b7d4f294a4da5212bf84861cdb82e47272b35cf7eda79a",
            "mixHash" : "0x0000000000000000000000000000000000000000000000000000000000000000",
            "nonce" : "0x0000000000000000",
            "number" : "0x0",
            "parentHash" : "0x0000000000000000000000000000000000000000000000000000000000000000",
            "receiptTrie" : "0x56e81f171bcc55a6ff8345e692c0f86e5b48e01b996cadc001622fb5e363b421",
            "stateRoot" : "0x474665e6b4e0683bf79317d4e68c4f2cce57fb4e652f3d4f2cb485bbc28d4e35",
            "timestamp" : "0x0",
            "transactionsTrie" : "0x56e81f171bcc55a6ff8345e692c0f86e5b48e01b996cadc001622fb5e363b421",
            "uncleHash" : "0x1dcc4de8dec75d7aab85b567b6ccd41ad312451b948a7413f0a142fd40d49347"
        },
        "pre" : {
            "0x1000000000000000000000000000000000000000" : {
                "balance" : "0x64",
                "code" : "0x7f6001600155601080600c6000396000f3006000355415600957005b602035600060005260356020536055602153600067ffffffffffffffff60006001f55060006fffffffffffffffffffffffffffffffff60006001f55060007fffffffffffffffffffffffffffffffffffffffffffffffffffffffffffffffff60006001f55060006000630fffffff6001f5506000600063ffffffff6001f5506000600067ffffffffffffffff6001f550600060006fffffffffffffffffffffffffffffffff6001f550600060007fffffffffffffffffffffffffffffffffffffffffffffffffffffffffffffffff6001f5506000630fffffff630fffffff6001f550600063ffffffff63ffffffff6001f550600067ffffffffffffffff67ffffffffffffffff6001f55060006fffffffffffffffffffffffffffffffff6fffffffffffffffffffffffffffffffff6001f55060007fffffffffffffffffffffffffffffffffffffffffffffffffffffffffffffffff7fffffffffffffffffffffffffffffffffffffffffffffffffffffffffffffffff6001f500",
                "nonce" : "0x00",
                "storage" : {
                }
            },
            "0xa94f5374fce5edbc8e2a8697c15331677e6ebf0b" : {
                "balance" : "0x0fffffffffffffffffffffffffffffffffffffffffffffffff",
                "code" : "0x",
                "nonce" : "0x00",
                "storage" : {
                }
            }
        },
        "postState" : {
            "0xa94f5374fce5edbc8e2a8697c15331677e6ebf0b" : {
                "code" : "0x",
                "nonce" : "0x01",
                "balance" : "0x0ffffffffffffffffffffffffffffffffffffffffffff0bdbf",
                "storage" : {
                }
            },
            "0x2adc25665018aa1fe0e6bc666dac8fc2697ff9ba" : {
                "code" : "0x",
                "nonce" : "0x00",
                "balance" : "0x1bc16d674ed74240",
                "storage" : {
                }
            },
            "0x1000000000000000000000000000000000000000" : {
                "code" : "0x7f6001600155601080600c6000396000f3006000355415600957005b602035600060005260356020536055602153600067ffffffffffffffff60006001f55060006fffffffffffffffffffffffffffffffff60006001f55060007fffffffffffffffffffffffffffffffffffffffffffffffffffffffffffffffff60006001f55060006000630fffffff6001f5506000600063ffffffff6001f5506000600067ffffffffffffffff6001f550600060006fffffffffffffffffffffffffffffffff6001f550600060007fffffffffffffffffffffffffffffffffffffffffffffffffffffffffffffffff6001f5506000630fffffff630fffffff6001f550600063ffffffff63ffffffff6001f550600067ffffffffffffffff67ffffffffffffffff6001f55060006fffffffffffffffffffffffffffffffff6fffffffffffffffffffffffffffffffff6001f55060007fffffffffffffffffffffffffffffffffffffffffffffffffffffffffffffffff7fffffffffffffffffffffffffffffffffffffffffffffffffffffffffffffffff6001f500",
                "nonce" : "0x00",
                "balance" : "0x64",
                "storage" : {
                }
            }
        },
        "network" : "Istanbul",
        "sealEngine" : "NoProof",
        "lastblockhash" : "0xbcf9113e8d592af7a6f1348eb851dd90d1b4746449885517385e4e0b5d303484",
        "genesisRLP" : "0xf901fdf901f8a00000000000000000000000000000000000000000000000000000000000000000a01dcc4de8dec75d7aab85b567b6ccd41ad312451b948a7413f0a142fd40d49347942adc25665018aa1fe0e6bc666dac8fc2697ff9baa0474665e6b4e0683bf79317d4e68c4f2cce57fb4e652f3d4f2cb485bbc28d4e35a056e81f171bcc55a6ff8345e692c0f86e5b48e01b996cadc001622fb5e363b421a056e81f171bcc55a6ff8345e692c0f86e5b48e01b996cadc001622fb5e363b421b90100000000000000000000000000000000000000000000000000000000000000000000000000000000000000000000000000000000000000000000000000000000000000000000000000000000000000000000000000000000000000000000000000000000000000000000000000000000000000000000000000000000000000000000000000000000000000000000000000000000000000000000000000000000000000000000000000000000000000000000000000000000000000000000000000000000000000000000000000000000000000000000000000000000000000000000000000000000000000000000000000000000000000000000000000000000008302000080887fffffffffffffff808000a00000000000000000000000000000000000000000000000000000000000000000880000000000000000c0c0",
        "blocks" : [
            {
                "rlp" : "0xf90265f901fda02002cdc6070519dca2b7d4f294a4da5212bf84861cdb82e47272b35cf7eda79aa01dcc4de8dec75d7aab85b567b6ccd41ad312451b948a7413f0a142fd40d49347942adc25665018aa1fe0e6bc666dac8fc2697ff9baa0e961a7b7d9de74fa40f88134ccd60eb16d57f0bbb0c40019bd78daee296c7559a0f7311c8509b7b833d73cdeedf2adbd0e49a9e3e740a0c93ca6caa45a3acbf835a06ebeb82e2fd4ad8ef581ba011ed8590752fbb658e86bb4f29d186cba3f7b1357b90100000000000000000000000000000000000000000000000000000000000000000000000000000000000000000000000000000000000000000000000000000000000000000000000000000000000000000000000000000000000000000000000000000000000000000000000000000000000000000000000000000000000000000000000000000000000000000000000000000000000000000000000000000000000000000000000000000000000000000000000000000000000000000000000000000000000000000000000000000000000000000000000000000000000000000000000000000000000000000000000000000000000000000000000000000000008302000001887fffffffffffffff830f42408203e800a00000000000000000000000000000000000000000000000000000000000000000880000000000000000f862f8608001830f424094100000000000000000000000000000000000000080801ca0dba91454aef4a40ec1ffc7478947b3f961bdd8f502591b01998c71d969a4e5b2a06097822fee14d0d7bc989a1ec4da1ac620c2a6345dd243e171ee7958dd293c71c0",
                "blockHeader" : {
                    "bloom" : "0x00000000000000000000000000000000000000000000000000000000000000000000000000000000000000000000000000000000000000000000000000000000000000000000000000000000000000000000000000000000000000000000000000000000000000000000000000000000000000000000000000000000000000000000000000000000000000000000000000000000000000000000000000000000000000000000000000000000000000000000000000000000000000000000000000000000000000000000000000000000000000000000000000000000000000000000000000000000000000000000000000000000000000000000000000000000",
                    "coinbase" : "0x2adc25665018aa1fe0e6bc666dac8fc2697ff9ba",
                    "difficulty" : "0x20000",
                    "extraData" : "0x00",
                    "gasLimit" : "0x7fffffffffffffff",
                    "gasUsed" : "0xf4240",
                    "hash" : "0xbcf9113e8d592af7a6f1348eb851dd90d1b4746449885517385e4e0b5d303484",
                    "mixHash" : "0x0000000000000000000000000000000000000000000000000000000000000000",
                    "nonce" : "0x0000000000000000",
                    "number" : "0x1",
                    "parentHash" : "0x2002cdc6070519dca2b7d4f294a4da5212bf84861cdb82e47272b35cf7eda79a",
                    "receiptTrie" : "0x6ebeb82e2fd4ad8ef581ba011ed8590752fbb658e86bb4f29d186cba3f7b1357",
                    "stateRoot" : "0xe961a7b7d9de74fa40f88134ccd60eb16d57f0bbb0c40019bd78daee296c7559",
                    "timestamp" : "0x3e8",
                    "transactionsTrie" : "0xf7311c8509b7b833d73cdeedf2adbd0e49a9e3e740a0c93ca6caa45a3acbf835",
                    "uncleHash" : "0x1dcc4de8dec75d7aab85b567b6ccd41ad312451b948a7413f0a142fd40d49347"
                },
                "transactions" : [
                    {
                        "data" : "0x",
                        "gasLimit" : "0x0f4240",
                        "gasPrice" : "0x01",
                        "nonce" : "0x00",
                        "to" : "0x1000000000000000000000000000000000000000",
                        "value" : "0x00",
                        "v" : "0x1c",
                        "r" : "0xdba91454aef4a40ec1ffc7478947b3f961bdd8f502591b01998c71d969a4e5b2",
                        "s" : "0x6097822fee14d0d7bc989a1ec4da1ac620c2a6345dd243e171ee7958dd293c71"
                    }
                ]
            }
        ]
    },
    "CREATE2_Bounds3_d0g2v0_Istanbul" : {
        "_info" : {
            "comment" : "",
            "filling-rpc-server" : "Geth-1.9.6-unstable-63b18027-20190920",
            "filling-tool-version" : "retesteth-0.0.1+commit.0ae18aef.Linux.g++",
            "lllcversion" : "Version: 0.5.12-develop.2019.9.13+commit.2d601a4f.Linux.g++",
            "source" : "src/GeneralStateTestsFiller/stCreate2/CREATE2_Bounds3Filler.json",
            "sourceHash" : "501269342e7268cf9e3fcce9537c161b0b65067d3cb50dfd475168c4a6102eab"
        },
        "genesisBlockHeader" : {
            "bloom" : "0x00000000000000000000000000000000000000000000000000000000000000000000000000000000000000000000000000000000000000000000000000000000000000000000000000000000000000000000000000000000000000000000000000000000000000000000000000000000000000000000000000000000000000000000000000000000000000000000000000000000000000000000000000000000000000000000000000000000000000000000000000000000000000000000000000000000000000000000000000000000000000000000000000000000000000000000000000000000000000000000000000000000000000000000000000000000",
            "coinbase" : "0x2adc25665018aa1fe0e6bc666dac8fc2697ff9ba",
            "difficulty" : "0x20000",
            "extraData" : "0x00",
            "gasLimit" : "0x7fffffffffffffff",
            "gasUsed" : "0x0",
            "hash" : "0x2002cdc6070519dca2b7d4f294a4da5212bf84861cdb82e47272b35cf7eda79a",
            "mixHash" : "0x0000000000000000000000000000000000000000000000000000000000000000",
            "nonce" : "0x0000000000000000",
            "number" : "0x0",
            "parentHash" : "0x0000000000000000000000000000000000000000000000000000000000000000",
            "receiptTrie" : "0x56e81f171bcc55a6ff8345e692c0f86e5b48e01b996cadc001622fb5e363b421",
            "stateRoot" : "0x474665e6b4e0683bf79317d4e68c4f2cce57fb4e652f3d4f2cb485bbc28d4e35",
            "timestamp" : "0x0",
            "transactionsTrie" : "0x56e81f171bcc55a6ff8345e692c0f86e5b48e01b996cadc001622fb5e363b421",
            "uncleHash" : "0x1dcc4de8dec75d7aab85b567b6ccd41ad312451b948a7413f0a142fd40d49347"
        },
        "pre" : {
            "0x1000000000000000000000000000000000000000" : {
                "balance" : "0x64",
                "code" : "0x7f6001600155601080600c6000396000f3006000355415600957005b602035600060005260356020536055602153600067ffffffffffffffff60006001f55060006fffffffffffffffffffffffffffffffff60006001f55060007fffffffffffffffffffffffffffffffffffffffffffffffffffffffffffffffff60006001f55060006000630fffffff6001f5506000600063ffffffff6001f5506000600067ffffffffffffffff6001f550600060006fffffffffffffffffffffffffffffffff6001f550600060007fffffffffffffffffffffffffffffffffffffffffffffffffffffffffffffffff6001f5506000630fffffff630fffffff6001f550600063ffffffff63ffffffff6001f550600067ffffffffffffffff67ffffffffffffffff6001f55060006fffffffffffffffffffffffffffffffff6fffffffffffffffffffffffffffffffff6001f55060007fffffffffffffffffffffffffffffffffffffffffffffffffffffffffffffffff7fffffffffffffffffffffffffffffffffffffffffffffffffffffffffffffffff6001f500",
                "nonce" : "0x00",
                "storage" : {
                }
            },
            "0xa94f5374fce5edbc8e2a8697c15331677e6ebf0b" : {
                "balance" : "0x0fffffffffffffffffffffffffffffffffffffffffffffffff",
                "code" : "0x",
                "nonce" : "0x00",
                "storage" : {
                }
            }
        },
        "postState" : {
            "0xa94f5374fce5edbc8e2a8697c15331677e6ebf0b" : {
                "code" : "0x",
                "nonce" : "0x01",
                "balance" : "0x0ffffffffffffffffffffffffffffffffffffffffff1194d7f",
                "storage" : {
                }
            },
            "0x2adc25665018aa1fe0e6bc666dac8fc2697ff9ba" : {
                "code" : "0x",
                "nonce" : "0x00",
                "balance" : "0x1bc16d675daeb280",
                "storage" : {
                }
            },
            "0x1000000000000000000000000000000000000000" : {
                "code" : "0x7f6001600155601080600c6000396000f3006000355415600957005b602035600060005260356020536055602153600067ffffffffffffffff60006001f55060006fffffffffffffffffffffffffffffffff60006001f55060007fffffffffffffffffffffffffffffffffffffffffffffffffffffffffffffffff60006001f55060006000630fffffff6001f5506000600063ffffffff6001f5506000600067ffffffffffffffff6001f550600060006fffffffffffffffffffffffffffffffff6001f550600060007fffffffffffffffffffffffffffffffffffffffffffffffffffffffffffffffff6001f5506000630fffffff630fffffff6001f550600063ffffffff63ffffffff6001f550600067ffffffffffffffff67ffffffffffffffff6001f55060006fffffffffffffffffffffffffffffffff6fffffffffffffffffffffffffffffffff6001f55060007fffffffffffffffffffffffffffffffffffffffffffffffffffffffffffffffff7fffffffffffffffffffffffffffffffffffffffffffffffffffffffffffffffff6001f500",
                "nonce" : "0x00",
                "balance" : "0x64",
                "storage" : {
                }
            }
        },
        "network" : "Istanbul",
        "sealEngine" : "NoProof",
        "lastblockhash" : "0x050b32d5fa6a31be1b48f3982e600b4ddd318739f1a1ff33bcaf3ce4d5247a97",
        "genesisRLP" : "0xf901fdf901f8a00000000000000000000000000000000000000000000000000000000000000000a01dcc4de8dec75d7aab85b567b6ccd41ad312451b948a7413f0a142fd40d49347942adc25665018aa1fe0e6bc666dac8fc2697ff9baa0474665e6b4e0683bf79317d4e68c4f2cce57fb4e652f3d4f2cb485bbc28d4e35a056e81f171bcc55a6ff8345e692c0f86e5b48e01b996cadc001622fb5e363b421a056e81f171bcc55a6ff8345e692c0f86e5b48e01b996cadc001622fb5e363b421b90100000000000000000000000000000000000000000000000000000000000000000000000000000000000000000000000000000000000000000000000000000000000000000000000000000000000000000000000000000000000000000000000000000000000000000000000000000000000000000000000000000000000000000000000000000000000000000000000000000000000000000000000000000000000000000000000000000000000000000000000000000000000000000000000000000000000000000000000000000000000000000000000000000000000000000000000000000000000000000000000000000000000000000000000000000000008302000080887fffffffffffffff808000a00000000000000000000000000000000000000000000000000000000000000000880000000000000000c0c0",
        "blocks" : [
            {
                "rlp" : "0xf90267f901fea02002cdc6070519dca2b7d4f294a4da5212bf84861cdb82e47272b35cf7eda79aa01dcc4de8dec75d7aab85b567b6ccd41ad312451b948a7413f0a142fd40d49347942adc25665018aa1fe0e6bc666dac8fc2697ff9baa085f9fdb3a4a0ebbe5c53d806a356bb583b551b9dd9ba57858fbda47698422b53a0529ed70f6dbc2da86364672bc584f428cb919c6fc347d00576d28d3a041de33ba027408083641cf20cfde86cd87cd57bf10c741d7553352ca96118e31ab8ceb9ceb90100000000000000000000000000000000000000000000000000000000000000000000000000000000000000000000000000000000000000000000000000000000000000000000000000000000000000000000000000000000000000000000000000000000000000000000000000000000000000000000000000000000000000000000000000000000000000000000000000000000000000000000000000000000000000000000000000000000000000000000000000000000000000000000000000000000000000000000000000000000000000000000000000000000000000000000000000000000000000000000000000000000000000000000000000000000008302000001887fffffffffffffff840ee6b2808203e800a00000000000000000000000000000000000000000000000000000000000000000880000000000000000f863f8618001840ee6b28094100000000000000000000000000000000000000080801ba0f56cade5a7835c5558487651eed88f2a60c7e479a532b75c3962b8bdc44573a8a01d4b7dd05400b9dce7a9efa5d6f80121194bc981dd9bfc13c6548916f79ec18ac0",
                "blockHeader" : {
                    "bloom" : "0x00000000000000000000000000000000000000000000000000000000000000000000000000000000000000000000000000000000000000000000000000000000000000000000000000000000000000000000000000000000000000000000000000000000000000000000000000000000000000000000000000000000000000000000000000000000000000000000000000000000000000000000000000000000000000000000000000000000000000000000000000000000000000000000000000000000000000000000000000000000000000000000000000000000000000000000000000000000000000000000000000000000000000000000000000000000",
                    "coinbase" : "0x2adc25665018aa1fe0e6bc666dac8fc2697ff9ba",
                    "difficulty" : "0x20000",
                    "extraData" : "0x00",
                    "gasLimit" : "0x7fffffffffffffff",
                    "gasUsed" : "0xee6b280",
                    "hash" : "0x050b32d5fa6a31be1b48f3982e600b4ddd318739f1a1ff33bcaf3ce4d5247a97",
                    "mixHash" : "0x0000000000000000000000000000000000000000000000000000000000000000",
                    "nonce" : "0x0000000000000000",
                    "number" : "0x1",
                    "parentHash" : "0x2002cdc6070519dca2b7d4f294a4da5212bf84861cdb82e47272b35cf7eda79a",
                    "receiptTrie" : "0x27408083641cf20cfde86cd87cd57bf10c741d7553352ca96118e31ab8ceb9ce",
                    "stateRoot" : "0x85f9fdb3a4a0ebbe5c53d806a356bb583b551b9dd9ba57858fbda47698422b53",
                    "timestamp" : "0x3e8",
                    "transactionsTrie" : "0x529ed70f6dbc2da86364672bc584f428cb919c6fc347d00576d28d3a041de33b",
                    "uncleHash" : "0x1dcc4de8dec75d7aab85b567b6ccd41ad312451b948a7413f0a142fd40d49347"
                },
                "transactions" : [
                    {
                        "data" : "0x",
                        "gasLimit" : "0x0ee6b280",
                        "gasPrice" : "0x01",
                        "nonce" : "0x00",
                        "to" : "0x1000000000000000000000000000000000000000",
                        "value" : "0x00",
                        "v" : "0x1b",
                        "r" : "0xf56cade5a7835c5558487651eed88f2a60c7e479a532b75c3962b8bdc44573a8",
                        "s" : "0x1d4b7dd05400b9dce7a9efa5d6f80121194bc981dd9bfc13c6548916f79ec18a"
                    }
                ]
            }
        ]
    }
}