{
    "create2collisionSelfdestructedRevert_d0g0v0_Istanbul" : {
        "_info" : {
            "comment" : "collision with address that has been selfdestructed in the same transaction but then REVERT is called",
            "filling-rpc-server" : "Geth-1.9.6-unstable-63b18027-20190920",
            "filling-tool-version" : "retesteth-0.0.1+commit.0ae18aef.Linux.g++",
            "lllcversion" : "Version: 0.5.12-develop.2019.9.13+commit.2d601a4f.Linux.g++",
            "source" : "src/GeneralStateTestsFiller/stCreate2/create2collisionSelfdestructedRevertFiller.json",
            "sourceHash" : "53e996a754461209ef2809866425439ef84bd007d8c6553d20d80eb53e63075c"
        },
        "genesisBlockHeader" : {
            "bloom" : "0x00000000000000000000000000000000000000000000000000000000000000000000000000000000000000000000000000000000000000000000000000000000000000000000000000000000000000000000000000000000000000000000000000000000000000000000000000000000000000000000000000000000000000000000000000000000000000000000000000000000000000000000000000000000000000000000000000000000000000000000000000000000000000000000000000000000000000000000000000000000000000000000000000000000000000000000000000000000000000000000000000000000000000000000000000000000",
            "coinbase" : "0x2adc25665018aa1fe0e6bc666dac8fc2697ff9ba",
            "difficulty" : "0x20000",
            "extraData" : "0x00",
            "gasLimit" : "0xf4240",
            "gasUsed" : "0x0",
            "hash" : "0xf309d97dface725f6101989ddca517bfd7eb0085be438cc0a833cd84845801fd",
            "mixHash" : "0x0000000000000000000000000000000000000000000000000000000000000000",
            "nonce" : "0x0000000000000000",
            "number" : "0x0",
            "parentHash" : "0x0000000000000000000000000000000000000000000000000000000000000000",
            "receiptTrie" : "0x56e81f171bcc55a6ff8345e692c0f86e5b48e01b996cadc001622fb5e363b421",
            "stateRoot" : "0x4594d2100d042aefe0881e9fbb8f04fd5791022a6d78a282f0506d82ebd4242b",
            "timestamp" : "0x0",
            "transactionsTrie" : "0x56e81f171bcc55a6ff8345e692c0f86e5b48e01b996cadc001622fb5e363b421",
            "uncleHash" : "0x1dcc4de8dec75d7aab85b567b6ccd41ad312451b948a7413f0a142fd40d49347"
        },
        "pre" : {
            "0xa94f5374fce5edbc8e2a8697c15331677e6ebf0b" : {
                "balance" : "0x0de0b6b3a7640000",
                "code" : "0x",
                "nonce" : "0x00",
                "storage" : {
                }
            },
            "0xaf3ecba2fe09a4f6c19f16a9d119e44e08c2da01" : {
                "balance" : "0x01",
                "code" : "0x6010ff00",
                "nonce" : "0x00",
                "storage" : {
                }
            },
            "0xe2b35478fdd26477cc576dd906e6277761246a3c" : {
                "balance" : "0x01",
                "code" : "0x6010ff00",
                "nonce" : "0x00",
                "storage" : {
                }
            },
            "0xec2c6832d00680ece8ff9254f81fdab0a5a2ac50" : {
                "balance" : "0x01",
                "code" : "0x6010ff00",
                "nonce" : "0x00",
                "storage" : {
                }
            }
        },
        "postState" : {
            "0xa94f5374fce5edbc8e2a8697c15331677e6ebf0b" : {
                "code" : "0x",
                "nonce" : "0x01",
                "balance" : "0x0de0b6b3a75df6b8",
                "storage" : {
                }
            },
            "0xaf3ecba2fe09a4f6c19f16a9d119e44e08c2da01" : {
                "code" : "0x6010ff00",
                "nonce" : "0x00",
                "balance" : "0x01",
                "storage" : {
                }
            },
            "0xe2b35478fdd26477cc576dd906e6277761246a3c" : {
                "code" : "0x6010ff00",
                "nonce" : "0x00",
                "balance" : "0x01",
                "storage" : {
                }
            },
            "0xec2c6832d00680ece8ff9254f81fdab0a5a2ac50" : {
                "code" : "0x6010ff00",
                "nonce" : "0x00",
                "balance" : "0x01",
                "storage" : {
                }
            },
            "0x2adc25665018aa1fe0e6bc666dac8fc2697ff9ba" : {
                "code" : "0x",
                "nonce" : "0x00",
                "balance" : "0x1bc16d674ece0948",
                "storage" : {
                }
            }
        },
        "network" : "Istanbul",
        "sealEngine" : "NoProof",
        "lastblockhash" : "0xe1c808f6f9d4d612300e905607d373cebcd95c415c4f74e7fc6589c5f3cf0419",
        "genesisRLP" : "0xf901f8f901f3a00000000000000000000000000000000000000000000000000000000000000000a01dcc4de8dec75d7aab85b567b6ccd41ad312451b948a7413f0a142fd40d49347942adc25665018aa1fe0e6bc666dac8fc2697ff9baa04594d2100d042aefe0881e9fbb8f04fd5791022a6d78a282f0506d82ebd4242ba056e81f171bcc55a6ff8345e692c0f86e5b48e01b996cadc001622fb5e363b421a056e81f171bcc55a6ff8345e692c0f86e5b48e01b996cadc001622fb5e363b421b90100000000000000000000000000000000000000000000000000000000000000000000000000000000000000000000000000000000000000000000000000000000000000000000000000000000000000000000000000000000000000000000000000000000000000000000000000000000000000000000000000000000000000000000000000000000000000000000000000000000000000000000000000000000000000000000000000000000000000000000000000000000000000000000000000000000000000000000000000000000000000000000000000000000000000000000000000000000000000000000000000000000000000000000000000000000008302000080830f4240808000a00000000000000000000000000000000000000000000000000000000000000000880000000000000000c0c0",
        "blocks" : [
            {
                "rlp" : "0xf90288f901f8a0f309d97dface725f6101989ddca517bfd7eb0085be438cc0a833cd84845801fda01dcc4de8dec75d7aab85b567b6ccd41ad312451b948a7413f0a142fd40d49347942adc25665018aa1fe0e6bc666dac8fc2697ff9baa03cad419ea652f8098c5ad73aca7211c3188c5b4a1860fa919474e54bd26b195fa0bd0841699d0cb3b8e18f29adec3f2ac733c9ebd1344bc7d5c237e55aacd03799a0f2f6c22fb032c94998c6e952a77178776e70f721e6000d934f975aad7cc9b1b4b90100000000000000000000000000000000000000000000000000000000000000000000000000000000000000000000000000000000000000000000000000000000000000000000000000000000000000000000000000000000000000000000000000000000000000000000000000000000000000000000000000000000000000000000000000000000000000000000000000000000000000000000000000000000000000000000000000000000000000000000000000000000000000000000000000000000000000000000000000000000000000000000000000000000000000000000000000000000000000000000000000000000000000000000000000000000008302000001830f460f830609488203e800a00000000000000000000000000000000000000000000000000000000000000000880000000000000000f88af888800183061a808001b83b6000600060006000600073e2b35478fdd26477cc576dd906e6277761246a3c61c350f1506000600060006000f550621122336000526003601dfd001ca06367d4b436c68f1a9e10bcb605bbd85d0e88f39408f17a06f5e06c22700c043ba01133f1fac55a1016cdb4a9c3789ff48157df28706d7f33acd50f8eab06ab28fdc0",
                "blockHeader" : {
                    "bloom" : "0x00000000000000000000000000000000000000000000000000000000000000000000000000000000000000000000000000000000000000000000000000000000000000000000000000000000000000000000000000000000000000000000000000000000000000000000000000000000000000000000000000000000000000000000000000000000000000000000000000000000000000000000000000000000000000000000000000000000000000000000000000000000000000000000000000000000000000000000000000000000000000000000000000000000000000000000000000000000000000000000000000000000000000000000000000000000",
                    "coinbase" : "0x2adc25665018aa1fe0e6bc666dac8fc2697ff9ba",
                    "difficulty" : "0x20000",
                    "extraData" : "0x00",
                    "gasLimit" : "0xf460f",
                    "gasUsed" : "0x60948",
                    "hash" : "0xe1c808f6f9d4d612300e905607d373cebcd95c415c4f74e7fc6589c5f3cf0419",
                    "mixHash" : "0x0000000000000000000000000000000000000000000000000000000000000000",
                    "nonce" : "0x0000000000000000",
                    "number" : "0x1",
                    "parentHash" : "0xf309d97dface725f6101989ddca517bfd7eb0085be438cc0a833cd84845801fd",
                    "receiptTrie" : "0xf2f6c22fb032c94998c6e952a77178776e70f721e6000d934f975aad7cc9b1b4",
                    "stateRoot" : "0x3cad419ea652f8098c5ad73aca7211c3188c5b4a1860fa919474e54bd26b195f",
                    "timestamp" : "0x3e8",
                    "transactionsTrie" : "0xbd0841699d0cb3b8e18f29adec3f2ac733c9ebd1344bc7d5c237e55aacd03799",
                    "uncleHash" : "0x1dcc4de8dec75d7aab85b567b6ccd41ad312451b948a7413f0a142fd40d49347"
                },
                "transactions" : [
                    {
                        "data" : "0x6000600060006000600073e2b35478fdd26477cc576dd906e6277761246a3c61c350f1506000600060006000f550621122336000526003601dfd00",
                        "gasLimit" : "0x061a80",
                        "gasPrice" : "0x01",
                        "nonce" : "0x00",
                        "to" : "",
                        "value" : "0x01",
                        "v" : "0x1c",
                        "r" : "0x6367d4b436c68f1a9e10bcb605bbd85d0e88f39408f17a06f5e06c22700c043b",
                        "s" : "0x1133f1fac55a1016cdb4a9c3789ff48157df28706d7f33acd50f8eab06ab28fd"
                    }
                ]
            }
        ]
    },
    "create2collisionSelfdestructedRevert_d1g0v0_Istanbul" : {
        "_info" : {
            "comment" : "collision with address that has been selfdestructed in the same transaction but then REVERT is called",
            "filling-rpc-server" : "Geth-1.9.6-unstable-63b18027-20190920",
            "filling-tool-version" : "retesteth-0.0.1+commit.0ae18aef.Linux.g++",
            "lllcversion" : "Version: 0.5.12-develop.2019.9.13+commit.2d601a4f.Linux.g++",
            "source" : "src/GeneralStateTestsFiller/stCreate2/create2collisionSelfdestructedRevertFiller.json",
            "sourceHash" : "53e996a754461209ef2809866425439ef84bd007d8c6553d20d80eb53e63075c"
        },
        "genesisBlockHeader" : {
            "bloom" : "0x00000000000000000000000000000000000000000000000000000000000000000000000000000000000000000000000000000000000000000000000000000000000000000000000000000000000000000000000000000000000000000000000000000000000000000000000000000000000000000000000000000000000000000000000000000000000000000000000000000000000000000000000000000000000000000000000000000000000000000000000000000000000000000000000000000000000000000000000000000000000000000000000000000000000000000000000000000000000000000000000000000000000000000000000000000000",
            "coinbase" : "0x2adc25665018aa1fe0e6bc666dac8fc2697ff9ba",
            "difficulty" : "0x20000",
            "extraData" : "0x00",
            "gasLimit" : "0xf4240",
            "gasUsed" : "0x0",
            "hash" : "0xf309d97dface725f6101989ddca517bfd7eb0085be438cc0a833cd84845801fd",
            "mixHash" : "0x0000000000000000000000000000000000000000000000000000000000000000",
            "nonce" : "0x0000000000000000",
            "number" : "0x0",
            "parentHash" : "0x0000000000000000000000000000000000000000000000000000000000000000",
            "receiptTrie" : "0x56e81f171bcc55a6ff8345e692c0f86e5b48e01b996cadc001622fb5e363b421",
            "stateRoot" : "0x4594d2100d042aefe0881e9fbb8f04fd5791022a6d78a282f0506d82ebd4242b",
            "timestamp" : "0x0",
            "transactionsTrie" : "0x56e81f171bcc55a6ff8345e692c0f86e5b48e01b996cadc001622fb5e363b421",
            "uncleHash" : "0x1dcc4de8dec75d7aab85b567b6ccd41ad312451b948a7413f0a142fd40d49347"
        },
        "pre" : {
            "0xa94f5374fce5edbc8e2a8697c15331677e6ebf0b" : {
                "balance" : "0x0de0b6b3a7640000",
                "code" : "0x",
                "nonce" : "0x00",
                "storage" : {
                }
            },
            "0xaf3ecba2fe09a4f6c19f16a9d119e44e08c2da01" : {
                "balance" : "0x01",
                "code" : "0x6010ff00",
                "nonce" : "0x00",
                "storage" : {
                }
            },
            "0xe2b35478fdd26477cc576dd906e6277761246a3c" : {
                "balance" : "0x01",
                "code" : "0x6010ff00",
                "nonce" : "0x00",
                "storage" : {
                }
            },
            "0xec2c6832d00680ece8ff9254f81fdab0a5a2ac50" : {
                "balance" : "0x01",
                "code" : "0x6010ff00",
                "nonce" : "0x00",
                "storage" : {
                }
            }
        },
        "postState" : {
            "0xa94f5374fce5edbc8e2a8697c15331677e6ebf0b" : {
                "code" : "0x",
                "nonce" : "0x01",
                "balance" : "0x0de0b6b3a75df6b9",
                "storage" : {
                }
            },
            "0xaf3ecba2fe09a4f6c19f16a9d119e44e08c2da01" : {
                "code" : "0x6010ff00",
                "nonce" : "0x00",
                "balance" : "0x01",
                "storage" : {
                }
            },
            "0xe2b35478fdd26477cc576dd906e6277761246a3c" : {
                "code" : "0x6010ff00",
                "nonce" : "0x00",
                "balance" : "0x01",
                "storage" : {
                }
            },
            "0xec2c6832d00680ece8ff9254f81fdab0a5a2ac50" : {
                "code" : "0x6010ff00",
                "nonce" : "0x00",
                "balance" : "0x01",
                "storage" : {
                }
            },
            "0x2adc25665018aa1fe0e6bc666dac8fc2697ff9ba" : {
                "code" : "0x",
                "nonce" : "0x00",
                "balance" : "0x1bc16d674ece0947",
                "storage" : {
                }
            }
        },
        "network" : "Istanbul",
        "sealEngine" : "NoProof",
        "lastblockhash" : "0x96f8d0dbf6a34002bf536c335b39a6db9c54a2236aeed7982469f215342176cc",
        "genesisRLP" : "0xf901f8f901f3a00000000000000000000000000000000000000000000000000000000000000000a01dcc4de8dec75d7aab85b567b6ccd41ad312451b948a7413f0a142fd40d49347942adc25665018aa1fe0e6bc666dac8fc2697ff9baa04594d2100d042aefe0881e9fbb8f04fd5791022a6d78a282f0506d82ebd4242ba056e81f171bcc55a6ff8345e692c0f86e5b48e01b996cadc001622fb5e363b421a056e81f171bcc55a6ff8345e692c0f86e5b48e01b996cadc001622fb5e363b421b90100000000000000000000000000000000000000000000000000000000000000000000000000000000000000000000000000000000000000000000000000000000000000000000000000000000000000000000000000000000000000000000000000000000000000000000000000000000000000000000000000000000000000000000000000000000000000000000000000000000000000000000000000000000000000000000000000000000000000000000000000000000000000000000000000000000000000000000000000000000000000000000000000000000000000000000000000000000000000000000000000000000000000000000000000000000008302000080830f4240808000a00000000000000000000000000000000000000000000000000000000000000000880000000000000000c0c0",
        "blocks" : [
            {
                "rlp" : "0xf90291f901f8a0f309d97dface725f6101989ddca517bfd7eb0085be438cc0a833cd84845801fda01dcc4de8dec75d7aab85b567b6ccd41ad312451b948a7413f0a142fd40d49347942adc25665018aa1fe0e6bc666dac8fc2697ff9baa0ef2ce807c769de31a9cc1af43536ac3109d644f109c1ed63ad46188aa65c64e1a00f56fef08542b0c9f9f5bc447f588387081e920956900b1e57ff6e1b328bc424a01d626636c0e5e0cef55d0101350d2e47eb6b6bf9774a89fbf3f09e008c81df43b90100000000000000000000000000000000000000000000000000000000000000000000000000000000000000000000000000000000000000000000000000000000000000000000000000000000000000000000000000000000000000000000000000000000000000000000000000000000000000000000000000000000000000000000000000000000000000000000000000000000000000000000000000000000000000000000000000000000000000000000000000000000000000000000000000000000000000000000000000000000000000000000000000000000000000000000000000000000000000000000000000000000000000000000000000000000008302000001830f460f830609478203e800a00000000000000000000000000000000000000000000000000000000000000000880000000000000000f893f891800183061a808001b8446000600060006000600073e2b35478fdd26477cc576dd906e6277761246a3c61c350f15064600160015560005260006005601b6000f550621122336000526003601dfd001ca034aa10df410eb14d59097997929c26e45eeb2c9549704f1e3d1f3a906f7cc3a1a04ac97109d2fe8d98952c61a64c3f7a48d7c658aa1b6322a3d85bc71334e2f2edc0",
                "blockHeader" : {
                    "bloom" : "0x00000000000000000000000000000000000000000000000000000000000000000000000000000000000000000000000000000000000000000000000000000000000000000000000000000000000000000000000000000000000000000000000000000000000000000000000000000000000000000000000000000000000000000000000000000000000000000000000000000000000000000000000000000000000000000000000000000000000000000000000000000000000000000000000000000000000000000000000000000000000000000000000000000000000000000000000000000000000000000000000000000000000000000000000000000000",
                    "coinbase" : "0x2adc25665018aa1fe0e6bc666dac8fc2697ff9ba",
                    "difficulty" : "0x20000",
                    "extraData" : "0x00",
                    "gasLimit" : "0xf460f",
                    "gasUsed" : "0x60947",
                    "hash" : "0x96f8d0dbf6a34002bf536c335b39a6db9c54a2236aeed7982469f215342176cc",
                    "mixHash" : "0x0000000000000000000000000000000000000000000000000000000000000000",
                    "nonce" : "0x0000000000000000",
                    "number" : "0x1",
                    "parentHash" : "0xf309d97dface725f6101989ddca517bfd7eb0085be438cc0a833cd84845801fd",
                    "receiptTrie" : "0x1d626636c0e5e0cef55d0101350d2e47eb6b6bf9774a89fbf3f09e008c81df43",
                    "stateRoot" : "0xef2ce807c769de31a9cc1af43536ac3109d644f109c1ed63ad46188aa65c64e1",
                    "timestamp" : "0x3e8",
                    "transactionsTrie" : "0x0f56fef08542b0c9f9f5bc447f588387081e920956900b1e57ff6e1b328bc424",
                    "uncleHash" : "0x1dcc4de8dec75d7aab85b567b6ccd41ad312451b948a7413f0a142fd40d49347"
                },
                "transactions" : [
                    {
                        "data" : "0x6000600060006000600073e2b35478fdd26477cc576dd906e6277761246a3c61c350f15064600160015560005260006005601b6000f550621122336000526003601dfd00",
                        "gasLimit" : "0x061a80",
                        "gasPrice" : "0x01",
                        "nonce" : "0x00",
                        "to" : "",
                        "value" : "0x01",
                        "v" : "0x1c",
                        "r" : "0x34aa10df410eb14d59097997929c26e45eeb2c9549704f1e3d1f3a906f7cc3a1",
                        "s" : "0x4ac97109d2fe8d98952c61a64c3f7a48d7c658aa1b6322a3d85bc71334e2f2ed"
                    }
                ]
            }
        ]
    },
    "create2collisionSelfdestructedRevert_d2g0v0_Istanbul" : {
        "_info" : {
            "comment" : "collision with address that has been selfdestructed in the same transaction but then REVERT is called",
            "filling-rpc-server" : "Geth-1.9.6-unstable-63b18027-20190920",
            "filling-tool-version" : "retesteth-0.0.1+commit.0ae18aef.Linux.g++",
            "lllcversion" : "Version: 0.5.12-develop.2019.9.13+commit.2d601a4f.Linux.g++",
            "source" : "src/GeneralStateTestsFiller/stCreate2/create2collisionSelfdestructedRevertFiller.json",
            "sourceHash" : "53e996a754461209ef2809866425439ef84bd007d8c6553d20d80eb53e63075c"
        },
        "genesisBlockHeader" : {
            "bloom" : "0x00000000000000000000000000000000000000000000000000000000000000000000000000000000000000000000000000000000000000000000000000000000000000000000000000000000000000000000000000000000000000000000000000000000000000000000000000000000000000000000000000000000000000000000000000000000000000000000000000000000000000000000000000000000000000000000000000000000000000000000000000000000000000000000000000000000000000000000000000000000000000000000000000000000000000000000000000000000000000000000000000000000000000000000000000000000",
            "coinbase" : "0x2adc25665018aa1fe0e6bc666dac8fc2697ff9ba",
            "difficulty" : "0x20000",
            "extraData" : "0x00",
            "gasLimit" : "0xf4240",
            "gasUsed" : "0x0",
            "hash" : "0xf309d97dface725f6101989ddca517bfd7eb0085be438cc0a833cd84845801fd",
            "mixHash" : "0x0000000000000000000000000000000000000000000000000000000000000000",
            "nonce" : "0x0000000000000000",
            "number" : "0x0",
            "parentHash" : "0x0000000000000000000000000000000000000000000000000000000000000000",
            "receiptTrie" : "0x56e81f171bcc55a6ff8345e692c0f86e5b48e01b996cadc001622fb5e363b421",
            "stateRoot" : "0x4594d2100d042aefe0881e9fbb8f04fd5791022a6d78a282f0506d82ebd4242b",
            "timestamp" : "0x0",
            "transactionsTrie" : "0x56e81f171bcc55a6ff8345e692c0f86e5b48e01b996cadc001622fb5e363b421",
            "uncleHash" : "0x1dcc4de8dec75d7aab85b567b6ccd41ad312451b948a7413f0a142fd40d49347"
        },
        "pre" : {
            "0xa94f5374fce5edbc8e2a8697c15331677e6ebf0b" : {
                "balance" : "0x0de0b6b3a7640000",
                "code" : "0x",
                "nonce" : "0x00",
                "storage" : {
                }
            },
            "0xaf3ecba2fe09a4f6c19f16a9d119e44e08c2da01" : {
                "balance" : "0x01",
                "code" : "0x6010ff00",
                "nonce" : "0x00",
                "storage" : {
                }
            },
            "0xe2b35478fdd26477cc576dd906e6277761246a3c" : {
                "balance" : "0x01",
                "code" : "0x6010ff00",
                "nonce" : "0x00",
                "storage" : {
                }
            },
            "0xec2c6832d00680ece8ff9254f81fdab0a5a2ac50" : {
                "balance" : "0x01",
                "code" : "0x6010ff00",
                "nonce" : "0x00",
                "storage" : {
                }
            }
        },
        "postState" : {
            "0xa94f5374fce5edbc8e2a8697c15331677e6ebf0b" : {
                "code" : "0x",
                "nonce" : "0x01",
                "balance" : "0x0de0b6b3a75df6b7",
                "storage" : {
                }
            },
            "0xaf3ecba2fe09a4f6c19f16a9d119e44e08c2da01" : {
                "code" : "0x6010ff00",
                "nonce" : "0x00",
                "balance" : "0x01",
                "storage" : {
                }
            },
            "0xe2b35478fdd26477cc576dd906e6277761246a3c" : {
                "code" : "0x6010ff00",
                "nonce" : "0x00",
                "balance" : "0x01",
                "storage" : {
                }
            },
            "0xec2c6832d00680ece8ff9254f81fdab0a5a2ac50" : {
                "code" : "0x6010ff00",
                "nonce" : "0x00",
                "balance" : "0x01",
                "storage" : {
                }
            },
            "0x2adc25665018aa1fe0e6bc666dac8fc2697ff9ba" : {
                "code" : "0x",
                "nonce" : "0x00",
                "balance" : "0x1bc16d674ece0949",
                "storage" : {
                }
            }
        },
        "network" : "Istanbul",
        "sealEngine" : "NoProof",
        "lastblockhash" : "0x1b40b727e8662d03fb0d64e3bcfe5d97c9cec1f06c328c517441dc73441404d7",
        "genesisRLP" : "0xf901f8f901f3a00000000000000000000000000000000000000000000000000000000000000000a01dcc4de8dec75d7aab85b567b6ccd41ad312451b948a7413f0a142fd40d49347942adc25665018aa1fe0e6bc666dac8fc2697ff9baa04594d2100d042aefe0881e9fbb8f04fd5791022a6d78a282f0506d82ebd4242ba056e81f171bcc55a6ff8345e692c0f86e5b48e01b996cadc001622fb5e363b421a056e81f171bcc55a6ff8345e692c0f86e5b48e01b996cadc001622fb5e363b421b90100000000000000000000000000000000000000000000000000000000000000000000000000000000000000000000000000000000000000000000000000000000000000000000000000000000000000000000000000000000000000000000000000000000000000000000000000000000000000000000000000000000000000000000000000000000000000000000000000000000000000000000000000000000000000000000000000000000000000000000000000000000000000000000000000000000000000000000000000000000000000000000000000000000000000000000000000000000000000000000000000000000000000000000000000000000008302000080830f4240808000a00000000000000000000000000000000000000000000000000000000000000000880000000000000000c0c0",
        "blocks" : [
            {
                "rlp" : "0xf9029af901f8a0f309d97dface725f6101989ddca517bfd7eb0085be438cc0a833cd84845801fda01dcc4de8dec75d7aab85b567b6ccd41ad312451b948a7413f0a142fd40d49347942adc25665018aa1fe0e6bc666dac8fc2697ff9baa0a057628cf7d9ead8389c7eb2b923153cc0ee70447a2e5e8bef2856fc6fa96240a0a23ed3a7649f05f348c7c97fdd318382473afa54adf331e929d592075283fadba084fb5ebd53fbe026f89eb704e92c7e0ea05c7c09dad4af04d6d284ed105353c1b90100000000000000000000000000000000000000000000000000000000000000000000000000000000000000000000000000000000000000000000000000000000000000000000000000000000000000000000000000000000000000000000000000000000000000000000000000000000000000000000000000000000000000000000000000000000000000000000000000000000000000000000000000000000000000000000000000000000000000000000000000000000000000000000000000000000000000000000000000000000000000000000000000000000000000000000000000000000000000000000000000000000000000000000000000000000008302000001830f460f830609498203e800a00000000000000000000000000000000000000000000000000000000000000000880000000000000000f89cf89a800183061a808001b84d6000600060006000600073e2b35478fdd26477cc576dd906e6277761246a3c61c350f1506d6460016001556000526005601bf36000526000600e60126000f550621122336000526003601dfd001ba08be0255af5b1745a59f7c20eb643805f1c0eb80aca159cf361f8f3de40d208b6a059fab099dd5dd9daa7ebdf33c002a4c01318c60250a7471a9371d450dcfadfebc0",
                "blockHeader" : {
                    "bloom" : "0x00000000000000000000000000000000000000000000000000000000000000000000000000000000000000000000000000000000000000000000000000000000000000000000000000000000000000000000000000000000000000000000000000000000000000000000000000000000000000000000000000000000000000000000000000000000000000000000000000000000000000000000000000000000000000000000000000000000000000000000000000000000000000000000000000000000000000000000000000000000000000000000000000000000000000000000000000000000000000000000000000000000000000000000000000000000",
                    "coinbase" : "0x2adc25665018aa1fe0e6bc666dac8fc2697ff9ba",
                    "difficulty" : "0x20000",
                    "extraData" : "0x00",
                    "gasLimit" : "0xf460f",
                    "gasUsed" : "0x60949",
                    "hash" : "0x1b40b727e8662d03fb0d64e3bcfe5d97c9cec1f06c328c517441dc73441404d7",
                    "mixHash" : "0x0000000000000000000000000000000000000000000000000000000000000000",
                    "nonce" : "0x0000000000000000",
                    "number" : "0x1",
                    "parentHash" : "0xf309d97dface725f6101989ddca517bfd7eb0085be438cc0a833cd84845801fd",
                    "receiptTrie" : "0x84fb5ebd53fbe026f89eb704e92c7e0ea05c7c09dad4af04d6d284ed105353c1",
                    "stateRoot" : "0xa057628cf7d9ead8389c7eb2b923153cc0ee70447a2e5e8bef2856fc6fa96240",
                    "timestamp" : "0x3e8",
                    "transactionsTrie" : "0xa23ed3a7649f05f348c7c97fdd318382473afa54adf331e929d592075283fadb",
                    "uncleHash" : "0x1dcc4de8dec75d7aab85b567b6ccd41ad312451b948a7413f0a142fd40d49347"
                },
                "transactions" : [
                    {
                        "data" : "0x6000600060006000600073e2b35478fdd26477cc576dd906e6277761246a3c61c350f1506d6460016001556000526005601bf36000526000600e60126000f550621122336000526003601dfd00",
                        "gasLimit" : "0x061a80",
                        "gasPrice" : "0x01",
                        "nonce" : "0x00",
                        "to" : "",
                        "value" : "0x01",
                        "v" : "0x1b",
                        "r" : "0x8be0255af5b1745a59f7c20eb643805f1c0eb80aca159cf361f8f3de40d208b6",
                        "s" : "0x59fab099dd5dd9daa7ebdf33c002a4c01318c60250a7471a9371d450dcfadfeb"
                    }
                ]
            }
        ]
    }
}