{
    "Create2Recursive_d0g0v0_Istanbul" : {
        "_info" : {
            "comment" : "Create2 inside Create2 inside Create2....",
            "filling-rpc-server" : "Geth-1.9.6-unstable-63b18027-20190920",
            "filling-tool-version" : "retesteth-0.0.1+commit.ec77a361.Linux.g++",
            "lllcversion" : "Version: 0.5.12-develop.2019.9.13+commit.2d601a4f.Linux.g++",
            "source" : "src/GeneralStateTestsFiller/stCreate2/Create2RecursiveFiller.json",
            "sourceHash" : "4552618e5cb53a1928dda56eb91c87be206e24d433bc4a60d3e220fcc3aeadbe"
        },
        "genesisBlockHeader" : {
            "bloom" : "0x00000000000000000000000000000000000000000000000000000000000000000000000000000000000000000000000000000000000000000000000000000000000000000000000000000000000000000000000000000000000000000000000000000000000000000000000000000000000000000000000000000000000000000000000000000000000000000000000000000000000000000000000000000000000000000000000000000000000000000000000000000000000000000000000000000000000000000000000000000000000000000000000000000000000000000000000000000000000000000000000000000000000000000000000000000000",
            "coinbase" : "0x2adc25665018aa1fe0e6bc666dac8fc2697ff9ba",
            "difficulty" : "0x20000",
            "extraData" : "0x00",
            "gasLimit" : "0x7fffffffffffffff",
            "gasUsed" : "0x0",
            "hash" : "0x075f11c1269e1b4d91b091760439ac947703075503a4e8b35f451a7a7725ece7",
            "mixHash" : "0x0000000000000000000000000000000000000000000000000000000000000000",
            "nonce" : "0x0000000000000000",
            "number" : "0x0",
            "parentHash" : "0x0000000000000000000000000000000000000000000000000000000000000000",
            "receiptTrie" : "0x56e81f171bcc55a6ff8345e692c0f86e5b48e01b996cadc001622fb5e363b421",
            "stateRoot" : "0xd65e8745ea6a7d3458a829883400fa6622abc5d93308a33b8656e55995e5edc4",
            "timestamp" : "0x0",
            "transactionsTrie" : "0x56e81f171bcc55a6ff8345e692c0f86e5b48e01b996cadc001622fb5e363b421",
            "uncleHash" : "0x1dcc4de8dec75d7aab85b567b6ccd41ad312451b948a7413f0a142fd40d49347"
        },
        "pre" : {
            "0xa94f5374fce5edbc8e2a8697c15331677e6ebf0b" : {
                "balance" : "0x03d090000000000000",
                "code" : "0x",
                "nonce" : "0x00",
                "storage" : {
                }
            },
            "0xb94f5374fce5edbc8e2a8697c15331677e6ebf0b" : {
                "balance" : "0x00",
                "code" : "0x7d606460006000396103e85a10601b576000606460006000f5601d565b5a5b6000526000601e60026000f500",
                "nonce" : "0x00",
                "storage" : {
                }
            }
        },
        "postStateHash" : "0x6c7c3a06cf21ef299b1e55fb55709ba08da1b127de4d06e3606f2b0337b10172",
        "network" : "Istanbul",
        "sealEngine" : "NoProof",
        "lastblockhash" : "0xfacb2bb7868422e5b150bc4a3dd288f86d86d0263e635e215ec9861cd1e50833",
        "genesisRLP" : "0xf901fdf901f8a00000000000000000000000000000000000000000000000000000000000000000a01dcc4de8dec75d7aab85b567b6ccd41ad312451b948a7413f0a142fd40d49347942adc25665018aa1fe0e6bc666dac8fc2697ff9baa0d65e8745ea6a7d3458a829883400fa6622abc5d93308a33b8656e55995e5edc4a056e81f171bcc55a6ff8345e692c0f86e5b48e01b996cadc001622fb5e363b421a056e81f171bcc55a6ff8345e692c0f86e5b48e01b996cadc001622fb5e363b421b90100000000000000000000000000000000000000000000000000000000000000000000000000000000000000000000000000000000000000000000000000000000000000000000000000000000000000000000000000000000000000000000000000000000000000000000000000000000000000000000000000000000000000000000000000000000000000000000000000000000000000000000000000000000000000000000000000000000000000000000000000000000000000000000000000000000000000000000000000000000000000000000000000000000000000000000000000000000000000000000000000000000000000000000000000000000008302000080887fffffffffffffff808000a00000000000000000000000000000000000000000000000000000000000000000880000000000000000c0c0",
        "blocks" : [
            {
                "rlp" : "0xf9026bf901fea0075f11c1269e1b4d91b091760439ac947703075503a4e8b35f451a7a7725ece7a01dcc4de8dec75d7aab85b567b6ccd41ad312451b948a7413f0a142fd40d49347942adc25665018aa1fe0e6bc666dac8fc2697ff9baa06c7c3a06cf21ef299b1e55fb55709ba08da1b127de4d06e3606f2b0337b10172a06195dc63f5925839d63a3861ce651354ca48d693cee05f8ac3188a58d7ab88d5a044dadb3564915d387a1d7a319546b3e090cad395237d262814a206933274a69db90100000000000000000000000000000000000000000000000000000000000000000000000000000000000000000000000000000000000000000000000000000000000000000000000000000000000000000000000000000000000000000000000000000000000000000000000000000000000000000000000000000000000000000000000000000000000000000000000000000000000000000000000000000000000000000000000000000000000000000000000000000000000000000000000000000000000000000000000000000000000000000000000000000000000000000000000000000000000000000000000000000000000000000000000000000000008302000001887fffffffffffffff8401f673268203e800a00000000000000000000000000000000000000000000000000000000000000000880000000000000000f867f8658001887effffffffffffff94b94f5374fce5edbc8e2a8697c15331677e6ebf0b80801ca0764fda9a975986c9128011818e2f96c173835b44157abba0bfca30bceb3f5c28a052fa5aaceaedef4d44394d5767690604ac3e5bedabc3e374ea67975793a7dfddc0",
                "blockHeader" : {
                    "bloom" : "0x00000000000000000000000000000000000000000000000000000000000000000000000000000000000000000000000000000000000000000000000000000000000000000000000000000000000000000000000000000000000000000000000000000000000000000000000000000000000000000000000000000000000000000000000000000000000000000000000000000000000000000000000000000000000000000000000000000000000000000000000000000000000000000000000000000000000000000000000000000000000000000000000000000000000000000000000000000000000000000000000000000000000000000000000000000000",
                    "coinbase" : "0x2adc25665018aa1fe0e6bc666dac8fc2697ff9ba",
                    "difficulty" : "0x20000",
                    "extraData" : "0x00",
                    "gasLimit" : "0x7fffffffffffffff",
                    "gasUsed" : "0x1f67326",
                    "hash" : "0xfacb2bb7868422e5b150bc4a3dd288f86d86d0263e635e215ec9861cd1e50833",
                    "mixHash" : "0x0000000000000000000000000000000000000000000000000000000000000000",
                    "nonce" : "0x0000000000000000",
                    "number" : "0x1",
                    "parentHash" : "0x075f11c1269e1b4d91b091760439ac947703075503a4e8b35f451a7a7725ece7",
                    "receiptTrie" : "0x44dadb3564915d387a1d7a319546b3e090cad395237d262814a206933274a69d",
                    "stateRoot" : "0x6c7c3a06cf21ef299b1e55fb55709ba08da1b127de4d06e3606f2b0337b10172",
                    "timestamp" : "0x3e8",
                    "transactionsTrie" : "0x6195dc63f5925839d63a3861ce651354ca48d693cee05f8ac3188a58d7ab88d5",
                    "uncleHash" : "0x1dcc4de8dec75d7aab85b567b6ccd41ad312451b948a7413f0a142fd40d49347"
                },
                "transactions" : [
                    {
                        "data" : "0x",
                        "gasLimit" : "0x7effffffffffffff",
                        "gasPrice" : "0x01",
                        "nonce" : "0x00",
                        "to" : "0xb94f5374fce5edbc8e2a8697c15331677e6ebf0b",
                        "value" : "0x00",
                        "v" : "0x1c",
                        "r" : "0x764fda9a975986c9128011818e2f96c173835b44157abba0bfca30bceb3f5c28",
                        "s" : "0x52fa5aaceaedef4d44394d5767690604ac3e5bedabc3e374ea67975793a7dfdd"
                    }
                ]
            }
        ]
    },
    "Create2Recursive_d0g1v0_Istanbul" : {
        "_info" : {
            "comment" : "Create2 inside Create2 inside Create2....",
            "filling-rpc-server" : "Geth-1.9.6-unstable-63b18027-20190920",
            "filling-tool-version" : "retesteth-0.0.1+commit.ec77a361.Linux.g++",
            "lllcversion" : "Version: 0.5.12-develop.2019.9.13+commit.2d601a4f.Linux.g++",
            "source" : "src/GeneralStateTestsFiller/stCreate2/Create2RecursiveFiller.json",
            "sourceHash" : "4552618e5cb53a1928dda56eb91c87be206e24d433bc4a60d3e220fcc3aeadbe"
        },
        "genesisBlockHeader" : {
            "bloom" : "0x00000000000000000000000000000000000000000000000000000000000000000000000000000000000000000000000000000000000000000000000000000000000000000000000000000000000000000000000000000000000000000000000000000000000000000000000000000000000000000000000000000000000000000000000000000000000000000000000000000000000000000000000000000000000000000000000000000000000000000000000000000000000000000000000000000000000000000000000000000000000000000000000000000000000000000000000000000000000000000000000000000000000000000000000000000000",
            "coinbase" : "0x2adc25665018aa1fe0e6bc666dac8fc2697ff9ba",
            "difficulty" : "0x20000",
            "extraData" : "0x00",
            "gasLimit" : "0x7fffffffffffffff",
            "gasUsed" : "0x0",
            "hash" : "0x075f11c1269e1b4d91b091760439ac947703075503a4e8b35f451a7a7725ece7",
            "mixHash" : "0x0000000000000000000000000000000000000000000000000000000000000000",
            "nonce" : "0x0000000000000000",
            "number" : "0x0",
            "parentHash" : "0x0000000000000000000000000000000000000000000000000000000000000000",
            "receiptTrie" : "0x56e81f171bcc55a6ff8345e692c0f86e5b48e01b996cadc001622fb5e363b421",
            "stateRoot" : "0xd65e8745ea6a7d3458a829883400fa6622abc5d93308a33b8656e55995e5edc4",
            "timestamp" : "0x0",
            "transactionsTrie" : "0x56e81f171bcc55a6ff8345e692c0f86e5b48e01b996cadc001622fb5e363b421",
            "uncleHash" : "0x1dcc4de8dec75d7aab85b567b6ccd41ad312451b948a7413f0a142fd40d49347"
        },
        "pre" : {
            "0xa94f5374fce5edbc8e2a8697c15331677e6ebf0b" : {
                "balance" : "0x03d090000000000000",
                "code" : "0x",
                "nonce" : "0x00",
                "storage" : {
                }
            },
            "0xb94f5374fce5edbc8e2a8697c15331677e6ebf0b" : {
                "balance" : "0x00",
                "code" : "0x7d606460006000396103e85a10601b576000606460006000f5601d565b5a5b6000526000601e60026000f500",
                "nonce" : "0x00",
                "storage" : {
                }
            }
        },
        "postStateHash" : "0x705708753f3b3ab20aed200b70666d21b3417d22d060ff0f86d711c28be71554",
        "network" : "Istanbul",
        "sealEngine" : "NoProof",
        "lastblockhash" : "0xf775e7e612425235952a30c8063662f3f0b105858a02c244cf39626fc185ab2d",
        "genesisRLP" : "0xf901fdf901f8a00000000000000000000000000000000000000000000000000000000000000000a01dcc4de8dec75d7aab85b567b6ccd41ad312451b948a7413f0a142fd40d49347942adc25665018aa1fe0e6bc666dac8fc2697ff9baa0d65e8745ea6a7d3458a829883400fa6622abc5d93308a33b8656e55995e5edc4a056e81f171bcc55a6ff8345e692c0f86e5b48e01b996cadc001622fb5e363b421a056e81f171bcc55a6ff8345e692c0f86e5b48e01b996cadc001622fb5e363b421b90100000000000000000000000000000000000000000000000000000000000000000000000000000000000000000000000000000000000000000000000000000000000000000000000000000000000000000000000000000000000000000000000000000000000000000000000000000000000000000000000000000000000000000000000000000000000000000000000000000000000000000000000000000000000000000000000000000000000000000000000000000000000000000000000000000000000000000000000000000000000000000000000000000000000000000000000000000000000000000000000000000000000000000000000000000000008302000080887fffffffffffffff808000a00000000000000000000000000000000000000000000000000000000000000000880000000000000000c0c0",
        "blocks" : [
            {
                "rlp" : "0xf90269f901fea0075f11c1269e1b4d91b091760439ac947703075503a4e8b35f451a7a7725ece7a01dcc4de8dec75d7aab85b567b6ccd41ad312451b948a7413f0a142fd40d49347942adc25665018aa1fe0e6bc666dac8fc2697ff9baa0705708753f3b3ab20aed200b70666d21b3417d22d060ff0f86d711c28be71554a093bf47c4dab4737de540c32efb4c4219ff63668046aae1abf82d1d6a3cfad10ba08b03df82e73004aa85f23a11f8eb65ea46b889e3ec25606dc9e7051a8353e53db90100000000000000000000000000000000000000000000000000000000000000000000000000000000000000000000000000000000000000000000000000000000000000000000000000000000000000000000000000000000000000000000000000000000000000000000000000000000000000000000000000000000000000000000000000000000000000000000000000000000000000000000000000000000000000000000000000000000000000000000000000000000000000000000000000000000000000000000000000000000000000000000000000000000000000000000000000000000000000000000000000000000000000000000000000000000008302000001887fffffffffffffff8401f578918203e800a00000000000000000000000000000000000000000000000000000000000000000880000000000000000f865f8638001861240e9387c0094b94f5374fce5edbc8e2a8697c15331677e6ebf0b80801ca006c3926fd44d060f0d229c93189e7051b40fc20ea04d482fc16f875b2c6b2098a04d716cf75b17dbefc66c8ddeae2306ff351255502ce53f4a9a5705919cdb3d17c0",
                "blockHeader" : {
                    "bloom" : "0x00000000000000000000000000000000000000000000000000000000000000000000000000000000000000000000000000000000000000000000000000000000000000000000000000000000000000000000000000000000000000000000000000000000000000000000000000000000000000000000000000000000000000000000000000000000000000000000000000000000000000000000000000000000000000000000000000000000000000000000000000000000000000000000000000000000000000000000000000000000000000000000000000000000000000000000000000000000000000000000000000000000000000000000000000000000",
                    "coinbase" : "0x2adc25665018aa1fe0e6bc666dac8fc2697ff9ba",
                    "difficulty" : "0x20000",
                    "extraData" : "0x00",
                    "gasLimit" : "0x7fffffffffffffff",
                    "gasUsed" : "0x1f57891",
                    "hash" : "0xf775e7e612425235952a30c8063662f3f0b105858a02c244cf39626fc185ab2d",
                    "mixHash" : "0x0000000000000000000000000000000000000000000000000000000000000000",
                    "nonce" : "0x0000000000000000",
                    "number" : "0x1",
                    "parentHash" : "0x075f11c1269e1b4d91b091760439ac947703075503a4e8b35f451a7a7725ece7",
                    "receiptTrie" : "0x8b03df82e73004aa85f23a11f8eb65ea46b889e3ec25606dc9e7051a8353e53d",
                    "stateRoot" : "0x705708753f3b3ab20aed200b70666d21b3417d22d060ff0f86d711c28be71554",
                    "timestamp" : "0x3e8",
                    "transactionsTrie" : "0x93bf47c4dab4737de540c32efb4c4219ff63668046aae1abf82d1d6a3cfad10b",
                    "uncleHash" : "0x1dcc4de8dec75d7aab85b567b6ccd41ad312451b948a7413f0a142fd40d49347"
                },
                "transactions" : [
                    {
                        "data" : "0x",
                        "gasLimit" : "0x1240e9387c00",
                        "gasPrice" : "0x01",
                        "nonce" : "0x00",
                        "to" : "0xb94f5374fce5edbc8e2a8697c15331677e6ebf0b",
                        "value" : "0x00",
                        "v" : "0x1c",
                        "r" : "0x06c3926fd44d060f0d229c93189e7051b40fc20ea04d482fc16f875b2c6b2098",
                        "s" : "0x4d716cf75b17dbefc66c8ddeae2306ff351255502ce53f4a9a5705919cdb3d17"
                    }
                ]
            }
        ]
    }
}