{
    "CreateMessageRevertedOOGInInit_d0g0v0_Istanbul" : {
        "_info" : {
            "comment" : "create2 oog during the init code, + when create2 is from transaction init code. but oog still in create2 init code",
            "filling-rpc-server" : "Geth-1.9.6-unstable-63b18027-20190920",
            "filling-tool-version" : "retesteth-0.0.1+commit.0ae18aef.Linux.g++",
            "lllcversion" : "Version: 0.5.12-develop.2019.9.13+commit.2d601a4f.Linux.g++",
            "source" : "src/GeneralStateTestsFiller/stCreate2/CreateMessageRevertedOOGInInitFiller.json",
            "sourceHash" : "e0b652af2bb403505ed63b32ef1ac2072d42aeb82af3e3e5274e6e8a7411ece9"
        },
        "genesisBlockHeader" : {
            "bloom" : "0x00000000000000000000000000000000000000000000000000000000000000000000000000000000000000000000000000000000000000000000000000000000000000000000000000000000000000000000000000000000000000000000000000000000000000000000000000000000000000000000000000000000000000000000000000000000000000000000000000000000000000000000000000000000000000000000000000000000000000000000000000000000000000000000000000000000000000000000000000000000000000000000000000000000000000000000000000000000000000000000000000000000000000000000000000000000",
            "coinbase" : "0x2adc25665018aa1fe0e6bc666dac8fc2697ff9ba",
            "difficulty" : "0x20000",
            "extraData" : "0x00",
            "gasLimit" : "0xe8d4a51000",
            "gasUsed" : "0x0",
            "hash" : "0x4d1be38311d5bf9e5d14f8fce77f0018554fa28a7cfa4ec5c58d238c7454a9cd",
            "mixHash" : "0x0000000000000000000000000000000000000000000000000000000000000000",
            "nonce" : "0x0000000000000000",
            "number" : "0x0",
            "parentHash" : "0x0000000000000000000000000000000000000000000000000000000000000000",
            "receiptTrie" : "0x56e81f171bcc55a6ff8345e692c0f86e5b48e01b996cadc001622fb5e363b421",
            "stateRoot" : "0xd1e15f0f31fa2d018559abdd82ee755c615ac2a76b835a329b5e278879a2b1a0",
            "timestamp" : "0x0",
            "transactionsTrie" : "0x56e81f171bcc55a6ff8345e692c0f86e5b48e01b996cadc001622fb5e363b421",
            "uncleHash" : "0x1dcc4de8dec75d7aab85b567b6ccd41ad312451b948a7413f0a142fd40d49347"
        },
        "pre" : {
            "0xa94f5374fce5edbc8e2a8697c15331677e6ebf0b" : {
                "balance" : "0x0493e0",
                "code" : "0x",
                "nonce" : "0x00",
                "storage" : {
                }
            },
            "0xb94f5374fce5edbc8e2a8697c15331677e6ebf0b" : {
                "balance" : "0x00",
                "code" : "0x",
                "nonce" : "0x00",
                "storage" : {
                }
            }
        },
        "postState" : {
            "0xa94f5374fce5edbc8e2a8697c15331677e6ebf0b" : {
                "code" : "0x",
                "nonce" : "0x01",
                "balance" : "0x02e74d",
                "storage" : {
                }
            },
            "0x2adc25665018aa1fe0e6bc666dac8fc2697ff9ba" : {
                "code" : "0x",
                "nonce" : "0x00",
                "balance" : "0x1bc16d674ec9ac2f",
                "storage" : {
                }
            },
            "0xb94f5374fce5edbc8e2a8697c15331677e6ebf0b" : {
                "code" : "0x",
                "nonce" : "0x00",
                "balance" : "0x00",
                "storage" : {
                }
            },
            "0x6295ee1b4f6dd65047762f924ecd367c17eabf8f" : {
                "code" : "0x",
                "nonce" : "0x02",
                "balance" : "0x64",
                "storage" : {
                }
            }
        },
        "network" : "Istanbul",
        "sealEngine" : "NoProof",
        "lastblockhash" : "0x298e5e1140723920079c1a0f22e84d1d88f1d622dfe34d53e502f421d9ae6e3a",
        "genesisRLP" : "0xf901faf901f5a00000000000000000000000000000000000000000000000000000000000000000a01dcc4de8dec75d7aab85b567b6ccd41ad312451b948a7413f0a142fd40d49347942adc25665018aa1fe0e6bc666dac8fc2697ff9baa0d1e15f0f31fa2d018559abdd82ee755c615ac2a76b835a329b5e278879a2b1a0a056e81f171bcc55a6ff8345e692c0f86e5b48e01b996cadc001622fb5e363b421a056e81f171bcc55a6ff8345e692c0f86e5b48e01b996cadc001622fb5e363b421b9010000000000000000000000000000000000000000000000000000000000000000000000000000000000000000000000000000000000000000000000000000000000000000000000000000000000000000000000000000000000000000000000000000000000000000000000000000000000000000000000000000000000000000000000000000000000000000000000000000000000000000000000000000000000000000000000000000000000000000000000000000000000000000000000000000000000000000000000000000000000000000000000000000000000000000000000000000000000000000000000000000000000000000000000000000000000830200008085e8d4a51000808000a00000000000000000000000000000000000000000000000000000000000000000880000000000000000c0c0",
        "blocks" : [
            {
                "rlp" : "0xf90266f901faa04d1be38311d5bf9e5d14f8fce77f0018554fa28a7cfa4ec5c58d238c7454a9cda01dcc4de8dec75d7aab85b567b6ccd41ad312451b948a7413f0a142fd40d49347942adc25665018aa1fe0e6bc666dac8fc2697ff9baa0c643e8217eb167b4d6c8fb2a12058c50870ef3b6681c79733f0ff305c9894e74a0c779a394e893ea5ec91f4c8f194a2f23e784dba3121eeb9ce5c20c0d790a3fd6a083982284af863ba5fb35b405b8e96031885eef912e0c89891afc733b99df9975b9010000000000000000000000000000000000000000000000000000000000000000000000000000000000000000000000000000000000000000000000000000000000000000000000000000000000000000000000000000000000000000000000000000000000000000000000000000000000000000000000000000000000000000000000000000000000000000000000000000000000000000000000000000000000000000000000000000000000000000000000000000000000000000000000000000000000000000000000000000000000000000000000000000000000000000000000000000000000000000000000000000000000000000000000000000000000830200000185e90eda39438301ac2f8203e800a00000000000000000000000000000000000000000000000000000000000000000880000000000000000f866f86480018301adb080649869600c600055600d6001556000526000600a60166000f5001ca086fbddec4b49cc21732e755e74b498b33f55eacd17753f2fb47e03942ff134d3a0511dc4be93bf7a4efb156b694017b55d5bcb51dfc00b212733fafe5e00b2a2cdc0",
                "blockHeader" : {
                    "bloom" : "0x00000000000000000000000000000000000000000000000000000000000000000000000000000000000000000000000000000000000000000000000000000000000000000000000000000000000000000000000000000000000000000000000000000000000000000000000000000000000000000000000000000000000000000000000000000000000000000000000000000000000000000000000000000000000000000000000000000000000000000000000000000000000000000000000000000000000000000000000000000000000000000000000000000000000000000000000000000000000000000000000000000000000000000000000000000000",
                    "coinbase" : "0x2adc25665018aa1fe0e6bc666dac8fc2697ff9ba",
                    "difficulty" : "0x20000",
                    "extraData" : "0x00",
                    "gasLimit" : "0xe90eda3943",
                    "gasUsed" : "0x1ac2f",
                    "hash" : "0x298e5e1140723920079c1a0f22e84d1d88f1d622dfe34d53e502f421d9ae6e3a",
                    "mixHash" : "0x0000000000000000000000000000000000000000000000000000000000000000",
                    "nonce" : "0x0000000000000000",
                    "number" : "0x1",
                    "parentHash" : "0x4d1be38311d5bf9e5d14f8fce77f0018554fa28a7cfa4ec5c58d238c7454a9cd",
                    "receiptTrie" : "0x83982284af863ba5fb35b405b8e96031885eef912e0c89891afc733b99df9975",
                    "stateRoot" : "0xc643e8217eb167b4d6c8fb2a12058c50870ef3b6681c79733f0ff305c9894e74",
                    "timestamp" : "0x3e8",
                    "transactionsTrie" : "0xc779a394e893ea5ec91f4c8f194a2f23e784dba3121eeb9ce5c20c0d790a3fd6",
                    "uncleHash" : "0x1dcc4de8dec75d7aab85b567b6ccd41ad312451b948a7413f0a142fd40d49347"
                },
                "transactions" : [
                    {
                        "data" : "0x69600c600055600d6001556000526000600a60166000f500",
                        "gasLimit" : "0x01adb0",
                        "gasPrice" : "0x01",
                        "nonce" : "0x00",
                        "to" : "",
                        "value" : "0x64",
                        "v" : "0x1c",
                        "r" : "0x86fbddec4b49cc21732e755e74b498b33f55eacd17753f2fb47e03942ff134d3",
                        "s" : "0x511dc4be93bf7a4efb156b694017b55d5bcb51dfc00b212733fafe5e00b2a2cd"
                    }
                ]
            }
        ]
    },
    "CreateMessageRevertedOOGInInit_d0g1v0_Istanbul" : {
        "_info" : {
            "comment" : "create2 oog during the init code, + when create2 is from transaction init code. but oog still in create2 init code",
            "filling-rpc-server" : "Geth-1.9.6-unstable-63b18027-20190920",
            "filling-tool-version" : "retesteth-0.0.1+commit.0ae18aef.Linux.g++",
            "lllcversion" : "Version: 0.5.12-develop.2019.9.13+commit.2d601a4f.Linux.g++",
            "source" : "src/GeneralStateTestsFiller/stCreate2/CreateMessageRevertedOOGInInitFiller.json",
            "sourceHash" : "e0b652af2bb403505ed63b32ef1ac2072d42aeb82af3e3e5274e6e8a7411ece9"
        },
        "genesisBlockHeader" : {
            "bloom" : "0x00000000000000000000000000000000000000000000000000000000000000000000000000000000000000000000000000000000000000000000000000000000000000000000000000000000000000000000000000000000000000000000000000000000000000000000000000000000000000000000000000000000000000000000000000000000000000000000000000000000000000000000000000000000000000000000000000000000000000000000000000000000000000000000000000000000000000000000000000000000000000000000000000000000000000000000000000000000000000000000000000000000000000000000000000000000",
            "coinbase" : "0x2adc25665018aa1fe0e6bc666dac8fc2697ff9ba",
            "difficulty" : "0x20000",
            "extraData" : "0x00",
            "gasLimit" : "0xe8d4a51000",
            "gasUsed" : "0x0",
            "hash" : "0x4d1be38311d5bf9e5d14f8fce77f0018554fa28a7cfa4ec5c58d238c7454a9cd",
            "mixHash" : "0x0000000000000000000000000000000000000000000000000000000000000000",
            "nonce" : "0x0000000000000000",
            "number" : "0x0",
            "parentHash" : "0x0000000000000000000000000000000000000000000000000000000000000000",
            "receiptTrie" : "0x56e81f171bcc55a6ff8345e692c0f86e5b48e01b996cadc001622fb5e363b421",
            "stateRoot" : "0xd1e15f0f31fa2d018559abdd82ee755c615ac2a76b835a329b5e278879a2b1a0",
            "timestamp" : "0x0",
            "transactionsTrie" : "0x56e81f171bcc55a6ff8345e692c0f86e5b48e01b996cadc001622fb5e363b421",
            "uncleHash" : "0x1dcc4de8dec75d7aab85b567b6ccd41ad312451b948a7413f0a142fd40d49347"
        },
        "pre" : {
            "0xa94f5374fce5edbc8e2a8697c15331677e6ebf0b" : {
                "balance" : "0x0493e0",
                "code" : "0x",
                "nonce" : "0x00",
                "storage" : {
                }
            },
            "0xb94f5374fce5edbc8e2a8697c15331677e6ebf0b" : {
                "balance" : "0x00",
                "code" : "0x",
                "nonce" : "0x00",
                "storage" : {
                }
            }
        },
        "postState" : {
            "0xa94f5374fce5edbc8e2a8697c15331677e6ebf0b" : {
                "code" : "0x",
                "nonce" : "0x01",
                "balance" : "0x02a9c6",
                "storage" : {
                }
            },
            "0x2adc25665018aa1fe0e6bc666dac8fc2697ff9ba" : {
                "code" : "0x",
                "nonce" : "0x00",
                "balance" : "0x1bc16d674ec9e9b6",
                "storage" : {
                }
            },
            "0xb94f5374fce5edbc8e2a8697c15331677e6ebf0b" : {
                "code" : "0x",
                "nonce" : "0x00",
                "balance" : "0x00",
                "storage" : {
                }
            },
            "0xf3059e18a327c662766f6ba11808c400635847ef" : {
                "code" : "0x",
                "nonce" : "0x01",
                "balance" : "0x00",
                "storage" : {
                    "0x00" : "0x0c",
                    "0x01" : "0x0d"
                }
            },
            "0x6295ee1b4f6dd65047762f924ecd367c17eabf8f" : {
                "code" : "0x",
                "nonce" : "0x02",
                "balance" : "0x64",
                "storage" : {
                }
            }
        },
        "network" : "Istanbul",
        "sealEngine" : "NoProof",
        "lastblockhash" : "0x0a326a96c93e96c6289253038e2787ccb732198d9ebf6456e816d998b4156d6d",
        "genesisRLP" : "0xf901faf901f5a00000000000000000000000000000000000000000000000000000000000000000a01dcc4de8dec75d7aab85b567b6ccd41ad312451b948a7413f0a142fd40d49347942adc25665018aa1fe0e6bc666dac8fc2697ff9baa0d1e15f0f31fa2d018559abdd82ee755c615ac2a76b835a329b5e278879a2b1a0a056e81f171bcc55a6ff8345e692c0f86e5b48e01b996cadc001622fb5e363b421a056e81f171bcc55a6ff8345e692c0f86e5b48e01b996cadc001622fb5e363b421b9010000000000000000000000000000000000000000000000000000000000000000000000000000000000000000000000000000000000000000000000000000000000000000000000000000000000000000000000000000000000000000000000000000000000000000000000000000000000000000000000000000000000000000000000000000000000000000000000000000000000000000000000000000000000000000000000000000000000000000000000000000000000000000000000000000000000000000000000000000000000000000000000000000000000000000000000000000000000000000000000000000000000000000000000000000000000830200008085e8d4a51000808000a00000000000000000000000000000000000000000000000000000000000000000880000000000000000c0c0",
        "blocks" : [
            {
                "rlp" : "0xf90266f901faa04d1be38311d5bf9e5d14f8fce77f0018554fa28a7cfa4ec5c58d238c7454a9cda01dcc4de8dec75d7aab85b567b6ccd41ad312451b948a7413f0a142fd40d49347942adc25665018aa1fe0e6bc666dac8fc2697ff9baa0a57840d58e12d0141e0de5d19d76b6e9576ec97efb5b3e98216a60ec092d6ddea0e84e0714f96f5c42f037e430fa5d6a8355412c26a9610837e9d2720794efb437a01d1fbb19ecc5bc075f465a7be071d24ebe3ecabad4b1b18de0dd8b76f5d5dd90b9010000000000000000000000000000000000000000000000000000000000000000000000000000000000000000000000000000000000000000000000000000000000000000000000000000000000000000000000000000000000000000000000000000000000000000000000000000000000000000000000000000000000000000000000000000000000000000000000000000000000000000000000000000000000000000000000000000000000000000000000000000000000000000000000000000000000000000000000000000000000000000000000000000000000000000000000000000000000000000000000000000000000000000000000000000000000830200000185e90eda39438301e9b68203e800a00000000000000000000000000000000000000000000000000000000000000000880000000000000000f866f8648001830249f080649869600c600055600d6001556000526000600a60166000f5001ba0e82b286e1aec1e112cdd1963211f2e1b3cbee5d5397bc72eacf91dae1db7e2dda0581faf6bb4d420dc6ffd61c598f1fa9427e57e906877d69f8ab034ffaa76c2d8c0",
                "blockHeader" : {
                    "bloom" : "0x00000000000000000000000000000000000000000000000000000000000000000000000000000000000000000000000000000000000000000000000000000000000000000000000000000000000000000000000000000000000000000000000000000000000000000000000000000000000000000000000000000000000000000000000000000000000000000000000000000000000000000000000000000000000000000000000000000000000000000000000000000000000000000000000000000000000000000000000000000000000000000000000000000000000000000000000000000000000000000000000000000000000000000000000000000000",
                    "coinbase" : "0x2adc25665018aa1fe0e6bc666dac8fc2697ff9ba",
                    "difficulty" : "0x20000",
                    "extraData" : "0x00",
                    "gasLimit" : "0xe90eda3943",
                    "gasUsed" : "0x1e9b6",
                    "hash" : "0x0a326a96c93e96c6289253038e2787ccb732198d9ebf6456e816d998b4156d6d",
                    "mixHash" : "0x0000000000000000000000000000000000000000000000000000000000000000",
                    "nonce" : "0x0000000000000000",
                    "number" : "0x1",
                    "parentHash" : "0x4d1be38311d5bf9e5d14f8fce77f0018554fa28a7cfa4ec5c58d238c7454a9cd",
                    "receiptTrie" : "0x1d1fbb19ecc5bc075f465a7be071d24ebe3ecabad4b1b18de0dd8b76f5d5dd90",
                    "stateRoot" : "0xa57840d58e12d0141e0de5d19d76b6e9576ec97efb5b3e98216a60ec092d6dde",
                    "timestamp" : "0x3e8",
                    "transactionsTrie" : "0xe84e0714f96f5c42f037e430fa5d6a8355412c26a9610837e9d2720794efb437",
                    "uncleHash" : "0x1dcc4de8dec75d7aab85b567b6ccd41ad312451b948a7413f0a142fd40d49347"
                },
                "transactions" : [
                    {
                        "data" : "0x69600c600055600d6001556000526000600a60166000f500",
                        "gasLimit" : "0x0249f0",
                        "gasPrice" : "0x01",
                        "nonce" : "0x00",
                        "to" : "",
                        "value" : "0x64",
                        "v" : "0x1b",
                        "r" : "0xe82b286e1aec1e112cdd1963211f2e1b3cbee5d5397bc72eacf91dae1db7e2dd",
                        "s" : "0x581faf6bb4d420dc6ffd61c598f1fa9427e57e906877d69f8ab034ffaa76c2d8"
                    }
                ]
            }
        ]
    }
}