{
    "Create2OOGafterInitCodeReturndata3_d0g0v0_Istanbul" : {
        "_info" : {
            "comment" : "Calls a contract that runs CREATE2 which deploy a code. then OOG happens upon deployment of the actual code. check the RETURN data buffer in initial contract",
            "filling-rpc-server" : "Geth-1.9.6-unstable-63b18027-20190920",
            "filling-tool-version" : "retesteth-0.0.1+commit.0ae18aef.Linux.g++",
            "lllcversion" : "Version: 0.5.12-develop.2019.9.13+commit.2d601a4f.Linux.g++",
            "source" : "src/GeneralStateTestsFiller/stCreate2/Create2OOGafterInitCodeReturndata3Filler.json",
            "sourceHash" : "f6be213d22712f5170914814d8cddb454c2cd05fc262bf4d28edb895f6c41781"
        },
        "genesisBlockHeader" : {
            "bloom" : "0x00000000000000000000000000000000000000000000000000000000000000000000000000000000000000000000000000000000000000000000000000000000000000000000000000000000000000000000000000000000000000000000000000000000000000000000000000000000000000000000000000000000000000000000000000000000000000000000000000000000000000000000000000000000000000000000000000000000000000000000000000000000000000000000000000000000000000000000000000000000000000000000000000000000000000000000000000000000000000000000000000000000000000000000000000000000",
            "coinbase" : "0x2adc25665018aa1fe0e6bc666dac8fc2697ff9ba",
            "difficulty" : "0x20000",
            "extraData" : "0x00",
            "gasLimit" : "0x989680",
            "gasUsed" : "0x0",
            "hash" : "0x696335f0bb75efee53525d5e2bc001bf866b8dd06348aa0ba2a80b586b8bc7b6",
            "mixHash" : "0x0000000000000000000000000000000000000000000000000000000000000000",
            "nonce" : "0x0000000000000000",
            "number" : "0x0",
            "parentHash" : "0x0000000000000000000000000000000000000000000000000000000000000000",
            "receiptTrie" : "0x56e81f171bcc55a6ff8345e692c0f86e5b48e01b996cadc001622fb5e363b421",
            "stateRoot" : "0x632a344406d0ed2058b65263840af483b7647772fa4639fa9e56946cab237abf",
            "timestamp" : "0x0",
            "transactionsTrie" : "0x56e81f171bcc55a6ff8345e692c0f86e5b48e01b996cadc001622fb5e363b421",
            "uncleHash" : "0x1dcc4de8dec75d7aab85b567b6ccd41ad312451b948a7413f0a142fd40d49347"
        },
        "pre" : {
            "0xa94f5374fce5edbc8e2a8697c15331677e6ebf0b" : {
                "balance" : "0xe8d4a51000",
                "code" : "0x",
                "nonce" : "0x00",
                "storage" : {
                }
            },
            "0xb94f5374fce5edbc8e2a8697c15331677e6ebf0b" : {
                "balance" : "0x00",
                "code" : "0x6d6460016001556000526005601bf36000526000600e60126000f500",
                "nonce" : "0x00",
                "storage" : {
                }
            },
            "0xc94f5374fce5edbc8e2a8697c15331677e6ebf0b" : {
                "balance" : "0x00",
                "code" : "0x6020600060006000600073b94f5374fce5edbc8e2a8697c15331677e6ebf0b5af2506020600060003e60005160015500",
                "nonce" : "0x00",
                "storage" : {
                    "0x01" : "0x01"
                }
            }
        },
        "postState" : {
            "0xa94f5374fce5edbc8e2a8697c15331677e6ebf0b" : {
                "code" : "0x",
                "nonce" : "0x01",
                "balance" : "0xe8d4a43928",
                "storage" : {
                }
            },
            "0xc94f5374fce5edbc8e2a8697c15331677e6ebf0b" : {
                "code" : "0x6020600060006000600073b94f5374fce5edbc8e2a8697c15331677e6ebf0b5af2506020600060003e60005160015500",
                "nonce" : "0x00",
                "balance" : "0x00",
                "storage" : {
                    "0x01" : "0x01"
                }
            },
            "0x2adc25665018aa1fe0e6bc666dac8fc2697ff9ba" : {
                "code" : "0x",
                "nonce" : "0x00",
                "balance" : "0x1bc16d674ec8d6d8",
                "storage" : {
                }
            },
            "0xb94f5374fce5edbc8e2a8697c15331677e6ebf0b" : {
                "code" : "0x6d6460016001556000526005601bf36000526000600e60126000f500",
                "nonce" : "0x00",
                "balance" : "0x00",
                "storage" : {
                }
            }
        },
        "network" : "Istanbul",
        "sealEngine" : "NoProof",
        "lastblockhash" : "0xaf015328e06700a58534bf5756906fecb85f9112545b3d0585d1cdadf1a45ea2",
        "genesisRLP" : "0xf901f8f901f3a00000000000000000000000000000000000000000000000000000000000000000a01dcc4de8dec75d7aab85b567b6ccd41ad312451b948a7413f0a142fd40d49347942adc25665018aa1fe0e6bc666dac8fc2697ff9baa0632a344406d0ed2058b65263840af483b7647772fa4639fa9e56946cab237abfa056e81f171bcc55a6ff8345e692c0f86e5b48e01b996cadc001622fb5e363b421a056e81f171bcc55a6ff8345e692c0f86e5b48e01b996cadc001622fb5e363b421b9010000000000000000000000000000000000000000000000000000000000000000000000000000000000000000000000000000000000000000000000000000000000000000000000000000000000000000000000000000000000000000000000000000000000000000000000000000000000000000000000000000000000000000000000000000000000000000000000000000000000000000000000000000000000000000000000000000000000000000000000000000000000000000000000000000000000000000000000000000000000000000000000000000000000000000000000000000000000000000000000000000000000000000000000000000000000830200008083989680808000a00000000000000000000000000000000000000000000000000000000000000000880000000000000000c0c0",
        "blocks" : [
            {
                "rlp" : "0xf9025ef901f7a0696335f0bb75efee53525d5e2bc001bf866b8dd06348aa0ba2a80b586b8bc7b6a01dcc4de8dec75d7aab85b567b6ccd41ad312451b948a7413f0a142fd40d49347942adc25665018aa1fe0e6bc666dac8fc2697ff9baa01bcdcbaacf899443265750a31838908be5346cc910cb65fd9766ea5e50b1456ea014d1cdc2285a6a3617bb02e1925a02cd387fca88aba3bde3fce0be7b5f9f7a9aa0b243137394e58a80308b9d4a47f7c6186dc2bb5619f108404e51a55f6e15cfd3b901000000000000000000000000000000000000000000000000000000000000000000000000000000000000000000000000000000000000000000000000000000000000000000000000000000000000000000000000000000000000000000000000000000000000000000000000000000000000000000000000000000000000000000000000000000000000000000000000000000000000000000000000000000000000000000000000000000000000000000000000000000000000000000000000000000000000000000000000000000000000000000000000000000000000000000000000000000000000000000000000000000000000000000000000000000000083020000018398bca482d6d88203e800a00000000000000000000000000000000000000000000000000000000000000000880000000000000000f861f85f800182d6d894c94f5374fce5edbc8e2a8697c15331677e6ebf0b80801ca01d6efce2f712996f1a4ebb5315dbb02a98ccecf4b0110d1dab7e12f5b44dc1c1a06b42d9ac73e294a17d3d3b7189bbac673674c1bb27c934f4d8fff368eb8dfc39c0",
                "blockHeader" : {
                    "bloom" : "0x00000000000000000000000000000000000000000000000000000000000000000000000000000000000000000000000000000000000000000000000000000000000000000000000000000000000000000000000000000000000000000000000000000000000000000000000000000000000000000000000000000000000000000000000000000000000000000000000000000000000000000000000000000000000000000000000000000000000000000000000000000000000000000000000000000000000000000000000000000000000000000000000000000000000000000000000000000000000000000000000000000000000000000000000000000000",
                    "coinbase" : "0x2adc25665018aa1fe0e6bc666dac8fc2697ff9ba",
                    "difficulty" : "0x20000",
                    "extraData" : "0x00",
                    "gasLimit" : "0x98bca4",
                    "gasUsed" : "0xd6d8",
                    "hash" : "0xaf015328e06700a58534bf5756906fecb85f9112545b3d0585d1cdadf1a45ea2",
                    "mixHash" : "0x0000000000000000000000000000000000000000000000000000000000000000",
                    "nonce" : "0x0000000000000000",
                    "number" : "0x1",
                    "parentHash" : "0x696335f0bb75efee53525d5e2bc001bf866b8dd06348aa0ba2a80b586b8bc7b6",
                    "receiptTrie" : "0xb243137394e58a80308b9d4a47f7c6186dc2bb5619f108404e51a55f6e15cfd3",
                    "stateRoot" : "0x1bcdcbaacf899443265750a31838908be5346cc910cb65fd9766ea5e50b1456e",
                    "timestamp" : "0x3e8",
                    "transactionsTrie" : "0x14d1cdc2285a6a3617bb02e1925a02cd387fca88aba3bde3fce0be7b5f9f7a9a",
                    "uncleHash" : "0x1dcc4de8dec75d7aab85b567b6ccd41ad312451b948a7413f0a142fd40d49347"
                },
                "transactions" : [
                    {
                        "data" : "0x",
                        "gasLimit" : "0xd6d8",
                        "gasPrice" : "0x01",
                        "nonce" : "0x00",
                        "to" : "0xc94f5374fce5edbc8e2a8697c15331677e6ebf0b",
                        "value" : "0x00",
                        "v" : "0x1c",
                        "r" : "0x1d6efce2f712996f1a4ebb5315dbb02a98ccecf4b0110d1dab7e12f5b44dc1c1",
                        "s" : "0x6b42d9ac73e294a17d3d3b7189bbac673674c1bb27c934f4d8fff368eb8dfc39"
                    }
                ]
            }
        ]
    }
}