{
    "CREATE2_ContractSuicideDuringInit_ThenStoreThenReturn_d0g0v0_Istanbul" : {
        "_info" : {
            "comment" : "",
            "filling-rpc-server" : "Geth-1.9.6-unstable-63b18027-20190920",
            "filling-tool-version" : "retesteth-0.0.1+commit.0ae18aef.Linux.g++",
            "lllcversion" : "Version: 0.5.12-develop.2019.9.13+commit.2d601a4f.Linux.g++",
            "source" : "src/GeneralStateTestsFiller/stCreate2/CREATE2_ContractSuicideDuringInit_ThenStoreThenReturnFiller.json",
            "sourceHash" : "d114f1804d73d1ae87622aa8cae4520b8d4a743a7203c3d26c9c673102e1555b"
        },
        "genesisBlockHeader" : {
            "bloom" : "0x00000000000000000000000000000000000000000000000000000000000000000000000000000000000000000000000000000000000000000000000000000000000000000000000000000000000000000000000000000000000000000000000000000000000000000000000000000000000000000000000000000000000000000000000000000000000000000000000000000000000000000000000000000000000000000000000000000000000000000000000000000000000000000000000000000000000000000000000000000000000000000000000000000000000000000000000000000000000000000000000000000000000000000000000000000000",
            "coinbase" : "0x2adc25665018aa1fe0e6bc666dac8fc2697ff9ba",
            "difficulty" : "0x20000",
            "extraData" : "0x00",
            "gasLimit" : "0x989680",
            "gasUsed" : "0x0",
            "hash" : "0xdfbb51a5795fd1e245183f08924ce60565dbd1df1a002097da4a2f9ff6176348",
            "mixHash" : "0x0000000000000000000000000000000000000000000000000000000000000000",
            "nonce" : "0x0000000000000000",
            "number" : "0x0",
            "parentHash" : "0x0000000000000000000000000000000000000000000000000000000000000000",
            "receiptTrie" : "0x56e81f171bcc55a6ff8345e692c0f86e5b48e01b996cadc001622fb5e363b421",
            "stateRoot" : "0x404e9ec5c5794cabfc9e5996e76fb23c18ac6abd2c6d22b6e29804b65761151c",
            "timestamp" : "0x0",
            "transactionsTrie" : "0x56e81f171bcc55a6ff8345e692c0f86e5b48e01b996cadc001622fb5e363b421",
            "uncleHash" : "0x1dcc4de8dec75d7aab85b567b6ccd41ad312451b948a7413f0a142fd40d49347"
        },
        "pre" : {
            "0xa94f5374fce5edbc8e2a8697c15331677e6ebf0b" : {
                "balance" : "0xe8d4a51000",
                "code" : "0x",
                "nonce" : "0x00",
                "storage" : {
                }
            },
            "0xb94f5374fce5edbc8e2a8697c15331677e6ebf0b" : {
                "balance" : "0xe8d4a51000",
                "code" : "0x6020600060006000600173c94f5374fce5edbc8e2a8697c15331677e6ebf0b620249f0f15060005160015500",
                "nonce" : "0x00",
                "storage" : {
                }
            },
            "0xc94f5374fce5edbc8e2a8697c15331677e6ebf0b" : {
                "balance" : "0xe8d4a51000",
                "code" : "0x746d64600c6000556000526005601bf36000526001ff60005260006015600b6001f550600b600055600e6012f300",
                "nonce" : "0x00",
                "storage" : {
                }
            }
        },
        "postState" : {
            "0xa94f5374fce5edbc8e2a8697c15331677e6ebf0b" : {
                "code" : "0x",
                "nonce" : "0x01",
                "balance" : "0xe8d4a36ff8",
                "storage" : {
                }
            },
            "0x0000000000000000000000000000000000000001" : {
                "code" : "0x",
                "nonce" : "0x00",
                "balance" : "0x01",
                "storage" : {
                }
            },
            "0xc94f5374fce5edbc8e2a8697c15331677e6ebf0b" : {
                "code" : "0x746d64600c6000556000526005601bf36000526001ff60005260006015600b6001f550600b600055600e6012f300",
                "nonce" : "0x01",
                "balance" : "0xe8d4a51000",
                "storage" : {
                    "0x00" : "0x0b"
                }
            },
            "0x2adc25665018aa1fe0e6bc666dac8fc2697ff9ba" : {
                "code" : "0x",
                "nonce" : "0x00",
                "balance" : "0x1bc16d674ec99ffe",
                "storage" : {
                }
            },
            "0xb94f5374fce5edbc8e2a8697c15331677e6ebf0b" : {
                "code" : "0x6020600060006000600173c94f5374fce5edbc8e2a8697c15331677e6ebf0b620249f0f15060005160015500",
                "nonce" : "0x00",
                "balance" : "0xe8d4a51009",
                "storage" : {
                    "0x01" : "0x6000526005601bf36000526001ff000000000000000000000000000000000000"
                }
            }
        },
        "network" : "Istanbul",
        "sealEngine" : "NoProof",
        "lastblockhash" : "0x93a96c38e88f0f473b5b880a9c55301e0da8e930831175a949650f88a1a43e32",
        "genesisRLP" : "0xf901f8f901f3a00000000000000000000000000000000000000000000000000000000000000000a01dcc4de8dec75d7aab85b567b6ccd41ad312451b948a7413f0a142fd40d49347942adc25665018aa1fe0e6bc666dac8fc2697ff9baa0404e9ec5c5794cabfc9e5996e76fb23c18ac6abd2c6d22b6e29804b65761151ca056e81f171bcc55a6ff8345e692c0f86e5b48e01b996cadc001622fb5e363b421a056e81f171bcc55a6ff8345e692c0f86e5b48e01b996cadc001622fb5e363b421b9010000000000000000000000000000000000000000000000000000000000000000000000000000000000000000000000000000000000000000000000000000000000000000000000000000000000000000000000000000000000000000000000000000000000000000000000000000000000000000000000000000000000000000000000000000000000000000000000000000000000000000000000000000000000000000000000000000000000000000000000000000000000000000000000000000000000000000000000000000000000000000000000000000000000000000000000000000000000000000000000000000000000000000000000000000000000830200008083989680808000a00000000000000000000000000000000000000000000000000000000000000000880000000000000000c0c0",
        "blocks" : [
            {
                "rlp" : "0xf90260f901f8a0dfbb51a5795fd1e245183f08924ce60565dbd1df1a002097da4a2f9ff6176348a01dcc4de8dec75d7aab85b567b6ccd41ad312451b948a7413f0a142fd40d49347942adc25665018aa1fe0e6bc666dac8fc2697ff9baa027d6d6c066fda36bf0a347223c6aef80d505497615b4a6d6a667e7290c316331a0ace2706dbecdcb4c3c252a57d63d7ca40de3c69fb9c89965944950e9ee6cf01aa0b8fc7cfa1eee33b156f5ac8be1c5016dd65122e18b350e633965545f15cd5db0b901000000000000000000000000000000000000000000000000000000000000000000000000000000000000000000000000000000000000000000000000000000000000000000000000000000000000000000000000000000000000000000000000000000000000000000000000000000000000000000000000000000000000000000000000000000000000000000000000000000000000000000000000000000000000000000000000000000000000000000000000000000000000000000000000000000000000000000000000000000000000000000000000000000000000000000000000000000000000000000000000000000000000000000000000000000000083020000018398bca483019ffe8203e800a00000000000000000000000000000000000000000000000000000000000000000880000000000000000f862f8608001830927c094b94f5374fce5edbc8e2a8697c15331677e6ebf0b0a801ca0504104409de91016a7737a955408a44e6960c2d053bbbc618c243489886a669aa00424a050fb58cd293c05b7ff481eb223d9cafef2514ecdc7c536c1dab0082aa9c0",
                "blockHeader" : {
                    "bloom" : "0x00000000000000000000000000000000000000000000000000000000000000000000000000000000000000000000000000000000000000000000000000000000000000000000000000000000000000000000000000000000000000000000000000000000000000000000000000000000000000000000000000000000000000000000000000000000000000000000000000000000000000000000000000000000000000000000000000000000000000000000000000000000000000000000000000000000000000000000000000000000000000000000000000000000000000000000000000000000000000000000000000000000000000000000000000000000",
                    "coinbase" : "0x2adc25665018aa1fe0e6bc666dac8fc2697ff9ba",
                    "difficulty" : "0x20000",
                    "extraData" : "0x00",
                    "gasLimit" : "0x98bca4",
                    "gasUsed" : "0x19ffe",
                    "hash" : "0x93a96c38e88f0f473b5b880a9c55301e0da8e930831175a949650f88a1a43e32",
                    "mixHash" : "0x0000000000000000000000000000000000000000000000000000000000000000",
                    "nonce" : "0x0000000000000000",
                    "number" : "0x1",
                    "parentHash" : "0xdfbb51a5795fd1e245183f08924ce60565dbd1df1a002097da4a2f9ff6176348",
                    "receiptTrie" : "0xb8fc7cfa1eee33b156f5ac8be1c5016dd65122e18b350e633965545f15cd5db0",
                    "stateRoot" : "0x27d6d6c066fda36bf0a347223c6aef80d505497615b4a6d6a667e7290c316331",
                    "timestamp" : "0x3e8",
                    "transactionsTrie" : "0xace2706dbecdcb4c3c252a57d63d7ca40de3c69fb9c89965944950e9ee6cf01a",
                    "uncleHash" : "0x1dcc4de8dec75d7aab85b567b6ccd41ad312451b948a7413f0a142fd40d49347"
                },
                "transactions" : [
                    {
                        "data" : "0x",
                        "gasLimit" : "0x0927c0",
                        "gasPrice" : "0x01",
                        "nonce" : "0x00",
                        "to" : "0xb94f5374fce5edbc8e2a8697c15331677e6ebf0b",
                        "value" : "0x0a",
                        "v" : "0x1c",
                        "r" : "0x504104409de91016a7737a955408a44e6960c2d053bbbc618c243489886a669a",
                        "s" : "0x0424a050fb58cd293c05b7ff481eb223d9cafef2514ecdc7c536c1dab0082aa9"
                    }
                ]
            }
        ]
    }
}