{
    "returndatacopy_following_create_d0g0v0_Istanbul" : {
        "_info" : {
            "comment" : "Check that create2 does not fill returndata buffer with its return opcode.",
            "filling-rpc-server" : "Geth-1.9.6-unstable-63b18027-20190920",
            "filling-tool-version" : "retesteth-0.0.1+commit.0ae18aef.Linux.g++",
            "lllcversion" : "Version: 0.5.12-develop.2019.9.13+commit.2d601a4f.Linux.g++",
            "source" : "src/GeneralStateTestsFiller/stCreate2/returndatacopy_following_createFiller.json",
            "sourceHash" : "d28c561531c4c16ae44f38a3311e8ef3708d8759d76e5ec710f6c7ec3ea20d4d"
        },
        "genesisBlockHeader" : {
            "bloom" : "0x00000000000000000000000000000000000000000000000000000000000000000000000000000000000000000000000000000000000000000000000000000000000000000000000000000000000000000000000000000000000000000000000000000000000000000000000000000000000000000000000000000000000000000000000000000000000000000000000000000000000000000000000000000000000000000000000000000000000000000000000000000000000000000000000000000000000000000000000000000000000000000000000000000000000000000000000000000000000000000000000000000000000000000000000000000000",
            "coinbase" : "0x2adc25665018aa1fe0e6bc666dac8fc2697ff9ba",
            "difficulty" : "0x20000",
            "extraData" : "0x00",
            "gasLimit" : "0xb00000000",
            "gasUsed" : "0x0",
            "hash" : "0x5e0e21ac439454831ee99d70a9f4fb02d0a592f98d0b4832592904b1fa38b83b",
            "mixHash" : "0x0000000000000000000000000000000000000000000000000000000000000000",
            "nonce" : "0x0000000000000000",
            "number" : "0x0",
            "parentHash" : "0x0000000000000000000000000000000000000000000000000000000000000000",
            "receiptTrie" : "0x56e81f171bcc55a6ff8345e692c0f86e5b48e01b996cadc001622fb5e363b421",
            "stateRoot" : "0x722860f979d834086b23cec84b4a9a219604dfae6e4a97f353541f00fa20ca61",
            "timestamp" : "0x0",
            "transactionsTrie" : "0x56e81f171bcc55a6ff8345e692c0f86e5b48e01b996cadc001622fb5e363b421",
            "uncleHash" : "0x1dcc4de8dec75d7aab85b567b6ccd41ad312451b948a7413f0a142fd40d49347"
        },
        "pre" : {
            "0x0f572e5295c57f15886f9b263e2f6d2d6c7b5ec6" : {
                "balance" : "0x00",
                "code" : "0x6000602880601f60003960006000f5506020600060003e60005160005500fe7d111122223333444455556666777788889999aaaabbbbccccddddeeeeffff60005260206000f300",
                "nonce" : "0x00",
                "storage" : {
                    "0x00" : "0x01"
                }
            },
            "0x1aabbccdd5c57f15886f9b263e2f6d2d6c7b5ec6" : {
                "balance" : "0x00",
                "code" : "0x600060006000600060006000355af100",
                "nonce" : "0x00",
                "storage" : {
                }
            },
            "0x1f572e5295c57f15886f9b263e2f6d2d6c7b5ec6" : {
                "balance" : "0x00",
                "code" : "0x6000600280601f60003960006000f5506020600060003e60005160005500fe0000",
                "nonce" : "0x00",
                "storage" : {
                    "0x00" : "0x01"
                }
            },
            "0xa94f5374fce5edbc8e2a8697c15331677e6ebf0b" : {
                "balance" : "0x6400000000",
                "code" : "0x",
                "nonce" : "0x00",
                "storage" : {
                }
            }
        },
        "postState" : {
            "0xa94f5374fce5edbc8e2a8697c15331677e6ebf0b" : {
                "code" : "0x",
                "nonce" : "0x01",
                "balance" : "0x5a27fffea6",
                "storage" : {
                }
            },
            "0x1f572e5295c57f15886f9b263e2f6d2d6c7b5ec6" : {
                "code" : "0x6000600280601f60003960006000f5506020600060003e60005160005500fe0000",
                "nonce" : "0x00",
                "balance" : "0x00",
                "storage" : {
                    "0x00" : "0x01"
                }
            },
            "0x2adc25665018aa1fe0e6bc666dac8fc2697ff9ba" : {
                "code" : "0x",
                "nonce" : "0x00",
                "balance" : "0x1bc16d7126c8015a",
                "storage" : {
                }
            },
            "0x1aabbccdd5c57f15886f9b263e2f6d2d6c7b5ec6" : {
                "code" : "0x600060006000600060006000355af100",
                "nonce" : "0x00",
                "balance" : "0x00",
                "storage" : {
                }
            },
            "0x0f572e5295c57f15886f9b263e2f6d2d6c7b5ec6" : {
                "code" : "0x6000602880601f60003960006000f5506020600060003e60005160005500fe7d111122223333444455556666777788889999aaaabbbbccccddddeeeeffff60005260206000f300",
                "nonce" : "0x00",
                "balance" : "0x00",
                "storage" : {
                    "0x00" : "0x01"
                }
            }
        },
        "network" : "Istanbul",
        "sealEngine" : "NoProof",
        "lastblockhash" : "0x66e558503c44c1d389f1edd7f55971a800abb5114223e671cd31009fcb108031",
        "genesisRLP" : "0xf901faf901f5a00000000000000000000000000000000000000000000000000000000000000000a01dcc4de8dec75d7aab85b567b6ccd41ad312451b948a7413f0a142fd40d49347942adc25665018aa1fe0e6bc666dac8fc2697ff9baa0722860f979d834086b23cec84b4a9a219604dfae6e4a97f353541f00fa20ca61a056e81f171bcc55a6ff8345e692c0f86e5b48e01b996cadc001622fb5e363b421a056e81f171bcc55a6ff8345e692c0f86e5b48e01b996cadc001622fb5e363b421b90100000000000000000000000000000000000000000000000000000000000000000000000000000000000000000000000000000000000000000000000000000000000000000000000000000000000000000000000000000000000000000000000000000000000000000000000000000000000000000000000000000000000000000000000000000000000000000000000000000000000000000000000000000000000000000000000000000000000000000000000000000000000000000000000000000000000000000000000000000000000000000000000000000000000000000000000000000000000000000000000000000000000000000000000000000000008302000080850b00000000808000a00000000000000000000000000000000000000000000000000000000000000000880000000000000000c0c0",
        "blocks" : [
            {
                "rlp" : "0xf90286f901fca05e0e21ac439454831ee99d70a9f4fb02d0a592f98d0b4832592904b1fa38b83ba01dcc4de8dec75d7aab85b567b6ccd41ad312451b948a7413f0a142fd40d49347942adc25665018aa1fe0e6bc666dac8fc2697ff9baa0017a833b1f6018d45cd002001de6f4ca1a389e91571e88d8bef49da856b13283a069c170299662f99f1fadf8f188bd75b69ccc53c9183dec37ab9ad905337c94fea0195a3b88838aeb97449444773e9b6b719b7ae381f9c36181487bd4b68aec9983b90100000000000000000000000000000000000000000000000000000000000000000000000000000000000000000000000000000000000000000000000000000000000000000000000000000000000000000000000000000000000000000000000000000000000000000000000000000000000000000000000000000000000000000000000000000000000000000000000000000000000000000000000000000000000000000000000000000000000000000000000000000000000000000000000000000000000000000000000000000000000000000000000000000000000000000000000000000000000000000000000000000000000000000000000000000000008302000001850b02bfffff8509d800015a8203e800a00000000000000000000000000000000000000000000000000000000000000000880000000000000000f884f8828001850a00000000941aabbccdd5c57f15886f9b263e2f6d2d6c7b5ec680a00000000000000000000000000f572e5295c57f15886f9b263e2f6d2d6c7b5ec61ba093fd0893ed2b699f28d2111cc57ee154fc537ab2d1d1c2e4617feb16997949d9a03e1f5df45b5fa6ce3f3486d5eeef891ab91ad7f98cbaa063059e2b2911710f1bc0",
                "blockHeader" : {
                    "bloom" : "0x00000000000000000000000000000000000000000000000000000000000000000000000000000000000000000000000000000000000000000000000000000000000000000000000000000000000000000000000000000000000000000000000000000000000000000000000000000000000000000000000000000000000000000000000000000000000000000000000000000000000000000000000000000000000000000000000000000000000000000000000000000000000000000000000000000000000000000000000000000000000000000000000000000000000000000000000000000000000000000000000000000000000000000000000000000000",
                    "coinbase" : "0x2adc25665018aa1fe0e6bc666dac8fc2697ff9ba",
                    "difficulty" : "0x20000",
                    "extraData" : "0x00",
                    "gasLimit" : "0xb02bfffff",
                    "gasUsed" : "0x9d800015a",
                    "hash" : "0x66e558503c44c1d389f1edd7f55971a800abb5114223e671cd31009fcb108031",
                    "mixHash" : "0x0000000000000000000000000000000000000000000000000000000000000000",
                    "nonce" : "0x0000000000000000",
                    "number" : "0x1",
                    "parentHash" : "0x5e0e21ac439454831ee99d70a9f4fb02d0a592f98d0b4832592904b1fa38b83b",
                    "receiptTrie" : "0x195a3b88838aeb97449444773e9b6b719b7ae381f9c36181487bd4b68aec9983",
                    "stateRoot" : "0x017a833b1f6018d45cd002001de6f4ca1a389e91571e88d8bef49da856b13283",
                    "timestamp" : "0x3e8",
                    "transactionsTrie" : "0x69c170299662f99f1fadf8f188bd75b69ccc53c9183dec37ab9ad905337c94fe",
                    "uncleHash" : "0x1dcc4de8dec75d7aab85b567b6ccd41ad312451b948a7413f0a142fd40d49347"
                },
                "transactions" : [
                    {
                        "data" : "0x0000000000000000000000000f572e5295c57f15886f9b263e2f6d2d6c7b5ec6",
                        "gasLimit" : "0x0a00000000",
                        "gasPrice" : "0x01",
                        "nonce" : "0x00",
                        "to" : "0x1aabbccdd5c57f15886f9b263e2f6d2d6c7b5ec6",
                        "value" : "0x00",
                        "v" : "0x1b",
                        "r" : "0x93fd0893ed2b699f28d2111cc57ee154fc537ab2d1d1c2e4617feb16997949d9",
                        "s" : "0x3e1f5df45b5fa6ce3f3486d5eeef891ab91ad7f98cbaa063059e2b2911710f1b"
                    }
                ]
            }
        ]
    },
    "returndatacopy_following_create_d1g0v0_Istanbul" : {
        "_info" : {
            "comment" : "Check that create2 does not fill returndata buffer with its return opcode.",
            "filling-rpc-server" : "Geth-1.9.6-unstable-63b18027-20190920",
            "filling-tool-version" : "retesteth-0.0.1+commit.0ae18aef.Linux.g++",
            "lllcversion" : "Version: 0.5.12-develop.2019.9.13+commit.2d601a4f.Linux.g++",
            "source" : "src/GeneralStateTestsFiller/stCreate2/returndatacopy_following_createFiller.json",
            "sourceHash" : "d28c561531c4c16ae44f38a3311e8ef3708d8759d76e5ec710f6c7ec3ea20d4d"
        },
        "genesisBlockHeader" : {
            "bloom" : "0x00000000000000000000000000000000000000000000000000000000000000000000000000000000000000000000000000000000000000000000000000000000000000000000000000000000000000000000000000000000000000000000000000000000000000000000000000000000000000000000000000000000000000000000000000000000000000000000000000000000000000000000000000000000000000000000000000000000000000000000000000000000000000000000000000000000000000000000000000000000000000000000000000000000000000000000000000000000000000000000000000000000000000000000000000000000",
            "coinbase" : "0x2adc25665018aa1fe0e6bc666dac8fc2697ff9ba",
            "difficulty" : "0x20000",
            "extraData" : "0x00",
            "gasLimit" : "0xb00000000",
            "gasUsed" : "0x0",
            "hash" : "0x5e0e21ac439454831ee99d70a9f4fb02d0a592f98d0b4832592904b1fa38b83b",
            "mixHash" : "0x0000000000000000000000000000000000000000000000000000000000000000",
            "nonce" : "0x0000000000000000",
            "number" : "0x0",
            "parentHash" : "0x0000000000000000000000000000000000000000000000000000000000000000",
            "receiptTrie" : "0x56e81f171bcc55a6ff8345e692c0f86e5b48e01b996cadc001622fb5e363b421",
            "stateRoot" : "0x722860f979d834086b23cec84b4a9a219604dfae6e4a97f353541f00fa20ca61",
            "timestamp" : "0x0",
            "transactionsTrie" : "0x56e81f171bcc55a6ff8345e692c0f86e5b48e01b996cadc001622fb5e363b421",
            "uncleHash" : "0x1dcc4de8dec75d7aab85b567b6ccd41ad312451b948a7413f0a142fd40d49347"
        },
        "pre" : {
            "0x0f572e5295c57f15886f9b263e2f6d2d6c7b5ec6" : {
                "balance" : "0x00",
                "code" : "0x6000602880601f60003960006000f5506020600060003e60005160005500fe7d111122223333444455556666777788889999aaaabbbbccccddddeeeeffff60005260206000f300",
                "nonce" : "0x00",
                "storage" : {
                    "0x00" : "0x01"
                }
            },
            "0x1aabbccdd5c57f15886f9b263e2f6d2d6c7b5ec6" : {
                "balance" : "0x00",
                "code" : "0x600060006000600060006000355af100",
                "nonce" : "0x00",
                "storage" : {
                }
            },
            "0x1f572e5295c57f15886f9b263e2f6d2d6c7b5ec6" : {
                "balance" : "0x00",
                "code" : "0x6000600280601f60003960006000f5506020600060003e60005160005500fe0000",
                "nonce" : "0x00",
                "storage" : {
                    "0x00" : "0x01"
                }
            },
            "0xa94f5374fce5edbc8e2a8697c15331677e6ebf0b" : {
                "balance" : "0x6400000000",
                "code" : "0x",
                "nonce" : "0x00",
                "storage" : {
                }
            }
        },
        "postState" : {
            "0xa94f5374fce5edbc8e2a8697c15331677e6ebf0b" : {
                "code" : "0x",
                "nonce" : "0x01",
                "balance" : "0x5a27fffea6",
                "storage" : {
                }
            },
            "0x1f572e5295c57f15886f9b263e2f6d2d6c7b5ec6" : {
                "code" : "0x6000600280601f60003960006000f5506020600060003e60005160005500fe0000",
                "nonce" : "0x00",
                "balance" : "0x00",
                "storage" : {
                    "0x00" : "0x01"
                }
            },
            "0x2adc25665018aa1fe0e6bc666dac8fc2697ff9ba" : {
                "code" : "0x",
                "nonce" : "0x00",
                "balance" : "0x1bc16d7126c8015a",
                "storage" : {
                }
            },
            "0x1aabbccdd5c57f15886f9b263e2f6d2d6c7b5ec6" : {
                "code" : "0x600060006000600060006000355af100",
                "nonce" : "0x00",
                "balance" : "0x00",
                "storage" : {
                }
            },
            "0x0f572e5295c57f15886f9b263e2f6d2d6c7b5ec6" : {
                "code" : "0x6000602880601f60003960006000f5506020600060003e60005160005500fe7d111122223333444455556666777788889999aaaabbbbccccddddeeeeffff60005260206000f300",
                "nonce" : "0x00",
                "balance" : "0x00",
                "storage" : {
                    "0x00" : "0x01"
                }
            }
        },
        "network" : "Istanbul",
        "sealEngine" : "NoProof",
        "lastblockhash" : "0x48ba0101d5cd6acabe3f21bf636860b2121727d8a13219001fea2fd1c08f36a2",
        "genesisRLP" : "0xf901faf901f5a00000000000000000000000000000000000000000000000000000000000000000a01dcc4de8dec75d7aab85b567b6ccd41ad312451b948a7413f0a142fd40d49347942adc25665018aa1fe0e6bc666dac8fc2697ff9baa0722860f979d834086b23cec84b4a9a219604dfae6e4a97f353541f00fa20ca61a056e81f171bcc55a6ff8345e692c0f86e5b48e01b996cadc001622fb5e363b421a056e81f171bcc55a6ff8345e692c0f86e5b48e01b996cadc001622fb5e363b421b90100000000000000000000000000000000000000000000000000000000000000000000000000000000000000000000000000000000000000000000000000000000000000000000000000000000000000000000000000000000000000000000000000000000000000000000000000000000000000000000000000000000000000000000000000000000000000000000000000000000000000000000000000000000000000000000000000000000000000000000000000000000000000000000000000000000000000000000000000000000000000000000000000000000000000000000000000000000000000000000000000000000000000000000000000000000008302000080850b00000000808000a00000000000000000000000000000000000000000000000000000000000000000880000000000000000c0c0",
        "blocks" : [
            {
                "rlp" : "0xf90286f901fca05e0e21ac439454831ee99d70a9f4fb02d0a592f98d0b4832592904b1fa38b83ba01dcc4de8dec75d7aab85b567b6ccd41ad312451b948a7413f0a142fd40d49347942adc25665018aa1fe0e6bc666dac8fc2697ff9baa0017a833b1f6018d45cd002001de6f4ca1a389e91571e88d8bef49da856b13283a06c315fb02377b6bb6b56a39efabf8d7af32a167e6de2d078de6955cf767264a8a0195a3b88838aeb97449444773e9b6b719b7ae381f9c36181487bd4b68aec9983b90100000000000000000000000000000000000000000000000000000000000000000000000000000000000000000000000000000000000000000000000000000000000000000000000000000000000000000000000000000000000000000000000000000000000000000000000000000000000000000000000000000000000000000000000000000000000000000000000000000000000000000000000000000000000000000000000000000000000000000000000000000000000000000000000000000000000000000000000000000000000000000000000000000000000000000000000000000000000000000000000000000000000000000000000000000000008302000001850b02bfffff8509d800015a8203e800a00000000000000000000000000000000000000000000000000000000000000000880000000000000000f884f8828001850a00000000941aabbccdd5c57f15886f9b263e2f6d2d6c7b5ec680a00000000000000000000000001f572e5295c57f15886f9b263e2f6d2d6c7b5ec61ca01f42cde01cf0ef6900a7343f855231adfd4c2b462ebbf9ffe4679bd34504540aa00c8c5ea34fc1ca58b3d5c94fe66823ee1943ccacc3345caf6533cbd0ef168361c0",
                "blockHeader" : {
                    "bloom" : "0x00000000000000000000000000000000000000000000000000000000000000000000000000000000000000000000000000000000000000000000000000000000000000000000000000000000000000000000000000000000000000000000000000000000000000000000000000000000000000000000000000000000000000000000000000000000000000000000000000000000000000000000000000000000000000000000000000000000000000000000000000000000000000000000000000000000000000000000000000000000000000000000000000000000000000000000000000000000000000000000000000000000000000000000000000000000",
                    "coinbase" : "0x2adc25665018aa1fe0e6bc666dac8fc2697ff9ba",
                    "difficulty" : "0x20000",
                    "extraData" : "0x00",
                    "gasLimit" : "0xb02bfffff",
                    "gasUsed" : "0x9d800015a",
                    "hash" : "0x48ba0101d5cd6acabe3f21bf636860b2121727d8a13219001fea2fd1c08f36a2",
                    "mixHash" : "0x0000000000000000000000000000000000000000000000000000000000000000",
                    "nonce" : "0x0000000000000000",
                    "number" : "0x1",
                    "parentHash" : "0x5e0e21ac439454831ee99d70a9f4fb02d0a592f98d0b4832592904b1fa38b83b",
                    "receiptTrie" : "0x195a3b88838aeb97449444773e9b6b719b7ae381f9c36181487bd4b68aec9983",
                    "stateRoot" : "0x017a833b1f6018d45cd002001de6f4ca1a389e91571e88d8bef49da856b13283",
                    "timestamp" : "0x3e8",
                    "transactionsTrie" : "0x6c315fb02377b6bb6b56a39efabf8d7af32a167e6de2d078de6955cf767264a8",
                    "uncleHash" : "0x1dcc4de8dec75d7aab85b567b6ccd41ad312451b948a7413f0a142fd40d49347"
                },
                "transactions" : [
                    {
                        "data" : "0x0000000000000000000000001f572e5295c57f15886f9b263e2f6d2d6c7b5ec6",
                        "gasLimit" : "0x0a00000000",
                        "gasPrice" : "0x01",
                        "nonce" : "0x00",
                        "to" : "0x1aabbccdd5c57f15886f9b263e2f6d2d6c7b5ec6",
                        "value" : "0x00",
                        "v" : "0x1c",
                        "r" : "0x1f42cde01cf0ef6900a7343f855231adfd4c2b462ebbf9ffe4679bd34504540a",
                        "s" : "0x0c8c5ea34fc1ca58b3d5c94fe66823ee1943ccacc3345caf6533cbd0ef168361"
                    }
                ]
            }
        ]
    }
}