{
    "returndatacopy_following_revert_in_create_d0g0v0_Istanbul" : {
        "_info" : {
            "comment" : "returndatacopy_following_revert_in_create for CREATE2",
            "filling-rpc-server" : "Geth-1.9.6-unstable-63b18027-20190920",
            "filling-tool-version" : "retesteth-0.0.1+commit.0ae18aef.Linux.g++",
            "lllcversion" : "Version: 0.5.12-develop.2019.9.13+commit.2d601a4f.Linux.g++",
            "source" : "src/GeneralStateTestsFiller/stCreate2/returndatacopy_following_revert_in_createFiller.json",
            "sourceHash" : "966fc8ae072d23ad5b35c9900f4f7a1e519c8c2aaf4595b14fd26e893a85ecb6"
        },
        "genesisBlockHeader" : {
            "bloom" : "0x00000000000000000000000000000000000000000000000000000000000000000000000000000000000000000000000000000000000000000000000000000000000000000000000000000000000000000000000000000000000000000000000000000000000000000000000000000000000000000000000000000000000000000000000000000000000000000000000000000000000000000000000000000000000000000000000000000000000000000000000000000000000000000000000000000000000000000000000000000000000000000000000000000000000000000000000000000000000000000000000000000000000000000000000000000000",
            "coinbase" : "0x2adc25665018aa1fe0e6bc666dac8fc2697ff9ba",
            "difficulty" : "0x20000",
            "extraData" : "0x00",
            "gasLimit" : "0xb00000000",
            "gasUsed" : "0x0",
            "hash" : "0x3275d7b5959b34b107ee83f6c2de290d264448bf80b5aceb6a45a07ad0e89de6",
            "mixHash" : "0x0000000000000000000000000000000000000000000000000000000000000000",
            "nonce" : "0x0000000000000000",
            "number" : "0x0",
            "parentHash" : "0x0000000000000000000000000000000000000000000000000000000000000000",
            "receiptTrie" : "0x56e81f171bcc55a6ff8345e692c0f86e5b48e01b996cadc001622fb5e363b421",
            "stateRoot" : "0x5942a0d47c5c5cc4bc49de05a5477dc6f2e36501894374c6a91136140484bd8d",
            "timestamp" : "0x0",
            "transactionsTrie" : "0x56e81f171bcc55a6ff8345e692c0f86e5b48e01b996cadc001622fb5e363b421",
            "uncleHash" : "0x1dcc4de8dec75d7aab85b567b6ccd41ad312451b948a7413f0a142fd40d49347"
        },
        "pre" : {
            "0x0f572e5295c57f15886f9b263e2f6d2d6c7b5ec6" : {
                "balance" : "0x00",
                "code" : "0x6000602980602060003960006000f5506020600060003e6000516000550000fe7d111122223333444455556666777788889999aaaabbbbccccddddeeeeffff60005260206000fd0000",
                "nonce" : "0x00",
                "storage" : {
                    "0x00" : "0x01"
                }
            },
            "0xa94f5374fce5edbc8e2a8697c15331677e6ebf0b" : {
                "balance" : "0x6400000000",
                "code" : "0x",
                "nonce" : "0x00",
                "storage" : {
                }
            }
        },
        "postState" : {
            "0xa94f5374fce5edbc8e2a8697c15331677e6ebf0b" : {
                "code" : "0x",
                "nonce" : "0x01",
                "balance" : "0x63ffff1d14",
                "storage" : {
                }
            },
            "0x2adc25665018aa1fe0e6bc666dac8fc2697ff9ba" : {
                "code" : "0x",
                "nonce" : "0x00",
                "balance" : "0x1bc16d674ec8e2ec",
                "storage" : {
                }
            },
            "0x0f572e5295c57f15886f9b263e2f6d2d6c7b5ec6" : {
                "code" : "0x6000602980602060003960006000f5506020600060003e6000516000550000fe7d111122223333444455556666777788889999aaaabbbbccccddddeeeeffff60005260206000fd0000",
                "nonce" : "0x01",
                "balance" : "0x00",
                "storage" : {
                    "0x00" : "0x111122223333444455556666777788889999aaaabbbbccccddddeeeeffff"
                }
            }
        },
        "network" : "Istanbul",
        "sealEngine" : "NoProof",
        "lastblockhash" : "0x5fa16a4dbc345c8c5d95408278ff058a568d2ab7bc91ae3db2fa2b1a19debf80",
        "genesisRLP" : "0xf901faf901f5a00000000000000000000000000000000000000000000000000000000000000000a01dcc4de8dec75d7aab85b567b6ccd41ad312451b948a7413f0a142fd40d49347942adc25665018aa1fe0e6bc666dac8fc2697ff9baa05942a0d47c5c5cc4bc49de05a5477dc6f2e36501894374c6a91136140484bd8da056e81f171bcc55a6ff8345e692c0f86e5b48e01b996cadc001622fb5e363b421a056e81f171bcc55a6ff8345e692c0f86e5b48e01b996cadc001622fb5e363b421b90100000000000000000000000000000000000000000000000000000000000000000000000000000000000000000000000000000000000000000000000000000000000000000000000000000000000000000000000000000000000000000000000000000000000000000000000000000000000000000000000000000000000000000000000000000000000000000000000000000000000000000000000000000000000000000000000000000000000000000000000000000000000000000000000000000000000000000000000000000000000000000000000000000000000000000000000000000000000000000000000000000000000000000000000000000000008302000080850b00000000808000a00000000000000000000000000000000000000000000000000000000000000000880000000000000000c0c0",
        "blocks" : [
            {
                "rlp" : "0xf90263f901f9a03275d7b5959b34b107ee83f6c2de290d264448bf80b5aceb6a45a07ad0e89de6a01dcc4de8dec75d7aab85b567b6ccd41ad312451b948a7413f0a142fd40d49347942adc25665018aa1fe0e6bc666dac8fc2697ff9baa0b54c18904f677c078d50854bca82519e83786f3dc6bd77b825cef09a705e561aa0de317ba0085ad3bc6f64da920500c40ceb94789c007f8c54b3e766eae29616aba040bf65408a51416c403f54b7d8914816876ee8911257a27ec508c14790f80fd4b90100000000000000000000000000000000000000000000000000000000000000000000000000000000000000000000000000000000000000000000000000000000000000000000000000000000000000000000000000000000000000000000000000000000000000000000000000000000000000000000000000000000000000000000000000000000000000000000000000000000000000000000000000000000000000000000000000000000000000000000000000000000000000000000000000000000000000000000000000000000000000000000000000000000000000000000000000000000000000000000000000000000000000000000000000000000008302000001850b02bfffff82e2ec8203e800a00000000000000000000000000000000000000000000000000000000000000000880000000000000000f864f8628001850a00000000940f572e5295c57f15886f9b263e2f6d2d6c7b5ec680801ba03b6c2d4d0d9d0abf4d624a6f2930e213789e9c00f679a9afa996fb4bd27cb507a024a40d7f4cf44278ac739ecf9eeba61554646709142d968ed1c555be138a3ea2c0",
                "blockHeader" : {
                    "bloom" : "0x00000000000000000000000000000000000000000000000000000000000000000000000000000000000000000000000000000000000000000000000000000000000000000000000000000000000000000000000000000000000000000000000000000000000000000000000000000000000000000000000000000000000000000000000000000000000000000000000000000000000000000000000000000000000000000000000000000000000000000000000000000000000000000000000000000000000000000000000000000000000000000000000000000000000000000000000000000000000000000000000000000000000000000000000000000000",
                    "coinbase" : "0x2adc25665018aa1fe0e6bc666dac8fc2697ff9ba",
                    "difficulty" : "0x20000",
                    "extraData" : "0x00",
                    "gasLimit" : "0xb02bfffff",
                    "gasUsed" : "0xe2ec",
                    "hash" : "0x5fa16a4dbc345c8c5d95408278ff058a568d2ab7bc91ae3db2fa2b1a19debf80",
                    "mixHash" : "0x0000000000000000000000000000000000000000000000000000000000000000",
                    "nonce" : "0x0000000000000000",
                    "number" : "0x1",
                    "parentHash" : "0x3275d7b5959b34b107ee83f6c2de290d264448bf80b5aceb6a45a07ad0e89de6",
                    "receiptTrie" : "0x40bf65408a51416c403f54b7d8914816876ee8911257a27ec508c14790f80fd4",
                    "stateRoot" : "0xb54c18904f677c078d50854bca82519e83786f3dc6bd77b825cef09a705e561a",
                    "timestamp" : "0x3e8",
                    "transactionsTrie" : "0xde317ba0085ad3bc6f64da920500c40ceb94789c007f8c54b3e766eae29616ab",
                    "uncleHash" : "0x1dcc4de8dec75d7aab85b567b6ccd41ad312451b948a7413f0a142fd40d49347"
                },
                "transactions" : [
                    {
                        "data" : "0x",
                        "gasLimit" : "0x0a00000000",
                        "gasPrice" : "0x01",
                        "nonce" : "0x00",
                        "to" : "0x0f572e5295c57f15886f9b263e2f6d2d6c7b5ec6",
                        "value" : "0x00",
                        "v" : "0x1b",
                        "r" : "0x3b6c2d4d0d9d0abf4d624a6f2930e213789e9c00f679a9afa996fb4bd27cb507",
                        "s" : "0x24a40d7f4cf44278ac739ecf9eeba61554646709142d968ed1c555be138a3ea2"
                    }
                ]
            }
        ]
    }
}