{
    "RevertInCreateInInitCreate2_d0g0v0_Istanbul" : {
        "_info" : {
            "comment" : "RevertInCreateInInit for CREATE2",
            "filling-rpc-server" : "Geth-1.9.6-unstable-63b18027-20190920",
            "filling-tool-version" : "retesteth-0.0.1+commit.0ae18aef.Linux.g++",
            "lllcversion" : "Version: 0.5.12-develop.2019.9.13+commit.2d601a4f.Linux.g++",
            "source" : "src/GeneralStateTestsFiller/stCreate2/RevertInCreateInInitCreate2Filler.json",
            "sourceHash" : "7447f9c48eaafe0753c90a7aff7ba486f6b958a1dfe4dec31b6d0201e47d8d7a"
        },
        "genesisBlockHeader" : {
            "bloom" : "0x00000000000000000000000000000000000000000000000000000000000000000000000000000000000000000000000000000000000000000000000000000000000000000000000000000000000000000000000000000000000000000000000000000000000000000000000000000000000000000000000000000000000000000000000000000000000000000000000000000000000000000000000000000000000000000000000000000000000000000000000000000000000000000000000000000000000000000000000000000000000000000000000000000000000000000000000000000000000000000000000000000000000000000000000000000000",
            "coinbase" : "0x2adc25665018aa1fe0e6bc666dac8fc2697ff9ba",
            "difficulty" : "0x20000",
            "extraData" : "0x00",
            "gasLimit" : "0xb00000000",
            "gasUsed" : "0x0",
            "hash" : "0x21d6b2f33290d2e11ea0a69f383310d6c390310760aae98860f36b21df8342c8",
            "mixHash" : "0x0000000000000000000000000000000000000000000000000000000000000000",
            "nonce" : "0x0000000000000000",
            "number" : "0x0",
            "parentHash" : "0x0000000000000000000000000000000000000000000000000000000000000000",
            "receiptTrie" : "0x56e81f171bcc55a6ff8345e692c0f86e5b48e01b996cadc001622fb5e363b421",
            "stateRoot" : "0xbb66f5a3f61c86eba37c5ea6c3464988e4a07b794414d7791770c44c065cfae9",
            "timestamp" : "0x0",
            "transactionsTrie" : "0x56e81f171bcc55a6ff8345e692c0f86e5b48e01b996cadc001622fb5e363b421",
            "uncleHash" : "0x1dcc4de8dec75d7aab85b567b6ccd41ad312451b948a7413f0a142fd40d49347"
        },
        "pre" : {
            "0x6295ee1b4f6dd65047762f924ecd367c17eabf8f" : {
                "balance" : "0x00",
                "code" : "0x",
                "nonce" : "0x00",
                "storage" : {
                    "0x00" : "0x01"
                }
            },
            "0xa94f5374fce5edbc8e2a8697c15331677e6ebf0b" : {
                "balance" : "0x6400000000",
                "code" : "0x",
                "nonce" : "0x00",
                "storage" : {
                }
            }
        },
        "postState" : {
            "0xa94f5374fce5edbc8e2a8697c15331677e6ebf0b" : {
                "code" : "0x",
                "nonce" : "0x01",
                "balance" : "0x63fffe1186",
                "storage" : {
                }
            },
            "0x2adc25665018aa1fe0e6bc666dac8fc2697ff9ba" : {
                "code" : "0x",
                "nonce" : "0x00",
                "balance" : "0x1bc16d674ec9ee7a",
                "storage" : {
                }
            },
            "0x6295ee1b4f6dd65047762f924ecd367c17eabf8f" : {
                "code" : "0x",
                "nonce" : "0x02",
                "balance" : "0x00",
                "storage" : {
                    "0x00" : "0x20",
                    "0x01" : "0x112233"
                }
            }
        },
        "network" : "Istanbul",
        "sealEngine" : "NoProof",
        "lastblockhash" : "0x363dbc12f63993c5bffcc256b2cfc7494e6070268779e8c61b2b526d8d37fc16",
        "genesisRLP" : "0xf901faf901f5a00000000000000000000000000000000000000000000000000000000000000000a01dcc4de8dec75d7aab85b567b6ccd41ad312451b948a7413f0a142fd40d49347942adc25665018aa1fe0e6bc666dac8fc2697ff9baa0bb66f5a3f61c86eba37c5ea6c3464988e4a07b794414d7791770c44c065cfae9a056e81f171bcc55a6ff8345e692c0f86e5b48e01b996cadc001622fb5e363b421a056e81f171bcc55a6ff8345e692c0f86e5b48e01b996cadc001622fb5e363b421b90100000000000000000000000000000000000000000000000000000000000000000000000000000000000000000000000000000000000000000000000000000000000000000000000000000000000000000000000000000000000000000000000000000000000000000000000000000000000000000000000000000000000000000000000000000000000000000000000000000000000000000000000000000000000000000000000000000000000000000000000000000000000000000000000000000000000000000000000000000000000000000000000000000000000000000000000000000000000000000000000000000000000000000000000000000000008302000080850b00000000808000a00000000000000000000000000000000000000000000000000000000000000000880000000000000000c0c0",
        "blocks" : [
            {
                "rlp" : "0xf90286f901faa021d6b2f33290d2e11ea0a69f383310d6c390310760aae98860f36b21df8342c8a01dcc4de8dec75d7aab85b567b6ccd41ad312451b948a7413f0a142fd40d49347942adc25665018aa1fe0e6bc666dac8fc2697ff9baa011119af72c3ac93e91d59d00bf70a2b226191284b2e5463d02ff30454abb9f0ba014a5345dbac7bfc8d7f66d074077eabb649045a2101ac05928141ea25bfb12bca0558aa642e7ad78d133233f6f27fcde0edc84b870dab85f0f3760e257283da70eb90100000000000000000000000000000000000000000000000000000000000000000000000000000000000000000000000000000000000000000000000000000000000000000000000000000000000000000000000000000000000000000000000000000000000000000000000000000000000000000000000000000000000000000000000000000000000000000000000000000000000000000000000000000000000000000000000000000000000000000000000000000000000000000000000000000000000000000000000000000000000000000000000000000000000000000000000000000000000000000000000000000000000000000000000000000000008302000001850b02bfffff8301ee7a8203e800a00000000000000000000000000000000000000000000000000000000000000000880000000000000000f886f8848001850a000000008080b630506000600e80602860003960006000f56002553d6000556020600060003e6000516001550000fe6211223360005260206000fd00001ba07e97a02c6ad487343c76e57d687201b90b4df9461e893a65b4ea76234fc01a56a05b685a85944b67ec025350de89f91fa739893753f28cda4ad73fc8fa9cb31e6cc0",
                "blockHeader" : {
                    "bloom" : "0x00000000000000000000000000000000000000000000000000000000000000000000000000000000000000000000000000000000000000000000000000000000000000000000000000000000000000000000000000000000000000000000000000000000000000000000000000000000000000000000000000000000000000000000000000000000000000000000000000000000000000000000000000000000000000000000000000000000000000000000000000000000000000000000000000000000000000000000000000000000000000000000000000000000000000000000000000000000000000000000000000000000000000000000000000000000",
                    "coinbase" : "0x2adc25665018aa1fe0e6bc666dac8fc2697ff9ba",
                    "difficulty" : "0x20000",
                    "extraData" : "0x00",
                    "gasLimit" : "0xb02bfffff",
                    "gasUsed" : "0x1ee7a",
                    "hash" : "0x363dbc12f63993c5bffcc256b2cfc7494e6070268779e8c61b2b526d8d37fc16",
                    "mixHash" : "0x0000000000000000000000000000000000000000000000000000000000000000",
                    "nonce" : "0x0000000000000000",
                    "number" : "0x1",
                    "parentHash" : "0x21d6b2f33290d2e11ea0a69f383310d6c390310760aae98860f36b21df8342c8",
                    "receiptTrie" : "0x558aa642e7ad78d133233f6f27fcde0edc84b870dab85f0f3760e257283da70e",
                    "stateRoot" : "0x11119af72c3ac93e91d59d00bf70a2b226191284b2e5463d02ff30454abb9f0b",
                    "timestamp" : "0x3e8",
                    "transactionsTrie" : "0x14a5345dbac7bfc8d7f66d074077eabb649045a2101ac05928141ea25bfb12bc",
                    "uncleHash" : "0x1dcc4de8dec75d7aab85b567b6ccd41ad312451b948a7413f0a142fd40d49347"
                },
                "transactions" : [
                    {
                        "data" : "0x30506000600e80602860003960006000f56002553d6000556020600060003e6000516001550000fe6211223360005260206000fd0000",
                        "gasLimit" : "0x0a00000000",
                        "gasPrice" : "0x01",
                        "nonce" : "0x00",
                        "to" : "",
                        "value" : "0x00",
                        "v" : "0x1b",
                        "r" : "0x7e97a02c6ad487343c76e57d687201b90b4df9461e893a65b4ea76234fc01a56",
                        "s" : "0x5b685a85944b67ec025350de89f91fa739893753f28cda4ad73fc8fa9cb31e6c"
                    }
                ]
            }
        ]
    }
}