{
    "contractCreationOOGdontLeaveEmptyContract_d0g0v0_Istanbul" : {
        "_info" : {
            "comment" : "",
            "filling-rpc-server" : "Geth-1.9.6-unstable-63b18027-20190920",
            "filling-tool-version" : "retesteth-0.0.1+commit.0ae18aef.Linux.g++",
            "lllcversion" : "Version: 0.5.12-develop.2019.9.13+commit.2d601a4f.Linux.g++",
            "source" : "src/GeneralStateTestsFiller/stHomesteadSpecific/contractCreationOOGdontLeaveEmptyContractFiller.json",
            "sourceHash" : "38d002a36b466da9025fedb76efd97955cd4829bb4b280925e1632b64215e0b7"
        },
        "genesisBlockHeader" : {
            "bloom" : "0x00000000000000000000000000000000000000000000000000000000000000000000000000000000000000000000000000000000000000000000000000000000000000000000000000000000000000000000000000000000000000000000000000000000000000000000000000000000000000000000000000000000000000000000000000000000000000000000000000000000000000000000000000000000000000000000000000000000000000000000000000000000000000000000000000000000000000000000000000000000000000000000000000000000000000000000000000000000000000000000000000000000000000000000000000000000",
            "coinbase" : "0x2adc25665018aa1fe0e6bc666dac8fc2697ff9ba",
            "difficulty" : "0x20000",
            "extraData" : "0x00",
            "gasLimit" : "0xf4240",
            "gasUsed" : "0x0",
            "hash" : "0x3e839a63ce3e405592fa0a7c0593896912a308ee56b925aad35a6161a0e3a060",
            "mixHash" : "0x0000000000000000000000000000000000000000000000000000000000000000",
            "nonce" : "0x0000000000000000",
            "number" : "0x0",
            "parentHash" : "0x0000000000000000000000000000000000000000000000000000000000000000",
            "receiptTrie" : "0x56e81f171bcc55a6ff8345e692c0f86e5b48e01b996cadc001622fb5e363b421",
            "stateRoot" : "0xe4a34804a1f8e64547d6c8c13b75a67697c2086eb7f26859b1473c2d950670fb",
            "timestamp" : "0x0",
            "transactionsTrie" : "0x56e81f171bcc55a6ff8345e692c0f86e5b48e01b996cadc001622fb5e363b421",
            "uncleHash" : "0x1dcc4de8dec75d7aab85b567b6ccd41ad312451b948a7413f0a142fd40d49347"
        },
        "pre" : {
            "0x1000000000000000000000000000000000000001" : {
                "balance" : "0x00",
                "code" : "0x60106001557f6001600155601080600c6000396000f3006000355415600957005b6020356000600052602060006000f000",
                "nonce" : "0x00",
                "storage" : {
                }
            },
            "0xa94f5374fce5edbc8e2a8697c15331677e6ebf0b" : {
                "balance" : "0x0186a0",
                "code" : "0x",
                "nonce" : "0x00",
                "storage" : {
                }
            }
        },
        "postState" : {
            "0xa94f5374fce5edbc8e2a8697c15331677e6ebf0b" : {
                "code" : "0x",
                "nonce" : "0x01",
                "balance" : "0x1c58",
                "storage" : {
                }
            },
            "0x1000000000000000000000000000000000000001" : {
                "code" : "0x60106001557f6001600155601080600c6000396000f3006000355415600957005b6020356000600052602060006000f000",
                "nonce" : "0x01",
                "balance" : "0x00",
                "storage" : {
                    "0x01" : "0x10"
                }
            },
            "0x2adc25665018aa1fe0e6bc666dac8fc2697ff9ba" : {
                "code" : "0x",
                "nonce" : "0x00",
                "balance" : "0x1bc16d674ec96a48",
                "storage" : {
                }
            }
        },
        "network" : "Istanbul",
        "sealEngine" : "NoProof",
        "lastblockhash" : "0xc583bfa33a4d115b44227ffa5d8e2b1112d86c1eb15d8c8205dff982a3d592ab",
        "genesisRLP" : "0xf901f8f901f3a00000000000000000000000000000000000000000000000000000000000000000a01dcc4de8dec75d7aab85b567b6ccd41ad312451b948a7413f0a142fd40d49347942adc25665018aa1fe0e6bc666dac8fc2697ff9baa0e4a34804a1f8e64547d6c8c13b75a67697c2086eb7f26859b1473c2d950670fba056e81f171bcc55a6ff8345e692c0f86e5b48e01b996cadc001622fb5e363b421a056e81f171bcc55a6ff8345e692c0f86e5b48e01b996cadc001622fb5e363b421b90100000000000000000000000000000000000000000000000000000000000000000000000000000000000000000000000000000000000000000000000000000000000000000000000000000000000000000000000000000000000000000000000000000000000000000000000000000000000000000000000000000000000000000000000000000000000000000000000000000000000000000000000000000000000000000000000000000000000000000000000000000000000000000000000000000000000000000000000000000000000000000000000000000000000000000000000000000000000000000000000000000000000000000000000000000000008302000080830f4240808000a00000000000000000000000000000000000000000000000000000000000000000880000000000000000c0c0",
        "blocks" : [
            {
                "rlp" : "0xf90260f901f8a03e839a63ce3e405592fa0a7c0593896912a308ee56b925aad35a6161a0e3a060a01dcc4de8dec75d7aab85b567b6ccd41ad312451b948a7413f0a142fd40d49347942adc25665018aa1fe0e6bc666dac8fc2697ff9baa0d87a21a1131af4bb191dca0651103d1c3eb9dea2d6582d9397950038b8cac228a05886f6d8c18d2ab5f33bb64a328d6eb09255443e2775248b610adabff31e790aa03668343422de198ffb815b81ab0f6d39d132bc7068af5fee12b292adc49098cdb90100000000000000000000000000000000000000000000000000000000000000000000000000000000000000000000000000000000000000000000000000000000000000000000000000000000000000000000000000000000000000000000000000000000000000000000000000000000000000000000000000000000000000000000000000000000000000000000000000000000000000000000000000000000000000000000000000000000000000000000000000000000000000000000000000000000000000000000000000000000000000000000000000000000000000000000000000000000000000000000000000000000000000000000000000000000008302000001830f460f83016a488203e800a00000000000000000000000000000000000000000000000000000000000000000880000000000000000f862f860800183016b8094100000000000000000000000000000000000000180801ca048fcbe6740dbb3ae8557dd1370ebd60e8fad8925522eeb2689984ef8241ae4d8a008f0cf92d81454dab493ab6b0cb3b69aec915cf8ab06bdeac36f617094f9c8d3c0",
                "blockHeader" : {
                    "bloom" : "0x00000000000000000000000000000000000000000000000000000000000000000000000000000000000000000000000000000000000000000000000000000000000000000000000000000000000000000000000000000000000000000000000000000000000000000000000000000000000000000000000000000000000000000000000000000000000000000000000000000000000000000000000000000000000000000000000000000000000000000000000000000000000000000000000000000000000000000000000000000000000000000000000000000000000000000000000000000000000000000000000000000000000000000000000000000000",
                    "coinbase" : "0x2adc25665018aa1fe0e6bc666dac8fc2697ff9ba",
                    "difficulty" : "0x20000",
                    "extraData" : "0x00",
                    "gasLimit" : "0xf460f",
                    "gasUsed" : "0x16a48",
                    "hash" : "0xc583bfa33a4d115b44227ffa5d8e2b1112d86c1eb15d8c8205dff982a3d592ab",
                    "mixHash" : "0x0000000000000000000000000000000000000000000000000000000000000000",
                    "nonce" : "0x0000000000000000",
                    "number" : "0x1",
                    "parentHash" : "0x3e839a63ce3e405592fa0a7c0593896912a308ee56b925aad35a6161a0e3a060",
                    "receiptTrie" : "0x3668343422de198ffb815b81ab0f6d39d132bc7068af5fee12b292adc49098cd",
                    "stateRoot" : "0xd87a21a1131af4bb191dca0651103d1c3eb9dea2d6582d9397950038b8cac228",
                    "timestamp" : "0x3e8",
                    "transactionsTrie" : "0x5886f6d8c18d2ab5f33bb64a328d6eb09255443e2775248b610adabff31e790a",
                    "uncleHash" : "0x1dcc4de8dec75d7aab85b567b6ccd41ad312451b948a7413f0a142fd40d49347"
                },
                "transactions" : [
                    {
                        "data" : "0x",
                        "gasLimit" : "0x016b80",
                        "gasPrice" : "0x01",
                        "nonce" : "0x00",
                        "to" : "0x1000000000000000000000000000000000000001",
                        "value" : "0x00",
                        "v" : "0x1c",
                        "r" : "0x48fcbe6740dbb3ae8557dd1370ebd60e8fad8925522eeb2689984ef8241ae4d8",
                        "s" : "0x08f0cf92d81454dab493ab6b0cb3b69aec915cf8ab06bdeac36f617094f9c8d3"
                    }
                ]
            }
        ]
    }
}