{
    "contractCreationOOGdontLeaveEmptyContractViaTransaction_d0g0v0_Istanbul" : {
        "_info" : {
            "comment" : "",
            "filling-rpc-server" : "Geth-1.9.6-unstable-63b18027-20190920",
            "filling-tool-version" : "retesteth-0.0.1+commit.0ae18aef.Linux.g++",
            "lllcversion" : "Version: 0.5.12-develop.2019.9.13+commit.2d601a4f.Linux.g++",
            "source" : "src/GeneralStateTestsFiller/stHomesteadSpecific/contractCreationOOGdontLeaveEmptyContractViaTransactionFiller.json",
            "sourceHash" : "255dc384d6c352ac485c8749a395c63d75908ec04a621cc0710ac7969a81ae53"
        },
        "genesisBlockHeader" : {
            "bloom" : "0x00000000000000000000000000000000000000000000000000000000000000000000000000000000000000000000000000000000000000000000000000000000000000000000000000000000000000000000000000000000000000000000000000000000000000000000000000000000000000000000000000000000000000000000000000000000000000000000000000000000000000000000000000000000000000000000000000000000000000000000000000000000000000000000000000000000000000000000000000000000000000000000000000000000000000000000000000000000000000000000000000000000000000000000000000000000",
            "coinbase" : "0x2adc25665018aa1fe0e6bc666dac8fc2697ff9ba",
            "difficulty" : "0x20000",
            "extraData" : "0x00",
            "gasLimit" : "0xf4240",
            "gasUsed" : "0x0",
            "hash" : "0x591698e3e26d7db0224f0752e71cb670ea5374d81a02059ca75fe195dd7b25f9",
            "mixHash" : "0x0000000000000000000000000000000000000000000000000000000000000000",
            "nonce" : "0x0000000000000000",
            "number" : "0x0",
            "parentHash" : "0x0000000000000000000000000000000000000000000000000000000000000000",
            "receiptTrie" : "0x56e81f171bcc55a6ff8345e692c0f86e5b48e01b996cadc001622fb5e363b421",
            "stateRoot" : "0xcaf28f4c1223008d35093e65a88eaf009822d6ea4b4b4090f2f1b28f37ce6738",
            "timestamp" : "0x0",
            "transactionsTrie" : "0x56e81f171bcc55a6ff8345e692c0f86e5b48e01b996cadc001622fb5e363b421",
            "uncleHash" : "0x1dcc4de8dec75d7aab85b567b6ccd41ad312451b948a7413f0a142fd40d49347"
        },
        "pre" : {
            "0x1000000000000000000000000000000000000001" : {
                "balance" : "0x00",
                "code" : "0x600160015500",
                "nonce" : "0x00",
                "storage" : {
                }
            },
            "0xa94f5374fce5edbc8e2a8697c15331677e6ebf0b" : {
                "balance" : "0x10c8e0",
                "code" : "0x",
                "nonce" : "0x00",
                "storage" : {
                }
            },
            "0xb94f5374fce5edbc8e2a8697c15331677e6ebf0b" : {
                "balance" : "0x0186a0",
                "code" : "0x6040600060406000600073100000000000000000000000000000000000000161c350f100",
                "nonce" : "0x00",
                "storage" : {
                }
            }
        },
        "postState" : {
            "0xa94f5374fce5edbc8e2a8697c15331677e6ebf0b" : {
                "code" : "0x",
                "nonce" : "0x01",
                "balance" : "0x0fa7a7",
                "storage" : {
                }
            },
            "0x1000000000000000000000000000000000000001" : {
                "code" : "0x600160015500",
                "nonce" : "0x00",
                "balance" : "0x00",
                "storage" : {
                    "0x01" : "0x01"
                }
            },
            "0x2adc25665018aa1fe0e6bc666dac8fc2697ff9ba" : {
                "code" : "0x",
                "nonce" : "0x00",
                "balance" : "0x1bc16d674ec92139",
                "storage" : {
                }
            },
            "0xb94f5374fce5edbc8e2a8697c15331677e6ebf0b" : {
                "code" : "0x6040600060406000600073100000000000000000000000000000000000000161c350f100",
                "nonce" : "0x00",
                "balance" : "0x0186a0",
                "storage" : {
                }
            },
            "0x6295ee1b4f6dd65047762f924ecd367c17eabf8f" : {
                "code" : "0x",
                "nonce" : "0x01",
                "balance" : "0x00",
                "storage" : {
                }
            }
        },
        "network" : "Istanbul",
        "sealEngine" : "NoProof",
        "lastblockhash" : "0x0aee3bc2b73906949a59bcd4ff5d90220c5d7cbca283ff0e1fc2401610eabf17",
        "genesisRLP" : "0xf901f8f901f3a00000000000000000000000000000000000000000000000000000000000000000a01dcc4de8dec75d7aab85b567b6ccd41ad312451b948a7413f0a142fd40d49347942adc25665018aa1fe0e6bc666dac8fc2697ff9baa0caf28f4c1223008d35093e65a88eaf009822d6ea4b4b4090f2f1b28f37ce6738a056e81f171bcc55a6ff8345e692c0f86e5b48e01b996cadc001622fb5e363b421a056e81f171bcc55a6ff8345e692c0f86e5b48e01b996cadc001622fb5e363b421b90100000000000000000000000000000000000000000000000000000000000000000000000000000000000000000000000000000000000000000000000000000000000000000000000000000000000000000000000000000000000000000000000000000000000000000000000000000000000000000000000000000000000000000000000000000000000000000000000000000000000000000000000000000000000000000000000000000000000000000000000000000000000000000000000000000000000000000000000000000000000000000000000000000000000000000000000000000000000000000000000000000000000000000000000000000000008302000080830f4240808000a00000000000000000000000000000000000000000000000000000000000000000880000000000000000c0c0",
        "blocks" : [
            {
                "rlp" : "0xf9026ff901f8a0591698e3e26d7db0224f0752e71cb670ea5374d81a02059ca75fe195dd7b25f9a01dcc4de8dec75d7aab85b567b6ccd41ad312451b948a7413f0a142fd40d49347942adc25665018aa1fe0e6bc666dac8fc2697ff9baa01337ba4534d51d845a2661ab1e71d73f06a48e296da3a64926c46c33b9a4d8e7a0fadf0d215532cd6486a8ddfac719ca2eabd2547f7cda9f32185c1177c7f23d75a02e8991d0653f3e409d57e9f48b17ef10cd798b22133aff702307256059263eb9b90100000000000000000000000000000000000000000000000000000000000000000000000000000000000000000000000000000000000000000000000000000000000000000000000000000000000000000000000000000000000000000000000000000000000000000000000000000000000000000000000000000000000000000000000000000000000000000000000000000000000000000000000000000000000000000000000000000000000000000000000000000000000000000000000000000000000000000000000000000000000000000000000000000000000000000000000000000000000000000000000000000000000000000000000000000000008302000001830f460f830121398203e800a00000000000000000000000000000000000000000000000000000000000000000880000000000000000f871f86f8001830177008080a36040600060406000600073100000000000000000000000000000000000000161c350f11ba0853740cbaebf3b696c992d835f16e8159e521ad8b04ec513949cfba45c6b9e9ea035ac6d22ac62556b698ae2c76c368a2913b380732ba26254dc785e22926476a0c0",
                "blockHeader" : {
                    "bloom" : "0x00000000000000000000000000000000000000000000000000000000000000000000000000000000000000000000000000000000000000000000000000000000000000000000000000000000000000000000000000000000000000000000000000000000000000000000000000000000000000000000000000000000000000000000000000000000000000000000000000000000000000000000000000000000000000000000000000000000000000000000000000000000000000000000000000000000000000000000000000000000000000000000000000000000000000000000000000000000000000000000000000000000000000000000000000000000",
                    "coinbase" : "0x2adc25665018aa1fe0e6bc666dac8fc2697ff9ba",
                    "difficulty" : "0x20000",
                    "extraData" : "0x00",
                    "gasLimit" : "0xf460f",
                    "gasUsed" : "0x12139",
                    "hash" : "0x0aee3bc2b73906949a59bcd4ff5d90220c5d7cbca283ff0e1fc2401610eabf17",
                    "mixHash" : "0x0000000000000000000000000000000000000000000000000000000000000000",
                    "nonce" : "0x0000000000000000",
                    "number" : "0x1",
                    "parentHash" : "0x591698e3e26d7db0224f0752e71cb670ea5374d81a02059ca75fe195dd7b25f9",
                    "receiptTrie" : "0x2e8991d0653f3e409d57e9f48b17ef10cd798b22133aff702307256059263eb9",
                    "stateRoot" : "0x1337ba4534d51d845a2661ab1e71d73f06a48e296da3a64926c46c33b9a4d8e7",
                    "timestamp" : "0x3e8",
                    "transactionsTrie" : "0xfadf0d215532cd6486a8ddfac719ca2eabd2547f7cda9f32185c1177c7f23d75",
                    "uncleHash" : "0x1dcc4de8dec75d7aab85b567b6ccd41ad312451b948a7413f0a142fd40d49347"
                },
                "transactions" : [
                    {
                        "data" : "0x6040600060406000600073100000000000000000000000000000000000000161c350f1",
                        "gasLimit" : "0x017700",
                        "gasPrice" : "0x01",
                        "nonce" : "0x00",
                        "to" : "",
                        "value" : "0x00",
                        "v" : "0x1b",
                        "r" : "0x853740cbaebf3b696c992d835f16e8159e521ad8b04ec513949cfba45c6b9e9e",
                        "s" : "0x35ac6d22ac62556b698ae2c76c368a2913b380732ba26254dc785e22926476a0"
                    }
                ]
            }
        ]
    }
}