{
    "blockChainFrontierWithLargerTDvsHomesteadBlockchain_FrontierToHomesteadAt5" : {
        "_info" : {
            "comment" : "",
            "filling-rpc-server" : "Geth-1.9.11-unstable-a382d783-20200127",
            "filling-tool-version" : "retesteth-0.0.2+commit.ce1fdd3d.Linux.g++",
            "lllcversion" : "Version: 0.5.14-develop.2019.11.27+commit.8f259595.Linux.g++",
            "source" : "src/BlockchainTestsFiller/TransitionTests/bcFrontierToHomestead/blockChainFrontierWithLargerTDvsHomesteadBlockchainFiller.json",
            "sourceHash" : "d631fa562e8393317d77a95327847f6169f689f5d3e483566224c8eec3c23ee4"
        },
        "sealEngine" : "NoProof",
        "network" : "FrontierToHomesteadAt5",
        "pre" : {
            "0xa94f5374fce5edbc8e2a8697c15331677e6ebf0b" : {
                "balance" : "0x02540be400",
                "code" : "0x",
                "nonce" : "0x00",
                "storage" : {
                }
            }
        },
        "genesisBlockHeader" : {
            "bloom" : "0x00000000000000000000000000000000000000000000000000000000000000000000000000000000000000000000000000000000000000000000000000000000000000000000000000000000000000000000000000000000000000000000000000000000000000000000000000000000000000000000000000000000000000000000000000000000000000000000000000000000000000000000000000000000000000000000000000000000000000000000000000000000000000000000000000000000000000000000000000000000000000000000000000000000000000000000000000000000000000000000000000000000000000000000000000000000",
            "coinbase" : "0x8888f1f195afa192cfee860698584c030f4c9db1",
            "difficulty" : "0x020000",
            "extraData" : "0x42",
            "gasLimit" : "0x2fefd8",
            "gasUsed" : "0x00",
            "hash" : "0x68a61c4a05db4913009de5666753258eb9306157680dc5da0d93656550c9257e",
            "mixHash" : "0x0000000000000000000000000000000000000000000000000000000000000000",
            "nonce" : "0x0000000000000000",
            "number" : "0x00",
            "parentHash" : "0x0000000000000000000000000000000000000000000000000000000000000000",
            "receiptTrie" : "0x56e81f171bcc55a6ff8345e692c0f86e5b48e01b996cadc001622fb5e363b421",
            "stateRoot" : "0xcafd881ab193703b83816c49ff6c2bf6ba6f464a1be560c42106128c8dbc35e7",
            "timestamp" : "0x54c98c81",
            "transactionsTrie" : "0x56e81f171bcc55a6ff8345e692c0f86e5b48e01b996cadc001622fb5e363b421",
            "uncleHash" : "0x1dcc4de8dec75d7aab85b567b6ccd41ad312451b948a7413f0a142fd40d49347"
        },
        "genesisRLP" : "0xf901fcf901f7a00000000000000000000000000000000000000000000000000000000000000000a01dcc4de8dec75d7aab85b567b6ccd41ad312451b948a7413f0a142fd40d49347948888f1f195afa192cfee860698584c030f4c9db1a0cafd881ab193703b83816c49ff6c2bf6ba6f464a1be560c42106128c8dbc35e7a056e81f171bcc55a6ff8345e692c0f86e5b48e01b996cadc001622fb5e363b421a056e81f171bcc55a6ff8345e692c0f86e5b48e01b996cadc001622fb5e363b421b90100000000000000000000000000000000000000000000000000000000000000000000000000000000000000000000000000000000000000000000000000000000000000000000000000000000000000000000000000000000000000000000000000000000000000000000000000000000000000000000000000000000000000000000000000000000000000000000000000000000000000000000000000000000000000000000000000000000000000000000000000000000000000000000000000000000000000000000000000000000000000000000000000000000000000000000000000000000000000000000000000000000000000000000000000000000008302000080832fefd8808454c98c8142a00000000000000000000000000000000000000000000000000000000000000000880000000000000000c0c0",
        "blocks" : [
            {
                "chainname" : "A",
                "blocknumber" : "1",
                "uncleHeaders" : [
                ],
                "blockHeader" : {
                    "bloom" : "0x00000000000000000000000000000000000000000000000000000000000000000000000000000000000000000000000000000000000000000000000000000000000000000000000000000000000000000000000000000000000000000000000000000000000000000000000000000000000000000000000000000000000000000000000000000000000000000000000000000000000000000000000000000000000000000000000000000000000000000000000000000000000000000000000000000000000000000000000000000000000000000000000000000000000000000000000000000000000000000000000000000000000000000000000000000000",
                    "coinbase" : "0x8888f1f195afa192cfee860698584c030f4c9db1",
                    "difficulty" : "0x020000",
                    "extraData" : "0x01",
                    "gasLimit" : "0x2ffbd2",
                    "gasUsed" : "0x5208",
                    "hash" : "0x3fd661322abcf47fb936b965fa96520b6359b637a5326882d163f83c4b9a6a6c",
                    "mixHash" : "0x0000000000000000000000000000000000000000000000000000000000000000",
                    "nonce" : "0x0000000000000000",
                    "number" : "0x01",
                    "parentHash" : "0x68a61c4a05db4913009de5666753258eb9306157680dc5da0d93656550c9257e",
                    "receiptTrie" : "0x33cd44b2139aac546ef61d35a34d414dbeb17fd06d0521890dafa5af8b5b99e3",
                    "stateRoot" : "0x8fca94adef834d4b525ca53df6625a3e5375d779e48421c59ab105eeb8f6acdc",
                    "timestamp" : "0x54c99069",
                    "transactionsTrie" : "0xac81275d7a81a720240146377982939179218535bfcfa9469c8bdd3e264ef179",
                    "uncleHash" : "0x1dcc4de8dec75d7aab85b567b6ccd41ad312451b948a7413f0a142fd40d49347"
                },
                "transactions" : [
                    {
                        "data" : "0x",
                        "gasLimit" : "0x7530",
                        "gasPrice" : "0x01",
                        "nonce" : "0x00",
                        "r" : "0x57cb46c0b702929c4fd4127b2370f28a7aeeaa65509699e58eedf7692090a0a9",
                        "s" : "0x5ba7c83d99be6a9bca0c81947023ba3b5f2162516d82d0757bf8004f3e9bc03a",
                        "to" : "",
                        "v" : "0x1c",
                        "value" : "0x0a"
                    }
                ],
                "rlp" : "0xf9024cf901f9a068a61c4a05db4913009de5666753258eb9306157680dc5da0d93656550c9257ea01dcc4de8dec75d7aab85b567b6ccd41ad312451b948a7413f0a142fd40d49347948888f1f195afa192cfee860698584c030f4c9db1a08fca94adef834d4b525ca53df6625a3e5375d779e48421c59ab105eeb8f6acdca0ac81275d7a81a720240146377982939179218535bfcfa9469c8bdd3e264ef179a033cd44b2139aac546ef61d35a34d414dbeb17fd06d0521890dafa5af8b5b99e3b90100000000000000000000000000000000000000000000000000000000000000000000000000000000000000000000000000000000000000000000000000000000000000000000000000000000000000000000000000000000000000000000000000000000000000000000000000000000000000000000000000000000000000000000000000000000000000000000000000000000000000000000000000000000000000000000000000000000000000000000000000000000000000000000000000000000000000000000000000000000000000000000000000000000000000000000000000000000000000000000000000000000000000000000000000000000008302000001832ffbd28252088454c9906901a00000000000000000000000000000000000000000000000000000000000000000880000000000000000f84df84b8001827530800a801ca057cb46c0b702929c4fd4127b2370f28a7aeeaa65509699e58eedf7692090a0a9a05ba7c83d99be6a9bca0c81947023ba3b5f2162516d82d0757bf8004f3e9bc03ac0"
            },
            {
                "chainname" : "A",
                "blocknumber" : "2",
                "uncleHeaders" : [
                ],
                "blockHeader" : {
                    "bloom" : "0x00000000000000000000000000000000000000000000000000000000000000000000000000000000000000000000000000000000000000000000000000000000000000000000000000000000000000000000000000000000000000000000000000000000000000000000000000000000000000000000000000000000000000000000000000000000000000000000000000000000000000000000000000000000000000000000000000000000000000000000000000000000000000000000000000000000000000000000000000000000000000000000000000000000000000000000000000000000000000000000000000000000000000000000000000000000",
                    "coinbase" : "0x8888f1f195afa192cfee860698584c030f4c9db1",
                    "difficulty" : "0x020000",
                    "extraData" : "0x42",
                    "gasLimit" : "0x3007cf",
                    "gasUsed" : "0x5208",
                    "hash" : "0xc1c7217fb00adeb5d254754c40d7bf44bfe1b76a561f61d20040a239d1edeb97",
                    "mixHash" : "0x0000000000000000000000000000000000000000000000000000000000000000",
                    "nonce" : "0x0000000000000000",
                    "number" : "0x02",
                    "parentHash" : "0x3fd661322abcf47fb936b965fa96520b6359b637a5326882d163f83c4b9a6a6c",
                    "receiptTrie" : "0x55c9e60343b1615fe2b2a21039fb43ddf69e8f69e07aaa8d5f1cd054ab25be8f",
                    "stateRoot" : "0xb7b04bf9f5bacb10bb2f761e626b9b7a7874ce855b2f99c0c440794a00e43033",
                    "timestamp" : "0x54c99451",
                    "transactionsTrie" : "0x76c7a0ce7644661f276c76fb9a82eaee879d0642cf4ed244fc10afc02c646abf",
                    "uncleHash" : "0x1dcc4de8dec75d7aab85b567b6ccd41ad312451b948a7413f0a142fd40d49347"
                },
                "transactions" : [
                    {
                        "data" : "0x",
                        "gasLimit" : "0x7530",
                        "gasPrice" : "0x01",
                        "nonce" : "0x01",
                        "r" : "0xbb6e3cf3f281af13ef1393d7052b03cab367079a9eb71aa829ec72b231a60e1f",
                        "s" : "0x4bcfe1da53f26bb95806d38e9f42fef262aaaf5191e16ec473a695c8978a0b05",
                        "to" : "",
                        "v" : "0x1c",
                        "value" : "0x0a"
                    }
                ],
                "rlp" : "0xf9024cf901f9a03fd661322abcf47fb936b965fa96520b6359b637a5326882d163f83c4b9a6a6ca01dcc4de8dec75d7aab85b567b6ccd41ad312451b948a7413f0a142fd40d49347948888f1f195afa192cfee860698584c030f4c9db1a0b7b04bf9f5bacb10bb2f761e626b9b7a7874ce855b2f99c0c440794a00e43033a076c7a0ce7644661f276c76fb9a82eaee879d0642cf4ed244fc10afc02c646abfa055c9e60343b1615fe2b2a21039fb43ddf69e8f69e07aaa8d5f1cd054ab25be8fb90100000000000000000000000000000000000000000000000000000000000000000000000000000000000000000000000000000000000000000000000000000000000000000000000000000000000000000000000000000000000000000000000000000000000000000000000000000000000000000000000000000000000000000000000000000000000000000000000000000000000000000000000000000000000000000000000000000000000000000000000000000000000000000000000000000000000000000000000000000000000000000000000000000000000000000000000000000000000000000000000000000000000000000000000000000000008302000002833007cf8252088454c9945142a00000000000000000000000000000000000000000000000000000000000000000880000000000000000f84df84b0101827530800a801ca0bb6e3cf3f281af13ef1393d7052b03cab367079a9eb71aa829ec72b231a60e1fa04bcfe1da53f26bb95806d38e9f42fef262aaaf5191e16ec473a695c8978a0b05c0"
            },
            {
                "chainname" : "A",
                "blocknumber" : "3",
                "uncleHeaders" : [
                ],
                "blockHeader" : {
                    "bloom" : "0x00000000000000000000000000000000000000000000000000000000000000000000000000000000000000000000000000000000000000000000000000000000000000000000000000000000000000000000000000000000000000000000000000000000000000000000000000000000000000000000000000000000000000000000000000000000000000000000000000000000000000000000000000000000000000000000000000000000000000000000000000000000000000000000000000000000000000000000000000000000000000000000000000000000000000000000000000000000000000000000000000000000000000000000000000000000",
                    "coinbase" : "0x8888f1f195afa192cfee860698584c030f4c9db1",
                    "difficulty" : "0x020000",
                    "extraData" : "0x42",
                    "gasLimit" : "0x3013cf",
                    "gasUsed" : "0x5208",
                    "hash" : "0x14f9935dec6feb0a4326a3f10ef864a5579acaabc30f2e43495f460f478113d6",
                    "mixHash" : "0x0000000000000000000000000000000000000000000000000000000000000000",
                    "nonce" : "0x0000000000000000",
                    "number" : "0x03",
                    "parentHash" : "0xc1c7217fb00adeb5d254754c40d7bf44bfe1b76a561f61d20040a239d1edeb97",
                    "receiptTrie" : "0x0a48f328e112d3bff61710acd43bc7435f9e320498ee9e2fce1bb54a63481d37",
                    "stateRoot" : "0x9d74bf97b4053baf10189e3a7edef50604baab366e36fc126adf407cb24b4af6",
                    "timestamp" : "0x54c99839",
                    "transactionsTrie" : "0x3798aa164b61e27b93484c76a5f319bd93c808dc78ef31cf8b93f4e1b248ca2c",
                    "uncleHash" : "0x1dcc4de8dec75d7aab85b567b6ccd41ad312451b948a7413f0a142fd40d49347"
                },
                "transactions" : [
                    {
                        "data" : "0x",
                        "gasLimit" : "0x7530",
                        "gasPrice" : "0x01",
                        "nonce" : "0x02",
                        "r" : "0xf6d884cae1f86bdff1281e95e416089c544a4a5578a75d5e8ad76118e341b055",
                        "s" : "0x75b7d88985ed5acd61f30c9f9570c6c33bb92f3ad1a32b86a0747817fbc5eded",
                        "to" : "",
                        "v" : "0x1c",
                        "value" : "0x0a"
                    }
                ],
                "rlp" : "0xf9024cf901f9a0c1c7217fb00adeb5d254754c40d7bf44bfe1b76a561f61d20040a239d1edeb97a01dcc4de8dec75d7aab85b567b6ccd41ad312451b948a7413f0a142fd40d49347948888f1f195afa192cfee860698584c030f4c9db1a09d74bf97b4053baf10189e3a7edef50604baab366e36fc126adf407cb24b4af6a03798aa164b61e27b93484c76a5f319bd93c808dc78ef31cf8b93f4e1b248ca2ca00a48f328e112d3bff61710acd43bc7435f9e320498ee9e2fce1bb54a63481d37b90100000000000000000000000000000000000000000000000000000000000000000000000000000000000000000000000000000000000000000000000000000000000000000000000000000000000000000000000000000000000000000000000000000000000000000000000000000000000000000000000000000000000000000000000000000000000000000000000000000000000000000000000000000000000000000000000000000000000000000000000000000000000000000000000000000000000000000000000000000000000000000000000000000000000000000000000000000000000000000000000000000000000000000000000000000000008302000003833013cf8252088454c9983942a00000000000000000000000000000000000000000000000000000000000000000880000000000000000f84df84b0201827530800a801ca0f6d884cae1f86bdff1281e95e416089c544a4a5578a75d5e8ad76118e341b055a075b7d88985ed5acd61f30c9f9570c6c33bb92f3ad1a32b86a0747817fbc5ededc0"
            },
            {
                "chainname" : "A",
                "blocknumber" : "4",
                "uncleHeaders" : [
                ],
                "blockHeader" : {
                    "bloom" : "0x00000000000000000000000000000000000000000000000000000000000000000000000000000000000000000000000000000000000000000000000000000000000000000000000000000000000000000000000000000000000000000000000000000000000000000000000000000000000000000000000000000000000000000000000000000000000000000000000000000000000000000000000000000000000000000000000000000000000000000000000000000000000000000000000000000000000000000000000000000000000000000000000000000000000000000000000000000000000000000000000000000000000000000000000000000000",
                    "coinbase" : "0x8888f1f195afa192cfee860698584c030f4c9db1",
                    "difficulty" : "0x020000",
                    "extraData" : "0x42",
                    "gasLimit" : "0x301fd2",
                    "gasUsed" : "0x5208",
                    "hash" : "0x57c955af0aad09c480f81979e0f3f64d297a216f0f787fe6b4e9fdc2dc17ac62",
                    "mixHash" : "0x0000000000000000000000000000000000000000000000000000000000000000",
                    "nonce" : "0x0000000000000000",
                    "number" : "0x04",
                    "parentHash" : "0x14f9935dec6feb0a4326a3f10ef864a5579acaabc30f2e43495f460f478113d6",
                    "receiptTrie" : "0x403564fc3dccf708f5dde6e0d88b59a2229779b67d67b9dc85e8f0b675ee5495",
                    "stateRoot" : "0x884415b633de492a23fc4a024f92ed18185e7f721795b10c5c19eb68ef94ef4a",
                    "timestamp" : "0x54c99c21",
                    "transactionsTrie" : "0x4cc1b34b3a9d29bf69842a54e1c48bc97afc433883f66d2c59287f118c9c3c2c",
                    "uncleHash" : "0x1dcc4de8dec75d7aab85b567b6ccd41ad312451b948a7413f0a142fd40d49347"
                },
                "transactions" : [
                    {
                        "data" : "0x",
                        "gasLimit" : "0x7530",
                        "gasPrice" : "0x01",
                        "nonce" : "0x03",
                        "r" : "0x753ee5d896db8d87fe850e7935418587277cd9c010dfaaf7dd09b0a2e73785dc",
                        "s" : "0x66deb3c241d532c7b880ae7a9a311ee7a92ef1c5e4e2bf3307990a2881bc13b0",
                        "to" : "",
                        "v" : "0x1c",
                        "value" : "0x0a"
                    }
                ],
                "rlp" : "0xf9024cf901f9a014f9935dec6feb0a4326a3f10ef864a5579acaabc30f2e43495f460f478113d6a01dcc4de8dec75d7aab85b567b6ccd41ad312451b948a7413f0a142fd40d49347948888f1f195afa192cfee860698584c030f4c9db1a0884415b633de492a23fc4a024f92ed18185e7f721795b10c5c19eb68ef94ef4aa04cc1b34b3a9d29bf69842a54e1c48bc97afc433883f66d2c59287f118c9c3c2ca0403564fc3dccf708f5dde6e0d88b59a2229779b67d67b9dc85e8f0b675ee5495b9010000000000000000000000000000000000000000000000000000000000000000000000000000000000000000000000000000000000000000000000000000000000000000000000000000000000000000000000000000000000000000000000000000000000000000000000000000000000000000000000000000000000000000000000000000000000000000000000000000000000000000000000000000000000000000000000000000000000000000000000000000000000000000000000000000000000000000000000000000000000000000000000000000000000000000000000000000000000000000000000000000000000000000000000000000000000830200000483301fd28252088454c99c2142a00000000000000000000000000000000000000000000000000000000000000000880000000000000000f84df84b0301827530800a801ca0753ee5d896db8d87fe850e7935418587277cd9c010dfaaf7dd09b0a2e73785dca066deb3c241d532c7b880ae7a9a311ee7a92ef1c5e4e2bf3307990a2881bc13b0c0"
            },
            {
                "chainname" : "A",
                "blocknumber" : "5",
                "uncleHeaders" : [
                ],
                "blockHeader" : {
                    "bloom" : "0x00000000000000000000000000000000000000000000000000000000000000000000000000000000000000000000000000000000000000000000000000000000000000000000000000000000000000000000000000000000000000000000000000000000000000000000000000000000000000000000000000000000000000000000000000000000000000000000000000000000000000000000000000000000000000000000000000000000000000000000000000000000000000000000000000000000000000000000000000000000000000000000000000000000000000000000000000000000000000000000000000000000000000000000000000000000",
                    "coinbase" : "0x8888f1f195afa192cfee860698584c030f4c9db1",
                    "difficulty" : "0x020000",
                    "extraData" : "0x42",
                    "gasLimit" : "0x302bd8",
                    "gasUsed" : "0xcf08",
                    "hash" : "0x3830b8cb6c40736de22563f07918856c249bbc300898d432facf195f6fba37ac",
                    "mixHash" : "0x0000000000000000000000000000000000000000000000000000000000000000",
                    "nonce" : "0x0000000000000000",
                    "number" : "0x05",
                    "parentHash" : "0x57c955af0aad09c480f81979e0f3f64d297a216f0f787fe6b4e9fdc2dc17ac62",
                    "receiptTrie" : "0x676b1dc7fabf8e93296790a89705198ae55bf7a37083c85bbdfadb05e2ab11cc",
                    "stateRoot" : "0xf7690bfdde5a331c15a5f40ac2d7f711e033d05e16b105cc274db92a5bcaab7f",
                    "timestamp" : "0x54c9a009",
                    "transactionsTrie" : "0xeb76cfc3bfe2bf40c31e25d80b54bd81eaa530ef5dc84b613dec8b5a310bb0a1",
                    "uncleHash" : "0x1dcc4de8dec75d7aab85b567b6ccd41ad312451b948a7413f0a142fd40d49347"
                },
                "transactions" : [
                    {
                        "data" : "0x",
                        "gasLimit" : "0x011170",
                        "gasPrice" : "0x01",
                        "nonce" : "0x04",
                        "r" : "0xfd9baf2a485c6915f2a9d27d1735f9696db3539de2b89df6d04eb83f868451e9",
                        "s" : "0x0de415e551da2e8029093b33c636eb56493c3aeb7d042429761fa4f3e0944789",
                        "to" : "",
                        "v" : "0x1c",
                        "value" : "0x0b"
                    }
                ],
                "rlp" : "0xf9024df901f9a057c955af0aad09c480f81979e0f3f64d297a216f0f787fe6b4e9fdc2dc17ac62a01dcc4de8dec75d7aab85b567b6ccd41ad312451b948a7413f0a142fd40d49347948888f1f195afa192cfee860698584c030f4c9db1a0f7690bfdde5a331c15a5f40ac2d7f711e033d05e16b105cc274db92a5bcaab7fa0eb76cfc3bfe2bf40c31e25d80b54bd81eaa530ef5dc84b613dec8b5a310bb0a1a0676b1dc7fabf8e93296790a89705198ae55bf7a37083c85bbdfadb05e2ab11ccb9010000000000000000000000000000000000000000000000000000000000000000000000000000000000000000000000000000000000000000000000000000000000000000000000000000000000000000000000000000000000000000000000000000000000000000000000000000000000000000000000000000000000000000000000000000000000000000000000000000000000000000000000000000000000000000000000000000000000000000000000000000000000000000000000000000000000000000000000000000000000000000000000000000000000000000000000000000000000000000000000000000000000000000000000000000000000830200000583302bd882cf088454c9a00942a00000000000000000000000000000000000000000000000000000000000000000880000000000000000f84ef84c040183011170800b801ca0fd9baf2a485c6915f2a9d27d1735f9696db3539de2b89df6d04eb83f868451e9a00de415e551da2e8029093b33c636eb56493c3aeb7d042429761fa4f3e0944789c0"
            },
            {
                "chainname" : "F",
                "blocknumber" : "1",
                "uncleHeaders" : [
                ],
                "blockHeader" : {
                    "bloom" : "0x00000000000000000000000000000000000000000000000000000000000000000000000000000000000000000000000000000000000000000000000000000000000000000000000000000000000000000000000000000000000000000000000000000000000000000000000000000000000000000000000000000000000000000000000000000000000000000000000000000000000000000000000000000000000000000000000000000000000000000000000000000000000000000000000000000000000000000000000000000000000000000000000000000000000000000000000000000000000000000000000000000000000000000000000000000000",
                    "coinbase" : "0x8888f1f195afa192cfee860698584c030f4c9db1",
                    "difficulty" : "0x020000",
                    "extraData" : "0x42",
                    "gasLimit" : "0x2ffbd2",
                    "gasUsed" : "0x5208",
                    "hash" : "0xc9d45dbf3c2f93265a97ff1a94890ea64624fa981142220657ae6d169e2f1c0d",
                    "mixHash" : "0x0000000000000000000000000000000000000000000000000000000000000000",
                    "nonce" : "0x0000000000000000",
                    "number" : "0x01",
                    "parentHash" : "0x68a61c4a05db4913009de5666753258eb9306157680dc5da0d93656550c9257e",
                    "receiptTrie" : "0x33cd44b2139aac546ef61d35a34d414dbeb17fd06d0521890dafa5af8b5b99e3",
                    "stateRoot" : "0x8fca94adef834d4b525ca53df6625a3e5375d779e48421c59ab105eeb8f6acdc",
                    "timestamp" : "0x54c99069",
                    "transactionsTrie" : "0xac81275d7a81a720240146377982939179218535bfcfa9469c8bdd3e264ef179",
                    "uncleHash" : "0x1dcc4de8dec75d7aab85b567b6ccd41ad312451b948a7413f0a142fd40d49347"
                },
                "transactions" : [
                    {
                        "data" : "0x",
                        "gasLimit" : "0x7530",
                        "gasPrice" : "0x01",
                        "nonce" : "0x00",
                        "r" : "0x57cb46c0b702929c4fd4127b2370f28a7aeeaa65509699e58eedf7692090a0a9",
                        "s" : "0x5ba7c83d99be6a9bca0c81947023ba3b5f2162516d82d0757bf8004f3e9bc03a",
                        "to" : "",
                        "v" : "0x1c",
                        "value" : "0x0a"
                    }
                ],
                "rlp" : "0xf9024cf901f9a068a61c4a05db4913009de5666753258eb9306157680dc5da0d93656550c9257ea01dcc4de8dec75d7aab85b567b6ccd41ad312451b948a7413f0a142fd40d49347948888f1f195afa192cfee860698584c030f4c9db1a08fca94adef834d4b525ca53df6625a3e5375d779e48421c59ab105eeb8f6acdca0ac81275d7a81a720240146377982939179218535bfcfa9469c8bdd3e264ef179a033cd44b2139aac546ef61d35a34d414dbeb17fd06d0521890dafa5af8b5b99e3b90100000000000000000000000000000000000000000000000000000000000000000000000000000000000000000000000000000000000000000000000000000000000000000000000000000000000000000000000000000000000000000000000000000000000000000000000000000000000000000000000000000000000000000000000000000000000000000000000000000000000000000000000000000000000000000000000000000000000000000000000000000000000000000000000000000000000000000000000000000000000000000000000000000000000000000000000000000000000000000000000000000000000000000000000000000000008302000001832ffbd28252088454c9906942a00000000000000000000000000000000000000000000000000000000000000000880000000000000000f84df84b8001827530800a801ca057cb46c0b702929c4fd4127b2370f28a7aeeaa65509699e58eedf7692090a0a9a05ba7c83d99be6a9bca0c81947023ba3b5f2162516d82d0757bf8004f3e9bc03ac0"
            },
            {
                "chainname" : "F",
                "blocknumber" : "2",
                "uncleHeaders" : [
                ],
                "blockHeader" : {
                    "bloom" : "0x00000000000000000000000000000000000000000000000000000000000000000000000000000000000000000000000000000000000000000000000000000000000000000000000000000000000000000000000000000000000000000000000000000000000000000000000000000000000000000000000000000000000000000000000000000000000000000000000000000000000000000000000000000000000000000000000000000000000000000000000000000000000000000000000000000000000000000000000000000000000000000000000000000000000000000000000000000000000000000000000000000000000000000000000000000000",
                    "coinbase" : "0x8888f1f195afa192cfee860698584c030f4c9db1",
                    "difficulty" : "0x020000",
                    "extraData" : "0x42",
                    "gasLimit" : "0x3007cf",
                    "gasUsed" : "0x5208",
                    "hash" : "0xef0b74bd03fd01a567bfad743db6b0896f9f86ab8a2f74c54e4aff44cd104116",
                    "mixHash" : "0x0000000000000000000000000000000000000000000000000000000000000000",
                    "nonce" : "0x0000000000000000",
                    "number" : "0x02",
                    "parentHash" : "0xc9d45dbf3c2f93265a97ff1a94890ea64624fa981142220657ae6d169e2f1c0d",
                    "receiptTrie" : "0x55c9e60343b1615fe2b2a21039fb43ddf69e8f69e07aaa8d5f1cd054ab25be8f",
                    "stateRoot" : "0xb7b04bf9f5bacb10bb2f761e626b9b7a7874ce855b2f99c0c440794a00e43033",
                    "timestamp" : "0x54c99451",
                    "transactionsTrie" : "0x76c7a0ce7644661f276c76fb9a82eaee879d0642cf4ed244fc10afc02c646abf",
                    "uncleHash" : "0x1dcc4de8dec75d7aab85b567b6ccd41ad312451b948a7413f0a142fd40d49347"
                },
                "transactions" : [
                    {
                        "data" : "0x",
                        "gasLimit" : "0x7530",
                        "gasPrice" : "0x01",
                        "nonce" : "0x01",
                        "r" : "0xbb6e3cf3f281af13ef1393d7052b03cab367079a9eb71aa829ec72b231a60e1f",
                        "s" : "0x4bcfe1da53f26bb95806d38e9f42fef262aaaf5191e16ec473a695c8978a0b05",
                        "to" : "",
                        "v" : "0x1c",
                        "value" : "0x0a"
                    }
                ],
                "rlp" : "0xf9024cf901f9a0c9d45dbf3c2f93265a97ff1a94890ea64624fa981142220657ae6d169e2f1c0da01dcc4de8dec75d7aab85b567b6ccd41ad312451b948a7413f0a142fd40d49347948888f1f195afa192cfee860698584c030f4c9db1a0b7b04bf9f5bacb10bb2f761e626b9b7a7874ce855b2f99c0c440794a00e43033a076c7a0ce7644661f276c76fb9a82eaee879d0642cf4ed244fc10afc02c646abfa055c9e60343b1615fe2b2a21039fb43ddf69e8f69e07aaa8d5f1cd054ab25be8fb90100000000000000000000000000000000000000000000000000000000000000000000000000000000000000000000000000000000000000000000000000000000000000000000000000000000000000000000000000000000000000000000000000000000000000000000000000000000000000000000000000000000000000000000000000000000000000000000000000000000000000000000000000000000000000000000000000000000000000000000000000000000000000000000000000000000000000000000000000000000000000000000000000000000000000000000000000000000000000000000000000000000000000000000000000000000008302000002833007cf8252088454c9945142a00000000000000000000000000000000000000000000000000000000000000000880000000000000000f84df84b0101827530800a801ca0bb6e3cf3f281af13ef1393d7052b03cab367079a9eb71aa829ec72b231a60e1fa04bcfe1da53f26bb95806d38e9f42fef262aaaf5191e16ec473a695c8978a0b05c0"
            },
            {
                "chainname" : "F",
                "blocknumber" : "3",
                "uncleHeaders" : [
                ],
                "blockHeader" : {
                    "bloom" : "0x00000000000000000000000000000000000000000000000000000000000000000000000000000000000000000000000000000000000000000000000000000000000000000000000000000000000000000000000000000000000000000000000000000000000000000000000000000000000000000000000000000000000000000000000000000000000000000000000000000000000000000000000000000000000000000000000000000000000000000000000000000000000000000000000000000000000000000000000000000000000000000000000000000000000000000000000000000000000000000000000000000000000000000000000000000000",
                    "coinbase" : "0x8888f1f195afa192cfee860698584c030f4c9db1",
                    "difficulty" : "0x020000",
                    "extraData" : "0x42",
                    "gasLimit" : "0x3013cf",
                    "gasUsed" : "0x5208",
                    "hash" : "0x7d1aea7a9a13744bcb186e8e5e15022824af22dc94096c6ba5b2e87bd081916d",
                    "mixHash" : "0x0000000000000000000000000000000000000000000000000000000000000000",
                    "nonce" : "0x0000000000000000",
                    "number" : "0x03",
                    "parentHash" : "0xef0b74bd03fd01a567bfad743db6b0896f9f86ab8a2f74c54e4aff44cd104116",
                    "receiptTrie" : "0x0a48f328e112d3bff61710acd43bc7435f9e320498ee9e2fce1bb54a63481d37",
                    "stateRoot" : "0x9d74bf97b4053baf10189e3a7edef50604baab366e36fc126adf407cb24b4af6",
                    "timestamp" : "0x54c99839",
                    "transactionsTrie" : "0x3798aa164b61e27b93484c76a5f319bd93c808dc78ef31cf8b93f4e1b248ca2c",
                    "uncleHash" : "0x1dcc4de8dec75d7aab85b567b6ccd41ad312451b948a7413f0a142fd40d49347"
                },
                "transactions" : [
                    {
                        "data" : "0x",
                        "gasLimit" : "0x7530",
                        "gasPrice" : "0x01",
                        "nonce" : "0x02",
                        "r" : "0xf6d884cae1f86bdff1281e95e416089c544a4a5578a75d5e8ad76118e341b055",
                        "s" : "0x75b7d88985ed5acd61f30c9f9570c6c33bb92f3ad1a32b86a0747817fbc5eded",
                        "to" : "",
                        "v" : "0x1c",
                        "value" : "0x0a"
                    }
                ],
                "rlp" : "0xf9024cf901f9a0ef0b74bd03fd01a567bfad743db6b0896f9f86ab8a2f74c54e4aff44cd104116a01dcc4de8dec75d7aab85b567b6ccd41ad312451b948a7413f0a142fd40d49347948888f1f195afa192cfee860698584c030f4c9db1a09d74bf97b4053baf10189e3a7edef50604baab366e36fc126adf407cb24b4af6a03798aa164b61e27b93484c76a5f319bd93c808dc78ef31cf8b93f4e1b248ca2ca00a48f328e112d3bff61710acd43bc7435f9e320498ee9e2fce1bb54a63481d37b90100000000000000000000000000000000000000000000000000000000000000000000000000000000000000000000000000000000000000000000000000000000000000000000000000000000000000000000000000000000000000000000000000000000000000000000000000000000000000000000000000000000000000000000000000000000000000000000000000000000000000000000000000000000000000000000000000000000000000000000000000000000000000000000000000000000000000000000000000000000000000000000000000000000000000000000000000000000000000000000000000000000000000000000000000000000008302000003833013cf8252088454c9983942a00000000000000000000000000000000000000000000000000000000000000000880000000000000000f84df84b0201827530800a801ca0f6d884cae1f86bdff1281e95e416089c544a4a5578a75d5e8ad76118e341b055a075b7d88985ed5acd61f30c9f9570c6c33bb92f3ad1a32b86a0747817fbc5ededc0"
            },
            {
                "chainname" : "F",
                "blocknumber" : "4",
                "uncleHeaders" : [
                ],
                "blockHeader" : {
                    "bloom" : "0x00000000000000000000000000000000000000000000000000000000000000000000000000000000000000000000000000000000000000000000000000000000000000000000000000000000000000000000000000000000000000000000000000000000000000000000000000000000000000000000000000000000000000000000000000000000000000000000000000000000000000000000000000000000000000000000000000000000000000000000000000000000000000000000000000000000000000000000000000000000000000000000000000000000000000000000000000000000000000000000000000000000000000000000000000000000",
                    "coinbase" : "0x8888f1f195afa192cfee860698584c030f4c9db1",
                    "difficulty" : "0x020000",
                    "extraData" : "0x42",
                    "gasLimit" : "0x301fd2",
                    "gasUsed" : "0x5208",
                    "hash" : "0x9ebbc167feb26ad98de33b78c1c552a8bb17a5f812a568ece820bc8c02e0346b",
                    "mixHash" : "0x0000000000000000000000000000000000000000000000000000000000000000",
                    "nonce" : "0x0000000000000000",
                    "number" : "0x04",
                    "parentHash" : "0x7d1aea7a9a13744bcb186e8e5e15022824af22dc94096c6ba5b2e87bd081916d",
                    "receiptTrie" : "0x403564fc3dccf708f5dde6e0d88b59a2229779b67d67b9dc85e8f0b675ee5495",
                    "stateRoot" : "0x884415b633de492a23fc4a024f92ed18185e7f721795b10c5c19eb68ef94ef4a",
                    "timestamp" : "0x54c99c21",
                    "transactionsTrie" : "0x4cc1b34b3a9d29bf69842a54e1c48bc97afc433883f66d2c59287f118c9c3c2c",
                    "uncleHash" : "0x1dcc4de8dec75d7aab85b567b6ccd41ad312451b948a7413f0a142fd40d49347"
                },
                "transactions" : [
                    {
                        "data" : "0x",
                        "gasLimit" : "0x7530",
                        "gasPrice" : "0x01",
                        "nonce" : "0x03",
                        "r" : "0x753ee5d896db8d87fe850e7935418587277cd9c010dfaaf7dd09b0a2e73785dc",
                        "s" : "0x66deb3c241d532c7b880ae7a9a311ee7a92ef1c5e4e2bf3307990a2881bc13b0",
                        "to" : "",
                        "v" : "0x1c",
                        "value" : "0x0a"
                    }
                ],
                "rlp" : "0xf9024cf901f9a07d1aea7a9a13744bcb186e8e5e15022824af22dc94096c6ba5b2e87bd081916da01dcc4de8dec75d7aab85b567b6ccd41ad312451b948a7413f0a142fd40d49347948888f1f195afa192cfee860698584c030f4c9db1a0884415b633de492a23fc4a024f92ed18185e7f721795b10c5c19eb68ef94ef4aa04cc1b34b3a9d29bf69842a54e1c48bc97afc433883f66d2c59287f118c9c3c2ca0403564fc3dccf708f5dde6e0d88b59a2229779b67d67b9dc85e8f0b675ee5495b9010000000000000000000000000000000000000000000000000000000000000000000000000000000000000000000000000000000000000000000000000000000000000000000000000000000000000000000000000000000000000000000000000000000000000000000000000000000000000000000000000000000000000000000000000000000000000000000000000000000000000000000000000000000000000000000000000000000000000000000000000000000000000000000000000000000000000000000000000000000000000000000000000000000000000000000000000000000000000000000000000000000000000000000000000000000000830200000483301fd28252088454c99c2142a00000000000000000000000000000000000000000000000000000000000000000880000000000000000f84df84b0301827530800a801ca0753ee5d896db8d87fe850e7935418587277cd9c010dfaaf7dd09b0a2e73785dca066deb3c241d532c7b880ae7a9a311ee7a92ef1c5e4e2bf3307990a2881bc13b0c0"
            },
            {
                "chainname" : "F",
                "blocknumber" : "5",
                "rlp" : "0xf9024df901f9a09ebbc167feb26ad98de33b78c1c552a8bb17a5f812a568ece820bc8c02e0346ba01dcc4de8dec75d7aab85b567b6ccd41ad312451b948a7413f0a142fd40d49347948888f1f195afa192cfee860698584c030f4c9db1a03782a5a61419d1869d31a36af23817f1c395b961199e89f5a9dc061ebca97f05a0d97a658b78f334c1b831d0348ccbfa81e2a7645d95c9e581384bd206761b096aa03308bccbdb41f2f7f1c45911353f0a00b0c91671dc68a72bb5deb3a120cf5541b9010000000000000000000000000000000000000000000000000000000000000000000000000000000000000000000000000000000000000000000000000000000000000000000000000000000000000000000000000000000000000000000000000000000000000000000000000000000000000000000000000000000000000000000000000000000000000000000000000000000000000000000000000000000000000000000000000000000000000000000000000000000000000000000000000000000000000000000000000000000000000000000000000000000000000000000000000000000000000000000000000000000000000000000000000000000000830200000583302bd88252088454c9a00942a00000000000000000000000000000000000000000000000000000000000000000880000000000000000f84ef84c040183015f90800a801ba0bca0f3b2307115211574e9d1b73f7f3d1f4f25b0a50485209b0db081cb78dfaea078ca6edcddadc6615feb7f41d94a0151e91b1c8d4ec9d6fa665bff2578003440c0",
                "expectException" : "InvalidGasUsed"
            },
            {
                "chainname" : "F",
                "blocknumber" : "6",
                "rlp" : "0xf9024df901f9a0a13924d7de9f8b70a11564025295ad7965abd716b40c6ebbfdfc44889b6a0ac3a01dcc4de8dec75d7aab85b567b6ccd41ad312451b948a7413f0a142fd40d49347948888f1f195afa192cfee860698584c030f4c9db1a06f9dde55cf1f663274cc891f4ca9148e5b5c41e2afe5a61e9f68031438cb1c4ca06c5a327bc1f7a929adad5d8b93bfaa5a6fe9085da51d25ad5f77db2c118e7b26a0c6f85e5205e825df5bf9591273df962c1115c9791cd9c66a12ea257cdf005a97b90100000000000000000000000000000000000000000000000000000000000000000000000000000000000000000000000000000000000000000000000000000000000000000000000000000000000000000000000000000000000000000000000000000000000000000000000000000000000000000000000000000000000000000000000000000000000000000000000000000000000000000000000000000000000000000000000000000000000000000000000000000000000000000000000000000000000000000000000000000000000000000000000000000000000000000000000000000000000000000000000000000000000000000000000000000000008302000006833037e18252088454c9a3f142a00000000000000000000000000000000000000000000000000000000000000000880000000000000000f84ef84c050183015f90800a801ca0606efbde468754dfb8026225d200fb3588f736d018c601915673d6767ca29d86a079bdb812863f1439a77f27b6b0af48fa083c082cd56f3183a1625333957757cbc0",
                "expectException" : "UnknownParent"
            }
        ],
        "postState" : {
            "0xa94f5374fce5edbc8e2a8697c15331677e6ebf0b" : {
                "code" : "0x",
                "nonce" : "0x05",
                "balance" : "0x025409cca5",
                "storage" : {
                }
            },
            "0xb1d37cf6180ceb738ca45b5005a2f418c02e204b" : {
                "code" : "0x",
                "nonce" : "0x00",
                "balance" : "0x0b",
                "storage" : {
                }
            },
            "0x0c243ebe6a031753dc0dd850acf422844a3efb76" : {
                "code" : "0x",
                "nonce" : "0x00",
                "balance" : "0x0a",
                "storage" : {
                }
            },
            "0x8888f1f195afa192cfee860698584c030f4c9db1" : {
                "code" : "0x",
                "nonce" : "0x00",
                "balance" : "0x015af1d78b58c61728",
                "storage" : {
                }
            },
            "0xec0e71ad0a90ffe1909d27dac207f7680abba42d" : {
                "code" : "0x",
                "nonce" : "0x00",
                "balance" : "0x0a",
                "storage" : {
                }
            },
            "0x248f0f0f33eadb89e9d87fd5c127f58567f3ffde" : {
                "code" : "0x",
                "nonce" : "0x00",
                "balance" : "0x0a",
                "storage" : {
                }
            },
            "0x6295ee1b4f6dd65047762f924ecd367c17eabf8f" : {
                "code" : "0x",
                "nonce" : "0x00",
                "balance" : "0x0a",
                "storage" : {
                }
            }
        },
        "lastblockhash" : "0x3830b8cb6c40736de22563f07918856c249bbc300898d432facf195f6fba37ac"
    }
}