{
    "CallContractThatCreateContractBeforeAndAfterSwitchover_FrontierToHomesteadAt5" : {
        "_info" : {
            "comment" : "",
            "filling-rpc-server" : "Geth-1.9.11-unstable-a382d783-20200127",
            "filling-tool-version" : "retesteth-0.0.2+commit.ce1fdd3d.Linux.g++",
            "lllcversion" : "Version: 0.5.14-develop.2019.11.27+commit.8f259595.Linux.g++",
            "source" : "src/BlockchainTestsFiller/TransitionTests/bcFrontierToHomestead/CallContractThatCreateContractBeforeAndAfterSwitchoverFiller.json",
            "sourceHash" : "659433edd0bb59f94f2db0c2666c6a1b160c4fa5c13f773b9b9be2c4bc03bda4"
        },
        "sealEngine" : "NoProof",
        "network" : "FrontierToHomesteadAt5",
        "pre" : {
            "0x1000000000000000000000000000000000000001" : {
                "balance" : "0x02540be400",
                "code" : "0x446001555a60025560206000600039602060006000f000",
                "nonce" : "0x00",
                "storage" : {
                }
            },
            "0xa94f5374fce5edbc8e2a8697c15331677e6ebf0b" : {
                "balance" : "0x02540be400",
                "code" : "0x",
                "nonce" : "0x00",
                "storage" : {
                }
            }
        },
        "genesisBlockHeader" : {
            "bloom" : "0x00000000000000000000000000000000000000000000000000000000000000000000000000000000000000000000000000000000000000000000000000000000000000000000000000000000000000000000000000000000000000000000000000000000000000000000000000000000000000000000000000000000000000000000000000000000000000000000000000000000000000000000000000000000000000000000000000000000000000000000000000000000000000000000000000000000000000000000000000000000000000000000000000000000000000000000000000000000000000000000000000000000000000000000000000000000",
            "coinbase" : "0x8888f1f195afa192cfee860698584c030f4c9db1",
            "difficulty" : "0x020000",
            "extraData" : "0x42",
            "gasLimit" : "0x2fefd8",
            "gasUsed" : "0x00",
            "hash" : "0x4f6bbe0949f35683537dc3ff3a39d62e74a4257feaa0890d3939535099327a49",
            "mixHash" : "0x0000000000000000000000000000000000000000000000000000000000000000",
            "nonce" : "0x0000000000000000",
            "number" : "0x00",
            "parentHash" : "0x0000000000000000000000000000000000000000000000000000000000000000",
            "receiptTrie" : "0x56e81f171bcc55a6ff8345e692c0f86e5b48e01b996cadc001622fb5e363b421",
            "stateRoot" : "0xfbe757d50a59d7e4d553ac77eaa1ae0e0f49e464cc227194176a8c906631aa1b",
            "timestamp" : "0x54c98c81",
            "transactionsTrie" : "0x56e81f171bcc55a6ff8345e692c0f86e5b48e01b996cadc001622fb5e363b421",
            "uncleHash" : "0x1dcc4de8dec75d7aab85b567b6ccd41ad312451b948a7413f0a142fd40d49347"
        },
        "genesisRLP" : "0xf901fcf901f7a00000000000000000000000000000000000000000000000000000000000000000a01dcc4de8dec75d7aab85b567b6ccd41ad312451b948a7413f0a142fd40d49347948888f1f195afa192cfee860698584c030f4c9db1a0fbe757d50a59d7e4d553ac77eaa1ae0e0f49e464cc227194176a8c906631aa1ba056e81f171bcc55a6ff8345e692c0f86e5b48e01b996cadc001622fb5e363b421a056e81f171bcc55a6ff8345e692c0f86e5b48e01b996cadc001622fb5e363b421b90100000000000000000000000000000000000000000000000000000000000000000000000000000000000000000000000000000000000000000000000000000000000000000000000000000000000000000000000000000000000000000000000000000000000000000000000000000000000000000000000000000000000000000000000000000000000000000000000000000000000000000000000000000000000000000000000000000000000000000000000000000000000000000000000000000000000000000000000000000000000000000000000000000000000000000000000000000000000000000000000000000000000000000000000000000000008302000080832fefd8808454c98c8142a00000000000000000000000000000000000000000000000000000000000000000880000000000000000c0c0",
        "blocks" : [
            {
                "chainname" : "default",
                "blocknumber" : "1",
                "uncleHeaders" : [
                ],
                "blockHeader" : {
                    "bloom" : "0x00000000000000000000000000000000000000000000000000000000000000000000000000000000000000000000000000000000000000000000000000000000000000000000000000000000000000000000000000000000000000000000000000000000000000000000000000000000000000000000000000000000000000000000000000000000000000000000000000000000000000000000000000000000000000000000000000000000000000000000000000000000000000000000000000000000000000000000000000000000000000000000000000000000000000000000000000000000000000000000000000000000000000000000000000000000",
                    "coinbase" : "0x8888f1f195afa192cfee860698584c030f4c9db1",
                    "difficulty" : "0x020000",
                    "extraData" : "0x42",
                    "gasLimit" : "0x2ffbd2",
                    "gasUsed" : "0x02bf20",
                    "hash" : "0xf25b112aa62f1440ae74090041bc0cc66b3d9e6c5e8ecce9184e29ec00aa5b3e",
                    "mixHash" : "0x0000000000000000000000000000000000000000000000000000000000000000",
                    "nonce" : "0x0000000000000000",
                    "number" : "0x01",
                    "parentHash" : "0x4f6bbe0949f35683537dc3ff3a39d62e74a4257feaa0890d3939535099327a49",
                    "receiptTrie" : "0x500e94178628597ff3b5966efd1d2fa62f3e6c4477aef5ea5790d2aafe084f32",
                    "stateRoot" : "0x9736eac05ce23fb6016b72d0f5ecd46f906c19d7271faf83c49d1d4df3a891fa",
                    "timestamp" : "0x54c99069",
                    "transactionsTrie" : "0x2b1f257ab8e110b505dfa58c4c03976e8283602c6480a817d99dbaa2add1f6b0",
                    "uncleHash" : "0x1dcc4de8dec75d7aab85b567b6ccd41ad312451b948a7413f0a142fd40d49347"
                },
                "transactions" : [
                    {
                        "data" : "0x",
                        "gasLimit" : "0x02bf20",
                        "gasPrice" : "0x01",
                        "nonce" : "0x00",
                        "r" : "0x50f65a228a62e41e0da34926b66d010d906ad92c0f5c9c3b5e800d824314e7d7",
                        "s" : "0x23710b86f790d387b6e5b83c5efb8babb184b7c2fe2d8a8bf02ce91ff98023cc",
                        "to" : "0x1000000000000000000000000000000000000001",
                        "v" : "0x1c",
                        "value" : "0x0a"
                    }
                ],
                "rlp" : "0xf90262f901faa04f6bbe0949f35683537dc3ff3a39d62e74a4257feaa0890d3939535099327a49a01dcc4de8dec75d7aab85b567b6ccd41ad312451b948a7413f0a142fd40d49347948888f1f195afa192cfee860698584c030f4c9db1a09736eac05ce23fb6016b72d0f5ecd46f906c19d7271faf83c49d1d4df3a891faa02b1f257ab8e110b505dfa58c4c03976e8283602c6480a817d99dbaa2add1f6b0a0500e94178628597ff3b5966efd1d2fa62f3e6c4477aef5ea5790d2aafe084f32b90100000000000000000000000000000000000000000000000000000000000000000000000000000000000000000000000000000000000000000000000000000000000000000000000000000000000000000000000000000000000000000000000000000000000000000000000000000000000000000000000000000000000000000000000000000000000000000000000000000000000000000000000000000000000000000000000000000000000000000000000000000000000000000000000000000000000000000000000000000000000000000000000000000000000000000000000000000000000000000000000000000000000000000000000000000000008302000001832ffbd28302bf208454c9906942a00000000000000000000000000000000000000000000000000000000000000000880000000000000000f862f86080018302bf209410000000000000000000000000000000000000010a801ca050f65a228a62e41e0da34926b66d010d906ad92c0f5c9c3b5e800d824314e7d7a023710b86f790d387b6e5b83c5efb8babb184b7c2fe2d8a8bf02ce91ff98023ccc0"
            },
            {
                "chainname" : "default",
                "blocknumber" : "2",
                "uncleHeaders" : [
                ],
                "blockHeader" : {
                    "bloom" : "0x00000000000000000000000000000000000000000000000000000000000000000000000000000000000000000000000000000000000000000000000000000000000000000000000000000000000000000000000000000000000000000000000000000000000000000000000000000000000000000000000000000000000000000000000000000000000000000000000000000000000000000000000000000000000000000000000000000000000000000000000000000000000000000000000000000000000000000000000000000000000000000000000000000000000000000000000000000000000000000000000000000000000000000000000000000000",
                    "coinbase" : "0x8888f1f195afa192cfee860698584c030f4c9db1",
                    "difficulty" : "0x020000",
                    "extraData" : "0x42",
                    "gasLimit" : "0x3007cf",
                    "gasUsed" : "0x5208",
                    "hash" : "0x4e7df3ce4891d26841fde15d9def627ab006edf23338e812d24ef28b253238f6",
                    "mixHash" : "0x0000000000000000000000000000000000000000000000000000000000000000",
                    "nonce" : "0x0000000000000000",
                    "number" : "0x02",
                    "parentHash" : "0xf25b112aa62f1440ae74090041bc0cc66b3d9e6c5e8ecce9184e29ec00aa5b3e",
                    "receiptTrie" : "0xb7eee3fe97b3ca462667318c748e18cf3d75edb108ca08b010b1d11a35a7c96d",
                    "stateRoot" : "0xe118bacb8844d77ed9b4e430b06c1d593dfec83f199e0e6f8fe8c6e75714582c",
                    "timestamp" : "0x54c99451",
                    "transactionsTrie" : "0x76c7a0ce7644661f276c76fb9a82eaee879d0642cf4ed244fc10afc02c646abf",
                    "uncleHash" : "0x1dcc4de8dec75d7aab85b567b6ccd41ad312451b948a7413f0a142fd40d49347"
                },
                "transactions" : [
                    {
                        "data" : "0x",
                        "gasLimit" : "0x7530",
                        "gasPrice" : "0x01",
                        "nonce" : "0x01",
                        "r" : "0xbb6e3cf3f281af13ef1393d7052b03cab367079a9eb71aa829ec72b231a60e1f",
                        "s" : "0x4bcfe1da53f26bb95806d38e9f42fef262aaaf5191e16ec473a695c8978a0b05",
                        "to" : "",
                        "v" : "0x1c",
                        "value" : "0x0a"
                    }
                ],
                "rlp" : "0xf9024cf901f9a0f25b112aa62f1440ae74090041bc0cc66b3d9e6c5e8ecce9184e29ec00aa5b3ea01dcc4de8dec75d7aab85b567b6ccd41ad312451b948a7413f0a142fd40d49347948888f1f195afa192cfee860698584c030f4c9db1a0e118bacb8844d77ed9b4e430b06c1d593dfec83f199e0e6f8fe8c6e75714582ca076c7a0ce7644661f276c76fb9a82eaee879d0642cf4ed244fc10afc02c646abfa0b7eee3fe97b3ca462667318c748e18cf3d75edb108ca08b010b1d11a35a7c96db90100000000000000000000000000000000000000000000000000000000000000000000000000000000000000000000000000000000000000000000000000000000000000000000000000000000000000000000000000000000000000000000000000000000000000000000000000000000000000000000000000000000000000000000000000000000000000000000000000000000000000000000000000000000000000000000000000000000000000000000000000000000000000000000000000000000000000000000000000000000000000000000000000000000000000000000000000000000000000000000000000000000000000000000000000000000008302000002833007cf8252088454c9945142a00000000000000000000000000000000000000000000000000000000000000000880000000000000000f84df84b0101827530800a801ca0bb6e3cf3f281af13ef1393d7052b03cab367079a9eb71aa829ec72b231a60e1fa04bcfe1da53f26bb95806d38e9f42fef262aaaf5191e16ec473a695c8978a0b05c0"
            },
            {
                "chainname" : "default",
                "blocknumber" : "3",
                "uncleHeaders" : [
                ],
                "blockHeader" : {
                    "bloom" : "0x00000000000000000000000000000000000000000000000000000000000000000000000000000000000000000000000000000000000000000000000000000000000000000000000000000000000000000000000000000000000000000000000000000000000000000000000000000000000000000000000000000000000000000000000000000000000000000000000000000000000000000000000000000000000000000000000000000000000000000000000000000000000000000000000000000000000000000000000000000000000000000000000000000000000000000000000000000000000000000000000000000000000000000000000000000000",
                    "coinbase" : "0x8888f1f195afa192cfee860698584c030f4c9db1",
                    "difficulty" : "0x020000",
                    "extraData" : "0x42",
                    "gasLimit" : "0x3013cf",
                    "gasUsed" : "0x5208",
                    "hash" : "0xd5256979a6fe1cb89a1d9c57a03c326a11c9e1bb32353947f965bda42e3ddedf",
                    "mixHash" : "0x0000000000000000000000000000000000000000000000000000000000000000",
                    "nonce" : "0x0000000000000000",
                    "number" : "0x03",
                    "parentHash" : "0x4e7df3ce4891d26841fde15d9def627ab006edf23338e812d24ef28b253238f6",
                    "receiptTrie" : "0x9964978b580b0574751fd7dee9bc9a0dae4f243bef403d352c12283918f4d781",
                    "stateRoot" : "0x36538487949b9efbf2dcd5fb58636cdb5a6050732983ae27f7f7d896737c7055",
                    "timestamp" : "0x54c99839",
                    "transactionsTrie" : "0x3798aa164b61e27b93484c76a5f319bd93c808dc78ef31cf8b93f4e1b248ca2c",
                    "uncleHash" : "0x1dcc4de8dec75d7aab85b567b6ccd41ad312451b948a7413f0a142fd40d49347"
                },
                "transactions" : [
                    {
                        "data" : "0x",
                        "gasLimit" : "0x7530",
                        "gasPrice" : "0x01",
                        "nonce" : "0x02",
                        "r" : "0xf6d884cae1f86bdff1281e95e416089c544a4a5578a75d5e8ad76118e341b055",
                        "s" : "0x75b7d88985ed5acd61f30c9f9570c6c33bb92f3ad1a32b86a0747817fbc5eded",
                        "to" : "",
                        "v" : "0x1c",
                        "value" : "0x0a"
                    }
                ],
                "rlp" : "0xf9024cf901f9a04e7df3ce4891d26841fde15d9def627ab006edf23338e812d24ef28b253238f6a01dcc4de8dec75d7aab85b567b6ccd41ad312451b948a7413f0a142fd40d49347948888f1f195afa192cfee860698584c030f4c9db1a036538487949b9efbf2dcd5fb58636cdb5a6050732983ae27f7f7d896737c7055a03798aa164b61e27b93484c76a5f319bd93c808dc78ef31cf8b93f4e1b248ca2ca09964978b580b0574751fd7dee9bc9a0dae4f243bef403d352c12283918f4d781b90100000000000000000000000000000000000000000000000000000000000000000000000000000000000000000000000000000000000000000000000000000000000000000000000000000000000000000000000000000000000000000000000000000000000000000000000000000000000000000000000000000000000000000000000000000000000000000000000000000000000000000000000000000000000000000000000000000000000000000000000000000000000000000000000000000000000000000000000000000000000000000000000000000000000000000000000000000000000000000000000000000000000000000000000000000000008302000003833013cf8252088454c9983942a00000000000000000000000000000000000000000000000000000000000000000880000000000000000f84df84b0201827530800a801ca0f6d884cae1f86bdff1281e95e416089c544a4a5578a75d5e8ad76118e341b055a075b7d88985ed5acd61f30c9f9570c6c33bb92f3ad1a32b86a0747817fbc5ededc0"
            },
            {
                "chainname" : "default",
                "blocknumber" : "4",
                "uncleHeaders" : [
                ],
                "blockHeader" : {
                    "bloom" : "0x00000000000000000000000000000000000000000000000000000000000000000000000000000000000000000000000000000000000000000000000000000000000000000000000000000000000000000000000000000000000000000000000000000000000000000000000000000000000000000000000000000000000000000000000000000000000000000000000000000000000000000000000000000000000000000000000000000000000000000000000000000000000000000000000000000000000000000000000000000000000000000000000000000000000000000000000000000000000000000000000000000000000000000000000000000000",
                    "coinbase" : "0x8888f1f195afa192cfee860698584c030f4c9db1",
                    "difficulty" : "0x020000",
                    "extraData" : "0x42",
                    "gasLimit" : "0x301fd2",
                    "gasUsed" : "0x5208",
                    "hash" : "0x57a6edf0b894b7f423c88d7b5bb1950b273e5f13ff5daab6436ac582359371f3",
                    "mixHash" : "0x0000000000000000000000000000000000000000000000000000000000000000",
                    "nonce" : "0x0000000000000000",
                    "number" : "0x04",
                    "parentHash" : "0xd5256979a6fe1cb89a1d9c57a03c326a11c9e1bb32353947f965bda42e3ddedf",
                    "receiptTrie" : "0x84f5d1483e8c4db0f664ff0376b6e22f1b3d3e12d3eb23691c618e67bf8db3b9",
                    "stateRoot" : "0x49d7890c190d80fb7a0f2f8f7a1086f78bdb80df1513ceca006c9d2e921b2f4b",
                    "timestamp" : "0x54c99c21",
                    "transactionsTrie" : "0x4cc1b34b3a9d29bf69842a54e1c48bc97afc433883f66d2c59287f118c9c3c2c",
                    "uncleHash" : "0x1dcc4de8dec75d7aab85b567b6ccd41ad312451b948a7413f0a142fd40d49347"
                },
                "transactions" : [
                    {
                        "data" : "0x",
                        "gasLimit" : "0x7530",
                        "gasPrice" : "0x01",
                        "nonce" : "0x03",
                        "r" : "0x753ee5d896db8d87fe850e7935418587277cd9c010dfaaf7dd09b0a2e73785dc",
                        "s" : "0x66deb3c241d532c7b880ae7a9a311ee7a92ef1c5e4e2bf3307990a2881bc13b0",
                        "to" : "",
                        "v" : "0x1c",
                        "value" : "0x0a"
                    }
                ],
                "rlp" : "0xf9024cf901f9a0d5256979a6fe1cb89a1d9c57a03c326a11c9e1bb32353947f965bda42e3ddedfa01dcc4de8dec75d7aab85b567b6ccd41ad312451b948a7413f0a142fd40d49347948888f1f195afa192cfee860698584c030f4c9db1a049d7890c190d80fb7a0f2f8f7a1086f78bdb80df1513ceca006c9d2e921b2f4ba04cc1b34b3a9d29bf69842a54e1c48bc97afc433883f66d2c59287f118c9c3c2ca084f5d1483e8c4db0f664ff0376b6e22f1b3d3e12d3eb23691c618e67bf8db3b9b9010000000000000000000000000000000000000000000000000000000000000000000000000000000000000000000000000000000000000000000000000000000000000000000000000000000000000000000000000000000000000000000000000000000000000000000000000000000000000000000000000000000000000000000000000000000000000000000000000000000000000000000000000000000000000000000000000000000000000000000000000000000000000000000000000000000000000000000000000000000000000000000000000000000000000000000000000000000000000000000000000000000000000000000000000000000000830200000483301fd28252088454c99c2142a00000000000000000000000000000000000000000000000000000000000000000880000000000000000f84df84b0301827530800a801ca0753ee5d896db8d87fe850e7935418587277cd9c010dfaaf7dd09b0a2e73785dca066deb3c241d532c7b880ae7a9a311ee7a92ef1c5e4e2bf3307990a2881bc13b0c0"
            },
            {
                "chainname" : "default",
                "blocknumber" : "5",
                "uncleHeaders" : [
                ],
                "blockHeader" : {
                    "bloom" : "0x00000000000000000000000000000000000000000000000000000000000000000000000000000000000000000000000000000000000000000000000000000000000000000000000000000000000000000000000000000000000000000000000000000000000000000000000000000000000000000000000000000000000000000000000000000000000000000000000000000000000000000000000000000000000000000000000000000000000000000000000000000000000000000000000000000000000000000000000000000000000000000000000000000000000000000000000000000000000000000000000000000000000000000000000000000000",
                    "coinbase" : "0x8888f1f195afa192cfee860698584c030f4c9db1",
                    "difficulty" : "0x020000",
                    "extraData" : "0x42",
                    "gasLimit" : "0x302bd8",
                    "gasUsed" : "0x0249f0",
                    "hash" : "0x5e1399154bb232d88b552d7031c22fd094e81bbf767ae7add0e133b8e5f652fc",
                    "mixHash" : "0x0000000000000000000000000000000000000000000000000000000000000000",
                    "nonce" : "0x0000000000000000",
                    "number" : "0x05",
                    "parentHash" : "0x57a6edf0b894b7f423c88d7b5bb1950b273e5f13ff5daab6436ac582359371f3",
                    "receiptTrie" : "0x48ad36e6433d463740d828c2a3691c3c710a23a4b8c37efe16d60bc876d917bd",
                    "stateRoot" : "0xd760df5c2c92aa993752c478f905e60142eb1c222fc77131e8f352b597b1f466",
                    "timestamp" : "0x54c9a009",
                    "transactionsTrie" : "0x705bc9dc486d29159172f7f3e388ba700912983236bba89c5dff01a192fd4fbb",
                    "uncleHash" : "0x1dcc4de8dec75d7aab85b567b6ccd41ad312451b948a7413f0a142fd40d49347"
                },
                "transactions" : [
                    {
                        "data" : "0x",
                        "gasLimit" : "0x0249f0",
                        "gasPrice" : "0x01",
                        "nonce" : "0x04",
                        "r" : "0x5513dee7da61e6d1368eb688ca17837ada7d245a529672a17be5ad83f706a8a7",
                        "s" : "0x78ea773fd796663e54b0165800ce92dc1190c645bddbb0f3debf4c962bfab4ff",
                        "to" : "0x1000000000000000000000000000000000000001",
                        "v" : "0x1b",
                        "value" : "0x0a"
                    }
                ],
                "rlp" : "0xf90262f901faa057a6edf0b894b7f423c88d7b5bb1950b273e5f13ff5daab6436ac582359371f3a01dcc4de8dec75d7aab85b567b6ccd41ad312451b948a7413f0a142fd40d49347948888f1f195afa192cfee860698584c030f4c9db1a0d760df5c2c92aa993752c478f905e60142eb1c222fc77131e8f352b597b1f466a0705bc9dc486d29159172f7f3e388ba700912983236bba89c5dff01a192fd4fbba048ad36e6433d463740d828c2a3691c3c710a23a4b8c37efe16d60bc876d917bdb9010000000000000000000000000000000000000000000000000000000000000000000000000000000000000000000000000000000000000000000000000000000000000000000000000000000000000000000000000000000000000000000000000000000000000000000000000000000000000000000000000000000000000000000000000000000000000000000000000000000000000000000000000000000000000000000000000000000000000000000000000000000000000000000000000000000000000000000000000000000000000000000000000000000000000000000000000000000000000000000000000000000000000000000000000000000000830200000583302bd8830249f08454c9a00942a00000000000000000000000000000000000000000000000000000000000000000880000000000000000f862f8600401830249f09410000000000000000000000000000000000000010a801ba05513dee7da61e6d1368eb688ca17837ada7d245a529672a17be5ad83f706a8a7a078ea773fd796663e54b0165800ce92dc1190c645bddbb0f3debf4c962bfab4ffc0"
            }
        ],
        "postState" : {
            "0xa94f5374fce5edbc8e2a8697c15331677e6ebf0b" : {
                "code" : "0x",
                "nonce" : "0x05",
                "balance" : "0x025405e4a6",
                "storage" : {
                }
            },
            "0x1000000000000000000000000000000000000001" : {
                "code" : "0x446001555a60025560206000600039602060006000f000",
                "nonce" : "0x02",
                "balance" : "0x02540be414",
                "storage" : {
                    "0x02" : "0x01e459",
                    "0x01" : "0x020000"
                }
            },
            "0x5dddfce53ee040d9eb21afbc0ae1bb4dbb0ba643" : {
                "code" : "0x",
                "nonce" : "0x01",
                "balance" : "0x00",
                "storage" : {
                    "0x02" : "0x01058c",
                    "0x01" : "0x020000"
                }
            },
            "0x0c243ebe6a031753dc0dd850acf422844a3efb76" : {
                "code" : "0x",
                "nonce" : "0x00",
                "balance" : "0x0a",
                "storage" : {
                }
            },
            "0x8888f1f195afa192cfee860698584c030f4c9db1" : {
                "code" : "0x",
                "nonce" : "0x00",
                "balance" : "0x015af1d78b58c9ff28",
                "storage" : {
                }
            },
            "0xec0e71ad0a90ffe1909d27dac207f7680abba42d" : {
                "code" : "0x",
                "nonce" : "0x00",
                "balance" : "0x0a",
                "storage" : {
                }
            },
            "0x248f0f0f33eadb89e9d87fd5c127f58567f3ffde" : {
                "code" : "0x",
                "nonce" : "0x00",
                "balance" : "0x0a",
                "storage" : {
                }
            },
            "0x5f8bd49cd9f0cb2bd5bb9d4320dfe9b61023249d" : {
                "code" : "0x",
                "nonce" : "0x01",
                "balance" : "0x00",
                "storage" : {
                    "0x02" : "0x01058c",
                    "0x01" : "0x020000"
                }
            }
        },
        "lastblockhash" : "0x5e1399154bb232d88b552d7031c22fd094e81bbf767ae7add0e133b8e5f652fc"
    }
}