{
    "callcodecallcallcode_ABCB_RECURSIVE_d0g0v0_Istanbul" : {
        "_info" : {
            "comment" : "",
            "filling-rpc-server" : "Geth-1.9.6-unstable-63b18027-20190920",
            "filling-tool-version" : "retesteth-0.0.1+commit.0ae18aef.Linux.g++",
            "lllcversion" : "Version: 0.5.12-develop.2019.9.13+commit.2d601a4f.Linux.g++",
            "source" : "src/GeneralStateTestsFiller/stCallCodes/callcodecallcallcode_ABCB_RECURSIVEFiller.json",
            "sourceHash" : "f7b969d94d6de974d5982194765e5c97cafbb0bea85be3180f2b9ada791fbb45"
        },
        "genesisBlockHeader" : {
            "bloom" : "0x00000000000000000000000000000000000000000000000000000000000000000000000000000000000000000000000000000000000000000000000000000000000000000000000000000000000000000000000000000000000000000000000000000000000000000000000000000000000000000000000000000000000000000000000000000000000000000000000000000000000000000000000000000000000000000000000000000000000000000000000000000000000000000000000000000000000000000000000000000000000000000000000000000000000000000000000000000000000000000000000000000000000000000000000000000000",
            "coinbase" : "0x2adc25665018aa1fe0e6bc666dac8fc2697ff9ba",
            "difficulty" : "0x20000",
            "extraData" : "0x00",
            "gasLimit" : "0xb2d05e00",
            "gasUsed" : "0x0",
            "hash" : "0x51f30bdf566e6c73d3fd0436de811516daa362a82c2e279fdf0dbacbfdaa417e",
            "mixHash" : "0x0000000000000000000000000000000000000000000000000000000000000000",
            "nonce" : "0x0000000000000000",
            "number" : "0x0",
            "parentHash" : "0x0000000000000000000000000000000000000000000000000000000000000000",
            "receiptTrie" : "0x56e81f171bcc55a6ff8345e692c0f86e5b48e01b996cadc001622fb5e363b421",
            "stateRoot" : "0x29015d0c9bc72d3dd0f9384d14d2c52253ae4f7719a7f2a2a8df689a7f42e05f",
            "timestamp" : "0x0",
            "transactionsTrie" : "0x56e81f171bcc55a6ff8345e692c0f86e5b48e01b996cadc001622fb5e363b421",
            "uncleHash" : "0x1dcc4de8dec75d7aab85b567b6ccd41ad312451b948a7413f0a142fd40d49347"
        },
        "pre" : {
            "0x1000000000000000000000000000000000000000" : {
                "balance" : "0x0de0b6b3a7640000",
                "code" : "0x6040600060406000600073100000000000000000000000000000000000000163017d7840f260005500",
                "nonce" : "0x00",
                "storage" : {
                }
            },
            "0x1000000000000000000000000000000000000001" : {
                "balance" : "0x02540be400",
                "code" : "0x60406000604060006000731000000000000000000000000000000000000002620f4240f160015500",
                "nonce" : "0x00",
                "storage" : {
                }
            },
            "0x1000000000000000000000000000000000000002" : {
                "balance" : "0x02540be400",
                "code" : "0x604060006040600060007310000000000000000000000000000000000000016207a120f260025500",
                "nonce" : "0x00",
                "storage" : {
                }
            },
            "0xa94f5374fce5edbc8e2a8697c15331677e6ebf0b" : {
                "balance" : "0x0de0b6b3a7640000",
                "code" : "0x",
                "nonce" : "0x00",
                "storage" : {
                }
            }
        },
        "postState" : {
            "0xa94f5374fce5edbc8e2a8697c15331677e6ebf0b" : {
                "code" : "0x",
                "nonce" : "0x01",
                "balance" : "0x0de0b6b3a75b64ea",
                "storage" : {
                }
            },
            "0x1000000000000000000000000000000000000001" : {
                "code" : "0x60406000604060006000731000000000000000000000000000000000000002620f4240f160015500",
                "nonce" : "0x00",
                "balance" : "0x02540be400",
                "storage" : {
                }
            },
            "0x2adc25665018aa1fe0e6bc666dac8fc2697ff9ba" : {
                "code" : "0x",
                "nonce" : "0x00",
                "balance" : "0x1bc16d674ed09b16",
                "storage" : {
                }
            },
            "0x1000000000000000000000000000000000000002" : {
                "code" : "0x604060006040600060007310000000000000000000000000000000000000016207a120f260025500",
                "nonce" : "0x00",
                "balance" : "0x02540be400",
                "storage" : {
                }
            },
            "0x1000000000000000000000000000000000000000" : {
                "code" : "0x6040600060406000600073100000000000000000000000000000000000000163017d7840f260005500",
                "nonce" : "0x00",
                "balance" : "0x0de0b6b3a7640000",
                "storage" : {
                    "0x00" : "0x01",
                    "0x01" : "0x01"
                }
            }
        },
        "network" : "Istanbul",
        "sealEngine" : "NoProof",
        "lastblockhash" : "0x36339be1fabddf0bb98e37abd4ec0d6605eb0a444cd1620ecada5ab861720180",
        "genesisRLP" : "0xf901f9f901f4a00000000000000000000000000000000000000000000000000000000000000000a01dcc4de8dec75d7aab85b567b6ccd41ad312451b948a7413f0a142fd40d49347942adc25665018aa1fe0e6bc666dac8fc2697ff9baa029015d0c9bc72d3dd0f9384d14d2c52253ae4f7719a7f2a2a8df689a7f42e05fa056e81f171bcc55a6ff8345e692c0f86e5b48e01b996cadc001622fb5e363b421a056e81f171bcc55a6ff8345e692c0f86e5b48e01b996cadc001622fb5e363b421b9010000000000000000000000000000000000000000000000000000000000000000000000000000000000000000000000000000000000000000000000000000000000000000000000000000000000000000000000000000000000000000000000000000000000000000000000000000000000000000000000000000000000000000000000000000000000000000000000000000000000000000000000000000000000000000000000000000000000000000000000000000000000000000000000000000000000000000000000000000000000000000000000000000000000000000000000000000000000000000000000000000000000000000000000000000000000830200008084b2d05e00808000a00000000000000000000000000000000000000000000000000000000000000000880000000000000000c0c0",
        "blocks" : [
            {
                "rlp" : "0xf90262f901f9a051f30bdf566e6c73d3fd0436de811516daa362a82c2e279fdf0dbacbfdaa417ea01dcc4de8dec75d7aab85b567b6ccd41ad312451b948a7413f0a142fd40d49347942adc25665018aa1fe0e6bc666dac8fc2697ff9baa0ef05765b524dee6802f7baab9e2cc6ce122d9994227e879662f99c97ddd00930a06488b1eb775a36511b144fdf6f3b4ac280e5c90ef7ff99c833b5648a1a534477a00a1b590d74d73e0d1ff09f27bd05228cb2295fb2e612dd6082396d007a0cb461b9010000000000000000000000000000000000000000000000000000000000000000000000000000000000000000000000000000000000000000000000000000000000000000000000000000000000000000000000000000000000000000000000000000000000000000000000000000000000000000000000000000000000000000000000000000000000000000000000000000000000000000000000000000000000000000000000000000000000000000000000000000000000000000000000000000000000000000000000000000000000000000000000000000000000000000000000000000000000000000000000000000000000000000000000000000000000830200000184b2fd121683089b168203e800a00000000000000000000000000000000000000000000000000000000000000000880000000000000000f863f86180018401c9c38094100000000000000000000000000000000000000080801ca03e4d54de189f528bc53f0d074377af1163f9485eed1f8cd3d16c476e147b426ba05c69650f46a2a5ef790ba203bbf1c4762eed89071ff84d32035517d09e836e33c0",
                "blockHeader" : {
                    "bloom" : "0x00000000000000000000000000000000000000000000000000000000000000000000000000000000000000000000000000000000000000000000000000000000000000000000000000000000000000000000000000000000000000000000000000000000000000000000000000000000000000000000000000000000000000000000000000000000000000000000000000000000000000000000000000000000000000000000000000000000000000000000000000000000000000000000000000000000000000000000000000000000000000000000000000000000000000000000000000000000000000000000000000000000000000000000000000000000",
                    "coinbase" : "0x2adc25665018aa1fe0e6bc666dac8fc2697ff9ba",
                    "difficulty" : "0x20000",
                    "extraData" : "0x00",
                    "gasLimit" : "0xb2fd1216",
                    "gasUsed" : "0x89b16",
                    "hash" : "0x36339be1fabddf0bb98e37abd4ec0d6605eb0a444cd1620ecada5ab861720180",
                    "mixHash" : "0x0000000000000000000000000000000000000000000000000000000000000000",
                    "nonce" : "0x0000000000000000",
                    "number" : "0x1",
                    "parentHash" : "0x51f30bdf566e6c73d3fd0436de811516daa362a82c2e279fdf0dbacbfdaa417e",
                    "receiptTrie" : "0x0a1b590d74d73e0d1ff09f27bd05228cb2295fb2e612dd6082396d007a0cb461",
                    "stateRoot" : "0xef05765b524dee6802f7baab9e2cc6ce122d9994227e879662f99c97ddd00930",
                    "timestamp" : "0x3e8",
                    "transactionsTrie" : "0x6488b1eb775a36511b144fdf6f3b4ac280e5c90ef7ff99c833b5648a1a534477",
                    "uncleHash" : "0x1dcc4de8dec75d7aab85b567b6ccd41ad312451b948a7413f0a142fd40d49347"
                },
                "transactions" : [
                    {
                        "data" : "0x",
                        "gasLimit" : "0x01c9c380",
                        "gasPrice" : "0x01",
                        "nonce" : "0x00",
                        "to" : "0x1000000000000000000000000000000000000000",
                        "value" : "0x00",
                        "v" : "0x1c",
                        "r" : "0x3e4d54de189f528bc53f0d074377af1163f9485eed1f8cd3d16c476e147b426b",
                        "s" : "0x5c69650f46a2a5ef790ba203bbf1c4762eed89071ff84d32035517d09e836e33"
                    }
                ]
            }
        ]
    }
}