{
    "modexp_modsize0_returndatasize_d0g0v0_Istanbul" : {
        "_info" : {
            "comment" : "",
            "filling-rpc-server" : "Geth-1.9.6-unstable-63b18027-20190920",
            "filling-tool-version" : "retesteth-0.0.1+commit.0ae18aef.Linux.g++",
            "lllcversion" : "Version: 0.5.12-develop.2019.9.13+commit.2d601a4f.Linux.g++",
            "source" : "src/GeneralStateTestsFiller/stReturnDataTest/modexp_modsize0_returndatasizeFiller.json",
            "sourceHash" : "7c46f51af8c21fcb0700c558f8467f29b336ded8dddcc9ef71395b4000303c1b"
        },
        "genesisBlockHeader" : {
            "bloom" : "0x00000000000000000000000000000000000000000000000000000000000000000000000000000000000000000000000000000000000000000000000000000000000000000000000000000000000000000000000000000000000000000000000000000000000000000000000000000000000000000000000000000000000000000000000000000000000000000000000000000000000000000000000000000000000000000000000000000000000000000000000000000000000000000000000000000000000000000000000000000000000000000000000000000000000000000000000000000000000000000000000000000000000000000000000000000000",
            "coinbase" : "0x2adc25665018aa1fe0e6bc666dac8fc2697ff9ba",
            "difficulty" : "0x20000",
            "extraData" : "0x00",
            "gasLimit" : "0x174876e800",
            "gasUsed" : "0x0",
            "hash" : "0xe2213ca4cb753667bddcf997c08faec75d170e926c2e7885ded64bc6c7ac171f",
            "mixHash" : "0x0000000000000000000000000000000000000000000000000000000000000000",
            "nonce" : "0x0000000000000000",
            "number" : "0x0",
            "parentHash" : "0x0000000000000000000000000000000000000000000000000000000000000000",
            "receiptTrie" : "0x56e81f171bcc55a6ff8345e692c0f86e5b48e01b996cadc001622fb5e363b421",
            "stateRoot" : "0x5e110890a7540be4bdf3b4e8643d9944aee18faa491ba362a22c6822222488a1",
            "timestamp" : "0x0",
            "transactionsTrie" : "0x56e81f171bcc55a6ff8345e692c0f86e5b48e01b996cadc001622fb5e363b421",
            "uncleHash" : "0x1dcc4de8dec75d7aab85b567b6ccd41ad312451b948a7413f0a142fd40d49347"
        },
        "pre" : {
            "0x1000000000000000000000000000000000000000" : {
                "balance" : "0x00",
                "code" : "0x36600060003760206103e8366000600060055af26001556103e8516002553d60035500",
                "nonce" : "0x00",
                "storage" : {
                    "0x03" : "0xffffffff"
                }
            },
            "0xa94f5374fce5edbc8e2a8697c15331677e6ebf0b" : {
                "balance" : "0x3635c9adc5dea00000",
                "code" : "0x",
                "nonce" : "0x00",
                "storage" : {
                }
            }
        },
        "postState" : {
            "0xa94f5374fce5edbc8e2a8697c15331677e6ebf0b" : {
                "code" : "0x",
                "nonce" : "0x01",
                "balance" : "0x3635c9adc5de9f7eb4",
                "storage" : {
                }
            },
            "0x2adc25665018aa1fe0e6bc666dac8fc2697ff9ba" : {
                "code" : "0x",
                "nonce" : "0x00",
                "balance" : "0x1bc16d674ec8814c",
                "storage" : {
                }
            },
            "0x1000000000000000000000000000000000000000" : {
                "code" : "0x36600060003760206103e8366000600060055af26001556103e8516002553d60035500",
                "nonce" : "0x00",
                "balance" : "0x00",
                "storage" : {
                    "0x01" : "0x01"
                }
            }
        },
        "network" : "Istanbul",
        "sealEngine" : "NoProof",
        "lastblockhash" : "0x6874ce685a954b3d8b61745a1f64f169b69dbfd7f8fc122fea2f54aa8c8506a5",
        "genesisRLP" : "0xf901faf901f5a00000000000000000000000000000000000000000000000000000000000000000a01dcc4de8dec75d7aab85b567b6ccd41ad312451b948a7413f0a142fd40d49347942adc25665018aa1fe0e6bc666dac8fc2697ff9baa05e110890a7540be4bdf3b4e8643d9944aee18faa491ba362a22c6822222488a1a056e81f171bcc55a6ff8345e692c0f86e5b48e01b996cadc001622fb5e363b421a056e81f171bcc55a6ff8345e692c0f86e5b48e01b996cadc001622fb5e363b421b9010000000000000000000000000000000000000000000000000000000000000000000000000000000000000000000000000000000000000000000000000000000000000000000000000000000000000000000000000000000000000000000000000000000000000000000000000000000000000000000000000000000000000000000000000000000000000000000000000000000000000000000000000000000000000000000000000000000000000000000000000000000000000000000000000000000000000000000000000000000000000000000000000000000000000000000000000000000000000000000000000000000000000000000000000000000000830200008085174876e800808000a00000000000000000000000000000000000000000000000000000000000000000880000000000000000c0c0",
        "blocks" : [
            {
                "rlp" : "0xf902c5f901f9a0e2213ca4cb753667bddcf997c08faec75d170e926c2e7885ded64bc6c7ac171fa01dcc4de8dec75d7aab85b567b6ccd41ad312451b948a7413f0a142fd40d49347942adc25665018aa1fe0e6bc666dac8fc2697ff9baa0c13032800dcc8dba32da6cd6d5ca231e21c05736628f8c442f431ecb10129689a0d977f18d8495d9fb580da82f7236ca25aa2c614233467cf41d40eabced6e8c72a0d0e4c26ae93733bef4eb5224fd426806828706e79797ce2e2d272dfadec29adcb9010000000000000000000000000000000000000000000000000000000000000000000000000000000000000000000000000000000000000000000000000000000000000000000000000000000000000000000000000000000000000000000000000000000000000000000000000000000000000000000000000000000000000000000000000000000000000000000000000000000000000000000000000000000000000000000000000000000000000000000000000000000000000000000000000000000000000000000000000000000000000000000000000000000000000000000000000000000000000000000000000000000000000000000000000000000000830200000185174e4905b982814c8203e800a00000000000000000000000000000000000000000000000000000000000000000880000000000000000f8c6f8c48001843b9aca0094100000000000000000000000000000000000000080b86200000000000000000000000000000000000000000000000000000000000000010000000000000000000000000000000000000000000000000000000000000001000000000000000000000000000000000000000000000000000000000000000001011ba0bf7d44bcf54721cd5b3d85cd48f1dcdaafb3df1d19c18178b590d57f1df0d272a02ee34d77c67a90791f4dd2d78995decbdc630b8a91a1e686c5948be6ef0244c3c0",
                "blockHeader" : {
                    "bloom" : "0x00000000000000000000000000000000000000000000000000000000000000000000000000000000000000000000000000000000000000000000000000000000000000000000000000000000000000000000000000000000000000000000000000000000000000000000000000000000000000000000000000000000000000000000000000000000000000000000000000000000000000000000000000000000000000000000000000000000000000000000000000000000000000000000000000000000000000000000000000000000000000000000000000000000000000000000000000000000000000000000000000000000000000000000000000000000",
                    "coinbase" : "0x2adc25665018aa1fe0e6bc666dac8fc2697ff9ba",
                    "difficulty" : "0x20000",
                    "extraData" : "0x00",
                    "gasLimit" : "0x174e4905b9",
                    "gasUsed" : "0x814c",
                    "hash" : "0x6874ce685a954b3d8b61745a1f64f169b69dbfd7f8fc122fea2f54aa8c8506a5",
                    "mixHash" : "0x0000000000000000000000000000000000000000000000000000000000000000",
                    "nonce" : "0x0000000000000000",
                    "number" : "0x1",
                    "parentHash" : "0xe2213ca4cb753667bddcf997c08faec75d170e926c2e7885ded64bc6c7ac171f",
                    "receiptTrie" : "0xd0e4c26ae93733bef4eb5224fd426806828706e79797ce2e2d272dfadec29adc",
                    "stateRoot" : "0xc13032800dcc8dba32da6cd6d5ca231e21c05736628f8c442f431ecb10129689",
                    "timestamp" : "0x3e8",
                    "transactionsTrie" : "0xd977f18d8495d9fb580da82f7236ca25aa2c614233467cf41d40eabced6e8c72",
                    "uncleHash" : "0x1dcc4de8dec75d7aab85b567b6ccd41ad312451b948a7413f0a142fd40d49347"
                },
                "transactions" : [
                    {
                        "data" : "0x0000000000000000000000000000000000000000000000000000000000000001000000000000000000000000000000000000000000000000000000000000000100000000000000000000000000000000000000000000000000000000000000000101",
                        "gasLimit" : "0x3b9aca00",
                        "gasPrice" : "0x01",
                        "nonce" : "0x00",
                        "to" : "0x1000000000000000000000000000000000000000",
                        "value" : "0x00",
                        "v" : "0x1b",
                        "r" : "0xbf7d44bcf54721cd5b3d85cd48f1dcdaafb3df1d19c18178b590d57f1df0d272",
                        "s" : "0x2ee34d77c67a90791f4dd2d78995decbdc630b8a91a1e686c5948be6ef0244c3"
                    }
                ]
            }
        ]
    },
    "modexp_modsize0_returndatasize_d1g0v0_Istanbul" : {
        "_info" : {
            "comment" : "",
            "filling-rpc-server" : "Geth-1.9.6-unstable-63b18027-20190920",
            "filling-tool-version" : "retesteth-0.0.1+commit.0ae18aef.Linux.g++",
            "lllcversion" : "Version: 0.5.12-develop.2019.9.13+commit.2d601a4f.Linux.g++",
            "source" : "src/GeneralStateTestsFiller/stReturnDataTest/modexp_modsize0_returndatasizeFiller.json",
            "sourceHash" : "7c46f51af8c21fcb0700c558f8467f29b336ded8dddcc9ef71395b4000303c1b"
        },
        "genesisBlockHeader" : {
            "bloom" : "0x00000000000000000000000000000000000000000000000000000000000000000000000000000000000000000000000000000000000000000000000000000000000000000000000000000000000000000000000000000000000000000000000000000000000000000000000000000000000000000000000000000000000000000000000000000000000000000000000000000000000000000000000000000000000000000000000000000000000000000000000000000000000000000000000000000000000000000000000000000000000000000000000000000000000000000000000000000000000000000000000000000000000000000000000000000000",
            "coinbase" : "0x2adc25665018aa1fe0e6bc666dac8fc2697ff9ba",
            "difficulty" : "0x20000",
            "extraData" : "0x00",
            "gasLimit" : "0x174876e800",
            "gasUsed" : "0x0",
            "hash" : "0xe2213ca4cb753667bddcf997c08faec75d170e926c2e7885ded64bc6c7ac171f",
            "mixHash" : "0x0000000000000000000000000000000000000000000000000000000000000000",
            "nonce" : "0x0000000000000000",
            "number" : "0x0",
            "parentHash" : "0x0000000000000000000000000000000000000000000000000000000000000000",
            "receiptTrie" : "0x56e81f171bcc55a6ff8345e692c0f86e5b48e01b996cadc001622fb5e363b421",
            "stateRoot" : "0x5e110890a7540be4bdf3b4e8643d9944aee18faa491ba362a22c6822222488a1",
            "timestamp" : "0x0",
            "transactionsTrie" : "0x56e81f171bcc55a6ff8345e692c0f86e5b48e01b996cadc001622fb5e363b421",
            "uncleHash" : "0x1dcc4de8dec75d7aab85b567b6ccd41ad312451b948a7413f0a142fd40d49347"
        },
        "pre" : {
            "0x1000000000000000000000000000000000000000" : {
                "balance" : "0x00",
                "code" : "0x36600060003760206103e8366000600060055af26001556103e8516002553d60035500",
                "nonce" : "0x00",
                "storage" : {
                    "0x03" : "0xffffffff"
                }
            },
            "0xa94f5374fce5edbc8e2a8697c15331677e6ebf0b" : {
                "balance" : "0x3635c9adc5dea00000",
                "code" : "0x",
                "nonce" : "0x00",
                "storage" : {
                }
            }
        },
        "postState" : {
            "0xa94f5374fce5edbc8e2a8697c15331677e6ebf0b" : {
                "code" : "0x",
                "nonce" : "0x01",
                "balance" : "0x3635c9adc5de9f4400",
                "storage" : {
                }
            },
            "0x2adc25665018aa1fe0e6bc666dac8fc2697ff9ba" : {
                "code" : "0x",
                "nonce" : "0x00",
                "balance" : "0x1bc16d674ec8bc00",
                "storage" : {
                }
            },
            "0x1000000000000000000000000000000000000000" : {
                "code" : "0x36600060003760206103e8366000600060055af26001556103e8516002553d60035500",
                "nonce" : "0x00",
                "balance" : "0x00",
                "storage" : {
                    "0x01" : "0x01",
                    "0x03" : "0x01"
                }
            }
        },
        "network" : "Istanbul",
        "sealEngine" : "NoProof",
        "lastblockhash" : "0x6e48289d7728cd1e98e95def47e1c41f03924d41831d430d381b09c2080856aa",
        "genesisRLP" : "0xf901faf901f5a00000000000000000000000000000000000000000000000000000000000000000a01dcc4de8dec75d7aab85b567b6ccd41ad312451b948a7413f0a142fd40d49347942adc25665018aa1fe0e6bc666dac8fc2697ff9baa05e110890a7540be4bdf3b4e8643d9944aee18faa491ba362a22c6822222488a1a056e81f171bcc55a6ff8345e692c0f86e5b48e01b996cadc001622fb5e363b421a056e81f171bcc55a6ff8345e692c0f86e5b48e01b996cadc001622fb5e363b421b9010000000000000000000000000000000000000000000000000000000000000000000000000000000000000000000000000000000000000000000000000000000000000000000000000000000000000000000000000000000000000000000000000000000000000000000000000000000000000000000000000000000000000000000000000000000000000000000000000000000000000000000000000000000000000000000000000000000000000000000000000000000000000000000000000000000000000000000000000000000000000000000000000000000000000000000000000000000000000000000000000000000000000000000000000000000000830200008085174876e800808000a00000000000000000000000000000000000000000000000000000000000000000880000000000000000c0c0",
        "blocks" : [
            {
                "rlp" : "0xf902c6f901f9a0e2213ca4cb753667bddcf997c08faec75d170e926c2e7885ded64bc6c7ac171fa01dcc4de8dec75d7aab85b567b6ccd41ad312451b948a7413f0a142fd40d49347942adc25665018aa1fe0e6bc666dac8fc2697ff9baa0f3bc36affeb266ce0b0719aa1b4376fd363baa6d3704331169c81c91b84dc45ba0b0b397edae712bb9b52b0d78212da71533e7b04cfa32277481bf14fe12fa40d6a0585ff282ba6dbdb669e3fa7e5ba761753c437bdf4eae7cadfbf1158a40188393b9010000000000000000000000000000000000000000000000000000000000000000000000000000000000000000000000000000000000000000000000000000000000000000000000000000000000000000000000000000000000000000000000000000000000000000000000000000000000000000000000000000000000000000000000000000000000000000000000000000000000000000000000000000000000000000000000000000000000000000000000000000000000000000000000000000000000000000000000000000000000000000000000000000000000000000000000000000000000000000000000000000000000000000000000000000000000830200000185174e4905b982bc008203e800a00000000000000000000000000000000000000000000000000000000000000000880000000000000000f8c7f8c58001843b9aca0094100000000000000000000000000000000000000080b8630000000000000000000000000000000000000000000000000000000000000001000000000000000000000000000000000000000000000000000000000000000100000000000000000000000000000000000000000000000000000000000000010101011ba021a3e7f8f3164bb36bc28fa22d816937bdd3f05013ff9f074a30475ee4eccb67a00e475df82d7dd3ba9242cbcb32d3ad4dea0e14db40b1d5197f6576326d25854cc0",
                "blockHeader" : {
                    "bloom" : "0x00000000000000000000000000000000000000000000000000000000000000000000000000000000000000000000000000000000000000000000000000000000000000000000000000000000000000000000000000000000000000000000000000000000000000000000000000000000000000000000000000000000000000000000000000000000000000000000000000000000000000000000000000000000000000000000000000000000000000000000000000000000000000000000000000000000000000000000000000000000000000000000000000000000000000000000000000000000000000000000000000000000000000000000000000000000",
                    "coinbase" : "0x2adc25665018aa1fe0e6bc666dac8fc2697ff9ba",
                    "difficulty" : "0x20000",
                    "extraData" : "0x00",
                    "gasLimit" : "0x174e4905b9",
                    "gasUsed" : "0xbc00",
                    "hash" : "0x6e48289d7728cd1e98e95def47e1c41f03924d41831d430d381b09c2080856aa",
                    "mixHash" : "0x0000000000000000000000000000000000000000000000000000000000000000",
                    "nonce" : "0x0000000000000000",
                    "number" : "0x1",
                    "parentHash" : "0xe2213ca4cb753667bddcf997c08faec75d170e926c2e7885ded64bc6c7ac171f",
                    "receiptTrie" : "0x585ff282ba6dbdb669e3fa7e5ba761753c437bdf4eae7cadfbf1158a40188393",
                    "stateRoot" : "0xf3bc36affeb266ce0b0719aa1b4376fd363baa6d3704331169c81c91b84dc45b",
                    "timestamp" : "0x3e8",
                    "transactionsTrie" : "0xb0b397edae712bb9b52b0d78212da71533e7b04cfa32277481bf14fe12fa40d6",
                    "uncleHash" : "0x1dcc4de8dec75d7aab85b567b6ccd41ad312451b948a7413f0a142fd40d49347"
                },
                "transactions" : [
                    {
                        "data" : "0x000000000000000000000000000000000000000000000000000000000000000100000000000000000000000000000000000000000000000000000000000000010000000000000000000000000000000000000000000000000000000000000001010101",
                        "gasLimit" : "0x3b9aca00",
                        "gasPrice" : "0x01",
                        "nonce" : "0x00",
                        "to" : "0x1000000000000000000000000000000000000000",
                        "value" : "0x00",
                        "v" : "0x1b",
                        "r" : "0x21a3e7f8f3164bb36bc28fa22d816937bdd3f05013ff9f074a30475ee4eccb67",
                        "s" : "0x0e475df82d7dd3ba9242cbcb32d3ad4dea0e14db40b1d5197f6576326d25854c"
                    }
                ]
            }
        ]
    },
    "modexp_modsize0_returndatasize_d2g0v0_Istanbul" : {
        "_info" : {
            "comment" : "",
            "filling-rpc-server" : "Geth-1.9.6-unstable-63b18027-20190920",
            "filling-tool-version" : "retesteth-0.0.1+commit.0ae18aef.Linux.g++",
            "lllcversion" : "Version: 0.5.12-develop.2019.9.13+commit.2d601a4f.Linux.g++",
            "source" : "src/GeneralStateTestsFiller/stReturnDataTest/modexp_modsize0_returndatasizeFiller.json",
            "sourceHash" : "7c46f51af8c21fcb0700c558f8467f29b336ded8dddcc9ef71395b4000303c1b"
        },
        "genesisBlockHeader" : {
            "bloom" : "0x00000000000000000000000000000000000000000000000000000000000000000000000000000000000000000000000000000000000000000000000000000000000000000000000000000000000000000000000000000000000000000000000000000000000000000000000000000000000000000000000000000000000000000000000000000000000000000000000000000000000000000000000000000000000000000000000000000000000000000000000000000000000000000000000000000000000000000000000000000000000000000000000000000000000000000000000000000000000000000000000000000000000000000000000000000000",
            "coinbase" : "0x2adc25665018aa1fe0e6bc666dac8fc2697ff9ba",
            "difficulty" : "0x20000",
            "extraData" : "0x00",
            "gasLimit" : "0x174876e800",
            "gasUsed" : "0x0",
            "hash" : "0xe2213ca4cb753667bddcf997c08faec75d170e926c2e7885ded64bc6c7ac171f",
            "mixHash" : "0x0000000000000000000000000000000000000000000000000000000000000000",
            "nonce" : "0x0000000000000000",
            "number" : "0x0",
            "parentHash" : "0x0000000000000000000000000000000000000000000000000000000000000000",
            "receiptTrie" : "0x56e81f171bcc55a6ff8345e692c0f86e5b48e01b996cadc001622fb5e363b421",
            "stateRoot" : "0x5e110890a7540be4bdf3b4e8643d9944aee18faa491ba362a22c6822222488a1",
            "timestamp" : "0x0",
            "transactionsTrie" : "0x56e81f171bcc55a6ff8345e692c0f86e5b48e01b996cadc001622fb5e363b421",
            "uncleHash" : "0x1dcc4de8dec75d7aab85b567b6ccd41ad312451b948a7413f0a142fd40d49347"
        },
        "pre" : {
            "0x1000000000000000000000000000000000000000" : {
                "balance" : "0x00",
                "code" : "0x36600060003760206103e8366000600060055af26001556103e8516002553d60035500",
                "nonce" : "0x00",
                "storage" : {
                    "0x03" : "0xffffffff"
                }
            },
            "0xa94f5374fce5edbc8e2a8697c15331677e6ebf0b" : {
                "balance" : "0x3635c9adc5dea00000",
                "code" : "0x",
                "nonce" : "0x00",
                "storage" : {
                }
            }
        },
        "postState" : {
            "0xa94f5374fce5edbc8e2a8697c15331677e6ebf0b" : {
                "code" : "0x",
                "nonce" : "0x01",
                "balance" : "0x3635c9adc5de99bbb7",
                "storage" : {
                }
            },
            "0x2adc25665018aa1fe0e6bc666dac8fc2697ff9ba" : {
                "code" : "0x",
                "nonce" : "0x00",
                "balance" : "0x1bc16d674ece4449",
                "storage" : {
                }
            },
            "0x1000000000000000000000000000000000000000" : {
                "code" : "0x36600060003760206103e8366000600060055af26001556103e8516002553d60035500",
                "nonce" : "0x00",
                "balance" : "0x00",
                "storage" : {
                    "0x01" : "0x01",
                    "0x03" : "0x64"
                }
            }
        },
        "network" : "Istanbul",
        "sealEngine" : "NoProof",
        "lastblockhash" : "0xb75a58dcb082d5d2a755aed232ca8568cbb81bfb978018797dba2acfd98295f8",
        "genesisRLP" : "0xf901faf901f5a00000000000000000000000000000000000000000000000000000000000000000a01dcc4de8dec75d7aab85b567b6ccd41ad312451b948a7413f0a142fd40d49347942adc25665018aa1fe0e6bc666dac8fc2697ff9baa05e110890a7540be4bdf3b4e8643d9944aee18faa491ba362a22c6822222488a1a056e81f171bcc55a6ff8345e692c0f86e5b48e01b996cadc001622fb5e363b421a056e81f171bcc55a6ff8345e692c0f86e5b48e01b996cadc001622fb5e363b421b9010000000000000000000000000000000000000000000000000000000000000000000000000000000000000000000000000000000000000000000000000000000000000000000000000000000000000000000000000000000000000000000000000000000000000000000000000000000000000000000000000000000000000000000000000000000000000000000000000000000000000000000000000000000000000000000000000000000000000000000000000000000000000000000000000000000000000000000000000000000000000000000000000000000000000000000000000000000000000000000000000000000000000000000000000000000000830200008085174876e800808000a00000000000000000000000000000000000000000000000000000000000000000880000000000000000c0c0",
        "blocks" : [
            {
                "rlp" : "0xf9035cf901faa0e2213ca4cb753667bddcf997c08faec75d170e926c2e7885ded64bc6c7ac171fa01dcc4de8dec75d7aab85b567b6ccd41ad312451b948a7413f0a142fd40d49347942adc25665018aa1fe0e6bc666dac8fc2697ff9baa00b89ce373ba3a9a0656f1e9f2225732af0979dff60baa493dd18ef06fa8cd549a09d21f4af34032fbf31674d789a7b1633934f5810fbaf441fc16ecc089e104fcaa0496471509b4c81f6618c2f94d073a70f6bd3a0f18b15d963560ace7502e6a0a3b9010000000000000000000000000000000000000000000000000000000000000000000000000000000000000000000000000000000000000000000000000000000000000000000000000000000000000000000000000000000000000000000000000000000000000000000000000000000000000000000000000000000000000000000000000000000000000000000000000000000000000000000000000000000000000000000000000000000000000000000000000000000000000000000000000000000000000000000000000000000000000000000000000000000000000000000000000000000000000000000000000000000000000000000000000000000000830200000185174e4905b9830644498203e800a00000000000000000000000000000000000000000000000000000000000000000880000000000000000f9015bf901588001843b9aca0094100000000000000000000000000000000000000080b8f60000000000000000000000000000000000000000000000000000000000000064000000000000000000000000000000000000000000000000000000000000006400000000000000000000000000000000000000000000000000000000000000645442ddc2b70f66c1f6d2b296c0a875be7eddd0a80958cbc7425f1899ccf90511a5c318226e48ee23f130b44dc17a691ce66be5da18b85ed7943535b205aa125e9f59294a00f05155c23e97dac6b3a00b0c63c8411bf815fc183b420b4d9dc5f715040d5c60957f52d334b843197adec58c131c907cd96059fc5adce9dda351b5df3d666fcf3eb63c46851c1816e323f2119ebdf5ef351ba0d7626012a49ca55264278711e43754f8861fb4dcd0278040996c6d97bbffcca3a07f4e9dc6430113728256789908564c974bb33c8e4197862da608c0464e223ff9c0",
                "blockHeader" : {
                    "bloom" : "0x00000000000000000000000000000000000000000000000000000000000000000000000000000000000000000000000000000000000000000000000000000000000000000000000000000000000000000000000000000000000000000000000000000000000000000000000000000000000000000000000000000000000000000000000000000000000000000000000000000000000000000000000000000000000000000000000000000000000000000000000000000000000000000000000000000000000000000000000000000000000000000000000000000000000000000000000000000000000000000000000000000000000000000000000000000000",
                    "coinbase" : "0x2adc25665018aa1fe0e6bc666dac8fc2697ff9ba",
                    "difficulty" : "0x20000",
                    "extraData" : "0x00",
                    "gasLimit" : "0x174e4905b9",
                    "gasUsed" : "0x64449",
                    "hash" : "0xb75a58dcb082d5d2a755aed232ca8568cbb81bfb978018797dba2acfd98295f8",
                    "mixHash" : "0x0000000000000000000000000000000000000000000000000000000000000000",
                    "nonce" : "0x0000000000000000",
                    "number" : "0x1",
                    "parentHash" : "0xe2213ca4cb753667bddcf997c08faec75d170e926c2e7885ded64bc6c7ac171f",
                    "receiptTrie" : "0x496471509b4c81f6618c2f94d073a70f6bd3a0f18b15d963560ace7502e6a0a3",
                    "stateRoot" : "0x0b89ce373ba3a9a0656f1e9f2225732af0979dff60baa493dd18ef06fa8cd549",
                    "timestamp" : "0x3e8",
                    "transactionsTrie" : "0x9d21f4af34032fbf31674d789a7b1633934f5810fbaf441fc16ecc089e104fca",
                    "uncleHash" : "0x1dcc4de8dec75d7aab85b567b6ccd41ad312451b948a7413f0a142fd40d49347"
                },
                "transactions" : [
                    {
                        "data" : "0x0000000000000000000000000000000000000000000000000000000000000064000000000000000000000000000000000000000000000000000000000000006400000000000000000000000000000000000000000000000000000000000000645442ddc2b70f66c1f6d2b296c0a875be7eddd0a80958cbc7425f1899ccf90511a5c318226e48ee23f130b44dc17a691ce66be5da18b85ed7943535b205aa125e9f59294a00f05155c23e97dac6b3a00b0c63c8411bf815fc183b420b4d9dc5f715040d5c60957f52d334b843197adec58c131c907cd96059fc5adce9dda351b5df3d666fcf3eb63c46851c1816e323f2119ebdf5ef35",
                        "gasLimit" : "0x3b9aca00",
                        "gasPrice" : "0x01",
                        "nonce" : "0x00",
                        "to" : "0x1000000000000000000000000000000000000000",
                        "value" : "0x00",
                        "v" : "0x1b",
                        "r" : "0xd7626012a49ca55264278711e43754f8861fb4dcd0278040996c6d97bbffcca3",
                        "s" : "0x7f4e9dc6430113728256789908564c974bb33c8e4197862da608c0464e223ff9"
                    }
                ]
            }
        ]
    },
    "modexp_modsize0_returndatasize_d3g0v0_Istanbul" : {
        "_info" : {
            "comment" : "",
            "filling-rpc-server" : "Geth-1.9.6-unstable-63b18027-20190920",
            "filling-tool-version" : "retesteth-0.0.1+commit.0ae18aef.Linux.g++",
            "lllcversion" : "Version: 0.5.12-develop.2019.9.13+commit.2d601a4f.Linux.g++",
            "source" : "src/GeneralStateTestsFiller/stReturnDataTest/modexp_modsize0_returndatasizeFiller.json",
            "sourceHash" : "7c46f51af8c21fcb0700c558f8467f29b336ded8dddcc9ef71395b4000303c1b"
        },
        "genesisBlockHeader" : {
            "bloom" : "0x00000000000000000000000000000000000000000000000000000000000000000000000000000000000000000000000000000000000000000000000000000000000000000000000000000000000000000000000000000000000000000000000000000000000000000000000000000000000000000000000000000000000000000000000000000000000000000000000000000000000000000000000000000000000000000000000000000000000000000000000000000000000000000000000000000000000000000000000000000000000000000000000000000000000000000000000000000000000000000000000000000000000000000000000000000000",
            "coinbase" : "0x2adc25665018aa1fe0e6bc666dac8fc2697ff9ba",
            "difficulty" : "0x20000",
            "extraData" : "0x00",
            "gasLimit" : "0x174876e800",
            "gasUsed" : "0x0",
            "hash" : "0xe2213ca4cb753667bddcf997c08faec75d170e926c2e7885ded64bc6c7ac171f",
            "mixHash" : "0x0000000000000000000000000000000000000000000000000000000000000000",
            "nonce" : "0x0000000000000000",
            "number" : "0x0",
            "parentHash" : "0x0000000000000000000000000000000000000000000000000000000000000000",
            "receiptTrie" : "0x56e81f171bcc55a6ff8345e692c0f86e5b48e01b996cadc001622fb5e363b421",
            "stateRoot" : "0x5e110890a7540be4bdf3b4e8643d9944aee18faa491ba362a22c6822222488a1",
            "timestamp" : "0x0",
            "transactionsTrie" : "0x56e81f171bcc55a6ff8345e692c0f86e5b48e01b996cadc001622fb5e363b421",
            "uncleHash" : "0x1dcc4de8dec75d7aab85b567b6ccd41ad312451b948a7413f0a142fd40d49347"
        },
        "pre" : {
            "0x1000000000000000000000000000000000000000" : {
                "balance" : "0x00",
                "code" : "0x36600060003760206103e8366000600060055af26001556103e8516002553d60035500",
                "nonce" : "0x00",
                "storage" : {
                    "0x03" : "0xffffffff"
                }
            },
            "0xa94f5374fce5edbc8e2a8697c15331677e6ebf0b" : {
                "balance" : "0x3635c9adc5dea00000",
                "code" : "0x",
                "nonce" : "0x00",
                "storage" : {
                }
            }
        },
        "postState" : {
            "0xa94f5374fce5edbc8e2a8697c15331677e6ebf0b" : {
                "code" : "0x",
                "nonce" : "0x01",
                "balance" : "0x3635c9adc5de6407b5",
                "storage" : {
                }
            },
            "0x2adc25665018aa1fe0e6bc666dac8fc2697ff9ba" : {
                "code" : "0x",
                "nonce" : "0x00",
                "balance" : "0x1bc16d674f03f84b",
                "storage" : {
                }
            },
            "0x1000000000000000000000000000000000000000" : {
                "code" : "0x36600060003760206103e8366000600060055af26001556103e8516002553d60035500",
                "nonce" : "0x00",
                "balance" : "0x00",
                "storage" : {
                    "0x01" : "0x01",
                    "0x03" : "0x0100"
                }
            }
        },
        "network" : "Istanbul",
        "sealEngine" : "NoProof",
        "lastblockhash" : "0x1b840e0923681364b26f0aeb071ba7e6e111dbed65427080737ad3e4650aee46",
        "genesisRLP" : "0xf901faf901f5a00000000000000000000000000000000000000000000000000000000000000000a01dcc4de8dec75d7aab85b567b6ccd41ad312451b948a7413f0a142fd40d49347942adc25665018aa1fe0e6bc666dac8fc2697ff9baa05e110890a7540be4bdf3b4e8643d9944aee18faa491ba362a22c6822222488a1a056e81f171bcc55a6ff8345e692c0f86e5b48e01b996cadc001622fb5e363b421a056e81f171bcc55a6ff8345e692c0f86e5b48e01b996cadc001622fb5e363b421b9010000000000000000000000000000000000000000000000000000000000000000000000000000000000000000000000000000000000000000000000000000000000000000000000000000000000000000000000000000000000000000000000000000000000000000000000000000000000000000000000000000000000000000000000000000000000000000000000000000000000000000000000000000000000000000000000000000000000000000000000000000000000000000000000000000000000000000000000000000000000000000000000000000000000000000000000000000000000000000000000000000000000000000000000000000000000830200008085174876e800808000a00000000000000000000000000000000000000000000000000000000000000000880000000000000000c0c0",
        "blocks" : [
            {
                "rlp" : "0xf90447f901faa0e2213ca4cb753667bddcf997c08faec75d170e926c2e7885ded64bc6c7ac171fa01dcc4de8dec75d7aab85b567b6ccd41ad312451b948a7413f0a142fd40d49347942adc25665018aa1fe0e6bc666dac8fc2697ff9baa0856ac512c7a34f55038e62e54abc37b4cd0d82b7c1b815e1d3fc1e5dd427d221a0f10db03636f3c7de814dd9e93e379ec2e2afb5509e99fdde5ef39ee2320a1d12a0fbe373d0a100f42ec486872661bf4f8a736556156a5e91f92942a40f81023d39b9010000000000000000000000000000000000000000000000000000000000000000000000000000000000000000000000000000000000000000000000000000000000000000000000000000000000000000000000000000000000000000000000000000000000000000000000000000000000000000000000000000000000000000000000000000000000000000000000000000000000000000000000000000000000000000000000000000000000000000000000000000000000000000000000000000000000000000000000000000000000000000000000000000000000000000000000000000000000000000000000000000000000000000000000000000000000830200000185174e4905b9833bf84b8203e800a00000000000000000000000000000000000000000000000000000000000000000880000000000000000f90246f902438001843b9aca0094100000000000000000000000000000000000000080b901e0000000000000000000000000000000000000000000000000000000000000010000000000000000000000000000000000000000000000000000000000000001000000000000000000000000000000000000000000000000000000000000000100f536269e59acdb356459b59f1ea6acc924650f8f05dae101a3b463d33342dcc6265d1ba9465fd0f1106b3f03a4af0a0b553e8b6ba8682584ba19c3835430ff310904a717282064031bcf9185dd172dad65305ee0e61d0c638b0a0ef0f4e51653996020c2723faea116881e25fb3d554dbc51b180052c981fc79ca93567eb6ff0e619deeb2984ae3ca232523aa5bd21ea4f8caa12cb8cd90dbafb9bd6951dcaef0fc4a74d195f5341bc6c3d7217df82597b84c4e1bbef4f2ce8c32aedbd99430f4e1a59b886c4ceb9bf7a00a415c207f3a4ccf95d5483642f95a9b240806c508c29bb48de38c8e1229257d5d807229fb3708ad6ac619b133fd7c1fe3c375f90ce55689018465a8a3d7c08097d415c702e7f57fcd6de6ea55cca75c49b835c6c90172753948fbd5dee5a74a422e3169d0cf5665ffc9198dc7f3fa502da817f1c81af0843ef5bec2ca2e8f3e24a76ac7322dab5a5bda802b247f1cf5282936cd1cb115f40e71db8d62b58c7d6c0ae7c78888987c22ff6afae345ade859a9beb127d1ba0fc2d3ca229b5bd6e6202281fe8b9b43cceb908a3a8775f0b78e3e7568b3c85d1a03a4f432d6d999e2b3284bd4258d4e81bd141c1db0b9cc1809f96274173530593c0",
                "blockHeader" : {
                    "bloom" : "0x00000000000000000000000000000000000000000000000000000000000000000000000000000000000000000000000000000000000000000000000000000000000000000000000000000000000000000000000000000000000000000000000000000000000000000000000000000000000000000000000000000000000000000000000000000000000000000000000000000000000000000000000000000000000000000000000000000000000000000000000000000000000000000000000000000000000000000000000000000000000000000000000000000000000000000000000000000000000000000000000000000000000000000000000000000000",
                    "coinbase" : "0x2adc25665018aa1fe0e6bc666dac8fc2697ff9ba",
                    "difficulty" : "0x20000",
                    "extraData" : "0x00",
                    "gasLimit" : "0x174e4905b9",
                    "gasUsed" : "0x3bf84b",
                    "hash" : "0x1b840e0923681364b26f0aeb071ba7e6e111dbed65427080737ad3e4650aee46",
                    "mixHash" : "0x0000000000000000000000000000000000000000000000000000000000000000",
                    "nonce" : "0x0000000000000000",
                    "number" : "0x1",
                    "parentHash" : "0xe2213ca4cb753667bddcf997c08faec75d170e926c2e7885ded64bc6c7ac171f",
                    "receiptTrie" : "0xfbe373d0a100f42ec486872661bf4f8a736556156a5e91f92942a40f81023d39",
                    "stateRoot" : "0x856ac512c7a34f55038e62e54abc37b4cd0d82b7c1b815e1d3fc1e5dd427d221",
                    "timestamp" : "0x3e8",
                    "transactionsTrie" : "0xf10db03636f3c7de814dd9e93e379ec2e2afb5509e99fdde5ef39ee2320a1d12",
                    "uncleHash" : "0x1dcc4de8dec75d7aab85b567b6ccd41ad312451b948a7413f0a142fd40d49347"
                },
                "transactions" : [
                    {
                        "data" : "0x000000000000000000000000000000000000000000000000000000000000010000000000000000000000000000000000000000000000000000000000000001000000000000000000000000000000000000000000000000000000000000000100f536269e59acdb356459b59f1ea6acc924650f8f05dae101a3b463d33342dcc6265d1ba9465fd0f1106b3f03a4af0a0b553e8b6ba8682584ba19c3835430ff310904a717282064031bcf9185dd172dad65305ee0e61d0c638b0a0ef0f4e51653996020c2723faea116881e25fb3d554dbc51b180052c981fc79ca93567eb6ff0e619deeb2984ae3ca232523aa5bd21ea4f8caa12cb8cd90dbafb9bd6951dcaef0fc4a74d195f5341bc6c3d7217df82597b84c4e1bbef4f2ce8c32aedbd99430f4e1a59b886c4ceb9bf7a00a415c207f3a4ccf95d5483642f95a9b240806c508c29bb48de38c8e1229257d5d807229fb3708ad6ac619b133fd7c1fe3c375f90ce55689018465a8a3d7c08097d415c702e7f57fcd6de6ea55cca75c49b835c6c90172753948fbd5dee5a74a422e3169d0cf5665ffc9198dc7f3fa502da817f1c81af0843ef5bec2ca2e8f3e24a76ac7322dab5a5bda802b247f1cf5282936cd1cb115f40e71db8d62b58c7d6c0ae7c78888987c22ff6afae345ade859a9beb127d",
                        "gasLimit" : "0x3b9aca00",
                        "gasPrice" : "0x01",
                        "nonce" : "0x00",
                        "to" : "0x1000000000000000000000000000000000000000",
                        "value" : "0x00",
                        "v" : "0x1b",
                        "r" : "0xfc2d3ca229b5bd6e6202281fe8b9b43cceb908a3a8775f0b78e3e7568b3c85d1",
                        "s" : "0x3a4f432d6d999e2b3284bd4258d4e81bd141c1db0b9cc1809f96274173530593"
                    }
                ]
            }
        ]
    },
    "modexp_modsize0_returndatasize_d4g0v0_Istanbul" : {
        "_info" : {
            "comment" : "",
            "filling-rpc-server" : "Geth-1.9.6-unstable-63b18027-20190920",
            "filling-tool-version" : "retesteth-0.0.1+commit.0ae18aef.Linux.g++",
            "lllcversion" : "Version: 0.5.12-develop.2019.9.13+commit.2d601a4f.Linux.g++",
            "source" : "src/GeneralStateTestsFiller/stReturnDataTest/modexp_modsize0_returndatasizeFiller.json",
            "sourceHash" : "7c46f51af8c21fcb0700c558f8467f29b336ded8dddcc9ef71395b4000303c1b"
        },
        "genesisBlockHeader" : {
            "bloom" : "0x00000000000000000000000000000000000000000000000000000000000000000000000000000000000000000000000000000000000000000000000000000000000000000000000000000000000000000000000000000000000000000000000000000000000000000000000000000000000000000000000000000000000000000000000000000000000000000000000000000000000000000000000000000000000000000000000000000000000000000000000000000000000000000000000000000000000000000000000000000000000000000000000000000000000000000000000000000000000000000000000000000000000000000000000000000000",
            "coinbase" : "0x2adc25665018aa1fe0e6bc666dac8fc2697ff9ba",
            "difficulty" : "0x20000",
            "extraData" : "0x00",
            "gasLimit" : "0x174876e800",
            "gasUsed" : "0x0",
            "hash" : "0xe2213ca4cb753667bddcf997c08faec75d170e926c2e7885ded64bc6c7ac171f",
            "mixHash" : "0x0000000000000000000000000000000000000000000000000000000000000000",
            "nonce" : "0x0000000000000000",
            "number" : "0x0",
            "parentHash" : "0x0000000000000000000000000000000000000000000000000000000000000000",
            "receiptTrie" : "0x56e81f171bcc55a6ff8345e692c0f86e5b48e01b996cadc001622fb5e363b421",
            "stateRoot" : "0x5e110890a7540be4bdf3b4e8643d9944aee18faa491ba362a22c6822222488a1",
            "timestamp" : "0x0",
            "transactionsTrie" : "0x56e81f171bcc55a6ff8345e692c0f86e5b48e01b996cadc001622fb5e363b421",
            "uncleHash" : "0x1dcc4de8dec75d7aab85b567b6ccd41ad312451b948a7413f0a142fd40d49347"
        },
        "pre" : {
            "0x1000000000000000000000000000000000000000" : {
                "balance" : "0x00",
                "code" : "0x36600060003760206103e8366000600060055af26001556103e8516002553d60035500",
                "nonce" : "0x00",
                "storage" : {
                    "0x03" : "0xffffffff"
                }
            },
            "0xa94f5374fce5edbc8e2a8697c15331677e6ebf0b" : {
                "balance" : "0x3635c9adc5dea00000",
                "code" : "0x",
                "nonce" : "0x00",
                "storage" : {
                }
            }
        },
        "postState" : {
            "0xa94f5374fce5edbc8e2a8697c15331677e6ebf0b" : {
                "code" : "0x",
                "nonce" : "0x01",
                "balance" : "0x3635c9adc5a3f3c08a",
                "storage" : {
                }
            },
            "0x2adc25665018aa1fe0e6bc666dac8fc2697ff9ba" : {
                "code" : "0x",
                "nonce" : "0x00",
                "balance" : "0x1bc16d6789743f76",
                "storage" : {
                }
            },
            "0x1000000000000000000000000000000000000000" : {
                "code" : "0x36600060003760206103e8366000600060055af26001556103e8516002553d60035500",
                "nonce" : "0x00",
                "balance" : "0x00",
                "storage" : {
                }
            }
        },
        "network" : "Istanbul",
        "sealEngine" : "NoProof",
        "lastblockhash" : "0x026e3f8eb4f1312f1a55752be23c45a489f6ee046a749303632a226aaec66caf",
        "genesisRLP" : "0xf901faf901f5a00000000000000000000000000000000000000000000000000000000000000000a01dcc4de8dec75d7aab85b567b6ccd41ad312451b948a7413f0a142fd40d49347942adc25665018aa1fe0e6bc666dac8fc2697ff9baa05e110890a7540be4bdf3b4e8643d9944aee18faa491ba362a22c6822222488a1a056e81f171bcc55a6ff8345e692c0f86e5b48e01b996cadc001622fb5e363b421a056e81f171bcc55a6ff8345e692c0f86e5b48e01b996cadc001622fb5e363b421b9010000000000000000000000000000000000000000000000000000000000000000000000000000000000000000000000000000000000000000000000000000000000000000000000000000000000000000000000000000000000000000000000000000000000000000000000000000000000000000000000000000000000000000000000000000000000000000000000000000000000000000000000000000000000000000000000000000000000000000000000000000000000000000000000000000000000000000000000000000000000000000000000000000000000000000000000000000000000000000000000000000000000000000000000000000000000830200008085174876e800808000a00000000000000000000000000000000000000000000000000000000000000000880000000000000000c0c0",
        "blocks" : [
            {
                "rlp" : "0xf902c8f901fba0e2213ca4cb753667bddcf997c08faec75d170e926c2e7885ded64bc6c7ac171fa01dcc4de8dec75d7aab85b567b6ccd41ad312451b948a7413f0a142fd40d49347942adc25665018aa1fe0e6bc666dac8fc2697ff9baa00558943f1a1e9a02300ffefd56465fd2f0f86781a81497f1f8e6ca22f3c4c20ea0709e4b671556552f9efcb2a0c71d50614f939e7a4270fbc6ed07a6a8b4ff544aa0ed76b5edf1e5581e5887e75748b23729cc8b180b05566013bd74b5ca39d06c73b9010000000000000000000000000000000000000000000000000000000000000000000000000000000000000000000000000000000000000000000000000000000000000000000000000000000000000000000000000000000000000000000000000000000000000000000000000000000000000000000000000000000000000000000000000000000000000000000000000000000000000000000000000000000000000000000000000000000000000000000000000000000000000000000000000000000000000000000000000000000000000000000000000000000000000000000000000000000000000000000000000000000000000000000000000000000000830200000185174e4905b9843aac3f768203e800a00000000000000000000000000000000000000000000000000000000000000000880000000000000000f8c7f8c58001843b9aca0094100000000000000000000000000000000000000080b8630000000000000000000000000000000000000000000000000000000000000001000000000000000000000000000000000000000000000000000000000000000100000000000000000000000000000000000000000000000000000000000f3f140101011ca0139d385c9f2698edb7398456a4b7467f47bcccd045fcab67d40ed96b4a6536fba01e1d4b33bff828b31f4974b678242ceeb9b5704bd1530de87a40c0557d9134a5c0",
                "blockHeader" : {
                    "bloom" : "0x00000000000000000000000000000000000000000000000000000000000000000000000000000000000000000000000000000000000000000000000000000000000000000000000000000000000000000000000000000000000000000000000000000000000000000000000000000000000000000000000000000000000000000000000000000000000000000000000000000000000000000000000000000000000000000000000000000000000000000000000000000000000000000000000000000000000000000000000000000000000000000000000000000000000000000000000000000000000000000000000000000000000000000000000000000000",
                    "coinbase" : "0x2adc25665018aa1fe0e6bc666dac8fc2697ff9ba",
                    "difficulty" : "0x20000",
                    "extraData" : "0x00",
                    "gasLimit" : "0x174e4905b9",
                    "gasUsed" : "0x3aac3f76",
                    "hash" : "0x026e3f8eb4f1312f1a55752be23c45a489f6ee046a749303632a226aaec66caf",
                    "mixHash" : "0x0000000000000000000000000000000000000000000000000000000000000000",
                    "nonce" : "0x0000000000000000",
                    "number" : "0x1",
                    "parentHash" : "0xe2213ca4cb753667bddcf997c08faec75d170e926c2e7885ded64bc6c7ac171f",
                    "receiptTrie" : "0xed76b5edf1e5581e5887e75748b23729cc8b180b05566013bd74b5ca39d06c73",
                    "stateRoot" : "0x0558943f1a1e9a02300ffefd56465fd2f0f86781a81497f1f8e6ca22f3c4c20e",
                    "timestamp" : "0x3e8",
                    "transactionsTrie" : "0x709e4b671556552f9efcb2a0c71d50614f939e7a4270fbc6ed07a6a8b4ff544a",
                    "uncleHash" : "0x1dcc4de8dec75d7aab85b567b6ccd41ad312451b948a7413f0a142fd40d49347"
                },
                "transactions" : [
                    {
                        "data" : "0x0000000000000000000000000000000000000000000000000000000000000001000000000000000000000000000000000000000000000000000000000000000100000000000000000000000000000000000000000000000000000000000f3f14010101",
                        "gasLimit" : "0x3b9aca00",
                        "gasPrice" : "0x01",
                        "nonce" : "0x00",
                        "to" : "0x1000000000000000000000000000000000000000",
                        "value" : "0x00",
                        "v" : "0x1c",
                        "r" : "0x139d385c9f2698edb7398456a4b7467f47bcccd045fcab67d40ed96b4a6536fb",
                        "s" : "0x1e1d4b33bff828b31f4974b678242ceeb9b5704bd1530de87a40c0557d9134a5"
                    }
                ]
            }
        ]
    }
}