{
    "returndatacopy_initial_d0g0v0_Istanbul" : {
        "_info" : {
            "comment" : "",
            "filling-rpc-server" : "Geth-1.9.6-unstable-63b18027-20190920",
            "filling-tool-version" : "retesteth-0.0.1+commit.0ae18aef.Linux.g++",
            "lllcversion" : "Version: 0.5.12-develop.2019.9.13+commit.2d601a4f.Linux.g++",
            "source" : "src/GeneralStateTestsFiller/stReturnDataTest/returndatacopy_initialFiller.json",
            "sourceHash" : "a1a8a4a2e2f2831a82d5a23e264bccb4fa27f0151e465a260b0d3d01f89b0828"
        },
        "genesisBlockHeader" : {
            "bloom" : "0x00000000000000000000000000000000000000000000000000000000000000000000000000000000000000000000000000000000000000000000000000000000000000000000000000000000000000000000000000000000000000000000000000000000000000000000000000000000000000000000000000000000000000000000000000000000000000000000000000000000000000000000000000000000000000000000000000000000000000000000000000000000000000000000000000000000000000000000000000000000000000000000000000000000000000000000000000000000000000000000000000000000000000000000000000000000",
            "coinbase" : "0x2adc25665018aa1fe0e6bc666dac8fc2697ff9ba",
            "difficulty" : "0x20000",
            "extraData" : "0x00",
            "gasLimit" : "0x1a00000000",
            "gasUsed" : "0x0",
            "hash" : "0xc9bdc3c62018953c41d8e1a38ee86557a72d4b9b86dc2b2fd966b11f9d9c3b38",
            "mixHash" : "0x0000000000000000000000000000000000000000000000000000000000000000",
            "nonce" : "0x0000000000000000",
            "number" : "0x0",
            "parentHash" : "0x0000000000000000000000000000000000000000000000000000000000000000",
            "receiptTrie" : "0x56e81f171bcc55a6ff8345e692c0f86e5b48e01b996cadc001622fb5e363b421",
            "stateRoot" : "0x49ff1a0cdea5da859c4e37457d704102fb4a873cc48047511563bdb073dbf710",
            "timestamp" : "0x0",
            "transactionsTrie" : "0x56e81f171bcc55a6ff8345e692c0f86e5b48e01b996cadc001622fb5e363b421",
            "uncleHash" : "0x1dcc4de8dec75d7aab85b567b6ccd41ad312451b948a7413f0a142fd40d49347"
        },
        "pre" : {
            "0x0f572e5295c57f15886f9b263e2f6d2d6c7b5ec6" : {
                "balance" : "0x0de0b6b3a7640000",
                "code" : "0x6e112233445566778899aabbccddeeff6000526020600060003e60005160005500",
                "nonce" : "0x00",
                "storage" : {
                    "0x00" : "0x01"
                }
            },
            "0xa94f5374fce5edbc8e2a8697c15331677e6ebf0b" : {
                "balance" : "0x6400000000",
                "code" : "0x",
                "nonce" : "0x00",
                "storage" : {
                }
            }
        },
        "postState" : {
            "0xa94f5374fce5edbc8e2a8697c15331677e6ebf0b" : {
                "code" : "0x",
                "nonce" : "0x01",
                "balance" : "0x5a00000000",
                "storage" : {
                }
            },
            "0x2adc25665018aa1fe0e6bc666dac8fc2697ff9ba" : {
                "code" : "0x",
                "nonce" : "0x00",
                "balance" : "0x1bc16d714ec80000",
                "storage" : {
                }
            },
            "0x0f572e5295c57f15886f9b263e2f6d2d6c7b5ec6" : {
                "code" : "0x6e112233445566778899aabbccddeeff6000526020600060003e60005160005500",
                "nonce" : "0x00",
                "balance" : "0x0de0b6b3a7640000",
                "storage" : {
                    "0x00" : "0x01"
                }
            }
        },
        "network" : "Istanbul",
        "sealEngine" : "NoProof",
        "lastblockhash" : "0x08014d044f8f6b22ad8da7d420e12531e7aefdabb43e94e66ee8b1fbfa3018a1",
        "genesisRLP" : "0xf901faf901f5a00000000000000000000000000000000000000000000000000000000000000000a01dcc4de8dec75d7aab85b567b6ccd41ad312451b948a7413f0a142fd40d49347942adc25665018aa1fe0e6bc666dac8fc2697ff9baa049ff1a0cdea5da859c4e37457d704102fb4a873cc48047511563bdb073dbf710a056e81f171bcc55a6ff8345e692c0f86e5b48e01b996cadc001622fb5e363b421a056e81f171bcc55a6ff8345e692c0f86e5b48e01b996cadc001622fb5e363b421b90100000000000000000000000000000000000000000000000000000000000000000000000000000000000000000000000000000000000000000000000000000000000000000000000000000000000000000000000000000000000000000000000000000000000000000000000000000000000000000000000000000000000000000000000000000000000000000000000000000000000000000000000000000000000000000000000000000000000000000000000000000000000000000000000000000000000000000000000000000000000000000000000000000000000000000000000000000000000000000000000000000000000000000000000000000000008302000080851a00000000808000a00000000000000000000000000000000000000000000000000000000000000000880000000000000000c0c0",
        "blocks" : [
            {
                "rlp" : "0xf90266f901fca0c9bdc3c62018953c41d8e1a38ee86557a72d4b9b86dc2b2fd966b11f9d9c3b38a01dcc4de8dec75d7aab85b567b6ccd41ad312451b948a7413f0a142fd40d49347942adc25665018aa1fe0e6bc666dac8fc2697ff9baa0fda0e8c1a945cecc81dc3f79f76835df818e402a520310c72c370840159d3e53a0de317ba0085ad3bc6f64da920500c40ceb94789c007f8c54b3e766eae29616aba097fe59b8004de685658f61c2939be1892eb8593c1ce622c392dd985946712e06b90100000000000000000000000000000000000000000000000000000000000000000000000000000000000000000000000000000000000000000000000000000000000000000000000000000000000000000000000000000000000000000000000000000000000000000000000000000000000000000000000000000000000000000000000000000000000000000000000000000000000000000000000000000000000000000000000000000000000000000000000000000000000000000000000000000000000000000000000000000000000000000000000000000000000000000000000000000000000000000000000000000000000000000000000000000000008302000001851a067fffff850a000000008203e800a00000000000000000000000000000000000000000000000000000000000000000880000000000000000f864f8628001850a00000000940f572e5295c57f15886f9b263e2f6d2d6c7b5ec680801ba03b6c2d4d0d9d0abf4d624a6f2930e213789e9c00f679a9afa996fb4bd27cb507a024a40d7f4cf44278ac739ecf9eeba61554646709142d968ed1c555be138a3ea2c0",
                "blockHeader" : {
                    "bloom" : "0x00000000000000000000000000000000000000000000000000000000000000000000000000000000000000000000000000000000000000000000000000000000000000000000000000000000000000000000000000000000000000000000000000000000000000000000000000000000000000000000000000000000000000000000000000000000000000000000000000000000000000000000000000000000000000000000000000000000000000000000000000000000000000000000000000000000000000000000000000000000000000000000000000000000000000000000000000000000000000000000000000000000000000000000000000000000",
                    "coinbase" : "0x2adc25665018aa1fe0e6bc666dac8fc2697ff9ba",
                    "difficulty" : "0x20000",
                    "extraData" : "0x00",
                    "gasLimit" : "0x1a067fffff",
                    "gasUsed" : "0xa00000000",
                    "hash" : "0x08014d044f8f6b22ad8da7d420e12531e7aefdabb43e94e66ee8b1fbfa3018a1",
                    "mixHash" : "0x0000000000000000000000000000000000000000000000000000000000000000",
                    "nonce" : "0x0000000000000000",
                    "number" : "0x1",
                    "parentHash" : "0xc9bdc3c62018953c41d8e1a38ee86557a72d4b9b86dc2b2fd966b11f9d9c3b38",
                    "receiptTrie" : "0x97fe59b8004de685658f61c2939be1892eb8593c1ce622c392dd985946712e06",
                    "stateRoot" : "0xfda0e8c1a945cecc81dc3f79f76835df818e402a520310c72c370840159d3e53",
                    "timestamp" : "0x3e8",
                    "transactionsTrie" : "0xde317ba0085ad3bc6f64da920500c40ceb94789c007f8c54b3e766eae29616ab",
                    "uncleHash" : "0x1dcc4de8dec75d7aab85b567b6ccd41ad312451b948a7413f0a142fd40d49347"
                },
                "transactions" : [
                    {
                        "data" : "0x",
                        "gasLimit" : "0x0a00000000",
                        "gasPrice" : "0x01",
                        "nonce" : "0x00",
                        "to" : "0x0f572e5295c57f15886f9b263e2f6d2d6c7b5ec6",
                        "value" : "0x00",
                        "v" : "0x1b",
                        "r" : "0x3b6c2d4d0d9d0abf4d624a6f2930e213789e9c00f679a9afa996fb4bd27cb507",
                        "s" : "0x24a40d7f4cf44278ac739ecf9eeba61554646709142d968ed1c555be138a3ea2"
                    }
                ]
            }
        ]
    }
}