{
    "returndatasize_after_failing_callcode_d0g0v0_Istanbul" : {
        "_info" : {
            "comment" : "",
            "filling-rpc-server" : "Geth-1.9.6-unstable-63b18027-20190920",
            "filling-tool-version" : "retesteth-0.0.1+commit.0ae18aef.Linux.g++",
            "lllcversion" : "Version: 0.5.12-develop.2019.9.13+commit.2d601a4f.Linux.g++",
            "source" : "src/GeneralStateTestsFiller/stReturnDataTest/returndatasize_after_failing_callcodeFiller.json",
            "sourceHash" : "4f4c44cf4126447a579f031193ae36ed27dc7c073374656a6c175396798b8ea2"
        },
        "genesisBlockHeader" : {
            "bloom" : "0x00000000000000000000000000000000000000000000000000000000000000000000000000000000000000000000000000000000000000000000000000000000000000000000000000000000000000000000000000000000000000000000000000000000000000000000000000000000000000000000000000000000000000000000000000000000000000000000000000000000000000000000000000000000000000000000000000000000000000000000000000000000000000000000000000000000000000000000000000000000000000000000000000000000000000000000000000000000000000000000000000000000000000000000000000000000",
            "coinbase" : "0x2adc25665018aa1fe0e6bc666dac8fc2697ff9ba",
            "difficulty" : "0x20000",
            "extraData" : "0x00",
            "gasLimit" : "0x1a00000000",
            "gasUsed" : "0x0",
            "hash" : "0x4b801068be0b6db263ab4222c0f47c6a2310e1ac696a9c5c9a8dba667985ca15",
            "mixHash" : "0x0000000000000000000000000000000000000000000000000000000000000000",
            "nonce" : "0x0000000000000000",
            "number" : "0x0",
            "parentHash" : "0x0000000000000000000000000000000000000000000000000000000000000000",
            "receiptTrie" : "0x56e81f171bcc55a6ff8345e692c0f86e5b48e01b996cadc001622fb5e363b421",
            "stateRoot" : "0x3f1ee852739116d3d4d49d9dafdef6954d941b1d131d2412df7276b6172dfe63",
            "timestamp" : "0x0",
            "transactionsTrie" : "0x56e81f171bcc55a6ff8345e692c0f86e5b48e01b996cadc001622fb5e363b421",
            "uncleHash" : "0x1dcc4de8dec75d7aab85b567b6ccd41ad312451b948a7413f0a142fd40d49347"
        },
        "pre" : {
            "0x0f572e5295c57f15886f9b263e2f6d2d6c7b5ec6" : {
                "balance" : "0x10000000",
                "code" : "0x",
                "nonce" : "0x00",
                "storage" : {
                }
            },
            "0x1000000000000000000000000000000000000001" : {
                "balance" : "0x00",
                "code" : "0x6000600060006000600073a94f5374fce5edbc8e2a8697c15331677e6ebf0b620186a0f2503d60005500",
                "nonce" : "0x00",
                "storage" : {
                    "0x00" : "0xffffffff"
                }
            },
            "0xa94f5374fce5edbc8e2a8697c15331677e6ebf0b" : {
                "balance" : "0x6400000000",
                "code" : "0xfd",
                "nonce" : "0x00",
                "storage" : {
                }
            }
        },
        "postState" : {
            "0xa94f5374fce5edbc8e2a8697c15331677e6ebf0b" : {
                "code" : "0xfd",
                "nonce" : "0x01",
                "balance" : "0x63fffe4b90",
                "storage" : {
                }
            },
            "0x1000000000000000000000000000000000000001" : {
                "code" : "0x6000600060006000600073a94f5374fce5edbc8e2a8697c15331677e6ebf0b620186a0f2503d60005500",
                "nonce" : "0x00",
                "balance" : "0x00",
                "storage" : {
                }
            },
            "0x2adc25665018aa1fe0e6bc666dac8fc2697ff9ba" : {
                "code" : "0x",
                "nonce" : "0x00",
                "balance" : "0x1bc16d674ec9b470",
                "storage" : {
                }
            },
            "0x0f572e5295c57f15886f9b263e2f6d2d6c7b5ec6" : {
                "code" : "0x",
                "nonce" : "0x00",
                "balance" : "0x10000000",
                "storage" : {
                }
            }
        },
        "network" : "Istanbul",
        "sealEngine" : "NoProof",
        "lastblockhash" : "0xb6caf2e9c5c4fbafffd289049ccdc8062c1507e02c54e721ec824faa791dc062",
        "genesisRLP" : "0xf901faf901f5a00000000000000000000000000000000000000000000000000000000000000000a01dcc4de8dec75d7aab85b567b6ccd41ad312451b948a7413f0a142fd40d49347942adc25665018aa1fe0e6bc666dac8fc2697ff9baa03f1ee852739116d3d4d49d9dafdef6954d941b1d131d2412df7276b6172dfe63a056e81f171bcc55a6ff8345e692c0f86e5b48e01b996cadc001622fb5e363b421a056e81f171bcc55a6ff8345e692c0f86e5b48e01b996cadc001622fb5e363b421b90100000000000000000000000000000000000000000000000000000000000000000000000000000000000000000000000000000000000000000000000000000000000000000000000000000000000000000000000000000000000000000000000000000000000000000000000000000000000000000000000000000000000000000000000000000000000000000000000000000000000000000000000000000000000000000000000000000000000000000000000000000000000000000000000000000000000000000000000000000000000000000000000000000000000000000000000000000000000000000000000000000000000000000000000000000000008302000080851a00000000808000a00000000000000000000000000000000000000000000000000000000000000000880000000000000000c0c0",
        "blocks" : [
            {
                "rlp" : "0xf90264f901faa04b801068be0b6db263ab4222c0f47c6a2310e1ac696a9c5c9a8dba667985ca15a01dcc4de8dec75d7aab85b567b6ccd41ad312451b948a7413f0a142fd40d49347942adc25665018aa1fe0e6bc666dac8fc2697ff9baa05c0a0d10dd238d8ebc60080248916165c29d2f42edb06c74a2b979734ee75d92a0942a5626ebc24a913758d77ab9d72c3563724d8a433d611b1bf05ca4a3cf5c3ba0d4128b9102aaad07de3a7a441b566cb77058fce1bb64e20f89e844b29ea1f0fcb90100000000000000000000000000000000000000000000000000000000000000000000000000000000000000000000000000000000000000000000000000000000000000000000000000000000000000000000000000000000000000000000000000000000000000000000000000000000000000000000000000000000000000000000000000000000000000000000000000000000000000000000000000000000000000000000000000000000000000000000000000000000000000000000000000000000000000000000000000000000000000000000000000000000000000000000000000000000000000000000000000000000000000000000000000000000008302000001851a067fffff8301b4708203e800a00000000000000000000000000000000000000000000000000000000000000000880000000000000000f864f8628001850a0000000094100000000000000000000000000000000000000180801ba0d645bcff7a04b34bc1f20889cffafd8bf9764818e4eff2556c4513c3e6aa4426a0758a2988d8cdfe9eebdf3e6d1d2c63bd9718c956af62e21af76f52e047ace5e8c0",
                "blockHeader" : {
                    "bloom" : "0x00000000000000000000000000000000000000000000000000000000000000000000000000000000000000000000000000000000000000000000000000000000000000000000000000000000000000000000000000000000000000000000000000000000000000000000000000000000000000000000000000000000000000000000000000000000000000000000000000000000000000000000000000000000000000000000000000000000000000000000000000000000000000000000000000000000000000000000000000000000000000000000000000000000000000000000000000000000000000000000000000000000000000000000000000000000",
                    "coinbase" : "0x2adc25665018aa1fe0e6bc666dac8fc2697ff9ba",
                    "difficulty" : "0x20000",
                    "extraData" : "0x00",
                    "gasLimit" : "0x1a067fffff",
                    "gasUsed" : "0x1b470",
                    "hash" : "0xb6caf2e9c5c4fbafffd289049ccdc8062c1507e02c54e721ec824faa791dc062",
                    "mixHash" : "0x0000000000000000000000000000000000000000000000000000000000000000",
                    "nonce" : "0x0000000000000000",
                    "number" : "0x1",
                    "parentHash" : "0x4b801068be0b6db263ab4222c0f47c6a2310e1ac696a9c5c9a8dba667985ca15",
                    "receiptTrie" : "0xd4128b9102aaad07de3a7a441b566cb77058fce1bb64e20f89e844b29ea1f0fc",
                    "stateRoot" : "0x5c0a0d10dd238d8ebc60080248916165c29d2f42edb06c74a2b979734ee75d92",
                    "timestamp" : "0x3e8",
                    "transactionsTrie" : "0x942a5626ebc24a913758d77ab9d72c3563724d8a433d611b1bf05ca4a3cf5c3b",
                    "uncleHash" : "0x1dcc4de8dec75d7aab85b567b6ccd41ad312451b948a7413f0a142fd40d49347"
                },
                "transactions" : [
                    {
                        "data" : "0x",
                        "gasLimit" : "0x0a00000000",
                        "gasPrice" : "0x01",
                        "nonce" : "0x00",
                        "to" : "0x1000000000000000000000000000000000000001",
                        "value" : "0x00",
                        "v" : "0x1b",
                        "r" : "0xd645bcff7a04b34bc1f20889cffafd8bf9764818e4eff2556c4513c3e6aa4426",
                        "s" : "0x758a2988d8cdfe9eebdf3e6d1d2c63bd9718c956af62e21af76f52e047ace5e8"
                    }
                ]
            }
        ]
    }
}