{
    "returndatacopy_after_successful_staticcall_d0g0v0_Istanbul" : {
        "_info" : {
            "comment" : "",
            "filling-rpc-server" : "Geth-1.9.6-unstable-63b18027-20190920",
            "filling-tool-version" : "retesteth-0.0.1+commit.0ae18aef.Linux.g++",
            "lllcversion" : "Version: 0.5.12-develop.2019.9.13+commit.2d601a4f.Linux.g++",
            "source" : "src/GeneralStateTestsFiller/stReturnDataTest/returndatacopy_after_successful_staticcallFiller.json",
            "sourceHash" : "5ce2af220baa68ac3d414a70b2a5aba57317390c9578cea318436773041c8893"
        },
        "genesisBlockHeader" : {
            "bloom" : "0x00000000000000000000000000000000000000000000000000000000000000000000000000000000000000000000000000000000000000000000000000000000000000000000000000000000000000000000000000000000000000000000000000000000000000000000000000000000000000000000000000000000000000000000000000000000000000000000000000000000000000000000000000000000000000000000000000000000000000000000000000000000000000000000000000000000000000000000000000000000000000000000000000000000000000000000000000000000000000000000000000000000000000000000000000000000",
            "coinbase" : "0x2adc25665018aa1fe0e6bc666dac8fc2697ff9ba",
            "difficulty" : "0x20000",
            "extraData" : "0x00",
            "gasLimit" : "0x1a00000000",
            "gasUsed" : "0x0",
            "hash" : "0x95c0b82f869e871fe6db54c3a98e0eb4b44ad635a0104a3768148e3787c2e1e6",
            "mixHash" : "0x0000000000000000000000000000000000000000000000000000000000000000",
            "nonce" : "0x0000000000000000",
            "number" : "0x0",
            "parentHash" : "0x0000000000000000000000000000000000000000000000000000000000000000",
            "receiptTrie" : "0x56e81f171bcc55a6ff8345e692c0f86e5b48e01b996cadc001622fb5e363b421",
            "stateRoot" : "0x3a5ff35c3bb65e14ec463b1e67fbfa7c0baffb0e8d3e8a84a7329c5f7bfc8789",
            "timestamp" : "0x0",
            "transactionsTrie" : "0x56e81f171bcc55a6ff8345e692c0f86e5b48e01b996cadc001622fb5e363b421",
            "uncleHash" : "0x1dcc4de8dec75d7aab85b567b6ccd41ad312451b948a7413f0a142fd40d49347"
        },
        "pre" : {
            "0x0f572e5295c57f15886f9b263e2f6d2d6c7b5ec6" : {
                "balance" : "0x01000000",
                "code" : "0x",
                "nonce" : "0x00",
                "storage" : {
                }
            },
            "0x1000000000000000000000000000000000000001" : {
                "balance" : "0x00",
                "code" : "0x600060006000600073a94f5374fce5edbc8e2a8697c15331677e6ebf0b61ea60fa506020600060003e60005160005500",
                "nonce" : "0x00",
                "storage" : {
                    "0x00" : "0xffffffffffffffffffffffffffffffffffffffffffffffffffffffffffffffff"
                }
            },
            "0xa94f5374fce5edbc8e2a8697c15331677e6ebf0b" : {
                "balance" : "0x6400000000",
                "code" : "0x3360005260206000f300",
                "nonce" : "0x00",
                "storage" : {
                }
            }
        },
        "postState" : {
            "0xa94f5374fce5edbc8e2a8697c15331677e6ebf0b" : {
                "code" : "0x3360005260206000f300",
                "nonce" : "0x01",
                "balance" : "0x63ffff9774",
                "storage" : {
                }
            },
            "0x1000000000000000000000000000000000000001" : {
                "code" : "0x600060006000600073a94f5374fce5edbc8e2a8697c15331677e6ebf0b61ea60fa506020600060003e60005160005500",
                "nonce" : "0x00",
                "balance" : "0x00",
                "storage" : {
                    "0x00" : "0x1000000000000000000000000000000000000001"
                }
            },
            "0x2adc25665018aa1fe0e6bc666dac8fc2697ff9ba" : {
                "code" : "0x",
                "nonce" : "0x00",
                "balance" : "0x1bc16d674ec8688c",
                "storage" : {
                }
            },
            "0x0f572e5295c57f15886f9b263e2f6d2d6c7b5ec6" : {
                "code" : "0x",
                "nonce" : "0x00",
                "balance" : "0x01000000",
                "storage" : {
                }
            }
        },
        "network" : "Istanbul",
        "sealEngine" : "NoProof",
        "lastblockhash" : "0x3310bc59ac176e91d95a387c9e04bdbf400ba9e7bbce8d398c181ab6081249be",
        "genesisRLP" : "0xf901faf901f5a00000000000000000000000000000000000000000000000000000000000000000a01dcc4de8dec75d7aab85b567b6ccd41ad312451b948a7413f0a142fd40d49347942adc25665018aa1fe0e6bc666dac8fc2697ff9baa03a5ff35c3bb65e14ec463b1e67fbfa7c0baffb0e8d3e8a84a7329c5f7bfc8789a056e81f171bcc55a6ff8345e692c0f86e5b48e01b996cadc001622fb5e363b421a056e81f171bcc55a6ff8345e692c0f86e5b48e01b996cadc001622fb5e363b421b90100000000000000000000000000000000000000000000000000000000000000000000000000000000000000000000000000000000000000000000000000000000000000000000000000000000000000000000000000000000000000000000000000000000000000000000000000000000000000000000000000000000000000000000000000000000000000000000000000000000000000000000000000000000000000000000000000000000000000000000000000000000000000000000000000000000000000000000000000000000000000000000000000000000000000000000000000000000000000000000000000000000000000000000000000000000008302000080851a00000000808000a00000000000000000000000000000000000000000000000000000000000000000880000000000000000c0c0",
        "blocks" : [
            {
                "rlp" : "0xf90263f901f9a095c0b82f869e871fe6db54c3a98e0eb4b44ad635a0104a3768148e3787c2e1e6a01dcc4de8dec75d7aab85b567b6ccd41ad312451b948a7413f0a142fd40d49347942adc25665018aa1fe0e6bc666dac8fc2697ff9baa0736cf3134da9ce54acab5234204bebe8eca7f3b46fd83e8a06fd7c1a48975f37a0942a5626ebc24a913758d77ab9d72c3563724d8a433d611b1bf05ca4a3cf5c3ba094eac79bd798fb96b52543d29c352111c47484f809b3d51231eb853dbe512345b90100000000000000000000000000000000000000000000000000000000000000000000000000000000000000000000000000000000000000000000000000000000000000000000000000000000000000000000000000000000000000000000000000000000000000000000000000000000000000000000000000000000000000000000000000000000000000000000000000000000000000000000000000000000000000000000000000000000000000000000000000000000000000000000000000000000000000000000000000000000000000000000000000000000000000000000000000000000000000000000000000000000000000000000000000000000008302000001851a067fffff82688c8203e800a00000000000000000000000000000000000000000000000000000000000000000880000000000000000f864f8628001850a0000000094100000000000000000000000000000000000000180801ba0d645bcff7a04b34bc1f20889cffafd8bf9764818e4eff2556c4513c3e6aa4426a0758a2988d8cdfe9eebdf3e6d1d2c63bd9718c956af62e21af76f52e047ace5e8c0",
                "blockHeader" : {
                    "bloom" : "0x00000000000000000000000000000000000000000000000000000000000000000000000000000000000000000000000000000000000000000000000000000000000000000000000000000000000000000000000000000000000000000000000000000000000000000000000000000000000000000000000000000000000000000000000000000000000000000000000000000000000000000000000000000000000000000000000000000000000000000000000000000000000000000000000000000000000000000000000000000000000000000000000000000000000000000000000000000000000000000000000000000000000000000000000000000000",
                    "coinbase" : "0x2adc25665018aa1fe0e6bc666dac8fc2697ff9ba",
                    "difficulty" : "0x20000",
                    "extraData" : "0x00",
                    "gasLimit" : "0x1a067fffff",
                    "gasUsed" : "0x688c",
                    "hash" : "0x3310bc59ac176e91d95a387c9e04bdbf400ba9e7bbce8d398c181ab6081249be",
                    "mixHash" : "0x0000000000000000000000000000000000000000000000000000000000000000",
                    "nonce" : "0x0000000000000000",
                    "number" : "0x1",
                    "parentHash" : "0x95c0b82f869e871fe6db54c3a98e0eb4b44ad635a0104a3768148e3787c2e1e6",
                    "receiptTrie" : "0x94eac79bd798fb96b52543d29c352111c47484f809b3d51231eb853dbe512345",
                    "stateRoot" : "0x736cf3134da9ce54acab5234204bebe8eca7f3b46fd83e8a06fd7c1a48975f37",
                    "timestamp" : "0x3e8",
                    "transactionsTrie" : "0x942a5626ebc24a913758d77ab9d72c3563724d8a433d611b1bf05ca4a3cf5c3b",
                    "uncleHash" : "0x1dcc4de8dec75d7aab85b567b6ccd41ad312451b948a7413f0a142fd40d49347"
                },
                "transactions" : [
                    {
                        "data" : "0x",
                        "gasLimit" : "0x0a00000000",
                        "gasPrice" : "0x01",
                        "nonce" : "0x00",
                        "to" : "0x1000000000000000000000000000000000000001",
                        "value" : "0x00",
                        "v" : "0x1b",
                        "r" : "0xd645bcff7a04b34bc1f20889cffafd8bf9764818e4eff2556c4513c3e6aa4426",
                        "s" : "0x758a2988d8cdfe9eebdf3e6d1d2c63bd9718c956af62e21af76f52e047ace5e8"
                    }
                ]
            }
        ]
    }
}