{
    "subcallReturnMoreThenExpected_d0g0v0_Istanbul" : {
        "_info" : {
            "comment" : "https://github.com/ethereum/tests/issues/558 (subcall/opcode return more data then expected)",
            "filling-rpc-server" : "Geth-1.9.6-unstable-63b18027-20190920",
            "filling-tool-version" : "retesteth-0.0.1+commit.0ae18aef.Linux.g++",
            "lllcversion" : "Version: 0.5.12-develop.2019.9.13+commit.2d601a4f.Linux.g++",
            "source" : "src/GeneralStateTestsFiller/stReturnDataTest/subcallReturnMoreThenExpectedFiller.yml",
            "sourceHash" : "924cf61491b55851eb982b0e61c5b18c8b493501ae2447fa54825d9129b322e8"
        },
        "genesisBlockHeader" : {
            "bloom" : "0x00000000000000000000000000000000000000000000000000000000000000000000000000000000000000000000000000000000000000000000000000000000000000000000000000000000000000000000000000000000000000000000000000000000000000000000000000000000000000000000000000000000000000000000000000000000000000000000000000000000000000000000000000000000000000000000000000000000000000000000000000000000000000000000000000000000000000000000000000000000000000000000000000000000000000000000000000000000000000000000000000000000000000000000000000000000",
            "coinbase" : "0x2adc25665018aa1fe0e6bc666dac8fc2697ff9ba",
            "difficulty" : "0x20000",
            "extraData" : "0x00",
            "gasLimit" : "0x989680",
            "gasUsed" : "0x0",
            "hash" : "0x367cb0ceb83bd3c8dd37e92eae743f7b82de4dacaafecc073c22fa356f2fe23c",
            "mixHash" : "0x0000000000000000000000000000000000000000000000000000000000000000",
            "nonce" : "0x0000000000000000",
            "number" : "0x0",
            "parentHash" : "0x0000000000000000000000000000000000000000000000000000000000000000",
            "receiptTrie" : "0x56e81f171bcc55a6ff8345e692c0f86e5b48e01b996cadc001622fb5e363b421",
            "stateRoot" : "0x9feda5e1cc6f9fb8ddda45acf0ebc0b0d9cd38cf8326329200abfc0eb74cbe70",
            "timestamp" : "0x0",
            "transactionsTrie" : "0x56e81f171bcc55a6ff8345e692c0f86e5b48e01b996cadc001622fb5e363b421",
            "uncleHash" : "0x1dcc4de8dec75d7aab85b567b6ccd41ad312451b948a7413f0a142fd40d49347"
        },
        "pre" : {
            "0x095e7baea6a6c7c4c2dfeb977efac326af552d87" : {
                "balance" : "0x0de0b6b3a7640000",
                "code" : "0x600c600060006000600073194f5374fce5edbc8e2a8697c15331677e6ebf0b62030d40f1506000516000556000600052600c60006000600073194f5374fce5edbc8e2a8697c15331677e6ebf0b62030d40f4506000516001556000600052600c60006000600073194f5374fce5edbc8e2a8697c15331677e6ebf0b62030d40fa506000516002556000600052600c600060006000600073194f5374fce5edbc8e2a8697c15331677e6ebf0b62030d40f2506000516003556000600052600c600060006000600073294f5374fce5edbc8e2a8697c15331677e6ebf0b62030d40f1506000516004556000600052600c60006000600073294f5374fce5edbc8e2a8697c15331677e6ebf0b62030d40f4506000516005556000600052600c60006000600073294f5374fce5edbc8e2a8697c15331677e6ebf0b62030d40fa506000516006556000600052600c600060006000600073294f5374fce5edbc8e2a8697c15331677e6ebf0b62030d40f25060005160075500",
                "nonce" : "0x00",
                "storage" : {
                }
            },
            "0x194f5374fce5edbc8e2a8697c15331677e6ebf0b" : {
                "balance" : "0x0de0b6b3a7640000",
                "code" : "0x7f11223344556677889910111213141516171819202122232425262728293031326000527f333435363738394041424344454647484950515253545556575859606162636460205260406000f300",
                "nonce" : "0x00",
                "storage" : {
                }
            },
            "0x294f5374fce5edbc8e2a8697c15331677e6ebf0b" : {
                "balance" : "0x0de0b6b3a7640000",
                "code" : "0x7f11223344556677889910111213141516171819202122232425262728293031326000527f333435363738394041424344454647484950515253545556575859606162636460205260406000fd00",
                "nonce" : "0x00",
                "storage" : {
                }
            },
            "0xa94f5374fce5edbc8e2a8697c15331677e6ebf0b" : {
                "balance" : "0x0de0b6b3a7640000",
                "code" : "0x00",
                "nonce" : "0x00",
                "storage" : {
                }
            }
        },
        "postState" : {
            "0xa94f5374fce5edbc8e2a8697c15331677e6ebf0b" : {
                "code" : "0x00",
                "nonce" : "0x01",
                "balance" : "0x0de0b6b3a76124f1",
                "storage" : {
                }
            },
            "0x095e7baea6a6c7c4c2dfeb977efac326af552d87" : {
                "code" : "0x600c600060006000600073194f5374fce5edbc8e2a8697c15331677e6ebf0b62030d40f1506000516000556000600052600c60006000600073194f5374fce5edbc8e2a8697c15331677e6ebf0b62030d40f4506000516001556000600052600c60006000600073194f5374fce5edbc8e2a8697c15331677e6ebf0b62030d40fa506000516002556000600052600c600060006000600073194f5374fce5edbc8e2a8697c15331677e6ebf0b62030d40f2506000516003556000600052600c600060006000600073294f5374fce5edbc8e2a8697c15331677e6ebf0b62030d40f1506000516004556000600052600c60006000600073294f5374fce5edbc8e2a8697c15331677e6ebf0b62030d40f4506000516005556000600052600c60006000600073294f5374fce5edbc8e2a8697c15331677e6ebf0b62030d40fa506000516006556000600052600c600060006000600073294f5374fce5edbc8e2a8697c15331677e6ebf0b62030d40f25060005160075500",
                "nonce" : "0x00",
                "balance" : "0x0de0b6b3a7640001",
                "storage" : {
                    "0x05" : "0x1122334455667788991011120000000000000000000000000000000000000000",
                    "0x00" : "0x1122334455667788991011120000000000000000000000000000000000000000",
                    "0x02" : "0x1122334455667788991011120000000000000000000000000000000000000000",
                    "0x04" : "0x1122334455667788991011120000000000000000000000000000000000000000",
                    "0x07" : "0x1122334455667788991011120000000000000000000000000000000000000000",
                    "0x01" : "0x1122334455667788991011120000000000000000000000000000000000000000",
                    "0x03" : "0x1122334455667788991011120000000000000000000000000000000000000000",
                    "0x06" : "0x1122334455667788991011120000000000000000000000000000000000000000"
                }
            },
            "0x194f5374fce5edbc8e2a8697c15331677e6ebf0b" : {
                "code" : "0x7f11223344556677889910111213141516171819202122232425262728293031326000527f333435363738394041424344454647484950515253545556575859606162636460205260406000f300",
                "nonce" : "0x00",
                "balance" : "0x0de0b6b3a7640000",
                "storage" : {
                }
            },
            "0x294f5374fce5edbc8e2a8697c15331677e6ebf0b" : {
                "code" : "0x7f11223344556677889910111213141516171819202122232425262728293031326000527f333435363738394041424344454647484950515253545556575859606162636460205260406000fd00",
                "nonce" : "0x00",
                "balance" : "0x0de0b6b3a7640000",
                "storage" : {
                }
            },
            "0x2adc25665018aa1fe0e6bc666dac8fc2697ff9ba" : {
                "code" : "0x",
                "nonce" : "0x00",
                "balance" : "0x1bc16d674ecadb0e",
                "storage" : {
                }
            }
        },
        "network" : "Istanbul",
        "sealEngine" : "NoProof",
        "lastblockhash" : "0x775914d0afd459d9b3e3f8a159b9cf2b864202e75082b9fbef605f76ebb24f48",
        "genesisRLP" : "0xf901f8f901f3a00000000000000000000000000000000000000000000000000000000000000000a01dcc4de8dec75d7aab85b567b6ccd41ad312451b948a7413f0a142fd40d49347942adc25665018aa1fe0e6bc666dac8fc2697ff9baa09feda5e1cc6f9fb8ddda45acf0ebc0b0d9cd38cf8326329200abfc0eb74cbe70a056e81f171bcc55a6ff8345e692c0f86e5b48e01b996cadc001622fb5e363b421a056e81f171bcc55a6ff8345e692c0f86e5b48e01b996cadc001622fb5e363b421b9010000000000000000000000000000000000000000000000000000000000000000000000000000000000000000000000000000000000000000000000000000000000000000000000000000000000000000000000000000000000000000000000000000000000000000000000000000000000000000000000000000000000000000000000000000000000000000000000000000000000000000000000000000000000000000000000000000000000000000000000000000000000000000000000000000000000000000000000000000000000000000000000000000000000000000000000000000000000000000000000000000000000000000000000000000000000830200008083989680808000a00000000000000000000000000000000000000000000000000000000000000000880000000000000000c0c0",
        "blocks" : [
            {
                "rlp" : "0xf90260f901f8a0367cb0ceb83bd3c8dd37e92eae743f7b82de4dacaafecc073c22fa356f2fe23ca01dcc4de8dec75d7aab85b567b6ccd41ad312451b948a7413f0a142fd40d49347942adc25665018aa1fe0e6bc666dac8fc2697ff9baa078526235851370005091fbd6a8f7e5a6b4b17c0a062758c5b9f38584a60ead4ca0f2fde0741a86c3f5b87ccee3cce6faafd15be92989188f40919cb13422672757a0abdcef03faccb35e8ed784d3a3142b99e26de2caeb8d0c08fbf10fccbfc226dcb901000000000000000000000000000000000000000000000000000000000000000000000000000000000000000000000000000000000000000000000000000000000000000000000000000000000000000000000000000000000000000000000000000000000000000000000000000000000000000000000000000000000000000000000000000000000000000000000000000000000000000000000000000000000000000000000000000000000000000000000000000000000000000000000000000000000000000000000000000000000000000000000000000000000000000000000000000000000000000000000000000000000000000000000000000000000083020000018398bca48302db0e8203e800a00000000000000000000000000000000000000000000000000000000000000000880000000000000000f862f860800183061a8094095e7baea6a6c7c4c2dfeb977efac326af552d8701801ca0ae29a79903b187c6d075320f9834a330b5134244c7fb0476eba58cd87b175fd6a027a8f85308f5f08f4e2f6b2e23d9dcfd740108f8f96517e50c9e1dc86288a673c0",
                "blockHeader" : {
                    "bloom" : "0x00000000000000000000000000000000000000000000000000000000000000000000000000000000000000000000000000000000000000000000000000000000000000000000000000000000000000000000000000000000000000000000000000000000000000000000000000000000000000000000000000000000000000000000000000000000000000000000000000000000000000000000000000000000000000000000000000000000000000000000000000000000000000000000000000000000000000000000000000000000000000000000000000000000000000000000000000000000000000000000000000000000000000000000000000000000",
                    "coinbase" : "0x2adc25665018aa1fe0e6bc666dac8fc2697ff9ba",
                    "difficulty" : "0x20000",
                    "extraData" : "0x00",
                    "gasLimit" : "0x98bca4",
                    "gasUsed" : "0x2db0e",
                    "hash" : "0x775914d0afd459d9b3e3f8a159b9cf2b864202e75082b9fbef605f76ebb24f48",
                    "mixHash" : "0x0000000000000000000000000000000000000000000000000000000000000000",
                    "nonce" : "0x0000000000000000",
                    "number" : "0x1",
                    "parentHash" : "0x367cb0ceb83bd3c8dd37e92eae743f7b82de4dacaafecc073c22fa356f2fe23c",
                    "receiptTrie" : "0xabdcef03faccb35e8ed784d3a3142b99e26de2caeb8d0c08fbf10fccbfc226dc",
                    "stateRoot" : "0x78526235851370005091fbd6a8f7e5a6b4b17c0a062758c5b9f38584a60ead4c",
                    "timestamp" : "0x3e8",
                    "transactionsTrie" : "0xf2fde0741a86c3f5b87ccee3cce6faafd15be92989188f40919cb13422672757",
                    "uncleHash" : "0x1dcc4de8dec75d7aab85b567b6ccd41ad312451b948a7413f0a142fd40d49347"
                },
                "transactions" : [
                    {
                        "data" : "0x",
                        "gasLimit" : "0x061a80",
                        "gasPrice" : "0x01",
                        "nonce" : "0x00",
                        "to" : "0x095e7baea6a6c7c4c2dfeb977efac326af552d87",
                        "value" : "0x01",
                        "v" : "0x1c",
                        "r" : "0xae29a79903b187c6d075320f9834a330b5134244c7fb0476eba58cd87b175fd6",
                        "s" : "0x27a8f85308f5f08f4e2f6b2e23d9dcfd740108f8f96517e50c9e1dc86288a673"
                    }
                ]
            }
        ]
    }
}