{
    "codeCopyOffset_d0g0v0_Istanbul" : {
        "_info" : {
            "comment" : "",
            "filling-rpc-server" : "Geth-1.9.6-unstable-63b18027-20190920",
            "filling-tool-version" : "retesteth-0.0.1+commit.0ae18aef.Linux.g++",
            "lllcversion" : "Version: 0.5.12-develop.2019.9.13+commit.2d601a4f.Linux.g++",
            "source" : "src/GeneralStateTestsFiller/stMemoryTest/codeCopyOffsetFiller.json",
            "sourceHash" : "06c7e92db4bc5a11bd7fff48de1f2fad4fda09ae168de4e894ef6cbcbdc01166"
        },
        "genesisBlockHeader" : {
            "bloom" : "0x00000000000000000000000000000000000000000000000000000000000000000000000000000000000000000000000000000000000000000000000000000000000000000000000000000000000000000000000000000000000000000000000000000000000000000000000000000000000000000000000000000000000000000000000000000000000000000000000000000000000000000000000000000000000000000000000000000000000000000000000000000000000000000000000000000000000000000000000000000000000000000000000000000000000000000000000000000000000000000000000000000000000000000000000000000000",
            "coinbase" : "0x2adc25665018aa1fe0e6bc666dac8fc2697ff9ba",
            "difficulty" : "0x20000",
            "extraData" : "0x00",
            "gasLimit" : "0xf4240",
            "gasUsed" : "0x0",
            "hash" : "0xdee2ae3fac20722e944d45aa24418147bdb2dc2483220bfb3092c5902b7008e0",
            "mixHash" : "0x0000000000000000000000000000000000000000000000000000000000000000",
            "nonce" : "0x0000000000000000",
            "number" : "0x0",
            "parentHash" : "0x0000000000000000000000000000000000000000000000000000000000000000",
            "receiptTrie" : "0x56e81f171bcc55a6ff8345e692c0f86e5b48e01b996cadc001622fb5e363b421",
            "stateRoot" : "0xe91e0949f06928c1b90f97b6b1f364c471b7448bd8f12cf1a734f2edf73d7415",
            "timestamp" : "0x0",
            "transactionsTrie" : "0x56e81f171bcc55a6ff8345e692c0f86e5b48e01b996cadc001622fb5e363b421",
            "uncleHash" : "0x1dcc4de8dec75d7aab85b567b6ccd41ad312451b948a7413f0a142fd40d49347"
        },
        "pre" : {
            "0x095e7baea6a6c7c4c2dfeb977efac326af552d87" : {
                "balance" : "0x0de0b6b3a7640000",
                "code" : "0x670123456789abcdef60005260006000600f6000600073eeeeeeeeeeeeeeeeeeeeeeeeeeeeeeeeeeeeeeee61fffff1",
                "nonce" : "0x01",
                "storage" : {
                }
            },
            "0xa94f5374fce5edbc8e2a8697c15331677e6ebf0b" : {
                "balance" : "0x0de0b6b3a7640000",
                "code" : "0x",
                "nonce" : "0x00",
                "storage" : {
                }
            },
            "0xeeeeeeeeeeeeeeeeeeeeeeeeeeeeeeeeeeeeeeee" : {
                "balance" : "0x0de0b6b3a7640000",
                "code" : "0x7fffffffffffffffffffffffffffffffffffffffffffffffffffffffffffffffff600052601061ffff60003960005160005500",
                "nonce" : "0x01",
                "storage" : {
                }
            }
        },
        "postState" : {
            "0xa94f5374fce5edbc8e2a8697c15331677e6ebf0b" : {
                "code" : "0x",
                "nonce" : "0x01",
                "balance" : "0x0de0b6b3a761d637",
                "storage" : {
                }
            },
            "0x095e7baea6a6c7c4c2dfeb977efac326af552d87" : {
                "code" : "0x670123456789abcdef60005260006000600f6000600073eeeeeeeeeeeeeeeeeeeeeeeeeeeeeeeeeeeeeeee61fffff1",
                "nonce" : "0x01",
                "balance" : "0x0de0b6b3a76586a0",
                "storage" : {
                }
            },
            "0x2adc25665018aa1fe0e6bc666dac8fc2697ff9ba" : {
                "code" : "0x",
                "nonce" : "0x00",
                "balance" : "0x1bc16d674ec8a329",
                "storage" : {
                }
            },
            "0xeeeeeeeeeeeeeeeeeeeeeeeeeeeeeeeeeeeeeeee" : {
                "code" : "0x7fffffffffffffffffffffffffffffffffffffffffffffffffffffffffffffffff600052601061ffff60003960005160005500",
                "nonce" : "0x01",
                "balance" : "0x0de0b6b3a7640000",
                "storage" : {
                    "0x00" : "0xffffffffffffffffffffffffffffffff"
                }
            }
        },
        "network" : "Istanbul",
        "sealEngine" : "NoProof",
        "lastblockhash" : "0xe6eff87e313c5a58213ba8546b383e513d6e888ee78623f2aff2e740c3b9f61a",
        "genesisRLP" : "0xf901f8f901f3a00000000000000000000000000000000000000000000000000000000000000000a01dcc4de8dec75d7aab85b567b6ccd41ad312451b948a7413f0a142fd40d49347942adc25665018aa1fe0e6bc666dac8fc2697ff9baa0e91e0949f06928c1b90f97b6b1f364c471b7448bd8f12cf1a734f2edf73d7415a056e81f171bcc55a6ff8345e692c0f86e5b48e01b996cadc001622fb5e363b421a056e81f171bcc55a6ff8345e692c0f86e5b48e01b996cadc001622fb5e363b421b90100000000000000000000000000000000000000000000000000000000000000000000000000000000000000000000000000000000000000000000000000000000000000000000000000000000000000000000000000000000000000000000000000000000000000000000000000000000000000000000000000000000000000000000000000000000000000000000000000000000000000000000000000000000000000000000000000000000000000000000000000000000000000000000000000000000000000000000000000000000000000000000000000000000000000000000000000000000000000000000000000000000000000000000000000000000008302000080830f4240808000a00000000000000000000000000000000000000000000000000000000000000000880000000000000000c0c0",
        "blocks" : [
            {
                "rlp" : "0xf90262f901f7a0dee2ae3fac20722e944d45aa24418147bdb2dc2483220bfb3092c5902b7008e0a01dcc4de8dec75d7aab85b567b6ccd41ad312451b948a7413f0a142fd40d49347942adc25665018aa1fe0e6bc666dac8fc2697ff9baa0598a451beb1945b1e079caa119671ac4555a710fb91faff4e0c1ae657ea770aea093ca2a18d52e7c1846f7b104e2fc1e5fdc71ebe38187248f9437d39e74f43aaba054e5753e61b57b62183e2137735a8edefacd994fdcd873b8791f7075bb9ad0a7b90100000000000000000000000000000000000000000000000000000000000000000000000000000000000000000000000000000000000000000000000000000000000000000000000000000000000000000000000000000000000000000000000000000000000000000000000000000000000000000000000000000000000000000000000000000000000000000000000000000000000000000000000000000000000000000000000000000000000000000000000000000000000000000000000000000000000000000000000000000000000000000000000000000000000000000000000000000000000000000000000000000000000000000000000000000000008302000001830f460f82a3298203e800a00000000000000000000000000000000000000000000000000000000000000000880000000000000000f865f863800183061a8094095e7baea6a6c7c4c2dfeb977efac326af552d87830186a0801ca0e94818d1f3b0c69eb37720145a5ead7fbf6f8d80139dd53953b4a782301050a3a01fcf46908c01576715411be0857e30027d6be3250a3653f049b3ff8d74d2540cc0",
                "blockHeader" : {
                    "bloom" : "0x00000000000000000000000000000000000000000000000000000000000000000000000000000000000000000000000000000000000000000000000000000000000000000000000000000000000000000000000000000000000000000000000000000000000000000000000000000000000000000000000000000000000000000000000000000000000000000000000000000000000000000000000000000000000000000000000000000000000000000000000000000000000000000000000000000000000000000000000000000000000000000000000000000000000000000000000000000000000000000000000000000000000000000000000000000000",
                    "coinbase" : "0x2adc25665018aa1fe0e6bc666dac8fc2697ff9ba",
                    "difficulty" : "0x20000",
                    "extraData" : "0x00",
                    "gasLimit" : "0xf460f",
                    "gasUsed" : "0xa329",
                    "hash" : "0xe6eff87e313c5a58213ba8546b383e513d6e888ee78623f2aff2e740c3b9f61a",
                    "mixHash" : "0x0000000000000000000000000000000000000000000000000000000000000000",
                    "nonce" : "0x0000000000000000",
                    "number" : "0x1",
                    "parentHash" : "0xdee2ae3fac20722e944d45aa24418147bdb2dc2483220bfb3092c5902b7008e0",
                    "receiptTrie" : "0x54e5753e61b57b62183e2137735a8edefacd994fdcd873b8791f7075bb9ad0a7",
                    "stateRoot" : "0x598a451beb1945b1e079caa119671ac4555a710fb91faff4e0c1ae657ea770ae",
                    "timestamp" : "0x3e8",
                    "transactionsTrie" : "0x93ca2a18d52e7c1846f7b104e2fc1e5fdc71ebe38187248f9437d39e74f43aab",
                    "uncleHash" : "0x1dcc4de8dec75d7aab85b567b6ccd41ad312451b948a7413f0a142fd40d49347"
                },
                "transactions" : [
                    {
                        "data" : "0x",
                        "gasLimit" : "0x061a80",
                        "gasPrice" : "0x01",
                        "nonce" : "0x00",
                        "to" : "0x095e7baea6a6c7c4c2dfeb977efac326af552d87",
                        "value" : "0x0186a0",
                        "v" : "0x1c",
                        "r" : "0xe94818d1f3b0c69eb37720145a5ead7fbf6f8d80139dd53953b4a782301050a3",
                        "s" : "0x1fcf46908c01576715411be0857e30027d6be3250a3653f049b3ff8d74d2540c"
                    }
                ]
            }
        ]
    }
}