{
    "mem32kb_singleByte+31_d0g0v0_Istanbul" : {
        "_info" : {
            "comment" : "",
            "filling-rpc-server" : "Geth-1.9.6-unstable-63b18027-20190920",
            "filling-tool-version" : "retesteth-0.0.1+commit.0ae18aef.Linux.g++",
            "lllcversion" : "Version: 0.5.12-develop.2019.9.13+commit.2d601a4f.Linux.g++",
            "source" : "src/GeneralStateTestsFiller/stMemoryTest/mem32kb_singleByte+31Filler.json",
            "sourceHash" : "ac272fe014b5acdd0ddf0a3fdb566f3bb8046b9311fa0a9f9cd7232e5815f718"
        },
        "genesisBlockHeader" : {
            "bloom" : "0x00000000000000000000000000000000000000000000000000000000000000000000000000000000000000000000000000000000000000000000000000000000000000000000000000000000000000000000000000000000000000000000000000000000000000000000000000000000000000000000000000000000000000000000000000000000000000000000000000000000000000000000000000000000000000000000000000000000000000000000000000000000000000000000000000000000000000000000000000000000000000000000000000000000000000000000000000000000000000000000000000000000000000000000000000000000",
            "coinbase" : "0x2adc25665018aa1fe0e6bc666dac8fc2697ff9ba",
            "difficulty" : "0x20000",
            "extraData" : "0x00",
            "gasLimit" : "0xa00000000",
            "gasUsed" : "0x0",
            "hash" : "0x90ea9585e0a89cb116a247735decf30144a32ab9d2f52454e4586fcc621d291c",
            "mixHash" : "0x0000000000000000000000000000000000000000000000000000000000000000",
            "nonce" : "0x0000000000000000",
            "number" : "0x0",
            "parentHash" : "0x0000000000000000000000000000000000000000000000000000000000000000",
            "receiptTrie" : "0x56e81f171bcc55a6ff8345e692c0f86e5b48e01b996cadc001622fb5e363b421",
            "stateRoot" : "0x4cea58cc8c1e19eba2d07f01b1e4cca2623e143738a0d69c752b45433bbb96bf",
            "timestamp" : "0x0",
            "transactionsTrie" : "0x56e81f171bcc55a6ff8345e692c0f86e5b48e01b996cadc001622fb5e363b421",
            "uncleHash" : "0x1dcc4de8dec75d7aab85b567b6ccd41ad312451b948a7413f0a142fd40d49347"
        },
        "pre" : {
            "0x0f572e5295c57f15886f9b263e2f6d2d6c7b5ec6" : {
                "balance" : "0x0de0b6b3a7640000",
                "code" : "0x602a617d1e535960005500",
                "nonce" : "0x00",
                "storage" : {
                }
            },
            "0xa94f5374fce5edbc8e2a8697c15331677e6ebf0b" : {
                "balance" : "0x6400000000",
                "code" : "0x",
                "nonce" : "0x00",
                "storage" : {
                }
            }
        },
        "postState" : {
            "0xa94f5374fce5edbc8e2a8697c15331677e6ebf0b" : {
                "code" : "0x",
                "nonce" : "0x01",
                "balance" : "0x63ffff4c60",
                "storage" : {
                }
            },
            "0x2adc25665018aa1fe0e6bc666dac8fc2697ff9ba" : {
                "code" : "0x",
                "nonce" : "0x00",
                "balance" : "0x1bc16d674ec8b396",
                "storage" : {
                }
            },
            "0x0f572e5295c57f15886f9b263e2f6d2d6c7b5ec6" : {
                "code" : "0x602a617d1e535960005500",
                "nonce" : "0x00",
                "balance" : "0x0de0b6b3a764000a",
                "storage" : {
                    "0x00" : "0x7d20"
                }
            }
        },
        "network" : "Istanbul",
        "sealEngine" : "NoProof",
        "lastblockhash" : "0x813df027596953e5dd7140891a32c3c7174d91eb59f568d0b194de54ec5a8ffc",
        "genesisRLP" : "0xf901faf901f5a00000000000000000000000000000000000000000000000000000000000000000a01dcc4de8dec75d7aab85b567b6ccd41ad312451b948a7413f0a142fd40d49347942adc25665018aa1fe0e6bc666dac8fc2697ff9baa04cea58cc8c1e19eba2d07f01b1e4cca2623e143738a0d69c752b45433bbb96bfa056e81f171bcc55a6ff8345e692c0f86e5b48e01b996cadc001622fb5e363b421a056e81f171bcc55a6ff8345e692c0f86e5b48e01b996cadc001622fb5e363b421b90100000000000000000000000000000000000000000000000000000000000000000000000000000000000000000000000000000000000000000000000000000000000000000000000000000000000000000000000000000000000000000000000000000000000000000000000000000000000000000000000000000000000000000000000000000000000000000000000000000000000000000000000000000000000000000000000000000000000000000000000000000000000000000000000000000000000000000000000000000000000000000000000000000000000000000000000000000000000000000000000000000000000000000000000000000000008302000080850a00000000808000a00000000000000000000000000000000000000000000000000000000000000000880000000000000000c0c0",
        "blocks" : [
            {
                "rlp" : "0xf90262f901f9a090ea9585e0a89cb116a247735decf30144a32ab9d2f52454e4586fcc621d291ca01dcc4de8dec75d7aab85b567b6ccd41ad312451b948a7413f0a142fd40d49347942adc25665018aa1fe0e6bc666dac8fc2697ff9baa0b0e55c793552bf43f6e3b8b3e2b689d6209e04b3523cbd212faae683b49af7e2a0579a1a7e0077c790d96eb12a938445003a0f26110320cb2527921bad5605561aa0f5e050bec8d172a02f861129bc93d9e4c1affd08ef68da756d2b9a0e95afdcf2b90100000000000000000000000000000000000000000000000000000000000000000000000000000000000000000000000000000000000000000000000000000000000000000000000000000000000000000000000000000000000000000000000000000000000000000000000000000000000000000000000000000000000000000000000000000000000000000000000000000000000000000000000000000000000000000000000000000000000000000000000000000000000000000000000000000000000000000000000000000000000000000000000000000000000000000000000000000000000000000000000000000000000000000000000000000000008302000001850a027fffff82b3968203e800a00000000000000000000000000000000000000000000000000000000000000000880000000000000000f863f86180018450001798940f572e5295c57f15886f9b263e2f6d2d6c7b5ec60a801ba0c368a240875530dbea24d5f971b4ade577a1702ed44b66a0ca6c592986d3d1a7a00534768d31a4befd7cee3b7a73775e16bb1d9aca9ef2e8828286a408a0115978c0",
                "blockHeader" : {
                    "bloom" : "0x00000000000000000000000000000000000000000000000000000000000000000000000000000000000000000000000000000000000000000000000000000000000000000000000000000000000000000000000000000000000000000000000000000000000000000000000000000000000000000000000000000000000000000000000000000000000000000000000000000000000000000000000000000000000000000000000000000000000000000000000000000000000000000000000000000000000000000000000000000000000000000000000000000000000000000000000000000000000000000000000000000000000000000000000000000000",
                    "coinbase" : "0x2adc25665018aa1fe0e6bc666dac8fc2697ff9ba",
                    "difficulty" : "0x20000",
                    "extraData" : "0x00",
                    "gasLimit" : "0xa027fffff",
                    "gasUsed" : "0xb396",
                    "hash" : "0x813df027596953e5dd7140891a32c3c7174d91eb59f568d0b194de54ec5a8ffc",
                    "mixHash" : "0x0000000000000000000000000000000000000000000000000000000000000000",
                    "nonce" : "0x0000000000000000",
                    "number" : "0x1",
                    "parentHash" : "0x90ea9585e0a89cb116a247735decf30144a32ab9d2f52454e4586fcc621d291c",
                    "receiptTrie" : "0xf5e050bec8d172a02f861129bc93d9e4c1affd08ef68da756d2b9a0e95afdcf2",
                    "stateRoot" : "0xb0e55c793552bf43f6e3b8b3e2b689d6209e04b3523cbd212faae683b49af7e2",
                    "timestamp" : "0x3e8",
                    "transactionsTrie" : "0x579a1a7e0077c790d96eb12a938445003a0f26110320cb2527921bad5605561a",
                    "uncleHash" : "0x1dcc4de8dec75d7aab85b567b6ccd41ad312451b948a7413f0a142fd40d49347"
                },
                "transactions" : [
                    {
                        "data" : "0x",
                        "gasLimit" : "0x50001798",
                        "gasPrice" : "0x01",
                        "nonce" : "0x00",
                        "to" : "0x0f572e5295c57f15886f9b263e2f6d2d6c7b5ec6",
                        "value" : "0x0a",
                        "v" : "0x1b",
                        "r" : "0xc368a240875530dbea24d5f971b4ade577a1702ed44b66a0ca6c592986d3d1a7",
                        "s" : "0x0534768d31a4befd7cee3b7a73775e16bb1d9aca9ef2e8828286a408a0115978"
                    }
                ]
            }
        ]
    }
}