{
    "mem64kb_singleByte-31_d0g0v0_Istanbul" : {
        "_info" : {
            "comment" : "",
            "filling-rpc-server" : "Geth-1.9.6-unstable-63b18027-20190920",
            "filling-tool-version" : "retesteth-0.0.1+commit.0ae18aef.Linux.g++",
            "lllcversion" : "Version: 0.5.12-develop.2019.9.13+commit.2d601a4f.Linux.g++",
            "source" : "src/GeneralStateTestsFiller/stMemoryTest/mem64kb_singleByte-31Filler.json",
            "sourceHash" : "5fd3fb16b044c4ec4783695df22dc2f4ac6553ad976d2b574439407e2329852c"
        },
        "genesisBlockHeader" : {
            "bloom" : "0x00000000000000000000000000000000000000000000000000000000000000000000000000000000000000000000000000000000000000000000000000000000000000000000000000000000000000000000000000000000000000000000000000000000000000000000000000000000000000000000000000000000000000000000000000000000000000000000000000000000000000000000000000000000000000000000000000000000000000000000000000000000000000000000000000000000000000000000000000000000000000000000000000000000000000000000000000000000000000000000000000000000000000000000000000000000",
            "coinbase" : "0x2adc25665018aa1fe0e6bc666dac8fc2697ff9ba",
            "difficulty" : "0x20000",
            "extraData" : "0x00",
            "gasLimit" : "0xa00000000",
            "gasUsed" : "0x0",
            "hash" : "0x0954825d156df2922e8b1b6a468c12f36ef9969c0dae0c123f623b297a5576d3",
            "mixHash" : "0x0000000000000000000000000000000000000000000000000000000000000000",
            "nonce" : "0x0000000000000000",
            "number" : "0x0",
            "parentHash" : "0x0000000000000000000000000000000000000000000000000000000000000000",
            "receiptTrie" : "0x56e81f171bcc55a6ff8345e692c0f86e5b48e01b996cadc001622fb5e363b421",
            "stateRoot" : "0x1ce3a63c4590db45c295cffc6ba841a1c46f1fbee6343ff89e3451f60294b85f",
            "timestamp" : "0x0",
            "transactionsTrie" : "0x56e81f171bcc55a6ff8345e692c0f86e5b48e01b996cadc001622fb5e363b421",
            "uncleHash" : "0x1dcc4de8dec75d7aab85b567b6ccd41ad312451b948a7413f0a142fd40d49347"
        },
        "pre" : {
            "0x0f572e5295c57f15886f9b263e2f6d2d6c7b5ec6" : {
                "balance" : "0x0de0b6b3a7640000",
                "code" : "0x602a61f9e0535960005500",
                "nonce" : "0x00",
                "storage" : {
                }
            },
            "0xa94f5374fce5edbc8e2a8697c15331677e6ebf0b" : {
                "balance" : "0x6400000000",
                "code" : "0x",
                "nonce" : "0x00",
                "storage" : {
                }
            }
        },
        "postState" : {
            "0xa94f5374fce5edbc8e2a8697c15331677e6ebf0b" : {
                "code" : "0x",
                "nonce" : "0x01",
                "balance" : "0x63ffff29cc",
                "storage" : {
                }
            },
            "0x2adc25665018aa1fe0e6bc666dac8fc2697ff9ba" : {
                "code" : "0x",
                "nonce" : "0x00",
                "balance" : "0x1bc16d674ec8d62a",
                "storage" : {
                }
            },
            "0x0f572e5295c57f15886f9b263e2f6d2d6c7b5ec6" : {
                "code" : "0x602a61f9e0535960005500",
                "nonce" : "0x00",
                "balance" : "0x0de0b6b3a764000a",
                "storage" : {
                    "0x00" : "0xfa00"
                }
            }
        },
        "network" : "Istanbul",
        "sealEngine" : "NoProof",
        "lastblockhash" : "0x8c7c2f57c32d278846846f7d44b71a49e08f6db85cc8865f1bb723f7bf7ff331",
        "genesisRLP" : "0xf901faf901f5a00000000000000000000000000000000000000000000000000000000000000000a01dcc4de8dec75d7aab85b567b6ccd41ad312451b948a7413f0a142fd40d49347942adc25665018aa1fe0e6bc666dac8fc2697ff9baa01ce3a63c4590db45c295cffc6ba841a1c46f1fbee6343ff89e3451f60294b85fa056e81f171bcc55a6ff8345e692c0f86e5b48e01b996cadc001622fb5e363b421a056e81f171bcc55a6ff8345e692c0f86e5b48e01b996cadc001622fb5e363b421b90100000000000000000000000000000000000000000000000000000000000000000000000000000000000000000000000000000000000000000000000000000000000000000000000000000000000000000000000000000000000000000000000000000000000000000000000000000000000000000000000000000000000000000000000000000000000000000000000000000000000000000000000000000000000000000000000000000000000000000000000000000000000000000000000000000000000000000000000000000000000000000000000000000000000000000000000000000000000000000000000000000000000000000000000000000000008302000080850a00000000808000a00000000000000000000000000000000000000000000000000000000000000000880000000000000000c0c0",
        "blocks" : [
            {
                "rlp" : "0xf90262f901f9a00954825d156df2922e8b1b6a468c12f36ef9969c0dae0c123f623b297a5576d3a01dcc4de8dec75d7aab85b567b6ccd41ad312451b948a7413f0a142fd40d49347942adc25665018aa1fe0e6bc666dac8fc2697ff9baa0f6a79fe365b4b84fe32f69a18defa44592796ce516f699ca8b92410304f22be1a0579a1a7e0077c790d96eb12a938445003a0f26110320cb2527921bad5605561aa0e40d25af32d198898889f6eeab7d991156b4b2c8e227d327f4aebc6ec7befe12b90100000000000000000000000000000000000000000000000000000000000000000000000000000000000000000000000000000000000000000000000000000000000000000000000000000000000000000000000000000000000000000000000000000000000000000000000000000000000000000000000000000000000000000000000000000000000000000000000000000000000000000000000000000000000000000000000000000000000000000000000000000000000000000000000000000000000000000000000000000000000000000000000000000000000000000000000000000000000000000000000000000000000000000000000000000000008302000001850a027fffff82d62a8203e800a00000000000000000000000000000000000000000000000000000000000000000880000000000000000f863f86180018450001798940f572e5295c57f15886f9b263e2f6d2d6c7b5ec60a801ba0c368a240875530dbea24d5f971b4ade577a1702ed44b66a0ca6c592986d3d1a7a00534768d31a4befd7cee3b7a73775e16bb1d9aca9ef2e8828286a408a0115978c0",
                "blockHeader" : {
                    "bloom" : "0x00000000000000000000000000000000000000000000000000000000000000000000000000000000000000000000000000000000000000000000000000000000000000000000000000000000000000000000000000000000000000000000000000000000000000000000000000000000000000000000000000000000000000000000000000000000000000000000000000000000000000000000000000000000000000000000000000000000000000000000000000000000000000000000000000000000000000000000000000000000000000000000000000000000000000000000000000000000000000000000000000000000000000000000000000000000",
                    "coinbase" : "0x2adc25665018aa1fe0e6bc666dac8fc2697ff9ba",
                    "difficulty" : "0x20000",
                    "extraData" : "0x00",
                    "gasLimit" : "0xa027fffff",
                    "gasUsed" : "0xd62a",
                    "hash" : "0x8c7c2f57c32d278846846f7d44b71a49e08f6db85cc8865f1bb723f7bf7ff331",
                    "mixHash" : "0x0000000000000000000000000000000000000000000000000000000000000000",
                    "nonce" : "0x0000000000000000",
                    "number" : "0x1",
                    "parentHash" : "0x0954825d156df2922e8b1b6a468c12f36ef9969c0dae0c123f623b297a5576d3",
                    "receiptTrie" : "0xe40d25af32d198898889f6eeab7d991156b4b2c8e227d327f4aebc6ec7befe12",
                    "stateRoot" : "0xf6a79fe365b4b84fe32f69a18defa44592796ce516f699ca8b92410304f22be1",
                    "timestamp" : "0x3e8",
                    "transactionsTrie" : "0x579a1a7e0077c790d96eb12a938445003a0f26110320cb2527921bad5605561a",
                    "uncleHash" : "0x1dcc4de8dec75d7aab85b567b6ccd41ad312451b948a7413f0a142fd40d49347"
                },
                "transactions" : [
                    {
                        "data" : "0x",
                        "gasLimit" : "0x50001798",
                        "gasPrice" : "0x01",
                        "nonce" : "0x00",
                        "to" : "0x0f572e5295c57f15886f9b263e2f6d2d6c7b5ec6",
                        "value" : "0x0a",
                        "v" : "0x1b",
                        "r" : "0xc368a240875530dbea24d5f971b4ade577a1702ed44b66a0ca6c592986d3d1a7",
                        "s" : "0x0534768d31a4befd7cee3b7a73775e16bb1d9aca9ef2e8828286a408a0115978"
                    }
                ]
            }
        ]
    }
}