{
    "stackLimitGas_1025_d0g0v0_Istanbul" : {
        "_info" : {
            "comment" : "",
            "filling-rpc-server" : "Geth-1.9.6-unstable-63b18027-20190920",
            "filling-tool-version" : "retesteth-0.0.1+commit.0ae18aef.Linux.g++",
            "lllcversion" : "Version: 0.5.12-develop.2019.9.13+commit.2d601a4f.Linux.g++",
            "source" : "src/GeneralStateTestsFiller/stMemoryTest/stackLimitGas_1025Filler.json",
            "sourceHash" : "e9d871890a993d0c158f1a40052855861091a61950b51900f7f02e27ccc20f7a"
        },
        "genesisBlockHeader" : {
            "bloom" : "0x00000000000000000000000000000000000000000000000000000000000000000000000000000000000000000000000000000000000000000000000000000000000000000000000000000000000000000000000000000000000000000000000000000000000000000000000000000000000000000000000000000000000000000000000000000000000000000000000000000000000000000000000000000000000000000000000000000000000000000000000000000000000000000000000000000000000000000000000000000000000000000000000000000000000000000000000000000000000000000000000000000000000000000000000000000000",
            "coinbase" : "0x2adc25665018aa1fe0e6bc666dac8fc2697ff9ba",
            "difficulty" : "0x20000",
            "extraData" : "0x00",
            "gasLimit" : "0xa00000000",
            "gasUsed" : "0x0",
            "hash" : "0x053ee49cea1f43f916d1eb084c4f445fe20177e5005e2d158e406ef434ee1a9a",
            "mixHash" : "0x0000000000000000000000000000000000000000000000000000000000000000",
            "nonce" : "0x0000000000000000",
            "number" : "0x0",
            "parentHash" : "0x0000000000000000000000000000000000000000000000000000000000000000",
            "receiptTrie" : "0x56e81f171bcc55a6ff8345e692c0f86e5b48e01b996cadc001622fb5e363b421",
            "stateRoot" : "0xf1fcf3c28e65bc0f307173e2c2e59f7a88cacb3d489bee02aeb545a0ff936984",
            "timestamp" : "0x0",
            "transactionsTrie" : "0x56e81f171bcc55a6ff8345e692c0f86e5b48e01b996cadc001622fb5e363b421",
            "uncleHash" : "0x1dcc4de8dec75d7aab85b567b6ccd41ad312451b948a7413f0a142fd40d49347"
        },
        "pre" : {
            "0x0f572e5295c57f15886f9b263e2f6d2d6c7b5ec6" : {
                "balance" : "0x0de0b6b3a7640000",
                "code" : "0x6103ff6000525b5a6001600051036000526000516006570000",
                "nonce" : "0x00",
                "storage" : {
                }
            },
            "0xa94f5374fce5edbc8e2a8697c15331677e6ebf0b" : {
                "balance" : "0x6400000000",
                "code" : "0x",
                "nonce" : "0x00",
                "storage" : {
                }
            }
        },
        "postState" : {
            "0xa94f5374fce5edbc8e2a8697c15331677e6ebf0b" : {
                "code" : "0x",
                "nonce" : "0x01",
                "balance" : "0x63fffe7960",
                "storage" : {
                }
            },
            "0x2adc25665018aa1fe0e6bc666dac8fc2697ff9ba" : {
                "code" : "0x",
                "nonce" : "0x00",
                "balance" : "0x1bc16d674ec986a0",
                "storage" : {
                }
            },
            "0x0f572e5295c57f15886f9b263e2f6d2d6c7b5ec6" : {
                "code" : "0x6103ff6000525b5a6001600051036000526000516006570000",
                "nonce" : "0x00",
                "balance" : "0x0de0b6b3a7640000",
                "storage" : {
                }
            }
        },
        "network" : "Istanbul",
        "sealEngine" : "NoProof",
        "lastblockhash" : "0xcf6cc4ec574cd4c398eaea8c14b65203974389179a76b6480a702b9fc8b35b29",
        "genesisRLP" : "0xf901faf901f5a00000000000000000000000000000000000000000000000000000000000000000a01dcc4de8dec75d7aab85b567b6ccd41ad312451b948a7413f0a142fd40d49347942adc25665018aa1fe0e6bc666dac8fc2697ff9baa0f1fcf3c28e65bc0f307173e2c2e59f7a88cacb3d489bee02aeb545a0ff936984a056e81f171bcc55a6ff8345e692c0f86e5b48e01b996cadc001622fb5e363b421a056e81f171bcc55a6ff8345e692c0f86e5b48e01b996cadc001622fb5e363b421b90100000000000000000000000000000000000000000000000000000000000000000000000000000000000000000000000000000000000000000000000000000000000000000000000000000000000000000000000000000000000000000000000000000000000000000000000000000000000000000000000000000000000000000000000000000000000000000000000000000000000000000000000000000000000000000000000000000000000000000000000000000000000000000000000000000000000000000000000000000000000000000000000000000000000000000000000000000000000000000000000000000000000000000000000000000000008302000080850a00000000808000a00000000000000000000000000000000000000000000000000000000000000000880000000000000000c0c0",
        "blocks" : [
            {
                "rlp" : "0xf90262f901faa0053ee49cea1f43f916d1eb084c4f445fe20177e5005e2d158e406ef434ee1a9aa01dcc4de8dec75d7aab85b567b6ccd41ad312451b948a7413f0a142fd40d49347942adc25665018aa1fe0e6bc666dac8fc2697ff9baa04bce04b520cd8f7443fc3c3680bbd577e0e17e5ffd2fec96cefc8268ba9db000a0ddb8defea6c1610afd06dda64253cb99ad91fcdbcd096618c99bbf1d4b43e7cea0777f1c1c378807634128348e4f0eeca6a0e7f516ea411690ca04266323f671a4b90100000000000000000000000000000000000000000000000000000000000000000000000000000000000000000000000000000000000000000000000000000000000000000000000000000000000000000000000000000000000000000000000000000000000000000000000000000000000000000000000000000000000000000000000000000000000000000000000000000000000000000000000000000000000000000000000000000000000000000000000000000000000000000000000000000000000000000000000000000000000000000000000000000000000000000000000000000000000000000000000000000000000000000000000000000000008302000001850a027fffff830186a08203e800a00000000000000000000000000000000000000000000000000000000000000000880000000000000000f862f8608001830186a0940f572e5295c57f15886f9b263e2f6d2d6c7b5ec60a801ba0b054e6af901451cf834679b4c625bc4453057b43c728b7632a5ec533ed1f205ba05a8090300acb5cae0f1c1f1208e60b0b6aad49e2951d0725e65cc3663bd6811cc0",
                "blockHeader" : {
                    "bloom" : "0x00000000000000000000000000000000000000000000000000000000000000000000000000000000000000000000000000000000000000000000000000000000000000000000000000000000000000000000000000000000000000000000000000000000000000000000000000000000000000000000000000000000000000000000000000000000000000000000000000000000000000000000000000000000000000000000000000000000000000000000000000000000000000000000000000000000000000000000000000000000000000000000000000000000000000000000000000000000000000000000000000000000000000000000000000000000",
                    "coinbase" : "0x2adc25665018aa1fe0e6bc666dac8fc2697ff9ba",
                    "difficulty" : "0x20000",
                    "extraData" : "0x00",
                    "gasLimit" : "0xa027fffff",
                    "gasUsed" : "0x186a0",
                    "hash" : "0xcf6cc4ec574cd4c398eaea8c14b65203974389179a76b6480a702b9fc8b35b29",
                    "mixHash" : "0x0000000000000000000000000000000000000000000000000000000000000000",
                    "nonce" : "0x0000000000000000",
                    "number" : "0x1",
                    "parentHash" : "0x053ee49cea1f43f916d1eb084c4f445fe20177e5005e2d158e406ef434ee1a9a",
                    "receiptTrie" : "0x777f1c1c378807634128348e4f0eeca6a0e7f516ea411690ca04266323f671a4",
                    "stateRoot" : "0x4bce04b520cd8f7443fc3c3680bbd577e0e17e5ffd2fec96cefc8268ba9db000",
                    "timestamp" : "0x3e8",
                    "transactionsTrie" : "0xddb8defea6c1610afd06dda64253cb99ad91fcdbcd096618c99bbf1d4b43e7ce",
                    "uncleHash" : "0x1dcc4de8dec75d7aab85b567b6ccd41ad312451b948a7413f0a142fd40d49347"
                },
                "transactions" : [
                    {
                        "data" : "0x",
                        "gasLimit" : "0x0186a0",
                        "gasPrice" : "0x01",
                        "nonce" : "0x00",
                        "to" : "0x0f572e5295c57f15886f9b263e2f6d2d6c7b5ec6",
                        "value" : "0x0a",
                        "v" : "0x1b",
                        "r" : "0xb054e6af901451cf834679b4c625bc4453057b43c728b7632a5ec533ed1f205b",
                        "s" : "0x5a8090300acb5cae0f1c1f1208e60b0b6aad49e2951d0725e65cc3663bd6811c"
                    }
                ]
            }
        ]
    }
}