{
    "stackLimitPush32_1025_d0g0v0_Istanbul" : {
        "_info" : {
            "comment" : "",
            "filling-rpc-server" : "Geth-1.9.6-unstable-63b18027-20190920",
            "filling-tool-version" : "retesteth-0.0.1+commit.0ae18aef.Linux.g++",
            "lllcversion" : "Version: 0.5.12-develop.2019.9.13+commit.2d601a4f.Linux.g++",
            "source" : "src/GeneralStateTestsFiller/stMemoryTest/stackLimitPush32_1025Filler.json",
            "sourceHash" : "4d7b9bf61a9fc2b47c00816c36b716d280b006a099adeaf9dbcb0ec6367e85c4"
        },
        "genesisBlockHeader" : {
            "bloom" : "0x00000000000000000000000000000000000000000000000000000000000000000000000000000000000000000000000000000000000000000000000000000000000000000000000000000000000000000000000000000000000000000000000000000000000000000000000000000000000000000000000000000000000000000000000000000000000000000000000000000000000000000000000000000000000000000000000000000000000000000000000000000000000000000000000000000000000000000000000000000000000000000000000000000000000000000000000000000000000000000000000000000000000000000000000000000000",
            "coinbase" : "0x2adc25665018aa1fe0e6bc666dac8fc2697ff9ba",
            "difficulty" : "0x20000",
            "extraData" : "0x00",
            "gasLimit" : "0xa00000000",
            "gasUsed" : "0x0",
            "hash" : "0x8dd1dda5eb73278b19676835b14b710991b3e6c6a1028e27f9a7462154c9be05",
            "mixHash" : "0x0000000000000000000000000000000000000000000000000000000000000000",
            "nonce" : "0x0000000000000000",
            "number" : "0x0",
            "parentHash" : "0x0000000000000000000000000000000000000000000000000000000000000000",
            "receiptTrie" : "0x56e81f171bcc55a6ff8345e692c0f86e5b48e01b996cadc001622fb5e363b421",
            "stateRoot" : "0x8e4b6f5b45b8521262611b75f9f93dacd57ad2fee692818ce4e6bef4dd7d01e9",
            "timestamp" : "0x0",
            "transactionsTrie" : "0x56e81f171bcc55a6ff8345e692c0f86e5b48e01b996cadc001622fb5e363b421",
            "uncleHash" : "0x1dcc4de8dec75d7aab85b567b6ccd41ad312451b948a7413f0a142fd40d49347"
        },
        "pre" : {
            "0x0f572e5295c57f15886f9b263e2f6d2d6c7b5ec6" : {
                "balance" : "0x0de0b6b3a7640000",
                "code" : "0x6103ff6000525b7f0102030405060708090a0102030405060708090a0102030405060708090a01026001600051036000526000516006570000",
                "nonce" : "0x00",
                "storage" : {
                }
            },
            "0xa94f5374fce5edbc8e2a8697c15331677e6ebf0b" : {
                "balance" : "0x6400000000",
                "code" : "0x",
                "nonce" : "0x00",
                "storage" : {
                }
            }
        },
        "postState" : {
            "0xa94f5374fce5edbc8e2a8697c15331677e6ebf0b" : {
                "code" : "0x",
                "nonce" : "0x01",
                "balance" : "0x63fffe7960",
                "storage" : {
                }
            },
            "0x2adc25665018aa1fe0e6bc666dac8fc2697ff9ba" : {
                "code" : "0x",
                "nonce" : "0x00",
                "balance" : "0x1bc16d674ec986a0",
                "storage" : {
                }
            },
            "0x0f572e5295c57f15886f9b263e2f6d2d6c7b5ec6" : {
                "code" : "0x6103ff6000525b7f0102030405060708090a0102030405060708090a0102030405060708090a01026001600051036000526000516006570000",
                "nonce" : "0x00",
                "balance" : "0x0de0b6b3a7640000",
                "storage" : {
                }
            }
        },
        "network" : "Istanbul",
        "sealEngine" : "NoProof",
        "lastblockhash" : "0x91f0babd7883803d13e81cc6ff89eb5cc5d0d360b6993f1ec5ffe21589a6e6c2",
        "genesisRLP" : "0xf901faf901f5a00000000000000000000000000000000000000000000000000000000000000000a01dcc4de8dec75d7aab85b567b6ccd41ad312451b948a7413f0a142fd40d49347942adc25665018aa1fe0e6bc666dac8fc2697ff9baa08e4b6f5b45b8521262611b75f9f93dacd57ad2fee692818ce4e6bef4dd7d01e9a056e81f171bcc55a6ff8345e692c0f86e5b48e01b996cadc001622fb5e363b421a056e81f171bcc55a6ff8345e692c0f86e5b48e01b996cadc001622fb5e363b421b90100000000000000000000000000000000000000000000000000000000000000000000000000000000000000000000000000000000000000000000000000000000000000000000000000000000000000000000000000000000000000000000000000000000000000000000000000000000000000000000000000000000000000000000000000000000000000000000000000000000000000000000000000000000000000000000000000000000000000000000000000000000000000000000000000000000000000000000000000000000000000000000000000000000000000000000000000000000000000000000000000000000000000000000000000000000008302000080850a00000000808000a00000000000000000000000000000000000000000000000000000000000000000880000000000000000c0c0",
        "blocks" : [
            {
                "rlp" : "0xf90262f901faa08dd1dda5eb73278b19676835b14b710991b3e6c6a1028e27f9a7462154c9be05a01dcc4de8dec75d7aab85b567b6ccd41ad312451b948a7413f0a142fd40d49347942adc25665018aa1fe0e6bc666dac8fc2697ff9baa0131cec5c1b90b1d479704a9904c5f7d6c6df3b128dacd736cb5a0f44f4abfd37a0ddb8defea6c1610afd06dda64253cb99ad91fcdbcd096618c99bbf1d4b43e7cea0777f1c1c378807634128348e4f0eeca6a0e7f516ea411690ca04266323f671a4b90100000000000000000000000000000000000000000000000000000000000000000000000000000000000000000000000000000000000000000000000000000000000000000000000000000000000000000000000000000000000000000000000000000000000000000000000000000000000000000000000000000000000000000000000000000000000000000000000000000000000000000000000000000000000000000000000000000000000000000000000000000000000000000000000000000000000000000000000000000000000000000000000000000000000000000000000000000000000000000000000000000000000000000000000000000000008302000001850a027fffff830186a08203e800a00000000000000000000000000000000000000000000000000000000000000000880000000000000000f862f8608001830186a0940f572e5295c57f15886f9b263e2f6d2d6c7b5ec60a801ba0b054e6af901451cf834679b4c625bc4453057b43c728b7632a5ec533ed1f205ba05a8090300acb5cae0f1c1f1208e60b0b6aad49e2951d0725e65cc3663bd6811cc0",
                "blockHeader" : {
                    "bloom" : "0x00000000000000000000000000000000000000000000000000000000000000000000000000000000000000000000000000000000000000000000000000000000000000000000000000000000000000000000000000000000000000000000000000000000000000000000000000000000000000000000000000000000000000000000000000000000000000000000000000000000000000000000000000000000000000000000000000000000000000000000000000000000000000000000000000000000000000000000000000000000000000000000000000000000000000000000000000000000000000000000000000000000000000000000000000000000",
                    "coinbase" : "0x2adc25665018aa1fe0e6bc666dac8fc2697ff9ba",
                    "difficulty" : "0x20000",
                    "extraData" : "0x00",
                    "gasLimit" : "0xa027fffff",
                    "gasUsed" : "0x186a0",
                    "hash" : "0x91f0babd7883803d13e81cc6ff89eb5cc5d0d360b6993f1ec5ffe21589a6e6c2",
                    "mixHash" : "0x0000000000000000000000000000000000000000000000000000000000000000",
                    "nonce" : "0x0000000000000000",
                    "number" : "0x1",
                    "parentHash" : "0x8dd1dda5eb73278b19676835b14b710991b3e6c6a1028e27f9a7462154c9be05",
                    "receiptTrie" : "0x777f1c1c378807634128348e4f0eeca6a0e7f516ea411690ca04266323f671a4",
                    "stateRoot" : "0x131cec5c1b90b1d479704a9904c5f7d6c6df3b128dacd736cb5a0f44f4abfd37",
                    "timestamp" : "0x3e8",
                    "transactionsTrie" : "0xddb8defea6c1610afd06dda64253cb99ad91fcdbcd096618c99bbf1d4b43e7ce",
                    "uncleHash" : "0x1dcc4de8dec75d7aab85b567b6ccd41ad312451b948a7413f0a142fd40d49347"
                },
                "transactions" : [
                    {
                        "data" : "0x",
                        "gasLimit" : "0x0186a0",
                        "gasPrice" : "0x01",
                        "nonce" : "0x00",
                        "to" : "0x0f572e5295c57f15886f9b263e2f6d2d6c7b5ec6",
                        "value" : "0x0a",
                        "v" : "0x1b",
                        "r" : "0xb054e6af901451cf834679b4c625bc4453057b43c728b7632a5ec533ed1f205b",
                        "s" : "0x5a8090300acb5cae0f1c1f1208e60b0b6aad49e2951d0725e65cc3663bd6811c"
                    }
                ]
            }
        ]
    }
}