{
    "stackLimitGas_1023_d0g0v0_Istanbul" : {
        "_info" : {
            "comment" : "",
            "filling-rpc-server" : "Geth-1.9.6-unstable-63b18027-20190920",
            "filling-tool-version" : "retesteth-0.0.1+commit.0ae18aef.Linux.g++",
            "lllcversion" : "Version: 0.5.12-develop.2019.9.13+commit.2d601a4f.Linux.g++",
            "source" : "src/GeneralStateTestsFiller/stMemoryTest/stackLimitGas_1023Filler.json",
            "sourceHash" : "3274e5a89ded4dc75e37dbc9583931c1b99bc54a8a32c1e20633b92d183beb4b"
        },
        "genesisBlockHeader" : {
            "bloom" : "0x00000000000000000000000000000000000000000000000000000000000000000000000000000000000000000000000000000000000000000000000000000000000000000000000000000000000000000000000000000000000000000000000000000000000000000000000000000000000000000000000000000000000000000000000000000000000000000000000000000000000000000000000000000000000000000000000000000000000000000000000000000000000000000000000000000000000000000000000000000000000000000000000000000000000000000000000000000000000000000000000000000000000000000000000000000000",
            "coinbase" : "0x2adc25665018aa1fe0e6bc666dac8fc2697ff9ba",
            "difficulty" : "0x20000",
            "extraData" : "0x00",
            "gasLimit" : "0xa00000000",
            "gasUsed" : "0x0",
            "hash" : "0x8abf3d7a14c017c0ad893c75f2a59b4c9218c6563db74f0097f79235b8d022cb",
            "mixHash" : "0x0000000000000000000000000000000000000000000000000000000000000000",
            "nonce" : "0x0000000000000000",
            "number" : "0x0",
            "parentHash" : "0x0000000000000000000000000000000000000000000000000000000000000000",
            "receiptTrie" : "0x56e81f171bcc55a6ff8345e692c0f86e5b48e01b996cadc001622fb5e363b421",
            "stateRoot" : "0x0988a01b186534d9f4d4c304af11e4eb2a899ff1b2944b73e5fb5511bc370bfa",
            "timestamp" : "0x0",
            "transactionsTrie" : "0x56e81f171bcc55a6ff8345e692c0f86e5b48e01b996cadc001622fb5e363b421",
            "uncleHash" : "0x1dcc4de8dec75d7aab85b567b6ccd41ad312451b948a7413f0a142fd40d49347"
        },
        "pre" : {
            "0x0f572e5295c57f15886f9b263e2f6d2d6c7b5ec6" : {
                "balance" : "0x0de0b6b3a7640000",
                "code" : "0x6103fd6000525b5a6001600051036000526000516006570000",
                "nonce" : "0x00",
                "storage" : {
                }
            },
            "0xa94f5374fce5edbc8e2a8697c15331677e6ebf0b" : {
                "balance" : "0x6400000000",
                "code" : "0x",
                "nonce" : "0x00",
                "storage" : {
                }
            }
        },
        "postState" : {
            "0xa94f5374fce5edbc8e2a8697c15331677e6ebf0b" : {
                "code" : "0x",
                "nonce" : "0x01",
                "balance" : "0x63ffff0e5a",
                "storage" : {
                }
            },
            "0x2adc25665018aa1fe0e6bc666dac8fc2697ff9ba" : {
                "code" : "0x",
                "nonce" : "0x00",
                "balance" : "0x1bc16d674ec8f19c",
                "storage" : {
                }
            },
            "0x0f572e5295c57f15886f9b263e2f6d2d6c7b5ec6" : {
                "code" : "0x6103fd6000525b5a6001600051036000526000516006570000",
                "nonce" : "0x00",
                "balance" : "0x0de0b6b3a764000a",
                "storage" : {
                }
            }
        },
        "network" : "Istanbul",
        "sealEngine" : "NoProof",
        "lastblockhash" : "0x3c2ac7295f0e62675805798c9f9c95d6ffff0985ec1dc4a0951eced5d1cec043",
        "genesisRLP" : "0xf901faf901f5a00000000000000000000000000000000000000000000000000000000000000000a01dcc4de8dec75d7aab85b567b6ccd41ad312451b948a7413f0a142fd40d49347942adc25665018aa1fe0e6bc666dac8fc2697ff9baa00988a01b186534d9f4d4c304af11e4eb2a899ff1b2944b73e5fb5511bc370bfaa056e81f171bcc55a6ff8345e692c0f86e5b48e01b996cadc001622fb5e363b421a056e81f171bcc55a6ff8345e692c0f86e5b48e01b996cadc001622fb5e363b421b90100000000000000000000000000000000000000000000000000000000000000000000000000000000000000000000000000000000000000000000000000000000000000000000000000000000000000000000000000000000000000000000000000000000000000000000000000000000000000000000000000000000000000000000000000000000000000000000000000000000000000000000000000000000000000000000000000000000000000000000000000000000000000000000000000000000000000000000000000000000000000000000000000000000000000000000000000000000000000000000000000000000000000000000000000000000008302000080850a00000000808000a00000000000000000000000000000000000000000000000000000000000000000880000000000000000c0c0",
        "blocks" : [
            {
                "rlp" : "0xf90261f901f9a08abf3d7a14c017c0ad893c75f2a59b4c9218c6563db74f0097f79235b8d022cba01dcc4de8dec75d7aab85b567b6ccd41ad312451b948a7413f0a142fd40d49347942adc25665018aa1fe0e6bc666dac8fc2697ff9baa06826cd585d51f64a717cb704b9b4d5ce24bdff7a650a32a492621b9e8e582a35a0ddb8defea6c1610afd06dda64253cb99ad91fcdbcd096618c99bbf1d4b43e7cea00b133d925e751aa620ea077fea4ac4e351b20e37c7ac54f7b22a11f0b8970337b90100000000000000000000000000000000000000000000000000000000000000000000000000000000000000000000000000000000000000000000000000000000000000000000000000000000000000000000000000000000000000000000000000000000000000000000000000000000000000000000000000000000000000000000000000000000000000000000000000000000000000000000000000000000000000000000000000000000000000000000000000000000000000000000000000000000000000000000000000000000000000000000000000000000000000000000000000000000000000000000000000000000000000000000000000000000008302000001850a027fffff82f19c8203e800a00000000000000000000000000000000000000000000000000000000000000000880000000000000000f862f8608001830186a0940f572e5295c57f15886f9b263e2f6d2d6c7b5ec60a801ba0b054e6af901451cf834679b4c625bc4453057b43c728b7632a5ec533ed1f205ba05a8090300acb5cae0f1c1f1208e60b0b6aad49e2951d0725e65cc3663bd6811cc0",
                "blockHeader" : {
                    "bloom" : "0x00000000000000000000000000000000000000000000000000000000000000000000000000000000000000000000000000000000000000000000000000000000000000000000000000000000000000000000000000000000000000000000000000000000000000000000000000000000000000000000000000000000000000000000000000000000000000000000000000000000000000000000000000000000000000000000000000000000000000000000000000000000000000000000000000000000000000000000000000000000000000000000000000000000000000000000000000000000000000000000000000000000000000000000000000000000",
                    "coinbase" : "0x2adc25665018aa1fe0e6bc666dac8fc2697ff9ba",
                    "difficulty" : "0x20000",
                    "extraData" : "0x00",
                    "gasLimit" : "0xa027fffff",
                    "gasUsed" : "0xf19c",
                    "hash" : "0x3c2ac7295f0e62675805798c9f9c95d6ffff0985ec1dc4a0951eced5d1cec043",
                    "mixHash" : "0x0000000000000000000000000000000000000000000000000000000000000000",
                    "nonce" : "0x0000000000000000",
                    "number" : "0x1",
                    "parentHash" : "0x8abf3d7a14c017c0ad893c75f2a59b4c9218c6563db74f0097f79235b8d022cb",
                    "receiptTrie" : "0x0b133d925e751aa620ea077fea4ac4e351b20e37c7ac54f7b22a11f0b8970337",
                    "stateRoot" : "0x6826cd585d51f64a717cb704b9b4d5ce24bdff7a650a32a492621b9e8e582a35",
                    "timestamp" : "0x3e8",
                    "transactionsTrie" : "0xddb8defea6c1610afd06dda64253cb99ad91fcdbcd096618c99bbf1d4b43e7ce",
                    "uncleHash" : "0x1dcc4de8dec75d7aab85b567b6ccd41ad312451b948a7413f0a142fd40d49347"
                },
                "transactions" : [
                    {
                        "data" : "0x",
                        "gasLimit" : "0x0186a0",
                        "gasPrice" : "0x01",
                        "nonce" : "0x00",
                        "to" : "0x0f572e5295c57f15886f9b263e2f6d2d6c7b5ec6",
                        "value" : "0x0a",
                        "v" : "0x1b",
                        "r" : "0xb054e6af901451cf834679b4c625bc4453057b43c728b7632a5ec533ed1f205b",
                        "s" : "0x5a8090300acb5cae0f1c1f1208e60b0b6aad49e2951d0725e65cc3663bd6811c"
                    }
                ]
            }
        ]
    }
}