{
    "gasLimitLTGasUsageUncle_Istanbul" : {
        "_info" : {
            "comment" : "",
            "filledwith" : "testeth 1.8.0-alpha.0-12+commit.b120a12c.dirty",
            "lllcversion" : "Version: 0.5.12-develop.2019.9.13+commit.2d601a4f.Linux.g++",
            "source" : "src/BlockchainTestsFiller/InvalidBlocks/bcUncleHeaderValidity/gasLimitLTGasUsageUncleFiller.json",
            "sourceHash" : "78da6501d0917f505186689aa7f437f75b74e5fb3df93f44864e234816fd4bb8"
        },
        "blocks" : [
            {
                "blockHeader" : {
                    "bloom" : "0x00000000000000000000000000000000000000000000000000000000000000000000000000000000000000000000000000000000000000000000000000000000000000000000000000000000000000000000000000000000000000000000000000000000000000000000000000000000000000000000000000000000000000000000000000000000000000000000000000000000000000000000000000000000000000000000000000000000000000000000000000000000000000000000000000000000000000000000000000000000000000000000000000000000000000000000000000000000000000000000000000000000000000000000000000000000",
                    "coinbase" : "0x8888f1f195afa192cfee860698584c030f4c9db1",
                    "difficulty" : "0x020000",
                    "extraData" : "",
                    "gasLimit" : "0x2fefba",
                    "gasUsed" : "0x5208",
                    "hash" : "0x9afce6fb2894d3c84752b50dc0760dbca5788b6fd524c9cc40d7caf2dd62ff30",
                    "mixHash" : "0x0000000000000000000000000000000000000000000000000000000000000000",
                    "nonce" : "0x0000000000000000",
                    "number" : "0x01",
                    "parentHash" : "0xe51f70ff4dc32445b93ecd07084e400108022e5b769c451fb9b3731d02721dfc",
                    "receiptTrie" : "0x056b23fbba480696b65fe5a59b8f2148a1299103c4f57df839233af2cf4ca2d2",
                    "stateRoot" : "0x9f975da0cdc4d5f074009af73873d83f3e29d9e7f33fee3f11a38133166034e5",
                    "timestamp" : "0x5db7267f",
                    "transactionsTrie" : "0x5c9151c2413d1cd25c51ffb4ac38948acc1359bf08c6b49f283660e9bcf0f516",
                    "uncleHash" : "0x1dcc4de8dec75d7aab85b567b6ccd41ad312451b948a7413f0a142fd40d49347"
                },
                "blocknumber" : "1",
                "rlp" : "0xf90261f901f9a0e51f70ff4dc32445b93ecd07084e400108022e5b769c451fb9b3731d02721dfca01dcc4de8dec75d7aab85b567b6ccd41ad312451b948a7413f0a142fd40d49347948888f1f195afa192cfee860698584c030f4c9db1a09f975da0cdc4d5f074009af73873d83f3e29d9e7f33fee3f11a38133166034e5a05c9151c2413d1cd25c51ffb4ac38948acc1359bf08c6b49f283660e9bcf0f516a0056b23fbba480696b65fe5a59b8f2148a1299103c4f57df839233af2cf4ca2d2b90100000000000000000000000000000000000000000000000000000000000000000000000000000000000000000000000000000000000000000000000000000000000000000000000000000000000000000000000000000000000000000000000000000000000000000000000000000000000000000000000000000000000000000000000000000000000000000000000000000000000000000000000000000000000000000000000000000000000000000000000000000000000000000000000000000000000000000000000000000000000000000000000000000000000000000000000000000000000000000000000000000000000000000000000000000000008302000001832fefba825208845db7267f80a00000000000000000000000000000000000000000000000000000000000000000880000000000000000f862f86080018304cb2f94095e7baea6a6c7c4c2dfeb977efac326af552d870a801ba077c7cd36820c71821c1aed59de46e70e701c4a8dd89c9ba508ab722210f60da8a03f29825d40c7c3f7bff3ca69267e0f3fb74b2d18b8c2c4e3c135b5d3b06e288dc0",
                "transactions" : [
                    {
                        "data" : "0x",
                        "gasLimit" : "0x04cb2f",
                        "gasPrice" : "0x01",
                        "nonce" : "0x00",
                        "r" : "0x77c7cd36820c71821c1aed59de46e70e701c4a8dd89c9ba508ab722210f60da8",
                        "s" : "0x3f29825d40c7c3f7bff3ca69267e0f3fb74b2d18b8c2c4e3c135b5d3b06e288d",
                        "to" : "0x095e7baea6a6c7c4c2dfeb977efac326af552d87",
                        "v" : "0x1b",
                        "value" : "0x0a"
                    }
                ],
                "uncleHeaders" : [
                ]
            },
            {
                "blockHeader" : {
                    "bloom" : "0x00000000000000000000000000000000000000000000000000000000000000000000000000000000000000000000000000000000000000000000000000000000000000000000000000000000000000000000000000000000000000000000000000000000000000000000000000000000000000000000000000000000000000000000000000000000000000000000000000000000000000000000000000000000000000000000000000000000000000000000000000000000000000000000000000000000000000000000000000000000000000000000000000000000000000000000000000000000000000000000000000000000000000000000000000000000",
                    "coinbase" : "0x8888f1f195afa192cfee860698584c030f4c9db1",
                    "difficulty" : "0x020040",
                    "extraData" : "",
                    "gasLimit" : "0x2fefba",
                    "gasUsed" : "0x5208",
                    "hash" : "0x65abe0da62302f5f3375d244cd335b1ffdcde936107f924ce35e1fb5f86007b1",
                    "mixHash" : "0x0000000000000000000000000000000000000000000000000000000000000000",
                    "nonce" : "0x0000000000000000",
                    "number" : "0x02",
                    "parentHash" : "0x9afce6fb2894d3c84752b50dc0760dbca5788b6fd524c9cc40d7caf2dd62ff30",
                    "receiptTrie" : "0x056b23fbba480696b65fe5a59b8f2148a1299103c4f57df839233af2cf4ca2d2",
                    "stateRoot" : "0xdf68925b0ee17b44c826ce4537dc0924700f7b7aa1c7c1b1d489a779b1be2525",
                    "timestamp" : "0x5db72680",
                    "transactionsTrie" : "0xc673e076264c4669a5c2e479f1757b78e42511efe33b5fd2c0a23b929c7f87f5",
                    "uncleHash" : "0x1dcc4de8dec75d7aab85b567b6ccd41ad312451b948a7413f0a142fd40d49347"
                },
                "blocknumber" : "2",
                "rlp" : "0xf90260f901f9a09afce6fb2894d3c84752b50dc0760dbca5788b6fd524c9cc40d7caf2dd62ff30a01dcc4de8dec75d7aab85b567b6ccd41ad312451b948a7413f0a142fd40d49347948888f1f195afa192cfee860698584c030f4c9db1a0df68925b0ee17b44c826ce4537dc0924700f7b7aa1c7c1b1d489a779b1be2525a0c673e076264c4669a5c2e479f1757b78e42511efe33b5fd2c0a23b929c7f87f5a0056b23fbba480696b65fe5a59b8f2148a1299103c4f57df839233af2cf4ca2d2b90100000000000000000000000000000000000000000000000000000000000000000000000000000000000000000000000000000000000000000000000000000000000000000000000000000000000000000000000000000000000000000000000000000000000000000000000000000000000000000000000000000000000000000000000000000000000000000000000000000000000000000000000000000000000000000000000000000000000000000000000000000000000000000000000000000000000000000000000000000000000000000000000000000000000000000000000000000000000000000000000000000000000000000000000000000000008302004002832fefba825208845db7268080a00000000000000000000000000000000000000000000000000000000000000000880000000000000000f861f85f01018304cb2f94095e7baea6a6c7c4c2dfeb977efac326af552d870a801ba033c86e64d708c97c6b135cadff79dbf45985aa0b53694789e90d15f756765f239f1d0f8caa2a16405148c9d85581be5814960010f3cba938b5501590cea1f7cfc0",
                "transactions" : [
                    {
                        "data" : "0x",
                        "gasLimit" : "0x04cb2f",
                        "gasPrice" : "0x01",
                        "nonce" : "0x01",
                        "r" : "0x33c86e64d708c97c6b135cadff79dbf45985aa0b53694789e90d15f756765f23",
                        "s" : "0x1d0f8caa2a16405148c9d85581be5814960010f3cba938b5501590cea1f7cf",
                        "to" : "0x095e7baea6a6c7c4c2dfeb977efac326af552d87",
                        "v" : "0x1b",
                        "value" : "0x0a"
                    }
                ],
                "uncleHeaders" : [
                ]
            },
            {
                "blocknumber" : "3",
                "expectExceptionALL" : "TooMuchGasUsed",
                "rlp" : "0xf90461f901f9a065abe0da62302f5f3375d244cd335b1ffdcde936107f924ce35e1fb5f86007b1a0e6f93ed2423c32f3acaf73add970405546568a015f5e7b82d2b8479b02235cfb948888f1f195afa192cfee860698584c030f4c9db1a077f96f4c766c10cd0207e2672b1b747c741ed75bc94e7be7abacb71cdca3c8fba01722b8a91bfc4f5614ce36ee77c7cce6620ab4af36d3c54baa66d7dbeb7bce1aa0056b23fbba480696b65fe5a59b8f2148a1299103c4f57df839233af2cf4ca2d2b90100000000000000000000000000000000000000000000000000000000000000000000000000000000000000000000000000000000000000000000000000000000000000000000000000000000000000000000000000000000000000000000000000000000000000000000000000000000000000000000000000000000000000000000000000000000000000000000000000000000000000000000000000000000000000000000000000000000000000000000000000000000000000000000000000000000000000000000000000000000000000000000000000000000000000000000000000000000000000000000000000000000000000000000000000000000008302008003832fefba825208845db7268180a00000000000000000000000000000000000000000000000000000000000000000880000000000000000f862f86002018304cb2f94095e7baea6a6c7c4c2dfeb977efac326af552d870a801ca015eb1cc916728b9799e55c489857727669afb2986433d5f54cde11faaed9f0eea05d36f6d06c34aae8d0a2a5895c8ba4a17ad46a5fa59f361cb3e7e01a23030e38f901fef901fba09afce6fb2894d3c84752b50dc0760dbca5788b6fd524c9cc40d7caf2dd62ff30a01dcc4de8dec75d7aab85b567b6ccd41ad312451b948a7413f0a142fd40d49347942900b6e7fb16471b183e8d5e58a1ef6e1c8b9e14a09f975da0cdc4d5f074009af73873d83f3e29d9e7f33fee3f11a38133166034e5a056e81f171bcc55a6ff8345e692c0f86e5b48e01b996cadc001622fb5e363b421a056e81f171bcc55a6ff8345e692c0f86e5b48e01b996cadc001622fb5e363b421b90100000000000000000000000000000000000000000000000000000000000000000000000000000000000000000000000000000000000000000000000000000000000000000000000000000000000000000000000000000000000000000000000000000000000000000000000000000000000000000000000000000000000000000000000000000000000000000000000000000000000000000000000000000000000000000000000000000000000000000000000000000000000000000000000000000000000000000000000000000000000000000000000000000000000000000000000000000000000000000000000000000000000000000000000000000000008302004002832fefba8412b9af98845db7268080a00000000000000000000000000000000000000000000000000000000000000000880000000000000000"
            }
        ],
        "genesisBlockHeader" : {
            "bloom" : "0x00000000000000000000000000000000000000000000000000000000000000000000000000000000000000000000000000000000000000000000000000000000000000000000000000000000000000000000000000000000000000000000000000000000000000000000000000000000000000000000000000000000000000000000000000000000000000000000000000000000000000000000000000000000000000000000000000000000000000000000000000000000000000000000000000000000000000000000000000000000000000000000000000000000000000000000000000000000000000000000000000000000000000000000000000000000",
            "coinbase" : "0x8888f1f195afa192cfee860698584c030f4c9db1",
            "difficulty" : "0x020000",
            "extraData" : "0x42",
            "gasLimit" : "0x2fefd8",
            "gasUsed" : "0x00",
            "hash" : "0xe51f70ff4dc32445b93ecd07084e400108022e5b769c451fb9b3731d02721dfc",
            "mixHash" : "0x56e81f171bcc55a6ff8345e692c0f86e5b48e01b996cadc001622fb5e363b421",
            "nonce" : "0x0102030405060708",
            "number" : "0x00",
            "parentHash" : "0x0000000000000000000000000000000000000000000000000000000000000000",
            "receiptTrie" : "0x56e81f171bcc55a6ff8345e692c0f86e5b48e01b996cadc001622fb5e363b421",
            "stateRoot" : "0x7dba07d6b448a186e9612e5f737d1c909dce473e53199901a302c00646d523c1",
            "timestamp" : "0x01",
            "transactionsTrie" : "0x56e81f171bcc55a6ff8345e692c0f86e5b48e01b996cadc001622fb5e363b421",
            "uncleHash" : "0x1dcc4de8dec75d7aab85b567b6ccd41ad312451b948a7413f0a142fd40d49347"
        },
        "genesisRLP" : "0xf901f8f901f3a00000000000000000000000000000000000000000000000000000000000000000a01dcc4de8dec75d7aab85b567b6ccd41ad312451b948a7413f0a142fd40d49347948888f1f195afa192cfee860698584c030f4c9db1a07dba07d6b448a186e9612e5f737d1c909dce473e53199901a302c00646d523c1a056e81f171bcc55a6ff8345e692c0f86e5b48e01b996cadc001622fb5e363b421a056e81f171bcc55a6ff8345e692c0f86e5b48e01b996cadc001622fb5e363b421b90100000000000000000000000000000000000000000000000000000000000000000000000000000000000000000000000000000000000000000000000000000000000000000000000000000000000000000000000000000000000000000000000000000000000000000000000000000000000000000000000000000000000000000000000000000000000000000000000000000000000000000000000000000000000000000000000000000000000000000000000000000000000000000000000000000000000000000000000000000000000000000000000000000000000000000000000000000000000000000000000000000000000000000000000000000000008302000080832fefd8800142a056e81f171bcc55a6ff8345e692c0f86e5b48e01b996cadc001622fb5e363b421880102030405060708c0c0",
        "lastblockhash" : "0x65abe0da62302f5f3375d244cd335b1ffdcde936107f924ce35e1fb5f86007b1",
        "network" : "Istanbul",
        "postState" : {
            "0x095e7baea6a6c7c4c2dfeb977efac326af552d87" : {
                "balance" : "0x14",
                "code" : "",
                "nonce" : "0x00",
                "storage" : {
                }
            },
            "0x8888f1f195afa192cfee860698584c030f4c9db1" : {
                "balance" : "0x3782dace9d90a410",
                "code" : "",
                "nonce" : "0x00",
                "storage" : {
                }
            },
            "0xa94f5374fce5edbc8e2a8697c15331677e6ebf0b" : {
                "balance" : "0x09184e71fbdc",
                "code" : "",
                "nonce" : "0x02",
                "storage" : {
                }
            }
        },
        "pre" : {
            "0xa94f5374fce5edbc8e2a8697c15331677e6ebf0b" : {
                "balance" : "0x09184e72a000",
                "code" : "",
                "nonce" : "0x00",
                "storage" : {
                }
            }
        },
        "sealEngine" : "NoProof"
    }
}