{
    "CrashingTransaction_d0g0v0_Istanbul" : {
        "_info" : {
            "comment" : "https://ropsten.etherscan.io/tx/0x8ec445380649f6c75a042a438ea9256c2fab2a6a3437904c9e5a712fcbf8a54a",
            "filling-rpc-server" : "Geth-1.9.6-unstable-63b18027-20190920",
            "filling-tool-version" : "retesteth-0.0.1+commit.0ae18aef.Linux.g++",
            "lllcversion" : "Version: 0.5.12-develop.2019.9.13+commit.2d601a4f.Linux.g++",
            "source" : "src/GeneralStateTestsFiller/stAttackTest/CrashingTransactionFiller.json",
            "sourceHash" : "95ab784235bcf34bff050fae98f844e5adfc5389236fdc450264a8d9a8ee5e75"
        },
        "genesisBlockHeader" : {
            "bloom" : "0x00000000000000000000000000000000000000000000000000000000000000000000000000000000000000000000000000000000000000000000000000000000000000000000000000000000000000000000000000000000000000000000000000000000000000000000000000000000000000000000000000000000000000000000000000000000000000000000000000000000000000000000000000000000000000000000000000000000000000000000000000000000000000000000000000000000000000000000000000000000000000000000000000000000000000000000000000000000000000000000000000000000000000000000000000000000",
            "coinbase" : "0x2adc25665018aa1fe0e6bc666dac8fc2697ff9ba",
            "difficulty" : "0x20000",
            "extraData" : "0x00",
            "gasLimit" : "0x47e7c4",
            "gasUsed" : "0x0",
            "hash" : "0x756c3e8c0d14e87ea69ea9a996d10f0babe1e5c8fd62150533f99535ce087ccc",
            "mixHash" : "0x0000000000000000000000000000000000000000000000000000000000000000",
            "nonce" : "0x0000000000000000",
            "number" : "0x0",
            "parentHash" : "0x0000000000000000000000000000000000000000000000000000000000000000",
            "receiptTrie" : "0x56e81f171bcc55a6ff8345e692c0f86e5b48e01b996cadc001622fb5e363b421",
            "stateRoot" : "0xbad49fc692c849d08457d51d6a613d902177526106c6f28f143fb04ccf6ddd1c",
            "timestamp" : "0x0",
            "transactionsTrie" : "0x56e81f171bcc55a6ff8345e692c0f86e5b48e01b996cadc001622fb5e363b421",
            "uncleHash" : "0x1dcc4de8dec75d7aab85b567b6ccd41ad312451b948a7413f0a142fd40d49347"
        },
        "pre" : {
            "0xa94f5374fce5edbc8e2a8697c15331677e6ebf0b" : {
                "balance" : "0x0de0b6b3a7640000",
                "code" : "0x",
                "nonce" : "0x0cc6",
                "storage" : {
                }
            }
        },
        "postState" : {
            "0xa94f5374fce5edbc8e2a8697c15331677e6ebf0b" : {
                "code" : "0x",
                "nonce" : "0x0cc7",
                "balance" : "0x0de0b6b3a71d74d5",
                "storage" : {
                }
            },
            "0x2adc25665018aa1fe0e6bc666dac8fc2697ff9ba" : {
                "code" : "0x",
                "nonce" : "0x00",
                "balance" : "0x1bc16d674f0e8b2a",
                "storage" : {
                }
            },
            "0xecbf9aa676d9e0bbba7e517d1350c1b64f8c6779" : {
                "code" : "0x60606040526008565b00",
                "nonce" : "0x7c",
                "balance" : "0x01",
                "storage" : {
                }
            }
        },
        "network" : "Istanbul",
        "sealEngine" : "NoProof",
        "lastblockhash" : "0x564835fc4420a11c3afab5e1beb54618bfe394c70539ba882bb7fdf2fe8e4ef8",
        "genesisRLP" : "0xf901f8f901f3a00000000000000000000000000000000000000000000000000000000000000000a01dcc4de8dec75d7aab85b567b6ccd41ad312451b948a7413f0a142fd40d49347942adc25665018aa1fe0e6bc666dac8fc2697ff9baa0bad49fc692c849d08457d51d6a613d902177526106c6f28f143fb04ccf6ddd1ca056e81f171bcc55a6ff8345e692c0f86e5b48e01b996cadc001622fb5e363b421a056e81f171bcc55a6ff8345e692c0f86e5b48e01b996cadc001622fb5e363b421b901000000000000000000000000000000000000000000000000000000000000000000000000000000000000000000000000000000000000000000000000000000000000000000000000000000000000000000000000000000000000000000000000000000000000000000000000000000000000000000000000000000000000000000000000000000000000000000000000000000000000000000000000000000000000000000000000000000000000000000000000000000000000000000000000000000000000000000000000000000000000000000000000000000000000000000000000000000000000000000000000000000000000000000000000000000000083020000808347e7c4808000a00000000000000000000000000000000000000000000000000000000000000000880000000000000000c0c0",
        "blocks" : [
            {
                "rlp" : "0xf902c6f901f8a0756c3e8c0d14e87ea69ea9a996d10f0babe1e5c8fd62150533f99535ce087ccca01dcc4de8dec75d7aab85b567b6ccd41ad312451b948a7413f0a142fd40d49347942adc25665018aa1fe0e6bc666dac8fc2697ff9baa0ae7efa0fc06d6c474b44b988702d2a63702f327444b2e385877a9d8ff9e554fca0566001a6734afa5d984e80f94f9b19129c939fa4b6a8b13f62239e93768e620da063a8705ed38baaf8f8a7c996ab8643f15de1a54ca3d41cd782097882d338fb11b901000000000000000000000000000000000000000000000000000000000000000000000000000000000000000000000000000000000000000000000000000000000000000000000000000000000000000000000000000000000000000000000000000000000000000000000000000000000000000000000000000000000000000000000000000000000000000000000000000000000000000000000000000000000000000000000000000000000000000000000000000000000000000000000000000000000000000000000000000000000000000000000000000000000000000000000000000000000000000000000000000000000000000000000000000000000083020000018347f9bc832345958203e800a00000000000000000000000000000000000000000000000000000000000000000880000000000000000f8c8f8c6820cc6028347127a8001b87760606040525b5b61c3505a1115602c576040516034806039833901809050604051809103906000f0506006565b5b600a80606d6000396000f360606040525b3373ffffffffffffffffffffffffffffffffffffffff16ff5b600a80602a6000396000f360606040526008565b0060606040526008565b001ba08b60ced0243b474aa57e9a493b19b8b656c037ddee9c7b57906e9052fa27b69ba0673442130105dc2128891bddef89b3104c7b58f804d03e08437b12c396b35320c0",
                "blockHeader" : {
                    "bloom" : "0x00000000000000000000000000000000000000000000000000000000000000000000000000000000000000000000000000000000000000000000000000000000000000000000000000000000000000000000000000000000000000000000000000000000000000000000000000000000000000000000000000000000000000000000000000000000000000000000000000000000000000000000000000000000000000000000000000000000000000000000000000000000000000000000000000000000000000000000000000000000000000000000000000000000000000000000000000000000000000000000000000000000000000000000000000000000",
                    "coinbase" : "0x2adc25665018aa1fe0e6bc666dac8fc2697ff9ba",
                    "difficulty" : "0x20000",
                    "extraData" : "0x00",
                    "gasLimit" : "0x47f9bc",
                    "gasUsed" : "0x234595",
                    "hash" : "0x564835fc4420a11c3afab5e1beb54618bfe394c70539ba882bb7fdf2fe8e4ef8",
                    "mixHash" : "0x0000000000000000000000000000000000000000000000000000000000000000",
                    "nonce" : "0x0000000000000000",
                    "number" : "0x1",
                    "parentHash" : "0x756c3e8c0d14e87ea69ea9a996d10f0babe1e5c8fd62150533f99535ce087ccc",
                    "receiptTrie" : "0x63a8705ed38baaf8f8a7c996ab8643f15de1a54ca3d41cd782097882d338fb11",
                    "stateRoot" : "0xae7efa0fc06d6c474b44b988702d2a63702f327444b2e385877a9d8ff9e554fc",
                    "timestamp" : "0x3e8",
                    "transactionsTrie" : "0x566001a6734afa5d984e80f94f9b19129c939fa4b6a8b13f62239e93768e620d",
                    "uncleHash" : "0x1dcc4de8dec75d7aab85b567b6ccd41ad312451b948a7413f0a142fd40d49347"
                },
                "transactions" : [
                    {
                        "data" : "0x60606040525b5b61c3505a1115602c576040516034806039833901809050604051809103906000f0506006565b5b600a80606d6000396000f360606040525b3373ffffffffffffffffffffffffffffffffffffffff16ff5b600a80602a6000396000f360606040526008565b0060606040526008565b00",
                        "gasLimit" : "0x47127a",
                        "gasPrice" : "0x02",
                        "nonce" : "0x0cc6",
                        "to" : "",
                        "value" : "0x01",
                        "v" : "0x1b",
                        "r" : "0x8b60ced0243b474aa57e9a493b19b8b656c037ddee9c7b57906e9052fa27b69b",
                        "s" : "0x673442130105dc2128891bddef89b3104c7b58f804d03e08437b12c396b35320"
                    }
                ]
            }
        ]
    }
}