{
    "log0_logMemsizeTooHigh_d0g0v0_Istanbul" : {
        "_info" : {
            "comment" : "",
            "filling-rpc-server" : "Geth-1.9.6-unstable-63b18027-20190920",
            "filling-tool-version" : "retesteth-0.0.1+commit.0ae18aef.Linux.g++",
            "lllcversion" : "Version: 0.5.12-develop.2019.9.13+commit.2d601a4f.Linux.g++",
            "source" : "src/GeneralStateTestsFiller/stLogTests/log0_logMemsizeTooHighFiller.json",
            "sourceHash" : "fdaf3547b1d08691f1f5cb1656b6a9907ed42717d57574a55c38db43a41f91d7"
        },
        "genesisBlockHeader" : {
            "bloom" : "0x00000000000000000000000000000000000000000000000000000000000000000000000000000000000000000000000000000000000000000000000000000000000000000000000000000000000000000000000000000000000000000000000000000000000000000000000000000000000000000000000000000000000000000000000000000000000000000000000000000000000000000000000000000000000000000000000000000000000000000000000000000000000000000000000000000000000000000000000000000000000000000000000000000000000000000000000000000000000000000000000000000000000000000000000000000000",
            "coinbase" : "0x2adc25665018aa1fe0e6bc666dac8fc2697ff9ba",
            "difficulty" : "0x20000",
            "extraData" : "0x00",
            "gasLimit" : "0xf4240",
            "gasUsed" : "0x0",
            "hash" : "0xd1232ca7e40ccd6d5f0adba4f3382722d7eb0793a0ac9dbe6aecdd3199301ce5",
            "mixHash" : "0x0000000000000000000000000000000000000000000000000000000000000000",
            "nonce" : "0x0000000000000000",
            "number" : "0x0",
            "parentHash" : "0x0000000000000000000000000000000000000000000000000000000000000000",
            "receiptTrie" : "0x56e81f171bcc55a6ff8345e692c0f86e5b48e01b996cadc001622fb5e363b421",
            "stateRoot" : "0x9427581c60546c5bc6f509218159b99c090d026dc3761be3f3d2bd90dfe58c8d",
            "timestamp" : "0x0",
            "transactionsTrie" : "0x56e81f171bcc55a6ff8345e692c0f86e5b48e01b996cadc001622fb5e363b421",
            "uncleHash" : "0x1dcc4de8dec75d7aab85b567b6ccd41ad312451b948a7413f0a142fd40d49347"
        },
        "pre" : {
            "0x095e7baea6a6c7c4c2dfeb977efac326af552d87" : {
                "balance" : "0x0de0b6b3a7640000",
                "code" : "0x60006000600060006017730f572e5295c57f15886f9b263e2f6d2d6c7b5ec66103e8f160005500",
                "nonce" : "0x00",
                "storage" : {
                }
            },
            "0x0f572e5295c57f15886f9b263e2f6d2d6c7b5ec6" : {
                "balance" : "0x0de0b6b3a7640000",
                "code" : "0x7faabbffffffffffffffffffffffffffffffffffffffffffffffffffffffffccdd6000527fffffffffffffffffffffffffffffffffffffffffffffffffffffffffffffffff6001a000",
                "nonce" : "0x00",
                "storage" : {
                }
            },
            "0xa94f5374fce5edbc8e2a8697c15331677e6ebf0b" : {
                "balance" : "0x0de0b6b3a7640000",
                "code" : "0x",
                "nonce" : "0x00",
                "storage" : {
                }
            }
        },
        "postState" : {
            "0xa94f5374fce5edbc8e2a8697c15331677e6ebf0b" : {
                "code" : "0x",
                "nonce" : "0x01",
                "balance" : "0x0de0b6b3a761fa54",
                "storage" : {
                }
            },
            "0x095e7baea6a6c7c4c2dfeb977efac326af552d87" : {
                "code" : "0x60006000600060006017730f572e5295c57f15886f9b263e2f6d2d6c7b5ec66103e8f160005500",
                "nonce" : "0x00",
                "balance" : "0x0de0b6b3a76586a0",
                "storage" : {
                }
            },
            "0x2adc25665018aa1fe0e6bc666dac8fc2697ff9ba" : {
                "code" : "0x",
                "nonce" : "0x00",
                "balance" : "0x1bc16d674ec87f0c",
                "storage" : {
                }
            },
            "0x0f572e5295c57f15886f9b263e2f6d2d6c7b5ec6" : {
                "code" : "0x7faabbffffffffffffffffffffffffffffffffffffffffffffffffffffffffccdd6000527fffffffffffffffffffffffffffffffffffffffffffffffffffffffffffffffff6001a000",
                "nonce" : "0x00",
                "balance" : "0x0de0b6b3a7640000",
                "storage" : {
                }
            }
        },
        "network" : "Istanbul",
        "sealEngine" : "NoProof",
        "lastblockhash" : "0x64245d2b39e7ba4a8b70fc6b01a2d1335ef1078414234554c70bac0d8f2efb8e",
        "genesisRLP" : "0xf901f8f901f3a00000000000000000000000000000000000000000000000000000000000000000a01dcc4de8dec75d7aab85b567b6ccd41ad312451b948a7413f0a142fd40d49347942adc25665018aa1fe0e6bc666dac8fc2697ff9baa09427581c60546c5bc6f509218159b99c090d026dc3761be3f3d2bd90dfe58c8da056e81f171bcc55a6ff8345e692c0f86e5b48e01b996cadc001622fb5e363b421a056e81f171bcc55a6ff8345e692c0f86e5b48e01b996cadc001622fb5e363b421b90100000000000000000000000000000000000000000000000000000000000000000000000000000000000000000000000000000000000000000000000000000000000000000000000000000000000000000000000000000000000000000000000000000000000000000000000000000000000000000000000000000000000000000000000000000000000000000000000000000000000000000000000000000000000000000000000000000000000000000000000000000000000000000000000000000000000000000000000000000000000000000000000000000000000000000000000000000000000000000000000000000000000000000000000000000000008302000080830f4240808000a00000000000000000000000000000000000000000000000000000000000000000880000000000000000c0c0",
        "blocks" : [
            {
                "rlp" : "0xf90262f901f7a0d1232ca7e40ccd6d5f0adba4f3382722d7eb0793a0ac9dbe6aecdd3199301ce5a01dcc4de8dec75d7aab85b567b6ccd41ad312451b948a7413f0a142fd40d49347942adc25665018aa1fe0e6bc666dac8fc2697ff9baa0c767b4917cb8c6c0b032e120b77effd80e8e999949cab5e1a325a014f9558c71a0466f1520dd2fb37a6abe5419439e4bc5fd5146708535d1984cde813519a28e61a0ca969dd68900e1c3bccfbe152323ed7102dca33bfba40e8fc33385fa2d8a2139b90100000000000000000000000000000000000000000000000000000000000000000000000000000000000000000000000000000000000000000000000000000000000000000000000000000000000000000000000000000000000000000000000000000000000000000000000000000000000000000000000000000000000000000000000000000000000000000000000000000000000000000000000000000000000000000000000000000000000000000000000000000000000000000000000000000000000000000000000000000000000000000000000000000000000000000000000000000000000000000000000000000000000000000000000000000000008302000001830f460f827f0c8203e800a00000000000000000000000000000000000000000000000000000000000000000880000000000000000f865f86380018303345094095e7baea6a6c7c4c2dfeb977efac326af552d87830186a0801ba09bae3efe7d9d16200582021c8f7c93c143c3fb1dd6be8a83213f3a5f1ad03926a0177d82a90f883a19de8c6d62ce79c753ae4ea076de047ca19a017879a1ce8bc1c0",
                "blockHeader" : {
                    "bloom" : "0x00000000000000000000000000000000000000000000000000000000000000000000000000000000000000000000000000000000000000000000000000000000000000000000000000000000000000000000000000000000000000000000000000000000000000000000000000000000000000000000000000000000000000000000000000000000000000000000000000000000000000000000000000000000000000000000000000000000000000000000000000000000000000000000000000000000000000000000000000000000000000000000000000000000000000000000000000000000000000000000000000000000000000000000000000000000",
                    "coinbase" : "0x2adc25665018aa1fe0e6bc666dac8fc2697ff9ba",
                    "difficulty" : "0x20000",
                    "extraData" : "0x00",
                    "gasLimit" : "0xf460f",
                    "gasUsed" : "0x7f0c",
                    "hash" : "0x64245d2b39e7ba4a8b70fc6b01a2d1335ef1078414234554c70bac0d8f2efb8e",
                    "mixHash" : "0x0000000000000000000000000000000000000000000000000000000000000000",
                    "nonce" : "0x0000000000000000",
                    "number" : "0x1",
                    "parentHash" : "0xd1232ca7e40ccd6d5f0adba4f3382722d7eb0793a0ac9dbe6aecdd3199301ce5",
                    "receiptTrie" : "0xca969dd68900e1c3bccfbe152323ed7102dca33bfba40e8fc33385fa2d8a2139",
                    "stateRoot" : "0xc767b4917cb8c6c0b032e120b77effd80e8e999949cab5e1a325a014f9558c71",
                    "timestamp" : "0x3e8",
                    "transactionsTrie" : "0x466f1520dd2fb37a6abe5419439e4bc5fd5146708535d1984cde813519a28e61",
                    "uncleHash" : "0x1dcc4de8dec75d7aab85b567b6ccd41ad312451b948a7413f0a142fd40d49347"
                },
                "transactions" : [
                    {
                        "data" : "0x",
                        "gasLimit" : "0x033450",
                        "gasPrice" : "0x01",
                        "nonce" : "0x00",
                        "to" : "0x095e7baea6a6c7c4c2dfeb977efac326af552d87",
                        "value" : "0x0186a0",
                        "v" : "0x1b",
                        "r" : "0x9bae3efe7d9d16200582021c8f7c93c143c3fb1dd6be8a83213f3a5f1ad03926",
                        "s" : "0x177d82a90f883a19de8c6d62ce79c753ae4ea076de047ca19a017879a1ce8bc1"
                    }
                ]
            }
        ]
    }
}