{
    "CallGoesOOGOnSecondLevel_d0g0v0_Istanbul" : {
        "_info" : {
            "comment" : "",
            "filling-rpc-server" : "Geth-1.9.6-unstable-63b18027-20190920",
            "filling-tool-version" : "retesteth-0.0.1+commit.0ae18aef.Linux.g++",
            "lllcversion" : "Version: 0.5.12-develop.2019.9.13+commit.2d601a4f.Linux.g++",
            "source" : "src/GeneralStateTestsFiller/stEIP150Specific/CallGoesOOGOnSecondLevelFiller.json",
            "sourceHash" : "246e7ba016d44ec8cfcd588db9c1a8f721e555b6d3b7974840776c747be544dd"
        },
        "genesisBlockHeader" : {
            "bloom" : "0x00000000000000000000000000000000000000000000000000000000000000000000000000000000000000000000000000000000000000000000000000000000000000000000000000000000000000000000000000000000000000000000000000000000000000000000000000000000000000000000000000000000000000000000000000000000000000000000000000000000000000000000000000000000000000000000000000000000000000000000000000000000000000000000000000000000000000000000000000000000000000000000000000000000000000000000000000000000000000000000000000000000000000000000000000000000",
            "coinbase" : "0x2adc25665018aa1fe0e6bc666dac8fc2697ff9ba",
            "difficulty" : "0x20000",
            "extraData" : "0x00",
            "gasLimit" : "0x989680",
            "gasUsed" : "0x0",
            "hash" : "0x52e2ba5fb372fdf54b56ca5fa5fcf7482e2cfbada52bf57f9077bc0e39a1fce8",
            "mixHash" : "0x0000000000000000000000000000000000000000000000000000000000000000",
            "nonce" : "0x0000000000000000",
            "number" : "0x0",
            "parentHash" : "0x0000000000000000000000000000000000000000000000000000000000000000",
            "receiptTrie" : "0x56e81f171bcc55a6ff8345e692c0f86e5b48e01b996cadc001622fb5e363b421",
            "stateRoot" : "0x02273dc9996e3e3d6965371c85770fc632df4f8d95f4b6c412ea5efd83d4e43b",
            "timestamp" : "0x0",
            "transactionsTrie" : "0x56e81f171bcc55a6ff8345e692c0f86e5b48e01b996cadc001622fb5e363b421",
            "uncleHash" : "0x1dcc4de8dec75d7aab85b567b6ccd41ad312451b948a7413f0a142fd40d49347"
        },
        "pre" : {
            "0x1000000000000000000000000000000000000110" : {
                "balance" : "0x00",
                "code" : "0x5a60085560006000600060006000731000000000000000000000000000000000000111620927c0f160095500",
                "nonce" : "0x00",
                "storage" : {
                }
            },
            "0x1000000000000000000000000000000000000111" : {
                "balance" : "0x00",
                "code" : "0x5a600855600060006000f050600060006000f0505a6009555a600a5500",
                "nonce" : "0x00",
                "storage" : {
                }
            },
            "0xa94f5374fce5edbc8e2a8697c15331677e6ebf0b" : {
                "balance" : "0xe8d4a51000",
                "code" : "0x",
                "nonce" : "0x00",
                "storage" : {
                }
            },
            "0xb94f5374fce5edbc8e2a8697c15331677e6ebf0b" : {
                "balance" : "0x00",
                "code" : "0x5a60085560006000600060006000731000000000000000000000000000000000000110620927c0f160095500",
                "nonce" : "0x00",
                "storage" : {
                }
            }
        },
        "postState" : {
            "0xa94f5374fce5edbc8e2a8697c15331677e6ebf0b" : {
                "code" : "0x",
                "nonce" : "0x01",
                "balance" : "0xe8d4a1b4a0",
                "storage" : {
                }
            },
            "0x1000000000000000000000000000000000000110" : {
                "code" : "0x5a60085560006000600060006000731000000000000000000000000000000000000111620927c0f160095500",
                "nonce" : "0x00",
                "balance" : "0x00",
                "storage" : {
                }
            },
            "0x2adc25665018aa1fe0e6bc666dac8fc2697ff9ba" : {
                "code" : "0x",
                "nonce" : "0x00",
                "balance" : "0x1bc16d674ecb5b60",
                "storage" : {
                }
            },
            "0xb94f5374fce5edbc8e2a8697c15331677e6ebf0b" : {
                "code" : "0x5a60085560006000600060006000731000000000000000000000000000000000000110620927c0f160095500",
                "nonce" : "0x00",
                "balance" : "0x00",
                "storage" : {
                }
            },
            "0x1000000000000000000000000000000000000111" : {
                "code" : "0x5a600855600060006000f050600060006000f0505a6009555a600a5500",
                "nonce" : "0x00",
                "balance" : "0x00",
                "storage" : {
                }
            }
        },
        "network" : "Istanbul",
        "sealEngine" : "NoProof",
        "lastblockhash" : "0x7e778ce9b16aed0f488630816624fd64a16c3855d9acfd5aba730811ccc24d9e",
        "genesisRLP" : "0xf901f8f901f3a00000000000000000000000000000000000000000000000000000000000000000a01dcc4de8dec75d7aab85b567b6ccd41ad312451b948a7413f0a142fd40d49347942adc25665018aa1fe0e6bc666dac8fc2697ff9baa002273dc9996e3e3d6965371c85770fc632df4f8d95f4b6c412ea5efd83d4e43ba056e81f171bcc55a6ff8345e692c0f86e5b48e01b996cadc001622fb5e363b421a056e81f171bcc55a6ff8345e692c0f86e5b48e01b996cadc001622fb5e363b421b9010000000000000000000000000000000000000000000000000000000000000000000000000000000000000000000000000000000000000000000000000000000000000000000000000000000000000000000000000000000000000000000000000000000000000000000000000000000000000000000000000000000000000000000000000000000000000000000000000000000000000000000000000000000000000000000000000000000000000000000000000000000000000000000000000000000000000000000000000000000000000000000000000000000000000000000000000000000000000000000000000000000000000000000000000000000000830200008083989680808000a00000000000000000000000000000000000000000000000000000000000000000880000000000000000c0c0",
        "blocks" : [
            {
                "rlp" : "0xf90260f901f8a052e2ba5fb372fdf54b56ca5fa5fcf7482e2cfbada52bf57f9077bc0e39a1fce8a01dcc4de8dec75d7aab85b567b6ccd41ad312451b948a7413f0a142fd40d49347942adc25665018aa1fe0e6bc666dac8fc2697ff9baa0e6cc8408af82ca912308fba3bd1a6481f908f9bd9cc0e3095428f6b4bb0124a6a0778299110270c362288957e29ef88d9c7315bacd67359f9f8c03f6ffe6b79ec3a0bc509029849afaf54cf15e3aa49d1facdba9d1e5cb03029f91f40c7ee0f456aeb901000000000000000000000000000000000000000000000000000000000000000000000000000000000000000000000000000000000000000000000000000000000000000000000000000000000000000000000000000000000000000000000000000000000000000000000000000000000000000000000000000000000000000000000000000000000000000000000000000000000000000000000000000000000000000000000000000000000000000000000000000000000000000000000000000000000000000000000000000000000000000000000000000000000000000000000000000000000000000000000000000000000000000000000000000000000083020000018398bca483035b608203e800a00000000000000000000000000000000000000000000000000000000000000000880000000000000000f862f860800183035b6094b94f5374fce5edbc8e2a8697c15331677e6ebf0b80801ba0847209ee699a77891570bb06744dd6075a828587c935e45dfb023c2b3a95a5c6a031e90653d76ee3cc7651b1964b207777f83768aaf80ac05c8304e134c636bc36c0",
                "blockHeader" : {
                    "bloom" : "0x00000000000000000000000000000000000000000000000000000000000000000000000000000000000000000000000000000000000000000000000000000000000000000000000000000000000000000000000000000000000000000000000000000000000000000000000000000000000000000000000000000000000000000000000000000000000000000000000000000000000000000000000000000000000000000000000000000000000000000000000000000000000000000000000000000000000000000000000000000000000000000000000000000000000000000000000000000000000000000000000000000000000000000000000000000000",
                    "coinbase" : "0x2adc25665018aa1fe0e6bc666dac8fc2697ff9ba",
                    "difficulty" : "0x20000",
                    "extraData" : "0x00",
                    "gasLimit" : "0x98bca4",
                    "gasUsed" : "0x35b60",
                    "hash" : "0x7e778ce9b16aed0f488630816624fd64a16c3855d9acfd5aba730811ccc24d9e",
                    "mixHash" : "0x0000000000000000000000000000000000000000000000000000000000000000",
                    "nonce" : "0x0000000000000000",
                    "number" : "0x1",
                    "parentHash" : "0x52e2ba5fb372fdf54b56ca5fa5fcf7482e2cfbada52bf57f9077bc0e39a1fce8",
                    "receiptTrie" : "0xbc509029849afaf54cf15e3aa49d1facdba9d1e5cb03029f91f40c7ee0f456ae",
                    "stateRoot" : "0xe6cc8408af82ca912308fba3bd1a6481f908f9bd9cc0e3095428f6b4bb0124a6",
                    "timestamp" : "0x3e8",
                    "transactionsTrie" : "0x778299110270c362288957e29ef88d9c7315bacd67359f9f8c03f6ffe6b79ec3",
                    "uncleHash" : "0x1dcc4de8dec75d7aab85b567b6ccd41ad312451b948a7413f0a142fd40d49347"
                },
                "transactions" : [
                    {
                        "data" : "0x",
                        "gasLimit" : "0x035b60",
                        "gasPrice" : "0x01",
                        "nonce" : "0x00",
                        "to" : "0xb94f5374fce5edbc8e2a8697c15331677e6ebf0b",
                        "value" : "0x00",
                        "v" : "0x1b",
                        "r" : "0x847209ee699a77891570bb06744dd6075a828587c935e45dfb023c2b3a95a5c6",
                        "s" : "0x31e90653d76ee3cc7651b1964b207777f83768aaf80ac05c8304e134c636bc36"
                    }
                ]
            }
        ]
    }
}