{
    "EIP150Transition_HomesteadToEIP150At5" : {
        "_info" : {
            "comment" : "",
            "filling-rpc-server" : "Geth-1.9.11-unstable-a382d783-20200127",
            "filling-tool-version" : "retesteth-0.0.2+commit.ce1fdd3d.Linux.g++",
            "lllcversion" : "Version: 0.5.14-develop.2019.11.27+commit.8f259595.Linux.g++",
            "source" : "src/BlockchainTestsFiller/TransitionTests/bcHomesteadToEIP150/EIP150TransitionFiller.json",
            "sourceHash" : "2140bb0fe6eef5c8d7f976b28e3824036d29c706b7a5cc4fb5d2a015c754aa1b"
        },
        "sealEngine" : "NoProof",
        "network" : "HomesteadToEIP150At5",
        "pre" : {
            "0x1000000000000000000000000000000000000001" : {
                "balance" : "0x02540be400",
                "code" : "0x7310000000000000000000000000000000000000103b6001556014600060007310000000000000000000000000000000000000103c60005160025560005460045560006000600060006001731000000000000000000000000000000000000011617530f160055560006000600060006001731000000000000000000000000000000000000011617530f26006556000600060006000731000000000000000000000000000000000000011617530f460075560006000600060006000731000000000000000000000000000000000000012617530f160085573a94f5374fce5edbc8e2a8697c15331677e6ebf0b316003555a600a55635a60fd556000526004601c6000f0600b555a60095500",
                "nonce" : "0x00",
                "storage" : {
                    "0x00" : "0x12"
                }
            },
            "0x1000000000000000000000000000000000000002" : {
                "balance" : "0x00",
                "code" : "0x5a60085560006000600060006000731000000000000000000000000000000000000003620927c0f160095560006000600060006000731000000000000000000000000000000000000003620927c0f2600a5500",
                "nonce" : "0x00",
                "storage" : {
                }
            },
            "0x1000000000000000000000000000000000000003" : {
                "balance" : "0x00",
                "code" : "0x601260005500",
                "nonce" : "0x00",
                "storage" : {
                }
            },
            "0x1000000000000000000000000000000000000004" : {
                "balance" : "0x00",
                "code" : "0x5a6008556000600060006000731000000000000000000000000000000000000005620927c0f460095500",
                "nonce" : "0x00",
                "storage" : {
                }
            },
            "0x1000000000000000000000000000000000000005" : {
                "balance" : "0x00",
                "code" : "0x601260005500",
                "nonce" : "0x00",
                "storage" : {
                }
            },
            "0x1000000000000000000000000000000000000006" : {
                "balance" : "0x00",
                "code" : "0x5a6008556000600060006000600073100000000000000000000000000000000000000762030d40f160095500",
                "nonce" : "0x00",
                "storage" : {
                }
            },
            "0x1000000000000000000000000000000000000007" : {
                "balance" : "0x00",
                "code" : "0x5a60085560006000600060006000731000000000000000000000000000000000000008620927c0f160095500",
                "nonce" : "0x00",
                "storage" : {
                }
            },
            "0x1000000000000000000000000000000000000008" : {
                "balance" : "0x00",
                "code" : "0x5a60085500",
                "nonce" : "0x00",
                "storage" : {
                }
            },
            "0x1000000000000000000000000000000000000010" : {
                "balance" : "0x6f",
                "code" : "0x1122334455667788991011121314151617181920212223242526272829303132",
                "nonce" : "0x00",
                "storage" : {
                }
            },
            "0x1000000000000000000000000000000000000011" : {
                "balance" : "0x00",
                "code" : "0x601160645500",
                "nonce" : "0x00",
                "storage" : {
                }
            },
            "0x1000000000000000000000000000000000000012" : {
                "balance" : "0x2710",
                "code" : "0x731000000000000000000000000000000000000002ff00",
                "nonce" : "0x00",
                "storage" : {
                }
            },
            "0x1000000000000000000000000000000000000013" : {
                "balance" : "0x2710",
                "code" : "0x731000000000000000000000000000000000000003ff00",
                "nonce" : "0x00",
                "storage" : {
                }
            },
            "0x1000000000000000000000000000000000000015" : {
                "balance" : "0x00",
                "code" : "0x6000600060006000600073100000000000000000000000000000000000001661ea60f1505a60015500",
                "nonce" : "0x00",
                "storage" : {
                }
            },
            "0x1000000000000000000000000000000000000016" : {
                "balance" : "0x00",
                "code" : "0x732000000000000000000000000000000000000015ff00",
                "nonce" : "0x00",
                "storage" : {
                }
            },
            "0x1000000000000000000000000000000000000101" : {
                "balance" : "0x02540be400",
                "code" : "0x7310000000000000000000000000000000000000103b6001556014600060007310000000000000000000000000000000000000103c60005160025560005460045560006000600060006001731000000000000000000000000000000000000011617530f160055560006000600060006001731000000000000000000000000000000000000011617530f26006556000600060006000731000000000000000000000000000000000000011617530f460075560006000600060006000731000000000000000000000000000000000000013617530f160085573a94f5374fce5edbc8e2a8697c15331677e6ebf0b316003555a600a55635a60fd556000526004601c6000f0600b555a60095500",
                "nonce" : "0x00",
                "storage" : {
                    "0x00" : "0x12"
                }
            },
            "0x1000000000000000000000000000000000000102" : {
                "balance" : "0x00",
                "code" : "0x5a60085560006000600060006000731000000000000000000000000000000000000103620927c0f160095560006000600060006000731000000000000000000000000000000000000103620927c0f2600a5500",
                "nonce" : "0x00",
                "storage" : {
                }
            },
            "0x1000000000000000000000000000000000000103" : {
                "balance" : "0x00",
                "code" : "0x601260005500",
                "nonce" : "0x00",
                "storage" : {
                }
            },
            "0x1000000000000000000000000000000000000104" : {
                "balance" : "0x00",
                "code" : "0x5a6008556000600060006000731000000000000000000000000000000000000105620927c0f460095500",
                "nonce" : "0x00",
                "storage" : {
                }
            },
            "0x1000000000000000000000000000000000000105" : {
                "balance" : "0x00",
                "code" : "0x601260005500",
                "nonce" : "0x00",
                "storage" : {
                }
            },
            "0x1000000000000000000000000000000000000106" : {
                "balance" : "0x00",
                "code" : "0x5a6008556000600060006000600073100000000000000000000000000000000000010762030d40f160095500",
                "nonce" : "0x00",
                "storage" : {
                }
            },
            "0x1000000000000000000000000000000000000107" : {
                "balance" : "0x00",
                "code" : "0x5a60085560006000600060006000731000000000000000000000000000000000000108620927c0f160095500",
                "nonce" : "0x00",
                "storage" : {
                }
            },
            "0x1000000000000000000000000000000000000108" : {
                "balance" : "0x00",
                "code" : "0x5a60085500",
                "nonce" : "0x00",
                "storage" : {
                }
            },
            "0x1000000000000000000000000000000000000109" : {
                "balance" : "0x00",
                "code" : "0x5a60085560006000600060006000731000000000000000000000000000000000000110620927c0f160095500",
                "nonce" : "0x00",
                "storage" : {
                }
            },
            "0x1000000000000000000000000000000000000110" : {
                "balance" : "0x00",
                "code" : "0x5a60085560006000600060006000731000000000000000000000000000000000000111620927c0f160095500",
                "nonce" : "0x00",
                "storage" : {
                }
            },
            "0x1000000000000000000000000000000000000111" : {
                "balance" : "0x00",
                "code" : "0x5a600855600060006000f050600060006000f0505a6009555a600a5500",
                "nonce" : "0x00",
                "storage" : {
                }
            },
            "0x1000000000000000000000000000000000000112" : {
                "balance" : "0x00",
                "code" : "0x5a60085560006000600060006000731000000000000000000000000000000000000113620927c0f160095500",
                "nonce" : "0x00",
                "storage" : {
                }
            },
            "0x1000000000000000000000000000000000000113" : {
                "balance" : "0x00",
                "code" : "0x5a60085560006000600060006000731000000000000000000000000000000000000114620927c0f160095500",
                "nonce" : "0x00",
                "storage" : {
                }
            },
            "0x1000000000000000000000000000000000000114" : {
                "balance" : "0x00",
                "code" : "0x5a6008555a6009555a600a5500",
                "nonce" : "0x00",
                "storage" : {
                }
            },
            "0x1000000000000000000000000000000000000115" : {
                "balance" : "0x00",
                "code" : "0x6000600060006000600073100000000000000000000000000000000000011661ea60f1505a60015500",
                "nonce" : "0x00",
                "storage" : {
                }
            },
            "0x1000000000000000000000000000000000000116" : {
                "balance" : "0x00",
                "code" : "0x732000000000000000000000000000000000000115ff00",
                "nonce" : "0x00",
                "storage" : {
                }
            },
            "0x1000000000000000000000000000000000000117" : {
                "balance" : "0x00",
                "code" : "0x6000600060006000600073100000000000000000000000000000000000011861ea60f1505a60015500",
                "nonce" : "0x00",
                "storage" : {
                }
            },
            "0x1000000000000000000000000000000000000118" : {
                "balance" : "0x00",
                "code" : "0x731000000000000000000000000000000000000117ff00",
                "nonce" : "0x00",
                "storage" : {
                }
            },
            "0xa94f5374fce5edbc8e2a8697c15331677e6ebf0b" : {
                "balance" : "0x174876e800",
                "code" : "0x",
                "nonce" : "0x00",
                "storage" : {
                }
            }
        },
        "genesisBlockHeader" : {
            "bloom" : "0x00000000000000000000000000000000000000000000000000000000000000000000000000000000000000000000000000000000000000000000000000000000000000000000000000000000000000000000000000000000000000000000000000000000000000000000000000000000000000000000000000000000000000000000000000000000000000000000000000000000000000000000000000000000000000000000000000000000000000000000000000000000000000000000000000000000000000000000000000000000000000000000000000000000000000000000000000000000000000000000000000000000000000000000000000000000",
            "coinbase" : "0x8888f1f195afa192cfee860698584c030f4c9db1",
            "difficulty" : "0x020000",
            "extraData" : "0x42",
            "gasLimit" : "0x01df5e70",
            "gasUsed" : "0x00",
            "hash" : "0x147702814d3f6aefb33a2be7e7af1160b575818408a5f2709f797361491bda60",
            "mixHash" : "0x0000000000000000000000000000000000000000000000000000000000000000",
            "nonce" : "0x0000000000000000",
            "number" : "0x00",
            "parentHash" : "0x0000000000000000000000000000000000000000000000000000000000000000",
            "receiptTrie" : "0x56e81f171bcc55a6ff8345e692c0f86e5b48e01b996cadc001622fb5e363b421",
            "stateRoot" : "0x710ab3ce35c1d3ed2ff2309b38ece53e162b229655d1e8c21d6ee32e9eff2f9b",
            "timestamp" : "0x54c98c81",
            "transactionsTrie" : "0x56e81f171bcc55a6ff8345e692c0f86e5b48e01b996cadc001622fb5e363b421",
            "uncleHash" : "0x1dcc4de8dec75d7aab85b567b6ccd41ad312451b948a7413f0a142fd40d49347"
        },
        "genesisRLP" : "0xf901fdf901f8a00000000000000000000000000000000000000000000000000000000000000000a01dcc4de8dec75d7aab85b567b6ccd41ad312451b948a7413f0a142fd40d49347948888f1f195afa192cfee860698584c030f4c9db1a0710ab3ce35c1d3ed2ff2309b38ece53e162b229655d1e8c21d6ee32e9eff2f9ba056e81f171bcc55a6ff8345e692c0f86e5b48e01b996cadc001622fb5e363b421a056e81f171bcc55a6ff8345e692c0f86e5b48e01b996cadc001622fb5e363b421b901000000000000000000000000000000000000000000000000000000000000000000000000000000000000000000000000000000000000000000000000000000000000000000000000000000000000000000000000000000000000000000000000000000000000000000000000000000000000000000000000000000000000000000000000000000000000000000000000000000000000000000000000000000000000000000000000000000000000000000000000000000000000000000000000000000000000000000000000000000000000000000000000000000000000000000000000000000000000000000000000000000000000000000000000000000000083020000808401df5e70808454c98c8142a00000000000000000000000000000000000000000000000000000000000000000880000000000000000c0c0",
        "blocks" : [
            {
                "chainname" : "default",
                "blocknumber" : "1",
                "uncleHeaders" : [
                ],
                "blockHeader" : {
                    "bloom" : "0x00000000000000000000000000000000000000000000000000000000000000000000000000000000000000000000000000000000000000000000000000000000000000000000000000000000000000000000000000000000000000000000000000000000000000000000000000000000000000000000000000000000000000000000000000000000000000000000000000000000000000000000000000000000000000000000000000000000000000000000000000000000000000000000000000000000000000000000000000000000000000000000000000000000000000000000000000000000000000000000000000000000000000000000000000000000",
                    "coinbase" : "0x8888f1f195afa192cfee860698584c030f4c9db1",
                    "difficulty" : "0x020000",
                    "extraData" : "0x42",
                    "gasLimit" : "0x01dfd646",
                    "gasUsed" : "0x00",
                    "hash" : "0xe928e905770994fd950b0fdcb5d95748d63008c420bf797555810226f2d5b40b",
                    "mixHash" : "0x0000000000000000000000000000000000000000000000000000000000000000",
                    "nonce" : "0x0000000000000000",
                    "number" : "0x01",
                    "parentHash" : "0x147702814d3f6aefb33a2be7e7af1160b575818408a5f2709f797361491bda60",
                    "receiptTrie" : "0x56e81f171bcc55a6ff8345e692c0f86e5b48e01b996cadc001622fb5e363b421",
                    "stateRoot" : "0x6fd54322ab56b2c90651c1ec1015c754b95279ecc84c1448bb91558ae72a9843",
                    "timestamp" : "0x54c99069",
                    "transactionsTrie" : "0x56e81f171bcc55a6ff8345e692c0f86e5b48e01b996cadc001622fb5e363b421",
                    "uncleHash" : "0x1dcc4de8dec75d7aab85b567b6ccd41ad312451b948a7413f0a142fd40d49347"
                },
                "transactions" : [
                ],
                "rlp" : "0xf901fdf901f8a0147702814d3f6aefb33a2be7e7af1160b575818408a5f2709f797361491bda60a01dcc4de8dec75d7aab85b567b6ccd41ad312451b948a7413f0a142fd40d49347948888f1f195afa192cfee860698584c030f4c9db1a06fd54322ab56b2c90651c1ec1015c754b95279ecc84c1448bb91558ae72a9843a056e81f171bcc55a6ff8345e692c0f86e5b48e01b996cadc001622fb5e363b421a056e81f171bcc55a6ff8345e692c0f86e5b48e01b996cadc001622fb5e363b421b901000000000000000000000000000000000000000000000000000000000000000000000000000000000000000000000000000000000000000000000000000000000000000000000000000000000000000000000000000000000000000000000000000000000000000000000000000000000000000000000000000000000000000000000000000000000000000000000000000000000000000000000000000000000000000000000000000000000000000000000000000000000000000000000000000000000000000000000000000000000000000000000000000000000000000000000000000000000000000000000000000000000000000000000000000000000083020000018401dfd646808454c9906942a00000000000000000000000000000000000000000000000000000000000000000880000000000000000c0c0"
            },
            {
                "chainname" : "default",
                "blocknumber" : "2",
                "uncleHeaders" : [
                ],
                "blockHeader" : {
                    "bloom" : "0x00000000000000000000000000000000000000000000000000000000000000000000000000000000000000000000000000000000000000000000000000000000000000000000000000000000000000000000000000000000000000000000000000000000000000000000000000000000000000000000000000000000000000000000000000000000000000000000000000000000000000000000000000000000000000000000000000000000000000000000000000000000000000000000000000000000000000000000000000000000000000000000000000000000000000000000000000000000000000000000000000000000000000000000000000000000",
                    "coinbase" : "0x8888f1f195afa192cfee860698584c030f4c9db1",
                    "difficulty" : "0x020000",
                    "extraData" : "0x42",
                    "gasLimit" : "0x01e04e3a",
                    "gasUsed" : "0x00",
                    "hash" : "0x0a86fcd2da20f06c75ed728ceecdd38edbdc1da443280789fbe70a57e29c5ecc",
                    "mixHash" : "0x0000000000000000000000000000000000000000000000000000000000000000",
                    "nonce" : "0x0000000000000000",
                    "number" : "0x02",
                    "parentHash" : "0xe928e905770994fd950b0fdcb5d95748d63008c420bf797555810226f2d5b40b",
                    "receiptTrie" : "0x56e81f171bcc55a6ff8345e692c0f86e5b48e01b996cadc001622fb5e363b421",
                    "stateRoot" : "0xd98645cec1bd91af24e53df5a80d41931de07d3d360cb12fdd3f72a40da6db72",
                    "timestamp" : "0x54c99451",
                    "transactionsTrie" : "0x56e81f171bcc55a6ff8345e692c0f86e5b48e01b996cadc001622fb5e363b421",
                    "uncleHash" : "0x1dcc4de8dec75d7aab85b567b6ccd41ad312451b948a7413f0a142fd40d49347"
                },
                "transactions" : [
                ],
                "rlp" : "0xf901fdf901f8a0e928e905770994fd950b0fdcb5d95748d63008c420bf797555810226f2d5b40ba01dcc4de8dec75d7aab85b567b6ccd41ad312451b948a7413f0a142fd40d49347948888f1f195afa192cfee860698584c030f4c9db1a0d98645cec1bd91af24e53df5a80d41931de07d3d360cb12fdd3f72a40da6db72a056e81f171bcc55a6ff8345e692c0f86e5b48e01b996cadc001622fb5e363b421a056e81f171bcc55a6ff8345e692c0f86e5b48e01b996cadc001622fb5e363b421b901000000000000000000000000000000000000000000000000000000000000000000000000000000000000000000000000000000000000000000000000000000000000000000000000000000000000000000000000000000000000000000000000000000000000000000000000000000000000000000000000000000000000000000000000000000000000000000000000000000000000000000000000000000000000000000000000000000000000000000000000000000000000000000000000000000000000000000000000000000000000000000000000000000000000000000000000000000000000000000000000000000000000000000000000000000000083020000028401e04e3a808454c9945142a00000000000000000000000000000000000000000000000000000000000000000880000000000000000c0c0"
            },
            {
                "chainname" : "default",
                "blocknumber" : "3",
                "uncleHeaders" : [
                ],
                "blockHeader" : {
                    "bloom" : "0x00000000000000000000000000000000000000000000000000000000000000000000000000000000000000000000000000000000000000000000000000000000000000000000000000000000000000000000000000000000000000000000000000000000000000000000000000000000000000000000000000000000000000000000000000000000000000000000000000000000000000000000000000000000000000000000000000000000000000000000000000000000000000000000000000000000000000000000000000000000000000000000000000000000000000000000000000000000000000000000000000000000000000000000000000000000",
                    "coinbase" : "0x8888f1f195afa192cfee860698584c030f4c9db1",
                    "difficulty" : "0x020000",
                    "extraData" : "0x42",
                    "gasLimit" : "0x01e0c64c",
                    "gasUsed" : "0x00",
                    "hash" : "0x715807fcdb0bcfcfa490a5dd951d4c937981c641b3e3e017a3808b56dd501ed1",
                    "mixHash" : "0x0000000000000000000000000000000000000000000000000000000000000000",
                    "nonce" : "0x0000000000000000",
                    "number" : "0x03",
                    "parentHash" : "0x0a86fcd2da20f06c75ed728ceecdd38edbdc1da443280789fbe70a57e29c5ecc",
                    "receiptTrie" : "0x56e81f171bcc55a6ff8345e692c0f86e5b48e01b996cadc001622fb5e363b421",
                    "stateRoot" : "0xec63033a6e1ade7f5d61ea093eaac8753fae2c98baaa938993a6c226961ed90b",
                    "timestamp" : "0x54c99839",
                    "transactionsTrie" : "0x56e81f171bcc55a6ff8345e692c0f86e5b48e01b996cadc001622fb5e363b421",
                    "uncleHash" : "0x1dcc4de8dec75d7aab85b567b6ccd41ad312451b948a7413f0a142fd40d49347"
                },
                "transactions" : [
                ],
                "rlp" : "0xf901fdf901f8a00a86fcd2da20f06c75ed728ceecdd38edbdc1da443280789fbe70a57e29c5ecca01dcc4de8dec75d7aab85b567b6ccd41ad312451b948a7413f0a142fd40d49347948888f1f195afa192cfee860698584c030f4c9db1a0ec63033a6e1ade7f5d61ea093eaac8753fae2c98baaa938993a6c226961ed90ba056e81f171bcc55a6ff8345e692c0f86e5b48e01b996cadc001622fb5e363b421a056e81f171bcc55a6ff8345e692c0f86e5b48e01b996cadc001622fb5e363b421b901000000000000000000000000000000000000000000000000000000000000000000000000000000000000000000000000000000000000000000000000000000000000000000000000000000000000000000000000000000000000000000000000000000000000000000000000000000000000000000000000000000000000000000000000000000000000000000000000000000000000000000000000000000000000000000000000000000000000000000000000000000000000000000000000000000000000000000000000000000000000000000000000000000000000000000000000000000000000000000000000000000000000000000000000000000000083020000038401e0c64c808454c9983942a00000000000000000000000000000000000000000000000000000000000000000880000000000000000c0c0"
            },
            {
                "chainname" : "default",
                "blocknumber" : "4",
                "uncleHeaders" : [
                ],
                "blockHeader" : {
                    "bloom" : "0x00000000000000000000000000000000000000000000000000000000000000000000000000000000000000000000000000000000000000000000000000000000000000000000000000000000000000000000000000000000000000000000000000000000000000000000000000000000000000000000000000000000000000000000000000000000000000000000000000000000000000000000000000000000000000000000000000000000000000000000000000000000000000000000000000000000000000000000000000000000000000000000000000000000000000000000000000000000000000000000000000000000000000000000000000000000",
                    "coinbase" : "0x8888f1f195afa192cfee860698584c030f4c9db1",
                    "difficulty" : "0x020000",
                    "extraData" : "0x42",
                    "gasLimit" : "0x01e13e7c",
                    "gasUsed" : "0x1b61a6",
                    "hash" : "0xa535e8173311e70b87ed526fd5186b49584e68a443a2016ace97406aa6a980c2",
                    "mixHash" : "0x0000000000000000000000000000000000000000000000000000000000000000",
                    "nonce" : "0x0000000000000000",
                    "number" : "0x04",
                    "parentHash" : "0x715807fcdb0bcfcfa490a5dd951d4c937981c641b3e3e017a3808b56dd501ed1",
                    "receiptTrie" : "0xe2bf02b9df4f4efea0fbd1874b7547b1284239c8cb360fb3b86256ea02972ea0",
                    "stateRoot" : "0xfffc4f6c9ca587efb36383ad02567f2c8f3423b78924b4a84984906d333399ad",
                    "timestamp" : "0x54c99c21",
                    "transactionsTrie" : "0xc03f78021d31871d7487c6cf64cff779786af650489efdfc715a28c15d8ae293",
                    "uncleHash" : "0x1dcc4de8dec75d7aab85b567b6ccd41ad312451b948a7413f0a142fd40d49347"
                },
                "transactions" : [
                    {
                        "data" : "0x",
                        "gasLimit" : "0x0927c0",
                        "gasPrice" : "0x01",
                        "nonce" : "0x00",
                        "r" : "0xc943de51850eac87bde6d298e7634dc95c3d72da74e61216f0b47c903a09f011",
                        "s" : "0x72e12017a22cb42d3008a126d837f2748b2af98c714bf69109ec725d25620c9c",
                        "to" : "0x1000000000000000000000000000000000000001",
                        "v" : "0x1c",
                        "value" : "0x0a"
                    },
                    {
                        "data" : "0x",
                        "gasLimit" : "0x0927c0",
                        "gasPrice" : "0x01",
                        "nonce" : "0x01",
                        "r" : "0x287ddddee5d48ad0a5d63185f195ea7be555fe7d99c632bd5881c94a935e34e8",
                        "s" : "0x21dcf284222e75e491d08b6a580c905fe26f5fa9e4e54121da52da434dc28ade",
                        "to" : "0x1000000000000000000000000000000000000002",
                        "v" : "0x1c",
                        "value" : "0x01"
                    },
                    {
                        "data" : "0x",
                        "gasLimit" : "0x0927c0",
                        "gasPrice" : "0x01",
                        "nonce" : "0x02",
                        "r" : "0x52cf9c79ae79a0f352cd50148fc6ff2a178611b7d988e68023591779b3d75477",
                        "s" : "0x6bb8e52830d66258fce221d913902ee6eba226275e6974fd5a682f448dcaadef",
                        "to" : "0x1000000000000000000000000000000000000004",
                        "v" : "0x1c",
                        "value" : "0x01"
                    },
                    {
                        "data" : "0x",
                        "gasLimit" : "0x0927c0",
                        "gasPrice" : "0x01",
                        "nonce" : "0x03",
                        "r" : "0xd9a3aba30547cc70da4044ed77aaac107404947a66873f2f9f9539eafb0dda1a",
                        "s" : "0x25983fb46162097565df45b5fd842d674d284e21edb4d23674fd57afca7c3668",
                        "to" : "0x1000000000000000000000000000000000000006",
                        "v" : "0x1c",
                        "value" : "0x01"
                    },
                    {
                        "data" : "0x",
                        "gasLimit" : "0x0927c0",
                        "gasPrice" : "0x01",
                        "nonce" : "0x04",
                        "r" : "0xdade07f0bd75f3101856f94927d84632a96ebc638384ad965c983865607a2e68",
                        "s" : "0x6f8f6ecc09316be49261bedb65dce65f8750d9d783a41daf7a4b4147ffa358d4",
                        "to" : "0x1000000000000000000000000000000000000015",
                        "v" : "0x1b",
                        "value" : "0x01"
                    }
                ],
                "rlp" : "0xf903ecf901fba0715807fcdb0bcfcfa490a5dd951d4c937981c641b3e3e017a3808b56dd501ed1a01dcc4de8dec75d7aab85b567b6ccd41ad312451b948a7413f0a142fd40d49347948888f1f195afa192cfee860698584c030f4c9db1a0fffc4f6c9ca587efb36383ad02567f2c8f3423b78924b4a84984906d333399ada0c03f78021d31871d7487c6cf64cff779786af650489efdfc715a28c15d8ae293a0e2bf02b9df4f4efea0fbd1874b7547b1284239c8cb360fb3b86256ea02972ea0b901000000000000000000000000000000000000000000000000000000000000000000000000000000000000000000000000000000000000000000000000000000000000000000000000000000000000000000000000000000000000000000000000000000000000000000000000000000000000000000000000000000000000000000000000000000000000000000000000000000000000000000000000000000000000000000000000000000000000000000000000000000000000000000000000000000000000000000000000000000000000000000000000000000000000000000000000000000000000000000000000000000000000000000000000000000000083020000048401e13e7c831b61a68454c99c2142a00000000000000000000000000000000000000000000000000000000000000000880000000000000000f901eaf8608001830927c09410000000000000000000000000000000000000010a801ca0c943de51850eac87bde6d298e7634dc95c3d72da74e61216f0b47c903a09f011a072e12017a22cb42d3008a126d837f2748b2af98c714bf69109ec725d25620c9cf8600101830927c094100000000000000000000000000000000000000201801ca0287ddddee5d48ad0a5d63185f195ea7be555fe7d99c632bd5881c94a935e34e8a021dcf284222e75e491d08b6a580c905fe26f5fa9e4e54121da52da434dc28adef8600201830927c094100000000000000000000000000000000000000401801ca052cf9c79ae79a0f352cd50148fc6ff2a178611b7d988e68023591779b3d75477a06bb8e52830d66258fce221d913902ee6eba226275e6974fd5a682f448dcaadeff8600301830927c094100000000000000000000000000000000000000601801ca0d9a3aba30547cc70da4044ed77aaac107404947a66873f2f9f9539eafb0dda1aa025983fb46162097565df45b5fd842d674d284e21edb4d23674fd57afca7c3668f8600401830927c094100000000000000000000000000000000000001501801ba0dade07f0bd75f3101856f94927d84632a96ebc638384ad965c983865607a2e68a06f8f6ecc09316be49261bedb65dce65f8750d9d783a41daf7a4b4147ffa358d4c0"
            },
            {
                "chainname" : "default",
                "blocknumber" : "5",
                "uncleHeaders" : [
                ],
                "blockHeader" : {
                    "bloom" : "0x00000000000000000000000000000000000000000000000000000000000000000000000000000000000000000000000000000000000000000000000000000000000000000000000000000000000000000000000000000000000000000000000000000000000000000000000000000000000000000000000000000000000000000000000000000000000000000000000000000000000000000000000000000000000000000000000000000000000000000000000000000000000000000000000000000000000000000000000000000000000000000000000000000000000000000000000000000000000000000000000000000000000000000000000000000000",
                    "coinbase" : "0x8888f1f195afa192cfee860698584c030f4c9db1",
                    "difficulty" : "0x020000",
                    "extraData" : "0x42",
                    "gasLimit" : "0x01e1b6ca",
                    "gasUsed" : "0x107b58",
                    "hash" : "0x7219c91f212320b9903f5dc1433cb5dbca72f038e759044d149c38d5fa965fa9",
                    "mixHash" : "0x0000000000000000000000000000000000000000000000000000000000000000",
                    "nonce" : "0x0000000000000000",
                    "number" : "0x05",
                    "parentHash" : "0xa535e8173311e70b87ed526fd5186b49584e68a443a2016ace97406aa6a980c2",
                    "receiptTrie" : "0x1a42bd8462ae37803e7a7bcd18ecd8f97dc4c8d583bdaa782c19cb0e41f35ac6",
                    "stateRoot" : "0xcc425a1bd65e558cd15ad9705b0eb149adb7d640572c952041fc52b891f30e91",
                    "timestamp" : "0x54c9a009",
                    "transactionsTrie" : "0xb10093fecb86c2f256877aa0fc28cd5a00414cc46696e48702ff188e9da8661e",
                    "uncleHash" : "0x1dcc4de8dec75d7aab85b567b6ccd41ad312451b948a7413f0a142fd40d49347"
                },
                "transactions" : [
                    {
                        "data" : "0x",
                        "gasLimit" : "0x0927c0",
                        "gasPrice" : "0x01",
                        "nonce" : "0x05",
                        "r" : "0x2feb81d2f0b243b24ae75736beaf179a74481d6a2fb3a9b171f39f1d984302e9",
                        "s" : "0x1692b08e9e5a9285a3aa1fb9ed91e34b7db172e7f4dd6e33e248d9c22460a79f",
                        "to" : "0x1000000000000000000000000000000000000101",
                        "v" : "0x1c",
                        "value" : "0x0a"
                    },
                    {
                        "data" : "0x",
                        "gasLimit" : "0x0927c0",
                        "gasPrice" : "0x01",
                        "nonce" : "0x06",
                        "r" : "0x396bc96974f9a0b28d203a5e5f2395a63f1e89518669156094d6acd277753272",
                        "s" : "0x7983997559fb588bf629567893d99cba9b33415686798a514b709131040a66c8",
                        "to" : "0x1000000000000000000000000000000000000102",
                        "v" : "0x1b",
                        "value" : "0x01"
                    },
                    {
                        "data" : "0x",
                        "gasLimit" : "0x0927c0",
                        "gasPrice" : "0x01",
                        "nonce" : "0x07",
                        "r" : "0xe1a19db7e3d1dbf0a78cd47b115e01a60bec34c77f9f79bb8f3cfef58ac39415",
                        "s" : "0x371fbcf2e9619447538dd912b00af91b7bbbbac00cf2817d21f1c3e5d226c7a1",
                        "to" : "0x1000000000000000000000000000000000000104",
                        "v" : "0x1c",
                        "value" : "0x01"
                    },
                    {
                        "data" : "0x",
                        "gasLimit" : "0x061a80",
                        "gasPrice" : "0x01",
                        "nonce" : "0x08",
                        "r" : "0xe8470563ed04a11d952247bd57a55c0ca81d766944f1ad15e4d0d865bf2d1293",
                        "s" : "0x7e3f518e08def103b16b3c5afe30d8b4dd4529b57df158d743937fd3438d17fc",
                        "to" : "0x1000000000000000000000000000000000000106",
                        "v" : "0x1c",
                        "value" : "0x01"
                    },
                    {
                        "data" : "0x",
                        "gasLimit" : "0x030d40",
                        "gasPrice" : "0x01",
                        "nonce" : "0x09",
                        "r" : "0xd806c1b0f550feabd7b90310d0f04c318d05a8ff4eecafb03c8515738e4ef1ac",
                        "s" : "0x738e3152f1069830e30de7cfe8e2220a4a2c3fd2e6e2fbc373b46f044d3bf7a7",
                        "to" : "0x1000000000000000000000000000000000000109",
                        "v" : "0x1c",
                        "value" : "0x01"
                    },
                    {
                        "data" : "0x",
                        "gasLimit" : "0x027100",
                        "gasPrice" : "0x01",
                        "nonce" : "0x0a",
                        "r" : "0x5356306aee4899ab7fae6704155b8eba7069089d07c073fd2b562dfa8bc49e04",
                        "s" : "0x5ab8d3b9b87672cce82cc5afdf28b0aadfa2e02dd444794cdfa983016aea57d6",
                        "to" : "0x1000000000000000000000000000000000000112",
                        "v" : "0x1c",
                        "value" : "0x01"
                    },
                    {
                        "data" : "0x",
                        "gasLimit" : "0x0927c0",
                        "gasPrice" : "0x01",
                        "nonce" : "0x0b",
                        "r" : "0x7e8152c65bd41cc1c765b83f9d3660cd1d04e592940eb83863c85c2b7062173f",
                        "s" : "0x51e880bc6ab88f6d820600c6ccaea1d8e1e517dc57d6dc32fb52cb3ba4651576",
                        "to" : "0x1000000000000000000000000000000000000115",
                        "v" : "0x1b",
                        "value" : "0x01"
                    },
                    {
                        "data" : "0x",
                        "gasLimit" : "0x0927c0",
                        "gasPrice" : "0x01",
                        "nonce" : "0x0c",
                        "r" : "0x8c2dc504daec6e02426998d880a14b9eda9241c1c81c4ca45bd7294d1fd20628",
                        "s" : "0x1d420cb2580dec068778f2018dfb13b7a167d9e3d24fee78929ea27e05099687",
                        "to" : "0x1000000000000000000000000000000000000117",
                        "v" : "0x1b",
                        "value" : "0x01"
                    }
                ],
                "rlp" : "0xf90512f901fba0a535e8173311e70b87ed526fd5186b49584e68a443a2016ace97406aa6a980c2a01dcc4de8dec75d7aab85b567b6ccd41ad312451b948a7413f0a142fd40d49347948888f1f195afa192cfee860698584c030f4c9db1a0cc425a1bd65e558cd15ad9705b0eb149adb7d640572c952041fc52b891f30e91a0b10093fecb86c2f256877aa0fc28cd5a00414cc46696e48702ff188e9da8661ea01a42bd8462ae37803e7a7bcd18ecd8f97dc4c8d583bdaa782c19cb0e41f35ac6b901000000000000000000000000000000000000000000000000000000000000000000000000000000000000000000000000000000000000000000000000000000000000000000000000000000000000000000000000000000000000000000000000000000000000000000000000000000000000000000000000000000000000000000000000000000000000000000000000000000000000000000000000000000000000000000000000000000000000000000000000000000000000000000000000000000000000000000000000000000000000000000000000000000000000000000000000000000000000000000000000000000000000000000000000000000000083020000058401e1b6ca83107b588454c9a00942a00000000000000000000000000000000000000000000000000000000000000000880000000000000000f90310f8600501830927c09410000000000000000000000000000000000001010a801ca02feb81d2f0b243b24ae75736beaf179a74481d6a2fb3a9b171f39f1d984302e9a01692b08e9e5a9285a3aa1fb9ed91e34b7db172e7f4dd6e33e248d9c22460a79ff8600601830927c094100000000000000000000000000000000000010201801ba0396bc96974f9a0b28d203a5e5f2395a63f1e89518669156094d6acd277753272a07983997559fb588bf629567893d99cba9b33415686798a514b709131040a66c8f8600701830927c094100000000000000000000000000000000000010401801ca0e1a19db7e3d1dbf0a78cd47b115e01a60bec34c77f9f79bb8f3cfef58ac39415a0371fbcf2e9619447538dd912b00af91b7bbbbac00cf2817d21f1c3e5d226c7a1f860080183061a8094100000000000000000000000000000000000010601801ca0e8470563ed04a11d952247bd57a55c0ca81d766944f1ad15e4d0d865bf2d1293a07e3f518e08def103b16b3c5afe30d8b4dd4529b57df158d743937fd3438d17fcf860090183030d4094100000000000000000000000000000000000010901801ca0d806c1b0f550feabd7b90310d0f04c318d05a8ff4eecafb03c8515738e4ef1aca0738e3152f1069830e30de7cfe8e2220a4a2c3fd2e6e2fbc373b46f044d3bf7a7f8600a018302710094100000000000000000000000000000000000011201801ca05356306aee4899ab7fae6704155b8eba7069089d07c073fd2b562dfa8bc49e04a05ab8d3b9b87672cce82cc5afdf28b0aadfa2e02dd444794cdfa983016aea57d6f8600b01830927c094100000000000000000000000000000000000011501801ba07e8152c65bd41cc1c765b83f9d3660cd1d04e592940eb83863c85c2b7062173fa051e880bc6ab88f6d820600c6ccaea1d8e1e517dc57d6dc32fb52cb3ba4651576f8600c01830927c094100000000000000000000000000000000000011701801ba08c2dc504daec6e02426998d880a14b9eda9241c1c81c4ca45bd7294d1fd20628a01d420cb2580dec068778f2018dfb13b7a167d9e3d24fee78929ea27e05099687c0"
            }
        ],
        "postStateHash" : "0xcc425a1bd65e558cd15ad9705b0eb149adb7d640572c952041fc52b891f30e91",
        "lastblockhash" : "0x7219c91f212320b9903f5dc1433cb5dbca72f038e759044d149c38d5fa965fa9"
    }
}