{
    "evmBytecode_d0g0v0_Istanbul" : {
        "_info" : {
            "comment" : "",
            "filling-rpc-server" : "Geth-1.9.6-unstable-63b18027-20190920",
            "filling-tool-version" : "retesteth-0.0.1+commit.0ae18aef.Linux.g++",
            "lllcversion" : "Version: 0.5.12-develop.2019.9.13+commit.2d601a4f.Linux.g++",
            "source" : "src/GeneralStateTestsFiller/stBugs/evmBytecodeFiller.json",
            "sourceHash" : "1a33ecc625996b2bee3f7ab77b6aed3aab59f6f243d266b93f70a0d12912d80d"
        },
        "genesisBlockHeader" : {
            "bloom" : "0x00000000000000000000000000000000000000000000000000000000000000000000000000000000000000000000000000000000000000000000000000000000000000000000000000000000000000000000000000000000000000000000000000000000000000000000000000000000000000000000000000000000000000000000000000000000000000000000000000000000000000000000000000000000000000000000000000000000000000000000000000000000000000000000000000000000000000000000000000000000000000000000000000000000000000000000000000000000000000000000000000000000000000000000000000000000",
            "coinbase" : "0x1000000000000000000000000000000000000000",
            "difficulty" : "0x20000",
            "extraData" : "0x00",
            "gasLimit" : "0x54a60a4202e088",
            "gasUsed" : "0x0",
            "hash" : "0xb835c89a42605cfcc542381145b83c826caf10823b81af0f45091040a67e6601",
            "mixHash" : "0x0000000000000000000000000000000000000000000000000000000000000000",
            "nonce" : "0x0000000000000000",
            "number" : "0x0",
            "parentHash" : "0x0000000000000000000000000000000000000000000000000000000000000000",
            "receiptTrie" : "0x56e81f171bcc55a6ff8345e692c0f86e5b48e01b996cadc001622fb5e363b421",
            "stateRoot" : "0x642a369a4a9dbf57d83ba05413910a5dd2cff93858c68e9e8293a8fffeae8660",
            "timestamp" : "0x0",
            "transactionsTrie" : "0x56e81f171bcc55a6ff8345e692c0f86e5b48e01b996cadc001622fb5e363b421",
            "uncleHash" : "0x1dcc4de8dec75d7aab85b567b6ccd41ad312451b948a7413f0a142fd40d49347"
        },
        "pre" : {
            "0xa94f5374fce5edbc8e2a8697c15331677e6ebf0b" : {
                "balance" : "0x38beec8feeca2598",
                "code" : "0x",
                "nonce" : "0x00",
                "storage" : {
                }
            },
            "0xb94f5374fce5edbc8e2a8697c15331677e6ebf0b" : {
                "balance" : "0x00",
                "code" : "0x67FFFFFFFFFFFFFFFF600160006000FB",
                "nonce" : "0x3f",
                "storage" : {
                }
            }
        },
        "postState" : {
            "0xa94f5374fce5edbc8e2a8697c15331677e6ebf0b" : {
                "code" : "0x",
                "nonce" : "0x01",
                "balance" : "0x38beec8feec850d8",
                "storage" : {
                }
            },
            "0xb94f5374fce5edbc8e2a8697c15331677e6ebf0b" : {
                "code" : "0x67ffffffffffffffff600160006000fb",
                "nonce" : "0x3f",
                "balance" : "0x00",
                "storage" : {
                }
            },
            "0x1000000000000000000000000000000000000000" : {
                "code" : "0x",
                "nonce" : "0x00",
                "balance" : "0x1bc16d674ec9d4c0",
                "storage" : {
                }
            }
        },
        "network" : "Istanbul",
        "sealEngine" : "NoProof",
        "lastblockhash" : "0x3ef18c438a1ae412a44e8130d5bc8d8ebce6ec41b463c9c7912ad91281f9d9dc",
        "genesisRLP" : "0xf901fcf901f7a00000000000000000000000000000000000000000000000000000000000000000a01dcc4de8dec75d7aab85b567b6ccd41ad312451b948a7413f0a142fd40d49347941000000000000000000000000000000000000000a0642a369a4a9dbf57d83ba05413910a5dd2cff93858c68e9e8293a8fffeae8660a056e81f171bcc55a6ff8345e692c0f86e5b48e01b996cadc001622fb5e363b421a056e81f171bcc55a6ff8345e692c0f86e5b48e01b996cadc001622fb5e363b421b901000000000000000000000000000000000000000000000000000000000000000000000000000000000000000000000000000000000000000000000000000000000000000000000000000000000000000000000000000000000000000000000000000000000000000000000000000000000000000000000000000000000000000000000000000000000000000000000000000000000000000000000000000000000000000000000000000000000000000000000000000000000000000000000000000000000000000000000000000000000000000000000000000000000000000000000000000000000000000000000000000000000000000000000000000000000083020000808754a60a4202e088808000a00000000000000000000000000000000000000000000000000000000000000000880000000000000000c0c0",
        "blocks" : [
            {
                "rlp" : "0xf90264f901fca0b835c89a42605cfcc542381145b83c826caf10823b81af0f45091040a67e6601a01dcc4de8dec75d7aab85b567b6ccd41ad312451b948a7413f0a142fd40d49347941000000000000000000000000000000000000000a07e05d36b11d99911b51dc45d6f0b8a65766f8d62f9e1bd05f90a7ed547df1beda0759fc640277a9388dfadd7066ca211c5b4a77b470ad5e748eb67ce101a423d73a00ef77336cf7bfbd2c500dcefe7b48d0ef7896d38f6373fbeb301ea4dac3746a7b901000000000000000000000000000000000000000000000000000000000000000000000000000000000000000000000000000000000000000000000000000000000000000000000000000000000000000000000000000000000000000000000000000000000000000000000000000000000000000000000000000000000000000000000000000000000000000000000000000000000000000000000000000000000000000000000000000000000000000000000000000000000000000000000000000000000000000000000000000000000000000000000000000000000000000000000000000000000000000000000000000000000000000000000000000000000083020000018754bb33c493613f8301d4c08203e800a00000000000000000000000000000000000000000000000000000000000000000880000000000000000f862f86080018301d4c094b94f5374fce5edbc8e2a8697c15331677e6ebf0b80801ba0cfdb879fa3801459090519ce76859887b4d4777beb3a1a31372476e05302b8faa01f507280f39e54d5d355f22e171464d4a5c58cd3783fe89e3ee745994051a632c0",
                "blockHeader" : {
                    "bloom" : "0x00000000000000000000000000000000000000000000000000000000000000000000000000000000000000000000000000000000000000000000000000000000000000000000000000000000000000000000000000000000000000000000000000000000000000000000000000000000000000000000000000000000000000000000000000000000000000000000000000000000000000000000000000000000000000000000000000000000000000000000000000000000000000000000000000000000000000000000000000000000000000000000000000000000000000000000000000000000000000000000000000000000000000000000000000000000",
                    "coinbase" : "0x1000000000000000000000000000000000000000",
                    "difficulty" : "0x20000",
                    "extraData" : "0x00",
                    "gasLimit" : "0x54bb33c493613f",
                    "gasUsed" : "0x1d4c0",
                    "hash" : "0x3ef18c438a1ae412a44e8130d5bc8d8ebce6ec41b463c9c7912ad91281f9d9dc",
                    "mixHash" : "0x0000000000000000000000000000000000000000000000000000000000000000",
                    "nonce" : "0x0000000000000000",
                    "number" : "0x1",
                    "parentHash" : "0xb835c89a42605cfcc542381145b83c826caf10823b81af0f45091040a67e6601",
                    "receiptTrie" : "0x0ef77336cf7bfbd2c500dcefe7b48d0ef7896d38f6373fbeb301ea4dac3746a7",
                    "stateRoot" : "0x7e05d36b11d99911b51dc45d6f0b8a65766f8d62f9e1bd05f90a7ed547df1bed",
                    "timestamp" : "0x3e8",
                    "transactionsTrie" : "0x759fc640277a9388dfadd7066ca211c5b4a77b470ad5e748eb67ce101a423d73",
                    "uncleHash" : "0x1dcc4de8dec75d7aab85b567b6ccd41ad312451b948a7413f0a142fd40d49347"
                },
                "transactions" : [
                    {
                        "data" : "0x",
                        "gasLimit" : "0x01d4c0",
                        "gasPrice" : "0x01",
                        "nonce" : "0x00",
                        "to" : "0xb94f5374fce5edbc8e2a8697c15331677e6ebf0b",
                        "value" : "0x00",
                        "v" : "0x1b",
                        "r" : "0xcfdb879fa3801459090519ce76859887b4d4777beb3a1a31372476e05302b8fa",
                        "s" : "0x1f507280f39e54d5d355f22e171464d4a5c58cd3783fe89e3ee745994051a632"
                    }
                ]
            }
        ]
    }
}