{
    "randomStatetestDEFAULT-Tue_07_58_41-15153-575192_d0g0v0_Istanbul" : {
        "_info" : {
            "comment" : "This is a canon example of a test found by fuzzing with EVMlab, demoing how a suicide-created-but-empty account has a non-zero codehash in geth",
            "filling-rpc-server" : "Geth-1.9.6-unstable-63b18027-20190920",
            "filling-tool-version" : "retesteth-0.0.1+commit.0ae18aef.Linux.g++",
            "lllcversion" : "Version: 0.5.12-develop.2019.9.13+commit.2d601a4f.Linux.g++",
            "source" : "src/GeneralStateTestsFiller/stBugs/randomStatetestDEFAULT-Tue_07_58_41-15153-575192Filler.json",
            "sourceHash" : "c46f1dffc9daab5a9184717fdfcd5e867082aeb9d55aa6c093cc47d59d302f3e"
        },
        "genesisBlockHeader" : {
            "bloom" : "0x00000000000000000000000000000000000000000000000000000000000000000000000000000000000000000000000000000000000000000000000000000000000000000000000000000000000000000000000000000000000000000000000000000000000000000000000000000000000000000000000000000000000000000000000000000000000000000000000000000000000000000000000000000000000000000000000000000000000000000000000000000000000000000000000000000000000000000000000000000000000000000000000000000000000000000000000000000000000000000000000000000000000000000000000000000000",
            "coinbase" : "0x1000000000000000000000000000000000000000",
            "difficulty" : "0x20000",
            "extraData" : "0x00",
            "gasLimit" : "0x1312d00",
            "gasUsed" : "0x0",
            "hash" : "0x6c4d0e14d7f2d8bddc7d25dbcaf1a9c0e513963baaebdb318eed17465efccdd5",
            "mixHash" : "0x0000000000000000000000000000000000000000000000000000000000000000",
            "nonce" : "0x0000000000000000",
            "number" : "0x0",
            "parentHash" : "0x0000000000000000000000000000000000000000000000000000000000000000",
            "receiptTrie" : "0x56e81f171bcc55a6ff8345e692c0f86e5b48e01b996cadc001622fb5e363b421",
            "stateRoot" : "0x96372c6c19a7cc6a207efe7dbdc9a7d3a72c2dcb452f24b6f78b1dbfe73ee1f6",
            "timestamp" : "0x0",
            "transactionsTrie" : "0x56e81f171bcc55a6ff8345e692c0f86e5b48e01b996cadc001622fb5e363b421",
            "uncleHash" : "0x1dcc4de8dec75d7aab85b567b6ccd41ad312451b948a7413f0a142fd40d49347"
        },
        "pre" : {
            "0x000000000000000000000000000000000000dead" : {
                "balance" : "0x00",
                "code" : "0x62abcdefff",
                "nonce" : "0x1c",
                "storage" : {
                }
            },
            "0x1000000000000000000000000000000000000000" : {
                "balance" : "0x00",
                "code" : "0x61dead6000600060006000600061dead5af162abcdef3f600155",
                "nonce" : "0x1c",
                "storage" : {
                }
            },
            "0xa94f5374fce5edbc8e2a8697c15331677e6ebf0b" : {
                "balance" : "0x5d8fdd3ff54298b4",
                "code" : "0x",
                "nonce" : "0x1c",
                "storage" : {
                }
            }
        },
        "postState" : {
            "0xa94f5374fce5edbc8e2a8697c15331677e6ebf0b" : {
                "code" : "0x",
                "nonce" : "0x1d",
                "balance" : "0x5d8fdd3ff5426190",
                "storage" : {
                }
            },
            "0x1000000000000000000000000000000000000000" : {
                "code" : "0x61dead6000600060006000600061dead5af162abcdef3f600155",
                "nonce" : "0x1c",
                "balance" : "0x1bc16d674ec83724",
                "storage" : {
                }
            }
        },
        "network" : "Istanbul",
        "sealEngine" : "NoProof",
        "lastblockhash" : "0x5d3788a6cab2a3420d73a1135467ab418131f63f80b57b2756388d5c9a2ad84f",
        "genesisRLP" : "0xf901f9f901f4a00000000000000000000000000000000000000000000000000000000000000000a01dcc4de8dec75d7aab85b567b6ccd41ad312451b948a7413f0a142fd40d49347941000000000000000000000000000000000000000a096372c6c19a7cc6a207efe7dbdc9a7d3a72c2dcb452f24b6f78b1dbfe73ee1f6a056e81f171bcc55a6ff8345e692c0f86e5b48e01b996cadc001622fb5e363b421a056e81f171bcc55a6ff8345e692c0f86e5b48e01b996cadc001622fb5e363b421b901000000000000000000000000000000000000000000000000000000000000000000000000000000000000000000000000000000000000000000000000000000000000000000000000000000000000000000000000000000000000000000000000000000000000000000000000000000000000000000000000000000000000000000000000000000000000000000000000000000000000000000000000000000000000000000000000000000000000000000000000000000000000000000000000000000000000000000000000000000000000000000000000000000000000000000000000000000000000000000000000000000000000000000000000000000000083020000808401312d00808000a00000000000000000000000000000000000000000000000000000000000000000880000000000000000c0c0",
        "blocks" : [
            {
                "rlp" : "0xf90260f901f8a06c4d0e14d7f2d8bddc7d25dbcaf1a9c0e513963baaebdb318eed17465efccdd5a01dcc4de8dec75d7aab85b567b6ccd41ad312451b948a7413f0a142fd40d49347941000000000000000000000000000000000000000a093cfe742c00a6b9195f6ab2f801dc87c29013eb21c7521f38446549d0ccb3864a0fd816f84a53cf2b83709ffc904562c43fa9bae550ca37afd84a05e266496e057a0771d411570ef6efabc3aa0685d076ce8ebaf332953937c89381c4f7835c8a47eb90100000000000000000000000000000000000000000000000000000000000000000000000000000000000000000000000000000000000000000000000000000000000000000000000000000000000000000000000000000000000000000000000000000000000000000000000000000000000000000000000000000000000000000000000000000000000000000000000000000000000000000000000000000000000000000000000000000000000000000000000000000000000000000000000000000000000000000000000000000000000000000000000000000000000000000000000000000000000000000000000000000000000000000000000000000000008302000001840131794a8237248203e800a00000000000000000000000000000000000000000000000000000000000000000880000000000000000f862f8601c01835fde0794100000000000000000000000000000000000000080801ca06297856afd23b21a97bbf1303fc513a4d42ede403df0892cf23e9de10e6eaecea03d3915c240cdc4f6f28eb19e2cf0c6e6190b8be8233fdff16d384f44b72c4340c0",
                "blockHeader" : {
                    "bloom" : "0x00000000000000000000000000000000000000000000000000000000000000000000000000000000000000000000000000000000000000000000000000000000000000000000000000000000000000000000000000000000000000000000000000000000000000000000000000000000000000000000000000000000000000000000000000000000000000000000000000000000000000000000000000000000000000000000000000000000000000000000000000000000000000000000000000000000000000000000000000000000000000000000000000000000000000000000000000000000000000000000000000000000000000000000000000000000",
                    "coinbase" : "0x1000000000000000000000000000000000000000",
                    "difficulty" : "0x20000",
                    "extraData" : "0x00",
                    "gasLimit" : "0x131794a",
                    "gasUsed" : "0x3724",
                    "hash" : "0x5d3788a6cab2a3420d73a1135467ab418131f63f80b57b2756388d5c9a2ad84f",
                    "mixHash" : "0x0000000000000000000000000000000000000000000000000000000000000000",
                    "nonce" : "0x0000000000000000",
                    "number" : "0x1",
                    "parentHash" : "0x6c4d0e14d7f2d8bddc7d25dbcaf1a9c0e513963baaebdb318eed17465efccdd5",
                    "receiptTrie" : "0x771d411570ef6efabc3aa0685d076ce8ebaf332953937c89381c4f7835c8a47e",
                    "stateRoot" : "0x93cfe742c00a6b9195f6ab2f801dc87c29013eb21c7521f38446549d0ccb3864",
                    "timestamp" : "0x3e8",
                    "transactionsTrie" : "0xfd816f84a53cf2b83709ffc904562c43fa9bae550ca37afd84a05e266496e057",
                    "uncleHash" : "0x1dcc4de8dec75d7aab85b567b6ccd41ad312451b948a7413f0a142fd40d49347"
                },
                "transactions" : [
                    {
                        "data" : "0x",
                        "gasLimit" : "0x5fde07",
                        "gasPrice" : "0x01",
                        "nonce" : "0x1c",
                        "to" : "0x1000000000000000000000000000000000000000",
                        "value" : "0x00",
                        "v" : "0x1c",
                        "r" : "0x6297856afd23b21a97bbf1303fc513a4d42ede403df0892cf23e9de10e6eaece",
                        "s" : "0x3d3915c240cdc4f6f28eb19e2cf0c6e6190b8be8233fdff16d384f44b72c4340"
                    }
                ]
            }
        ]
    }
}