{
    "staticcall_createfails_d0g0v0_Istanbul" : {
        "_info" : {
            "comment" : "",
            "filling-rpc-server" : "Geth-1.9.6-unstable-63b18027-20190920",
            "filling-tool-version" : "retesteth-0.0.1+commit.0ae18aef.Linux.g++",
            "lllcversion" : "Version: 0.5.12-develop.2019.9.13+commit.2d601a4f.Linux.g++",
            "source" : "src/GeneralStateTestsFiller/stBugs/staticcall_createfailsFiller.json",
            "sourceHash" : "1422b984f158b0be7779d4a89ca1c6d4923902cd1d9682980219cb184be9cdcd"
        },
        "genesisBlockHeader" : {
            "bloom" : "0x00000000000000000000000000000000000000000000000000000000000000000000000000000000000000000000000000000000000000000000000000000000000000000000000000000000000000000000000000000000000000000000000000000000000000000000000000000000000000000000000000000000000000000000000000000000000000000000000000000000000000000000000000000000000000000000000000000000000000000000000000000000000000000000000000000000000000000000000000000000000000000000000000000000000000000000000000000000000000000000000000000000000000000000000000000000",
            "coinbase" : "0x1000000000000000000000000000000000000000",
            "difficulty" : "0x20000",
            "extraData" : "0x00",
            "gasLimit" : "0x54a60a4202e088",
            "gasUsed" : "0x0",
            "hash" : "0x8301ed0f46a56151bf1debd50f4c921bcbfe3607c16022a7b8529539cbb3469b",
            "mixHash" : "0x0000000000000000000000000000000000000000000000000000000000000000",
            "nonce" : "0x0000000000000000",
            "number" : "0x0",
            "parentHash" : "0x0000000000000000000000000000000000000000000000000000000000000000",
            "receiptTrie" : "0x56e81f171bcc55a6ff8345e692c0f86e5b48e01b996cadc001622fb5e363b421",
            "stateRoot" : "0x72575497d28821d7f10c737770b12b6effe5e4ed2e935317e8c755247ae2fc3a",
            "timestamp" : "0x0",
            "transactionsTrie" : "0x56e81f171bcc55a6ff8345e692c0f86e5b48e01b996cadc001622fb5e363b421",
            "uncleHash" : "0x1dcc4de8dec75d7aab85b567b6ccd41ad312451b948a7413f0a142fd40d49347"
        },
        "pre" : {
            "0xa94f5374fce5edbc8e2a8697c15331677e6ebf0b" : {
                "balance" : "0x38beec8feeca2598",
                "code" : "0x",
                "nonce" : "0x00",
                "storage" : {
                }
            },
            "0xb94f5374fce5edbc8e2a8697c15331677e6ebf0b" : {
                "balance" : "0x00",
                "code" : "0x600060006000600060003562011170fa60015500",
                "nonce" : "0x3f",
                "storage" : {
                    "0x01" : "0x01"
                }
            },
            "0xc94f5374fce5edbc8e2a8697c15331677e6ebf0b" : {
                "balance" : "0x00",
                "code" : "0x6001600152600160016001f060025500",
                "nonce" : "0x3f",
                "storage" : {
                }
            },
            "0xd94f5374fce5edbc8e2a8697c15331677e6ebf0b" : {
                "balance" : "0x00",
                "code" : "0x60006000f0",
                "nonce" : "0x3f",
                "storage" : {
                }
            }
        },
        "postState" : {
            "0xa94f5374fce5edbc8e2a8697c15331677e6ebf0b" : {
                "code" : "0x",
                "nonce" : "0x01",
                "balance" : "0x38beec8feec8e4ec",
                "storage" : {
                }
            },
            "0xd94f5374fce5edbc8e2a8697c15331677e6ebf0b" : {
                "code" : "0x60006000f0",
                "nonce" : "0x3f",
                "balance" : "0x00",
                "storage" : {
                }
            },
            "0xc94f5374fce5edbc8e2a8697c15331677e6ebf0b" : {
                "code" : "0x6001600152600160016001f060025500",
                "nonce" : "0x3f",
                "balance" : "0x00",
                "storage" : {
                }
            },
            "0xb94f5374fce5edbc8e2a8697c15331677e6ebf0b" : {
                "code" : "0x600060006000600060003562011170fa60015500",
                "nonce" : "0x3f",
                "balance" : "0x00",
                "storage" : {
                }
            },
            "0x1000000000000000000000000000000000000000" : {
                "code" : "0x",
                "nonce" : "0x00",
                "balance" : "0x1bc16d674ec940ac",
                "storage" : {
                }
            }
        },
        "network" : "Istanbul",
        "sealEngine" : "NoProof",
        "lastblockhash" : "0x580f8caa67f168a40d09f5c0e0650cf1e23b509aeb6205e341e9872d869c3501",
        "genesisRLP" : "0xf901fcf901f7a00000000000000000000000000000000000000000000000000000000000000000a01dcc4de8dec75d7aab85b567b6ccd41ad312451b948a7413f0a142fd40d49347941000000000000000000000000000000000000000a072575497d28821d7f10c737770b12b6effe5e4ed2e935317e8c755247ae2fc3aa056e81f171bcc55a6ff8345e692c0f86e5b48e01b996cadc001622fb5e363b421a056e81f171bcc55a6ff8345e692c0f86e5b48e01b996cadc001622fb5e363b421b901000000000000000000000000000000000000000000000000000000000000000000000000000000000000000000000000000000000000000000000000000000000000000000000000000000000000000000000000000000000000000000000000000000000000000000000000000000000000000000000000000000000000000000000000000000000000000000000000000000000000000000000000000000000000000000000000000000000000000000000000000000000000000000000000000000000000000000000000000000000000000000000000000000000000000000000000000000000000000000000000000000000000000000000000000000000083020000808754a60a4202e088808000a00000000000000000000000000000000000000000000000000000000000000000880000000000000000c0c0",
        "blocks" : [
            {
                "rlp" : "0xf90284f901fca08301ed0f46a56151bf1debd50f4c921bcbfe3607c16022a7b8529539cbb3469ba01dcc4de8dec75d7aab85b567b6ccd41ad312451b948a7413f0a142fd40d49347941000000000000000000000000000000000000000a009bfdc71037a24cdc03c580b29fcb0e897fd094002293ee5d21b542f948f1cc3a0398b9f9f39fbddd771810c465dea84adbfad936ca2f326426d5750ed00f30a25a09d84228106e29a2938b2a022b9aa8c98828c3f286f7b2f08fb020df36870ddbbb901000000000000000000000000000000000000000000000000000000000000000000000000000000000000000000000000000000000000000000000000000000000000000000000000000000000000000000000000000000000000000000000000000000000000000000000000000000000000000000000000000000000000000000000000000000000000000000000000000000000000000000000000000000000000000000000000000000000000000000000000000000000000000000000000000000000000000000000000000000000000000000000000000000000000000000000000000000000000000000000000000000000000000000000000000000000083020000018754bb33c493613f830140ac8203e800a00000000000000000000000000000000000000000000000000000000000000000880000000000000000f882f88080018301d4c094b94f5374fce5edbc8e2a8697c15331677e6ebf0b80a0000000000000000000000000c94f5374fce5edbc8e2a8697c15331677e6ebf0b1ba065fccc815fd0227806a624415a5f421ffcb729a1511cbd27061b6e383b64d6a5a022bced9eac3d1a29245481c9865da44e1d576e0b86b9be19490920ddbcae36afc0",
                "blockHeader" : {
                    "bloom" : "0x00000000000000000000000000000000000000000000000000000000000000000000000000000000000000000000000000000000000000000000000000000000000000000000000000000000000000000000000000000000000000000000000000000000000000000000000000000000000000000000000000000000000000000000000000000000000000000000000000000000000000000000000000000000000000000000000000000000000000000000000000000000000000000000000000000000000000000000000000000000000000000000000000000000000000000000000000000000000000000000000000000000000000000000000000000000",
                    "coinbase" : "0x1000000000000000000000000000000000000000",
                    "difficulty" : "0x20000",
                    "extraData" : "0x00",
                    "gasLimit" : "0x54bb33c493613f",
                    "gasUsed" : "0x140ac",
                    "hash" : "0x580f8caa67f168a40d09f5c0e0650cf1e23b509aeb6205e341e9872d869c3501",
                    "mixHash" : "0x0000000000000000000000000000000000000000000000000000000000000000",
                    "nonce" : "0x0000000000000000",
                    "number" : "0x1",
                    "parentHash" : "0x8301ed0f46a56151bf1debd50f4c921bcbfe3607c16022a7b8529539cbb3469b",
                    "receiptTrie" : "0x9d84228106e29a2938b2a022b9aa8c98828c3f286f7b2f08fb020df36870ddbb",
                    "stateRoot" : "0x09bfdc71037a24cdc03c580b29fcb0e897fd094002293ee5d21b542f948f1cc3",
                    "timestamp" : "0x3e8",
                    "transactionsTrie" : "0x398b9f9f39fbddd771810c465dea84adbfad936ca2f326426d5750ed00f30a25",
                    "uncleHash" : "0x1dcc4de8dec75d7aab85b567b6ccd41ad312451b948a7413f0a142fd40d49347"
                },
                "transactions" : [
                    {
                        "data" : "0x000000000000000000000000c94f5374fce5edbc8e2a8697c15331677e6ebf0b",
                        "gasLimit" : "0x01d4c0",
                        "gasPrice" : "0x01",
                        "nonce" : "0x00",
                        "to" : "0xb94f5374fce5edbc8e2a8697c15331677e6ebf0b",
                        "value" : "0x00",
                        "v" : "0x1b",
                        "r" : "0x65fccc815fd0227806a624415a5f421ffcb729a1511cbd27061b6e383b64d6a5",
                        "s" : "0x22bced9eac3d1a29245481c9865da44e1d576e0b86b9be19490920ddbcae36af"
                    }
                ]
            }
        ]
    },
    "staticcall_createfails_d1g0v0_Istanbul" : {
        "_info" : {
            "comment" : "",
            "filling-rpc-server" : "Geth-1.9.6-unstable-63b18027-20190920",
            "filling-tool-version" : "retesteth-0.0.1+commit.0ae18aef.Linux.g++",
            "lllcversion" : "Version: 0.5.12-develop.2019.9.13+commit.2d601a4f.Linux.g++",
            "source" : "src/GeneralStateTestsFiller/stBugs/staticcall_createfailsFiller.json",
            "sourceHash" : "1422b984f158b0be7779d4a89ca1c6d4923902cd1d9682980219cb184be9cdcd"
        },
        "genesisBlockHeader" : {
            "bloom" : "0x00000000000000000000000000000000000000000000000000000000000000000000000000000000000000000000000000000000000000000000000000000000000000000000000000000000000000000000000000000000000000000000000000000000000000000000000000000000000000000000000000000000000000000000000000000000000000000000000000000000000000000000000000000000000000000000000000000000000000000000000000000000000000000000000000000000000000000000000000000000000000000000000000000000000000000000000000000000000000000000000000000000000000000000000000000000",
            "coinbase" : "0x1000000000000000000000000000000000000000",
            "difficulty" : "0x20000",
            "extraData" : "0x00",
            "gasLimit" : "0x54a60a4202e088",
            "gasUsed" : "0x0",
            "hash" : "0x8301ed0f46a56151bf1debd50f4c921bcbfe3607c16022a7b8529539cbb3469b",
            "mixHash" : "0x0000000000000000000000000000000000000000000000000000000000000000",
            "nonce" : "0x0000000000000000",
            "number" : "0x0",
            "parentHash" : "0x0000000000000000000000000000000000000000000000000000000000000000",
            "receiptTrie" : "0x56e81f171bcc55a6ff8345e692c0f86e5b48e01b996cadc001622fb5e363b421",
            "stateRoot" : "0x72575497d28821d7f10c737770b12b6effe5e4ed2e935317e8c755247ae2fc3a",
            "timestamp" : "0x0",
            "transactionsTrie" : "0x56e81f171bcc55a6ff8345e692c0f86e5b48e01b996cadc001622fb5e363b421",
            "uncleHash" : "0x1dcc4de8dec75d7aab85b567b6ccd41ad312451b948a7413f0a142fd40d49347"
        },
        "pre" : {
            "0xa94f5374fce5edbc8e2a8697c15331677e6ebf0b" : {
                "balance" : "0x38beec8feeca2598",
                "code" : "0x",
                "nonce" : "0x00",
                "storage" : {
                }
            },
            "0xb94f5374fce5edbc8e2a8697c15331677e6ebf0b" : {
                "balance" : "0x00",
                "code" : "0x600060006000600060003562011170fa60015500",
                "nonce" : "0x3f",
                "storage" : {
                    "0x01" : "0x01"
                }
            },
            "0xc94f5374fce5edbc8e2a8697c15331677e6ebf0b" : {
                "balance" : "0x00",
                "code" : "0x6001600152600160016001f060025500",
                "nonce" : "0x3f",
                "storage" : {
                }
            },
            "0xd94f5374fce5edbc8e2a8697c15331677e6ebf0b" : {
                "balance" : "0x00",
                "code" : "0x60006000f0",
                "nonce" : "0x3f",
                "storage" : {
                }
            }
        },
        "postState" : {
            "0xa94f5374fce5edbc8e2a8697c15331677e6ebf0b" : {
                "code" : "0x",
                "nonce" : "0x01",
                "balance" : "0x38beec8feec8e4ec",
                "storage" : {
                }
            },
            "0xd94f5374fce5edbc8e2a8697c15331677e6ebf0b" : {
                "code" : "0x60006000f0",
                "nonce" : "0x3f",
                "balance" : "0x00",
                "storage" : {
                }
            },
            "0xc94f5374fce5edbc8e2a8697c15331677e6ebf0b" : {
                "code" : "0x6001600152600160016001f060025500",
                "nonce" : "0x3f",
                "balance" : "0x00",
                "storage" : {
                }
            },
            "0xb94f5374fce5edbc8e2a8697c15331677e6ebf0b" : {
                "code" : "0x600060006000600060003562011170fa60015500",
                "nonce" : "0x3f",
                "balance" : "0x00",
                "storage" : {
                }
            },
            "0x1000000000000000000000000000000000000000" : {
                "code" : "0x",
                "nonce" : "0x00",
                "balance" : "0x1bc16d674ec940ac",
                "storage" : {
                }
            }
        },
        "network" : "Istanbul",
        "sealEngine" : "NoProof",
        "lastblockhash" : "0x1d76a334539a95451eec62f768eed2cadc7b22364cbaaaad0144f188383935f0",
        "genesisRLP" : "0xf901fcf901f7a00000000000000000000000000000000000000000000000000000000000000000a01dcc4de8dec75d7aab85b567b6ccd41ad312451b948a7413f0a142fd40d49347941000000000000000000000000000000000000000a072575497d28821d7f10c737770b12b6effe5e4ed2e935317e8c755247ae2fc3aa056e81f171bcc55a6ff8345e692c0f86e5b48e01b996cadc001622fb5e363b421a056e81f171bcc55a6ff8345e692c0f86e5b48e01b996cadc001622fb5e363b421b901000000000000000000000000000000000000000000000000000000000000000000000000000000000000000000000000000000000000000000000000000000000000000000000000000000000000000000000000000000000000000000000000000000000000000000000000000000000000000000000000000000000000000000000000000000000000000000000000000000000000000000000000000000000000000000000000000000000000000000000000000000000000000000000000000000000000000000000000000000000000000000000000000000000000000000000000000000000000000000000000000000000000000000000000000000000083020000808754a60a4202e088808000a00000000000000000000000000000000000000000000000000000000000000000880000000000000000c0c0",
        "blocks" : [
            {
                "rlp" : "0xf90284f901fca08301ed0f46a56151bf1debd50f4c921bcbfe3607c16022a7b8529539cbb3469ba01dcc4de8dec75d7aab85b567b6ccd41ad312451b948a7413f0a142fd40d49347941000000000000000000000000000000000000000a009bfdc71037a24cdc03c580b29fcb0e897fd094002293ee5d21b542f948f1cc3a052481e92a3ec82c7adcdccbd418c642310ecb83b7626c9c8b0e22b1c29175c95a09d84228106e29a2938b2a022b9aa8c98828c3f286f7b2f08fb020df36870ddbbb901000000000000000000000000000000000000000000000000000000000000000000000000000000000000000000000000000000000000000000000000000000000000000000000000000000000000000000000000000000000000000000000000000000000000000000000000000000000000000000000000000000000000000000000000000000000000000000000000000000000000000000000000000000000000000000000000000000000000000000000000000000000000000000000000000000000000000000000000000000000000000000000000000000000000000000000000000000000000000000000000000000000000000000000000000000000083020000018754bb33c493613f830140ac8203e800a00000000000000000000000000000000000000000000000000000000000000000880000000000000000f882f88080018301d4c094b94f5374fce5edbc8e2a8697c15331677e6ebf0b80a0000000000000000000000000d94f5374fce5edbc8e2a8697c15331677e6ebf0b1ca020c82979e9059f3175daf83b84e05e748a24d36d93f37e1f8de56a494205dc0aa0452d4161d59e6c37f721458f71a1bb5ea99f7674b3bfc0fb09506a253e222459c0",
                "blockHeader" : {
                    "bloom" : "0x00000000000000000000000000000000000000000000000000000000000000000000000000000000000000000000000000000000000000000000000000000000000000000000000000000000000000000000000000000000000000000000000000000000000000000000000000000000000000000000000000000000000000000000000000000000000000000000000000000000000000000000000000000000000000000000000000000000000000000000000000000000000000000000000000000000000000000000000000000000000000000000000000000000000000000000000000000000000000000000000000000000000000000000000000000000",
                    "coinbase" : "0x1000000000000000000000000000000000000000",
                    "difficulty" : "0x20000",
                    "extraData" : "0x00",
                    "gasLimit" : "0x54bb33c493613f",
                    "gasUsed" : "0x140ac",
                    "hash" : "0x1d76a334539a95451eec62f768eed2cadc7b22364cbaaaad0144f188383935f0",
                    "mixHash" : "0x0000000000000000000000000000000000000000000000000000000000000000",
                    "nonce" : "0x0000000000000000",
                    "number" : "0x1",
                    "parentHash" : "0x8301ed0f46a56151bf1debd50f4c921bcbfe3607c16022a7b8529539cbb3469b",
                    "receiptTrie" : "0x9d84228106e29a2938b2a022b9aa8c98828c3f286f7b2f08fb020df36870ddbb",
                    "stateRoot" : "0x09bfdc71037a24cdc03c580b29fcb0e897fd094002293ee5d21b542f948f1cc3",
                    "timestamp" : "0x3e8",
                    "transactionsTrie" : "0x52481e92a3ec82c7adcdccbd418c642310ecb83b7626c9c8b0e22b1c29175c95",
                    "uncleHash" : "0x1dcc4de8dec75d7aab85b567b6ccd41ad312451b948a7413f0a142fd40d49347"
                },
                "transactions" : [
                    {
                        "data" : "0x000000000000000000000000d94f5374fce5edbc8e2a8697c15331677e6ebf0b",
                        "gasLimit" : "0x01d4c0",
                        "gasPrice" : "0x01",
                        "nonce" : "0x00",
                        "to" : "0xb94f5374fce5edbc8e2a8697c15331677e6ebf0b",
                        "value" : "0x00",
                        "v" : "0x1c",
                        "r" : "0x20c82979e9059f3175daf83b84e05e748a24d36d93f37e1f8de56a494205dc0a",
                        "s" : "0x452d4161d59e6c37f721458f71a1bb5ea99f7674b3bfc0fb09506a253e222459"
                    }
                ]
            }
        ]
    }
}