{
    "ByzantiumTransition" : {
        "_info" : {
            "comment" : "",
            "filledwith" : "testeth 1.5.0.dev2-65+commit.3be27deb",
            "lllcversion" : "Version: 0.4.26-develop.2018.9.19+commit.785cbf40.Linux.g++",
            "source" : "src/BlockchainTestsFiller/TransitionTests/bcEIP158ToByzantium/ByzantiumTransitionFiller.json",
            "sourceHash" : "df35301630c7d645584ff386875d2d7fb8b138a39f01ef7f7534974217ee152f"
        },
        "blocks" : [
            {
                "blockHeader" : {
                    "bloom" : "0x00000000000000000000000000000000000000000000000000000000000000000000000000000000000000000000000000000000000000000000000000000000000000000000000000000000000000000000000000000000000000000000000000000000000000000000000000000000000000000000000000000000000000000000000000000000000000000000000000000000000000000000000000000000000000000000000000000000000000000000000000000000000000000000000000000000000000000000000000000000000000000000000000000000000000000000000000000000000000000000000000000000000000000000000000000000",
                    "coinbase" : "0x8888f1f195afa192cfee860698584c030f4c9db1",
                    "difficulty" : "0x020040",
                    "extraData" : "",
                    "gasLimit" : "0x2fefba",
                    "gasUsed" : "0x00",
                    "hash" : "0xde64d6df25eb9ecf069976a13c54ad7d7c1e57d88cd9f5cdedffe59dcbeafda8",
                    "mixHash" : "0x038526a7e25a08e4ff7702c942429326496f333ab91acdcef414529c7f32d375",
                    "nonce" : "0xfb63805e251f55e1",
                    "number" : "0x01",
                    "parentHash" : "0xa4f92daafef87987049acdae22484e427539216cf49f0381cf31cbc37348831d",
                    "receiptTrie" : "0x56e81f171bcc55a6ff8345e692c0f86e5b48e01b996cadc001622fb5e363b421",
                    "stateRoot" : "0xe0798a181cbf9a18cb1cbaa3869b7901c1a6e2e1fb6bae18cf7669adc7c61c5c",
                    "timestamp" : "0x54c98c82",
                    "transactionsTrie" : "0x56e81f171bcc55a6ff8345e692c0f86e5b48e01b996cadc001622fb5e363b421",
                    "uncleHash" : "0x1dcc4de8dec75d7aab85b567b6ccd41ad312451b948a7413f0a142fd40d49347"
                },
                "blocknumber" : "1",
                "rlp" : "0xf901fcf901f7a0a4f92daafef87987049acdae22484e427539216cf49f0381cf31cbc37348831da01dcc4de8dec75d7aab85b567b6ccd41ad312451b948a7413f0a142fd40d49347948888f1f195afa192cfee860698584c030f4c9db1a0e0798a181cbf9a18cb1cbaa3869b7901c1a6e2e1fb6bae18cf7669adc7c61c5ca056e81f171bcc55a6ff8345e692c0f86e5b48e01b996cadc001622fb5e363b421a056e81f171bcc55a6ff8345e692c0f86e5b48e01b996cadc001622fb5e363b421b90100000000000000000000000000000000000000000000000000000000000000000000000000000000000000000000000000000000000000000000000000000000000000000000000000000000000000000000000000000000000000000000000000000000000000000000000000000000000000000000000000000000000000000000000000000000000000000000000000000000000000000000000000000000000000000000000000000000000000000000000000000000000000000000000000000000000000000000000000000000000000000000000000000000000000000000000000000000000000000000000000000000000000000000000000000000008302004001832fefba808454c98c8280a0038526a7e25a08e4ff7702c942429326496f333ab91acdcef414529c7f32d37588fb63805e251f55e1c0c0",
                "transactions" : [
                ],
                "uncleHeaders" : [
                ]
            },
            {
                "blockHeader" : {
                    "bloom" : "0x00000000000000000000000000000000000000000000000000000000000000000000000000000000000000000000000000000000000000000000000000000000000000000000000000000000000000000000000000000000000000000000000000000000000000000000000000000000000000000000000000000000000000000000000000000000000000000000000000000000000000000000000000000000000000000000000000000000000000000000000000000000000000000000000000000000000000000000000000000000000000000000000000000000000000000000000000000000000000000000000000000000000000000000000000000000",
                    "coinbase" : "0x8888f1f195afa192cfee860698584c030f4c9db1",
                    "difficulty" : "0x020080",
                    "extraData" : "",
                    "gasLimit" : "0x2fefba",
                    "gasUsed" : "0x00",
                    "hash" : "0xfc2243376704a28cc6693a495320c043f30f003dbc3de14f7f72361992960497",
                    "mixHash" : "0x7f6031887de999a68973459d8b954882ddf0eecfe79fefca40fa62ae9ea8732d",
                    "nonce" : "0x26fc3dae502eba1b",
                    "number" : "0x02",
                    "parentHash" : "0xde64d6df25eb9ecf069976a13c54ad7d7c1e57d88cd9f5cdedffe59dcbeafda8",
                    "receiptTrie" : "0x56e81f171bcc55a6ff8345e692c0f86e5b48e01b996cadc001622fb5e363b421",
                    "stateRoot" : "0xd3cf86237fd0343ad7e17a222aa9cb7772fb4ae5294ad5d3553c8923030548b2",
                    "timestamp" : "0x54c98c83",
                    "transactionsTrie" : "0x56e81f171bcc55a6ff8345e692c0f86e5b48e01b996cadc001622fb5e363b421",
                    "uncleHash" : "0x1dcc4de8dec75d7aab85b567b6ccd41ad312451b948a7413f0a142fd40d49347"
                },
                "blocknumber" : "2",
                "rlp" : "0xf901fcf901f7a0de64d6df25eb9ecf069976a13c54ad7d7c1e57d88cd9f5cdedffe59dcbeafda8a01dcc4de8dec75d7aab85b567b6ccd41ad312451b948a7413f0a142fd40d49347948888f1f195afa192cfee860698584c030f4c9db1a0d3cf86237fd0343ad7e17a222aa9cb7772fb4ae5294ad5d3553c8923030548b2a056e81f171bcc55a6ff8345e692c0f86e5b48e01b996cadc001622fb5e363b421a056e81f171bcc55a6ff8345e692c0f86e5b48e01b996cadc001622fb5e363b421b90100000000000000000000000000000000000000000000000000000000000000000000000000000000000000000000000000000000000000000000000000000000000000000000000000000000000000000000000000000000000000000000000000000000000000000000000000000000000000000000000000000000000000000000000000000000000000000000000000000000000000000000000000000000000000000000000000000000000000000000000000000000000000000000000000000000000000000000000000000000000000000000000000000000000000000000000000000000000000000000000000000000000000000000000000000000008302008002832fefba808454c98c8380a07f6031887de999a68973459d8b954882ddf0eecfe79fefca40fa62ae9ea8732d8826fc3dae502eba1bc0c0",
                "transactions" : [
                ],
                "uncleHeaders" : [
                ]
            },
            {
                "blockHeader" : {
                    "bloom" : "0x00000000000000000000000000000000000000000000000000000000000000000000000000000000000000000000000000000000000000000000000000000000000000000000000000000000000000000000000000000000000000000000000000000000000000000000000000000000000000000000000000000000000000000000000000000000000000000000000000000000000000000000000000000000000000000000000000000000000000000000000000000000000000000000000000000000000000000000000000000000000000000000000000000000000000000000000000000000000000000000000000000000000000000000000000000000",
                    "coinbase" : "0x8888f1f195afa192cfee860698584c030f4c9db1",
                    "difficulty" : "0x0200c0",
                    "extraData" : "",
                    "gasLimit" : "0x2fefba",
                    "gasUsed" : "0x00",
                    "hash" : "0x225c1ea8cf88125490131f5ebf45a499f00482723be9ccc5a9a256f1be268350",
                    "mixHash" : "0x4c7d5ceadfb82e42c0b87d9d3a0c17ace67ceba55965b1072a9d2debedbbefb5",
                    "nonce" : "0x5564711959ca75fc",
                    "number" : "0x03",
                    "parentHash" : "0xfc2243376704a28cc6693a495320c043f30f003dbc3de14f7f72361992960497",
                    "receiptTrie" : "0x56e81f171bcc55a6ff8345e692c0f86e5b48e01b996cadc001622fb5e363b421",
                    "stateRoot" : "0x9a8a659ab6febe08e64e755f55035176e2deb14ddfe4e64c0fb5e53e888af109",
                    "timestamp" : "0x54c98c84",
                    "transactionsTrie" : "0x56e81f171bcc55a6ff8345e692c0f86e5b48e01b996cadc001622fb5e363b421",
                    "uncleHash" : "0x1dcc4de8dec75d7aab85b567b6ccd41ad312451b948a7413f0a142fd40d49347"
                },
                "blocknumber" : "3",
                "rlp" : "0xf901fcf901f7a0fc2243376704a28cc6693a495320c043f30f003dbc3de14f7f72361992960497a01dcc4de8dec75d7aab85b567b6ccd41ad312451b948a7413f0a142fd40d49347948888f1f195afa192cfee860698584c030f4c9db1a09a8a659ab6febe08e64e755f55035176e2deb14ddfe4e64c0fb5e53e888af109a056e81f171bcc55a6ff8345e692c0f86e5b48e01b996cadc001622fb5e363b421a056e81f171bcc55a6ff8345e692c0f86e5b48e01b996cadc001622fb5e363b421b9010000000000000000000000000000000000000000000000000000000000000000000000000000000000000000000000000000000000000000000000000000000000000000000000000000000000000000000000000000000000000000000000000000000000000000000000000000000000000000000000000000000000000000000000000000000000000000000000000000000000000000000000000000000000000000000000000000000000000000000000000000000000000000000000000000000000000000000000000000000000000000000000000000000000000000000000000000000000000000000000000000000000000000000000000000000000830200c003832fefba808454c98c8480a04c7d5ceadfb82e42c0b87d9d3a0c17ace67ceba55965b1072a9d2debedbbefb5885564711959ca75fcc0c0",
                "transactions" : [
                ],
                "uncleHeaders" : [
                ]
            },
            {
                "blockHeader" : {
                    "bloom" : "0x00000000000000000000000000000000000000000000000000000000000000000000000000000000000000000000000000000000000000000000000000000000000000000000000000000000000000000000000000000000000000000000000000000000000000000000000000000000000000000000000000000000000000000000000000000000000000000000000000000000000000000000000000000000000000000000000000000000000000000000000000000000000000000000000000000000000000000000000000000000000000000000000000000000000000000000000000000000000000000000000000000000000000000000000000000000",
                    "coinbase" : "0x8888f1f195afa192cfee860698584c030f4c9db1",
                    "difficulty" : "0x020100",
                    "extraData" : "",
                    "gasLimit" : "0x2fefba",
                    "gasUsed" : "0x00",
                    "hash" : "0x819a7966561a75e09126adbd7e124cc34d184cc088a84db9c556b54ee3ea151f",
                    "mixHash" : "0x2d375337f2ce1c61d670671eebb1ab8c818bada2b19be9bc15152a5015084d30",
                    "nonce" : "0xc71697e0fbf24374",
                    "number" : "0x04",
                    "parentHash" : "0x225c1ea8cf88125490131f5ebf45a499f00482723be9ccc5a9a256f1be268350",
                    "receiptTrie" : "0x56e81f171bcc55a6ff8345e692c0f86e5b48e01b996cadc001622fb5e363b421",
                    "stateRoot" : "0xccd1bb1ab562c9992a4ed0e005008d158e3234c2006ee3d931eafcb3d168f83f",
                    "timestamp" : "0x54c98c85",
                    "transactionsTrie" : "0x56e81f171bcc55a6ff8345e692c0f86e5b48e01b996cadc001622fb5e363b421",
                    "uncleHash" : "0x1dcc4de8dec75d7aab85b567b6ccd41ad312451b948a7413f0a142fd40d49347"
                },
                "blocknumber" : "4",
                "rlp" : "0xf901fcf901f7a0225c1ea8cf88125490131f5ebf45a499f00482723be9ccc5a9a256f1be268350a01dcc4de8dec75d7aab85b567b6ccd41ad312451b948a7413f0a142fd40d49347948888f1f195afa192cfee860698584c030f4c9db1a0ccd1bb1ab562c9992a4ed0e005008d158e3234c2006ee3d931eafcb3d168f83fa056e81f171bcc55a6ff8345e692c0f86e5b48e01b996cadc001622fb5e363b421a056e81f171bcc55a6ff8345e692c0f86e5b48e01b996cadc001622fb5e363b421b90100000000000000000000000000000000000000000000000000000000000000000000000000000000000000000000000000000000000000000000000000000000000000000000000000000000000000000000000000000000000000000000000000000000000000000000000000000000000000000000000000000000000000000000000000000000000000000000000000000000000000000000000000000000000000000000000000000000000000000000000000000000000000000000000000000000000000000000000000000000000000000000000000000000000000000000000000000000000000000000000000000000000000000000000000000000008302010004832fefba808454c98c8580a02d375337f2ce1c61d670671eebb1ab8c818bada2b19be9bc15152a5015084d3088c71697e0fbf24374c0c0",
                "transactions" : [
                ],
                "uncleHeaders" : [
                ]
            },
            {
                "blockHeader" : {
                    "bloom" : "0x00000000000000000000000000000000000000000000000000000000000000000000000000000000000000000000000000000000000000000000000000000000000000000000000000000000000000000000000000000000000000000000000000000000000000000000000000000000000000000000000000000000000000000000000000000000000000000000000000000000000000000000000000000000000000000000000000000000000000000000000000000000000000000000000000000000000000000000000000000000000000000000000000000000000000000000000000000000000000000000000000000000000000000000000000000000",
                    "coinbase" : "0x8888f1f195afa192cfee860698584c030f4c9db1",
                    "difficulty" : "0x020140",
                    "extraData" : "",
                    "gasLimit" : "0x2fefba",
                    "gasUsed" : "0x00",
                    "hash" : "0xc82db08ff8c895b73099e8f5cac81cba5a72f185f679ccba710e03f677043218",
                    "mixHash" : "0x04d6debaa99814216f9f5eac20804ec667c6fc4275ba6b6fd95f1656bdc34778",
                    "nonce" : "0xb68fea1dd1e95e64",
                    "number" : "0x05",
                    "parentHash" : "0x819a7966561a75e09126adbd7e124cc34d184cc088a84db9c556b54ee3ea151f",
                    "receiptTrie" : "0x56e81f171bcc55a6ff8345e692c0f86e5b48e01b996cadc001622fb5e363b421",
                    "stateRoot" : "0xfa8bb175564fa6e8b8990d582fd009c465a5be4688d6f3dd7d540a76fff9169f",
                    "timestamp" : "0x54c98c86",
                    "transactionsTrie" : "0x56e81f171bcc55a6ff8345e692c0f86e5b48e01b996cadc001622fb5e363b421",
                    "uncleHash" : "0x1dcc4de8dec75d7aab85b567b6ccd41ad312451b948a7413f0a142fd40d49347"
                },
                "blocknumber" : "5",
                "rlp" : "0xf901fcf901f7a0819a7966561a75e09126adbd7e124cc34d184cc088a84db9c556b54ee3ea151fa01dcc4de8dec75d7aab85b567b6ccd41ad312451b948a7413f0a142fd40d49347948888f1f195afa192cfee860698584c030f4c9db1a0fa8bb175564fa6e8b8990d582fd009c465a5be4688d6f3dd7d540a76fff9169fa056e81f171bcc55a6ff8345e692c0f86e5b48e01b996cadc001622fb5e363b421a056e81f171bcc55a6ff8345e692c0f86e5b48e01b996cadc001622fb5e363b421b90100000000000000000000000000000000000000000000000000000000000000000000000000000000000000000000000000000000000000000000000000000000000000000000000000000000000000000000000000000000000000000000000000000000000000000000000000000000000000000000000000000000000000000000000000000000000000000000000000000000000000000000000000000000000000000000000000000000000000000000000000000000000000000000000000000000000000000000000000000000000000000000000000000000000000000000000000000000000000000000000000000000000000000000000000000000008302014005832fefba808454c98c8680a004d6debaa99814216f9f5eac20804ec667c6fc4275ba6b6fd95f1656bdc3477888b68fea1dd1e95e64c0c0",
                "transactions" : [
                ],
                "uncleHeaders" : [
                ]
            },
            {
                "blockHeader" : {
                    "bloom" : "0x00000000000000000000000000000000000000000000000000000000000000000000000000000000000000000000000000000000000000000000000000000000000000000000000000000000000000000000000000000000000000000000000000000000000000000000000000000000000000000000000000000000000000000000000000000000000000000000000000000000000000000000000000000000000000000000000000000000000000000000000000000000000000000000000000000000000000000000000000000000000000000000000000000000000000000000000000000000000000000000000000000000000000000000000000000000",
                    "coinbase" : "0x8888f1f195afa192cfee860698584c030f4c9db1",
                    "difficulty" : "0x020180",
                    "extraData" : "",
                    "gasLimit" : "0x2fefba",
                    "gasUsed" : "0x00",
                    "hash" : "0x96bf475d81ce320e5c253d20303b560ab55b3f59ff703111293e221dfbf4c4de",
                    "mixHash" : "0x6dcb264355fbb71c15ddb8e5e9b18e79a5129f4cf96f1b2e85f32ee0f973f7a8",
                    "nonce" : "0x87fbc06d08843f40",
                    "number" : "0x06",
                    "parentHash" : "0xc82db08ff8c895b73099e8f5cac81cba5a72f185f679ccba710e03f677043218",
                    "receiptTrie" : "0x56e81f171bcc55a6ff8345e692c0f86e5b48e01b996cadc001622fb5e363b421",
                    "stateRoot" : "0xc8dab152609b4c2e0349a64f8a48ff17827bf2ef8872467a59702220d8ac8f85",
                    "timestamp" : "0x54c98c87",
                    "transactionsTrie" : "0x56e81f171bcc55a6ff8345e692c0f86e5b48e01b996cadc001622fb5e363b421",
                    "uncleHash" : "0x1dcc4de8dec75d7aab85b567b6ccd41ad312451b948a7413f0a142fd40d49347"
                },
                "blocknumber" : "6",
                "rlp" : "0xf901fcf901f7a0c82db08ff8c895b73099e8f5cac81cba5a72f185f679ccba710e03f677043218a01dcc4de8dec75d7aab85b567b6ccd41ad312451b948a7413f0a142fd40d49347948888f1f195afa192cfee860698584c030f4c9db1a0c8dab152609b4c2e0349a64f8a48ff17827bf2ef8872467a59702220d8ac8f85a056e81f171bcc55a6ff8345e692c0f86e5b48e01b996cadc001622fb5e363b421a056e81f171bcc55a6ff8345e692c0f86e5b48e01b996cadc001622fb5e363b421b90100000000000000000000000000000000000000000000000000000000000000000000000000000000000000000000000000000000000000000000000000000000000000000000000000000000000000000000000000000000000000000000000000000000000000000000000000000000000000000000000000000000000000000000000000000000000000000000000000000000000000000000000000000000000000000000000000000000000000000000000000000000000000000000000000000000000000000000000000000000000000000000000000000000000000000000000000000000000000000000000000000000000000000000000000000000008302018006832fefba808454c98c8780a06dcb264355fbb71c15ddb8e5e9b18e79a5129f4cf96f1b2e85f32ee0f973f7a88887fbc06d08843f40c0c0",
                "transactions" : [
                ],
                "uncleHeaders" : [
                ]
            },
            {
                "blockHeader" : {
                    "bloom" : "0x00000000000000000000000000000000000000000000000000000000000000000000000000000000000000000000000000000000000000000000000000000000000000000000000000000000000000000000000000000000000000000000000000000000000000000000000000000000000000000000000000000000000000000000000000000000000000000000000000000000000000000000000000000000000000000000000000000000000000000000000000000000000000000000000000000000000000000000000000000000000000000000000000000000000000000000000000000000000000000000000000000000000000000000000000000000",
                    "coinbase" : "0x8888f1f195afa192cfee860698584c030f4c9db1",
                    "difficulty" : "0x0201c0",
                    "extraData" : "",
                    "gasLimit" : "0x2fefba",
                    "gasUsed" : "0x00",
                    "hash" : "0x500681f4ffc5963d5b8dbdc7769f3fc5ea23c8915c43aaba699a8911ee5c18e9",
                    "mixHash" : "0x79a8810547b68cb6f3bde00c206f5849a6d58dfa253ee765b77f2a8b2d86df04",
                    "nonce" : "0x51206ed0a46de98e",
                    "number" : "0x07",
                    "parentHash" : "0x96bf475d81ce320e5c253d20303b560ab55b3f59ff703111293e221dfbf4c4de",
                    "receiptTrie" : "0x56e81f171bcc55a6ff8345e692c0f86e5b48e01b996cadc001622fb5e363b421",
                    "stateRoot" : "0x522fc936ca337bc3d9df7a01a3cd6062720a7e09aeba7f8a2d62d048c8d986e1",
                    "timestamp" : "0x54c98c88",
                    "transactionsTrie" : "0x56e81f171bcc55a6ff8345e692c0f86e5b48e01b996cadc001622fb5e363b421",
                    "uncleHash" : "0x1dcc4de8dec75d7aab85b567b6ccd41ad312451b948a7413f0a142fd40d49347"
                },
                "blocknumber" : "7",
                "rlp" : "0xf901fcf901f7a096bf475d81ce320e5c253d20303b560ab55b3f59ff703111293e221dfbf4c4dea01dcc4de8dec75d7aab85b567b6ccd41ad312451b948a7413f0a142fd40d49347948888f1f195afa192cfee860698584c030f4c9db1a0522fc936ca337bc3d9df7a01a3cd6062720a7e09aeba7f8a2d62d048c8d986e1a056e81f171bcc55a6ff8345e692c0f86e5b48e01b996cadc001622fb5e363b421a056e81f171bcc55a6ff8345e692c0f86e5b48e01b996cadc001622fb5e363b421b9010000000000000000000000000000000000000000000000000000000000000000000000000000000000000000000000000000000000000000000000000000000000000000000000000000000000000000000000000000000000000000000000000000000000000000000000000000000000000000000000000000000000000000000000000000000000000000000000000000000000000000000000000000000000000000000000000000000000000000000000000000000000000000000000000000000000000000000000000000000000000000000000000000000000000000000000000000000000000000000000000000000000000000000000000000000000830201c007832fefba808454c98c8880a079a8810547b68cb6f3bde00c206f5849a6d58dfa253ee765b77f2a8b2d86df048851206ed0a46de98ec0c0",
                "transactions" : [
                ],
                "uncleHeaders" : [
                ]
            },
            {
                "blockHeader" : {
                    "bloom" : "0x00000000000000000000000000000000000000000000000000000000000000000000000000000000000000000000000000000000000000000000000000000000000000000000000000000000000000000000000000000000000000000000000000000000000000000000000000000000000000000000000000000000000000000000000000000000000000000000000000000000000000000000000000000000000000000000000000000000000000000000000000000000000000000000000000000000000000000000000000000000000000000000000000000000000000000000000000000000000000000000000000000000000000000000000000000000",
                    "coinbase" : "0x8888f1f195afa192cfee860698584c030f4c9db1",
                    "difficulty" : "0x020200",
                    "extraData" : "",
                    "gasLimit" : "0x2fefba",
                    "gasUsed" : "0x02febe",
                    "hash" : "0x001090918fb1b90bad92a27629dc9c74e497ba4023998c4e31c56a7fd92d1ab0",
                    "mixHash" : "0xc8ae037bc13f27646b76574015abdca48b0fa6d2695867f13c47976e51c342df",
                    "nonce" : "0x06df41881f95911b",
                    "number" : "0x08",
                    "parentHash" : "0x500681f4ffc5963d5b8dbdc7769f3fc5ea23c8915c43aaba699a8911ee5c18e9",
                    "receiptTrie" : "0x95111ac1a116d4c27ec540135ac60d81f52d04dbcea60587afc0ff018a14396a",
                    "stateRoot" : "0x1f77c7f2c7c9b13aa32cffb4bf948658ce8201b86d151d15e87d325839e04f74",
                    "timestamp" : "0x54c98c89",
                    "transactionsTrie" : "0x0025e7a76a330ca2f7c7f8354b88d2b3c591855915d87cc38aa59da967fa36ed",
                    "uncleHash" : "0x1dcc4de8dec75d7aab85b567b6ccd41ad312451b948a7413f0a142fd40d49347"
                },
                "blocknumber" : "8",
                "rlp" : "0xf90262f901faa0500681f4ffc5963d5b8dbdc7769f3fc5ea23c8915c43aaba699a8911ee5c18e9a01dcc4de8dec75d7aab85b567b6ccd41ad312451b948a7413f0a142fd40d49347948888f1f195afa192cfee860698584c030f4c9db1a01f77c7f2c7c9b13aa32cffb4bf948658ce8201b86d151d15e87d325839e04f74a00025e7a76a330ca2f7c7f8354b88d2b3c591855915d87cc38aa59da967fa36eda095111ac1a116d4c27ec540135ac60d81f52d04dbcea60587afc0ff018a14396ab90100000000000000000000000000000000000000000000000000000000000000000000000000000000000000000000000000000000000000000000000000000000000000000000000000000000000000000000000000000000000000000000000000000000000000000000000000000000000000000000000000000000000000000000000000000000000000000000000000000000000000000000000000000000000000000000000000000000000000000000000000000000000000000000000000000000000000000000000000000000000000000000000000000000000000000000000000000000000000000000000000000000000000000000000000000000008302020008832fefba8302febe8454c98c8980a0c8ae037bc13f27646b76574015abdca48b0fa6d2695867f13c47976e51c342df8806df41881f95911bf862f8608001830927c094100000000000000000000000000000000000000101801ca01e5d7d77889a01b8ed4026fb1a2a9e47bd79c81ac7b27cec0688ebc783c2ab95a06fc2bedf69176eb9d86ded92a109e29805adabcb44e08746962aaa9266083c17c0",
                "transactions" : [
                    {
                        "data" : "0x",
                        "gasLimit" : "0x0927c0",
                        "gasPrice" : "0x01",
                        "nonce" : "0x00",
                        "r" : "0x1e5d7d77889a01b8ed4026fb1a2a9e47bd79c81ac7b27cec0688ebc783c2ab95",
                        "s" : "0x6fc2bedf69176eb9d86ded92a109e29805adabcb44e08746962aaa9266083c17",
                        "to" : "0x1000000000000000000000000000000000000001",
                        "v" : "0x1c",
                        "value" : "0x01"
                    }
                ],
                "uncleHeaders" : [
                ]
            },
            {
                "blockHeader" : {
                    "bloom" : "0x00000000000000000000000000000000000000000000000000000000000000000000000000000000000000000000000000000000000000000000000000000000000000000000000000000000000000000000000000000000000000000000000000000000000000000000000000000000000000000000000000000000000000000000000000000000000000000000000000000000000000000000000000000000000000000000000000000000000000000000000000000000000000000000000000000000000000000000000000000000000000000000000000000000000000000000000000000000000000000000000000000000000000000000000000000000",
                    "coinbase" : "0x8888f1f195afa192cfee860698584c030f4c9db1",
                    "difficulty" : "0x020000",
                    "extraData" : "",
                    "gasLimit" : "0x2fefba",
                    "gasUsed" : "0x033956",
                    "hash" : "0x3c48760d2435f86b381e5743911b59e89bdf196a75129eb57bd7842e75955a3c",
                    "mixHash" : "0x656174b19f357ea353a70addb040f387b5869498df24948229abb79596de1181",
                    "nonce" : "0x12854a0f16cd8b55",
                    "number" : "0x09",
                    "parentHash" : "0x001090918fb1b90bad92a27629dc9c74e497ba4023998c4e31c56a7fd92d1ab0",
                    "receiptTrie" : "0xef5ce2f12c40410fa054dcf5be652ade8e3e7cd61efceb2bbc7fd2645bdc5c1b",
                    "stateRoot" : "0xfc21feea2e6b4662c80c0677d4d93e75aaecaa2f426f9c90b270e275bb3139f1",
                    "timestamp" : "0x54c99071",
                    "transactionsTrie" : "0x731f6307eb9fd1dc73c5dc5c8420d0bc8104e16de8c2a908f4184f9c9e568ca3",
                    "uncleHash" : "0x1dcc4de8dec75d7aab85b567b6ccd41ad312451b948a7413f0a142fd40d49347"
                },
                "blocknumber" : "9",
                "rlp" : "0xf90262f901faa0001090918fb1b90bad92a27629dc9c74e497ba4023998c4e31c56a7fd92d1ab0a01dcc4de8dec75d7aab85b567b6ccd41ad312451b948a7413f0a142fd40d49347948888f1f195afa192cfee860698584c030f4c9db1a0fc21feea2e6b4662c80c0677d4d93e75aaecaa2f426f9c90b270e275bb3139f1a0731f6307eb9fd1dc73c5dc5c8420d0bc8104e16de8c2a908f4184f9c9e568ca3a0ef5ce2f12c40410fa054dcf5be652ade8e3e7cd61efceb2bbc7fd2645bdc5c1bb90100000000000000000000000000000000000000000000000000000000000000000000000000000000000000000000000000000000000000000000000000000000000000000000000000000000000000000000000000000000000000000000000000000000000000000000000000000000000000000000000000000000000000000000000000000000000000000000000000000000000000000000000000000000000000000000000000000000000000000000000000000000000000000000000000000000000000000000000000000000000000000000000000000000000000000000000000000000000000000000000000000000000000000000000000000000008302000009832fefba830339568454c9907180a0656174b19f357ea353a70addb040f387b5869498df24948229abb79596de11818812854a0f16cd8b55f862f8600101830927c094100000000000000000000000000000000000000201801ca0287ddddee5d48ad0a5d63185f195ea7be555fe7d99c632bd5881c94a935e34e8a021dcf284222e75e491d08b6a580c905fe26f5fa9e4e54121da52da434dc28adec0",
                "transactions" : [
                    {
                        "data" : "0x",
                        "gasLimit" : "0x0927c0",
                        "gasPrice" : "0x01",
                        "nonce" : "0x01",
                        "r" : "0x287ddddee5d48ad0a5d63185f195ea7be555fe7d99c632bd5881c94a935e34e8",
                        "s" : "0x21dcf284222e75e491d08b6a580c905fe26f5fa9e4e54121da52da434dc28ade",
                        "to" : "0x1000000000000000000000000000000000000002",
                        "v" : "0x1c",
                        "value" : "0x01"
                    }
                ],
                "uncleHeaders" : [
                ]
            }
        ],
        "genesisBlockHeader" : {
            "bloom" : "0x00000000000000000000000000000000000000000000000000000000000000000000000000000000000000000000000000000000000000000000000000000000000000000000000000000000000000000000000000000000000000000000000000000000000000000000000000000000000000000000000000000000000000000000000000000000000000000000000000000000000000000000000000000000000000000000000000000000000000000000000000000000000000000000000000000000000000000000000000000000000000000000000000000000000000000000000000000000000000000000000000000000000000000000000000000000",
            "coinbase" : "0x8888f1f195afa192cfee860698584c030f4c9db1",
            "difficulty" : "0x020000",
            "extraData" : "0x42",
            "gasLimit" : "0x2fefd8",
            "gasUsed" : "0x00",
            "hash" : "0xa4f92daafef87987049acdae22484e427539216cf49f0381cf31cbc37348831d",
            "mixHash" : "0x56e81f171bcc55a6ff8345e692c0f86e5b48e01b996cadc001622fb5e363b421",
            "nonce" : "0x0102030405060708",
            "number" : "0x00",
            "parentHash" : "0x0000000000000000000000000000000000000000000000000000000000000000",
            "receiptTrie" : "0x56e81f171bcc55a6ff8345e692c0f86e5b48e01b996cadc001622fb5e363b421",
            "stateRoot" : "0x3bf3355cf48d4a8f4969b30a189af1245e0e5b6713a6ec737452c2de7511e3c1",
            "timestamp" : "0x54c98c81",
            "transactionsTrie" : "0x56e81f171bcc55a6ff8345e692c0f86e5b48e01b996cadc001622fb5e363b421",
            "uncleHash" : "0x1dcc4de8dec75d7aab85b567b6ccd41ad312451b948a7413f0a142fd40d49347"
        },
        "genesisRLP" : "0xf901fcf901f7a00000000000000000000000000000000000000000000000000000000000000000a01dcc4de8dec75d7aab85b567b6ccd41ad312451b948a7413f0a142fd40d49347948888f1f195afa192cfee860698584c030f4c9db1a03bf3355cf48d4a8f4969b30a189af1245e0e5b6713a6ec737452c2de7511e3c1a056e81f171bcc55a6ff8345e692c0f86e5b48e01b996cadc001622fb5e363b421a056e81f171bcc55a6ff8345e692c0f86e5b48e01b996cadc001622fb5e363b421b90100000000000000000000000000000000000000000000000000000000000000000000000000000000000000000000000000000000000000000000000000000000000000000000000000000000000000000000000000000000000000000000000000000000000000000000000000000000000000000000000000000000000000000000000000000000000000000000000000000000000000000000000000000000000000000000000000000000000000000000000000000000000000000000000000000000000000000000000000000000000000000000000000000000000000000000000000000000000000000000000000000000000000000000000000000000008302000080832fefd8808454c98c8142a056e81f171bcc55a6ff8345e692c0f86e5b48e01b996cadc001622fb5e363b421880102030405060708c0c0",
        "lastblockhash" : "0x3c48760d2435f86b381e5743911b59e89bdf196a75129eb57bd7842e75955a3c",
        "network" : "EIP158ToByzantiumAt5",
        "postState" : {
            "0x1000000000000000000000000000000000000001" : {
                "balance" : "0x01",
                "code" : "0x600040600055600140600155600240600255600340600355600440600455600540600555600640600655600740600755600840600855600940600955600a40600a55",
                "nonce" : "0x00",
                "storage" : {
                    "0x00" : "0xa4f92daafef87987049acdae22484e427539216cf49f0381cf31cbc37348831d",
                    "0x01" : "0xde64d6df25eb9ecf069976a13c54ad7d7c1e57d88cd9f5cdedffe59dcbeafda8",
                    "0x02" : "0xfc2243376704a28cc6693a495320c043f30f003dbc3de14f7f72361992960497",
                    "0x03" : "0x225c1ea8cf88125490131f5ebf45a499f00482723be9ccc5a9a256f1be268350",
                    "0x04" : "0x819a7966561a75e09126adbd7e124cc34d184cc088a84db9c556b54ee3ea151f",
                    "0x05" : "0xc82db08ff8c895b73099e8f5cac81cba5a72f185f679ccba710e03f677043218",
                    "0x06" : "0x96bf475d81ce320e5c253d20303b560ab55b3f59ff703111293e221dfbf4c4de",
                    "0x07" : "0x500681f4ffc5963d5b8dbdc7769f3fc5ea23c8915c43aaba699a8911ee5c18e9"
                }
            },
            "0x1000000000000000000000000000000000000002" : {
                "balance" : "0x01",
                "code" : "0x600040600055600140600155600240600255600340600355600440600455600540600555600640600655600740600755600840600855600940600955600a40600a55",
                "nonce" : "0x00",
                "storage" : {
                    "0x00" : "0xa4f92daafef87987049acdae22484e427539216cf49f0381cf31cbc37348831d",
                    "0x01" : "0xde64d6df25eb9ecf069976a13c54ad7d7c1e57d88cd9f5cdedffe59dcbeafda8",
                    "0x02" : "0xfc2243376704a28cc6693a495320c043f30f003dbc3de14f7f72361992960497",
                    "0x03" : "0x225c1ea8cf88125490131f5ebf45a499f00482723be9ccc5a9a256f1be268350",
                    "0x04" : "0x819a7966561a75e09126adbd7e124cc34d184cc088a84db9c556b54ee3ea151f",
                    "0x05" : "0xc82db08ff8c895b73099e8f5cac81cba5a72f185f679ccba710e03f677043218",
                    "0x06" : "0x96bf475d81ce320e5c253d20303b560ab55b3f59ff703111293e221dfbf4c4de",
                    "0x07" : "0x500681f4ffc5963d5b8dbdc7769f3fc5ea23c8915c43aaba699a8911ee5c18e9",
                    "0x08" : "0x1090918fb1b90bad92a27629dc9c74e497ba4023998c4e31c56a7fd92d1ab0"
                }
            },
            "0x8888f1f195afa192cfee860698584c030f4c9db1" : {
                "balance" : "0x01e5b8fa8fe2b23814",
                "code" : "",
                "nonce" : "0x00",
                "storage" : {
                }
            },
            "0xa94f5374fce5edbc8e2a8697c15331677e6ebf0b" : {
                "balance" : "0x025405abea",
                "code" : "",
                "nonce" : "0x02",
                "storage" : {
                }
            }
        },
        "pre" : {
            "0x1000000000000000000000000000000000000001" : {
                "balance" : "0x00",
                "code" : "0x600040600055600140600155600240600255600340600355600440600455600540600555600640600655600740600755600840600855600940600955600a40600a55",
                "nonce" : "0x00",
                "storage" : {
                }
            },
            "0x1000000000000000000000000000000000000002" : {
                "balance" : "0x00",
                "code" : "0x600040600055600140600155600240600255600340600355600440600455600540600555600640600655600740600755600840600855600940600955600a40600a55",
                "nonce" : "0x00",
                "storage" : {
                }
            },
            "0xa94f5374fce5edbc8e2a8697c15331677e6ebf0b" : {
                "balance" : "0x02540be400",
                "code" : "",
                "nonce" : "0x00",
                "storage" : {
                }
            }
        }
    }
}