{
    "ByzantiumTransition_EIP158ToByzantiumAt5" : {
        "_info" : {
            "comment" : "",
            "filling-rpc-server" : "Geth-1.9.11-unstable-a382d783-20200127",
            "filling-tool-version" : "retesteth-0.0.2+commit.ce1fdd3d.Linux.g++",
            "lllcversion" : "Version: 0.5.14-develop.2019.11.27+commit.8f259595.Linux.g++",
            "source" : "src/BlockchainTestsFiller/TransitionTests/bcEIP158ToByzantium/ByzantiumTransitionFiller.json",
            "sourceHash" : "1483d7898b324959dd58646324e25e3d057d3dd886e69b97e7b5db1c1abdf5bb"
        },
        "sealEngine" : "NoProof",
        "network" : "EIP158ToByzantiumAt5",
        "pre" : {
            "0x1000000000000000000000000000000000000001" : {
                "balance" : "0x00",
                "code" : "0x600040600055600140600155600240600255600340600355600440600455600540600555600640600655600740600755600840600855600940600955600a40600a5500",
                "nonce" : "0x00",
                "storage" : {
                }
            },
            "0x1000000000000000000000000000000000000002" : {
                "balance" : "0x00",
                "code" : "0x600040600055600140600155600240600255600340600355600440600455600540600555600640600655600740600755600840600855600940600955600a40600a5500",
                "nonce" : "0x00",
                "storage" : {
                }
            },
            "0xa94f5374fce5edbc8e2a8697c15331677e6ebf0b" : {
                "balance" : "0x02540be400",
                "code" : "0x",
                "nonce" : "0x00",
                "storage" : {
                }
            }
        },
        "genesisBlockHeader" : {
            "bloom" : "0x00000000000000000000000000000000000000000000000000000000000000000000000000000000000000000000000000000000000000000000000000000000000000000000000000000000000000000000000000000000000000000000000000000000000000000000000000000000000000000000000000000000000000000000000000000000000000000000000000000000000000000000000000000000000000000000000000000000000000000000000000000000000000000000000000000000000000000000000000000000000000000000000000000000000000000000000000000000000000000000000000000000000000000000000000000000",
            "coinbase" : "0x8888f1f195afa192cfee860698584c030f4c9db1",
            "difficulty" : "0x020000",
            "extraData" : "0x42",
            "gasLimit" : "0x2fefd8",
            "gasUsed" : "0x00",
            "hash" : "0xa16e1d2c3e2f5dce4c3dadfa107ed94c3bb255fc51da6194b5a14e2b6311d28c",
            "mixHash" : "0x0000000000000000000000000000000000000000000000000000000000000000",
            "nonce" : "0x0000000000000000",
            "number" : "0x00",
            "parentHash" : "0x0000000000000000000000000000000000000000000000000000000000000000",
            "receiptTrie" : "0x56e81f171bcc55a6ff8345e692c0f86e5b48e01b996cadc001622fb5e363b421",
            "stateRoot" : "0xd6ce1208cd644fbc75e53e6ddd1378dbf0e0ada38d2b5f5f34bea31474d042a4",
            "timestamp" : "0x54c98c81",
            "transactionsTrie" : "0x56e81f171bcc55a6ff8345e692c0f86e5b48e01b996cadc001622fb5e363b421",
            "uncleHash" : "0x1dcc4de8dec75d7aab85b567b6ccd41ad312451b948a7413f0a142fd40d49347"
        },
        "genesisRLP" : "0xf901fcf901f7a00000000000000000000000000000000000000000000000000000000000000000a01dcc4de8dec75d7aab85b567b6ccd41ad312451b948a7413f0a142fd40d49347948888f1f195afa192cfee860698584c030f4c9db1a0d6ce1208cd644fbc75e53e6ddd1378dbf0e0ada38d2b5f5f34bea31474d042a4a056e81f171bcc55a6ff8345e692c0f86e5b48e01b996cadc001622fb5e363b421a056e81f171bcc55a6ff8345e692c0f86e5b48e01b996cadc001622fb5e363b421b90100000000000000000000000000000000000000000000000000000000000000000000000000000000000000000000000000000000000000000000000000000000000000000000000000000000000000000000000000000000000000000000000000000000000000000000000000000000000000000000000000000000000000000000000000000000000000000000000000000000000000000000000000000000000000000000000000000000000000000000000000000000000000000000000000000000000000000000000000000000000000000000000000000000000000000000000000000000000000000000000000000000000000000000000000000000008302000080832fefd8808454c98c8142a00000000000000000000000000000000000000000000000000000000000000000880000000000000000c0c0",
        "blocks" : [
            {
                "chainname" : "default",
                "blocknumber" : "1",
                "uncleHeaders" : [
                ],
                "blockHeader" : {
                    "bloom" : "0x00000000000000000000000000000000000000000000000000000000000000000000000000000000000000000000000000000000000000000000000000000000000000000000000000000000000000000000000000000000000000000000000000000000000000000000000000000000000000000000000000000000000000000000000000000000000000000000000000000000000000000000000000000000000000000000000000000000000000000000000000000000000000000000000000000000000000000000000000000000000000000000000000000000000000000000000000000000000000000000000000000000000000000000000000000000",
                    "coinbase" : "0x8888f1f195afa192cfee860698584c030f4c9db1",
                    "difficulty" : "0x020000",
                    "extraData" : "0x42",
                    "gasLimit" : "0x2ffbd2",
                    "gasUsed" : "0x00",
                    "hash" : "0x9400a4683782bec1754a85dc9778f0a850f9a73eaa1d4303719174b097a0ebe8",
                    "mixHash" : "0x0000000000000000000000000000000000000000000000000000000000000000",
                    "nonce" : "0x0000000000000000",
                    "number" : "0x01",
                    "parentHash" : "0xa16e1d2c3e2f5dce4c3dadfa107ed94c3bb255fc51da6194b5a14e2b6311d28c",
                    "receiptTrie" : "0x56e81f171bcc55a6ff8345e692c0f86e5b48e01b996cadc001622fb5e363b421",
                    "stateRoot" : "0x81b0d38d327204e0a288d95973ffe09fe30a12b0436a94da8cc2ecc61f59ed79",
                    "timestamp" : "0x54c99069",
                    "transactionsTrie" : "0x56e81f171bcc55a6ff8345e692c0f86e5b48e01b996cadc001622fb5e363b421",
                    "uncleHash" : "0x1dcc4de8dec75d7aab85b567b6ccd41ad312451b948a7413f0a142fd40d49347"
                },
                "transactions" : [
                ],
                "rlp" : "0xf901fcf901f7a0a16e1d2c3e2f5dce4c3dadfa107ed94c3bb255fc51da6194b5a14e2b6311d28ca01dcc4de8dec75d7aab85b567b6ccd41ad312451b948a7413f0a142fd40d49347948888f1f195afa192cfee860698584c030f4c9db1a081b0d38d327204e0a288d95973ffe09fe30a12b0436a94da8cc2ecc61f59ed79a056e81f171bcc55a6ff8345e692c0f86e5b48e01b996cadc001622fb5e363b421a056e81f171bcc55a6ff8345e692c0f86e5b48e01b996cadc001622fb5e363b421b90100000000000000000000000000000000000000000000000000000000000000000000000000000000000000000000000000000000000000000000000000000000000000000000000000000000000000000000000000000000000000000000000000000000000000000000000000000000000000000000000000000000000000000000000000000000000000000000000000000000000000000000000000000000000000000000000000000000000000000000000000000000000000000000000000000000000000000000000000000000000000000000000000000000000000000000000000000000000000000000000000000000000000000000000000000000008302000001832ffbd2808454c9906942a00000000000000000000000000000000000000000000000000000000000000000880000000000000000c0c0"
            },
            {
                "chainname" : "default",
                "blocknumber" : "2",
                "uncleHeaders" : [
                ],
                "blockHeader" : {
                    "bloom" : "0x00000000000000000000000000000000000000000000000000000000000000000000000000000000000000000000000000000000000000000000000000000000000000000000000000000000000000000000000000000000000000000000000000000000000000000000000000000000000000000000000000000000000000000000000000000000000000000000000000000000000000000000000000000000000000000000000000000000000000000000000000000000000000000000000000000000000000000000000000000000000000000000000000000000000000000000000000000000000000000000000000000000000000000000000000000000",
                    "coinbase" : "0x8888f1f195afa192cfee860698584c030f4c9db1",
                    "difficulty" : "0x020000",
                    "extraData" : "0x42",
                    "gasLimit" : "0x3007cf",
                    "gasUsed" : "0x00",
                    "hash" : "0xafed9ff111cb3c3d989f5b9313a6d5f327748e751e8e9e61b4ac6b70acbdd522",
                    "mixHash" : "0x0000000000000000000000000000000000000000000000000000000000000000",
                    "nonce" : "0x0000000000000000",
                    "number" : "0x02",
                    "parentHash" : "0x9400a4683782bec1754a85dc9778f0a850f9a73eaa1d4303719174b097a0ebe8",
                    "receiptTrie" : "0x56e81f171bcc55a6ff8345e692c0f86e5b48e01b996cadc001622fb5e363b421",
                    "stateRoot" : "0xdd8153b3b667304212575f3c79ce4f795c8d2abfa1b8061842cc9a3bfdd0dfef",
                    "timestamp" : "0x54c99451",
                    "transactionsTrie" : "0x56e81f171bcc55a6ff8345e692c0f86e5b48e01b996cadc001622fb5e363b421",
                    "uncleHash" : "0x1dcc4de8dec75d7aab85b567b6ccd41ad312451b948a7413f0a142fd40d49347"
                },
                "transactions" : [
                ],
                "rlp" : "0xf901fcf901f7a09400a4683782bec1754a85dc9778f0a850f9a73eaa1d4303719174b097a0ebe8a01dcc4de8dec75d7aab85b567b6ccd41ad312451b948a7413f0a142fd40d49347948888f1f195afa192cfee860698584c030f4c9db1a0dd8153b3b667304212575f3c79ce4f795c8d2abfa1b8061842cc9a3bfdd0dfefa056e81f171bcc55a6ff8345e692c0f86e5b48e01b996cadc001622fb5e363b421a056e81f171bcc55a6ff8345e692c0f86e5b48e01b996cadc001622fb5e363b421b90100000000000000000000000000000000000000000000000000000000000000000000000000000000000000000000000000000000000000000000000000000000000000000000000000000000000000000000000000000000000000000000000000000000000000000000000000000000000000000000000000000000000000000000000000000000000000000000000000000000000000000000000000000000000000000000000000000000000000000000000000000000000000000000000000000000000000000000000000000000000000000000000000000000000000000000000000000000000000000000000000000000000000000000000000000000008302000002833007cf808454c9945142a00000000000000000000000000000000000000000000000000000000000000000880000000000000000c0c0"
            },
            {
                "chainname" : "default",
                "blocknumber" : "3",
                "uncleHeaders" : [
                ],
                "blockHeader" : {
                    "bloom" : "0x00000000000000000000000000000000000000000000000000000000000000000000000000000000000000000000000000000000000000000000000000000000000000000000000000000000000000000000000000000000000000000000000000000000000000000000000000000000000000000000000000000000000000000000000000000000000000000000000000000000000000000000000000000000000000000000000000000000000000000000000000000000000000000000000000000000000000000000000000000000000000000000000000000000000000000000000000000000000000000000000000000000000000000000000000000000",
                    "coinbase" : "0x8888f1f195afa192cfee860698584c030f4c9db1",
                    "difficulty" : "0x020000",
                    "extraData" : "0x42",
                    "gasLimit" : "0x3013cf",
                    "gasUsed" : "0x00",
                    "hash" : "0xd4d54f104c496954d3d42e23316e655ecb67342305a9edb9fdbfa3370a95fd36",
                    "mixHash" : "0x0000000000000000000000000000000000000000000000000000000000000000",
                    "nonce" : "0x0000000000000000",
                    "number" : "0x03",
                    "parentHash" : "0xafed9ff111cb3c3d989f5b9313a6d5f327748e751e8e9e61b4ac6b70acbdd522",
                    "receiptTrie" : "0x56e81f171bcc55a6ff8345e692c0f86e5b48e01b996cadc001622fb5e363b421",
                    "stateRoot" : "0xce6209c8d0257602a16c68ff602ad863fbb64ca6a8679e597da7dad33acadf59",
                    "timestamp" : "0x54c99839",
                    "transactionsTrie" : "0x56e81f171bcc55a6ff8345e692c0f86e5b48e01b996cadc001622fb5e363b421",
                    "uncleHash" : "0x1dcc4de8dec75d7aab85b567b6ccd41ad312451b948a7413f0a142fd40d49347"
                },
                "transactions" : [
                ],
                "rlp" : "0xf901fcf901f7a0afed9ff111cb3c3d989f5b9313a6d5f327748e751e8e9e61b4ac6b70acbdd522a01dcc4de8dec75d7aab85b567b6ccd41ad312451b948a7413f0a142fd40d49347948888f1f195afa192cfee860698584c030f4c9db1a0ce6209c8d0257602a16c68ff602ad863fbb64ca6a8679e597da7dad33acadf59a056e81f171bcc55a6ff8345e692c0f86e5b48e01b996cadc001622fb5e363b421a056e81f171bcc55a6ff8345e692c0f86e5b48e01b996cadc001622fb5e363b421b90100000000000000000000000000000000000000000000000000000000000000000000000000000000000000000000000000000000000000000000000000000000000000000000000000000000000000000000000000000000000000000000000000000000000000000000000000000000000000000000000000000000000000000000000000000000000000000000000000000000000000000000000000000000000000000000000000000000000000000000000000000000000000000000000000000000000000000000000000000000000000000000000000000000000000000000000000000000000000000000000000000000000000000000000000000000008302000003833013cf808454c9983942a00000000000000000000000000000000000000000000000000000000000000000880000000000000000c0c0"
            },
            {
                "chainname" : "default",
                "blocknumber" : "4",
                "uncleHeaders" : [
                ],
                "blockHeader" : {
                    "bloom" : "0x00000000000000000000000000000000000000000000000000000000000000000000000000000000000000000000000000000000000000000000000000000000000000000000000000000000000000000000000000000000000000000000000000000000000000000000000000000000000000000000000000000000000000000000000000000000000000000000000000000000000000000000000000000000000000000000000000000000000000000000000000000000000000000000000000000000000000000000000000000000000000000000000000000000000000000000000000000000000000000000000000000000000000000000000000000000",
                    "coinbase" : "0x8888f1f195afa192cfee860698584c030f4c9db1",
                    "difficulty" : "0x020000",
                    "extraData" : "0x42",
                    "gasLimit" : "0x301fd2",
                    "gasUsed" : "0x00",
                    "hash" : "0x5cf4a68f06c7dba9b186a0156675637c3c4f3a60f28cbc844ef6d1e8f58f94cb",
                    "mixHash" : "0x0000000000000000000000000000000000000000000000000000000000000000",
                    "nonce" : "0x0000000000000000",
                    "number" : "0x04",
                    "parentHash" : "0xd4d54f104c496954d3d42e23316e655ecb67342305a9edb9fdbfa3370a95fd36",
                    "receiptTrie" : "0x56e81f171bcc55a6ff8345e692c0f86e5b48e01b996cadc001622fb5e363b421",
                    "stateRoot" : "0x0dfc4ec36d66ceb577e2d55e14c509d8052e232d602722af040cc4ebece843cc",
                    "timestamp" : "0x54c99c21",
                    "transactionsTrie" : "0x56e81f171bcc55a6ff8345e692c0f86e5b48e01b996cadc001622fb5e363b421",
                    "uncleHash" : "0x1dcc4de8dec75d7aab85b567b6ccd41ad312451b948a7413f0a142fd40d49347"
                },
                "transactions" : [
                ],
                "rlp" : "0xf901fcf901f7a0d4d54f104c496954d3d42e23316e655ecb67342305a9edb9fdbfa3370a95fd36a01dcc4de8dec75d7aab85b567b6ccd41ad312451b948a7413f0a142fd40d49347948888f1f195afa192cfee860698584c030f4c9db1a00dfc4ec36d66ceb577e2d55e14c509d8052e232d602722af040cc4ebece843cca056e81f171bcc55a6ff8345e692c0f86e5b48e01b996cadc001622fb5e363b421a056e81f171bcc55a6ff8345e692c0f86e5b48e01b996cadc001622fb5e363b421b9010000000000000000000000000000000000000000000000000000000000000000000000000000000000000000000000000000000000000000000000000000000000000000000000000000000000000000000000000000000000000000000000000000000000000000000000000000000000000000000000000000000000000000000000000000000000000000000000000000000000000000000000000000000000000000000000000000000000000000000000000000000000000000000000000000000000000000000000000000000000000000000000000000000000000000000000000000000000000000000000000000000000000000000000000000000000830200000483301fd2808454c99c2142a00000000000000000000000000000000000000000000000000000000000000000880000000000000000c0c0"
            },
            {
                "chainname" : "default",
                "blocknumber" : "5",
                "uncleHeaders" : [
                ],
                "blockHeader" : {
                    "bloom" : "0x00000000000000000000000000000000000000000000000000000000000000000000000000000000000000000000000000000000000000000000000000000000000000000000000000000000000000000000000000000000000000000000000000000000000000000000000000000000000000000000000000000000000000000000000000000000000000000000000000000000000000000000000000000000000000000000000000000000000000000000000000000000000000000000000000000000000000000000000000000000000000000000000000000000000000000000000000000000000000000000000000000000000000000000000000000000",
                    "coinbase" : "0x8888f1f195afa192cfee860698584c030f4c9db1",
                    "difficulty" : "0x020000",
                    "extraData" : "0x42",
                    "gasLimit" : "0x302bd8",
                    "gasUsed" : "0x00",
                    "hash" : "0xda23cb40aeeee62784c93a47ce6ffbd9ba1dd50b4da419c8377ef3afbb3c773a",
                    "mixHash" : "0x0000000000000000000000000000000000000000000000000000000000000000",
                    "nonce" : "0x0000000000000000",
                    "number" : "0x05",
                    "parentHash" : "0x5cf4a68f06c7dba9b186a0156675637c3c4f3a60f28cbc844ef6d1e8f58f94cb",
                    "receiptTrie" : "0x56e81f171bcc55a6ff8345e692c0f86e5b48e01b996cadc001622fb5e363b421",
                    "stateRoot" : "0x66593440f67b0983d8cd194ba75c34191d0ecdea2738ac2ddc2e04ff475387ee",
                    "timestamp" : "0x54c9a009",
                    "transactionsTrie" : "0x56e81f171bcc55a6ff8345e692c0f86e5b48e01b996cadc001622fb5e363b421",
                    "uncleHash" : "0x1dcc4de8dec75d7aab85b567b6ccd41ad312451b948a7413f0a142fd40d49347"
                },
                "transactions" : [
                ],
                "rlp" : "0xf901fcf901f7a05cf4a68f06c7dba9b186a0156675637c3c4f3a60f28cbc844ef6d1e8f58f94cba01dcc4de8dec75d7aab85b567b6ccd41ad312451b948a7413f0a142fd40d49347948888f1f195afa192cfee860698584c030f4c9db1a066593440f67b0983d8cd194ba75c34191d0ecdea2738ac2ddc2e04ff475387eea056e81f171bcc55a6ff8345e692c0f86e5b48e01b996cadc001622fb5e363b421a056e81f171bcc55a6ff8345e692c0f86e5b48e01b996cadc001622fb5e363b421b9010000000000000000000000000000000000000000000000000000000000000000000000000000000000000000000000000000000000000000000000000000000000000000000000000000000000000000000000000000000000000000000000000000000000000000000000000000000000000000000000000000000000000000000000000000000000000000000000000000000000000000000000000000000000000000000000000000000000000000000000000000000000000000000000000000000000000000000000000000000000000000000000000000000000000000000000000000000000000000000000000000000000000000000000000000000000830200000583302bd8808454c9a00942a00000000000000000000000000000000000000000000000000000000000000000880000000000000000c0c0"
            },
            {
                "chainname" : "default",
                "blocknumber" : "6",
                "uncleHeaders" : [
                ],
                "blockHeader" : {
                    "bloom" : "0x00000000000000000000000000000000000000000000000000000000000000000000000000000000000000000000000000000000000000000000000000000000000000000000000000000000000000000000000000000000000000000000000000000000000000000000000000000000000000000000000000000000000000000000000000000000000000000000000000000000000000000000000000000000000000000000000000000000000000000000000000000000000000000000000000000000000000000000000000000000000000000000000000000000000000000000000000000000000000000000000000000000000000000000000000000000",
                    "coinbase" : "0x8888f1f195afa192cfee860698584c030f4c9db1",
                    "difficulty" : "0x020000",
                    "extraData" : "0x42",
                    "gasLimit" : "0x3037e1",
                    "gasUsed" : "0x00",
                    "hash" : "0xf7306632e8302b170fe7b2855762b23bf1034e242a42d8a53d1ae26ec20ad6c8",
                    "mixHash" : "0x0000000000000000000000000000000000000000000000000000000000000000",
                    "nonce" : "0x0000000000000000",
                    "number" : "0x06",
                    "parentHash" : "0xda23cb40aeeee62784c93a47ce6ffbd9ba1dd50b4da419c8377ef3afbb3c773a",
                    "receiptTrie" : "0x56e81f171bcc55a6ff8345e692c0f86e5b48e01b996cadc001622fb5e363b421",
                    "stateRoot" : "0x68de9ae66d6734eed329271989dfb09e5d345928599bae4ba1bdc37a354b5889",
                    "timestamp" : "0x54c9a3f1",
                    "transactionsTrie" : "0x56e81f171bcc55a6ff8345e692c0f86e5b48e01b996cadc001622fb5e363b421",
                    "uncleHash" : "0x1dcc4de8dec75d7aab85b567b6ccd41ad312451b948a7413f0a142fd40d49347"
                },
                "transactions" : [
                ],
                "rlp" : "0xf901fcf901f7a0da23cb40aeeee62784c93a47ce6ffbd9ba1dd50b4da419c8377ef3afbb3c773aa01dcc4de8dec75d7aab85b567b6ccd41ad312451b948a7413f0a142fd40d49347948888f1f195afa192cfee860698584c030f4c9db1a068de9ae66d6734eed329271989dfb09e5d345928599bae4ba1bdc37a354b5889a056e81f171bcc55a6ff8345e692c0f86e5b48e01b996cadc001622fb5e363b421a056e81f171bcc55a6ff8345e692c0f86e5b48e01b996cadc001622fb5e363b421b90100000000000000000000000000000000000000000000000000000000000000000000000000000000000000000000000000000000000000000000000000000000000000000000000000000000000000000000000000000000000000000000000000000000000000000000000000000000000000000000000000000000000000000000000000000000000000000000000000000000000000000000000000000000000000000000000000000000000000000000000000000000000000000000000000000000000000000000000000000000000000000000000000000000000000000000000000000000000000000000000000000000000000000000000000000000008302000006833037e1808454c9a3f142a00000000000000000000000000000000000000000000000000000000000000000880000000000000000c0c0"
            },
            {
                "chainname" : "default",
                "blocknumber" : "7",
                "uncleHeaders" : [
                ],
                "blockHeader" : {
                    "bloom" : "0x00000000000000000000000000000000000000000000000000000000000000000000000000000000000000000000000000000000000000000000000000000000000000000000000000000000000000000000000000000000000000000000000000000000000000000000000000000000000000000000000000000000000000000000000000000000000000000000000000000000000000000000000000000000000000000000000000000000000000000000000000000000000000000000000000000000000000000000000000000000000000000000000000000000000000000000000000000000000000000000000000000000000000000000000000000000",
                    "coinbase" : "0x8888f1f195afa192cfee860698584c030f4c9db1",
                    "difficulty" : "0x020000",
                    "extraData" : "0x42",
                    "gasLimit" : "0x3043ed",
                    "gasUsed" : "0x00",
                    "hash" : "0x331828a0bd0b6305b96ed1969278fed578d3d622af90c6f156e335416b24581b",
                    "mixHash" : "0x0000000000000000000000000000000000000000000000000000000000000000",
                    "nonce" : "0x0000000000000000",
                    "number" : "0x07",
                    "parentHash" : "0xf7306632e8302b170fe7b2855762b23bf1034e242a42d8a53d1ae26ec20ad6c8",
                    "receiptTrie" : "0x56e81f171bcc55a6ff8345e692c0f86e5b48e01b996cadc001622fb5e363b421",
                    "stateRoot" : "0x0a3e306ee96d5763f035d82d175cacd151adbb7a3ef197cdc58bb9b5c0b94233",
                    "timestamp" : "0x54c9a7d9",
                    "transactionsTrie" : "0x56e81f171bcc55a6ff8345e692c0f86e5b48e01b996cadc001622fb5e363b421",
                    "uncleHash" : "0x1dcc4de8dec75d7aab85b567b6ccd41ad312451b948a7413f0a142fd40d49347"
                },
                "transactions" : [
                ],
                "rlp" : "0xf901fcf901f7a0f7306632e8302b170fe7b2855762b23bf1034e242a42d8a53d1ae26ec20ad6c8a01dcc4de8dec75d7aab85b567b6ccd41ad312451b948a7413f0a142fd40d49347948888f1f195afa192cfee860698584c030f4c9db1a00a3e306ee96d5763f035d82d175cacd151adbb7a3ef197cdc58bb9b5c0b94233a056e81f171bcc55a6ff8345e692c0f86e5b48e01b996cadc001622fb5e363b421a056e81f171bcc55a6ff8345e692c0f86e5b48e01b996cadc001622fb5e363b421b90100000000000000000000000000000000000000000000000000000000000000000000000000000000000000000000000000000000000000000000000000000000000000000000000000000000000000000000000000000000000000000000000000000000000000000000000000000000000000000000000000000000000000000000000000000000000000000000000000000000000000000000000000000000000000000000000000000000000000000000000000000000000000000000000000000000000000000000000000000000000000000000000000000000000000000000000000000000000000000000000000000000000000000000000000000000008302000007833043ed808454c9a7d942a00000000000000000000000000000000000000000000000000000000000000000880000000000000000c0c0"
            },
            {
                "chainname" : "default",
                "blocknumber" : "8",
                "uncleHeaders" : [
                ],
                "blockHeader" : {
                    "bloom" : "0x00000000000000000000000000000000000000000000000000000000000000000000000000000000000000000000000000000000000000000000000000000000000000000000000000000000000000000000000000000000000000000000000000000000000000000000000000000000000000000000000000000000000000000000000000000000000000000000000000000000000000000000000000000000000000000000000000000000000000000000000000000000000000000000000000000000000000000000000000000000000000000000000000000000000000000000000000000000000000000000000000000000000000000000000000000000",
                    "coinbase" : "0x8888f1f195afa192cfee860698584c030f4c9db1",
                    "difficulty" : "0x020000",
                    "extraData" : "0x42",
                    "gasLimit" : "0x304ffc",
                    "gasUsed" : "0x02febe",
                    "hash" : "0x7562aa7743d71bc4d3421701cb25cdfeed49ac9fc118162178b624dfa0009a90",
                    "mixHash" : "0x0000000000000000000000000000000000000000000000000000000000000000",
                    "nonce" : "0x0000000000000000",
                    "number" : "0x08",
                    "parentHash" : "0x331828a0bd0b6305b96ed1969278fed578d3d622af90c6f156e335416b24581b",
                    "receiptTrie" : "0x95111ac1a116d4c27ec540135ac60d81f52d04dbcea60587afc0ff018a14396a",
                    "stateRoot" : "0x2968852d828ddc8a23c2bd2ac67664c85a82c065a1cf60979f31531b7ff04123",
                    "timestamp" : "0x54c9abc1",
                    "transactionsTrie" : "0x0025e7a76a330ca2f7c7f8354b88d2b3c591855915d87cc38aa59da967fa36ed",
                    "uncleHash" : "0x1dcc4de8dec75d7aab85b567b6ccd41ad312451b948a7413f0a142fd40d49347"
                },
                "transactions" : [
                    {
                        "data" : "0x",
                        "gasLimit" : "0x0927c0",
                        "gasPrice" : "0x01",
                        "nonce" : "0x00",
                        "r" : "0x1e5d7d77889a01b8ed4026fb1a2a9e47bd79c81ac7b27cec0688ebc783c2ab95",
                        "s" : "0x6fc2bedf69176eb9d86ded92a109e29805adabcb44e08746962aaa9266083c17",
                        "to" : "0x1000000000000000000000000000000000000001",
                        "v" : "0x1c",
                        "value" : "0x01"
                    }
                ],
                "rlp" : "0xf90262f901faa0331828a0bd0b6305b96ed1969278fed578d3d622af90c6f156e335416b24581ba01dcc4de8dec75d7aab85b567b6ccd41ad312451b948a7413f0a142fd40d49347948888f1f195afa192cfee860698584c030f4c9db1a02968852d828ddc8a23c2bd2ac67664c85a82c065a1cf60979f31531b7ff04123a00025e7a76a330ca2f7c7f8354b88d2b3c591855915d87cc38aa59da967fa36eda095111ac1a116d4c27ec540135ac60d81f52d04dbcea60587afc0ff018a14396ab9010000000000000000000000000000000000000000000000000000000000000000000000000000000000000000000000000000000000000000000000000000000000000000000000000000000000000000000000000000000000000000000000000000000000000000000000000000000000000000000000000000000000000000000000000000000000000000000000000000000000000000000000000000000000000000000000000000000000000000000000000000000000000000000000000000000000000000000000000000000000000000000000000000000000000000000000000000000000000000000000000000000000000000000000000000000000830200000883304ffc8302febe8454c9abc142a00000000000000000000000000000000000000000000000000000000000000000880000000000000000f862f8608001830927c094100000000000000000000000000000000000000101801ca01e5d7d77889a01b8ed4026fb1a2a9e47bd79c81ac7b27cec0688ebc783c2ab95a06fc2bedf69176eb9d86ded92a109e29805adabcb44e08746962aaa9266083c17c0"
            },
            {
                "chainname" : "default",
                "blocknumber" : "9",
                "uncleHeaders" : [
                ],
                "blockHeader" : {
                    "bloom" : "0x00000000000000000000000000000000000000000000000000000000000000000000000000000000000000000000000000000000000000000000000000000000000000000000000000000000000000000000000000000000000000000000000000000000000000000000000000000000000000000000000000000000000000000000000000000000000000000000000000000000000000000000000000000000000000000000000000000000000000000000000000000000000000000000000000000000000000000000000000000000000000000000000000000000000000000000000000000000000000000000000000000000000000000000000000000000",
                    "coinbase" : "0x8888f1f195afa192cfee860698584c030f4c9db1",
                    "difficulty" : "0x020000",
                    "extraData" : "0x42",
                    "gasLimit" : "0x305c0e",
                    "gasUsed" : "0x033956",
                    "hash" : "0x49032aba492732b13ec9e749144b2eca06aae5aa0cded3ff1d953dea4a439120",
                    "mixHash" : "0x0000000000000000000000000000000000000000000000000000000000000000",
                    "nonce" : "0x0000000000000000",
                    "number" : "0x09",
                    "parentHash" : "0x7562aa7743d71bc4d3421701cb25cdfeed49ac9fc118162178b624dfa0009a90",
                    "receiptTrie" : "0xef5ce2f12c40410fa054dcf5be652ade8e3e7cd61efceb2bbc7fd2645bdc5c1b",
                    "stateRoot" : "0x9b10dca08dd5c9a8d820c3a6a9dd4d312e5c5c4801a680f10b49a79570684ccd",
                    "timestamp" : "0x54c9afa9",
                    "transactionsTrie" : "0x731f6307eb9fd1dc73c5dc5c8420d0bc8104e16de8c2a908f4184f9c9e568ca3",
                    "uncleHash" : "0x1dcc4de8dec75d7aab85b567b6ccd41ad312451b948a7413f0a142fd40d49347"
                },
                "transactions" : [
                    {
                        "data" : "0x",
                        "gasLimit" : "0x0927c0",
                        "gasPrice" : "0x01",
                        "nonce" : "0x01",
                        "r" : "0x287ddddee5d48ad0a5d63185f195ea7be555fe7d99c632bd5881c94a935e34e8",
                        "s" : "0x21dcf284222e75e491d08b6a580c905fe26f5fa9e4e54121da52da434dc28ade",
                        "to" : "0x1000000000000000000000000000000000000002",
                        "v" : "0x1c",
                        "value" : "0x01"
                    }
                ],
                "rlp" : "0xf90262f901faa07562aa7743d71bc4d3421701cb25cdfeed49ac9fc118162178b624dfa0009a90a01dcc4de8dec75d7aab85b567b6ccd41ad312451b948a7413f0a142fd40d49347948888f1f195afa192cfee860698584c030f4c9db1a09b10dca08dd5c9a8d820c3a6a9dd4d312e5c5c4801a680f10b49a79570684ccda0731f6307eb9fd1dc73c5dc5c8420d0bc8104e16de8c2a908f4184f9c9e568ca3a0ef5ce2f12c40410fa054dcf5be652ade8e3e7cd61efceb2bbc7fd2645bdc5c1bb9010000000000000000000000000000000000000000000000000000000000000000000000000000000000000000000000000000000000000000000000000000000000000000000000000000000000000000000000000000000000000000000000000000000000000000000000000000000000000000000000000000000000000000000000000000000000000000000000000000000000000000000000000000000000000000000000000000000000000000000000000000000000000000000000000000000000000000000000000000000000000000000000000000000000000000000000000000000000000000000000000000000000000000000000000000000000830200000983305c0e830339568454c9afa942a00000000000000000000000000000000000000000000000000000000000000000880000000000000000f862f8600101830927c094100000000000000000000000000000000000000201801ca0287ddddee5d48ad0a5d63185f195ea7be555fe7d99c632bd5881c94a935e34e8a021dcf284222e75e491d08b6a580c905fe26f5fa9e4e54121da52da434dc28adec0"
            }
        ],
        "postState" : {
            "0xa94f5374fce5edbc8e2a8697c15331677e6ebf0b" : {
                "code" : "0x",
                "nonce" : "0x02",
                "balance" : "0x025405abea",
                "storage" : {
                }
            },
            "0x1000000000000000000000000000000000000001" : {
                "code" : "0x600040600055600140600155600240600255600340600355600440600455600540600555600640600655600740600755600840600855600940600955600a40600a5500",
                "nonce" : "0x00",
                "balance" : "0x01",
                "storage" : {
                    "0x05" : "0xda23cb40aeeee62784c93a47ce6ffbd9ba1dd50b4da419c8377ef3afbb3c773a",
                    "0x00" : "0xa16e1d2c3e2f5dce4c3dadfa107ed94c3bb255fc51da6194b5a14e2b6311d28c",
                    "0x02" : "0xafed9ff111cb3c3d989f5b9313a6d5f327748e751e8e9e61b4ac6b70acbdd522",
                    "0x04" : "0x5cf4a68f06c7dba9b186a0156675637c3c4f3a60f28cbc844ef6d1e8f58f94cb",
                    "0x07" : "0x331828a0bd0b6305b96ed1969278fed578d3d622af90c6f156e335416b24581b",
                    "0x01" : "0x9400a4683782bec1754a85dc9778f0a850f9a73eaa1d4303719174b097a0ebe8",
                    "0x03" : "0xd4d54f104c496954d3d42e23316e655ecb67342305a9edb9fdbfa3370a95fd36",
                    "0x06" : "0xf7306632e8302b170fe7b2855762b23bf1034e242a42d8a53d1ae26ec20ad6c8"
                }
            },
            "0x8888f1f195afa192cfee860698584c030f4c9db1" : {
                "code" : "0x",
                "nonce" : "0x00",
                "balance" : "0x01e5b8fa8fe2b23814",
                "storage" : {
                }
            },
            "0x1000000000000000000000000000000000000002" : {
                "code" : "0x600040600055600140600155600240600255600340600355600440600455600540600555600640600655600740600755600840600855600940600955600a40600a5500",
                "nonce" : "0x00",
                "balance" : "0x01",
                "storage" : {
                    "0x05" : "0xda23cb40aeeee62784c93a47ce6ffbd9ba1dd50b4da419c8377ef3afbb3c773a",
                    "0x00" : "0xa16e1d2c3e2f5dce4c3dadfa107ed94c3bb255fc51da6194b5a14e2b6311d28c",
                    "0x02" : "0xafed9ff111cb3c3d989f5b9313a6d5f327748e751e8e9e61b4ac6b70acbdd522",
                    "0x04" : "0x5cf4a68f06c7dba9b186a0156675637c3c4f3a60f28cbc844ef6d1e8f58f94cb",
                    "0x07" : "0x331828a0bd0b6305b96ed1969278fed578d3d622af90c6f156e335416b24581b",
                    "0x01" : "0x9400a4683782bec1754a85dc9778f0a850f9a73eaa1d4303719174b097a0ebe8",
                    "0x03" : "0xd4d54f104c496954d3d42e23316e655ecb67342305a9edb9fdbfa3370a95fd36",
                    "0x08" : "0x7562aa7743d71bc4d3421701cb25cdfeed49ac9fc118162178b624dfa0009a90",
                    "0x06" : "0xf7306632e8302b170fe7b2855762b23bf1034e242a42d8a53d1ae26ec20ad6c8"
                }
            }
        },
        "lastblockhash" : "0x49032aba492732b13ec9e749144b2eca06aae5aa0cded3ff1d953dea4a439120"
    }
}