{
    "201503110226PYTHON_DUP6_d0g0v0_Istanbul" : {
        "_info" : {
            "comment" : "This test used to be a VM test and it once failed in python client some day.  Since the test contains a BALANCE instruction (which must be mocked), it's moved to GeneralSateTest https://github.com/ethereum/tests/pull/445/files#r179426325",
            "filling-rpc-server" : "Geth-1.9.6-unstable-63b18027-20190920",
            "filling-tool-version" : "retesteth-0.0.1+commit.0ae18aef.Linux.g++",
            "lllcversion" : "Version: 0.5.12-develop.2019.9.13+commit.2d601a4f.Linux.g++",
            "source" : "src/GeneralStateTestsFiller/stRandom2/201503110226PYTHON_DUP6Filler.json",
            "sourceHash" : "0d386805175d711188a23d31971ecea5faa60c88935055590169c6c0fc349d15"
        },
        "genesisBlockHeader" : {
            "bloom" : "0x00000000000000000000000000000000000000000000000000000000000000000000000000000000000000000000000000000000000000000000000000000000000000000000000000000000000000000000000000000000000000000000000000000000000000000000000000000000000000000000000000000000000000000000000000000000000000000000000000000000000000000000000000000000000000000000000000000000000000000000000000000000000000000000000000000000000000000000000000000000000000000000000000000000000000000000000000000000000000000000000000000000000000000000000000000000",
            "coinbase" : "0x2adc25665018aa1fe0e6bc666dac8fc2697ff9ba",
            "difficulty" : "0x20000",
            "extraData" : "0x00",
            "gasLimit" : "0x38d7ea4c68000",
            "gasUsed" : "0x0",
            "hash" : "0x7ad31d5515b13b21a6993c3921621c1eecd5b62749d0680730539052bd2f757d",
            "mixHash" : "0x0000000000000000000000000000000000000000000000000000000000000000",
            "nonce" : "0x0000000000000000",
            "number" : "0x0",
            "parentHash" : "0x0000000000000000000000000000000000000000000000000000000000000000",
            "receiptTrie" : "0x56e81f171bcc55a6ff8345e692c0f86e5b48e01b996cadc001622fb5e363b421",
            "stateRoot" : "0xf405c8bb8471cf5c8e6e91a816187a9eb36496dbc9789e5e539f13cc4a12ec55",
            "timestamp" : "0x0",
            "transactionsTrie" : "0x56e81f171bcc55a6ff8345e692c0f86e5b48e01b996cadc001622fb5e363b421",
            "uncleHash" : "0x1dcc4de8dec75d7aab85b567b6ccd41ad312451b948a7413f0a142fd40d49347"
        },
        "pre" : {
            "0x0f572e5295c57f15886f9b263e2f6d2d6c7b5ec6" : {
                "balance" : "0x0de0b6b3a7640000",
                "code" : "0x45414443434042405b85",
                "nonce" : "0x00",
                "storage" : {
                }
            },
            "0xa94f5374fce5edbc8e2a8697c15331677e6ebf0b" : {
                "balance" : "0x1038beec8feeca2598",
                "code" : "0x",
                "nonce" : "0x00",
                "storage" : {
                }
            }
        },
        "postState" : {
            "0xa94f5374fce5edbc8e2a8697c15331677e6ebf0b" : {
                "code" : "0x",
                "nonce" : "0x01",
                "balance" : "0x100da59dd100562598",
                "storage" : {
                }
            },
            "0x2adc25665018aa1fe0e6bc666dac8fc2697ff9ba" : {
                "code" : "0x",
                "nonce" : "0x00",
                "balance" : "0x38fa057295d80000",
                "storage" : {
                }
            },
            "0x0f572e5295c57f15886f9b263e2f6d2d6c7b5ec6" : {
                "code" : "0x45414443434042405b85",
                "nonce" : "0x00",
                "balance" : "0x1bc16d674ec80000",
                "storage" : {
                }
            }
        },
        "network" : "Istanbul",
        "sealEngine" : "NoProof",
        "lastblockhash" : "0x0a7b0731b3ae1ee8c4a6df14252b44faacc5062b50e98e7a5ce28288c66914bc",
        "genesisRLP" : "0xf901fcf901f7a00000000000000000000000000000000000000000000000000000000000000000a01dcc4de8dec75d7aab85b567b6ccd41ad312451b948a7413f0a142fd40d49347942adc25665018aa1fe0e6bc666dac8fc2697ff9baa0f405c8bb8471cf5c8e6e91a816187a9eb36496dbc9789e5e539f13cc4a12ec55a056e81f171bcc55a6ff8345e692c0f86e5b48e01b996cadc001622fb5e363b421a056e81f171bcc55a6ff8345e692c0f86e5b48e01b996cadc001622fb5e363b421b9010000000000000000000000000000000000000000000000000000000000000000000000000000000000000000000000000000000000000000000000000000000000000000000000000000000000000000000000000000000000000000000000000000000000000000000000000000000000000000000000000000000000000000000000000000000000000000000000000000000000000000000000000000000000000000000000000000000000000000000000000000000000000000000000000000000000000000000000000000000000000000000000000000000000000000000000000000000000000000000000000000000000000000000000000000000000830200008087038d7ea4c68000808000a00000000000000000000000000000000000000000000000000000000000000000880000000000000000c0c0",
        "blocks" : [
            {
                "rlp" : "0xf90271f901fba07ad31d5515b13b21a6993c3921621c1eecd5b62749d0680730539052bd2f757da01dcc4de8dec75d7aab85b567b6ccd41ad312451b948a7413f0a142fd40d49347942adc25665018aa1fe0e6bc666dac8fc2697ff9baa06d7ac9bb26585d54dcb879c740a894748a0257013d68e591689913d53f7448ada016cbc8afc8525db919967ec8f4d2049118028858f060c8d3080831777f3b7869a0aafea22a12a4fee02325566013babfb2238c3d8608e9a796d162c73b3055662cb9010000000000000000000000000000000000000000000000000000000000000000000000000000000000000000000000000000000000000000000000000000000000000000000000000000000000000000000000000000000000000000000000000000000000000000000000000000000000000000000000000000000000000000000000000000000000000000000000000000000000000000000000000000000000000000000000000000000000000000000000000000000000000000000000000000000000000000000000000000000000000000000000000000000000000000000000000000000000000000000000000000000000000000000000000000000000830200000187038e62046fb19f8252408203e800a00000000000000000000000000000000000000000000000000000000000000000880000000000000000f870f86e80865af3107a4000830186a0940f572e5295c57f15886f9b263e2f6d2d6c7b5ec6880de0b6b3a7640000801ba095e48b6cdb342026b8bf5c3fa3eacf4044e3c1f6865edc2f2fe471a4dfa00cafa07dc3ff02760c8839631cdbcb9ac82f7322a6e28f3b8ab5f5ecaaec983425cf20c0",
                "blockHeader" : {
                    "bloom" : "0x00000000000000000000000000000000000000000000000000000000000000000000000000000000000000000000000000000000000000000000000000000000000000000000000000000000000000000000000000000000000000000000000000000000000000000000000000000000000000000000000000000000000000000000000000000000000000000000000000000000000000000000000000000000000000000000000000000000000000000000000000000000000000000000000000000000000000000000000000000000000000000000000000000000000000000000000000000000000000000000000000000000000000000000000000000000",
                    "coinbase" : "0x2adc25665018aa1fe0e6bc666dac8fc2697ff9ba",
                    "difficulty" : "0x20000",
                    "extraData" : "0x00",
                    "gasLimit" : "0x38e62046fb19f",
                    "gasUsed" : "0x5240",
                    "hash" : "0x0a7b0731b3ae1ee8c4a6df14252b44faacc5062b50e98e7a5ce28288c66914bc",
                    "mixHash" : "0x0000000000000000000000000000000000000000000000000000000000000000",
                    "nonce" : "0x0000000000000000",
                    "number" : "0x1",
                    "parentHash" : "0x7ad31d5515b13b21a6993c3921621c1eecd5b62749d0680730539052bd2f757d",
                    "receiptTrie" : "0xaafea22a12a4fee02325566013babfb2238c3d8608e9a796d162c73b3055662c",
                    "stateRoot" : "0x6d7ac9bb26585d54dcb879c740a894748a0257013d68e591689913d53f7448ad",
                    "timestamp" : "0x3e8",
                    "transactionsTrie" : "0x16cbc8afc8525db919967ec8f4d2049118028858f060c8d3080831777f3b7869",
                    "uncleHash" : "0x1dcc4de8dec75d7aab85b567b6ccd41ad312451b948a7413f0a142fd40d49347"
                },
                "transactions" : [
                    {
                        "data" : "0x",
                        "gasLimit" : "0x0186a0",
                        "gasPrice" : "0x5af3107a4000",
                        "nonce" : "0x00",
                        "to" : "0x0f572e5295c57f15886f9b263e2f6d2d6c7b5ec6",
                        "value" : "0x0de0b6b3a7640000",
                        "v" : "0x1b",
                        "r" : "0x95e48b6cdb342026b8bf5c3fa3eacf4044e3c1f6865edc2f2fe471a4dfa00caf",
                        "s" : "0x7dc3ff02760c8839631cdbcb9ac82f7322a6e28f3b8ab5f5ecaaec983425cf20"
                    }
                ]
            }
        ]
    }
}