{
    "randomStatetest414_d0g0v0_Istanbul" : {
        "_info" : {
            "comment" : "",
            "filling-rpc-server" : "Geth-1.9.6-unstable-63b18027-20190920",
            "filling-tool-version" : "retesteth-0.0.1+commit.0ae18aef.Linux.g++",
            "lllcversion" : "Version: 0.5.12-develop.2019.9.13+commit.2d601a4f.Linux.g++",
            "source" : "src/GeneralStateTestsFiller/stRandom2/randomStatetest414Filler.json",
            "sourceHash" : "5d41d0fea3adebd7d802ddf5c89d1c5ba5e2b7706f096cb7f4f70b8a06f66f75"
        },
        "genesisBlockHeader" : {
            "bloom" : "0x00000000000000000000000000000000000000000000000000000000000000000000000000000000000000000000000000000000000000000000000000000000000000000000000000000000000000000000000000000000000000000000000000000000000000000000000000000000000000000000000000000000000000000000000000000000000000000000000000000000000000000000000000000000000000000000000000000000000000000000000000000000000000000000000000000000000000000000000000000000000000000000000000000000000000000000000000000000000000000000000000000000000000000000000000000000",
            "coinbase" : "0x945304eb96065b2a98b57a48a06ae28d285a71b5",
            "difficulty" : "0x20000",
            "extraData" : "0x00",
            "gasLimit" : "0x7fffffffffffffff",
            "gasUsed" : "0x0",
            "hash" : "0xb765ed96aeccc2513f70c9fcdc8acd0c05053017e118f923ab363564894f277c",
            "mixHash" : "0x0000000000000000000000000000000000000000000000000000000000000000",
            "nonce" : "0x0000000000000000",
            "number" : "0x0",
            "parentHash" : "0x0000000000000000000000000000000000000000000000000000000000000000",
            "receiptTrie" : "0x56e81f171bcc55a6ff8345e692c0f86e5b48e01b996cadc001622fb5e363b421",
            "stateRoot" : "0x2d93a00dba208cbd6892edfd3e8e1105f171712d9beb2021d2af61c7a273d383",
            "timestamp" : "0x0",
            "transactionsTrie" : "0x56e81f171bcc55a6ff8345e692c0f86e5b48e01b996cadc001622fb5e363b421",
            "uncleHash" : "0x1dcc4de8dec75d7aab85b567b6ccd41ad312451b948a7413f0a142fd40d49347"
        },
        "pre" : {
            "0x095e7baea6a6c7c4c2dfeb977efac326af552d87" : {
                "balance" : "0x00",
                "code" : "0x7fffffffffffffffffffffffffffffffffffffffffffffffffffffffffffffffff6251437f0000000000000000000000010000000000000000000000000000000000000000437f000000000000000000000000fffffffffffffffffffffffffffffffffffffffff11460005155",
                "nonce" : "0x00",
                "storage" : {
                }
            },
            "0x945304eb96065b2a98b57a48a06ae28d285a71b5" : {
                "balance" : "0x2e",
                "code" : "0x6000355415600957005b60203560003555",
                "nonce" : "0x00",
                "storage" : {
                }
            },
            "0xa94f5374fce5edbc8e2a8697c15331677e6ebf0b" : {
                "balance" : "0x0de0b6b3a7640000",
                "code" : "0x",
                "nonce" : "0x00",
                "storage" : {
                }
            }
        },
        "postState" : {
            "0xa94f5374fce5edbc8e2a8697c15331677e6ebf0b" : {
                "code" : "0x",
                "nonce" : "0x01",
                "balance" : "0x0de0b6b3667bdd3d",
                "storage" : {
                }
            },
            "0x095e7baea6a6c7c4c2dfeb977efac326af552d87" : {
                "code" : "0x7fffffffffffffffffffffffffffffffffffffffffffffffffffffffffffffffff6251437f0000000000000000000000010000000000000000000000000000000000000000437f000000000000000000000000fffffffffffffffffffffffffffffffffffffffff11460005155",
                "nonce" : "0x00",
                "balance" : "0x40e7cc29",
                "storage" : {
                }
            },
            "0x945304eb96065b2a98b57a48a06ae28d285a71b5" : {
                "code" : "0x6000355415600957005b60203560003555",
                "nonce" : "0x00",
                "balance" : "0x1bc16d674ec856c8",
                "storage" : {
                }
            }
        },
        "network" : "Istanbul",
        "sealEngine" : "NoProof",
        "lastblockhash" : "0x526ec5ff859add0397d8b3495fc5a84326c6572cbf76140afa0c238695b6d998",
        "genesisRLP" : "0xf901fdf901f8a00000000000000000000000000000000000000000000000000000000000000000a01dcc4de8dec75d7aab85b567b6ccd41ad312451b948a7413f0a142fd40d4934794945304eb96065b2a98b57a48a06ae28d285a71b5a02d93a00dba208cbd6892edfd3e8e1105f171712d9beb2021d2af61c7a273d383a056e81f171bcc55a6ff8345e692c0f86e5b48e01b996cadc001622fb5e363b421a056e81f171bcc55a6ff8345e692c0f86e5b48e01b996cadc001622fb5e363b421b90100000000000000000000000000000000000000000000000000000000000000000000000000000000000000000000000000000000000000000000000000000000000000000000000000000000000000000000000000000000000000000000000000000000000000000000000000000000000000000000000000000000000000000000000000000000000000000000000000000000000000000000000000000000000000000000000000000000000000000000000000000000000000000000000000000000000000000000000000000000000000000000000000000000000000000000000000000000000000000000000000000000000000000000000000000000008302000080887fffffffffffffff808000a00000000000000000000000000000000000000000000000000000000000000000880000000000000000c0c0",
        "blocks" : [
            {
                "rlp" : "0xf902d3f901fca0b765ed96aeccc2513f70c9fcdc8acd0c05053017e118f923ab363564894f277ca01dcc4de8dec75d7aab85b567b6ccd41ad312451b948a7413f0a142fd40d4934794945304eb96065b2a98b57a48a06ae28d285a71b5a072c8779ce9dbada0426b2b267d5cedc2e5d1758bae45af90678376397c46b906a052011debc6ff8851f013ce864b580caf00171a9759ea9f838e9f81314f06ee07a0b64a571798e676d872bbc477c56abc2c12e6653c3791b847c40ae127e2de0302b90100000000000000000000000000000000000000000000000000000000000000000000000000000000000000000000000000000000000000000000000000000000000000000000000000000000000000000000000000000000000000000000000000000000000000000000000000000000000000000000000000000000000000000000000000000000000000000000000000000000000000000000000000000000000000000000000000000000000000000000000000000000000000000000000000000000000000000000000000000000000000000000000000000000000000000000000000000000000000000000000000000000000000000000000000000000008302000001887fffffffffffffff82569a8203e800a00000000000000000000000000000000000000000000000000000000000000000880000000000000000f8d1f8cf800184487b0e6d94095e7baea6a6c7c4c2dfeb977efac326af552d878440e7cc29b8697fffffffffffffffffffffffffffffffffffffffffffffffffffffffffffffffff6251437f0000000000000000000000010000000000000000000000000000000000000000437f000000000000000000000000fffffffffffffffffffffffffffffffffffffffff1141ba08a24f7b36a4e5548cc0e56b7a78b148301ad27900c07439b3cae2ae5783cf368a03397e8c8aa0186e4aaf59e7c2f8189a171591af6e8b0dcc078843a736ca8fd52c0",
                "blockHeader" : {
                    "bloom" : "0x00000000000000000000000000000000000000000000000000000000000000000000000000000000000000000000000000000000000000000000000000000000000000000000000000000000000000000000000000000000000000000000000000000000000000000000000000000000000000000000000000000000000000000000000000000000000000000000000000000000000000000000000000000000000000000000000000000000000000000000000000000000000000000000000000000000000000000000000000000000000000000000000000000000000000000000000000000000000000000000000000000000000000000000000000000000",
                    "coinbase" : "0x945304eb96065b2a98b57a48a06ae28d285a71b5",
                    "difficulty" : "0x20000",
                    "extraData" : "0x00",
                    "gasLimit" : "0x7fffffffffffffff",
                    "gasUsed" : "0x569a",
                    "hash" : "0x526ec5ff859add0397d8b3495fc5a84326c6572cbf76140afa0c238695b6d998",
                    "mixHash" : "0x0000000000000000000000000000000000000000000000000000000000000000",
                    "nonce" : "0x0000000000000000",
                    "number" : "0x1",
                    "parentHash" : "0xb765ed96aeccc2513f70c9fcdc8acd0c05053017e118f923ab363564894f277c",
                    "receiptTrie" : "0xb64a571798e676d872bbc477c56abc2c12e6653c3791b847c40ae127e2de0302",
                    "stateRoot" : "0x72c8779ce9dbada0426b2b267d5cedc2e5d1758bae45af90678376397c46b906",
                    "timestamp" : "0x3e8",
                    "transactionsTrie" : "0x52011debc6ff8851f013ce864b580caf00171a9759ea9f838e9f81314f06ee07",
                    "uncleHash" : "0x1dcc4de8dec75d7aab85b567b6ccd41ad312451b948a7413f0a142fd40d49347"
                },
                "transactions" : [
                    {
                        "data" : "0x7fffffffffffffffffffffffffffffffffffffffffffffffffffffffffffffffff6251437f0000000000000000000000010000000000000000000000000000000000000000437f000000000000000000000000fffffffffffffffffffffffffffffffffffffffff114",
                        "gasLimit" : "0x487b0e6d",
                        "gasPrice" : "0x01",
                        "nonce" : "0x00",
                        "to" : "0x095e7baea6a6c7c4c2dfeb977efac326af552d87",
                        "value" : "0x40e7cc29",
                        "v" : "0x1b",
                        "r" : "0x8a24f7b36a4e5548cc0e56b7a78b148301ad27900c07439b3cae2ae5783cf368",
                        "s" : "0x3397e8c8aa0186e4aaf59e7c2f8189a171591af6e8b0dcc078843a736ca8fd52"
                    }
                ]
            }
        ]
    }
}