{
    "randomStatetest587_d0g0v0_Istanbul" : {
        "_info" : {
            "comment" : "",
            "filling-rpc-server" : "Geth-1.9.6-unstable-63b18027-20190920",
            "filling-tool-version" : "retesteth-0.0.1+commit.0ae18aef.Linux.g++",
            "lllcversion" : "Version: 0.5.12-develop.2019.9.13+commit.2d601a4f.Linux.g++",
            "source" : "src/GeneralStateTestsFiller/stRandom2/randomStatetest587Filler.json",
            "sourceHash" : "5f3b551d84fe5e8c831713d1ac800bbcfa88a503f4f51fccfb1293637977d8eb"
        },
        "genesisBlockHeader" : {
            "bloom" : "0x00000000000000000000000000000000000000000000000000000000000000000000000000000000000000000000000000000000000000000000000000000000000000000000000000000000000000000000000000000000000000000000000000000000000000000000000000000000000000000000000000000000000000000000000000000000000000000000000000000000000000000000000000000000000000000000000000000000000000000000000000000000000000000000000000000000000000000000000000000000000000000000000000000000000000000000000000000000000000000000000000000000000000000000000000000000",
            "coinbase" : "0x945304eb96065b2a98b57a48a06ae28d285a71b5",
            "difficulty" : "0x20000",
            "extraData" : "0x00",
            "gasLimit" : "0x7fffffffffffffff",
            "gasUsed" : "0x0",
            "hash" : "0x8f52624c5bfe3558aeeac0c52cc7cf5dda2053cb1ec612e4a83ae17b6ba8c6f7",
            "mixHash" : "0x0000000000000000000000000000000000000000000000000000000000000000",
            "nonce" : "0x0000000000000000",
            "number" : "0x0",
            "parentHash" : "0x0000000000000000000000000000000000000000000000000000000000000000",
            "receiptTrie" : "0x56e81f171bcc55a6ff8345e692c0f86e5b48e01b996cadc001622fb5e363b421",
            "stateRoot" : "0xe561b33cb88edc81bbf0015984112c17db52e56f8cd23aa0c7ce26f574149517",
            "timestamp" : "0x0",
            "transactionsTrie" : "0x56e81f171bcc55a6ff8345e692c0f86e5b48e01b996cadc001622fb5e363b421",
            "uncleHash" : "0x1dcc4de8dec75d7aab85b567b6ccd41ad312451b948a7413f0a142fd40d49347"
        },
        "pre" : {
            "0x095e7baea6a6c7c4c2dfeb977efac326af552d87" : {
                "balance" : "0x00",
                "code" : "0x7f000000000000000000000000945304eb96065b2a98b57a48a06ae28d285a71b57ffffffffffffffffffffffffffffffffffffffffffffffffffffffffffffffffe7f00000000000000000000000000000000000000000000000000000000000000007f000000000000000000000000000000000000000000000000000000000000c350117f0000000000000000000000000000000000000000000000000000000000000001457f000000000000000000000000945304eb96065b2a98b57a48a06ae28d285a71b56f8b7152a3958a923c1665b27557089a5560005155",
                "nonce" : "0x00",
                "storage" : {
                }
            },
            "0x945304eb96065b2a98b57a48a06ae28d285a71b5" : {
                "balance" : "0x2e",
                "code" : "0x6000355415600957005b60203560003555",
                "nonce" : "0x00",
                "storage" : {
                }
            },
            "0xa94f5374fce5edbc8e2a8697c15331677e6ebf0b" : {
                "balance" : "0x0de0b6b3a7640000",
                "code" : "0x",
                "nonce" : "0x00",
                "storage" : {
                }
            }
        },
        "postState" : {
            "0xa94f5374fce5edbc8e2a8697c15331677e6ebf0b" : {
                "code" : "0x",
                "nonce" : "0x01",
                "balance" : "0x0de0b6b3960313a1",
                "storage" : {
                }
            },
            "0x095e7baea6a6c7c4c2dfeb977efac326af552d87" : {
                "code" : "0x7f000000000000000000000000945304eb96065b2a98b57a48a06ae28d285a71b57ffffffffffffffffffffffffffffffffffffffffffffffffffffffffffffffffe7f00000000000000000000000000000000000000000000000000000000000000007f000000000000000000000000000000000000000000000000000000000000c350117f0000000000000000000000000000000000000000000000000000000000000001457f000000000000000000000000945304eb96065b2a98b57a48a06ae28d285a71b56f8b7152a3958a923c1665b27557089a5560005155",
                "nonce" : "0x00",
                "balance" : "0x11604410",
                "storage" : {
                    "0x00" : "0x8b7152a3958a923c1665b27557089a55"
                }
            },
            "0x945304eb96065b2a98b57a48a06ae28d285a71b5" : {
                "code" : "0x6000355415600957005b60203560003555",
                "nonce" : "0x00",
                "balance" : "0x1bc16d674ec8a87d",
                "storage" : {
                }
            }
        },
        "network" : "Istanbul",
        "sealEngine" : "NoProof",
        "lastblockhash" : "0x2e502a4d47b29065f1123b5089fc13570b7a74edb74b7e2386d2b89156b47610",
        "genesisRLP" : "0xf901fdf901f8a00000000000000000000000000000000000000000000000000000000000000000a01dcc4de8dec75d7aab85b567b6ccd41ad312451b948a7413f0a142fd40d4934794945304eb96065b2a98b57a48a06ae28d285a71b5a0e561b33cb88edc81bbf0015984112c17db52e56f8cd23aa0c7ce26f574149517a056e81f171bcc55a6ff8345e692c0f86e5b48e01b996cadc001622fb5e363b421a056e81f171bcc55a6ff8345e692c0f86e5b48e01b996cadc001622fb5e363b421b90100000000000000000000000000000000000000000000000000000000000000000000000000000000000000000000000000000000000000000000000000000000000000000000000000000000000000000000000000000000000000000000000000000000000000000000000000000000000000000000000000000000000000000000000000000000000000000000000000000000000000000000000000000000000000000000000000000000000000000000000000000000000000000000000000000000000000000000000000000000000000000000000000000000000000000000000000000000000000000000000000000000000000000000000000000000008302000080887fffffffffffffff808000a00000000000000000000000000000000000000000000000000000000000000000880000000000000000c0c0",
        "blocks" : [
            {
                "rlp" : "0xf90344f901fca08f52624c5bfe3558aeeac0c52cc7cf5dda2053cb1ec612e4a83ae17b6ba8c6f7a01dcc4de8dec75d7aab85b567b6ccd41ad312451b948a7413f0a142fd40d4934794945304eb96065b2a98b57a48a06ae28d285a71b5a09a956facbbb08b493e36aa0b9d3628ff8a95daec963e72f0b0a830b674402fd0a05db9548533a27a2d292f833de924f8199484e34c3ae86579a030ebae39727708a09313e101d8b5a2a8a36b62af8b8acf975baa13c0b77c840bc60d50f9afa2d438b90100000000000000000000000000000000000000000000000000000000000000000000000000000000000000000000000000000000000000000000000000000000000000000000000000000000000000000000000000000000000000000000000000000000000000000000000000000000000000000000000000000000000000000000000000000000000000000000000000000000000000000000000000000000000000000000000000000000000000000000000000000000000000000000000000000000000000000000000000000000000000000000000000000000000000000000000000000000000000000000000000000000000000000000000000000000008302000001887fffffffffffffff82a84f8203e800a00000000000000000000000000000000000000000000000000000000000000000880000000000000000f90141f9013e80018479afcd8f94095e7baea6a6c7c4c2dfeb977efac326af552d878411604410b8d87f000000000000000000000000945304eb96065b2a98b57a48a06ae28d285a71b57ffffffffffffffffffffffffffffffffffffffffffffffffffffffffffffffffe7f00000000000000000000000000000000000000000000000000000000000000007f000000000000000000000000000000000000000000000000000000000000c350117f0000000000000000000000000000000000000000000000000000000000000001457f000000000000000000000000945304eb96065b2a98b57a48a06ae28d285a71b56f8b7152a3958a923c1665b27557089a1ca0be4e336636a8362bbe451ccb2ec50d3a5e189a129643bef43ebc9b8754d39e69a0415382f0bb381e1c2a799ba2c597539faa0dca994247fa3424aa60193667bc25c0",
                "blockHeader" : {
                    "bloom" : "0x00000000000000000000000000000000000000000000000000000000000000000000000000000000000000000000000000000000000000000000000000000000000000000000000000000000000000000000000000000000000000000000000000000000000000000000000000000000000000000000000000000000000000000000000000000000000000000000000000000000000000000000000000000000000000000000000000000000000000000000000000000000000000000000000000000000000000000000000000000000000000000000000000000000000000000000000000000000000000000000000000000000000000000000000000000000",
                    "coinbase" : "0x945304eb96065b2a98b57a48a06ae28d285a71b5",
                    "difficulty" : "0x20000",
                    "extraData" : "0x00",
                    "gasLimit" : "0x7fffffffffffffff",
                    "gasUsed" : "0xa84f",
                    "hash" : "0x2e502a4d47b29065f1123b5089fc13570b7a74edb74b7e2386d2b89156b47610",
                    "mixHash" : "0x0000000000000000000000000000000000000000000000000000000000000000",
                    "nonce" : "0x0000000000000000",
                    "number" : "0x1",
                    "parentHash" : "0x8f52624c5bfe3558aeeac0c52cc7cf5dda2053cb1ec612e4a83ae17b6ba8c6f7",
                    "receiptTrie" : "0x9313e101d8b5a2a8a36b62af8b8acf975baa13c0b77c840bc60d50f9afa2d438",
                    "stateRoot" : "0x9a956facbbb08b493e36aa0b9d3628ff8a95daec963e72f0b0a830b674402fd0",
                    "timestamp" : "0x3e8",
                    "transactionsTrie" : "0x5db9548533a27a2d292f833de924f8199484e34c3ae86579a030ebae39727708",
                    "uncleHash" : "0x1dcc4de8dec75d7aab85b567b6ccd41ad312451b948a7413f0a142fd40d49347"
                },
                "transactions" : [
                    {
                        "data" : "0x7f000000000000000000000000945304eb96065b2a98b57a48a06ae28d285a71b57ffffffffffffffffffffffffffffffffffffffffffffffffffffffffffffffffe7f00000000000000000000000000000000000000000000000000000000000000007f000000000000000000000000000000000000000000000000000000000000c350117f0000000000000000000000000000000000000000000000000000000000000001457f000000000000000000000000945304eb96065b2a98b57a48a06ae28d285a71b56f8b7152a3958a923c1665b27557089a",
                        "gasLimit" : "0x79afcd8f",
                        "gasPrice" : "0x01",
                        "nonce" : "0x00",
                        "to" : "0x095e7baea6a6c7c4c2dfeb977efac326af552d87",
                        "value" : "0x11604410",
                        "v" : "0x1c",
                        "r" : "0xbe4e336636a8362bbe451ccb2ec50d3a5e189a129643bef43ebc9b8754d39e69",
                        "s" : "0x415382f0bb381e1c2a799ba2c597539faa0dca994247fa3424aa60193667bc25"
                    }
                ]
            }
        ]
    }
}