{
    "randomStatetest642_d0g0v0_Istanbul" : {
        "_info" : {
            "comment" : "",
            "filling-rpc-server" : "Geth-1.9.6-unstable-63b18027-20190920",
            "filling-tool-version" : "retesteth-0.0.1+commit.0ae18aef.Linux.g++",
            "lllcversion" : "Version: 0.5.12-develop.2019.9.13+commit.2d601a4f.Linux.g++",
            "source" : "src/GeneralStateTestsFiller/stRandom2/randomStatetest642Filler.json",
            "sourceHash" : "88b10cc0924719621332a020c04e21145c17b6ace61ba76dbea91545988ca799"
        },
        "genesisBlockHeader" : {
            "bloom" : "0x00000000000000000000000000000000000000000000000000000000000000000000000000000000000000000000000000000000000000000000000000000000000000000000000000000000000000000000000000000000000000000000000000000000000000000000000000000000000000000000000000000000000000000000000000000000000000000000000000000000000000000000000000000000000000000000000000000000000000000000000000000000000000000000000000000000000000000000000000000000000000000000000000000000000000000000000000000000000000000000000000000000000000000000000000000000",
            "coinbase" : "0xa94f5374fce5edbc8e2a8697c15331677e6ebf0b",
            "difficulty" : "0x20000",
            "extraData" : "0x00",
            "gasLimit" : "0x406fbe7b1f887c",
            "gasUsed" : "0x0",
            "hash" : "0x87a051d64badfd7378b839875ec16708ebb04e8bbe15a1e84d4414ac292d972a",
            "mixHash" : "0x0000000000000000000000000000000000000000000000000000000000000000",
            "nonce" : "0x0000000000000000",
            "number" : "0x0",
            "parentHash" : "0x0000000000000000000000000000000000000000000000000000000000000000",
            "receiptTrie" : "0x56e81f171bcc55a6ff8345e692c0f86e5b48e01b996cadc001622fb5e363b421",
            "stateRoot" : "0x3e84b73f77d055a6aabc3000dd511e2f136c6c14381b48e1658eae96b32d7fc5",
            "timestamp" : "0x0",
            "transactionsTrie" : "0x56e81f171bcc55a6ff8345e692c0f86e5b48e01b996cadc001622fb5e363b421",
            "uncleHash" : "0x1dcc4de8dec75d7aab85b567b6ccd41ad312451b948a7413f0a142fd40d49347"
        },
        "pre" : {
            "0xa94f5374fce5edbc8e2a8697c15331677e6ebf0b" : {
                "balance" : "0x26551a696cacb206",
                "code" : "0x",
                "nonce" : "0x00",
                "storage" : {
                }
            },
            "0xb94f5374fce5edbc8e2a8697c15331677e6ebf0b" : {
                "balance" : "0x577686e8d1344340",
                "code" : "0x62f46a4f547b169c9edf92f4b39273fe47accc75d1209ae58463c2585607ce051ff6714c4f0fbf6de0659784434fb240652ff52d08576408f168a43a6651f765a4788a05537086290691d5a3239db43eefea96b0012ea26534e99e4ba9ee7f92f37fa731707f800683bafb70815757d861ad8cc6804154ce5b9de3146b58cd53",
                "nonce" : "0x70",
                "storage" : {
                }
            },
            "0xc94f5374fce5edbc8e2a8697c15331677e6ebf0b" : {
                "balance" : "0x11bae0bb79d6a164",
                "code" : "0x",
                "nonce" : "0xa3",
                "storage" : {
                }
            }
        },
        "postState" : {
            "0xa94f5374fce5edbc8e2a8697c15331677e6ebf0b" : {
                "code" : "0x",
                "nonce" : "0x01",
                "balance" : "0x421687d0bb74b206",
                "storage" : {
                }
            },
            "0xc94f5374fce5edbc8e2a8697c15331677e6ebf0b" : {
                "code" : "0x",
                "nonce" : "0xa3",
                "balance" : "0x11bae0bb79d6a164",
                "storage" : {
                }
            },
            "0xb94f5374fce5edbc8e2a8697c15331677e6ebf0b" : {
                "code" : "0x62f46a4f547b169c9edf92f4b39273fe47accc75d1209ae58463c2585607ce051ff6714c4f0fbf6de0659784434fb240652ff52d08576408f168a43a6651f765a4788a05537086290691d5a3239db43eefea96b0012ea26534e99e4ba9ee7f92f37fa731707f800683bafb70815757d861ad8cc6804154ce5b9de3146b58cd53",
                "nonce" : "0x70",
                "balance" : "0x577686e8d1344340",
                "storage" : {
                }
            }
        },
        "network" : "Istanbul",
        "sealEngine" : "NoProof",
        "lastblockhash" : "0xbf94224bedd38ad1773c8edf74a14d91a13b44d71093ee4935966adef42f1f3e",
        "genesisRLP" : "0xf901fcf901f7a00000000000000000000000000000000000000000000000000000000000000000a01dcc4de8dec75d7aab85b567b6ccd41ad312451b948a7413f0a142fd40d4934794a94f5374fce5edbc8e2a8697c15331677e6ebf0ba03e84b73f77d055a6aabc3000dd511e2f136c6c14381b48e1658eae96b32d7fc5a056e81f171bcc55a6ff8345e692c0f86e5b48e01b996cadc001622fb5e363b421a056e81f171bcc55a6ff8345e692c0f86e5b48e01b996cadc001622fb5e363b421b9010000000000000000000000000000000000000000000000000000000000000000000000000000000000000000000000000000000000000000000000000000000000000000000000000000000000000000000000000000000000000000000000000000000000000000000000000000000000000000000000000000000000000000000000000000000000000000000000000000000000000000000000000000000000000000000000000000000000000000000000000000000000000000000000000000000000000000000000000000000000000000000000000000000000000000000000000000000000000000000000000000000000000000000000000000000000830200008087406fbe7b1f887c808000a00000000000000000000000000000000000000000000000000000000000000000880000000000000000c0c0",
        "blocks" : [
            {
                "rlp" : "0xf903e6f901fca087a051d64badfd7378b839875ec16708ebb04e8bbe15a1e84d4414ac292d972aa01dcc4de8dec75d7aab85b567b6ccd41ad312451b948a7413f0a142fd40d4934794a94f5374fce5edbc8e2a8697c15331677e6ebf0ba0f9436be79698b76d51bd83ff0c872bc13a0977adccbdcab9b8c247faf1e785daa082c6350171af0224f986059d7d04426dc26c5a27c97c4a4e3b4f6b396e089508a0cee336bc137cc894b7d225d6ae9c37338f0a677188e3c111f81d5e058c1883b1b9010000000000000000000000000000000000000000000000000000000000000000000000000000000000000000000000000000000000000000000000000000000000000000000000000000000000000000000000000000000000000000000000000000000000000000000000000000000000000000000000000000000000000000000000000000000000000000000000000000000000000000000000000000000000000000000000000000000000000000000000000000000000000000000000000000000000000000000000000000000000000000000000000000000000000000000000000000000000000000000000000000000000000000000000000000000000830200000187407fda6abe505d834ac88d8203e800a00000000000000000000000000000000000000000000000000000000000000000880000000000000000f901e3f901e08009834ac88d94000000000000000000000000000000000000000784f5e5cc4bb9017a73ac858c3531a0d29ea7a15dfca264e244056b35816eb2fa5e8b941bb7e03e269017ca7b29556e2c50a4525c68460af5ba912653059274ec9907faed7f4ceacf55ed7b50228e7e26e7113d6751750964de40c9f5bb9f378e19edc3fd6ffd6af7ee7710107f382df318b8e1c707719add3db4b00892ddfba9f3e970c8aa9b41f208c53bf041556585635e6534916c5ec0ba7162ea7979164bb27d007c198e1e50cb945b54a4dca4ac110de1a1d47f43fa61c9a6e916d30c3e89695e77cb0da0bcea3bd98260927c609b5782488c5d7e06f07fc67aa5f1cb3c2d7ee74a4054d94e0108b3c962a00fb567a505e96a974f83567a74b898ddd6136e1e6634e4c85cb37db14f98d0080ac548e092928b6eee8d6863592d990f9298d7040cfa486e4e881b0f19eb06892d2185cc0b295d7f2669f00ac67c30de107cd324610a5af8bb29d11354783888e7b8ba5ab533f959729b6e25886d426bbf4cd00626cffbc0ec6beb6a62ae0d9e7166a6303d22036c2b3d45e88057940ada00938e1ca027a167b51603c27cb91457f04b5d928891e8f0a7937918407366119806868bd1a021b173e64899b588eba239968efa815aa2c9aaafb49f65c02a89500003df523cc0",
                "blockHeader" : {
                    "bloom" : "0x00000000000000000000000000000000000000000000000000000000000000000000000000000000000000000000000000000000000000000000000000000000000000000000000000000000000000000000000000000000000000000000000000000000000000000000000000000000000000000000000000000000000000000000000000000000000000000000000000000000000000000000000000000000000000000000000000000000000000000000000000000000000000000000000000000000000000000000000000000000000000000000000000000000000000000000000000000000000000000000000000000000000000000000000000000000",
                    "coinbase" : "0xa94f5374fce5edbc8e2a8697c15331677e6ebf0b",
                    "difficulty" : "0x20000",
                    "extraData" : "0x00",
                    "gasLimit" : "0x407fda6abe505d",
                    "gasUsed" : "0x4ac88d",
                    "hash" : "0xbf94224bedd38ad1773c8edf74a14d91a13b44d71093ee4935966adef42f1f3e",
                    "mixHash" : "0x0000000000000000000000000000000000000000000000000000000000000000",
                    "nonce" : "0x0000000000000000",
                    "number" : "0x1",
                    "parentHash" : "0x87a051d64badfd7378b839875ec16708ebb04e8bbe15a1e84d4414ac292d972a",
                    "receiptTrie" : "0xcee336bc137cc894b7d225d6ae9c37338f0a677188e3c111f81d5e058c1883b1",
                    "stateRoot" : "0xf9436be79698b76d51bd83ff0c872bc13a0977adccbdcab9b8c247faf1e785da",
                    "timestamp" : "0x3e8",
                    "transactionsTrie" : "0x82c6350171af0224f986059d7d04426dc26c5a27c97c4a4e3b4f6b396e089508",
                    "uncleHash" : "0x1dcc4de8dec75d7aab85b567b6ccd41ad312451b948a7413f0a142fd40d49347"
                },
                "transactions" : [
                    {
                        "data" : "0x73ac858c3531a0d29ea7a15dfca264e244056b35816eb2fa5e8b941bb7e03e269017ca7b29556e2c50a4525c68460af5ba912653059274ec9907faed7f4ceacf55ed7b50228e7e26e7113d6751750964de40c9f5bb9f378e19edc3fd6ffd6af7ee7710107f382df318b8e1c707719add3db4b00892ddfba9f3e970c8aa9b41f208c53bf041556585635e6534916c5ec0ba7162ea7979164bb27d007c198e1e50cb945b54a4dca4ac110de1a1d47f43fa61c9a6e916d30c3e89695e77cb0da0bcea3bd98260927c609b5782488c5d7e06f07fc67aa5f1cb3c2d7ee74a4054d94e0108b3c962a00fb567a505e96a974f83567a74b898ddd6136e1e6634e4c85cb37db14f98d0080ac548e092928b6eee8d6863592d990f9298d7040cfa486e4e881b0f19eb06892d2185cc0b295d7f2669f00ac67c30de107cd324610a5af8bb29d11354783888e7b8ba5ab533f959729b6e25886d426bbf4cd00626cffbc0ec6beb6a62ae0d9e7166a6303d22036c2b3d45e88057940ada00938e",
                        "gasLimit" : "0x4ac88d",
                        "gasPrice" : "0x09",
                        "nonce" : "0x00",
                        "to" : "0x0000000000000000000000000000000000000007",
                        "value" : "0xf5e5cc4b",
                        "v" : "0x1c",
                        "r" : "0x27a167b51603c27cb91457f04b5d928891e8f0a7937918407366119806868bd1",
                        "s" : "0x21b173e64899b588eba239968efa815aa2c9aaafb49f65c02a89500003df523c"
                    }
                ]
            }
        ]
    }
}