{
    "randomStatetest535_d0g0v0_Istanbul" : {
        "_info" : {
            "comment" : "",
            "filling-rpc-server" : "Geth-1.9.6-unstable-63b18027-20190920",
            "filling-tool-version" : "retesteth-0.0.1+commit.0ae18aef.Linux.g++",
            "lllcversion" : "Version: 0.5.12-develop.2019.9.13+commit.2d601a4f.Linux.g++",
            "source" : "src/GeneralStateTestsFiller/stRandom2/randomStatetest535Filler.json",
            "sourceHash" : "756099cfeeb5b181cc896b48a1f41dfb6807f1dead2465ef516180d157ff2a70"
        },
        "genesisBlockHeader" : {
            "bloom" : "0x00000000000000000000000000000000000000000000000000000000000000000000000000000000000000000000000000000000000000000000000000000000000000000000000000000000000000000000000000000000000000000000000000000000000000000000000000000000000000000000000000000000000000000000000000000000000000000000000000000000000000000000000000000000000000000000000000000000000000000000000000000000000000000000000000000000000000000000000000000000000000000000000000000000000000000000000000000000000000000000000000000000000000000000000000000000",
            "coinbase" : "0x945304eb96065b2a98b57a48a06ae28d285a71b5",
            "difficulty" : "0x20000",
            "extraData" : "0x00",
            "gasLimit" : "0x7fffffffffffffff",
            "gasUsed" : "0x0",
            "hash" : "0x58a6ca30e1b547f54f3fbc0fb7bdad896bf8cf5cbd960b585588d8e441da75f1",
            "mixHash" : "0x0000000000000000000000000000000000000000000000000000000000000000",
            "nonce" : "0x0000000000000000",
            "number" : "0x0",
            "parentHash" : "0x0000000000000000000000000000000000000000000000000000000000000000",
            "receiptTrie" : "0x56e81f171bcc55a6ff8345e692c0f86e5b48e01b996cadc001622fb5e363b421",
            "stateRoot" : "0x3871eba22016dbff28a05e73d5cc73bee884aebc07d273c30511900cef6f9c5d",
            "timestamp" : "0x0",
            "transactionsTrie" : "0x56e81f171bcc55a6ff8345e692c0f86e5b48e01b996cadc001622fb5e363b421",
            "uncleHash" : "0x1dcc4de8dec75d7aab85b567b6ccd41ad312451b948a7413f0a142fd40d49347"
        },
        "pre" : {
            "0x095e7baea6a6c7c4c2dfeb977efac326af552d87" : {
                "balance" : "0x00",
                "code" : "0x7f00000000000000000000000100000000000000000000000000000000000000007ffffffffffffffffffffffffffffffffffffffffffffffffffffffffffffffffe7ffffffffffffffffffffffffffffffffffffffffffffffffffffffffffffffffe7f00000000000000000000000000000000000000000000000000000000000000017f00000000000000000000000000000000000000000000000000000000000000017f000000000000000000000000945304eb96065b2a98b57a48a06ae28d285a71b57f00000000000000000000000100000000000000000000000000000000000000007f000000000000000000000000000000000000000000000000000000000000000055",
                "nonce" : "0x00",
                "storage" : {
                }
            },
            "0x945304eb96065b2a98b57a48a06ae28d285a71b5" : {
                "balance" : "0x2e",
                "code" : "0x6000355415600957005b60203560003555",
                "nonce" : "0x00",
                "storage" : {
                }
            },
            "0xa94f5374fce5edbc8e2a8697c15331677e6ebf0b" : {
                "balance" : "0x0de0b6b3a7640000",
                "code" : "0x",
                "nonce" : "0x00",
                "storage" : {
                }
            }
        },
        "postState" : {
            "0xa94f5374fce5edbc8e2a8697c15331677e6ebf0b" : {
                "code" : "0x",
                "nonce" : "0x01",
                "balance" : "0x0de0b6b35a8e7af0",
                "storage" : {
                }
            },
            "0x095e7baea6a6c7c4c2dfeb977efac326af552d87" : {
                "code" : "0x7f00000000000000000000000100000000000000000000000000000000000000007ffffffffffffffffffffffffffffffffffffffffffffffffffffffffffffffffe7ffffffffffffffffffffffffffffffffffffffffffffffffffffffffffffffffe7f00000000000000000000000000000000000000000000000000000000000000017f00000000000000000000000000000000000000000000000000000000000000017f000000000000000000000000945304eb96065b2a98b57a48a06ae28d285a71b57f00000000000000000000000100000000000000000000000000000000000000007f000000000000000000000000000000000000000000000000000000000000000055",
                "nonce" : "0x00",
                "balance" : "0x4cd4dc30",
                "storage" : {
                    "0x00" : "0x010000000000000000000000000000000000000000"
                }
            },
            "0x945304eb96065b2a98b57a48a06ae28d285a71b5" : {
                "code" : "0x6000355415600957005b60203560003555",
                "nonce" : "0x00",
                "balance" : "0x1bc16d674ec8a90e",
                "storage" : {
                }
            }
        },
        "network" : "Istanbul",
        "sealEngine" : "NoProof",
        "lastblockhash" : "0x1383688c1d5dc3de8068cfbb6dda0d07d061477699f2aa510bee092759ce1ebb",
        "genesisRLP" : "0xf901fdf901f8a00000000000000000000000000000000000000000000000000000000000000000a01dcc4de8dec75d7aab85b567b6ccd41ad312451b948a7413f0a142fd40d4934794945304eb96065b2a98b57a48a06ae28d285a71b5a03871eba22016dbff28a05e73d5cc73bee884aebc07d273c30511900cef6f9c5da056e81f171bcc55a6ff8345e692c0f86e5b48e01b996cadc001622fb5e363b421a056e81f171bcc55a6ff8345e692c0f86e5b48e01b996cadc001622fb5e363b421b90100000000000000000000000000000000000000000000000000000000000000000000000000000000000000000000000000000000000000000000000000000000000000000000000000000000000000000000000000000000000000000000000000000000000000000000000000000000000000000000000000000000000000000000000000000000000000000000000000000000000000000000000000000000000000000000000000000000000000000000000000000000000000000000000000000000000000000000000000000000000000000000000000000000000000000000000000000000000000000000000000000000000000000000000000000000008302000080887fffffffffffffff808000a00000000000000000000000000000000000000000000000000000000000000000880000000000000000c0c0",
        "blocks" : [
            {
                "rlp" : "0xf90375f901fca058a6ca30e1b547f54f3fbc0fb7bdad896bf8cf5cbd960b585588d8e441da75f1a01dcc4de8dec75d7aab85b567b6ccd41ad312451b948a7413f0a142fd40d4934794945304eb96065b2a98b57a48a06ae28d285a71b5a0abfc6f971bb8a7252d32a1742d4fc91d49c761c5945f39d93d5ec1c480ba4149a0fb8c4f25b08740902f4d4a874bd434562e7c2628c842a5cd5125f3d6cdde8785a0b179e40aefa6c0dc70fec8de020871017a86e2758dd3b1a34249b2933d005853b90100000000000000000000000000000000000000000000000000000000000000000000000000000000000000000000000000000000000000000000000000000000000000000000000000000000000000000000000000000000000000000000000000000000000000000000000000000000000000000000000000000000000000000000000000000000000000000000000000000000000000000000000000000000000000000000000000000000000000000000000000000000000000000000000000000000000000000000000000000000000000000000000000000000000000000000000000000000000000000000000000000000000000000000000000000000008302000001887fffffffffffffff82a8e08203e800a00000000000000000000000000000000000000000000000000000000000000000880000000000000000f90172f9016f800184172b6eeb94095e7baea6a6c7c4c2dfeb977efac326af552d87844cd4dc30b901087f00000000000000000000000100000000000000000000000000000000000000007ffffffffffffffffffffffffffffffffffffffffffffffffffffffffffffffffe7ffffffffffffffffffffffffffffffffffffffffffffffffffffffffffffffffe7f00000000000000000000000000000000000000000000000000000000000000017f00000000000000000000000000000000000000000000000000000000000000017f000000000000000000000000945304eb96065b2a98b57a48a06ae28d285a71b57f00000000000000000000000100000000000000000000000000000000000000007f00000000000000000000000000000000000000000000000000000000000000001ba0953b253ed51c23bd99a9fc0ff02afff097350770cb2940582c754ca8ce0ad1aca04020584298a1f6e4fbad3ec3e5ca4fb2c88adaf055ed365d2b1355aefde7fee2c0",
                "blockHeader" : {
                    "bloom" : "0x00000000000000000000000000000000000000000000000000000000000000000000000000000000000000000000000000000000000000000000000000000000000000000000000000000000000000000000000000000000000000000000000000000000000000000000000000000000000000000000000000000000000000000000000000000000000000000000000000000000000000000000000000000000000000000000000000000000000000000000000000000000000000000000000000000000000000000000000000000000000000000000000000000000000000000000000000000000000000000000000000000000000000000000000000000000",
                    "coinbase" : "0x945304eb96065b2a98b57a48a06ae28d285a71b5",
                    "difficulty" : "0x20000",
                    "extraData" : "0x00",
                    "gasLimit" : "0x7fffffffffffffff",
                    "gasUsed" : "0xa8e0",
                    "hash" : "0x1383688c1d5dc3de8068cfbb6dda0d07d061477699f2aa510bee092759ce1ebb",
                    "mixHash" : "0x0000000000000000000000000000000000000000000000000000000000000000",
                    "nonce" : "0x0000000000000000",
                    "number" : "0x1",
                    "parentHash" : "0x58a6ca30e1b547f54f3fbc0fb7bdad896bf8cf5cbd960b585588d8e441da75f1",
                    "receiptTrie" : "0xb179e40aefa6c0dc70fec8de020871017a86e2758dd3b1a34249b2933d005853",
                    "stateRoot" : "0xabfc6f971bb8a7252d32a1742d4fc91d49c761c5945f39d93d5ec1c480ba4149",
                    "timestamp" : "0x3e8",
                    "transactionsTrie" : "0xfb8c4f25b08740902f4d4a874bd434562e7c2628c842a5cd5125f3d6cdde8785",
                    "uncleHash" : "0x1dcc4de8dec75d7aab85b567b6ccd41ad312451b948a7413f0a142fd40d49347"
                },
                "transactions" : [
                    {
                        "data" : "0x7f00000000000000000000000100000000000000000000000000000000000000007ffffffffffffffffffffffffffffffffffffffffffffffffffffffffffffffffe7ffffffffffffffffffffffffffffffffffffffffffffffffffffffffffffffffe7f00000000000000000000000000000000000000000000000000000000000000017f00000000000000000000000000000000000000000000000000000000000000017f000000000000000000000000945304eb96065b2a98b57a48a06ae28d285a71b57f00000000000000000000000100000000000000000000000000000000000000007f0000000000000000000000000000000000000000000000000000000000000000",
                        "gasLimit" : "0x172b6eeb",
                        "gasPrice" : "0x01",
                        "nonce" : "0x00",
                        "to" : "0x095e7baea6a6c7c4c2dfeb977efac326af552d87",
                        "value" : "0x4cd4dc30",
                        "v" : "0x1b",
                        "r" : "0x953b253ed51c23bd99a9fc0ff02afff097350770cb2940582c754ca8ce0ad1ac",
                        "s" : "0x4020584298a1f6e4fbad3ec3e5ca4fb2c88adaf055ed365d2b1355aefde7fee2"
                    }
                ]
            }
        ]
    }
}