{
    "randomStatetest554_d0g0v0_Istanbul" : {
        "_info" : {
            "comment" : "",
            "filling-rpc-server" : "Geth-1.9.6-unstable-63b18027-20190920",
            "filling-tool-version" : "retesteth-0.0.1+commit.0ae18aef.Linux.g++",
            "lllcversion" : "Version: 0.5.12-develop.2019.9.13+commit.2d601a4f.Linux.g++",
            "source" : "src/GeneralStateTestsFiller/stRandom2/randomStatetest554Filler.json",
            "sourceHash" : "cfe9f68b67823f9cccac748c3c4b8844fbeb7204936af05ec63dc7e4d70d970d"
        },
        "genesisBlockHeader" : {
            "bloom" : "0x00000000000000000000000000000000000000000000000000000000000000000000000000000000000000000000000000000000000000000000000000000000000000000000000000000000000000000000000000000000000000000000000000000000000000000000000000000000000000000000000000000000000000000000000000000000000000000000000000000000000000000000000000000000000000000000000000000000000000000000000000000000000000000000000000000000000000000000000000000000000000000000000000000000000000000000000000000000000000000000000000000000000000000000000000000000",
            "coinbase" : "0x945304eb96065b2a98b57a48a06ae28d285a71b5",
            "difficulty" : "0x20000",
            "extraData" : "0x00",
            "gasLimit" : "0x7fffffffffffffff",
            "gasUsed" : "0x0",
            "hash" : "0x6edc35c623c18af560c86c422654617d387c3d3ee857e1dd42dd5189b9ad240b",
            "mixHash" : "0x0000000000000000000000000000000000000000000000000000000000000000",
            "nonce" : "0x0000000000000000",
            "number" : "0x0",
            "parentHash" : "0x0000000000000000000000000000000000000000000000000000000000000000",
            "receiptTrie" : "0x56e81f171bcc55a6ff8345e692c0f86e5b48e01b996cadc001622fb5e363b421",
            "stateRoot" : "0xe11873a018901d45f810c848c2f17628e09c08de1c63af6eef7b09b65ee88602",
            "timestamp" : "0x0",
            "transactionsTrie" : "0x56e81f171bcc55a6ff8345e692c0f86e5b48e01b996cadc001622fb5e363b421",
            "uncleHash" : "0x1dcc4de8dec75d7aab85b567b6ccd41ad312451b948a7413f0a142fd40d49347"
        },
        "pre" : {
            "0x095e7baea6a6c7c4c2dfeb977efac326af552d87" : {
                "balance" : "0x00",
                "code" : "0x601460dca06029728b67ba4c2fc8c63c46f19bb45a4be3f678b30669ba571e944074c21b140a7a65d14a921ec804a45ecf4d952aa923fb23a0574acd8ef9f82c7db17e157f651bbeb520203bd398160345137b0419a395630fce1a7ed24c0cccfd91766140e0682f6bd571db701b4616b567f215faf42fb37d2a7c43c05a634612322eda99f09cc2907a6cba01bb6869b7d24b897ec43b9b63a8747a897af14c1f4c0b186c6311d36de86b8c8172aa43c3dfe3ea16503380877fa7f32deb9f60254d124338105942b4b5b88c443351de5ebf14c2380f4a91327d68a0da66abd627db75739942675f5855728fd677646cafec536e37d0da8122cf8681bc106013601b600360086307efe33a73095e7baea6a6c7c4c2dfeb977efac326af552d8763176fe819f16566b603cccf387c5f10e5cdb2ba1b456d2a0386ee72ddf3ff65b33a551afa423f8af05e347b5c50b6fe69c77f0682ef890d8ed8ab3833f128389f6407911fb20590642c9765e97c7f31dfa251377a47ca45b72ce5c1896a697990d60a01cabaf5e4d8f55f11fd37427351d1f8e89810c7aeec6482fd03d7e7ca58fbaae361e3936936543d6dacb1f97f19c3721866491bad73f32faea37b4a8c273668e04dff8863a542e11775a693c3b4bcd4fc1a87ddb6450f8f6c2f1ba807aaffb67e62af22cd93175b5ffb428ee9116dad4a695aa514b8ca4d615fd728a61c124c796554a98241320ac2d6b9f16ee1c203dbba537a211142df4c2e626e4108f87ab6d5b8e9ce86f92aba50a47acc60d734e7a066131d99dad149451b386120eed210723bd8304caa61048c67512ca417ae8857a46ad24ca1f2cb75f75ef86a927152bd86981a216d8147f49ead4be46967dd10751491f9f1ac2f50fd5dad394b7838a9eb89b372698362647bddbb90586e4e921a8cc96ea0c50d07da472b3e6360a39c",
                "nonce" : "0x00",
                "storage" : {
                }
            },
            "0x945304eb96065b2a98b57a48a06ae28d285a71b5" : {
                "balance" : "0x2e",
                "code" : "0x6000355415600957005b60203560003555",
                "nonce" : "0x00",
                "storage" : {
                }
            },
            "0xa94f5374fce5edbc8e2a8697c15331677e6ebf0b" : {
                "balance" : "0x0de0b6b3a7640000",
                "code" : "0x",
                "nonce" : "0x00",
                "storage" : {
                }
            }
        },
        "postState" : {
            "0xa94f5374fce5edbc8e2a8697c15331677e6ebf0b" : {
                "code" : "0x",
                "nonce" : "0x01",
                "balance" : "0x0de0b6b35edbccaa",
                "storage" : {
                }
            },
            "0x095e7baea6a6c7c4c2dfeb977efac326af552d87" : {
                "code" : "0x601460dca06029728b67ba4c2fc8c63c46f19bb45a4be3f678b30669ba571e944074c21b140a7a65d14a921ec804a45ecf4d952aa923fb23a0574acd8ef9f82c7db17e157f651bbeb520203bd398160345137b0419a395630fce1a7ed24c0cccfd91766140e0682f6bd571db701b4616b567f215faf42fb37d2a7c43c05a634612322eda99f09cc2907a6cba01bb6869b7d24b897ec43b9b63a8747a897af14c1f4c0b186c6311d36de86b8c8172aa43c3dfe3ea16503380877fa7f32deb9f60254d124338105942b4b5b88c443351de5ebf14c2380f4a91327d68a0da66abd627db75739942675f5855728fd677646cafec536e37d0da8122cf8681bc106013601b600360086307efe33a73095e7baea6a6c7c4c2dfeb977efac326af552d8763176fe819f16566b603cccf387c5f10e5cdb2ba1b456d2a0386ee72ddf3ff65b33a551afa423f8af05e347b5c50b6fe69c77f0682ef890d8ed8ab3833f128389f6407911fb20590642c9765e97c7f31dfa251377a47ca45b72ce5c1896a697990d60a01cabaf5e4d8f55f11fd37427351d1f8e89810c7aeec6482fd03d7e7ca58fbaae361e3936936543d6dacb1f97f19c3721866491bad73f32faea37b4a8c273668e04dff8863a542e11775a693c3b4bcd4fc1a87ddb6450f8f6c2f1ba807aaffb67e62af22cd93175b5ffb428ee9116dad4a695aa514b8ca4d615fd728a61c124c796554a98241320ac2d6b9f16ee1c203dbba537a211142df4c2e626e4108f87ab6d5b8e9ce86f92aba50a47acc60d734e7a066131d99dad149451b386120eed210723bd8304caa61048c67512ca417ae8857a46ad24ca1f2cb75f75ef86a927152bd86981a216d8147f49ead4be46967dd10751491f9f1ac2f50fd5dad394b7838a9eb89b372698362647bddbb90586e4e921a8cc96ea0c50d07da472b3e6360a39c",
                "nonce" : "0x00",
                "balance" : "0x485341cc",
                "storage" : {
                }
            },
            "0x945304eb96065b2a98b57a48a06ae28d285a71b5" : {
                "code" : "0x6000355415600957005b60203560003555",
                "nonce" : "0x00",
                "balance" : "0x1bc16d674efcf1b8",
                "storage" : {
                }
            }
        },
        "network" : "Istanbul",
        "sealEngine" : "NoProof",
        "lastblockhash" : "0x25f69fc3393ad8fb12f2123118539a0fccaf03082d4fa355666906a012bc359a",
        "genesisRLP" : "0xf901fdf901f8a00000000000000000000000000000000000000000000000000000000000000000a01dcc4de8dec75d7aab85b567b6ccd41ad312451b948a7413f0a142fd40d4934794945304eb96065b2a98b57a48a06ae28d285a71b5a0e11873a018901d45f810c848c2f17628e09c08de1c63af6eef7b09b65ee88602a056e81f171bcc55a6ff8345e692c0f86e5b48e01b996cadc001622fb5e363b421a056e81f171bcc55a6ff8345e692c0f86e5b48e01b996cadc001622fb5e363b421b90100000000000000000000000000000000000000000000000000000000000000000000000000000000000000000000000000000000000000000000000000000000000000000000000000000000000000000000000000000000000000000000000000000000000000000000000000000000000000000000000000000000000000000000000000000000000000000000000000000000000000000000000000000000000000000000000000000000000000000000000000000000000000000000000000000000000000000000000000000000000000000000000000000000000000000000000000000000000000000000000000000000000000000000000000000000008302000080887fffffffffffffff808000a00000000000000000000000000000000000000000000000000000000000000000880000000000000000c0c0",
        "blocks" : [
            {
                "rlp" : "0xf90527f901fda06edc35c623c18af560c86c422654617d387c3d3ee857e1dd42dd5189b9ad240ba01dcc4de8dec75d7aab85b567b6ccd41ad312451b948a7413f0a142fd40d4934794945304eb96065b2a98b57a48a06ae28d285a71b5a03ea5c638ab636291c08108fe7cf81eb2e57b6e492b14c77b96554434e3283ea3a0163fe610b38823241cb7922af844cc3b3d71e093b9b80fe4168942de90b6cba3a051451376363e50ce9be13b54b340365806acf49332fe81029c359f014aff633ab90100000000000000000010000000000000000000000000000000000000000000000000000000000000000000000000000000000000000000000000000000000000000000000000000000000000000000000000000000000000000000000000000000000000000000000000000000000000000000000000000000000000000000000000000000000000000000000000000000000000000000000000000000000000000000000000000000040000000000000000000000000000000000000000000000000000000000000000000000000000000000000000000000000000000000000000000000400000000000000000000000000000000000000000000000000000008302000001887fffffffffffffff8334f18a8203e800a00000000000000000000000000000000000000000000000000000000000000000880000000000000000f90323f903208001846dfddcf194095e7baea6a6c7c4c2dfeb977efac326af552d8784485341ccb902b9336e88fae59ccc17cac0ec3a4a984fcdc77c2ba8961cb09c97e4f874f69667ea58bce674fe4d474c8898fff5b73e6a7e25d7d5e25ccea0601ea15066d5497deee377fccbfcf7d46f462eb9d2fe6a3782658a9ffd73aa457677100ca7d35d68df5ee8465c2ca2af480e6e3cb204021b6ae2234a9f3462784bb45c4f087003c9352268b7e9890647fba7f034faad2663bfb15f1e0b7381d4fe5d7ba9c59455e62fe93c8cca7dd3f20d81644c2494b098686d466eb0fec9f497f163bdf627d76f49e3d1b74b142996652c0d53f709553560656e36e89deb34f32a7b7b5dfb3b309d57704dfa8c0ec20f2c0f70e1761c949c14c6fd619d947e42f23136ff517ac0b92f6df9d2989eb6828d7213a0b9a20959957ade2b1c1f6222920664c7ddf31a037c866146cabefec6c2f9f02d050c2ec8ef5da91eb65cc7d0b0d7eb3654407e7cb3eae4ea612eb678374b229c0e0fcc178293fd5d500210352eea769ccafa6c7a7e444322c60c241a937bbcf365ba988cb9f0628f7a33e43ba75bc44c38707ca76e02d3ff70e772c56dc9b9bcfd8116b972e66b6a28583e9f272065e9b7f112858c5f71c66dd37755c458bd56109d4dec2015b23774fa549dd52567557117d2fbda2a4f53cbd065fc9b907736d432b2730969562ce445fd6f9dcf91e092390173406e5b047944eafa8607c63c7e79aa872e5ce29de18e48ed9a62f440a0d4d4651d624ff767ac7fc52281bc7fec896a501952622f30e718b484e56e8ca7ab57c2ef2a6d37944e14759a52961dda795af1e984eea7d2689937b0a76ab8494b7acf579c90a0eb949199c0f87e566759722c0799c2c03a027b51a87372e64f7a1fb661d72eac23f2dc691d34981660bf7cfa421c5bf5e3225a4653ae7e0e43bfe4af206d4e69635b55c24537fe20705e010f348d477b1aef6aeb2388b508a44e640353e169a37221ba3dcf805c6a9ebe283a53e9dcbaee4081a0981ba0629d3575d9894f5b3146127de9adb647b271ea5675f81e91b494e9e9041a780ea01183b062c827af93e284ed747f3234b72f6d4438e3b2267bd77e1effe92c991bc0",
                "blockHeader" : {
                    "bloom" : "0x00000000000000001000000000000000000000000000000000000000000000000000000000000000000000000000000000000000000000000000000000000000000000000000000000000000000000000000000000000000000000000000000000000000000000000000000000000000000000000000000000000000000000000000000000000000000000000000000000000000000000000000000000000000000000000000000004000000000000000000000000000000000000000000000000000000000000000000000000000000000000000000000000000000000000000000000040000000000000000000000000000000000000000000000000000000",
                    "coinbase" : "0x945304eb96065b2a98b57a48a06ae28d285a71b5",
                    "difficulty" : "0x20000",
                    "extraData" : "0x00",
                    "gasLimit" : "0x7fffffffffffffff",
                    "gasUsed" : "0x34f18a",
                    "hash" : "0x25f69fc3393ad8fb12f2123118539a0fccaf03082d4fa355666906a012bc359a",
                    "mixHash" : "0x0000000000000000000000000000000000000000000000000000000000000000",
                    "nonce" : "0x0000000000000000",
                    "number" : "0x1",
                    "parentHash" : "0x6edc35c623c18af560c86c422654617d387c3d3ee857e1dd42dd5189b9ad240b",
                    "receiptTrie" : "0x51451376363e50ce9be13b54b340365806acf49332fe81029c359f014aff633a",
                    "stateRoot" : "0x3ea5c638ab636291c08108fe7cf81eb2e57b6e492b14c77b96554434e3283ea3",
                    "timestamp" : "0x3e8",
                    "transactionsTrie" : "0x163fe610b38823241cb7922af844cc3b3d71e093b9b80fe4168942de90b6cba3",
                    "uncleHash" : "0x1dcc4de8dec75d7aab85b567b6ccd41ad312451b948a7413f0a142fd40d49347"
                },
                "transactions" : [
                    {
                        "data" : "0x336e88fae59ccc17cac0ec3a4a984fcdc77c2ba8961cb09c97e4f874f69667ea58bce674fe4d474c8898fff5b73e6a7e25d7d5e25ccea0601ea15066d5497deee377fccbfcf7d46f462eb9d2fe6a3782658a9ffd73aa457677100ca7d35d68df5ee8465c2ca2af480e6e3cb204021b6ae2234a9f3462784bb45c4f087003c9352268b7e9890647fba7f034faad2663bfb15f1e0b7381d4fe5d7ba9c59455e62fe93c8cca7dd3f20d81644c2494b098686d466eb0fec9f497f163bdf627d76f49e3d1b74b142996652c0d53f709553560656e36e89deb34f32a7b7b5dfb3b309d57704dfa8c0ec20f2c0f70e1761c949c14c6fd619d947e42f23136ff517ac0b92f6df9d2989eb6828d7213a0b9a20959957ade2b1c1f6222920664c7ddf31a037c866146cabefec6c2f9f02d050c2ec8ef5da91eb65cc7d0b0d7eb3654407e7cb3eae4ea612eb678374b229c0e0fcc178293fd5d500210352eea769ccafa6c7a7e444322c60c241a937bbcf365ba988cb9f0628f7a33e43ba75bc44c38707ca76e02d3ff70e772c56dc9b9bcfd8116b972e66b6a28583e9f272065e9b7f112858c5f71c66dd37755c458bd56109d4dec2015b23774fa549dd52567557117d2fbda2a4f53cbd065fc9b907736d432b2730969562ce445fd6f9dcf91e092390173406e5b047944eafa8607c63c7e79aa872e5ce29de18e48ed9a62f440a0d4d4651d624ff767ac7fc52281bc7fec896a501952622f30e718b484e56e8ca7ab57c2ef2a6d37944e14759a52961dda795af1e984eea7d2689937b0a76ab8494b7acf579c90a0eb949199c0f87e566759722c0799c2c03a027b51a87372e64f7a1fb661d72eac23f2dc691d34981660bf7cfa421c5bf5e3225a4653ae7e0e43bfe4af206d4e69635b55c24537fe20705e010f348d477b1aef6aeb2388b508a44e640353e169a37221ba3dcf805c6a9ebe283a53e9dcbaee4081a098",
                        "gasLimit" : "0x6dfddcf1",
                        "gasPrice" : "0x01",
                        "nonce" : "0x00",
                        "to" : "0x095e7baea6a6c7c4c2dfeb977efac326af552d87",
                        "value" : "0x485341cc",
                        "v" : "0x1b",
                        "r" : "0x629d3575d9894f5b3146127de9adb647b271ea5675f81e91b494e9e9041a780e",
                        "s" : "0x1183b062c827af93e284ed747f3234b72f6d4438e3b2267bd77e1effe92c991b"
                    }
                ]
            }
        ]
    }
}