{
    "randomStatetest541_d0g0v0_Istanbul" : {
        "_info" : {
            "comment" : "",
            "filling-rpc-server" : "Geth-1.9.6-unstable-63b18027-20190920",
            "filling-tool-version" : "retesteth-0.0.1+commit.0ae18aef.Linux.g++",
            "lllcversion" : "Version: 0.5.12-develop.2019.9.13+commit.2d601a4f.Linux.g++",
            "source" : "src/GeneralStateTestsFiller/stRandom2/randomStatetest541Filler.json",
            "sourceHash" : "4f34aa9859b7085cc1816591ad73998851c7d5d39da52616eed3f4d9dee6cefe"
        },
        "genesisBlockHeader" : {
            "bloom" : "0x00000000000000000000000000000000000000000000000000000000000000000000000000000000000000000000000000000000000000000000000000000000000000000000000000000000000000000000000000000000000000000000000000000000000000000000000000000000000000000000000000000000000000000000000000000000000000000000000000000000000000000000000000000000000000000000000000000000000000000000000000000000000000000000000000000000000000000000000000000000000000000000000000000000000000000000000000000000000000000000000000000000000000000000000000000000",
            "coinbase" : "0x945304eb96065b2a98b57a48a06ae28d285a71b5",
            "difficulty" : "0x20000",
            "extraData" : "0x00",
            "gasLimit" : "0x7fffffffffffffff",
            "gasUsed" : "0x0",
            "hash" : "0x46adf5a5a177e43a7f985bab3488f014b84717fa58ba197be2953adc84c6ad38",
            "mixHash" : "0x0000000000000000000000000000000000000000000000000000000000000000",
            "nonce" : "0x0000000000000000",
            "number" : "0x0",
            "parentHash" : "0x0000000000000000000000000000000000000000000000000000000000000000",
            "receiptTrie" : "0x56e81f171bcc55a6ff8345e692c0f86e5b48e01b996cadc001622fb5e363b421",
            "stateRoot" : "0x7fa25e29171223a05f12bbf2dcad24383f05a2feb5ca3b3dadb97efca7997b12",
            "timestamp" : "0x0",
            "transactionsTrie" : "0x56e81f171bcc55a6ff8345e692c0f86e5b48e01b996cadc001622fb5e363b421",
            "uncleHash" : "0x1dcc4de8dec75d7aab85b567b6ccd41ad312451b948a7413f0a142fd40d49347"
        },
        "pre" : {
            "0x095e7baea6a6c7c4c2dfeb977efac326af552d87" : {
                "balance" : "0x00",
                "code" : "0x7f000000000000000000000000ffffffffffffffffffffffffffffffffffffffff457f000000000000000000000000000000000000000000000000000000000000c3507f00000000000000000000000000000000000000000000000000000000000000017f00000000000000000000000000000000000000000000000000000000000000007f00000000000000000000000100000000000000000000000000000000000000004335696e089257368d07897d57350b105560005155",
                "nonce" : "0x00",
                "storage" : {
                }
            },
            "0x945304eb96065b2a98b57a48a06ae28d285a71b5" : {
                "balance" : "0x2e",
                "code" : "0x6000355415600957005b60203560003555",
                "nonce" : "0x00",
                "storage" : {
                }
            },
            "0xa94f5374fce5edbc8e2a8697c15331677e6ebf0b" : {
                "balance" : "0x0de0b6b3a7640000",
                "code" : "0x",
                "nonce" : "0x00",
                "storage" : {
                }
            }
        },
        "postState" : {
            "0xa94f5374fce5edbc8e2a8697c15331677e6ebf0b" : {
                "code" : "0x",
                "nonce" : "0x01",
                "balance" : "0x0de0b6b38810c476",
                "storage" : {
                }
            },
            "0x095e7baea6a6c7c4c2dfeb977efac326af552d87" : {
                "code" : "0x7f000000000000000000000000ffffffffffffffffffffffffffffffffffffffff457f000000000000000000000000000000000000000000000000000000000000c3507f00000000000000000000000000000000000000000000000000000000000000017f00000000000000000000000000000000000000000000000000000000000000007f00000000000000000000000100000000000000000000000000000000000000004335696e089257368d07897d57350b105560005155",
                "nonce" : "0x00",
                "balance" : "0x1f529315",
                "storage" : {
                    "0x00" : "0x01"
                }
            },
            "0x945304eb96065b2a98b57a48a06ae28d285a71b5" : {
                "code" : "0x6000355415600957005b60203560003555",
                "nonce" : "0x00",
                "balance" : "0x1bc16d674ec8a8a3",
                "storage" : {
                }
            }
        },
        "network" : "Istanbul",
        "sealEngine" : "NoProof",
        "lastblockhash" : "0xfc9ff73276370cc3d867a2196ca74657886d4f3713111053571b4284722c003b",
        "genesisRLP" : "0xf901fdf901f8a00000000000000000000000000000000000000000000000000000000000000000a01dcc4de8dec75d7aab85b567b6ccd41ad312451b948a7413f0a142fd40d4934794945304eb96065b2a98b57a48a06ae28d285a71b5a07fa25e29171223a05f12bbf2dcad24383f05a2feb5ca3b3dadb97efca7997b12a056e81f171bcc55a6ff8345e692c0f86e5b48e01b996cadc001622fb5e363b421a056e81f171bcc55a6ff8345e692c0f86e5b48e01b996cadc001622fb5e363b421b90100000000000000000000000000000000000000000000000000000000000000000000000000000000000000000000000000000000000000000000000000000000000000000000000000000000000000000000000000000000000000000000000000000000000000000000000000000000000000000000000000000000000000000000000000000000000000000000000000000000000000000000000000000000000000000000000000000000000000000000000000000000000000000000000000000000000000000000000000000000000000000000000000000000000000000000000000000000000000000000000000000000000000000000000000000000008302000080887fffffffffffffff808000a00000000000000000000000000000000000000000000000000000000000000000880000000000000000c0c0",
        "blocks" : [
            {
                "rlp" : "0xf90322f901fca046adf5a5a177e43a7f985bab3488f014b84717fa58ba197be2953adc84c6ad38a01dcc4de8dec75d7aab85b567b6ccd41ad312451b948a7413f0a142fd40d4934794945304eb96065b2a98b57a48a06ae28d285a71b5a0e9bc47594f89e867fc701dbe75976c0c6f771626d25bb4f85427a25df4db3ab6a0742e246b7e80cdd672e4a9092b1c3644a24d1a4059cef2856453e639603a97b1a03696998367476b7190f838eb5b3c7953cc8f185c7204ef9ed01442b28ba5dd03b90100000000000000000000000000000000000000000000000000000000000000000000000000000000000000000000000000000000000000000000000000000000000000000000000000000000000000000000000000000000000000000000000000000000000000000000000000000000000000000000000000000000000000000000000000000000000000000000000000000000000000000000000000000000000000000000000000000000000000000000000000000000000000000000000000000000000000000000000000000000000000000000000000000000000000000000000000000000000000000000000000000000000000000000000000000000008302000001887fffffffffffffff82a8758203e800a00000000000000000000000000000000000000000000000000000000000000000880000000000000000f9011ff9011c8001847b88a39094095e7baea6a6c7c4c2dfeb977efac326af552d87841f529315b8b67f000000000000000000000000ffffffffffffffffffffffffffffffffffffffff457f000000000000000000000000000000000000000000000000000000000000c3507f00000000000000000000000000000000000000000000000000000000000000017f00000000000000000000000000000000000000000000000000000000000000007f00000000000000000000000100000000000000000000000000000000000000004335696e089257368d07897d57350b101ca06a0df9afadf1f1a7247cd37296ce014ed0cf49657541acfbff441ab4dc81f46ea0536c619573ec09e63d85dac614cd2773da55776321a543935ce9ea78658f0ccec0",
                "blockHeader" : {
                    "bloom" : "0x00000000000000000000000000000000000000000000000000000000000000000000000000000000000000000000000000000000000000000000000000000000000000000000000000000000000000000000000000000000000000000000000000000000000000000000000000000000000000000000000000000000000000000000000000000000000000000000000000000000000000000000000000000000000000000000000000000000000000000000000000000000000000000000000000000000000000000000000000000000000000000000000000000000000000000000000000000000000000000000000000000000000000000000000000000000",
                    "coinbase" : "0x945304eb96065b2a98b57a48a06ae28d285a71b5",
                    "difficulty" : "0x20000",
                    "extraData" : "0x00",
                    "gasLimit" : "0x7fffffffffffffff",
                    "gasUsed" : "0xa875",
                    "hash" : "0xfc9ff73276370cc3d867a2196ca74657886d4f3713111053571b4284722c003b",
                    "mixHash" : "0x0000000000000000000000000000000000000000000000000000000000000000",
                    "nonce" : "0x0000000000000000",
                    "number" : "0x1",
                    "parentHash" : "0x46adf5a5a177e43a7f985bab3488f014b84717fa58ba197be2953adc84c6ad38",
                    "receiptTrie" : "0x3696998367476b7190f838eb5b3c7953cc8f185c7204ef9ed01442b28ba5dd03",
                    "stateRoot" : "0xe9bc47594f89e867fc701dbe75976c0c6f771626d25bb4f85427a25df4db3ab6",
                    "timestamp" : "0x3e8",
                    "transactionsTrie" : "0x742e246b7e80cdd672e4a9092b1c3644a24d1a4059cef2856453e639603a97b1",
                    "uncleHash" : "0x1dcc4de8dec75d7aab85b567b6ccd41ad312451b948a7413f0a142fd40d49347"
                },
                "transactions" : [
                    {
                        "data" : "0x7f000000000000000000000000ffffffffffffffffffffffffffffffffffffffff457f000000000000000000000000000000000000000000000000000000000000c3507f00000000000000000000000000000000000000000000000000000000000000017f00000000000000000000000000000000000000000000000000000000000000007f00000000000000000000000100000000000000000000000000000000000000004335696e089257368d07897d57350b10",
                        "gasLimit" : "0x7b88a390",
                        "gasPrice" : "0x01",
                        "nonce" : "0x00",
                        "to" : "0x095e7baea6a6c7c4c2dfeb977efac326af552d87",
                        "value" : "0x1f529315",
                        "v" : "0x1c",
                        "r" : "0x6a0df9afadf1f1a7247cd37296ce014ed0cf49657541acfbff441ab4dc81f46e",
                        "s" : "0x536c619573ec09e63d85dac614cd2773da55776321a543935ce9ea78658f0cce"
                    }
                ]
            }
        ]
    }
}