{
    "randomStatetest477_d0g0v0_Istanbul" : {
        "_info" : {
            "comment" : "",
            "filling-rpc-server" : "Geth-1.9.6-unstable-63b18027-20190920",
            "filling-tool-version" : "retesteth-0.0.1+commit.0ae18aef.Linux.g++",
            "lllcversion" : "Version: 0.5.12-develop.2019.9.13+commit.2d601a4f.Linux.g++",
            "source" : "src/GeneralStateTestsFiller/stRandom2/randomStatetest477Filler.json",
            "sourceHash" : "fd3dc5b7c08aa52084b723e6f294d1fec98648e8e906a3f4ca70e83f20d39348"
        },
        "genesisBlockHeader" : {
            "bloom" : "0x00000000000000000000000000000000000000000000000000000000000000000000000000000000000000000000000000000000000000000000000000000000000000000000000000000000000000000000000000000000000000000000000000000000000000000000000000000000000000000000000000000000000000000000000000000000000000000000000000000000000000000000000000000000000000000000000000000000000000000000000000000000000000000000000000000000000000000000000000000000000000000000000000000000000000000000000000000000000000000000000000000000000000000000000000000000",
            "coinbase" : "0x945304eb96065b2a98b57a48a06ae28d285a71b5",
            "difficulty" : "0x20000",
            "extraData" : "0x00",
            "gasLimit" : "0x7fffffffffffffff",
            "gasUsed" : "0x0",
            "hash" : "0xa73534091f5e0be6e0ea51298c741a4e94ecf2d708b8cf77a24d0d7a66f25aac",
            "mixHash" : "0x0000000000000000000000000000000000000000000000000000000000000000",
            "nonce" : "0x0000000000000000",
            "number" : "0x0",
            "parentHash" : "0x0000000000000000000000000000000000000000000000000000000000000000",
            "receiptTrie" : "0x56e81f171bcc55a6ff8345e692c0f86e5b48e01b996cadc001622fb5e363b421",
            "stateRoot" : "0xd33337bbfcfa9d17d827d6c211365ce3528ed8af7601b92fc465f9c6589f9bd5",
            "timestamp" : "0x0",
            "transactionsTrie" : "0x56e81f171bcc55a6ff8345e692c0f86e5b48e01b996cadc001622fb5e363b421",
            "uncleHash" : "0x1dcc4de8dec75d7aab85b567b6ccd41ad312451b948a7413f0a142fd40d49347"
        },
        "pre" : {
            "0x095e7baea6a6c7c4c2dfeb977efac326af552d87" : {
                "balance" : "0x00",
                "code" : "0x7f000000000000000000000000945304eb96065b2a98b57a48a06ae28d285a71b57f00000000000000000000000000000000000000000000000000000000000000017f000000000000000000000000ffffffffffffffffffffffffffffffffffffffff7fffffffffffffffffffffffffffffffffffffffffffffffffffffffffffffffff7f00000000000000000000000000000000000000000000000000000000000000017f0000000000000000000000000000000000000000000000000000000000000001417ffffffffffffffffffffffffffffffffffffffffffffffffffffffffffffffffe6f9084a3758d3456763aa4f09c8b735b5560005155",
                "nonce" : "0x00",
                "storage" : {
                }
            },
            "0x945304eb96065b2a98b57a48a06ae28d285a71b5" : {
                "balance" : "0x2e",
                "code" : "0x6000355415600957005b60203560003555",
                "nonce" : "0x00",
                "storage" : {
                }
            },
            "0xa94f5374fce5edbc8e2a8697c15331677e6ebf0b" : {
                "balance" : "0x0de0b6b3a7640000",
                "code" : "0x",
                "nonce" : "0x00",
                "storage" : {
                }
            }
        },
        "postState" : {
            "0xa94f5374fce5edbc8e2a8697c15331677e6ebf0b" : {
                "code" : "0x",
                "nonce" : "0x01",
                "balance" : "0x0de0b6b3a6b9aadc",
                "storage" : {
                }
            },
            "0x095e7baea6a6c7c4c2dfeb977efac326af552d87" : {
                "code" : "0x7f000000000000000000000000945304eb96065b2a98b57a48a06ae28d285a71b57f00000000000000000000000000000000000000000000000000000000000000017f000000000000000000000000ffffffffffffffffffffffffffffffffffffffff7fffffffffffffffffffffffffffffffffffffffffffffffffffffffffffffffff7f00000000000000000000000000000000000000000000000000000000000000017f0000000000000000000000000000000000000000000000000000000000000001417ffffffffffffffffffffffffffffffffffffffffffffffffffffffffffffffffe6f9084a3758d3456763aa4f09c8b735b5560005155",
                "nonce" : "0x00",
                "balance" : "0xa9aad5",
                "storage" : {
                    "0x00" : "0x9084a3758d3456763aa4f09c8b735b55"
                }
            },
            "0x945304eb96065b2a98b57a48a06ae28d285a71b5" : {
                "code" : "0x6000355415600957005b60203560003555",
                "nonce" : "0x00",
                "balance" : "0x1bc16d674ec8aa7d",
                "storage" : {
                }
            }
        },
        "network" : "Istanbul",
        "sealEngine" : "NoProof",
        "lastblockhash" : "0x3b8362c7462ce41130814d2ee45512d3e9cbde94cc5478b512d4307a51b5e1af",
        "genesisRLP" : "0xf901fdf901f8a00000000000000000000000000000000000000000000000000000000000000000a01dcc4de8dec75d7aab85b567b6ccd41ad312451b948a7413f0a142fd40d4934794945304eb96065b2a98b57a48a06ae28d285a71b5a0d33337bbfcfa9d17d827d6c211365ce3528ed8af7601b92fc465f9c6589f9bd5a056e81f171bcc55a6ff8345e692c0f86e5b48e01b996cadc001622fb5e363b421a056e81f171bcc55a6ff8345e692c0f86e5b48e01b996cadc001622fb5e363b421b90100000000000000000000000000000000000000000000000000000000000000000000000000000000000000000000000000000000000000000000000000000000000000000000000000000000000000000000000000000000000000000000000000000000000000000000000000000000000000000000000000000000000000000000000000000000000000000000000000000000000000000000000000000000000000000000000000000000000000000000000000000000000000000000000000000000000000000000000000000000000000000000000000000000000000000000000000000000000000000000000000000000000000000000000000000000008302000080887fffffffffffffff808000a00000000000000000000000000000000000000000000000000000000000000000880000000000000000c0c0",
        "blocks" : [
            {
                "rlp" : "0xf90363f901fca0a73534091f5e0be6e0ea51298c741a4e94ecf2d708b8cf77a24d0d7a66f25aaca01dcc4de8dec75d7aab85b567b6ccd41ad312451b948a7413f0a142fd40d4934794945304eb96065b2a98b57a48a06ae28d285a71b5a0f40b79a1856bd3de54c168821ca7e21a6f70f56f6df1aa157c0af1719afc0cb4a0616a23769c74aec11f74190834af68ef0ae40c3b58c70517ca35844fc0d089dea0570bf4001542bc3ca1e3dfea531f922ad37f0878ef6ed4689b257ef3ada80670b90100000000000000000000000000000000000000000000000000000000000000000000000000000000000000000000000000000000000000000000000000000000000000000000000000000000000000000000000000000000000000000000000000000000000000000000000000000000000000000000000000000000000000000000000000000000000000000000000000000000000000000000000000000000000000000000000000000000000000000000000000000000000000000000000000000000000000000000000000000000000000000000000000000000000000000000000000000000000000000000000000000000000000000000000000000000008302000001887fffffffffffffff82aa4f8203e800a00000000000000000000000000000000000000000000000000000000000000000880000000000000000f90160f9015d8001846373c04894095e7baea6a6c7c4c2dfeb977efac326af552d8783a9aad5b8f87f000000000000000000000000945304eb96065b2a98b57a48a06ae28d285a71b57f00000000000000000000000000000000000000000000000000000000000000017f000000000000000000000000ffffffffffffffffffffffffffffffffffffffff7fffffffffffffffffffffffffffffffffffffffffffffffffffffffffffffffff7f00000000000000000000000000000000000000000000000000000000000000017f0000000000000000000000000000000000000000000000000000000000000001417ffffffffffffffffffffffffffffffffffffffffffffffffffffffffffffffffe6f9084a3758d3456763aa4f09c8b735b1ba05ec8789c432cf8cfa32feb8d8a7d0ef1020d82086618af161fb02078bf0c694ba046d1c41a6a1d98d0473cf4caac0307a30fac36faad831f3ea07cd6632d84bfddc0",
                "blockHeader" : {
                    "bloom" : "0x00000000000000000000000000000000000000000000000000000000000000000000000000000000000000000000000000000000000000000000000000000000000000000000000000000000000000000000000000000000000000000000000000000000000000000000000000000000000000000000000000000000000000000000000000000000000000000000000000000000000000000000000000000000000000000000000000000000000000000000000000000000000000000000000000000000000000000000000000000000000000000000000000000000000000000000000000000000000000000000000000000000000000000000000000000000",
                    "coinbase" : "0x945304eb96065b2a98b57a48a06ae28d285a71b5",
                    "difficulty" : "0x20000",
                    "extraData" : "0x00",
                    "gasLimit" : "0x7fffffffffffffff",
                    "gasUsed" : "0xaa4f",
                    "hash" : "0x3b8362c7462ce41130814d2ee45512d3e9cbde94cc5478b512d4307a51b5e1af",
                    "mixHash" : "0x0000000000000000000000000000000000000000000000000000000000000000",
                    "nonce" : "0x0000000000000000",
                    "number" : "0x1",
                    "parentHash" : "0xa73534091f5e0be6e0ea51298c741a4e94ecf2d708b8cf77a24d0d7a66f25aac",
                    "receiptTrie" : "0x570bf4001542bc3ca1e3dfea531f922ad37f0878ef6ed4689b257ef3ada80670",
                    "stateRoot" : "0xf40b79a1856bd3de54c168821ca7e21a6f70f56f6df1aa157c0af1719afc0cb4",
                    "timestamp" : "0x3e8",
                    "transactionsTrie" : "0x616a23769c74aec11f74190834af68ef0ae40c3b58c70517ca35844fc0d089de",
                    "uncleHash" : "0x1dcc4de8dec75d7aab85b567b6ccd41ad312451b948a7413f0a142fd40d49347"
                },
                "transactions" : [
                    {
                        "data" : "0x7f000000000000000000000000945304eb96065b2a98b57a48a06ae28d285a71b57f00000000000000000000000000000000000000000000000000000000000000017f000000000000000000000000ffffffffffffffffffffffffffffffffffffffff7fffffffffffffffffffffffffffffffffffffffffffffffffffffffffffffffff7f00000000000000000000000000000000000000000000000000000000000000017f0000000000000000000000000000000000000000000000000000000000000001417ffffffffffffffffffffffffffffffffffffffffffffffffffffffffffffffffe6f9084a3758d3456763aa4f09c8b735b",
                        "gasLimit" : "0x6373c048",
                        "gasPrice" : "0x01",
                        "nonce" : "0x00",
                        "to" : "0x095e7baea6a6c7c4c2dfeb977efac326af552d87",
                        "value" : "0xa9aad5",
                        "v" : "0x1b",
                        "r" : "0x5ec8789c432cf8cfa32feb8d8a7d0ef1020d82086618af161fb02078bf0c694b",
                        "s" : "0x46d1c41a6a1d98d0473cf4caac0307a30fac36faad831f3ea07cd6632d84bfdd"
                    }
                ]
            }
        ]
    }
}