{
    "randomStatetest425_d0g0v0_Istanbul" : {
        "_info" : {
            "comment" : "",
            "filling-rpc-server" : "Geth-1.9.6-unstable-63b18027-20190920",
            "filling-tool-version" : "retesteth-0.0.1+commit.0ae18aef.Linux.g++",
            "lllcversion" : "Version: 0.5.12-develop.2019.9.13+commit.2d601a4f.Linux.g++",
            "source" : "src/GeneralStateTestsFiller/stRandom2/randomStatetest425Filler.json",
            "sourceHash" : "b54e90fcf320e611f010ef5d58998349efd7241153bbc68829bb44014705bb69"
        },
        "genesisBlockHeader" : {
            "bloom" : "0x00000000000000000000000000000000000000000000000000000000000000000000000000000000000000000000000000000000000000000000000000000000000000000000000000000000000000000000000000000000000000000000000000000000000000000000000000000000000000000000000000000000000000000000000000000000000000000000000000000000000000000000000000000000000000000000000000000000000000000000000000000000000000000000000000000000000000000000000000000000000000000000000000000000000000000000000000000000000000000000000000000000000000000000000000000000",
            "coinbase" : "0x945304eb96065b2a98b57a48a06ae28d285a71b5",
            "difficulty" : "0x20000",
            "extraData" : "0x00",
            "gasLimit" : "0x7fffffffffffffff",
            "gasUsed" : "0x0",
            "hash" : "0x2d7d25729961e55157cba4293013430872b773d0a1a5b948ec1ad68d25312d6b",
            "mixHash" : "0x0000000000000000000000000000000000000000000000000000000000000000",
            "nonce" : "0x0000000000000000",
            "number" : "0x0",
            "parentHash" : "0x0000000000000000000000000000000000000000000000000000000000000000",
            "receiptTrie" : "0x56e81f171bcc55a6ff8345e692c0f86e5b48e01b996cadc001622fb5e363b421",
            "stateRoot" : "0x9752033d780dec771304e025f4373a8276a9cf5fb9db2bef5c41553e37b71b73",
            "timestamp" : "0x0",
            "transactionsTrie" : "0x56e81f171bcc55a6ff8345e692c0f86e5b48e01b996cadc001622fb5e363b421",
            "uncleHash" : "0x1dcc4de8dec75d7aab85b567b6ccd41ad312451b948a7413f0a142fd40d49347"
        },
        "pre" : {
            "0x095e7baea6a6c7c4c2dfeb977efac326af552d87" : {
                "balance" : "0x00",
                "code" : "0x7f0000000000000000000000010000000000000000000000000000000000000000417f00000000000000000000000000000000000000000000000000000000000000017f000000000000000000000000000000000000000000000000000000000000c3507f000000000000000000000000ffffffffffffffffffffffffffffffffffffffff6f885707818b889a89975552f01284425560005155",
                "nonce" : "0x00",
                "storage" : {
                }
            },
            "0x945304eb96065b2a98b57a48a06ae28d285a71b5" : {
                "balance" : "0x2e",
                "code" : "0x6000355415600957005b60203560003555",
                "nonce" : "0x00",
                "storage" : {
                }
            },
            "0xa94f5374fce5edbc8e2a8697c15331677e6ebf0b" : {
                "balance" : "0x0de0b6b3a7640000",
                "code" : "0x",
                "nonce" : "0x00",
                "storage" : {
                }
            }
        },
        "postState" : {
            "0xa94f5374fce5edbc8e2a8697c15331677e6ebf0b" : {
                "code" : "0x",
                "nonce" : "0x01",
                "balance" : "0x0de0b6b3852c40d9",
                "storage" : {
                }
            },
            "0x095e7baea6a6c7c4c2dfeb977efac326af552d87" : {
                "code" : "0x7f0000000000000000000000010000000000000000000000000000000000000000417f00000000000000000000000000000000000000000000000000000000000000017f000000000000000000000000000000000000000000000000000000000000c3507f000000000000000000000000ffffffffffffffffffffffffffffffffffffffff6f885707818b889a89975552f01284425560005155",
                "nonce" : "0x00",
                "balance" : "0x22371a75",
                "storage" : {
                    "0x00" : "0x885707818b889a89975552f012844255"
                }
            },
            "0x945304eb96065b2a98b57a48a06ae28d285a71b5" : {
                "code" : "0x6000355415600957005b60203560003555",
                "nonce" : "0x00",
                "balance" : "0x1bc16d674ec8a4e0",
                "storage" : {
                }
            }
        },
        "network" : "Istanbul",
        "sealEngine" : "NoProof",
        "lastblockhash" : "0x58f6070317a1641ba58d951aac4e8965640418ef5bcdd185df34bceb637c95c1",
        "genesisRLP" : "0xf901fdf901f8a00000000000000000000000000000000000000000000000000000000000000000a01dcc4de8dec75d7aab85b567b6ccd41ad312451b948a7413f0a142fd40d4934794945304eb96065b2a98b57a48a06ae28d285a71b5a09752033d780dec771304e025f4373a8276a9cf5fb9db2bef5c41553e37b71b73a056e81f171bcc55a6ff8345e692c0f86e5b48e01b996cadc001622fb5e363b421a056e81f171bcc55a6ff8345e692c0f86e5b48e01b996cadc001622fb5e363b421b90100000000000000000000000000000000000000000000000000000000000000000000000000000000000000000000000000000000000000000000000000000000000000000000000000000000000000000000000000000000000000000000000000000000000000000000000000000000000000000000000000000000000000000000000000000000000000000000000000000000000000000000000000000000000000000000000000000000000000000000000000000000000000000000000000000000000000000000000000000000000000000000000000000000000000000000000000000000000000000000000000000000000000000000000000000000008302000080887fffffffffffffff808000a00000000000000000000000000000000000000000000000000000000000000000880000000000000000c0c0",
        "blocks" : [
            {
                "rlp" : "0xf902fff901fca02d7d25729961e55157cba4293013430872b773d0a1a5b948ec1ad68d25312d6ba01dcc4de8dec75d7aab85b567b6ccd41ad312451b948a7413f0a142fd40d4934794945304eb96065b2a98b57a48a06ae28d285a71b5a0fa5f6c49615651720cf2094f27aee12e6c9fba299b7dad28ccddcfb532372b10a081254926b46348eb4974f173beedc36d6f7f6ee90ce9437ca04ca338b66f70c8a0e3d4d99c84bd12f6b19b50d6ccc98a843ee105fe09ee6d72cbe9390c7f2f2a50b90100000000000000000000000000000000000000000000000000000000000000000000000000000000000000000000000000000000000000000000000000000000000000000000000000000000000000000000000000000000000000000000000000000000000000000000000000000000000000000000000000000000000000000000000000000000000000000000000000000000000000000000000000000000000000000000000000000000000000000000000000000000000000000000000000000000000000000000000000000000000000000000000000000000000000000000000000000000000000000000000000000000000000000000000000000000008302000001887fffffffffffffff82a4b28203e800a00000000000000000000000000000000000000000000000000000000000000000880000000000000000f8fdf8fb8001847a57380394095e7baea6a6c7c4c2dfeb977efac326af552d878422371a75b8957f0000000000000000000000010000000000000000000000000000000000000000417f00000000000000000000000000000000000000000000000000000000000000017f000000000000000000000000000000000000000000000000000000000000c3507f000000000000000000000000ffffffffffffffffffffffffffffffffffffffff6f885707818b889a89975552f01284421ba0055933230adbd0765a3a0e40dbb85a663d6ce50fe833c37711702825b33475c1a0139a4a19ee187bef62494f9448e8415e57abd75b88104f33154415b0c47063c0c0",
                "blockHeader" : {
                    "bloom" : "0x00000000000000000000000000000000000000000000000000000000000000000000000000000000000000000000000000000000000000000000000000000000000000000000000000000000000000000000000000000000000000000000000000000000000000000000000000000000000000000000000000000000000000000000000000000000000000000000000000000000000000000000000000000000000000000000000000000000000000000000000000000000000000000000000000000000000000000000000000000000000000000000000000000000000000000000000000000000000000000000000000000000000000000000000000000000",
                    "coinbase" : "0x945304eb96065b2a98b57a48a06ae28d285a71b5",
                    "difficulty" : "0x20000",
                    "extraData" : "0x00",
                    "gasLimit" : "0x7fffffffffffffff",
                    "gasUsed" : "0xa4b2",
                    "hash" : "0x58f6070317a1641ba58d951aac4e8965640418ef5bcdd185df34bceb637c95c1",
                    "mixHash" : "0x0000000000000000000000000000000000000000000000000000000000000000",
                    "nonce" : "0x0000000000000000",
                    "number" : "0x1",
                    "parentHash" : "0x2d7d25729961e55157cba4293013430872b773d0a1a5b948ec1ad68d25312d6b",
                    "receiptTrie" : "0xe3d4d99c84bd12f6b19b50d6ccc98a843ee105fe09ee6d72cbe9390c7f2f2a50",
                    "stateRoot" : "0xfa5f6c49615651720cf2094f27aee12e6c9fba299b7dad28ccddcfb532372b10",
                    "timestamp" : "0x3e8",
                    "transactionsTrie" : "0x81254926b46348eb4974f173beedc36d6f7f6ee90ce9437ca04ca338b66f70c8",
                    "uncleHash" : "0x1dcc4de8dec75d7aab85b567b6ccd41ad312451b948a7413f0a142fd40d49347"
                },
                "transactions" : [
                    {
                        "data" : "0x7f0000000000000000000000010000000000000000000000000000000000000000417f00000000000000000000000000000000000000000000000000000000000000017f000000000000000000000000000000000000000000000000000000000000c3507f000000000000000000000000ffffffffffffffffffffffffffffffffffffffff6f885707818b889a89975552f0128442",
                        "gasLimit" : "0x7a573803",
                        "gasPrice" : "0x01",
                        "nonce" : "0x00",
                        "to" : "0x095e7baea6a6c7c4c2dfeb977efac326af552d87",
                        "value" : "0x22371a75",
                        "v" : "0x1b",
                        "r" : "0x055933230adbd0765a3a0e40dbb85a663d6ce50fe833c37711702825b33475c1",
                        "s" : "0x139a4a19ee187bef62494f9448e8415e57abd75b88104f33154415b0c47063c0"
                    }
                ]
            }
        ]
    }
}