{
    "randomStatetest645_d0g0v0_Istanbul" : {
        "_info" : {
            "comment" : "Geth Failed this test on Frontier and Homestead",
            "filling-rpc-server" : "Geth-1.9.6-unstable-63b18027-20190920",
            "filling-tool-version" : "retesteth-0.0.1+commit.0ae18aef.Linux.g++",
            "lllcversion" : "Version: 0.5.12-develop.2019.9.13+commit.2d601a4f.Linux.g++",
            "source" : "src/GeneralStateTestsFiller/stRandom2/randomStatetest645Filler.json",
            "sourceHash" : "dcfc71d14726260e329506baf17879a4a848e22c20fa2415e33b6c609bce9e5b"
        },
        "genesisBlockHeader" : {
            "bloom" : "0x00000000000000000000000000000000000000000000000000000000000000000000000000000000000000000000000000000000000000000000000000000000000000000000000000000000000000000000000000000000000000000000000000000000000000000000000000000000000000000000000000000000000000000000000000000000000000000000000000000000000000000000000000000000000000000000000000000000000000000000000000000000000000000000000000000000000000000000000000000000000000000000000000000000000000000000000000000000000000000000000000000000000000000000000000000000",
            "coinbase" : "0xb94f5374fce5edbc8e2a8697c15331677e6ebf0b",
            "difficulty" : "0x20000",
            "extraData" : "0x00",
            "gasLimit" : "0x2ecf1b8c64c9dc",
            "gasUsed" : "0x0",
            "hash" : "0xdd16e4ba88c38c88152aa4af90b81fa88e9e897505d4dc5ae5a375af6b023dd5",
            "mixHash" : "0x0000000000000000000000000000000000000000000000000000000000000000",
            "nonce" : "0x0000000000000000",
            "number" : "0x0",
            "parentHash" : "0x0000000000000000000000000000000000000000000000000000000000000000",
            "receiptTrie" : "0x56e81f171bcc55a6ff8345e692c0f86e5b48e01b996cadc001622fb5e363b421",
            "stateRoot" : "0xfd1cc1f391deb625da219bbabbd73399e85a25e19a14201b7cafd528eba40b2b",
            "timestamp" : "0x0",
            "transactionsTrie" : "0x56e81f171bcc55a6ff8345e692c0f86e5b48e01b996cadc001622fb5e363b421",
            "uncleHash" : "0x1dcc4de8dec75d7aab85b567b6ccd41ad312451b948a7413f0a142fd40d49347"
        },
        "pre" : {
            "0x1000000000000000000000000000000000000000" : {
                "balance" : "0xbcbaf5a33577f162",
                "code" : "0x58679b8e24022d8c28f3620b55a06384bc2f83136515b61916f0f579ea3e9d28799d45aa77bf1fc1a84edf0193dea2d610209eaaf9c814",
                "nonce" : "0x1d",
                "storage" : {
                }
            },
            "0xa94f5374fce5edbc8e2a8697c15331677e6ebf0b" : {
                "balance" : "0x6f1f70fea641f30a",
                "code" : "0x",
                "nonce" : "0x00",
                "storage" : {
                }
            },
            "0xb94f5374fce5edbc8e2a8697c15331677e6ebf0b" : {
                "balance" : "0x2be1cfd5d6d6b0b7",
                "code" : "0x63cbb01282621d72de5268022948f746c938a0cb7c01ef17f23ed237d9f3262c4eb1b95112820595b127c516074df06223db7e0c396eb18074f148d96fd766dda35b6cc250661b5f83f0ed625ba68a5ff49aa1",
                "nonce" : "0xaf",
                "storage" : {
                }
            },
            "0xffffffffffffffffffffffffffffffffffffffff" : {
                "balance" : "0xb3508c0f8a22f8a1",
                "code" : "0x",
                "nonce" : "0x1c",
                "storage" : {
                }
            }
        },
        "postState" : {
            "0xa94f5374fce5edbc8e2a8697c15331677e6ebf0b" : {
                "code" : "0x",
                "nonce" : "0x01",
                "balance" : "0x6f1f70fdb3696ddb",
                "storage" : {
                }
            },
            "0x0000000000000000000000000000000000000003" : {
                "code" : "0x",
                "nonce" : "0x00",
                "balance" : "0xf2d6bf97",
                "storage" : {
                }
            },
            "0xb94f5374fce5edbc8e2a8697c15331677e6ebf0b" : {
                "code" : "0x63cbb01282621d72de5268022948f746c938a0cb7c01ef17f23ed237d9f3262c4eb1b95112820595b127c516074df06223db7e0c396eb18074f148d96fd766dda35b6cc250661b5f83f0ed625ba68a5ff49aa1",
                "nonce" : "0xaf",
                "balance" : "0x47a33d3d25a0764f",
                "storage" : {
                }
            },
            "0xffffffffffffffffffffffffffffffffffffffff" : {
                "code" : "0x",
                "nonce" : "0x1c",
                "balance" : "0xb3508c0f8a22f8a1",
                "storage" : {
                }
            },
            "0x1000000000000000000000000000000000000000" : {
                "code" : "0x58679b8e24022d8c28f3620b55a06384bc2f83136515b61916f0f579ea3e9d28799d45aa77bf1fc1a84edf0193dea2d610209eaaf9c814",
                "nonce" : "0x1d",
                "balance" : "0xbcbaf5a33577f162",
                "storage" : {
                }
            }
        },
        "network" : "Istanbul",
        "sealEngine" : "NoProof",
        "lastblockhash" : "0xc18b2041446f6643680fad4f39d88f010ed6a92df6d634af74f23f52f4ea083b",
        "genesisRLP" : "0xf901fcf901f7a00000000000000000000000000000000000000000000000000000000000000000a01dcc4de8dec75d7aab85b567b6ccd41ad312451b948a7413f0a142fd40d4934794b94f5374fce5edbc8e2a8697c15331677e6ebf0ba0fd1cc1f391deb625da219bbabbd73399e85a25e19a14201b7cafd528eba40b2ba056e81f171bcc55a6ff8345e692c0f86e5b48e01b996cadc001622fb5e363b421a056e81f171bcc55a6ff8345e692c0f86e5b48e01b996cadc001622fb5e363b421b90100000000000000000000000000000000000000000000000000000000000000000000000000000000000000000000000000000000000000000000000000000000000000000000000000000000000000000000000000000000000000000000000000000000000000000000000000000000000000000000000000000000000000000000000000000000000000000000000000000000000000000000000000000000000000000000000000000000000000000000000000000000000000000000000000000000000000000000000000000000000000000000000000000000000000000000000000000000000000000000000000000000000000000000000000000000008302000080872ecf1b8c64c9dc808000a00000000000000000000000000000000000000000000000000000000000000000880000000000000000c0c0",
        "blocks" : [
            {
                "rlp" : "0xf902b6f901fba0dd16e4ba88c38c88152aa4af90b81fa88e9e897505d4dc5ae5a375af6b023dd5a01dcc4de8dec75d7aab85b567b6ccd41ad312451b948a7413f0a142fd40d4934794b94f5374fce5edbc8e2a8697c15331677e6ebf0ba0df8532a1093de1e484f61619ab4904da141bed3052741567214eef088acda01da0abc9ed9932ec9238b91628c408688050ebacd74d8d5159deeb6cd133177cabffa0662e815dba83698450229980f829385d9032ae85ba86fe78b9d784d2605413a5b90100000000000000000000000000000000000000000000000000000000000000000000000000000000000000000000000000000000000000000000000000000000000000000000000000000000000000000000000000000000000000000000000000000000000000000000000000000000000000000000000000000000000000000000000000000000000000000000000000000000000000000000000000000000000000000000000000000000000000000000000000000000000000000000000000000000000000000000000000000000000000000000000000000000000000000000000000000000000000000000000000000000000000000000000000000000008302000001872edacf5347e30d825ab88203e800a00000000000000000000000000000000000000000000000000000000000000000880000000000000000f8b5f8b3800582695a94000000000000000000000000000000000000000384f2d6bf97b84f326e3696ffc10e3e95c67d29784a35ba967d416feb1e1712098bcbb4d20454c1681694f51d8591ff7b80f0e4da50c89a0a777fa7666abccfbd600e213bd71da4925c2a2115799e9c3bb1622f0754521ca0ceff3d363b9dad4fc2769972697f833a6bebc32e7646b325f56f91ab9f4d8543a057001919960caaf388fc1c2fda1b7eb05e76388a1a614df491fcf5a7976b8a18c0",
                "blockHeader" : {
                    "bloom" : "0x00000000000000000000000000000000000000000000000000000000000000000000000000000000000000000000000000000000000000000000000000000000000000000000000000000000000000000000000000000000000000000000000000000000000000000000000000000000000000000000000000000000000000000000000000000000000000000000000000000000000000000000000000000000000000000000000000000000000000000000000000000000000000000000000000000000000000000000000000000000000000000000000000000000000000000000000000000000000000000000000000000000000000000000000000000000",
                    "coinbase" : "0xb94f5374fce5edbc8e2a8697c15331677e6ebf0b",
                    "difficulty" : "0x20000",
                    "extraData" : "0x00",
                    "gasLimit" : "0x2edacf5347e30d",
                    "gasUsed" : "0x5ab8",
                    "hash" : "0xc18b2041446f6643680fad4f39d88f010ed6a92df6d634af74f23f52f4ea083b",
                    "mixHash" : "0x0000000000000000000000000000000000000000000000000000000000000000",
                    "nonce" : "0x0000000000000000",
                    "number" : "0x1",
                    "parentHash" : "0xdd16e4ba88c38c88152aa4af90b81fa88e9e897505d4dc5ae5a375af6b023dd5",
                    "receiptTrie" : "0x662e815dba83698450229980f829385d9032ae85ba86fe78b9d784d2605413a5",
                    "stateRoot" : "0xdf8532a1093de1e484f61619ab4904da141bed3052741567214eef088acda01d",
                    "timestamp" : "0x3e8",
                    "transactionsTrie" : "0xabc9ed9932ec9238b91628c408688050ebacd74d8d5159deeb6cd133177cabff",
                    "uncleHash" : "0x1dcc4de8dec75d7aab85b567b6ccd41ad312451b948a7413f0a142fd40d49347"
                },
                "transactions" : [
                    {
                        "data" : "0x326e3696ffc10e3e95c67d29784a35ba967d416feb1e1712098bcbb4d20454c1681694f51d8591ff7b80f0e4da50c89a0a777fa7666abccfbd600e213bd71da4925c2a2115799e9c3bb1622f075452",
                        "gasLimit" : "0x695a",
                        "gasPrice" : "0x05",
                        "nonce" : "0x00",
                        "to" : "0x0000000000000000000000000000000000000003",
                        "value" : "0xf2d6bf97",
                        "v" : "0x1c",
                        "r" : "0xceff3d363b9dad4fc2769972697f833a6bebc32e7646b325f56f91ab9f4d8543",
                        "s" : "0x57001919960caaf388fc1c2fda1b7eb05e76388a1a614df491fcf5a7976b8a18"
                    }
                ]
            }
        ]
    },
    "randomStatetest645_d0g0v1_Istanbul" : {
        "_info" : {
            "comment" : "Geth Failed this test on Frontier and Homestead",
            "filling-rpc-server" : "Geth-1.9.6-unstable-63b18027-20190920",
            "filling-tool-version" : "retesteth-0.0.1+commit.0ae18aef.Linux.g++",
            "lllcversion" : "Version: 0.5.12-develop.2019.9.13+commit.2d601a4f.Linux.g++",
            "source" : "src/GeneralStateTestsFiller/stRandom2/randomStatetest645Filler.json",
            "sourceHash" : "dcfc71d14726260e329506baf17879a4a848e22c20fa2415e33b6c609bce9e5b"
        },
        "genesisBlockHeader" : {
            "bloom" : "0x00000000000000000000000000000000000000000000000000000000000000000000000000000000000000000000000000000000000000000000000000000000000000000000000000000000000000000000000000000000000000000000000000000000000000000000000000000000000000000000000000000000000000000000000000000000000000000000000000000000000000000000000000000000000000000000000000000000000000000000000000000000000000000000000000000000000000000000000000000000000000000000000000000000000000000000000000000000000000000000000000000000000000000000000000000000",
            "coinbase" : "0xb94f5374fce5edbc8e2a8697c15331677e6ebf0b",
            "difficulty" : "0x20000",
            "extraData" : "0x00",
            "gasLimit" : "0x2ecf1b8c64c9dc",
            "gasUsed" : "0x0",
            "hash" : "0xdd16e4ba88c38c88152aa4af90b81fa88e9e897505d4dc5ae5a375af6b023dd5",
            "mixHash" : "0x0000000000000000000000000000000000000000000000000000000000000000",
            "nonce" : "0x0000000000000000",
            "number" : "0x0",
            "parentHash" : "0x0000000000000000000000000000000000000000000000000000000000000000",
            "receiptTrie" : "0x56e81f171bcc55a6ff8345e692c0f86e5b48e01b996cadc001622fb5e363b421",
            "stateRoot" : "0xfd1cc1f391deb625da219bbabbd73399e85a25e19a14201b7cafd528eba40b2b",
            "timestamp" : "0x0",
            "transactionsTrie" : "0x56e81f171bcc55a6ff8345e692c0f86e5b48e01b996cadc001622fb5e363b421",
            "uncleHash" : "0x1dcc4de8dec75d7aab85b567b6ccd41ad312451b948a7413f0a142fd40d49347"
        },
        "pre" : {
            "0x1000000000000000000000000000000000000000" : {
                "balance" : "0xbcbaf5a33577f162",
                "code" : "0x58679b8e24022d8c28f3620b55a06384bc2f83136515b61916f0f579ea3e9d28799d45aa77bf1fc1a84edf0193dea2d610209eaaf9c814",
                "nonce" : "0x1d",
                "storage" : {
                }
            },
            "0xa94f5374fce5edbc8e2a8697c15331677e6ebf0b" : {
                "balance" : "0x6f1f70fea641f30a",
                "code" : "0x",
                "nonce" : "0x00",
                "storage" : {
                }
            },
            "0xb94f5374fce5edbc8e2a8697c15331677e6ebf0b" : {
                "balance" : "0x2be1cfd5d6d6b0b7",
                "code" : "0x63cbb01282621d72de5268022948f746c938a0cb7c01ef17f23ed237d9f3262c4eb1b95112820595b127c516074df06223db7e0c396eb18074f148d96fd766dda35b6cc250661b5f83f0ed625ba68a5ff49aa1",
                "nonce" : "0xaf",
                "storage" : {
                }
            },
            "0xffffffffffffffffffffffffffffffffffffffff" : {
                "balance" : "0xb3508c0f8a22f8a1",
                "code" : "0x",
                "nonce" : "0x1c",
                "storage" : {
                }
            }
        },
        "postState" : {
            "0xa94f5374fce5edbc8e2a8697c15331677e6ebf0b" : {
                "code" : "0x",
                "nonce" : "0x01",
                "balance" : "0x6f1f70fea6402d72",
                "storage" : {
                }
            },
            "0xb94f5374fce5edbc8e2a8697c15331677e6ebf0b" : {
                "code" : "0x63cbb01282621d72de5268022948f746c938a0cb7c01ef17f23ed237d9f3262c4eb1b95112820595b127c516074df06223db7e0c396eb18074f148d96fd766dda35b6cc250661b5f83f0ed625ba68a5ff49aa1",
                "nonce" : "0xaf",
                "balance" : "0x47a33d3d25a0764f",
                "storage" : {
                }
            },
            "0xffffffffffffffffffffffffffffffffffffffff" : {
                "code" : "0x",
                "nonce" : "0x1c",
                "balance" : "0xb3508c0f8a22f8a1",
                "storage" : {
                }
            },
            "0x1000000000000000000000000000000000000000" : {
                "code" : "0x58679b8e24022d8c28f3620b55a06384bc2f83136515b61916f0f579ea3e9d28799d45aa77bf1fc1a84edf0193dea2d610209eaaf9c814",
                "nonce" : "0x1d",
                "balance" : "0xbcbaf5a33577f162",
                "storage" : {
                }
            }
        },
        "network" : "Istanbul",
        "sealEngine" : "NoProof",
        "lastblockhash" : "0xb1f297aa76e07a37566ce82fe3c4083c7c5f8cdfe5ab204192c861d9ed773298",
        "genesisRLP" : "0xf901fcf901f7a00000000000000000000000000000000000000000000000000000000000000000a01dcc4de8dec75d7aab85b567b6ccd41ad312451b948a7413f0a142fd40d4934794b94f5374fce5edbc8e2a8697c15331677e6ebf0ba0fd1cc1f391deb625da219bbabbd73399e85a25e19a14201b7cafd528eba40b2ba056e81f171bcc55a6ff8345e692c0f86e5b48e01b996cadc001622fb5e363b421a056e81f171bcc55a6ff8345e692c0f86e5b48e01b996cadc001622fb5e363b421b90100000000000000000000000000000000000000000000000000000000000000000000000000000000000000000000000000000000000000000000000000000000000000000000000000000000000000000000000000000000000000000000000000000000000000000000000000000000000000000000000000000000000000000000000000000000000000000000000000000000000000000000000000000000000000000000000000000000000000000000000000000000000000000000000000000000000000000000000000000000000000000000000000000000000000000000000000000000000000000000000000000000000000000000000000000000008302000080872ecf1b8c64c9dc808000a00000000000000000000000000000000000000000000000000000000000000000880000000000000000c0c0",
        "blocks" : [
            {
                "rlp" : "0xf902b2f901fba0dd16e4ba88c38c88152aa4af90b81fa88e9e897505d4dc5ae5a375af6b023dd5a01dcc4de8dec75d7aab85b567b6ccd41ad312451b948a7413f0a142fd40d4934794b94f5374fce5edbc8e2a8697c15331677e6ebf0ba0a18b9a1688ddd6308aaae3f098224f0b73d3f9d7027bfa2733cce2fbe7403e98a0d5ade9ff0d1cf7c7c894c52c90c79f685813e0c90f50d18d5a6d75921cc82a65a0662e815dba83698450229980f829385d9032ae85ba86fe78b9d784d2605413a5b90100000000000000000000000000000000000000000000000000000000000000000000000000000000000000000000000000000000000000000000000000000000000000000000000000000000000000000000000000000000000000000000000000000000000000000000000000000000000000000000000000000000000000000000000000000000000000000000000000000000000000000000000000000000000000000000000000000000000000000000000000000000000000000000000000000000000000000000000000000000000000000000000000000000000000000000000000000000000000000000000000000000000000000000000000000000008302000001872edacf5347e30d825ab88203e800a00000000000000000000000000000000000000000000000000000000000000000880000000000000000f8b1f8af800582695a94000000000000000000000000000000000000000380b84f326e3696ffc10e3e95c67d29784a35ba967d416feb1e1712098bcbb4d20454c1681694f51d8591ff7b80f0e4da50c89a0a777fa7666abccfbd600e213bd71da4925c2a2115799e9c3bb1622f0754521ca0af9fc1642acc2371c8d10afc1213fdd9ba932a13689658414a4898e0be34a631a0469642afd44797194a8a036102fdfe0aa9924c9ac83966159d682752054b026ec0",
                "blockHeader" : {
                    "bloom" : "0x00000000000000000000000000000000000000000000000000000000000000000000000000000000000000000000000000000000000000000000000000000000000000000000000000000000000000000000000000000000000000000000000000000000000000000000000000000000000000000000000000000000000000000000000000000000000000000000000000000000000000000000000000000000000000000000000000000000000000000000000000000000000000000000000000000000000000000000000000000000000000000000000000000000000000000000000000000000000000000000000000000000000000000000000000000000",
                    "coinbase" : "0xb94f5374fce5edbc8e2a8697c15331677e6ebf0b",
                    "difficulty" : "0x20000",
                    "extraData" : "0x00",
                    "gasLimit" : "0x2edacf5347e30d",
                    "gasUsed" : "0x5ab8",
                    "hash" : "0xb1f297aa76e07a37566ce82fe3c4083c7c5f8cdfe5ab204192c861d9ed773298",
                    "mixHash" : "0x0000000000000000000000000000000000000000000000000000000000000000",
                    "nonce" : "0x0000000000000000",
                    "number" : "0x1",
                    "parentHash" : "0xdd16e4ba88c38c88152aa4af90b81fa88e9e897505d4dc5ae5a375af6b023dd5",
                    "receiptTrie" : "0x662e815dba83698450229980f829385d9032ae85ba86fe78b9d784d2605413a5",
                    "stateRoot" : "0xa18b9a1688ddd6308aaae3f098224f0b73d3f9d7027bfa2733cce2fbe7403e98",
                    "timestamp" : "0x3e8",
                    "transactionsTrie" : "0xd5ade9ff0d1cf7c7c894c52c90c79f685813e0c90f50d18d5a6d75921cc82a65",
                    "uncleHash" : "0x1dcc4de8dec75d7aab85b567b6ccd41ad312451b948a7413f0a142fd40d49347"
                },
                "transactions" : [
                    {
                        "data" : "0x326e3696ffc10e3e95c67d29784a35ba967d416feb1e1712098bcbb4d20454c1681694f51d8591ff7b80f0e4da50c89a0a777fa7666abccfbd600e213bd71da4925c2a2115799e9c3bb1622f075452",
                        "gasLimit" : "0x695a",
                        "gasPrice" : "0x05",
                        "nonce" : "0x00",
                        "to" : "0x0000000000000000000000000000000000000003",
                        "value" : "0x00",
                        "v" : "0x1c",
                        "r" : "0xaf9fc1642acc2371c8d10afc1213fdd9ba932a13689658414a4898e0be34a631",
                        "s" : "0x469642afd44797194a8a036102fdfe0aa9924c9ac83966159d682752054b026e"
                    }
                ]
            }
        ]
    }
}