{
    "randomStatetest639_d0g0v0_Istanbul" : {
        "_info" : {
            "comment" : "",
            "filling-rpc-server" : "Geth-1.9.6-unstable-63b18027-20190920",
            "filling-tool-version" : "retesteth-0.0.1+commit.0ae18aef.Linux.g++",
            "lllcversion" : "Version: 0.5.12-develop.2019.9.13+commit.2d601a4f.Linux.g++",
            "source" : "src/GeneralStateTestsFiller/stRandom2/randomStatetest639Filler.json",
            "sourceHash" : "ee6368de827aa0f5f917ea755ab11d4332a5e87f0562117cf605ac6c64bbfa92"
        },
        "genesisBlockHeader" : {
            "bloom" : "0x00000000000000000000000000000000000000000000000000000000000000000000000000000000000000000000000000000000000000000000000000000000000000000000000000000000000000000000000000000000000000000000000000000000000000000000000000000000000000000000000000000000000000000000000000000000000000000000000000000000000000000000000000000000000000000000000000000000000000000000000000000000000000000000000000000000000000000000000000000000000000000000000000000000000000000000000000000000000000000000000000000000000000000000000000000000",
            "coinbase" : "0x945304eb96065b2a98b57a48a06ae28d285a71b5",
            "difficulty" : "0x20000",
            "extraData" : "0x00",
            "gasLimit" : "0x7fffffffffffffff",
            "gasUsed" : "0x0",
            "hash" : "0xcfdd79e1633169c9088b4074af99ea5afd9068d1849242e6e4533802aecac8f0",
            "mixHash" : "0x0000000000000000000000000000000000000000000000000000000000000000",
            "nonce" : "0x0000000000000000",
            "number" : "0x0",
            "parentHash" : "0x0000000000000000000000000000000000000000000000000000000000000000",
            "receiptTrie" : "0x56e81f171bcc55a6ff8345e692c0f86e5b48e01b996cadc001622fb5e363b421",
            "stateRoot" : "0x42eadda16feaace2e3b9b124378c2aaed7954f9b2b32558843c1daf13b71251b",
            "timestamp" : "0x0",
            "transactionsTrie" : "0x56e81f171bcc55a6ff8345e692c0f86e5b48e01b996cadc001622fb5e363b421",
            "uncleHash" : "0x1dcc4de8dec75d7aab85b567b6ccd41ad312451b948a7413f0a142fd40d49347"
        },
        "pre" : {
            "0x095e7baea6a6c7c4c2dfeb977efac326af552d87" : {
                "balance" : "0x00",
                "code" : "0x6e993d78e80807a0d34bdbfa4e0afa9d7eab95e6f8772a548229700e2dcc612ac9ceeb898af8436680a2e1074df8ced0137964d71c8fe8a10fb58f8706ea3ee1b54a0848e742ca357e3d023460c161b1f5a17c48da2ae1e6987c52223414746fab0e39130693d15a48d39b5130096a7c1570c4fb89343ef5d10e912decba682bf205de79e84c573c9e2b0ffbd4d6117e40046b4c2d77156ada28960d9bb97f56d243429aa245c32e1f800a686ebe298dd08349d864486d7a1569b5aae495776bb5e71206cd09f54d1cd713966557567542184c74b95cc0d8ac3d0e05d0264b8d42a3563826123fc0d964521b61b86374591a821818672ef0dea05d259bc4f98c34418d9e7a677173b211649c07df7670aca688053842de6157c4fb5e678adc0611fcc20a1d836ec69b9370d09b83f1b0293a1b102d6d73978584b14fb2ab517001867e6545dd2dc3438f9c7828f6d3c6e4da98113ce2486c1ad028dc9947b28590071b977e651d352b078cb96b27f9ff7252c9f3ce9e5151ae7af1064ab8a5d92ed543b9d59c341f85bb22aa2fa7d7ee7310ac8f519e66da165b9efe3663657b1e28f4eb3e7338391339af5346d12c14bbc0863c26d7e999776c7939cefac542ed69f518bbef5461c0df385004f5411c3faaa65c7b6abf900ca1ef1f40bb938f727695a1ca14012ba07cc01548f3df75544b11bb52b7693bed7e2fc1537b2f8d63c4db4c3d8fc72b6f5f7e7b4d1ec8c1ac89230936975d19626788f03504a8c9acf66437d6d885607778bee6fe54742ddc9a7d8373dbfe2e21aacf8816944c02ef983260156009600960186329ec801e73095e7baea6a6c7c4c2dfeb977efac326af552d876356837182f175259fc2ea2df7d720fb0914ed44bcb12b8ff15e712ef67d868fe7fba6b46fac671a45bcace82fa83b87b8744835ac63d2b6cf3d157d7526909f9c4d1efbf68d780af1c0f2dabbfc53d2c71dc461bf7f788e3a9c48cd1df8d146a7df97125985162ecd37b059204323d066cb4709a3a1715f7c4a9fb905c26ba87933ef2499d3447d5cd4df27a6205c8a1ce06719c3e065e66ab80222ff7ed1f72f533a1160330dbd8dcd0489ec2dac84d7522a4d8732c5ae9e08d9a251682fb33fa08ecc05197d897a1d5f28328caa78ca6cd6b86fd08a1748fa959665861d18c25a3cae79732fe4fb3ad8b48c17c8efeeb5ec22be8b20ec4eae2955d65b9a6c1415c23047aa8f2c29aeddd78765c1bc3eda63416d84cdb9b8d7942020db3b1ed861a966475eb6ef9f9920692a879ee6bf9d0a1dd9d386",
                "nonce" : "0x00",
                "storage" : {
                }
            },
            "0x945304eb96065b2a98b57a48a06ae28d285a71b5" : {
                "balance" : "0x2e",
                "code" : "0x6000355415600957005b60203560003555",
                "nonce" : "0x00",
                "storage" : {
                }
            },
            "0xa94f5374fce5edbc8e2a8697c15331677e6ebf0b" : {
                "balance" : "0x0de0b6b3a7640000",
                "code" : "0x",
                "nonce" : "0x00",
                "storage" : {
                }
            }
        },
        "postState" : {
            "0xa94f5374fce5edbc8e2a8697c15331677e6ebf0b" : {
                "code" : "0x",
                "nonce" : "0x01",
                "balance" : "0x0de0b6b35d2580c1",
                "storage" : {
                }
            },
            "0x095e7baea6a6c7c4c2dfeb977efac326af552d87" : {
                "code" : "0x6e993d78e80807a0d34bdbfa4e0afa9d7eab95e6f8772a548229700e2dcc612ac9ceeb898af8436680a2e1074df8ced0137964d71c8fe8a10fb58f8706ea3ee1b54a0848e742ca357e3d023460c161b1f5a17c48da2ae1e6987c52223414746fab0e39130693d15a48d39b5130096a7c1570c4fb89343ef5d10e912decba682bf205de79e84c573c9e2b0ffbd4d6117e40046b4c2d77156ada28960d9bb97f56d243429aa245c32e1f800a686ebe298dd08349d864486d7a1569b5aae495776bb5e71206cd09f54d1cd713966557567542184c74b95cc0d8ac3d0e05d0264b8d42a3563826123fc0d964521b61b86374591a821818672ef0dea05d259bc4f98c34418d9e7a677173b211649c07df7670aca688053842de6157c4fb5e678adc0611fcc20a1d836ec69b9370d09b83f1b0293a1b102d6d73978584b14fb2ab517001867e6545dd2dc3438f9c7828f6d3c6e4da98113ce2486c1ad028dc9947b28590071b977e651d352b078cb96b27f9ff7252c9f3ce9e5151ae7af1064ab8a5d92ed543b9d59c341f85bb22aa2fa7d7ee7310ac8f519e66da165b9efe3663657b1e28f4eb3e7338391339af5346d12c14bbc0863c26d7e999776c7939cefac542ed69f518bbef5461c0df385004f5411c3faaa65c7b6abf900ca1ef1f40bb938f727695a1ca14012ba07cc01548f3df75544b11bb52b7693bed7e2fc1537b2f8d63c4db4c3d8fc72b6f5f7e7b4d1ec8c1ac89230936975d19626788f03504a8c9acf66437d6d885607778bee6fe54742ddc9a7d8373dbfe2e21aacf8816944c02ef983260156009600960186329ec801e73095e7baea6a6c7c4c2dfeb977efac326af552d876356837182f175259fc2ea2df7d720fb0914ed44bcb12b8ff15e712ef67d868fe7fba6b46fac671a45bcace82fa83b87b8744835ac63d2b6cf3d157d7526909f9c4d1efbf68d780af1c0f2dabbfc53d2c71dc461bf7f788e3a9c48cd1df8d146a7df97125985162ecd37b059204323d066cb4709a3a1715f7c4a9fb905c26ba87933ef2499d3447d5cd4df27a6205c8a1ce06719c3e065e66ab80222ff7ed1f72f533a1160330dbd8dcd0489ec2dac84d7522a4d8732c5ae9e08d9a251682fb33fa08ecc05197d897a1d5f28328caa78ca6cd6b86fd08a1748fa959665861d18c25a3cae79732fe4fb3ad8b48c17c8efeeb5ec22be8b20ec4eae2955d65b9a6c1415c23047aa8f2c29aeddd78765c1bc3eda63416d84cdb9b8d7942020db3b1ed861a966475eb6ef9f9920692a879ee6bf9d0a1dd9d386",
                "nonce" : "0x00",
                "balance" : "0x49c00898",
                "storage" : {
                }
            },
            "0x945304eb96065b2a98b57a48a06ae28d285a71b5" : {
                "code" : "0x6000355415600957005b60203560003555",
                "nonce" : "0x00",
                "balance" : "0x1bc16d674f4676d5",
                "storage" : {
                }
            }
        },
        "network" : "Istanbul",
        "sealEngine" : "NoProof",
        "lastblockhash" : "0x318ec48cf157b10322b2d5b3c9fd7f680f44e071d4757af539027e64f0d712c4",
        "genesisRLP" : "0xf901fdf901f8a00000000000000000000000000000000000000000000000000000000000000000a01dcc4de8dec75d7aab85b567b6ccd41ad312451b948a7413f0a142fd40d4934794945304eb96065b2a98b57a48a06ae28d285a71b5a042eadda16feaace2e3b9b124378c2aaed7954f9b2b32558843c1daf13b71251ba056e81f171bcc55a6ff8345e692c0f86e5b48e01b996cadc001622fb5e363b421a056e81f171bcc55a6ff8345e692c0f86e5b48e01b996cadc001622fb5e363b421b90100000000000000000000000000000000000000000000000000000000000000000000000000000000000000000000000000000000000000000000000000000000000000000000000000000000000000000000000000000000000000000000000000000000000000000000000000000000000000000000000000000000000000000000000000000000000000000000000000000000000000000000000000000000000000000000000000000000000000000000000000000000000000000000000000000000000000000000000000000000000000000000000000000000000000000000000000000000000000000000000000000000000000000000000000000000008302000080887fffffffffffffff808000a00000000000000000000000000000000000000000000000000000000000000000880000000000000000c0c0",
        "blocks" : [
            {
                "rlp" : "0xf9026af901fda0cfdd79e1633169c9088b4074af99ea5afd9068d1849242e6e4533802aecac8f0a01dcc4de8dec75d7aab85b567b6ccd41ad312451b948a7413f0a142fd40d4934794945304eb96065b2a98b57a48a06ae28d285a71b5a0734bf249f5ca07c67b0efe2a06c1bcb30d7b3c4c0a8d0d358251d034c61f8529a03f3d7a3fa6e3a1dbc84fb3579d27c6a9d524f42233e8672f26d60a2d4ca2fc0ca0c6b9f50433cb77243b1d6f4f9f4dca190f6c0f6f8cfccbc545665507e77085f7b90100000000000000000010000000000000000000000000000000000000000000000000000000000000000000000000000000000000000000000000000000000000000000000000400000000000000000000000000000000000000000000000000000000000000000000000000000000000000000000000000000000000000008000000000000000000000000000000000400000000000000000000000000000000000000000000000000040000000000000000000000000000000000000000000000000000000000000000000000000000000000000000000000000000000000000000000000400000000000000000000000000000000000000000000000000000008302000001887fffffffffffffff837e76a78203e800a00000000000000000000000000000000000000000000000000000000000000000880000000000000000f867f8658001846015cf8f94095e7baea6a6c7c4c2dfeb977efac326af552d878449c00898801ca01d80861468b0c3831669c0859abcce9c15a9a624b621c189225e2d921b7cdabaa05efaeaa4c7998fb30313880002574cfad65e9f25dbec01f23394956e00816d3ac0",
                "blockHeader" : {
                    "bloom" : "0x00000000000000001000000000000000000000000000000000000000000000000000000000000000000000000000000000000000000000000000000000000000000000000040000000000000000000000000000000000000000000000000000000000000000000000000000000000000000000000000000000000000000800000000000000000000000000000000040000000000000000000000000000000000000000000000000004000000000000000000000000000000000000000000000000000000000000000000000000000000000000000000000000000000000000000000000040000000000000000000000000000000000000000000000000000000",
                    "coinbase" : "0x945304eb96065b2a98b57a48a06ae28d285a71b5",
                    "difficulty" : "0x20000",
                    "extraData" : "0x00",
                    "gasLimit" : "0x7fffffffffffffff",
                    "gasUsed" : "0x7e76a7",
                    "hash" : "0x318ec48cf157b10322b2d5b3c9fd7f680f44e071d4757af539027e64f0d712c4",
                    "mixHash" : "0x0000000000000000000000000000000000000000000000000000000000000000",
                    "nonce" : "0x0000000000000000",
                    "number" : "0x1",
                    "parentHash" : "0xcfdd79e1633169c9088b4074af99ea5afd9068d1849242e6e4533802aecac8f0",
                    "receiptTrie" : "0xc6b9f50433cb77243b1d6f4f9f4dca190f6c0f6f8cfccbc545665507e77085f7",
                    "stateRoot" : "0x734bf249f5ca07c67b0efe2a06c1bcb30d7b3c4c0a8d0d358251d034c61f8529",
                    "timestamp" : "0x3e8",
                    "transactionsTrie" : "0x3f3d7a3fa6e3a1dbc84fb3579d27c6a9d524f42233e8672f26d60a2d4ca2fc0c",
                    "uncleHash" : "0x1dcc4de8dec75d7aab85b567b6ccd41ad312451b948a7413f0a142fd40d49347"
                },
                "transactions" : [
                    {
                        "data" : "0x",
                        "gasLimit" : "0x6015cf8f",
                        "gasPrice" : "0x01",
                        "nonce" : "0x00",
                        "to" : "0x095e7baea6a6c7c4c2dfeb977efac326af552d87",
                        "value" : "0x49c00898",
                        "v" : "0x1c",
                        "r" : "0x1d80861468b0c3831669c0859abcce9c15a9a624b621c189225e2d921b7cdaba",
                        "s" : "0x5efaeaa4c7998fb30313880002574cfad65e9f25dbec01f23394956e00816d3a"
                    }
                ]
            }
        ]
    }
}