{
    "randomStatetest543_d0g0v0_Istanbul" : {
        "_info" : {
            "comment" : "",
            "filling-rpc-server" : "Geth-1.9.6-unstable-63b18027-20190920",
            "filling-tool-version" : "retesteth-0.0.1+commit.0ae18aef.Linux.g++",
            "lllcversion" : "Version: 0.5.12-develop.2019.9.13+commit.2d601a4f.Linux.g++",
            "source" : "src/GeneralStateTestsFiller/stRandom2/randomStatetest543Filler.json",
            "sourceHash" : "d64e1d2d573039949e48b712f962c2c3ad8bf726c86daafecfeb4a4cf685cd0e"
        },
        "genesisBlockHeader" : {
            "bloom" : "0x00000000000000000000000000000000000000000000000000000000000000000000000000000000000000000000000000000000000000000000000000000000000000000000000000000000000000000000000000000000000000000000000000000000000000000000000000000000000000000000000000000000000000000000000000000000000000000000000000000000000000000000000000000000000000000000000000000000000000000000000000000000000000000000000000000000000000000000000000000000000000000000000000000000000000000000000000000000000000000000000000000000000000000000000000000000",
            "coinbase" : "0x945304eb96065b2a98b57a48a06ae28d285a71b5",
            "difficulty" : "0x20000",
            "extraData" : "0x00",
            "gasLimit" : "0x7fffffffffffffff",
            "gasUsed" : "0x0",
            "hash" : "0x0556a3ca308ea3ddf7488d7795f82afc544a6f1c46a790baf66daecf21909174",
            "mixHash" : "0x0000000000000000000000000000000000000000000000000000000000000000",
            "nonce" : "0x0000000000000000",
            "number" : "0x0",
            "parentHash" : "0x0000000000000000000000000000000000000000000000000000000000000000",
            "receiptTrie" : "0x56e81f171bcc55a6ff8345e692c0f86e5b48e01b996cadc001622fb5e363b421",
            "stateRoot" : "0x961485923205cbaa85761c7ce2c9b1bd6a1352833c774f299e5286abe78570e9",
            "timestamp" : "0x0",
            "transactionsTrie" : "0x56e81f171bcc55a6ff8345e692c0f86e5b48e01b996cadc001622fb5e363b421",
            "uncleHash" : "0x1dcc4de8dec75d7aab85b567b6ccd41ad312451b948a7413f0a142fd40d49347"
        },
        "pre" : {
            "0x095e7baea6a6c7c4c2dfeb977efac326af552d87" : {
                "balance" : "0x00",
                "code" : "0x7f00000000000000000000000100000000000000000000000000000000000000007f00000000000000000000000000000000000000000000000000000000000000007f00000000000000000000000000000000000000000000000000000000000000007fffffffffffffffffffffffffffffffffffffffffffffffffffffffffffffffff7f00000000000000000000000000000000000000000000000000000000000000017ffffffffffffffffffffffffffffffffffffffffffffffffffffffffffffffffe7f00000000000000000000000000000000000000000000000000000000000000004586",
                "nonce" : "0x00",
                "storage" : {
                }
            },
            "0x945304eb96065b2a98b57a48a06ae28d285a71b5" : {
                "balance" : "0x2e",
                "code" : "0x6000355415600957005b60203560003555",
                "nonce" : "0x00",
                "storage" : {
                }
            },
            "0xa94f5374fce5edbc8e2a8697c15331677e6ebf0b" : {
                "balance" : "0x0de0b6b3a7640000",
                "code" : "0x",
                "nonce" : "0x00",
                "storage" : {
                }
            }
        },
        "postState" : {
            "0xa94f5374fce5edbc8e2a8697c15331677e6ebf0b" : {
                "code" : "0x",
                "nonce" : "0x01",
                "balance" : "0x0de0b6b3a505d9ac",
                "storage" : {
                }
            },
            "0x095e7baea6a6c7c4c2dfeb977efac326af552d87" : {
                "code" : "0x7f00000000000000000000000100000000000000000000000000000000000000007f00000000000000000000000000000000000000000000000000000000000000007f00000000000000000000000000000000000000000000000000000000000000007fffffffffffffffffffffffffffffffffffffffffffffffffffffffffffffffff7f00000000000000000000000000000000000000000000000000000000000000017ffffffffffffffffffffffffffffffffffffffffffffffffffffffffffffffffe7f00000000000000000000000000000000000000000000000000000000000000004586",
                "nonce" : "0x00",
                "balance" : "0x025dcd0a",
                "storage" : {
                }
            },
            "0x945304eb96065b2a98b57a48a06ae28d285a71b5" : {
                "code" : "0x6000355415600957005b60203560003555",
                "nonce" : "0x00",
                "balance" : "0x1bc16d674ec85978",
                "storage" : {
                }
            }
        },
        "network" : "Istanbul",
        "sealEngine" : "NoProof",
        "lastblockhash" : "0xe39ee26ea89f1e900cf988e46c17fc648e2b26b25f233d601dfbc20e89d5be3f",
        "genesisRLP" : "0xf901fdf901f8a00000000000000000000000000000000000000000000000000000000000000000a01dcc4de8dec75d7aab85b567b6ccd41ad312451b948a7413f0a142fd40d4934794945304eb96065b2a98b57a48a06ae28d285a71b5a0961485923205cbaa85761c7ce2c9b1bd6a1352833c774f299e5286abe78570e9a056e81f171bcc55a6ff8345e692c0f86e5b48e01b996cadc001622fb5e363b421a056e81f171bcc55a6ff8345e692c0f86e5b48e01b996cadc001622fb5e363b421b90100000000000000000000000000000000000000000000000000000000000000000000000000000000000000000000000000000000000000000000000000000000000000000000000000000000000000000000000000000000000000000000000000000000000000000000000000000000000000000000000000000000000000000000000000000000000000000000000000000000000000000000000000000000000000000000000000000000000000000000000000000000000000000000000000000000000000000000000000000000000000000000000000000000000000000000000000000000000000000000000000000000000000000000000000000000008302000080887fffffffffffffff808000a00000000000000000000000000000000000000000000000000000000000000000880000000000000000c0c0",
        "blocks" : [
            {
                "rlp" : "0xf90355f901fca00556a3ca308ea3ddf7488d7795f82afc544a6f1c46a790baf66daecf21909174a01dcc4de8dec75d7aab85b567b6ccd41ad312451b948a7413f0a142fd40d4934794945304eb96065b2a98b57a48a06ae28d285a71b5a0f2f2580fd18cd6de36ea4c4d771114703c11fce3f8893435daed8ab1c01eee52a0e81aa9e2383a154c60354adfcdf7a1d9b6ee077de7c4640afd9600318b3a8184a06f7d0909e4c5cb6fca541431028fb8d2cdcab09a5f3327395a58898af689d895b90100000000000000000000000000000000000000000000000000000000000000000000000000000000000000000000000000000000000000000000000000000000000000000000000000000000000000000000000000000000000000000000000000000000000000000000000000000000000000000000000000000000000000000000000000000000000000000000000000000000000000000000000000000000000000000000000000000000000000000000000000000000000000000000000000000000000000000000000000000000000000000000000000000000000000000000000000000000000000000000000000000000000000000000000000000000008302000001887fffffffffffffff82594a8203e800a00000000000000000000000000000000000000000000000000000000000000000880000000000000000f90152f9014f80018441aec60994095e7baea6a6c7c4c2dfeb977efac326af552d8784025dcd0ab8e97f00000000000000000000000100000000000000000000000000000000000000007f00000000000000000000000000000000000000000000000000000000000000007f00000000000000000000000000000000000000000000000000000000000000007fffffffffffffffffffffffffffffffffffffffffffffffffffffffffffffffff7f00000000000000000000000000000000000000000000000000000000000000017ffffffffffffffffffffffffffffffffffffffffffffffffffffffffffffffffe7f000000000000000000000000000000000000000000000000000000000000000045861ca00bb2aba987b9946cc5523fd4ca69705fede60a44fdadf303f852ebbf34f7891da02a1036d4b5ef1710a49761f390ae9916914b206e746e898ebaede4bcc5eb5b7cc0",
                "blockHeader" : {
                    "bloom" : "0x00000000000000000000000000000000000000000000000000000000000000000000000000000000000000000000000000000000000000000000000000000000000000000000000000000000000000000000000000000000000000000000000000000000000000000000000000000000000000000000000000000000000000000000000000000000000000000000000000000000000000000000000000000000000000000000000000000000000000000000000000000000000000000000000000000000000000000000000000000000000000000000000000000000000000000000000000000000000000000000000000000000000000000000000000000000",
                    "coinbase" : "0x945304eb96065b2a98b57a48a06ae28d285a71b5",
                    "difficulty" : "0x20000",
                    "extraData" : "0x00",
                    "gasLimit" : "0x7fffffffffffffff",
                    "gasUsed" : "0x594a",
                    "hash" : "0xe39ee26ea89f1e900cf988e46c17fc648e2b26b25f233d601dfbc20e89d5be3f",
                    "mixHash" : "0x0000000000000000000000000000000000000000000000000000000000000000",
                    "nonce" : "0x0000000000000000",
                    "number" : "0x1",
                    "parentHash" : "0x0556a3ca308ea3ddf7488d7795f82afc544a6f1c46a790baf66daecf21909174",
                    "receiptTrie" : "0x6f7d0909e4c5cb6fca541431028fb8d2cdcab09a5f3327395a58898af689d895",
                    "stateRoot" : "0xf2f2580fd18cd6de36ea4c4d771114703c11fce3f8893435daed8ab1c01eee52",
                    "timestamp" : "0x3e8",
                    "transactionsTrie" : "0xe81aa9e2383a154c60354adfcdf7a1d9b6ee077de7c4640afd9600318b3a8184",
                    "uncleHash" : "0x1dcc4de8dec75d7aab85b567b6ccd41ad312451b948a7413f0a142fd40d49347"
                },
                "transactions" : [
                    {
                        "data" : "0x7f00000000000000000000000100000000000000000000000000000000000000007f00000000000000000000000000000000000000000000000000000000000000007f00000000000000000000000000000000000000000000000000000000000000007fffffffffffffffffffffffffffffffffffffffffffffffffffffffffffffffff7f00000000000000000000000000000000000000000000000000000000000000017ffffffffffffffffffffffffffffffffffffffffffffffffffffffffffffffffe7f00000000000000000000000000000000000000000000000000000000000000004586",
                        "gasLimit" : "0x41aec609",
                        "gasPrice" : "0x01",
                        "nonce" : "0x00",
                        "to" : "0x095e7baea6a6c7c4c2dfeb977efac326af552d87",
                        "value" : "0x025dcd0a",
                        "v" : "0x1c",
                        "r" : "0x0bb2aba987b9946cc5523fd4ca69705fede60a44fdadf303f852ebbf34f7891d",
                        "s" : "0x2a1036d4b5ef1710a49761f390ae9916914b206e746e898ebaede4bcc5eb5b7c"
                    }
                ]
            }
        ]
    }
}