{
    "randomStatetest458_d0g0v0_Istanbul" : {
        "_info" : {
            "comment" : "",
            "filling-rpc-server" : "Geth-1.9.6-unstable-63b18027-20190920",
            "filling-tool-version" : "retesteth-0.0.1+commit.0ae18aef.Linux.g++",
            "lllcversion" : "Version: 0.5.12-develop.2019.9.13+commit.2d601a4f.Linux.g++",
            "source" : "src/GeneralStateTestsFiller/stRandom2/randomStatetest458Filler.json",
            "sourceHash" : "353e2f5c7814635b195ac3106971982f25bdcbdc8e213b6c8fed0bc137b2fc51"
        },
        "genesisBlockHeader" : {
            "bloom" : "0x00000000000000000000000000000000000000000000000000000000000000000000000000000000000000000000000000000000000000000000000000000000000000000000000000000000000000000000000000000000000000000000000000000000000000000000000000000000000000000000000000000000000000000000000000000000000000000000000000000000000000000000000000000000000000000000000000000000000000000000000000000000000000000000000000000000000000000000000000000000000000000000000000000000000000000000000000000000000000000000000000000000000000000000000000000000",
            "coinbase" : "0x945304eb96065b2a98b57a48a06ae28d285a71b5",
            "difficulty" : "0x20000",
            "extraData" : "0x00",
            "gasLimit" : "0x7fffffffffffffff",
            "gasUsed" : "0x0",
            "hash" : "0x53e17de28d0b034be71b8480b20e3f20a193fd2e408759122b7385726b9f2932",
            "mixHash" : "0x0000000000000000000000000000000000000000000000000000000000000000",
            "nonce" : "0x0000000000000000",
            "number" : "0x0",
            "parentHash" : "0x0000000000000000000000000000000000000000000000000000000000000000",
            "receiptTrie" : "0x56e81f171bcc55a6ff8345e692c0f86e5b48e01b996cadc001622fb5e363b421",
            "stateRoot" : "0x27d401323ea4fcea2762b77d6dbd501a065ab15036c823986bf1eef9a280b1e1",
            "timestamp" : "0x0",
            "transactionsTrie" : "0x56e81f171bcc55a6ff8345e692c0f86e5b48e01b996cadc001622fb5e363b421",
            "uncleHash" : "0x1dcc4de8dec75d7aab85b567b6ccd41ad312451b948a7413f0a142fd40d49347"
        },
        "pre" : {
            "0x095e7baea6a6c7c4c2dfeb977efac326af552d87" : {
                "balance" : "0x00",
                "code" : "0x7689747fb3520231748bbe5eb9617666e630019e3e84ce7179c5d83b7e36050e5c05623956e599f54eb56213e4f96f69f402cd73e13c366095a3fe56bdd6a815d9ba23f3a9729bc462385c697ed9f24192c949e33ff7ed256c84979d70148b8fd8a62438ca053de2642271456dde46ce78cf7c6d1d2cc48eee658a73ad9f9ca1e550720490e2d0769e0a429773e42fc965ea1030f6c0787b4e7bc4915150a99fc758d3373561d8917c4c7d605f0cd8d2203f4d69606198437429e2f2d2bf742b28760a9c0ab51203d0c5d5b9e16d74ce0428945aaff2d0f99240a901d3233bd04e366c367ab93ecea0c206fbf01084254636df9c1f308c7d6875d5d5d37f3ce27989e39048f175f0d2dc49eaa86530def7ab70553f5d3904c843b5736025e321e7e2ab92af570e5b3bef4014c54e65316bb546eb8906f155f7b9405326740104d8f5d98dc97ac374ad0c58f4385e086891b9b2657e982eb15a367eab6683b51ea9f219abae5ca39f669a1a88a82e14efd4192a3edbe04a12d35679cf6338130d67f37c324464d16cc866be846b0304ef9fd3c6611e6cdf1277d65f6b2a58ffb61ba979740b8df72816602071e979e6029c9307d718ffdc70f37ea0019353c06b0fb56d8e3738dfdb18418e952092e8625b51749f276cc6ae416a85bd070c61e65240d8c2719c76b0420f84ece41c9be0f93d4f30581c28f69768395163937f95b86da30fa76b6937870245d9250e06b6e07dffea8f849a37647378dd59ac8365a37dd908eea26be2f53375e1dbee32ecaa7e957eace8c6f0883e4ef830485bd43b2b7851a0b11497f752d3ee4560e312a7a91b7b2a88c109737c92feb7807d481ac3fd823f038c4ba82df40a60982a7c7a6f6ba2cb95233c257b30e1c9d3c84aa37b6f4268fec34fb9eef1f8602e6a7bf1ebfa162680b57af09f7a7fc584055ff32d68a92e59ddaf20bcaaaa70d5970fd71c04cdbab46cf86e566e870664b6df2c6861347b2a3886788bbebbd03cbb51ed29357f699c8b974c61528a0423f67a837bfab83afa78a0bff70a653ea0f398f73632d5e3bea0a31115d65486fb6d667110448e0208264a3f76f35972666e7aa7339f23b08e6028616337a0366016601d6014600b630e6db38e73095e7baea6a6c7c4c2dfeb977efac326af552d87635706352bf1695bb9e53d5ad3ba1191ea65ae1880d46c687605148e427a09d40172dbdd5fc72fffb1443080a39a0ee77feed9ddc9050affce41d68c34ad97c484f204a987bcfaf46b9fa4a9ed2dad3738771a3cf86b43f303a8db8cde3ed8a40ae35574b9084f4cab88701d150e628d9b2a33e71c8f9fb0ce9e72866257691776f999b7ddf64f22532351bd34743e08facd1acc94b0d6b56bf97491d5ed9d726af684d1a47abcb243b7c29d12a315e939f70af8d2617df63567c3bc56c16609a27871af77631fe1ccaa0d15f8da9bd9a712a544abb92b925b1d7561fced60b09b6b22f2121b105a65a209e151b76b31be481d57353d10a1d968ca7a185495a8a2935571a0d17443a327bf11cb421baca9064bc4e4497c7d4c486c40082cc2d01b3f6023b726de95ac2ad53ae0b731d741676338181e66c8ac8daf0d54776827987e79d9f617c51f6f4b87cf8fee734c99e5e3fc2e37f17e626cbfd1195157215d10fa39b4b0947c3339139b280c0b042da7ec93a24416d5c52e0ba21ec9d39d6fbcd3d74266580eef6ca9bb9d76bb4dc441f3d6d0cf38307b505251deea82ab39f9ccd17a6507bf16b38640679c22f2134e8258f79b",
                "nonce" : "0x00",
                "storage" : {
                }
            },
            "0x945304eb96065b2a98b57a48a06ae28d285a71b5" : {
                "balance" : "0x2e",
                "code" : "0x6000355415600957005b60203560003555",
                "nonce" : "0x00",
                "storage" : {
                }
            },
            "0xa94f5374fce5edbc8e2a8697c15331677e6ebf0b" : {
                "balance" : "0x0de0b6b3a7640000",
                "code" : "0x",
                "nonce" : "0x00",
                "storage" : {
                }
            }
        },
        "postState" : {
            "0xa94f5374fce5edbc8e2a8697c15331677e6ebf0b" : {
                "code" : "0x",
                "nonce" : "0x01",
                "balance" : "0x0de0b6b327f9a10d",
                "storage" : {
                }
            },
            "0x095e7baea6a6c7c4c2dfeb977efac326af552d87" : {
                "code" : "0x7689747fb3520231748bbe5eb9617666e630019e3e84ce7179c5d83b7e36050e5c05623956e599f54eb56213e4f96f69f402cd73e13c366095a3fe56bdd6a815d9ba23f3a9729bc462385c697ed9f24192c949e33ff7ed256c84979d70148b8fd8a62438ca053de2642271456dde46ce78cf7c6d1d2cc48eee658a73ad9f9ca1e550720490e2d0769e0a429773e42fc965ea1030f6c0787b4e7bc4915150a99fc758d3373561d8917c4c7d605f0cd8d2203f4d69606198437429e2f2d2bf742b28760a9c0ab51203d0c5d5b9e16d74ce0428945aaff2d0f99240a901d3233bd04e366c367ab93ecea0c206fbf01084254636df9c1f308c7d6875d5d5d37f3ce27989e39048f175f0d2dc49eaa86530def7ab70553f5d3904c843b5736025e321e7e2ab92af570e5b3bef4014c54e65316bb546eb8906f155f7b9405326740104d8f5d98dc97ac374ad0c58f4385e086891b9b2657e982eb15a367eab6683b51ea9f219abae5ca39f669a1a88a82e14efd4192a3edbe04a12d35679cf6338130d67f37c324464d16cc866be846b0304ef9fd3c6611e6cdf1277d65f6b2a58ffb61ba979740b8df72816602071e979e6029c9307d718ffdc70f37ea0019353c06b0fb56d8e3738dfdb18418e952092e8625b51749f276cc6ae416a85bd070c61e65240d8c2719c76b0420f84ece41c9be0f93d4f30581c28f69768395163937f95b86da30fa76b6937870245d9250e06b6e07dffea8f849a37647378dd59ac8365a37dd908eea26be2f53375e1dbee32ecaa7e957eace8c6f0883e4ef830485bd43b2b7851a0b11497f752d3ee4560e312a7a91b7b2a88c109737c92feb7807d481ac3fd823f038c4ba82df40a60982a7c7a6f6ba2cb95233c257b30e1c9d3c84aa37b6f4268fec34fb9eef1f8602e6a7bf1ebfa162680b57af09f7a7fc584055ff32d68a92e59ddaf20bcaaaa70d5970fd71c04cdbab46cf86e566e870664b6df2c6861347b2a3886788bbebbd03cbb51ed29357f699c8b974c61528a0423f67a837bfab83afa78a0bff70a653ea0f398f73632d5e3bea0a31115d65486fb6d667110448e0208264a3f76f35972666e7aa7339f23b08e6028616337a0366016601d6014600b630e6db38e73095e7baea6a6c7c4c2dfeb977efac326af552d87635706352bf1695bb9e53d5ad3ba1191ea65ae1880d46c687605148e427a09d40172dbdd5fc72fffb1443080a39a0ee77feed9ddc9050affce41d68c34ad97c484f204a987bcfaf46b9fa4a9ed2dad3738771a3cf86b43f303a8db8cde3ed8a40ae35574b9084f4cab88701d150e628d9b2a33e71c8f9fb0ce9e72866257691776f999b7ddf64f22532351bd34743e08facd1acc94b0d6b56bf97491d5ed9d726af684d1a47abcb243b7c29d12a315e939f70af8d2617df63567c3bc56c16609a27871af77631fe1ccaa0d15f8da9bd9a712a544abb92b925b1d7561fced60b09b6b22f2121b105a65a209e151b76b31be481d57353d10a1d968ca7a185495a8a2935571a0d17443a327bf11cb421baca9064bc4e4497c7d4c486c40082cc2d01b3f6023b726de95ac2ad53ae0b731d741676338181e66c8ac8daf0d54776827987e79d9f617c51f6f4b87cf8fee734c99e5e3fc2e37f17e626cbfd1195157215d10fa39b4b0947c3339139b280c0b042da7ec93a24416d5c52e0ba21ec9d39d6fbcd3d74266580eef6ca9bb9d76bb4dc441f3d6d0cf38307b505251deea82ab39f9ccd17a6507bf16b38640679c22f2134e8258f79b",
                "nonce" : "0x00",
                "balance" : "0x7f120206",
                "storage" : {
                }
            },
            "0x945304eb96065b2a98b57a48a06ae28d285a71b5" : {
                "code" : "0x6000355415600957005b60203560003555",
                "nonce" : "0x00",
                "balance" : "0x1bc16d674f205d1b",
                "storage" : {
                }
            }
        },
        "network" : "Istanbul",
        "sealEngine" : "NoProof",
        "lastblockhash" : "0x5a875b6f7746b550e9f2a3d245ef36303bf83eb09d30c51486762251b86d6540",
        "genesisRLP" : "0xf901fdf901f8a00000000000000000000000000000000000000000000000000000000000000000a01dcc4de8dec75d7aab85b567b6ccd41ad312451b948a7413f0a142fd40d4934794945304eb96065b2a98b57a48a06ae28d285a71b5a027d401323ea4fcea2762b77d6dbd501a065ab15036c823986bf1eef9a280b1e1a056e81f171bcc55a6ff8345e692c0f86e5b48e01b996cadc001622fb5e363b421a056e81f171bcc55a6ff8345e692c0f86e5b48e01b996cadc001622fb5e363b421b90100000000000000000000000000000000000000000000000000000000000000000000000000000000000000000000000000000000000000000000000000000000000000000000000000000000000000000000000000000000000000000000000000000000000000000000000000000000000000000000000000000000000000000000000000000000000000000000000000000000000000000000000000000000000000000000000000000000000000000000000000000000000000000000000000000000000000000000000000000000000000000000000000000000000000000000000000000000000000000000000000000000000000000000000000000000008302000080887fffffffffffffff808000a00000000000000000000000000000000000000000000000000000000000000000880000000000000000c0c0",
        "blocks" : [
            {
                "rlp" : "0xf90352f901fda053e17de28d0b034be71b8480b20e3f20a193fd2e408759122b7385726b9f2932a01dcc4de8dec75d7aab85b567b6ccd41ad312451b948a7413f0a142fd40d4934794945304eb96065b2a98b57a48a06ae28d285a71b5a01f9e4870ddee8c9a39e2c01f55814be4e8fb883b262eec710d393a746b91484ea0b546c2a902997b0d72b19572acbdfd41cda5427a081ef8a6e7ba3b193882fce6a04569f46389d534c8f32ece21267beb223be59628caf039e8baa09f6ac55775d9b90100000000000000000010000000000000000000000000000000000000000000000000000000000000000000000000000000000000000000000000000000000000000000000000000000000000000000000000000000000000000000000000000000000000000000000000000000000000000000000000000000000000000000000000000000000000000000000000000000000000000000000000000000000000000000000000000000040000000000000000000000000000000000000000000000000000000000000000000000000000000000000000000000000000000000000000000000400000000000000000000000000000000000000000000000000000008302000001887fffffffffffffff83585ced8203e800a00000000000000000000000000000000000000000000000000000000000000000880000000000000000f9014ef9014b800184612fcece94095e7baea6a6c7c4c2dfeb977efac326af552d87847f120206b8e56cff89fd2305930f9a427748410969e86bfeabd7748df8c60e9075e32f95abb7b73e260fc345efb09ac919b22eb90402ff6b737a79722d83372adc70ef947e3a28e6dda50601f52fea5b45a7294d90ea73bb64de313534dce604ebc4a22c7519bd1a15bc91aca303759ffdfc849b53ca82e03b1df66d1ede5b09b519084802396f8849817328c82f591c11d4b40c0653e1ec91398ca9a1a6b872165aac3c0567020253bc3f5221edb93cbbd87c7486136d4f5649a5f1ad8808013f373cbffc6c40c8707f2e0449a9ce33beba84b4974ed62803f8dd900ba3b47d3cc55ba503f903701f11881ca03ee45131453f53f74ce907a8048fb7763feaaa25a76d4043ef9fc55c07d8375da0097156ab1f0ada76d58249227d3aa4fc9eb75a5d86fbb4cbf145f04fcadbb498c0",
                "blockHeader" : {
                    "bloom" : "0x00000000000000001000000000000000000000000000000000000000000000000000000000000000000000000000000000000000000000000000000000000000000000000000000000000000000000000000000000000000000000000000000000000000000000000000000000000000000000000000000000000000000000000000000000000000000000000000000000000000000000000000000000000000000000000000000004000000000000000000000000000000000000000000000000000000000000000000000000000000000000000000000000000000000000000000000040000000000000000000000000000000000000000000000000000000",
                    "coinbase" : "0x945304eb96065b2a98b57a48a06ae28d285a71b5",
                    "difficulty" : "0x20000",
                    "extraData" : "0x00",
                    "gasLimit" : "0x7fffffffffffffff",
                    "gasUsed" : "0x585ced",
                    "hash" : "0x5a875b6f7746b550e9f2a3d245ef36303bf83eb09d30c51486762251b86d6540",
                    "mixHash" : "0x0000000000000000000000000000000000000000000000000000000000000000",
                    "nonce" : "0x0000000000000000",
                    "number" : "0x1",
                    "parentHash" : "0x53e17de28d0b034be71b8480b20e3f20a193fd2e408759122b7385726b9f2932",
                    "receiptTrie" : "0x4569f46389d534c8f32ece21267beb223be59628caf039e8baa09f6ac55775d9",
                    "stateRoot" : "0x1f9e4870ddee8c9a39e2c01f55814be4e8fb883b262eec710d393a746b91484e",
                    "timestamp" : "0x3e8",
                    "transactionsTrie" : "0xb546c2a902997b0d72b19572acbdfd41cda5427a081ef8a6e7ba3b193882fce6",
                    "uncleHash" : "0x1dcc4de8dec75d7aab85b567b6ccd41ad312451b948a7413f0a142fd40d49347"
                },
                "transactions" : [
                    {
                        "data" : "0x6cff89fd2305930f9a427748410969e86bfeabd7748df8c60e9075e32f95abb7b73e260fc345efb09ac919b22eb90402ff6b737a79722d83372adc70ef947e3a28e6dda50601f52fea5b45a7294d90ea73bb64de313534dce604ebc4a22c7519bd1a15bc91aca303759ffdfc849b53ca82e03b1df66d1ede5b09b519084802396f8849817328c82f591c11d4b40c0653e1ec91398ca9a1a6b872165aac3c0567020253bc3f5221edb93cbbd87c7486136d4f5649a5f1ad8808013f373cbffc6c40c8707f2e0449a9ce33beba84b4974ed62803f8dd900ba3b47d3cc55ba503f903701f1188",
                        "gasLimit" : "0x612fcece",
                        "gasPrice" : "0x01",
                        "nonce" : "0x00",
                        "to" : "0x095e7baea6a6c7c4c2dfeb977efac326af552d87",
                        "value" : "0x7f120206",
                        "v" : "0x1c",
                        "r" : "0x3ee45131453f53f74ce907a8048fb7763feaaa25a76d4043ef9fc55c07d8375d",
                        "s" : "0x097156ab1f0ada76d58249227d3aa4fc9eb75a5d86fbb4cbf145f04fcadbb498"
                    }
                ]
            }
        ]
    }
}