{
    "randomStatetest646_d0g0v0_Istanbul" : {
        "_info" : {
            "comment" : "Geth Failed this test on all networks",
            "filling-rpc-server" : "Geth-1.9.6-unstable-63b18027-20190920",
            "filling-tool-version" : "retesteth-0.0.1+commit.0ae18aef.Linux.g++",
            "lllcversion" : "Version: 0.5.12-develop.2019.9.13+commit.2d601a4f.Linux.g++",
            "source" : "src/GeneralStateTestsFiller/stRandom2/randomStatetest646Filler.json",
            "sourceHash" : "1416e3805c011f6b9eea4836ea415174ebc25f48c7acf06b1ae6322581d68ee6"
        },
        "genesisBlockHeader" : {
            "bloom" : "0x00000000000000000000000000000000000000000000000000000000000000000000000000000000000000000000000000000000000000000000000000000000000000000000000000000000000000000000000000000000000000000000000000000000000000000000000000000000000000000000000000000000000000000000000000000000000000000000000000000000000000000000000000000000000000000000000000000000000000000000000000000000000000000000000000000000000000000000000000000000000000000000000000000000000000000000000000000000000000000000000000000000000000000000000000000000",
            "coinbase" : "0xd94f5374fce5edbc8e2a8697c15331677e6ebf0b",
            "difficulty" : "0x20000",
            "extraData" : "0x00",
            "gasLimit" : "0x42fe8c95373ea1",
            "gasUsed" : "0x0",
            "hash" : "0xadcc0e02a521840644302689082f1673241a310b46fde78c8063025c7ba516ff",
            "mixHash" : "0x0000000000000000000000000000000000000000000000000000000000000000",
            "nonce" : "0x0000000000000000",
            "number" : "0x0",
            "parentHash" : "0x0000000000000000000000000000000000000000000000000000000000000000",
            "receiptTrie" : "0x56e81f171bcc55a6ff8345e692c0f86e5b48e01b996cadc001622fb5e363b421",
            "stateRoot" : "0xf4769bc73c6f6953c68321ffd78a8379a44abbbb980a36ac5f5d09157408bf2a",
            "timestamp" : "0x0",
            "transactionsTrie" : "0x56e81f171bcc55a6ff8345e692c0f86e5b48e01b996cadc001622fb5e363b421",
            "uncleHash" : "0x1dcc4de8dec75d7aab85b567b6ccd41ad312451b948a7413f0a142fd40d49347"
        },
        "pre" : {
            "0xa94f5374fce5edbc8e2a8697c15331677e6ebf0b" : {
                "balance" : "0x54465ef1c769628b",
                "code" : "0x",
                "nonce" : "0x00",
                "storage" : {
                }
            },
            "0xc94f5374fce5edbc8e2a8697c15331677e6ebf0b" : {
                "balance" : "0x33888d4ce6b934",
                "code" : "0x",
                "nonce" : "0x07",
                "storage" : {
                }
            },
            "0xffffffffffffffffffffffffffffffffffffffff" : {
                "balance" : "0xd61773f0c27b842f",
                "code" : "0x64ba8b878e0154689b908f27acb42e5269603972609834bf9a7e578e45609242172907dd75a92555656c5aa6e9248162013ffa6203864863446d325df0336d2c38cfa2f1cdf8cb623c0591987419",
                "nonce" : "0x1c",
                "storage" : {
                }
            }
        },
        "postState" : {
            "0xa94f5374fce5edbc8e2a8697c15331677e6ebf0b" : {
                "code" : "0x",
                "nonce" : "0x01",
                "balance" : "0x54465ef170c54ded",
                "storage" : {
                }
            },
            "0xb1c0d37237a1f6bd6202aed4b5a7290dfcda6591" : {
                "code" : "0x",
                "nonce" : "0x01",
                "balance" : "0x446d325d",
                "storage" : {
                }
            },
            "0xd94f5374fce5edbc8e2a8697c15331677e6ebf0b" : {
                "code" : "0x",
                "nonce" : "0x00",
                "balance" : "0x1bc16d674ee75b94",
                "storage" : {
                }
            },
            "0xc94f5374fce5edbc8e2a8697c15331677e6ebf0b" : {
                "code" : "0x",
                "nonce" : "0x07",
                "balance" : "0x33888d4ce6b934",
                "storage" : {
                }
            },
            "0xffffffffffffffffffffffffffffffffffffffff" : {
                "code" : "0x64ba8b878e0154689b908f27acb42e5269603972609834bf9a7e578e45609242172907dd75a92555656c5aa6e9248162013ffa6203864863446d325df0336d2c38cfa2f1cdf8cb623c0591987419",
                "nonce" : "0x1d",
                "balance" : "0xd61773f0d4930adc",
                "storage" : {
                    "0x609834bf9a7e578e45609242172907dd75a925" : "0x39"
                }
            }
        },
        "network" : "Istanbul",
        "sealEngine" : "NoProof",
        "lastblockhash" : "0x6a9c71eed04b191f10671d891b32f42b0050a1ee85085638624372c3f6e9a3f2",
        "genesisRLP" : "0xf901fcf901f7a00000000000000000000000000000000000000000000000000000000000000000a01dcc4de8dec75d7aab85b567b6ccd41ad312451b948a7413f0a142fd40d4934794d94f5374fce5edbc8e2a8697c15331677e6ebf0ba0f4769bc73c6f6953c68321ffd78a8379a44abbbb980a36ac5f5d09157408bf2aa056e81f171bcc55a6ff8345e692c0f86e5b48e01b996cadc001622fb5e363b421a056e81f171bcc55a6ff8345e692c0f86e5b48e01b996cadc001622fb5e363b421b901000000000000000000000000000000000000000000000000000000000000000000000000000000000000000000000000000000000000000000000000000000000000000000000000000000000000000000000000000000000000000000000000000000000000000000000000000000000000000000000000000000000000000000000000000000000000000000000000000000000000000000000000000000000000000000000000000000000000000000000000000000000000000000000000000000000000000000000000000000000000000000000000000000000000000000000000000000000000000000000000000000000000000000000000000000000083020000808742fe8c95373ea1808000a00000000000000000000000000000000000000000000000000000000000000000880000000000000000c0c0",
        "blocks" : [
            {
                "rlp" : "0xf9034ff901fca0adcc0e02a521840644302689082f1673241a310b46fde78c8063025c7ba516ffa01dcc4de8dec75d7aab85b567b6ccd41ad312451b948a7413f0a142fd40d4934794d94f5374fce5edbc8e2a8697c15331677e6ebf0ba00b6dab5bcac0e4b30af352f37fedc731f7e63d50692acae25916c73b1042d322a0e2f3ffcaa086c7e64d88408afdf7ddaa8ce266e03053f46c6ae4ff89d4583024a0af77453af0d03ad001c2064d836bebde4832cf5aeda4ccc39bcb7ec8fc93f4acb9010000000000000000000000000000000000000000000000000000000000000000000000000000000000000000000000000000000000000000000000000000000000000000000000000000000000000000000000000000000000000000000000000000000000000000000000000000000000000000000000000000000000000000000000000000000000000000000000000000000000000000000000000000000000000000000000000000000000000000000000000000000000000000000000000000000000000000000000000000000000000000000000000000000000000000000000000000000000000000000000000000000000000000000000000000000000830200000187430f4c385c8c6f83047acc8203e800a00000000000000000000000000000000000000000000000000000000000000000880000000000000000f9014cf90149800783584d3194ffffffffffffffffffffffffffffffffffffffff845684b90ab8e4785196fdcb5d7e54c4b381e68c7eaeae2735e5537830130057f554672e70a6b867385ea2714ea3185b854bf0b4f9617fb47e6afe9ed4ed68f94b50776420fa24010960ce6b65e2a1ebdce518181d6c69a678989d767fc3d28b6c524f52a87d05519cb32e38fbdc5f801f756922b90c0e2e5bc848bb9c6a5d08ee65470af4fbbeacf87a65c90dc57babd8cdc9819f898551925828bfd360e8a1f1616619d171c23004b0045424cc962e09d8a65d9fd94af9863d61eba97d76dc150e19d991ff1b5fd340dd4fd7e522a659ddf69bcbc729599667aa30536cd85576cc3477495dae10c85b561ca0f3869ccfd3d3aff410eeead9d78d4c48db7b5e3025739d0081a4b43616f5727da010486d2e1e33d6fd1736874b92ac8dc94cb28f17e8ecf8a14bb3772e92613921c0",
                "blockHeader" : {
                    "bloom" : "0x00000000000000000000000000000000000000000000000000000000000000000000000000000000000000000000000000000000000000000000000000000000000000000000000000000000000000000000000000000000000000000000000000000000000000000000000000000000000000000000000000000000000000000000000000000000000000000000000000000000000000000000000000000000000000000000000000000000000000000000000000000000000000000000000000000000000000000000000000000000000000000000000000000000000000000000000000000000000000000000000000000000000000000000000000000000",
                    "coinbase" : "0xd94f5374fce5edbc8e2a8697c15331677e6ebf0b",
                    "difficulty" : "0x20000",
                    "extraData" : "0x00",
                    "gasLimit" : "0x430f4c385c8c6f",
                    "gasUsed" : "0x47acc",
                    "hash" : "0x6a9c71eed04b191f10671d891b32f42b0050a1ee85085638624372c3f6e9a3f2",
                    "mixHash" : "0x0000000000000000000000000000000000000000000000000000000000000000",
                    "nonce" : "0x0000000000000000",
                    "number" : "0x1",
                    "parentHash" : "0xadcc0e02a521840644302689082f1673241a310b46fde78c8063025c7ba516ff",
                    "receiptTrie" : "0xaf77453af0d03ad001c2064d836bebde4832cf5aeda4ccc39bcb7ec8fc93f4ac",
                    "stateRoot" : "0x0b6dab5bcac0e4b30af352f37fedc731f7e63d50692acae25916c73b1042d322",
                    "timestamp" : "0x3e8",
                    "transactionsTrie" : "0xe2f3ffcaa086c7e64d88408afdf7ddaa8ce266e03053f46c6ae4ff89d4583024",
                    "uncleHash" : "0x1dcc4de8dec75d7aab85b567b6ccd41ad312451b948a7413f0a142fd40d49347"
                },
                "transactions" : [
                    {
                        "data" : "0x785196fdcb5d7e54c4b381e68c7eaeae2735e5537830130057f554672e70a6b867385ea2714ea3185b854bf0b4f9617fb47e6afe9ed4ed68f94b50776420fa24010960ce6b65e2a1ebdce518181d6c69a678989d767fc3d28b6c524f52a87d05519cb32e38fbdc5f801f756922b90c0e2e5bc848bb9c6a5d08ee65470af4fbbeacf87a65c90dc57babd8cdc9819f898551925828bfd360e8a1f1616619d171c23004b0045424cc962e09d8a65d9fd94af9863d61eba97d76dc150e19d991ff1b5fd340dd4fd7e522a659ddf69bcbc729599667aa30536cd85576cc3477495dae10c85b56",
                        "gasLimit" : "0x584d31",
                        "gasPrice" : "0x07",
                        "nonce" : "0x00",
                        "to" : "0xffffffffffffffffffffffffffffffffffffffff",
                        "value" : "0x5684b90a",
                        "v" : "0x1c",
                        "r" : "0xf3869ccfd3d3aff410eeead9d78d4c48db7b5e3025739d0081a4b43616f5727d",
                        "s" : "0x10486d2e1e33d6fd1736874b92ac8dc94cb28f17e8ecf8a14bb3772e92613921"
                    }
                ]
            }
        ]
    }
}