{
    "randomStatetest513_d0g0v0_Istanbul" : {
        "_info" : {
            "comment" : "",
            "filling-rpc-server" : "Geth-1.9.6-unstable-63b18027-20190920",
            "filling-tool-version" : "retesteth-0.0.1+commit.0ae18aef.Linux.g++",
            "lllcversion" : "Version: 0.5.12-develop.2019.9.13+commit.2d601a4f.Linux.g++",
            "source" : "src/GeneralStateTestsFiller/stRandom2/randomStatetest513Filler.json",
            "sourceHash" : "89e5be40404da407c98585b7298f2f2f151cf25e69ffd0466742e625766a1641"
        },
        "genesisBlockHeader" : {
            "bloom" : "0x00000000000000000000000000000000000000000000000000000000000000000000000000000000000000000000000000000000000000000000000000000000000000000000000000000000000000000000000000000000000000000000000000000000000000000000000000000000000000000000000000000000000000000000000000000000000000000000000000000000000000000000000000000000000000000000000000000000000000000000000000000000000000000000000000000000000000000000000000000000000000000000000000000000000000000000000000000000000000000000000000000000000000000000000000000000",
            "coinbase" : "0x945304eb96065b2a98b57a48a06ae28d285a71b5",
            "difficulty" : "0x20000",
            "extraData" : "0x00",
            "gasLimit" : "0x7fffffffffffffff",
            "gasUsed" : "0x0",
            "hash" : "0x94156feead04a5bc4e4e7b9e1bb72bc1db83bb04fcd17095246efb1af4362a7b",
            "mixHash" : "0x0000000000000000000000000000000000000000000000000000000000000000",
            "nonce" : "0x0000000000000000",
            "number" : "0x0",
            "parentHash" : "0x0000000000000000000000000000000000000000000000000000000000000000",
            "receiptTrie" : "0x56e81f171bcc55a6ff8345e692c0f86e5b48e01b996cadc001622fb5e363b421",
            "stateRoot" : "0xf432cb102c97e60bb45c0a6886fc367360d1610ebc2f987c1558bece235b9f83",
            "timestamp" : "0x0",
            "transactionsTrie" : "0x56e81f171bcc55a6ff8345e692c0f86e5b48e01b996cadc001622fb5e363b421",
            "uncleHash" : "0x1dcc4de8dec75d7aab85b567b6ccd41ad312451b948a7413f0a142fd40d49347"
        },
        "pre" : {
            "0x095e7baea6a6c7c4c2dfeb977efac326af552d87" : {
                "balance" : "0x00",
                "code" : "0x7f00000000000000000000000000000000000000000000000000000000000000007f000000000000000000000000ffffffffffffffffffffffffffffffffffffffff7f00000000000000000000000000000000000000000000000000000000000000007f000000000000000000000000ffffffffffffffffffffffffffffffffffffffff3b437ffffffffffffffffffffffffffffffffffffffffffffffffffffffffffffffffe7f0000000000000000000000000000000000000000000000000000000000000001982046817382a13afa3760088d55",
                "nonce" : "0x00",
                "storage" : {
                }
            },
            "0x945304eb96065b2a98b57a48a06ae28d285a71b5" : {
                "balance" : "0x2e",
                "code" : "0x6000355415600957005b60203560003555",
                "nonce" : "0x00",
                "storage" : {
                }
            },
            "0xa94f5374fce5edbc8e2a8697c15331677e6ebf0b" : {
                "balance" : "0x0de0b6b3a7640000",
                "code" : "0x",
                "nonce" : "0x00",
                "storage" : {
                }
            }
        },
        "postState" : {
            "0xa94f5374fce5edbc8e2a8697c15331677e6ebf0b" : {
                "code" : "0x",
                "nonce" : "0x01",
                "balance" : "0x0de0b6b38a6c8a71",
                "storage" : {
                }
            },
            "0x095e7baea6a6c7c4c2dfeb977efac326af552d87" : {
                "code" : "0x7f00000000000000000000000000000000000000000000000000000000000000007f000000000000000000000000ffffffffffffffffffffffffffffffffffffffff7f00000000000000000000000000000000000000000000000000000000000000007f000000000000000000000000ffffffffffffffffffffffffffffffffffffffff3b437ffffffffffffffffffffffffffffffffffffffffffffffffffffffffffffffffe7f0000000000000000000000000000000000000000000000000000000000000001982046817382a13afa3760088d55",
                "nonce" : "0x00",
                "balance" : "0x00",
                "storage" : {
                }
            },
            "0x945304eb96065b2a98b57a48a06ae28d285a71b5" : {
                "code" : "0x6000355415600957005b60203560003555",
                "nonce" : "0x00",
                "balance" : "0x1bc16d676bbf75bd",
                "storage" : {
                }
            }
        },
        "network" : "Istanbul",
        "sealEngine" : "NoProof",
        "lastblockhash" : "0x599e00818b7d1a7e86541fa821e6d60591121abc508c15cb5b84c513091e118d",
        "genesisRLP" : "0xf901fdf901f8a00000000000000000000000000000000000000000000000000000000000000000a01dcc4de8dec75d7aab85b567b6ccd41ad312451b948a7413f0a142fd40d4934794945304eb96065b2a98b57a48a06ae28d285a71b5a0f432cb102c97e60bb45c0a6886fc367360d1610ebc2f987c1558bece235b9f83a056e81f171bcc55a6ff8345e692c0f86e5b48e01b996cadc001622fb5e363b421a056e81f171bcc55a6ff8345e692c0f86e5b48e01b996cadc001622fb5e363b421b90100000000000000000000000000000000000000000000000000000000000000000000000000000000000000000000000000000000000000000000000000000000000000000000000000000000000000000000000000000000000000000000000000000000000000000000000000000000000000000000000000000000000000000000000000000000000000000000000000000000000000000000000000000000000000000000000000000000000000000000000000000000000000000000000000000000000000000000000000000000000000000000000000000000000000000000000000000000000000000000000000000000000000000000000000000000008302000080887fffffffffffffff808000a00000000000000000000000000000000000000000000000000000000000000000880000000000000000c0c0",
        "blocks" : [
            {
                "rlp" : "0xf90343f901fea094156feead04a5bc4e4e7b9e1bb72bc1db83bb04fcd17095246efb1af4362a7ba01dcc4de8dec75d7aab85b567b6ccd41ad312451b948a7413f0a142fd40d4934794945304eb96065b2a98b57a48a06ae28d285a71b5a0719d6695e129be7550c9b79c2add66d7bf7d1f836e20c39aaea3ba52371e4d8aa0d3c6408b574629e8fa9a92ddaafcee5be717f9df0671de01bfa0ab2d87b94ab5a0efd220d7ad827d99f35753628a461b1074b41e1441ecf267ab68b8cc6375285cb90100000000000000000000000000000000000000000000000000000000000000000000000000000000000000000000000000000000000000000000000000000000000000000000000000000000000000000000000000000000000000000000000000000000000000000000000000000000000000000000000000000000000000000000000000000000000000000000000000000000000000000000000000000000000000000000000000000000000000000000000000000000000000000000000000000000000000000000000000000000000000000000000000000000000000000000000000000000000000000000000000000000000000000000000000000000008302000001887fffffffffffffff841cf7758f8203e800a00000000000000000000000000000000000000000000000000000000000000000880000000000000000f9013ef9013b8001841cf7758f94095e7baea6a6c7c4c2dfeb977efac326af552d8784183a4af8b8d57f00000000000000000000000000000000000000000000000000000000000000007f000000000000000000000000ffffffffffffffffffffffffffffffffffffffff7f00000000000000000000000000000000000000000000000000000000000000007f000000000000000000000000ffffffffffffffffffffffffffffffffffffffff3b437ffffffffffffffffffffffffffffffffffffffffffffffffffffffffffffffffe7f0000000000000000000000000000000000000000000000000000000000000001982046817382a13afa3760088d1ba073053b80566e2ebe32e3f51f2d5b5bb7d631d1fc2960d5c272466b8bc6f9b1bea068d967d0a7ce2a5cd3839667c4806a9981ebfc554f73c90b5aa5293daad82defc0",
                "blockHeader" : {
                    "bloom" : "0x00000000000000000000000000000000000000000000000000000000000000000000000000000000000000000000000000000000000000000000000000000000000000000000000000000000000000000000000000000000000000000000000000000000000000000000000000000000000000000000000000000000000000000000000000000000000000000000000000000000000000000000000000000000000000000000000000000000000000000000000000000000000000000000000000000000000000000000000000000000000000000000000000000000000000000000000000000000000000000000000000000000000000000000000000000000",
                    "coinbase" : "0x945304eb96065b2a98b57a48a06ae28d285a71b5",
                    "difficulty" : "0x20000",
                    "extraData" : "0x00",
                    "gasLimit" : "0x7fffffffffffffff",
                    "gasUsed" : "0x1cf7758f",
                    "hash" : "0x599e00818b7d1a7e86541fa821e6d60591121abc508c15cb5b84c513091e118d",
                    "mixHash" : "0x0000000000000000000000000000000000000000000000000000000000000000",
                    "nonce" : "0x0000000000000000",
                    "number" : "0x1",
                    "parentHash" : "0x94156feead04a5bc4e4e7b9e1bb72bc1db83bb04fcd17095246efb1af4362a7b",
                    "receiptTrie" : "0xefd220d7ad827d99f35753628a461b1074b41e1441ecf267ab68b8cc6375285c",
                    "stateRoot" : "0x719d6695e129be7550c9b79c2add66d7bf7d1f836e20c39aaea3ba52371e4d8a",
                    "timestamp" : "0x3e8",
                    "transactionsTrie" : "0xd3c6408b574629e8fa9a92ddaafcee5be717f9df0671de01bfa0ab2d87b94ab5",
                    "uncleHash" : "0x1dcc4de8dec75d7aab85b567b6ccd41ad312451b948a7413f0a142fd40d49347"
                },
                "transactions" : [
                    {
                        "data" : "0x7f00000000000000000000000000000000000000000000000000000000000000007f000000000000000000000000ffffffffffffffffffffffffffffffffffffffff7f00000000000000000000000000000000000000000000000000000000000000007f000000000000000000000000ffffffffffffffffffffffffffffffffffffffff3b437ffffffffffffffffffffffffffffffffffffffffffffffffffffffffffffffffe7f0000000000000000000000000000000000000000000000000000000000000001982046817382a13afa3760088d",
                        "gasLimit" : "0x1cf7758f",
                        "gasPrice" : "0x01",
                        "nonce" : "0x00",
                        "to" : "0x095e7baea6a6c7c4c2dfeb977efac326af552d87",
                        "value" : "0x183a4af8",
                        "v" : "0x1b",
                        "r" : "0x73053b80566e2ebe32e3f51f2d5b5bb7d631d1fc2960d5c272466b8bc6f9b1be",
                        "s" : "0x68d967d0a7ce2a5cd3839667c4806a9981ebfc554f73c90b5aa5293daad82def"
                    }
                ]
            }
        ]
    }
}