{
    "randomStatetest433_d0g0v0_Istanbul" : {
        "_info" : {
            "comment" : "",
            "filling-rpc-server" : "Geth-1.9.6-unstable-63b18027-20190920",
            "filling-tool-version" : "retesteth-0.0.1+commit.0ae18aef.Linux.g++",
            "lllcversion" : "Version: 0.5.12-develop.2019.9.13+commit.2d601a4f.Linux.g++",
            "source" : "src/GeneralStateTestsFiller/stRandom2/randomStatetest433Filler.json",
            "sourceHash" : "4df5e8c8439270dbe36ffc1bcdc39e60ff30889fd18a9945aa884caac9b846aa"
        },
        "genesisBlockHeader" : {
            "bloom" : "0x00000000000000000000000000000000000000000000000000000000000000000000000000000000000000000000000000000000000000000000000000000000000000000000000000000000000000000000000000000000000000000000000000000000000000000000000000000000000000000000000000000000000000000000000000000000000000000000000000000000000000000000000000000000000000000000000000000000000000000000000000000000000000000000000000000000000000000000000000000000000000000000000000000000000000000000000000000000000000000000000000000000000000000000000000000000",
            "coinbase" : "0x945304eb96065b2a98b57a48a06ae28d285a71b5",
            "difficulty" : "0x20000",
            "extraData" : "0x00",
            "gasLimit" : "0x7fffffffffffffff",
            "gasUsed" : "0x0",
            "hash" : "0x32677921051587e999b8b41f36896e9fd72495f4fde450bea56c26cac4bff38a",
            "mixHash" : "0x0000000000000000000000000000000000000000000000000000000000000000",
            "nonce" : "0x0000000000000000",
            "number" : "0x0",
            "parentHash" : "0x0000000000000000000000000000000000000000000000000000000000000000",
            "receiptTrie" : "0x56e81f171bcc55a6ff8345e692c0f86e5b48e01b996cadc001622fb5e363b421",
            "stateRoot" : "0x5dc321be69e2d0fa8ddc74c006bd2aac5316d27cd6b83c5f52f3c38753d86872",
            "timestamp" : "0x0",
            "transactionsTrie" : "0x56e81f171bcc55a6ff8345e692c0f86e5b48e01b996cadc001622fb5e363b421",
            "uncleHash" : "0x1dcc4de8dec75d7aab85b567b6ccd41ad312451b948a7413f0a142fd40d49347"
        },
        "pre" : {
            "0x095e7baea6a6c7c4c2dfeb977efac326af552d87" : {
                "balance" : "0x00",
                "code" : "0x7f000000000000000000000000000000000000000000000000000000000000c3507f000000000000000000000000000000000000000000000000000000000000c3507f00000000000000000000000000000000000000000000000000000000000000017f00000000000000000000000000000000000000000000000000000000000000017ffffffffffffffffffffffffffffffffffffffffffffffffffffffffffffffffe7f000000000000000000000000945304eb96065b2a98b57a48a06ae28d285a71b57f000000000000000000000000000000000000000000000000000000000000c3507f000000000000000000000000000000000000000000000000000000000000c350a3f305205bf156207259573055",
                "nonce" : "0x00",
                "storage" : {
                }
            },
            "0x945304eb96065b2a98b57a48a06ae28d285a71b5" : {
                "balance" : "0x2e",
                "code" : "0x6000355415600957005b60203560003555",
                "nonce" : "0x00",
                "storage" : {
                }
            },
            "0xa94f5374fce5edbc8e2a8697c15331677e6ebf0b" : {
                "balance" : "0x0de0b6b3a7640000",
                "code" : "0x",
                "nonce" : "0x00",
                "storage" : {
                }
            }
        },
        "postState" : {
            "0xa94f5374fce5edbc8e2a8697c15331677e6ebf0b" : {
                "code" : "0x",
                "nonce" : "0x01",
                "balance" : "0x0de0b6b381c19359",
                "storage" : {
                }
            },
            "0x095e7baea6a6c7c4c2dfeb977efac326af552d87" : {
                "code" : "0x7f000000000000000000000000000000000000000000000000000000000000c3507f000000000000000000000000000000000000000000000000000000000000c3507f00000000000000000000000000000000000000000000000000000000000000017f00000000000000000000000000000000000000000000000000000000000000017ffffffffffffffffffffffffffffffffffffffffffffffffffffffffffffffffe7f000000000000000000000000945304eb96065b2a98b57a48a06ae28d285a71b57f000000000000000000000000000000000000000000000000000000000000c3507f000000000000000000000000000000000000000000000000000000000000c350a3f305205bf156207259573055",
                "nonce" : "0x00",
                "balance" : "0x259b82e3",
                "storage" : {
                }
            },
            "0x945304eb96065b2a98b57a48a06ae28d285a71b5" : {
                "code" : "0x6000355415600957005b60203560003555",
                "nonce" : "0x00",
                "balance" : "0x1bc16d674ecee9f2",
                "storage" : {
                }
            }
        },
        "network" : "Istanbul",
        "sealEngine" : "NoProof",
        "lastblockhash" : "0x3ab0707a59817595611ea692f798ba6bf39ccd1838ba91e17b3149731ab11c71",
        "genesisRLP" : "0xf901fdf901f8a00000000000000000000000000000000000000000000000000000000000000000a01dcc4de8dec75d7aab85b567b6ccd41ad312451b948a7413f0a142fd40d4934794945304eb96065b2a98b57a48a06ae28d285a71b5a05dc321be69e2d0fa8ddc74c006bd2aac5316d27cd6b83c5f52f3c38753d86872a056e81f171bcc55a6ff8345e692c0f86e5b48e01b996cadc001622fb5e363b421a056e81f171bcc55a6ff8345e692c0f86e5b48e01b996cadc001622fb5e363b421b90100000000000000000000000000000000000000000000000000000000000000000000000000000000000000000000000000000000000000000000000000000000000000000000000000000000000000000000000000000000000000000000000000000000000000000000000000000000000000000000000000000000000000000000000000000000000000000000000000000000000000000000000000000000000000000000000000000000000000000000000000000000000000000000000000000000000000000000000000000000000000000000000000000000000000000000000000000000000000000000000000000000000000000000000000000000008302000080887fffffffffffffff808000a00000000000000000000000000000000000000000000000000000000000000000880000000000000000c0c0",
        "blocks" : [
            {
                "rlp" : "0xf90382f901fda032677921051587e999b8b41f36896e9fd72495f4fde450bea56c26cac4bff38aa01dcc4de8dec75d7aab85b567b6ccd41ad312451b948a7413f0a142fd40d4934794945304eb96065b2a98b57a48a06ae28d285a71b5a0aa8e9f4e10e8af26a732599cfdd30a79b98efb7f20f1ba8dda9e2ce35fabe5dca0a154029b13ca67c6f1dfdb37c1ab06f0aa64f42f5300ae479ca43bc3804ece3ba08350b44a8b795602015d9e51278bad78937ce87c79a5d6af57332fce998b75a6b90100000000000000000010000000000000000000000000000000000000000000000000000000000000000000000000000000000000000000000000000000000400000000000000000000000000000000000010000000000400008000000000000000000000000000000000000000000000000000000000000000000000000000000000000000000000000000000000000000000000000000000000000000000000000000000000000000040000000000000000080000000000000000000000000000000000000000000000000000000000400000000000400000000000000000400000000000400000000000000000000000200000000000000000000000000000008302000001887fffffffffffffff8306e9c48203e800a00000000000000000000000000000000000000000000000000000000000000000880000000000000000f9017ef9017b8001842e64c88494095e7baea6a6c7c4c2dfeb977efac326af552d8784259b82e3b901147f000000000000000000000000000000000000000000000000000000000000c3507f000000000000000000000000000000000000000000000000000000000000c3507f00000000000000000000000000000000000000000000000000000000000000017f00000000000000000000000000000000000000000000000000000000000000017ffffffffffffffffffffffffffffffffffffffffffffffffffffffffffffffffe7f000000000000000000000000945304eb96065b2a98b57a48a06ae28d285a71b57f000000000000000000000000000000000000000000000000000000000000c3507f000000000000000000000000000000000000000000000000000000000000c350a3f305205bf15620725957301ba0807190e6046671ec352377c969fc6f0decd226321a67b51edba5db40e2fe7271a05cf2738bd5876ad86096bb1cc8bd7476dd74a6e10ce7bf9a6d4019a01fc951b7c0",
                "blockHeader" : {
                    "bloom" : "0x00000000000000001000000000000000000000000000000000000000000000000000000000000000000000000000000000000000000000000000000000040000000000000000000000000000000000001000000000040000800000000000000000000000000000000000000000000000000000000000000000000000000000000000000000000000000000000000000000000000000000000000000000000000000000000000000004000000000000000008000000000000000000000000000000000000000000000000000000000040000000000040000000000000000040000000000040000000000000000000000020000000000000000000000000000000",
                    "coinbase" : "0x945304eb96065b2a98b57a48a06ae28d285a71b5",
                    "difficulty" : "0x20000",
                    "extraData" : "0x00",
                    "gasLimit" : "0x7fffffffffffffff",
                    "gasUsed" : "0x6e9c4",
                    "hash" : "0x3ab0707a59817595611ea692f798ba6bf39ccd1838ba91e17b3149731ab11c71",
                    "mixHash" : "0x0000000000000000000000000000000000000000000000000000000000000000",
                    "nonce" : "0x0000000000000000",
                    "number" : "0x1",
                    "parentHash" : "0x32677921051587e999b8b41f36896e9fd72495f4fde450bea56c26cac4bff38a",
                    "receiptTrie" : "0x8350b44a8b795602015d9e51278bad78937ce87c79a5d6af57332fce998b75a6",
                    "stateRoot" : "0xaa8e9f4e10e8af26a732599cfdd30a79b98efb7f20f1ba8dda9e2ce35fabe5dc",
                    "timestamp" : "0x3e8",
                    "transactionsTrie" : "0xa154029b13ca67c6f1dfdb37c1ab06f0aa64f42f5300ae479ca43bc3804ece3b",
                    "uncleHash" : "0x1dcc4de8dec75d7aab85b567b6ccd41ad312451b948a7413f0a142fd40d49347"
                },
                "transactions" : [
                    {
                        "data" : "0x7f000000000000000000000000000000000000000000000000000000000000c3507f000000000000000000000000000000000000000000000000000000000000c3507f00000000000000000000000000000000000000000000000000000000000000017f00000000000000000000000000000000000000000000000000000000000000017ffffffffffffffffffffffffffffffffffffffffffffffffffffffffffffffffe7f000000000000000000000000945304eb96065b2a98b57a48a06ae28d285a71b57f000000000000000000000000000000000000000000000000000000000000c3507f000000000000000000000000000000000000000000000000000000000000c350a3f305205bf1562072595730",
                        "gasLimit" : "0x2e64c884",
                        "gasPrice" : "0x01",
                        "nonce" : "0x00",
                        "to" : "0x095e7baea6a6c7c4c2dfeb977efac326af552d87",
                        "value" : "0x259b82e3",
                        "v" : "0x1b",
                        "r" : "0x807190e6046671ec352377c969fc6f0decd226321a67b51edba5db40e2fe7271",
                        "s" : "0x5cf2738bd5876ad86096bb1cc8bd7476dd74a6e10ce7bf9a6d4019a01fc951b7"
                    }
                ]
            }
        ]
    }
}