{
    "randomStatetest399_d0g0v0_Istanbul" : {
        "_info" : {
            "comment" : "",
            "filling-rpc-server" : "Geth-1.9.6-unstable-63b18027-20190920",
            "filling-tool-version" : "retesteth-0.0.1+commit.0ae18aef.Linux.g++",
            "lllcversion" : "Version: 0.5.12-develop.2019.9.13+commit.2d601a4f.Linux.g++",
            "source" : "src/GeneralStateTestsFiller/stRandom2/randomStatetest399Filler.json",
            "sourceHash" : "740a7ad5c375e889153418440b63128e09c12da8cf0628c0381879747f5a8fc2"
        },
        "genesisBlockHeader" : {
            "bloom" : "0x00000000000000000000000000000000000000000000000000000000000000000000000000000000000000000000000000000000000000000000000000000000000000000000000000000000000000000000000000000000000000000000000000000000000000000000000000000000000000000000000000000000000000000000000000000000000000000000000000000000000000000000000000000000000000000000000000000000000000000000000000000000000000000000000000000000000000000000000000000000000000000000000000000000000000000000000000000000000000000000000000000000000000000000000000000000",
            "coinbase" : "0x945304eb96065b2a98b57a48a06ae28d285a71b5",
            "difficulty" : "0x20000",
            "extraData" : "0x00",
            "gasLimit" : "0x7fffffffffffffff",
            "gasUsed" : "0x0",
            "hash" : "0xd3952b33bbe07f512d3725cf4121cd0a111e80857f2a41235c51bd71f1d621d1",
            "mixHash" : "0x0000000000000000000000000000000000000000000000000000000000000000",
            "nonce" : "0x0000000000000000",
            "number" : "0x0",
            "parentHash" : "0x0000000000000000000000000000000000000000000000000000000000000000",
            "receiptTrie" : "0x56e81f171bcc55a6ff8345e692c0f86e5b48e01b996cadc001622fb5e363b421",
            "stateRoot" : "0x8c5cb1e0c0c150d7779e337051825cc6400dc318a7da2ec8bf40ceef866d20c5",
            "timestamp" : "0x0",
            "transactionsTrie" : "0x56e81f171bcc55a6ff8345e692c0f86e5b48e01b996cadc001622fb5e363b421",
            "uncleHash" : "0x1dcc4de8dec75d7aab85b567b6ccd41ad312451b948a7413f0a142fd40d49347"
        },
        "pre" : {
            "0x095e7baea6a6c7c4c2dfeb977efac326af552d87" : {
                "balance" : "0x00",
                "code" : "0x7fffffffffffffffffffffffffffffffffffffffffffffffffffffffffffffffff7f00000000000000000000000000000000000000000000000000000000000000007ffffffffffffffffffffffffffffffffffffffffffffffffffffffffffffffffe4544437f00000000000000000000000000000000000000000000000000000000000000017fffffffffffffffffffffffffffffffffffffffffffffffffffffffffffffffff6f98324016076d428a9898129b16849a5560005155",
                "nonce" : "0x00",
                "storage" : {
                }
            },
            "0x945304eb96065b2a98b57a48a06ae28d285a71b5" : {
                "balance" : "0x2e",
                "code" : "0x6000355415600957005b60203560003555",
                "nonce" : "0x00",
                "storage" : {
                }
            },
            "0xa94f5374fce5edbc8e2a8697c15331677e6ebf0b" : {
                "balance" : "0x0de0b6b3a7640000",
                "code" : "0x",
                "nonce" : "0x00",
                "storage" : {
                }
            }
        },
        "postState" : {
            "0xa94f5374fce5edbc8e2a8697c15331677e6ebf0b" : {
                "code" : "0x",
                "nonce" : "0x01",
                "balance" : "0x0de0b6b386c9a7b1",
                "storage" : {
                }
            },
            "0x095e7baea6a6c7c4c2dfeb977efac326af552d87" : {
                "code" : "0x7fffffffffffffffffffffffffffffffffffffffffffffffffffffffffffffffff7f00000000000000000000000000000000000000000000000000000000000000007ffffffffffffffffffffffffffffffffffffffffffffffffffffffffffffffffe4544437f00000000000000000000000000000000000000000000000000000000000000017fffffffffffffffffffffffffffffffffffffffffffffffffffffffffffffffff6f98324016076d428a9898129b16849a5560005155",
                "nonce" : "0x00",
                "balance" : "0x2099af7a",
                "storage" : {
                    "0x00" : "0x98324016076d428a9898129b16849a55"
                }
            },
            "0x945304eb96065b2a98b57a48a06ae28d285a71b5" : {
                "code" : "0x6000355415600957005b60203560003555",
                "nonce" : "0x00",
                "balance" : "0x1bc16d674ec8a903",
                "storage" : {
                }
            }
        },
        "network" : "Istanbul",
        "sealEngine" : "NoProof",
        "lastblockhash" : "0xe2a7e8123412b42e3bc40e24c84187c1e3fd4a2bc51c539e8310c9f4c1b76622",
        "genesisRLP" : "0xf901fdf901f8a00000000000000000000000000000000000000000000000000000000000000000a01dcc4de8dec75d7aab85b567b6ccd41ad312451b948a7413f0a142fd40d4934794945304eb96065b2a98b57a48a06ae28d285a71b5a08c5cb1e0c0c150d7779e337051825cc6400dc318a7da2ec8bf40ceef866d20c5a056e81f171bcc55a6ff8345e692c0f86e5b48e01b996cadc001622fb5e363b421a056e81f171bcc55a6ff8345e692c0f86e5b48e01b996cadc001622fb5e363b421b90100000000000000000000000000000000000000000000000000000000000000000000000000000000000000000000000000000000000000000000000000000000000000000000000000000000000000000000000000000000000000000000000000000000000000000000000000000000000000000000000000000000000000000000000000000000000000000000000000000000000000000000000000000000000000000000000000000000000000000000000000000000000000000000000000000000000000000000000000000000000000000000000000000000000000000000000000000000000000000000000000000000000000000000000000000000008302000080887fffffffffffffff808000a00000000000000000000000000000000000000000000000000000000000000000880000000000000000c0c0",
        "blocks" : [
            {
                "rlp" : "0xf90324f901fca0d3952b33bbe07f512d3725cf4121cd0a111e80857f2a41235c51bd71f1d621d1a01dcc4de8dec75d7aab85b567b6ccd41ad312451b948a7413f0a142fd40d4934794945304eb96065b2a98b57a48a06ae28d285a71b5a02e7a6b9f352e780075fd730ff2b23a90f2da6112f3f2ab382c44f1dfe7404c2ba0b0152d0e2155553851ba118dc642cddcd80f19cd797e29cdbbdbc272632ced91a07eb05568a8797a53b96465389e7db5a72beeb1902b4339c12fa720aeb5d48ee6b90100000000000000000000000000000000000000000000000000000000000000000000000000000000000000000000000000000000000000000000000000000000000000000000000000000000000000000000000000000000000000000000000000000000000000000000000000000000000000000000000000000000000000000000000000000000000000000000000000000000000000000000000000000000000000000000000000000000000000000000000000000000000000000000000000000000000000000000000000000000000000000000000000000000000000000000000000000000000000000000000000000000000000000000000000000000008302000001887fffffffffffffff82a8d58203e800a00000000000000000000000000000000000000000000000000000000000000000880000000000000000f90121f9011e80018403dc168594095e7baea6a6c7c4c2dfeb977efac326af552d87842099af7ab8b87fffffffffffffffffffffffffffffffffffffffffffffffffffffffffffffffff7f00000000000000000000000000000000000000000000000000000000000000007ffffffffffffffffffffffffffffffffffffffffffffffffffffffffffffffffe4544437f00000000000000000000000000000000000000000000000000000000000000017fffffffffffffffffffffffffffffffffffffffffffffffffffffffffffffffff6f98324016076d428a9898129b16849a1ba0111ac08502d1d79eddd53b19cc81421b9d28927be601814fecade00a4b26b712a02bf7db866ffc4366fbc788a1fe64bfbc1f94bab23d670e21111fce00900cb510c0",
                "blockHeader" : {
                    "bloom" : "0x00000000000000000000000000000000000000000000000000000000000000000000000000000000000000000000000000000000000000000000000000000000000000000000000000000000000000000000000000000000000000000000000000000000000000000000000000000000000000000000000000000000000000000000000000000000000000000000000000000000000000000000000000000000000000000000000000000000000000000000000000000000000000000000000000000000000000000000000000000000000000000000000000000000000000000000000000000000000000000000000000000000000000000000000000000000",
                    "coinbase" : "0x945304eb96065b2a98b57a48a06ae28d285a71b5",
                    "difficulty" : "0x20000",
                    "extraData" : "0x00",
                    "gasLimit" : "0x7fffffffffffffff",
                    "gasUsed" : "0xa8d5",
                    "hash" : "0xe2a7e8123412b42e3bc40e24c84187c1e3fd4a2bc51c539e8310c9f4c1b76622",
                    "mixHash" : "0x0000000000000000000000000000000000000000000000000000000000000000",
                    "nonce" : "0x0000000000000000",
                    "number" : "0x1",
                    "parentHash" : "0xd3952b33bbe07f512d3725cf4121cd0a111e80857f2a41235c51bd71f1d621d1",
                    "receiptTrie" : "0x7eb05568a8797a53b96465389e7db5a72beeb1902b4339c12fa720aeb5d48ee6",
                    "stateRoot" : "0x2e7a6b9f352e780075fd730ff2b23a90f2da6112f3f2ab382c44f1dfe7404c2b",
                    "timestamp" : "0x3e8",
                    "transactionsTrie" : "0xb0152d0e2155553851ba118dc642cddcd80f19cd797e29cdbbdbc272632ced91",
                    "uncleHash" : "0x1dcc4de8dec75d7aab85b567b6ccd41ad312451b948a7413f0a142fd40d49347"
                },
                "transactions" : [
                    {
                        "data" : "0x7fffffffffffffffffffffffffffffffffffffffffffffffffffffffffffffffff7f00000000000000000000000000000000000000000000000000000000000000007ffffffffffffffffffffffffffffffffffffffffffffffffffffffffffffffffe4544437f00000000000000000000000000000000000000000000000000000000000000017fffffffffffffffffffffffffffffffffffffffffffffffffffffffffffffffff6f98324016076d428a9898129b16849a",
                        "gasLimit" : "0x03dc1685",
                        "gasPrice" : "0x01",
                        "nonce" : "0x00",
                        "to" : "0x095e7baea6a6c7c4c2dfeb977efac326af552d87",
                        "value" : "0x2099af7a",
                        "v" : "0x1b",
                        "r" : "0x111ac08502d1d79eddd53b19cc81421b9d28927be601814fecade00a4b26b712",
                        "s" : "0x2bf7db866ffc4366fbc788a1fe64bfbc1f94bab23d670e21111fce00900cb510"
                    }
                ]
            }
        ]
    }
}