{
    "randomStatetest647_d0g0v0_Istanbul" : {
        "_info" : {
            "comment" : "Malicious bytecode found by fuzztest tool: returndatacopy(0,-1)",
            "filling-rpc-server" : "Geth-1.9.6-unstable-63b18027-20190920",
            "filling-tool-version" : "retesteth-0.0.1+commit.0ae18aef.Linux.g++",
            "lllcversion" : "Version: 0.5.12-develop.2019.9.13+commit.2d601a4f.Linux.g++",
            "source" : "src/GeneralStateTestsFiller/stRandom2/randomStatetest647Filler.json",
            "sourceHash" : "983241dfc13fad0da2b9c043c84530e4487ec2f1b9f3cac61533c3349f4ca187"
        },
        "genesisBlockHeader" : {
            "bloom" : "0x00000000000000000000000000000000000000000000000000000000000000000000000000000000000000000000000000000000000000000000000000000000000000000000000000000000000000000000000000000000000000000000000000000000000000000000000000000000000000000000000000000000000000000000000000000000000000000000000000000000000000000000000000000000000000000000000000000000000000000000000000000000000000000000000000000000000000000000000000000000000000000000000000000000000000000000000000000000000000000000000000000000000000000000000000000000",
            "coinbase" : "0xd94f5374fce5edbc8e2a8697c15331677e6ebf0b",
            "difficulty" : "0x20000",
            "extraData" : "0x00",
            "gasLimit" : "0x42fe8c95373ea1",
            "gasUsed" : "0x0",
            "hash" : "0x33c2d624a3e28596c0785006fafc5fa2abf34b992488db8551fb0c0efa6f450f",
            "mixHash" : "0x0000000000000000000000000000000000000000000000000000000000000000",
            "nonce" : "0x0000000000000000",
            "number" : "0x0",
            "parentHash" : "0x0000000000000000000000000000000000000000000000000000000000000000",
            "receiptTrie" : "0x56e81f171bcc55a6ff8345e692c0f86e5b48e01b996cadc001622fb5e363b421",
            "stateRoot" : "0x944fb0a526a187102d61ed0141bf0bf4b7326a7b40108e200999de04ccc9b261",
            "timestamp" : "0x0",
            "transactionsTrie" : "0x56e81f171bcc55a6ff8345e692c0f86e5b48e01b996cadc001622fb5e363b421",
            "uncleHash" : "0x1dcc4de8dec75d7aab85b567b6ccd41ad312451b948a7413f0a142fd40d49347"
        },
        "pre" : {
            "0xa94f5374fce5edbc8e2a8697c15331677e6ebf0b" : {
                "balance" : "0x3b9aca00",
                "code" : "0x",
                "nonce" : "0x00",
                "storage" : {
                }
            },
            "0xc94f5374fce5edbc8e2a8697c15331677e6ebf0b" : {
                "balance" : "0x00",
                "code" : "0x6001600160000360003e00",
                "nonce" : "0x07",
                "storage" : {
                }
            }
        },
        "postState" : {
            "0xa94f5374fce5edbc8e2a8697c15331677e6ebf0b" : {
                "code" : "0x",
                "nonce" : "0x01",
                "balance" : "0x3b427ccf",
                "storage" : {
                }
            },
            "0xd94f5374fce5edbc8e2a8697c15331677e6ebf0b" : {
                "code" : "0x",
                "nonce" : "0x00",
                "balance" : "0x1bc16d674f204d31",
                "storage" : {
                }
            },
            "0xc94f5374fce5edbc8e2a8697c15331677e6ebf0b" : {
                "code" : "0x6001600160000360003e00",
                "nonce" : "0x07",
                "balance" : "0x00",
                "storage" : {
                }
            }
        },
        "network" : "Istanbul",
        "sealEngine" : "NoProof",
        "lastblockhash" : "0x6d593dc11ca5ad591b139985ea0c0f241345941e5fca39975a4e76f1d28959a7",
        "genesisRLP" : "0xf901fcf901f7a00000000000000000000000000000000000000000000000000000000000000000a01dcc4de8dec75d7aab85b567b6ccd41ad312451b948a7413f0a142fd40d4934794d94f5374fce5edbc8e2a8697c15331677e6ebf0ba0944fb0a526a187102d61ed0141bf0bf4b7326a7b40108e200999de04ccc9b261a056e81f171bcc55a6ff8345e692c0f86e5b48e01b996cadc001622fb5e363b421a056e81f171bcc55a6ff8345e692c0f86e5b48e01b996cadc001622fb5e363b421b901000000000000000000000000000000000000000000000000000000000000000000000000000000000000000000000000000000000000000000000000000000000000000000000000000000000000000000000000000000000000000000000000000000000000000000000000000000000000000000000000000000000000000000000000000000000000000000000000000000000000000000000000000000000000000000000000000000000000000000000000000000000000000000000000000000000000000000000000000000000000000000000000000000000000000000000000000000000000000000000000000000000000000000000000000000000083020000808742fe8c95373ea1808000a00000000000000000000000000000000000000000000000000000000000000000880000000000000000c0c0",
        "blocks" : [
            {
                "rlp" : "0xf90264f901fca033c2d624a3e28596c0785006fafc5fa2abf34b992488db8551fb0c0efa6f450fa01dcc4de8dec75d7aab85b567b6ccd41ad312451b948a7413f0a142fd40d4934794d94f5374fce5edbc8e2a8697c15331677e6ebf0ba043d47a0cf94bcfb9ec03f39c7627bbd13fe47f0bc96112431bf0e163e83f9eb4a0c193cd14bc6a219c73fe6c2fb573bf3680e6e4140259eb06fdfccaebb4c3a9e9a053077ec6f582974cc36542550f228b891d4fa732272a6984075dd3eaef9a432ab9010000000000000000000000000000000000000000000000000000000000000000000000000000000000000000000000000000000000000000000000000000000000000000000000000000000000000000000000000000000000000000000000000000000000000000000000000000000000000000000000000000000000000000000000000000000000000000000000000000000000000000000000000000000000000000000000000000000000000000000000000000000000000000000000000000000000000000000000000000000000000000000000000000000000000000000000000000000000000000000000000000000000000000000000000000000000830200000187430f4c385c8c6f83584d318203e800a00000000000000000000000000000000000000000000000000000000000000000880000000000000000f862f860800183584d3194c94f5374fce5edbc8e2a8697c15331677e6ebf0b80801ba0b8b4255ee0ebbc999fd83d5247c119f9c089e9a2ce40d52b234288fd77856839a0362d599ccebcbc12dae17e88f74e55df047a99916bc7b4e164f203ba7c1106efc0",
                "blockHeader" : {
                    "bloom" : "0x00000000000000000000000000000000000000000000000000000000000000000000000000000000000000000000000000000000000000000000000000000000000000000000000000000000000000000000000000000000000000000000000000000000000000000000000000000000000000000000000000000000000000000000000000000000000000000000000000000000000000000000000000000000000000000000000000000000000000000000000000000000000000000000000000000000000000000000000000000000000000000000000000000000000000000000000000000000000000000000000000000000000000000000000000000000",
                    "coinbase" : "0xd94f5374fce5edbc8e2a8697c15331677e6ebf0b",
                    "difficulty" : "0x20000",
                    "extraData" : "0x00",
                    "gasLimit" : "0x430f4c385c8c6f",
                    "gasUsed" : "0x584d31",
                    "hash" : "0x6d593dc11ca5ad591b139985ea0c0f241345941e5fca39975a4e76f1d28959a7",
                    "mixHash" : "0x0000000000000000000000000000000000000000000000000000000000000000",
                    "nonce" : "0x0000000000000000",
                    "number" : "0x1",
                    "parentHash" : "0x33c2d624a3e28596c0785006fafc5fa2abf34b992488db8551fb0c0efa6f450f",
                    "receiptTrie" : "0x53077ec6f582974cc36542550f228b891d4fa732272a6984075dd3eaef9a432a",
                    "stateRoot" : "0x43d47a0cf94bcfb9ec03f39c7627bbd13fe47f0bc96112431bf0e163e83f9eb4",
                    "timestamp" : "0x3e8",
                    "transactionsTrie" : "0xc193cd14bc6a219c73fe6c2fb573bf3680e6e4140259eb06fdfccaebb4c3a9e9",
                    "uncleHash" : "0x1dcc4de8dec75d7aab85b567b6ccd41ad312451b948a7413f0a142fd40d49347"
                },
                "transactions" : [
                    {
                        "data" : "0x",
                        "gasLimit" : "0x584d31",
                        "gasPrice" : "0x01",
                        "nonce" : "0x00",
                        "to" : "0xc94f5374fce5edbc8e2a8697c15331677e6ebf0b",
                        "value" : "0x00",
                        "v" : "0x1b",
                        "r" : "0xb8b4255ee0ebbc999fd83d5247c119f9c089e9a2ce40d52b234288fd77856839",
                        "s" : "0x362d599ccebcbc12dae17e88f74e55df047a99916bc7b4e164f203ba7c1106ef"
                    }
                ]
            }
        ]
    }
}