{
    "randomStatetest643_d0g0v0_Istanbul" : {
        "_info" : {
            "comment" : "Return ~1 MB out of bounds of the init code. should throw codesize error after EIP158 and create empty account before EIP158",
            "filling-rpc-server" : "Geth-1.9.6-unstable-63b18027-20190920",
            "filling-tool-version" : "retesteth-0.0.1+commit.0ae18aef.Linux.g++",
            "lllcversion" : "Version: 0.5.12-develop.2019.9.13+commit.2d601a4f.Linux.g++",
            "source" : "src/GeneralStateTestsFiller/stRandom2/randomStatetest643Filler.json",
            "sourceHash" : "9af17de8c078e0bc096c06895c08c0324bba20253581308216d6f698b82bc449"
        },
        "genesisBlockHeader" : {
            "bloom" : "0x00000000000000000000000000000000000000000000000000000000000000000000000000000000000000000000000000000000000000000000000000000000000000000000000000000000000000000000000000000000000000000000000000000000000000000000000000000000000000000000000000000000000000000000000000000000000000000000000000000000000000000000000000000000000000000000000000000000000000000000000000000000000000000000000000000000000000000000000000000000000000000000000000000000000000000000000000000000000000000000000000000000000000000000000000000000",
            "coinbase" : "0xa94f5374fce5edbc8e2a8697c15331677e6ebf0b",
            "difficulty" : "0x20000",
            "extraData" : "0x00",
            "gasLimit" : "0x7f0d477519ac97",
            "gasUsed" : "0x0",
            "hash" : "0xa0bdfd4bc0352fe65deb1c6e2c5f6ffa4a89cdb5aebe881cedf917a1375f7e08",
            "mixHash" : "0x0000000000000000000000000000000000000000000000000000000000000000",
            "nonce" : "0x0000000000000000",
            "number" : "0x0",
            "parentHash" : "0x0000000000000000000000000000000000000000000000000000000000000000",
            "receiptTrie" : "0x56e81f171bcc55a6ff8345e692c0f86e5b48e01b996cadc001622fb5e363b421",
            "stateRoot" : "0x868cbcc7b87ca3891e9c088a7a3bd278cbcc655f0e000ec5f46f31f083755f29",
            "timestamp" : "0x0",
            "transactionsTrie" : "0x56e81f171bcc55a6ff8345e692c0f86e5b48e01b996cadc001622fb5e363b421",
            "uncleHash" : "0x1dcc4de8dec75d7aab85b567b6ccd41ad312451b948a7413f0a142fd40d49347"
        },
        "pre" : {
            "0x1000000000000000000000000000000000000000" : {
                "balance" : "0x3f91b25c1601534b",
                "code" : "0x79ecfecf2ab84463f738fc85b069590fcff0334fb1a7108861a44465a26237bc83297ff893a1a95c84afbecc79e1ee4acc8fca826df1ab268bdfd9e712ad0d261f5ede0b6545e6a7d462826d39eb0ac5b4c3ef35f0b4e6d9e05f0773fc63be0c082847f6f9f7728764e142fcd95702c36d65c1e55ec0e2128768030e4eb0de74b57969caa2f2493998537ad0ecba9400ebae911dad6f98bd15da63a8614aa455dc593fa70386a260c66270f1d7527b75f1bf8a683b5d1721f7dd57755bd6a9bed9f874e3876cfcac6762ea51",
                "nonce" : "0xd2",
                "storage" : {
                }
            },
            "0xa94f5374fce5edbc8e2a8697c15331677e6ebf0b" : {
                "balance" : "0xa015cddab7107b04",
                "code" : "0x",
                "nonce" : "0x00",
                "storage" : {
                }
            },
            "0xc94f5374fce5edbc8e2a8697c15331677e6ebf0b" : {
                "balance" : "0x262e8de142312a2d",
                "code" : "0x436debc3912504eded08f73b9ff9490d73fc4f820a0890b7e8417fa97940713aeb870e59a790607f6b3d5649e57458ea8692da323253735967657e3fc6e02f6de1c0ff6cc18e051bdd52ad7b1eb441440620426b3485ab683d44ff8d5544eb7f7fb3e1f4c30063640b5a626f341b6271dd59621208476208431973c94f5374fce5edbc8e2a8697c15331677e6ebf0b6338f86b9af4",
                "nonce" : "0xf3",
                "storage" : {
                }
            }
        },
        "postState" : {
            "0xa94f5374fce5edbc8e2a8697c15331677e6ebf0b" : {
                "code" : "0x",
                "nonce" : "0x01",
                "balance" : "0xbbd73b4205d87b04",
                "storage" : {
                }
            },
            "0xc94f5374fce5edbc8e2a8697c15331677e6ebf0b" : {
                "code" : "0x436debc3912504eded08f73b9ff9490d73fc4f820a0890b7e8417fa97940713aeb870e59a790607f6b3d5649e57458ea8692da323253735967657e3fc6e02f6de1c0ff6cc18e051bdd52ad7b1eb441440620426b3485ab683d44ff8d5544eb7f7fb3e1f4c30063640b5a626f341b6271dd59621208476208431973c94f5374fce5edbc8e2a8697c15331677e6ebf0b6338f86b9af4",
                "nonce" : "0xf3",
                "balance" : "0x262e8de142312a2d",
                "storage" : {
                }
            },
            "0x1000000000000000000000000000000000000000" : {
                "code" : "0x79ecfecf2ab84463f738fc85b069590fcff0334fb1a7108861a44465a26237bc83297ff893a1a95c84afbecc79e1ee4acc8fca826df1ab268bdfd9e712ad0d261f5ede0b6545e6a7d462826d39eb0ac5b4c3ef35f0b4e6d9e05f0773fc63be0c082847f6f9f7728764e142fcd95702c36d65c1e55ec0e2128768030e4eb0de74b57969caa2f2493998537ad0ecba9400ebae911dad6f98bd15da63a8614aa455dc593fa70386a260c66270f1d7527b75f1bf8a683b5d1721f7dd57755bd6a9bed9f874e3876cfcac6762ea51",
                "nonce" : "0xd2",
                "balance" : "0x3f91b25c1601534b",
                "storage" : {
                }
            }
        },
        "network" : "Istanbul",
        "sealEngine" : "NoProof",
        "lastblockhash" : "0x3b66cee34240f50fa8a038fcf57e8a90be89dbc3ce7a3f3ef4e1e8b2264ebbe0",
        "genesisRLP" : "0xf901fcf901f7a00000000000000000000000000000000000000000000000000000000000000000a01dcc4de8dec75d7aab85b567b6ccd41ad312451b948a7413f0a142fd40d4934794a94f5374fce5edbc8e2a8697c15331677e6ebf0ba0868cbcc7b87ca3891e9c088a7a3bd278cbcc655f0e000ec5f46f31f083755f29a056e81f171bcc55a6ff8345e692c0f86e5b48e01b996cadc001622fb5e363b421a056e81f171bcc55a6ff8345e692c0f86e5b48e01b996cadc001622fb5e363b421b90100000000000000000000000000000000000000000000000000000000000000000000000000000000000000000000000000000000000000000000000000000000000000000000000000000000000000000000000000000000000000000000000000000000000000000000000000000000000000000000000000000000000000000000000000000000000000000000000000000000000000000000000000000000000000000000000000000000000000000000000000000000000000000000000000000000000000000000000000000000000000000000000000000000000000000000000000000000000000000000000000000000000000000000000000000000008302000080877f0d477519ac97808000a00000000000000000000000000000000000000000000000000000000000000000880000000000000000c0c0",
        "blocks" : [
            {
                "rlp" : "0xf903bef901fca0a0bdfd4bc0352fe65deb1c6e2c5f6ffa4a89cdb5aebe881cedf917a1375f7e08a01dcc4de8dec75d7aab85b567b6ccd41ad312451b948a7413f0a142fd40d4934794a94f5374fce5edbc8e2a8697c15331677e6ebf0ba06df5de10fa9573292c00f4bfcf23b1ae0b2cea3521088644bc04dcb8ba227ecda064061f6d6f3176df9c1040b1452046d1fdc0958d3c560775ab113a8bcab44ba2a0f5039932bcc49d2ab9209147be9becc080f205ae85e46f2014cf6eee682bca30b90100000000000000000000000000000000000000000000000000000000000000000000000000000000000000000000000000000000000000000000000000000000000000000000000000000000000000000000000000000000000000000000000000000000000000000000000000000000000000000000000000000000000000000000000000000000000000000000000000000000000000000000000000000000000000000000000000000000000000000000000000000000000000000000000000000000000000000000000000000000000000000000000000000000000000000000000000000000000000000000000000000000000000000000000000000000008302000001877f2d0ac6f6f301839628e58203e800a00000000000000000000000000000000000000000000000000000000000000000880000000000000000f901bbf901b88002839628e58084f0ec2ce5b90166620d15bc62074ac2f3789b4ff89d27fb5018b60a3730731819c16c8a1e6513c3c2703e63f82ce3617b9c5bdd435cc4e8eaffa5d05d45aef99b6726757bbe89b4ae0e5b9b6062855c2d525b6ca347c35412d0ab99dbc839a14f619a34621beef752635999fd987437da3edb75b58f986d9b62ffc1e6dae25c7e0c019f73922a0ab96d77aef70627e71d0a63d38d2d09afec6a9f6dd36fff38e99a634e506f29060c4e3c3371d213d31078939857877d1780bc984b1ae1225b8dc7cc534cd080ba4b324f436d2c211b3c30889cf66d57b8f669c1be7711d78254d859636790551a4a0f6e0c06664680c8fadd1d7e7b3e887ea3cff5077d014551ed36a72977742f6dcee4113c33297428527783529e675399ca43d5df7d9a4151fcac7093585bb8c6df7d6563faafe035226b81786f72b243bfdbc99e8fd67571df50e0ed7a8e1aaca76fcc65151e7730dee525a07c75d1b3855ae0bfbe0d79ff4905974c837e30a06fb163d89d1ca092fe797ace72bec43f3958c4b8ddf7b624e497520d97f46738a56b50eabb71daa0685af85d3800fc24e490dc8049d2604ba41f2ec8f3cf9bbb891b95088b869337c0",
                "blockHeader" : {
                    "bloom" : "0x00000000000000000000000000000000000000000000000000000000000000000000000000000000000000000000000000000000000000000000000000000000000000000000000000000000000000000000000000000000000000000000000000000000000000000000000000000000000000000000000000000000000000000000000000000000000000000000000000000000000000000000000000000000000000000000000000000000000000000000000000000000000000000000000000000000000000000000000000000000000000000000000000000000000000000000000000000000000000000000000000000000000000000000000000000000",
                    "coinbase" : "0xa94f5374fce5edbc8e2a8697c15331677e6ebf0b",
                    "difficulty" : "0x20000",
                    "extraData" : "0x00",
                    "gasLimit" : "0x7f2d0ac6f6f301",
                    "gasUsed" : "0x9628e5",
                    "hash" : "0x3b66cee34240f50fa8a038fcf57e8a90be89dbc3ce7a3f3ef4e1e8b2264ebbe0",
                    "mixHash" : "0x0000000000000000000000000000000000000000000000000000000000000000",
                    "nonce" : "0x0000000000000000",
                    "number" : "0x1",
                    "parentHash" : "0xa0bdfd4bc0352fe65deb1c6e2c5f6ffa4a89cdb5aebe881cedf917a1375f7e08",
                    "receiptTrie" : "0xf5039932bcc49d2ab9209147be9becc080f205ae85e46f2014cf6eee682bca30",
                    "stateRoot" : "0x6df5de10fa9573292c00f4bfcf23b1ae0b2cea3521088644bc04dcb8ba227ecd",
                    "timestamp" : "0x3e8",
                    "transactionsTrie" : "0x64061f6d6f3176df9c1040b1452046d1fdc0958d3c560775ab113a8bcab44ba2",
                    "uncleHash" : "0x1dcc4de8dec75d7aab85b567b6ccd41ad312451b948a7413f0a142fd40d49347"
                },
                "transactions" : [
                    {
                        "data" : "0x620d15bc62074ac2f3789b4ff89d27fb5018b60a3730731819c16c8a1e6513c3c2703e63f82ce3617b9c5bdd435cc4e8eaffa5d05d45aef99b6726757bbe89b4ae0e5b9b6062855c2d525b6ca347c35412d0ab99dbc839a14f619a34621beef752635999fd987437da3edb75b58f986d9b62ffc1e6dae25c7e0c019f73922a0ab96d77aef70627e71d0a63d38d2d09afec6a9f6dd36fff38e99a634e506f29060c4e3c3371d213d31078939857877d1780bc984b1ae1225b8dc7cc534cd080ba4b324f436d2c211b3c30889cf66d57b8f669c1be7711d78254d859636790551a4a0f6e0c06664680c8fadd1d7e7b3e887ea3cff5077d014551ed36a72977742f6dcee4113c33297428527783529e675399ca43d5df7d9a4151fcac7093585bb8c6df7d6563faafe035226b81786f72b243bfdbc99e8fd67571df50e0ed7a8e1aaca76fcc65151e7730dee525a07c75d1b3855ae0bfbe0d79ff4905974c837e30a06fb163d89d",
                        "gasLimit" : "0x9628e5",
                        "gasPrice" : "0x02",
                        "nonce" : "0x00",
                        "to" : "",
                        "value" : "0xf0ec2ce5",
                        "v" : "0x1c",
                        "r" : "0x92fe797ace72bec43f3958c4b8ddf7b624e497520d97f46738a56b50eabb71da",
                        "s" : "0x685af85d3800fc24e490dc8049d2604ba41f2ec8f3cf9bbb891b95088b869337"
                    }
                ]
            }
        ]
    }
}