{
    "randomStatetest526_d0g0v0_Istanbul" : {
        "_info" : {
            "comment" : "",
            "filling-rpc-server" : "Geth-1.9.6-unstable-63b18027-20190920",
            "filling-tool-version" : "retesteth-0.0.1+commit.0ae18aef.Linux.g++",
            "lllcversion" : "Version: 0.5.12-develop.2019.9.13+commit.2d601a4f.Linux.g++",
            "source" : "src/GeneralStateTestsFiller/stRandom2/randomStatetest526Filler.json",
            "sourceHash" : "b9f221dfecf34ce88e3e47238d1d8c36518cbf77cfead69e6645e792cba04391"
        },
        "genesisBlockHeader" : {
            "bloom" : "0x00000000000000000000000000000000000000000000000000000000000000000000000000000000000000000000000000000000000000000000000000000000000000000000000000000000000000000000000000000000000000000000000000000000000000000000000000000000000000000000000000000000000000000000000000000000000000000000000000000000000000000000000000000000000000000000000000000000000000000000000000000000000000000000000000000000000000000000000000000000000000000000000000000000000000000000000000000000000000000000000000000000000000000000000000000000",
            "coinbase" : "0x945304eb96065b2a98b57a48a06ae28d285a71b5",
            "difficulty" : "0x20000",
            "extraData" : "0x00",
            "gasLimit" : "0x7fffffffffffffff",
            "gasUsed" : "0x0",
            "hash" : "0x55cde1a88d46d2ffa62d538fb5b911bfc293129c7dc70740fe43b07ed98178c3",
            "mixHash" : "0x0000000000000000000000000000000000000000000000000000000000000000",
            "nonce" : "0x0000000000000000",
            "number" : "0x0",
            "parentHash" : "0x0000000000000000000000000000000000000000000000000000000000000000",
            "receiptTrie" : "0x56e81f171bcc55a6ff8345e692c0f86e5b48e01b996cadc001622fb5e363b421",
            "stateRoot" : "0x1a1eb6901fc5a497a69bc2008c04dfbfa5f8fc7c21b04a40949d3e77a4168c72",
            "timestamp" : "0x0",
            "transactionsTrie" : "0x56e81f171bcc55a6ff8345e692c0f86e5b48e01b996cadc001622fb5e363b421",
            "uncleHash" : "0x1dcc4de8dec75d7aab85b567b6ccd41ad312451b948a7413f0a142fd40d49347"
        },
        "pre" : {
            "0x095e7baea6a6c7c4c2dfeb977efac326af552d87" : {
                "balance" : "0x00",
                "code" : "0x7f00000000000000000000000100000000000000000000000000000000000000007f00000000000000000000000100000000000000000000000000000000000000007f00000000000000000000000000000000000000000000000000000000000000007f000000000000000000000000945304eb96065b2a98b57a48a06ae28d285a71b5417e7f000000000000000000000000945304eb96065b2a98b57a48a06ae28d285a71b5419e01950777810975058c746f5560005155",
                "nonce" : "0x00",
                "storage" : {
                }
            },
            "0x945304eb96065b2a98b57a48a06ae28d285a71b5" : {
                "balance" : "0x2e",
                "code" : "0x6000355415600957005b60203560003555",
                "nonce" : "0x00",
                "storage" : {
                }
            },
            "0xa94f5374fce5edbc8e2a8697c15331677e6ebf0b" : {
                "balance" : "0x0de0b6b3a7640000",
                "code" : "0x",
                "nonce" : "0x00",
                "storage" : {
                }
            }
        },
        "postState" : {
            "0xa94f5374fce5edbc8e2a8697c15331677e6ebf0b" : {
                "code" : "0x",
                "nonce" : "0x01",
                "balance" : "0x0de0b6b36cba95aa",
                "storage" : {
                }
            },
            "0x095e7baea6a6c7c4c2dfeb977efac326af552d87" : {
                "code" : "0x7f00000000000000000000000100000000000000000000000000000000000000007f00000000000000000000000100000000000000000000000000000000000000007f00000000000000000000000000000000000000000000000000000000000000007f000000000000000000000000945304eb96065b2a98b57a48a06ae28d285a71b5417e7f000000000000000000000000945304eb96065b2a98b57a48a06ae28d285a71b5419e01950777810975058c746f5560005155",
                "nonce" : "0x00",
                "balance" : "0x3aa8c462",
                "storage" : {
                    "0xb5419e01950777810975058c746f55600051" : "0x7f000000000000000000000000945304eb96065b2a98b57a48a06ae28d285a"
                }
            },
            "0x945304eb96065b2a98b57a48a06ae28d285a71b5" : {
                "code" : "0x6000355415600957005b60203560003555",
                "nonce" : "0x00",
                "balance" : "0x1bc16d674ec8a622",
                "storage" : {
                }
            }
        },
        "network" : "Istanbul",
        "sealEngine" : "NoProof",
        "lastblockhash" : "0x303b36048b62297cd42632892c00bec215820915bae0b5560bc9e3c66ba39b98",
        "genesisRLP" : "0xf901fdf901f8a00000000000000000000000000000000000000000000000000000000000000000a01dcc4de8dec75d7aab85b567b6ccd41ad312451b948a7413f0a142fd40d4934794945304eb96065b2a98b57a48a06ae28d285a71b5a01a1eb6901fc5a497a69bc2008c04dfbfa5f8fc7c21b04a40949d3e77a4168c72a056e81f171bcc55a6ff8345e692c0f86e5b48e01b996cadc001622fb5e363b421a056e81f171bcc55a6ff8345e692c0f86e5b48e01b996cadc001622fb5e363b421b90100000000000000000000000000000000000000000000000000000000000000000000000000000000000000000000000000000000000000000000000000000000000000000000000000000000000000000000000000000000000000000000000000000000000000000000000000000000000000000000000000000000000000000000000000000000000000000000000000000000000000000000000000000000000000000000000000000000000000000000000000000000000000000000000000000000000000000000000000000000000000000000000000000000000000000000000000000000000000000000000000000000000000000000000000000000008302000080887fffffffffffffff808000a00000000000000000000000000000000000000000000000000000000000000000880000000000000000c0c0",
        "blocks" : [
            {
                "rlp" : "0xf90320f901fca055cde1a88d46d2ffa62d538fb5b911bfc293129c7dc70740fe43b07ed98178c3a01dcc4de8dec75d7aab85b567b6ccd41ad312451b948a7413f0a142fd40d4934794945304eb96065b2a98b57a48a06ae28d285a71b5a0b2e7a311999e89b51c80eea4ddabcad5e8e51941fe9a9a0ebab2d4dc08daf3f7a0ca5983bfd5dffe0aa534b2099c142f3c822ed110702baf63e4777e1a4097b28ea039bdc711800ce34c6f86907afd72489e70bc8144128d9c9669c90b9e4167713fb90100000000000000000000000000000000000000000000000000000000000000000000000000000000000000000000000000000000000000000000000000000000000000000000000000000000000000000000000000000000000000000000000000000000000000000000000000000000000000000000000000000000000000000000000000000000000000000000000000000000000000000000000000000000000000000000000000000000000000000000000000000000000000000000000000000000000000000000000000000000000000000000000000000000000000000000000000000000000000000000000000000000000000000000000000000000008302000001887fffffffffffffff82a5f48203e800a00000000000000000000000000000000000000000000000000000000000000000880000000000000000f9011df9011a8001842d1d285d94095e7baea6a6c7c4c2dfeb977efac326af552d87843aa8c462b8b47f00000000000000000000000100000000000000000000000000000000000000007f00000000000000000000000100000000000000000000000000000000000000007f00000000000000000000000000000000000000000000000000000000000000007f000000000000000000000000945304eb96065b2a98b57a48a06ae28d285a71b5417e7f000000000000000000000000945304eb96065b2a98b57a48a06ae28d285a71b5419e01950777810975058c746f1ba05feed05018fe99393c379f23c963db40be1ff556c239dc9a95e886e19e962ac7a04eaf7b050b295ed58477c699f675a5a685cb1a31d629d3a7684c959ce837adf0c0",
                "blockHeader" : {
                    "bloom" : "0x00000000000000000000000000000000000000000000000000000000000000000000000000000000000000000000000000000000000000000000000000000000000000000000000000000000000000000000000000000000000000000000000000000000000000000000000000000000000000000000000000000000000000000000000000000000000000000000000000000000000000000000000000000000000000000000000000000000000000000000000000000000000000000000000000000000000000000000000000000000000000000000000000000000000000000000000000000000000000000000000000000000000000000000000000000000",
                    "coinbase" : "0x945304eb96065b2a98b57a48a06ae28d285a71b5",
                    "difficulty" : "0x20000",
                    "extraData" : "0x00",
                    "gasLimit" : "0x7fffffffffffffff",
                    "gasUsed" : "0xa5f4",
                    "hash" : "0x303b36048b62297cd42632892c00bec215820915bae0b5560bc9e3c66ba39b98",
                    "mixHash" : "0x0000000000000000000000000000000000000000000000000000000000000000",
                    "nonce" : "0x0000000000000000",
                    "number" : "0x1",
                    "parentHash" : "0x55cde1a88d46d2ffa62d538fb5b911bfc293129c7dc70740fe43b07ed98178c3",
                    "receiptTrie" : "0x39bdc711800ce34c6f86907afd72489e70bc8144128d9c9669c90b9e4167713f",
                    "stateRoot" : "0xb2e7a311999e89b51c80eea4ddabcad5e8e51941fe9a9a0ebab2d4dc08daf3f7",
                    "timestamp" : "0x3e8",
                    "transactionsTrie" : "0xca5983bfd5dffe0aa534b2099c142f3c822ed110702baf63e4777e1a4097b28e",
                    "uncleHash" : "0x1dcc4de8dec75d7aab85b567b6ccd41ad312451b948a7413f0a142fd40d49347"
                },
                "transactions" : [
                    {
                        "data" : "0x7f00000000000000000000000100000000000000000000000000000000000000007f00000000000000000000000100000000000000000000000000000000000000007f00000000000000000000000000000000000000000000000000000000000000007f000000000000000000000000945304eb96065b2a98b57a48a06ae28d285a71b5417e7f000000000000000000000000945304eb96065b2a98b57a48a06ae28d285a71b5419e01950777810975058c746f",
                        "gasLimit" : "0x2d1d285d",
                        "gasPrice" : "0x01",
                        "nonce" : "0x00",
                        "to" : "0x095e7baea6a6c7c4c2dfeb977efac326af552d87",
                        "value" : "0x3aa8c462",
                        "v" : "0x1b",
                        "r" : "0x5feed05018fe99393c379f23c963db40be1ff556c239dc9a95e886e19e962ac7",
                        "s" : "0x4eaf7b050b295ed58477c699f675a5a685cb1a31d629d3a7684c959ce837adf0"
                    }
                ]
            }
        ]
    }
}