{
    "chainIdGasCost_d0g0v0_Istanbul" : {
        "_info" : {
            "comment" : "",
            "filling-rpc-server" : "Geth-1.9.6-unstable-63b18027-20190920",
            "filling-tool-version" : "retesteth-0.0.1+commit.0ae18aef.Linux.g++",
            "lllcversion" : "Version: 0.5.12-develop.2019.9.13+commit.2d601a4f.Linux.g++",
            "source" : "src/GeneralStateTestsFiller/stChainId/chainIdGasCostFiller.json",
            "sourceHash" : "240e12afa293934d07aa02609b0e40bc3ea843970525545f05fc33ae8a40a1c1"
        },
        "genesisBlockHeader" : {
            "bloom" : "0x00000000000000000000000000000000000000000000000000000000000000000000000000000000000000000000000000000000000000000000000000000000000000000000000000000000000000000000000000000000000000000000000000000000000000000000000000000000000000000000000000000000000000000000000000000000000000000000000000000000000000000000000000000000000000000000000000000000000000000000000000000000000000000000000000000000000000000000000000000000000000000000000000000000000000000000000000000000000000000000000000000000000000000000000000000000",
            "coinbase" : "0x2adc25665018aa1fe0e6bc666dac8fc2697ff9ba",
            "difficulty" : "0x20000",
            "extraData" : "0x00",
            "gasLimit" : "0x2540be400",
            "gasUsed" : "0x0",
            "hash" : "0x75c371ba45999d87f4542326910a11af515897aebce5265d3f6acd1f1161f82f",
            "mixHash" : "0x0000000000000000000000000000000000000000000000000000000000000000",
            "nonce" : "0x0000000000000000",
            "number" : "0x0",
            "parentHash" : "0x0000000000000000000000000000000000000000000000000000000000000000",
            "receiptTrie" : "0x56e81f171bcc55a6ff8345e692c0f86e5b48e01b996cadc001622fb5e363b421",
            "stateRoot" : "0x45571b40ae66ca7480791bbb2887286e4e4c4b1b298b191c889d6959023a32ed",
            "timestamp" : "0x0",
            "transactionsTrie" : "0x56e81f171bcc55a6ff8345e692c0f86e5b48e01b996cadc001622fb5e363b421",
            "uncleHash" : "0x1dcc4de8dec75d7aab85b567b6ccd41ad312451b948a7413f0a142fd40d49347"
        },
        "pre" : {
            "0x1000000000000000000000000000000000000000" : {
                "balance" : "0x00",
                "code" : "0x5a465a905090036002900360015500",
                "nonce" : "0x00",
                "storage" : {
                }
            },
            "0xa94f5374fce5edbc8e2a8697c15331677e6ebf0b" : {
                "balance" : "0x3635c9adc5dea00000",
                "code" : "0x",
                "nonce" : "0x00",
                "storage" : {
                }
            }
        },
        "postState" : {
            "0xa94f5374fce5edbc8e2a8697c15331677e6ebf0b" : {
                "code" : "0x",
                "nonce" : "0x01",
                "balance" : "0x3635c9adc5de9f5fbb",
                "storage" : {
                }
            },
            "0x2adc25665018aa1fe0e6bc666dac8fc2697ff9ba" : {
                "code" : "0x",
                "nonce" : "0x00",
                "balance" : "0x1bc16d674ec8a045",
                "storage" : {
                }
            },
            "0x1000000000000000000000000000000000000000" : {
                "code" : "0x5a465a905090036002900360015500",
                "nonce" : "0x00",
                "balance" : "0x00",
                "storage" : {
                    "0x01" : "0x02"
                }
            }
        },
        "network" : "Istanbul",
        "sealEngine" : "NoProof",
        "lastblockhash" : "0xb8db43fce9b294921fc78543d4327c27d05534e3e929669e65f14c91160cfed5",
        "genesisRLP" : "0xf901faf901f5a00000000000000000000000000000000000000000000000000000000000000000a01dcc4de8dec75d7aab85b567b6ccd41ad312451b948a7413f0a142fd40d49347942adc25665018aa1fe0e6bc666dac8fc2697ff9baa045571b40ae66ca7480791bbb2887286e4e4c4b1b298b191c889d6959023a32eda056e81f171bcc55a6ff8345e692c0f86e5b48e01b996cadc001622fb5e363b421a056e81f171bcc55a6ff8345e692c0f86e5b48e01b996cadc001622fb5e363b421b901000000000000000000000000000000000000000000000000000000000000000000000000000000000000000000000000000000000000000000000000000000000000000000000000000000000000000000000000000000000000000000000000000000000000000000000000000000000000000000000000000000000000000000000000000000000000000000000000000000000000000000000000000000000000000000000000000000000000000000000000000000000000000000000000000000000000000000000000000000000000000000000000000000000000000000000000000000000000000000000000000000000000000000000000000000000083020000808502540be400808000a00000000000000000000000000000000000000000000000000000000000000000880000000000000000c0c0",
        "blocks" : [
            {
                "rlp" : "0xf90262f901f9a075c371ba45999d87f4542326910a11af515897aebce5265d3f6acd1f1161f82fa01dcc4de8dec75d7aab85b567b6ccd41ad312451b948a7413f0a142fd40d49347942adc25665018aa1fe0e6bc666dac8fc2697ff9baa07f7fd095150fabebc78e5d0308e0da5e579bb2e67471ea63e108eb35f97a29fba016e5b063445220e09ec13fd1aed3931266d500508f54a9e99ede6f1a1571fe3ea01c6800b00a81e8af632e8ae66a496510d21c46577d9875ca0e4220e44f6e7395b90100000000000000000000000000000000000000000000000000000000000000000000000000000000000000000000000000000000000000000000000000000000000000000000000000000000000000000000000000000000000000000000000000000000000000000000000000000000000000000000000000000000000000000000000000000000000000000000000000000000000000000000000000000000000000000000000000000000000000000000000000000000000000000000000000000000000000000000000000000000000000000000000000000000000000000000000000000000000000000000000000000000000000000000000000000000008302000001850254a0e6f882a0458203e800a00000000000000000000000000000000000000000000000000000000000000000880000000000000000f863f86180018405f5e10094100000000000000000000000000000000000000080801ba09f8ca9700e6a3b71055abc8dfc192d898370672b4140371b6b471abcb621fc23a06acc85dae9d6c1cb18b37eade48cc511b4611285cd673725d15bb60a53cf871ac0",
                "blockHeader" : {
                    "bloom" : "0x00000000000000000000000000000000000000000000000000000000000000000000000000000000000000000000000000000000000000000000000000000000000000000000000000000000000000000000000000000000000000000000000000000000000000000000000000000000000000000000000000000000000000000000000000000000000000000000000000000000000000000000000000000000000000000000000000000000000000000000000000000000000000000000000000000000000000000000000000000000000000000000000000000000000000000000000000000000000000000000000000000000000000000000000000000000",
                    "coinbase" : "0x2adc25665018aa1fe0e6bc666dac8fc2697ff9ba",
                    "difficulty" : "0x20000",
                    "extraData" : "0x00",
                    "gasLimit" : "0x254a0e6f8",
                    "gasUsed" : "0xa045",
                    "hash" : "0xb8db43fce9b294921fc78543d4327c27d05534e3e929669e65f14c91160cfed5",
                    "mixHash" : "0x0000000000000000000000000000000000000000000000000000000000000000",
                    "nonce" : "0x0000000000000000",
                    "number" : "0x1",
                    "parentHash" : "0x75c371ba45999d87f4542326910a11af515897aebce5265d3f6acd1f1161f82f",
                    "receiptTrie" : "0x1c6800b00a81e8af632e8ae66a496510d21c46577d9875ca0e4220e44f6e7395",
                    "stateRoot" : "0x7f7fd095150fabebc78e5d0308e0da5e579bb2e67471ea63e108eb35f97a29fb",
                    "timestamp" : "0x3e8",
                    "transactionsTrie" : "0x16e5b063445220e09ec13fd1aed3931266d500508f54a9e99ede6f1a1571fe3e",
                    "uncleHash" : "0x1dcc4de8dec75d7aab85b567b6ccd41ad312451b948a7413f0a142fd40d49347"
                },
                "transactions" : [
                    {
                        "data" : "0x",
                        "gasLimit" : "0x05f5e100",
                        "gasPrice" : "0x01",
                        "nonce" : "0x00",
                        "to" : "0x1000000000000000000000000000000000000000",
                        "value" : "0x00",
                        "v" : "0x1b",
                        "r" : "0x9f8ca9700e6a3b71055abc8dfc192d898370672b4140371b6b471abcb621fc23",
                        "s" : "0x6acc85dae9d6c1cb18b37eade48cc511b4611285cd673725d15bb60a53cf871a"
                    }
                ]
            }
        ]
    }
}