{
    "ABAcalls2_d0g0v0_Istanbul" : {
        "_info" : {
            "comment" : "",
            "filling-rpc-server" : "Geth-1.9.6-unstable-63b18027-20190920",
            "filling-tool-version" : "retesteth-0.0.1+commit.0ae18aef.Linux.g++",
            "lllcversion" : "Version: 0.5.12-develop.2019.9.13+commit.2d601a4f.Linux.g++",
            "source" : "src/GeneralStateTestsFiller/stSystemOperationsTest/ABAcalls2Filler.json",
            "sourceHash" : "8f3efbf9cb7f079e8881c2d5e8bf7b3fac771107de29068980658fda6bc5392f"
        },
        "genesisBlockHeader" : {
            "bloom" : "0x00000000000000000000000000000000000000000000000000000000000000000000000000000000000000000000000000000000000000000000000000000000000000000000000000000000000000000000000000000000000000000000000000000000000000000000000000000000000000000000000000000000000000000000000000000000000000000000000000000000000000000000000000000000000000000000000000000000000000000000000000000000000000000000000000000000000000000000000000000000000000000000000000000000000000000000000000000000000000000000000000000000000000000000000000000000",
            "coinbase" : "0x2adc25665018aa1fe0e6bc666dac8fc2697ff9ba",
            "difficulty" : "0x20000",
            "extraData" : "0x00",
            "gasLimit" : "0x2540be400",
            "gasUsed" : "0x0",
            "hash" : "0x725e74e134f67c89622542d502c95223cef0d5607ac0c13e3bb3fd80eb5bb112",
            "mixHash" : "0x0000000000000000000000000000000000000000000000000000000000000000",
            "nonce" : "0x0000000000000000",
            "number" : "0x0",
            "parentHash" : "0x0000000000000000000000000000000000000000000000000000000000000000",
            "receiptTrie" : "0x56e81f171bcc55a6ff8345e692c0f86e5b48e01b996cadc001622fb5e363b421",
            "stateRoot" : "0x27ddc112753c6eb2289e6c0e40a65c5ef01c5ee18cdbc435cc067ecbbd6d7f94",
            "timestamp" : "0x0",
            "transactionsTrie" : "0x56e81f171bcc55a6ff8345e692c0f86e5b48e01b996cadc001622fb5e363b421",
            "uncleHash" : "0x1dcc4de8dec75d7aab85b567b6ccd41ad312451b948a7413f0a142fd40d49347"
        },
        "pre" : {
            "0x095e7baea6a6c7c4c2dfeb977efac326af552d87" : {
                "balance" : "0x0de0b6b3a7640000",
                "code" : "0x6001600054016000556000600060006000600173945304eb96065b2a98b57a48a06ae28d285a71b5620186a05a03f100",
                "nonce" : "0x00",
                "storage" : {
                }
            },
            "0x945304eb96065b2a98b57a48a06ae28d285a71b5" : {
                "balance" : "0x00",
                "code" : "0x6001600054016000556000600060006000600073095e7baea6a6c7c4c2dfeb977efac326af552d87620186a05a03f100",
                "nonce" : "0x00",
                "storage" : {
                }
            },
            "0xa94f5374fce5edbc8e2a8697c15331677e6ebf0b" : {
                "balance" : "0x0de0b6b3a7640000",
                "code" : "0x",
                "nonce" : "0x00",
                "storage" : {
                }
            }
        },
        "postState" : {
            "0xa94f5374fce5edbc8e2a8697c15331677e6ebf0b" : {
                "code" : "0x",
                "nonce" : "0x01",
                "balance" : "0x0de0b6b3a73f671e",
                "storage" : {
                }
            },
            "0x095e7baea6a6c7c4c2dfeb977efac326af552d87" : {
                "code" : "0x6001600054016000556000600060006000600173945304eb96065b2a98b57a48a06ae28d285a71b5620186a05a03f100",
                "nonce" : "0x00",
                "balance" : "0x0de0b6b3a76585dc",
                "storage" : {
                    "0x00" : "0xc4"
                }
            },
            "0x2adc25665018aa1fe0e6bc666dac8fc2697ff9ba" : {
                "code" : "0x",
                "nonce" : "0x00",
                "balance" : "0x1bc16d674eeb1242",
                "storage" : {
                }
            },
            "0x945304eb96065b2a98b57a48a06ae28d285a71b5" : {
                "code" : "0x6001600054016000556000600060006000600073095e7baea6a6c7c4c2dfeb977efac326af552d87620186a05a03f100",
                "nonce" : "0x00",
                "balance" : "0xc4",
                "storage" : {
                    "0x00" : "0xc4"
                }
            }
        },
        "network" : "Istanbul",
        "sealEngine" : "NoProof",
        "lastblockhash" : "0xcae5c7d98107702715460f0aef6f65f60d4c9a39882d4690d60c90c7c6f86004",
        "genesisRLP" : "0xf901faf901f5a00000000000000000000000000000000000000000000000000000000000000000a01dcc4de8dec75d7aab85b567b6ccd41ad312451b948a7413f0a142fd40d49347942adc25665018aa1fe0e6bc666dac8fc2697ff9baa027ddc112753c6eb2289e6c0e40a65c5ef01c5ee18cdbc435cc067ecbbd6d7f94a056e81f171bcc55a6ff8345e692c0f86e5b48e01b996cadc001622fb5e363b421a056e81f171bcc55a6ff8345e692c0f86e5b48e01b996cadc001622fb5e363b421b901000000000000000000000000000000000000000000000000000000000000000000000000000000000000000000000000000000000000000000000000000000000000000000000000000000000000000000000000000000000000000000000000000000000000000000000000000000000000000000000000000000000000000000000000000000000000000000000000000000000000000000000000000000000000000000000000000000000000000000000000000000000000000000000000000000000000000000000000000000000000000000000000000000000000000000000000000000000000000000000000000000000000000000000000000000000083020000808502540be400808000a00000000000000000000000000000000000000000000000000000000000000000880000000000000000c0c0",
        "blocks" : [
            {
                "rlp" : "0xf90266f901faa0725e74e134f67c89622542d502c95223cef0d5607ac0c13e3bb3fd80eb5bb112a01dcc4de8dec75d7aab85b567b6ccd41ad312451b948a7413f0a142fd40d49347942adc25665018aa1fe0e6bc666dac8fc2697ff9baa08f282ce0d9142707bdc4c52d3524e482e5cbdc71a69c79016c5fba8de42487daa0b14d4e511cd1cd050a993566dc733305ccdfc7318d7ea754af53906f3af56461a08b6b04a26ad10daa0033f16d672428e22fe5706fb9d7e7b7e1d04d5bb064c677b90100000000000000000000000000000000000000000000000000000000000000000000000000000000000000000000000000000000000000000000000000000000000000000000000000000000000000000000000000000000000000000000000000000000000000000000000000000000000000000000000000000000000000000000000000000000000000000000000000000000000000000000000000000000000000000000000000000000000000000000000000000000000000000000000000000000000000000000000000000000000000000000000000000000000000000000000000000000000000000000000000000000000000000000000000000000008302000001850254a0e6f8832312428203e800a00000000000000000000000000000000000000000000000000000000000000000880000000000000000f866f8648001843b9aca0094095e7baea6a6c7c4c2dfeb977efac326af552d87830186a0801ba0f887f2ca3ec36a75a448f79d918a98c1325f546833bb1fc2b380297227dda065a04b041227709c35276540c843d255d62194a7fc216157add44479854321f031d1c0",
                "blockHeader" : {
                    "bloom" : "0x00000000000000000000000000000000000000000000000000000000000000000000000000000000000000000000000000000000000000000000000000000000000000000000000000000000000000000000000000000000000000000000000000000000000000000000000000000000000000000000000000000000000000000000000000000000000000000000000000000000000000000000000000000000000000000000000000000000000000000000000000000000000000000000000000000000000000000000000000000000000000000000000000000000000000000000000000000000000000000000000000000000000000000000000000000000",
                    "coinbase" : "0x2adc25665018aa1fe0e6bc666dac8fc2697ff9ba",
                    "difficulty" : "0x20000",
                    "extraData" : "0x00",
                    "gasLimit" : "0x254a0e6f8",
                    "gasUsed" : "0x231242",
                    "hash" : "0xcae5c7d98107702715460f0aef6f65f60d4c9a39882d4690d60c90c7c6f86004",
                    "mixHash" : "0x0000000000000000000000000000000000000000000000000000000000000000",
                    "nonce" : "0x0000000000000000",
                    "number" : "0x1",
                    "parentHash" : "0x725e74e134f67c89622542d502c95223cef0d5607ac0c13e3bb3fd80eb5bb112",
                    "receiptTrie" : "0x8b6b04a26ad10daa0033f16d672428e22fe5706fb9d7e7b7e1d04d5bb064c677",
                    "stateRoot" : "0x8f282ce0d9142707bdc4c52d3524e482e5cbdc71a69c79016c5fba8de42487da",
                    "timestamp" : "0x3e8",
                    "transactionsTrie" : "0xb14d4e511cd1cd050a993566dc733305ccdfc7318d7ea754af53906f3af56461",
                    "uncleHash" : "0x1dcc4de8dec75d7aab85b567b6ccd41ad312451b948a7413f0a142fd40d49347"
                },
                "transactions" : [
                    {
                        "data" : "0x",
                        "gasLimit" : "0x3b9aca00",
                        "gasPrice" : "0x01",
                        "nonce" : "0x00",
                        "to" : "0x095e7baea6a6c7c4c2dfeb977efac326af552d87",
                        "value" : "0x0186a0",
                        "v" : "0x1b",
                        "r" : "0xf887f2ca3ec36a75a448f79d918a98c1325f546833bb1fc2b380297227dda065",
                        "s" : "0x4b041227709c35276540c843d255d62194a7fc216157add44479854321f031d1"
                    }
                ]
            }
        ]
    }
}