{
    "CallRecursiveBomb0_d0g0v0_Istanbul" : {
        "_info" : {
            "comment" : "",
            "filling-rpc-server" : "Geth-1.9.6-unstable-63b18027-20190920",
            "filling-tool-version" : "retesteth-0.0.1+commit.0ae18aef.Linux.g++",
            "lllcversion" : "Version: 0.5.12-develop.2019.9.13+commit.2d601a4f.Linux.g++",
            "source" : "src/GeneralStateTestsFiller/stSystemOperationsTest/CallRecursiveBomb0Filler.json",
            "sourceHash" : "9457a056e4a202ef70925c4377ca73a844299ea10e304a3047a5df3632013ca5"
        },
        "genesisBlockHeader" : {
            "bloom" : "0x00000000000000000000000000000000000000000000000000000000000000000000000000000000000000000000000000000000000000000000000000000000000000000000000000000000000000000000000000000000000000000000000000000000000000000000000000000000000000000000000000000000000000000000000000000000000000000000000000000000000000000000000000000000000000000000000000000000000000000000000000000000000000000000000000000000000000000000000000000000000000000000000000000000000000000000000000000000000000000000000000000000000000000000000000000000",
            "coinbase" : "0x2adc25665018aa1fe0e6bc666dac8fc2697ff9ba",
            "difficulty" : "0x20000",
            "extraData" : "0x00",
            "gasLimit" : "0x28fa6ae00",
            "gasUsed" : "0x0",
            "hash" : "0x0739d43ad78a619e5770571963b90aed8fdfffd06dd0ce9b92f62c6c6582aeed",
            "mixHash" : "0x0000000000000000000000000000000000000000000000000000000000000000",
            "nonce" : "0x0000000000000000",
            "number" : "0x0",
            "parentHash" : "0x0000000000000000000000000000000000000000000000000000000000000000",
            "receiptTrie" : "0x56e81f171bcc55a6ff8345e692c0f86e5b48e01b996cadc001622fb5e363b421",
            "stateRoot" : "0x4ee7e650ebbac67d9105c402ed53d704e5447ef2366dd36ddd723cd8ed2a9e57",
            "timestamp" : "0x0",
            "transactionsTrie" : "0x56e81f171bcc55a6ff8345e692c0f86e5b48e01b996cadc001622fb5e363b421",
            "uncleHash" : "0x1dcc4de8dec75d7aab85b567b6ccd41ad312451b948a7413f0a142fd40d49347"
        },
        "pre" : {
            "0x095e7baea6a6c7c4c2dfeb977efac326af552d87" : {
                "balance" : "0x77359400",
                "code" : "0x6000600060006000601773945304eb96065b2a98b57a48a06ae28d285a71b56305f5e100f100",
                "nonce" : "0x00",
                "storage" : {
                }
            },
            "0x945304eb96065b2a98b57a48a06ae28d285a71b5" : {
                "balance" : "0x0de0b6b3a7640000",
                "code" : "0x6001600054016000556000600060006000600030612af85a03f160015500",
                "nonce" : "0x00",
                "storage" : {
                }
            },
            "0xa94f5374fce5edbc8e2a8697c15331677e6ebf0b" : {
                "balance" : "0x0de0b6b3a7640000",
                "code" : "0x",
                "nonce" : "0x00",
                "storage" : {
                }
            }
        },
        "postState" : {
            "0xa94f5374fce5edbc8e2a8697c15331677e6ebf0b" : {
                "code" : "0x",
                "nonce" : "0x01",
                "balance" : "0x0de0b6b3a748b3b7",
                "storage" : {
                }
            },
            "0x095e7baea6a6c7c4c2dfeb977efac326af552d87" : {
                "code" : "0x6000600060006000601773945304eb96065b2a98b57a48a06ae28d285a71b56305f5e100f100",
                "nonce" : "0x00",
                "balance" : "0x77371a89",
                "storage" : {
                }
            },
            "0x2adc25665018aa1fe0e6bc666dac8fc2697ff9ba" : {
                "code" : "0x",
                "nonce" : "0x00",
                "balance" : "0x1bc16d674ee1c5a9",
                "storage" : {
                }
            },
            "0x945304eb96065b2a98b57a48a06ae28d285a71b5" : {
                "code" : "0x6001600054016000556000600060006000600030612af85a03f160015500",
                "nonce" : "0x00",
                "balance" : "0x0de0b6b3a7640017",
                "storage" : {
                    "0x00" : "0x0132",
                    "0x01" : "0x01"
                }
            }
        },
        "network" : "Istanbul",
        "sealEngine" : "NoProof",
        "lastblockhash" : "0x5a93b2cd93f0e91c9b0c423196226b5c99de3cba90a56cc93748d3fcaf4b6733",
        "genesisRLP" : "0xf901faf901f5a00000000000000000000000000000000000000000000000000000000000000000a01dcc4de8dec75d7aab85b567b6ccd41ad312451b948a7413f0a142fd40d49347942adc25665018aa1fe0e6bc666dac8fc2697ff9baa04ee7e650ebbac67d9105c402ed53d704e5447ef2366dd36ddd723cd8ed2a9e57a056e81f171bcc55a6ff8345e692c0f86e5b48e01b996cadc001622fb5e363b421a056e81f171bcc55a6ff8345e692c0f86e5b48e01b996cadc001622fb5e363b421b9010000000000000000000000000000000000000000000000000000000000000000000000000000000000000000000000000000000000000000000000000000000000000000000000000000000000000000000000000000000000000000000000000000000000000000000000000000000000000000000000000000000000000000000000000000000000000000000000000000000000000000000000000000000000000000000000000000000000000000000000000000000000000000000000000000000000000000000000000000000000000000000000000000000000000000000000000000000000000000000000000000000000000000000000000000000000830200008085028fa6ae00808000a00000000000000000000000000000000000000000000000000000000000000000880000000000000000c0c0",
        "blocks" : [
            {
                "rlp" : "0xf90267f901faa00739d43ad78a619e5770571963b90aed8fdfffd06dd0ce9b92f62c6c6582aeeda01dcc4de8dec75d7aab85b567b6ccd41ad312451b948a7413f0a142fd40d49347942adc25665018aa1fe0e6bc666dac8fc2697ff9baa023a531b9504c9240bcea6274b92f843d517efef24910451aaeea997319d52c5aa00af7b181de6f4a1f154aa23eb601a797bb2289b039c5756fbe0cbf66a3132e9ba0ed8ec0bba4e41ddb2d929d110023513b82c80c026dbbf0cef77949ac77319ea0b901000000000000000000000000000000000000000000000000000000000000000000000000000000000000000000000000000000000000000000000000000000000000000000000000000000000000000000000000000000000000000000000000000000000000000000000000000000000000000000000000000000000000000000000000000000000000000000000000000000000000000000000000000000000000000000000000000000000000000000000000000000000000000000000000000000000000000000000000000000000000000000000000000000000000000000000000000000000000000000000000000000000000000000000000000000000083020000018502904a97aa8319c5a98203e800a00000000000000000000000000000000000000000000000000000000000000000880000000000000000f867f86580018502540be40094095e7baea6a6c7c4c2dfeb977efac326af552d87830186a0801ba03874910128913e29e0a4feea2af012d8269da44cc1bfacad5d847a8707399affa069ae4529ef229bdb5d99ec7af5293277639304e6eedd39bddbe0a0199ce2783dc0",
                "blockHeader" : {
                    "bloom" : "0x00000000000000000000000000000000000000000000000000000000000000000000000000000000000000000000000000000000000000000000000000000000000000000000000000000000000000000000000000000000000000000000000000000000000000000000000000000000000000000000000000000000000000000000000000000000000000000000000000000000000000000000000000000000000000000000000000000000000000000000000000000000000000000000000000000000000000000000000000000000000000000000000000000000000000000000000000000000000000000000000000000000000000000000000000000000",
                    "coinbase" : "0x2adc25665018aa1fe0e6bc666dac8fc2697ff9ba",
                    "difficulty" : "0x20000",
                    "extraData" : "0x00",
                    "gasLimit" : "0x2904a97aa",
                    "gasUsed" : "0x19c5a9",
                    "hash" : "0x5a93b2cd93f0e91c9b0c423196226b5c99de3cba90a56cc93748d3fcaf4b6733",
                    "mixHash" : "0x0000000000000000000000000000000000000000000000000000000000000000",
                    "nonce" : "0x0000000000000000",
                    "number" : "0x1",
                    "parentHash" : "0x0739d43ad78a619e5770571963b90aed8fdfffd06dd0ce9b92f62c6c6582aeed",
                    "receiptTrie" : "0xed8ec0bba4e41ddb2d929d110023513b82c80c026dbbf0cef77949ac77319ea0",
                    "stateRoot" : "0x23a531b9504c9240bcea6274b92f843d517efef24910451aaeea997319d52c5a",
                    "timestamp" : "0x3e8",
                    "transactionsTrie" : "0x0af7b181de6f4a1f154aa23eb601a797bb2289b039c5756fbe0cbf66a3132e9b",
                    "uncleHash" : "0x1dcc4de8dec75d7aab85b567b6ccd41ad312451b948a7413f0a142fd40d49347"
                },
                "transactions" : [
                    {
                        "data" : "0x",
                        "gasLimit" : "0x02540be400",
                        "gasPrice" : "0x01",
                        "nonce" : "0x00",
                        "to" : "0x095e7baea6a6c7c4c2dfeb977efac326af552d87",
                        "value" : "0x0186a0",
                        "v" : "0x1b",
                        "r" : "0x3874910128913e29e0a4feea2af012d8269da44cc1bfacad5d847a8707399aff",
                        "s" : "0x69ae4529ef229bdb5d99ec7af5293277639304e6eedd39bddbe0a0199ce2783d"
                    }
                ]
            }
        ]
    }
}