{
    "CallRecursiveBomb0_OOG_atMaxCallDepth_d0g0v0_Istanbul" : {
        "_info" : {
            "comment" : "",
            "filling-rpc-server" : "Geth-1.9.6-unstable-63b18027-20190920",
            "filling-tool-version" : "retesteth-0.0.1+commit.0ae18aef.Linux.g++",
            "lllcversion" : "Version: 0.5.12-develop.2019.9.13+commit.2d601a4f.Linux.g++",
            "source" : "src/GeneralStateTestsFiller/stSystemOperationsTest/CallRecursiveBomb0_OOG_atMaxCallDepthFiller.json",
            "sourceHash" : "773a303157bfc254601aaa40cd2da8eac07c6f9e6116d956f8f681ea9815238e"
        },
        "genesisBlockHeader" : {
            "bloom" : "0x00000000000000000000000000000000000000000000000000000000000000000000000000000000000000000000000000000000000000000000000000000000000000000000000000000000000000000000000000000000000000000000000000000000000000000000000000000000000000000000000000000000000000000000000000000000000000000000000000000000000000000000000000000000000000000000000000000000000000000000000000000000000000000000000000000000000000000000000000000000000000000000000000000000000000000000000000000000000000000000000000000000000000000000000000000000",
            "coinbase" : "0x2adc25665018aa1fe0e6bc666dac8fc2697ff9ba",
            "difficulty" : "0x20000",
            "extraData" : "0x00",
            "gasLimit" : "0x199c82cc00",
            "gasUsed" : "0x0",
            "hash" : "0x18075eda43c61a510031c6201cbf602ffb561cab0cc32548d02042ca769fd7b3",
            "mixHash" : "0x0000000000000000000000000000000000000000000000000000000000000000",
            "nonce" : "0x0000000000000000",
            "number" : "0x0",
            "parentHash" : "0x0000000000000000000000000000000000000000000000000000000000000000",
            "receiptTrie" : "0x56e81f171bcc55a6ff8345e692c0f86e5b48e01b996cadc001622fb5e363b421",
            "stateRoot" : "0xcba83cb719df50c5f32fc400e5a8ca25d03d79a3dc01f2333ae120d15d9024f6",
            "timestamp" : "0x0",
            "transactionsTrie" : "0x56e81f171bcc55a6ff8345e692c0f86e5b48e01b996cadc001622fb5e363b421",
            "uncleHash" : "0x1dcc4de8dec75d7aab85b567b6ccd41ad312451b948a7413f0a142fd40d49347"
        },
        "pre" : {
            "0x095e7baea6a6c7c4c2dfeb977efac326af552d87" : {
                "balance" : "0x01312d00",
                "code" : "0x600160005401600055690fffffffffffffffffff610402600054040260025560006000690fffffffffffffffffff610402600054040260006000306104005a03f160015500",
                "nonce" : "0x00",
                "storage" : {
                }
            },
            "0xa94f5374fce5edbc8e2a8697c15331677e6ebf0b" : {
                "balance" : "0x0de0b6b3a7640000",
                "code" : "0x",
                "nonce" : "0x00",
                "storage" : {
                }
            }
        },
        "postState" : {
            "0xa94f5374fce5edbc8e2a8697c15331677e6ebf0b" : {
                "code" : "0x",
                "nonce" : "0x01",
                "balance" : "0x0de0b6b3a7191de2",
                "storage" : {
                }
            },
            "0x095e7baea6a6c7c4c2dfeb977efac326af552d87" : {
                "code" : "0x600160005401600055690fffffffffffffffffff610402600054040260025560006000690fffffffffffffffffff610402600054040260006000306104005a03f160015500",
                "nonce" : "0x00",
                "balance" : "0x0132b3a0",
                "storage" : {
                    "0x00" : "0x02de",
                    "0x01" : "0x01"
                }
            },
            "0x2adc25665018aa1fe0e6bc666dac8fc2697ff9ba" : {
                "code" : "0x",
                "nonce" : "0x00",
                "balance" : "0x1bc16d674f115b7e",
                "storage" : {
                }
            }
        },
        "network" : "Istanbul",
        "sealEngine" : "NoProof",
        "lastblockhash" : "0x6c6296ea5fff69c990d0ac5141dbc11bbdf1139b40e6dd4a5b5fbdb0df57b83d",
        "genesisRLP" : "0xf901faf901f5a00000000000000000000000000000000000000000000000000000000000000000a01dcc4de8dec75d7aab85b567b6ccd41ad312451b948a7413f0a142fd40d49347942adc25665018aa1fe0e6bc666dac8fc2697ff9baa0cba83cb719df50c5f32fc400e5a8ca25d03d79a3dc01f2333ae120d15d9024f6a056e81f171bcc55a6ff8345e692c0f86e5b48e01b996cadc001622fb5e363b421a056e81f171bcc55a6ff8345e692c0f86e5b48e01b996cadc001622fb5e363b421b9010000000000000000000000000000000000000000000000000000000000000000000000000000000000000000000000000000000000000000000000000000000000000000000000000000000000000000000000000000000000000000000000000000000000000000000000000000000000000000000000000000000000000000000000000000000000000000000000000000000000000000000000000000000000000000000000000000000000000000000000000000000000000000000000000000000000000000000000000000000000000000000000000000000000000000000000000000000000000000000000000000000000000000000000000000000000830200008085199c82cc00808000a00000000000000000000000000000000000000000000000000000000000000000880000000000000000c0c0",
        "blocks" : [
            {
                "rlp" : "0xf90267f901faa018075eda43c61a510031c6201cbf602ffb561cab0cc32548d02042ca769fd7b3a01dcc4de8dec75d7aab85b567b6ccd41ad312451b948a7413f0a142fd40d49347942adc25665018aa1fe0e6bc666dac8fc2697ff9baa0d813cf6674b460d656044e59559a271a94b703dc4ac4af7191d8f6dcfcdd5171a08142facf78a0c297605975c0bafd8dd1c44a5b12a5dd301eb28c838012f40d45a0087648b8553bcc0bfec3ba84cad8dba87618da6aad364e8879d0984549b43135b901000000000000000000000000000000000000000000000000000000000000000000000000000000000000000000000000000000000000000000000000000000000000000000000000000000000000000000000000000000000000000000000000000000000000000000000000000000000000000000000000000000000000000000000000000000000000000000000000000000000000000000000000000000000000000000000000000000000000000000000000000000000000000000000000000000000000000000000000000000000000000000000000000000000000000000000000000000000000000000000000000000000000000000000000000000000083020000018519a2e9ecb283495b7e8203e800a00000000000000000000000000000000000000000000000000000000000000000880000000000000000f867f865800185174876e80094095e7baea6a6c7c4c2dfeb977efac326af552d87830186a0801ba08d7c90b40aa480690567f2164cadc34d594034c1639a21673e8d631b3be329b4a02419a61378d5124210c5b258a5394a121f0cdf5496a21c0d0e8428d9ffe099edc0",
                "blockHeader" : {
                    "bloom" : "0x00000000000000000000000000000000000000000000000000000000000000000000000000000000000000000000000000000000000000000000000000000000000000000000000000000000000000000000000000000000000000000000000000000000000000000000000000000000000000000000000000000000000000000000000000000000000000000000000000000000000000000000000000000000000000000000000000000000000000000000000000000000000000000000000000000000000000000000000000000000000000000000000000000000000000000000000000000000000000000000000000000000000000000000000000000000",
                    "coinbase" : "0x2adc25665018aa1fe0e6bc666dac8fc2697ff9ba",
                    "difficulty" : "0x20000",
                    "extraData" : "0x00",
                    "gasLimit" : "0x19a2e9ecb2",
                    "gasUsed" : "0x495b7e",
                    "hash" : "0x6c6296ea5fff69c990d0ac5141dbc11bbdf1139b40e6dd4a5b5fbdb0df57b83d",
                    "mixHash" : "0x0000000000000000000000000000000000000000000000000000000000000000",
                    "nonce" : "0x0000000000000000",
                    "number" : "0x1",
                    "parentHash" : "0x18075eda43c61a510031c6201cbf602ffb561cab0cc32548d02042ca769fd7b3",
                    "receiptTrie" : "0x087648b8553bcc0bfec3ba84cad8dba87618da6aad364e8879d0984549b43135",
                    "stateRoot" : "0xd813cf6674b460d656044e59559a271a94b703dc4ac4af7191d8f6dcfcdd5171",
                    "timestamp" : "0x3e8",
                    "transactionsTrie" : "0x8142facf78a0c297605975c0bafd8dd1c44a5b12a5dd301eb28c838012f40d45",
                    "uncleHash" : "0x1dcc4de8dec75d7aab85b567b6ccd41ad312451b948a7413f0a142fd40d49347"
                },
                "transactions" : [
                    {
                        "data" : "0x",
                        "gasLimit" : "0x174876e800",
                        "gasPrice" : "0x01",
                        "nonce" : "0x00",
                        "to" : "0x095e7baea6a6c7c4c2dfeb977efac326af552d87",
                        "value" : "0x0186a0",
                        "v" : "0x1b",
                        "r" : "0x8d7c90b40aa480690567f2164cadc34d594034c1639a21673e8d631b3be329b4",
                        "s" : "0x2419a61378d5124210c5b258a5394a121f0cdf5496a21c0d0e8428d9ffe099ed"
                    }
                ]
            }
        ]
    }
}