{
    "Call10_d0g0v0_Istanbul" : {
        "_info" : {
            "comment" : "",
            "filling-rpc-server" : "Geth-1.9.6-unstable-63b18027-20190920",
            "filling-tool-version" : "retesteth-0.0.1+commit.0ae18aef.Linux.g++",
            "lllcversion" : "Version: 0.5.12-develop.2019.9.13+commit.2d601a4f.Linux.g++",
            "source" : "src/GeneralStateTestsFiller/stSystemOperationsTest/Call10Filler.json",
            "sourceHash" : "9d2921e7e7736a805286315caa836c0f8ff0a46be2062cec023d9db1444c40da"
        },
        "genesisBlockHeader" : {
            "bloom" : "0x00000000000000000000000000000000000000000000000000000000000000000000000000000000000000000000000000000000000000000000000000000000000000000000000000000000000000000000000000000000000000000000000000000000000000000000000000000000000000000000000000000000000000000000000000000000000000000000000000000000000000000000000000000000000000000000000000000000000000000000000000000000000000000000000000000000000000000000000000000000000000000000000000000000000000000000000000000000000000000000000000000000000000000000000000000000",
            "coinbase" : "0xb94f5374fce5edbc8e2a8697c15331677e6ebf0b",
            "difficulty" : "0x20000",
            "extraData" : "0x00",
            "gasLimit" : "0x7fffffffffffffff",
            "gasUsed" : "0x0",
            "hash" : "0x427e5175d63b30c1052b922c461f986d9e25011fd1be383ea85304888dac24cb",
            "mixHash" : "0x0000000000000000000000000000000000000000000000000000000000000000",
            "nonce" : "0x0000000000000000",
            "number" : "0x0",
            "parentHash" : "0x0000000000000000000000000000000000000000000000000000000000000000",
            "receiptTrie" : "0x56e81f171bcc55a6ff8345e692c0f86e5b48e01b996cadc001622fb5e363b421",
            "stateRoot" : "0x2fbf8c6c54da64f72f9a66215edffda3a13e06704e7741070e6546085d1067f6",
            "timestamp" : "0x0",
            "transactionsTrie" : "0x56e81f171bcc55a6ff8345e692c0f86e5b48e01b996cadc001622fb5e363b421",
            "uncleHash" : "0x1dcc4de8dec75d7aab85b567b6ccd41ad312451b948a7413f0a142fd40d49347"
        },
        "pre" : {
            "0xa94f5374fce5edbc8e2a8697c15331677e6ebf0b" : {
                "balance" : "0xffffffffffffffffffffffffffffffff",
                "code" : "0x",
                "nonce" : "0x00",
                "storage" : {
                }
            },
            "0xaaaf5374fce5edbc8e2a8697c15331677e6ebf0b" : {
                "balance" : "0x1b58",
                "code" : "0x",
                "nonce" : "0x00",
                "storage" : {
                }
            },
            "0xbbbf5374fce5edbc8e2a8697c15331677e6ebf0b" : {
                "balance" : "0x03e8",
                "code" : "0x5b600a60805110156042576000600061c3506000600173aaaf5374fce5edbc8e2a8697c15331677e6ebf0b650ffffffffffff16000556001608051016080526000565b60805160015500",
                "nonce" : "0x00",
                "storage" : {
                }
            }
        },
        "postState" : {
            "0xa94f5374fce5edbc8e2a8697c15331677e6ebf0b" : {
                "code" : "0x",
                "nonce" : "0x01",
                "balance" : "0xfffffffffffffffffffffffffffdac2e",
                "storage" : {
                }
            },
            "0xbbbf5374fce5edbc8e2a8697c15331677e6ebf0b" : {
                "code" : "0x5b600a60805110156042576000600061c3506000600173aaaf5374fce5edbc8e2a8697c15331677e6ebf0b650ffffffffffff16000556001608051016080526000565b60805160015500",
                "nonce" : "0x00",
                "balance" : "0x03e8",
                "storage" : {
                    "0x00" : "0x01",
                    "0x01" : "0x0a"
                }
            },
            "0xaaaf5374fce5edbc8e2a8697c15331677e6ebf0b" : {
                "code" : "0x",
                "nonce" : "0x00",
                "balance" : "0x1b62",
                "storage" : {
                }
            },
            "0xb94f5374fce5edbc8e2a8697c15331677e6ebf0b" : {
                "code" : "0x",
                "nonce" : "0x00",
                "balance" : "0x1bc16d674eca53c7",
                "storage" : {
                }
            }
        },
        "network" : "Istanbul",
        "sealEngine" : "NoProof",
        "lastblockhash" : "0xc2f32466e8e5080d8684aa201f1e25c20eb38e36e7d88e02a6bfe43f823a1123",
        "genesisRLP" : "0xf901fdf901f8a00000000000000000000000000000000000000000000000000000000000000000a01dcc4de8dec75d7aab85b567b6ccd41ad312451b948a7413f0a142fd40d4934794b94f5374fce5edbc8e2a8697c15331677e6ebf0ba02fbf8c6c54da64f72f9a66215edffda3a13e06704e7741070e6546085d1067f6a056e81f171bcc55a6ff8345e692c0f86e5b48e01b996cadc001622fb5e363b421a056e81f171bcc55a6ff8345e692c0f86e5b48e01b996cadc001622fb5e363b421b90100000000000000000000000000000000000000000000000000000000000000000000000000000000000000000000000000000000000000000000000000000000000000000000000000000000000000000000000000000000000000000000000000000000000000000000000000000000000000000000000000000000000000000000000000000000000000000000000000000000000000000000000000000000000000000000000000000000000000000000000000000000000000000000000000000000000000000000000000000000000000000000000000000000000000000000000000000000000000000000000000000000000000000000000000000000008302000080887fffffffffffffff808000a00000000000000000000000000000000000000000000000000000000000000000880000000000000000c0c0",
        "blocks" : [
            {
                "rlp" : "0xf9026af901fda0427e5175d63b30c1052b922c461f986d9e25011fd1be383ea85304888dac24cba01dcc4de8dec75d7aab85b567b6ccd41ad312451b948a7413f0a142fd40d4934794b94f5374fce5edbc8e2a8697c15331677e6ebf0ba010dcd8b29024fd3653860828c61c009ad4d10c266362142d0650d325551bfbcca0b415155edf474cb383cf8d806dfe28b3ae2f4be4560d3a512da828a9767fab6da005d085a547fb9e8e5fc23b8ef54c6cef71ddd2237641b76837f67b0270985e83b90100000000000000000000000000000000000000000000000000000000000000000000000000000000000000000000000000000000000000000000000000000000000000000000000000000000000000000000000000000000000000000000000000000000000000000000000000000000000000000000000000000000000000000000000000000000000000000000000000000000000000000000000000000000000000000000000000000000000000000000000000000000000000000000000000000000000000000000000000000000000000000000000000000000000000000000000000000000000000000000000000000000000000000000000000000000008302000001887fffffffffffffff830253c78203e800a00000000000000000000000000000000000000000000000000000000000000000880000000000000000f867f8658001887f000ffffffffff094bbbf5374fce5edbc8e2a8697c15331677e6ebf0b0a801ba082957f74175d2c3db33b1376f2e76df04c4b00c27e0570a95dd37f935736a2e2a026eb276e60e34ac313b4997c86fe09ae5b36b84607380de97574897b8e766347c0",
                "blockHeader" : {
                    "bloom" : "0x00000000000000000000000000000000000000000000000000000000000000000000000000000000000000000000000000000000000000000000000000000000000000000000000000000000000000000000000000000000000000000000000000000000000000000000000000000000000000000000000000000000000000000000000000000000000000000000000000000000000000000000000000000000000000000000000000000000000000000000000000000000000000000000000000000000000000000000000000000000000000000000000000000000000000000000000000000000000000000000000000000000000000000000000000000000",
                    "coinbase" : "0xb94f5374fce5edbc8e2a8697c15331677e6ebf0b",
                    "difficulty" : "0x20000",
                    "extraData" : "0x00",
                    "gasLimit" : "0x7fffffffffffffff",
                    "gasUsed" : "0x253c7",
                    "hash" : "0xc2f32466e8e5080d8684aa201f1e25c20eb38e36e7d88e02a6bfe43f823a1123",
                    "mixHash" : "0x0000000000000000000000000000000000000000000000000000000000000000",
                    "nonce" : "0x0000000000000000",
                    "number" : "0x1",
                    "parentHash" : "0x427e5175d63b30c1052b922c461f986d9e25011fd1be383ea85304888dac24cb",
                    "receiptTrie" : "0x05d085a547fb9e8e5fc23b8ef54c6cef71ddd2237641b76837f67b0270985e83",
                    "stateRoot" : "0x10dcd8b29024fd3653860828c61c009ad4d10c266362142d0650d325551bfbcc",
                    "timestamp" : "0x3e8",
                    "transactionsTrie" : "0xb415155edf474cb383cf8d806dfe28b3ae2f4be4560d3a512da828a9767fab6d",
                    "uncleHash" : "0x1dcc4de8dec75d7aab85b567b6ccd41ad312451b948a7413f0a142fd40d49347"
                },
                "transactions" : [
                    {
                        "data" : "0x",
                        "gasLimit" : "0x7f000ffffffffff0",
                        "gasPrice" : "0x01",
                        "nonce" : "0x00",
                        "to" : "0xbbbf5374fce5edbc8e2a8697c15331677e6ebf0b",
                        "value" : "0x0a",
                        "v" : "0x1b",
                        "r" : "0x82957f74175d2c3db33b1376f2e76df04c4b00c27e0570a95dd37f935736a2e2",
                        "s" : "0x26eb276e60e34ac313b4997c86fe09ae5b36b84607380de97574897b8e766347"
                    }
                ]
            }
        ]
    }
}