{
    "doubleSelfdestructTest2_d0g0v0_Istanbul" : {
        "_info" : {
            "comment" : "The second test case requested here https://github.com/ethereum/tests/issues/431#issue-306081539 .\nInvoked Solidity 0.4.21 with solc --bin-runtime --optimize\ncontract DoubleSelfdestructTest2 {\n  address constant B = 0x3;\n  function remoteSelfdestruct() external {\n    selfdestruct(this);\n  }\n  function() external payable {\n    this.remoteSelfdestruct();\n    selfdestruct(B);\n  }\n}\nThe version of Solidity emits code that always enter OOG for Homestead and Frontier.  So no new accounts\nare created for Homestead and Frontier.  EIP158 changes the behavior of zero-amount transfer so that no new accounts are created.\nThis leaves EIP150 as a special case.\n",
            "filling-rpc-server" : "Geth-1.9.6-unstable-63b18027-20190920",
            "filling-tool-version" : "retesteth-0.0.1+commit.0ae18aef.Linux.g++",
            "lllcversion" : "Version: 0.5.12-develop.2019.9.13+commit.2d601a4f.Linux.g++",
            "source" : "src/GeneralStateTestsFiller/stSystemOperationsTest/doubleSelfdestructTest2Filler.yml",
            "sourceHash" : "06869e0c371ec0500ca8a2c95190fa0e3df04822dd5a03d95535032a31d710fa"
        },
        "genesisBlockHeader" : {
            "bloom" : "0x00000000000000000000000000000000000000000000000000000000000000000000000000000000000000000000000000000000000000000000000000000000000000000000000000000000000000000000000000000000000000000000000000000000000000000000000000000000000000000000000000000000000000000000000000000000000000000000000000000000000000000000000000000000000000000000000000000000000000000000000000000000000000000000000000000000000000000000000000000000000000000000000000000000000000000000000000000000000000000000000000000000000000000000000000000000",
            "coinbase" : "0x2adc25665018aa1fe0e6bc666dac8fc2697ff9ba",
            "difficulty" : "0x20000",
            "extraData" : "0x00",
            "gasLimit" : "0x2540be400",
            "gasUsed" : "0x0",
            "hash" : "0x635f84a531c5fe9b4c337900c576e5bbd50859415e3e1880f42d3614ef1920d5",
            "mixHash" : "0x0000000000000000000000000000000000000000000000000000000000000000",
            "nonce" : "0x0000000000000000",
            "number" : "0x0",
            "parentHash" : "0x0000000000000000000000000000000000000000000000000000000000000000",
            "receiptTrie" : "0x56e81f171bcc55a6ff8345e692c0f86e5b48e01b996cadc001622fb5e363b421",
            "stateRoot" : "0xdee120be57e9d149de0a77a155f90026af9ad09375930e9ea3224684f4483f0d",
            "timestamp" : "0x0",
            "transactionsTrie" : "0x56e81f171bcc55a6ff8345e692c0f86e5b48e01b996cadc001622fb5e363b421",
            "uncleHash" : "0x1dcc4de8dec75d7aab85b567b6ccd41ad312451b948a7413f0a142fd40d49347"
        },
        "pre" : {
            "0x095e7baea6a6c7c4c2dfeb977efac326af552d87" : {
                "balance" : "0x0de0b6b3a7640000",
                "code" : "0x606060405260043610603e5763ffffffff7c01000000000000000000000000000000000000000000000000000000006000350416632c3f2bf3811460b4575b3073ffffffffffffffffffffffffffffffffffffffff16632c3f2bf36040518163ffffffff167c0100000000000000000000000000000000000000000000000000000000028152600401600060405180830381600087803b151560a057600080fd5b5af1151560ac57600080fd5b506003915050ff5b341560be57600080fd5b60c460c6565b005b3073ffffffffffffffffffffffffffffffffffffffff16ff00a165627a7a7230582004c215a78ad0add6ec7f9e2488a74efe60734d3dfe25da652ef8ac9dae892c4a0029",
                "nonce" : "0x00",
                "storage" : {
                }
            },
            "0xa94f5374fce5edbc8e2a8697c15331677e6ebf0b" : {
                "balance" : "0x0de0b6b3a7640000",
                "code" : "0x",
                "nonce" : "0x00",
                "storage" : {
                }
            }
        },
        "postState" : {
            "0xa94f5374fce5edbc8e2a8697c15331677e6ebf0b" : {
                "code" : "0x",
                "nonce" : "0x01",
                "balance" : "0x0de0b6b3a7627960",
                "storage" : {
                }
            },
            "0x2adc25665018aa1fe0e6bc666dac8fc2697ff9ba" : {
                "code" : "0x",
                "nonce" : "0x00",
                "balance" : "0x1bc16d674ec80000",
                "storage" : {
                }
            }
        },
        "network" : "Istanbul",
        "sealEngine" : "NoProof",
        "lastblockhash" : "0x21502317e9862e6d2be4eb90f42e02b6bf365a501f55727493c114e53c9b5401",
        "genesisRLP" : "0xf901faf901f5a00000000000000000000000000000000000000000000000000000000000000000a01dcc4de8dec75d7aab85b567b6ccd41ad312451b948a7413f0a142fd40d49347942adc25665018aa1fe0e6bc666dac8fc2697ff9baa0dee120be57e9d149de0a77a155f90026af9ad09375930e9ea3224684f4483f0da056e81f171bcc55a6ff8345e692c0f86e5b48e01b996cadc001622fb5e363b421a056e81f171bcc55a6ff8345e692c0f86e5b48e01b996cadc001622fb5e363b421b901000000000000000000000000000000000000000000000000000000000000000000000000000000000000000000000000000000000000000000000000000000000000000000000000000000000000000000000000000000000000000000000000000000000000000000000000000000000000000000000000000000000000000000000000000000000000000000000000000000000000000000000000000000000000000000000000000000000000000000000000000000000000000000000000000000000000000000000000000000000000000000000000000000000000000000000000000000000000000000000000000000000000000000000000000000000083020000808502540be400808000a00000000000000000000000000000000000000000000000000000000000000000880000000000000000c0c0",
        "blocks" : [
            {
                "rlp" : "0xf90265f901f9a0635f84a531c5fe9b4c337900c576e5bbd50859415e3e1880f42d3614ef1920d5a01dcc4de8dec75d7aab85b567b6ccd41ad312451b948a7413f0a142fd40d49347942adc25665018aa1fe0e6bc666dac8fc2697ff9baa01e102c142c6754143f31e227813b4c0c5b4115dc8985e9390fc0687f8d0e271aa01182d1b16e7090aa42a1e85ea80494dc8254eb57f5b3d30cf836396b64819a17a0d880bc9c09e30ed7e852fbf42a00703a8bdb4c98c75501f6e27a024e1cf6907db90100000000000000000000000000000000000000000000000000000000000000000000000000000000000000000000000000000000000000000000000000000000000000000000000000000000000000000000000000000000000000000000000000000000000000000000000000000000000000000000000000000000000000000000000000000000000000000000000000000000000000000000000000000000000000000000000000000000000000000000000000000000000000000000000000000000000000000000000000000000000000000000000000000000000000000000000000000000000000000000000000000000000000000000000000000000008302000001850254a0e6f8823fdd8203e800a00000000000000000000000000000000000000000000000000000000000000000880000000000000000f866f8648080843b9aca0094095e7baea6a6c7c4c2dfeb977efac326af552d87830186a0801ca037de084a867928aff0d24ad4fc002b0cef4212d18e1916ca4c49ffd2ca498b10a06e5471d17e48ecf3a958278b05dc88582f43fc9caa28aa1788838bc1cb170ff3c0",
                "blockHeader" : {
                    "bloom" : "0x00000000000000000000000000000000000000000000000000000000000000000000000000000000000000000000000000000000000000000000000000000000000000000000000000000000000000000000000000000000000000000000000000000000000000000000000000000000000000000000000000000000000000000000000000000000000000000000000000000000000000000000000000000000000000000000000000000000000000000000000000000000000000000000000000000000000000000000000000000000000000000000000000000000000000000000000000000000000000000000000000000000000000000000000000000000",
                    "coinbase" : "0x2adc25665018aa1fe0e6bc666dac8fc2697ff9ba",
                    "difficulty" : "0x20000",
                    "extraData" : "0x00",
                    "gasLimit" : "0x254a0e6f8",
                    "gasUsed" : "0x3fdd",
                    "hash" : "0x21502317e9862e6d2be4eb90f42e02b6bf365a501f55727493c114e53c9b5401",
                    "mixHash" : "0x0000000000000000000000000000000000000000000000000000000000000000",
                    "nonce" : "0x0000000000000000",
                    "number" : "0x1",
                    "parentHash" : "0x635f84a531c5fe9b4c337900c576e5bbd50859415e3e1880f42d3614ef1920d5",
                    "receiptTrie" : "0xd880bc9c09e30ed7e852fbf42a00703a8bdb4c98c75501f6e27a024e1cf6907d",
                    "stateRoot" : "0x1e102c142c6754143f31e227813b4c0c5b4115dc8985e9390fc0687f8d0e271a",
                    "timestamp" : "0x3e8",
                    "transactionsTrie" : "0x1182d1b16e7090aa42a1e85ea80494dc8254eb57f5b3d30cf836396b64819a17",
                    "uncleHash" : "0x1dcc4de8dec75d7aab85b567b6ccd41ad312451b948a7413f0a142fd40d49347"
                },
                "transactions" : [
                    {
                        "data" : "0x",
                        "gasLimit" : "0x3b9aca00",
                        "gasPrice" : "0x00",
                        "nonce" : "0x00",
                        "to" : "0x095e7baea6a6c7c4c2dfeb977efac326af552d87",
                        "value" : "0x0186a0",
                        "v" : "0x1c",
                        "r" : "0x37de084a867928aff0d24ad4fc002b0cef4212d18e1916ca4c49ffd2ca498b10",
                        "s" : "0x6e5471d17e48ecf3a958278b05dc88582f43fc9caa28aa1788838bc1cb170ff3"
                    }
                ]
            }
        ]
    }
}