{
    "doubleSelfdestructTest_d0g0v0_Istanbul" : {
        "_info" : {
            "comment" : "The first test case required here https://github.com/ethereum/tests/issues/431#issue-306081539 .\nInvoked Solidity 0.4.21 with solc --bin-runtime --optimize\ncontract DoubleSelfdestructTest {\n  address constant B1 = 0x1;\n  address constant B2 = 0x2;\n  function remoteSelfdestruct() external {\n    selfdestruct(B2);\n  }\n  function() external payable {\n    this.remoteSelfdestruct();\n    selfdestruct(B1);\n  }\n}\n",
            "filling-rpc-server" : "Geth-1.9.6-unstable-63b18027-20190920",
            "filling-tool-version" : "retesteth-0.0.1+commit.0ae18aef.Linux.g++",
            "lllcversion" : "Version: 0.5.12-develop.2019.9.13+commit.2d601a4f.Linux.g++",
            "source" : "src/GeneralStateTestsFiller/stSystemOperationsTest/doubleSelfdestructTestFiller.yml",
            "sourceHash" : "07805baa8309d37bf675e5a3c277ae30cac0368aeb84e561e51235d0e0e88a26"
        },
        "genesisBlockHeader" : {
            "bloom" : "0x00000000000000000000000000000000000000000000000000000000000000000000000000000000000000000000000000000000000000000000000000000000000000000000000000000000000000000000000000000000000000000000000000000000000000000000000000000000000000000000000000000000000000000000000000000000000000000000000000000000000000000000000000000000000000000000000000000000000000000000000000000000000000000000000000000000000000000000000000000000000000000000000000000000000000000000000000000000000000000000000000000000000000000000000000000000",
            "coinbase" : "0x2adc25665018aa1fe0e6bc666dac8fc2697ff9ba",
            "difficulty" : "0x20000",
            "extraData" : "0x00",
            "gasLimit" : "0x2540be400",
            "gasUsed" : "0x0",
            "hash" : "0xac8cb045ec68c97e3a819f2d2667e60df7985947229bacf5a8376259660f4275",
            "mixHash" : "0x0000000000000000000000000000000000000000000000000000000000000000",
            "nonce" : "0x0000000000000000",
            "number" : "0x0",
            "parentHash" : "0x0000000000000000000000000000000000000000000000000000000000000000",
            "receiptTrie" : "0x56e81f171bcc55a6ff8345e692c0f86e5b48e01b996cadc001622fb5e363b421",
            "stateRoot" : "0x5269999e143540cd61e08a34f8eac69ea342f094869610e6e9f1733f8f1f25f6",
            "timestamp" : "0x0",
            "transactionsTrie" : "0x56e81f171bcc55a6ff8345e692c0f86e5b48e01b996cadc001622fb5e363b421",
            "uncleHash" : "0x1dcc4de8dec75d7aab85b567b6ccd41ad312451b948a7413f0a142fd40d49347"
        },
        "pre" : {
            "0x095e7baea6a6c7c4c2dfeb977efac326af552d87" : {
                "balance" : "0x0de0b6b3a7640000",
                "code" : "0x606060405260043610603e5763ffffffff7c01000000000000000000000000000000000000000000000000000000006000350416632c3f2bf3811460b4575b3073ffffffffffffffffffffffffffffffffffffffff16632c3f2bf36040518163ffffffff167c0100000000000000000000000000000000000000000000000000000000028152600401600060405180830381600087803b151560a057600080fd5b5af1151560ac57600080fd5b506001915050ff5b341560be57600080fd5b60c460c6565b005b6002ff00a165627a7a7230582050afafcb56c38a6100bd690c100a940b5fd73919053a82fbe14e6cf89dce4c430029",
                "nonce" : "0x00",
                "storage" : {
                }
            },
            "0xa94f5374fce5edbc8e2a8697c15331677e6ebf0b" : {
                "balance" : "0x0de0b6b3a7640000",
                "code" : "0x",
                "nonce" : "0x00",
                "storage" : {
                }
            }
        },
        "postState" : {
            "0xa94f5374fce5edbc8e2a8697c15331677e6ebf0b" : {
                "code" : "0x",
                "nonce" : "0x01",
                "balance" : "0x0de0b6b3a7627960",
                "storage" : {
                }
            },
            "0x2adc25665018aa1fe0e6bc666dac8fc2697ff9ba" : {
                "code" : "0x",
                "nonce" : "0x00",
                "balance" : "0x1bc16d674ec80000",
                "storage" : {
                }
            },
            "0x0000000000000000000000000000000000000002" : {
                "code" : "0x",
                "nonce" : "0x00",
                "balance" : "0x0de0b6b3a76586a0",
                "storage" : {
                }
            }
        },
        "network" : "Istanbul",
        "sealEngine" : "NoProof",
        "lastblockhash" : "0x85342b8e532c318e685c198f5f90bb9276b754dd3f5b6a507f557af3710d72e2",
        "genesisRLP" : "0xf901faf901f5a00000000000000000000000000000000000000000000000000000000000000000a01dcc4de8dec75d7aab85b567b6ccd41ad312451b948a7413f0a142fd40d49347942adc25665018aa1fe0e6bc666dac8fc2697ff9baa05269999e143540cd61e08a34f8eac69ea342f094869610e6e9f1733f8f1f25f6a056e81f171bcc55a6ff8345e692c0f86e5b48e01b996cadc001622fb5e363b421a056e81f171bcc55a6ff8345e692c0f86e5b48e01b996cadc001622fb5e363b421b901000000000000000000000000000000000000000000000000000000000000000000000000000000000000000000000000000000000000000000000000000000000000000000000000000000000000000000000000000000000000000000000000000000000000000000000000000000000000000000000000000000000000000000000000000000000000000000000000000000000000000000000000000000000000000000000000000000000000000000000000000000000000000000000000000000000000000000000000000000000000000000000000000000000000000000000000000000000000000000000000000000000000000000000000000000000083020000808502540be400808000a00000000000000000000000000000000000000000000000000000000000000000880000000000000000c0c0",
        "blocks" : [
            {
                "rlp" : "0xf90265f901f9a0ac8cb045ec68c97e3a819f2d2667e60df7985947229bacf5a8376259660f4275a01dcc4de8dec75d7aab85b567b6ccd41ad312451b948a7413f0a142fd40d49347942adc25665018aa1fe0e6bc666dac8fc2697ff9baa0a52c244a8aecb1581376120d6bbeee7d9653ed58a20e5c092c973fa66f09d572a01182d1b16e7090aa42a1e85ea80494dc8254eb57f5b3d30cf836396b64819a17a05fe2fc3aba9303eafe76d806185911c1fb7640bbcba0d40a4764738b2b601e49b90100000000000000000000000000000000000000000000000000000000000000000000000000000000000000000000000000000000000000000000000000000000000000000000000000000000000000000000000000000000000000000000000000000000000000000000000000000000000000000000000000000000000000000000000000000000000000000000000000000000000000000000000000000000000000000000000000000000000000000000000000000000000000000000000000000000000000000000000000000000000000000000000000000000000000000000000000000000000000000000000000000000000000000000000000000000008302000001850254a0e6f882839c8203e800a00000000000000000000000000000000000000000000000000000000000000000880000000000000000f866f8648080843b9aca0094095e7baea6a6c7c4c2dfeb977efac326af552d87830186a0801ca037de084a867928aff0d24ad4fc002b0cef4212d18e1916ca4c49ffd2ca498b10a06e5471d17e48ecf3a958278b05dc88582f43fc9caa28aa1788838bc1cb170ff3c0",
                "blockHeader" : {
                    "bloom" : "0x00000000000000000000000000000000000000000000000000000000000000000000000000000000000000000000000000000000000000000000000000000000000000000000000000000000000000000000000000000000000000000000000000000000000000000000000000000000000000000000000000000000000000000000000000000000000000000000000000000000000000000000000000000000000000000000000000000000000000000000000000000000000000000000000000000000000000000000000000000000000000000000000000000000000000000000000000000000000000000000000000000000000000000000000000000000",
                    "coinbase" : "0x2adc25665018aa1fe0e6bc666dac8fc2697ff9ba",
                    "difficulty" : "0x20000",
                    "extraData" : "0x00",
                    "gasLimit" : "0x254a0e6f8",
                    "gasUsed" : "0x839c",
                    "hash" : "0x85342b8e532c318e685c198f5f90bb9276b754dd3f5b6a507f557af3710d72e2",
                    "mixHash" : "0x0000000000000000000000000000000000000000000000000000000000000000",
                    "nonce" : "0x0000000000000000",
                    "number" : "0x1",
                    "parentHash" : "0xac8cb045ec68c97e3a819f2d2667e60df7985947229bacf5a8376259660f4275",
                    "receiptTrie" : "0x5fe2fc3aba9303eafe76d806185911c1fb7640bbcba0d40a4764738b2b601e49",
                    "stateRoot" : "0xa52c244a8aecb1581376120d6bbeee7d9653ed58a20e5c092c973fa66f09d572",
                    "timestamp" : "0x3e8",
                    "transactionsTrie" : "0x1182d1b16e7090aa42a1e85ea80494dc8254eb57f5b3d30cf836396b64819a17",
                    "uncleHash" : "0x1dcc4de8dec75d7aab85b567b6ccd41ad312451b948a7413f0a142fd40d49347"
                },
                "transactions" : [
                    {
                        "data" : "0x",
                        "gasLimit" : "0x3b9aca00",
                        "gasPrice" : "0x00",
                        "nonce" : "0x00",
                        "to" : "0x095e7baea6a6c7c4c2dfeb977efac326af552d87",
                        "value" : "0x0186a0",
                        "v" : "0x1c",
                        "r" : "0x37de084a867928aff0d24ad4fc002b0cef4212d18e1916ca4c49ffd2ca498b10",
                        "s" : "0x6e5471d17e48ecf3a958278b05dc88582f43fc9caa28aa1788838bc1cb170ff3"
                    }
                ]
            }
        ]
    }
}