{
    "suicideSendEtherPostDeath_d0g0v0_Istanbul" : {
        "_info" : {
            "comment" : "",
            "filling-rpc-server" : "Geth-1.9.6-unstable-63b18027-20190920",
            "filling-tool-version" : "retesteth-0.0.1+commit.0ae18aef.Linux.g++",
            "lllcversion" : "Version: 0.5.12-develop.2019.9.13+commit.2d601a4f.Linux.g++",
            "source" : "src/GeneralStateTestsFiller/stSystemOperationsTest/suicideSendEtherPostDeathFiller.json",
            "sourceHash" : "d49d458c8176581aa5ebb0639936c7b56ae736a94e38a4bf83aa981347a57f32"
        },
        "genesisBlockHeader" : {
            "bloom" : "0x00000000000000000000000000000000000000000000000000000000000000000000000000000000000000000000000000000000000000000000000000000000000000000000000000000000000000000000000000000000000000000000000000000000000000000000000000000000000000000000000000000000000000000000000000000000000000000000000000000000000000000000000000000000000000000000000000000000000000000000000000000000000000000000000000000000000000000000000000000000000000000000000000000000000000000000000000000000000000000000000000000000000000000000000000000000",
            "coinbase" : "0x2adc25665018aa1fe0e6bc666dac8fc2697ff9ba",
            "difficulty" : "0x20000",
            "extraData" : "0x00",
            "gasLimit" : "0x989680",
            "gasUsed" : "0x0",
            "hash" : "0xeab3d6bb2d0565568886ec3d336935ab16cfed4b8705c6ed59f331c7eb46ab55",
            "mixHash" : "0x0000000000000000000000000000000000000000000000000000000000000000",
            "nonce" : "0x0000000000000000",
            "number" : "0x0",
            "parentHash" : "0x0000000000000000000000000000000000000000000000000000000000000000",
            "receiptTrie" : "0x56e81f171bcc55a6ff8345e692c0f86e5b48e01b996cadc001622fb5e363b421",
            "stateRoot" : "0x18ff7fab80690a2b3700814ed7faa99ffc1322ea00efe5d9338b16ec80c1ffbd",
            "timestamp" : "0x0",
            "transactionsTrie" : "0x56e81f171bcc55a6ff8345e692c0f86e5b48e01b996cadc001622fb5e363b421",
            "uncleHash" : "0x1dcc4de8dec75d7aab85b567b6ccd41ad312451b948a7413f0a142fd40d49347"
        },
        "pre" : {
            "0x095e7baea6a6c7c4c2dfeb977efac326af552d87" : {
                "balance" : "0x0de0b6b3a7640000",
                "code" : "0x60606040526000357c01000000000000000000000000000000000000000000000000000000009004806335f46994146100445780634d536fe31461005157610042565b005b61004f600450610072565b005b61005c60045061008d565b6040518082815260200191505060405180910390f35b3073ffffffffffffffffffffffffffffffffffffffff16ff5b565b600060003073ffffffffffffffffffffffffffffffffffffffff166335f46994604051817c01000000000000000000000000000000000000000000000000000000000281526004018090506000604051808303816000876161da5a03f115610002575050503073ffffffffffffffffffffffffffffffffffffffff163190503373ffffffffffffffffffffffffffffffffffffffff16600082604051809050600060405180830381858888f1935050505050809150610147565b509056",
                "nonce" : "0x00",
                "storage" : {
                }
            },
            "0xa94f5374fce5edbc8e2a8697c15331677e6ebf0b" : {
                "balance" : "0x0de0b6b3a7640000",
                "code" : "0x",
                "nonce" : "0x00",
                "storage" : {
                }
            }
        },
        "postState" : {
            "0xa94f5374fce5edbc8e2a8697c15331677e6ebf0b" : {
                "code" : "0x",
                "nonce" : "0x01",
                "balance" : "0x0de0b6b3a7624174",
                "storage" : {
                }
            },
            "0x2adc25665018aa1fe0e6bc666dac8fc2697ff9ba" : {
                "code" : "0x",
                "nonce" : "0x00",
                "balance" : "0x1bc16d674ec837ec",
                "storage" : {
                }
            }
        },
        "network" : "Istanbul",
        "sealEngine" : "NoProof",
        "lastblockhash" : "0x521da23ef72e0e0ccd11835222db19e1c68b046b9e16a6506b4269fe82cd3925",
        "genesisRLP" : "0xf901f8f901f3a00000000000000000000000000000000000000000000000000000000000000000a01dcc4de8dec75d7aab85b567b6ccd41ad312451b948a7413f0a142fd40d49347942adc25665018aa1fe0e6bc666dac8fc2697ff9baa018ff7fab80690a2b3700814ed7faa99ffc1322ea00efe5d9338b16ec80c1ffbda056e81f171bcc55a6ff8345e692c0f86e5b48e01b996cadc001622fb5e363b421a056e81f171bcc55a6ff8345e692c0f86e5b48e01b996cadc001622fb5e363b421b9010000000000000000000000000000000000000000000000000000000000000000000000000000000000000000000000000000000000000000000000000000000000000000000000000000000000000000000000000000000000000000000000000000000000000000000000000000000000000000000000000000000000000000000000000000000000000000000000000000000000000000000000000000000000000000000000000000000000000000000000000000000000000000000000000000000000000000000000000000000000000000000000000000000000000000000000000000000000000000000000000000000000000000000000000000000000830200008083989680808000a00000000000000000000000000000000000000000000000000000000000000000880000000000000000c0c0",
        "blocks" : [
            {
                "rlp" : "0xf90266f901f7a0eab3d6bb2d0565568886ec3d336935ab16cfed4b8705c6ed59f331c7eb46ab55a01dcc4de8dec75d7aab85b567b6ccd41ad312451b948a7413f0a142fd40d49347942adc25665018aa1fe0e6bc666dac8fc2697ff9baa035103bf234cb39c66915c9cf0c9a6d985d84c8f9e333dddec66890c4032de216a0c12a5e930733d9466c2e7c64f52a7254ccc51cd72b9216f9d8d59def78a4a00da0216f1ac42d0cc12f586d4959bb6900ac94cf7cc9be14530b388bbc1e91f5d376b901000000000000000000000000000000000000000000000000000000000000000000000000000000000000000000000000000000000000000000000000000000000000000000000000000000000000000000000000000000000000000000000000000000000000000000000000000000000000000000000000000000000000000000000000000000000000000000000000000000000000000000000000000000000000000000000000000000000000000000000000000000000000000000000000000000000000000000000000000000000000000000000000000000000000000000000000000000000000000000000000000000000000000000000000000000000083020000018398bca48237ec8203e800a00000000000000000000000000000000000000000000000000000000000000000880000000000000000f869f8678001832dc6c094095e7baea6a6c7c4c2dfeb977efac326af552d87830186a0844d536fe31ca049a9f64355ac77855a3b55dbff4641731274683f4ebd27317d235c052ad17a5ca0486736d73963f6c8958852d2a240f31f0cb1dde0c100a6f52aeb6e470717391bc0",
                "blockHeader" : {
                    "bloom" : "0x00000000000000000000000000000000000000000000000000000000000000000000000000000000000000000000000000000000000000000000000000000000000000000000000000000000000000000000000000000000000000000000000000000000000000000000000000000000000000000000000000000000000000000000000000000000000000000000000000000000000000000000000000000000000000000000000000000000000000000000000000000000000000000000000000000000000000000000000000000000000000000000000000000000000000000000000000000000000000000000000000000000000000000000000000000000",
                    "coinbase" : "0x2adc25665018aa1fe0e6bc666dac8fc2697ff9ba",
                    "difficulty" : "0x20000",
                    "extraData" : "0x00",
                    "gasLimit" : "0x98bca4",
                    "gasUsed" : "0x37ec",
                    "hash" : "0x521da23ef72e0e0ccd11835222db19e1c68b046b9e16a6506b4269fe82cd3925",
                    "mixHash" : "0x0000000000000000000000000000000000000000000000000000000000000000",
                    "nonce" : "0x0000000000000000",
                    "number" : "0x1",
                    "parentHash" : "0xeab3d6bb2d0565568886ec3d336935ab16cfed4b8705c6ed59f331c7eb46ab55",
                    "receiptTrie" : "0x216f1ac42d0cc12f586d4959bb6900ac94cf7cc9be14530b388bbc1e91f5d376",
                    "stateRoot" : "0x35103bf234cb39c66915c9cf0c9a6d985d84c8f9e333dddec66890c4032de216",
                    "timestamp" : "0x3e8",
                    "transactionsTrie" : "0xc12a5e930733d9466c2e7c64f52a7254ccc51cd72b9216f9d8d59def78a4a00d",
                    "uncleHash" : "0x1dcc4de8dec75d7aab85b567b6ccd41ad312451b948a7413f0a142fd40d49347"
                },
                "transactions" : [
                    {
                        "data" : "0x4d536fe3",
                        "gasLimit" : "0x2dc6c0",
                        "gasPrice" : "0x01",
                        "nonce" : "0x00",
                        "to" : "0x095e7baea6a6c7c4c2dfeb977efac326af552d87",
                        "value" : "0x0186a0",
                        "v" : "0x1c",
                        "r" : "0x49a9f64355ac77855a3b55dbff4641731274683f4ebd27317d235c052ad17a5c",
                        "s" : "0x486736d73963f6c8958852d2a240f31f0cb1dde0c100a6f52aeb6e470717391b"
                    }
                ]
            }
        ]
    }
}