{
    "testRandomTest_d0g0v0_Istanbul" : {
        "_info" : {
            "comment" : "",
            "filling-rpc-server" : "Geth-1.9.6-unstable-63b18027-20190920",
            "filling-tool-version" : "retesteth-0.0.1+commit.0ae18aef.Linux.g++",
            "lllcversion" : "Version: 0.5.12-develop.2019.9.13+commit.2d601a4f.Linux.g++",
            "source" : "src/GeneralStateTestsFiller/stSystemOperationsTest/testRandomTestFiller.json",
            "sourceHash" : "bf265c71db6c32745c5a9fa311f4ab3b486f450af524de9d2d1c74d645dc599f"
        },
        "genesisBlockHeader" : {
            "bloom" : "0x00000000000000000000000000000000000000000000000000000000000000000000000000000000000000000000000000000000000000000000000000000000000000000000000000000000000000000000000000000000000000000000000000000000000000000000000000000000000000000000000000000000000000000000000000000000000000000000000000000000000000000000000000000000000000000000000000000000000000000000000000000000000000000000000000000000000000000000000000000000000000000000000000000000000000000000000000000000000000000000000000000000000000000000000000000000",
            "coinbase" : "0x2adc25665018aa1fe0e6bc666dac8fc2697ff9ba",
            "difficulty" : "0x20000",
            "extraData" : "0x00",
            "gasLimit" : "0xf4240",
            "gasUsed" : "0x0",
            "hash" : "0x4df0eae9e2dd96195c0f99bc8d5152e0cc0cedbbb8b4716fc9a55dcac0959d2f",
            "mixHash" : "0x0000000000000000000000000000000000000000000000000000000000000000",
            "nonce" : "0x0000000000000000",
            "number" : "0x0",
            "parentHash" : "0x0000000000000000000000000000000000000000000000000000000000000000",
            "receiptTrie" : "0x56e81f171bcc55a6ff8345e692c0f86e5b48e01b996cadc001622fb5e363b421",
            "stateRoot" : "0x3ec3c7c0651201885c20608a2ec593e0dff60af9d5d6ce5a4abfdef66d542efe",
            "timestamp" : "0x0",
            "transactionsTrie" : "0x56e81f171bcc55a6ff8345e692c0f86e5b48e01b996cadc001622fb5e363b421",
            "uncleHash" : "0x1dcc4de8dec75d7aab85b567b6ccd41ad312451b948a7413f0a142fd40d49347"
        },
        "pre" : {
            "0x0f572e5295c57f15886f9b263e2f6d2d6c7b5ec6" : {
                "balance" : "0x0de0b6b3a7640000",
                "code" : "0x424443444243434383f0155af055",
                "nonce" : "0x00",
                "storage" : {
                }
            },
            "0xa94f5374fce5edbc8e2a8697c15331677e6ebf0b" : {
                "balance" : "0x0de0b6b3a7640000",
                "code" : "0x",
                "nonce" : "0x00",
                "storage" : {
                }
            }
        },
        "postState" : {
            "0xebcce5f60530275ee9318ce1eff9e4bfee810172" : {
                "code" : "0x",
                "nonce" : "0x01",
                "balance" : "0x03c4bd",
                "storage" : {
                }
            },
            "0xa94f5374fce5edbc8e2a8697c15331677e6ebf0b" : {
                "code" : "0x",
                "nonce" : "0x01",
                "balance" : "0x0de0b6b3a760df1d",
                "storage" : {
                }
            },
            "0x2adc25665018aa1fe0e6bc666dac8fc2697ff9ba" : {
                "code" : "0x",
                "nonce" : "0x00",
                "balance" : "0x1bc16d674ec99a43",
                "storage" : {
                }
            },
            "0x0f572e5295c57f15886f9b263e2f6d2d6c7b5ec6" : {
                "code" : "0x424443444243434383f0155af055",
                "nonce" : "0x02",
                "balance" : "0x0de0b6b3a761bdfb",
                "storage" : {
                    "0xebcce5f60530275ee9318ce1eff9e4bfee810172" : "0x03e8"
                }
            },
            "0x945304eb96065b2a98b57a48a06ae28d285a71b5" : {
                "code" : "0x",
                "nonce" : "0x01",
                "balance" : "0x03e8",
                "storage" : {
                }
            }
        },
        "network" : "Istanbul",
        "sealEngine" : "NoProof",
        "lastblockhash" : "0xcd72c8ffbcf815b884cd48c14cf0738e247538e97bf21bddbe59957e834decc3",
        "genesisRLP" : "0xf901f8f901f3a00000000000000000000000000000000000000000000000000000000000000000a01dcc4de8dec75d7aab85b567b6ccd41ad312451b948a7413f0a142fd40d49347942adc25665018aa1fe0e6bc666dac8fc2697ff9baa03ec3c7c0651201885c20608a2ec593e0dff60af9d5d6ce5a4abfdef66d542efea056e81f171bcc55a6ff8345e692c0f86e5b48e01b996cadc001622fb5e363b421a056e81f171bcc55a6ff8345e692c0f86e5b48e01b996cadc001622fb5e363b421b90100000000000000000000000000000000000000000000000000000000000000000000000000000000000000000000000000000000000000000000000000000000000000000000000000000000000000000000000000000000000000000000000000000000000000000000000000000000000000000000000000000000000000000000000000000000000000000000000000000000000000000000000000000000000000000000000000000000000000000000000000000000000000000000000000000000000000000000000000000000000000000000000000000000000000000000000000000000000000000000000000000000000000000000000000000000008302000080830f4240808000a00000000000000000000000000000000000000000000000000000000000000000880000000000000000c0c0",
        "blocks" : [
            {
                "rlp" : "0xf90263f901f8a04df0eae9e2dd96195c0f99bc8d5152e0cc0cedbbb8b4716fc9a55dcac0959d2fa01dcc4de8dec75d7aab85b567b6ccd41ad312451b948a7413f0a142fd40d49347942adc25665018aa1fe0e6bc666dac8fc2697ff9baa0a243dd03bbe1fb637c50ff7714bda87580aebd3ad43588499a969672337dc8c4a09d4b39409a5f6a100b54fd4455b476556a545ea00e2ea1026df11c717613a481a0476ef2c012959743f97c3fada5dac464fb2c503932551da0e3bf50e471bb196bb90100000000000000000000000000000000000000000000000000000000000000000000000000000000000000000000000000000000000000000000000000000000000000000000000000000000000000000000000000000000000000000000000000000000000000000000000000000000000000000000000000000000000000000000000000000000000000000000000000000000000000000000000000000000000000000000000000000000000000000000000000000000000000000000000000000000000000000000000000000000000000000000000000000000000000000000000000000000000000000000000000000000000000000000000000000000008302000001830f460f83019a438203e800a00000000000000000000000000000000000000000000000000000000000000000880000000000000000f865f8638001830493e0940f572e5295c57f15886f9b263e2f6d2d6c7b5ec6830186a0801ca08a205eff199f26430bf9d89cabeed2a644dc291ba3c62c929b9150854c94ae75a0219c1d245545217dd12469c51dd792ee81cdc86106870d44ce0dedaabcd52d2bc0",
                "blockHeader" : {
                    "bloom" : "0x00000000000000000000000000000000000000000000000000000000000000000000000000000000000000000000000000000000000000000000000000000000000000000000000000000000000000000000000000000000000000000000000000000000000000000000000000000000000000000000000000000000000000000000000000000000000000000000000000000000000000000000000000000000000000000000000000000000000000000000000000000000000000000000000000000000000000000000000000000000000000000000000000000000000000000000000000000000000000000000000000000000000000000000000000000000",
                    "coinbase" : "0x2adc25665018aa1fe0e6bc666dac8fc2697ff9ba",
                    "difficulty" : "0x20000",
                    "extraData" : "0x00",
                    "gasLimit" : "0xf460f",
                    "gasUsed" : "0x19a43",
                    "hash" : "0xcd72c8ffbcf815b884cd48c14cf0738e247538e97bf21bddbe59957e834decc3",
                    "mixHash" : "0x0000000000000000000000000000000000000000000000000000000000000000",
                    "nonce" : "0x0000000000000000",
                    "number" : "0x1",
                    "parentHash" : "0x4df0eae9e2dd96195c0f99bc8d5152e0cc0cedbbb8b4716fc9a55dcac0959d2f",
                    "receiptTrie" : "0x476ef2c012959743f97c3fada5dac464fb2c503932551da0e3bf50e471bb196b",
                    "stateRoot" : "0xa243dd03bbe1fb637c50ff7714bda87580aebd3ad43588499a969672337dc8c4",
                    "timestamp" : "0x3e8",
                    "transactionsTrie" : "0x9d4b39409a5f6a100b54fd4455b476556a545ea00e2ea1026df11c717613a481",
                    "uncleHash" : "0x1dcc4de8dec75d7aab85b567b6ccd41ad312451b948a7413f0a142fd40d49347"
                },
                "transactions" : [
                    {
                        "data" : "0x",
                        "gasLimit" : "0x0493e0",
                        "gasPrice" : "0x01",
                        "nonce" : "0x00",
                        "to" : "0x0f572e5295c57f15886f9b263e2f6d2d6c7b5ec6",
                        "value" : "0x0186a0",
                        "v" : "0x1c",
                        "r" : "0x8a205eff199f26430bf9d89cabeed2a644dc291ba3c62c929b9150854c94ae75",
                        "s" : "0x219c1d245545217dd12469c51dd792ee81cdc86106870d44ce0dedaabcd52d2b"
                    }
                ]
            }
        ]
    }
}