{
    "Create1000_d0g0v0_Istanbul" : {
        "_info" : {
            "comment" : "",
            "filling-rpc-server" : "Geth-1.9.9-unstable-fc7e0fe6-20191129",
            "filling-tool-version" : "retesteth-0.0.1+commit.64a9120f.Linux.g++",
            "lllcversion" : "Version: 0.5.14-develop.2019.11.27+commit.8f259595.Linux.g++",
            "source" : "src/GeneralStateTestsFiller/stQuadraticComplexityTest/Create1000Filler.json",
            "sourceHash" : "c97486d0d2672977794a1cfa4ebd30d436819b61edcdb8dd14488f85660be2bb"
        },
        "genesisBlockHeader" : {
            "bloom" : "0x00000000000000000000000000000000000000000000000000000000000000000000000000000000000000000000000000000000000000000000000000000000000000000000000000000000000000000000000000000000000000000000000000000000000000000000000000000000000000000000000000000000000000000000000000000000000000000000000000000000000000000000000000000000000000000000000000000000000000000000000000000000000000000000000000000000000000000000000000000000000000000000000000000000000000000000000000000000000000000000000000000000000000000000000000000000",
            "coinbase" : "0xb94f5374fce5edbc8e2a8697c15331677e6ebf0b",
            "difficulty" : "0x20000",
            "extraData" : "0x00",
            "gasLimit" : "0x200999600",
            "gasUsed" : "0x0",
            "hash" : "0x54eff52f32329fe51c8e8f544a4561f09120b372044952917852325c6a1a7a86",
            "mixHash" : "0x0000000000000000000000000000000000000000000000000000000000000000",
            "nonce" : "0x0000000000000000",
            "number" : "0x0",
            "parentHash" : "0x0000000000000000000000000000000000000000000000000000000000000000",
            "receiptTrie" : "0x56e81f171bcc55a6ff8345e692c0f86e5b48e01b996cadc001622fb5e363b421",
            "stateRoot" : "0x30032594517a40b640c300437546ced9fb25b937d1a75504126e646c3e4459a5",
            "timestamp" : "0x0",
            "transactionsTrie" : "0x56e81f171bcc55a6ff8345e692c0f86e5b48e01b996cadc001622fb5e363b421",
            "uncleHash" : "0x1dcc4de8dec75d7aab85b567b6ccd41ad312451b948a7413f0a142fd40d49347"
        },
        "pre" : {
            "0xa94f5374fce5edbc8e2a8697c15331677e6ebf0b" : {
                "balance" : "0xffffffffffffffffffffffffffffffff",
                "code" : "0x",
                "nonce" : "0x00",
                "storage" : {
                }
            },
            "0xbbbf5374fce5edbc8e2a8697c15331677e6ebf0b" : {
                "balance" : "0x0fffffffffffff",
                "code" : "0x5b6103e8608051101560235761c35060006001f06000556001608051016080526000565b60805160015500",
                "nonce" : "0x00",
                "storage" : {
                }
            }
        },
        "postState" : {
            "0xa94f5374fce5edbc8e2a8697c15331677e6ebf0b" : {
                "code" : "0x",
                "nonce" : "0x01",
                "balance" : "0xfffffffffffffffffffffffffffdb60f",
                "storage" : {
                }
            },
            "0xbbbf5374fce5edbc8e2a8697c15331677e6ebf0b" : {
                "code" : "0x5b6103e8608051101560235761c35060006001f06000556001608051016080526000565b60805160015500",
                "nonce" : "0x00",
                "balance" : "0x0fffffffffffff",
                "storage" : {
                }
            },
            "0xb94f5374fce5edbc8e2a8697c15331677e6ebf0b" : {
                "code" : "0x",
                "nonce" : "0x00",
                "balance" : "0x1bc16d674eca49f0",
                "storage" : {
                }
            }
        },
        "network" : "Istanbul",
        "sealEngine" : "NoProof",
        "lastblockhash" : "0xd6e47c8b58c0b3c6b56d9c124ecc41d245cf7bb8e2fa8eba8c7d8d322c661dd3",
        "genesisRLP" : "0xf901faf901f5a00000000000000000000000000000000000000000000000000000000000000000a01dcc4de8dec75d7aab85b567b6ccd41ad312451b948a7413f0a142fd40d4934794b94f5374fce5edbc8e2a8697c15331677e6ebf0ba030032594517a40b640c300437546ced9fb25b937d1a75504126e646c3e4459a5a056e81f171bcc55a6ff8345e692c0f86e5b48e01b996cadc001622fb5e363b421a056e81f171bcc55a6ff8345e692c0f86e5b48e01b996cadc001622fb5e363b421b90100000000000000000000000000000000000000000000000000000000000000000000000000000000000000000000000000000000000000000000000000000000000000000000000000000000000000000000000000000000000000000000000000000000000000000000000000000000000000000000000000000000000000000000000000000000000000000000000000000000000000000000000000000000000000000000000000000000000000000000000000000000000000000000000000000000000000000000000000000000000000000000000000000000000000000000000000000000000000000000000000000000000000000000000000000000008302000080850200999600808000a00000000000000000000000000000000000000000000000000000000000000000880000000000000000c0c0",
        "blocks" : [
            {
                "rlp" : "0xf90262f901faa054eff52f32329fe51c8e8f544a4561f09120b372044952917852325c6a1a7a86a01dcc4de8dec75d7aab85b567b6ccd41ad312451b948a7413f0a142fd40d4934794b94f5374fce5edbc8e2a8697c15331677e6ebf0ba025aa3e3c20999f41c9e9dee22a06cfe7a8e0aadc056533e1dd2d9397b176c85ca0a0ec2fa38ce491778e1b6da60eba5927ecd92ad8cde4a3d964deef99110e1b29a0a0e10907f175886de9bd8cd4ac2c21d1db4109a3a9fecf60f54015ee102803fdb9010000000000000000000000000000000000000000000000000000000000000000000000000000000000000000000000000000000000000000000000000000000000000000000000000000000000000000000000000000000000000000000000000000000000000000000000000000000000000000000000000000000000000000000000000000000000000000000000000000000000000000000000000000000000000000000000000000000000000000000000000000000000000000000000000000000000000000000000000000000000000000000000000000000000000000000000000000000000000000000000000000000000000000000000000000000000830200000185020119bc64830249f08203e800a00000000000000000000000000000000000000000000000000000000000000000880000000000000000f862f8608001830249f094bbbf5374fce5edbc8e2a8697c15331677e6ebf0b0a801ba020bc21bc6aadd85fed142b7b980799d44c5d6f1ec8f3e1e2cb97dc68880e4795a0603fbf089643eb78e7e7ad708eded071087c93a23dba3c56c9704465d2a69207c0",
                "blockHeader" : {
                    "bloom" : "0x00000000000000000000000000000000000000000000000000000000000000000000000000000000000000000000000000000000000000000000000000000000000000000000000000000000000000000000000000000000000000000000000000000000000000000000000000000000000000000000000000000000000000000000000000000000000000000000000000000000000000000000000000000000000000000000000000000000000000000000000000000000000000000000000000000000000000000000000000000000000000000000000000000000000000000000000000000000000000000000000000000000000000000000000000000000",
                    "coinbase" : "0xb94f5374fce5edbc8e2a8697c15331677e6ebf0b",
                    "difficulty" : "0x20000",
                    "extraData" : "0x00",
                    "gasLimit" : "0x20119bc64",
                    "gasUsed" : "0x249f0",
                    "hash" : "0xd6e47c8b58c0b3c6b56d9c124ecc41d245cf7bb8e2fa8eba8c7d8d322c661dd3",
                    "mixHash" : "0x0000000000000000000000000000000000000000000000000000000000000000",
                    "nonce" : "0x0000000000000000",
                    "number" : "0x1",
                    "parentHash" : "0x54eff52f32329fe51c8e8f544a4561f09120b372044952917852325c6a1a7a86",
                    "receiptTrie" : "0xa0e10907f175886de9bd8cd4ac2c21d1db4109a3a9fecf60f54015ee102803fd",
                    "stateRoot" : "0x25aa3e3c20999f41c9e9dee22a06cfe7a8e0aadc056533e1dd2d9397b176c85c",
                    "timestamp" : "0x3e8",
                    "transactionsTrie" : "0xa0ec2fa38ce491778e1b6da60eba5927ecd92ad8cde4a3d964deef99110e1b29",
                    "uncleHash" : "0x1dcc4de8dec75d7aab85b567b6ccd41ad312451b948a7413f0a142fd40d49347"
                },
                "transactions" : [
                    {
                        "data" : "0x",
                        "gasLimit" : "0x0249f0",
                        "gasPrice" : "0x01",
                        "nonce" : "0x00",
                        "to" : "0xbbbf5374fce5edbc8e2a8697c15331677e6ebf0b",
                        "value" : "0x0a",
                        "v" : "0x1b",
                        "r" : "0x20bc21bc6aadd85fed142b7b980799d44c5d6f1ec8f3e1e2cb97dc68880e4795",
                        "s" : "0x603fbf089643eb78e7e7ad708eded071087c93a23dba3c56c9704465d2a69207"
                    }
                ]
            }
        ]
    },
    "Create1000_d0g1v0_Istanbul" : {
        "_info" : {
            "comment" : "",
            "filling-rpc-server" : "Geth-1.9.9-unstable-fc7e0fe6-20191129",
            "filling-tool-version" : "retesteth-0.0.1+commit.64a9120f.Linux.g++",
            "lllcversion" : "Version: 0.5.14-develop.2019.11.27+commit.8f259595.Linux.g++",
            "source" : "src/GeneralStateTestsFiller/stQuadraticComplexityTest/Create1000Filler.json",
            "sourceHash" : "c97486d0d2672977794a1cfa4ebd30d436819b61edcdb8dd14488f85660be2bb"
        },
        "genesisBlockHeader" : {
            "bloom" : "0x00000000000000000000000000000000000000000000000000000000000000000000000000000000000000000000000000000000000000000000000000000000000000000000000000000000000000000000000000000000000000000000000000000000000000000000000000000000000000000000000000000000000000000000000000000000000000000000000000000000000000000000000000000000000000000000000000000000000000000000000000000000000000000000000000000000000000000000000000000000000000000000000000000000000000000000000000000000000000000000000000000000000000000000000000000000",
            "coinbase" : "0xb94f5374fce5edbc8e2a8697c15331677e6ebf0b",
            "difficulty" : "0x20000",
            "extraData" : "0x00",
            "gasLimit" : "0x200999600",
            "gasUsed" : "0x0",
            "hash" : "0x54eff52f32329fe51c8e8f544a4561f09120b372044952917852325c6a1a7a86",
            "mixHash" : "0x0000000000000000000000000000000000000000000000000000000000000000",
            "nonce" : "0x0000000000000000",
            "number" : "0x0",
            "parentHash" : "0x0000000000000000000000000000000000000000000000000000000000000000",
            "receiptTrie" : "0x56e81f171bcc55a6ff8345e692c0f86e5b48e01b996cadc001622fb5e363b421",
            "stateRoot" : "0x30032594517a40b640c300437546ced9fb25b937d1a75504126e646c3e4459a5",
            "timestamp" : "0x0",
            "transactionsTrie" : "0x56e81f171bcc55a6ff8345e692c0f86e5b48e01b996cadc001622fb5e363b421",
            "uncleHash" : "0x1dcc4de8dec75d7aab85b567b6ccd41ad312451b948a7413f0a142fd40d49347"
        },
        "pre" : {
            "0xa94f5374fce5edbc8e2a8697c15331677e6ebf0b" : {
                "balance" : "0xffffffffffffffffffffffffffffffff",
                "code" : "0x",
                "nonce" : "0x00",
                "storage" : {
                }
            },
            "0xbbbf5374fce5edbc8e2a8697c15331677e6ebf0b" : {
                "balance" : "0x0fffffffffffff",
                "code" : "0x5b6103e8608051101560235761c35060006001f06000556001608051016080526000565b60805160015500",
                "nonce" : "0x00",
                "storage" : {
                }
            }
        },
        "postStateHash" : "0x23f378638a22161b41a4de3514463d1977474d1e59e88637d0405cf2c174c8e4",
        "network" : "Istanbul",
        "sealEngine" : "NoProof",
        "lastblockhash" : "0x1c79aedcb1d1c791da56ff5007c81815d50267e238f2dd8a547d3a7b3080fa02",
        "genesisRLP" : "0xf901faf901f5a00000000000000000000000000000000000000000000000000000000000000000a01dcc4de8dec75d7aab85b567b6ccd41ad312451b948a7413f0a142fd40d4934794b94f5374fce5edbc8e2a8697c15331677e6ebf0ba030032594517a40b640c300437546ced9fb25b937d1a75504126e646c3e4459a5a056e81f171bcc55a6ff8345e692c0f86e5b48e01b996cadc001622fb5e363b421a056e81f171bcc55a6ff8345e692c0f86e5b48e01b996cadc001622fb5e363b421b90100000000000000000000000000000000000000000000000000000000000000000000000000000000000000000000000000000000000000000000000000000000000000000000000000000000000000000000000000000000000000000000000000000000000000000000000000000000000000000000000000000000000000000000000000000000000000000000000000000000000000000000000000000000000000000000000000000000000000000000000000000000000000000000000000000000000000000000000000000000000000000000000000000000000000000000000000000000000000000000000000000000000000000000000000000000008302000080850200999600808000a00000000000000000000000000000000000000000000000000000000000000000880000000000000000c0c0",
        "blocks" : [
            {
                "rlp" : "0xf90264f901fba054eff52f32329fe51c8e8f544a4561f09120b372044952917852325c6a1a7a86a01dcc4de8dec75d7aab85b567b6ccd41ad312451b948a7413f0a142fd40d4934794b94f5374fce5edbc8e2a8697c15331677e6ebf0ba023f378638a22161b41a4de3514463d1977474d1e59e88637d0405cf2c174c8e4a011d570905f32c46c526a712794d2d4a5e35176ac6de48c8328c5ffe7aaeb10e8a0f11a552850cf293d92a4dc1e8ba74d7620551baf759770ba88f065782bf0ac5eb9010000000000000000000000000000000000000000000000000000000000000000000000000000000000000000000000000000000000000000000000000000000000000000000000000000000000000000000000000000000000000000000000000000000000000000000000000000000000000000000000000000000000000000000000000000000000000000000000000000000000000000000000000000000000000000000000000000000000000000000000000000000000000000000000000000000000000000000000000000000000000000000000000000000000000000000000000000000000000000000000000000000000000000000000000000000000830200000185020119bc648401f69eb38203e800a00000000000000000000000000000000000000000000000000000000000000000880000000000000000f863f8618001840ee6b28094bbbf5374fce5edbc8e2a8697c15331677e6ebf0b0a801ca059a4b49695baa04705375b29fcf0cfc663d0c3da6c748b0a1f6cab3158c4ff37a05b8cf80c815cb88b89b4e36f05acf96449cf50a69119f5a5b206d80cee938c69c0",
                "blockHeader" : {
                    "bloom" : "0x00000000000000000000000000000000000000000000000000000000000000000000000000000000000000000000000000000000000000000000000000000000000000000000000000000000000000000000000000000000000000000000000000000000000000000000000000000000000000000000000000000000000000000000000000000000000000000000000000000000000000000000000000000000000000000000000000000000000000000000000000000000000000000000000000000000000000000000000000000000000000000000000000000000000000000000000000000000000000000000000000000000000000000000000000000000",
                    "coinbase" : "0xb94f5374fce5edbc8e2a8697c15331677e6ebf0b",
                    "difficulty" : "0x20000",
                    "extraData" : "0x00",
                    "gasLimit" : "0x20119bc64",
                    "gasUsed" : "0x1f69eb3",
                    "hash" : "0x1c79aedcb1d1c791da56ff5007c81815d50267e238f2dd8a547d3a7b3080fa02",
                    "mixHash" : "0x0000000000000000000000000000000000000000000000000000000000000000",
                    "nonce" : "0x0000000000000000",
                    "number" : "0x1",
                    "parentHash" : "0x54eff52f32329fe51c8e8f544a4561f09120b372044952917852325c6a1a7a86",
                    "receiptTrie" : "0xf11a552850cf293d92a4dc1e8ba74d7620551baf759770ba88f065782bf0ac5e",
                    "stateRoot" : "0x23f378638a22161b41a4de3514463d1977474d1e59e88637d0405cf2c174c8e4",
                    "timestamp" : "0x3e8",
                    "transactionsTrie" : "0x11d570905f32c46c526a712794d2d4a5e35176ac6de48c8328c5ffe7aaeb10e8",
                    "uncleHash" : "0x1dcc4de8dec75d7aab85b567b6ccd41ad312451b948a7413f0a142fd40d49347"
                },
                "transactions" : [
                    {
                        "data" : "0x",
                        "gasLimit" : "0x0ee6b280",
                        "gasPrice" : "0x01",
                        "nonce" : "0x00",
                        "to" : "0xbbbf5374fce5edbc8e2a8697c15331677e6ebf0b",
                        "value" : "0x0a",
                        "v" : "0x1c",
                        "r" : "0x59a4b49695baa04705375b29fcf0cfc663d0c3da6c748b0a1f6cab3158c4ff37",
                        "s" : "0x5b8cf80c815cb88b89b4e36f05acf96449cf50a69119f5a5b206d80cee938c69"
                    }
                ]
            }
        ]
    }
}