{
    "UncleFromSideChain_Istanbul" : {
        "_info" : {
            "comment" : "",
            "filledwith" : "testeth 1.8.0-alpha.0-12+commit.b120a12c.dirty",
            "lllcversion" : "Version: 0.5.12-develop.2019.9.13+commit.2d601a4f.Linux.g++",
            "source" : "src/BlockchainTestsFiller/InvalidBlocks/bcMultiChainTest/UncleFromSideChainFiller.json",
            "sourceHash" : "b14e6490f0b6fb0be342c9540aa6ee520f4ebc6d35f1471933ec95edca4361af"
        },
        "blocks" : [
            {
                "blockHeader" : {
                    "bloom" : "0x00000000000000000000000000000000000000000000000000000000000000000000000000000000000000000000000000000000000000000000000000000000000000000000000000000000000000000000000000000000000000000000000000000000000000000000000000000000000000000000000000000000000000000000000000000000000000000000000000000000000000000000000000000000000000000000000000000000000000000000000000000000000000000000000000000000000000000000000000000000000000000000000000000000000000000000000000000000000000000000000000000000000000000000000000000000",
                    "coinbase" : "0x8888f1f195afa192cfee860698584c030f4c9db1",
                    "difficulty" : "0x020000",
                    "extraData" : "",
                    "gasLimit" : "0x2fefba",
                    "gasUsed" : "0x5208",
                    "hash" : "0xd04e6bee8516bed859e3d9f07ab13c7530ec48f07fc74ad6dbbc224fd90a3683",
                    "mixHash" : "0x0013a96316777a8cea21e5ddf05145806a56c40ca318753bd05c316df9a60936",
                    "nonce" : "0x38226c9834e67408",
                    "number" : "0x01",
                    "parentHash" : "0x5a39ed1020c04d4d84539975b893a4e7c53eab6c2965db8bc3468093a31bc5ae",
                    "receiptTrie" : "0x056b23fbba480696b65fe5a59b8f2148a1299103c4f57df839233af2cf4ca2d2",
                    "stateRoot" : "0x9f975da0cdc4d5f074009af73873d83f3e29d9e7f33fee3f11a38133166034e5",
                    "timestamp" : "0x5db725cc",
                    "transactionsTrie" : "0x5c9151c2413d1cd25c51ffb4ac38948acc1359bf08c6b49f283660e9bcf0f516",
                    "uncleHash" : "0x1dcc4de8dec75d7aab85b567b6ccd41ad312451b948a7413f0a142fd40d49347"
                },
                "blocknumber" : "1",
                "chainname" : "A",
                "rlp" : "0xf90261f901f9a05a39ed1020c04d4d84539975b893a4e7c53eab6c2965db8bc3468093a31bc5aea01dcc4de8dec75d7aab85b567b6ccd41ad312451b948a7413f0a142fd40d49347948888f1f195afa192cfee860698584c030f4c9db1a09f975da0cdc4d5f074009af73873d83f3e29d9e7f33fee3f11a38133166034e5a05c9151c2413d1cd25c51ffb4ac38948acc1359bf08c6b49f283660e9bcf0f516a0056b23fbba480696b65fe5a59b8f2148a1299103c4f57df839233af2cf4ca2d2b90100000000000000000000000000000000000000000000000000000000000000000000000000000000000000000000000000000000000000000000000000000000000000000000000000000000000000000000000000000000000000000000000000000000000000000000000000000000000000000000000000000000000000000000000000000000000000000000000000000000000000000000000000000000000000000000000000000000000000000000000000000000000000000000000000000000000000000000000000000000000000000000000000000000000000000000000000000000000000000000000000000000000000000000000000000000008302000001832fefba825208845db725cc80a00013a96316777a8cea21e5ddf05145806a56c40ca318753bd05c316df9a609368838226c9834e67408f862f86080018304cb2f94095e7baea6a6c7c4c2dfeb977efac326af552d870a801ba077c7cd36820c71821c1aed59de46e70e701c4a8dd89c9ba508ab722210f60da8a03f29825d40c7c3f7bff3ca69267e0f3fb74b2d18b8c2c4e3c135b5d3b06e288dc0",
                "transactions" : [
                    {
                        "data" : "0x",
                        "gasLimit" : "0x04cb2f",
                        "gasPrice" : "0x01",
                        "nonce" : "0x00",
                        "r" : "0x77c7cd36820c71821c1aed59de46e70e701c4a8dd89c9ba508ab722210f60da8",
                        "s" : "0x3f29825d40c7c3f7bff3ca69267e0f3fb74b2d18b8c2c4e3c135b5d3b06e288d",
                        "to" : "0x095e7baea6a6c7c4c2dfeb977efac326af552d87",
                        "v" : "0x1b",
                        "value" : "0x0a"
                    }
                ],
                "uncleHeaders" : [
                ]
            },
            {
                "blockHeader" : {
                    "bloom" : "0x00000000000000000000000000000000000000000000000000000000000000000000000000000000000000000000000000000000000000000000000000000000000000000000000000000000000000000000000000000000000000000000000000000000000000000000000000000000000000000000000000000000000000000000000000000000000000000000000000000000000000000000000000000000000000000000000000000000000000000000000000000000000000000000000000000000000000000000000000000000000000000000000000000000000000000000000000000000000000000000000000000000000000000000000000000000",
                    "coinbase" : "0x8888f1f195afa192cfee860698584c030f4c9db1",
                    "difficulty" : "0x020000",
                    "extraData" : "",
                    "gasLimit" : "0x2fefba",
                    "gasUsed" : "0x5208",
                    "hash" : "0x9b86282a8886e82cc1317d46ed680501a5f0b9a6b17f85f16cbbf866aec452ca",
                    "mixHash" : "0xb846cd96f67317ae9ab603b992332ae3dcd71c625dd5703b9def1d60f3699617",
                    "nonce" : "0x5e65b52d3578b8a4",
                    "number" : "0x02",
                    "parentHash" : "0xd04e6bee8516bed859e3d9f07ab13c7530ec48f07fc74ad6dbbc224fd90a3683",
                    "receiptTrie" : "0x056b23fbba480696b65fe5a59b8f2148a1299103c4f57df839233af2cf4ca2d2",
                    "stateRoot" : "0xdf68925b0ee17b44c826ce4537dc0924700f7b7aa1c7c1b1d489a779b1be2525",
                    "timestamp" : "0x5db7262b",
                    "transactionsTrie" : "0xc673e076264c4669a5c2e479f1757b78e42511efe33b5fd2c0a23b929c7f87f5",
                    "uncleHash" : "0x1dcc4de8dec75d7aab85b567b6ccd41ad312451b948a7413f0a142fd40d49347"
                },
                "blocknumber" : "2",
                "chainname" : "A",
                "rlp" : "0xf90260f901f9a0d04e6bee8516bed859e3d9f07ab13c7530ec48f07fc74ad6dbbc224fd90a3683a01dcc4de8dec75d7aab85b567b6ccd41ad312451b948a7413f0a142fd40d49347948888f1f195afa192cfee860698584c030f4c9db1a0df68925b0ee17b44c826ce4537dc0924700f7b7aa1c7c1b1d489a779b1be2525a0c673e076264c4669a5c2e479f1757b78e42511efe33b5fd2c0a23b929c7f87f5a0056b23fbba480696b65fe5a59b8f2148a1299103c4f57df839233af2cf4ca2d2b90100000000000000000000000000000000000000000000000000000000000000000000000000000000000000000000000000000000000000000000000000000000000000000000000000000000000000000000000000000000000000000000000000000000000000000000000000000000000000000000000000000000000000000000000000000000000000000000000000000000000000000000000000000000000000000000000000000000000000000000000000000000000000000000000000000000000000000000000000000000000000000000000000000000000000000000000000000000000000000000000000000000000000000000000000000000008302000002832fefba825208845db7262b80a0b846cd96f67317ae9ab603b992332ae3dcd71c625dd5703b9def1d60f3699617885e65b52d3578b8a4f861f85f01018304cb2f94095e7baea6a6c7c4c2dfeb977efac326af552d870a801ba033c86e64d708c97c6b135cadff79dbf45985aa0b53694789e90d15f756765f239f1d0f8caa2a16405148c9d85581be5814960010f3cba938b5501590cea1f7cfc0",
                "transactions" : [
                    {
                        "data" : "0x",
                        "gasLimit" : "0x04cb2f",
                        "gasPrice" : "0x01",
                        "nonce" : "0x01",
                        "r" : "0x33c86e64d708c97c6b135cadff79dbf45985aa0b53694789e90d15f756765f23",
                        "s" : "0x1d0f8caa2a16405148c9d85581be5814960010f3cba938b5501590cea1f7cf",
                        "to" : "0x095e7baea6a6c7c4c2dfeb977efac326af552d87",
                        "v" : "0x1b",
                        "value" : "0x0a"
                    }
                ],
                "uncleHeaders" : [
                ]
            },
            {
                "blockHeader" : {
                    "bloom" : "0x00000000000000000000000000000000000000000000000000000000000000000000000000000000000000000000000000000000000000000000000000000000000000000000000000000000000000000000000000000000000000000000000000000000000000000000000000000000000000000000000000000000000000000000000000000000000000000000000000000000000000000000000000000000000000000000000000000000000000000000000000000000000000000000000000000000000000000000000000000000000000000000000000000000000000000000000000000000000000000000000000000000000000000000000000000000",
                    "coinbase" : "0x8888f1f195afa192cfee860698584c030f4c9db1",
                    "difficulty" : "0x020000",
                    "extraData" : "",
                    "gasLimit" : "0x2fefba",
                    "gasUsed" : "0x5208",
                    "hash" : "0x2412001e7a9a1babaa1f2ca702bfef0a3d789fa37c9238afd0b121e42790dc83",
                    "mixHash" : "0x3a7d58e0773b28d18f83311f1aebf67ccd3decf332698ef54ccfb16092fd9c3b",
                    "nonce" : "0x4b11451050165c2d",
                    "number" : "0x03",
                    "parentHash" : "0x9b86282a8886e82cc1317d46ed680501a5f0b9a6b17f85f16cbbf866aec452ca",
                    "receiptTrie" : "0x056b23fbba480696b65fe5a59b8f2148a1299103c4f57df839233af2cf4ca2d2",
                    "stateRoot" : "0xa886e704f7f73b0aa9dbfe288bcd7b6ab47c82b37cd29fabb7b5d21bbae3e72b",
                    "timestamp" : "0x5db72654",
                    "transactionsTrie" : "0x1722b8a91bfc4f5614ce36ee77c7cce6620ab4af36d3c54baa66d7dbeb7bce1a",
                    "uncleHash" : "0x1dcc4de8dec75d7aab85b567b6ccd41ad312451b948a7413f0a142fd40d49347"
                },
                "blocknumber" : "3",
                "chainname" : "A",
                "rlp" : "0xf90261f901f9a09b86282a8886e82cc1317d46ed680501a5f0b9a6b17f85f16cbbf866aec452caa01dcc4de8dec75d7aab85b567b6ccd41ad312451b948a7413f0a142fd40d49347948888f1f195afa192cfee860698584c030f4c9db1a0a886e704f7f73b0aa9dbfe288bcd7b6ab47c82b37cd29fabb7b5d21bbae3e72ba01722b8a91bfc4f5614ce36ee77c7cce6620ab4af36d3c54baa66d7dbeb7bce1aa0056b23fbba480696b65fe5a59b8f2148a1299103c4f57df839233af2cf4ca2d2b90100000000000000000000000000000000000000000000000000000000000000000000000000000000000000000000000000000000000000000000000000000000000000000000000000000000000000000000000000000000000000000000000000000000000000000000000000000000000000000000000000000000000000000000000000000000000000000000000000000000000000000000000000000000000000000000000000000000000000000000000000000000000000000000000000000000000000000000000000000000000000000000000000000000000000000000000000000000000000000000000000000000000000000000000000000000008302000003832fefba825208845db7265480a03a7d58e0773b28d18f83311f1aebf67ccd3decf332698ef54ccfb16092fd9c3b884b11451050165c2df862f86002018304cb2f94095e7baea6a6c7c4c2dfeb977efac326af552d870a801ca015eb1cc916728b9799e55c489857727669afb2986433d5f54cde11faaed9f0eea05d36f6d06c34aae8d0a2a5895c8ba4a17ad46a5fa59f361cb3e7e01a23030e38c0",
                "transactions" : [
                    {
                        "data" : "0x",
                        "gasLimit" : "0x04cb2f",
                        "gasPrice" : "0x01",
                        "nonce" : "0x02",
                        "r" : "0x15eb1cc916728b9799e55c489857727669afb2986433d5f54cde11faaed9f0ee",
                        "s" : "0x5d36f6d06c34aae8d0a2a5895c8ba4a17ad46a5fa59f361cb3e7e01a23030e38",
                        "to" : "0x095e7baea6a6c7c4c2dfeb977efac326af552d87",
                        "v" : "0x1c",
                        "value" : "0x0a"
                    }
                ],
                "uncleHeaders" : [
                ]
            },
            {
                "blockHeader" : {
                    "bloom" : "0x00000000000000000000000000000000000000000000000000000000000000000000000000000000000000000000000000000000000000000000000000000000000000000000000000000000000000000000000000000000000000000000000000000000000000000000000000000000000000000000000000000000000000000000000000000000000000000000000000000000000000000000000000000000000000000000000000000000000000000000000000000000000000000000000000000000000000000000000000000000000000000000000000000000000000000000000000000000000000000000000000000000000000000000000000000000",
                    "coinbase" : "0x8888f1f195afa192cfee860698584c030f4c9db1",
                    "difficulty" : "0x020000",
                    "extraData" : "",
                    "gasLimit" : "0x2fefba",
                    "gasUsed" : "0x5208",
                    "hash" : "0x19f5a4dc7be455b1a0cda5f36712163467faa7d5ddf0ec61525689add589bf3e",
                    "mixHash" : "0x9ca591fc26dba11e94620c97f697ed0bd893cc65ee596ea45d8cc78f3a4b0616",
                    "nonce" : "0x12ee27f872ccc73e",
                    "number" : "0x01",
                    "parentHash" : "0x5a39ed1020c04d4d84539975b893a4e7c53eab6c2965db8bc3468093a31bc5ae",
                    "receiptTrie" : "0x056b23fbba480696b65fe5a59b8f2148a1299103c4f57df839233af2cf4ca2d2",
                    "stateRoot" : "0x74911c1ce56b0de8b0d482916f80fe3943ed5c9a5633f7e988216d64a43959e0",
                    "timestamp" : "0x5db72663",
                    "transactionsTrie" : "0x89176230d5c4ac60168e999c7a9fbea712992e712c253d635601a9d625c640fa",
                    "uncleHash" : "0x1dcc4de8dec75d7aab85b567b6ccd41ad312451b948a7413f0a142fd40d49347"
                },
                "blocknumber" : "1",
                "chainname" : "B",
                "rlp" : "0xf90261f901f9a05a39ed1020c04d4d84539975b893a4e7c53eab6c2965db8bc3468093a31bc5aea01dcc4de8dec75d7aab85b567b6ccd41ad312451b948a7413f0a142fd40d49347948888f1f195afa192cfee860698584c030f4c9db1a074911c1ce56b0de8b0d482916f80fe3943ed5c9a5633f7e988216d64a43959e0a089176230d5c4ac60168e999c7a9fbea712992e712c253d635601a9d625c640faa0056b23fbba480696b65fe5a59b8f2148a1299103c4f57df839233af2cf4ca2d2b90100000000000000000000000000000000000000000000000000000000000000000000000000000000000000000000000000000000000000000000000000000000000000000000000000000000000000000000000000000000000000000000000000000000000000000000000000000000000000000000000000000000000000000000000000000000000000000000000000000000000000000000000000000000000000000000000000000000000000000000000000000000000000000000000000000000000000000000000000000000000000000000000000000000000000000000000000000000000000000000000000000000000000000000000000000000008302000001832fefba825208845db7266380a09ca591fc26dba11e94620c97f697ed0bd893cc65ee596ea45d8cc78f3a4b06168812ee27f872ccc73ef862f86080018304cb2f94095e7baea6a6c7c4c2dfeb977efac326af552d8764801ca066995adf6b8ce265233fe0ef11b24f7571908674be85c347eed4359396cfa4b1a0458062325e034ea6722559f0153094069424c0d508b7b104f2635a52bfaaa532c0",
                "transactions" : [
                    {
                        "data" : "0x",
                        "gasLimit" : "0x04cb2f",
                        "gasPrice" : "0x01",
                        "nonce" : "0x00",
                        "r" : "0x66995adf6b8ce265233fe0ef11b24f7571908674be85c347eed4359396cfa4b1",
                        "s" : "0x458062325e034ea6722559f0153094069424c0d508b7b104f2635a52bfaaa532",
                        "to" : "0x095e7baea6a6c7c4c2dfeb977efac326af552d87",
                        "v" : "0x1c",
                        "value" : "0x64"
                    }
                ],
                "uncleHeaders" : [
                ]
            },
            {
                "blockHeader" : {
                    "bloom" : "0x00000000000000000000000000000000000000000000000000000000000000000000000000000000000000000000000000000000000000000000000000000000000000000000000000000000000000000000000000000000000000000000000000000000000000000000000000000000000000000000000000000000000000000000000000000000000000000000000000000000000000000000000000000000000000000000000000000000000000000000000000000000000000000000000000000000000000000000000000000000000000000000000000000000000000000000000000000000000000000000000000000000000000000000000000000000",
                    "coinbase" : "0x8888f1f195afa192cfee860698584c030f4c9db1",
                    "difficulty" : "0x020040",
                    "extraData" : "",
                    "gasLimit" : "0x2fefba",
                    "gasUsed" : "0x5208",
                    "hash" : "0xa5c5f3a81a344d6c0e531bf9c9830151b6aa8c3ea6095315274a87d172625962",
                    "mixHash" : "0x10481630b4e0fa6bc3da1734507e8c42ed699e16bd5869845f2b53f40c6ebcad",
                    "nonce" : "0x2c010f72af3b4bb7",
                    "number" : "0x02",
                    "parentHash" : "0x19f5a4dc7be455b1a0cda5f36712163467faa7d5ddf0ec61525689add589bf3e",
                    "receiptTrie" : "0x056b23fbba480696b65fe5a59b8f2148a1299103c4f57df839233af2cf4ca2d2",
                    "stateRoot" : "0x8daafacfff641da90c023de5c93b10ff206978c92a108e90697aaca480a0f188",
                    "timestamp" : "0x5db72665",
                    "transactionsTrie" : "0x1517d551f5e39788f89454305805e9e71f154ea0919d5e052b03d652ef6f657d",
                    "uncleHash" : "0x1dcc4de8dec75d7aab85b567b6ccd41ad312451b948a7413f0a142fd40d49347"
                },
                "blocknumber" : "2",
                "chainname" : "B",
                "rlp" : "0xf90260f901f9a019f5a4dc7be455b1a0cda5f36712163467faa7d5ddf0ec61525689add589bf3ea01dcc4de8dec75d7aab85b567b6ccd41ad312451b948a7413f0a142fd40d49347948888f1f195afa192cfee860698584c030f4c9db1a08daafacfff641da90c023de5c93b10ff206978c92a108e90697aaca480a0f188a01517d551f5e39788f89454305805e9e71f154ea0919d5e052b03d652ef6f657da0056b23fbba480696b65fe5a59b8f2148a1299103c4f57df839233af2cf4ca2d2b90100000000000000000000000000000000000000000000000000000000000000000000000000000000000000000000000000000000000000000000000000000000000000000000000000000000000000000000000000000000000000000000000000000000000000000000000000000000000000000000000000000000000000000000000000000000000000000000000000000000000000000000000000000000000000000000000000000000000000000000000000000000000000000000000000000000000000000000000000000000000000000000000000000000000000000000000000000000000000000000000000000000000000000000000000000000008302004002832fefba825208845db7266580a010481630b4e0fa6bc3da1734507e8c42ed699e16bd5869845f2b53f40c6ebcad882c010f72af3b4bb7f861f85f010182795394095e7baea6a6c7c4c2dfeb977efac326af552d8764801ba06ae7ce87f0c32417d409ba74b51cdf591f7515007c1c7ce9a4255010f46e1467a064b5f4b57fad4d9582bd666e1befd1e8943ba2f3ce7afc107f04aa4530d5a995c0",
                "transactions" : [
                    {
                        "data" : "0x",
                        "gasLimit" : "0x7953",
                        "gasPrice" : "0x01",
                        "nonce" : "0x01",
                        "r" : "0x6ae7ce87f0c32417d409ba74b51cdf591f7515007c1c7ce9a4255010f46e1467",
                        "s" : "0x64b5f4b57fad4d9582bd666e1befd1e8943ba2f3ce7afc107f04aa4530d5a995",
                        "to" : "0x095e7baea6a6c7c4c2dfeb977efac326af552d87",
                        "v" : "0x1b",
                        "value" : "0x64"
                    }
                ],
                "uncleHeaders" : [
                ]
            },
            {
                "blockHeader" : {
                    "bloom" : "0x00000000000000000000000000000000000000000000000000000000000000000000000000000000000000000000000000000000000000000000000000000000000000000000000000000000000000000000000000000000000000000000000000000000000000000000000000000000000000000000000000000000000000000000000000000000000000000000000000000000000000000000000000000000000000000000000000000000000000000000000000000000000000000000000000000000000000000000000000000000000000000000000000000000000000000000000000000000000000000000000000000000000000000000000000000000",
                    "coinbase" : "0x8888f1f195afa192cfee860698584c030f4c9db1",
                    "difficulty" : "0x020080",
                    "extraData" : "",
                    "gasLimit" : "0x2fefba",
                    "gasUsed" : "0xa450",
                    "hash" : "0x0a587f7eb5b5b979f0d4d5d430b471717f30086eb9c1f67d818faf645e119936",
                    "mixHash" : "0x6823d2a78cf510e0cd755c881ac0a6588345f2a07d2a99cf4caae37f4b0c225b",
                    "nonce" : "0xd7fc08fec0a6d42e",
                    "number" : "0x03",
                    "parentHash" : "0xa5c5f3a81a344d6c0e531bf9c9830151b6aa8c3ea6095315274a87d172625962",
                    "receiptTrie" : "0x6947a841b9d386e883da931b35678aeb5694a996a75c3382a049674f79cadbdb",
                    "stateRoot" : "0x958b42df4914b63110bfe4f1c891c2626b774a341e288b9f353696376c9febce",
                    "timestamp" : "0x5db72669",
                    "transactionsTrie" : "0x78477aaf28ad6a7c05765196a0e352baef952d24592631e2d954955cc6f903f0",
                    "uncleHash" : "0x1dcc4de8dec75d7aab85b567b6ccd41ad312451b948a7413f0a142fd40d49347"
                },
                "blocknumber" : "3",
                "chainname" : "B",
                "rlp" : "0xf902c5f901f9a0a5c5f3a81a344d6c0e531bf9c9830151b6aa8c3ea6095315274a87d172625962a01dcc4de8dec75d7aab85b567b6ccd41ad312451b948a7413f0a142fd40d49347948888f1f195afa192cfee860698584c030f4c9db1a0958b42df4914b63110bfe4f1c891c2626b774a341e288b9f353696376c9febcea078477aaf28ad6a7c05765196a0e352baef952d24592631e2d954955cc6f903f0a06947a841b9d386e883da931b35678aeb5694a996a75c3382a049674f79cadbdbb90100000000000000000000000000000000000000000000000000000000000000000000000000000000000000000000000000000000000000000000000000000000000000000000000000000000000000000000000000000000000000000000000000000000000000000000000000000000000000000000000000000000000000000000000000000000000000000000000000000000000000000000000000000000000000000000000000000000000000000000000000000000000000000000000000000000000000000000000000000000000000000000000000000000000000000000000000000000000000000000000000000000000000000000000000000000008302008003832fefba82a450845db7266980a06823d2a78cf510e0cd755c881ac0a6588345f2a07d2a99cf4caae37f4b0c225b88d7fc08fec0a6d42ef8c6f8630201827b1594095e7baea6a6c7c4c2dfeb977efac326af552d876484345345401ba0c912adcf452d35df5a1f79eaf137953512e39a643d44c25419acb9526baf1913a04d4529643671cfa998a7fb0ed28618f822d4141cee5796e43badf52cb46f435cf85f0301827b1594095e7baea6a6c7c4c2dfeb977efac326af552d8714801ca04ae9ddaa1757ec78622ffb35ca33ade06b0e771a2fd2f9036a0fe855030246b5a053b9db67598fc4d139f3c304d6f63b23a6872b654407ed4260738f054da4b6ffc0",
                "transactions" : [
                    {
                        "data" : "0x34534540",
                        "gasLimit" : "0x7b15",
                        "gasPrice" : "0x01",
                        "nonce" : "0x02",
                        "r" : "0xc912adcf452d35df5a1f79eaf137953512e39a643d44c25419acb9526baf1913",
                        "s" : "0x4d4529643671cfa998a7fb0ed28618f822d4141cee5796e43badf52cb46f435c",
                        "to" : "0x095e7baea6a6c7c4c2dfeb977efac326af552d87",
                        "v" : "0x1b",
                        "value" : "0x64"
                    },
                    {
                        "data" : "0x",
                        "gasLimit" : "0x7b15",
                        "gasPrice" : "0x01",
                        "nonce" : "0x03",
                        "r" : "0x4ae9ddaa1757ec78622ffb35ca33ade06b0e771a2fd2f9036a0fe855030246b5",
                        "s" : "0x53b9db67598fc4d139f3c304d6f63b23a6872b654407ed4260738f054da4b6ff",
                        "to" : "0x095e7baea6a6c7c4c2dfeb977efac326af552d87",
                        "v" : "0x1c",
                        "value" : "0x14"
                    }
                ],
                "uncleHeaders" : [
                ]
            },
            {
                "blocknumber" : "4",
                "chainname" : "B",
                "expectExceptionALL" : "InvalidUncleParentHash",
                "rlp" : "0xf9045cf901f9a00a587f7eb5b5b979f0d4d5d430b471717f30086eb9c1f67d818faf645e119936a079e07381beda03eb1ed74071f1b25fc5c350b10c2f1f6fdd06e67dd06962e805948888f1f195afa192cfee860698584c030f4c9db1a0e2760835259f1d0a549cda7b9c03a75ffe726ffb6c4a761bf1cb29025c23c887a043c0b898ea93246c6f00333bf6a14de6b819c74d039d2cdf382ef1b7e895447ca0056b23fbba480696b65fe5a59b8f2148a1299103c4f57df839233af2cf4ca2d2b9010000000000000000000000000000000000000000000000000000000000000000000000000000000000000000000000000000000000000000000000000000000000000000000000000000000000000000000000000000000000000000000000000000000000000000000000000000000000000000000000000000000000000000000000000000000000000000000000000000000000000000000000000000000000000000000000000000000000000000000000000000000000000000000000000000000000000000000000000000000000000000000000000000000000000000000000000000000000000000000000000000000000000000000000000000000000830200c004832fefba825208845db7267180a0abf884a0504e8733213012551f804633577b845a066af881bfdfc884b64b90ca88f33c6380bf4ef4aaf861f85f040182795394095e7baea6a6c7c4c2dfeb977efac326af552d8764801ba082a2dec18c512127304e5a7d1f5b3e513c26b43d85a095a6f448afdbe89431afa020ae86c5ade7d19c7f5110f4c3cf7b4cae94f1c774c66ac4252501e90d84c1caf901faf901f7a09b86282a8886e82cc1317d46ed680501a5f0b9a6b17f85f16cbbf866aec452caa01dcc4de8dec75d7aab85b567b6ccd41ad312451b948a7413f0a142fd40d4934794f8eac8bcbf0f4ffb14a0acf45c0483c9fa82fb97a0df68925b0ee17b44c826ce4537dc0924700f7b7aa1c7c1b1d489a779b1be2525a056e81f171bcc55a6ff8345e692c0f86e5b48e01b996cadc001622fb5e363b421a056e81f171bcc55a6ff8345e692c0f86e5b48e01b996cadc001622fb5e363b421b90100000000000000000000000000000000000000000000000000000000000000000000000000000000000000000000000000000000000000000000000000000000000000000000000000000000000000000000000000000000000000000000000000000000000000000000000000000000000000000000000000000000000000000000000000000000000000000000000000000000000000000000000000000000000000000000000000000000000000000000000000000000000000000000000000000000000000000000000000000000000000000000000000000000000000000000000000000000000000000000000000000000000000000000000000000000008302004003832fefba80845db7262c80a0feaa6d890398dbdd0983138b36d1f367d5d6f3584fb66a97e2aad5b5b9cd88c38832ab34f95465a4a4"
            },
            {
                "blockHeader" : {
                    "bloom" : "0x00000000000000000000000000000000000000000000000000000000000000000000000000000000000000000000000000000000000000000000000000000000000000000000000000000000000000000000000000000000000000000000000000000000000000000000000000000000000000000000000000000000000000000000000000000000000000000000000000000000000000000000000000000000000000000000000000000000000000000000000000000000000000000000000000000000000000000000000000000000000000000000000000000000000000000000000000000000000000000000000000000000000000000000000000000000",
                    "coinbase" : "0x8888f1f195afa192cfee860698584c030f4c9db1",
                    "difficulty" : "0x020080",
                    "extraData" : "",
                    "gasLimit" : "0x2fefba",
                    "gasUsed" : "0x00",
                    "hash" : "0xf8281877567f2a2707ad28a3e3d2255d19601f57f912efa78a0385ee46f78cac",
                    "mixHash" : "0xc2d7b38e9f28184f31bc32ab07c2e3c37940290345097ebd4df619ffa8ec9573",
                    "nonce" : "0x62d9820d8a26669b",
                    "number" : "0x04",
                    "parentHash" : "0x0a587f7eb5b5b979f0d4d5d430b471717f30086eb9c1f67d818faf645e119936",
                    "receiptTrie" : "0x56e81f171bcc55a6ff8345e692c0f86e5b48e01b996cadc001622fb5e363b421",
                    "stateRoot" : "0xbce2165740f892e600f8a3f64c716a9ccd44d847ed716ff21ce69f6ac9f83df7",
                    "timestamp" : "0x5db72672",
                    "transactionsTrie" : "0x56e81f171bcc55a6ff8345e692c0f86e5b48e01b996cadc001622fb5e363b421",
                    "uncleHash" : "0x1dcc4de8dec75d7aab85b567b6ccd41ad312451b948a7413f0a142fd40d49347"
                },
                "blocknumber" : "4",
                "chainname" : "B",
                "rlp" : "0xf901fcf901f7a00a587f7eb5b5b979f0d4d5d430b471717f30086eb9c1f67d818faf645e119936a01dcc4de8dec75d7aab85b567b6ccd41ad312451b948a7413f0a142fd40d49347948888f1f195afa192cfee860698584c030f4c9db1a0bce2165740f892e600f8a3f64c716a9ccd44d847ed716ff21ce69f6ac9f83df7a056e81f171bcc55a6ff8345e692c0f86e5b48e01b996cadc001622fb5e363b421a056e81f171bcc55a6ff8345e692c0f86e5b48e01b996cadc001622fb5e363b421b90100000000000000000000000000000000000000000000000000000000000000000000000000000000000000000000000000000000000000000000000000000000000000000000000000000000000000000000000000000000000000000000000000000000000000000000000000000000000000000000000000000000000000000000000000000000000000000000000000000000000000000000000000000000000000000000000000000000000000000000000000000000000000000000000000000000000000000000000000000000000000000000000000000000000000000000000000000000000000000000000000000000000000000000000000000000008302008004832fefba80845db7267280a0c2d7b38e9f28184f31bc32ab07c2e3c37940290345097ebd4df619ffa8ec95738862d9820d8a26669bc0c0",
                "transactions" : [
                ],
                "uncleHeaders" : [
                ]
            }
        ],
        "genesisBlockHeader" : {
            "bloom" : "0x00000000000000000000000000000000000000000000000000000000000000000000000000000000000000000000000000000000000000000000000000000000000000000000000000000000000000000000000000000000000000000000000000000000000000000000000000000000000000000000000000000000000000000000000000000000000000000000000000000000000000000000000000000000000000000000000000000000000000000000000000000000000000000000000000000000000000000000000000000000000000000000000000000000000000000000000000000000000000000000000000000000000000000000000000000000",
            "coinbase" : "0x8888f1f195afa192cfee860698584c030f4c9db1",
            "difficulty" : "0x020000",
            "extraData" : "0x42",
            "gasLimit" : "0x2fefd8",
            "gasUsed" : "0x00",
            "hash" : "0x5a39ed1020c04d4d84539975b893a4e7c53eab6c2965db8bc3468093a31bc5ae",
            "mixHash" : "0x56e81f171bcc55a6ff8345e692c0f86e5b48e01b996cadc001622fb5e363b421",
            "nonce" : "0x0102030405060708",
            "number" : "0x00",
            "parentHash" : "0x0000000000000000000000000000000000000000000000000000000000000000",
            "receiptTrie" : "0x56e81f171bcc55a6ff8345e692c0f86e5b48e01b996cadc001622fb5e363b421",
            "stateRoot" : "0x7dba07d6b448a186e9612e5f737d1c909dce473e53199901a302c00646d523c1",
            "timestamp" : "0x54c98c81",
            "transactionsTrie" : "0x56e81f171bcc55a6ff8345e692c0f86e5b48e01b996cadc001622fb5e363b421",
            "uncleHash" : "0x1dcc4de8dec75d7aab85b567b6ccd41ad312451b948a7413f0a142fd40d49347"
        },
        "genesisRLP" : "0xf901fcf901f7a00000000000000000000000000000000000000000000000000000000000000000a01dcc4de8dec75d7aab85b567b6ccd41ad312451b948a7413f0a142fd40d49347948888f1f195afa192cfee860698584c030f4c9db1a07dba07d6b448a186e9612e5f737d1c909dce473e53199901a302c00646d523c1a056e81f171bcc55a6ff8345e692c0f86e5b48e01b996cadc001622fb5e363b421a056e81f171bcc55a6ff8345e692c0f86e5b48e01b996cadc001622fb5e363b421b90100000000000000000000000000000000000000000000000000000000000000000000000000000000000000000000000000000000000000000000000000000000000000000000000000000000000000000000000000000000000000000000000000000000000000000000000000000000000000000000000000000000000000000000000000000000000000000000000000000000000000000000000000000000000000000000000000000000000000000000000000000000000000000000000000000000000000000000000000000000000000000000000000000000000000000000000000000000000000000000000000000000000000000000000000000000008302000080832fefd8808454c98c8142a056e81f171bcc55a6ff8345e692c0f86e5b48e01b996cadc001622fb5e363b421880102030405060708c0c0",
        "lastblockhash" : "0xf8281877567f2a2707ad28a3e3d2255d19601f57f912efa78a0385ee46f78cac",
        "network" : "Istanbul",
        "postState" : {
            "0x095e7baea6a6c7c4c2dfeb977efac326af552d87" : {
                "balance" : "0x0140",
                "code" : "",
                "nonce" : "0x00",
                "storage" : {
                }
            },
            "0x8888f1f195afa192cfee860698584c030f4c9db1" : {
                "balance" : "0x6f05b59d3b214860",
                "code" : "",
                "nonce" : "0x00",
                "storage" : {
                }
            },
            "0xa94f5374fce5edbc8e2a8697c15331677e6ebf0b" : {
                "balance" : "0x09184e715660",
                "code" : "",
                "nonce" : "0x04",
                "storage" : {
                }
            }
        },
        "pre" : {
            "0xa94f5374fce5edbc8e2a8697c15331677e6ebf0b" : {
                "balance" : "0x09184e72a000",
                "code" : "",
                "nonce" : "0x00",
                "storage" : {
                }
            }
        },
        "sealEngine" : "Ethash"
    }
}