{
    "RawCallGasValueTransfer_d0g0v0_Istanbul" : {
        "_info" : {
            "comment" : "",
            "filling-rpc-server" : "Geth-1.9.6-unstable-63b18027-20190920",
            "filling-tool-version" : "retesteth-0.0.1+commit.0ae18aef.Linux.g++",
            "lllcversion" : "Version: 0.5.12-develop.2019.9.13+commit.2d601a4f.Linux.g++",
            "source" : "src/GeneralStateTestsFiller/stEIP150singleCodeGasPrices/RawCallGasValueTransferFiller.json",
            "sourceHash" : "c3daa7758bf3d28d6f2bf75c3b8818e450477becd28ea775a87dc7b7dbc61dfa"
        },
        "genesisBlockHeader" : {
            "bloom" : "0x00000000000000000000000000000000000000000000000000000000000000000000000000000000000000000000000000000000000000000000000000000000000000000000000000000000000000000000000000000000000000000000000000000000000000000000000000000000000000000000000000000000000000000000000000000000000000000000000000000000000000000000000000000000000000000000000000000000000000000000000000000000000000000000000000000000000000000000000000000000000000000000000000000000000000000000000000000000000000000000000000000000000000000000000000000000",
            "coinbase" : "0x2adc25665018aa1fe0e6bc666dac8fc2697ff9ba",
            "difficulty" : "0x20000",
            "extraData" : "0x00",
            "gasLimit" : "0x989680",
            "gasUsed" : "0x0",
            "hash" : "0x864a676ee84d075e69843eae090f9bc5de54da26b2857f0be38d8cf5e010b0f6",
            "mixHash" : "0x0000000000000000000000000000000000000000000000000000000000000000",
            "nonce" : "0x0000000000000000",
            "number" : "0x0",
            "parentHash" : "0x0000000000000000000000000000000000000000000000000000000000000000",
            "receiptTrie" : "0x56e81f171bcc55a6ff8345e692c0f86e5b48e01b996cadc001622fb5e363b421",
            "stateRoot" : "0xdf24dc34b0b47bde27ee94ff39b16d3594bcea469ee278c4f8f19a7c18d0c339",
            "timestamp" : "0x0",
            "transactionsTrie" : "0x56e81f171bcc55a6ff8345e692c0f86e5b48e01b996cadc001622fb5e363b421",
            "uncleHash" : "0x1dcc4de8dec75d7aab85b567b6ccd41ad312451b948a7413f0a142fd40d49347"
        },
        "pre" : {
            "0x094f5374fce5edbc8e2a8697c15331677e6ebf0b" : {
                "balance" : "0x00",
                "code" : "0x5a60025500",
                "nonce" : "0x00",
                "storage" : {
                }
            },
            "0xa94f5374fce5edbc8e2a8697c15331677e6ebf0b" : {
                "balance" : "0xe8d4a51000",
                "code" : "0x",
                "nonce" : "0x00",
                "storage" : {
                }
            },
            "0xb94f5374fce5edbc8e2a8697c15331677e6ebf0b" : {
                "balance" : "0x00",
                "code" : "0x5a6000556000600060006000600a73094f5374fce5edbc8e2a8697c15331677e6ebf0b617530f1505a60015500",
                "nonce" : "0x00",
                "storage" : {
                }
            }
        },
        "postState" : {
            "0xa94f5374fce5edbc8e2a8697c15331677e6ebf0b" : {
                "code" : "0x",
                "nonce" : "0x01",
                "balance" : "0xe8d4a3b680",
                "storage" : {
                }
            },
            "0x2adc25665018aa1fe0e6bc666dac8fc2697ff9ba" : {
                "code" : "0x",
                "nonce" : "0x00",
                "balance" : "0x1bc16d674ec95976",
                "storage" : {
                }
            },
            "0xb94f5374fce5edbc8e2a8697c15331677e6ebf0b" : {
                "code" : "0x5a6000556000600060006000600a73094f5374fce5edbc8e2a8697c15331677e6ebf0b617530f1505a60015500",
                "nonce" : "0x00",
                "balance" : "0x00",
                "storage" : {
                    "0x00" : "0x074f16",
                    "0x01" : "0x0695cd"
                }
            },
            "0x094f5374fce5edbc8e2a8697c15331677e6ebf0b" : {
                "code" : "0x5a60025500",
                "nonce" : "0x00",
                "balance" : "0x0a",
                "storage" : {
                    "0x02" : "0x7e2a"
                }
            }
        },
        "network" : "Istanbul",
        "sealEngine" : "NoProof",
        "lastblockhash" : "0x35648becf9d1d83995079255a38cf9fcb3dbe04b4bcc702b560be027e93d789e",
        "genesisRLP" : "0xf901f8f901f3a00000000000000000000000000000000000000000000000000000000000000000a01dcc4de8dec75d7aab85b567b6ccd41ad312451b948a7413f0a142fd40d49347942adc25665018aa1fe0e6bc666dac8fc2697ff9baa0df24dc34b0b47bde27ee94ff39b16d3594bcea469ee278c4f8f19a7c18d0c339a056e81f171bcc55a6ff8345e692c0f86e5b48e01b996cadc001622fb5e363b421a056e81f171bcc55a6ff8345e692c0f86e5b48e01b996cadc001622fb5e363b421b9010000000000000000000000000000000000000000000000000000000000000000000000000000000000000000000000000000000000000000000000000000000000000000000000000000000000000000000000000000000000000000000000000000000000000000000000000000000000000000000000000000000000000000000000000000000000000000000000000000000000000000000000000000000000000000000000000000000000000000000000000000000000000000000000000000000000000000000000000000000000000000000000000000000000000000000000000000000000000000000000000000000000000000000000000000000000830200008083989680808000a00000000000000000000000000000000000000000000000000000000000000000880000000000000000c0c0",
        "blocks" : [
            {
                "rlp" : "0xf90260f901f8a0864a676ee84d075e69843eae090f9bc5de54da26b2857f0be38d8cf5e010b0f6a01dcc4de8dec75d7aab85b567b6ccd41ad312451b948a7413f0a142fd40d49347942adc25665018aa1fe0e6bc666dac8fc2697ff9baa0248b5c02f846982141470a8214ddd12e7ca222f2ded8ac02a2d794a8f4878a1aa01384d4af33ac6b019131e808ca5f18a8845fa6b185c9939f71fe44c7fd34e468a084c3e8bbe2c4a65187ca201df5fafe44303d910bb0ebfa8a336c6c9f6e1681b7b901000000000000000000000000000000000000000000000000000000000000000000000000000000000000000000000000000000000000000000000000000000000000000000000000000000000000000000000000000000000000000000000000000000000000000000000000000000000000000000000000000000000000000000000000000000000000000000000000000000000000000000000000000000000000000000000000000000000000000000000000000000000000000000000000000000000000000000000000000000000000000000000000000000000000000000000000000000000000000000000000000000000000000000000000000000000083020000018398bca4830159768203e800a00000000000000000000000000000000000000000000000000000000000000000880000000000000000f862f86080018307a12094b94f5374fce5edbc8e2a8697c15331677e6ebf0b0a801ba0b1159810e8fb83901e6b2cfb738fcb6e551c98aa64736c6330fbc349de7cb81ea04a8eadc208134504d2abb1b5845f8b6bcafb3fd9cc53bd055f10c68a42ecd24bc0",
                "blockHeader" : {
                    "bloom" : "0x00000000000000000000000000000000000000000000000000000000000000000000000000000000000000000000000000000000000000000000000000000000000000000000000000000000000000000000000000000000000000000000000000000000000000000000000000000000000000000000000000000000000000000000000000000000000000000000000000000000000000000000000000000000000000000000000000000000000000000000000000000000000000000000000000000000000000000000000000000000000000000000000000000000000000000000000000000000000000000000000000000000000000000000000000000000",
                    "coinbase" : "0x2adc25665018aa1fe0e6bc666dac8fc2697ff9ba",
                    "difficulty" : "0x20000",
                    "extraData" : "0x00",
                    "gasLimit" : "0x98bca4",
                    "gasUsed" : "0x15976",
                    "hash" : "0x35648becf9d1d83995079255a38cf9fcb3dbe04b4bcc702b560be027e93d789e",
                    "mixHash" : "0x0000000000000000000000000000000000000000000000000000000000000000",
                    "nonce" : "0x0000000000000000",
                    "number" : "0x1",
                    "parentHash" : "0x864a676ee84d075e69843eae090f9bc5de54da26b2857f0be38d8cf5e010b0f6",
                    "receiptTrie" : "0x84c3e8bbe2c4a65187ca201df5fafe44303d910bb0ebfa8a336c6c9f6e1681b7",
                    "stateRoot" : "0x248b5c02f846982141470a8214ddd12e7ca222f2ded8ac02a2d794a8f4878a1a",
                    "timestamp" : "0x3e8",
                    "transactionsTrie" : "0x1384d4af33ac6b019131e808ca5f18a8845fa6b185c9939f71fe44c7fd34e468",
                    "uncleHash" : "0x1dcc4de8dec75d7aab85b567b6ccd41ad312451b948a7413f0a142fd40d49347"
                },
                "transactions" : [
                    {
                        "data" : "0x",
                        "gasLimit" : "0x07a120",
                        "gasPrice" : "0x01",
                        "nonce" : "0x00",
                        "to" : "0xb94f5374fce5edbc8e2a8697c15331677e6ebf0b",
                        "value" : "0x0a",
                        "v" : "0x1b",
                        "r" : "0xb1159810e8fb83901e6b2cfb738fcb6e551c98aa64736c6330fbc349de7cb81e",
                        "s" : "0x4a8eadc208134504d2abb1b5845f8b6bcafb3fd9cc53bd055f10c68a42ecd24b"
                    }
                ]
            }
        ]
    }
}