{
    "RawCreateFailGasValueTransfer_d0g0v0_Istanbul" : {
        "_info" : {
            "comment" : "",
            "filling-rpc-server" : "Geth-1.9.6-unstable-63b18027-20190920",
            "filling-tool-version" : "retesteth-0.0.1+commit.0ae18aef.Linux.g++",
            "lllcversion" : "Version: 0.5.12-develop.2019.9.13+commit.2d601a4f.Linux.g++",
            "source" : "src/GeneralStateTestsFiller/stEIP150singleCodeGasPrices/RawCreateFailGasValueTransferFiller.json",
            "sourceHash" : "b1313ed2b2df6c45723132530cf2655ed6ba426e2980f21b2f815870a09c9bbf"
        },
        "genesisBlockHeader" : {
            "bloom" : "0x00000000000000000000000000000000000000000000000000000000000000000000000000000000000000000000000000000000000000000000000000000000000000000000000000000000000000000000000000000000000000000000000000000000000000000000000000000000000000000000000000000000000000000000000000000000000000000000000000000000000000000000000000000000000000000000000000000000000000000000000000000000000000000000000000000000000000000000000000000000000000000000000000000000000000000000000000000000000000000000000000000000000000000000000000000000",
            "coinbase" : "0x2adc25665018aa1fe0e6bc666dac8fc2697ff9ba",
            "difficulty" : "0x20000",
            "extraData" : "0x00",
            "gasLimit" : "0x989680",
            "gasUsed" : "0x0",
            "hash" : "0xa96823aae3b919e41382e9f0683204a6d69f2afb59aa4f556dfcd810a858aaac",
            "mixHash" : "0x0000000000000000000000000000000000000000000000000000000000000000",
            "nonce" : "0x0000000000000000",
            "number" : "0x0",
            "parentHash" : "0x0000000000000000000000000000000000000000000000000000000000000000",
            "receiptTrie" : "0x56e81f171bcc55a6ff8345e692c0f86e5b48e01b996cadc001622fb5e363b421",
            "stateRoot" : "0x029c97fe7c985e7587c29610a6111b21c036fbc2f62502e91a278c72b77ee732",
            "timestamp" : "0x0",
            "transactionsTrie" : "0x56e81f171bcc55a6ff8345e692c0f86e5b48e01b996cadc001622fb5e363b421",
            "uncleHash" : "0x1dcc4de8dec75d7aab85b567b6ccd41ad312451b948a7413f0a142fd40d49347"
        },
        "pre" : {
            "0xa94f5374fce5edbc8e2a8697c15331677e6ebf0b" : {
                "balance" : "0xe8d4a51000",
                "code" : "0x",
                "nonce" : "0x00",
                "storage" : {
                }
            },
            "0xb94f5374fce5edbc8e2a8697c15331677e6ebf0b" : {
                "balance" : "0x00",
                "code" : "0x5a60005560006000600bf0505a60015500",
                "nonce" : "0x00",
                "storage" : {
                }
            }
        },
        "postState" : {
            "0xa94f5374fce5edbc8e2a8697c15331677e6ebf0b" : {
                "code" : "0x",
                "nonce" : "0x01",
                "balance" : "0xe8d4a3a499",
                "storage" : {
                }
            },
            "0x2adc25665018aa1fe0e6bc666dac8fc2697ff9ba" : {
                "code" : "0x",
                "nonce" : "0x00",
                "balance" : "0x1bc16d674ec96b5d",
                "storage" : {
                }
            },
            "0xb94f5374fce5edbc8e2a8697c15331677e6ebf0b" : {
                "code" : "0x5a60005560006000600bf0505a60015500",
                "nonce" : "0x00",
                "balance" : "0x0a",
                "storage" : {
                    "0x00" : "0x074f16",
                    "0x01" : "0x0683e6"
                }
            }
        },
        "network" : "Istanbul",
        "sealEngine" : "NoProof",
        "lastblockhash" : "0xc2d68be4f680f57c3800b591142b37c04dd0315bc27e67e0903e428868a65ce4",
        "genesisRLP" : "0xf901f8f901f3a00000000000000000000000000000000000000000000000000000000000000000a01dcc4de8dec75d7aab85b567b6ccd41ad312451b948a7413f0a142fd40d49347942adc25665018aa1fe0e6bc666dac8fc2697ff9baa0029c97fe7c985e7587c29610a6111b21c036fbc2f62502e91a278c72b77ee732a056e81f171bcc55a6ff8345e692c0f86e5b48e01b996cadc001622fb5e363b421a056e81f171bcc55a6ff8345e692c0f86e5b48e01b996cadc001622fb5e363b421b9010000000000000000000000000000000000000000000000000000000000000000000000000000000000000000000000000000000000000000000000000000000000000000000000000000000000000000000000000000000000000000000000000000000000000000000000000000000000000000000000000000000000000000000000000000000000000000000000000000000000000000000000000000000000000000000000000000000000000000000000000000000000000000000000000000000000000000000000000000000000000000000000000000000000000000000000000000000000000000000000000000000000000000000000000000000000830200008083989680808000a00000000000000000000000000000000000000000000000000000000000000000880000000000000000c0c0",
        "blocks" : [
            {
                "rlp" : "0xf90260f901f8a0a96823aae3b919e41382e9f0683204a6d69f2afb59aa4f556dfcd810a858aaaca01dcc4de8dec75d7aab85b567b6ccd41ad312451b948a7413f0a142fd40d49347942adc25665018aa1fe0e6bc666dac8fc2697ff9baa016e6510a22c417569987c735f9629641101fcb3c755ffae06194b35b02a8f6cfa01384d4af33ac6b019131e808ca5f18a8845fa6b185c9939f71fe44c7fd34e468a0a1f85aefb1a3dee8321a71dc1d674eec623ab583673e6d678f88af9ff98c8f2eb901000000000000000000000000000000000000000000000000000000000000000000000000000000000000000000000000000000000000000000000000000000000000000000000000000000000000000000000000000000000000000000000000000000000000000000000000000000000000000000000000000000000000000000000000000000000000000000000000000000000000000000000000000000000000000000000000000000000000000000000000000000000000000000000000000000000000000000000000000000000000000000000000000000000000000000000000000000000000000000000000000000000000000000000000000000000083020000018398bca483016b5d8203e800a00000000000000000000000000000000000000000000000000000000000000000880000000000000000f862f86080018307a12094b94f5374fce5edbc8e2a8697c15331677e6ebf0b0a801ba0b1159810e8fb83901e6b2cfb738fcb6e551c98aa64736c6330fbc349de7cb81ea04a8eadc208134504d2abb1b5845f8b6bcafb3fd9cc53bd055f10c68a42ecd24bc0",
                "blockHeader" : {
                    "bloom" : "0x00000000000000000000000000000000000000000000000000000000000000000000000000000000000000000000000000000000000000000000000000000000000000000000000000000000000000000000000000000000000000000000000000000000000000000000000000000000000000000000000000000000000000000000000000000000000000000000000000000000000000000000000000000000000000000000000000000000000000000000000000000000000000000000000000000000000000000000000000000000000000000000000000000000000000000000000000000000000000000000000000000000000000000000000000000000",
                    "coinbase" : "0x2adc25665018aa1fe0e6bc666dac8fc2697ff9ba",
                    "difficulty" : "0x20000",
                    "extraData" : "0x00",
                    "gasLimit" : "0x98bca4",
                    "gasUsed" : "0x16b5d",
                    "hash" : "0xc2d68be4f680f57c3800b591142b37c04dd0315bc27e67e0903e428868a65ce4",
                    "mixHash" : "0x0000000000000000000000000000000000000000000000000000000000000000",
                    "nonce" : "0x0000000000000000",
                    "number" : "0x1",
                    "parentHash" : "0xa96823aae3b919e41382e9f0683204a6d69f2afb59aa4f556dfcd810a858aaac",
                    "receiptTrie" : "0xa1f85aefb1a3dee8321a71dc1d674eec623ab583673e6d678f88af9ff98c8f2e",
                    "stateRoot" : "0x16e6510a22c417569987c735f9629641101fcb3c755ffae06194b35b02a8f6cf",
                    "timestamp" : "0x3e8",
                    "transactionsTrie" : "0x1384d4af33ac6b019131e808ca5f18a8845fa6b185c9939f71fe44c7fd34e468",
                    "uncleHash" : "0x1dcc4de8dec75d7aab85b567b6ccd41ad312451b948a7413f0a142fd40d49347"
                },
                "transactions" : [
                    {
                        "data" : "0x",
                        "gasLimit" : "0x07a120",
                        "gasPrice" : "0x01",
                        "nonce" : "0x00",
                        "to" : "0xb94f5374fce5edbc8e2a8697c15331677e6ebf0b",
                        "value" : "0x0a",
                        "v" : "0x1b",
                        "r" : "0xb1159810e8fb83901e6b2cfb738fcb6e551c98aa64736c6330fbc349de7cb81e",
                        "s" : "0x4a8eadc208134504d2abb1b5845f8b6bcafb3fd9cc53bd055f10c68a42ecd24b"
                    }
                ]
            }
        ]
    }
}