{
    "GasUsedHigherThanBlockGasLimitButNotWithRefundsSuicideLast_Istanbul" : {
        "_info" : {
            "comment" : "7 transactions require 148000 gas. but block have 147999, but last transaction do refund suicide with gas payback",
            "filling-rpc-server" : "Geth-1.9.11-unstable-a382d783-20200127",
            "filling-tool-version" : "retesteth-0.0.2+commit.e8723140.Linux.g++",
            "lllcversion" : "Version: 0.5.14-develop.2019.11.27+commit.8f259595.Linux.g++",
            "source" : "src/BlockchainTestsFiller/InvalidBlocks/bcBlockGasLimitTest/GasUsedHigherThanBlockGasLimitButNotWithRefundsSuicideLastFiller.json",
            "sourceHash" : "108ce94a9085e907f5bddabd178c625889427afb7ba93bf4ae051aec8597ea85"
        },
        "sealEngine" : "NoProof",
        "network" : "Istanbul",
        "pre" : {
            "0xa94f5374fce5edbc8e2a8697c15331677e6ebf0b" : {
                "balance" : "0x4a723dc6b40b8a9a000000",
                "code" : "0x",
                "nonce" : "0x00",
                "storage" : {
                }
            },
            "0xaaaf5374fce5edbc8e2a8697c15331677e6ebf0b" : {
                "balance" : "0x02540be400",
                "code" : "0x73a94f5374fce5edbc8e2a8697c15331677e6ebf0bff",
                "nonce" : "0x00",
                "storage" : {
                }
            }
        },
        "genesisBlockHeader" : {
            "bloom" : "0x00000000000000000000000000000000000000000000000000000000000000000000000000000000000000000000000000000000000000000000000000000000000000000000000000000000000000000000000000000000000000000000000000000000000000000000000000000000000000000000000000000000000000000000000000000000000000000000000000000000000000000000000000000000000000000000000000000000000000000000000000000000000000000000000000000000000000000000000000000000000000000000000000000000000000000000000000000000000000000000000000000000000000000000000000000000",
            "coinbase" : "0x8888f1f195afa192cfee860698584c030f4c9db1",
            "difficulty" : "0x020000",
            "extraData" : "0x42",
            "gasLimit" : "0x024220",
            "gasUsed" : "0x00",
            "hash" : "0x418edd4a1d61173fe9eddd71b6f566c7a1741d6d921ccfe95092d4e381b4bdc6",
            "mixHash" : "0x0000000000000000000000000000000000000000000000000000000000000000",
            "nonce" : "0x0000000000000000",
            "number" : "0x00",
            "parentHash" : "0x0000000000000000000000000000000000000000000000000000000000000000",
            "receiptTrie" : "0x56e81f171bcc55a6ff8345e692c0f86e5b48e01b996cadc001622fb5e363b421",
            "stateRoot" : "0xaf81e09f8c46ca322193edfda764fa7e88e81923f802f1d325ec0b0308ac2cd0",
            "timestamp" : "0x54c98c81",
            "transactionsTrie" : "0x56e81f171bcc55a6ff8345e692c0f86e5b48e01b996cadc001622fb5e363b421",
            "uncleHash" : "0x1dcc4de8dec75d7aab85b567b6ccd41ad312451b948a7413f0a142fd40d49347"
        },
        "genesisRLP" : "0xf901fcf901f7a00000000000000000000000000000000000000000000000000000000000000000a01dcc4de8dec75d7aab85b567b6ccd41ad312451b948a7413f0a142fd40d49347948888f1f195afa192cfee860698584c030f4c9db1a0af81e09f8c46ca322193edfda764fa7e88e81923f802f1d325ec0b0308ac2cd0a056e81f171bcc55a6ff8345e692c0f86e5b48e01b996cadc001622fb5e363b421a056e81f171bcc55a6ff8345e692c0f86e5b48e01b996cadc001622fb5e363b421b9010000000000000000000000000000000000000000000000000000000000000000000000000000000000000000000000000000000000000000000000000000000000000000000000000000000000000000000000000000000000000000000000000000000000000000000000000000000000000000000000000000000000000000000000000000000000000000000000000000000000000000000000000000000000000000000000000000000000000000000000000000000000000000000000000000000000000000000000000000000000000000000000000000000000000000000000000000000000000000000000000000000000000000000000000000000000830200008083024220808454c98c8142a00000000000000000000000000000000000000000000000000000000000000000880000000000000000c0c0",
        "blocks" : [
            {
                "chainname" : "default",
                "blocknumber" : "1",
                "expectException" : "TooMuchGasUsed",
                "rlp" : "0xf904a8f901faa0418edd4a1d61173fe9eddd71b6f566c7a1741d6d921ccfe95092d4e381b4bdc6a01dcc4de8dec75d7aab85b567b6ccd41ad312451b948a7413f0a142fd40d49347948888f1f195afa192cfee860698584c030f4c9db1a0ec8379fc6400b3239efb8625e2fe9f927977eacfe082acba1919b4e4516c94eaa039b55901ee38a65fa27c7d60137fd431afcf6a7615746ae9501e7cf0ca68bd11a0dcc94785d0897bff881411737e4ed6a48c27d045d9cc42043e35a52f992bca4eb901000000000000000000000000000000000000000000000000000000000000000000000000000000000000000000000000000000000000000000000000000000000000000000000000000000000000000000000000000000000000000000000000000000000000000000000000000000000000000000000000000000000000000000000000000000000000000000000000000000000000000000000000000000000000000000000000000000000000000000000000000000000000000000000000000000000000000000000000000000000000000000000000000000000000000000000000000000000000000000000000000000000000000000000000000000000083020000018302421f830242208454c9906942a00000000000000000000000000000000000000000000000000000000000000000880000000000000000f902a7f85f800a82520894bbbf5374fce5edbc8e2a8697c15331677e6ebf0b0a801ba01117bd549fe17f8383012bf168dabd9e70851fdf2f332e5bfea89318dddd6c77a001364d3a0e23f462052127c53a5473c428e2211806c927601562f840eb6b899cf85f010a82520894bbbf5374fce5edbc8e2a8697c15331677e6ebf0b0a801ba04fa966bf34b93abc1bcd665554b7f316b50f928477b50be0f3285ead29d18c5ba017bba0eeec1625ab433746955e125d46d80b7fdc97386c51266f842d8e02192ef85f020a82520894bbbf5374fce5edbc8e2a8697c15331677e6ebf0b0a801ca004377418ae981cc32b1312b4a427a1d69a821b28db8584f5f2bd8c6d42458adaa053a1dba1af177fac92f3b6af0a9fa46a22adf56e686c93794b6a012bf254abf5f85f030a82520894bbbf5374fce5edbc8e2a8697c15331677e6ebf0b0a801ca04fe13febd28a05f4fcb2f451d7ddc2dda56486d9f8c79a62b0ba4da775122615a0651b2382dd402df9ebc27f8cb4b2e0f3cea68dda2dca0ee9603608f0b6f51668f85f040a82520894bbbf5374fce5edbc8e2a8697c15331677e6ebf0b0a801ba078e6a0ba086a08f8450e208a399bb2f2d2a0d984acd2517c7c7df66ccfab567da013254002cd45a97fac049ae00afbc43ed0d9961d0c56a3b2382c80ce41c198ddf85f050a82520894bbbf5374fce5edbc8e2a8697c15331677e6ebf0b0a801ba0a7174d8f43ea71c8e3ca9477691add8d80ac8e0ed89d8d8b572041eef81f4a54a0534ea2e28ec4da3b5b944b18c51ec84a5cf35f5b3343c5fb86521fd2d388f506f85f060a8255f094aaaf5374fce5edbc8e2a8697c15331677e6ebf0b0a801ca0c40c1300a7cc64b842c9421a6c6e985b5531020d1a26c82f9c6a5200154e91dfa052c28fc6dc0dad9ea23fcce6510a9dc23b9903b1b19a126ac25f77a195b50f83c0"
            }
        ],
        "postState" : {
            "0xa94f5374fce5edbc8e2a8697c15331677e6ebf0b" : {
                "code" : "0x",
                "nonce" : "0x00",
                "balance" : "0x4a723dc6b40b8a9a000000",
                "storage" : {
                }
            },
            "0xaaaf5374fce5edbc8e2a8697c15331677e6ebf0b" : {
                "code" : "0x73a94f5374fce5edbc8e2a8697c15331677e6ebf0bff",
                "nonce" : "0x00",
                "balance" : "0x02540be400",
                "storage" : {
                }
            }
        },
        "lastblockhash" : "0x418edd4a1d61173fe9eddd71b6f566c7a1741d6d921ccfe95092d4e381b4bdc6"
    }
}