{
    "Call1024BalanceTooLow_d0g0v0_Istanbul" : {
        "_info" : {
            "comment" : "",
            "filling-rpc-server" : "Geth-1.9.6-unstable-63b18027-20190920",
            "filling-tool-version" : "retesteth-0.0.1+commit.0ae18aef.Linux.g++",
            "lllcversion" : "Version: 0.5.12-develop.2019.9.13+commit.2d601a4f.Linux.g++",
            "source" : "src/GeneralStateTestsFiller/stChangedEIP150/Call1024BalanceTooLowFiller.json",
            "sourceHash" : "ce6c04ad2e91fbcc17e8ea1d99396c6f847d4e2bd9f694c9d64a130aaa854ce2"
        },
        "genesisBlockHeader" : {
            "bloom" : "0x00000000000000000000000000000000000000000000000000000000000000000000000000000000000000000000000000000000000000000000000000000000000000000000000000000000000000000000000000000000000000000000000000000000000000000000000000000000000000000000000000000000000000000000000000000000000000000000000000000000000000000000000000000000000000000000000000000000000000000000000000000000000000000000000000000000000000000000000000000000000000000000000000000000000000000000000000000000000000000000000000000000000000000000000000000000",
            "coinbase" : "0x2adc25665018aa1fe0e6bc666dac8fc2697ff9ba",
            "difficulty" : "0x20000",
            "extraData" : "0x00",
            "gasLimit" : "0x7fffffffffffffff",
            "gasUsed" : "0x0",
            "hash" : "0x4701cb53feff113f8dbbfd096ab2fd7fc97c5da80b5b8029bcab20ed98a339ff",
            "mixHash" : "0x0000000000000000000000000000000000000000000000000000000000000000",
            "nonce" : "0x0000000000000000",
            "number" : "0x0",
            "parentHash" : "0x0000000000000000000000000000000000000000000000000000000000000000",
            "receiptTrie" : "0x56e81f171bcc55a6ff8345e692c0f86e5b48e01b996cadc001622fb5e363b421",
            "stateRoot" : "0x5453f7b5e4ae3c37b3a01c3a6b29c4237b0a0b20cc6580bf497daa5445dea262",
            "timestamp" : "0x0",
            "transactionsTrie" : "0x56e81f171bcc55a6ff8345e692c0f86e5b48e01b996cadc001622fb5e363b421",
            "uncleHash" : "0x1dcc4de8dec75d7aab85b567b6ccd41ad312451b948a7413f0a142fd40d49347"
        },
        "pre" : {
            "0xa94f5374fce5edbc8e2a8697c15331677e6ebf0b" : {
                "balance" : "0xffffffffffffffffffffffffffffffff",
                "code" : "0x",
                "nonce" : "0x00",
                "storage" : {
                }
            },
            "0xaaaf5374fce5edbc8e2a8697c15331677e6ebf0b" : {
                "balance" : "0x1b58",
                "code" : "0x",
                "nonce" : "0x00",
                "storage" : {
                }
            },
            "0xbbbf5374fce5edbc8e2a8697c15331677e6ebf0b" : {
                "balance" : "0x0400",
                "code" : "0x600160005401600055600060006000600060005473bbbf5374fce5edbc8e2a8697c15331677e6ebf0b650ffffffffffff160015500",
                "nonce" : "0x00",
                "storage" : {
                }
            }
        },
        "postState" : {
            "0xa94f5374fce5edbc8e2a8697c15331677e6ebf0b" : {
                "code" : "0x",
                "nonce" : "0x01",
                "balance" : "0xffffffffffffffffffffffffff58be61",
                "storage" : {
                }
            },
            "0xbbbf5374fce5edbc8e2a8697c15331677e6ebf0b" : {
                "code" : "0x600160005401600055600060006000600060005473bbbf5374fce5edbc8e2a8697c15331677e6ebf0b650ffffffffffff160015500",
                "nonce" : "0x00",
                "balance" : "0x040a",
                "storage" : {
                    "0x00" : "0x0401",
                    "0x01" : "0x01"
                }
            },
            "0x2adc25665018aa1fe0e6bc666dac8fc2697ff9ba" : {
                "code" : "0x",
                "nonce" : "0x00",
                "balance" : "0x1bc16d674f6f4194",
                "storage" : {
                }
            },
            "0xaaaf5374fce5edbc8e2a8697c15331677e6ebf0b" : {
                "code" : "0x",
                "nonce" : "0x00",
                "balance" : "0x1b58",
                "storage" : {
                }
            }
        },
        "network" : "Istanbul",
        "sealEngine" : "NoProof",
        "lastblockhash" : "0x88657e0496d81c12d1ff6f6d36efbb46d6173c27930f46062ef9886d17371d25",
        "genesisRLP" : "0xf901fdf901f8a00000000000000000000000000000000000000000000000000000000000000000a01dcc4de8dec75d7aab85b567b6ccd41ad312451b948a7413f0a142fd40d49347942adc25665018aa1fe0e6bc666dac8fc2697ff9baa05453f7b5e4ae3c37b3a01c3a6b29c4237b0a0b20cc6580bf497daa5445dea262a056e81f171bcc55a6ff8345e692c0f86e5b48e01b996cadc001622fb5e363b421a056e81f171bcc55a6ff8345e692c0f86e5b48e01b996cadc001622fb5e363b421b90100000000000000000000000000000000000000000000000000000000000000000000000000000000000000000000000000000000000000000000000000000000000000000000000000000000000000000000000000000000000000000000000000000000000000000000000000000000000000000000000000000000000000000000000000000000000000000000000000000000000000000000000000000000000000000000000000000000000000000000000000000000000000000000000000000000000000000000000000000000000000000000000000000000000000000000000000000000000000000000000000000000000000000000000000000000008302000080887fffffffffffffff808000a00000000000000000000000000000000000000000000000000000000000000000880000000000000000c0c0",
        "blocks" : [
            {
                "rlp" : "0xf90268f901fda04701cb53feff113f8dbbfd096ab2fd7fc97c5da80b5b8029bcab20ed98a339ffa01dcc4de8dec75d7aab85b567b6ccd41ad312451b948a7413f0a142fd40d49347942adc25665018aa1fe0e6bc666dac8fc2697ff9baa002bd46d0f197d5848bbf13f702d4e116578e2c72d188e05194b52ebfea4013faa025f7bdaeea15f5a5ea594146436c514dcfa010d8d1437497e1d85dd128420484a060ba3f8c157d07a8032512838fda16283ca2a0d5febb71304ef604a526c39265b90100000000000000000000000000000000000000000000000000000000000000000000000000000000000000000000000000000000000000000000000000000000000000000000000000000000000000000000000000000000000000000000000000000000000000000000000000000000000000000000000000000000000000000000000000000000000000000000000000000000000000000000000000000000000000000000000000000000000000000000000000000000000000000000000000000000000000000000000000000000000000000000000000000000000000000000000000000000000000000000000000000000000000000000000000000000008302000001887fffffffffffffff83a741948203e800a00000000000000000000000000000000000000000000000000000000000000000880000000000000000f865f86380018610000000d78894bbbf5374fce5edbc8e2a8697c15331677e6ebf0b0a801ca05e2c7af3b9d4bf9a2d424b3f15612c33c55511e57e214ca07e57a7b68e708cb5a0494317f2e30c61735eb351cd078ac0c503abbd1ee544a07ccedabad4d722a57ac0",
                "blockHeader" : {
                    "bloom" : "0x00000000000000000000000000000000000000000000000000000000000000000000000000000000000000000000000000000000000000000000000000000000000000000000000000000000000000000000000000000000000000000000000000000000000000000000000000000000000000000000000000000000000000000000000000000000000000000000000000000000000000000000000000000000000000000000000000000000000000000000000000000000000000000000000000000000000000000000000000000000000000000000000000000000000000000000000000000000000000000000000000000000000000000000000000000000",
                    "coinbase" : "0x2adc25665018aa1fe0e6bc666dac8fc2697ff9ba",
                    "difficulty" : "0x20000",
                    "extraData" : "0x00",
                    "gasLimit" : "0x7fffffffffffffff",
                    "gasUsed" : "0xa74194",
                    "hash" : "0x88657e0496d81c12d1ff6f6d36efbb46d6173c27930f46062ef9886d17371d25",
                    "mixHash" : "0x0000000000000000000000000000000000000000000000000000000000000000",
                    "nonce" : "0x0000000000000000",
                    "number" : "0x1",
                    "parentHash" : "0x4701cb53feff113f8dbbfd096ab2fd7fc97c5da80b5b8029bcab20ed98a339ff",
                    "receiptTrie" : "0x60ba3f8c157d07a8032512838fda16283ca2a0d5febb71304ef604a526c39265",
                    "stateRoot" : "0x02bd46d0f197d5848bbf13f702d4e116578e2c72d188e05194b52ebfea4013fa",
                    "timestamp" : "0x3e8",
                    "transactionsTrie" : "0x25f7bdaeea15f5a5ea594146436c514dcfa010d8d1437497e1d85dd128420484",
                    "uncleHash" : "0x1dcc4de8dec75d7aab85b567b6ccd41ad312451b948a7413f0a142fd40d49347"
                },
                "transactions" : [
                    {
                        "data" : "0x",
                        "gasLimit" : "0x10000000d788",
                        "gasPrice" : "0x01",
                        "nonce" : "0x00",
                        "to" : "0xbbbf5374fce5edbc8e2a8697c15331677e6ebf0b",
                        "value" : "0x0a",
                        "v" : "0x1c",
                        "r" : "0x5e2c7af3b9d4bf9a2d424b3f15612c33c55511e57e214ca07e57a7b68e708cb5",
                        "s" : "0x494317f2e30c61735eb351cd078ac0c503abbd1ee544a07ccedabad4d722a57a"
                    }
                ]
            }
        ]
    }
}