{
    "callcall_00_OOGE_1_d0g0v0_Istanbul" : {
        "_info" : {
            "comment" : "",
            "filling-rpc-server" : "Geth-1.9.6-unstable-63b18027-20190920",
            "filling-tool-version" : "retesteth-0.0.1+commit.0ae18aef.Linux.g++",
            "lllcversion" : "Version: 0.5.12-develop.2019.9.13+commit.2d601a4f.Linux.g++",
            "source" : "src/GeneralStateTestsFiller/stChangedEIP150/callcall_00_OOGE_1Filler.json",
            "sourceHash" : "4b84da6b4cff58823390d2789605a58f8441d24fb6d6a20aec3a81e7973ff14c"
        },
        "genesisBlockHeader" : {
            "bloom" : "0x00000000000000000000000000000000000000000000000000000000000000000000000000000000000000000000000000000000000000000000000000000000000000000000000000000000000000000000000000000000000000000000000000000000000000000000000000000000000000000000000000000000000000000000000000000000000000000000000000000000000000000000000000000000000000000000000000000000000000000000000000000000000000000000000000000000000000000000000000000000000000000000000000000000000000000000000000000000000000000000000000000000000000000000000000000000",
            "coinbase" : "0x2adc25665018aa1fe0e6bc666dac8fc2697ff9ba",
            "difficulty" : "0x20000",
            "extraData" : "0x00",
            "gasLimit" : "0x1c9c380",
            "gasUsed" : "0x0",
            "hash" : "0x8018be61d60accb2375a13bd67110bc5a4054d21287e94773d324d3f2b1545c1",
            "mixHash" : "0x0000000000000000000000000000000000000000000000000000000000000000",
            "nonce" : "0x0000000000000000",
            "number" : "0x0",
            "parentHash" : "0x0000000000000000000000000000000000000000000000000000000000000000",
            "receiptTrie" : "0x56e81f171bcc55a6ff8345e692c0f86e5b48e01b996cadc001622fb5e363b421",
            "stateRoot" : "0x31f5e83f4ffd32ebff7da68a551d9169c789e56c1ccba1be4e142fdf8dcda45c",
            "timestamp" : "0x0",
            "transactionsTrie" : "0x56e81f171bcc55a6ff8345e692c0f86e5b48e01b996cadc001622fb5e363b421",
            "uncleHash" : "0x1dcc4de8dec75d7aab85b567b6ccd41ad312451b948a7413f0a142fd40d49347"
        },
        "pre" : {
            "0x1000000000000000000000000000000000000000" : {
                "balance" : "0x0de0b6b3a7640000",
                "code" : "0x60406000604060006001731000000000000000000000000000000000000001620249f0f160005500",
                "nonce" : "0x00",
                "storage" : {
                }
            },
            "0x1000000000000000000000000000000000000001" : {
                "balance" : "0x0de0b6b3a7640000",
                "code" : "0x60406000604060006002731000000000000000000000000000000000000002620186a0f160015500",
                "nonce" : "0x00",
                "storage" : {
                }
            },
            "0x1000000000000000000000000000000000000002" : {
                "balance" : "0x00",
                "code" : "0x60016002553460055500",
                "nonce" : "0x00",
                "storage" : {
                }
            },
            "0xa94f5374fce5edbc8e2a8697c15331677e6ebf0b" : {
                "balance" : "0x0de0b6b3a7640000",
                "code" : "0x",
                "nonce" : "0x00",
                "storage" : {
                }
            }
        },
        "postState" : {
            "0xa94f5374fce5edbc8e2a8697c15331677e6ebf0b" : {
                "code" : "0x",
                "nonce" : "0x01",
                "balance" : "0x0de0b6b3a7623b61",
                "storage" : {
                }
            },
            "0x1000000000000000000000000000000000000001" : {
                "code" : "0x60406000604060006002731000000000000000000000000000000000000002620186a0f160015500",
                "nonce" : "0x00",
                "balance" : "0x0de0b6b3a763ffff",
                "storage" : {
                    "0x01" : "0x01"
                }
            },
            "0x2adc25665018aa1fe0e6bc666dac8fc2697ff9ba" : {
                "code" : "0x",
                "nonce" : "0x00",
                "balance" : "0x1bc16d674ec9c49f",
                "storage" : {
                }
            },
            "0x1000000000000000000000000000000000000002" : {
                "code" : "0x60016002553460055500",
                "nonce" : "0x00",
                "balance" : "0x02",
                "storage" : {
                    "0x05" : "0x02",
                    "0x02" : "0x01"
                }
            },
            "0x1000000000000000000000000000000000000000" : {
                "code" : "0x60406000604060006001731000000000000000000000000000000000000001620249f0f160005500",
                "nonce" : "0x00",
                "balance" : "0x0de0b6b3a763ffff",
                "storage" : {
                    "0x00" : "0x01"
                }
            }
        },
        "network" : "Istanbul",
        "sealEngine" : "NoProof",
        "lastblockhash" : "0x34dedc536cc4f398c7d9a5a6b8479e830f972b7beed7b8e21a851d44cd1a90ec",
        "genesisRLP" : "0xf901f9f901f4a00000000000000000000000000000000000000000000000000000000000000000a01dcc4de8dec75d7aab85b567b6ccd41ad312451b948a7413f0a142fd40d49347942adc25665018aa1fe0e6bc666dac8fc2697ff9baa031f5e83f4ffd32ebff7da68a551d9169c789e56c1ccba1be4e142fdf8dcda45ca056e81f171bcc55a6ff8345e692c0f86e5b48e01b996cadc001622fb5e363b421a056e81f171bcc55a6ff8345e692c0f86e5b48e01b996cadc001622fb5e363b421b901000000000000000000000000000000000000000000000000000000000000000000000000000000000000000000000000000000000000000000000000000000000000000000000000000000000000000000000000000000000000000000000000000000000000000000000000000000000000000000000000000000000000000000000000000000000000000000000000000000000000000000000000000000000000000000000000000000000000000000000000000000000000000000000000000000000000000000000000000000000000000000000000000000000000000000000000000000000000000000000000000000000000000000000000000000000083020000808401c9c380808000a00000000000000000000000000000000000000000000000000000000000000000880000000000000000c0c0",
        "blocks" : [
            {
                "rlp" : "0xf90261f901f9a08018be61d60accb2375a13bd67110bc5a4054d21287e94773d324d3f2b1545c1a01dcc4de8dec75d7aab85b567b6ccd41ad312451b948a7413f0a142fd40d49347942adc25665018aa1fe0e6bc666dac8fc2697ff9baa06ba59d0b6a277b1878a4b7987f652b5df335941f70827280f4dce49dc52308dba031ebf0c647947ef6259774d4201abfaf7c7473fbb365f6925d3c6c038fdea0e0a0af0bacc9c88f7f366e10dc24b62a5e4188212ac033c9dfba47c66dd08aad3dccb901000000000000000000000000000000000000000000000000000000000000000000000000000000000000000000000000000000000000000000000000000000000000000000000000000000000000000000000000000000000000000000000000000000000000000000000000000000000000000000000000000000000000000000000000000000000000000000000000000000000000000000000000000000000000000000000000000000000000000000000000000000000000000000000000000000000000000000000000000000000000000000000000000000000000000000000000000000000000000000000000000000000000000000000000000000000083020000018401ca35ef8301c49f8203e800a00000000000000000000000000000000000000000000000000000000000000000880000000000000000f862f86080018302bf6294100000000000000000000000000000000000000080801ba0f2904491d7d84ada0d1d94ee35aac71a0cb52ea2f8c16545f7493c14737ba15ca002f2ee18f95a17f1ba5ed106d78ae430d1fc3c5f88eb86cfbce90c9bc09b20c4c0",
                "blockHeader" : {
                    "bloom" : "0x00000000000000000000000000000000000000000000000000000000000000000000000000000000000000000000000000000000000000000000000000000000000000000000000000000000000000000000000000000000000000000000000000000000000000000000000000000000000000000000000000000000000000000000000000000000000000000000000000000000000000000000000000000000000000000000000000000000000000000000000000000000000000000000000000000000000000000000000000000000000000000000000000000000000000000000000000000000000000000000000000000000000000000000000000000000",
                    "coinbase" : "0x2adc25665018aa1fe0e6bc666dac8fc2697ff9ba",
                    "difficulty" : "0x20000",
                    "extraData" : "0x00",
                    "gasLimit" : "0x1ca35ef",
                    "gasUsed" : "0x1c49f",
                    "hash" : "0x34dedc536cc4f398c7d9a5a6b8479e830f972b7beed7b8e21a851d44cd1a90ec",
                    "mixHash" : "0x0000000000000000000000000000000000000000000000000000000000000000",
                    "nonce" : "0x0000000000000000",
                    "number" : "0x1",
                    "parentHash" : "0x8018be61d60accb2375a13bd67110bc5a4054d21287e94773d324d3f2b1545c1",
                    "receiptTrie" : "0xaf0bacc9c88f7f366e10dc24b62a5e4188212ac033c9dfba47c66dd08aad3dcc",
                    "stateRoot" : "0x6ba59d0b6a277b1878a4b7987f652b5df335941f70827280f4dce49dc52308db",
                    "timestamp" : "0x3e8",
                    "transactionsTrie" : "0x31ebf0c647947ef6259774d4201abfaf7c7473fbb365f6925d3c6c038fdea0e0",
                    "uncleHash" : "0x1dcc4de8dec75d7aab85b567b6ccd41ad312451b948a7413f0a142fd40d49347"
                },
                "transactions" : [
                    {
                        "data" : "0x",
                        "gasLimit" : "0x02bf62",
                        "gasPrice" : "0x01",
                        "nonce" : "0x00",
                        "to" : "0x1000000000000000000000000000000000000000",
                        "value" : "0x00",
                        "v" : "0x1b",
                        "r" : "0xf2904491d7d84ada0d1d94ee35aac71a0cb52ea2f8c16545f7493c14737ba15c",
                        "s" : "0x02f2ee18f95a17f1ba5ed106d78ae430d1fc3c5f88eb86cfbce90c9bc09b20c4"
                    }
                ]
            }
        ]
    }
}