{
    "randomStatetest224BC_Istanbul" : {
        "_info" : {
            "comment" : "",
            "filling-rpc-server" : "Geth-1.9.11-unstable-a382d783-20200127",
            "filling-tool-version" : "retesteth-0.0.2+commit.e8723140.Linux.g++",
            "lllcversion" : "Version: 0.5.14-develop.2019.11.27+commit.8f259595.Linux.g++",
            "source" : "src/BlockchainTestsFiller/ValidBlocks/bcRandomBlockhashTest/randomStatetest224BCFiller.json",
            "sourceHash" : "c1d4c6947ed9a77819f7de1186b0e233ff318c79f7ac8bfa7d8e280daffc3386"
        },
        "sealEngine" : "NoProof",
        "network" : "Istanbul",
        "pre" : {
            "0x095e7baea6a6c7c4c2dfeb977efac326af552d87" : {
                "balance" : "0x00",
                "code" : "0x7f00000000000000000000000000000000000000000000000000000000000000017f0000000000000000000000010000000000000000000000000000000000000000407f000000000000000000000000000000000000000000000000000000000000c3507fffffffffffffffffffffffffffffffffffffffffffffffffffffffffffffffff7ffffffffffffffffffffffffffffffffffffffffffffffffffffffffffffffffe7f00000000000000000000000000000000000000000000000000000000000000007f00000000000000000000000100000000000000000000000000000000000000001a6202a31690a3a06f6e9307039b",
                "nonce" : "0x00",
                "storage" : {
                }
            },
            "0x945304eb96065b2a98b57a48a06ae28d285a71b5" : {
                "balance" : "0x2e",
                "code" : "0x6000355415600957005b60203560003555",
                "nonce" : "0x00",
                "storage" : {
                }
            },
            "0xa94f5374fce5edbc8e2a8697c15331677e6ebf0b" : {
                "balance" : "0x0de0b6b3a7640000",
                "code" : "0x",
                "nonce" : "0x00",
                "storage" : {
                }
            }
        },
        "genesisBlockHeader" : {
            "bloom" : "0x00000000000000000000000000000000000000000000000000000000000000000000000000000000000000000000000000000000000000000000000000000000000000000000000000000000000000000000000000000000000000000000000000000000000000000000000000000000000000000000000000000000000000000000000000000000000000000000000000000000000000000000000000000000000000000000000000000000000000000000000000000000000000000000000000000000000000000000000000000000000000000000000000000000000000000000000000000000000000000000000000000000000000000000000000000000",
            "coinbase" : "0x945304eb96065b2a98b57a48a06ae28d285a71b5",
            "difficulty" : "0x020000",
            "extraData" : "0x42",
            "gasLimit" : "0x7fffffffffffffff",
            "gasUsed" : "0x00",
            "hash" : "0x1d4e9108f7bf5eb7a7cc7dad1586575d79cf8cade7d3c96ebaf99dd14ff2963b",
            "mixHash" : "0x0000000000000000000000000000000000000000000000000000000000000000",
            "nonce" : "0x0000000000000000",
            "number" : "0x00",
            "parentHash" : "0x0000000000000000000000000000000000000000000000000000000000000000",
            "receiptTrie" : "0x56e81f171bcc55a6ff8345e692c0f86e5b48e01b996cadc001622fb5e363b421",
            "stateRoot" : "0x747794de75eabf377e22fbeb2b4823ed1a97e86e0e0a9c649a4cee1819ee8a90",
            "timestamp" : "0x03b6",
            "transactionsTrie" : "0x56e81f171bcc55a6ff8345e692c0f86e5b48e01b996cadc001622fb5e363b421",
            "uncleHash" : "0x1dcc4de8dec75d7aab85b567b6ccd41ad312451b948a7413f0a142fd40d49347"
        },
        "genesisRLP" : "0xf901fff901faa00000000000000000000000000000000000000000000000000000000000000000a01dcc4de8dec75d7aab85b567b6ccd41ad312451b948a7413f0a142fd40d4934794945304eb96065b2a98b57a48a06ae28d285a71b5a0747794de75eabf377e22fbeb2b4823ed1a97e86e0e0a9c649a4cee1819ee8a90a056e81f171bcc55a6ff8345e692c0f86e5b48e01b996cadc001622fb5e363b421a056e81f171bcc55a6ff8345e692c0f86e5b48e01b996cadc001622fb5e363b421b90100000000000000000000000000000000000000000000000000000000000000000000000000000000000000000000000000000000000000000000000000000000000000000000000000000000000000000000000000000000000000000000000000000000000000000000000000000000000000000000000000000000000000000000000000000000000000000000000000000000000000000000000000000000000000000000000000000000000000000000000000000000000000000000000000000000000000000000000000000000000000000000000000000000000000000000000000000000000000000000000000000000000000000000000000000000008302000080887fffffffffffffff808203b642a00000000000000000000000000000000000000000000000000000000000000000880000000000000000c0c0",
        "blocks" : [
            {
                "chainname" : "default",
                "blocknumber" : "1",
                "uncleHeaders" : [
                ],
                "blockHeader" : {
                    "bloom" : "0x00000000000000001000000000000000000000000000000000000000000000000000000000000000000000000000000000000010000000000000000000000000000000000000000000000000000000000000000000000000800000000000000000000000000000000000000004000000000000000000000000000000000000200000000000000000000000000000000000000000000000000000000000000000000000000000000004000000000000000008000010000000000000000000000000000000000000200000000000000000000000000040000000000000000000000000000040000000000000000000000000000010000000000000000000000000",
                    "coinbase" : "0x945304eb96065b2a98b57a48a06ae28d285a71b5",
                    "difficulty" : "0x020000",
                    "extraData" : "0x42",
                    "gasLimit" : "0x7fffffffffffffff",
                    "gasUsed" : "0x16983d",
                    "hash" : "0x60fc799766ce30c17eb8b79d0980fce83e2c943d197995b937b52893eedbad7b",
                    "mixHash" : "0x0000000000000000000000000000000000000000000000000000000000000000",
                    "nonce" : "0x0000000000000000",
                    "number" : "0x01",
                    "parentHash" : "0x1d4e9108f7bf5eb7a7cc7dad1586575d79cf8cade7d3c96ebaf99dd14ff2963b",
                    "receiptTrie" : "0x816d21ad687e1c4cf0d9cd3578f6e5c467bf9046b937f56ba68b4ba2b06f4fbb",
                    "stateRoot" : "0x50d7f4966eff9e4f2a158c2e74ce9ee27ce8b610961669c7f839fa2f22d85196",
                    "timestamp" : "0x079e",
                    "transactionsTrie" : "0xde1eab16eb35fd363a2b56b6b366b5b0f84698a21007d0f25892bb79442ab86a",
                    "uncleHash" : "0x1dcc4de8dec75d7aab85b567b6ccd41ad312451b948a7413f0a142fd40d49347"
                },
                "transactions" : [
                    {
                        "data" : "0x7f00000000000000000000000000000000000000000000000000000000000000017f0000000000000000000000010000000000000000000000000000000000000000407f000000000000000000000000000000000000000000000000000000000000c3507fffffffffffffffffffffffffffffffffffffffffffffffffffffffffffffffff7ffffffffffffffffffffffffffffffffffffffffffffffffffffffffffffffffe7f00000000000000000000000000000000000000000000000000000000000000007f00000000000000000000000100000000000000000000000000000000000000001a6202a31690a3a06f6e9307039b",
                        "gasLimit" : "0x450bec94",
                        "gasPrice" : "0x01",
                        "nonce" : "0x00",
                        "r" : "0x34a2ea2c4b60ace1a3bf84882d3bdec081ce53fb9efc66afb6b222658023be76",
                        "s" : "0x6844540fad6b5d24a69fb9d3430296b3b54b2c4efc7383679a84a2c39e670212",
                        "to" : "0x095e7baea6a6c7c4c2dfeb977efac326af552d87",
                        "v" : "0x1c",
                        "value" : "0x6974fd0d"
                    }
                ],
                "rlp" : "0xf90363f901fda01d4e9108f7bf5eb7a7cc7dad1586575d79cf8cade7d3c96ebaf99dd14ff2963ba01dcc4de8dec75d7aab85b567b6ccd41ad312451b948a7413f0a142fd40d4934794945304eb96065b2a98b57a48a06ae28d285a71b5a050d7f4966eff9e4f2a158c2e74ce9ee27ce8b610961669c7f839fa2f22d85196a0de1eab16eb35fd363a2b56b6b366b5b0f84698a21007d0f25892bb79442ab86aa0816d21ad687e1c4cf0d9cd3578f6e5c467bf9046b937f56ba68b4ba2b06f4fbbb90100000000000000000010000000000000000000000000000000000000000000000000000000000000000000000000000000000000100000000000000000000000000000000000000000000000000000000000000000000000008000000000000000000000000000000000000000040000000000000000000000000000000000002000000000000000000000000000000000000000000000000000000000000000000000000000000000040000000000000000080000100000000000000000000000000000000000002000000000000000000000000000400000000000000000000000000000400000000000000000000000000000100000000000000000000000008302000001887fffffffffffffff8316983d82079e42a00000000000000000000000000000000000000000000000000000000000000000880000000000000000f9015ff9015c800184450bec9494095e7baea6a6c7c4c2dfeb977efac326af552d87846974fd0db8f67f00000000000000000000000000000000000000000000000000000000000000017f0000000000000000000000010000000000000000000000000000000000000000407f000000000000000000000000000000000000000000000000000000000000c3507fffffffffffffffffffffffffffffffffffffffffffffffffffffffffffffffff7ffffffffffffffffffffffffffffffffffffffffffffffffffffffffffffffffe7f00000000000000000000000000000000000000000000000000000000000000007f00000000000000000000000100000000000000000000000000000000000000001a6202a31690a3a06f6e9307039b1ca034a2ea2c4b60ace1a3bf84882d3bdec081ce53fb9efc66afb6b222658023be76a06844540fad6b5d24a69fb9d3430296b3b54b2c4efc7383679a84a2c39e670212c0"
            }
        ],
        "postState" : {
            "0xa94f5374fce5edbc8e2a8697c15331677e6ebf0b" : {
                "code" : "0x",
                "nonce" : "0x01",
                "balance" : "0x0de0b6b33dd86ab6",
                "storage" : {
                }
            },
            "0x095e7baea6a6c7c4c2dfeb977efac326af552d87" : {
                "code" : "0x7f00000000000000000000000000000000000000000000000000000000000000017f0000000000000000000000010000000000000000000000000000000000000000407f000000000000000000000000000000000000000000000000000000000000c3507fffffffffffffffffffffffffffffffffffffffffffffffffffffffffffffffff7ffffffffffffffffffffffffffffffffffffffffffffffffffffffffffffffffe7f00000000000000000000000000000000000000000000000000000000000000007f00000000000000000000000100000000000000000000000000000000000000001a6202a31690a3a06f6e9307039b",
                "nonce" : "0x00",
                "balance" : "0x6974fd0d",
                "storage" : {
                }
            },
            "0x945304eb96065b2a98b57a48a06ae28d285a71b5" : {
                "code" : "0x6000355415600957005b60203560003555",
                "nonce" : "0x00",
                "balance" : "0x1bc16d674ede986b",
                "storage" : {
                }
            }
        },
        "lastblockhash" : "0x60fc799766ce30c17eb8b79d0980fce83e2c943d197995b937b52893eedbad7b"
    }
}