{
    "randomStatetest91BC_Istanbul" : {
        "_info" : {
            "comment" : "",
            "filling-rpc-server" : "Geth-1.9.11-unstable-a382d783-20200127",
            "filling-tool-version" : "retesteth-0.0.2+commit.e8723140.Linux.g++",
            "lllcversion" : "Version: 0.5.14-develop.2019.11.27+commit.8f259595.Linux.g++",
            "source" : "src/BlockchainTestsFiller/ValidBlocks/bcRandomBlockhashTest/randomStatetest91BCFiller.json",
            "sourceHash" : "1ece358810853f41969168754f2212bd1e1d00df1aea453189b475bd34ff4d66"
        },
        "sealEngine" : "NoProof",
        "network" : "Istanbul",
        "pre" : {
            "0x095e7baea6a6c7c4c2dfeb977efac326af552d87" : {
                "balance" : "0x00",
                "code" : "0x7f00000000000000000000000000000000000000000000000000000000000000017f000000000000000000000001000000000000000000000000000000000000000045407f000000000000000000000000945304eb96065b2a98b57a48a06ae28d285a71b57f000000000000000000000000000000000000000000000000000000000000c350447f00000000000000000000000100000000000000000000000000000000000000006f8b0b688d7b410a45178f6f956454f35560005155",
                "nonce" : "0x00",
                "storage" : {
                }
            },
            "0x945304eb96065b2a98b57a48a06ae28d285a71b5" : {
                "balance" : "0x2e",
                "code" : "0x6000355415600957005b60203560003555",
                "nonce" : "0x00",
                "storage" : {
                }
            },
            "0xa94f5374fce5edbc8e2a8697c15331677e6ebf0b" : {
                "balance" : "0x0de0b6b3a7640000",
                "code" : "0x",
                "nonce" : "0x00",
                "storage" : {
                }
            }
        },
        "genesisBlockHeader" : {
            "bloom" : "0x00000000000000000000000000000000000000000000000000000000000000000000000000000000000000000000000000000000000000000000000000000000000000000000000000000000000000000000000000000000000000000000000000000000000000000000000000000000000000000000000000000000000000000000000000000000000000000000000000000000000000000000000000000000000000000000000000000000000000000000000000000000000000000000000000000000000000000000000000000000000000000000000000000000000000000000000000000000000000000000000000000000000000000000000000000000",
            "coinbase" : "0x945304eb96065b2a98b57a48a06ae28d285a71b5",
            "difficulty" : "0x020000",
            "extraData" : "0x42",
            "gasLimit" : "0x7fffffffffffffff",
            "gasUsed" : "0x00",
            "hash" : "0xeec513b4ec525953aa7157883cd3cdc8d9085fefe2c357319c905c79a17939f5",
            "mixHash" : "0x0000000000000000000000000000000000000000000000000000000000000000",
            "nonce" : "0x0000000000000000",
            "number" : "0x00",
            "parentHash" : "0x0000000000000000000000000000000000000000000000000000000000000000",
            "receiptTrie" : "0x56e81f171bcc55a6ff8345e692c0f86e5b48e01b996cadc001622fb5e363b421",
            "stateRoot" : "0xf5fb4160482fb04f85616efdcc018ea0c75cf9e2cf8b846489edc1776670b8aa",
            "timestamp" : "0x03b6",
            "transactionsTrie" : "0x56e81f171bcc55a6ff8345e692c0f86e5b48e01b996cadc001622fb5e363b421",
            "uncleHash" : "0x1dcc4de8dec75d7aab85b567b6ccd41ad312451b948a7413f0a142fd40d49347"
        },
        "genesisRLP" : "0xf901fff901faa00000000000000000000000000000000000000000000000000000000000000000a01dcc4de8dec75d7aab85b567b6ccd41ad312451b948a7413f0a142fd40d4934794945304eb96065b2a98b57a48a06ae28d285a71b5a0f5fb4160482fb04f85616efdcc018ea0c75cf9e2cf8b846489edc1776670b8aaa056e81f171bcc55a6ff8345e692c0f86e5b48e01b996cadc001622fb5e363b421a056e81f171bcc55a6ff8345e692c0f86e5b48e01b996cadc001622fb5e363b421b90100000000000000000000000000000000000000000000000000000000000000000000000000000000000000000000000000000000000000000000000000000000000000000000000000000000000000000000000000000000000000000000000000000000000000000000000000000000000000000000000000000000000000000000000000000000000000000000000000000000000000000000000000000000000000000000000000000000000000000000000000000000000000000000000000000000000000000000000000000000000000000000000000000000000000000000000000000000000000000000000000000000000000000000000000000000008302000080887fffffffffffffff808203b642a00000000000000000000000000000000000000000000000000000000000000000880000000000000000c0c0",
        "blocks" : [
            {
                "chainname" : "default",
                "blocknumber" : "1",
                "uncleHeaders" : [
                ],
                "blockHeader" : {
                    "bloom" : "0x00000000000000000000000000000000000000000000000000000000000000000000000000000000000000000000000000000000000000000000000000000000000000000000000000000000000000000000000000000000000000000000000000000000000000000000000000000000000000000000000000000000000000000000000000000000000000000000000000000000000000000000000000000000000000000000000000000000000000000000000000000000000000000000000000000000000000000000000000000000000000000000000000000000000000000000000000000000000000000000000000000000000000000000000000000000",
                    "coinbase" : "0x945304eb96065b2a98b57a48a06ae28d285a71b5",
                    "difficulty" : "0x020000",
                    "extraData" : "0x42",
                    "gasLimit" : "0x7fffffffffffffff",
                    "gasUsed" : "0xa587",
                    "hash" : "0x1babeba0ad378e2687631050fdac751d20b5c705674c0486608e507f96e3a7f7",
                    "mixHash" : "0x0000000000000000000000000000000000000000000000000000000000000000",
                    "nonce" : "0x0000000000000000",
                    "number" : "0x01",
                    "parentHash" : "0xeec513b4ec525953aa7157883cd3cdc8d9085fefe2c357319c905c79a17939f5",
                    "receiptTrie" : "0x4ebf194895cdf2151c4417fca91ece84aeed4bf2de602d03e67901f4576c827e",
                    "stateRoot" : "0x63a6a7769ad0ec89ce9aa0fa032447afd0c4e4db52a235857bdb9fc192afa919",
                    "timestamp" : "0x079e",
                    "transactionsTrie" : "0xa1a8c9005086046d31b492d556a1dca992deb348022aec36b92539d0dce3ef95",
                    "uncleHash" : "0x1dcc4de8dec75d7aab85b567b6ccd41ad312451b948a7413f0a142fd40d49347"
                },
                "transactions" : [
                    {
                        "data" : "0x7f00000000000000000000000000000000000000000000000000000000000000017f000000000000000000000001000000000000000000000000000000000000000045407f000000000000000000000000945304eb96065b2a98b57a48a06ae28d285a71b57f000000000000000000000000000000000000000000000000000000000000c350447f00000000000000000000000100000000000000000000000000000000000000006f8b0b688d7b410a45178f6f956454f3",
                        "gasLimit" : "0x5465b418",
                        "gasPrice" : "0x01",
                        "nonce" : "0x00",
                        "r" : "0x6129e9da7bb7c03bac1b1db26c907b3a18ec336f607be4b9c5cb3090ab51bce1",
                        "s" : "0x23d59dccdc8a9b2551f5c375db36e0985076d68f468d01338c8be9a67dd1a907",
                        "to" : "0x095e7baea6a6c7c4c2dfeb977efac326af552d87",
                        "v" : "0x1c",
                        "value" : "0x7bcee261"
                    }
                ],
                "rlp" : "0xf90324f901fca0eec513b4ec525953aa7157883cd3cdc8d9085fefe2c357319c905c79a17939f5a01dcc4de8dec75d7aab85b567b6ccd41ad312451b948a7413f0a142fd40d4934794945304eb96065b2a98b57a48a06ae28d285a71b5a063a6a7769ad0ec89ce9aa0fa032447afd0c4e4db52a235857bdb9fc192afa919a0a1a8c9005086046d31b492d556a1dca992deb348022aec36b92539d0dce3ef95a04ebf194895cdf2151c4417fca91ece84aeed4bf2de602d03e67901f4576c827eb90100000000000000000000000000000000000000000000000000000000000000000000000000000000000000000000000000000000000000000000000000000000000000000000000000000000000000000000000000000000000000000000000000000000000000000000000000000000000000000000000000000000000000000000000000000000000000000000000000000000000000000000000000000000000000000000000000000000000000000000000000000000000000000000000000000000000000000000000000000000000000000000000000000000000000000000000000000000000000000000000000000000000000000000000000000000008302000001887fffffffffffffff82a58782079e42a00000000000000000000000000000000000000000000000000000000000000000880000000000000000f90121f9011e8001845465b41894095e7baea6a6c7c4c2dfeb977efac326af552d87847bcee261b8b87f00000000000000000000000000000000000000000000000000000000000000017f000000000000000000000001000000000000000000000000000000000000000045407f000000000000000000000000945304eb96065b2a98b57a48a06ae28d285a71b57f000000000000000000000000000000000000000000000000000000000000c350447f00000000000000000000000100000000000000000000000000000000000000006f8b0b688d7b410a45178f6f956454f31ca06129e9da7bb7c03bac1b1db26c907b3a18ec336f607be4b9c5cb3090ab51bce1a023d59dccdc8a9b2551f5c375db36e0985076d68f468d01338c8be9a67dd1a907c0"
            }
        ],
        "postState" : {
            "0xa94f5374fce5edbc8e2a8697c15331677e6ebf0b" : {
                "code" : "0x",
                "nonce" : "0x01",
                "balance" : "0x0de0b6b32b947818",
                "storage" : {
                }
            },
            "0x095e7baea6a6c7c4c2dfeb977efac326af552d87" : {
                "code" : "0x7f00000000000000000000000000000000000000000000000000000000000000017f000000000000000000000001000000000000000000000000000000000000000045407f000000000000000000000000945304eb96065b2a98b57a48a06ae28d285a71b57f000000000000000000000000000000000000000000000000000000000000c350447f00000000000000000000000100000000000000000000000000000000000000006f8b0b688d7b410a45178f6f956454f35560005155",
                "nonce" : "0x00",
                "balance" : "0x7bcee261",
                "storage" : {
                    "0x00" : "0x8b0b688d7b410a45178f6f956454f355"
                }
            },
            "0x945304eb96065b2a98b57a48a06ae28d285a71b5" : {
                "code" : "0x6000355415600957005b60203560003555",
                "nonce" : "0x00",
                "balance" : "0x1bc16d674ec8a5b5",
                "storage" : {
                }
            }
        },
        "lastblockhash" : "0x1babeba0ad378e2687631050fdac751d20b5c705674c0486608e507f96e3a7f7"
    }
}