{
    "randomStatetest213BC_Istanbul" : {
        "_info" : {
            "comment" : "",
            "filling-rpc-server" : "Geth-1.9.11-unstable-a382d783-20200127",
            "filling-tool-version" : "retesteth-0.0.2+commit.e8723140.Linux.g++",
            "lllcversion" : "Version: 0.5.14-develop.2019.11.27+commit.8f259595.Linux.g++",
            "source" : "src/BlockchainTestsFiller/ValidBlocks/bcRandomBlockhashTest/randomStatetest213BCFiller.json",
            "sourceHash" : "cfbd59bafe2a7899a1bedc34fc2bbf645f8331d2f7842a97e13e479259f31650"
        },
        "sealEngine" : "NoProof",
        "network" : "Istanbul",
        "pre" : {
            "0x095e7baea6a6c7c4c2dfeb977efac326af552d87" : {
                "balance" : "0x00",
                "code" : "0x4338407f000000000000000000000000ffffffffffffffffffffffffffffffffffffffff425a7f000000000000000000000000945304eb96065b2a98b57a48a06ae28d285a71b57fffffffffffffffffffffffffffffffffffffffffffffffffffffffffffffffff6f3b1860586d8587cc788e106fa3937f5560005155",
                "nonce" : "0x00",
                "storage" : {
                }
            },
            "0x945304eb96065b2a98b57a48a06ae28d285a71b5" : {
                "balance" : "0x2e",
                "code" : "0x6000355415600957005b60203560003555",
                "nonce" : "0x00",
                "storage" : {
                }
            },
            "0xa94f5374fce5edbc8e2a8697c15331677e6ebf0b" : {
                "balance" : "0x0de0b6b3a7640000",
                "code" : "0x",
                "nonce" : "0x00",
                "storage" : {
                }
            }
        },
        "genesisBlockHeader" : {
            "bloom" : "0x00000000000000000000000000000000000000000000000000000000000000000000000000000000000000000000000000000000000000000000000000000000000000000000000000000000000000000000000000000000000000000000000000000000000000000000000000000000000000000000000000000000000000000000000000000000000000000000000000000000000000000000000000000000000000000000000000000000000000000000000000000000000000000000000000000000000000000000000000000000000000000000000000000000000000000000000000000000000000000000000000000000000000000000000000000000",
            "coinbase" : "0x945304eb96065b2a98b57a48a06ae28d285a71b5",
            "difficulty" : "0x020000",
            "extraData" : "0x42",
            "gasLimit" : "0x7fffffffffffffff",
            "gasUsed" : "0x00",
            "hash" : "0x8741bdc2aee5359f1ec871ec217b26a07bf4660041180550aad6f428dacba355",
            "mixHash" : "0x0000000000000000000000000000000000000000000000000000000000000000",
            "nonce" : "0x0000000000000000",
            "number" : "0x00",
            "parentHash" : "0x0000000000000000000000000000000000000000000000000000000000000000",
            "receiptTrie" : "0x56e81f171bcc55a6ff8345e692c0f86e5b48e01b996cadc001622fb5e363b421",
            "stateRoot" : "0x392e68f9e4ade989eb363972204e68ac3e3c29da90b3537b69afa53493c2029d",
            "timestamp" : "0x03b6",
            "transactionsTrie" : "0x56e81f171bcc55a6ff8345e692c0f86e5b48e01b996cadc001622fb5e363b421",
            "uncleHash" : "0x1dcc4de8dec75d7aab85b567b6ccd41ad312451b948a7413f0a142fd40d49347"
        },
        "genesisRLP" : "0xf901fff901faa00000000000000000000000000000000000000000000000000000000000000000a01dcc4de8dec75d7aab85b567b6ccd41ad312451b948a7413f0a142fd40d4934794945304eb96065b2a98b57a48a06ae28d285a71b5a0392e68f9e4ade989eb363972204e68ac3e3c29da90b3537b69afa53493c2029da056e81f171bcc55a6ff8345e692c0f86e5b48e01b996cadc001622fb5e363b421a056e81f171bcc55a6ff8345e692c0f86e5b48e01b996cadc001622fb5e363b421b90100000000000000000000000000000000000000000000000000000000000000000000000000000000000000000000000000000000000000000000000000000000000000000000000000000000000000000000000000000000000000000000000000000000000000000000000000000000000000000000000000000000000000000000000000000000000000000000000000000000000000000000000000000000000000000000000000000000000000000000000000000000000000000000000000000000000000000000000000000000000000000000000000000000000000000000000000000000000000000000000000000000000000000000000000000000008302000080887fffffffffffffff808203b642a00000000000000000000000000000000000000000000000000000000000000000880000000000000000c0c0",
        "blocks" : [
            {
                "chainname" : "default",
                "blocknumber" : "1",
                "uncleHeaders" : [
                ],
                "blockHeader" : {
                    "bloom" : "0x00000000000000000000000000000000000000000000000000000000000000000000000000000000000000000000000000000000000000000000000000000000000000000000000000000000000000000000000000000000000000000000000000000000000000000000000000000000000000000000000000000000000000000000000000000000000000000000000000000000000000000000000000000000000000000000000000000000000000000000000000000000000000000000000000000000000000000000000000000000000000000000000000000000000000000000000000000000000000000000000000000000000000000000000000000000",
                    "coinbase" : "0x945304eb96065b2a98b57a48a06ae28d285a71b5",
                    "difficulty" : "0x020000",
                    "extraData" : "0x42",
                    "gasLimit" : "0x7fffffffffffffff",
                    "gasUsed" : "0xa6b9",
                    "hash" : "0xb5543cfb9fd4371d82612434ec243c5c6aacbc7a28f0cb4e45d46415da0476b7",
                    "mixHash" : "0x0000000000000000000000000000000000000000000000000000000000000000",
                    "nonce" : "0x0000000000000000",
                    "number" : "0x01",
                    "parentHash" : "0x8741bdc2aee5359f1ec871ec217b26a07bf4660041180550aad6f428dacba355",
                    "receiptTrie" : "0x52f4ac74166e284c3f74c60322addab037546e1e0d686074520af27bb4ef22aa",
                    "stateRoot" : "0x610d6850a16b9ec5da34511abd848a88dd2704c21f255e97470f16f66c97b8dd",
                    "timestamp" : "0x079e",
                    "transactionsTrie" : "0xe64b4a4e287a60c2b8b503b0bbdc864d0ecdaf80cffba44e88e3d21ee8207053",
                    "uncleHash" : "0x1dcc4de8dec75d7aab85b567b6ccd41ad312451b948a7413f0a142fd40d49347"
                },
                "transactions" : [
                    {
                        "data" : "0x4338407f000000000000000000000000ffffffffffffffffffffffffffffffffffffffff425a7f000000000000000000000000945304eb96065b2a98b57a48a06ae28d285a71b57fffffffffffffffffffffffffffffffffffffffffffffffffffffffffffffffff6f3b1860586d8587cc788e106fa3937f",
                        "gasLimit" : "0x3d404664",
                        "gasPrice" : "0x01",
                        "nonce" : "0x00",
                        "r" : "0xa20b6d234ef8e08a44342a1182abe4d6762d2f6415d1e0e4aa4bf4f9723b5ee7",
                        "s" : "0x115959b53b888eec791d6522935efac78ea0932f449fae551a8897ce0abc280d",
                        "to" : "0x095e7baea6a6c7c4c2dfeb977efac326af552d87",
                        "v" : "0x1c",
                        "value" : "0x61cd5764"
                    }
                ],
                "rlp" : "0xf902e2f901fca08741bdc2aee5359f1ec871ec217b26a07bf4660041180550aad6f428dacba355a01dcc4de8dec75d7aab85b567b6ccd41ad312451b948a7413f0a142fd40d4934794945304eb96065b2a98b57a48a06ae28d285a71b5a0610d6850a16b9ec5da34511abd848a88dd2704c21f255e97470f16f66c97b8dda0e64b4a4e287a60c2b8b503b0bbdc864d0ecdaf80cffba44e88e3d21ee8207053a052f4ac74166e284c3f74c60322addab037546e1e0d686074520af27bb4ef22aab90100000000000000000000000000000000000000000000000000000000000000000000000000000000000000000000000000000000000000000000000000000000000000000000000000000000000000000000000000000000000000000000000000000000000000000000000000000000000000000000000000000000000000000000000000000000000000000000000000000000000000000000000000000000000000000000000000000000000000000000000000000000000000000000000000000000000000000000000000000000000000000000000000000000000000000000000000000000000000000000000000000000000000000000000000000000008302000001887fffffffffffffff82a6b982079e42a00000000000000000000000000000000000000000000000000000000000000000880000000000000000f8e0f8de8001843d40466494095e7baea6a6c7c4c2dfeb977efac326af552d878461cd5764b8784338407f000000000000000000000000ffffffffffffffffffffffffffffffffffffffff425a7f000000000000000000000000945304eb96065b2a98b57a48a06ae28d285a71b57fffffffffffffffffffffffffffffffffffffffffffffffffffffffffffffffff6f3b1860586d8587cc788e106fa3937f1ca0a20b6d234ef8e08a44342a1182abe4d6762d2f6415d1e0e4aa4bf4f9723b5ee7a0115959b53b888eec791d6522935efac78ea0932f449fae551a8897ce0abc280dc0"
            }
        ],
        "postState" : {
            "0xa94f5374fce5edbc8e2a8697c15331677e6ebf0b" : {
                "code" : "0x",
                "nonce" : "0x01",
                "balance" : "0x0de0b6b3459601e3",
                "storage" : {
                }
            },
            "0x095e7baea6a6c7c4c2dfeb977efac326af552d87" : {
                "code" : "0x4338407f000000000000000000000000ffffffffffffffffffffffffffffffffffffffff425a7f000000000000000000000000945304eb96065b2a98b57a48a06ae28d285a71b57fffffffffffffffffffffffffffffffffffffffffffffffffffffffffffffffff6f3b1860586d8587cc788e106fa3937f5560005155",
                "nonce" : "0x00",
                "balance" : "0x61cd5764",
                "storage" : {
                    "0x00" : "0x3b1860586d8587cc788e106fa3937f55"
                }
            },
            "0x945304eb96065b2a98b57a48a06ae28d285a71b5" : {
                "code" : "0x6000355415600957005b60203560003555",
                "nonce" : "0x00",
                "balance" : "0x1bc16d674ec8a6e7",
                "storage" : {
                }
            }
        },
        "lastblockhash" : "0xb5543cfb9fd4371d82612434ec243c5c6aacbc7a28f0cb4e45d46415da0476b7"
    }
}