{
    "randomStatetest168BC_Istanbul" : {
        "_info" : {
            "comment" : "",
            "filling-rpc-server" : "Geth-1.9.11-unstable-a382d783-20200127",
            "filling-tool-version" : "retesteth-0.0.2+commit.e8723140.Linux.g++",
            "lllcversion" : "Version: 0.5.14-develop.2019.11.27+commit.8f259595.Linux.g++",
            "source" : "src/BlockchainTestsFiller/ValidBlocks/bcRandomBlockhashTest/randomStatetest168BCFiller.json",
            "sourceHash" : "626e81131a415111a660b26a7ec940e5b20b3020d86d20134392894c3acd5253"
        },
        "sealEngine" : "NoProof",
        "network" : "Istanbul",
        "pre" : {
            "0x095e7baea6a6c7c4c2dfeb977efac326af552d87" : {
                "balance" : "0x00",
                "code" : "0x7fffffffffffffffffffffffffffffffffffffffffffffffffffffffffffffffff5b407f000000000000000000000000945304eb96065b2a98b57a48a06ae28d285a71b57ffffffffffffffffffffffffffffffffffffffffffffffffffffffffffffffffe067f000000000000000000000000ffffffffffffffffffffffffffffffffffffffff6f618a8186756319140295026c0996875560005155",
                "nonce" : "0x00",
                "storage" : {
                }
            },
            "0x945304eb96065b2a98b57a48a06ae28d285a71b5" : {
                "balance" : "0x2e",
                "code" : "0x6000355415600957005b60203560003555",
                "nonce" : "0x00",
                "storage" : {
                }
            },
            "0xa94f5374fce5edbc8e2a8697c15331677e6ebf0b" : {
                "balance" : "0x0de0b6b3a7640000",
                "code" : "0x",
                "nonce" : "0x00",
                "storage" : {
                }
            }
        },
        "genesisBlockHeader" : {
            "bloom" : "0x00000000000000000000000000000000000000000000000000000000000000000000000000000000000000000000000000000000000000000000000000000000000000000000000000000000000000000000000000000000000000000000000000000000000000000000000000000000000000000000000000000000000000000000000000000000000000000000000000000000000000000000000000000000000000000000000000000000000000000000000000000000000000000000000000000000000000000000000000000000000000000000000000000000000000000000000000000000000000000000000000000000000000000000000000000000",
            "coinbase" : "0x945304eb96065b2a98b57a48a06ae28d285a71b5",
            "difficulty" : "0x020000",
            "extraData" : "0x42",
            "gasLimit" : "0x7fffffffffffffff",
            "gasUsed" : "0x00",
            "hash" : "0xb4ac723105d54d85a9a1ba6e334f3ca8fb64c5e28ed8ed6de7f594fc5b2ef7e5",
            "mixHash" : "0x0000000000000000000000000000000000000000000000000000000000000000",
            "nonce" : "0x0000000000000000",
            "number" : "0x00",
            "parentHash" : "0x0000000000000000000000000000000000000000000000000000000000000000",
            "receiptTrie" : "0x56e81f171bcc55a6ff8345e692c0f86e5b48e01b996cadc001622fb5e363b421",
            "stateRoot" : "0x2ed16d9b02704b445ea785bddcf4177f81e28130164d5a1447d80f65bf3167a4",
            "timestamp" : "0x03b6",
            "transactionsTrie" : "0x56e81f171bcc55a6ff8345e692c0f86e5b48e01b996cadc001622fb5e363b421",
            "uncleHash" : "0x1dcc4de8dec75d7aab85b567b6ccd41ad312451b948a7413f0a142fd40d49347"
        },
        "genesisRLP" : "0xf901fff901faa00000000000000000000000000000000000000000000000000000000000000000a01dcc4de8dec75d7aab85b567b6ccd41ad312451b948a7413f0a142fd40d4934794945304eb96065b2a98b57a48a06ae28d285a71b5a02ed16d9b02704b445ea785bddcf4177f81e28130164d5a1447d80f65bf3167a4a056e81f171bcc55a6ff8345e692c0f86e5b48e01b996cadc001622fb5e363b421a056e81f171bcc55a6ff8345e692c0f86e5b48e01b996cadc001622fb5e363b421b90100000000000000000000000000000000000000000000000000000000000000000000000000000000000000000000000000000000000000000000000000000000000000000000000000000000000000000000000000000000000000000000000000000000000000000000000000000000000000000000000000000000000000000000000000000000000000000000000000000000000000000000000000000000000000000000000000000000000000000000000000000000000000000000000000000000000000000000000000000000000000000000000000000000000000000000000000000000000000000000000000000000000000000000000000000000008302000080887fffffffffffffff808203b642a00000000000000000000000000000000000000000000000000000000000000000880000000000000000c0c0",
        "blocks" : [
            {
                "chainname" : "default",
                "blocknumber" : "1",
                "uncleHeaders" : [
                ],
                "blockHeader" : {
                    "bloom" : "0x00000000000000000000000000000000000000000000000000000000000000000000000000000000000000000000000000000000000000000000000000000000000000000000000000000000000000000000000000000000000000000000000000000000000000000000000000000000000000000000000000000000000000000000000000000000000000000000000000000000000000000000000000000000000000000000000000000000000000000000000000000000000000000000000000000000000000000000000000000000000000000000000000000000000000000000000000000000000000000000000000000000000000000000000000000000",
                    "coinbase" : "0x945304eb96065b2a98b57a48a06ae28d285a71b5",
                    "difficulty" : "0x020000",
                    "extraData" : "0x42",
                    "gasLimit" : "0x7fffffffffffffff",
                    "gasUsed" : "0xa8aa",
                    "hash" : "0xb008ff669933f621f1254b5ab4c572071a5196b99fba1a2b6e382e7fc639637a",
                    "mixHash" : "0x0000000000000000000000000000000000000000000000000000000000000000",
                    "nonce" : "0x0000000000000000",
                    "number" : "0x01",
                    "parentHash" : "0xb4ac723105d54d85a9a1ba6e334f3ca8fb64c5e28ed8ed6de7f594fc5b2ef7e5",
                    "receiptTrie" : "0xb946ce73f27f43dae765aeaf2a8c8f72b89992bb034ae818bd616059ec60df7c",
                    "stateRoot" : "0x542eaf6f379785cfc01a784c319e136a40f88345cf684f1f62aaf6df51291e32",
                    "timestamp" : "0x079e",
                    "transactionsTrie" : "0x764610bf3755bff76340101b9d68c7f1f6a9be56d613c166018c83c74bd69d97",
                    "uncleHash" : "0x1dcc4de8dec75d7aab85b567b6ccd41ad312451b948a7413f0a142fd40d49347"
                },
                "transactions" : [
                    {
                        "data" : "0x7fffffffffffffffffffffffffffffffffffffffffffffffffffffffffffffffff5b407f000000000000000000000000945304eb96065b2a98b57a48a06ae28d285a71b57ffffffffffffffffffffffffffffffffffffffffffffffffffffffffffffffffe067f000000000000000000000000ffffffffffffffffffffffffffffffffffffffff6f618a8186756319140295026c099687",
                        "gasLimit" : "0x3593cf77",
                        "gasPrice" : "0x01",
                        "nonce" : "0x00",
                        "r" : "0x5379f7dea456f199a6ad99326acff4295c60356f56aa79faf75fbf6f44ac041c",
                        "s" : "0x5e01e7e7ed1b2b6d1386e4f613c57c18840a4db7a35b88811fff0946bd3fb467",
                        "to" : "0x095e7baea6a6c7c4c2dfeb977efac326af552d87",
                        "v" : "0x1c",
                        "value" : "0x12804f88"
                    }
                ],
                "rlp" : "0xf90301f901fca0b4ac723105d54d85a9a1ba6e334f3ca8fb64c5e28ed8ed6de7f594fc5b2ef7e5a01dcc4de8dec75d7aab85b567b6ccd41ad312451b948a7413f0a142fd40d4934794945304eb96065b2a98b57a48a06ae28d285a71b5a0542eaf6f379785cfc01a784c319e136a40f88345cf684f1f62aaf6df51291e32a0764610bf3755bff76340101b9d68c7f1f6a9be56d613c166018c83c74bd69d97a0b946ce73f27f43dae765aeaf2a8c8f72b89992bb034ae818bd616059ec60df7cb90100000000000000000000000000000000000000000000000000000000000000000000000000000000000000000000000000000000000000000000000000000000000000000000000000000000000000000000000000000000000000000000000000000000000000000000000000000000000000000000000000000000000000000000000000000000000000000000000000000000000000000000000000000000000000000000000000000000000000000000000000000000000000000000000000000000000000000000000000000000000000000000000000000000000000000000000000000000000000000000000000000000000000000000000000000000008302000001887fffffffffffffff82a8aa82079e42a00000000000000000000000000000000000000000000000000000000000000000880000000000000000f8fff8fd8001843593cf7794095e7baea6a6c7c4c2dfeb977efac326af552d878412804f88b8977fffffffffffffffffffffffffffffffffffffffffffffffffffffffffffffffff5b407f000000000000000000000000945304eb96065b2a98b57a48a06ae28d285a71b57ffffffffffffffffffffffffffffffffffffffffffffffffffffffffffffffffe067f000000000000000000000000ffffffffffffffffffffffffffffffffffffffff6f618a8186756319140295026c0996871ca05379f7dea456f199a6ad99326acff4295c60356f56aa79faf75fbf6f44ac041ca05e01e7e7ed1b2b6d1386e4f613c57c18840a4db7a35b88811fff0946bd3fb467c0"
            }
        ],
        "postState" : {
            "0xa94f5374fce5edbc8e2a8697c15331677e6ebf0b" : {
                "code" : "0x",
                "nonce" : "0x01",
                "balance" : "0x0de0b6b394e307ce",
                "storage" : {
                }
            },
            "0x095e7baea6a6c7c4c2dfeb977efac326af552d87" : {
                "code" : "0x7fffffffffffffffffffffffffffffffffffffffffffffffffffffffffffffffff5b407f000000000000000000000000945304eb96065b2a98b57a48a06ae28d285a71b57ffffffffffffffffffffffffffffffffffffffffffffffffffffffffffffffffe067f000000000000000000000000ffffffffffffffffffffffffffffffffffffffff6f618a8186756319140295026c0996875560005155",
                "nonce" : "0x00",
                "balance" : "0x12804f88",
                "storage" : {
                    "0x00" : "0x618a8186756319140295026c09968755"
                }
            },
            "0x945304eb96065b2a98b57a48a06ae28d285a71b5" : {
                "code" : "0x6000355415600957005b60203560003555",
                "nonce" : "0x00",
                "balance" : "0x1bc16d674ec8a8d8",
                "storage" : {
                }
            }
        },
        "lastblockhash" : "0xb008ff669933f621f1254b5ab4c572071a5196b99fba1a2b6e382e7fc639637a"
    }
}