{
    "randomStatetest61BC_Istanbul" : {
        "_info" : {
            "comment" : "",
            "filling-rpc-server" : "Geth-1.9.11-unstable-a382d783-20200127",
            "filling-tool-version" : "retesteth-0.0.2+commit.e8723140.Linux.g++",
            "lllcversion" : "Version: 0.5.14-develop.2019.11.27+commit.8f259595.Linux.g++",
            "source" : "src/BlockchainTestsFiller/ValidBlocks/bcRandomBlockhashTest/randomStatetest61BCFiller.json",
            "sourceHash" : "828b665763a7304c857347618194dcf7b7bc4fd7a2417eabeb10152b9f7119ee"
        },
        "sealEngine" : "NoProof",
        "network" : "Istanbul",
        "pre" : {
            "0x095e7baea6a6c7c4c2dfeb977efac326af552d87" : {
                "balance" : "0x00",
                "code" : "0x7f000000000000000000000000945304eb96065b2a98b57a48a06ae28d285a71b57f00000000000000000000000000000000000000000000000000000000000000017f000000000000000000000000945304eb96065b2a98b57a48a06ae28d285a71b57ffffffffffffffffffffffffffffffffffffffffffffffffffffffffffffffffe7f00000000000000000000000100000000000000000000000000000000000000007f000000000000000000000000000000000000000000000000000000000000c350407f00000000000000000000000100000000000000000000000000000000000000006b39427d9174167255",
                "nonce" : "0x00",
                "storage" : {
                }
            },
            "0x945304eb96065b2a98b57a48a06ae28d285a71b5" : {
                "balance" : "0x2e",
                "code" : "0x6000355415600957005b60203560003555",
                "nonce" : "0x00",
                "storage" : {
                }
            },
            "0xa94f5374fce5edbc8e2a8697c15331677e6ebf0b" : {
                "balance" : "0x0de0b6b3a7640000",
                "code" : "0x",
                "nonce" : "0x00",
                "storage" : {
                }
            }
        },
        "genesisBlockHeader" : {
            "bloom" : "0x00000000000000000000000000000000000000000000000000000000000000000000000000000000000000000000000000000000000000000000000000000000000000000000000000000000000000000000000000000000000000000000000000000000000000000000000000000000000000000000000000000000000000000000000000000000000000000000000000000000000000000000000000000000000000000000000000000000000000000000000000000000000000000000000000000000000000000000000000000000000000000000000000000000000000000000000000000000000000000000000000000000000000000000000000000000",
            "coinbase" : "0x945304eb96065b2a98b57a48a06ae28d285a71b5",
            "difficulty" : "0x020000",
            "extraData" : "0x42",
            "gasLimit" : "0x7fffffffffffffff",
            "gasUsed" : "0x00",
            "hash" : "0x5d4667aa6d78d7703c54ae5bf011545f0d45300581ad0577ff677ad0ed872ebb",
            "mixHash" : "0x0000000000000000000000000000000000000000000000000000000000000000",
            "nonce" : "0x0000000000000000",
            "number" : "0x00",
            "parentHash" : "0x0000000000000000000000000000000000000000000000000000000000000000",
            "receiptTrie" : "0x56e81f171bcc55a6ff8345e692c0f86e5b48e01b996cadc001622fb5e363b421",
            "stateRoot" : "0xec8cab4170da9066850feacd6487932c46bed7e4510546ab98fda6dfe4fa6119",
            "timestamp" : "0x03b6",
            "transactionsTrie" : "0x56e81f171bcc55a6ff8345e692c0f86e5b48e01b996cadc001622fb5e363b421",
            "uncleHash" : "0x1dcc4de8dec75d7aab85b567b6ccd41ad312451b948a7413f0a142fd40d49347"
        },
        "genesisRLP" : "0xf901fff901faa00000000000000000000000000000000000000000000000000000000000000000a01dcc4de8dec75d7aab85b567b6ccd41ad312451b948a7413f0a142fd40d4934794945304eb96065b2a98b57a48a06ae28d285a71b5a0ec8cab4170da9066850feacd6487932c46bed7e4510546ab98fda6dfe4fa6119a056e81f171bcc55a6ff8345e692c0f86e5b48e01b996cadc001622fb5e363b421a056e81f171bcc55a6ff8345e692c0f86e5b48e01b996cadc001622fb5e363b421b90100000000000000000000000000000000000000000000000000000000000000000000000000000000000000000000000000000000000000000000000000000000000000000000000000000000000000000000000000000000000000000000000000000000000000000000000000000000000000000000000000000000000000000000000000000000000000000000000000000000000000000000000000000000000000000000000000000000000000000000000000000000000000000000000000000000000000000000000000000000000000000000000000000000000000000000000000000000000000000000000000000000000000000000000000000000008302000080887fffffffffffffff808203b642a00000000000000000000000000000000000000000000000000000000000000000880000000000000000c0c0",
        "blocks" : [
            {
                "chainname" : "default",
                "blocknumber" : "1",
                "uncleHeaders" : [
                ],
                "blockHeader" : {
                    "bloom" : "0x00000000000000000000000000000000000000000000000000000000000000000000000000000000000000000000000000000000000000000000000000000000000000000000000000000000000000000000000000000000000000000000000000000000000000000000000000000000000000000000000000000000000000000000000000000000000000000000000000000000000000000000000000000000000000000000000000000000000000000000000000000000000000000000000000000000000000000000000000000000000000000000000000000000000000000000000000000000000000000000000000000000000000000000000000000000",
                    "coinbase" : "0x945304eb96065b2a98b57a48a06ae28d285a71b5",
                    "difficulty" : "0x020000",
                    "extraData" : "0x42",
                    "gasLimit" : "0x7fffffffffffffff",
                    "gasUsed" : "0x5a50",
                    "hash" : "0x403c8f29ba1f4fe57fe8c023a9b8b070b28737fc6f05c27836f8c729e600b18d",
                    "mixHash" : "0x0000000000000000000000000000000000000000000000000000000000000000",
                    "nonce" : "0x0000000000000000",
                    "number" : "0x01",
                    "parentHash" : "0x5d4667aa6d78d7703c54ae5bf011545f0d45300581ad0577ff677ad0ed872ebb",
                    "receiptTrie" : "0xeafde6d4eec0ad0c8aae3f26e78f8aa9df65614b3f156dc7398e285a3438c34b",
                    "stateRoot" : "0x848392512c05a21226549506673b089e1810470f919b126a654ddbd23b9adfd3",
                    "timestamp" : "0x079e",
                    "transactionsTrie" : "0x2ad97ba4e5308b672fe93b205fbcb77c8ac803e9acf2419e654d04e813f3c84a",
                    "uncleHash" : "0x1dcc4de8dec75d7aab85b567b6ccd41ad312451b948a7413f0a142fd40d49347"
                },
                "transactions" : [
                    {
                        "data" : "0x7f000000000000000000000000945304eb96065b2a98b57a48a06ae28d285a71b57f00000000000000000000000000000000000000000000000000000000000000017f000000000000000000000000945304eb96065b2a98b57a48a06ae28d285a71b57ffffffffffffffffffffffffffffffffffffffffffffffffffffffffffffffffe7f00000000000000000000000100000000000000000000000000000000000000007f000000000000000000000000000000000000000000000000000000000000c350407f00000000000000000000000100000000000000000000000000000000000000006b39427d91741672",
                        "gasLimit" : "0x49bfbdd5",
                        "gasPrice" : "0x01",
                        "nonce" : "0x00",
                        "r" : "0xf6cb5bfe7d65cbfcc22709673c6f88d5b10121265b52192b1779d8a4cfacd338",
                        "s" : "0x0187221c58f9848922362455a12729acd3ce9da209b796b3d4fd8a9ce8dfe314",
                        "to" : "0x095e7baea6a6c7c4c2dfeb977efac326af552d87",
                        "v" : "0x1b",
                        "value" : "0x6899bd45"
                    }
                ],
                "rlp" : "0xf9035cf901fca05d4667aa6d78d7703c54ae5bf011545f0d45300581ad0577ff677ad0ed872ebba01dcc4de8dec75d7aab85b567b6ccd41ad312451b948a7413f0a142fd40d4934794945304eb96065b2a98b57a48a06ae28d285a71b5a0848392512c05a21226549506673b089e1810470f919b126a654ddbd23b9adfd3a02ad97ba4e5308b672fe93b205fbcb77c8ac803e9acf2419e654d04e813f3c84aa0eafde6d4eec0ad0c8aae3f26e78f8aa9df65614b3f156dc7398e285a3438c34bb90100000000000000000000000000000000000000000000000000000000000000000000000000000000000000000000000000000000000000000000000000000000000000000000000000000000000000000000000000000000000000000000000000000000000000000000000000000000000000000000000000000000000000000000000000000000000000000000000000000000000000000000000000000000000000000000000000000000000000000000000000000000000000000000000000000000000000000000000000000000000000000000000000000000000000000000000000000000000000000000000000000000000000000000000000000000008302000001887fffffffffffffff825a5082079e42a00000000000000000000000000000000000000000000000000000000000000000880000000000000000f90159f9015680018449bfbdd594095e7baea6a6c7c4c2dfeb977efac326af552d87846899bd45b8f07f000000000000000000000000945304eb96065b2a98b57a48a06ae28d285a71b57f00000000000000000000000000000000000000000000000000000000000000017f000000000000000000000000945304eb96065b2a98b57a48a06ae28d285a71b57ffffffffffffffffffffffffffffffffffffffffffffffffffffffffffffffffe7f00000000000000000000000100000000000000000000000000000000000000007f000000000000000000000000000000000000000000000000000000000000c350407f00000000000000000000000100000000000000000000000000000000000000006b39427d917416721ba0f6cb5bfe7d65cbfcc22709673c6f88d5b10121265b52192b1779d8a4cfacd338a00187221c58f9848922362455a12729acd3ce9da209b796b3d4fd8a9ce8dfe314c0"
            }
        ],
        "postState" : {
            "0xa94f5374fce5edbc8e2a8697c15331677e6ebf0b" : {
                "code" : "0x",
                "nonce" : "0x01",
                "balance" : "0x0de0b6b33ec9e86b",
                "storage" : {
                }
            },
            "0x095e7baea6a6c7c4c2dfeb977efac326af552d87" : {
                "code" : "0x7f000000000000000000000000945304eb96065b2a98b57a48a06ae28d285a71b57f00000000000000000000000000000000000000000000000000000000000000017f000000000000000000000000945304eb96065b2a98b57a48a06ae28d285a71b57ffffffffffffffffffffffffffffffffffffffffffffffffffffffffffffffffe7f00000000000000000000000100000000000000000000000000000000000000007f000000000000000000000000000000000000000000000000000000000000c350407f00000000000000000000000100000000000000000000000000000000000000006b39427d9174167255",
                "nonce" : "0x00",
                "balance" : "0x6899bd45",
                "storage" : {
                }
            },
            "0x945304eb96065b2a98b57a48a06ae28d285a71b5" : {
                "code" : "0x6000355415600957005b60203560003555",
                "nonce" : "0x00",
                "balance" : "0x1bc16d674ec85a7e",
                "storage" : {
                }
            }
        },
        "lastblockhash" : "0x403c8f29ba1f4fe57fe8c023a9b8b070b28737fc6f05c27836f8c729e600b18d"
    }
}