{
    "randomStatetest390BC_Istanbul" : {
        "_info" : {
            "comment" : "",
            "filling-rpc-server" : "Geth-1.9.11-unstable-a382d783-20200127",
            "filling-tool-version" : "retesteth-0.0.2+commit.e8723140.Linux.g++",
            "lllcversion" : "Version: 0.5.14-develop.2019.11.27+commit.8f259595.Linux.g++",
            "source" : "src/BlockchainTestsFiller/ValidBlocks/bcRandomBlockhashTest/randomStatetest390BCFiller.json",
            "sourceHash" : "9a8cf2295d2cbf013dba4b2499ea89ccf84ba598fd834f01cb10f7ad07d39b81"
        },
        "sealEngine" : "NoProof",
        "network" : "Istanbul",
        "pre" : {
            "0x095e7baea6a6c7c4c2dfeb977efac326af552d87" : {
                "balance" : "0x00",
                "code" : "0x7f000000000000000000000000945304eb96065b2a98b57a48a06ae28d285a71b57f000000000000000000000000ffffffffffffffffffffffffffffffffffffffff7f00000000000000000000000000000000000000000000000000000000000000007ffffffffffffffffffffffffffffffffffffffffffffffffffffffffffffffffe7f0000000000000000000000010000000000000000000000000000000000000000427fffffffffffffffffffffffffffffffffffffffffffffffffffffffffffffffff406f6c6b30816c7a0412415a0414179b635560005155",
                "nonce" : "0x00",
                "storage" : {
                }
            },
            "0x945304eb96065b2a98b57a48a06ae28d285a71b5" : {
                "balance" : "0x2e",
                "code" : "0x6000355415600957005b60203560003555",
                "nonce" : "0x00",
                "storage" : {
                }
            },
            "0xa94f5374fce5edbc8e2a8697c15331677e6ebf0b" : {
                "balance" : "0x0de0b6b3a7640000",
                "code" : "0x",
                "nonce" : "0x00",
                "storage" : {
                }
            }
        },
        "genesisBlockHeader" : {
            "bloom" : "0x00000000000000000000000000000000000000000000000000000000000000000000000000000000000000000000000000000000000000000000000000000000000000000000000000000000000000000000000000000000000000000000000000000000000000000000000000000000000000000000000000000000000000000000000000000000000000000000000000000000000000000000000000000000000000000000000000000000000000000000000000000000000000000000000000000000000000000000000000000000000000000000000000000000000000000000000000000000000000000000000000000000000000000000000000000000",
            "coinbase" : "0x945304eb96065b2a98b57a48a06ae28d285a71b5",
            "difficulty" : "0x020000",
            "extraData" : "0x42",
            "gasLimit" : "0x7fffffffffffffff",
            "gasUsed" : "0x00",
            "hash" : "0xd89d8a0aaa3f859ebc32fe49b75841734c3a40dfc7a30f533577703a38908184",
            "mixHash" : "0x0000000000000000000000000000000000000000000000000000000000000000",
            "nonce" : "0x0000000000000000",
            "number" : "0x00",
            "parentHash" : "0x0000000000000000000000000000000000000000000000000000000000000000",
            "receiptTrie" : "0x56e81f171bcc55a6ff8345e692c0f86e5b48e01b996cadc001622fb5e363b421",
            "stateRoot" : "0x9ea4c54666e8cd9fabaf7ccc0b048459d67c05e9c5dda61da5437a652f813db6",
            "timestamp" : "0x03b6",
            "transactionsTrie" : "0x56e81f171bcc55a6ff8345e692c0f86e5b48e01b996cadc001622fb5e363b421",
            "uncleHash" : "0x1dcc4de8dec75d7aab85b567b6ccd41ad312451b948a7413f0a142fd40d49347"
        },
        "genesisRLP" : "0xf901fff901faa00000000000000000000000000000000000000000000000000000000000000000a01dcc4de8dec75d7aab85b567b6ccd41ad312451b948a7413f0a142fd40d4934794945304eb96065b2a98b57a48a06ae28d285a71b5a09ea4c54666e8cd9fabaf7ccc0b048459d67c05e9c5dda61da5437a652f813db6a056e81f171bcc55a6ff8345e692c0f86e5b48e01b996cadc001622fb5e363b421a056e81f171bcc55a6ff8345e692c0f86e5b48e01b996cadc001622fb5e363b421b90100000000000000000000000000000000000000000000000000000000000000000000000000000000000000000000000000000000000000000000000000000000000000000000000000000000000000000000000000000000000000000000000000000000000000000000000000000000000000000000000000000000000000000000000000000000000000000000000000000000000000000000000000000000000000000000000000000000000000000000000000000000000000000000000000000000000000000000000000000000000000000000000000000000000000000000000000000000000000000000000000000000000000000000000000000000008302000080887fffffffffffffff808203b642a00000000000000000000000000000000000000000000000000000000000000000880000000000000000c0c0",
        "blocks" : [
            {
                "chainname" : "default",
                "blocknumber" : "1",
                "uncleHeaders" : [
                ],
                "blockHeader" : {
                    "bloom" : "0x00000000000000000000000000000000000000000000000000000000000000000000000000000000000000000000000000000000000000000000000000000000000000000000000000000000000000000000000000000000000000000000000000000000000000000000000000000000000000000000000000000000000000000000000000000000000000000000000000000000000000000000000000000000000000000000000000000000000000000000000000000000000000000000000000000000000000000000000000000000000000000000000000000000000000000000000000000000000000000000000000000000000000000000000000000000",
                    "coinbase" : "0x945304eb96065b2a98b57a48a06ae28d285a71b5",
                    "difficulty" : "0x020000",
                    "extraData" : "0x42",
                    "gasLimit" : "0x7fffffffffffffff",
                    "gasUsed" : "0xa9c8",
                    "hash" : "0x6ca9be046ed35bdc4d205cdc0b234c81edfd7caa7a5235b1065a95c94efc57e1",
                    "mixHash" : "0x0000000000000000000000000000000000000000000000000000000000000000",
                    "nonce" : "0x0000000000000000",
                    "number" : "0x01",
                    "parentHash" : "0xd89d8a0aaa3f859ebc32fe49b75841734c3a40dfc7a30f533577703a38908184",
                    "receiptTrie" : "0x09ba80d03429594c3758b379ebefe2304fb404b62f15c2f1cf0113bb9708227a",
                    "stateRoot" : "0x33cdbd27a5d83e3f36626c1cc653d0cf66cf99f4fb2557e2cebe69ddba1d7225",
                    "timestamp" : "0x079e",
                    "transactionsTrie" : "0xa8843f5e6adfd51649fa19792207e1366f45fd90a68ab81f721eeaac75e6e0f7",
                    "uncleHash" : "0x1dcc4de8dec75d7aab85b567b6ccd41ad312451b948a7413f0a142fd40d49347"
                },
                "transactions" : [
                    {
                        "data" : "0x7f000000000000000000000000945304eb96065b2a98b57a48a06ae28d285a71b57f000000000000000000000000ffffffffffffffffffffffffffffffffffffffff7f00000000000000000000000000000000000000000000000000000000000000007ffffffffffffffffffffffffffffffffffffffffffffffffffffffffffffffffe7f0000000000000000000000010000000000000000000000000000000000000000427fffffffffffffffffffffffffffffffffffffffffffffffffffffffffffffffff406f6c6b30816c7a0412415a0414179b63",
                        "gasLimit" : "0x65aa7fb6",
                        "gasPrice" : "0x01",
                        "nonce" : "0x00",
                        "r" : "0x5729e51880981b1a869fbd16eacec72f1a8572a3b5d573e968fc77ecf5d8dabc",
                        "s" : "0x4e42f5f0e707055afdc92d07ab979be83dd9322984628873704fb25bf2eb9c5d",
                        "to" : "0x095e7baea6a6c7c4c2dfeb977efac326af552d87",
                        "v" : "0x1b",
                        "value" : "0x5be3f769"
                    }
                ],
                "rlp" : "0xf90344f901fca0d89d8a0aaa3f859ebc32fe49b75841734c3a40dfc7a30f533577703a38908184a01dcc4de8dec75d7aab85b567b6ccd41ad312451b948a7413f0a142fd40d4934794945304eb96065b2a98b57a48a06ae28d285a71b5a033cdbd27a5d83e3f36626c1cc653d0cf66cf99f4fb2557e2cebe69ddba1d7225a0a8843f5e6adfd51649fa19792207e1366f45fd90a68ab81f721eeaac75e6e0f7a009ba80d03429594c3758b379ebefe2304fb404b62f15c2f1cf0113bb9708227ab90100000000000000000000000000000000000000000000000000000000000000000000000000000000000000000000000000000000000000000000000000000000000000000000000000000000000000000000000000000000000000000000000000000000000000000000000000000000000000000000000000000000000000000000000000000000000000000000000000000000000000000000000000000000000000000000000000000000000000000000000000000000000000000000000000000000000000000000000000000000000000000000000000000000000000000000000000000000000000000000000000000000000000000000000000000000008302000001887fffffffffffffff82a9c882079e42a00000000000000000000000000000000000000000000000000000000000000000880000000000000000f90141f9013e80018465aa7fb694095e7baea6a6c7c4c2dfeb977efac326af552d87845be3f769b8d87f000000000000000000000000945304eb96065b2a98b57a48a06ae28d285a71b57f000000000000000000000000ffffffffffffffffffffffffffffffffffffffff7f00000000000000000000000000000000000000000000000000000000000000007ffffffffffffffffffffffffffffffffffffffffffffffffffffffffffffffffe7f0000000000000000000000010000000000000000000000000000000000000000427fffffffffffffffffffffffffffffffffffffffffffffffffffffffffffffffff406f6c6b30816c7a0412415a0414179b631ba05729e51880981b1a869fbd16eacec72f1a8572a3b5d573e968fc77ecf5d8dabca04e42f5f0e707055afdc92d07ab979be83dd9322984628873704fb25bf2eb9c5dc0"
            }
        ],
        "postState" : {
            "0xa94f5374fce5edbc8e2a8697c15331677e6ebf0b" : {
                "code" : "0x",
                "nonce" : "0x01",
                "balance" : "0x0de0b6b34b7f5ecf",
                "storage" : {
                }
            },
            "0x095e7baea6a6c7c4c2dfeb977efac326af552d87" : {
                "code" : "0x7f000000000000000000000000945304eb96065b2a98b57a48a06ae28d285a71b57f000000000000000000000000ffffffffffffffffffffffffffffffffffffffff7f00000000000000000000000000000000000000000000000000000000000000007ffffffffffffffffffffffffffffffffffffffffffffffffffffffffffffffffe7f0000000000000000000000010000000000000000000000000000000000000000427fffffffffffffffffffffffffffffffffffffffffffffffffffffffffffffffff406f6c6b30816c7a0412415a0414179b635560005155",
                "nonce" : "0x00",
                "balance" : "0x5be3f769",
                "storage" : {
                    "0x00" : "0x6c6b30816c7a0412415a0414179b6355"
                }
            },
            "0x945304eb96065b2a98b57a48a06ae28d285a71b5" : {
                "code" : "0x6000355415600957005b60203560003555",
                "nonce" : "0x00",
                "balance" : "0x1bc16d674ec8a9f6",
                "storage" : {
                }
            }
        },
        "lastblockhash" : "0x6ca9be046ed35bdc4d205cdc0b234c81edfd7caa7a5235b1065a95c94efc57e1"
    }
}