{
    "randomStatetest598BC_Istanbul" : {
        "_info" : {
            "comment" : "",
            "filledwith" : "testeth 1.8.0-alpha.0-12+commit.b120a12c.dirty",
            "lllcversion" : "Version: 0.5.12-develop.2019.9.13+commit.2d601a4f.Linux.g++",
            "source" : "src/BlockchainTestsFiller/ValidBlocks/bcRandomBlockhashTest/randomStatetest598BCFiller.json",
            "sourceHash" : "577c61b36d924ca4df4cd58af6662aeab0fb557f4c2807a8220519b7aa1f340e"
        },
        "blocks" : [
            {
                "blockHeader" : {
                    "bloom" : "0x00000000000000000000000000000000000000000000000000000000000000000000000000000000000000000000000000000000000000000000000000000000000000000000000000000000000000000000000000000000000000000000000000000000000000000000000000000000000000000000000000000000000000000000000000000000000000000000000000000000000000000000000000000000000000000000000000000000000000000000000000000000000000000000000000000000000000000000000000000000000000000000000000000000000000000000000000000000000000000000000000000000000000000000000000000000",
                    "coinbase" : "0x945304eb96065b2a98b57a48a06ae28d285a71b5",
                    "difficulty" : "0x020000",
                    "extraData" : "",
                    "gasLimit" : "0x7fffffffffffffff",
                    "gasUsed" : "0xa76d",
                    "hash" : "0xaebb30d94694b4173c706e973a30f18383c0911b1a19f9d875c7a5a74ee8e9e6",
                    "mixHash" : "0x0000000000000000000000000000000000000000000000000000000000000000",
                    "nonce" : "0x0000000000000000",
                    "number" : "0x01",
                    "parentHash" : "0x231198673c12f5b8b2fc4043a204b0e245a3d8ad99bb650c644a52245722be9f",
                    "receiptTrie" : "0x9f34e9366cbf7e721adcf271799ce307810cb8939993a1c3061084071599df3f",
                    "stateRoot" : "0xc4fdb04192e0522ebbd123a756162ec990c0ddd843a65b1b131ee3a7f9053886",
                    "timestamp" : "0x03e8",
                    "transactionsTrie" : "0xd4e5ef1965581b403a65b0ef4de6d9eb2588ad37024e8ff723e79684ea0787c7",
                    "uncleHash" : "0x1dcc4de8dec75d7aab85b567b6ccd41ad312451b948a7413f0a142fd40d49347"
                },
                "rlp" : "0xf90364f901fca0231198673c12f5b8b2fc4043a204b0e245a3d8ad99bb650c644a52245722be9fa01dcc4de8dec75d7aab85b567b6ccd41ad312451b948a7413f0a142fd40d4934794945304eb96065b2a98b57a48a06ae28d285a71b5a0c4fdb04192e0522ebbd123a756162ec990c0ddd843a65b1b131ee3a7f9053886a0d4e5ef1965581b403a65b0ef4de6d9eb2588ad37024e8ff723e79684ea0787c7a09f34e9366cbf7e721adcf271799ce307810cb8939993a1c3061084071599df3fb90100000000000000000000000000000000000000000000000000000000000000000000000000000000000000000000000000000000000000000000000000000000000000000000000000000000000000000000000000000000000000000000000000000000000000000000000000000000000000000000000000000000000000000000000000000000000000000000000000000000000000000000000000000000000000000000000000000000000000000000000000000000000000000000000000000000000000000000000000000000000000000000000000000000000000000000000000000000000000000000000000000000000000000000000000000000008302000001887fffffffffffffff82a76d8203e880a00000000000000000000000000000000000000000000000000000000000000000880000000000000000f90161f9015e80018444d2487294095e7baea6a6c7c4c2dfeb977efac326af552d87845a7529bfb8f87f000000000000000000000000000000000000000000000000000000000000c3507f00000000000000000000000000000000000000000000000000000000000000007f0000000000000000000000000000000000000000000000000000000000000000407f000000000000000000000000ffffffffffffffffffffffffffffffffffffffff7f00000000000000000000000000000000000000000000000000000000000000017f000000000000000000000000ffffffffffffffffffffffffffffffffffffffff7f00000000000000000000000100000000000000000000000000000000000000006f48069f886d448a696184f3659803301ca013ea0c0f30fd55b5e74279926ef79db501105d1ce60b5cb53646fb1b0a75d957a050f8cd1ba5478f1e990c00f86eb1b216b7ca60a6ada6f7c05848276d301535bdc0",
                "transactions" : [
                    {
                        "data" : "0x7f000000000000000000000000000000000000000000000000000000000000c3507f00000000000000000000000000000000000000000000000000000000000000007f0000000000000000000000000000000000000000000000000000000000000000407f000000000000000000000000ffffffffffffffffffffffffffffffffffffffff7f00000000000000000000000000000000000000000000000000000000000000017f000000000000000000000000ffffffffffffffffffffffffffffffffffffffff7f00000000000000000000000100000000000000000000000000000000000000006f48069f886d448a696184f365980330",
                        "gasLimit" : "0x44d24872",
                        "gasPrice" : "0x01",
                        "nonce" : "0x00",
                        "r" : "0x13ea0c0f30fd55b5e74279926ef79db501105d1ce60b5cb53646fb1b0a75d957",
                        "s" : "0x50f8cd1ba5478f1e990c00f86eb1b216b7ca60a6ada6f7c05848276d301535bd",
                        "to" : "0x095e7baea6a6c7c4c2dfeb977efac326af552d87",
                        "v" : "0x1c",
                        "value" : "0x5a7529bf"
                    }
                ],
                "uncleHeaders" : [
                ]
            }
        ],
        "genesisBlockHeader" : {
            "bloom" : "0x00000000000000000000000000000000000000000000000000000000000000000000000000000000000000000000000000000000000000000000000000000000000000000000000000000000000000000000000000000000000000000000000000000000000000000000000000000000000000000000000000000000000000000000000000000000000000000000000000000000000000000000000000000000000000000000000000000000000000000000000000000000000000000000000000000000000000000000000000000000000000000000000000000000000000000000000000000000000000000000000000000000000000000000000000000000",
            "coinbase" : "0x945304eb96065b2a98b57a48a06ae28d285a71b5",
            "difficulty" : "0x020000",
            "extraData" : "0x42",
            "gasLimit" : "0x7fffffffffffffff",
            "gasUsed" : "0x00",
            "hash" : "0x231198673c12f5b8b2fc4043a204b0e245a3d8ad99bb650c644a52245722be9f",
            "mixHash" : "0x56e81f171bcc55a6ff8345e692c0f86e5b48e01b996cadc001622fb5e363b421",
            "nonce" : "0x0102030405060708",
            "number" : "0x00",
            "parentHash" : "0x0000000000000000000000000000000000000000000000000000000000000000",
            "receiptTrie" : "0x56e81f171bcc55a6ff8345e692c0f86e5b48e01b996cadc001622fb5e363b421",
            "stateRoot" : "0x3f62caa6ecbfb7c3354dbd660fd90c8d5f1f0592c84fe2cdfa53e38c3fbc14fe",
            "timestamp" : "0x03b6",
            "transactionsTrie" : "0x56e81f171bcc55a6ff8345e692c0f86e5b48e01b996cadc001622fb5e363b421",
            "uncleHash" : "0x1dcc4de8dec75d7aab85b567b6ccd41ad312451b948a7413f0a142fd40d49347"
        },
        "genesisRLP" : "0xf901fff901faa00000000000000000000000000000000000000000000000000000000000000000a01dcc4de8dec75d7aab85b567b6ccd41ad312451b948a7413f0a142fd40d4934794945304eb96065b2a98b57a48a06ae28d285a71b5a03f62caa6ecbfb7c3354dbd660fd90c8d5f1f0592c84fe2cdfa53e38c3fbc14fea056e81f171bcc55a6ff8345e692c0f86e5b48e01b996cadc001622fb5e363b421a056e81f171bcc55a6ff8345e692c0f86e5b48e01b996cadc001622fb5e363b421b90100000000000000000000000000000000000000000000000000000000000000000000000000000000000000000000000000000000000000000000000000000000000000000000000000000000000000000000000000000000000000000000000000000000000000000000000000000000000000000000000000000000000000000000000000000000000000000000000000000000000000000000000000000000000000000000000000000000000000000000000000000000000000000000000000000000000000000000000000000000000000000000000000000000000000000000000000000000000000000000000000000000000000000000000000000000008302000080887fffffffffffffff808203b642a056e81f171bcc55a6ff8345e692c0f86e5b48e01b996cadc001622fb5e363b421880102030405060708c0c0",
        "lastblockhash" : "0xaebb30d94694b4173c706e973a30f18383c0911b1a19f9d875c7a5a74ee8e9e6",
        "network" : "Istanbul",
        "postState" : {
            "0x095e7baea6a6c7c4c2dfeb977efac326af552d87" : {
                "balance" : "0x5a7529bf",
                "code" : "0x7f000000000000000000000000000000000000000000000000000000000000c3507f00000000000000000000000000000000000000000000000000000000000000007f0000000000000000000000000000000000000000000000000000000000000000407f000000000000000000000000ffffffffffffffffffffffffffffffffffffffff7f00000000000000000000000000000000000000000000000000000000000000017f000000000000000000000000ffffffffffffffffffffffffffffffffffffffff7f00000000000000000000000100000000000000000000000000000000000000006f48069f886d448a696184f3659803305560005155",
                "nonce" : "0x00",
                "storage" : {
                    "0x00" : "0x48069f886d448a696184f36598033055"
                }
            },
            "0x945304eb96065b2a98b57a48a06ae28d285a71b5" : {
                "balance" : "0x1bc16d674ec8a79b",
                "code" : "0x6000355415600957005b60203560003555",
                "nonce" : "0x00",
                "storage" : {
                }
            },
            "0xa94f5374fce5edbc8e2a8697c15331677e6ebf0b" : {
                "balance" : "0x0de0b6b34cee2ed4",
                "code" : "",
                "nonce" : "0x01",
                "storage" : {
                }
            }
        },
        "pre" : {
            "0x095e7baea6a6c7c4c2dfeb977efac326af552d87" : {
                "balance" : "0x00",
                "code" : "0x7f000000000000000000000000000000000000000000000000000000000000c3507f00000000000000000000000000000000000000000000000000000000000000007f0000000000000000000000000000000000000000000000000000000000000000407f000000000000000000000000ffffffffffffffffffffffffffffffffffffffff7f00000000000000000000000000000000000000000000000000000000000000017f000000000000000000000000ffffffffffffffffffffffffffffffffffffffff7f00000000000000000000000100000000000000000000000000000000000000006f48069f886d448a696184f3659803305560005155",
                "nonce" : "0x00",
                "storage" : {
                }
            },
            "0x945304eb96065b2a98b57a48a06ae28d285a71b5" : {
                "balance" : "0x2e",
                "code" : "0x6000355415600957005b60203560003555",
                "nonce" : "0x00",
                "storage" : {
                }
            },
            "0xa94f5374fce5edbc8e2a8697c15331677e6ebf0b" : {
                "balance" : "0x0de0b6b3a7640000",
                "code" : "",
                "nonce" : "0x00",
                "storage" : {
                }
            }
        },
        "sealEngine" : "NoProof"
    }
}