{
    "randomStatetest331BC_Istanbul" : {
        "_info" : {
            "comment" : "",
            "filledwith" : "testeth 1.8.0-alpha.0-12+commit.b120a12c.dirty",
            "lllcversion" : "Version: 0.5.12-develop.2019.9.13+commit.2d601a4f.Linux.g++",
            "source" : "src/BlockchainTestsFiller/ValidBlocks/bcRandomBlockhashTest/randomStatetest331BCFiller.json",
            "sourceHash" : "267bc5f908bbd0344e3b33622e6667eb9e8240415ce2875d06964eb675c120e0"
        },
        "blocks" : [
            {
                "blockHeader" : {
                    "bloom" : "0x00000000000000000000000000000000000000000000000000000000000000000000000000000000000000000000000000000000000000000000000000000000000000000000000000000000000000000000000000000000000000000000000000000000000000000000000000000000000000000000000000000000000000000000000000000000000000000000000000000000000000000000000000000000000000000000000000000000000000000000000000000000000000000000000000000000000000000000000000000000000000000000000000000000000000000000000000000000000000000000000000000000000000000000000000000000",
                    "coinbase" : "0x945304eb96065b2a98b57a48a06ae28d285a71b5",
                    "difficulty" : "0x020000",
                    "extraData" : "",
                    "gasLimit" : "0x7fffffffffffffff",
                    "gasUsed" : "0xa589",
                    "hash" : "0x4c366b118aa07b61f1be1d6f0633d7788f7f3775b8623bcb6ac261fa0ad42775",
                    "mixHash" : "0x0000000000000000000000000000000000000000000000000000000000000000",
                    "nonce" : "0x0000000000000000",
                    "number" : "0x01",
                    "parentHash" : "0xa8350477a60c8792887859543ccc5185c33d92594ce75de07caf2e28e8ee2d27",
                    "receiptTrie" : "0xbc71eb482851c741a83dda870b85d65a59958b2cfe7b57039a80ece82da4a8f0",
                    "stateRoot" : "0xa3a026aea21ad66bbd09b5666d3ea012df8f0d48cf6d27c503542ae3f2dbed32",
                    "timestamp" : "0x03e8",
                    "transactionsTrie" : "0x8212e4c00b99117a9d4fd2186431072d4cdd08869784757c9c49195c4b4665b7",
                    "uncleHash" : "0x1dcc4de8dec75d7aab85b567b6ccd41ad312451b948a7413f0a142fd40d49347"
                },
                "rlp" : "0xf90316f901fca0a8350477a60c8792887859543ccc5185c33d92594ce75de07caf2e28e8ee2d27a01dcc4de8dec75d7aab85b567b6ccd41ad312451b948a7413f0a142fd40d4934794945304eb96065b2a98b57a48a06ae28d285a71b5a0a3a026aea21ad66bbd09b5666d3ea012df8f0d48cf6d27c503542ae3f2dbed32a08212e4c00b99117a9d4fd2186431072d4cdd08869784757c9c49195c4b4665b7a0bc71eb482851c741a83dda870b85d65a59958b2cfe7b57039a80ece82da4a8f0b90100000000000000000000000000000000000000000000000000000000000000000000000000000000000000000000000000000000000000000000000000000000000000000000000000000000000000000000000000000000000000000000000000000000000000000000000000000000000000000000000000000000000000000000000000000000000000000000000000000000000000000000000000000000000000000000000000000000000000000000000000000000000000000000000000000000000000000000000000000000000000000000000000000000000000000000000000000000000000000000000000000000000000000000000000000000008302000001887fffffffffffffff82a5898203e880a00000000000000000000000000000000000000000000000000000000000000000880000000000000000f90113f9011080018446cdc80094095e7baea6a6c7c4c2dfeb977efac326af552d878457cbfdd8b8aa7f000000000000000000000000ffffffffffffffffffffffffffffffffffffffff7f000000000000000000000000945304eb96065b2a98b57a48a06ae28d285a71b5067f0000000000000000000000000000000000000000000000000000000000000000407f000000000000000000000000000000000000000000000000000000000000c350427f00000000000000000000000000000000000000000000000000000000000000013a091ba0fad2921118d24da085bd30da963ed847e6fd782a9521677430169a87c2b7b630a019f13a92f98dc4b4b07e58d7df862896595eb00e73e0b13e930c5d0cc7de412dc0",
                "transactions" : [
                    {
                        "data" : "0x7f000000000000000000000000ffffffffffffffffffffffffffffffffffffffff7f000000000000000000000000945304eb96065b2a98b57a48a06ae28d285a71b5067f0000000000000000000000000000000000000000000000000000000000000000407f000000000000000000000000000000000000000000000000000000000000c350427f00000000000000000000000000000000000000000000000000000000000000013a09",
                        "gasLimit" : "0x46cdc800",
                        "gasPrice" : "0x01",
                        "nonce" : "0x00",
                        "r" : "0xfad2921118d24da085bd30da963ed847e6fd782a9521677430169a87c2b7b630",
                        "s" : "0x19f13a92f98dc4b4b07e58d7df862896595eb00e73e0b13e930c5d0cc7de412d",
                        "to" : "0x095e7baea6a6c7c4c2dfeb977efac326af552d87",
                        "v" : "0x1b",
                        "value" : "0x57cbfdd8"
                    }
                ],
                "uncleHeaders" : [
                ]
            }
        ],
        "genesisBlockHeader" : {
            "bloom" : "0x00000000000000000000000000000000000000000000000000000000000000000000000000000000000000000000000000000000000000000000000000000000000000000000000000000000000000000000000000000000000000000000000000000000000000000000000000000000000000000000000000000000000000000000000000000000000000000000000000000000000000000000000000000000000000000000000000000000000000000000000000000000000000000000000000000000000000000000000000000000000000000000000000000000000000000000000000000000000000000000000000000000000000000000000000000000",
            "coinbase" : "0x945304eb96065b2a98b57a48a06ae28d285a71b5",
            "difficulty" : "0x020000",
            "extraData" : "0x42",
            "gasLimit" : "0x7fffffffffffffff",
            "gasUsed" : "0x00",
            "hash" : "0xa8350477a60c8792887859543ccc5185c33d92594ce75de07caf2e28e8ee2d27",
            "mixHash" : "0x56e81f171bcc55a6ff8345e692c0f86e5b48e01b996cadc001622fb5e363b421",
            "nonce" : "0x0102030405060708",
            "number" : "0x00",
            "parentHash" : "0x0000000000000000000000000000000000000000000000000000000000000000",
            "receiptTrie" : "0x56e81f171bcc55a6ff8345e692c0f86e5b48e01b996cadc001622fb5e363b421",
            "stateRoot" : "0x97f79e05ce7620b04045aa55fbe2f15f62cdadfd82ce4f9666203dc10ca1d767",
            "timestamp" : "0x03b6",
            "transactionsTrie" : "0x56e81f171bcc55a6ff8345e692c0f86e5b48e01b996cadc001622fb5e363b421",
            "uncleHash" : "0x1dcc4de8dec75d7aab85b567b6ccd41ad312451b948a7413f0a142fd40d49347"
        },
        "genesisRLP" : "0xf901fff901faa00000000000000000000000000000000000000000000000000000000000000000a01dcc4de8dec75d7aab85b567b6ccd41ad312451b948a7413f0a142fd40d4934794945304eb96065b2a98b57a48a06ae28d285a71b5a097f79e05ce7620b04045aa55fbe2f15f62cdadfd82ce4f9666203dc10ca1d767a056e81f171bcc55a6ff8345e692c0f86e5b48e01b996cadc001622fb5e363b421a056e81f171bcc55a6ff8345e692c0f86e5b48e01b996cadc001622fb5e363b421b90100000000000000000000000000000000000000000000000000000000000000000000000000000000000000000000000000000000000000000000000000000000000000000000000000000000000000000000000000000000000000000000000000000000000000000000000000000000000000000000000000000000000000000000000000000000000000000000000000000000000000000000000000000000000000000000000000000000000000000000000000000000000000000000000000000000000000000000000000000000000000000000000000000000000000000000000000000000000000000000000000000000000000000000000000000000008302000080887fffffffffffffff808203b642a056e81f171bcc55a6ff8345e692c0f86e5b48e01b996cadc001622fb5e363b421880102030405060708c0c0",
        "lastblockhash" : "0x4c366b118aa07b61f1be1d6f0633d7788f7f3775b8623bcb6ac261fa0ad42775",
        "network" : "Istanbul",
        "postState" : {
            "0x095e7baea6a6c7c4c2dfeb977efac326af552d87" : {
                "balance" : "0x57cbfdd8",
                "code" : "0x7f000000000000000000000000ffffffffffffffffffffffffffffffffffffffff7f000000000000000000000000945304eb96065b2a98b57a48a06ae28d285a71b5067f0000000000000000000000000000000000000000000000000000000000000000407f000000000000000000000000000000000000000000000000000000000000c350427f00000000000000000000000000000000000000000000000000000000000000013a0960005155",
                "nonce" : "0x00",
                "storage" : {
                    "0x00" : "0x01"
                }
            },
            "0x945304eb96065b2a98b57a48a06ae28d285a71b5" : {
                "balance" : "0x1bc16d674ec8a5b7",
                "code" : "0x6000355415600957005b60203560003555",
                "nonce" : "0x00",
                "storage" : {
                }
            },
            "0xa94f5374fce5edbc8e2a8697c15331677e6ebf0b" : {
                "balance" : "0x0de0b6b34f975c9f",
                "code" : "",
                "nonce" : "0x01",
                "storage" : {
                }
            }
        },
        "pre" : {
            "0x095e7baea6a6c7c4c2dfeb977efac326af552d87" : {
                "balance" : "0x00",
                "code" : "0x7f000000000000000000000000ffffffffffffffffffffffffffffffffffffffff7f000000000000000000000000945304eb96065b2a98b57a48a06ae28d285a71b5067f0000000000000000000000000000000000000000000000000000000000000000407f000000000000000000000000000000000000000000000000000000000000c350427f00000000000000000000000000000000000000000000000000000000000000013a0960005155",
                "nonce" : "0x00",
                "storage" : {
                }
            },
            "0x945304eb96065b2a98b57a48a06ae28d285a71b5" : {
                "balance" : "0x2e",
                "code" : "0x6000355415600957005b60203560003555",
                "nonce" : "0x00",
                "storage" : {
                }
            },
            "0xa94f5374fce5edbc8e2a8697c15331677e6ebf0b" : {
                "balance" : "0x0de0b6b3a7640000",
                "code" : "",
                "nonce" : "0x00",
                "storage" : {
                }
            }
        },
        "sealEngine" : "NoProof"
    }
}