{
    "GasUsedHigherThanBlockGasLimitButNotWithRefundsSuicideFirst_Istanbul" : {
        "_info" : {
            "comment" : "",
            "filledwith" : "testeth 1.8.0-alpha.0-12+commit.b120a12c.dirty",
            "lllcversion" : "Version: 0.5.12-develop.2019.9.13+commit.2d601a4f.Linux.g++",
            "source" : "src/BlockchainTestsFiller/ValidBlocks/bcBlockGasLimitTest/GasUsedHigherThanBlockGasLimitButNotWithRefundsSuicideFirstFiller.json",
            "sourceHash" : "baaf2fd8552b738619fceef583e4abb5bceb236f9692876093ba8256a995e57c"
        },
        "blocks" : [
            {
                "blockHeader" : {
                    "bloom" : "0x00000000000000000000000000000000000000000000000000000000000000000000000000000000000000000000000000000000000000000000000000000000000000000000000000000000000000000000000000000000000000000000000000000000000000000000000000000000000000000000000000000000000000000000000000000000000000000000000000000000000000000000000000000000000000000000000000000000000000000000000000000000000000000000000000000000000000000000000000000000000000000000000000000000000000000000000000000000000000000000000000000000000000000000000000000000",
                    "coinbase" : "0x8888f1f195afa192cfee860698584c030f4c9db1",
                    "difficulty" : "0x020000",
                    "extraData" : "",
                    "gasLimit" : "0x023ec6",
                    "gasUsed" : "0x01f018",
                    "hash" : "0xa3790443a4e5dfbc509e5747b47273c503318c084f305ae3f9ff72050f501b0d",
                    "mixHash" : "0x0000000000000000000000000000000000000000000000000000000000000000",
                    "nonce" : "0x0000000000000000",
                    "number" : "0x01",
                    "parentHash" : "0xce1f26f798dd03c8782d63b3e42e79a64eaea5694ea686ac5d7ce3df5171d1ae",
                    "receiptTrie" : "0x6048bfb1f097f5e603ac7705ea650976ec8ed67bfebc284d2a3abe30d2af5e47",
                    "stateRoot" : "0x95976b0bc41514d7aee91ad360666b960dfd9b932a8caa8b61e8e43b9cfdf0e4",
                    "timestamp" : "0x5db72f5a",
                    "transactionsTrie" : "0x50f0f01320e78f4ea013368304ca412fd36cb758cd051a717378cc8dd18b871b",
                    "uncleHash" : "0x1dcc4de8dec75d7aab85b567b6ccd41ad312451b948a7413f0a142fd40d49347"
                },
                "rlp" : "0xf90447f901faa0ce1f26f798dd03c8782d63b3e42e79a64eaea5694ea686ac5d7ce3df5171d1aea01dcc4de8dec75d7aab85b567b6ccd41ad312451b948a7413f0a142fd40d49347948888f1f195afa192cfee860698584c030f4c9db1a095976b0bc41514d7aee91ad360666b960dfd9b932a8caa8b61e8e43b9cfdf0e4a050f0f01320e78f4ea013368304ca412fd36cb758cd051a717378cc8dd18b871ba06048bfb1f097f5e603ac7705ea650976ec8ed67bfebc284d2a3abe30d2af5e47b9010000000000000000000000000000000000000000000000000000000000000000000000000000000000000000000000000000000000000000000000000000000000000000000000000000000000000000000000000000000000000000000000000000000000000000000000000000000000000000000000000000000000000000000000000000000000000000000000000000000000000000000000000000000000000000000000000000000000000000000000000000000000000000000000000000000000000000000000000000000000000000000000000000000000000000000000000000000000000000000000000000000000000000000000000000000000830200000183023ec68301f018845db72f5a80a00000000000000000000000000000000000000000000000000000000000000000880000000000000000f90246f85f800a8255f094aaaf5374fce5edbc8e2a8697c15331677e6ebf0b0a801ca0575da4e21b66fa764be5f74da9389e67693d066fb0d1312e19e17e501da00ecda06baf5a5327595f6619dfc2fcb3f2e6fb410b5810af3cb52d0e7508038e91a188f85f010a82520894bbbf5374fce5edbc8e2a8697c15331677e6ebf0b0a801ba04fa966bf34b93abc1bcd665554b7f316b50f928477b50be0f3285ead29d18c5ba017bba0eeec1625ab433746955e125d46d80b7fdc97386c51266f842d8e02192ef85f020a82520894bbbf5374fce5edbc8e2a8697c15331677e6ebf0b0a801ca004377418ae981cc32b1312b4a427a1d69a821b28db8584f5f2bd8c6d42458adaa053a1dba1af177fac92f3b6af0a9fa46a22adf56e686c93794b6a012bf254abf5f85f030a82520894bbbf5374fce5edbc8e2a8697c15331677e6ebf0b0a801ca04fe13febd28a05f4fcb2f451d7ddc2dda56486d9f8c79a62b0ba4da775122615a0651b2382dd402df9ebc27f8cb4b2e0f3cea68dda2dca0ee9603608f0b6f51668f85f040a82520894bbbf5374fce5edbc8e2a8697c15331677e6ebf0b0a801ba078e6a0ba086a08f8450e208a399bb2f2d2a0d984acd2517c7c7df66ccfab567da013254002cd45a97fac049ae00afbc43ed0d9961d0c56a3b2382c80ce41c198ddf85f050a82520894bbbf5374fce5edbc8e2a8697c15331677e6ebf0b0a801ba0a7174d8f43ea71c8e3ca9477691add8d80ac8e0ed89d8d8b572041eef81f4a54a0534ea2e28ec4da3b5b944b18c51ec84a5cf35f5b3343c5fb86521fd2d388f506c0",
                "transactions" : [
                    {
                        "data" : "0x",
                        "gasLimit" : "0x55f0",
                        "gasPrice" : "0x0a",
                        "nonce" : "0x00",
                        "r" : "0x575da4e21b66fa764be5f74da9389e67693d066fb0d1312e19e17e501da00ecd",
                        "s" : "0x6baf5a5327595f6619dfc2fcb3f2e6fb410b5810af3cb52d0e7508038e91a188",
                        "to" : "0xaaaf5374fce5edbc8e2a8697c15331677e6ebf0b",
                        "v" : "0x1c",
                        "value" : "0x0a"
                    },
                    {
                        "data" : "0x",
                        "gasLimit" : "0x5208",
                        "gasPrice" : "0x0a",
                        "nonce" : "0x01",
                        "r" : "0x4fa966bf34b93abc1bcd665554b7f316b50f928477b50be0f3285ead29d18c5b",
                        "s" : "0x17bba0eeec1625ab433746955e125d46d80b7fdc97386c51266f842d8e02192e",
                        "to" : "0xbbbf5374fce5edbc8e2a8697c15331677e6ebf0b",
                        "v" : "0x1b",
                        "value" : "0x0a"
                    },
                    {
                        "data" : "0x",
                        "gasLimit" : "0x5208",
                        "gasPrice" : "0x0a",
                        "nonce" : "0x02",
                        "r" : "0x04377418ae981cc32b1312b4a427a1d69a821b28db8584f5f2bd8c6d42458ada",
                        "s" : "0x53a1dba1af177fac92f3b6af0a9fa46a22adf56e686c93794b6a012bf254abf5",
                        "to" : "0xbbbf5374fce5edbc8e2a8697c15331677e6ebf0b",
                        "v" : "0x1c",
                        "value" : "0x0a"
                    },
                    {
                        "data" : "0x",
                        "gasLimit" : "0x5208",
                        "gasPrice" : "0x0a",
                        "nonce" : "0x03",
                        "r" : "0x4fe13febd28a05f4fcb2f451d7ddc2dda56486d9f8c79a62b0ba4da775122615",
                        "s" : "0x651b2382dd402df9ebc27f8cb4b2e0f3cea68dda2dca0ee9603608f0b6f51668",
                        "to" : "0xbbbf5374fce5edbc8e2a8697c15331677e6ebf0b",
                        "v" : "0x1c",
                        "value" : "0x0a"
                    },
                    {
                        "data" : "0x",
                        "gasLimit" : "0x5208",
                        "gasPrice" : "0x0a",
                        "nonce" : "0x04",
                        "r" : "0x78e6a0ba086a08f8450e208a399bb2f2d2a0d984acd2517c7c7df66ccfab567d",
                        "s" : "0x13254002cd45a97fac049ae00afbc43ed0d9961d0c56a3b2382c80ce41c198dd",
                        "to" : "0xbbbf5374fce5edbc8e2a8697c15331677e6ebf0b",
                        "v" : "0x1b",
                        "value" : "0x0a"
                    },
                    {
                        "data" : "0x",
                        "gasLimit" : "0x5208",
                        "gasPrice" : "0x0a",
                        "nonce" : "0x05",
                        "r" : "0xa7174d8f43ea71c8e3ca9477691add8d80ac8e0ed89d8d8b572041eef81f4a54",
                        "s" : "0x534ea2e28ec4da3b5b944b18c51ec84a5cf35f5b3343c5fb86521fd2d388f506",
                        "to" : "0xbbbf5374fce5edbc8e2a8697c15331677e6ebf0b",
                        "v" : "0x1b",
                        "value" : "0x0a"
                    }
                ],
                "uncleHeaders" : [
                ]
            }
        ],
        "genesisBlockHeader" : {
            "bloom" : "0x00000000000000000000000000000000000000000000000000000000000000000000000000000000000000000000000000000000000000000000000000000000000000000000000000000000000000000000000000000000000000000000000000000000000000000000000000000000000000000000000000000000000000000000000000000000000000000000000000000000000000000000000000000000000000000000000000000000000000000000000000000000000000000000000000000000000000000000000000000000000000000000000000000000000000000000000000000000000000000000000000000000000000000000000000000000",
            "coinbase" : "0x8888f1f195afa192cfee860698584c030f4c9db1",
            "difficulty" : "0x020000",
            "extraData" : "0x42",
            "gasLimit" : "0x023e38",
            "gasUsed" : "0x00",
            "hash" : "0xce1f26f798dd03c8782d63b3e42e79a64eaea5694ea686ac5d7ce3df5171d1ae",
            "mixHash" : "0x56e81f171bcc55a6ff8345e692c0f86e5b48e01b996cadc001622fb5e363b421",
            "nonce" : "0x0102030405060708",
            "number" : "0x00",
            "parentHash" : "0x0000000000000000000000000000000000000000000000000000000000000000",
            "receiptTrie" : "0x56e81f171bcc55a6ff8345e692c0f86e5b48e01b996cadc001622fb5e363b421",
            "stateRoot" : "0xaf81e09f8c46ca322193edfda764fa7e88e81923f802f1d325ec0b0308ac2cd0",
            "timestamp" : "0x54c98c81",
            "transactionsTrie" : "0x56e81f171bcc55a6ff8345e692c0f86e5b48e01b996cadc001622fb5e363b421",
            "uncleHash" : "0x1dcc4de8dec75d7aab85b567b6ccd41ad312451b948a7413f0a142fd40d49347"
        },
        "genesisRLP" : "0xf901fcf901f7a00000000000000000000000000000000000000000000000000000000000000000a01dcc4de8dec75d7aab85b567b6ccd41ad312451b948a7413f0a142fd40d49347948888f1f195afa192cfee860698584c030f4c9db1a0af81e09f8c46ca322193edfda764fa7e88e81923f802f1d325ec0b0308ac2cd0a056e81f171bcc55a6ff8345e692c0f86e5b48e01b996cadc001622fb5e363b421a056e81f171bcc55a6ff8345e692c0f86e5b48e01b996cadc001622fb5e363b421b9010000000000000000000000000000000000000000000000000000000000000000000000000000000000000000000000000000000000000000000000000000000000000000000000000000000000000000000000000000000000000000000000000000000000000000000000000000000000000000000000000000000000000000000000000000000000000000000000000000000000000000000000000000000000000000000000000000000000000000000000000000000000000000000000000000000000000000000000000000000000000000000000000000000000000000000000000000000000000000000000000000000000000000000000000000000000830200008083023e38808454c98c8142a056e81f171bcc55a6ff8345e692c0f86e5b48e01b996cadc001622fb5e363b421880102030405060708c0c0",
        "lastblockhash" : "0xa3790443a4e5dfbc509e5747b47273c503318c084f305ae3f9ff72050f501b0d",
        "network" : "Istanbul",
        "postState" : {
            "0x8888f1f195afa192cfee860698584c030f4c9db1" : {
                "balance" : "0x1bc16d674edb60f0",
                "code" : "",
                "nonce" : "0x00",
                "storage" : {
                }
            },
            "0xa94f5374fce5edbc8e2a8697c15331677e6ebf0b" : {
                "balance" : "0x4a723dc6b40b8a99ec9ede",
                "code" : "",
                "nonce" : "0x06",
                "storage" : {
                }
            },
            "0xaaaf5374fce5edbc8e2a8697c15331677e6ebf0b" : {
                "balance" : "0x02540be400",
                "code" : "0x73a94f5374fce5edbc8e2a8697c15331677e6ebf0bff",
                "nonce" : "0x00",
                "storage" : {
                }
            },
            "0xbbbf5374fce5edbc8e2a8697c15331677e6ebf0b" : {
                "balance" : "0x32",
                "code" : "",
                "nonce" : "0x00",
                "storage" : {
                }
            }
        },
        "pre" : {
            "0xa94f5374fce5edbc8e2a8697c15331677e6ebf0b" : {
                "balance" : "0x4a723dc6b40b8a9a000000",
                "code" : "",
                "nonce" : "0x00",
                "storage" : {
                }
            },
            "0xaaaf5374fce5edbc8e2a8697c15331677e6ebf0b" : {
                "balance" : "0x02540be400",
                "code" : "0x73a94f5374fce5edbc8e2a8697c15331677e6ebf0bff",
                "nonce" : "0x00",
                "storage" : {
                }
            }
        },
        "sealEngine" : "NoProof"
    }
}