{
    "TransactionGasHigherThanLimit2p63m1_2_Istanbul" : {
        "_info" : {
            "comment" : "",
            "filling-rpc-server" : "Geth-1.9.11-unstable-a382d783-20200127",
            "filling-tool-version" : "retesteth-0.0.2+commit.e8723140.Linux.g++",
            "lllcversion" : "Version: 0.5.14-develop.2019.11.27+commit.8f259595.Linux.g++",
            "source" : "src/BlockchainTestsFiller/ValidBlocks/bcBlockGasLimitTest/TransactionGasHigherThanLimit2p63m1_2Filler.json",
            "sourceHash" : "20eeaf6f2368bbcb6ed598054bb817772345e32f3ad9d5e552ab4a4b9af01cc9"
        },
        "sealEngine" : "NoProof",
        "network" : "Istanbul",
        "pre" : {
            "0xa94f5374fce5edbc8e2a8697c15331677e6ebf0b" : {
                "balance" : "0x4a723dc6b40b8a9a000000",
                "code" : "0x",
                "nonce" : "0x00",
                "storage" : {
                }
            },
            "0xaaaf5374fce5edbc8e2a8697c15331677e6ebf0b" : {
                "balance" : "0x00",
                "code" : "0x",
                "nonce" : "0x00",
                "storage" : {
                }
            }
        },
        "genesisBlockHeader" : {
            "bloom" : "0x00000000000000000000000000000000000000000000000000000000000000000000000000000000000000000000000000000000000000000000000000000000000000000000000000000000000000000000000000000000000000000000000000000000000000000000000000000000000000000000000000000000000000000000000000000000000000000000000000000000000000000000000000000000000000000000000000000000000000000000000000000000000000000000000000000000000000000000000000000000000000000000000000000000000000000000000000000000000000000000000000000000000000000000000000000000",
            "coinbase" : "0x8888f1f195afa192cfee860698584c030f4c9db1",
            "difficulty" : "0x020000",
            "extraData" : "0x42",
            "gasLimit" : "0x7fffffffffffffff",
            "gasUsed" : "0x00",
            "hash" : "0x28f2ddab5d8edf0133a1ca2c1114c69ea03047453ff660d186304a180c534e38",
            "mixHash" : "0x0000000000000000000000000000000000000000000000000000000000000000",
            "nonce" : "0x0000000000000000",
            "number" : "0x00",
            "parentHash" : "0x0000000000000000000000000000000000000000000000000000000000000000",
            "receiptTrie" : "0x56e81f171bcc55a6ff8345e692c0f86e5b48e01b996cadc001622fb5e363b421",
            "stateRoot" : "0x767083c42d099d13254c2287c98e48b8582c223795f44e04fd93083b6729d3b8",
            "timestamp" : "0x54c98c81",
            "transactionsTrie" : "0x56e81f171bcc55a6ff8345e692c0f86e5b48e01b996cadc001622fb5e363b421",
            "uncleHash" : "0x1dcc4de8dec75d7aab85b567b6ccd41ad312451b948a7413f0a142fd40d49347"
        },
        "genesisRLP" : "0xf90201f901fca00000000000000000000000000000000000000000000000000000000000000000a01dcc4de8dec75d7aab85b567b6ccd41ad312451b948a7413f0a142fd40d49347948888f1f195afa192cfee860698584c030f4c9db1a0767083c42d099d13254c2287c98e48b8582c223795f44e04fd93083b6729d3b8a056e81f171bcc55a6ff8345e692c0f86e5b48e01b996cadc001622fb5e363b421a056e81f171bcc55a6ff8345e692c0f86e5b48e01b996cadc001622fb5e363b421b90100000000000000000000000000000000000000000000000000000000000000000000000000000000000000000000000000000000000000000000000000000000000000000000000000000000000000000000000000000000000000000000000000000000000000000000000000000000000000000000000000000000000000000000000000000000000000000000000000000000000000000000000000000000000000000000000000000000000000000000000000000000000000000000000000000000000000000000000000000000000000000000000000000000000000000000000000000000000000000000000000000000000000000000000000000000008302000080887fffffffffffffff808454c98c8142a00000000000000000000000000000000000000000000000000000000000000000880000000000000000c0c0",
        "blocks" : [
            {
                "chainname" : "default",
                "blocknumber" : "1",
                "uncleHeaders" : [
                ],
                "blockHeader" : {
                    "bloom" : "0x00000000000000000000000000000000000000000000000000000000000000000000000000000000000000000000000000000000000000000000000000000000000000000000000000000000000000000000000000000000000000000000000000000000000000000000000000000000000000000000000000000000000000000000000000000000000000000000000000000000000000000000000000000000000000000000000000000000000000000000000000000000000000000000000000000000000000000000000000000000000000000000000000000000000000000000000000000000000000000000000000000000000000000000000000000000",
                    "coinbase" : "0x8888f1f195afa192cfee860698584c030f4c9db1",
                    "difficulty" : "0x020000",
                    "extraData" : "0x42",
                    "gasLimit" : "0x7fffffffffffffff",
                    "gasUsed" : "0x01ec30",
                    "hash" : "0xb76c6062bb81e292562883ac3dad6960a049b754806ea45143f9a2b20bc002e1",
                    "mixHash" : "0x0000000000000000000000000000000000000000000000000000000000000000",
                    "nonce" : "0x0000000000000000",
                    "number" : "0x01",
                    "parentHash" : "0x28f2ddab5d8edf0133a1ca2c1114c69ea03047453ff660d186304a180c534e38",
                    "receiptTrie" : "0x920700c34e8d1d2d631eaaff52b71c1d8a632199b7c1fad316cb836dee972a46",
                    "stateRoot" : "0x6adc4f3eb51a7b986586ff4bc5722f4ffd0dfa81772057ef892841b38b35dc4d",
                    "timestamp" : "0x54c99069",
                    "transactionsTrie" : "0xc45c4dc099331cc61cf8c204710a49ad306d1b6d257664546dcdb46e170b1ae9",
                    "uncleHash" : "0x1dcc4de8dec75d7aab85b567b6ccd41ad312451b948a7413f0a142fd40d49347"
                },
                "transactions" : [
                    {
                        "data" : "0x",
                        "gasLimit" : "0x1999999999999999",
                        "gasPrice" : "0x01",
                        "nonce" : "0x00",
                        "r" : "0xdf5d0632b59c0915bb2c8a1081079c5b5212ee9bc385b9a5fb0f404138e1a831",
                        "s" : "0x085372f166d3998bd72c039dafe8aedc8b63cfeba47d46d43bea2dc6d3607405",
                        "to" : "0xaaaf5374fce5edbc8e2a8697c15331677e6ebf0b",
                        "v" : "0x1c",
                        "value" : "0x0a"
                    },
                    {
                        "data" : "0x",
                        "gasLimit" : "0x1999999999999999",
                        "gasPrice" : "0x01",
                        "nonce" : "0x01",
                        "r" : "0x59cb5229c8bfb34819a33b53e80c26083af44f5784687bb134cee74a3aed4a3b",
                        "s" : "0x2303217823e836207bc67b9379610c4a459b9fc0da109a0d408b9d98c9cbcdfe",
                        "to" : "0xaaaf5374fce5edbc8e2a8697c15331677e6ebf0b",
                        "v" : "0x1c",
                        "value" : "0x0a"
                    },
                    {
                        "data" : "0x",
                        "gasLimit" : "0x1999999999999999",
                        "gasPrice" : "0x01",
                        "nonce" : "0x02",
                        "r" : "0x76971929e38536c58ed5bf1f49e26ae435cc8881c0171d4f266a1b4255f1c5ed",
                        "s" : "0x28cfd37e3f797763e7f1e5c92cfb400ac1e205bfa35ce4cd817b7fbbfe35078f",
                        "to" : "0xaaaf5374fce5edbc8e2a8697c15331677e6ebf0b",
                        "v" : "0x1c",
                        "value" : "0x0a"
                    },
                    {
                        "data" : "0x",
                        "gasLimit" : "0x1999999999999999",
                        "gasPrice" : "0x01",
                        "nonce" : "0x03",
                        "r" : "0x35f347f27d3ac6f6b184405af2a6a841e1cef0a6a4f12b596365c8d8f80ede81",
                        "s" : "0x7e977183171ccb395289f497490a9991ac764aec5ec6ba37670105a2f487d44a",
                        "to" : "0xaaaf5374fce5edbc8e2a8697c15331677e6ebf0b",
                        "v" : "0x1b",
                        "value" : "0x0a"
                    },
                    {
                        "data" : "0x",
                        "gasLimit" : "0x1999999999999999",
                        "gasPrice" : "0x01",
                        "nonce" : "0x04",
                        "r" : "0x9008a65a4144fc7bf31d258afc44b4b8f2e59253966bf7fc559254382ed43e85",
                        "s" : "0x718816ce877687e410786f10e93b0fdb245156cade9ef521ae692ccccefa5b98",
                        "to" : "0xaaaf5374fce5edbc8e2a8697c15331677e6ebf0b",
                        "v" : "0x1c",
                        "value" : "0x0a"
                    },
                    {
                        "data" : "0x",
                        "gasLimit" : "0x5208",
                        "gasPrice" : "0x01",
                        "nonce" : "0x05",
                        "r" : "0x5b2e518d97c6af3dd31e18edd88095483d2eeb7fac61852aeecdb28b5e18e434",
                        "s" : "0x648f93518a7c602d17e434916e659cb4f1f1f8f1474fc6b3c1ec6aa7ab5a3bda",
                        "to" : "0xaaaf5374fce5edbc8e2a8697c15331677e6ebf0b",
                        "v" : "0x1b",
                        "value" : "0x0a"
                    }
                ],
                "rlp" : "0xf9046af901ffa028f2ddab5d8edf0133a1ca2c1114c69ea03047453ff660d186304a180c534e38a01dcc4de8dec75d7aab85b567b6ccd41ad312451b948a7413f0a142fd40d49347948888f1f195afa192cfee860698584c030f4c9db1a06adc4f3eb51a7b986586ff4bc5722f4ffd0dfa81772057ef892841b38b35dc4da0c45c4dc099331cc61cf8c204710a49ad306d1b6d257664546dcdb46e170b1ae9a0920700c34e8d1d2d631eaaff52b71c1d8a632199b7c1fad316cb836dee972a46b90100000000000000000000000000000000000000000000000000000000000000000000000000000000000000000000000000000000000000000000000000000000000000000000000000000000000000000000000000000000000000000000000000000000000000000000000000000000000000000000000000000000000000000000000000000000000000000000000000000000000000000000000000000000000000000000000000000000000000000000000000000000000000000000000000000000000000000000000000000000000000000000000000000000000000000000000000000000000000000000000000000000000000000000000000000000008302000001887fffffffffffffff8301ec308454c9906942a00000000000000000000000000000000000000000000000000000000000000000880000000000000000f90264f865800188199999999999999994aaaf5374fce5edbc8e2a8697c15331677e6ebf0b0a801ca0df5d0632b59c0915bb2c8a1081079c5b5212ee9bc385b9a5fb0f404138e1a831a0085372f166d3998bd72c039dafe8aedc8b63cfeba47d46d43bea2dc6d3607405f865010188199999999999999994aaaf5374fce5edbc8e2a8697c15331677e6ebf0b0a801ca059cb5229c8bfb34819a33b53e80c26083af44f5784687bb134cee74a3aed4a3ba02303217823e836207bc67b9379610c4a459b9fc0da109a0d408b9d98c9cbcdfef865020188199999999999999994aaaf5374fce5edbc8e2a8697c15331677e6ebf0b0a801ca076971929e38536c58ed5bf1f49e26ae435cc8881c0171d4f266a1b4255f1c5eda028cfd37e3f797763e7f1e5c92cfb400ac1e205bfa35ce4cd817b7fbbfe35078ff865030188199999999999999994aaaf5374fce5edbc8e2a8697c15331677e6ebf0b0a801ba035f347f27d3ac6f6b184405af2a6a841e1cef0a6a4f12b596365c8d8f80ede81a07e977183171ccb395289f497490a9991ac764aec5ec6ba37670105a2f487d44af865040188199999999999999994aaaf5374fce5edbc8e2a8697c15331677e6ebf0b0a801ca09008a65a4144fc7bf31d258afc44b4b8f2e59253966bf7fc559254382ed43e85a0718816ce877687e410786f10e93b0fdb245156cade9ef521ae692ccccefa5b98f85f050182520894aaaf5374fce5edbc8e2a8697c15331677e6ebf0b0a801ba05b2e518d97c6af3dd31e18edd88095483d2eeb7fac61852aeecdb28b5e18e434a0648f93518a7c602d17e434916e659cb4f1f1f8f1474fc6b3c1ec6aa7ab5a3bdac0"
            }
        ],
        "postState" : {
            "0xa94f5374fce5edbc8e2a8697c15331677e6ebf0b" : {
                "code" : "0x",
                "nonce" : "0x06",
                "balance" : "0x4a723dc6b40b8a99fe1394",
                "storage" : {
                }
            },
            "0x8888f1f195afa192cfee860698584c030f4c9db1" : {
                "code" : "0x",
                "nonce" : "0x00",
                "balance" : "0x1bc16d674ec9ec30",
                "storage" : {
                }
            },
            "0xaaaf5374fce5edbc8e2a8697c15331677e6ebf0b" : {
                "code" : "0x",
                "nonce" : "0x00",
                "balance" : "0x3c",
                "storage" : {
                }
            }
        },
        "lastblockhash" : "0xb76c6062bb81e292562883ac3dad6960a049b754806ea45143f9a2b20bc002e1"
    }
}