{
    "TransactionGasHigherThanLimit2p63m1_Istanbul" : {
        "_info" : {
            "comment" : "",
            "filling-rpc-server" : "Geth-1.9.11-unstable-a382d783-20200127",
            "filling-tool-version" : "retesteth-0.0.2+commit.e8723140.Linux.g++",
            "lllcversion" : "Version: 0.5.14-develop.2019.11.27+commit.8f259595.Linux.g++",
            "source" : "src/BlockchainTestsFiller/ValidBlocks/bcBlockGasLimitTest/TransactionGasHigherThanLimit2p63m1Filler.json",
            "sourceHash" : "c96bd487a4bee35bfd80c0a557165915f338404bb2b6dcc4ad21261348d78fdd"
        },
        "sealEngine" : "NoProof",
        "network" : "Istanbul",
        "pre" : {
            "0xa94f5374fce5edbc8e2a8697c15331677e6ebf0b" : {
                "balance" : "0x4a723dc6b40b8a9a000000",
                "code" : "0x",
                "nonce" : "0x00",
                "storage" : {
                }
            },
            "0xaaaf5374fce5edbc8e2a8697c15331677e6ebf0b" : {
                "balance" : "0x00",
                "code" : "0x",
                "nonce" : "0x00",
                "storage" : {
                }
            }
        },
        "genesisBlockHeader" : {
            "bloom" : "0x00000000000000000000000000000000000000000000000000000000000000000000000000000000000000000000000000000000000000000000000000000000000000000000000000000000000000000000000000000000000000000000000000000000000000000000000000000000000000000000000000000000000000000000000000000000000000000000000000000000000000000000000000000000000000000000000000000000000000000000000000000000000000000000000000000000000000000000000000000000000000000000000000000000000000000000000000000000000000000000000000000000000000000000000000000000",
            "coinbase" : "0x8888f1f195afa192cfee860698584c030f4c9db1",
            "difficulty" : "0x020000",
            "extraData" : "0x42",
            "gasLimit" : "0x7fffffffffffffff",
            "gasUsed" : "0x00",
            "hash" : "0x28f2ddab5d8edf0133a1ca2c1114c69ea03047453ff660d186304a180c534e38",
            "mixHash" : "0x0000000000000000000000000000000000000000000000000000000000000000",
            "nonce" : "0x0000000000000000",
            "number" : "0x00",
            "parentHash" : "0x0000000000000000000000000000000000000000000000000000000000000000",
            "receiptTrie" : "0x56e81f171bcc55a6ff8345e692c0f86e5b48e01b996cadc001622fb5e363b421",
            "stateRoot" : "0x767083c42d099d13254c2287c98e48b8582c223795f44e04fd93083b6729d3b8",
            "timestamp" : "0x54c98c81",
            "transactionsTrie" : "0x56e81f171bcc55a6ff8345e692c0f86e5b48e01b996cadc001622fb5e363b421",
            "uncleHash" : "0x1dcc4de8dec75d7aab85b567b6ccd41ad312451b948a7413f0a142fd40d49347"
        },
        "genesisRLP" : "0xf90201f901fca00000000000000000000000000000000000000000000000000000000000000000a01dcc4de8dec75d7aab85b567b6ccd41ad312451b948a7413f0a142fd40d49347948888f1f195afa192cfee860698584c030f4c9db1a0767083c42d099d13254c2287c98e48b8582c223795f44e04fd93083b6729d3b8a056e81f171bcc55a6ff8345e692c0f86e5b48e01b996cadc001622fb5e363b421a056e81f171bcc55a6ff8345e692c0f86e5b48e01b996cadc001622fb5e363b421b90100000000000000000000000000000000000000000000000000000000000000000000000000000000000000000000000000000000000000000000000000000000000000000000000000000000000000000000000000000000000000000000000000000000000000000000000000000000000000000000000000000000000000000000000000000000000000000000000000000000000000000000000000000000000000000000000000000000000000000000000000000000000000000000000000000000000000000000000000000000000000000000000000000000000000000000000000000000000000000000000000000000000000000000000000000000008302000080887fffffffffffffff808454c98c8142a00000000000000000000000000000000000000000000000000000000000000000880000000000000000c0c0",
        "blocks" : [
            {
                "chainname" : "default",
                "blocknumber" : "1",
                "uncleHeaders" : [
                ],
                "blockHeader" : {
                    "bloom" : "0x00000000000000000000000000000000000000000000000000000000000000000000000000000000000000000000000000000000000000000000000000000000000000000000000000000000000000000000000000000000000000000000000000000000000000000000000000000000000000000000000000000000000000000000000000000000000000000000000000000000000000000000000000000000000000000000000000000000000000000000000000000000000000000000000000000000000000000000000000000000000000000000000000000000000000000000000000000000000000000000000000000000000000000000000000000000",
                    "coinbase" : "0x8888f1f195afa192cfee860698584c030f4c9db1",
                    "difficulty" : "0x020000",
                    "extraData" : "0x42",
                    "gasLimit" : "0x7fffffffffffffff",
                    "gasUsed" : "0x023e38",
                    "hash" : "0x22e33cb8b835cd44793111a5ce38e896b07db34fbe3788bd693a193cb4e9e44d",
                    "mixHash" : "0x0000000000000000000000000000000000000000000000000000000000000000",
                    "nonce" : "0x0000000000000000",
                    "number" : "0x01",
                    "parentHash" : "0x28f2ddab5d8edf0133a1ca2c1114c69ea03047453ff660d186304a180c534e38",
                    "receiptTrie" : "0x3b20ef68d6c58564b0864d53956edaa113c0f0bcae99d5f2b2797cc020a9ab37",
                    "stateRoot" : "0x60f3e59e3fc082c6a8cc9c6f2565a76aa0b48a8a48b6bcfc9086005cf288a037",
                    "timestamp" : "0x54c99069",
                    "transactionsTrie" : "0x949047d6d8b4b973a0c820d1f41f905f1593bfb4ae777b89351a1d0af0e623eb",
                    "uncleHash" : "0x1dcc4de8dec75d7aab85b567b6ccd41ad312451b948a7413f0a142fd40d49347"
                },
                "transactions" : [
                    {
                        "data" : "0x",
                        "gasLimit" : "0x1999999999999999",
                        "gasPrice" : "0x01",
                        "nonce" : "0x00",
                        "r" : "0xdf5d0632b59c0915bb2c8a1081079c5b5212ee9bc385b9a5fb0f404138e1a831",
                        "s" : "0x085372f166d3998bd72c039dafe8aedc8b63cfeba47d46d43bea2dc6d3607405",
                        "to" : "0xaaaf5374fce5edbc8e2a8697c15331677e6ebf0b",
                        "v" : "0x1c",
                        "value" : "0x0a"
                    },
                    {
                        "data" : "0x",
                        "gasLimit" : "0x1999999999999999",
                        "gasPrice" : "0x01",
                        "nonce" : "0x01",
                        "r" : "0x59cb5229c8bfb34819a33b53e80c26083af44f5784687bb134cee74a3aed4a3b",
                        "s" : "0x2303217823e836207bc67b9379610c4a459b9fc0da109a0d408b9d98c9cbcdfe",
                        "to" : "0xaaaf5374fce5edbc8e2a8697c15331677e6ebf0b",
                        "v" : "0x1c",
                        "value" : "0x0a"
                    },
                    {
                        "data" : "0x",
                        "gasLimit" : "0x1999999999999999",
                        "gasPrice" : "0x01",
                        "nonce" : "0x02",
                        "r" : "0x76971929e38536c58ed5bf1f49e26ae435cc8881c0171d4f266a1b4255f1c5ed",
                        "s" : "0x28cfd37e3f797763e7f1e5c92cfb400ac1e205bfa35ce4cd817b7fbbfe35078f",
                        "to" : "0xaaaf5374fce5edbc8e2a8697c15331677e6ebf0b",
                        "v" : "0x1c",
                        "value" : "0x0a"
                    },
                    {
                        "data" : "0x",
                        "gasLimit" : "0x1999999999999999",
                        "gasPrice" : "0x01",
                        "nonce" : "0x03",
                        "r" : "0x35f347f27d3ac6f6b184405af2a6a841e1cef0a6a4f12b596365c8d8f80ede81",
                        "s" : "0x7e977183171ccb395289f497490a9991ac764aec5ec6ba37670105a2f487d44a",
                        "to" : "0xaaaf5374fce5edbc8e2a8697c15331677e6ebf0b",
                        "v" : "0x1b",
                        "value" : "0x0a"
                    },
                    {
                        "data" : "0x",
                        "gasLimit" : "0x1999999999999999",
                        "gasPrice" : "0x01",
                        "nonce" : "0x04",
                        "r" : "0x9008a65a4144fc7bf31d258afc44b4b8f2e59253966bf7fc559254382ed43e85",
                        "s" : "0x718816ce877687e410786f10e93b0fdb245156cade9ef521ae692ccccefa5b98",
                        "to" : "0xaaaf5374fce5edbc8e2a8697c15331677e6ebf0b",
                        "v" : "0x1c",
                        "value" : "0x0a"
                    },
                    {
                        "data" : "0x",
                        "gasLimit" : "0x1999999999999999",
                        "gasPrice" : "0x01",
                        "nonce" : "0x05",
                        "r" : "0xf6e21ff7a32b8f5adfe26eb3cdd37658d9bf8e73a214f5fabc7c9a784c413716",
                        "s" : "0x4592b7059c104531930d156849d70f1302d341f6917e08c8001dee0f564e5358",
                        "to" : "0xaaaf5374fce5edbc8e2a8697c15331677e6ebf0b",
                        "v" : "0x1b",
                        "value" : "0x0a"
                    },
                    {
                        "data" : "0x",
                        "gasLimit" : "0x989680",
                        "gasPrice" : "0x01",
                        "nonce" : "0x06",
                        "r" : "0x5bc5ac2099c61aad9d034032957b8b363a7181af65c70427ba3141b069bfc7d2",
                        "s" : "0x745a350d605ced8bc9f5b8e09ef14aef6af09bf0e35fcddb6f8ea80147855f5a",
                        "to" : "0xaaaf5374fce5edbc8e2a8697c15331677e6ebf0b",
                        "v" : "0x1c",
                        "value" : "0x0a"
                    }
                ],
                "rlp" : "0xf904d2f901ffa028f2ddab5d8edf0133a1ca2c1114c69ea03047453ff660d186304a180c534e38a01dcc4de8dec75d7aab85b567b6ccd41ad312451b948a7413f0a142fd40d49347948888f1f195afa192cfee860698584c030f4c9db1a060f3e59e3fc082c6a8cc9c6f2565a76aa0b48a8a48b6bcfc9086005cf288a037a0949047d6d8b4b973a0c820d1f41f905f1593bfb4ae777b89351a1d0af0e623eba03b20ef68d6c58564b0864d53956edaa113c0f0bcae99d5f2b2797cc020a9ab37b90100000000000000000000000000000000000000000000000000000000000000000000000000000000000000000000000000000000000000000000000000000000000000000000000000000000000000000000000000000000000000000000000000000000000000000000000000000000000000000000000000000000000000000000000000000000000000000000000000000000000000000000000000000000000000000000000000000000000000000000000000000000000000000000000000000000000000000000000000000000000000000000000000000000000000000000000000000000000000000000000000000000000000000000000000000000008302000001887fffffffffffffff83023e388454c9906942a00000000000000000000000000000000000000000000000000000000000000000880000000000000000f902ccf865800188199999999999999994aaaf5374fce5edbc8e2a8697c15331677e6ebf0b0a801ca0df5d0632b59c0915bb2c8a1081079c5b5212ee9bc385b9a5fb0f404138e1a831a0085372f166d3998bd72c039dafe8aedc8b63cfeba47d46d43bea2dc6d3607405f865010188199999999999999994aaaf5374fce5edbc8e2a8697c15331677e6ebf0b0a801ca059cb5229c8bfb34819a33b53e80c26083af44f5784687bb134cee74a3aed4a3ba02303217823e836207bc67b9379610c4a459b9fc0da109a0d408b9d98c9cbcdfef865020188199999999999999994aaaf5374fce5edbc8e2a8697c15331677e6ebf0b0a801ca076971929e38536c58ed5bf1f49e26ae435cc8881c0171d4f266a1b4255f1c5eda028cfd37e3f797763e7f1e5c92cfb400ac1e205bfa35ce4cd817b7fbbfe35078ff865030188199999999999999994aaaf5374fce5edbc8e2a8697c15331677e6ebf0b0a801ba035f347f27d3ac6f6b184405af2a6a841e1cef0a6a4f12b596365c8d8f80ede81a07e977183171ccb395289f497490a9991ac764aec5ec6ba37670105a2f487d44af865040188199999999999999994aaaf5374fce5edbc8e2a8697c15331677e6ebf0b0a801ca09008a65a4144fc7bf31d258afc44b4b8f2e59253966bf7fc559254382ed43e85a0718816ce877687e410786f10e93b0fdb245156cade9ef521ae692ccccefa5b98f865050188199999999999999994aaaf5374fce5edbc8e2a8697c15331677e6ebf0b0a801ba0f6e21ff7a32b8f5adfe26eb3cdd37658d9bf8e73a214f5fabc7c9a784c413716a04592b7059c104531930d156849d70f1302d341f6917e08c8001dee0f564e5358f86006018398968094aaaf5374fce5edbc8e2a8697c15331677e6ebf0b0a801ca05bc5ac2099c61aad9d034032957b8b363a7181af65c70427ba3141b069bfc7d2a0745a350d605ced8bc9f5b8e09ef14aef6af09bf0e35fcddb6f8ea80147855f5ac0"
            }
        ],
        "postState" : {
            "0xa94f5374fce5edbc8e2a8697c15331677e6ebf0b" : {
                "code" : "0x",
                "nonce" : "0x07",
                "balance" : "0x4a723dc6b40b8a99fdc182",
                "storage" : {
                }
            },
            "0x8888f1f195afa192cfee860698584c030f4c9db1" : {
                "code" : "0x",
                "nonce" : "0x00",
                "balance" : "0x1bc16d674eca3e38",
                "storage" : {
                }
            },
            "0xaaaf5374fce5edbc8e2a8697c15331677e6ebf0b" : {
                "code" : "0x",
                "nonce" : "0x00",
                "balance" : "0x46",
                "storage" : {
                }
            }
        },
        "lastblockhash" : "0x22e33cb8b835cd44793111a5ce38e896b07db34fbe3788bd693a193cb4e9e44d"
    }
}