{
    "CallcodeLoseGasOOG_d0g0v0_Istanbul" : {
        "_info" : {
            "comment" : "",
            "filling-rpc-server" : "Geth-1.9.6-unstable-63b18027-20190920",
            "filling-tool-version" : "retesteth-0.0.1+commit.0ae18aef.Linux.g++",
            "lllcversion" : "Version: 0.5.12-develop.2019.9.13+commit.2d601a4f.Linux.g++",
            "source" : "src/GeneralStateTestsFiller/stDelegatecallTestHomestead/CallcodeLoseGasOOGFiller.json",
            "sourceHash" : "a7c41d12e87f7b6e87287afa111406557fe9aacb0b21a0c5bbda4196c12c5e36"
        },
        "genesisBlockHeader" : {
            "bloom" : "0x00000000000000000000000000000000000000000000000000000000000000000000000000000000000000000000000000000000000000000000000000000000000000000000000000000000000000000000000000000000000000000000000000000000000000000000000000000000000000000000000000000000000000000000000000000000000000000000000000000000000000000000000000000000000000000000000000000000000000000000000000000000000000000000000000000000000000000000000000000000000000000000000000000000000000000000000000000000000000000000000000000000000000000000000000000000",
            "coinbase" : "0xb94f5374fce5edbc8e2a8697c15331677e6ebf0b",
            "difficulty" : "0x20000",
            "extraData" : "0x00",
            "gasLimit" : "0x7fffffffffffffff",
            "gasUsed" : "0x0",
            "hash" : "0x295815f95330e4b51f8f01df6a2f571985c2bd065ba436dd1b9922b48f0375c1",
            "mixHash" : "0x0000000000000000000000000000000000000000000000000000000000000000",
            "nonce" : "0x0000000000000000",
            "number" : "0x0",
            "parentHash" : "0x0000000000000000000000000000000000000000000000000000000000000000",
            "receiptTrie" : "0x56e81f171bcc55a6ff8345e692c0f86e5b48e01b996cadc001622fb5e363b421",
            "stateRoot" : "0x3ffb15aa41755c24797bd9a8987e7cc95bbf1d1f97bbca03e6f9f63a040d53a4",
            "timestamp" : "0x0",
            "transactionsTrie" : "0x56e81f171bcc55a6ff8345e692c0f86e5b48e01b996cadc001622fb5e363b421",
            "uncleHash" : "0x1dcc4de8dec75d7aab85b567b6ccd41ad312451b948a7413f0a142fd40d49347"
        },
        "pre" : {
            "0xa94f5374fce5edbc8e2a8697c15331677e6ebf0b" : {
                "balance" : "0xffffffffffffffffffffffffffffffff",
                "code" : "0x",
                "nonce" : "0x00",
                "storage" : {
                }
            },
            "0xaaaf5374fce5edbc8e2a8697c15331677e6ebf0b" : {
                "balance" : "0x1b58",
                "code" : "0x",
                "nonce" : "0x00",
                "storage" : {
                }
            },
            "0xbbbf5374fce5edbc8e2a8697c15331677e6ebf0b" : {
                "balance" : "0x0400",
                "code" : "0x600160005401600055600060006000600073bbbf5374fce5edbc8e2a8697c15331677e6ebf0b620186a060005402600101f46001556103e86000540260010160025500",
                "nonce" : "0x00",
                "storage" : {
                }
            }
        },
        "postState" : {
            "0xa94f5374fce5edbc8e2a8697c15331677e6ebf0b" : {
                "code" : "0x",
                "nonce" : "0x01",
                "balance" : "0xfffffffffffffffffffffffffffd7b8d",
                "storage" : {
                }
            },
            "0xbbbf5374fce5edbc8e2a8697c15331677e6ebf0b" : {
                "code" : "0x600160005401600055600060006000600073bbbf5374fce5edbc8e2a8697c15331677e6ebf0b620186a060005402600101f46001556103e86000540260010160025500",
                "nonce" : "0x00",
                "balance" : "0x040a",
                "storage" : {
                    "0x00" : "0x01",
                    "0x02" : "0x03e9"
                }
            },
            "0xaaaf5374fce5edbc8e2a8697c15331677e6ebf0b" : {
                "code" : "0x",
                "nonce" : "0x00",
                "balance" : "0x1b58",
                "storage" : {
                }
            },
            "0xb94f5374fce5edbc8e2a8697c15331677e6ebf0b" : {
                "code" : "0x",
                "nonce" : "0x00",
                "balance" : "0x1bc16d674eca8468",
                "storage" : {
                }
            }
        },
        "network" : "Istanbul",
        "sealEngine" : "NoProof",
        "lastblockhash" : "0x8051641beefd0a783b94761bb412921b8fff91dadf685d6a860d3156f59dd5ff",
        "genesisRLP" : "0xf901fdf901f8a00000000000000000000000000000000000000000000000000000000000000000a01dcc4de8dec75d7aab85b567b6ccd41ad312451b948a7413f0a142fd40d4934794b94f5374fce5edbc8e2a8697c15331677e6ebf0ba03ffb15aa41755c24797bd9a8987e7cc95bbf1d1f97bbca03e6f9f63a040d53a4a056e81f171bcc55a6ff8345e692c0f86e5b48e01b996cadc001622fb5e363b421a056e81f171bcc55a6ff8345e692c0f86e5b48e01b996cadc001622fb5e363b421b90100000000000000000000000000000000000000000000000000000000000000000000000000000000000000000000000000000000000000000000000000000000000000000000000000000000000000000000000000000000000000000000000000000000000000000000000000000000000000000000000000000000000000000000000000000000000000000000000000000000000000000000000000000000000000000000000000000000000000000000000000000000000000000000000000000000000000000000000000000000000000000000000000000000000000000000000000000000000000000000000000000000000000000000000000000000008302000080887fffffffffffffff808000a00000000000000000000000000000000000000000000000000000000000000000880000000000000000c0c0",
        "blocks" : [
            {
                "rlp" : "0xf90265f901fda0295815f95330e4b51f8f01df6a2f571985c2bd065ba436dd1b9922b48f0375c1a01dcc4de8dec75d7aab85b567b6ccd41ad312451b948a7413f0a142fd40d4934794b94f5374fce5edbc8e2a8697c15331677e6ebf0ba0cacc389f30c8e90d204ec0932729a31804a1218e8e363b38bfae64d89de50973a0930b96e51a2ecd5435a7297b94143f9d14526ce3aac5667bb06c29b263b34511a05ab0470aa519b8a37900a145b620f55b4776821fc214e0caa38d2e44b2e4b8feb90100000000000000000000000000000000000000000000000000000000000000000000000000000000000000000000000000000000000000000000000000000000000000000000000000000000000000000000000000000000000000000000000000000000000000000000000000000000000000000000000000000000000000000000000000000000000000000000000000000000000000000000000000000000000000000000000000000000000000000000000000000000000000000000000000000000000000000000000000000000000000000000000000000000000000000000000000000000000000000000000000000000000000000000000000000000008302000001887fffffffffffffff830284688203e800a00000000000000000000000000000000000000000000000000000000000000000880000000000000000f862f86080018302897694bbbf5374fce5edbc8e2a8697c15331677e6ebf0b0a801ba0cd600f2ae2ff3787336c74911d1d25e053b81ae72dd849703c712558be496f7fa006d28736b0f78feb5c662d1fd09efcda95a090c2df24897cbbecd3c993bbf316c0",
                "blockHeader" : {
                    "bloom" : "0x00000000000000000000000000000000000000000000000000000000000000000000000000000000000000000000000000000000000000000000000000000000000000000000000000000000000000000000000000000000000000000000000000000000000000000000000000000000000000000000000000000000000000000000000000000000000000000000000000000000000000000000000000000000000000000000000000000000000000000000000000000000000000000000000000000000000000000000000000000000000000000000000000000000000000000000000000000000000000000000000000000000000000000000000000000000",
                    "coinbase" : "0xb94f5374fce5edbc8e2a8697c15331677e6ebf0b",
                    "difficulty" : "0x20000",
                    "extraData" : "0x00",
                    "gasLimit" : "0x7fffffffffffffff",
                    "gasUsed" : "0x28468",
                    "hash" : "0x8051641beefd0a783b94761bb412921b8fff91dadf685d6a860d3156f59dd5ff",
                    "mixHash" : "0x0000000000000000000000000000000000000000000000000000000000000000",
                    "nonce" : "0x0000000000000000",
                    "number" : "0x1",
                    "parentHash" : "0x295815f95330e4b51f8f01df6a2f571985c2bd065ba436dd1b9922b48f0375c1",
                    "receiptTrie" : "0x5ab0470aa519b8a37900a145b620f55b4776821fc214e0caa38d2e44b2e4b8fe",
                    "stateRoot" : "0xcacc389f30c8e90d204ec0932729a31804a1218e8e363b38bfae64d89de50973",
                    "timestamp" : "0x3e8",
                    "transactionsTrie" : "0x930b96e51a2ecd5435a7297b94143f9d14526ce3aac5667bb06c29b263b34511",
                    "uncleHash" : "0x1dcc4de8dec75d7aab85b567b6ccd41ad312451b948a7413f0a142fd40d49347"
                },
                "transactions" : [
                    {
                        "data" : "0x",
                        "gasLimit" : "0x028976",
                        "gasPrice" : "0x01",
                        "nonce" : "0x00",
                        "to" : "0xbbbf5374fce5edbc8e2a8697c15331677e6ebf0b",
                        "value" : "0x0a",
                        "v" : "0x1b",
                        "r" : "0xcd600f2ae2ff3787336c74911d1d25e053b81ae72dd849703c712558be496f7f",
                        "s" : "0x06d28736b0f78feb5c662d1fd09efcda95a090c2df24897cbbecd3c993bbf316"
                    }
                ]
            }
        ]
    },
    "CallcodeLoseGasOOG_d0g1v0_Istanbul" : {
        "_info" : {
            "comment" : "",
            "filling-rpc-server" : "Geth-1.9.6-unstable-63b18027-20190920",
            "filling-tool-version" : "retesteth-0.0.1+commit.0ae18aef.Linux.g++",
            "lllcversion" : "Version: 0.5.12-develop.2019.9.13+commit.2d601a4f.Linux.g++",
            "source" : "src/GeneralStateTestsFiller/stDelegatecallTestHomestead/CallcodeLoseGasOOGFiller.json",
            "sourceHash" : "a7c41d12e87f7b6e87287afa111406557fe9aacb0b21a0c5bbda4196c12c5e36"
        },
        "genesisBlockHeader" : {
            "bloom" : "0x00000000000000000000000000000000000000000000000000000000000000000000000000000000000000000000000000000000000000000000000000000000000000000000000000000000000000000000000000000000000000000000000000000000000000000000000000000000000000000000000000000000000000000000000000000000000000000000000000000000000000000000000000000000000000000000000000000000000000000000000000000000000000000000000000000000000000000000000000000000000000000000000000000000000000000000000000000000000000000000000000000000000000000000000000000000",
            "coinbase" : "0xb94f5374fce5edbc8e2a8697c15331677e6ebf0b",
            "difficulty" : "0x20000",
            "extraData" : "0x00",
            "gasLimit" : "0x7fffffffffffffff",
            "gasUsed" : "0x0",
            "hash" : "0x295815f95330e4b51f8f01df6a2f571985c2bd065ba436dd1b9922b48f0375c1",
            "mixHash" : "0x0000000000000000000000000000000000000000000000000000000000000000",
            "nonce" : "0x0000000000000000",
            "number" : "0x0",
            "parentHash" : "0x0000000000000000000000000000000000000000000000000000000000000000",
            "receiptTrie" : "0x56e81f171bcc55a6ff8345e692c0f86e5b48e01b996cadc001622fb5e363b421",
            "stateRoot" : "0x3ffb15aa41755c24797bd9a8987e7cc95bbf1d1f97bbca03e6f9f63a040d53a4",
            "timestamp" : "0x0",
            "transactionsTrie" : "0x56e81f171bcc55a6ff8345e692c0f86e5b48e01b996cadc001622fb5e363b421",
            "uncleHash" : "0x1dcc4de8dec75d7aab85b567b6ccd41ad312451b948a7413f0a142fd40d49347"
        },
        "pre" : {
            "0xa94f5374fce5edbc8e2a8697c15331677e6ebf0b" : {
                "balance" : "0xffffffffffffffffffffffffffffffff",
                "code" : "0x",
                "nonce" : "0x00",
                "storage" : {
                }
            },
            "0xaaaf5374fce5edbc8e2a8697c15331677e6ebf0b" : {
                "balance" : "0x1b58",
                "code" : "0x",
                "nonce" : "0x00",
                "storage" : {
                }
            },
            "0xbbbf5374fce5edbc8e2a8697c15331677e6ebf0b" : {
                "balance" : "0x0400",
                "code" : "0x600160005401600055600060006000600073bbbf5374fce5edbc8e2a8697c15331677e6ebf0b620186a060005402600101f46001556103e86000540260010160025500",
                "nonce" : "0x00",
                "storage" : {
                }
            }
        },
        "postState" : {
            "0xa94f5374fce5edbc8e2a8697c15331677e6ebf0b" : {
                "code" : "0x",
                "nonce" : "0x01",
                "balance" : "0xfffffffffffffffffffffffffffd9d99",
                "storage" : {
                }
            },
            "0xbbbf5374fce5edbc8e2a8697c15331677e6ebf0b" : {
                "code" : "0x600160005401600055600060006000600073bbbf5374fce5edbc8e2a8697c15331677e6ebf0b620186a060005402600101f46001556103e86000540260010160025500",
                "nonce" : "0x00",
                "balance" : "0x0400",
                "storage" : {
                }
            },
            "0xaaaf5374fce5edbc8e2a8697c15331677e6ebf0b" : {
                "code" : "0x",
                "nonce" : "0x00",
                "balance" : "0x1b58",
                "storage" : {
                }
            },
            "0xb94f5374fce5edbc8e2a8697c15331677e6ebf0b" : {
                "code" : "0x",
                "nonce" : "0x00",
                "balance" : "0x1bc16d674eca6266",
                "storage" : {
                }
            }
        },
        "network" : "Istanbul",
        "sealEngine" : "NoProof",
        "lastblockhash" : "0x71b24b3ecdab55a69331ea8e7c1ddc3f8b639ec0411f61ad057a7a4d930014c6",
        "genesisRLP" : "0xf901fdf901f8a00000000000000000000000000000000000000000000000000000000000000000a01dcc4de8dec75d7aab85b567b6ccd41ad312451b948a7413f0a142fd40d4934794b94f5374fce5edbc8e2a8697c15331677e6ebf0ba03ffb15aa41755c24797bd9a8987e7cc95bbf1d1f97bbca03e6f9f63a040d53a4a056e81f171bcc55a6ff8345e692c0f86e5b48e01b996cadc001622fb5e363b421a056e81f171bcc55a6ff8345e692c0f86e5b48e01b996cadc001622fb5e363b421b90100000000000000000000000000000000000000000000000000000000000000000000000000000000000000000000000000000000000000000000000000000000000000000000000000000000000000000000000000000000000000000000000000000000000000000000000000000000000000000000000000000000000000000000000000000000000000000000000000000000000000000000000000000000000000000000000000000000000000000000000000000000000000000000000000000000000000000000000000000000000000000000000000000000000000000000000000000000000000000000000000000000000000000000000000000000008302000080887fffffffffffffff808000a00000000000000000000000000000000000000000000000000000000000000000880000000000000000c0c0",
        "blocks" : [
            {
                "rlp" : "0xf90265f901fda0295815f95330e4b51f8f01df6a2f571985c2bd065ba436dd1b9922b48f0375c1a01dcc4de8dec75d7aab85b567b6ccd41ad312451b948a7413f0a142fd40d4934794b94f5374fce5edbc8e2a8697c15331677e6ebf0ba0e690a0aa2c7294fefb27278d346e5fcf345a683feefc0a48557ca27d89833183a0e53e0ef744a21709aa23b0f0a29c81a13fae91036b93c1356e982cfdbe8f90fba0331fa886375d7e2de8d8346ad3a53f6b3e9dea00b25034c213655392db378fe2b90100000000000000000000000000000000000000000000000000000000000000000000000000000000000000000000000000000000000000000000000000000000000000000000000000000000000000000000000000000000000000000000000000000000000000000000000000000000000000000000000000000000000000000000000000000000000000000000000000000000000000000000000000000000000000000000000000000000000000000000000000000000000000000000000000000000000000000000000000000000000000000000000000000000000000000000000000000000000000000000000000000000000000000000000000000000008302000001887fffffffffffffff830262668203e800a00000000000000000000000000000000000000000000000000000000000000000880000000000000000f862f86080018302626694bbbf5374fce5edbc8e2a8697c15331677e6ebf0b0a801ba034d506e7cca6d89bc8eb7d56fa20fab7ef9288c8b35fcff4a5d253fabda7f189a0446175239e7c9e9c1d6e00574779756e003f1111c36bd27f1ceeec7cde7d03cbc0",
                "blockHeader" : {
                    "bloom" : "0x00000000000000000000000000000000000000000000000000000000000000000000000000000000000000000000000000000000000000000000000000000000000000000000000000000000000000000000000000000000000000000000000000000000000000000000000000000000000000000000000000000000000000000000000000000000000000000000000000000000000000000000000000000000000000000000000000000000000000000000000000000000000000000000000000000000000000000000000000000000000000000000000000000000000000000000000000000000000000000000000000000000000000000000000000000000",
                    "coinbase" : "0xb94f5374fce5edbc8e2a8697c15331677e6ebf0b",
                    "difficulty" : "0x20000",
                    "extraData" : "0x00",
                    "gasLimit" : "0x7fffffffffffffff",
                    "gasUsed" : "0x26266",
                    "hash" : "0x71b24b3ecdab55a69331ea8e7c1ddc3f8b639ec0411f61ad057a7a4d930014c6",
                    "mixHash" : "0x0000000000000000000000000000000000000000000000000000000000000000",
                    "nonce" : "0x0000000000000000",
                    "number" : "0x1",
                    "parentHash" : "0x295815f95330e4b51f8f01df6a2f571985c2bd065ba436dd1b9922b48f0375c1",
                    "receiptTrie" : "0x331fa886375d7e2de8d8346ad3a53f6b3e9dea00b25034c213655392db378fe2",
                    "stateRoot" : "0xe690a0aa2c7294fefb27278d346e5fcf345a683feefc0a48557ca27d89833183",
                    "timestamp" : "0x3e8",
                    "transactionsTrie" : "0xe53e0ef744a21709aa23b0f0a29c81a13fae91036b93c1356e982cfdbe8f90fb",
                    "uncleHash" : "0x1dcc4de8dec75d7aab85b567b6ccd41ad312451b948a7413f0a142fd40d49347"
                },
                "transactions" : [
                    {
                        "data" : "0x",
                        "gasLimit" : "0x026266",
                        "gasPrice" : "0x01",
                        "nonce" : "0x00",
                        "to" : "0xbbbf5374fce5edbc8e2a8697c15331677e6ebf0b",
                        "value" : "0x0a",
                        "v" : "0x1b",
                        "r" : "0x34d506e7cca6d89bc8eb7d56fa20fab7ef9288c8b35fcff4a5d253fabda7f189",
                        "s" : "0x446175239e7c9e9c1d6e00574779756e003f1111c36bd27f1ceeec7cde7d03cb"
                    }
                ]
            }
        ]
    }
}