{
    "Delegatecall1024_d0g0v0_Istanbul" : {
        "_info" : {
            "comment" : "",
            "filling-rpc-server" : "Geth-1.9.6-unstable-63b18027-20190920",
            "filling-tool-version" : "retesteth-0.0.1+commit.0ae18aef.Linux.g++",
            "lllcversion" : "Version: 0.5.12-develop.2019.9.13+commit.2d601a4f.Linux.g++",
            "source" : "src/GeneralStateTestsFiller/stDelegatecallTestHomestead/Delegatecall1024Filler.json",
            "sourceHash" : "cb9860ab765ebb4ff8bc054120faf1e2ae9419410bed3d67ffda43ef5f90287b"
        },
        "genesisBlockHeader" : {
            "bloom" : "0x00000000000000000000000000000000000000000000000000000000000000000000000000000000000000000000000000000000000000000000000000000000000000000000000000000000000000000000000000000000000000000000000000000000000000000000000000000000000000000000000000000000000000000000000000000000000000000000000000000000000000000000000000000000000000000000000000000000000000000000000000000000000000000000000000000000000000000000000000000000000000000000000000000000000000000000000000000000000000000000000000000000000000000000000000000000",
            "coinbase" : "0xb94f5374fce5edbc8e2a8697c15331677e6ebf0b",
            "difficulty" : "0x20000",
            "extraData" : "0x00",
            "gasLimit" : "0x7fffffffffffffff",
            "gasUsed" : "0x0",
            "hash" : "0x14427cf6316984b8393aa0d6d2d76a6d7499101f9cbb37d38368443e311f20da",
            "mixHash" : "0x0000000000000000000000000000000000000000000000000000000000000000",
            "nonce" : "0x0000000000000000",
            "number" : "0x0",
            "parentHash" : "0x0000000000000000000000000000000000000000000000000000000000000000",
            "receiptTrie" : "0x56e81f171bcc55a6ff8345e692c0f86e5b48e01b996cadc001622fb5e363b421",
            "stateRoot" : "0x5e316a5f8f9494651f5fa9cf551061461f3dc42f89d5390c2a6540cd5c671f07",
            "timestamp" : "0x0",
            "transactionsTrie" : "0x56e81f171bcc55a6ff8345e692c0f86e5b48e01b996cadc001622fb5e363b421",
            "uncleHash" : "0x1dcc4de8dec75d7aab85b567b6ccd41ad312451b948a7413f0a142fd40d49347"
        },
        "pre" : {
            "0xa94f5374fce5edbc8e2a8697c15331677e6ebf0b" : {
                "balance" : "0xffffffffffffffffffffffffffffffff",
                "code" : "0x",
                "nonce" : "0x00",
                "storage" : {
                }
            },
            "0xaaaf5374fce5edbc8e2a8697c15331677e6ebf0b" : {
                "balance" : "0x1b58",
                "code" : "0x",
                "nonce" : "0x00",
                "storage" : {
                }
            },
            "0xbbbf5374fce5edbc8e2a8697c15331677e6ebf0b" : {
                "balance" : "0x0400",
                "code" : "0x600160005401600055600060006000600073bbbf5374fce5edbc8e2a8697c15331677e6ebf0b650ffffffffffff460015500",
                "nonce" : "0x00",
                "storage" : {
                }
            }
        },
        "postState" : {
            "0xa94f5374fce5edbc8e2a8697c15331677e6ebf0b" : {
                "code" : "0x",
                "nonce" : "0x01",
                "balance" : "0xffffffffffffffffffffffffffce17b0",
                "storage" : {
                }
            },
            "0xbbbf5374fce5edbc8e2a8697c15331677e6ebf0b" : {
                "code" : "0x600160005401600055600060006000600073bbbf5374fce5edbc8e2a8697c15331677e6ebf0b650ffffffffffff460015500",
                "nonce" : "0x00",
                "balance" : "0x040a",
                "storage" : {
                    "0x00" : "0x0401",
                    "0x01" : "0x01"
                }
            },
            "0xaaaf5374fce5edbc8e2a8697c15331677e6ebf0b" : {
                "code" : "0x",
                "nonce" : "0x00",
                "balance" : "0x1b58",
                "storage" : {
                }
            },
            "0xb94f5374fce5edbc8e2a8697c15331677e6ebf0b" : {
                "code" : "0x",
                "nonce" : "0x00",
                "balance" : "0x1bc16d674ef9e845",
                "storage" : {
                }
            }
        },
        "network" : "Istanbul",
        "sealEngine" : "NoProof",
        "lastblockhash" : "0x751b82ec2b2d21df3c89f5f51c1c12af374f1dcb64909b8ff6fdcaebd8166ca9",
        "genesisRLP" : "0xf901fdf901f8a00000000000000000000000000000000000000000000000000000000000000000a01dcc4de8dec75d7aab85b567b6ccd41ad312451b948a7413f0a142fd40d4934794b94f5374fce5edbc8e2a8697c15331677e6ebf0ba05e316a5f8f9494651f5fa9cf551061461f3dc42f89d5390c2a6540cd5c671f07a056e81f171bcc55a6ff8345e692c0f86e5b48e01b996cadc001622fb5e363b421a056e81f171bcc55a6ff8345e692c0f86e5b48e01b996cadc001622fb5e363b421b90100000000000000000000000000000000000000000000000000000000000000000000000000000000000000000000000000000000000000000000000000000000000000000000000000000000000000000000000000000000000000000000000000000000000000000000000000000000000000000000000000000000000000000000000000000000000000000000000000000000000000000000000000000000000000000000000000000000000000000000000000000000000000000000000000000000000000000000000000000000000000000000000000000000000000000000000000000000000000000000000000000000000000000000000000000000008302000080887fffffffffffffff808000a00000000000000000000000000000000000000000000000000000000000000000880000000000000000c0c0",
        "blocks" : [
            {
                "rlp" : "0xf9026af901fda014427cf6316984b8393aa0d6d2d76a6d7499101f9cbb37d38368443e311f20daa01dcc4de8dec75d7aab85b567b6ccd41ad312451b948a7413f0a142fd40d4934794b94f5374fce5edbc8e2a8697c15331677e6ebf0ba0607af07ed1849d045c5110bfaf4c15c6af08e071bb6bfe9d4b250a89b61752cba03836e2dadfef3f40d8633c9a3457c8a1a50d4a3dad71d8ab50cab56f86f80e5ca0b789f952d94f284680a59864fbffcbaae8ce3190f2fc2f15e63988c1287764b4b90100000000000000000000000000000000000000000000000000000000000000000000000000000000000000000000000000000000000000000000000000000000000000000000000000000000000000000000000000000000000000000000000000000000000000000000000000000000000000000000000000000000000000000000000000000000000000000000000000000000000000000000000000000000000000000000000000000000000000000000000000000000000000000000000000000000000000000000000000000000000000000000000000000000000000000000000000000000000000000000000000000000000000000000000000000000008302000001887fffffffffffffff8331e8458203e800a00000000000000000000000000000000000000000000000000000000000000000880000000000000000f867f8658001887fe000000000000194bbbf5374fce5edbc8e2a8697c15331677e6ebf0b0a801ca04c50c7d11e58e5c6f40fa1a630ffcb3a017453e7f9d0ec8ccb01033fcf9f2210a05c46375b6b333983077e152d1b6ca101d0586a6565fa75750deb1b07154bbdcac0",
                "blockHeader" : {
                    "bloom" : "0x00000000000000000000000000000000000000000000000000000000000000000000000000000000000000000000000000000000000000000000000000000000000000000000000000000000000000000000000000000000000000000000000000000000000000000000000000000000000000000000000000000000000000000000000000000000000000000000000000000000000000000000000000000000000000000000000000000000000000000000000000000000000000000000000000000000000000000000000000000000000000000000000000000000000000000000000000000000000000000000000000000000000000000000000000000000",
                    "coinbase" : "0xb94f5374fce5edbc8e2a8697c15331677e6ebf0b",
                    "difficulty" : "0x20000",
                    "extraData" : "0x00",
                    "gasLimit" : "0x7fffffffffffffff",
                    "gasUsed" : "0x31e845",
                    "hash" : "0x751b82ec2b2d21df3c89f5f51c1c12af374f1dcb64909b8ff6fdcaebd8166ca9",
                    "mixHash" : "0x0000000000000000000000000000000000000000000000000000000000000000",
                    "nonce" : "0x0000000000000000",
                    "number" : "0x1",
                    "parentHash" : "0x14427cf6316984b8393aa0d6d2d76a6d7499101f9cbb37d38368443e311f20da",
                    "receiptTrie" : "0xb789f952d94f284680a59864fbffcbaae8ce3190f2fc2f15e63988c1287764b4",
                    "stateRoot" : "0x607af07ed1849d045c5110bfaf4c15c6af08e071bb6bfe9d4b250a89b61752cb",
                    "timestamp" : "0x3e8",
                    "transactionsTrie" : "0x3836e2dadfef3f40d8633c9a3457c8a1a50d4a3dad71d8ab50cab56f86f80e5c",
                    "uncleHash" : "0x1dcc4de8dec75d7aab85b567b6ccd41ad312451b948a7413f0a142fd40d49347"
                },
                "transactions" : [
                    {
                        "data" : "0x",
                        "gasLimit" : "0x7fe0000000000001",
                        "gasPrice" : "0x01",
                        "nonce" : "0x00",
                        "to" : "0xbbbf5374fce5edbc8e2a8697c15331677e6ebf0b",
                        "value" : "0x0a",
                        "v" : "0x1c",
                        "r" : "0x4c50c7d11e58e5c6f40fa1a630ffcb3a017453e7f9d0ec8ccb01033fcf9f2210",
                        "s" : "0x5c46375b6b333983077e152d1b6ca101d0586a6565fa75750deb1b07154bbdca"
                    }
                ]
            }
        ]
    }
}