{
    "NewGasPriceForCodesWithMemExpandingCalls_d0g0v0_Istanbul" : {
        "_info" : {
            "comment" : "",
            "filling-rpc-server" : "Geth-1.9.6-unstable-63b18027-20190920",
            "filling-tool-version" : "retesteth-0.0.1+commit.0ae18aef.Linux.g++",
            "lllcversion" : "Version: 0.5.12-develop.2019.9.13+commit.2d601a4f.Linux.g++",
            "source" : "src/GeneralStateTestsFiller/stMemExpandingEIP150Calls/NewGasPriceForCodesWithMemExpandingCallsFiller.json",
            "sourceHash" : "30af43fa3dd8691609604327903372e501a6c829ea3007811dfc95ff77dc1cdb"
        },
        "genesisBlockHeader" : {
            "bloom" : "0x00000000000000000000000000000000000000000000000000000000000000000000000000000000000000000000000000000000000000000000000000000000000000000000000000000000000000000000000000000000000000000000000000000000000000000000000000000000000000000000000000000000000000000000000000000000000000000000000000000000000000000000000000000000000000000000000000000000000000000000000000000000000000000000000000000000000000000000000000000000000000000000000000000000000000000000000000000000000000000000000000000000000000000000000000000000",
            "coinbase" : "0x2adc25665018aa1fe0e6bc666dac8fc2697ff9ba",
            "difficulty" : "0x20000",
            "extraData" : "0x00",
            "gasLimit" : "0x989680",
            "gasUsed" : "0x0",
            "hash" : "0xcd19b6fe795192314d8d7d4750ea72023867c09ade2f71c9aa49fde7745bd65f",
            "mixHash" : "0x0000000000000000000000000000000000000000000000000000000000000000",
            "nonce" : "0x0000000000000000",
            "number" : "0x0",
            "parentHash" : "0x0000000000000000000000000000000000000000000000000000000000000000",
            "receiptTrie" : "0x56e81f171bcc55a6ff8345e692c0f86e5b48e01b996cadc001622fb5e363b421",
            "stateRoot" : "0xc11e0ffa4a895012fe3db0ca44d93fc579f485488a67989db49ee464bff1d0c9",
            "timestamp" : "0x0",
            "transactionsTrie" : "0x56e81f171bcc55a6ff8345e692c0f86e5b48e01b996cadc001622fb5e363b421",
            "uncleHash" : "0x1dcc4de8dec75d7aab85b567b6ccd41ad312451b948a7413f0a142fd40d49347"
        },
        "pre" : {
            "0x1000000000000000000000000000000000000010" : {
                "balance" : "0x6f",
                "code" : "0x1122334455667788991011121314151617181920212223242526272829303132",
                "nonce" : "0x00",
                "storage" : {
                }
            },
            "0x1000000000000000000000000000000000000011" : {
                "balance" : "0x00",
                "code" : "0x6011606455",
                "nonce" : "0x00",
                "storage" : {
                }
            },
            "0xa94f5374fce5edbc8e2a8697c15331677e6ebf0b" : {
                "balance" : "0xe8d4a51000",
                "code" : "0x",
                "nonce" : "0x00",
                "storage" : {
                }
            },
            "0xb94f5374fce5edbc8e2a8697c15331677e6ebf0b" : {
                "balance" : "0x00",
                "code" : "0x7310000000000000000000000000000000000000103b6001556014600060007310000000000000000000000000000000000000103c60005160025560005460045560ff60ff60ff60ff6001731000000000000000000000000000000000000011617530f160055560ff60ff60ff60ff6001731000000000000000000000000000000000000011617530f260065560ff60ff60ff60ff731000000000000000000000000000000000000011617530f460075560ff60ff60ff60ff6000731000000000000000000000000000000000000013617530f160085573a94f5374fce5edbc8e2a8697c15331677e6ebf0b316003555a600a55",
                "nonce" : "0x00",
                "storage" : {
                    "0x00" : "0x12"
                }
            }
        },
        "postState" : {
            "0xa94f5374fce5edbc8e2a8697c15331677e6ebf0b" : {
                "code" : "0x",
                "nonce" : "0x01",
                "balance" : "0xe8d4a1fb5a",
                "storage" : {
                }
            },
            "0x2adc25665018aa1fe0e6bc666dac8fc2697ff9ba" : {
                "code" : "0x",
                "nonce" : "0x00",
                "balance" : "0x1bc16d674ecb14a6",
                "storage" : {
                }
            },
            "0x1000000000000000000000000000000000000010" : {
                "code" : "0x1122334455667788991011121314151617181920212223242526272829303132",
                "nonce" : "0x00",
                "balance" : "0x6f",
                "storage" : {
                }
            },
            "0xb94f5374fce5edbc8e2a8697c15331677e6ebf0b" : {
                "code" : "0x7310000000000000000000000000000000000000103b6001556014600060007310000000000000000000000000000000000000103c60005160025560005460045560ff60ff60ff60ff6001731000000000000000000000000000000000000011617530f160055560ff60ff60ff60ff6001731000000000000000000000000000000000000011617530f260065560ff60ff60ff60ff731000000000000000000000000000000000000011617530f460075560ff60ff60ff60ff6000731000000000000000000000000000000000000013617530f160085573a94f5374fce5edbc8e2a8697c15331677e6ebf0b316003555a600a55",
                "nonce" : "0x00",
                "balance" : "0x00",
                "storage" : {
                    "0x64" : "0x11",
                    "0x00" : "0x12",
                    "0x02" : "0x1122334455667788991011121314151617181920000000000000000000000000",
                    "0x04" : "0x12",
                    "0x07" : "0x01",
                    "0x01" : "0x20",
                    "0x03" : "0xe8d49be840",
                    "0x0a" : "0x06613d",
                    "0x08" : "0x01"
                }
            },
            "0x1000000000000000000000000000000000000011" : {
                "code" : "0x6011606455",
                "nonce" : "0x00",
                "balance" : "0x00",
                "storage" : {
                }
            }
        },
        "network" : "Istanbul",
        "sealEngine" : "NoProof",
        "lastblockhash" : "0x77bac20134ff6080162d236388d386769adadac8bf1254e19cfbbedb49a54ecc",
        "genesisRLP" : "0xf901f8f901f3a00000000000000000000000000000000000000000000000000000000000000000a01dcc4de8dec75d7aab85b567b6ccd41ad312451b948a7413f0a142fd40d49347942adc25665018aa1fe0e6bc666dac8fc2697ff9baa0c11e0ffa4a895012fe3db0ca44d93fc579f485488a67989db49ee464bff1d0c9a056e81f171bcc55a6ff8345e692c0f86e5b48e01b996cadc001622fb5e363b421a056e81f171bcc55a6ff8345e692c0f86e5b48e01b996cadc001622fb5e363b421b9010000000000000000000000000000000000000000000000000000000000000000000000000000000000000000000000000000000000000000000000000000000000000000000000000000000000000000000000000000000000000000000000000000000000000000000000000000000000000000000000000000000000000000000000000000000000000000000000000000000000000000000000000000000000000000000000000000000000000000000000000000000000000000000000000000000000000000000000000000000000000000000000000000000000000000000000000000000000000000000000000000000000000000000000000000000000830200008083989680808000a00000000000000000000000000000000000000000000000000000000000000000880000000000000000c0c0",
        "blocks" : [
            {
                "rlp" : "0xf90260f901f8a0cd19b6fe795192314d8d7d4750ea72023867c09ade2f71c9aa49fde7745bd65fa01dcc4de8dec75d7aab85b567b6ccd41ad312451b948a7413f0a142fd40d49347942adc25665018aa1fe0e6bc666dac8fc2697ff9baa0b6420c7ed18ab22088f4b862d6748a67cf27f1116b8d1122922f14ac3e04f9cba059652e5662eb625efd106d67b9b25d3c12a15e69494d1d24f59d867c211f6761a0ff620938263c8591f78455da7ee0463475cc46ad12c305eed81d22ab6d47e3ccb901000000000000000000000000000000000000000000000000000000000000000000000000000000000000000000000000000000000000000000000000000000000000000000000000000000000000000000000000000000000000000000000000000000000000000000000000000000000000000000000000000000000000000000000000000000000000000000000000000000000000000000000000000000000000000000000000000000000000000000000000000000000000000000000000000000000000000000000000000000000000000000000000000000000000000000000000000000000000000000000000000000000000000000000000000000000083020000018398bca4830314a68203e800a00000000000000000000000000000000000000000000000000000000000000000880000000000000000f862f8608001830927c094b94f5374fce5edbc8e2a8697c15331677e6ebf0b80801ba08d0699f23d032b86db35ed7bb39c2357bec870fbfbe7db30b1795d320d8965c6a002f578fd949e84f0dc1307f5dd714c9a7158b31891d43f45459edcb52e345f7cc0",
                "blockHeader" : {
                    "bloom" : "0x00000000000000000000000000000000000000000000000000000000000000000000000000000000000000000000000000000000000000000000000000000000000000000000000000000000000000000000000000000000000000000000000000000000000000000000000000000000000000000000000000000000000000000000000000000000000000000000000000000000000000000000000000000000000000000000000000000000000000000000000000000000000000000000000000000000000000000000000000000000000000000000000000000000000000000000000000000000000000000000000000000000000000000000000000000000",
                    "coinbase" : "0x2adc25665018aa1fe0e6bc666dac8fc2697ff9ba",
                    "difficulty" : "0x20000",
                    "extraData" : "0x00",
                    "gasLimit" : "0x98bca4",
                    "gasUsed" : "0x314a6",
                    "hash" : "0x77bac20134ff6080162d236388d386769adadac8bf1254e19cfbbedb49a54ecc",
                    "mixHash" : "0x0000000000000000000000000000000000000000000000000000000000000000",
                    "nonce" : "0x0000000000000000",
                    "number" : "0x1",
                    "parentHash" : "0xcd19b6fe795192314d8d7d4750ea72023867c09ade2f71c9aa49fde7745bd65f",
                    "receiptTrie" : "0xff620938263c8591f78455da7ee0463475cc46ad12c305eed81d22ab6d47e3cc",
                    "stateRoot" : "0xb6420c7ed18ab22088f4b862d6748a67cf27f1116b8d1122922f14ac3e04f9cb",
                    "timestamp" : "0x3e8",
                    "transactionsTrie" : "0x59652e5662eb625efd106d67b9b25d3c12a15e69494d1d24f59d867c211f6761",
                    "uncleHash" : "0x1dcc4de8dec75d7aab85b567b6ccd41ad312451b948a7413f0a142fd40d49347"
                },
                "transactions" : [
                    {
                        "data" : "0x",
                        "gasLimit" : "0x0927c0",
                        "gasPrice" : "0x01",
                        "nonce" : "0x00",
                        "to" : "0xb94f5374fce5edbc8e2a8697c15331677e6ebf0b",
                        "value" : "0x00",
                        "v" : "0x1b",
                        "r" : "0x8d0699f23d032b86db35ed7bb39c2357bec870fbfbe7db30b1795d320d8965c6",
                        "s" : "0x02f578fd949e84f0dc1307f5dd714c9a7158b31891d43f45459edcb52e345f7c"
                    }
                ]
            }
        ]
    }
}