{
    "LoopCallsDepthThenRevert3_d0g0v0_Istanbul" : {
        "_info" : {
            "comment" : "",
            "filling-rpc-server" : "Geth-1.9.6-unstable-63b18027-20190920",
            "filling-tool-version" : "retesteth-0.0.1+commit.0ae18aef.Linux.g++",
            "lllcversion" : "Version: 0.5.12-develop.2019.9.13+commit.2d601a4f.Linux.g++",
            "source" : "src/GeneralStateTestsFiller/stRevertTest/LoopCallsDepthThenRevert3Filler.json",
            "sourceHash" : "e721eb7c6eba7d6aacc2e6e8e3a6d9939ab1680da7f767f30426f91b727806a6"
        },
        "genesisBlockHeader" : {
            "bloom" : "0x00000000000000000000000000000000000000000000000000000000000000000000000000000000000000000000000000000000000000000000000000000000000000000000000000000000000000000000000000000000000000000000000000000000000000000000000000000000000000000000000000000000000000000000000000000000000000000000000000000000000000000000000000000000000000000000000000000000000000000000000000000000000000000000000000000000000000000000000000000000000000000000000000000000000000000000000000000000000000000000000000000000000000000000000000000000",
            "coinbase" : "0x2adc25665018aa1fe0e6bc666dac8fc2697ff9ba",
            "difficulty" : "0x20000",
            "extraData" : "0x00",
            "gasLimit" : "0x7fffffffffffffff",
            "gasUsed" : "0x0",
            "hash" : "0x65643e38ce96b0158d84e35e7f4ceee8cc940235ddea0c776d084bcb8248b6a1",
            "mixHash" : "0x0000000000000000000000000000000000000000000000000000000000000000",
            "nonce" : "0x0000000000000000",
            "number" : "0x0",
            "parentHash" : "0x0000000000000000000000000000000000000000000000000000000000000000",
            "receiptTrie" : "0x56e81f171bcc55a6ff8345e692c0f86e5b48e01b996cadc001622fb5e363b421",
            "stateRoot" : "0x490f610945243ceb19ca3ffff579bb1f53a163a88f1f329ad744e0b5a3eac54a",
            "timestamp" : "0x0",
            "transactionsTrie" : "0x56e81f171bcc55a6ff8345e692c0f86e5b48e01b996cadc001622fb5e363b421",
            "uncleHash" : "0x1dcc4de8dec75d7aab85b567b6ccd41ad312451b948a7413f0a142fd40d49347"
        },
        "pre" : {
            "0xa000000000000000000000000000000000000000" : {
                "balance" : "0x0a",
                "code" : "0x6103fe60005414603f576001600054016000556000600060006000600073a0000000000000000000000000000000000000005af15061041a600054106053575b66600060006002f0600052600760196003f0505b",
                "nonce" : "0x00",
                "storage" : {
                }
            },
            "0xa94f5374fce5edbc8e2a8697c15331677e6ebf0b" : {
                "balance" : "0x13426172c74d822b878fe800000000",
                "code" : "0x",
                "nonce" : "0x00",
                "storage" : {
                }
            }
        },
        "postState" : {
            "0xa94f5374fce5edbc8e2a8697c15331677e6ebf0b" : {
                "code" : "0x",
                "nonce" : "0x01",
                "balance" : "0x13426172c74d822b878fe7ffc058b6",
                "storage" : {
                }
            },
            "0xa000000000000000000000000000000000000000" : {
                "code" : "0x6103fe60005414603f576001600054016000556000600060006000600073a0000000000000000000000000000000000000005af15061041a600054106053575b66600060006002f0600052600760196003f0505b",
                "nonce" : "0x01",
                "balance" : "0x07",
                "storage" : {
                    "0x00" : "0x03fe"
                }
            },
            "0x7db299e0885c85039f56fa504a13dd8ce8a56aa7" : {
                "code" : "0x",
                "nonce" : "0x02",
                "balance" : "0x01",
                "storage" : {
                }
            },
            "0x2adc25665018aa1fe0e6bc666dac8fc2697ff9ba" : {
                "code" : "0x",
                "nonce" : "0x00",
                "balance" : "0x1bc16d674f07a74a",
                "storage" : {
                }
            },
            "0xcd6807039caffddbd1c28a749ec91bef15f448e5" : {
                "code" : "0x",
                "nonce" : "0x01",
                "balance" : "0x02",
                "storage" : {
                }
            }
        },
        "network" : "Istanbul",
        "sealEngine" : "NoProof",
        "lastblockhash" : "0x578506823b6c7d95d1a21019a8164a3fc413a46039e7bf20c828763ace9615a0",
        "genesisRLP" : "0xf901fdf901f8a00000000000000000000000000000000000000000000000000000000000000000a01dcc4de8dec75d7aab85b567b6ccd41ad312451b948a7413f0a142fd40d49347942adc25665018aa1fe0e6bc666dac8fc2697ff9baa0490f610945243ceb19ca3ffff579bb1f53a163a88f1f329ad744e0b5a3eac54aa056e81f171bcc55a6ff8345e692c0f86e5b48e01b996cadc001622fb5e363b421a056e81f171bcc55a6ff8345e692c0f86e5b48e01b996cadc001622fb5e363b421b90100000000000000000000000000000000000000000000000000000000000000000000000000000000000000000000000000000000000000000000000000000000000000000000000000000000000000000000000000000000000000000000000000000000000000000000000000000000000000000000000000000000000000000000000000000000000000000000000000000000000000000000000000000000000000000000000000000000000000000000000000000000000000000000000000000000000000000000000000000000000000000000000000000000000000000000000000000000000000000000000000000000000000000000000000000000008302000080887fffffffffffffff808000a00000000000000000000000000000000000000000000000000000000000000000880000000000000000c0c0",
        "blocks" : [
            {
                "rlp" : "0xf9026af901fda065643e38ce96b0158d84e35e7f4ceee8cc940235ddea0c776d084bcb8248b6a1a01dcc4de8dec75d7aab85b567b6ccd41ad312451b948a7413f0a142fd40d49347942adc25665018aa1fe0e6bc666dac8fc2697ff9baa04e65e96ddcd6bd12399fff4bf5f1946bcb98507835c71630f96bc1eacebff0bea0a831c10910511d6c72251cbb15019166b4fc33a17b0b7cc22c8e91115d3f8ffea028f489ad8479fc71bfc8c22ffa1f23ddf289fd816b415868c61955cb49d01e71b90100000000000000000000000000000000000000000000000000000000000000000000000000000000000000000000000000000000000000000000000000000000000000000000000000000000000000000000000000000000000000000000000000000000000000000000000000000000000000000000000000000000000000000000000000000000000000000000000000000000000000000000000000000000000000000000000000000000000000000000000000000000000000000000000000000000000000000000000000000000000000000000000000000000000000000000000000000000000000000000000000000000000000000000000000000000008302000001887fffffffffffffff833fa74a8203e800a00000000000000000000000000000000000000000000000000000000000000000880000000000000000f867f8658001887fe000000000000194a00000000000000000000000000000000000000080801ca0aafab09d447503e4b4f21f56ba06714c86c3f5afd4110279bd6ddfb01ddf00c1a0238c28a6f6a45688195a5a9c82a709c3a8a2e30343b615c47ccc9e52d0ec6682c0",
                "blockHeader" : {
                    "bloom" : "0x00000000000000000000000000000000000000000000000000000000000000000000000000000000000000000000000000000000000000000000000000000000000000000000000000000000000000000000000000000000000000000000000000000000000000000000000000000000000000000000000000000000000000000000000000000000000000000000000000000000000000000000000000000000000000000000000000000000000000000000000000000000000000000000000000000000000000000000000000000000000000000000000000000000000000000000000000000000000000000000000000000000000000000000000000000000",
                    "coinbase" : "0x2adc25665018aa1fe0e6bc666dac8fc2697ff9ba",
                    "difficulty" : "0x20000",
                    "extraData" : "0x00",
                    "gasLimit" : "0x7fffffffffffffff",
                    "gasUsed" : "0x3fa74a",
                    "hash" : "0x578506823b6c7d95d1a21019a8164a3fc413a46039e7bf20c828763ace9615a0",
                    "mixHash" : "0x0000000000000000000000000000000000000000000000000000000000000000",
                    "nonce" : "0x0000000000000000",
                    "number" : "0x1",
                    "parentHash" : "0x65643e38ce96b0158d84e35e7f4ceee8cc940235ddea0c776d084bcb8248b6a1",
                    "receiptTrie" : "0x28f489ad8479fc71bfc8c22ffa1f23ddf289fd816b415868c61955cb49d01e71",
                    "stateRoot" : "0x4e65e96ddcd6bd12399fff4bf5f1946bcb98507835c71630f96bc1eacebff0be",
                    "timestamp" : "0x3e8",
                    "transactionsTrie" : "0xa831c10910511d6c72251cbb15019166b4fc33a17b0b7cc22c8e91115d3f8ffe",
                    "uncleHash" : "0x1dcc4de8dec75d7aab85b567b6ccd41ad312451b948a7413f0a142fd40d49347"
                },
                "transactions" : [
                    {
                        "data" : "0x",
                        "gasLimit" : "0x7fe0000000000001",
                        "gasPrice" : "0x01",
                        "nonce" : "0x00",
                        "to" : "0xa000000000000000000000000000000000000000",
                        "value" : "0x00",
                        "v" : "0x1c",
                        "r" : "0xaafab09d447503e4b4f21f56ba06714c86c3f5afd4110279bd6ddfb01ddf00c1",
                        "s" : "0x238c28a6f6a45688195a5a9c82a709c3a8a2e30343b615c47ccc9e52d0ec6682"
                    }
                ]
            }
        ]
    }
}