{
    "NashatyrevSuicideRevert_d0g0v0_Istanbul" : {
        "_info" : {
            "comment" : "",
            "filling-rpc-server" : "Geth-1.9.6-unstable-63b18027-20190920",
            "filling-tool-version" : "retesteth-0.0.1+commit.0ae18aef.Linux.g++",
            "lllcversion" : "Version: 0.5.12-develop.2019.9.13+commit.2d601a4f.Linux.g++",
            "source" : "src/GeneralStateTestsFiller/stRevertTest/NashatyrevSuicideRevertFiller.json",
            "sourceHash" : "ad65f1564f46fc794d08054ab4819f1b38a260c36de9fb688de5b1dadc3e5e8a"
        },
        "genesisBlockHeader" : {
            "bloom" : "0x00000000000000000000000000000000000000000000000000000000000000000000000000000000000000000000000000000000000000000000000000000000000000000000000000000000000000000000000000000000000000000000000000000000000000000000000000000000000000000000000000000000000000000000000000000000000000000000000000000000000000000000000000000000000000000000000000000000000000000000000000000000000000000000000000000000000000000000000000000000000000000000000000000000000000000000000000000000000000000000000000000000000000000000000000000000",
            "coinbase" : "0x2adc25665018aa1fe0e6bc666dac8fc2697ff9ba",
            "difficulty" : "0x20000",
            "extraData" : "0x00",
            "gasLimit" : "0x989680",
            "gasUsed" : "0x0",
            "hash" : "0xcbe7026935981ea1cd92e9001dad2cd23128d78fb8b3f50e1d85f739aaece440",
            "mixHash" : "0x0000000000000000000000000000000000000000000000000000000000000000",
            "nonce" : "0x0000000000000000",
            "number" : "0x0",
            "parentHash" : "0x0000000000000000000000000000000000000000000000000000000000000000",
            "receiptTrie" : "0x56e81f171bcc55a6ff8345e692c0f86e5b48e01b996cadc001622fb5e363b421",
            "stateRoot" : "0xb66870780d686f0b01e0b69294835d80d5f0d7cbfa7c66e0275dcb14a6e876ed",
            "timestamp" : "0x0",
            "transactionsTrie" : "0x56e81f171bcc55a6ff8345e692c0f86e5b48e01b996cadc001622fb5e363b421",
            "uncleHash" : "0x1dcc4de8dec75d7aab85b567b6ccd41ad312451b948a7413f0a142fd40d49347"
        },
        "pre" : {
            "0xa000000000000000000000000000000000000000" : {
                "balance" : "0x00",
                "code" : "0x60606040526000357c0100000000000000000000000000000000000000000000000000000000900463ffffffff1680639c3674fc14610049578063c040622614610058575b610000565b3461000057610056610067565b005b3461000057610065610147565b005b600060405160a680610200833901809050604051809103906000f080156100005790508073ffffffffffffffffffffffffffffffffffffffff1660405180807f6628290000000000000000000000000000000000000000000000000000000000815250600301905060405180910390207c010000000000000000000000000000000000000000000000000000000090046040518163ffffffff167c01000000000000000000000000000000000000000000000000000000000281526004018090506000604051808303816000876161da5a03f19250505050610000565b50565b3073ffffffffffffffffffffffffffffffffffffffff1660405180807f6261642829000000000000000000000000000000000000000000000000000000815250600501905060405180910390207c010000000000000000000000000000000000000000000000000000000090046040518163ffffffff167c01000000000000000000000000000000000000000000000000000000000281526004018090506000604051808303816000876161da5a03f192505050505b56006060604052346000575b608f806100176000396000f30060606040526000357c0100000000000000000000000000000000000000000000000000000000900463ffffffff16806326121ff014603c575b6000565b3460005760466048565b005b3373ffffffffffffffffffffffffffffffffffffffff16ff5b5600a165627a7a723058203d1a897befde21eff26abc325fb3da2f526bbc99de1c5c857d1835f673744ebd0029a165627a7a72305820850a52b31ec4745b7af15ba3bffdb1ba17f5d9a00a5f263ee287a92b568f534c0029",
                "nonce" : "0x00",
                "storage" : {
                }
            },
            "0xa94f5374fce5edbc8e2a8697c15331677e6ebf0b" : {
                "balance" : "0xe8d4a51000",
                "code" : "0x",
                "nonce" : "0x00",
                "storage" : {
                }
            }
        },
        "postState" : {
            "0xa94f5374fce5edbc8e2a8697c15331677e6ebf0b" : {
                "code" : "0x",
                "nonce" : "0x01",
                "balance" : "0xe8d49dcde6",
                "storage" : {
                }
            },
            "0xa000000000000000000000000000000000000000" : {
                "code" : "0x60606040526000357c0100000000000000000000000000000000000000000000000000000000900463ffffffff1680639c3674fc14610049578063c040622614610058575b610000565b3461000057610056610067565b005b3461000057610065610147565b005b600060405160a680610200833901809050604051809103906000f080156100005790508073ffffffffffffffffffffffffffffffffffffffff1660405180807f6628290000000000000000000000000000000000000000000000000000000000815250600301905060405180910390207c010000000000000000000000000000000000000000000000000000000090046040518163ffffffff167c01000000000000000000000000000000000000000000000000000000000281526004018090506000604051808303816000876161da5a03f19250505050610000565b50565b3073ffffffffffffffffffffffffffffffffffffffff1660405180807f6261642829000000000000000000000000000000000000000000000000000000815250600501905060405180910390207c010000000000000000000000000000000000000000000000000000000090046040518163ffffffff167c01000000000000000000000000000000000000000000000000000000000281526004018090506000604051808303816000876161da5a03f192505050505b56006060604052346000575b608f806100176000396000f30060606040526000357c0100000000000000000000000000000000000000000000000000000000900463ffffffff16806326121ff014603c575b6000565b3460005760466048565b005b3373ffffffffffffffffffffffffffffffffffffffff16ff5b5600a165627a7a723058203d1a897befde21eff26abc325fb3da2f526bbc99de1c5c857d1835f673744ebd0029a165627a7a72305820850a52b31ec4745b7af15ba3bffdb1ba17f5d9a00a5f263ee287a92b568f534c0029",
                "nonce" : "0x00",
                "balance" : "0x00",
                "storage" : {
                }
            },
            "0x2adc25665018aa1fe0e6bc666dac8fc2697ff9ba" : {
                "code" : "0x",
                "nonce" : "0x00",
                "balance" : "0x1bc16d674ecf421a",
                "storage" : {
                }
            }
        },
        "network" : "Istanbul",
        "sealEngine" : "NoProof",
        "lastblockhash" : "0x8994db137960f1ba72b361e801ab43c31cc8ddbd3f2cbe0be256985570e44716",
        "genesisRLP" : "0xf901f8f901f3a00000000000000000000000000000000000000000000000000000000000000000a01dcc4de8dec75d7aab85b567b6ccd41ad312451b948a7413f0a142fd40d49347942adc25665018aa1fe0e6bc666dac8fc2697ff9baa0b66870780d686f0b01e0b69294835d80d5f0d7cbfa7c66e0275dcb14a6e876eda056e81f171bcc55a6ff8345e692c0f86e5b48e01b996cadc001622fb5e363b421a056e81f171bcc55a6ff8345e692c0f86e5b48e01b996cadc001622fb5e363b421b9010000000000000000000000000000000000000000000000000000000000000000000000000000000000000000000000000000000000000000000000000000000000000000000000000000000000000000000000000000000000000000000000000000000000000000000000000000000000000000000000000000000000000000000000000000000000000000000000000000000000000000000000000000000000000000000000000000000000000000000000000000000000000000000000000000000000000000000000000000000000000000000000000000000000000000000000000000000000000000000000000000000000000000000000000000000000830200008083989680808000a00000000000000000000000000000000000000000000000000000000000000000880000000000000000c0c0",
        "blocks" : [
            {
                "rlp" : "0xf90264f901f8a0cbe7026935981ea1cd92e9001dad2cd23128d78fb8b3f50e1d85f739aaece440a01dcc4de8dec75d7aab85b567b6ccd41ad312451b948a7413f0a142fd40d49347942adc25665018aa1fe0e6bc666dac8fc2697ff9baa03564e5644c103d9d32facbedbec41214dd3baba0158db231ffd20656c3865476a0d62da52a5179dcf241fb05828aa7e5aed84a279242b60ac140e613f36b9c3776a0e8c88d4124e0647b867e9fc6f2c0013902cb6a8b6e4f242f0cc79b14ed7bb2a0b901000000000000000000000000000000000000000000000000000000000000000000000000000000000000000000000000000000000000000000000000000000000000000000000000000000000000000000000000000000000000000000000000000000000000000000000000000000000000000000000000000000000000000000000000000000000000000000000000000000000000000000000000000000000000000000000000000000000000000000000000000000000000000000000000000000000000000000000000000000000000000000000000000000000000000000000000000000000000000000000000000000000000000000000000000000000083020000018398bca48307421a8203e800a00000000000000000000000000000000000000000000000000000000000000000880000000000000000f866f86480018307a12094a0000000000000000000000000000000000000008084c04062261ca023078a8e381f497bacc2258e1d05d7698ae6d314e6c847df45fb3b83b0e88abfa03d5c4e23c45b361abb30924aaced4adb925ea78e2e43fe603bf504542cd4fe1ec0",
                "blockHeader" : {
                    "bloom" : "0x00000000000000000000000000000000000000000000000000000000000000000000000000000000000000000000000000000000000000000000000000000000000000000000000000000000000000000000000000000000000000000000000000000000000000000000000000000000000000000000000000000000000000000000000000000000000000000000000000000000000000000000000000000000000000000000000000000000000000000000000000000000000000000000000000000000000000000000000000000000000000000000000000000000000000000000000000000000000000000000000000000000000000000000000000000000",
                    "coinbase" : "0x2adc25665018aa1fe0e6bc666dac8fc2697ff9ba",
                    "difficulty" : "0x20000",
                    "extraData" : "0x00",
                    "gasLimit" : "0x98bca4",
                    "gasUsed" : "0x7421a",
                    "hash" : "0x8994db137960f1ba72b361e801ab43c31cc8ddbd3f2cbe0be256985570e44716",
                    "mixHash" : "0x0000000000000000000000000000000000000000000000000000000000000000",
                    "nonce" : "0x0000000000000000",
                    "number" : "0x1",
                    "parentHash" : "0xcbe7026935981ea1cd92e9001dad2cd23128d78fb8b3f50e1d85f739aaece440",
                    "receiptTrie" : "0xe8c88d4124e0647b867e9fc6f2c0013902cb6a8b6e4f242f0cc79b14ed7bb2a0",
                    "stateRoot" : "0x3564e5644c103d9d32facbedbec41214dd3baba0158db231ffd20656c3865476",
                    "timestamp" : "0x3e8",
                    "transactionsTrie" : "0xd62da52a5179dcf241fb05828aa7e5aed84a279242b60ac140e613f36b9c3776",
                    "uncleHash" : "0x1dcc4de8dec75d7aab85b567b6ccd41ad312451b948a7413f0a142fd40d49347"
                },
                "transactions" : [
                    {
                        "data" : "0xc0406226",
                        "gasLimit" : "0x07a120",
                        "gasPrice" : "0x01",
                        "nonce" : "0x00",
                        "to" : "0xa000000000000000000000000000000000000000",
                        "value" : "0x00",
                        "v" : "0x1c",
                        "r" : "0x23078a8e381f497bacc2258e1d05d7698ae6d314e6c847df45fb3b83b0e88abf",
                        "s" : "0x3d5c4e23c45b361abb30924aaced4adb925ea78e2e43fe603bf504542cd4fe1e"
                    }
                ]
            }
        ]
    }
}