{
    "RevertDepth2_d0g0v0_Istanbul" : {
        "_info" : {
            "comment" : "",
            "filling-rpc-server" : "Geth-1.9.6-unstable-63b18027-20190920",
            "filling-tool-version" : "retesteth-0.0.1+commit.0ae18aef.Linux.g++",
            "lllcversion" : "Version: 0.5.12-develop.2019.9.13+commit.2d601a4f.Linux.g++",
            "source" : "src/GeneralStateTestsFiller/stRevertTest/RevertDepth2Filler.json",
            "sourceHash" : "2a3ed92d97ea4a07313662e1b07eef1b4bf7078763d53bc1e95432f74af1ff11"
        },
        "genesisBlockHeader" : {
            "bloom" : "0x00000000000000000000000000000000000000000000000000000000000000000000000000000000000000000000000000000000000000000000000000000000000000000000000000000000000000000000000000000000000000000000000000000000000000000000000000000000000000000000000000000000000000000000000000000000000000000000000000000000000000000000000000000000000000000000000000000000000000000000000000000000000000000000000000000000000000000000000000000000000000000000000000000000000000000000000000000000000000000000000000000000000000000000000000000000",
            "coinbase" : "0x2adc25665018aa1fe0e6bc666dac8fc2697ff9ba",
            "difficulty" : "0x20000",
            "extraData" : "0x00",
            "gasLimit" : "0x989680",
            "gasUsed" : "0x0",
            "hash" : "0x6d4d1c2bf610b4577cbea3a7a3a5064ae57bc6ac1b28ad7d39f974e79b635f6f",
            "mixHash" : "0x0000000000000000000000000000000000000000000000000000000000000000",
            "nonce" : "0x0000000000000000",
            "number" : "0x0",
            "parentHash" : "0x0000000000000000000000000000000000000000000000000000000000000000",
            "receiptTrie" : "0x56e81f171bcc55a6ff8345e692c0f86e5b48e01b996cadc001622fb5e363b421",
            "stateRoot" : "0x265a2ac7c426a83b9d1a6198296033dec1dd13e5b6964c84d699ad4582b08176",
            "timestamp" : "0x0",
            "transactionsTrie" : "0x56e81f171bcc55a6ff8345e692c0f86e5b48e01b996cadc001622fb5e363b421",
            "uncleHash" : "0x1dcc4de8dec75d7aab85b567b6ccd41ad312451b948a7413f0a142fd40d49347"
        },
        "pre" : {
            "0xa000000000000000000000000000000000000000" : {
                "balance" : "0x00",
                "code" : "0x6000546001016000556000600060006000600073b000000000000000000000000000000000000000620249f0f16001556000600060006000600073d000000000000000000000000000000000000000620249f0f160025500",
                "nonce" : "0x00",
                "storage" : {
                }
            },
            "0xa94f5374fce5edbc8e2a8697c15331677e6ebf0b" : {
                "balance" : "0xe8d4a51000",
                "code" : "0x",
                "nonce" : "0x00",
                "storage" : {
                }
            },
            "0xb000000000000000000000000000000000000000" : {
                "balance" : "0x00",
                "code" : "0x6000546001016000556000600060006000600073c00000000000000000000000000000000000000061c350f160015500",
                "nonce" : "0x00",
                "storage" : {
                }
            },
            "0xc000000000000000000000000000000000000000" : {
                "balance" : "0x00",
                "code" : "0x60005460010160005500",
                "nonce" : "0x00",
                "storage" : {
                }
            },
            "0xd000000000000000000000000000000000000000" : {
                "balance" : "0x00",
                "code" : "0x6000546001016000556000600060006000600073c00000000000000000000000000000000000000061c350f16001555a60025500",
                "nonce" : "0x00",
                "storage" : {
                }
            }
        },
        "postState" : {
            "0xa94f5374fce5edbc8e2a8697c15331677e6ebf0b" : {
                "code" : "0x",
                "nonce" : "0x01",
                "balance" : "0xe8d4a27543",
                "storage" : {
                }
            },
            "0xa000000000000000000000000000000000000000" : {
                "code" : "0x6000546001016000556000600060006000600073b000000000000000000000000000000000000000620249f0f16001556000600060006000600073d000000000000000000000000000000000000000620249f0f160025500",
                "nonce" : "0x00",
                "balance" : "0x00",
                "storage" : {
                }
            },
            "0xb000000000000000000000000000000000000000" : {
                "code" : "0x6000546001016000556000600060006000600073c00000000000000000000000000000000000000061c350f160015500",
                "nonce" : "0x00",
                "balance" : "0x00",
                "storage" : {
                }
            },
            "0xc000000000000000000000000000000000000000" : {
                "code" : "0x60005460010160005500",
                "nonce" : "0x00",
                "balance" : "0x00",
                "storage" : {
                }
            },
            "0xd000000000000000000000000000000000000000" : {
                "code" : "0x6000546001016000556000600060006000600073c00000000000000000000000000000000000000061c350f16001555a60025500",
                "nonce" : "0x00",
                "balance" : "0x00",
                "storage" : {
                }
            },
            "0x2adc25665018aa1fe0e6bc666dac8fc2697ff9ba" : {
                "code" : "0x",
                "nonce" : "0x00",
                "balance" : "0x1bc16d674eca9abd",
                "storage" : {
                }
            }
        },
        "network" : "Istanbul",
        "sealEngine" : "NoProof",
        "lastblockhash" : "0x3e8e9b1a873cfaee80623f5b4c7d0bfb54cd87e0ae52ee66893d0a6fd4af8aff",
        "genesisRLP" : "0xf901f8f901f3a00000000000000000000000000000000000000000000000000000000000000000a01dcc4de8dec75d7aab85b567b6ccd41ad312451b948a7413f0a142fd40d49347942adc25665018aa1fe0e6bc666dac8fc2697ff9baa0265a2ac7c426a83b9d1a6198296033dec1dd13e5b6964c84d699ad4582b08176a056e81f171bcc55a6ff8345e692c0f86e5b48e01b996cadc001622fb5e363b421a056e81f171bcc55a6ff8345e692c0f86e5b48e01b996cadc001622fb5e363b421b9010000000000000000000000000000000000000000000000000000000000000000000000000000000000000000000000000000000000000000000000000000000000000000000000000000000000000000000000000000000000000000000000000000000000000000000000000000000000000000000000000000000000000000000000000000000000000000000000000000000000000000000000000000000000000000000000000000000000000000000000000000000000000000000000000000000000000000000000000000000000000000000000000000000000000000000000000000000000000000000000000000000000000000000000000000000000830200008083989680808000a00000000000000000000000000000000000000000000000000000000000000000880000000000000000c0c0",
        "blocks" : [
            {
                "rlp" : "0xf90260f901f8a06d4d1c2bf610b4577cbea3a7a3a5064ae57bc6ac1b28ad7d39f974e79b635f6fa01dcc4de8dec75d7aab85b567b6ccd41ad312451b948a7413f0a142fd40d49347942adc25665018aa1fe0e6bc666dac8fc2697ff9baa0689517b11f8cfcf61efb6c4b1a3faf102a42f5e7285e6d228b2ce939b8005df7a0f3f2ae0bd4ab03c7876d0a77879b6dd49fa680ab6709e75f55279c8006c6b08aa03c6f093a7893cba8ad3260a6fc4bd0354037088208bb0a8e241f113127384995b901000000000000000000000000000000000000000000000000000000000000000000000000000000000000000000000000000000000000000000000000000000000000000000000000000000000000000000000000000000000000000000000000000000000000000000000000000000000000000000000000000000000000000000000000000000000000000000000000000000000000000000000000000000000000000000000000000000000000000000000000000000000000000000000000000000000000000000000000000000000000000000000000000000000000000000000000000000000000000000000000000000000000000000000000000000000083020000018398bca483029abd8203e800a00000000000000000000000000000000000000000000000000000000000000000880000000000000000f862f860800183029abd94a00000000000000000000000000000000000000080801ba03937bea6a1633387223215ebe1f86e63a7b4b2b1f3e7b1ad88343465eb03a66ea055fe9b0de469d8575c2b9fc9c2e71d395a9bab580f17f00f657d1a696e3f5345c0",
                "blockHeader" : {
                    "bloom" : "0x00000000000000000000000000000000000000000000000000000000000000000000000000000000000000000000000000000000000000000000000000000000000000000000000000000000000000000000000000000000000000000000000000000000000000000000000000000000000000000000000000000000000000000000000000000000000000000000000000000000000000000000000000000000000000000000000000000000000000000000000000000000000000000000000000000000000000000000000000000000000000000000000000000000000000000000000000000000000000000000000000000000000000000000000000000000",
                    "coinbase" : "0x2adc25665018aa1fe0e6bc666dac8fc2697ff9ba",
                    "difficulty" : "0x20000",
                    "extraData" : "0x00",
                    "gasLimit" : "0x98bca4",
                    "gasUsed" : "0x29abd",
                    "hash" : "0x3e8e9b1a873cfaee80623f5b4c7d0bfb54cd87e0ae52ee66893d0a6fd4af8aff",
                    "mixHash" : "0x0000000000000000000000000000000000000000000000000000000000000000",
                    "nonce" : "0x0000000000000000",
                    "number" : "0x1",
                    "parentHash" : "0x6d4d1c2bf610b4577cbea3a7a3a5064ae57bc6ac1b28ad7d39f974e79b635f6f",
                    "receiptTrie" : "0x3c6f093a7893cba8ad3260a6fc4bd0354037088208bb0a8e241f113127384995",
                    "stateRoot" : "0x689517b11f8cfcf61efb6c4b1a3faf102a42f5e7285e6d228b2ce939b8005df7",
                    "timestamp" : "0x3e8",
                    "transactionsTrie" : "0xf3f2ae0bd4ab03c7876d0a77879b6dd49fa680ab6709e75f55279c8006c6b08a",
                    "uncleHash" : "0x1dcc4de8dec75d7aab85b567b6ccd41ad312451b948a7413f0a142fd40d49347"
                },
                "transactions" : [
                    {
                        "data" : "0x",
                        "gasLimit" : "0x029abd",
                        "gasPrice" : "0x01",
                        "nonce" : "0x00",
                        "to" : "0xa000000000000000000000000000000000000000",
                        "value" : "0x00",
                        "v" : "0x1b",
                        "r" : "0x3937bea6a1633387223215ebe1f86e63a7b4b2b1f3e7b1ad88343465eb03a66e",
                        "s" : "0x55fe9b0de469d8575c2b9fc9c2e71d395a9bab580f17f00f657d1a696e3f5345"
                    }
                ]
            }
        ]
    },
    "RevertDepth2_d0g1v0_Istanbul" : {
        "_info" : {
            "comment" : "",
            "filling-rpc-server" : "Geth-1.9.6-unstable-63b18027-20190920",
            "filling-tool-version" : "retesteth-0.0.1+commit.0ae18aef.Linux.g++",
            "lllcversion" : "Version: 0.5.12-develop.2019.9.13+commit.2d601a4f.Linux.g++",
            "source" : "src/GeneralStateTestsFiller/stRevertTest/RevertDepth2Filler.json",
            "sourceHash" : "2a3ed92d97ea4a07313662e1b07eef1b4bf7078763d53bc1e95432f74af1ff11"
        },
        "genesisBlockHeader" : {
            "bloom" : "0x00000000000000000000000000000000000000000000000000000000000000000000000000000000000000000000000000000000000000000000000000000000000000000000000000000000000000000000000000000000000000000000000000000000000000000000000000000000000000000000000000000000000000000000000000000000000000000000000000000000000000000000000000000000000000000000000000000000000000000000000000000000000000000000000000000000000000000000000000000000000000000000000000000000000000000000000000000000000000000000000000000000000000000000000000000000",
            "coinbase" : "0x2adc25665018aa1fe0e6bc666dac8fc2697ff9ba",
            "difficulty" : "0x20000",
            "extraData" : "0x00",
            "gasLimit" : "0x989680",
            "gasUsed" : "0x0",
            "hash" : "0x6d4d1c2bf610b4577cbea3a7a3a5064ae57bc6ac1b28ad7d39f974e79b635f6f",
            "mixHash" : "0x0000000000000000000000000000000000000000000000000000000000000000",
            "nonce" : "0x0000000000000000",
            "number" : "0x0",
            "parentHash" : "0x0000000000000000000000000000000000000000000000000000000000000000",
            "receiptTrie" : "0x56e81f171bcc55a6ff8345e692c0f86e5b48e01b996cadc001622fb5e363b421",
            "stateRoot" : "0x265a2ac7c426a83b9d1a6198296033dec1dd13e5b6964c84d699ad4582b08176",
            "timestamp" : "0x0",
            "transactionsTrie" : "0x56e81f171bcc55a6ff8345e692c0f86e5b48e01b996cadc001622fb5e363b421",
            "uncleHash" : "0x1dcc4de8dec75d7aab85b567b6ccd41ad312451b948a7413f0a142fd40d49347"
        },
        "pre" : {
            "0xa000000000000000000000000000000000000000" : {
                "balance" : "0x00",
                "code" : "0x6000546001016000556000600060006000600073b000000000000000000000000000000000000000620249f0f16001556000600060006000600073d000000000000000000000000000000000000000620249f0f160025500",
                "nonce" : "0x00",
                "storage" : {
                }
            },
            "0xa94f5374fce5edbc8e2a8697c15331677e6ebf0b" : {
                "balance" : "0xe8d4a51000",
                "code" : "0x",
                "nonce" : "0x00",
                "storage" : {
                }
            },
            "0xb000000000000000000000000000000000000000" : {
                "balance" : "0x00",
                "code" : "0x6000546001016000556000600060006000600073c00000000000000000000000000000000000000061c350f160015500",
                "nonce" : "0x00",
                "storage" : {
                }
            },
            "0xc000000000000000000000000000000000000000" : {
                "balance" : "0x00",
                "code" : "0x60005460010160005500",
                "nonce" : "0x00",
                "storage" : {
                }
            },
            "0xd000000000000000000000000000000000000000" : {
                "balance" : "0x00",
                "code" : "0x6000546001016000556000600060006000600073c00000000000000000000000000000000000000061c350f16001555a60025500",
                "nonce" : "0x00",
                "storage" : {
                }
            }
        },
        "postState" : {
            "0xa94f5374fce5edbc8e2a8697c15331677e6ebf0b" : {
                "code" : "0x",
                "nonce" : "0x01",
                "balance" : "0xe8d4a2fa13",
                "storage" : {
                }
            },
            "0xa000000000000000000000000000000000000000" : {
                "code" : "0x6000546001016000556000600060006000600073b000000000000000000000000000000000000000620249f0f16001556000600060006000600073d000000000000000000000000000000000000000620249f0f160025500",
                "nonce" : "0x00",
                "balance" : "0x00",
                "storage" : {
                }
            },
            "0xb000000000000000000000000000000000000000" : {
                "code" : "0x6000546001016000556000600060006000600073c00000000000000000000000000000000000000061c350f160015500",
                "nonce" : "0x00",
                "balance" : "0x00",
                "storage" : {
                }
            },
            "0xc000000000000000000000000000000000000000" : {
                "code" : "0x60005460010160005500",
                "nonce" : "0x00",
                "balance" : "0x00",
                "storage" : {
                }
            },
            "0xd000000000000000000000000000000000000000" : {
                "code" : "0x6000546001016000556000600060006000600073c00000000000000000000000000000000000000061c350f16001555a60025500",
                "nonce" : "0x00",
                "balance" : "0x00",
                "storage" : {
                }
            },
            "0x2adc25665018aa1fe0e6bc666dac8fc2697ff9ba" : {
                "code" : "0x",
                "nonce" : "0x00",
                "balance" : "0x1bc16d674eca15ed",
                "storage" : {
                }
            }
        },
        "network" : "Istanbul",
        "sealEngine" : "NoProof",
        "lastblockhash" : "0x6f36106e718b4729e362bae1a95566f2cd9a2770bfde96496aa0f08beb7cff5e",
        "genesisRLP" : "0xf901f8f901f3a00000000000000000000000000000000000000000000000000000000000000000a01dcc4de8dec75d7aab85b567b6ccd41ad312451b948a7413f0a142fd40d49347942adc25665018aa1fe0e6bc666dac8fc2697ff9baa0265a2ac7c426a83b9d1a6198296033dec1dd13e5b6964c84d699ad4582b08176a056e81f171bcc55a6ff8345e692c0f86e5b48e01b996cadc001622fb5e363b421a056e81f171bcc55a6ff8345e692c0f86e5b48e01b996cadc001622fb5e363b421b9010000000000000000000000000000000000000000000000000000000000000000000000000000000000000000000000000000000000000000000000000000000000000000000000000000000000000000000000000000000000000000000000000000000000000000000000000000000000000000000000000000000000000000000000000000000000000000000000000000000000000000000000000000000000000000000000000000000000000000000000000000000000000000000000000000000000000000000000000000000000000000000000000000000000000000000000000000000000000000000000000000000000000000000000000000000000830200008083989680808000a00000000000000000000000000000000000000000000000000000000000000000880000000000000000c0c0",
        "blocks" : [
            {
                "rlp" : "0xf90260f901f8a06d4d1c2bf610b4577cbea3a7a3a5064ae57bc6ac1b28ad7d39f974e79b635f6fa01dcc4de8dec75d7aab85b567b6ccd41ad312451b948a7413f0a142fd40d49347942adc25665018aa1fe0e6bc666dac8fc2697ff9baa0191c990fa82b133b0d7f890cf8fb7b6d39775569b70622d094f22bd8b65c2e41a0487c02195e88dcce8211c05a1734736ad0e5b20e75dbe5125c8732bf8e887bdfa061c56cf855d2df7822da1a5e86702a4da31bfb84766b287275b50155633bd851b901000000000000000000000000000000000000000000000000000000000000000000000000000000000000000000000000000000000000000000000000000000000000000000000000000000000000000000000000000000000000000000000000000000000000000000000000000000000000000000000000000000000000000000000000000000000000000000000000000000000000000000000000000000000000000000000000000000000000000000000000000000000000000000000000000000000000000000000000000000000000000000000000000000000000000000000000000000000000000000000000000000000000000000000000000000000083020000018398bca4830215ed8203e800a00000000000000000000000000000000000000000000000000000000000000000880000000000000000f862f8608001830215ed94a00000000000000000000000000000000000000080801ca06b0ccc1a68fa70f83902b9b373df2dd34baa6273ef1a85f3d573f157d840811aa052f6cbfe3c8c6cf6e66337fb230e7bdd2dfd54c419f84b59b687670a2e8e5583c0",
                "blockHeader" : {
                    "bloom" : "0x00000000000000000000000000000000000000000000000000000000000000000000000000000000000000000000000000000000000000000000000000000000000000000000000000000000000000000000000000000000000000000000000000000000000000000000000000000000000000000000000000000000000000000000000000000000000000000000000000000000000000000000000000000000000000000000000000000000000000000000000000000000000000000000000000000000000000000000000000000000000000000000000000000000000000000000000000000000000000000000000000000000000000000000000000000000",
                    "coinbase" : "0x2adc25665018aa1fe0e6bc666dac8fc2697ff9ba",
                    "difficulty" : "0x20000",
                    "extraData" : "0x00",
                    "gasLimit" : "0x98bca4",
                    "gasUsed" : "0x215ed",
                    "hash" : "0x6f36106e718b4729e362bae1a95566f2cd9a2770bfde96496aa0f08beb7cff5e",
                    "mixHash" : "0x0000000000000000000000000000000000000000000000000000000000000000",
                    "nonce" : "0x0000000000000000",
                    "number" : "0x1",
                    "parentHash" : "0x6d4d1c2bf610b4577cbea3a7a3a5064ae57bc6ac1b28ad7d39f974e79b635f6f",
                    "receiptTrie" : "0x61c56cf855d2df7822da1a5e86702a4da31bfb84766b287275b50155633bd851",
                    "stateRoot" : "0x191c990fa82b133b0d7f890cf8fb7b6d39775569b70622d094f22bd8b65c2e41",
                    "timestamp" : "0x3e8",
                    "transactionsTrie" : "0x487c02195e88dcce8211c05a1734736ad0e5b20e75dbe5125c8732bf8e887bdf",
                    "uncleHash" : "0x1dcc4de8dec75d7aab85b567b6ccd41ad312451b948a7413f0a142fd40d49347"
                },
                "transactions" : [
                    {
                        "data" : "0x",
                        "gasLimit" : "0x0215ed",
                        "gasPrice" : "0x01",
                        "nonce" : "0x00",
                        "to" : "0xa000000000000000000000000000000000000000",
                        "value" : "0x00",
                        "v" : "0x1c",
                        "r" : "0x6b0ccc1a68fa70f83902b9b373df2dd34baa6273ef1a85f3d573f157d840811a",
                        "s" : "0x52f6cbfe3c8c6cf6e66337fb230e7bdd2dfd54c419f84b59b687670a2e8e5583"
                    }
                ]
            }
        ]
    }
}