{
    "RevertPrefoundEmptyOOG_d0g0v0_Istanbul" : {
        "_info" : {
            "comment" : "",
            "filling-rpc-server" : "Geth-1.9.6-unstable-63b18027-20190920",
            "filling-tool-version" : "retesteth-0.0.1+commit.0ae18aef.Linux.g++",
            "lllcversion" : "Version: 0.5.12-develop.2019.9.13+commit.2d601a4f.Linux.g++",
            "source" : "src/GeneralStateTestsFiller/stRevertTest/RevertPrefoundEmptyOOGFiller.json",
            "sourceHash" : "c63e26942e0db3b424a2c07d0496786a4d56872b54814d6747db6543b520d91b"
        },
        "genesisBlockHeader" : {
            "bloom" : "0x00000000000000000000000000000000000000000000000000000000000000000000000000000000000000000000000000000000000000000000000000000000000000000000000000000000000000000000000000000000000000000000000000000000000000000000000000000000000000000000000000000000000000000000000000000000000000000000000000000000000000000000000000000000000000000000000000000000000000000000000000000000000000000000000000000000000000000000000000000000000000000000000000000000000000000000000000000000000000000000000000000000000000000000000000000000",
            "coinbase" : "0x2adc25665018aa1fe0e6bc666dac8fc2697ff9ba",
            "difficulty" : "0x20000",
            "extraData" : "0x00",
            "gasLimit" : "0x989680",
            "gasUsed" : "0x0",
            "hash" : "0xfb7a2ace13406ba4620acd3ea0533a45a7360bddcd6fe8574659271059e6a66c",
            "mixHash" : "0x0000000000000000000000000000000000000000000000000000000000000000",
            "nonce" : "0x0000000000000000",
            "number" : "0x0",
            "parentHash" : "0x0000000000000000000000000000000000000000000000000000000000000000",
            "receiptTrie" : "0x56e81f171bcc55a6ff8345e692c0f86e5b48e01b996cadc001622fb5e363b421",
            "stateRoot" : "0x031b2d43b8dd126e8efe41f2a129e3c881da04d878a26fcb2d6c1a77a22a01d4",
            "timestamp" : "0x0",
            "transactionsTrie" : "0x56e81f171bcc55a6ff8345e692c0f86e5b48e01b996cadc001622fb5e363b421",
            "uncleHash" : "0x1dcc4de8dec75d7aab85b567b6ccd41ad312451b948a7413f0a142fd40d49347"
        },
        "pre" : {
            "0x7db299e0885c85039f56fa504a13dd8ce8a56aa7" : {
                "balance" : "0x00",
                "code" : "0x",
                "nonce" : "0x00",
                "storage" : {
                }
            },
            "0xa000000000000000000000000000000000000000" : {
                "balance" : "0x01",
                "code" : "0x602060006000f0600055600c60015500",
                "nonce" : "0x00",
                "storage" : {
                }
            },
            "0xa94f5374fce5edbc8e2a8697c15331677e6ebf0b" : {
                "balance" : "0xe8d4a51000",
                "code" : "0x",
                "nonce" : "0x00",
                "storage" : {
                }
            }
        },
        "postState" : {
            "0xa94f5374fce5edbc8e2a8697c15331677e6ebf0b" : {
                "code" : "0x",
                "nonce" : "0x01",
                "balance" : "0xe8d4a3a4b8",
                "storage" : {
                }
            },
            "0xa000000000000000000000000000000000000000" : {
                "code" : "0x602060006000f0600055600c60015500",
                "nonce" : "0x00",
                "balance" : "0x01",
                "storage" : {
                }
            },
            "0x7db299e0885c85039f56fa504a13dd8ce8a56aa7" : {
                "code" : "0x",
                "nonce" : "0x00",
                "balance" : "0x00",
                "storage" : {
                }
            },
            "0x2adc25665018aa1fe0e6bc666dac8fc2697ff9ba" : {
                "code" : "0x",
                "nonce" : "0x00",
                "balance" : "0x1bc16d674ec96b48",
                "storage" : {
                }
            }
        },
        "network" : "Istanbul",
        "sealEngine" : "NoProof",
        "lastblockhash" : "0x2704c76487c08698785cb96246454dfc7963f67efcc62e4ab103e2cd3547104f",
        "genesisRLP" : "0xf901f8f901f3a00000000000000000000000000000000000000000000000000000000000000000a01dcc4de8dec75d7aab85b567b6ccd41ad312451b948a7413f0a142fd40d49347942adc25665018aa1fe0e6bc666dac8fc2697ff9baa0031b2d43b8dd126e8efe41f2a129e3c881da04d878a26fcb2d6c1a77a22a01d4a056e81f171bcc55a6ff8345e692c0f86e5b48e01b996cadc001622fb5e363b421a056e81f171bcc55a6ff8345e692c0f86e5b48e01b996cadc001622fb5e363b421b9010000000000000000000000000000000000000000000000000000000000000000000000000000000000000000000000000000000000000000000000000000000000000000000000000000000000000000000000000000000000000000000000000000000000000000000000000000000000000000000000000000000000000000000000000000000000000000000000000000000000000000000000000000000000000000000000000000000000000000000000000000000000000000000000000000000000000000000000000000000000000000000000000000000000000000000000000000000000000000000000000000000000000000000000000000000000830200008083989680808000a00000000000000000000000000000000000000000000000000000000000000000880000000000000000c0c0",
        "blocks" : [
            {
                "rlp" : "0xf90260f901f8a0fb7a2ace13406ba4620acd3ea0533a45a7360bddcd6fe8574659271059e6a66ca01dcc4de8dec75d7aab85b567b6ccd41ad312451b948a7413f0a142fd40d49347942adc25665018aa1fe0e6bc666dac8fc2697ff9baa0338316c8326c143d56c11e971a171f554c1bc1d3df23a700a1d26f53ac8d0d20a04169e812fe662239d8c464c34515caa66dffa912859b360668668d35741543c1a0982f8a0eedb427918fbb2f3db7c5a72451437d3e482f851b69047ab57d90616db901000000000000000000000000000000000000000000000000000000000000000000000000000000000000000000000000000000000000000000000000000000000000000000000000000000000000000000000000000000000000000000000000000000000000000000000000000000000000000000000000000000000000000000000000000000000000000000000000000000000000000000000000000000000000000000000000000000000000000000000000000000000000000000000000000000000000000000000000000000000000000000000000000000000000000000000000000000000000000000000000000000000000000000000000000000000083020000018398bca483016b488203e800a00000000000000000000000000000000000000000000000000000000000000000880000000000000000f862f860800183016b4894a00000000000000000000000000000000000000080801ca0d33edc94825b2014a3f433643597c12717eb1c31a002b106bfd36f7c5f3585d4a057cf76e2958fa2458f2f7968732544f5ead49e6e82d493a1d08f44f4c85e7cabc0",
                "blockHeader" : {
                    "bloom" : "0x00000000000000000000000000000000000000000000000000000000000000000000000000000000000000000000000000000000000000000000000000000000000000000000000000000000000000000000000000000000000000000000000000000000000000000000000000000000000000000000000000000000000000000000000000000000000000000000000000000000000000000000000000000000000000000000000000000000000000000000000000000000000000000000000000000000000000000000000000000000000000000000000000000000000000000000000000000000000000000000000000000000000000000000000000000000",
                    "coinbase" : "0x2adc25665018aa1fe0e6bc666dac8fc2697ff9ba",
                    "difficulty" : "0x20000",
                    "extraData" : "0x00",
                    "gasLimit" : "0x98bca4",
                    "gasUsed" : "0x16b48",
                    "hash" : "0x2704c76487c08698785cb96246454dfc7963f67efcc62e4ab103e2cd3547104f",
                    "mixHash" : "0x0000000000000000000000000000000000000000000000000000000000000000",
                    "nonce" : "0x0000000000000000",
                    "number" : "0x1",
                    "parentHash" : "0xfb7a2ace13406ba4620acd3ea0533a45a7360bddcd6fe8574659271059e6a66c",
                    "receiptTrie" : "0x982f8a0eedb427918fbb2f3db7c5a72451437d3e482f851b69047ab57d90616d",
                    "stateRoot" : "0x338316c8326c143d56c11e971a171f554c1bc1d3df23a700a1d26f53ac8d0d20",
                    "timestamp" : "0x3e8",
                    "transactionsTrie" : "0x4169e812fe662239d8c464c34515caa66dffa912859b360668668d35741543c1",
                    "uncleHash" : "0x1dcc4de8dec75d7aab85b567b6ccd41ad312451b948a7413f0a142fd40d49347"
                },
                "transactions" : [
                    {
                        "data" : "0x",
                        "gasLimit" : "0x016b48",
                        "gasPrice" : "0x01",
                        "nonce" : "0x00",
                        "to" : "0xa000000000000000000000000000000000000000",
                        "value" : "0x00",
                        "v" : "0x1c",
                        "r" : "0xd33edc94825b2014a3f433643597c12717eb1c31a002b106bfd36f7c5f3585d4",
                        "s" : "0x57cf76e2958fa2458f2f7968732544f5ead49e6e82d493a1d08f44f4c85e7cab"
                    }
                ]
            }
        ]
    }
}