{
    "RevertRemoteSubCallStorageOOG_d0g0v0_Istanbul" : {
        "_info" : {
            "comment" : "",
            "filling-rpc-server" : "Geth-1.9.6-unstable-63b18027-20190920",
            "filling-tool-version" : "retesteth-0.0.1+commit.0ae18aef.Linux.g++",
            "lllcversion" : "Version: 0.5.12-develop.2019.9.13+commit.2d601a4f.Linux.g++",
            "source" : "src/GeneralStateTestsFiller/stRevertTest/RevertRemoteSubCallStorageOOGFiller.json",
            "sourceHash" : "832db8ff3840973394ec8fa2fe93a5b815c2b2102483118a31ae016428aed6ff"
        },
        "genesisBlockHeader" : {
            "bloom" : "0x00000000000000000000000000000000000000000000000000000000000000000000000000000000000000000000000000000000000000000000000000000000000000000000000000000000000000000000000000000000000000000000000000000000000000000000000000000000000000000000000000000000000000000000000000000000000000000000000000000000000000000000000000000000000000000000000000000000000000000000000000000000000000000000000000000000000000000000000000000000000000000000000000000000000000000000000000000000000000000000000000000000000000000000000000000000",
            "coinbase" : "0x2adc25665018aa1fe0e6bc666dac8fc2697ff9ba",
            "difficulty" : "0x20000",
            "extraData" : "0x00",
            "gasLimit" : "0x989680",
            "gasUsed" : "0x0",
            "hash" : "0x57d4cfbb9fa75efe3a126df3ec9482897878fd96f624ddc099f497bb2d697cd6",
            "mixHash" : "0x0000000000000000000000000000000000000000000000000000000000000000",
            "nonce" : "0x0000000000000000",
            "number" : "0x0",
            "parentHash" : "0x0000000000000000000000000000000000000000000000000000000000000000",
            "receiptTrie" : "0x56e81f171bcc55a6ff8345e692c0f86e5b48e01b996cadc001622fb5e363b421",
            "stateRoot" : "0x27e301526d6c628f31e2d8c3a886baf14d5b8bbfc388e70185afeac73fdb323b",
            "timestamp" : "0x0",
            "transactionsTrie" : "0x56e81f171bcc55a6ff8345e692c0f86e5b48e01b996cadc001622fb5e363b421",
            "uncleHash" : "0x1dcc4de8dec75d7aab85b567b6ccd41ad312451b948a7413f0a142fd40d49347"
        },
        "pre" : {
            "0xa000000000000000000000000000000000000000" : {
                "balance" : "0x01",
                "code" : "0x60606040526000357c0100000000000000000000000000000000000000000000000000000000900463ffffffff168063b28175c414610049578063c040622614610058575b610000565b346100005761005661007f565b005b346100005761006561008a565b604051808215151515815260200191505060405180910390f35b600c6000819055505b565b6000600060405161016f80610163833901809050604051809103906000f080156100005790508073ffffffffffffffffffffffffffffffffffffffff166373027f6d306040518263ffffffff167c0100000000000000000000000000000000000000000000000000000000028152600401808273ffffffffffffffffffffffffffffffffffffffff1673ffffffffffffffffffffffffffffffffffffffff168152602001915050600060405180830381600087803b156100005760325a03f11561000057505050600d600181905550600191505b50905600606060405234610000575b610156806100196000396000f30060606040526000357c0100000000000000000000000000000000000000000000000000000000900463ffffffff16806373027f6d1461003e575b610000565b346100005761006f600480803573ffffffffffffffffffffffffffffffffffffffff16906020019091905050610071565b005b8073ffffffffffffffffffffffffffffffffffffffff1660405180807f73746f7228290000000000000000000000000000000000000000000000000000815250600601905060405180910390207c010000000000000000000000000000000000000000000000000000000090046040518163ffffffff167c01000000000000000000000000000000000000000000000000000000000281526004018090506000604051808303816000876161da5a03f192505050505b505600a165627a7a72305820db9c9d1f37fd36768131a0bf9687f465e15b0503452e603be6b6f07b70d72e260029a165627a7a72305820f8ff2f7feef24d01a1cc070e67db9e15ac34810c8e5d1c7f34f3c38148eeae900029",
                "nonce" : "0x00",
                "storage" : {
                }
            },
            "0xa94f5374fce5edbc8e2a8697c15331677e6ebf0b" : {
                "balance" : "0xe8d4a51000",
                "code" : "0x",
                "nonce" : "0x00",
                "storage" : {
                }
            }
        },
        "postState" : {
            "0xa94f5374fce5edbc8e2a8697c15331677e6ebf0b" : {
                "code" : "0x",
                "nonce" : "0x01",
                "balance" : "0xe8d4a2cde0",
                "storage" : {
                }
            },
            "0xa000000000000000000000000000000000000000" : {
                "code" : "0x60606040526000357c0100000000000000000000000000000000000000000000000000000000900463ffffffff168063b28175c414610049578063c040622614610058575b610000565b346100005761005661007f565b005b346100005761006561008a565b604051808215151515815260200191505060405180910390f35b600c6000819055505b565b6000600060405161016f80610163833901809050604051809103906000f080156100005790508073ffffffffffffffffffffffffffffffffffffffff166373027f6d306040518263ffffffff167c0100000000000000000000000000000000000000000000000000000000028152600401808273ffffffffffffffffffffffffffffffffffffffff1673ffffffffffffffffffffffffffffffffffffffff168152602001915050600060405180830381600087803b156100005760325a03f11561000057505050600d600181905550600191505b50905600606060405234610000575b610156806100196000396000f30060606040526000357c0100000000000000000000000000000000000000000000000000000000900463ffffffff16806373027f6d1461003e575b610000565b346100005761006f600480803573ffffffffffffffffffffffffffffffffffffffff16906020019091905050610071565b005b8073ffffffffffffffffffffffffffffffffffffffff1660405180807f73746f7228290000000000000000000000000000000000000000000000000000815250600601905060405180910390207c010000000000000000000000000000000000000000000000000000000090046040518163ffffffff167c01000000000000000000000000000000000000000000000000000000000281526004018090506000604051808303816000876161da5a03f192505050505b505600a165627a7a72305820db9c9d1f37fd36768131a0bf9687f465e15b0503452e603be6b6f07b70d72e260029a165627a7a72305820f8ff2f7feef24d01a1cc070e67db9e15ac34810c8e5d1c7f34f3c38148eeae900029",
                "nonce" : "0x00",
                "balance" : "0x01",
                "storage" : {
                }
            },
            "0x2adc25665018aa1fe0e6bc666dac8fc2697ff9ba" : {
                "code" : "0x",
                "nonce" : "0x00",
                "balance" : "0x1bc16d674eca4220",
                "storage" : {
                }
            }
        },
        "network" : "Istanbul",
        "sealEngine" : "NoProof",
        "lastblockhash" : "0x8b98d48070d8d8982e4819f6f78b894340b9e7b47260ac5cc8a34a68aa5097f9",
        "genesisRLP" : "0xf901f8f901f3a00000000000000000000000000000000000000000000000000000000000000000a01dcc4de8dec75d7aab85b567b6ccd41ad312451b948a7413f0a142fd40d49347942adc25665018aa1fe0e6bc666dac8fc2697ff9baa027e301526d6c628f31e2d8c3a886baf14d5b8bbfc388e70185afeac73fdb323ba056e81f171bcc55a6ff8345e692c0f86e5b48e01b996cadc001622fb5e363b421a056e81f171bcc55a6ff8345e692c0f86e5b48e01b996cadc001622fb5e363b421b9010000000000000000000000000000000000000000000000000000000000000000000000000000000000000000000000000000000000000000000000000000000000000000000000000000000000000000000000000000000000000000000000000000000000000000000000000000000000000000000000000000000000000000000000000000000000000000000000000000000000000000000000000000000000000000000000000000000000000000000000000000000000000000000000000000000000000000000000000000000000000000000000000000000000000000000000000000000000000000000000000000000000000000000000000000000000830200008083989680808000a00000000000000000000000000000000000000000000000000000000000000000880000000000000000c0c0",
        "blocks" : [
            {
                "rlp" : "0xf90264f901f8a057d4cfbb9fa75efe3a126df3ec9482897878fd96f624ddc099f497bb2d697cd6a01dcc4de8dec75d7aab85b567b6ccd41ad312451b948a7413f0a142fd40d49347942adc25665018aa1fe0e6bc666dac8fc2697ff9baa05e66ea820c53872cc3ab5dd39741752049f35ae9f3a78c7b72925a221b227afaa074847272d7128fd10884ac695d167fd08814d11b19a6ffa3dd3cf0450905a01ea0128afbcf6bde7e0164568e5ad40b1e5678a76e398b26ebaa4a064adf19729d8ab901000000000000000000000000000000000000000000000000000000000000000000000000000000000000000000000000000000000000000000000000000000000000000000000000000000000000000000000000000000000000000000000000000000000000000000000000000000000000000000000000000000000000000000000000000000000000000000000000000000000000000000000000000000000000000000000000000000000000000000000000000000000000000000000000000000000000000000000000000000000000000000000000000000000000000000000000000000000000000000000000000000000000000000000000000000000083020000018398bca4830242208203e800a00000000000000000000000000000000000000000000000000000000000000000880000000000000000f866f86480018302422094a0000000000000000000000000000000000000008084c04062261ca094ef4edd5e137623b9413897543e1af8bb57edff25d3d2f40a684ccb7376b57aa0506824c3d8964004b8773fe8ad9f7212428b83002a65b060f8103bcd29274691c0",
                "blockHeader" : {
                    "bloom" : "0x00000000000000000000000000000000000000000000000000000000000000000000000000000000000000000000000000000000000000000000000000000000000000000000000000000000000000000000000000000000000000000000000000000000000000000000000000000000000000000000000000000000000000000000000000000000000000000000000000000000000000000000000000000000000000000000000000000000000000000000000000000000000000000000000000000000000000000000000000000000000000000000000000000000000000000000000000000000000000000000000000000000000000000000000000000000",
                    "coinbase" : "0x2adc25665018aa1fe0e6bc666dac8fc2697ff9ba",
                    "difficulty" : "0x20000",
                    "extraData" : "0x00",
                    "gasLimit" : "0x98bca4",
                    "gasUsed" : "0x24220",
                    "hash" : "0x8b98d48070d8d8982e4819f6f78b894340b9e7b47260ac5cc8a34a68aa5097f9",
                    "mixHash" : "0x0000000000000000000000000000000000000000000000000000000000000000",
                    "nonce" : "0x0000000000000000",
                    "number" : "0x1",
                    "parentHash" : "0x57d4cfbb9fa75efe3a126df3ec9482897878fd96f624ddc099f497bb2d697cd6",
                    "receiptTrie" : "0x128afbcf6bde7e0164568e5ad40b1e5678a76e398b26ebaa4a064adf19729d8a",
                    "stateRoot" : "0x5e66ea820c53872cc3ab5dd39741752049f35ae9f3a78c7b72925a221b227afa",
                    "timestamp" : "0x3e8",
                    "transactionsTrie" : "0x74847272d7128fd10884ac695d167fd08814d11b19a6ffa3dd3cf0450905a01e",
                    "uncleHash" : "0x1dcc4de8dec75d7aab85b567b6ccd41ad312451b948a7413f0a142fd40d49347"
                },
                "transactions" : [
                    {
                        "data" : "0xc0406226",
                        "gasLimit" : "0x024220",
                        "gasPrice" : "0x01",
                        "nonce" : "0x00",
                        "to" : "0xa000000000000000000000000000000000000000",
                        "value" : "0x00",
                        "v" : "0x1c",
                        "r" : "0x94ef4edd5e137623b9413897543e1af8bb57edff25d3d2f40a684ccb7376b57a",
                        "s" : "0x506824c3d8964004b8773fe8ad9f7212428b83002a65b060f8103bcd29274691"
                    }
                ]
            }
        ]
    },
    "RevertRemoteSubCallStorageOOG_d0g2v0_Istanbul" : {
        "_info" : {
            "comment" : "",
            "filling-rpc-server" : "Geth-1.9.6-unstable-63b18027-20190920",
            "filling-tool-version" : "retesteth-0.0.1+commit.0ae18aef.Linux.g++",
            "lllcversion" : "Version: 0.5.12-develop.2019.9.13+commit.2d601a4f.Linux.g++",
            "source" : "src/GeneralStateTestsFiller/stRevertTest/RevertRemoteSubCallStorageOOGFiller.json",
            "sourceHash" : "832db8ff3840973394ec8fa2fe93a5b815c2b2102483118a31ae016428aed6ff"
        },
        "genesisBlockHeader" : {
            "bloom" : "0x00000000000000000000000000000000000000000000000000000000000000000000000000000000000000000000000000000000000000000000000000000000000000000000000000000000000000000000000000000000000000000000000000000000000000000000000000000000000000000000000000000000000000000000000000000000000000000000000000000000000000000000000000000000000000000000000000000000000000000000000000000000000000000000000000000000000000000000000000000000000000000000000000000000000000000000000000000000000000000000000000000000000000000000000000000000",
            "coinbase" : "0x2adc25665018aa1fe0e6bc666dac8fc2697ff9ba",
            "difficulty" : "0x20000",
            "extraData" : "0x00",
            "gasLimit" : "0x989680",
            "gasUsed" : "0x0",
            "hash" : "0x57d4cfbb9fa75efe3a126df3ec9482897878fd96f624ddc099f497bb2d697cd6",
            "mixHash" : "0x0000000000000000000000000000000000000000000000000000000000000000",
            "nonce" : "0x0000000000000000",
            "number" : "0x0",
            "parentHash" : "0x0000000000000000000000000000000000000000000000000000000000000000",
            "receiptTrie" : "0x56e81f171bcc55a6ff8345e692c0f86e5b48e01b996cadc001622fb5e363b421",
            "stateRoot" : "0x27e301526d6c628f31e2d8c3a886baf14d5b8bbfc388e70185afeac73fdb323b",
            "timestamp" : "0x0",
            "transactionsTrie" : "0x56e81f171bcc55a6ff8345e692c0f86e5b48e01b996cadc001622fb5e363b421",
            "uncleHash" : "0x1dcc4de8dec75d7aab85b567b6ccd41ad312451b948a7413f0a142fd40d49347"
        },
        "pre" : {
            "0xa000000000000000000000000000000000000000" : {
                "balance" : "0x01",
                "code" : "0x60606040526000357c0100000000000000000000000000000000000000000000000000000000900463ffffffff168063b28175c414610049578063c040622614610058575b610000565b346100005761005661007f565b005b346100005761006561008a565b604051808215151515815260200191505060405180910390f35b600c6000819055505b565b6000600060405161016f80610163833901809050604051809103906000f080156100005790508073ffffffffffffffffffffffffffffffffffffffff166373027f6d306040518263ffffffff167c0100000000000000000000000000000000000000000000000000000000028152600401808273ffffffffffffffffffffffffffffffffffffffff1673ffffffffffffffffffffffffffffffffffffffff168152602001915050600060405180830381600087803b156100005760325a03f11561000057505050600d600181905550600191505b50905600606060405234610000575b610156806100196000396000f30060606040526000357c0100000000000000000000000000000000000000000000000000000000900463ffffffff16806373027f6d1461003e575b610000565b346100005761006f600480803573ffffffffffffffffffffffffffffffffffffffff16906020019091905050610071565b005b8073ffffffffffffffffffffffffffffffffffffffff1660405180807f73746f7228290000000000000000000000000000000000000000000000000000815250600601905060405180910390207c010000000000000000000000000000000000000000000000000000000090046040518163ffffffff167c01000000000000000000000000000000000000000000000000000000000281526004018090506000604051808303816000876161da5a03f192505050505b505600a165627a7a72305820db9c9d1f37fd36768131a0bf9687f465e15b0503452e603be6b6f07b70d72e260029a165627a7a72305820f8ff2f7feef24d01a1cc070e67db9e15ac34810c8e5d1c7f34f3c38148eeae900029",
                "nonce" : "0x00",
                "storage" : {
                }
            },
            "0xa94f5374fce5edbc8e2a8697c15331677e6ebf0b" : {
                "balance" : "0xe8d4a51000",
                "code" : "0x",
                "nonce" : "0x00",
                "storage" : {
                }
            }
        },
        "postState" : {
            "0xa94f5374fce5edbc8e2a8697c15331677e6ebf0b" : {
                "code" : "0x",
                "nonce" : "0x01",
                "balance" : "0xe8d4a2d998",
                "storage" : {
                }
            },
            "0xa000000000000000000000000000000000000000" : {
                "code" : "0x60606040526000357c0100000000000000000000000000000000000000000000000000000000900463ffffffff168063b28175c414610049578063c040622614610058575b610000565b346100005761005661007f565b005b346100005761006561008a565b604051808215151515815260200191505060405180910390f35b600c6000819055505b565b6000600060405161016f80610163833901809050604051809103906000f080156100005790508073ffffffffffffffffffffffffffffffffffffffff166373027f6d306040518263ffffffff167c0100000000000000000000000000000000000000000000000000000000028152600401808273ffffffffffffffffffffffffffffffffffffffff1673ffffffffffffffffffffffffffffffffffffffff168152602001915050600060405180830381600087803b156100005760325a03f11561000057505050600d600181905550600191505b50905600606060405234610000575b610156806100196000396000f30060606040526000357c0100000000000000000000000000000000000000000000000000000000900463ffffffff16806373027f6d1461003e575b610000565b346100005761006f600480803573ffffffffffffffffffffffffffffffffffffffff16906020019091905050610071565b005b8073ffffffffffffffffffffffffffffffffffffffff1660405180807f73746f7228290000000000000000000000000000000000000000000000000000815250600601905060405180910390207c010000000000000000000000000000000000000000000000000000000090046040518163ffffffff167c01000000000000000000000000000000000000000000000000000000000281526004018090506000604051808303816000876161da5a03f192505050505b505600a165627a7a72305820db9c9d1f37fd36768131a0bf9687f465e15b0503452e603be6b6f07b70d72e260029a165627a7a72305820f8ff2f7feef24d01a1cc070e67db9e15ac34810c8e5d1c7f34f3c38148eeae900029",
                "nonce" : "0x00",
                "balance" : "0x01",
                "storage" : {
                }
            },
            "0x2adc25665018aa1fe0e6bc666dac8fc2697ff9ba" : {
                "code" : "0x",
                "nonce" : "0x00",
                "balance" : "0x1bc16d674eca3668",
                "storage" : {
                }
            }
        },
        "network" : "Istanbul",
        "sealEngine" : "NoProof",
        "lastblockhash" : "0x0dee594f51967e9925621177c677eda5227a98d08bc46c490ba477f9c6ff40da",
        "genesisRLP" : "0xf901f8f901f3a00000000000000000000000000000000000000000000000000000000000000000a01dcc4de8dec75d7aab85b567b6ccd41ad312451b948a7413f0a142fd40d49347942adc25665018aa1fe0e6bc666dac8fc2697ff9baa027e301526d6c628f31e2d8c3a886baf14d5b8bbfc388e70185afeac73fdb323ba056e81f171bcc55a6ff8345e692c0f86e5b48e01b996cadc001622fb5e363b421a056e81f171bcc55a6ff8345e692c0f86e5b48e01b996cadc001622fb5e363b421b9010000000000000000000000000000000000000000000000000000000000000000000000000000000000000000000000000000000000000000000000000000000000000000000000000000000000000000000000000000000000000000000000000000000000000000000000000000000000000000000000000000000000000000000000000000000000000000000000000000000000000000000000000000000000000000000000000000000000000000000000000000000000000000000000000000000000000000000000000000000000000000000000000000000000000000000000000000000000000000000000000000000000000000000000000000000000830200008083989680808000a00000000000000000000000000000000000000000000000000000000000000000880000000000000000c0c0",
        "blocks" : [
            {
                "rlp" : "0xf90264f901f8a057d4cfbb9fa75efe3a126df3ec9482897878fd96f624ddc099f497bb2d697cd6a01dcc4de8dec75d7aab85b567b6ccd41ad312451b948a7413f0a142fd40d49347942adc25665018aa1fe0e6bc666dac8fc2697ff9baa0691d105043bd124fca290b2238e66ee51d8c63727940640af4da829fcfab8e0aa09cd4d9ea3be7c2f26f757ebfda36062f4bc2f46b3f244bd30673f72963697d57a0d8f57081f4ea2813a4f6b446d5a5b7600495c52ae075cfaebc8ae4d3f116e2e8b901000000000000000000000000000000000000000000000000000000000000000000000000000000000000000000000000000000000000000000000000000000000000000000000000000000000000000000000000000000000000000000000000000000000000000000000000000000000000000000000000000000000000000000000000000000000000000000000000000000000000000000000000000000000000000000000000000000000000000000000000000000000000000000000000000000000000000000000000000000000000000000000000000000000000000000000000000000000000000000000000000000000000000000000000000000000083020000018398bca4830236688203e800a00000000000000000000000000000000000000000000000000000000000000000880000000000000000f866f86480018302366894a0000000000000000000000000000000000000008084c04062261ca00732ad0b6c7efd9b1cd2d1dba4835fc97621a2a9a684a1d78842d19a2ebe7d5aa04c5a1223779d015f2c0c4fa197264b30db097dde85b2dc4e758a7bf2d6bd2ec5c0",
                "blockHeader" : {
                    "bloom" : "0x00000000000000000000000000000000000000000000000000000000000000000000000000000000000000000000000000000000000000000000000000000000000000000000000000000000000000000000000000000000000000000000000000000000000000000000000000000000000000000000000000000000000000000000000000000000000000000000000000000000000000000000000000000000000000000000000000000000000000000000000000000000000000000000000000000000000000000000000000000000000000000000000000000000000000000000000000000000000000000000000000000000000000000000000000000000",
                    "coinbase" : "0x2adc25665018aa1fe0e6bc666dac8fc2697ff9ba",
                    "difficulty" : "0x20000",
                    "extraData" : "0x00",
                    "gasLimit" : "0x98bca4",
                    "gasUsed" : "0x23668",
                    "hash" : "0x0dee594f51967e9925621177c677eda5227a98d08bc46c490ba477f9c6ff40da",
                    "mixHash" : "0x0000000000000000000000000000000000000000000000000000000000000000",
                    "nonce" : "0x0000000000000000",
                    "number" : "0x1",
                    "parentHash" : "0x57d4cfbb9fa75efe3a126df3ec9482897878fd96f624ddc099f497bb2d697cd6",
                    "receiptTrie" : "0xd8f57081f4ea2813a4f6b446d5a5b7600495c52ae075cfaebc8ae4d3f116e2e8",
                    "stateRoot" : "0x691d105043bd124fca290b2238e66ee51d8c63727940640af4da829fcfab8e0a",
                    "timestamp" : "0x3e8",
                    "transactionsTrie" : "0x9cd4d9ea3be7c2f26f757ebfda36062f4bc2f46b3f244bd30673f72963697d57",
                    "uncleHash" : "0x1dcc4de8dec75d7aab85b567b6ccd41ad312451b948a7413f0a142fd40d49347"
                },
                "transactions" : [
                    {
                        "data" : "0xc0406226",
                        "gasLimit" : "0x023668",
                        "gasPrice" : "0x01",
                        "nonce" : "0x00",
                        "to" : "0xa000000000000000000000000000000000000000",
                        "value" : "0x00",
                        "v" : "0x1c",
                        "r" : "0x0732ad0b6c7efd9b1cd2d1dba4835fc97621a2a9a684a1d78842d19a2ebe7d5a",
                        "s" : "0x4c5a1223779d015f2c0c4fa197264b30db097dde85b2dc4e758a7bf2d6bd2ec5"
                    }
                ]
            }
        ]
    },
    "RevertRemoteSubCallStorageOOG_d0g1v0_Istanbul" : {
        "_info" : {
            "comment" : "",
            "filling-rpc-server" : "Geth-1.9.6-unstable-63b18027-20190920",
            "filling-tool-version" : "retesteth-0.0.1+commit.0ae18aef.Linux.g++",
            "lllcversion" : "Version: 0.5.12-develop.2019.9.13+commit.2d601a4f.Linux.g++",
            "source" : "src/GeneralStateTestsFiller/stRevertTest/RevertRemoteSubCallStorageOOGFiller.json",
            "sourceHash" : "832db8ff3840973394ec8fa2fe93a5b815c2b2102483118a31ae016428aed6ff"
        },
        "genesisBlockHeader" : {
            "bloom" : "0x00000000000000000000000000000000000000000000000000000000000000000000000000000000000000000000000000000000000000000000000000000000000000000000000000000000000000000000000000000000000000000000000000000000000000000000000000000000000000000000000000000000000000000000000000000000000000000000000000000000000000000000000000000000000000000000000000000000000000000000000000000000000000000000000000000000000000000000000000000000000000000000000000000000000000000000000000000000000000000000000000000000000000000000000000000000",
            "coinbase" : "0x2adc25665018aa1fe0e6bc666dac8fc2697ff9ba",
            "difficulty" : "0x20000",
            "extraData" : "0x00",
            "gasLimit" : "0x989680",
            "gasUsed" : "0x0",
            "hash" : "0x57d4cfbb9fa75efe3a126df3ec9482897878fd96f624ddc099f497bb2d697cd6",
            "mixHash" : "0x0000000000000000000000000000000000000000000000000000000000000000",
            "nonce" : "0x0000000000000000",
            "number" : "0x0",
            "parentHash" : "0x0000000000000000000000000000000000000000000000000000000000000000",
            "receiptTrie" : "0x56e81f171bcc55a6ff8345e692c0f86e5b48e01b996cadc001622fb5e363b421",
            "stateRoot" : "0x27e301526d6c628f31e2d8c3a886baf14d5b8bbfc388e70185afeac73fdb323b",
            "timestamp" : "0x0",
            "transactionsTrie" : "0x56e81f171bcc55a6ff8345e692c0f86e5b48e01b996cadc001622fb5e363b421",
            "uncleHash" : "0x1dcc4de8dec75d7aab85b567b6ccd41ad312451b948a7413f0a142fd40d49347"
        },
        "pre" : {
            "0xa000000000000000000000000000000000000000" : {
                "balance" : "0x01",
                "code" : "0x60606040526000357c0100000000000000000000000000000000000000000000000000000000900463ffffffff168063b28175c414610049578063c040622614610058575b610000565b346100005761005661007f565b005b346100005761006561008a565b604051808215151515815260200191505060405180910390f35b600c6000819055505b565b6000600060405161016f80610163833901809050604051809103906000f080156100005790508073ffffffffffffffffffffffffffffffffffffffff166373027f6d306040518263ffffffff167c0100000000000000000000000000000000000000000000000000000000028152600401808273ffffffffffffffffffffffffffffffffffffffff1673ffffffffffffffffffffffffffffffffffffffff168152602001915050600060405180830381600087803b156100005760325a03f11561000057505050600d600181905550600191505b50905600606060405234610000575b610156806100196000396000f30060606040526000357c0100000000000000000000000000000000000000000000000000000000900463ffffffff16806373027f6d1461003e575b610000565b346100005761006f600480803573ffffffffffffffffffffffffffffffffffffffff16906020019091905050610071565b005b8073ffffffffffffffffffffffffffffffffffffffff1660405180807f73746f7228290000000000000000000000000000000000000000000000000000815250600601905060405180910390207c010000000000000000000000000000000000000000000000000000000090046040518163ffffffff167c01000000000000000000000000000000000000000000000000000000000281526004018090506000604051808303816000876161da5a03f192505050505b505600a165627a7a72305820db9c9d1f37fd36768131a0bf9687f465e15b0503452e603be6b6f07b70d72e260029a165627a7a72305820f8ff2f7feef24d01a1cc070e67db9e15ac34810c8e5d1c7f34f3c38148eeae900029",
                "nonce" : "0x00",
                "storage" : {
                }
            },
            "0xa94f5374fce5edbc8e2a8697c15331677e6ebf0b" : {
                "balance" : "0xe8d4a51000",
                "code" : "0x",
                "nonce" : "0x00",
                "storage" : {
                }
            }
        },
        "postState" : {
            "0xa94f5374fce5edbc8e2a8697c15331677e6ebf0b" : {
                "code" : "0x",
                "nonce" : "0x01",
                "balance" : "0xe8d4a28cc4",
                "storage" : {
                }
            },
            "0xa000000000000000000000000000000000000000" : {
                "code" : "0x60606040526000357c0100000000000000000000000000000000000000000000000000000000900463ffffffff168063b28175c414610049578063c040622614610058575b610000565b346100005761005661007f565b005b346100005761006561008a565b604051808215151515815260200191505060405180910390f35b600c6000819055505b565b6000600060405161016f80610163833901809050604051809103906000f080156100005790508073ffffffffffffffffffffffffffffffffffffffff166373027f6d306040518263ffffffff167c0100000000000000000000000000000000000000000000000000000000028152600401808273ffffffffffffffffffffffffffffffffffffffff1673ffffffffffffffffffffffffffffffffffffffff168152602001915050600060405180830381600087803b156100005760325a03f11561000057505050600d600181905550600191505b50905600606060405234610000575b610156806100196000396000f30060606040526000357c0100000000000000000000000000000000000000000000000000000000900463ffffffff16806373027f6d1461003e575b610000565b346100005761006f600480803573ffffffffffffffffffffffffffffffffffffffff16906020019091905050610071565b005b8073ffffffffffffffffffffffffffffffffffffffff1660405180807f73746f7228290000000000000000000000000000000000000000000000000000815250600601905060405180910390207c010000000000000000000000000000000000000000000000000000000090046040518163ffffffff167c01000000000000000000000000000000000000000000000000000000000281526004018090506000604051808303816000876161da5a03f192505050505b505600a165627a7a72305820db9c9d1f37fd36768131a0bf9687f465e15b0503452e603be6b6f07b70d72e260029a165627a7a72305820f8ff2f7feef24d01a1cc070e67db9e15ac34810c8e5d1c7f34f3c38148eeae900029",
                "nonce" : "0x01",
                "balance" : "0x01",
                "storage" : {
                    "0x00" : "0x0c",
                    "0x01" : "0x0d"
                }
            },
            "0x7db299e0885c85039f56fa504a13dd8ce8a56aa7" : {
                "code" : "0x60606040526000357c0100000000000000000000000000000000000000000000000000000000900463ffffffff16806373027f6d1461003e575b610000565b346100005761006f600480803573ffffffffffffffffffffffffffffffffffffffff16906020019091905050610071565b005b8073ffffffffffffffffffffffffffffffffffffffff1660405180807f73746f7228290000000000000000000000000000000000000000000000000000815250600601905060405180910390207c010000000000000000000000000000000000000000000000000000000090046040518163ffffffff167c01000000000000000000000000000000000000000000000000000000000281526004018090506000604051808303816000876161da5a03f192505050505b505600a165627a7a72305820db9c9d1f37fd36768131a0bf9687f465e15b0503452e603be6b6f07b70d72e260029",
                "nonce" : "0x01",
                "balance" : "0x00",
                "storage" : {
                }
            },
            "0x2adc25665018aa1fe0e6bc666dac8fc2697ff9ba" : {
                "code" : "0x",
                "nonce" : "0x00",
                "balance" : "0x1bc16d674eca833c",
                "storage" : {
                }
            }
        },
        "network" : "Istanbul",
        "sealEngine" : "NoProof",
        "lastblockhash" : "0x7e4323a6379c5edf7f985d758d2546550ac4921810b2af257afd4351686f6834",
        "genesisRLP" : "0xf901f8f901f3a00000000000000000000000000000000000000000000000000000000000000000a01dcc4de8dec75d7aab85b567b6ccd41ad312451b948a7413f0a142fd40d49347942adc25665018aa1fe0e6bc666dac8fc2697ff9baa027e301526d6c628f31e2d8c3a886baf14d5b8bbfc388e70185afeac73fdb323ba056e81f171bcc55a6ff8345e692c0f86e5b48e01b996cadc001622fb5e363b421a056e81f171bcc55a6ff8345e692c0f86e5b48e01b996cadc001622fb5e363b421b9010000000000000000000000000000000000000000000000000000000000000000000000000000000000000000000000000000000000000000000000000000000000000000000000000000000000000000000000000000000000000000000000000000000000000000000000000000000000000000000000000000000000000000000000000000000000000000000000000000000000000000000000000000000000000000000000000000000000000000000000000000000000000000000000000000000000000000000000000000000000000000000000000000000000000000000000000000000000000000000000000000000000000000000000000000000000830200008083989680808000a00000000000000000000000000000000000000000000000000000000000000000880000000000000000c0c0",
        "blocks" : [
            {
                "rlp" : "0xf90264f901f8a057d4cfbb9fa75efe3a126df3ec9482897878fd96f624ddc099f497bb2d697cd6a01dcc4de8dec75d7aab85b567b6ccd41ad312451b948a7413f0a142fd40d49347942adc25665018aa1fe0e6bc666dac8fc2697ff9baa0bfcc8a5d58073acfd11309a0f44487253e504f29cdcf8a03f105a0b2a4614082a00e843d65a79d5f13ce7c67b843be5a4e8a03883cf42f2abd2372dcae3de14fb0a00db4a3deeb53b9a41a131d451646c0a84659b1a975b96e55b459f960726031a6b901000000000000000000000000000000000000000000000000000000000000000000000000000000000000000000000000000000000000000000000000000000000000000000000000000000000000000000000000000000000000000000000000000000000000000000000000000000000000000000000000000000000000000000000000000000000000000000000000000000000000000000000000000000000000000000000000000000000000000000000000000000000000000000000000000000000000000000000000000000000000000000000000000000000000000000000000000000000000000000000000000000000000000000000000000000000083020000018398bca48302833c8203e800a00000000000000000000000000000000000000000000000000000000000000000880000000000000000f866f86480018302c30894a0000000000000000000000000000000000000008084c04062261ca08595945bb16d0e01e1d5d30cfa713240182150a8cfc4416cc3b633f1d569234ea028495891b66c06d49526f89d17edbd691b064fe4e397e55933ace1d67ae78618c0",
                "blockHeader" : {
                    "bloom" : "0x00000000000000000000000000000000000000000000000000000000000000000000000000000000000000000000000000000000000000000000000000000000000000000000000000000000000000000000000000000000000000000000000000000000000000000000000000000000000000000000000000000000000000000000000000000000000000000000000000000000000000000000000000000000000000000000000000000000000000000000000000000000000000000000000000000000000000000000000000000000000000000000000000000000000000000000000000000000000000000000000000000000000000000000000000000000",
                    "coinbase" : "0x2adc25665018aa1fe0e6bc666dac8fc2697ff9ba",
                    "difficulty" : "0x20000",
                    "extraData" : "0x00",
                    "gasLimit" : "0x98bca4",
                    "gasUsed" : "0x2833c",
                    "hash" : "0x7e4323a6379c5edf7f985d758d2546550ac4921810b2af257afd4351686f6834",
                    "mixHash" : "0x0000000000000000000000000000000000000000000000000000000000000000",
                    "nonce" : "0x0000000000000000",
                    "number" : "0x1",
                    "parentHash" : "0x57d4cfbb9fa75efe3a126df3ec9482897878fd96f624ddc099f497bb2d697cd6",
                    "receiptTrie" : "0x0db4a3deeb53b9a41a131d451646c0a84659b1a975b96e55b459f960726031a6",
                    "stateRoot" : "0xbfcc8a5d58073acfd11309a0f44487253e504f29cdcf8a03f105a0b2a4614082",
                    "timestamp" : "0x3e8",
                    "transactionsTrie" : "0x0e843d65a79d5f13ce7c67b843be5a4e8a03883cf42f2abd2372dcae3de14fb0",
                    "uncleHash" : "0x1dcc4de8dec75d7aab85b567b6ccd41ad312451b948a7413f0a142fd40d49347"
                },
                "transactions" : [
                    {
                        "data" : "0xc0406226",
                        "gasLimit" : "0x02c308",
                        "gasPrice" : "0x01",
                        "nonce" : "0x00",
                        "to" : "0xa000000000000000000000000000000000000000",
                        "value" : "0x00",
                        "v" : "0x1c",
                        "r" : "0x8595945bb16d0e01e1d5d30cfa713240182150a8cfc4416cc3b633f1d569234e",
                        "s" : "0x28495891b66c06d49526f89d17edbd691b064fe4e397e55933ace1d67ae78618"
                    }
                ]
            }
        ]
    }
}