{
    "RevertRemoteSubCallStorageOOG2_d0g2v0_Istanbul" : {
        "_info" : {
            "comment" : "",
            "filling-rpc-server" : "Geth-1.9.6-unstable-63b18027-20190920",
            "filling-tool-version" : "retesteth-0.0.1+commit.0ae18aef.Linux.g++",
            "lllcversion" : "Version: 0.5.12-develop.2019.9.13+commit.2d601a4f.Linux.g++",
            "source" : "src/GeneralStateTestsFiller/stRevertTest/RevertRemoteSubCallStorageOOG2Filler.json",
            "sourceHash" : "026af975e91b23a98cd56e8cc30722e8b2c1a511804e51e1f9632f6848aabc77"
        },
        "genesisBlockHeader" : {
            "bloom" : "0x00000000000000000000000000000000000000000000000000000000000000000000000000000000000000000000000000000000000000000000000000000000000000000000000000000000000000000000000000000000000000000000000000000000000000000000000000000000000000000000000000000000000000000000000000000000000000000000000000000000000000000000000000000000000000000000000000000000000000000000000000000000000000000000000000000000000000000000000000000000000000000000000000000000000000000000000000000000000000000000000000000000000000000000000000000000",
            "coinbase" : "0x2adc25665018aa1fe0e6bc666dac8fc2697ff9ba",
            "difficulty" : "0x20000",
            "extraData" : "0x00",
            "gasLimit" : "0x989680",
            "gasUsed" : "0x0",
            "hash" : "0xa84a98f3e2751c00efa7505e63bd13833b30be4e74b5135fe17ea9f959ca10f4",
            "mixHash" : "0x0000000000000000000000000000000000000000000000000000000000000000",
            "nonce" : "0x0000000000000000",
            "number" : "0x0",
            "parentHash" : "0x0000000000000000000000000000000000000000000000000000000000000000",
            "receiptTrie" : "0x56e81f171bcc55a6ff8345e692c0f86e5b48e01b996cadc001622fb5e363b421",
            "stateRoot" : "0x2bc0c1a44714a77c5ea1e838c9f03a3c998a763b021c99c1add2b60aa9147547",
            "timestamp" : "0x0",
            "transactionsTrie" : "0x56e81f171bcc55a6ff8345e692c0f86e5b48e01b996cadc001622fb5e363b421",
            "uncleHash" : "0x1dcc4de8dec75d7aab85b567b6ccd41ad312451b948a7413f0a142fd40d49347"
        },
        "pre" : {
            "0xa000000000000000000000000000000000000000" : {
                "balance" : "0x01",
                "code" : "0x60606040526000357c0100000000000000000000000000000000000000000000000000000000900463ffffffff168063b28175c414610049578063c040622614610058575b610000565b346100005761005661007f565b005b346100005761006561008a565b604051808215151515815260200191505060405180910390f35b600c6000819055505b565b6000600060405161016f8061016b833901809050604051809103906000f080156100005790508073ffffffffffffffffffffffffffffffffffffffff166373027f6d306040518263ffffffff167c0100000000000000000000000000000000000000000000000000000000028152600401808273ffffffffffffffffffffffffffffffffffffffff1673ffffffffffffffffffffffffffffffffffffffff168152602001915050600060405180830381600087803b156100005760325a03f11561000057505050600d600081905550600e600181905550600191505b50905600606060405234610000575b610156806100196000396000f30060606040526000357c0100000000000000000000000000000000000000000000000000000000900463ffffffff16806373027f6d1461003e575b610000565b346100005761006f600480803573ffffffffffffffffffffffffffffffffffffffff16906020019091905050610071565b005b8073ffffffffffffffffffffffffffffffffffffffff1660405180807f73746f7228290000000000000000000000000000000000000000000000000000815250600601905060405180910390207c010000000000000000000000000000000000000000000000000000000090046040518163ffffffff167c01000000000000000000000000000000000000000000000000000000000281526004018090506000604051808303816000876161da5a03f192505050505b505600a165627a7a723058201d40a4f4ab84c9ed5c1e6f9e4574875993931efb14de8c4fc6be556ceeef5cc20029a165627a7a72305820b3260ed34e660b9533216c5881783a6cc70a072f3dc8d26e835c4d14c3c2a7890029",
                "nonce" : "0x00",
                "storage" : {
                }
            },
            "0xa94f5374fce5edbc8e2a8697c15331677e6ebf0b" : {
                "balance" : "0xe8d4a51000",
                "code" : "0x",
                "nonce" : "0x00",
                "storage" : {
                }
            }
        },
        "postState" : {
            "0xa94f5374fce5edbc8e2a8697c15331677e6ebf0b" : {
                "code" : "0x",
                "nonce" : "0x01",
                "balance" : "0xe8d4a2d998",
                "storage" : {
                }
            },
            "0xa000000000000000000000000000000000000000" : {
                "code" : "0x60606040526000357c0100000000000000000000000000000000000000000000000000000000900463ffffffff168063b28175c414610049578063c040622614610058575b610000565b346100005761005661007f565b005b346100005761006561008a565b604051808215151515815260200191505060405180910390f35b600c6000819055505b565b6000600060405161016f8061016b833901809050604051809103906000f080156100005790508073ffffffffffffffffffffffffffffffffffffffff166373027f6d306040518263ffffffff167c0100000000000000000000000000000000000000000000000000000000028152600401808273ffffffffffffffffffffffffffffffffffffffff1673ffffffffffffffffffffffffffffffffffffffff168152602001915050600060405180830381600087803b156100005760325a03f11561000057505050600d600081905550600e600181905550600191505b50905600606060405234610000575b610156806100196000396000f30060606040526000357c0100000000000000000000000000000000000000000000000000000000900463ffffffff16806373027f6d1461003e575b610000565b346100005761006f600480803573ffffffffffffffffffffffffffffffffffffffff16906020019091905050610071565b005b8073ffffffffffffffffffffffffffffffffffffffff1660405180807f73746f7228290000000000000000000000000000000000000000000000000000815250600601905060405180910390207c010000000000000000000000000000000000000000000000000000000090046040518163ffffffff167c01000000000000000000000000000000000000000000000000000000000281526004018090506000604051808303816000876161da5a03f192505050505b505600a165627a7a723058201d40a4f4ab84c9ed5c1e6f9e4574875993931efb14de8c4fc6be556ceeef5cc20029a165627a7a72305820b3260ed34e660b9533216c5881783a6cc70a072f3dc8d26e835c4d14c3c2a7890029",
                "nonce" : "0x00",
                "balance" : "0x01",
                "storage" : {
                }
            },
            "0x2adc25665018aa1fe0e6bc666dac8fc2697ff9ba" : {
                "code" : "0x",
                "nonce" : "0x00",
                "balance" : "0x1bc16d674eca3668",
                "storage" : {
                }
            }
        },
        "network" : "Istanbul",
        "sealEngine" : "NoProof",
        "lastblockhash" : "0x294a93e7de0a9632cd457670cef3ff1510b7c8c01a56a213a36f137ab849a318",
        "genesisRLP" : "0xf901f8f901f3a00000000000000000000000000000000000000000000000000000000000000000a01dcc4de8dec75d7aab85b567b6ccd41ad312451b948a7413f0a142fd40d49347942adc25665018aa1fe0e6bc666dac8fc2697ff9baa02bc0c1a44714a77c5ea1e838c9f03a3c998a763b021c99c1add2b60aa9147547a056e81f171bcc55a6ff8345e692c0f86e5b48e01b996cadc001622fb5e363b421a056e81f171bcc55a6ff8345e692c0f86e5b48e01b996cadc001622fb5e363b421b9010000000000000000000000000000000000000000000000000000000000000000000000000000000000000000000000000000000000000000000000000000000000000000000000000000000000000000000000000000000000000000000000000000000000000000000000000000000000000000000000000000000000000000000000000000000000000000000000000000000000000000000000000000000000000000000000000000000000000000000000000000000000000000000000000000000000000000000000000000000000000000000000000000000000000000000000000000000000000000000000000000000000000000000000000000000000830200008083989680808000a00000000000000000000000000000000000000000000000000000000000000000880000000000000000c0c0",
        "blocks" : [
            {
                "rlp" : "0xf90264f901f8a0a84a98f3e2751c00efa7505e63bd13833b30be4e74b5135fe17ea9f959ca10f4a01dcc4de8dec75d7aab85b567b6ccd41ad312451b948a7413f0a142fd40d49347942adc25665018aa1fe0e6bc666dac8fc2697ff9baa086aeac2fd674721f8e96c3b6556eee51f054ce2a12e5cfc6214a97400dbbb59ea09cd4d9ea3be7c2f26f757ebfda36062f4bc2f46b3f244bd30673f72963697d57a0d8f57081f4ea2813a4f6b446d5a5b7600495c52ae075cfaebc8ae4d3f116e2e8b901000000000000000000000000000000000000000000000000000000000000000000000000000000000000000000000000000000000000000000000000000000000000000000000000000000000000000000000000000000000000000000000000000000000000000000000000000000000000000000000000000000000000000000000000000000000000000000000000000000000000000000000000000000000000000000000000000000000000000000000000000000000000000000000000000000000000000000000000000000000000000000000000000000000000000000000000000000000000000000000000000000000000000000000000000000000083020000018398bca4830236688203e800a00000000000000000000000000000000000000000000000000000000000000000880000000000000000f866f86480018302366894a0000000000000000000000000000000000000008084c04062261ca00732ad0b6c7efd9b1cd2d1dba4835fc97621a2a9a684a1d78842d19a2ebe7d5aa04c5a1223779d015f2c0c4fa197264b30db097dde85b2dc4e758a7bf2d6bd2ec5c0",
                "blockHeader" : {
                    "bloom" : "0x00000000000000000000000000000000000000000000000000000000000000000000000000000000000000000000000000000000000000000000000000000000000000000000000000000000000000000000000000000000000000000000000000000000000000000000000000000000000000000000000000000000000000000000000000000000000000000000000000000000000000000000000000000000000000000000000000000000000000000000000000000000000000000000000000000000000000000000000000000000000000000000000000000000000000000000000000000000000000000000000000000000000000000000000000000000",
                    "coinbase" : "0x2adc25665018aa1fe0e6bc666dac8fc2697ff9ba",
                    "difficulty" : "0x20000",
                    "extraData" : "0x00",
                    "gasLimit" : "0x98bca4",
                    "gasUsed" : "0x23668",
                    "hash" : "0x294a93e7de0a9632cd457670cef3ff1510b7c8c01a56a213a36f137ab849a318",
                    "mixHash" : "0x0000000000000000000000000000000000000000000000000000000000000000",
                    "nonce" : "0x0000000000000000",
                    "number" : "0x1",
                    "parentHash" : "0xa84a98f3e2751c00efa7505e63bd13833b30be4e74b5135fe17ea9f959ca10f4",
                    "receiptTrie" : "0xd8f57081f4ea2813a4f6b446d5a5b7600495c52ae075cfaebc8ae4d3f116e2e8",
                    "stateRoot" : "0x86aeac2fd674721f8e96c3b6556eee51f054ce2a12e5cfc6214a97400dbbb59e",
                    "timestamp" : "0x3e8",
                    "transactionsTrie" : "0x9cd4d9ea3be7c2f26f757ebfda36062f4bc2f46b3f244bd30673f72963697d57",
                    "uncleHash" : "0x1dcc4de8dec75d7aab85b567b6ccd41ad312451b948a7413f0a142fd40d49347"
                },
                "transactions" : [
                    {
                        "data" : "0xc0406226",
                        "gasLimit" : "0x023668",
                        "gasPrice" : "0x01",
                        "nonce" : "0x00",
                        "to" : "0xa000000000000000000000000000000000000000",
                        "value" : "0x00",
                        "v" : "0x1c",
                        "r" : "0x0732ad0b6c7efd9b1cd2d1dba4835fc97621a2a9a684a1d78842d19a2ebe7d5a",
                        "s" : "0x4c5a1223779d015f2c0c4fa197264b30db097dde85b2dc4e758a7bf2d6bd2ec5"
                    }
                ]
            }
        ]
    },
    "RevertRemoteSubCallStorageOOG2_d0g0v0_Istanbul" : {
        "_info" : {
            "comment" : "",
            "filling-rpc-server" : "Geth-1.9.6-unstable-63b18027-20190920",
            "filling-tool-version" : "retesteth-0.0.1+commit.0ae18aef.Linux.g++",
            "lllcversion" : "Version: 0.5.12-develop.2019.9.13+commit.2d601a4f.Linux.g++",
            "source" : "src/GeneralStateTestsFiller/stRevertTest/RevertRemoteSubCallStorageOOG2Filler.json",
            "sourceHash" : "026af975e91b23a98cd56e8cc30722e8b2c1a511804e51e1f9632f6848aabc77"
        },
        "genesisBlockHeader" : {
            "bloom" : "0x00000000000000000000000000000000000000000000000000000000000000000000000000000000000000000000000000000000000000000000000000000000000000000000000000000000000000000000000000000000000000000000000000000000000000000000000000000000000000000000000000000000000000000000000000000000000000000000000000000000000000000000000000000000000000000000000000000000000000000000000000000000000000000000000000000000000000000000000000000000000000000000000000000000000000000000000000000000000000000000000000000000000000000000000000000000",
            "coinbase" : "0x2adc25665018aa1fe0e6bc666dac8fc2697ff9ba",
            "difficulty" : "0x20000",
            "extraData" : "0x00",
            "gasLimit" : "0x989680",
            "gasUsed" : "0x0",
            "hash" : "0xa84a98f3e2751c00efa7505e63bd13833b30be4e74b5135fe17ea9f959ca10f4",
            "mixHash" : "0x0000000000000000000000000000000000000000000000000000000000000000",
            "nonce" : "0x0000000000000000",
            "number" : "0x0",
            "parentHash" : "0x0000000000000000000000000000000000000000000000000000000000000000",
            "receiptTrie" : "0x56e81f171bcc55a6ff8345e692c0f86e5b48e01b996cadc001622fb5e363b421",
            "stateRoot" : "0x2bc0c1a44714a77c5ea1e838c9f03a3c998a763b021c99c1add2b60aa9147547",
            "timestamp" : "0x0",
            "transactionsTrie" : "0x56e81f171bcc55a6ff8345e692c0f86e5b48e01b996cadc001622fb5e363b421",
            "uncleHash" : "0x1dcc4de8dec75d7aab85b567b6ccd41ad312451b948a7413f0a142fd40d49347"
        },
        "pre" : {
            "0xa000000000000000000000000000000000000000" : {
                "balance" : "0x01",
                "code" : "0x60606040526000357c0100000000000000000000000000000000000000000000000000000000900463ffffffff168063b28175c414610049578063c040622614610058575b610000565b346100005761005661007f565b005b346100005761006561008a565b604051808215151515815260200191505060405180910390f35b600c6000819055505b565b6000600060405161016f8061016b833901809050604051809103906000f080156100005790508073ffffffffffffffffffffffffffffffffffffffff166373027f6d306040518263ffffffff167c0100000000000000000000000000000000000000000000000000000000028152600401808273ffffffffffffffffffffffffffffffffffffffff1673ffffffffffffffffffffffffffffffffffffffff168152602001915050600060405180830381600087803b156100005760325a03f11561000057505050600d600081905550600e600181905550600191505b50905600606060405234610000575b610156806100196000396000f30060606040526000357c0100000000000000000000000000000000000000000000000000000000900463ffffffff16806373027f6d1461003e575b610000565b346100005761006f600480803573ffffffffffffffffffffffffffffffffffffffff16906020019091905050610071565b005b8073ffffffffffffffffffffffffffffffffffffffff1660405180807f73746f7228290000000000000000000000000000000000000000000000000000815250600601905060405180910390207c010000000000000000000000000000000000000000000000000000000090046040518163ffffffff167c01000000000000000000000000000000000000000000000000000000000281526004018090506000604051808303816000876161da5a03f192505050505b505600a165627a7a723058201d40a4f4ab84c9ed5c1e6f9e4574875993931efb14de8c4fc6be556ceeef5cc20029a165627a7a72305820b3260ed34e660b9533216c5881783a6cc70a072f3dc8d26e835c4d14c3c2a7890029",
                "nonce" : "0x00",
                "storage" : {
                }
            },
            "0xa94f5374fce5edbc8e2a8697c15331677e6ebf0b" : {
                "balance" : "0xe8d4a51000",
                "code" : "0x",
                "nonce" : "0x00",
                "storage" : {
                }
            }
        },
        "postState" : {
            "0xa94f5374fce5edbc8e2a8697c15331677e6ebf0b" : {
                "code" : "0x",
                "nonce" : "0x01",
                "balance" : "0xe8d4a28996",
                "storage" : {
                }
            },
            "0xa000000000000000000000000000000000000000" : {
                "code" : "0x60606040526000357c0100000000000000000000000000000000000000000000000000000000900463ffffffff168063b28175c414610049578063c040622614610058575b610000565b346100005761005661007f565b005b346100005761006561008a565b604051808215151515815260200191505060405180910390f35b600c6000819055505b565b6000600060405161016f8061016b833901809050604051809103906000f080156100005790508073ffffffffffffffffffffffffffffffffffffffff166373027f6d306040518263ffffffff167c0100000000000000000000000000000000000000000000000000000000028152600401808273ffffffffffffffffffffffffffffffffffffffff1673ffffffffffffffffffffffffffffffffffffffff168152602001915050600060405180830381600087803b156100005760325a03f11561000057505050600d600081905550600e600181905550600191505b50905600606060405234610000575b610156806100196000396000f30060606040526000357c0100000000000000000000000000000000000000000000000000000000900463ffffffff16806373027f6d1461003e575b610000565b346100005761006f600480803573ffffffffffffffffffffffffffffffffffffffff16906020019091905050610071565b005b8073ffffffffffffffffffffffffffffffffffffffff1660405180807f73746f7228290000000000000000000000000000000000000000000000000000815250600601905060405180910390207c010000000000000000000000000000000000000000000000000000000090046040518163ffffffff167c01000000000000000000000000000000000000000000000000000000000281526004018090506000604051808303816000876161da5a03f192505050505b505600a165627a7a723058201d40a4f4ab84c9ed5c1e6f9e4574875993931efb14de8c4fc6be556ceeef5cc20029a165627a7a72305820b3260ed34e660b9533216c5881783a6cc70a072f3dc8d26e835c4d14c3c2a7890029",
                "nonce" : "0x01",
                "balance" : "0x01",
                "storage" : {
                    "0x00" : "0x0d",
                    "0x01" : "0x0e"
                }
            },
            "0x7db299e0885c85039f56fa504a13dd8ce8a56aa7" : {
                "code" : "0x60606040526000357c0100000000000000000000000000000000000000000000000000000000900463ffffffff16806373027f6d1461003e575b610000565b346100005761006f600480803573ffffffffffffffffffffffffffffffffffffffff16906020019091905050610071565b005b8073ffffffffffffffffffffffffffffffffffffffff1660405180807f73746f7228290000000000000000000000000000000000000000000000000000815250600601905060405180910390207c010000000000000000000000000000000000000000000000000000000090046040518163ffffffff167c01000000000000000000000000000000000000000000000000000000000281526004018090506000604051808303816000876161da5a03f192505050505b505600a165627a7a723058201d40a4f4ab84c9ed5c1e6f9e4574875993931efb14de8c4fc6be556ceeef5cc20029",
                "nonce" : "0x01",
                "balance" : "0x00",
                "storage" : {
                }
            },
            "0x2adc25665018aa1fe0e6bc666dac8fc2697ff9ba" : {
                "code" : "0x",
                "nonce" : "0x00",
                "balance" : "0x1bc16d674eca866a",
                "storage" : {
                }
            }
        },
        "network" : "Istanbul",
        "sealEngine" : "NoProof",
        "lastblockhash" : "0xbc6bd067432dd2ae5331d5afd14f515747b1d0423ba6dd9afe5865a98d91b0fd",
        "genesisRLP" : "0xf901f8f901f3a00000000000000000000000000000000000000000000000000000000000000000a01dcc4de8dec75d7aab85b567b6ccd41ad312451b948a7413f0a142fd40d49347942adc25665018aa1fe0e6bc666dac8fc2697ff9baa02bc0c1a44714a77c5ea1e838c9f03a3c998a763b021c99c1add2b60aa9147547a056e81f171bcc55a6ff8345e692c0f86e5b48e01b996cadc001622fb5e363b421a056e81f171bcc55a6ff8345e692c0f86e5b48e01b996cadc001622fb5e363b421b9010000000000000000000000000000000000000000000000000000000000000000000000000000000000000000000000000000000000000000000000000000000000000000000000000000000000000000000000000000000000000000000000000000000000000000000000000000000000000000000000000000000000000000000000000000000000000000000000000000000000000000000000000000000000000000000000000000000000000000000000000000000000000000000000000000000000000000000000000000000000000000000000000000000000000000000000000000000000000000000000000000000000000000000000000000000000830200008083989680808000a00000000000000000000000000000000000000000000000000000000000000000880000000000000000c0c0",
        "blocks" : [
            {
                "rlp" : "0xf90264f901f8a0a84a98f3e2751c00efa7505e63bd13833b30be4e74b5135fe17ea9f959ca10f4a01dcc4de8dec75d7aab85b567b6ccd41ad312451b948a7413f0a142fd40d49347942adc25665018aa1fe0e6bc666dac8fc2697ff9baa0924e997424adce09de9e4fadd2776403d4366af4de9d16cb05d56733fe6ae68da0e2a28959247b4c1d37efa150b95989fcdd09450e3b929420745ee4b98342ae91a0001653d33b26c5cbb130d1a4a979f548a3a39f8c252fa217033f2bb7e82738b5b901000000000000000000000000000000000000000000000000000000000000000000000000000000000000000000000000000000000000000000000000000000000000000000000000000000000000000000000000000000000000000000000000000000000000000000000000000000000000000000000000000000000000000000000000000000000000000000000000000000000000000000000000000000000000000000000000000000000000000000000000000000000000000000000000000000000000000000000000000000000000000000000000000000000000000000000000000000000000000000000000000000000000000000000000000000000083020000018398bca48302866a8203e800a00000000000000000000000000000000000000000000000000000000000000000880000000000000000f866f86480018302981094a0000000000000000000000000000000000000008084c04062261ba0efb2c3c59e51030866ab1b7c8189f0d8de83dfaea827b086dccb6a46ee671674a03e440ec9a36430b709dd4e874841015efb2567288e0c42c04e65b7a8b359d0ebc0",
                "blockHeader" : {
                    "bloom" : "0x00000000000000000000000000000000000000000000000000000000000000000000000000000000000000000000000000000000000000000000000000000000000000000000000000000000000000000000000000000000000000000000000000000000000000000000000000000000000000000000000000000000000000000000000000000000000000000000000000000000000000000000000000000000000000000000000000000000000000000000000000000000000000000000000000000000000000000000000000000000000000000000000000000000000000000000000000000000000000000000000000000000000000000000000000000000",
                    "coinbase" : "0x2adc25665018aa1fe0e6bc666dac8fc2697ff9ba",
                    "difficulty" : "0x20000",
                    "extraData" : "0x00",
                    "gasLimit" : "0x98bca4",
                    "gasUsed" : "0x2866a",
                    "hash" : "0xbc6bd067432dd2ae5331d5afd14f515747b1d0423ba6dd9afe5865a98d91b0fd",
                    "mixHash" : "0x0000000000000000000000000000000000000000000000000000000000000000",
                    "nonce" : "0x0000000000000000",
                    "number" : "0x1",
                    "parentHash" : "0xa84a98f3e2751c00efa7505e63bd13833b30be4e74b5135fe17ea9f959ca10f4",
                    "receiptTrie" : "0x001653d33b26c5cbb130d1a4a979f548a3a39f8c252fa217033f2bb7e82738b5",
                    "stateRoot" : "0x924e997424adce09de9e4fadd2776403d4366af4de9d16cb05d56733fe6ae68d",
                    "timestamp" : "0x3e8",
                    "transactionsTrie" : "0xe2a28959247b4c1d37efa150b95989fcdd09450e3b929420745ee4b98342ae91",
                    "uncleHash" : "0x1dcc4de8dec75d7aab85b567b6ccd41ad312451b948a7413f0a142fd40d49347"
                },
                "transactions" : [
                    {
                        "data" : "0xc0406226",
                        "gasLimit" : "0x029810",
                        "gasPrice" : "0x01",
                        "nonce" : "0x00",
                        "to" : "0xa000000000000000000000000000000000000000",
                        "value" : "0x00",
                        "v" : "0x1b",
                        "r" : "0xefb2c3c59e51030866ab1b7c8189f0d8de83dfaea827b086dccb6a46ee671674",
                        "s" : "0x3e440ec9a36430b709dd4e874841015efb2567288e0c42c04e65b7a8b359d0eb"
                    }
                ]
            }
        ]
    },
    "RevertRemoteSubCallStorageOOG2_d0g1v0_Istanbul" : {
        "_info" : {
            "comment" : "",
            "filling-rpc-server" : "Geth-1.9.6-unstable-63b18027-20190920",
            "filling-tool-version" : "retesteth-0.0.1+commit.0ae18aef.Linux.g++",
            "lllcversion" : "Version: 0.5.12-develop.2019.9.13+commit.2d601a4f.Linux.g++",
            "source" : "src/GeneralStateTestsFiller/stRevertTest/RevertRemoteSubCallStorageOOG2Filler.json",
            "sourceHash" : "026af975e91b23a98cd56e8cc30722e8b2c1a511804e51e1f9632f6848aabc77"
        },
        "genesisBlockHeader" : {
            "bloom" : "0x00000000000000000000000000000000000000000000000000000000000000000000000000000000000000000000000000000000000000000000000000000000000000000000000000000000000000000000000000000000000000000000000000000000000000000000000000000000000000000000000000000000000000000000000000000000000000000000000000000000000000000000000000000000000000000000000000000000000000000000000000000000000000000000000000000000000000000000000000000000000000000000000000000000000000000000000000000000000000000000000000000000000000000000000000000000",
            "coinbase" : "0x2adc25665018aa1fe0e6bc666dac8fc2697ff9ba",
            "difficulty" : "0x20000",
            "extraData" : "0x00",
            "gasLimit" : "0x989680",
            "gasUsed" : "0x0",
            "hash" : "0xa84a98f3e2751c00efa7505e63bd13833b30be4e74b5135fe17ea9f959ca10f4",
            "mixHash" : "0x0000000000000000000000000000000000000000000000000000000000000000",
            "nonce" : "0x0000000000000000",
            "number" : "0x0",
            "parentHash" : "0x0000000000000000000000000000000000000000000000000000000000000000",
            "receiptTrie" : "0x56e81f171bcc55a6ff8345e692c0f86e5b48e01b996cadc001622fb5e363b421",
            "stateRoot" : "0x2bc0c1a44714a77c5ea1e838c9f03a3c998a763b021c99c1add2b60aa9147547",
            "timestamp" : "0x0",
            "transactionsTrie" : "0x56e81f171bcc55a6ff8345e692c0f86e5b48e01b996cadc001622fb5e363b421",
            "uncleHash" : "0x1dcc4de8dec75d7aab85b567b6ccd41ad312451b948a7413f0a142fd40d49347"
        },
        "pre" : {
            "0xa000000000000000000000000000000000000000" : {
                "balance" : "0x01",
                "code" : "0x60606040526000357c0100000000000000000000000000000000000000000000000000000000900463ffffffff168063b28175c414610049578063c040622614610058575b610000565b346100005761005661007f565b005b346100005761006561008a565b604051808215151515815260200191505060405180910390f35b600c6000819055505b565b6000600060405161016f8061016b833901809050604051809103906000f080156100005790508073ffffffffffffffffffffffffffffffffffffffff166373027f6d306040518263ffffffff167c0100000000000000000000000000000000000000000000000000000000028152600401808273ffffffffffffffffffffffffffffffffffffffff1673ffffffffffffffffffffffffffffffffffffffff168152602001915050600060405180830381600087803b156100005760325a03f11561000057505050600d600081905550600e600181905550600191505b50905600606060405234610000575b610156806100196000396000f30060606040526000357c0100000000000000000000000000000000000000000000000000000000900463ffffffff16806373027f6d1461003e575b610000565b346100005761006f600480803573ffffffffffffffffffffffffffffffffffffffff16906020019091905050610071565b005b8073ffffffffffffffffffffffffffffffffffffffff1660405180807f73746f7228290000000000000000000000000000000000000000000000000000815250600601905060405180910390207c010000000000000000000000000000000000000000000000000000000090046040518163ffffffff167c01000000000000000000000000000000000000000000000000000000000281526004018090506000604051808303816000876161da5a03f192505050505b505600a165627a7a723058201d40a4f4ab84c9ed5c1e6f9e4574875993931efb14de8c4fc6be556ceeef5cc20029a165627a7a72305820b3260ed34e660b9533216c5881783a6cc70a072f3dc8d26e835c4d14c3c2a7890029",
                "nonce" : "0x00",
                "storage" : {
                }
            },
            "0xa94f5374fce5edbc8e2a8697c15331677e6ebf0b" : {
                "balance" : "0xe8d4a51000",
                "code" : "0x",
                "nonce" : "0x00",
                "storage" : {
                }
            }
        },
        "postState" : {
            "0xa94f5374fce5edbc8e2a8697c15331677e6ebf0b" : {
                "code" : "0x",
                "nonce" : "0x01",
                "balance" : "0xe8d4a28996",
                "storage" : {
                }
            },
            "0xa000000000000000000000000000000000000000" : {
                "code" : "0x60606040526000357c0100000000000000000000000000000000000000000000000000000000900463ffffffff168063b28175c414610049578063c040622614610058575b610000565b346100005761005661007f565b005b346100005761006561008a565b604051808215151515815260200191505060405180910390f35b600c6000819055505b565b6000600060405161016f8061016b833901809050604051809103906000f080156100005790508073ffffffffffffffffffffffffffffffffffffffff166373027f6d306040518263ffffffff167c0100000000000000000000000000000000000000000000000000000000028152600401808273ffffffffffffffffffffffffffffffffffffffff1673ffffffffffffffffffffffffffffffffffffffff168152602001915050600060405180830381600087803b156100005760325a03f11561000057505050600d600081905550600e600181905550600191505b50905600606060405234610000575b610156806100196000396000f30060606040526000357c0100000000000000000000000000000000000000000000000000000000900463ffffffff16806373027f6d1461003e575b610000565b346100005761006f600480803573ffffffffffffffffffffffffffffffffffffffff16906020019091905050610071565b005b8073ffffffffffffffffffffffffffffffffffffffff1660405180807f73746f7228290000000000000000000000000000000000000000000000000000815250600601905060405180910390207c010000000000000000000000000000000000000000000000000000000090046040518163ffffffff167c01000000000000000000000000000000000000000000000000000000000281526004018090506000604051808303816000876161da5a03f192505050505b505600a165627a7a723058201d40a4f4ab84c9ed5c1e6f9e4574875993931efb14de8c4fc6be556ceeef5cc20029a165627a7a72305820b3260ed34e660b9533216c5881783a6cc70a072f3dc8d26e835c4d14c3c2a7890029",
                "nonce" : "0x01",
                "balance" : "0x01",
                "storage" : {
                    "0x00" : "0x0d",
                    "0x01" : "0x0e"
                }
            },
            "0x7db299e0885c85039f56fa504a13dd8ce8a56aa7" : {
                "code" : "0x60606040526000357c0100000000000000000000000000000000000000000000000000000000900463ffffffff16806373027f6d1461003e575b610000565b346100005761006f600480803573ffffffffffffffffffffffffffffffffffffffff16906020019091905050610071565b005b8073ffffffffffffffffffffffffffffffffffffffff1660405180807f73746f7228290000000000000000000000000000000000000000000000000000815250600601905060405180910390207c010000000000000000000000000000000000000000000000000000000090046040518163ffffffff167c01000000000000000000000000000000000000000000000000000000000281526004018090506000604051808303816000876161da5a03f192505050505b505600a165627a7a723058201d40a4f4ab84c9ed5c1e6f9e4574875993931efb14de8c4fc6be556ceeef5cc20029",
                "nonce" : "0x01",
                "balance" : "0x00",
                "storage" : {
                }
            },
            "0x2adc25665018aa1fe0e6bc666dac8fc2697ff9ba" : {
                "code" : "0x",
                "nonce" : "0x00",
                "balance" : "0x1bc16d674eca866a",
                "storage" : {
                }
            }
        },
        "network" : "Istanbul",
        "sealEngine" : "NoProof",
        "lastblockhash" : "0x04924cb13e5eebee8ecbfee31ccad645af0a5b0aebd42d1d8528a459fd04d66e",
        "genesisRLP" : "0xf901f8f901f3a00000000000000000000000000000000000000000000000000000000000000000a01dcc4de8dec75d7aab85b567b6ccd41ad312451b948a7413f0a142fd40d49347942adc25665018aa1fe0e6bc666dac8fc2697ff9baa02bc0c1a44714a77c5ea1e838c9f03a3c998a763b021c99c1add2b60aa9147547a056e81f171bcc55a6ff8345e692c0f86e5b48e01b996cadc001622fb5e363b421a056e81f171bcc55a6ff8345e692c0f86e5b48e01b996cadc001622fb5e363b421b9010000000000000000000000000000000000000000000000000000000000000000000000000000000000000000000000000000000000000000000000000000000000000000000000000000000000000000000000000000000000000000000000000000000000000000000000000000000000000000000000000000000000000000000000000000000000000000000000000000000000000000000000000000000000000000000000000000000000000000000000000000000000000000000000000000000000000000000000000000000000000000000000000000000000000000000000000000000000000000000000000000000000000000000000000000000000830200008083989680808000a00000000000000000000000000000000000000000000000000000000000000000880000000000000000c0c0",
        "blocks" : [
            {
                "rlp" : "0xf90264f901f8a0a84a98f3e2751c00efa7505e63bd13833b30be4e74b5135fe17ea9f959ca10f4a01dcc4de8dec75d7aab85b567b6ccd41ad312451b948a7413f0a142fd40d49347942adc25665018aa1fe0e6bc666dac8fc2697ff9baa0924e997424adce09de9e4fadd2776403d4366af4de9d16cb05d56733fe6ae68da00e843d65a79d5f13ce7c67b843be5a4e8a03883cf42f2abd2372dcae3de14fb0a0001653d33b26c5cbb130d1a4a979f548a3a39f8c252fa217033f2bb7e82738b5b901000000000000000000000000000000000000000000000000000000000000000000000000000000000000000000000000000000000000000000000000000000000000000000000000000000000000000000000000000000000000000000000000000000000000000000000000000000000000000000000000000000000000000000000000000000000000000000000000000000000000000000000000000000000000000000000000000000000000000000000000000000000000000000000000000000000000000000000000000000000000000000000000000000000000000000000000000000000000000000000000000000000000000000000000000000000083020000018398bca48302866a8203e800a00000000000000000000000000000000000000000000000000000000000000000880000000000000000f866f86480018302c30894a0000000000000000000000000000000000000008084c04062261ca08595945bb16d0e01e1d5d30cfa713240182150a8cfc4416cc3b633f1d569234ea028495891b66c06d49526f89d17edbd691b064fe4e397e55933ace1d67ae78618c0",
                "blockHeader" : {
                    "bloom" : "0x00000000000000000000000000000000000000000000000000000000000000000000000000000000000000000000000000000000000000000000000000000000000000000000000000000000000000000000000000000000000000000000000000000000000000000000000000000000000000000000000000000000000000000000000000000000000000000000000000000000000000000000000000000000000000000000000000000000000000000000000000000000000000000000000000000000000000000000000000000000000000000000000000000000000000000000000000000000000000000000000000000000000000000000000000000000",
                    "coinbase" : "0x2adc25665018aa1fe0e6bc666dac8fc2697ff9ba",
                    "difficulty" : "0x20000",
                    "extraData" : "0x00",
                    "gasLimit" : "0x98bca4",
                    "gasUsed" : "0x2866a",
                    "hash" : "0x04924cb13e5eebee8ecbfee31ccad645af0a5b0aebd42d1d8528a459fd04d66e",
                    "mixHash" : "0x0000000000000000000000000000000000000000000000000000000000000000",
                    "nonce" : "0x0000000000000000",
                    "number" : "0x1",
                    "parentHash" : "0xa84a98f3e2751c00efa7505e63bd13833b30be4e74b5135fe17ea9f959ca10f4",
                    "receiptTrie" : "0x001653d33b26c5cbb130d1a4a979f548a3a39f8c252fa217033f2bb7e82738b5",
                    "stateRoot" : "0x924e997424adce09de9e4fadd2776403d4366af4de9d16cb05d56733fe6ae68d",
                    "timestamp" : "0x3e8",
                    "transactionsTrie" : "0x0e843d65a79d5f13ce7c67b843be5a4e8a03883cf42f2abd2372dcae3de14fb0",
                    "uncleHash" : "0x1dcc4de8dec75d7aab85b567b6ccd41ad312451b948a7413f0a142fd40d49347"
                },
                "transactions" : [
                    {
                        "data" : "0xc0406226",
                        "gasLimit" : "0x02c308",
                        "gasPrice" : "0x01",
                        "nonce" : "0x00",
                        "to" : "0xa000000000000000000000000000000000000000",
                        "value" : "0x00",
                        "v" : "0x1c",
                        "r" : "0x8595945bb16d0e01e1d5d30cfa713240182150a8cfc4416cc3b633f1d569234e",
                        "s" : "0x28495891b66c06d49526f89d17edbd691b064fe4e397e55933ace1d67ae78618"
                    }
                ]
            }
        ]
    }
}