{
    "RevertPrefoundEmpty_d0g0v0_Istanbul" : {
        "_info" : {
            "comment" : "",
            "filling-rpc-server" : "Geth-1.9.6-unstable-63b18027-20190920",
            "filling-tool-version" : "retesteth-0.0.1+commit.0ae18aef.Linux.g++",
            "lllcversion" : "Version: 0.5.12-develop.2019.9.13+commit.2d601a4f.Linux.g++",
            "source" : "src/GeneralStateTestsFiller/stRevertTest/RevertPrefoundEmptyFiller.json",
            "sourceHash" : "056ee31e7d8fb2d3da44e3292ca9a349cf57b08a13fdde419c17ae413e83106d"
        },
        "genesisBlockHeader" : {
            "bloom" : "0x00000000000000000000000000000000000000000000000000000000000000000000000000000000000000000000000000000000000000000000000000000000000000000000000000000000000000000000000000000000000000000000000000000000000000000000000000000000000000000000000000000000000000000000000000000000000000000000000000000000000000000000000000000000000000000000000000000000000000000000000000000000000000000000000000000000000000000000000000000000000000000000000000000000000000000000000000000000000000000000000000000000000000000000000000000000",
            "coinbase" : "0x2adc25665018aa1fe0e6bc666dac8fc2697ff9ba",
            "difficulty" : "0x20000",
            "extraData" : "0x00",
            "gasLimit" : "0x989680",
            "gasUsed" : "0x0",
            "hash" : "0xfb7a2ace13406ba4620acd3ea0533a45a7360bddcd6fe8574659271059e6a66c",
            "mixHash" : "0x0000000000000000000000000000000000000000000000000000000000000000",
            "nonce" : "0x0000000000000000",
            "number" : "0x0",
            "parentHash" : "0x0000000000000000000000000000000000000000000000000000000000000000",
            "receiptTrie" : "0x56e81f171bcc55a6ff8345e692c0f86e5b48e01b996cadc001622fb5e363b421",
            "stateRoot" : "0x031b2d43b8dd126e8efe41f2a129e3c881da04d878a26fcb2d6c1a77a22a01d4",
            "timestamp" : "0x0",
            "transactionsTrie" : "0x56e81f171bcc55a6ff8345e692c0f86e5b48e01b996cadc001622fb5e363b421",
            "uncleHash" : "0x1dcc4de8dec75d7aab85b567b6ccd41ad312451b948a7413f0a142fd40d49347"
        },
        "pre" : {
            "0x7db299e0885c85039f56fa504a13dd8ce8a56aa7" : {
                "balance" : "0x00",
                "code" : "0x",
                "nonce" : "0x00",
                "storage" : {
                }
            },
            "0xa000000000000000000000000000000000000000" : {
                "balance" : "0x01",
                "code" : "0x602060006000f0600055600c60015500",
                "nonce" : "0x00",
                "storage" : {
                }
            },
            "0xa94f5374fce5edbc8e2a8697c15331677e6ebf0b" : {
                "balance" : "0xe8d4a51000",
                "code" : "0x",
                "nonce" : "0x00",
                "storage" : {
                }
            }
        },
        "postState" : {
            "0xa94f5374fce5edbc8e2a8697c15331677e6ebf0b" : {
                "code" : "0x",
                "nonce" : "0x01",
                "balance" : "0xe8d4a3a4a3",
                "storage" : {
                }
            },
            "0xa000000000000000000000000000000000000000" : {
                "code" : "0x602060006000f0600055600c60015500",
                "nonce" : "0x01",
                "balance" : "0x01",
                "storage" : {
                    "0x00" : "0x7db299e0885c85039f56fa504a13dd8ce8a56aa7",
                    "0x01" : "0x0c"
                }
            },
            "0x7db299e0885c85039f56fa504a13dd8ce8a56aa7" : {
                "code" : "0x",
                "nonce" : "0x01",
                "balance" : "0x00",
                "storage" : {
                }
            },
            "0x2adc25665018aa1fe0e6bc666dac8fc2697ff9ba" : {
                "code" : "0x",
                "nonce" : "0x00",
                "balance" : "0x1bc16d674ec96b5d",
                "storage" : {
                }
            }
        },
        "network" : "Istanbul",
        "sealEngine" : "NoProof",
        "lastblockhash" : "0x3700dfce53d5275041d30f53e18403b036c37b592f2a046752a4c5faf12f93e4",
        "genesisRLP" : "0xf901f8f901f3a00000000000000000000000000000000000000000000000000000000000000000a01dcc4de8dec75d7aab85b567b6ccd41ad312451b948a7413f0a142fd40d49347942adc25665018aa1fe0e6bc666dac8fc2697ff9baa0031b2d43b8dd126e8efe41f2a129e3c881da04d878a26fcb2d6c1a77a22a01d4a056e81f171bcc55a6ff8345e692c0f86e5b48e01b996cadc001622fb5e363b421a056e81f171bcc55a6ff8345e692c0f86e5b48e01b996cadc001622fb5e363b421b9010000000000000000000000000000000000000000000000000000000000000000000000000000000000000000000000000000000000000000000000000000000000000000000000000000000000000000000000000000000000000000000000000000000000000000000000000000000000000000000000000000000000000000000000000000000000000000000000000000000000000000000000000000000000000000000000000000000000000000000000000000000000000000000000000000000000000000000000000000000000000000000000000000000000000000000000000000000000000000000000000000000000000000000000000000000000830200008083989680808000a00000000000000000000000000000000000000000000000000000000000000000880000000000000000c0c0",
        "blocks" : [
            {
                "rlp" : "0xf90260f901f8a0fb7a2ace13406ba4620acd3ea0533a45a7360bddcd6fe8574659271059e6a66ca01dcc4de8dec75d7aab85b567b6ccd41ad312451b948a7413f0a142fd40d49347942adc25665018aa1fe0e6bc666dac8fc2697ff9baa04a47fc458c3372ec27d158f38af1441c7e3776d3a2904f146a6718dad6b7ff4aa0be92cc59c0500678bba4e86a9ecf77f7400981fa3debc90cd5e779a95ffcf029a0a1f85aefb1a3dee8321a71dc1d674eec623ab583673e6d678f88af9ff98c8f2eb901000000000000000000000000000000000000000000000000000000000000000000000000000000000000000000000000000000000000000000000000000000000000000000000000000000000000000000000000000000000000000000000000000000000000000000000000000000000000000000000000000000000000000000000000000000000000000000000000000000000000000000000000000000000000000000000000000000000000000000000000000000000000000000000000000000000000000000000000000000000000000000000000000000000000000000000000000000000000000000000000000000000000000000000000000000000083020000018398bca483016b5d8203e800a00000000000000000000000000000000000000000000000000000000000000000880000000000000000f862f860800183016f3094a00000000000000000000000000000000000000080801ba0681c4f4c33fdf332d341fed6aab19e202be5152ab1fd2bd044b7802a4200fcfda06abf33de194996e65af7fe1f594cd222920fcef7b8b8595ef368b2ad0328b1d1c0",
                "blockHeader" : {
                    "bloom" : "0x00000000000000000000000000000000000000000000000000000000000000000000000000000000000000000000000000000000000000000000000000000000000000000000000000000000000000000000000000000000000000000000000000000000000000000000000000000000000000000000000000000000000000000000000000000000000000000000000000000000000000000000000000000000000000000000000000000000000000000000000000000000000000000000000000000000000000000000000000000000000000000000000000000000000000000000000000000000000000000000000000000000000000000000000000000000",
                    "coinbase" : "0x2adc25665018aa1fe0e6bc666dac8fc2697ff9ba",
                    "difficulty" : "0x20000",
                    "extraData" : "0x00",
                    "gasLimit" : "0x98bca4",
                    "gasUsed" : "0x16b5d",
                    "hash" : "0x3700dfce53d5275041d30f53e18403b036c37b592f2a046752a4c5faf12f93e4",
                    "mixHash" : "0x0000000000000000000000000000000000000000000000000000000000000000",
                    "nonce" : "0x0000000000000000",
                    "number" : "0x1",
                    "parentHash" : "0xfb7a2ace13406ba4620acd3ea0533a45a7360bddcd6fe8574659271059e6a66c",
                    "receiptTrie" : "0xa1f85aefb1a3dee8321a71dc1d674eec623ab583673e6d678f88af9ff98c8f2e",
                    "stateRoot" : "0x4a47fc458c3372ec27d158f38af1441c7e3776d3a2904f146a6718dad6b7ff4a",
                    "timestamp" : "0x3e8",
                    "transactionsTrie" : "0xbe92cc59c0500678bba4e86a9ecf77f7400981fa3debc90cd5e779a95ffcf029",
                    "uncleHash" : "0x1dcc4de8dec75d7aab85b567b6ccd41ad312451b948a7413f0a142fd40d49347"
                },
                "transactions" : [
                    {
                        "data" : "0x",
                        "gasLimit" : "0x016f30",
                        "gasPrice" : "0x01",
                        "nonce" : "0x00",
                        "to" : "0xa000000000000000000000000000000000000000",
                        "value" : "0x00",
                        "v" : "0x1b",
                        "r" : "0x681c4f4c33fdf332d341fed6aab19e202be5152ab1fd2bd044b7802a4200fcfd",
                        "s" : "0x6abf33de194996e65af7fe1f594cd222920fcef7b8b8595ef368b2ad0328b1d1"
                    }
                ]
            }
        ]
    }
}