{
    "TouchToEmptyAccountRevert3_d0g0v0_Istanbul" : {
        "_info" : {
            "comment" : "",
            "filling-rpc-server" : "Geth-1.9.6-unstable-63b18027-20190920",
            "filling-tool-version" : "retesteth-0.0.1+commit.0ae18aef.Linux.g++",
            "lllcversion" : "Version: 0.5.12-develop.2019.9.13+commit.2d601a4f.Linux.g++",
            "source" : "src/GeneralStateTestsFiller/stRevertTest/TouchToEmptyAccountRevert3Filler.json",
            "sourceHash" : "1640c709b15fdcd8e2e84298e197ab45a9a190e380d6a98d42657fb7a58c580b"
        },
        "genesisBlockHeader" : {
            "bloom" : "0x00000000000000000000000000000000000000000000000000000000000000000000000000000000000000000000000000000000000000000000000000000000000000000000000000000000000000000000000000000000000000000000000000000000000000000000000000000000000000000000000000000000000000000000000000000000000000000000000000000000000000000000000000000000000000000000000000000000000000000000000000000000000000000000000000000000000000000000000000000000000000000000000000000000000000000000000000000000000000000000000000000000000000000000000000000000",
            "coinbase" : "0x2adc25665018aa1fe0e6bc666dac8fc2697ff9ba",
            "difficulty" : "0x20000",
            "extraData" : "0x00",
            "gasLimit" : "0x989680",
            "gasUsed" : "0x0",
            "hash" : "0x1b3ab57b317822e8ac03630dea97ad5e83440a7736d4087f00349f9e993e4414",
            "mixHash" : "0x0000000000000000000000000000000000000000000000000000000000000000",
            "nonce" : "0x0000000000000000",
            "number" : "0x0",
            "parentHash" : "0x0000000000000000000000000000000000000000000000000000000000000000",
            "receiptTrie" : "0x56e81f171bcc55a6ff8345e692c0f86e5b48e01b996cadc001622fb5e363b421",
            "stateRoot" : "0xbc4af5e2c60bd5c97b19e0051e392fbde28126e5642cd1fdcafabeaa95945325",
            "timestamp" : "0x0",
            "transactionsTrie" : "0x56e81f171bcc55a6ff8345e692c0f86e5b48e01b996cadc001622fb5e363b421",
            "uncleHash" : "0x1dcc4de8dec75d7aab85b567b6ccd41ad312451b948a7413f0a142fd40d49347"
        },
        "pre" : {
            "0x1000000000000000000000000000000000000000" : {
                "balance" : "0x00",
                "code" : "0x",
                "nonce" : "0x00",
                "storage" : {
                }
            },
            "0xa94f5374fce5edbc8e2a8697c15331677e6ebf0b" : {
                "balance" : "0xe8d4a51000",
                "code" : "0x",
                "nonce" : "0x00",
                "storage" : {
                }
            },
            "0xb94f5374fce5edbc8e2a8697c15331677e6ebf0b" : {
                "balance" : "0x00",
                "code" : "0x6000600060006000600073e94f5374fce5edbc8e2a8697c15331677e6ebf0b617530f1600255600160035500",
                "nonce" : "0x00",
                "storage" : {
                }
            },
            "0xba4f5374fce5edbc8e2a8697c15331677e6ebf0b" : {
                "balance" : "0x00",
                "code" : "0x6000600060006000600073d94f5374fce5edbc8e2a8697c15331677e6ebf0b617530f16000556000600060006000600073b94f5374fce5edbc8e2a8697c15331677e6ebf0b617530f160015500",
                "nonce" : "0x00",
                "storage" : {
                }
            },
            "0xd94f5374fce5edbc8e2a8697c15331677e6ebf0b" : {
                "balance" : "0x00",
                "code" : "0x731000000000000000000000000000000000000000ff00",
                "nonce" : "0x00",
                "storage" : {
                }
            },
            "0xe94f5374fce5edbc8e2a8697c15331677e6ebf0b" : {
                "balance" : "0x00",
                "code" : "0x731000000000000000000000000000000000000000ff00",
                "nonce" : "0x00",
                "storage" : {
                }
            }
        },
        "postState" : {
            "0xa94f5374fce5edbc8e2a8697c15331677e6ebf0b" : {
                "code" : "0x",
                "nonce" : "0x01",
                "balance" : "0xe8d4a3d879",
                "storage" : {
                }
            },
            "0xd94f5374fce5edbc8e2a8697c15331677e6ebf0b" : {
                "code" : "0x731000000000000000000000000000000000000000ff00",
                "nonce" : "0x00",
                "balance" : "0x00",
                "storage" : {
                }
            },
            "0xe94f5374fce5edbc8e2a8697c15331677e6ebf0b" : {
                "code" : "0x731000000000000000000000000000000000000000ff00",
                "nonce" : "0x00",
                "balance" : "0x00",
                "storage" : {
                }
            },
            "0xba4f5374fce5edbc8e2a8697c15331677e6ebf0b" : {
                "code" : "0x6000600060006000600073d94f5374fce5edbc8e2a8697c15331677e6ebf0b617530f16000556000600060006000600073b94f5374fce5edbc8e2a8697c15331677e6ebf0b617530f160015500",
                "nonce" : "0x00",
                "balance" : "0x00",
                "storage" : {
                }
            },
            "0x2adc25665018aa1fe0e6bc666dac8fc2697ff9ba" : {
                "code" : "0x",
                "nonce" : "0x00",
                "balance" : "0x1bc16d674ec93787",
                "storage" : {
                }
            },
            "0xb94f5374fce5edbc8e2a8697c15331677e6ebf0b" : {
                "code" : "0x6000600060006000600073e94f5374fce5edbc8e2a8697c15331677e6ebf0b617530f1600255600160035500",
                "nonce" : "0x00",
                "balance" : "0x00",
                "storage" : {
                }
            },
            "0x1000000000000000000000000000000000000000" : {
                "code" : "0x",
                "nonce" : "0x00",
                "balance" : "0x00",
                "storage" : {
                }
            }
        },
        "network" : "Istanbul",
        "sealEngine" : "NoProof",
        "lastblockhash" : "0x892a863566ee3293e97dc9d961ed9a469f76ab7117ceb72752bea8006bd3ea96",
        "genesisRLP" : "0xf901f8f901f3a00000000000000000000000000000000000000000000000000000000000000000a01dcc4de8dec75d7aab85b567b6ccd41ad312451b948a7413f0a142fd40d49347942adc25665018aa1fe0e6bc666dac8fc2697ff9baa0bc4af5e2c60bd5c97b19e0051e392fbde28126e5642cd1fdcafabeaa95945325a056e81f171bcc55a6ff8345e692c0f86e5b48e01b996cadc001622fb5e363b421a056e81f171bcc55a6ff8345e692c0f86e5b48e01b996cadc001622fb5e363b421b9010000000000000000000000000000000000000000000000000000000000000000000000000000000000000000000000000000000000000000000000000000000000000000000000000000000000000000000000000000000000000000000000000000000000000000000000000000000000000000000000000000000000000000000000000000000000000000000000000000000000000000000000000000000000000000000000000000000000000000000000000000000000000000000000000000000000000000000000000000000000000000000000000000000000000000000000000000000000000000000000000000000000000000000000000000000000830200008083989680808000a00000000000000000000000000000000000000000000000000000000000000000880000000000000000c0c0",
        "blocks" : [
            {
                "rlp" : "0xf90260f901f8a01b3ab57b317822e8ac03630dea97ad5e83440a7736d4087f00349f9e993e4414a01dcc4de8dec75d7aab85b567b6ccd41ad312451b948a7413f0a142fd40d49347942adc25665018aa1fe0e6bc666dac8fc2697ff9baa03fa43dd4d6fdf5575ae634581a3c75c171964f5a22f639babea97d5efbcb94a9a0cbecd283e254ce5ca864d4afe726bdd8efce2464cfca2c0f16559c3f87ba2942a046f62b7430541a0b7408c5b833e9582d06d81f11f849b9eb4942289192314563b901000000000000000000000000000000000000000000000000000000000000000000000000000000000000000000000000000000000000000000000000000000000000000000000000000000000000000000000000000000000000000000000000000000000000000000000000000000000000000000000000000000000000000000000000000000000000000000000000000000000000000000000000000000000000000000000000000000000000000000000000000000000000000000000000000000000000000000000000000000000000000000000000000000000000000000000000000000000000000000000000000000000000000000000000000000000083020000018398bca4830137878203e800a00000000000000000000000000000000000000000000000000000000000000000880000000000000000f862f86080018301378794ba4f5374fce5edbc8e2a8697c15331677e6ebf0b80801ba0270e31b78bb0b623e8897982e555ac81ea81f8706751415fee8bd028fa7ea29aa0797f7e937e78569c89adf091a258307f205fc098208a174d4be359e4cab749fcc0",
                "blockHeader" : {
                    "bloom" : "0x00000000000000000000000000000000000000000000000000000000000000000000000000000000000000000000000000000000000000000000000000000000000000000000000000000000000000000000000000000000000000000000000000000000000000000000000000000000000000000000000000000000000000000000000000000000000000000000000000000000000000000000000000000000000000000000000000000000000000000000000000000000000000000000000000000000000000000000000000000000000000000000000000000000000000000000000000000000000000000000000000000000000000000000000000000000",
                    "coinbase" : "0x2adc25665018aa1fe0e6bc666dac8fc2697ff9ba",
                    "difficulty" : "0x20000",
                    "extraData" : "0x00",
                    "gasLimit" : "0x98bca4",
                    "gasUsed" : "0x13787",
                    "hash" : "0x892a863566ee3293e97dc9d961ed9a469f76ab7117ceb72752bea8006bd3ea96",
                    "mixHash" : "0x0000000000000000000000000000000000000000000000000000000000000000",
                    "nonce" : "0x0000000000000000",
                    "number" : "0x1",
                    "parentHash" : "0x1b3ab57b317822e8ac03630dea97ad5e83440a7736d4087f00349f9e993e4414",
                    "receiptTrie" : "0x46f62b7430541a0b7408c5b833e9582d06d81f11f849b9eb4942289192314563",
                    "stateRoot" : "0x3fa43dd4d6fdf5575ae634581a3c75c171964f5a22f639babea97d5efbcb94a9",
                    "timestamp" : "0x3e8",
                    "transactionsTrie" : "0xcbecd283e254ce5ca864d4afe726bdd8efce2464cfca2c0f16559c3f87ba2942",
                    "uncleHash" : "0x1dcc4de8dec75d7aab85b567b6ccd41ad312451b948a7413f0a142fd40d49347"
                },
                "transactions" : [
                    {
                        "data" : "0x",
                        "gasLimit" : "0x013787",
                        "gasPrice" : "0x01",
                        "nonce" : "0x00",
                        "to" : "0xba4f5374fce5edbc8e2a8697c15331677e6ebf0b",
                        "value" : "0x00",
                        "v" : "0x1b",
                        "r" : "0x270e31b78bb0b623e8897982e555ac81ea81f8706751415fee8bd028fa7ea29a",
                        "s" : "0x797f7e937e78569c89adf091a258307f205fc098208a174d4be359e4cab749fc"
                    }
                ]
            }
        ]
    },
    "TouchToEmptyAccountRevert3_d0g1v0_Istanbul" : {
        "_info" : {
            "comment" : "",
            "filling-rpc-server" : "Geth-1.9.6-unstable-63b18027-20190920",
            "filling-tool-version" : "retesteth-0.0.1+commit.0ae18aef.Linux.g++",
            "lllcversion" : "Version: 0.5.12-develop.2019.9.13+commit.2d601a4f.Linux.g++",
            "source" : "src/GeneralStateTestsFiller/stRevertTest/TouchToEmptyAccountRevert3Filler.json",
            "sourceHash" : "1640c709b15fdcd8e2e84298e197ab45a9a190e380d6a98d42657fb7a58c580b"
        },
        "genesisBlockHeader" : {
            "bloom" : "0x00000000000000000000000000000000000000000000000000000000000000000000000000000000000000000000000000000000000000000000000000000000000000000000000000000000000000000000000000000000000000000000000000000000000000000000000000000000000000000000000000000000000000000000000000000000000000000000000000000000000000000000000000000000000000000000000000000000000000000000000000000000000000000000000000000000000000000000000000000000000000000000000000000000000000000000000000000000000000000000000000000000000000000000000000000000",
            "coinbase" : "0x2adc25665018aa1fe0e6bc666dac8fc2697ff9ba",
            "difficulty" : "0x20000",
            "extraData" : "0x00",
            "gasLimit" : "0x989680",
            "gasUsed" : "0x0",
            "hash" : "0x1b3ab57b317822e8ac03630dea97ad5e83440a7736d4087f00349f9e993e4414",
            "mixHash" : "0x0000000000000000000000000000000000000000000000000000000000000000",
            "nonce" : "0x0000000000000000",
            "number" : "0x0",
            "parentHash" : "0x0000000000000000000000000000000000000000000000000000000000000000",
            "receiptTrie" : "0x56e81f171bcc55a6ff8345e692c0f86e5b48e01b996cadc001622fb5e363b421",
            "stateRoot" : "0xbc4af5e2c60bd5c97b19e0051e392fbde28126e5642cd1fdcafabeaa95945325",
            "timestamp" : "0x0",
            "transactionsTrie" : "0x56e81f171bcc55a6ff8345e692c0f86e5b48e01b996cadc001622fb5e363b421",
            "uncleHash" : "0x1dcc4de8dec75d7aab85b567b6ccd41ad312451b948a7413f0a142fd40d49347"
        },
        "pre" : {
            "0x1000000000000000000000000000000000000000" : {
                "balance" : "0x00",
                "code" : "0x",
                "nonce" : "0x00",
                "storage" : {
                }
            },
            "0xa94f5374fce5edbc8e2a8697c15331677e6ebf0b" : {
                "balance" : "0xe8d4a51000",
                "code" : "0x",
                "nonce" : "0x00",
                "storage" : {
                }
            },
            "0xb94f5374fce5edbc8e2a8697c15331677e6ebf0b" : {
                "balance" : "0x00",
                "code" : "0x6000600060006000600073e94f5374fce5edbc8e2a8697c15331677e6ebf0b617530f1600255600160035500",
                "nonce" : "0x00",
                "storage" : {
                }
            },
            "0xba4f5374fce5edbc8e2a8697c15331677e6ebf0b" : {
                "balance" : "0x00",
                "code" : "0x6000600060006000600073d94f5374fce5edbc8e2a8697c15331677e6ebf0b617530f16000556000600060006000600073b94f5374fce5edbc8e2a8697c15331677e6ebf0b617530f160015500",
                "nonce" : "0x00",
                "storage" : {
                }
            },
            "0xd94f5374fce5edbc8e2a8697c15331677e6ebf0b" : {
                "balance" : "0x00",
                "code" : "0x731000000000000000000000000000000000000000ff00",
                "nonce" : "0x00",
                "storage" : {
                }
            },
            "0xe94f5374fce5edbc8e2a8697c15331677e6ebf0b" : {
                "balance" : "0x00",
                "code" : "0x731000000000000000000000000000000000000000ff00",
                "nonce" : "0x00",
                "storage" : {
                }
            }
        },
        "postState" : {
            "0xa94f5374fce5edbc8e2a8697c15331677e6ebf0b" : {
                "code" : "0x",
                "nonce" : "0x01",
                "balance" : "0xe8d4a425a0",
                "storage" : {
                }
            },
            "0xd94f5374fce5edbc8e2a8697c15331677e6ebf0b" : {
                "code" : "0x731000000000000000000000000000000000000000ff00",
                "nonce" : "0x00",
                "balance" : "0x00",
                "storage" : {
                }
            },
            "0xe94f5374fce5edbc8e2a8697c15331677e6ebf0b" : {
                "code" : "0x731000000000000000000000000000000000000000ff00",
                "nonce" : "0x00",
                "balance" : "0x00",
                "storage" : {
                }
            },
            "0xba4f5374fce5edbc8e2a8697c15331677e6ebf0b" : {
                "code" : "0x6000600060006000600073d94f5374fce5edbc8e2a8697c15331677e6ebf0b617530f16000556000600060006000600073b94f5374fce5edbc8e2a8697c15331677e6ebf0b617530f160015500",
                "nonce" : "0x00",
                "balance" : "0x00",
                "storage" : {
                }
            },
            "0x2adc25665018aa1fe0e6bc666dac8fc2697ff9ba" : {
                "code" : "0x",
                "nonce" : "0x00",
                "balance" : "0x1bc16d674ec8ea60",
                "storage" : {
                }
            },
            "0xb94f5374fce5edbc8e2a8697c15331677e6ebf0b" : {
                "code" : "0x6000600060006000600073e94f5374fce5edbc8e2a8697c15331677e6ebf0b617530f1600255600160035500",
                "nonce" : "0x00",
                "balance" : "0x00",
                "storage" : {
                }
            },
            "0x1000000000000000000000000000000000000000" : {
                "code" : "0x",
                "nonce" : "0x00",
                "balance" : "0x00",
                "storage" : {
                }
            }
        },
        "network" : "Istanbul",
        "sealEngine" : "NoProof",
        "lastblockhash" : "0x215b1cf8b71f677025ccb79ec08d978a11f713745b1fd61ebad62f7e364fdbc8",
        "genesisRLP" : "0xf901f8f901f3a00000000000000000000000000000000000000000000000000000000000000000a01dcc4de8dec75d7aab85b567b6ccd41ad312451b948a7413f0a142fd40d49347942adc25665018aa1fe0e6bc666dac8fc2697ff9baa0bc4af5e2c60bd5c97b19e0051e392fbde28126e5642cd1fdcafabeaa95945325a056e81f171bcc55a6ff8345e692c0f86e5b48e01b996cadc001622fb5e363b421a056e81f171bcc55a6ff8345e692c0f86e5b48e01b996cadc001622fb5e363b421b9010000000000000000000000000000000000000000000000000000000000000000000000000000000000000000000000000000000000000000000000000000000000000000000000000000000000000000000000000000000000000000000000000000000000000000000000000000000000000000000000000000000000000000000000000000000000000000000000000000000000000000000000000000000000000000000000000000000000000000000000000000000000000000000000000000000000000000000000000000000000000000000000000000000000000000000000000000000000000000000000000000000000000000000000000000000000830200008083989680808000a00000000000000000000000000000000000000000000000000000000000000000880000000000000000c0c0",
        "blocks" : [
            {
                "rlp" : "0xf9025ef901f7a01b3ab57b317822e8ac03630dea97ad5e83440a7736d4087f00349f9e993e4414a01dcc4de8dec75d7aab85b567b6ccd41ad312451b948a7413f0a142fd40d49347942adc25665018aa1fe0e6bc666dac8fc2697ff9baa0f07d00a87e36261c0f22f4c004740078f25a5183caddb35f274fa1af8460cf6ea07fb038aa69677ca4d7e77018dca057c3b4d81b2b3aad45f8466fd049632e0bd0a0595998c1d9a5a64049a0d61a9e4b6bb8c69abf9c5ced72c174322a611dfd3e44b901000000000000000000000000000000000000000000000000000000000000000000000000000000000000000000000000000000000000000000000000000000000000000000000000000000000000000000000000000000000000000000000000000000000000000000000000000000000000000000000000000000000000000000000000000000000000000000000000000000000000000000000000000000000000000000000000000000000000000000000000000000000000000000000000000000000000000000000000000000000000000000000000000000000000000000000000000000000000000000000000000000000000000000000000000000000083020000018398bca482ea608203e800a00000000000000000000000000000000000000000000000000000000000000000880000000000000000f861f85f800182ea6094ba4f5374fce5edbc8e2a8697c15331677e6ebf0b80801ba001f216eafbcb966b1af4a033263f627308d2ee7b9103df7893e22b955dd7f81fa05cf244040e96894b2883f42ddc1b43ea3629774971d35166abc72af0e628e237c0",
                "blockHeader" : {
                    "bloom" : "0x00000000000000000000000000000000000000000000000000000000000000000000000000000000000000000000000000000000000000000000000000000000000000000000000000000000000000000000000000000000000000000000000000000000000000000000000000000000000000000000000000000000000000000000000000000000000000000000000000000000000000000000000000000000000000000000000000000000000000000000000000000000000000000000000000000000000000000000000000000000000000000000000000000000000000000000000000000000000000000000000000000000000000000000000000000000",
                    "coinbase" : "0x2adc25665018aa1fe0e6bc666dac8fc2697ff9ba",
                    "difficulty" : "0x20000",
                    "extraData" : "0x00",
                    "gasLimit" : "0x98bca4",
                    "gasUsed" : "0xea60",
                    "hash" : "0x215b1cf8b71f677025ccb79ec08d978a11f713745b1fd61ebad62f7e364fdbc8",
                    "mixHash" : "0x0000000000000000000000000000000000000000000000000000000000000000",
                    "nonce" : "0x0000000000000000",
                    "number" : "0x1",
                    "parentHash" : "0x1b3ab57b317822e8ac03630dea97ad5e83440a7736d4087f00349f9e993e4414",
                    "receiptTrie" : "0x595998c1d9a5a64049a0d61a9e4b6bb8c69abf9c5ced72c174322a611dfd3e44",
                    "stateRoot" : "0xf07d00a87e36261c0f22f4c004740078f25a5183caddb35f274fa1af8460cf6e",
                    "timestamp" : "0x3e8",
                    "transactionsTrie" : "0x7fb038aa69677ca4d7e77018dca057c3b4d81b2b3aad45f8466fd049632e0bd0",
                    "uncleHash" : "0x1dcc4de8dec75d7aab85b567b6ccd41ad312451b948a7413f0a142fd40d49347"
                },
                "transactions" : [
                    {
                        "data" : "0x",
                        "gasLimit" : "0xea60",
                        "gasPrice" : "0x01",
                        "nonce" : "0x00",
                        "to" : "0xba4f5374fce5edbc8e2a8697c15331677e6ebf0b",
                        "value" : "0x00",
                        "v" : "0x1b",
                        "r" : "0x01f216eafbcb966b1af4a033263f627308d2ee7b9103df7893e22b955dd7f81f",
                        "s" : "0x5cf244040e96894b2883f42ddc1b43ea3629774971d35166abc72af0e628e237"
                    }
                ]
            }
        ]
    },
    "TouchToEmptyAccountRevert3_d0g2v0_Istanbul" : {
        "_info" : {
            "comment" : "",
            "filling-rpc-server" : "Geth-1.9.6-unstable-63b18027-20190920",
            "filling-tool-version" : "retesteth-0.0.1+commit.0ae18aef.Linux.g++",
            "lllcversion" : "Version: 0.5.12-develop.2019.9.13+commit.2d601a4f.Linux.g++",
            "source" : "src/GeneralStateTestsFiller/stRevertTest/TouchToEmptyAccountRevert3Filler.json",
            "sourceHash" : "1640c709b15fdcd8e2e84298e197ab45a9a190e380d6a98d42657fb7a58c580b"
        },
        "genesisBlockHeader" : {
            "bloom" : "0x00000000000000000000000000000000000000000000000000000000000000000000000000000000000000000000000000000000000000000000000000000000000000000000000000000000000000000000000000000000000000000000000000000000000000000000000000000000000000000000000000000000000000000000000000000000000000000000000000000000000000000000000000000000000000000000000000000000000000000000000000000000000000000000000000000000000000000000000000000000000000000000000000000000000000000000000000000000000000000000000000000000000000000000000000000000",
            "coinbase" : "0x2adc25665018aa1fe0e6bc666dac8fc2697ff9ba",
            "difficulty" : "0x20000",
            "extraData" : "0x00",
            "gasLimit" : "0x989680",
            "gasUsed" : "0x0",
            "hash" : "0x1b3ab57b317822e8ac03630dea97ad5e83440a7736d4087f00349f9e993e4414",
            "mixHash" : "0x0000000000000000000000000000000000000000000000000000000000000000",
            "nonce" : "0x0000000000000000",
            "number" : "0x0",
            "parentHash" : "0x0000000000000000000000000000000000000000000000000000000000000000",
            "receiptTrie" : "0x56e81f171bcc55a6ff8345e692c0f86e5b48e01b996cadc001622fb5e363b421",
            "stateRoot" : "0xbc4af5e2c60bd5c97b19e0051e392fbde28126e5642cd1fdcafabeaa95945325",
            "timestamp" : "0x0",
            "transactionsTrie" : "0x56e81f171bcc55a6ff8345e692c0f86e5b48e01b996cadc001622fb5e363b421",
            "uncleHash" : "0x1dcc4de8dec75d7aab85b567b6ccd41ad312451b948a7413f0a142fd40d49347"
        },
        "pre" : {
            "0x1000000000000000000000000000000000000000" : {
                "balance" : "0x00",
                "code" : "0x",
                "nonce" : "0x00",
                "storage" : {
                }
            },
            "0xa94f5374fce5edbc8e2a8697c15331677e6ebf0b" : {
                "balance" : "0xe8d4a51000",
                "code" : "0x",
                "nonce" : "0x00",
                "storage" : {
                }
            },
            "0xb94f5374fce5edbc8e2a8697c15331677e6ebf0b" : {
                "balance" : "0x00",
                "code" : "0x6000600060006000600073e94f5374fce5edbc8e2a8697c15331677e6ebf0b617530f1600255600160035500",
                "nonce" : "0x00",
                "storage" : {
                }
            },
            "0xba4f5374fce5edbc8e2a8697c15331677e6ebf0b" : {
                "balance" : "0x00",
                "code" : "0x6000600060006000600073d94f5374fce5edbc8e2a8697c15331677e6ebf0b617530f16000556000600060006000600073b94f5374fce5edbc8e2a8697c15331677e6ebf0b617530f160015500",
                "nonce" : "0x00",
                "storage" : {
                }
            },
            "0xd94f5374fce5edbc8e2a8697c15331677e6ebf0b" : {
                "balance" : "0x00",
                "code" : "0x731000000000000000000000000000000000000000ff00",
                "nonce" : "0x00",
                "storage" : {
                }
            },
            "0xe94f5374fce5edbc8e2a8697c15331677e6ebf0b" : {
                "balance" : "0x00",
                "code" : "0x731000000000000000000000000000000000000000ff00",
                "nonce" : "0x00",
                "storage" : {
                }
            }
        },
        "postState" : {
            "0xa94f5374fce5edbc8e2a8697c15331677e6ebf0b" : {
                "code" : "0x",
                "nonce" : "0x01",
                "balance" : "0xe8d4a43c15",
                "storage" : {
                }
            },
            "0xe94f5374fce5edbc8e2a8697c15331677e6ebf0b" : {
                "code" : "0x731000000000000000000000000000000000000000ff00",
                "nonce" : "0x00",
                "balance" : "0x00",
                "storage" : {
                }
            },
            "0xba4f5374fce5edbc8e2a8697c15331677e6ebf0b" : {
                "code" : "0x6000600060006000600073d94f5374fce5edbc8e2a8697c15331677e6ebf0b617530f16000556000600060006000600073b94f5374fce5edbc8e2a8697c15331677e6ebf0b617530f160015500",
                "nonce" : "0x00",
                "balance" : "0x00",
                "storage" : {
                    "0x00" : "0x01"
                }
            },
            "0x2adc25665018aa1fe0e6bc666dac8fc2697ff9ba" : {
                "code" : "0x",
                "nonce" : "0x00",
                "balance" : "0x1bc16d674ec8d3eb",
                "storage" : {
                }
            },
            "0xb94f5374fce5edbc8e2a8697c15331677e6ebf0b" : {
                "code" : "0x6000600060006000600073e94f5374fce5edbc8e2a8697c15331677e6ebf0b617530f1600255600160035500",
                "nonce" : "0x00",
                "balance" : "0x00",
                "storage" : {
                }
            }
        },
        "network" : "Istanbul",
        "sealEngine" : "NoProof",
        "lastblockhash" : "0x767151dd291e596d657a7a7717ccc04c72a3fc165eb66a5d89e32ae9a4c47e0b",
        "genesisRLP" : "0xf901f8f901f3a00000000000000000000000000000000000000000000000000000000000000000a01dcc4de8dec75d7aab85b567b6ccd41ad312451b948a7413f0a142fd40d49347942adc25665018aa1fe0e6bc666dac8fc2697ff9baa0bc4af5e2c60bd5c97b19e0051e392fbde28126e5642cd1fdcafabeaa95945325a056e81f171bcc55a6ff8345e692c0f86e5b48e01b996cadc001622fb5e363b421a056e81f171bcc55a6ff8345e692c0f86e5b48e01b996cadc001622fb5e363b421b9010000000000000000000000000000000000000000000000000000000000000000000000000000000000000000000000000000000000000000000000000000000000000000000000000000000000000000000000000000000000000000000000000000000000000000000000000000000000000000000000000000000000000000000000000000000000000000000000000000000000000000000000000000000000000000000000000000000000000000000000000000000000000000000000000000000000000000000000000000000000000000000000000000000000000000000000000000000000000000000000000000000000000000000000000000000000830200008083989680808000a00000000000000000000000000000000000000000000000000000000000000000880000000000000000c0c0",
        "blocks" : [
            {
                "rlp" : "0xf9025ff901f7a01b3ab57b317822e8ac03630dea97ad5e83440a7736d4087f00349f9e993e4414a01dcc4de8dec75d7aab85b567b6ccd41ad312451b948a7413f0a142fd40d49347942adc25665018aa1fe0e6bc666dac8fc2697ff9baa0cbf7fa36c1c7cd229d8635f988e82cf3a849cbe9c614e1767aeffa8fd536bc2da0903cb032d1e65affdad8f04c3a8866fb89f616051a1b8c394b306724fcfabea5a0f9fead22b99f13223c1fd3599897011b53b42ead66fe7b89d2d42a7e2d870207b901000000000000000000000000000000000000000000000000000000000000000000000000000000000000000000000000000000000000000000000000000000000000000000000000000000000000000000000000000000000000000000000000000000000000000000000000000000000000000000000000000000000000000000000000000000000000000000000000000000000000000000000000000000000000000000000000000000000000000000000000000000000000000000000000000000000000000000000000000000000000000000000000000000000000000000000000000000000000000000000000000000000000000000000000000000000083020000018398bca482d3eb8203e800a00000000000000000000000000000000000000000000000000000000000000000880000000000000000f862f8608001830141e094ba4f5374fce5edbc8e2a8697c15331677e6ebf0b80801ba0c54136371ca85a765ad177ab231137bd0c60e44363ed248490e9afefa43a4b4fa0226274aba5489e3f59adade154f1372e48e9da8fd245ffb7634f9262aa77f560c0",
                "blockHeader" : {
                    "bloom" : "0x00000000000000000000000000000000000000000000000000000000000000000000000000000000000000000000000000000000000000000000000000000000000000000000000000000000000000000000000000000000000000000000000000000000000000000000000000000000000000000000000000000000000000000000000000000000000000000000000000000000000000000000000000000000000000000000000000000000000000000000000000000000000000000000000000000000000000000000000000000000000000000000000000000000000000000000000000000000000000000000000000000000000000000000000000000000",
                    "coinbase" : "0x2adc25665018aa1fe0e6bc666dac8fc2697ff9ba",
                    "difficulty" : "0x20000",
                    "extraData" : "0x00",
                    "gasLimit" : "0x98bca4",
                    "gasUsed" : "0xd3eb",
                    "hash" : "0x767151dd291e596d657a7a7717ccc04c72a3fc165eb66a5d89e32ae9a4c47e0b",
                    "mixHash" : "0x0000000000000000000000000000000000000000000000000000000000000000",
                    "nonce" : "0x0000000000000000",
                    "number" : "0x1",
                    "parentHash" : "0x1b3ab57b317822e8ac03630dea97ad5e83440a7736d4087f00349f9e993e4414",
                    "receiptTrie" : "0xf9fead22b99f13223c1fd3599897011b53b42ead66fe7b89d2d42a7e2d870207",
                    "stateRoot" : "0xcbf7fa36c1c7cd229d8635f988e82cf3a849cbe9c614e1767aeffa8fd536bc2d",
                    "timestamp" : "0x3e8",
                    "transactionsTrie" : "0x903cb032d1e65affdad8f04c3a8866fb89f616051a1b8c394b306724fcfabea5",
                    "uncleHash" : "0x1dcc4de8dec75d7aab85b567b6ccd41ad312451b948a7413f0a142fd40d49347"
                },
                "transactions" : [
                    {
                        "data" : "0x",
                        "gasLimit" : "0x0141e0",
                        "gasPrice" : "0x01",
                        "nonce" : "0x00",
                        "to" : "0xba4f5374fce5edbc8e2a8697c15331677e6ebf0b",
                        "value" : "0x00",
                        "v" : "0x1b",
                        "r" : "0xc54136371ca85a765ad177ab231137bd0c60e44363ed248490e9afefa43a4b4f",
                        "s" : "0x226274aba5489e3f59adade154f1372e48e9da8fd245ffb7634f9262aa77f560"
                    }
                ]
            }
        ]
    }
}