{
    "TouchToEmptyAccountRevert2_d0g0v0_Istanbul" : {
        "_info" : {
            "comment" : "",
            "filling-rpc-server" : "Geth-1.9.6-unstable-63b18027-20190920",
            "filling-tool-version" : "retesteth-0.0.1+commit.0ae18aef.Linux.g++",
            "lllcversion" : "Version: 0.5.12-develop.2019.9.13+commit.2d601a4f.Linux.g++",
            "source" : "src/GeneralStateTestsFiller/stRevertTest/TouchToEmptyAccountRevert2Filler.json",
            "sourceHash" : "b32f3f76db73c6b41032edb5682ef39f18ba2b2ba598280f91ee07b6a698ceec"
        },
        "genesisBlockHeader" : {
            "bloom" : "0x00000000000000000000000000000000000000000000000000000000000000000000000000000000000000000000000000000000000000000000000000000000000000000000000000000000000000000000000000000000000000000000000000000000000000000000000000000000000000000000000000000000000000000000000000000000000000000000000000000000000000000000000000000000000000000000000000000000000000000000000000000000000000000000000000000000000000000000000000000000000000000000000000000000000000000000000000000000000000000000000000000000000000000000000000000000",
            "coinbase" : "0x2adc25665018aa1fe0e6bc666dac8fc2697ff9ba",
            "difficulty" : "0x20000",
            "extraData" : "0x00",
            "gasLimit" : "0x989680",
            "gasUsed" : "0x0",
            "hash" : "0x518d8d40b749dec2bc4fab228b4d7c54652710cb372e17cd6a376691e2032ed5",
            "mixHash" : "0x0000000000000000000000000000000000000000000000000000000000000000",
            "nonce" : "0x0000000000000000",
            "number" : "0x0",
            "parentHash" : "0x0000000000000000000000000000000000000000000000000000000000000000",
            "receiptTrie" : "0x56e81f171bcc55a6ff8345e692c0f86e5b48e01b996cadc001622fb5e363b421",
            "stateRoot" : "0x0df8559745658c5a86e069fdab6a578db87be4abde64a63373f4b3380bb009a8",
            "timestamp" : "0x0",
            "transactionsTrie" : "0x56e81f171bcc55a6ff8345e692c0f86e5b48e01b996cadc001622fb5e363b421",
            "uncleHash" : "0x1dcc4de8dec75d7aab85b567b6ccd41ad312451b948a7413f0a142fd40d49347"
        },
        "pre" : {
            "0x1000000000000000000000000000000000000000" : {
                "balance" : "0x00",
                "code" : "0x",
                "nonce" : "0x00",
                "storage" : {
                }
            },
            "0xa94f5374fce5edbc8e2a8697c15331677e6ebf0b" : {
                "balance" : "0xe8d4a51000",
                "code" : "0x",
                "nonce" : "0x00",
                "storage" : {
                }
            },
            "0xb94f5374fce5edbc8e2a8697c15331677e6ebf0b" : {
                "balance" : "0x00",
                "code" : "0x60006000600060006000731000000000000000000000000000000000000000617530f1600255600160035500",
                "nonce" : "0x00",
                "storage" : {
                }
            },
            "0xba4f5374fce5edbc8e2a8697c15331677e6ebf0b" : {
                "balance" : "0x00",
                "code" : "0x60006000600060006000731000000000000000000000000000000000000000617530f16000556000600060006000600073b94f5374fce5edbc8e2a8697c15331677e6ebf0b617530f160015500",
                "nonce" : "0x00",
                "storage" : {
                }
            }
        },
        "postState" : {
            "0xa94f5374fce5edbc8e2a8697c15331677e6ebf0b" : {
                "code" : "0x",
                "nonce" : "0x01",
                "balance" : "0xe8d4a3ecfc",
                "storage" : {
                }
            },
            "0xba4f5374fce5edbc8e2a8697c15331677e6ebf0b" : {
                "code" : "0x60006000600060006000731000000000000000000000000000000000000000617530f16000556000600060006000600073b94f5374fce5edbc8e2a8697c15331677e6ebf0b617530f160015500",
                "nonce" : "0x00",
                "balance" : "0x00",
                "storage" : {
                }
            },
            "0x2adc25665018aa1fe0e6bc666dac8fc2697ff9ba" : {
                "code" : "0x",
                "nonce" : "0x00",
                "balance" : "0x1bc16d674ec92304",
                "storage" : {
                }
            },
            "0xb94f5374fce5edbc8e2a8697c15331677e6ebf0b" : {
                "code" : "0x60006000600060006000731000000000000000000000000000000000000000617530f1600255600160035500",
                "nonce" : "0x00",
                "balance" : "0x00",
                "storage" : {
                }
            },
            "0x1000000000000000000000000000000000000000" : {
                "code" : "0x",
                "nonce" : "0x00",
                "balance" : "0x00",
                "storage" : {
                }
            }
        },
        "network" : "Istanbul",
        "sealEngine" : "NoProof",
        "lastblockhash" : "0x3a7223e82cd5a4df3a08657e62d8df50714f47e8c6baf028fbbd2485b69931db",
        "genesisRLP" : "0xf901f8f901f3a00000000000000000000000000000000000000000000000000000000000000000a01dcc4de8dec75d7aab85b567b6ccd41ad312451b948a7413f0a142fd40d49347942adc25665018aa1fe0e6bc666dac8fc2697ff9baa00df8559745658c5a86e069fdab6a578db87be4abde64a63373f4b3380bb009a8a056e81f171bcc55a6ff8345e692c0f86e5b48e01b996cadc001622fb5e363b421a056e81f171bcc55a6ff8345e692c0f86e5b48e01b996cadc001622fb5e363b421b9010000000000000000000000000000000000000000000000000000000000000000000000000000000000000000000000000000000000000000000000000000000000000000000000000000000000000000000000000000000000000000000000000000000000000000000000000000000000000000000000000000000000000000000000000000000000000000000000000000000000000000000000000000000000000000000000000000000000000000000000000000000000000000000000000000000000000000000000000000000000000000000000000000000000000000000000000000000000000000000000000000000000000000000000000000000000830200008083989680808000a00000000000000000000000000000000000000000000000000000000000000000880000000000000000c0c0",
        "blocks" : [
            {
                "rlp" : "0xf90260f901f8a0518d8d40b749dec2bc4fab228b4d7c54652710cb372e17cd6a376691e2032ed5a01dcc4de8dec75d7aab85b567b6ccd41ad312451b948a7413f0a142fd40d49347942adc25665018aa1fe0e6bc666dac8fc2697ff9baa0fd7a99a168df744f16310a998449d74b936de6a5f076591b28664c38c079589ba0e6b367660844b9c60183eecf4574e323c4013b5d122a8d99c99bc2975a457b4ca0273075a227a372b4826aa63cfefd0e840f0ad848bb78c0215c92d147afef4329b901000000000000000000000000000000000000000000000000000000000000000000000000000000000000000000000000000000000000000000000000000000000000000000000000000000000000000000000000000000000000000000000000000000000000000000000000000000000000000000000000000000000000000000000000000000000000000000000000000000000000000000000000000000000000000000000000000000000000000000000000000000000000000000000000000000000000000000000000000000000000000000000000000000000000000000000000000000000000000000000000000000000000000000000000000000000083020000018398bca4830123048203e800a00000000000000000000000000000000000000000000000000000000000000000880000000000000000f862f86080018301230494ba4f5374fce5edbc8e2a8697c15331677e6ebf0b80801ba00df3dd1a00624c80ca2c7780d80a51d1c47032fadffeb1b8b09b55367f8ff0e2a00fd4b68b820ae50ae1d39901ac73bc5967646a6d9c8be1185a847747fa4244fec0",
                "blockHeader" : {
                    "bloom" : "0x00000000000000000000000000000000000000000000000000000000000000000000000000000000000000000000000000000000000000000000000000000000000000000000000000000000000000000000000000000000000000000000000000000000000000000000000000000000000000000000000000000000000000000000000000000000000000000000000000000000000000000000000000000000000000000000000000000000000000000000000000000000000000000000000000000000000000000000000000000000000000000000000000000000000000000000000000000000000000000000000000000000000000000000000000000000",
                    "coinbase" : "0x2adc25665018aa1fe0e6bc666dac8fc2697ff9ba",
                    "difficulty" : "0x20000",
                    "extraData" : "0x00",
                    "gasLimit" : "0x98bca4",
                    "gasUsed" : "0x12304",
                    "hash" : "0x3a7223e82cd5a4df3a08657e62d8df50714f47e8c6baf028fbbd2485b69931db",
                    "mixHash" : "0x0000000000000000000000000000000000000000000000000000000000000000",
                    "nonce" : "0x0000000000000000",
                    "number" : "0x1",
                    "parentHash" : "0x518d8d40b749dec2bc4fab228b4d7c54652710cb372e17cd6a376691e2032ed5",
                    "receiptTrie" : "0x273075a227a372b4826aa63cfefd0e840f0ad848bb78c0215c92d147afef4329",
                    "stateRoot" : "0xfd7a99a168df744f16310a998449d74b936de6a5f076591b28664c38c079589b",
                    "timestamp" : "0x3e8",
                    "transactionsTrie" : "0xe6b367660844b9c60183eecf4574e323c4013b5d122a8d99c99bc2975a457b4c",
                    "uncleHash" : "0x1dcc4de8dec75d7aab85b567b6ccd41ad312451b948a7413f0a142fd40d49347"
                },
                "transactions" : [
                    {
                        "data" : "0x",
                        "gasLimit" : "0x012304",
                        "gasPrice" : "0x01",
                        "nonce" : "0x00",
                        "to" : "0xba4f5374fce5edbc8e2a8697c15331677e6ebf0b",
                        "value" : "0x00",
                        "v" : "0x1b",
                        "r" : "0x0df3dd1a00624c80ca2c7780d80a51d1c47032fadffeb1b8b09b55367f8ff0e2",
                        "s" : "0x0fd4b68b820ae50ae1d39901ac73bc5967646a6d9c8be1185a847747fa4244fe"
                    }
                ]
            }
        ]
    },
    "TouchToEmptyAccountRevert2_d0g1v0_Istanbul" : {
        "_info" : {
            "comment" : "",
            "filling-rpc-server" : "Geth-1.9.6-unstable-63b18027-20190920",
            "filling-tool-version" : "retesteth-0.0.1+commit.0ae18aef.Linux.g++",
            "lllcversion" : "Version: 0.5.12-develop.2019.9.13+commit.2d601a4f.Linux.g++",
            "source" : "src/GeneralStateTestsFiller/stRevertTest/TouchToEmptyAccountRevert2Filler.json",
            "sourceHash" : "b32f3f76db73c6b41032edb5682ef39f18ba2b2ba598280f91ee07b6a698ceec"
        },
        "genesisBlockHeader" : {
            "bloom" : "0x00000000000000000000000000000000000000000000000000000000000000000000000000000000000000000000000000000000000000000000000000000000000000000000000000000000000000000000000000000000000000000000000000000000000000000000000000000000000000000000000000000000000000000000000000000000000000000000000000000000000000000000000000000000000000000000000000000000000000000000000000000000000000000000000000000000000000000000000000000000000000000000000000000000000000000000000000000000000000000000000000000000000000000000000000000000",
            "coinbase" : "0x2adc25665018aa1fe0e6bc666dac8fc2697ff9ba",
            "difficulty" : "0x20000",
            "extraData" : "0x00",
            "gasLimit" : "0x989680",
            "gasUsed" : "0x0",
            "hash" : "0x518d8d40b749dec2bc4fab228b4d7c54652710cb372e17cd6a376691e2032ed5",
            "mixHash" : "0x0000000000000000000000000000000000000000000000000000000000000000",
            "nonce" : "0x0000000000000000",
            "number" : "0x0",
            "parentHash" : "0x0000000000000000000000000000000000000000000000000000000000000000",
            "receiptTrie" : "0x56e81f171bcc55a6ff8345e692c0f86e5b48e01b996cadc001622fb5e363b421",
            "stateRoot" : "0x0df8559745658c5a86e069fdab6a578db87be4abde64a63373f4b3380bb009a8",
            "timestamp" : "0x0",
            "transactionsTrie" : "0x56e81f171bcc55a6ff8345e692c0f86e5b48e01b996cadc001622fb5e363b421",
            "uncleHash" : "0x1dcc4de8dec75d7aab85b567b6ccd41ad312451b948a7413f0a142fd40d49347"
        },
        "pre" : {
            "0x1000000000000000000000000000000000000000" : {
                "balance" : "0x00",
                "code" : "0x",
                "nonce" : "0x00",
                "storage" : {
                }
            },
            "0xa94f5374fce5edbc8e2a8697c15331677e6ebf0b" : {
                "balance" : "0xe8d4a51000",
                "code" : "0x",
                "nonce" : "0x00",
                "storage" : {
                }
            },
            "0xb94f5374fce5edbc8e2a8697c15331677e6ebf0b" : {
                "balance" : "0x00",
                "code" : "0x60006000600060006000731000000000000000000000000000000000000000617530f1600255600160035500",
                "nonce" : "0x00",
                "storage" : {
                }
            },
            "0xba4f5374fce5edbc8e2a8697c15331677e6ebf0b" : {
                "balance" : "0x00",
                "code" : "0x60006000600060006000731000000000000000000000000000000000000000617530f16000556000600060006000600073b94f5374fce5edbc8e2a8697c15331677e6ebf0b617530f160015500",
                "nonce" : "0x00",
                "storage" : {
                }
            }
        },
        "postState" : {
            "0xa94f5374fce5edbc8e2a8697c15331677e6ebf0b" : {
                "code" : "0x",
                "nonce" : "0x01",
                "balance" : "0xe8d4a43798",
                "storage" : {
                }
            },
            "0xba4f5374fce5edbc8e2a8697c15331677e6ebf0b" : {
                "code" : "0x60006000600060006000731000000000000000000000000000000000000000617530f16000556000600060006000600073b94f5374fce5edbc8e2a8697c15331677e6ebf0b617530f160015500",
                "nonce" : "0x00",
                "balance" : "0x00",
                "storage" : {
                }
            },
            "0x2adc25665018aa1fe0e6bc666dac8fc2697ff9ba" : {
                "code" : "0x",
                "nonce" : "0x00",
                "balance" : "0x1bc16d674ec8d868",
                "storage" : {
                }
            },
            "0xb94f5374fce5edbc8e2a8697c15331677e6ebf0b" : {
                "code" : "0x60006000600060006000731000000000000000000000000000000000000000617530f1600255600160035500",
                "nonce" : "0x00",
                "balance" : "0x00",
                "storage" : {
                }
            },
            "0x1000000000000000000000000000000000000000" : {
                "code" : "0x",
                "nonce" : "0x00",
                "balance" : "0x00",
                "storage" : {
                }
            }
        },
        "network" : "Istanbul",
        "sealEngine" : "NoProof",
        "lastblockhash" : "0x0067840d9002248a4c4875242545ebc5c7d692ee1915e1d819db64b6840f7edc",
        "genesisRLP" : "0xf901f8f901f3a00000000000000000000000000000000000000000000000000000000000000000a01dcc4de8dec75d7aab85b567b6ccd41ad312451b948a7413f0a142fd40d49347942adc25665018aa1fe0e6bc666dac8fc2697ff9baa00df8559745658c5a86e069fdab6a578db87be4abde64a63373f4b3380bb009a8a056e81f171bcc55a6ff8345e692c0f86e5b48e01b996cadc001622fb5e363b421a056e81f171bcc55a6ff8345e692c0f86e5b48e01b996cadc001622fb5e363b421b9010000000000000000000000000000000000000000000000000000000000000000000000000000000000000000000000000000000000000000000000000000000000000000000000000000000000000000000000000000000000000000000000000000000000000000000000000000000000000000000000000000000000000000000000000000000000000000000000000000000000000000000000000000000000000000000000000000000000000000000000000000000000000000000000000000000000000000000000000000000000000000000000000000000000000000000000000000000000000000000000000000000000000000000000000000000000830200008083989680808000a00000000000000000000000000000000000000000000000000000000000000000880000000000000000c0c0",
        "blocks" : [
            {
                "rlp" : "0xf9025ef901f7a0518d8d40b749dec2bc4fab228b4d7c54652710cb372e17cd6a376691e2032ed5a01dcc4de8dec75d7aab85b567b6ccd41ad312451b948a7413f0a142fd40d49347942adc25665018aa1fe0e6bc666dac8fc2697ff9baa0acaf3a3925c9b53fa92e75ea9f2a6bda51c4cfd34447917c4c9fdf3ecb635a77a068ba8b8fa1647b534315c9d013202e3436a640a3c757b460441f3e917fa1f26aa0d3ad19ac95ea155af03877aa586ba92bb99acfd75ba5c585561d83f487d1f1a7b901000000000000000000000000000000000000000000000000000000000000000000000000000000000000000000000000000000000000000000000000000000000000000000000000000000000000000000000000000000000000000000000000000000000000000000000000000000000000000000000000000000000000000000000000000000000000000000000000000000000000000000000000000000000000000000000000000000000000000000000000000000000000000000000000000000000000000000000000000000000000000000000000000000000000000000000000000000000000000000000000000000000000000000000000000000000083020000018398bca482d8688203e800a00000000000000000000000000000000000000000000000000000000000000000880000000000000000f861f85f800182d86894ba4f5374fce5edbc8e2a8697c15331677e6ebf0b80801ca08a81d99abefecd9046c0273bfa97447d0e39293abd5b967254814c522c8ff17ca05369327a9ddbf3c3f4d39d76efbfdf5076aa27cb32c4248568bd47fc76282850c0",
                "blockHeader" : {
                    "bloom" : "0x00000000000000000000000000000000000000000000000000000000000000000000000000000000000000000000000000000000000000000000000000000000000000000000000000000000000000000000000000000000000000000000000000000000000000000000000000000000000000000000000000000000000000000000000000000000000000000000000000000000000000000000000000000000000000000000000000000000000000000000000000000000000000000000000000000000000000000000000000000000000000000000000000000000000000000000000000000000000000000000000000000000000000000000000000000000",
                    "coinbase" : "0x2adc25665018aa1fe0e6bc666dac8fc2697ff9ba",
                    "difficulty" : "0x20000",
                    "extraData" : "0x00",
                    "gasLimit" : "0x98bca4",
                    "gasUsed" : "0xd868",
                    "hash" : "0x0067840d9002248a4c4875242545ebc5c7d692ee1915e1d819db64b6840f7edc",
                    "mixHash" : "0x0000000000000000000000000000000000000000000000000000000000000000",
                    "nonce" : "0x0000000000000000",
                    "number" : "0x1",
                    "parentHash" : "0x518d8d40b749dec2bc4fab228b4d7c54652710cb372e17cd6a376691e2032ed5",
                    "receiptTrie" : "0xd3ad19ac95ea155af03877aa586ba92bb99acfd75ba5c585561d83f487d1f1a7",
                    "stateRoot" : "0xacaf3a3925c9b53fa92e75ea9f2a6bda51c4cfd34447917c4c9fdf3ecb635a77",
                    "timestamp" : "0x3e8",
                    "transactionsTrie" : "0x68ba8b8fa1647b534315c9d013202e3436a640a3c757b460441f3e917fa1f26a",
                    "uncleHash" : "0x1dcc4de8dec75d7aab85b567b6ccd41ad312451b948a7413f0a142fd40d49347"
                },
                "transactions" : [
                    {
                        "data" : "0x",
                        "gasLimit" : "0xd868",
                        "gasPrice" : "0x01",
                        "nonce" : "0x00",
                        "to" : "0xba4f5374fce5edbc8e2a8697c15331677e6ebf0b",
                        "value" : "0x00",
                        "v" : "0x1c",
                        "r" : "0x8a81d99abefecd9046c0273bfa97447d0e39293abd5b967254814c522c8ff17c",
                        "s" : "0x5369327a9ddbf3c3f4d39d76efbfdf5076aa27cb32c4248568bd47fc76282850"
                    }
                ]
            }
        ]
    },
    "TouchToEmptyAccountRevert2_d0g2v0_Istanbul" : {
        "_info" : {
            "comment" : "",
            "filling-rpc-server" : "Geth-1.9.6-unstable-63b18027-20190920",
            "filling-tool-version" : "retesteth-0.0.1+commit.0ae18aef.Linux.g++",
            "lllcversion" : "Version: 0.5.12-develop.2019.9.13+commit.2d601a4f.Linux.g++",
            "source" : "src/GeneralStateTestsFiller/stRevertTest/TouchToEmptyAccountRevert2Filler.json",
            "sourceHash" : "b32f3f76db73c6b41032edb5682ef39f18ba2b2ba598280f91ee07b6a698ceec"
        },
        "genesisBlockHeader" : {
            "bloom" : "0x00000000000000000000000000000000000000000000000000000000000000000000000000000000000000000000000000000000000000000000000000000000000000000000000000000000000000000000000000000000000000000000000000000000000000000000000000000000000000000000000000000000000000000000000000000000000000000000000000000000000000000000000000000000000000000000000000000000000000000000000000000000000000000000000000000000000000000000000000000000000000000000000000000000000000000000000000000000000000000000000000000000000000000000000000000000",
            "coinbase" : "0x2adc25665018aa1fe0e6bc666dac8fc2697ff9ba",
            "difficulty" : "0x20000",
            "extraData" : "0x00",
            "gasLimit" : "0x989680",
            "gasUsed" : "0x0",
            "hash" : "0x518d8d40b749dec2bc4fab228b4d7c54652710cb372e17cd6a376691e2032ed5",
            "mixHash" : "0x0000000000000000000000000000000000000000000000000000000000000000",
            "nonce" : "0x0000000000000000",
            "number" : "0x0",
            "parentHash" : "0x0000000000000000000000000000000000000000000000000000000000000000",
            "receiptTrie" : "0x56e81f171bcc55a6ff8345e692c0f86e5b48e01b996cadc001622fb5e363b421",
            "stateRoot" : "0x0df8559745658c5a86e069fdab6a578db87be4abde64a63373f4b3380bb009a8",
            "timestamp" : "0x0",
            "transactionsTrie" : "0x56e81f171bcc55a6ff8345e692c0f86e5b48e01b996cadc001622fb5e363b421",
            "uncleHash" : "0x1dcc4de8dec75d7aab85b567b6ccd41ad312451b948a7413f0a142fd40d49347"
        },
        "pre" : {
            "0x1000000000000000000000000000000000000000" : {
                "balance" : "0x00",
                "code" : "0x",
                "nonce" : "0x00",
                "storage" : {
                }
            },
            "0xa94f5374fce5edbc8e2a8697c15331677e6ebf0b" : {
                "balance" : "0xe8d4a51000",
                "code" : "0x",
                "nonce" : "0x00",
                "storage" : {
                }
            },
            "0xb94f5374fce5edbc8e2a8697c15331677e6ebf0b" : {
                "balance" : "0x00",
                "code" : "0x60006000600060006000731000000000000000000000000000000000000000617530f1600255600160035500",
                "nonce" : "0x00",
                "storage" : {
                }
            },
            "0xba4f5374fce5edbc8e2a8697c15331677e6ebf0b" : {
                "balance" : "0x00",
                "code" : "0x60006000600060006000731000000000000000000000000000000000000000617530f16000556000600060006000600073b94f5374fce5edbc8e2a8697c15331677e6ebf0b617530f160015500",
                "nonce" : "0x00",
                "storage" : {
                }
            }
        },
        "postState" : {
            "0xa94f5374fce5edbc8e2a8697c15331677e6ebf0b" : {
                "code" : "0x",
                "nonce" : "0x01",
                "balance" : "0xe8d4a3f1e0",
                "storage" : {
                }
            },
            "0xba4f5374fce5edbc8e2a8697c15331677e6ebf0b" : {
                "code" : "0x60006000600060006000731000000000000000000000000000000000000000617530f16000556000600060006000600073b94f5374fce5edbc8e2a8697c15331677e6ebf0b617530f160015500",
                "nonce" : "0x00",
                "balance" : "0x00",
                "storage" : {
                    "0x00" : "0x01"
                }
            },
            "0x2adc25665018aa1fe0e6bc666dac8fc2697ff9ba" : {
                "code" : "0x",
                "nonce" : "0x00",
                "balance" : "0x1bc16d674ec91e20",
                "storage" : {
                }
            },
            "0xb94f5374fce5edbc8e2a8697c15331677e6ebf0b" : {
                "code" : "0x60006000600060006000731000000000000000000000000000000000000000617530f1600255600160035500",
                "nonce" : "0x00",
                "balance" : "0x00",
                "storage" : {
                }
            }
        },
        "network" : "Istanbul",
        "sealEngine" : "NoProof",
        "lastblockhash" : "0x16e4a2378cf4798369b4d0b13460ad9825b479e068e38b8d4a120266ca12141d",
        "genesisRLP" : "0xf901f8f901f3a00000000000000000000000000000000000000000000000000000000000000000a01dcc4de8dec75d7aab85b567b6ccd41ad312451b948a7413f0a142fd40d49347942adc25665018aa1fe0e6bc666dac8fc2697ff9baa00df8559745658c5a86e069fdab6a578db87be4abde64a63373f4b3380bb009a8a056e81f171bcc55a6ff8345e692c0f86e5b48e01b996cadc001622fb5e363b421a056e81f171bcc55a6ff8345e692c0f86e5b48e01b996cadc001622fb5e363b421b9010000000000000000000000000000000000000000000000000000000000000000000000000000000000000000000000000000000000000000000000000000000000000000000000000000000000000000000000000000000000000000000000000000000000000000000000000000000000000000000000000000000000000000000000000000000000000000000000000000000000000000000000000000000000000000000000000000000000000000000000000000000000000000000000000000000000000000000000000000000000000000000000000000000000000000000000000000000000000000000000000000000000000000000000000000000000830200008083989680808000a00000000000000000000000000000000000000000000000000000000000000000880000000000000000c0c0",
        "blocks" : [
            {
                "rlp" : "0xf90260f901f8a0518d8d40b749dec2bc4fab228b4d7c54652710cb372e17cd6a376691e2032ed5a01dcc4de8dec75d7aab85b567b6ccd41ad312451b948a7413f0a142fd40d49347942adc25665018aa1fe0e6bc666dac8fc2697ff9baa03fa869d5b5819edcace98dace15509b11276a17d86200a85d165f41d94eb4c70a02e42786e6ec04830fd0a77ce80f317a47b51dbbaed516c714d01fdbfc50a940da0e712e8a7a6696fe33a4cf2f980d2f216504a8669143bddc4dc537a5efc8e81f0b901000000000000000000000000000000000000000000000000000000000000000000000000000000000000000000000000000000000000000000000000000000000000000000000000000000000000000000000000000000000000000000000000000000000000000000000000000000000000000000000000000000000000000000000000000000000000000000000000000000000000000000000000000000000000000000000000000000000000000000000000000000000000000000000000000000000000000000000000000000000000000000000000000000000000000000000000000000000000000000000000000000000000000000000000000000000083020000018398bca483011e208203e800a00000000000000000000000000000000000000000000000000000000000000000880000000000000000f862f860800183012e5894ba4f5374fce5edbc8e2a8697c15331677e6ebf0b80801ca054aeb49b272934f1c9b09d36b6ad6cac4ee262c311c9a86d3f98db65bd00ee51a00178bd16091e19ed2e1c7d8160095d6bc9d6ef1d168ff61cb194dfc3b1d4d8c1c0",
                "blockHeader" : {
                    "bloom" : "0x00000000000000000000000000000000000000000000000000000000000000000000000000000000000000000000000000000000000000000000000000000000000000000000000000000000000000000000000000000000000000000000000000000000000000000000000000000000000000000000000000000000000000000000000000000000000000000000000000000000000000000000000000000000000000000000000000000000000000000000000000000000000000000000000000000000000000000000000000000000000000000000000000000000000000000000000000000000000000000000000000000000000000000000000000000000",
                    "coinbase" : "0x2adc25665018aa1fe0e6bc666dac8fc2697ff9ba",
                    "difficulty" : "0x20000",
                    "extraData" : "0x00",
                    "gasLimit" : "0x98bca4",
                    "gasUsed" : "0x11e20",
                    "hash" : "0x16e4a2378cf4798369b4d0b13460ad9825b479e068e38b8d4a120266ca12141d",
                    "mixHash" : "0x0000000000000000000000000000000000000000000000000000000000000000",
                    "nonce" : "0x0000000000000000",
                    "number" : "0x1",
                    "parentHash" : "0x518d8d40b749dec2bc4fab228b4d7c54652710cb372e17cd6a376691e2032ed5",
                    "receiptTrie" : "0xe712e8a7a6696fe33a4cf2f980d2f216504a8669143bddc4dc537a5efc8e81f0",
                    "stateRoot" : "0x3fa869d5b5819edcace98dace15509b11276a17d86200a85d165f41d94eb4c70",
                    "timestamp" : "0x3e8",
                    "transactionsTrie" : "0x2e42786e6ec04830fd0a77ce80f317a47b51dbbaed516c714d01fdbfc50a940d",
                    "uncleHash" : "0x1dcc4de8dec75d7aab85b567b6ccd41ad312451b948a7413f0a142fd40d49347"
                },
                "transactions" : [
                    {
                        "data" : "0x",
                        "gasLimit" : "0x012e58",
                        "gasPrice" : "0x01",
                        "nonce" : "0x00",
                        "to" : "0xba4f5374fce5edbc8e2a8697c15331677e6ebf0b",
                        "value" : "0x00",
                        "v" : "0x1c",
                        "r" : "0x54aeb49b272934f1c9b09d36b6ad6cac4ee262c311c9a86d3f98db65bd00ee51",
                        "s" : "0x0178bd16091e19ed2e1c7d8160095d6bc9d6ef1d168ff61cb194dfc3b1d4d8c1"
                    }
                ]
            }
        ]
    }
}