{
    "static_CallRecursiveBomb0_OOG_atMaxCallDepth_d0g0v0_Istanbul" : {
        "_info" : {
            "comment" : "",
            "filling-rpc-server" : "Geth-1.9.6-unstable-63b18027-20190920",
            "filling-tool-version" : "retesteth-0.0.1+commit.0ae18aef.Linux.g++",
            "lllcversion" : "Version: 0.5.12-develop.2019.9.13+commit.2d601a4f.Linux.g++",
            "source" : "src/GeneralStateTestsFiller/stStaticCall/static_CallRecursiveBomb0_OOG_atMaxCallDepthFiller.json",
            "sourceHash" : "11e701f26494335a7d43592a06ca83824bb6cf26329b375fbd03d35d20e75fee"
        },
        "genesisBlockHeader" : {
            "bloom" : "0x00000000000000000000000000000000000000000000000000000000000000000000000000000000000000000000000000000000000000000000000000000000000000000000000000000000000000000000000000000000000000000000000000000000000000000000000000000000000000000000000000000000000000000000000000000000000000000000000000000000000000000000000000000000000000000000000000000000000000000000000000000000000000000000000000000000000000000000000000000000000000000000000000000000000000000000000000000000000000000000000000000000000000000000000000000000",
            "coinbase" : "0x2adc25665018aa1fe0e6bc666dac8fc2697ff9ba",
            "difficulty" : "0x20000",
            "extraData" : "0x00",
            "gasLimit" : "0x199c82cc00",
            "gasUsed" : "0x0",
            "hash" : "0x9e2747d5d018138afb98db8804d4669e73123051b30f6061785196688d876333",
            "mixHash" : "0x0000000000000000000000000000000000000000000000000000000000000000",
            "nonce" : "0x0000000000000000",
            "number" : "0x0",
            "parentHash" : "0x0000000000000000000000000000000000000000000000000000000000000000",
            "receiptTrie" : "0x56e81f171bcc55a6ff8345e692c0f86e5b48e01b996cadc001622fb5e363b421",
            "stateRoot" : "0x64899386cf43f6db790a2cb1c333b6eb596d5f5091673d7118cbf1de013b71a3",
            "timestamp" : "0x0",
            "transactionsTrie" : "0x56e81f171bcc55a6ff8345e692c0f86e5b48e01b996cadc001622fb5e363b421",
            "uncleHash" : "0x1dcc4de8dec75d7aab85b567b6ccd41ad312451b948a7413f0a142fd40d49347"
        },
        "pre" : {
            "0x095e7baea6a6c7c4c2dfeb977efac326af552d87" : {
                "balance" : "0x01312d00",
                "code" : "0x600160005401600052690fffffffffffffffffff610402600051040260025260006000690fffffffffffffffffff61040260005104026000306104005a03fa00",
                "nonce" : "0x00",
                "storage" : {
                }
            },
            "0x195e7baea6a6c7c4c2dfeb977efac326af552d87" : {
                "balance" : "0x01312d00",
                "code" : "0x6000600060006000600073095e7baea6a6c7c4c2dfeb977efac326af552d875af2505a60015500",
                "nonce" : "0x00",
                "storage" : {
                }
            },
            "0xa94f5374fce5edbc8e2a8697c15331677e6ebf0b" : {
                "balance" : "0x0de0b6b3a7640000",
                "code" : "0x",
                "nonce" : "0x00",
                "storage" : {
                }
            }
        },
        "postState" : {
            "0xa94f5374fce5edbc8e2a8697c15331677e6ebf0b" : {
                "code" : "0x",
                "nonce" : "0x01",
                "balance" : "0x0de0b69d17ba704f",
                "storage" : {
                }
            },
            "0x095e7baea6a6c7c4c2dfeb977efac326af552d87" : {
                "code" : "0x600160005401600052690fffffffffffffffffff610402600051040260025260006000690fffffffffffffffffff61040260005104026000306104005a03fa00",
                "nonce" : "0x00",
                "balance" : "0x01312d00",
                "storage" : {
                }
            },
            "0x2adc25665018aa1fe0e6bc666dac8fc2697ff9ba" : {
                "code" : "0x",
                "nonce" : "0x00",
                "balance" : "0x1bc16d7dde700911",
                "storage" : {
                }
            },
            "0x195e7baea6a6c7c4c2dfeb977efac326af552d87" : {
                "code" : "0x6000600060006000600073095e7baea6a6c7c4c2dfeb977efac326af552d875af2505a60015500",
                "nonce" : "0x00",
                "balance" : "0x0132b3a0",
                "storage" : {
                    "0x01" : "0xb8cf2d12"
                }
            }
        },
        "network" : "Istanbul",
        "sealEngine" : "NoProof",
        "lastblockhash" : "0x54e76bac78e0e1a092cc7c1d2130ef1f948508c51c78140628b7ee0280e85337",
        "genesisRLP" : "0xf901faf901f5a00000000000000000000000000000000000000000000000000000000000000000a01dcc4de8dec75d7aab85b567b6ccd41ad312451b948a7413f0a142fd40d49347942adc25665018aa1fe0e6bc666dac8fc2697ff9baa064899386cf43f6db790a2cb1c333b6eb596d5f5091673d7118cbf1de013b71a3a056e81f171bcc55a6ff8345e692c0f86e5b48e01b996cadc001622fb5e363b421a056e81f171bcc55a6ff8345e692c0f86e5b48e01b996cadc001622fb5e363b421b9010000000000000000000000000000000000000000000000000000000000000000000000000000000000000000000000000000000000000000000000000000000000000000000000000000000000000000000000000000000000000000000000000000000000000000000000000000000000000000000000000000000000000000000000000000000000000000000000000000000000000000000000000000000000000000000000000000000000000000000000000000000000000000000000000000000000000000000000000000000000000000000000000000000000000000000000000000000000000000000000000000000000000000000000000000000000830200008085199c82cc00808000a00000000000000000000000000000000000000000000000000000000000000000880000000000000000c0c0",
        "blocks" : [
            {
                "rlp" : "0xf90269f901fca09e2747d5d018138afb98db8804d4669e73123051b30f6061785196688d876333a01dcc4de8dec75d7aab85b567b6ccd41ad312451b948a7413f0a142fd40d49347942adc25665018aa1fe0e6bc666dac8fc2697ff9baa075b1b59e7d33e362fae11ee71339ffe325e0a323142ca50af5961bafff920fdba0b013404fe3d35feb3b26bc47b5b57955a03e16c7db2ea31f3814f9463efa73f1a0f5206d0e9def9bdf5c5911a2f228061e1527aaabca70c6b0b84992a0dc54b250b901000000000000000000000000000000000000000000000000000000000000000000000000000000000000000000000000000000000000000000000000000000000000000000000000000000000000000000000000000000000000000000000000000000000000000000000000000000000000000000000000000000000000000000000000000000000000000000000000000000000000000000000000000000000000000000000000000000000000000000000000000000000000000000000000000000000000000000000000000000000000000000000000000000000000000000000000000000000000000000000000000000000000000000000000000000000083020000018519a2e9ecb285168fa809118203e800a00000000000000000000000000000000000000000000000000000000000000000880000000000000000f867f865800185174876e80094195e7baea6a6c7c4c2dfeb977efac326af552d87830186a0801ca0fec65843b157b6079b5e445a46af9cf684352cfa2a1dfbacfc05fdc03ce7951ca02b47a2842469d54078fb3835ed35ac1aa387057a25db3b36b5afcb56bed7201cc0",
                "blockHeader" : {
                    "bloom" : "0x00000000000000000000000000000000000000000000000000000000000000000000000000000000000000000000000000000000000000000000000000000000000000000000000000000000000000000000000000000000000000000000000000000000000000000000000000000000000000000000000000000000000000000000000000000000000000000000000000000000000000000000000000000000000000000000000000000000000000000000000000000000000000000000000000000000000000000000000000000000000000000000000000000000000000000000000000000000000000000000000000000000000000000000000000000000",
                    "coinbase" : "0x2adc25665018aa1fe0e6bc666dac8fc2697ff9ba",
                    "difficulty" : "0x20000",
                    "extraData" : "0x00",
                    "gasLimit" : "0x19a2e9ecb2",
                    "gasUsed" : "0x168fa80911",
                    "hash" : "0x54e76bac78e0e1a092cc7c1d2130ef1f948508c51c78140628b7ee0280e85337",
                    "mixHash" : "0x0000000000000000000000000000000000000000000000000000000000000000",
                    "nonce" : "0x0000000000000000",
                    "number" : "0x1",
                    "parentHash" : "0x9e2747d5d018138afb98db8804d4669e73123051b30f6061785196688d876333",
                    "receiptTrie" : "0xf5206d0e9def9bdf5c5911a2f228061e1527aaabca70c6b0b84992a0dc54b250",
                    "stateRoot" : "0x75b1b59e7d33e362fae11ee71339ffe325e0a323142ca50af5961bafff920fdb",
                    "timestamp" : "0x3e8",
                    "transactionsTrie" : "0xb013404fe3d35feb3b26bc47b5b57955a03e16c7db2ea31f3814f9463efa73f1",
                    "uncleHash" : "0x1dcc4de8dec75d7aab85b567b6ccd41ad312451b948a7413f0a142fd40d49347"
                },
                "transactions" : [
                    {
                        "data" : "0x",
                        "gasLimit" : "0x174876e800",
                        "gasPrice" : "0x01",
                        "nonce" : "0x00",
                        "to" : "0x195e7baea6a6c7c4c2dfeb977efac326af552d87",
                        "value" : "0x0186a0",
                        "v" : "0x1c",
                        "r" : "0xfec65843b157b6079b5e445a46af9cf684352cfa2a1dfbacfc05fdc03ce7951c",
                        "s" : "0x2b47a2842469d54078fb3835ed35ac1aa387057a25db3b36b5afcb56bed7201c"
                    }
                ]
            }
        ]
    }
}