{
    "static_Call1024PreCalls2_d0g0v0_Istanbul" : {
        "_info" : {
            "comment" : "",
            "filling-rpc-server" : "Geth-1.9.6-unstable-63b18027-20190920",
            "filling-tool-version" : "retesteth-0.0.1+commit.0ae18aef.Linux.g++",
            "lllcversion" : "Version: 0.5.12-develop.2019.9.13+commit.2d601a4f.Linux.g++",
            "source" : "src/GeneralStateTestsFiller/stStaticCall/static_Call1024PreCalls2Filler.json",
            "sourceHash" : "e8f7478b82041e92d3f5879249da9ebb429e8f5b92fb64a643c28064ce462406"
        },
        "genesisBlockHeader" : {
            "bloom" : "0x00000000000000000000000000000000000000000000000000000000000000000000000000000000000000000000000000000000000000000000000000000000000000000000000000000000000000000000000000000000000000000000000000000000000000000000000000000000000000000000000000000000000000000000000000000000000000000000000000000000000000000000000000000000000000000000000000000000000000000000000000000000000000000000000000000000000000000000000000000000000000000000000000000000000000000000000000000000000000000000000000000000000000000000000000000000",
            "coinbase" : "0xb94f5374fce5edbc8e2a8697c15331677e6ebf0b",
            "difficulty" : "0x20000",
            "extraData" : "0x00",
            "gasLimit" : "0x7fffffffffffffff",
            "gasUsed" : "0x0",
            "hash" : "0x6190f60773b72ffaaede10899eceb920de75f598ec40eb3f03c77f81d2a29222",
            "mixHash" : "0x0000000000000000000000000000000000000000000000000000000000000000",
            "nonce" : "0x0000000000000000",
            "number" : "0x0",
            "parentHash" : "0x0000000000000000000000000000000000000000000000000000000000000000",
            "receiptTrie" : "0x56e81f171bcc55a6ff8345e692c0f86e5b48e01b996cadc001622fb5e363b421",
            "stateRoot" : "0x8f4a771cd00c685e542e85d9f617ec7e701cd1f87277630d0ad93f82ee66d1ca",
            "timestamp" : "0x0",
            "transactionsTrie" : "0x56e81f171bcc55a6ff8345e692c0f86e5b48e01b996cadc001622fb5e363b421",
            "uncleHash" : "0x1dcc4de8dec75d7aab85b567b6ccd41ad312451b948a7413f0a142fd40d49347"
        },
        "pre" : {
            "0x1000000000000000000000000000000000000000" : {
                "balance" : "0x00",
                "code" : "0x6000600060006000346000355af16000555a60015500",
                "nonce" : "0x00",
                "storage" : {
                }
            },
            "0xa94f5374fce5edbc8e2a8697c15331677e6ebf0b" : {
                "balance" : "0x0fffffffffffffffffffffffffffffffff",
                "code" : "0x",
                "nonce" : "0x00",
                "storage" : {
                }
            },
            "0xaaaf5374fce5edbc8e2a8697c15331677e6ebf0b" : {
                "balance" : "0x1b58",
                "code" : "0x600160005200",
                "nonce" : "0x00",
                "storage" : {
                }
            },
            "0xbbbf5374fce5edbc8e2a8697c15331677e6ebf0b" : {
                "balance" : "0x07e8",
                "code" : "0x600060006000600073aaaf5374fce5edbc8e2a8697c15331677e6ebf0b61fffffa600255600060006000600073aaaf5374fce5edbc8e2a8697c15331677e6ebf0b61fffffa600355600160005401600055600060006000600073bbbf5374fce5edbc8e2a8697c15331677e6ebf0b650ffffffffffff460015500",
                "nonce" : "0x00",
                "storage" : {
                }
            },
            "0xcbbf5374fce5edbc8e2a8697c15331677e6ebf0b" : {
                "balance" : "0x07e8",
                "code" : "0x600060006000600073aaaf5374fce5edbc8e2a8697c15331677e6ebf0b61fffffa50600060006000600073aaaf5374fce5edbc8e2a8697c15331677e6ebf0b61fffffa50600160005101600052600060006000600073cbbf5374fce5edbc8e2a8697c15331677e6ebf0b650ffffffffffff400",
                "nonce" : "0x00",
                "storage" : {
                }
            }
        },
        "postState" : {
            "0xa94f5374fce5edbc8e2a8697c15331677e6ebf0b" : {
                "code" : "0x",
                "nonce" : "0x01",
                "balance" : "0x0fffffffffffffffffffffffffff9d814f",
                "storage" : {
                }
            },
            "0xbbbf5374fce5edbc8e2a8697c15331677e6ebf0b" : {
                "code" : "0x600060006000600073aaaf5374fce5edbc8e2a8697c15331677e6ebf0b61fffffa600255600060006000600073aaaf5374fce5edbc8e2a8697c15331677e6ebf0b61fffffa600355600160005401600055600060006000600073bbbf5374fce5edbc8e2a8697c15331677e6ebf0b650ffffffffffff460015500",
                "nonce" : "0x00",
                "balance" : "0x07f2",
                "storage" : {
                    "0x00" : "0x0400",
                    "0x01" : "0x01"
                }
            },
            "0xcbbf5374fce5edbc8e2a8697c15331677e6ebf0b" : {
                "code" : "0x600060006000600073aaaf5374fce5edbc8e2a8697c15331677e6ebf0b61fffffa50600060006000600073aaaf5374fce5edbc8e2a8697c15331677e6ebf0b61fffffa50600160005101600052600060006000600073cbbf5374fce5edbc8e2a8697c15331677e6ebf0b650ffffffffffff400",
                "nonce" : "0x00",
                "balance" : "0x07e8",
                "storage" : {
                }
            },
            "0xaaaf5374fce5edbc8e2a8697c15331677e6ebf0b" : {
                "code" : "0x600160005200",
                "nonce" : "0x00",
                "balance" : "0x1b58",
                "storage" : {
                }
            },
            "0xb94f5374fce5edbc8e2a8697c15331677e6ebf0b" : {
                "code" : "0x",
                "nonce" : "0x00",
                "balance" : "0x1bc16d674f2a7ea6",
                "storage" : {
                }
            },
            "0x1000000000000000000000000000000000000000" : {
                "code" : "0x6000600060006000346000355af16000555a60015500",
                "nonce" : "0x00",
                "balance" : "0x00",
                "storage" : {
                    "0x00" : "0x01",
                    "0x01" : "0x7fdfffffff9d397e"
                }
            }
        },
        "network" : "Istanbul",
        "sealEngine" : "NoProof",
        "lastblockhash" : "0x5e4322aceda581a6c74b768ef4c6669b05a36a62184f6df192b49f882168f5c1",
        "genesisRLP" : "0xf901fdf901f8a00000000000000000000000000000000000000000000000000000000000000000a01dcc4de8dec75d7aab85b567b6ccd41ad312451b948a7413f0a142fd40d4934794b94f5374fce5edbc8e2a8697c15331677e6ebf0ba08f4a771cd00c685e542e85d9f617ec7e701cd1f87277630d0ad93f82ee66d1caa056e81f171bcc55a6ff8345e692c0f86e5b48e01b996cadc001622fb5e363b421a056e81f171bcc55a6ff8345e692c0f86e5b48e01b996cadc001622fb5e363b421b90100000000000000000000000000000000000000000000000000000000000000000000000000000000000000000000000000000000000000000000000000000000000000000000000000000000000000000000000000000000000000000000000000000000000000000000000000000000000000000000000000000000000000000000000000000000000000000000000000000000000000000000000000000000000000000000000000000000000000000000000000000000000000000000000000000000000000000000000000000000000000000000000000000000000000000000000000000000000000000000000000000000000000000000000000000000008302000080887fffffffffffffff808000a00000000000000000000000000000000000000000000000000000000000000000880000000000000000c0c0",
        "blocks" : [
            {
                "rlp" : "0xf9028af901fda06190f60773b72ffaaede10899eceb920de75f598ec40eb3f03c77f81d2a29222a01dcc4de8dec75d7aab85b567b6ccd41ad312451b948a7413f0a142fd40d4934794b94f5374fce5edbc8e2a8697c15331677e6ebf0ba01bed3cda06aa8829665b598f1711c9211c4bca6800d2ea687e12a1f1de9ef943a0b2adda8b9f1e8f3680adeec17e28171dc936c95ef6246dd83f2441d01adb8a9ea0a860ccef69b382ebe028d3601ea028f9c657b1cc65de3cde6f5fa3ff3a80b6b9b90100000000000000000000000000000000000000000000000000000000000000000000000000000000000000000000000000000000000000000000000000000000000000000000000000000000000000000000000000000000000000000000000000000000000000000000000000000000000000000000000000000000000000000000000000000000000000000000000000000000000000000000000000000000000000000000000000000000000000000000000000000000000000000000000000000000000000000000000000000000000000000000000000000000000000000000000000000000000000000000000000000000000000000000000000000000008302000001887fffffffffffffff83627ea68203e800a00000000000000000000000000000000000000000000000000000000000000000880000000000000000f887f8858001887fe00000000000019410000000000000000000000000000000000000000aa0000000000000000000000000bbbf5374fce5edbc8e2a8697c15331677e6ebf0b1ca0afc134df7ab415abd616b40cd52338fe8f6e507eba5afb6761c4f276da8132eaa0669c30406bc9d21ec7e7cfec63b1ffeb85e5fef44fa4ac095f9963e1d2352948c0",
                "blockHeader" : {
                    "bloom" : "0x00000000000000000000000000000000000000000000000000000000000000000000000000000000000000000000000000000000000000000000000000000000000000000000000000000000000000000000000000000000000000000000000000000000000000000000000000000000000000000000000000000000000000000000000000000000000000000000000000000000000000000000000000000000000000000000000000000000000000000000000000000000000000000000000000000000000000000000000000000000000000000000000000000000000000000000000000000000000000000000000000000000000000000000000000000000",
                    "coinbase" : "0xb94f5374fce5edbc8e2a8697c15331677e6ebf0b",
                    "difficulty" : "0x20000",
                    "extraData" : "0x00",
                    "gasLimit" : "0x7fffffffffffffff",
                    "gasUsed" : "0x627ea6",
                    "hash" : "0x5e4322aceda581a6c74b768ef4c6669b05a36a62184f6df192b49f882168f5c1",
                    "mixHash" : "0x0000000000000000000000000000000000000000000000000000000000000000",
                    "nonce" : "0x0000000000000000",
                    "number" : "0x1",
                    "parentHash" : "0x6190f60773b72ffaaede10899eceb920de75f598ec40eb3f03c77f81d2a29222",
                    "receiptTrie" : "0xa860ccef69b382ebe028d3601ea028f9c657b1cc65de3cde6f5fa3ff3a80b6b9",
                    "stateRoot" : "0x1bed3cda06aa8829665b598f1711c9211c4bca6800d2ea687e12a1f1de9ef943",
                    "timestamp" : "0x3e8",
                    "transactionsTrie" : "0xb2adda8b9f1e8f3680adeec17e28171dc936c95ef6246dd83f2441d01adb8a9e",
                    "uncleHash" : "0x1dcc4de8dec75d7aab85b567b6ccd41ad312451b948a7413f0a142fd40d49347"
                },
                "transactions" : [
                    {
                        "data" : "0x000000000000000000000000bbbf5374fce5edbc8e2a8697c15331677e6ebf0b",
                        "gasLimit" : "0x7fe0000000000001",
                        "gasPrice" : "0x01",
                        "nonce" : "0x00",
                        "to" : "0x1000000000000000000000000000000000000000",
                        "value" : "0x0a",
                        "v" : "0x1c",
                        "r" : "0xafc134df7ab415abd616b40cd52338fe8f6e507eba5afb6761c4f276da8132ea",
                        "s" : "0x669c30406bc9d21ec7e7cfec63b1ffeb85e5fef44fa4ac095f9963e1d2352948"
                    }
                ]
            }
        ]
    },
    "static_Call1024PreCalls2_d1g0v0_Istanbul" : {
        "_info" : {
            "comment" : "",
            "filling-rpc-server" : "Geth-1.9.6-unstable-63b18027-20190920",
            "filling-tool-version" : "retesteth-0.0.1+commit.0ae18aef.Linux.g++",
            "lllcversion" : "Version: 0.5.12-develop.2019.9.13+commit.2d601a4f.Linux.g++",
            "source" : "src/GeneralStateTestsFiller/stStaticCall/static_Call1024PreCalls2Filler.json",
            "sourceHash" : "e8f7478b82041e92d3f5879249da9ebb429e8f5b92fb64a643c28064ce462406"
        },
        "genesisBlockHeader" : {
            "bloom" : "0x00000000000000000000000000000000000000000000000000000000000000000000000000000000000000000000000000000000000000000000000000000000000000000000000000000000000000000000000000000000000000000000000000000000000000000000000000000000000000000000000000000000000000000000000000000000000000000000000000000000000000000000000000000000000000000000000000000000000000000000000000000000000000000000000000000000000000000000000000000000000000000000000000000000000000000000000000000000000000000000000000000000000000000000000000000000",
            "coinbase" : "0xb94f5374fce5edbc8e2a8697c15331677e6ebf0b",
            "difficulty" : "0x20000",
            "extraData" : "0x00",
            "gasLimit" : "0x7fffffffffffffff",
            "gasUsed" : "0x0",
            "hash" : "0x6190f60773b72ffaaede10899eceb920de75f598ec40eb3f03c77f81d2a29222",
            "mixHash" : "0x0000000000000000000000000000000000000000000000000000000000000000",
            "nonce" : "0x0000000000000000",
            "number" : "0x0",
            "parentHash" : "0x0000000000000000000000000000000000000000000000000000000000000000",
            "receiptTrie" : "0x56e81f171bcc55a6ff8345e692c0f86e5b48e01b996cadc001622fb5e363b421",
            "stateRoot" : "0x8f4a771cd00c685e542e85d9f617ec7e701cd1f87277630d0ad93f82ee66d1ca",
            "timestamp" : "0x0",
            "transactionsTrie" : "0x56e81f171bcc55a6ff8345e692c0f86e5b48e01b996cadc001622fb5e363b421",
            "uncleHash" : "0x1dcc4de8dec75d7aab85b567b6ccd41ad312451b948a7413f0a142fd40d49347"
        },
        "pre" : {
            "0x1000000000000000000000000000000000000000" : {
                "balance" : "0x00",
                "code" : "0x6000600060006000346000355af16000555a60015500",
                "nonce" : "0x00",
                "storage" : {
                }
            },
            "0xa94f5374fce5edbc8e2a8697c15331677e6ebf0b" : {
                "balance" : "0x0fffffffffffffffffffffffffffffffff",
                "code" : "0x",
                "nonce" : "0x00",
                "storage" : {
                }
            },
            "0xaaaf5374fce5edbc8e2a8697c15331677e6ebf0b" : {
                "balance" : "0x1b58",
                "code" : "0x600160005200",
                "nonce" : "0x00",
                "storage" : {
                }
            },
            "0xbbbf5374fce5edbc8e2a8697c15331677e6ebf0b" : {
                "balance" : "0x07e8",
                "code" : "0x600060006000600073aaaf5374fce5edbc8e2a8697c15331677e6ebf0b61fffffa600255600060006000600073aaaf5374fce5edbc8e2a8697c15331677e6ebf0b61fffffa600355600160005401600055600060006000600073bbbf5374fce5edbc8e2a8697c15331677e6ebf0b650ffffffffffff460015500",
                "nonce" : "0x00",
                "storage" : {
                }
            },
            "0xcbbf5374fce5edbc8e2a8697c15331677e6ebf0b" : {
                "balance" : "0x07e8",
                "code" : "0x600060006000600073aaaf5374fce5edbc8e2a8697c15331677e6ebf0b61fffffa50600060006000600073aaaf5374fce5edbc8e2a8697c15331677e6ebf0b61fffffa50600160005101600052600060006000600073cbbf5374fce5edbc8e2a8697c15331677e6ebf0b650ffffffffffff400",
                "nonce" : "0x00",
                "storage" : {
                }
            }
        },
        "postState" : {
            "0xa94f5374fce5edbc8e2a8697c15331677e6ebf0b" : {
                "code" : "0x",
                "nonce" : "0x01",
                "balance" : "0x0fffffffffffffffffffffffffffdc874f",
                "storage" : {
                }
            },
            "0xbbbf5374fce5edbc8e2a8697c15331677e6ebf0b" : {
                "code" : "0x600060006000600073aaaf5374fce5edbc8e2a8697c15331677e6ebf0b61fffffa600255600060006000600073aaaf5374fce5edbc8e2a8697c15331677e6ebf0b61fffffa600355600160005401600055600060006000600073bbbf5374fce5edbc8e2a8697c15331677e6ebf0b650ffffffffffff460015500",
                "nonce" : "0x00",
                "balance" : "0x07e8",
                "storage" : {
                }
            },
            "0xcbbf5374fce5edbc8e2a8697c15331677e6ebf0b" : {
                "code" : "0x600060006000600073aaaf5374fce5edbc8e2a8697c15331677e6ebf0b61fffffa50600060006000600073aaaf5374fce5edbc8e2a8697c15331677e6ebf0b61fffffa50600160005101600052600060006000600073cbbf5374fce5edbc8e2a8697c15331677e6ebf0b650ffffffffffff400",
                "nonce" : "0x00",
                "balance" : "0x07f2",
                "storage" : {
                }
            },
            "0xaaaf5374fce5edbc8e2a8697c15331677e6ebf0b" : {
                "code" : "0x600160005200",
                "nonce" : "0x00",
                "balance" : "0x1b58",
                "storage" : {
                }
            },
            "0xb94f5374fce5edbc8e2a8697c15331677e6ebf0b" : {
                "code" : "0x",
                "nonce" : "0x00",
                "balance" : "0x1bc16d674eeb78a6",
                "storage" : {
                }
            },
            "0x1000000000000000000000000000000000000000" : {
                "code" : "0x6000600060006000346000355af16000555a60015500",
                "nonce" : "0x00",
                "balance" : "0x00",
                "storage" : {
                    "0x00" : "0x01",
                    "0x01" : "0x7fdfffffffdcd57e"
                }
            }
        },
        "network" : "Istanbul",
        "sealEngine" : "NoProof",
        "lastblockhash" : "0xa8344fb470a11dc94caa9887d0be9e23a6f332ba9e8988d4312ceb8ab6ea081d",
        "genesisRLP" : "0xf901fdf901f8a00000000000000000000000000000000000000000000000000000000000000000a01dcc4de8dec75d7aab85b567b6ccd41ad312451b948a7413f0a142fd40d4934794b94f5374fce5edbc8e2a8697c15331677e6ebf0ba08f4a771cd00c685e542e85d9f617ec7e701cd1f87277630d0ad93f82ee66d1caa056e81f171bcc55a6ff8345e692c0f86e5b48e01b996cadc001622fb5e363b421a056e81f171bcc55a6ff8345e692c0f86e5b48e01b996cadc001622fb5e363b421b90100000000000000000000000000000000000000000000000000000000000000000000000000000000000000000000000000000000000000000000000000000000000000000000000000000000000000000000000000000000000000000000000000000000000000000000000000000000000000000000000000000000000000000000000000000000000000000000000000000000000000000000000000000000000000000000000000000000000000000000000000000000000000000000000000000000000000000000000000000000000000000000000000000000000000000000000000000000000000000000000000000000000000000000000000000000008302000080887fffffffffffffff808000a00000000000000000000000000000000000000000000000000000000000000000880000000000000000c0c0",
        "blocks" : [
            {
                "rlp" : "0xf9028af901fda06190f60773b72ffaaede10899eceb920de75f598ec40eb3f03c77f81d2a29222a01dcc4de8dec75d7aab85b567b6ccd41ad312451b948a7413f0a142fd40d4934794b94f5374fce5edbc8e2a8697c15331677e6ebf0ba005c1570e15c7db3c020fac23e5d41b018fb9fa3dded7a025d476edf8849ddbc3a054a5cf52a84bf9aa864fd7c03b04961c87cd65a9d09e63a5359c47768759190da045af2bd742ba3f61483ea16f7e10d5d45710882bc7749aae1977bc3eb9a94c50b90100000000000000000000000000000000000000000000000000000000000000000000000000000000000000000000000000000000000000000000000000000000000000000000000000000000000000000000000000000000000000000000000000000000000000000000000000000000000000000000000000000000000000000000000000000000000000000000000000000000000000000000000000000000000000000000000000000000000000000000000000000000000000000000000000000000000000000000000000000000000000000000000000000000000000000000000000000000000000000000000000000000000000000000000000000000008302000001887fffffffffffffff832378a68203e800a00000000000000000000000000000000000000000000000000000000000000000880000000000000000f887f8858001887fe00000000000019410000000000000000000000000000000000000000aa0000000000000000000000000cbbf5374fce5edbc8e2a8697c15331677e6ebf0b1ba07b33039ae7eda8c4b18e7db5bfb4ec2cade926d35d2bbbff2033bdb693979043a01762ceec8919e5b96299eb56e8793050c558eebd661498d13e770534bf2a1494c0",
                "blockHeader" : {
                    "bloom" : "0x00000000000000000000000000000000000000000000000000000000000000000000000000000000000000000000000000000000000000000000000000000000000000000000000000000000000000000000000000000000000000000000000000000000000000000000000000000000000000000000000000000000000000000000000000000000000000000000000000000000000000000000000000000000000000000000000000000000000000000000000000000000000000000000000000000000000000000000000000000000000000000000000000000000000000000000000000000000000000000000000000000000000000000000000000000000",
                    "coinbase" : "0xb94f5374fce5edbc8e2a8697c15331677e6ebf0b",
                    "difficulty" : "0x20000",
                    "extraData" : "0x00",
                    "gasLimit" : "0x7fffffffffffffff",
                    "gasUsed" : "0x2378a6",
                    "hash" : "0xa8344fb470a11dc94caa9887d0be9e23a6f332ba9e8988d4312ceb8ab6ea081d",
                    "mixHash" : "0x0000000000000000000000000000000000000000000000000000000000000000",
                    "nonce" : "0x0000000000000000",
                    "number" : "0x1",
                    "parentHash" : "0x6190f60773b72ffaaede10899eceb920de75f598ec40eb3f03c77f81d2a29222",
                    "receiptTrie" : "0x45af2bd742ba3f61483ea16f7e10d5d45710882bc7749aae1977bc3eb9a94c50",
                    "stateRoot" : "0x05c1570e15c7db3c020fac23e5d41b018fb9fa3dded7a025d476edf8849ddbc3",
                    "timestamp" : "0x3e8",
                    "transactionsTrie" : "0x54a5cf52a84bf9aa864fd7c03b04961c87cd65a9d09e63a5359c47768759190d",
                    "uncleHash" : "0x1dcc4de8dec75d7aab85b567b6ccd41ad312451b948a7413f0a142fd40d49347"
                },
                "transactions" : [
                    {
                        "data" : "0x000000000000000000000000cbbf5374fce5edbc8e2a8697c15331677e6ebf0b",
                        "gasLimit" : "0x7fe0000000000001",
                        "gasPrice" : "0x01",
                        "nonce" : "0x00",
                        "to" : "0x1000000000000000000000000000000000000000",
                        "value" : "0x0a",
                        "v" : "0x1b",
                        "r" : "0x7b33039ae7eda8c4b18e7db5bfb4ec2cade926d35d2bbbff2033bdb693979043",
                        "s" : "0x1762ceec8919e5b96299eb56e8793050c558eebd661498d13e770534bf2a1494"
                    }
                ]
            }
        ]
    }
}