{
    "static_Call1024PreCalls3_d0g0v0_Istanbul" : {
        "_info" : {
            "comment" : "",
            "filling-rpc-server" : "Geth-1.9.6-unstable-63b18027-20190920",
            "filling-tool-version" : "retesteth-0.0.1+commit.0ae18aef.Linux.g++",
            "lllcversion" : "Version: 0.5.12-develop.2019.9.13+commit.2d601a4f.Linux.g++",
            "source" : "src/GeneralStateTestsFiller/stStaticCall/static_Call1024PreCalls3Filler.json",
            "sourceHash" : "84f4409a5793271d4b52e40a7d0234c5e805937a521b68be8692128a4467ec2c"
        },
        "genesisBlockHeader" : {
            "bloom" : "0x00000000000000000000000000000000000000000000000000000000000000000000000000000000000000000000000000000000000000000000000000000000000000000000000000000000000000000000000000000000000000000000000000000000000000000000000000000000000000000000000000000000000000000000000000000000000000000000000000000000000000000000000000000000000000000000000000000000000000000000000000000000000000000000000000000000000000000000000000000000000000000000000000000000000000000000000000000000000000000000000000000000000000000000000000000000",
            "coinbase" : "0xb94f5374fce5edbc8e2a8697c15331677e6ebf0b",
            "difficulty" : "0x20000",
            "extraData" : "0x00",
            "gasLimit" : "0x7fffffffffffffff",
            "gasUsed" : "0x0",
            "hash" : "0xfd56b38480c7969c8098db11449d2b93b8ec829067f6971ac3eba225f87996f4",
            "mixHash" : "0x0000000000000000000000000000000000000000000000000000000000000000",
            "nonce" : "0x0000000000000000",
            "number" : "0x0",
            "parentHash" : "0x0000000000000000000000000000000000000000000000000000000000000000",
            "receiptTrie" : "0x56e81f171bcc55a6ff8345e692c0f86e5b48e01b996cadc001622fb5e363b421",
            "stateRoot" : "0x19b591bba9502a7aea93619131828d5a7e73b0e5cfb82bf78ddd36a913497d7f",
            "timestamp" : "0x0",
            "transactionsTrie" : "0x56e81f171bcc55a6ff8345e692c0f86e5b48e01b996cadc001622fb5e363b421",
            "uncleHash" : "0x1dcc4de8dec75d7aab85b567b6ccd41ad312451b948a7413f0a142fd40d49347"
        },
        "pre" : {
            "0x1000000000000000000000000000000000000000" : {
                "balance" : "0x00",
                "code" : "0x6000600060006000346000355af16000555a60015500",
                "nonce" : "0x00",
                "storage" : {
                }
            },
            "0xa94f5374fce5edbc8e2a8697c15331677e6ebf0b" : {
                "balance" : "0x0fffffffffffffffffffffffffffffffff",
                "code" : "0x",
                "nonce" : "0x00",
                "storage" : {
                }
            },
            "0xaaaf5374fce5edbc8e2a8697c15331677e6ebf0b" : {
                "balance" : "0x1b58",
                "code" : "0x",
                "nonce" : "0x00",
                "storage" : {
                }
            },
            "0xbbbf5374fce5edbc8e2a8697c15331677e6ebf0b" : {
                "balance" : "0x07e8",
                "code" : "0x600060006000600073aaaf5374fce5edbc8e2a8697c15331677e6ebf0b61fffffa600255600060006000600073aaaf5374fce5edbc8e2a8697c15331677e6ebf0b61fffffa600355600160005401600055600060006000600073bbbf5374fce5edbc8e2a8697c15331677e6ebf0b650ffffffffffffa60015500",
                "nonce" : "0x00",
                "storage" : {
                }
            },
            "0xcbbf5374fce5edbc8e2a8697c15331677e6ebf0b" : {
                "balance" : "0x07e8",
                "code" : "0x600060006000600073aaaf5374fce5edbc8e2a8697c15331677e6ebf0b61fffffa50600060006000600073aaaf5374fce5edbc8e2a8697c15331677e6ebf0b61fffffa50600160005101600052600060006000600073cbbf5374fce5edbc8e2a8697c15331677e6ebf0b650ffffffffffffa00",
                "nonce" : "0x00",
                "storage" : {
                }
            }
        },
        "postState" : {
            "0xa94f5374fce5edbc8e2a8697c15331677e6ebf0b" : {
                "code" : "0x",
                "nonce" : "0x01",
                "balance" : "0x0fffffffffffffffffffffeffffffdfa19",
                "storage" : {
                }
            },
            "0xbbbf5374fce5edbc8e2a8697c15331677e6ebf0b" : {
                "code" : "0x600060006000600073aaaf5374fce5edbc8e2a8697c15331677e6ebf0b61fffffa600255600060006000600073aaaf5374fce5edbc8e2a8697c15331677e6ebf0b61fffffa600355600160005401600055600060006000600073bbbf5374fce5edbc8e2a8697c15331677e6ebf0b650ffffffffffffa60015500",
                "nonce" : "0x00",
                "balance" : "0x07f2",
                "storage" : {
                    "0x00" : "0x01",
                    "0x02" : "0x01",
                    "0x03" : "0x01"
                }
            },
            "0xcbbf5374fce5edbc8e2a8697c15331677e6ebf0b" : {
                "code" : "0x600060006000600073aaaf5374fce5edbc8e2a8697c15331677e6ebf0b61fffffa50600060006000600073aaaf5374fce5edbc8e2a8697c15331677e6ebf0b61fffffa50600160005101600052600060006000600073cbbf5374fce5edbc8e2a8697c15331677e6ebf0b650ffffffffffffa00",
                "nonce" : "0x00",
                "balance" : "0x07e8",
                "storage" : {
                }
            },
            "0xaaaf5374fce5edbc8e2a8697c15331677e6ebf0b" : {
                "code" : "0x",
                "nonce" : "0x00",
                "balance" : "0x1b58",
                "storage" : {
                }
            },
            "0xb94f5374fce5edbc8e2a8697c15331677e6ebf0b" : {
                "code" : "0x",
                "nonce" : "0x00",
                "balance" : "0x1bc17d674eca05dc",
                "storage" : {
                }
            },
            "0x1000000000000000000000000000000000000000" : {
                "code" : "0x6000600060006000346000355af16000555a60015500",
                "nonce" : "0x00",
                "balance" : "0x00",
                "storage" : {
                    "0x00" : "0x01",
                    "0x01" : "0x7fdfeffffffe4848"
                }
            }
        },
        "network" : "Istanbul",
        "sealEngine" : "NoProof",
        "lastblockhash" : "0x032f1fe7f9a5b7d822a0233c6585e3e542bd37f9ca4efc782dcc73c22ed94b4d",
        "genesisRLP" : "0xf901fdf901f8a00000000000000000000000000000000000000000000000000000000000000000a01dcc4de8dec75d7aab85b567b6ccd41ad312451b948a7413f0a142fd40d4934794b94f5374fce5edbc8e2a8697c15331677e6ebf0ba019b591bba9502a7aea93619131828d5a7e73b0e5cfb82bf78ddd36a913497d7fa056e81f171bcc55a6ff8345e692c0f86e5b48e01b996cadc001622fb5e363b421a056e81f171bcc55a6ff8345e692c0f86e5b48e01b996cadc001622fb5e363b421b90100000000000000000000000000000000000000000000000000000000000000000000000000000000000000000000000000000000000000000000000000000000000000000000000000000000000000000000000000000000000000000000000000000000000000000000000000000000000000000000000000000000000000000000000000000000000000000000000000000000000000000000000000000000000000000000000000000000000000000000000000000000000000000000000000000000000000000000000000000000000000000000000000000000000000000000000000000000000000000000000000000000000000000000000000000000008302000080887fffffffffffffff808000a00000000000000000000000000000000000000000000000000000000000000000880000000000000000c0c0",
        "blocks" : [
            {
                "rlp" : "0xf9028df90200a0fd56b38480c7969c8098db11449d2b93b8ec829067f6971ac3eba225f87996f4a01dcc4de8dec75d7aab85b567b6ccd41ad312451b948a7413f0a142fd40d4934794b94f5374fce5edbc8e2a8697c15331677e6ebf0ba0f941403de499808742e34682021846532c3a25e8e4ba428c8bb58f7c9ee1d037a0b2adda8b9f1e8f3680adeec17e28171dc936c95ef6246dd83f2441d01adb8a9ea074a6fca2c978fbbead83699a81255e5b30b9b59ae194c6fa6cf47b16f296fd2db90100000000000000000000000000000000000000000000000000000000000000000000000000000000000000000000000000000000000000000000000000000000000000000000000000000000000000000000000000000000000000000000000000000000000000000000000000000000000000000000000000000000000000000000000000000000000000000000000000000000000000000000000000000000000000000000000000000000000000000000000000000000000000000000000000000000000000000000000000000000000000000000000000000000000000000000000000000000000000000000000000000000000000000000000000000000008302000001887fffffffffffffff861000000205dc8203e800a00000000000000000000000000000000000000000000000000000000000000000880000000000000000f887f8858001887fe00000000000019410000000000000000000000000000000000000000aa0000000000000000000000000bbbf5374fce5edbc8e2a8697c15331677e6ebf0b1ca0afc134df7ab415abd616b40cd52338fe8f6e507eba5afb6761c4f276da8132eaa0669c30406bc9d21ec7e7cfec63b1ffeb85e5fef44fa4ac095f9963e1d2352948c0",
                "blockHeader" : {
                    "bloom" : "0x00000000000000000000000000000000000000000000000000000000000000000000000000000000000000000000000000000000000000000000000000000000000000000000000000000000000000000000000000000000000000000000000000000000000000000000000000000000000000000000000000000000000000000000000000000000000000000000000000000000000000000000000000000000000000000000000000000000000000000000000000000000000000000000000000000000000000000000000000000000000000000000000000000000000000000000000000000000000000000000000000000000000000000000000000000000",
                    "coinbase" : "0xb94f5374fce5edbc8e2a8697c15331677e6ebf0b",
                    "difficulty" : "0x20000",
                    "extraData" : "0x00",
                    "gasLimit" : "0x7fffffffffffffff",
                    "gasUsed" : "0x1000000205dc",
                    "hash" : "0x032f1fe7f9a5b7d822a0233c6585e3e542bd37f9ca4efc782dcc73c22ed94b4d",
                    "mixHash" : "0x0000000000000000000000000000000000000000000000000000000000000000",
                    "nonce" : "0x0000000000000000",
                    "number" : "0x1",
                    "parentHash" : "0xfd56b38480c7969c8098db11449d2b93b8ec829067f6971ac3eba225f87996f4",
                    "receiptTrie" : "0x74a6fca2c978fbbead83699a81255e5b30b9b59ae194c6fa6cf47b16f296fd2d",
                    "stateRoot" : "0xf941403de499808742e34682021846532c3a25e8e4ba428c8bb58f7c9ee1d037",
                    "timestamp" : "0x3e8",
                    "transactionsTrie" : "0xb2adda8b9f1e8f3680adeec17e28171dc936c95ef6246dd83f2441d01adb8a9e",
                    "uncleHash" : "0x1dcc4de8dec75d7aab85b567b6ccd41ad312451b948a7413f0a142fd40d49347"
                },
                "transactions" : [
                    {
                        "data" : "0x000000000000000000000000bbbf5374fce5edbc8e2a8697c15331677e6ebf0b",
                        "gasLimit" : "0x7fe0000000000001",
                        "gasPrice" : "0x01",
                        "nonce" : "0x00",
                        "to" : "0x1000000000000000000000000000000000000000",
                        "value" : "0x0a",
                        "v" : "0x1c",
                        "r" : "0xafc134df7ab415abd616b40cd52338fe8f6e507eba5afb6761c4f276da8132ea",
                        "s" : "0x669c30406bc9d21ec7e7cfec63b1ffeb85e5fef44fa4ac095f9963e1d2352948"
                    }
                ]
            }
        ]
    },
    "static_Call1024PreCalls3_d1g0v0_Istanbul" : {
        "_info" : {
            "comment" : "",
            "filling-rpc-server" : "Geth-1.9.6-unstable-63b18027-20190920",
            "filling-tool-version" : "retesteth-0.0.1+commit.0ae18aef.Linux.g++",
            "lllcversion" : "Version: 0.5.12-develop.2019.9.13+commit.2d601a4f.Linux.g++",
            "source" : "src/GeneralStateTestsFiller/stStaticCall/static_Call1024PreCalls3Filler.json",
            "sourceHash" : "84f4409a5793271d4b52e40a7d0234c5e805937a521b68be8692128a4467ec2c"
        },
        "genesisBlockHeader" : {
            "bloom" : "0x00000000000000000000000000000000000000000000000000000000000000000000000000000000000000000000000000000000000000000000000000000000000000000000000000000000000000000000000000000000000000000000000000000000000000000000000000000000000000000000000000000000000000000000000000000000000000000000000000000000000000000000000000000000000000000000000000000000000000000000000000000000000000000000000000000000000000000000000000000000000000000000000000000000000000000000000000000000000000000000000000000000000000000000000000000000",
            "coinbase" : "0xb94f5374fce5edbc8e2a8697c15331677e6ebf0b",
            "difficulty" : "0x20000",
            "extraData" : "0x00",
            "gasLimit" : "0x7fffffffffffffff",
            "gasUsed" : "0x0",
            "hash" : "0xfd56b38480c7969c8098db11449d2b93b8ec829067f6971ac3eba225f87996f4",
            "mixHash" : "0x0000000000000000000000000000000000000000000000000000000000000000",
            "nonce" : "0x0000000000000000",
            "number" : "0x0",
            "parentHash" : "0x0000000000000000000000000000000000000000000000000000000000000000",
            "receiptTrie" : "0x56e81f171bcc55a6ff8345e692c0f86e5b48e01b996cadc001622fb5e363b421",
            "stateRoot" : "0x19b591bba9502a7aea93619131828d5a7e73b0e5cfb82bf78ddd36a913497d7f",
            "timestamp" : "0x0",
            "transactionsTrie" : "0x56e81f171bcc55a6ff8345e692c0f86e5b48e01b996cadc001622fb5e363b421",
            "uncleHash" : "0x1dcc4de8dec75d7aab85b567b6ccd41ad312451b948a7413f0a142fd40d49347"
        },
        "pre" : {
            "0x1000000000000000000000000000000000000000" : {
                "balance" : "0x00",
                "code" : "0x6000600060006000346000355af16000555a60015500",
                "nonce" : "0x00",
                "storage" : {
                }
            },
            "0xa94f5374fce5edbc8e2a8697c15331677e6ebf0b" : {
                "balance" : "0x0fffffffffffffffffffffffffffffffff",
                "code" : "0x",
                "nonce" : "0x00",
                "storage" : {
                }
            },
            "0xaaaf5374fce5edbc8e2a8697c15331677e6ebf0b" : {
                "balance" : "0x1b58",
                "code" : "0x",
                "nonce" : "0x00",
                "storage" : {
                }
            },
            "0xbbbf5374fce5edbc8e2a8697c15331677e6ebf0b" : {
                "balance" : "0x07e8",
                "code" : "0x600060006000600073aaaf5374fce5edbc8e2a8697c15331677e6ebf0b61fffffa600255600060006000600073aaaf5374fce5edbc8e2a8697c15331677e6ebf0b61fffffa600355600160005401600055600060006000600073bbbf5374fce5edbc8e2a8697c15331677e6ebf0b650ffffffffffffa60015500",
                "nonce" : "0x00",
                "storage" : {
                }
            },
            "0xcbbf5374fce5edbc8e2a8697c15331677e6ebf0b" : {
                "balance" : "0x07e8",
                "code" : "0x600060006000600073aaaf5374fce5edbc8e2a8697c15331677e6ebf0b61fffffa50600060006000600073aaaf5374fce5edbc8e2a8697c15331677e6ebf0b61fffffa50600160005101600052600060006000600073cbbf5374fce5edbc8e2a8697c15331677e6ebf0b650ffffffffffffa00",
                "nonce" : "0x00",
                "storage" : {
                }
            }
        },
        "postState" : {
            "0xa94f5374fce5edbc8e2a8697c15331677e6ebf0b" : {
                "code" : "0x",
                "nonce" : "0x01",
                "balance" : "0x0fffffffffffffffffffffffffffdce737",
                "storage" : {
                }
            },
            "0xbbbf5374fce5edbc8e2a8697c15331677e6ebf0b" : {
                "code" : "0x600060006000600073aaaf5374fce5edbc8e2a8697c15331677e6ebf0b61fffffa600255600060006000600073aaaf5374fce5edbc8e2a8697c15331677e6ebf0b61fffffa600355600160005401600055600060006000600073bbbf5374fce5edbc8e2a8697c15331677e6ebf0b650ffffffffffffa60015500",
                "nonce" : "0x00",
                "balance" : "0x07e8",
                "storage" : {
                }
            },
            "0xcbbf5374fce5edbc8e2a8697c15331677e6ebf0b" : {
                "code" : "0x600060006000600073aaaf5374fce5edbc8e2a8697c15331677e6ebf0b61fffffa50600060006000600073aaaf5374fce5edbc8e2a8697c15331677e6ebf0b61fffffa50600160005101600052600060006000600073cbbf5374fce5edbc8e2a8697c15331677e6ebf0b650ffffffffffffa00",
                "nonce" : "0x00",
                "balance" : "0x07f2",
                "storage" : {
                }
            },
            "0xaaaf5374fce5edbc8e2a8697c15331677e6ebf0b" : {
                "code" : "0x",
                "nonce" : "0x00",
                "balance" : "0x1b58",
                "storage" : {
                }
            },
            "0xb94f5374fce5edbc8e2a8697c15331677e6ebf0b" : {
                "code" : "0x",
                "nonce" : "0x00",
                "balance" : "0x1bc16d674eeb18be",
                "storage" : {
                }
            },
            "0x1000000000000000000000000000000000000000" : {
                "code" : "0x6000600060006000346000355af16000555a60015500",
                "nonce" : "0x00",
                "balance" : "0x00",
                "storage" : {
                    "0x00" : "0x01",
                    "0x01" : "0x7fdfffffffdd3566"
                }
            }
        },
        "network" : "Istanbul",
        "sealEngine" : "NoProof",
        "lastblockhash" : "0x50bd418de52cc91b978067b87b1f8534939b2c480333589979c1539f564b9aee",
        "genesisRLP" : "0xf901fdf901f8a00000000000000000000000000000000000000000000000000000000000000000a01dcc4de8dec75d7aab85b567b6ccd41ad312451b948a7413f0a142fd40d4934794b94f5374fce5edbc8e2a8697c15331677e6ebf0ba019b591bba9502a7aea93619131828d5a7e73b0e5cfb82bf78ddd36a913497d7fa056e81f171bcc55a6ff8345e692c0f86e5b48e01b996cadc001622fb5e363b421a056e81f171bcc55a6ff8345e692c0f86e5b48e01b996cadc001622fb5e363b421b90100000000000000000000000000000000000000000000000000000000000000000000000000000000000000000000000000000000000000000000000000000000000000000000000000000000000000000000000000000000000000000000000000000000000000000000000000000000000000000000000000000000000000000000000000000000000000000000000000000000000000000000000000000000000000000000000000000000000000000000000000000000000000000000000000000000000000000000000000000000000000000000000000000000000000000000000000000000000000000000000000000000000000000000000000000000008302000080887fffffffffffffff808000a00000000000000000000000000000000000000000000000000000000000000000880000000000000000c0c0",
        "blocks" : [
            {
                "rlp" : "0xf9028af901fda0fd56b38480c7969c8098db11449d2b93b8ec829067f6971ac3eba225f87996f4a01dcc4de8dec75d7aab85b567b6ccd41ad312451b948a7413f0a142fd40d4934794b94f5374fce5edbc8e2a8697c15331677e6ebf0ba01ab56baab56aff548239f3b1937c2b2d48932f4e7a590b2cfc526a5f4b6734eca054a5cf52a84bf9aa864fd7c03b04961c87cd65a9d09e63a5359c47768759190da015f32d850a52e535481a823e1e83e91d65e007c2970d8ab9b4944fce24a7d0f9b90100000000000000000000000000000000000000000000000000000000000000000000000000000000000000000000000000000000000000000000000000000000000000000000000000000000000000000000000000000000000000000000000000000000000000000000000000000000000000000000000000000000000000000000000000000000000000000000000000000000000000000000000000000000000000000000000000000000000000000000000000000000000000000000000000000000000000000000000000000000000000000000000000000000000000000000000000000000000000000000000000000000000000000000000000000000008302000001887fffffffffffffff832318be8203e800a00000000000000000000000000000000000000000000000000000000000000000880000000000000000f887f8858001887fe00000000000019410000000000000000000000000000000000000000aa0000000000000000000000000cbbf5374fce5edbc8e2a8697c15331677e6ebf0b1ba07b33039ae7eda8c4b18e7db5bfb4ec2cade926d35d2bbbff2033bdb693979043a01762ceec8919e5b96299eb56e8793050c558eebd661498d13e770534bf2a1494c0",
                "blockHeader" : {
                    "bloom" : "0x00000000000000000000000000000000000000000000000000000000000000000000000000000000000000000000000000000000000000000000000000000000000000000000000000000000000000000000000000000000000000000000000000000000000000000000000000000000000000000000000000000000000000000000000000000000000000000000000000000000000000000000000000000000000000000000000000000000000000000000000000000000000000000000000000000000000000000000000000000000000000000000000000000000000000000000000000000000000000000000000000000000000000000000000000000000",
                    "coinbase" : "0xb94f5374fce5edbc8e2a8697c15331677e6ebf0b",
                    "difficulty" : "0x20000",
                    "extraData" : "0x00",
                    "gasLimit" : "0x7fffffffffffffff",
                    "gasUsed" : "0x2318be",
                    "hash" : "0x50bd418de52cc91b978067b87b1f8534939b2c480333589979c1539f564b9aee",
                    "mixHash" : "0x0000000000000000000000000000000000000000000000000000000000000000",
                    "nonce" : "0x0000000000000000",
                    "number" : "0x1",
                    "parentHash" : "0xfd56b38480c7969c8098db11449d2b93b8ec829067f6971ac3eba225f87996f4",
                    "receiptTrie" : "0x15f32d850a52e535481a823e1e83e91d65e007c2970d8ab9b4944fce24a7d0f9",
                    "stateRoot" : "0x1ab56baab56aff548239f3b1937c2b2d48932f4e7a590b2cfc526a5f4b6734ec",
                    "timestamp" : "0x3e8",
                    "transactionsTrie" : "0x54a5cf52a84bf9aa864fd7c03b04961c87cd65a9d09e63a5359c47768759190d",
                    "uncleHash" : "0x1dcc4de8dec75d7aab85b567b6ccd41ad312451b948a7413f0a142fd40d49347"
                },
                "transactions" : [
                    {
                        "data" : "0x000000000000000000000000cbbf5374fce5edbc8e2a8697c15331677e6ebf0b",
                        "gasLimit" : "0x7fe0000000000001",
                        "gasPrice" : "0x01",
                        "nonce" : "0x00",
                        "to" : "0x1000000000000000000000000000000000000000",
                        "value" : "0x0a",
                        "v" : "0x1b",
                        "r" : "0x7b33039ae7eda8c4b18e7db5bfb4ec2cade926d35d2bbbff2033bdb693979043",
                        "s" : "0x1762ceec8919e5b96299eb56e8793050c558eebd661498d13e770534bf2a1494"
                    }
                ]
            }
        ]
    }
}