{
    "static_callcallcall_000_OOGMBefore_d0g0v0_Istanbul" : {
        "_info" : {
            "comment" : "",
            "filling-rpc-server" : "Geth-1.9.6-unstable-63b18027-20190920",
            "filling-tool-version" : "retesteth-0.0.1+commit.0ae18aef.Linux.g++",
            "lllcversion" : "Version: 0.5.12-develop.2019.9.13+commit.2d601a4f.Linux.g++",
            "source" : "src/GeneralStateTestsFiller/stStaticCall/static_callcallcall_000_OOGMBeforeFiller.json",
            "sourceHash" : "669ee20ad121655c619663226b1d70bf872fdd326f80982694821ca308ff2d24"
        },
        "genesisBlockHeader" : {
            "bloom" : "0x00000000000000000000000000000000000000000000000000000000000000000000000000000000000000000000000000000000000000000000000000000000000000000000000000000000000000000000000000000000000000000000000000000000000000000000000000000000000000000000000000000000000000000000000000000000000000000000000000000000000000000000000000000000000000000000000000000000000000000000000000000000000000000000000000000000000000000000000000000000000000000000000000000000000000000000000000000000000000000000000000000000000000000000000000000000",
            "coinbase" : "0x2adc25665018aa1fe0e6bc666dac8fc2697ff9ba",
            "difficulty" : "0x20000",
            "extraData" : "0x00",
            "gasLimit" : "0x1c9c380",
            "gasUsed" : "0x0",
            "hash" : "0x8c7306d8a118341bba9a03fed554b787f602b0cf205654167e6d910b421d9d58",
            "mixHash" : "0x0000000000000000000000000000000000000000000000000000000000000000",
            "nonce" : "0x0000000000000000",
            "number" : "0x0",
            "parentHash" : "0x0000000000000000000000000000000000000000000000000000000000000000",
            "receiptTrie" : "0x56e81f171bcc55a6ff8345e692c0f86e5b48e01b996cadc001622fb5e363b421",
            "stateRoot" : "0x3a02b684512355a458cf5ee7f73d1d53de893eaa2c2dc964fb051496f60f79c8",
            "timestamp" : "0x0",
            "transactionsTrie" : "0x56e81f171bcc55a6ff8345e692c0f86e5b48e01b996cadc001622fb5e363b421",
            "uncleHash" : "0x1dcc4de8dec75d7aab85b567b6ccd41ad312451b948a7413f0a142fd40d49347"
        },
        "pre" : {
            "0x1000000000000000000000000000000000000000" : {
                "balance" : "0x0de0b6b3a7640000",
                "code" : "0x6040600060406000731000000000000000000000000000000000000001620249f0fa6000555a60015500",
                "nonce" : "0x00",
                "storage" : {
                }
            },
            "0x1000000000000000000000000000000000000001" : {
                "balance" : "0x00",
                "code" : "0x6040600060406000731000000000000000000000000000000000000002619c90fa00",
                "nonce" : "0x00",
                "storage" : {
                }
            },
            "0x1000000000000000000000000000000000000002" : {
                "balance" : "0x00",
                "code" : "0x5b61c3506080511015601c5760013b506001608051016080526000565b6040600060406000731000000000000000000000000000000000000003614e34fa00",
                "nonce" : "0x00",
                "storage" : {
                }
            },
            "0x1000000000000000000000000000000000000003" : {
                "balance" : "0x00",
                "code" : "0x600160035200",
                "nonce" : "0x00",
                "storage" : {
                }
            },
            "0xa94f5374fce5edbc8e2a8697c15331677e6ebf0b" : {
                "balance" : "0x0de0b6b3a7640000",
                "code" : "0x",
                "nonce" : "0x00",
                "storage" : {
                }
            }
        },
        "postState" : {
            "0xa94f5374fce5edbc8e2a8697c15331677e6ebf0b" : {
                "code" : "0x",
                "nonce" : "0x01",
                "balance" : "0x0de0b6b3a7626f78",
                "storage" : {
                }
            },
            "0x1000000000000000000000000000000000000001" : {
                "code" : "0x6040600060406000731000000000000000000000000000000000000002619c90fa00",
                "nonce" : "0x00",
                "balance" : "0x00",
                "storage" : {
                }
            },
            "0x2adc25665018aa1fe0e6bc666dac8fc2697ff9ba" : {
                "code" : "0x",
                "nonce" : "0x00",
                "balance" : "0x1bc16d674ec99088",
                "storage" : {
                }
            },
            "0x1000000000000000000000000000000000000002" : {
                "code" : "0x5b61c3506080511015601c5760013b506001608051016080526000565b6040600060406000731000000000000000000000000000000000000003614e34fa00",
                "nonce" : "0x00",
                "balance" : "0x00",
                "storage" : {
                }
            },
            "0x1000000000000000000000000000000000000003" : {
                "code" : "0x600160035200",
                "nonce" : "0x00",
                "balance" : "0x00",
                "storage" : {
                }
            },
            "0x1000000000000000000000000000000000000000" : {
                "code" : "0x6040600060406000731000000000000000000000000000000000000001620249f0fa6000555a60015500",
                "nonce" : "0x00",
                "balance" : "0x0de0b6b3a7640000",
                "storage" : {
                    "0x00" : "0x01",
                    "0x01" : "0x015d7b"
                }
            }
        },
        "network" : "Istanbul",
        "sealEngine" : "NoProof",
        "lastblockhash" : "0x3c1e15f862a0332196cc0320d83458b0862009f5572834dee6c534a16e6295ea",
        "genesisRLP" : "0xf901f9f901f4a00000000000000000000000000000000000000000000000000000000000000000a01dcc4de8dec75d7aab85b567b6ccd41ad312451b948a7413f0a142fd40d49347942adc25665018aa1fe0e6bc666dac8fc2697ff9baa03a02b684512355a458cf5ee7f73d1d53de893eaa2c2dc964fb051496f60f79c8a056e81f171bcc55a6ff8345e692c0f86e5b48e01b996cadc001622fb5e363b421a056e81f171bcc55a6ff8345e692c0f86e5b48e01b996cadc001622fb5e363b421b901000000000000000000000000000000000000000000000000000000000000000000000000000000000000000000000000000000000000000000000000000000000000000000000000000000000000000000000000000000000000000000000000000000000000000000000000000000000000000000000000000000000000000000000000000000000000000000000000000000000000000000000000000000000000000000000000000000000000000000000000000000000000000000000000000000000000000000000000000000000000000000000000000000000000000000000000000000000000000000000000000000000000000000000000000000000083020000808401c9c380808000a00000000000000000000000000000000000000000000000000000000000000000880000000000000000c0c0",
        "blocks" : [
            {
                "rlp" : "0xf90261f901f9a08c7306d8a118341bba9a03fed554b787f602b0cf205654167e6d910b421d9d58a01dcc4de8dec75d7aab85b567b6ccd41ad312451b948a7413f0a142fd40d49347942adc25665018aa1fe0e6bc666dac8fc2697ff9baa081bbcd647de1f97b8d93b1b6c17ecb0fe74f7357316253d30594ddccccf1429ba0a9196e82a3a9d85d7bcc420dbac78c908768ad2d33a3655ba2e493e2d6dc055ea0aa66528784ff5ed57f8824b9acc48a1343561d7b145814cffc46398b8e48a30db901000000000000000000000000000000000000000000000000000000000000000000000000000000000000000000000000000000000000000000000000000000000000000000000000000000000000000000000000000000000000000000000000000000000000000000000000000000000000000000000000000000000000000000000000000000000000000000000000000000000000000000000000000000000000000000000000000000000000000000000000000000000000000000000000000000000000000000000000000000000000000000000000000000000000000000000000000000000000000000000000000000000000000000000000000000000083020000018401ca35ef830190888203e800a00000000000000000000000000000000000000000000000000000000000000000880000000000000000f862f860800183029fe094100000000000000000000000000000000000000080801ba0baf8a8f59325064cb79441e4e78350cedcb7f76317c4f8d9ed321025db52916ba04cc988db9cec57eda456bb242201bb41c723f2427ff750123f11af6b759547e2c0",
                "blockHeader" : {
                    "bloom" : "0x00000000000000000000000000000000000000000000000000000000000000000000000000000000000000000000000000000000000000000000000000000000000000000000000000000000000000000000000000000000000000000000000000000000000000000000000000000000000000000000000000000000000000000000000000000000000000000000000000000000000000000000000000000000000000000000000000000000000000000000000000000000000000000000000000000000000000000000000000000000000000000000000000000000000000000000000000000000000000000000000000000000000000000000000000000000",
                    "coinbase" : "0x2adc25665018aa1fe0e6bc666dac8fc2697ff9ba",
                    "difficulty" : "0x20000",
                    "extraData" : "0x00",
                    "gasLimit" : "0x1ca35ef",
                    "gasUsed" : "0x19088",
                    "hash" : "0x3c1e15f862a0332196cc0320d83458b0862009f5572834dee6c534a16e6295ea",
                    "mixHash" : "0x0000000000000000000000000000000000000000000000000000000000000000",
                    "nonce" : "0x0000000000000000",
                    "number" : "0x1",
                    "parentHash" : "0x8c7306d8a118341bba9a03fed554b787f602b0cf205654167e6d910b421d9d58",
                    "receiptTrie" : "0xaa66528784ff5ed57f8824b9acc48a1343561d7b145814cffc46398b8e48a30d",
                    "stateRoot" : "0x81bbcd647de1f97b8d93b1b6c17ecb0fe74f7357316253d30594ddccccf1429b",
                    "timestamp" : "0x3e8",
                    "transactionsTrie" : "0xa9196e82a3a9d85d7bcc420dbac78c908768ad2d33a3655ba2e493e2d6dc055e",
                    "uncleHash" : "0x1dcc4de8dec75d7aab85b567b6ccd41ad312451b948a7413f0a142fd40d49347"
                },
                "transactions" : [
                    {
                        "data" : "0x",
                        "gasLimit" : "0x029fe0",
                        "gasPrice" : "0x01",
                        "nonce" : "0x00",
                        "to" : "0x1000000000000000000000000000000000000000",
                        "value" : "0x00",
                        "v" : "0x1b",
                        "r" : "0xbaf8a8f59325064cb79441e4e78350cedcb7f76317c4f8d9ed321025db52916b",
                        "s" : "0x4cc988db9cec57eda456bb242201bb41c723f2427ff750123f11af6b759547e2"
                    }
                ]
            }
        ]
    }
}