{
    "static_Call1MB1024Calldepth_d0g0v0_Istanbul" : {
        "_info" : {
            "comment" : "",
            "filling-rpc-server" : "Geth-1.9.6-unstable-63b18027-20190920",
            "filling-tool-version" : "retesteth-0.0.1+commit.0ae18aef.Linux.g++",
            "lllcversion" : "Version: 0.5.12-develop.2019.9.13+commit.2d601a4f.Linux.g++",
            "source" : "src/GeneralStateTestsFiller/stStaticCall/static_Call1MB1024CalldepthFiller.json",
            "sourceHash" : "6ff03ddd7594e4731cba0ebfe999c3a1ab22b05f370daa60c27ad78b26f5f262"
        },
        "genesisBlockHeader" : {
            "bloom" : "0x00000000000000000000000000000000000000000000000000000000000000000000000000000000000000000000000000000000000000000000000000000000000000000000000000000000000000000000000000000000000000000000000000000000000000000000000000000000000000000000000000000000000000000000000000000000000000000000000000000000000000000000000000000000000000000000000000000000000000000000000000000000000000000000000000000000000000000000000000000000000000000000000000000000000000000000000000000000000000000000000000000000000000000000000000000000",
            "coinbase" : "0xb94f5374fce5edbc8e2a8697c15331677e6ebf0b",
            "difficulty" : "0x20000",
            "extraData" : "0x00",
            "gasLimit" : "0xcfcd253d00",
            "gasUsed" : "0x0",
            "hash" : "0xae872c3c7ad993055621ca3a4172a6a1592ed2aa00d5eecb2f4b61634307d8e6",
            "mixHash" : "0x0000000000000000000000000000000000000000000000000000000000000000",
            "nonce" : "0x0000000000000000",
            "number" : "0x0",
            "parentHash" : "0x0000000000000000000000000000000000000000000000000000000000000000",
            "receiptTrie" : "0x56e81f171bcc55a6ff8345e692c0f86e5b48e01b996cadc001622fb5e363b421",
            "stateRoot" : "0x124d9a3633f64d9eaa3988d70c63775aa1c8ba900c170e55e89b0a454de68a60",
            "timestamp" : "0x0",
            "transactionsTrie" : "0x56e81f171bcc55a6ff8345e692c0f86e5b48e01b996cadc001622fb5e363b421",
            "uncleHash" : "0x1dcc4de8dec75d7aab85b567b6ccd41ad312451b948a7413f0a142fd40d49347"
        },
        "pre" : {
            "0x1000000000000000000000000000000000000000" : {
                "balance" : "0x0fffffffffffff",
                "code" : "0x600060006000600060006000355af160005500",
                "nonce" : "0x00",
                "storage" : {
                }
            },
            "0xa94f5374fce5edbc8e2a8697c15331677e6ebf0b" : {
                "balance" : "0xffffffffffffffffffffffffffffffff",
                "code" : "0x",
                "nonce" : "0x00",
                "storage" : {
                }
            },
            "0xaaa50000fce5edbc8e2a8697c15331677e6ebf0b" : {
                "balance" : "0x0fffffffffffff",
                "code" : "0x",
                "nonce" : "0x00",
                "storage" : {
                }
            },
            "0xbbbf5374fce5edbc8e2a8697c15331677e6ebf0b" : {
                "balance" : "0x0fffffffffffff",
                "code" : "0x60016000540160005561040060005410601b5760016002556045565b60006000620f4240600073bbbf5374fce5edbc8e2a8697c15331677e6ebf0b620f55c85a03fa6001555b00",
                "nonce" : "0x00",
                "storage" : {
                }
            },
            "0xcbbf5374fce5edbc8e2a8697c15331677e6ebf0b" : {
                "balance" : "0x0fffffffffffff",
                "code" : "0x60016000510160005261040060005110601b5760016040526045565b60006000620f4240600073cbbf5374fce5edbc8e2a8697c15331677e6ebf0b620f55c85a03fa6020525b00",
                "nonce" : "0x00",
                "storage" : {
                }
            }
        },
        "postState" : {
            "0xa94f5374fce5edbc8e2a8697c15331677e6ebf0b" : {
                "code" : "0x",
                "nonce" : "0x01",
                "balance" : "0xffffffffffffffffffffff38e5d710b2",
                "storage" : {
                }
            },
            "0xbbbf5374fce5edbc8e2a8697c15331677e6ebf0b" : {
                "code" : "0x60016000540160005561040060005410601b5760016002556045565b60006000620f4240600073bbbf5374fce5edbc8e2a8697c15331677e6ebf0b620f55c85a03fa6001555b00",
                "nonce" : "0x00",
                "balance" : "0x0fffffffffffff",
                "storage" : {
                    "0x00" : "0x01"
                }
            },
            "0xaaa50000fce5edbc8e2a8697c15331677e6ebf0b" : {
                "code" : "0x",
                "nonce" : "0x00",
                "balance" : "0x0fffffffffffff",
                "storage" : {
                }
            },
            "0xcbbf5374fce5edbc8e2a8697c15331677e6ebf0b" : {
                "code" : "0x60016000510160005261040060005110601b5760016040526045565b60006000620f4240600073cbbf5374fce5edbc8e2a8697c15331677e6ebf0b620f55c85a03fa6020525b00",
                "nonce" : "0x00",
                "balance" : "0x0fffffffffffff",
                "storage" : {
                }
            },
            "0xb94f5374fce5edbc8e2a8697c15331677e6ebf0b" : {
                "code" : "0x",
                "nonce" : "0x00",
                "balance" : "0x1bc16e2e68f0ef43",
                "storage" : {
                }
            },
            "0x1000000000000000000000000000000000000000" : {
                "code" : "0x600060006000600060006000355af160005500",
                "nonce" : "0x00",
                "balance" : "0x10000000000009",
                "storage" : {
                    "0x00" : "0x01"
                }
            }
        },
        "network" : "Istanbul",
        "sealEngine" : "NoProof",
        "lastblockhash" : "0x917d701127a35294308bd380d297d871f4e226a4471fa42fb7008f6d475b9914",
        "genesisRLP" : "0xf901faf901f5a00000000000000000000000000000000000000000000000000000000000000000a01dcc4de8dec75d7aab85b567b6ccd41ad312451b948a7413f0a142fd40d4934794b94f5374fce5edbc8e2a8697c15331677e6ebf0ba0124d9a3633f64d9eaa3988d70c63775aa1c8ba900c170e55e89b0a454de68a60a056e81f171bcc55a6ff8345e692c0f86e5b48e01b996cadc001622fb5e363b421a056e81f171bcc55a6ff8345e692c0f86e5b48e01b996cadc001622fb5e363b421b9010000000000000000000000000000000000000000000000000000000000000000000000000000000000000000000000000000000000000000000000000000000000000000000000000000000000000000000000000000000000000000000000000000000000000000000000000000000000000000000000000000000000000000000000000000000000000000000000000000000000000000000000000000000000000000000000000000000000000000000000000000000000000000000000000000000000000000000000000000000000000000000000000000000000000000000000000000000000000000000000000000000000000000000000000000000000830200008085cfcd253d00808000a00000000000000000000000000000000000000000000000000000000000000000880000000000000000c0c0",
        "blocks" : [
            {
                "rlp" : "0xf90286f901fca0ae872c3c7ad993055621ca3a4172a6a1592ed2aa00d5eecb2f4b61634307d8e6a01dcc4de8dec75d7aab85b567b6ccd41ad312451b948a7413f0a142fd40d4934794b94f5374fce5edbc8e2a8697c15331677e6ebf0ba00d7f05774ecc082d078c548f5cf65353a289c6c1b2a3ad435d4b769aee7a7aa9a07374d44e6a77b10518f2a0fe7ecdd7e506bc2d9b9f3812c189a70aa368e9bd58a08667ab1421cf7df72918dcef355108895bddb36f316564a4bfe8501ffcd6c718b9010000000000000000000000000000000000000000000000000000000000000000000000000000000000000000000000000000000000000000000000000000000000000000000000000000000000000000000000000000000000000000000000000000000000000000000000000000000000000000000000000000000000000000000000000000000000000000000000000000000000000000000000000000000000000000000000000000000000000000000000000000000000000000000000000000000000000000000000000000000000000000000000000000000000000000000000000000000000000000000000000000000000000000000000000000000000830200000185d00118864e85c71a28ef438203e800a00000000000000000000000000000000000000000000000000000000000000000880000000000000000f884f882800185cd791959009410000000000000000000000000000000000000000aa0000000000000000000000000bbbf5374fce5edbc8e2a8697c15331677e6ebf0b1ba0f6c3e0377f13b53a7b2aae26b9f86962982297900811b5aa3b09aad4450eaaada047f4fe98bca5ac5e969ba0525c27979e76df11b3d9a8b07fe8cd81ce8681d822c0",
                "blockHeader" : {
                    "bloom" : "0x00000000000000000000000000000000000000000000000000000000000000000000000000000000000000000000000000000000000000000000000000000000000000000000000000000000000000000000000000000000000000000000000000000000000000000000000000000000000000000000000000000000000000000000000000000000000000000000000000000000000000000000000000000000000000000000000000000000000000000000000000000000000000000000000000000000000000000000000000000000000000000000000000000000000000000000000000000000000000000000000000000000000000000000000000000000",
                    "coinbase" : "0xb94f5374fce5edbc8e2a8697c15331677e6ebf0b",
                    "difficulty" : "0x20000",
                    "extraData" : "0x00",
                    "gasLimit" : "0xd00118864e",
                    "gasUsed" : "0xc71a28ef43",
                    "hash" : "0x917d701127a35294308bd380d297d871f4e226a4471fa42fb7008f6d475b9914",
                    "mixHash" : "0x0000000000000000000000000000000000000000000000000000000000000000",
                    "nonce" : "0x0000000000000000",
                    "number" : "0x1",
                    "parentHash" : "0xae872c3c7ad993055621ca3a4172a6a1592ed2aa00d5eecb2f4b61634307d8e6",
                    "receiptTrie" : "0x8667ab1421cf7df72918dcef355108895bddb36f316564a4bfe8501ffcd6c718",
                    "stateRoot" : "0x0d7f05774ecc082d078c548f5cf65353a289c6c1b2a3ad435d4b769aee7a7aa9",
                    "timestamp" : "0x3e8",
                    "transactionsTrie" : "0x7374d44e6a77b10518f2a0fe7ecdd7e506bc2d9b9f3812c189a70aa368e9bd58",
                    "uncleHash" : "0x1dcc4de8dec75d7aab85b567b6ccd41ad312451b948a7413f0a142fd40d49347"
                },
                "transactions" : [
                    {
                        "data" : "0x000000000000000000000000bbbf5374fce5edbc8e2a8697c15331677e6ebf0b",
                        "gasLimit" : "0xcd79195900",
                        "gasPrice" : "0x01",
                        "nonce" : "0x00",
                        "to" : "0x1000000000000000000000000000000000000000",
                        "value" : "0x0a",
                        "v" : "0x1b",
                        "r" : "0xf6c3e0377f13b53a7b2aae26b9f86962982297900811b5aa3b09aad4450eaaad",
                        "s" : "0x47f4fe98bca5ac5e969ba0525c27979e76df11b3d9a8b07fe8cd81ce8681d822"
                    }
                ]
            }
        ]
    },
    "static_Call1MB1024Calldepth_d1g0v0_Istanbul" : {
        "_info" : {
            "comment" : "",
            "filling-rpc-server" : "Geth-1.9.6-unstable-63b18027-20190920",
            "filling-tool-version" : "retesteth-0.0.1+commit.0ae18aef.Linux.g++",
            "lllcversion" : "Version: 0.5.12-develop.2019.9.13+commit.2d601a4f.Linux.g++",
            "source" : "src/GeneralStateTestsFiller/stStaticCall/static_Call1MB1024CalldepthFiller.json",
            "sourceHash" : "6ff03ddd7594e4731cba0ebfe999c3a1ab22b05f370daa60c27ad78b26f5f262"
        },
        "genesisBlockHeader" : {
            "bloom" : "0x00000000000000000000000000000000000000000000000000000000000000000000000000000000000000000000000000000000000000000000000000000000000000000000000000000000000000000000000000000000000000000000000000000000000000000000000000000000000000000000000000000000000000000000000000000000000000000000000000000000000000000000000000000000000000000000000000000000000000000000000000000000000000000000000000000000000000000000000000000000000000000000000000000000000000000000000000000000000000000000000000000000000000000000000000000000",
            "coinbase" : "0xb94f5374fce5edbc8e2a8697c15331677e6ebf0b",
            "difficulty" : "0x20000",
            "extraData" : "0x00",
            "gasLimit" : "0xcfcd253d00",
            "gasUsed" : "0x0",
            "hash" : "0xae872c3c7ad993055621ca3a4172a6a1592ed2aa00d5eecb2f4b61634307d8e6",
            "mixHash" : "0x0000000000000000000000000000000000000000000000000000000000000000",
            "nonce" : "0x0000000000000000",
            "number" : "0x0",
            "parentHash" : "0x0000000000000000000000000000000000000000000000000000000000000000",
            "receiptTrie" : "0x56e81f171bcc55a6ff8345e692c0f86e5b48e01b996cadc001622fb5e363b421",
            "stateRoot" : "0x124d9a3633f64d9eaa3988d70c63775aa1c8ba900c170e55e89b0a454de68a60",
            "timestamp" : "0x0",
            "transactionsTrie" : "0x56e81f171bcc55a6ff8345e692c0f86e5b48e01b996cadc001622fb5e363b421",
            "uncleHash" : "0x1dcc4de8dec75d7aab85b567b6ccd41ad312451b948a7413f0a142fd40d49347"
        },
        "pre" : {
            "0x1000000000000000000000000000000000000000" : {
                "balance" : "0x0fffffffffffff",
                "code" : "0x600060006000600060006000355af160005500",
                "nonce" : "0x00",
                "storage" : {
                }
            },
            "0xa94f5374fce5edbc8e2a8697c15331677e6ebf0b" : {
                "balance" : "0xffffffffffffffffffffffffffffffff",
                "code" : "0x",
                "nonce" : "0x00",
                "storage" : {
                }
            },
            "0xaaa50000fce5edbc8e2a8697c15331677e6ebf0b" : {
                "balance" : "0x0fffffffffffff",
                "code" : "0x",
                "nonce" : "0x00",
                "storage" : {
                }
            },
            "0xbbbf5374fce5edbc8e2a8697c15331677e6ebf0b" : {
                "balance" : "0x0fffffffffffff",
                "code" : "0x60016000540160005561040060005410601b5760016002556045565b60006000620f4240600073bbbf5374fce5edbc8e2a8697c15331677e6ebf0b620f55c85a03fa6001555b00",
                "nonce" : "0x00",
                "storage" : {
                }
            },
            "0xcbbf5374fce5edbc8e2a8697c15331677e6ebf0b" : {
                "balance" : "0x0fffffffffffff",
                "code" : "0x60016000510160005261040060005110601b5760016040526045565b60006000620f4240600073cbbf5374fce5edbc8e2a8697c15331677e6ebf0b620f55c85a03fa6020525b00",
                "nonce" : "0x00",
                "storage" : {
                }
            }
        },
        "postState" : {
            "0xa94f5374fce5edbc8e2a8697c15331677e6ebf0b" : {
                "code" : "0x",
                "nonce" : "0x01",
                "balance" : "0xffffffffffffffffffffffffbd097159",
                "storage" : {
                }
            },
            "0xbbbf5374fce5edbc8e2a8697c15331677e6ebf0b" : {
                "code" : "0x60016000540160005561040060005410601b5760016002556045565b60006000620f4240600073bbbf5374fce5edbc8e2a8697c15331677e6ebf0b620f55c85a03fa6001555b00",
                "nonce" : "0x00",
                "balance" : "0x0fffffffffffff",
                "storage" : {
                }
            },
            "0xaaa50000fce5edbc8e2a8697c15331677e6ebf0b" : {
                "code" : "0x",
                "nonce" : "0x00",
                "balance" : "0x0fffffffffffff",
                "storage" : {
                }
            },
            "0xcbbf5374fce5edbc8e2a8697c15331677e6ebf0b" : {
                "code" : "0x60016000510160005261040060005110601b5760016040526045565b60006000620f4240600073cbbf5374fce5edbc8e2a8697c15331677e6ebf0b620f55c85a03fa6020525b00",
                "nonce" : "0x00",
                "balance" : "0x0fffffffffffff",
                "storage" : {
                }
            },
            "0xb94f5374fce5edbc8e2a8697c15331677e6ebf0b" : {
                "code" : "0x",
                "nonce" : "0x00",
                "balance" : "0x1bc16d6791be8e9c",
                "storage" : {
                }
            },
            "0x1000000000000000000000000000000000000000" : {
                "code" : "0x600060006000600060006000355af160005500",
                "nonce" : "0x00",
                "balance" : "0x10000000000009",
                "storage" : {
                    "0x00" : "0x01"
                }
            }
        },
        "network" : "Istanbul",
        "sealEngine" : "NoProof",
        "lastblockhash" : "0x470dcd1da0bb41b1ce38aa2e0f4d8f19832a4792dec04e48afd73a62d192a22f",
        "genesisRLP" : "0xf901faf901f5a00000000000000000000000000000000000000000000000000000000000000000a01dcc4de8dec75d7aab85b567b6ccd41ad312451b948a7413f0a142fd40d4934794b94f5374fce5edbc8e2a8697c15331677e6ebf0ba0124d9a3633f64d9eaa3988d70c63775aa1c8ba900c170e55e89b0a454de68a60a056e81f171bcc55a6ff8345e692c0f86e5b48e01b996cadc001622fb5e363b421a056e81f171bcc55a6ff8345e692c0f86e5b48e01b996cadc001622fb5e363b421b9010000000000000000000000000000000000000000000000000000000000000000000000000000000000000000000000000000000000000000000000000000000000000000000000000000000000000000000000000000000000000000000000000000000000000000000000000000000000000000000000000000000000000000000000000000000000000000000000000000000000000000000000000000000000000000000000000000000000000000000000000000000000000000000000000000000000000000000000000000000000000000000000000000000000000000000000000000000000000000000000000000000000000000000000000000000000830200008085cfcd253d00808000a00000000000000000000000000000000000000000000000000000000000000000880000000000000000c0c0",
        "blocks" : [
            {
                "rlp" : "0xf90285f901fba0ae872c3c7ad993055621ca3a4172a6a1592ed2aa00d5eecb2f4b61634307d8e6a01dcc4de8dec75d7aab85b567b6ccd41ad312451b948a7413f0a142fd40d4934794b94f5374fce5edbc8e2a8697c15331677e6ebf0ba075790e8632284c579d320778121afd50f46df84667a9e9075bed88263cb6a530a0a03a2d14f2f51abbce4483a67d79a18949e899df3e5a5319c7d5e053ae743002a0bef79a38a4b585c82bd350dc1f6b8391c007736c030e9cfeb6afcf1c3517d088b9010000000000000000000000000000000000000000000000000000000000000000000000000000000000000000000000000000000000000000000000000000000000000000000000000000000000000000000000000000000000000000000000000000000000000000000000000000000000000000000000000000000000000000000000000000000000000000000000000000000000000000000000000000000000000000000000000000000000000000000000000000000000000000000000000000000000000000000000000000000000000000000000000000000000000000000000000000000000000000000000000000000000000000000000000000000000830200000185d00118864e8442f68e9c8203e800a00000000000000000000000000000000000000000000000000000000000000000880000000000000000f884f882800185cd791959009410000000000000000000000000000000000000000aa0000000000000000000000000cbbf5374fce5edbc8e2a8697c15331677e6ebf0b1ba0a144a41fe78737566e2dfa795e5986ed57cc235ad9dedfa782685148614550f5a06ca52241612534435718c4645d29a059437ad34aa824637d9d08b333e1792835c0",
                "blockHeader" : {
                    "bloom" : "0x00000000000000000000000000000000000000000000000000000000000000000000000000000000000000000000000000000000000000000000000000000000000000000000000000000000000000000000000000000000000000000000000000000000000000000000000000000000000000000000000000000000000000000000000000000000000000000000000000000000000000000000000000000000000000000000000000000000000000000000000000000000000000000000000000000000000000000000000000000000000000000000000000000000000000000000000000000000000000000000000000000000000000000000000000000000",
                    "coinbase" : "0xb94f5374fce5edbc8e2a8697c15331677e6ebf0b",
                    "difficulty" : "0x20000",
                    "extraData" : "0x00",
                    "gasLimit" : "0xd00118864e",
                    "gasUsed" : "0x42f68e9c",
                    "hash" : "0x470dcd1da0bb41b1ce38aa2e0f4d8f19832a4792dec04e48afd73a62d192a22f",
                    "mixHash" : "0x0000000000000000000000000000000000000000000000000000000000000000",
                    "nonce" : "0x0000000000000000",
                    "number" : "0x1",
                    "parentHash" : "0xae872c3c7ad993055621ca3a4172a6a1592ed2aa00d5eecb2f4b61634307d8e6",
                    "receiptTrie" : "0xbef79a38a4b585c82bd350dc1f6b8391c007736c030e9cfeb6afcf1c3517d088",
                    "stateRoot" : "0x75790e8632284c579d320778121afd50f46df84667a9e9075bed88263cb6a530",
                    "timestamp" : "0x3e8",
                    "transactionsTrie" : "0xa03a2d14f2f51abbce4483a67d79a18949e899df3e5a5319c7d5e053ae743002",
                    "uncleHash" : "0x1dcc4de8dec75d7aab85b567b6ccd41ad312451b948a7413f0a142fd40d49347"
                },
                "transactions" : [
                    {
                        "data" : "0x000000000000000000000000cbbf5374fce5edbc8e2a8697c15331677e6ebf0b",
                        "gasLimit" : "0xcd79195900",
                        "gasPrice" : "0x01",
                        "nonce" : "0x00",
                        "to" : "0x1000000000000000000000000000000000000000",
                        "value" : "0x0a",
                        "v" : "0x1b",
                        "r" : "0xa144a41fe78737566e2dfa795e5986ed57cc235ad9dedfa782685148614550f5",
                        "s" : "0x6ca52241612534435718c4645d29a059437ad34aa824637d9d08b333e1792835"
                    }
                ]
            }
        ]
    }
}