{
    "static_callcall_00_d0g0v0_Istanbul" : {
        "_info" : {
            "comment" : "",
            "filling-rpc-server" : "Geth-1.9.6-unstable-63b18027-20190920",
            "filling-tool-version" : "retesteth-0.0.1+commit.0ae18aef.Linux.g++",
            "lllcversion" : "Version: 0.5.12-develop.2019.9.13+commit.2d601a4f.Linux.g++",
            "source" : "src/GeneralStateTestsFiller/stStaticCall/static_callcall_00Filler.json",
            "sourceHash" : "ca5d13af6f60e6519e060d91338600cf7c8d96dcae0663f600322549492f520e"
        },
        "genesisBlockHeader" : {
            "bloom" : "0x00000000000000000000000000000000000000000000000000000000000000000000000000000000000000000000000000000000000000000000000000000000000000000000000000000000000000000000000000000000000000000000000000000000000000000000000000000000000000000000000000000000000000000000000000000000000000000000000000000000000000000000000000000000000000000000000000000000000000000000000000000000000000000000000000000000000000000000000000000000000000000000000000000000000000000000000000000000000000000000000000000000000000000000000000000000",
            "coinbase" : "0x2adc25665018aa1fe0e6bc666dac8fc2697ff9ba",
            "difficulty" : "0x20000",
            "extraData" : "0x00",
            "gasLimit" : "0x1c9c380",
            "gasUsed" : "0x0",
            "hash" : "0xe6b8376c813ee76d4b087ebb5e77fca671b07b8be3bf216dfea6759ce886a2cb",
            "mixHash" : "0x0000000000000000000000000000000000000000000000000000000000000000",
            "nonce" : "0x0000000000000000",
            "number" : "0x0",
            "parentHash" : "0x0000000000000000000000000000000000000000000000000000000000000000",
            "receiptTrie" : "0x56e81f171bcc55a6ff8345e692c0f86e5b48e01b996cadc001622fb5e363b421",
            "stateRoot" : "0x99a482e035913193eee95c97a6144abe23596a4ee8087cc138cc5a0dcf728dab",
            "timestamp" : "0x0",
            "transactionsTrie" : "0x56e81f171bcc55a6ff8345e692c0f86e5b48e01b996cadc001622fb5e363b421",
            "uncleHash" : "0x1dcc4de8dec75d7aab85b567b6ccd41ad312451b948a7413f0a142fd40d49347"
        },
        "pre" : {
            "0x1000000000000000000000000000000000000000" : {
                "balance" : "0x0de0b6b3a7640000",
                "code" : "0x604060006040600073100000000000000000000000000000000000000162055730fa60005500",
                "nonce" : "0x00",
                "storage" : {
                }
            },
            "0x1000000000000000000000000000000000000001" : {
                "balance" : "0x0de0b6b3a7640000",
                "code" : "0x60406000604060007310000000000000000000000000000000000000026203d090fa00",
                "nonce" : "0x00",
                "storage" : {
                }
            },
            "0x1000000000000000000000000000000000000002" : {
                "balance" : "0x00",
                "code" : "0x600160025533600455346007553060e6553260e8553660ec553860ee553a60f05500",
                "nonce" : "0x00",
                "storage" : {
                }
            },
            "0x2000000000000000000000000000000000000000" : {
                "balance" : "0x0de0b6b3a7640000",
                "code" : "0x604060006040600073200000000000000000000000000000000000000162055730fa60005500",
                "nonce" : "0x00",
                "storage" : {
                }
            },
            "0x2000000000000000000000000000000000000001" : {
                "balance" : "0x0de0b6b3a7640000",
                "code" : "0x60406000604060007320000000000000000000000000000000000000026203d090fa00",
                "nonce" : "0x00",
                "storage" : {
                }
            },
            "0x2000000000000000000000000000000000000002" : {
                "balance" : "0x00",
                "code" : "0x6001600052336020523460405230606052326080523660a0523860c0523a60e05200",
                "nonce" : "0x00",
                "storage" : {
                }
            },
            "0xa000000000000000000000000000000000000000" : {
                "balance" : "0x00",
                "code" : "0x6000600060006000346000355af16000555a60015500",
                "nonce" : "0x00",
                "storage" : {
                }
            },
            "0xa94f5374fce5edbc8e2a8697c15331677e6ebf0b" : {
                "balance" : "0x0de0b6b3a7640000",
                "code" : "0x",
                "nonce" : "0x00",
                "storage" : {
                }
            }
        },
        "postState" : {
            "0xa94f5374fce5edbc8e2a8697c15331677e6ebf0b" : {
                "code" : "0x",
                "nonce" : "0x01",
                "balance" : "0x0de0b6b3a75ee9f7",
                "storage" : {
                }
            },
            "0xa000000000000000000000000000000000000000" : {
                "code" : "0x6000600060006000346000355af16000555a60015500",
                "nonce" : "0x00",
                "balance" : "0x00",
                "storage" : {
                    "0x00" : "0x01",
                    "0x01" : "0x28feda"
                }
            },
            "0x2000000000000000000000000000000000000002" : {
                "code" : "0x6001600052336020523460405230606052326080523660a0523860c0523a60e05200",
                "nonce" : "0x00",
                "balance" : "0x00",
                "storage" : {
                }
            },
            "0x1000000000000000000000000000000000000001" : {
                "code" : "0x60406000604060007310000000000000000000000000000000000000026203d090fa00",
                "nonce" : "0x00",
                "balance" : "0x0de0b6b3a7640000",
                "storage" : {
                }
            },
            "0x2000000000000000000000000000000000000000" : {
                "code" : "0x604060006040600073200000000000000000000000000000000000000162055730fa60005500",
                "nonce" : "0x00",
                "balance" : "0x0de0b6b3a7640000",
                "storage" : {
                }
            },
            "0x2000000000000000000000000000000000000001" : {
                "code" : "0x60406000604060007320000000000000000000000000000000000000026203d090fa00",
                "nonce" : "0x00",
                "balance" : "0x0de0b6b3a7640000",
                "storage" : {
                }
            },
            "0x2adc25665018aa1fe0e6bc666dac8fc2697ff9ba" : {
                "code" : "0x",
                "nonce" : "0x00",
                "balance" : "0x1bc16d674ecd1609",
                "storage" : {
                }
            },
            "0x1000000000000000000000000000000000000002" : {
                "code" : "0x600160025533600455346007553060e6553260e8553660ec553860ee553a60f05500",
                "nonce" : "0x00",
                "balance" : "0x00",
                "storage" : {
                }
            },
            "0x1000000000000000000000000000000000000000" : {
                "code" : "0x604060006040600073100000000000000000000000000000000000000162055730fa60005500",
                "nonce" : "0x00",
                "balance" : "0x0de0b6b3a7640000",
                "storage" : {
                    "0x00" : "0x01"
                }
            }
        },
        "network" : "Istanbul",
        "sealEngine" : "NoProof",
        "lastblockhash" : "0xb4cb579f1686e9dbc980b7b8e51a0ef7c127811cc690a7f589a134daf66c9b1a",
        "genesisRLP" : "0xf901f9f901f4a00000000000000000000000000000000000000000000000000000000000000000a01dcc4de8dec75d7aab85b567b6ccd41ad312451b948a7413f0a142fd40d49347942adc25665018aa1fe0e6bc666dac8fc2697ff9baa099a482e035913193eee95c97a6144abe23596a4ee8087cc138cc5a0dcf728daba056e81f171bcc55a6ff8345e692c0f86e5b48e01b996cadc001622fb5e363b421a056e81f171bcc55a6ff8345e692c0f86e5b48e01b996cadc001622fb5e363b421b901000000000000000000000000000000000000000000000000000000000000000000000000000000000000000000000000000000000000000000000000000000000000000000000000000000000000000000000000000000000000000000000000000000000000000000000000000000000000000000000000000000000000000000000000000000000000000000000000000000000000000000000000000000000000000000000000000000000000000000000000000000000000000000000000000000000000000000000000000000000000000000000000000000000000000000000000000000000000000000000000000000000000000000000000000000000083020000808401c9c380808000a00000000000000000000000000000000000000000000000000000000000000000880000000000000000c0c0",
        "blocks" : [
            {
                "rlp" : "0xf90281f901f9a0e6b8376c813ee76d4b087ebb5e77fca671b07b8be3bf216dfea6759ce886a2cba01dcc4de8dec75d7aab85b567b6ccd41ad312451b948a7413f0a142fd40d49347942adc25665018aa1fe0e6bc666dac8fc2697ff9baa09045de8adbb9bff76c723edbecf8f4103d071213ba0b80b73c829a6d581b3bd2a08ff9c65bf7129bfa810f9587bd219d616f8d1adbaf7d954468bf6a6c8a2ba10da0c00b434fba5aafa12b482f345fa26c46236fee74297079027df4c72c372b0994b901000000000000000000000000000000000000000000000000000000000000000000000000000000000000000000000000000000000000000000000000000000000000000000000000000000000000000000000000000000000000000000000000000000000000000000000000000000000000000000000000000000000000000000000000000000000000000000000000000000000000000000000000000000000000000000000000000000000000000000000000000000000000000000000000000000000000000000000000000000000000000000000000000000000000000000000000000000000000000000000000000000000000000000000000000000000083020000018401ca35ef830516098203e800a00000000000000000000000000000000000000000000000000000000000000000880000000000000000f882f8808001832dc6c094a00000000000000000000000000000000000000080a000000000000000000000000010000000000000000000000000000000000000001ba071980a71a0a0ec09838abc3ecf30674e8fc79cc304dff5951d1115c7b99b38fba0423eb50c6d5953343658f568a8c9329b8ec411dca33b102b861e509dd5a7a9b7c0",
                "blockHeader" : {
                    "bloom" : "0x00000000000000000000000000000000000000000000000000000000000000000000000000000000000000000000000000000000000000000000000000000000000000000000000000000000000000000000000000000000000000000000000000000000000000000000000000000000000000000000000000000000000000000000000000000000000000000000000000000000000000000000000000000000000000000000000000000000000000000000000000000000000000000000000000000000000000000000000000000000000000000000000000000000000000000000000000000000000000000000000000000000000000000000000000000000",
                    "coinbase" : "0x2adc25665018aa1fe0e6bc666dac8fc2697ff9ba",
                    "difficulty" : "0x20000",
                    "extraData" : "0x00",
                    "gasLimit" : "0x1ca35ef",
                    "gasUsed" : "0x51609",
                    "hash" : "0xb4cb579f1686e9dbc980b7b8e51a0ef7c127811cc690a7f589a134daf66c9b1a",
                    "mixHash" : "0x0000000000000000000000000000000000000000000000000000000000000000",
                    "nonce" : "0x0000000000000000",
                    "number" : "0x1",
                    "parentHash" : "0xe6b8376c813ee76d4b087ebb5e77fca671b07b8be3bf216dfea6759ce886a2cb",
                    "receiptTrie" : "0xc00b434fba5aafa12b482f345fa26c46236fee74297079027df4c72c372b0994",
                    "stateRoot" : "0x9045de8adbb9bff76c723edbecf8f4103d071213ba0b80b73c829a6d581b3bd2",
                    "timestamp" : "0x3e8",
                    "transactionsTrie" : "0x8ff9c65bf7129bfa810f9587bd219d616f8d1adbaf7d954468bf6a6c8a2ba10d",
                    "uncleHash" : "0x1dcc4de8dec75d7aab85b567b6ccd41ad312451b948a7413f0a142fd40d49347"
                },
                "transactions" : [
                    {
                        "data" : "0x0000000000000000000000001000000000000000000000000000000000000000",
                        "gasLimit" : "0x2dc6c0",
                        "gasPrice" : "0x01",
                        "nonce" : "0x00",
                        "to" : "0xa000000000000000000000000000000000000000",
                        "value" : "0x00",
                        "v" : "0x1b",
                        "r" : "0x71980a71a0a0ec09838abc3ecf30674e8fc79cc304dff5951d1115c7b99b38fb",
                        "s" : "0x423eb50c6d5953343658f568a8c9329b8ec411dca33b102b861e509dd5a7a9b7"
                    }
                ]
            }
        ]
    },
    "static_callcall_00_d1g0v0_Istanbul" : {
        "_info" : {
            "comment" : "",
            "filling-rpc-server" : "Geth-1.9.6-unstable-63b18027-20190920",
            "filling-tool-version" : "retesteth-0.0.1+commit.0ae18aef.Linux.g++",
            "lllcversion" : "Version: 0.5.12-develop.2019.9.13+commit.2d601a4f.Linux.g++",
            "source" : "src/GeneralStateTestsFiller/stStaticCall/static_callcall_00Filler.json",
            "sourceHash" : "ca5d13af6f60e6519e060d91338600cf7c8d96dcae0663f600322549492f520e"
        },
        "genesisBlockHeader" : {
            "bloom" : "0x00000000000000000000000000000000000000000000000000000000000000000000000000000000000000000000000000000000000000000000000000000000000000000000000000000000000000000000000000000000000000000000000000000000000000000000000000000000000000000000000000000000000000000000000000000000000000000000000000000000000000000000000000000000000000000000000000000000000000000000000000000000000000000000000000000000000000000000000000000000000000000000000000000000000000000000000000000000000000000000000000000000000000000000000000000000",
            "coinbase" : "0x2adc25665018aa1fe0e6bc666dac8fc2697ff9ba",
            "difficulty" : "0x20000",
            "extraData" : "0x00",
            "gasLimit" : "0x1c9c380",
            "gasUsed" : "0x0",
            "hash" : "0xe6b8376c813ee76d4b087ebb5e77fca671b07b8be3bf216dfea6759ce886a2cb",
            "mixHash" : "0x0000000000000000000000000000000000000000000000000000000000000000",
            "nonce" : "0x0000000000000000",
            "number" : "0x0",
            "parentHash" : "0x0000000000000000000000000000000000000000000000000000000000000000",
            "receiptTrie" : "0x56e81f171bcc55a6ff8345e692c0f86e5b48e01b996cadc001622fb5e363b421",
            "stateRoot" : "0x99a482e035913193eee95c97a6144abe23596a4ee8087cc138cc5a0dcf728dab",
            "timestamp" : "0x0",
            "transactionsTrie" : "0x56e81f171bcc55a6ff8345e692c0f86e5b48e01b996cadc001622fb5e363b421",
            "uncleHash" : "0x1dcc4de8dec75d7aab85b567b6ccd41ad312451b948a7413f0a142fd40d49347"
        },
        "pre" : {
            "0x1000000000000000000000000000000000000000" : {
                "balance" : "0x0de0b6b3a7640000",
                "code" : "0x604060006040600073100000000000000000000000000000000000000162055730fa60005500",
                "nonce" : "0x00",
                "storage" : {
                }
            },
            "0x1000000000000000000000000000000000000001" : {
                "balance" : "0x0de0b6b3a7640000",
                "code" : "0x60406000604060007310000000000000000000000000000000000000026203d090fa00",
                "nonce" : "0x00",
                "storage" : {
                }
            },
            "0x1000000000000000000000000000000000000002" : {
                "balance" : "0x00",
                "code" : "0x600160025533600455346007553060e6553260e8553660ec553860ee553a60f05500",
                "nonce" : "0x00",
                "storage" : {
                }
            },
            "0x2000000000000000000000000000000000000000" : {
                "balance" : "0x0de0b6b3a7640000",
                "code" : "0x604060006040600073200000000000000000000000000000000000000162055730fa60005500",
                "nonce" : "0x00",
                "storage" : {
                }
            },
            "0x2000000000000000000000000000000000000001" : {
                "balance" : "0x0de0b6b3a7640000",
                "code" : "0x60406000604060007320000000000000000000000000000000000000026203d090fa00",
                "nonce" : "0x00",
                "storage" : {
                }
            },
            "0x2000000000000000000000000000000000000002" : {
                "balance" : "0x00",
                "code" : "0x6001600052336020523460405230606052326080523660a0523860c0523a60e05200",
                "nonce" : "0x00",
                "storage" : {
                }
            },
            "0xa000000000000000000000000000000000000000" : {
                "balance" : "0x00",
                "code" : "0x6000600060006000346000355af16000555a60015500",
                "nonce" : "0x00",
                "storage" : {
                }
            },
            "0xa94f5374fce5edbc8e2a8697c15331677e6ebf0b" : {
                "balance" : "0x0de0b6b3a7640000",
                "code" : "0x",
                "nonce" : "0x00",
                "storage" : {
                }
            }
        },
        "postState" : {
            "0xa94f5374fce5edbc8e2a8697c15331677e6ebf0b" : {
                "code" : "0x",
                "nonce" : "0x01",
                "balance" : "0x0de0b6b3a762ba2e",
                "storage" : {
                }
            },
            "0xa000000000000000000000000000000000000000" : {
                "code" : "0x6000600060006000346000355af16000555a60015500",
                "nonce" : "0x00",
                "balance" : "0x00",
                "storage" : {
                    "0x00" : "0x01",
                    "0x01" : "0x2ccf11"
                }
            },
            "0x2000000000000000000000000000000000000002" : {
                "code" : "0x6001600052336020523460405230606052326080523660a0523860c0523a60e05200",
                "nonce" : "0x00",
                "balance" : "0x00",
                "storage" : {
                }
            },
            "0x1000000000000000000000000000000000000001" : {
                "code" : "0x60406000604060007310000000000000000000000000000000000000026203d090fa00",
                "nonce" : "0x00",
                "balance" : "0x0de0b6b3a7640000",
                "storage" : {
                }
            },
            "0x2000000000000000000000000000000000000000" : {
                "code" : "0x604060006040600073200000000000000000000000000000000000000162055730fa60005500",
                "nonce" : "0x00",
                "balance" : "0x0de0b6b3a7640000",
                "storage" : {
                    "0x00" : "0x01"
                }
            },
            "0x2000000000000000000000000000000000000001" : {
                "code" : "0x60406000604060007320000000000000000000000000000000000000026203d090fa00",
                "nonce" : "0x00",
                "balance" : "0x0de0b6b3a7640000",
                "storage" : {
                }
            },
            "0x2adc25665018aa1fe0e6bc666dac8fc2697ff9ba" : {
                "code" : "0x",
                "nonce" : "0x00",
                "balance" : "0x1bc16d674ec945d2",
                "storage" : {
                }
            },
            "0x1000000000000000000000000000000000000002" : {
                "code" : "0x600160025533600455346007553060e6553260e8553660ec553860ee553a60f05500",
                "nonce" : "0x00",
                "balance" : "0x00",
                "storage" : {
                }
            },
            "0x1000000000000000000000000000000000000000" : {
                "code" : "0x604060006040600073100000000000000000000000000000000000000162055730fa60005500",
                "nonce" : "0x00",
                "balance" : "0x0de0b6b3a7640000",
                "storage" : {
                }
            }
        },
        "network" : "Istanbul",
        "sealEngine" : "NoProof",
        "lastblockhash" : "0xdacb69a714c65d3a2467d46ad53b93d6e234cc81960cb11602d9df254a2c4959",
        "genesisRLP" : "0xf901f9f901f4a00000000000000000000000000000000000000000000000000000000000000000a01dcc4de8dec75d7aab85b567b6ccd41ad312451b948a7413f0a142fd40d49347942adc25665018aa1fe0e6bc666dac8fc2697ff9baa099a482e035913193eee95c97a6144abe23596a4ee8087cc138cc5a0dcf728daba056e81f171bcc55a6ff8345e692c0f86e5b48e01b996cadc001622fb5e363b421a056e81f171bcc55a6ff8345e692c0f86e5b48e01b996cadc001622fb5e363b421b901000000000000000000000000000000000000000000000000000000000000000000000000000000000000000000000000000000000000000000000000000000000000000000000000000000000000000000000000000000000000000000000000000000000000000000000000000000000000000000000000000000000000000000000000000000000000000000000000000000000000000000000000000000000000000000000000000000000000000000000000000000000000000000000000000000000000000000000000000000000000000000000000000000000000000000000000000000000000000000000000000000000000000000000000000000000083020000808401c9c380808000a00000000000000000000000000000000000000000000000000000000000000000880000000000000000c0c0",
        "blocks" : [
            {
                "rlp" : "0xf90281f901f9a0e6b8376c813ee76d4b087ebb5e77fca671b07b8be3bf216dfea6759ce886a2cba01dcc4de8dec75d7aab85b567b6ccd41ad312451b948a7413f0a142fd40d49347942adc25665018aa1fe0e6bc666dac8fc2697ff9baa0cf38946b00abc0770052c63fd25ccf4a32330dbd009783f2c7fb60ce2718511da0f5530346527e3db28b2b0cca07eb752767d96355b2f036d8c8e0214f82a14e23a0d2b2f69536f4e08bd8672b33bda3601d3f30bb9bf9f0b2afe64fda325edf1fadb901000000000000000000000000000000000000000000000000000000000000000000000000000000000000000000000000000000000000000000000000000000000000000000000000000000000000000000000000000000000000000000000000000000000000000000000000000000000000000000000000000000000000000000000000000000000000000000000000000000000000000000000000000000000000000000000000000000000000000000000000000000000000000000000000000000000000000000000000000000000000000000000000000000000000000000000000000000000000000000000000000000000000000000000000000000000083020000018401ca35ef830145d28203e800a00000000000000000000000000000000000000000000000000000000000000000880000000000000000f882f8808001832dc6c094a00000000000000000000000000000000000000080a000000000000000000000000020000000000000000000000000000000000000001ba07ce4dbbc85a70e2b3b6520ddde3c4245a701bbb6daf4c4ac1f027f38245ac24da0153f855ca271494e4b7cee8c1efe70541f43575a08760c2eb0b50125d1752a7cc0",
                "blockHeader" : {
                    "bloom" : "0x00000000000000000000000000000000000000000000000000000000000000000000000000000000000000000000000000000000000000000000000000000000000000000000000000000000000000000000000000000000000000000000000000000000000000000000000000000000000000000000000000000000000000000000000000000000000000000000000000000000000000000000000000000000000000000000000000000000000000000000000000000000000000000000000000000000000000000000000000000000000000000000000000000000000000000000000000000000000000000000000000000000000000000000000000000000",
                    "coinbase" : "0x2adc25665018aa1fe0e6bc666dac8fc2697ff9ba",
                    "difficulty" : "0x20000",
                    "extraData" : "0x00",
                    "gasLimit" : "0x1ca35ef",
                    "gasUsed" : "0x145d2",
                    "hash" : "0xdacb69a714c65d3a2467d46ad53b93d6e234cc81960cb11602d9df254a2c4959",
                    "mixHash" : "0x0000000000000000000000000000000000000000000000000000000000000000",
                    "nonce" : "0x0000000000000000",
                    "number" : "0x1",
                    "parentHash" : "0xe6b8376c813ee76d4b087ebb5e77fca671b07b8be3bf216dfea6759ce886a2cb",
                    "receiptTrie" : "0xd2b2f69536f4e08bd8672b33bda3601d3f30bb9bf9f0b2afe64fda325edf1fad",
                    "stateRoot" : "0xcf38946b00abc0770052c63fd25ccf4a32330dbd009783f2c7fb60ce2718511d",
                    "timestamp" : "0x3e8",
                    "transactionsTrie" : "0xf5530346527e3db28b2b0cca07eb752767d96355b2f036d8c8e0214f82a14e23",
                    "uncleHash" : "0x1dcc4de8dec75d7aab85b567b6ccd41ad312451b948a7413f0a142fd40d49347"
                },
                "transactions" : [
                    {
                        "data" : "0x0000000000000000000000002000000000000000000000000000000000000000",
                        "gasLimit" : "0x2dc6c0",
                        "gasPrice" : "0x01",
                        "nonce" : "0x00",
                        "to" : "0xa000000000000000000000000000000000000000",
                        "value" : "0x00",
                        "v" : "0x1b",
                        "r" : "0x7ce4dbbc85a70e2b3b6520ddde3c4245a701bbb6daf4c4ac1f027f38245ac24d",
                        "s" : "0x153f855ca271494e4b7cee8c1efe70541f43575a08760c2eb0b50125d1752a7c"
                    }
                ]
            }
        ]
    }
}