{
    "static_Return50000_2_d0g0v0_Istanbul" : {
        "_info" : {
            "comment" : "",
            "filling-rpc-server" : "Geth-1.9.6-unstable-63b18027-20190920",
            "filling-tool-version" : "retesteth-0.0.1+commit.0ae18aef.Linux.g++",
            "lllcversion" : "Version: 0.5.12-develop.2019.9.13+commit.2d601a4f.Linux.g++",
            "source" : "src/GeneralStateTestsFiller/stStaticCall/static_Return50000_2Filler.json",
            "sourceHash" : "f7512f6deed383f2b3072255659d9d8cfbbd3ece19b69ac7a6374ac61941f27b"
        },
        "genesisBlockHeader" : {
            "bloom" : "0x00000000000000000000000000000000000000000000000000000000000000000000000000000000000000000000000000000000000000000000000000000000000000000000000000000000000000000000000000000000000000000000000000000000000000000000000000000000000000000000000000000000000000000000000000000000000000000000000000000000000000000000000000000000000000000000000000000000000000000000000000000000000000000000000000000000000000000000000000000000000000000000000000000000000000000000000000000000000000000000000000000000000000000000000000000000",
            "coinbase" : "0xb94f5374fce5edbc8e2a8697c15331677e6ebf0b",
            "difficulty" : "0x20000",
            "extraData" : "0x00",
            "gasLimit" : "0x551d8d0",
            "gasUsed" : "0x0",
            "hash" : "0x407099e6be8c3fbb536dc0a1e3bb6fafa5b9329406c723bb99100b0b55703e44",
            "mixHash" : "0x0000000000000000000000000000000000000000000000000000000000000000",
            "nonce" : "0x0000000000000000",
            "number" : "0x0",
            "parentHash" : "0x0000000000000000000000000000000000000000000000000000000000000000",
            "receiptTrie" : "0x56e81f171bcc55a6ff8345e692c0f86e5b48e01b996cadc001622fb5e363b421",
            "stateRoot" : "0xcc67922d524192b67e603611144304524344a6a2765f046963e0415c6db764d7",
            "timestamp" : "0x0",
            "transactionsTrie" : "0x56e81f171bcc55a6ff8345e692c0f86e5b48e01b996cadc001622fb5e363b421",
            "uncleHash" : "0x1dcc4de8dec75d7aab85b567b6ccd41ad312451b948a7413f0a142fd40d49347"
        },
        "pre" : {
            "0x10bf5374fce5edbc8e2a8697c15331677e6ebf0b" : {
                "balance" : "0x0fffffffffffff",
                "code" : "0x6000600060006000600073bbbf5374fce5edbc8e2a8697c15331677e6ebf0b5af16000555a60015500",
                "nonce" : "0x00",
                "storage" : {
                }
            },
            "0xa94f5374fce5edbc8e2a8697c15331677e6ebf0b" : {
                "balance" : "0xffffffffffffffffffffffffffffffff",
                "code" : "0x",
                "nonce" : "0x00",
                "storage" : {
                }
            },
            "0xaaaf5374fce5edbc8e2a8697c15331677e6ebf0b" : {
                "balance" : "0x0fffffffffffff",
                "code" : "0x61c34f356000526001600051f300",
                "nonce" : "0x00",
                "storage" : {
                }
            },
            "0xbbbf5374fce5edbc8e2a8697c15331677e6ebf0b" : {
                "balance" : "0x0fffffffffffff",
                "code" : "0x5b61c3506080511015603d576000600061c350600073aaaf5374fce5edbc8e2a8697c15331677e6ebf0b61061cfa6000556001608051016080526000565b60805160015500",
                "nonce" : "0x00",
                "storage" : {
                }
            }
        },
        "postState" : {
            "0xa94f5374fce5edbc8e2a8697c15331677e6ebf0b" : {
                "code" : "0x",
                "nonce" : "0x01",
                "balance" : "0xfffffffffffffffffffffffffb3752aa",
                "storage" : {
                }
            },
            "0xbbbf5374fce5edbc8e2a8697c15331677e6ebf0b" : {
                "code" : "0x5b61c3506080511015603d576000600061c350600073aaaf5374fce5edbc8e2a8697c15331677e6ebf0b61061cfa6000556001608051016080526000565b60805160015500",
                "nonce" : "0x00",
                "balance" : "0x0fffffffffffff",
                "storage" : {
                    "0x00" : "0x01",
                    "0x01" : "0xc350"
                }
            },
            "0xaaaf5374fce5edbc8e2a8697c15331677e6ebf0b" : {
                "code" : "0x61c34f356000526001600051f300",
                "nonce" : "0x00",
                "balance" : "0x0fffffffffffff",
                "storage" : {
                }
            },
            "0xb94f5374fce5edbc8e2a8697c15331677e6ebf0b" : {
                "code" : "0x",
                "nonce" : "0x00",
                "balance" : "0x1bc16d675390ad4b",
                "storage" : {
                }
            },
            "0x10bf5374fce5edbc8e2a8697c15331677e6ebf0b" : {
                "code" : "0x6000600060006000600073bbbf5374fce5edbc8e2a8697c15331677e6ebf0b5af16000555a60015500",
                "nonce" : "0x00",
                "balance" : "0x10000000000009",
                "storage" : {
                    "0x00" : "0x01",
                    "0x01" : "0x7a3768"
                }
            }
        },
        "network" : "Istanbul",
        "sealEngine" : "NoProof",
        "lastblockhash" : "0xb649544da1587d099de508d8cc577da9aa8ef1045781b7d092c01e0dfba5566e",
        "genesisRLP" : "0xf901f9f901f4a00000000000000000000000000000000000000000000000000000000000000000a01dcc4de8dec75d7aab85b567b6ccd41ad312451b948a7413f0a142fd40d4934794b94f5374fce5edbc8e2a8697c15331677e6ebf0ba0cc67922d524192b67e603611144304524344a6a2765f046963e0415c6db764d7a056e81f171bcc55a6ff8345e692c0f86e5b48e01b996cadc001622fb5e363b421a056e81f171bcc55a6ff8345e692c0f86e5b48e01b996cadc001622fb5e363b421b90100000000000000000000000000000000000000000000000000000000000000000000000000000000000000000000000000000000000000000000000000000000000000000000000000000000000000000000000000000000000000000000000000000000000000000000000000000000000000000000000000000000000000000000000000000000000000000000000000000000000000000000000000000000000000000000000000000000000000000000000000000000000000000000000000000000000000000000000000000000000000000000000000000000000000000000000000000000000000000000000000000000000000000000000000000000008302000080840551d8d0808000a00000000000000000000000000000000000000000000000000000000000000000880000000000000000c0c0",
        "blocks" : [
            {
                "rlp" : "0xf90263f901faa0407099e6be8c3fbb536dc0a1e3bb6fafa5b9329406c723bb99100b0b55703e44a01dcc4de8dec75d7aab85b567b6ccd41ad312451b948a7413f0a142fd40d4934794b94f5374fce5edbc8e2a8697c15331677e6ebf0ba0a733c710846049ccaf67757fe882297351928d1e7194ccfa87d4da473ed6978ca01a928facc5519620b50268ece7c03b8b881a7bf7d33aa5880da7b7de32942c3ca0e329ef8b7c1046e2e6d5c8e6e0cadc197163939729c28a18edd55b1f3d5aa32db901000000000000000000000000000000000000000000000000000000000000000000000000000000000000000000000000000000000000000000000000000000000000000000000000000000000000000000000000000000000000000000000000000000000000000000000000000000000000000000000000000000000000000000000000000000000000000000000000000000000000000000000000000000000000000000000000000000000000000000000000000000000000000000000000000000000000000000000000000000000000000000000000000000000000000000000000000000000000000000000000000000000000000000000000000000000083020000018405532d458404c8ad4b8203e800a00000000000000000000000000000000000000000000000000000000000000000880000000000000000f863f861800184054296909410bf5374fce5edbc8e2a8697c15331677e6ebf0b0a801ca0c4c4ca7d9556938c9195fa2ce1d7eae11566a4bb82122f1ef816321a46ad78dda06b98fd3c42998d8d4b0ca9f0713c258896e456d73295b809a1e9ec39e40311c9c0",
                "blockHeader" : {
                    "bloom" : "0x00000000000000000000000000000000000000000000000000000000000000000000000000000000000000000000000000000000000000000000000000000000000000000000000000000000000000000000000000000000000000000000000000000000000000000000000000000000000000000000000000000000000000000000000000000000000000000000000000000000000000000000000000000000000000000000000000000000000000000000000000000000000000000000000000000000000000000000000000000000000000000000000000000000000000000000000000000000000000000000000000000000000000000000000000000000",
                    "coinbase" : "0xb94f5374fce5edbc8e2a8697c15331677e6ebf0b",
                    "difficulty" : "0x20000",
                    "extraData" : "0x00",
                    "gasLimit" : "0x5532d45",
                    "gasUsed" : "0x4c8ad4b",
                    "hash" : "0xb649544da1587d099de508d8cc577da9aa8ef1045781b7d092c01e0dfba5566e",
                    "mixHash" : "0x0000000000000000000000000000000000000000000000000000000000000000",
                    "nonce" : "0x0000000000000000",
                    "number" : "0x1",
                    "parentHash" : "0x407099e6be8c3fbb536dc0a1e3bb6fafa5b9329406c723bb99100b0b55703e44",
                    "receiptTrie" : "0xe329ef8b7c1046e2e6d5c8e6e0cadc197163939729c28a18edd55b1f3d5aa32d",
                    "stateRoot" : "0xa733c710846049ccaf67757fe882297351928d1e7194ccfa87d4da473ed6978c",
                    "timestamp" : "0x3e8",
                    "transactionsTrie" : "0x1a928facc5519620b50268ece7c03b8b881a7bf7d33aa5880da7b7de32942c3c",
                    "uncleHash" : "0x1dcc4de8dec75d7aab85b567b6ccd41ad312451b948a7413f0a142fd40d49347"
                },
                "transactions" : [
                    {
                        "data" : "0x",
                        "gasLimit" : "0x05429690",
                        "gasPrice" : "0x01",
                        "nonce" : "0x00",
                        "to" : "0x10bf5374fce5edbc8e2a8697c15331677e6ebf0b",
                        "value" : "0x0a",
                        "v" : "0x1c",
                        "r" : "0xc4c4ca7d9556938c9195fa2ce1d7eae11566a4bb82122f1ef816321a46ad78dd",
                        "s" : "0x6b98fd3c42998d8d4b0ca9f0713c258896e456d73295b809a1e9ec39e40311c9"
                    }
                ]
            }
        ]
    }
}