{
    "static_callBasic_d0g0v0_Istanbul" : {
        "_info" : {
            "comment" : "",
            "filling-rpc-server" : "Geth-1.9.6-unstable-63b18027-20190920",
            "filling-tool-version" : "retesteth-0.0.1+commit.0ae18aef.Linux.g++",
            "lllcversion" : "Version: 0.5.12-develop.2019.9.13+commit.2d601a4f.Linux.g++",
            "source" : "src/GeneralStateTestsFiller/stStaticCall/static_callBasicFiller.json",
            "sourceHash" : "080ebb7e2cbb79e17d9122c9273a13362410aef5d4f3ed5dd56f5fa24819ffac"
        },
        "genesisBlockHeader" : {
            "bloom" : "0x00000000000000000000000000000000000000000000000000000000000000000000000000000000000000000000000000000000000000000000000000000000000000000000000000000000000000000000000000000000000000000000000000000000000000000000000000000000000000000000000000000000000000000000000000000000000000000000000000000000000000000000000000000000000000000000000000000000000000000000000000000000000000000000000000000000000000000000000000000000000000000000000000000000000000000000000000000000000000000000000000000000000000000000000000000000",
            "coinbase" : "0x2adc25665018aa1fe0e6bc666dac8fc2697ff9ba",
            "difficulty" : "0x20000",
            "extraData" : "0x00",
            "gasLimit" : "0x989680",
            "gasUsed" : "0x0",
            "hash" : "0xb7e125825164b7daa5457a9b2a9a65475828bd517eba7b6c2caaf7e91f26138e",
            "mixHash" : "0x0000000000000000000000000000000000000000000000000000000000000000",
            "nonce" : "0x0000000000000000",
            "number" : "0x0",
            "parentHash" : "0x0000000000000000000000000000000000000000000000000000000000000000",
            "receiptTrie" : "0x56e81f171bcc55a6ff8345e692c0f86e5b48e01b996cadc001622fb5e363b421",
            "stateRoot" : "0x2c35533a5d2b2dd1890c33b6095e01b38ae1571dab8bb27461a8f18343006d70",
            "timestamp" : "0x0",
            "transactionsTrie" : "0x56e81f171bcc55a6ff8345e692c0f86e5b48e01b996cadc001622fb5e363b421",
            "uncleHash" : "0x1dcc4de8dec75d7aab85b567b6ccd41ad312451b948a7413f0a142fd40d49347"
        },
        "pre" : {
            "0x1000000000000000000000000000000000000000" : {
                "balance" : "0x0de0b6b3a7640000",
                "code" : "0x6000600060006000600035620186a0fa6000555a60015500",
                "nonce" : "0x00",
                "storage" : {
                }
            },
            "0x1000000000000000000000000000000000000001" : {
                "balance" : "0x17",
                "code" : "0x600160015500",
                "nonce" : "0x00",
                "storage" : {
                    "0x01" : "0x01"
                }
            },
            "0x1000000000000000000000000000000000000002" : {
                "balance" : "0x17",
                "code" : "0x600060015500",
                "nonce" : "0x00",
                "storage" : {
                    "0x01" : "0x00"
                }
            },
            "0x1000000000000000000000000000000000000003" : {
                "balance" : "0x17",
                "code" : "0x60006000600060006000732000000000000000000000000000000000000003619c40f150600160015200",
                "nonce" : "0x00",
                "storage" : {
                }
            },
            "0x1000000000000000000000000000000000000004" : {
                "balance" : "0x17",
                "code" : "0x60006000600060006001733000000000000000000000000000000000000003619c40f250600160015200",
                "nonce" : "0x00",
                "storage" : {
                }
            },
            "0x2000000000000000000000000000000000000003" : {
                "balance" : "0x17",
                "code" : "0x600a6001a0600160015200",
                "nonce" : "0x00",
                "storage" : {
                }
            },
            "0x3000000000000000000000000000000000000003" : {
                "balance" : "0x17",
                "code" : "0x600160015200",
                "nonce" : "0x00",
                "storage" : {
                }
            },
            "0xa94f5374fce5edbc8e2a8697c15331677e6ebf0b" : {
                "balance" : "0x0de0b6b3a7640000",
                "code" : "0x",
                "nonce" : "0x00",
                "storage" : {
                }
            }
        },
        "postState" : {
            "0xa94f5374fce5edbc8e2a8697c15331677e6ebf0b" : {
                "code" : "0x",
                "nonce" : "0x01",
                "balance" : "0x0de0b6b3a7604c07",
                "storage" : {
                }
            },
            "0x2000000000000000000000000000000000000003" : {
                "code" : "0x600a6001a0600160015200",
                "nonce" : "0x00",
                "balance" : "0x17",
                "storage" : {
                }
            },
            "0x3000000000000000000000000000000000000003" : {
                "code" : "0x600160015200",
                "nonce" : "0x00",
                "balance" : "0x17",
                "storage" : {
                }
            },
            "0x1000000000000000000000000000000000000001" : {
                "code" : "0x600160015500",
                "nonce" : "0x00",
                "balance" : "0x17",
                "storage" : {
                    "0x01" : "0x01"
                }
            },
            "0x2adc25665018aa1fe0e6bc666dac8fc2697ff9ba" : {
                "code" : "0x",
                "nonce" : "0x00",
                "balance" : "0x1bc16d674eca2d59",
                "storage" : {
                }
            },
            "0x1000000000000000000000000000000000000002" : {
                "code" : "0x600060015500",
                "nonce" : "0x00",
                "balance" : "0x17",
                "storage" : {
                }
            },
            "0x1000000000000000000000000000000000000004" : {
                "code" : "0x60006000600060006001733000000000000000000000000000000000000003619c40f250600160015200",
                "nonce" : "0x00",
                "balance" : "0x17",
                "storage" : {
                }
            },
            "0x1000000000000000000000000000000000000003" : {
                "code" : "0x60006000600060006000732000000000000000000000000000000000000003619c40f150600160015200",
                "nonce" : "0x00",
                "balance" : "0x17",
                "storage" : {
                }
            },
            "0x1000000000000000000000000000000000000000" : {
                "code" : "0x6000600060006000600035620186a0fa6000555a60015500",
                "nonce" : "0x00",
                "balance" : "0x0de0b6b3a76586a0",
                "storage" : {
                    "0x01" : "0x0d630a"
                }
            }
        },
        "network" : "Istanbul",
        "sealEngine" : "NoProof",
        "lastblockhash" : "0x5c1bb150b2a38ebbe0b828dc010371e62b68819e0f9dc3f50344583adeda88b8",
        "genesisRLP" : "0xf901f8f901f3a00000000000000000000000000000000000000000000000000000000000000000a01dcc4de8dec75d7aab85b567b6ccd41ad312451b948a7413f0a142fd40d49347942adc25665018aa1fe0e6bc666dac8fc2697ff9baa02c35533a5d2b2dd1890c33b6095e01b38ae1571dab8bb27461a8f18343006d70a056e81f171bcc55a6ff8345e692c0f86e5b48e01b996cadc001622fb5e363b421a056e81f171bcc55a6ff8345e692c0f86e5b48e01b996cadc001622fb5e363b421b9010000000000000000000000000000000000000000000000000000000000000000000000000000000000000000000000000000000000000000000000000000000000000000000000000000000000000000000000000000000000000000000000000000000000000000000000000000000000000000000000000000000000000000000000000000000000000000000000000000000000000000000000000000000000000000000000000000000000000000000000000000000000000000000000000000000000000000000000000000000000000000000000000000000000000000000000000000000000000000000000000000000000000000000000000000000000830200008083989680808000a00000000000000000000000000000000000000000000000000000000000000000880000000000000000c0c0",
        "blocks" : [
            {
                "rlp" : "0xf90283f901f8a0b7e125825164b7daa5457a9b2a9a65475828bd517eba7b6c2caaf7e91f26138ea01dcc4de8dec75d7aab85b567b6ccd41ad312451b948a7413f0a142fd40d49347942adc25665018aa1fe0e6bc666dac8fc2697ff9baa05d28850df6058a91849086df28e09708d59d733d0574c39737b549e7d1c4dc24a01b8e0645ac44e25fca7b692ad8f8d1654ccd8fef7156d6532e0784d61b25ace0a057066912f9934ee13d0d9edbf7885c8d142982b06c0c18a5a9bffa3b45bd0043b901000000000000000000000000000000000000000000000000000000000000000000000000000000000000000000000000000000000000000000000000000000000000000000000000000000000000000000000000000000000000000000000000000000000000000000000000000000000000000000000000000000000000000000000000000000000000000000000000000000000000000000000000000000000000000000000000000000000000000000000000000000000000000000000000000000000000000000000000000000000000000000000000000000000000000000000000000000000000000000000000000000000000000000000000000000000083020000018398bca483022d598203e800a00000000000000000000000000000000000000000000000000000000000000000880000000000000000f885f8838001830f4240941000000000000000000000000000000000000000830186a0a000000000000000000000000010000000000000000000000000000000000000011ca070206e67b68ce42a6bd731189f175108557179d586d73ee0fe501f6bf272f87ba02f85910ad31a85ae5310ffd848c2747a9632f70476f8279bac8f09d8f4c6353ac0",
                "blockHeader" : {
                    "bloom" : "0x00000000000000000000000000000000000000000000000000000000000000000000000000000000000000000000000000000000000000000000000000000000000000000000000000000000000000000000000000000000000000000000000000000000000000000000000000000000000000000000000000000000000000000000000000000000000000000000000000000000000000000000000000000000000000000000000000000000000000000000000000000000000000000000000000000000000000000000000000000000000000000000000000000000000000000000000000000000000000000000000000000000000000000000000000000000",
                    "coinbase" : "0x2adc25665018aa1fe0e6bc666dac8fc2697ff9ba",
                    "difficulty" : "0x20000",
                    "extraData" : "0x00",
                    "gasLimit" : "0x98bca4",
                    "gasUsed" : "0x22d59",
                    "hash" : "0x5c1bb150b2a38ebbe0b828dc010371e62b68819e0f9dc3f50344583adeda88b8",
                    "mixHash" : "0x0000000000000000000000000000000000000000000000000000000000000000",
                    "nonce" : "0x0000000000000000",
                    "number" : "0x1",
                    "parentHash" : "0xb7e125825164b7daa5457a9b2a9a65475828bd517eba7b6c2caaf7e91f26138e",
                    "receiptTrie" : "0x57066912f9934ee13d0d9edbf7885c8d142982b06c0c18a5a9bffa3b45bd0043",
                    "stateRoot" : "0x5d28850df6058a91849086df28e09708d59d733d0574c39737b549e7d1c4dc24",
                    "timestamp" : "0x3e8",
                    "transactionsTrie" : "0x1b8e0645ac44e25fca7b692ad8f8d1654ccd8fef7156d6532e0784d61b25ace0",
                    "uncleHash" : "0x1dcc4de8dec75d7aab85b567b6ccd41ad312451b948a7413f0a142fd40d49347"
                },
                "transactions" : [
                    {
                        "data" : "0x0000000000000000000000001000000000000000000000000000000000000001",
                        "gasLimit" : "0x0f4240",
                        "gasPrice" : "0x01",
                        "nonce" : "0x00",
                        "to" : "0x1000000000000000000000000000000000000000",
                        "value" : "0x0186a0",
                        "v" : "0x1c",
                        "r" : "0x70206e67b68ce42a6bd731189f175108557179d586d73ee0fe501f6bf272f87b",
                        "s" : "0x2f85910ad31a85ae5310ffd848c2747a9632f70476f8279bac8f09d8f4c6353a"
                    }
                ]
            }
        ]
    },
    "static_callBasic_d1g0v0_Istanbul" : {
        "_info" : {
            "comment" : "",
            "filling-rpc-server" : "Geth-1.9.6-unstable-63b18027-20190920",
            "filling-tool-version" : "retesteth-0.0.1+commit.0ae18aef.Linux.g++",
            "lllcversion" : "Version: 0.5.12-develop.2019.9.13+commit.2d601a4f.Linux.g++",
            "source" : "src/GeneralStateTestsFiller/stStaticCall/static_callBasicFiller.json",
            "sourceHash" : "080ebb7e2cbb79e17d9122c9273a13362410aef5d4f3ed5dd56f5fa24819ffac"
        },
        "genesisBlockHeader" : {
            "bloom" : "0x00000000000000000000000000000000000000000000000000000000000000000000000000000000000000000000000000000000000000000000000000000000000000000000000000000000000000000000000000000000000000000000000000000000000000000000000000000000000000000000000000000000000000000000000000000000000000000000000000000000000000000000000000000000000000000000000000000000000000000000000000000000000000000000000000000000000000000000000000000000000000000000000000000000000000000000000000000000000000000000000000000000000000000000000000000000",
            "coinbase" : "0x2adc25665018aa1fe0e6bc666dac8fc2697ff9ba",
            "difficulty" : "0x20000",
            "extraData" : "0x00",
            "gasLimit" : "0x989680",
            "gasUsed" : "0x0",
            "hash" : "0xb7e125825164b7daa5457a9b2a9a65475828bd517eba7b6c2caaf7e91f26138e",
            "mixHash" : "0x0000000000000000000000000000000000000000000000000000000000000000",
            "nonce" : "0x0000000000000000",
            "number" : "0x0",
            "parentHash" : "0x0000000000000000000000000000000000000000000000000000000000000000",
            "receiptTrie" : "0x56e81f171bcc55a6ff8345e692c0f86e5b48e01b996cadc001622fb5e363b421",
            "stateRoot" : "0x2c35533a5d2b2dd1890c33b6095e01b38ae1571dab8bb27461a8f18343006d70",
            "timestamp" : "0x0",
            "transactionsTrie" : "0x56e81f171bcc55a6ff8345e692c0f86e5b48e01b996cadc001622fb5e363b421",
            "uncleHash" : "0x1dcc4de8dec75d7aab85b567b6ccd41ad312451b948a7413f0a142fd40d49347"
        },
        "pre" : {
            "0x1000000000000000000000000000000000000000" : {
                "balance" : "0x0de0b6b3a7640000",
                "code" : "0x6000600060006000600035620186a0fa6000555a60015500",
                "nonce" : "0x00",
                "storage" : {
                }
            },
            "0x1000000000000000000000000000000000000001" : {
                "balance" : "0x17",
                "code" : "0x600160015500",
                "nonce" : "0x00",
                "storage" : {
                    "0x01" : "0x01"
                }
            },
            "0x1000000000000000000000000000000000000002" : {
                "balance" : "0x17",
                "code" : "0x600060015500",
                "nonce" : "0x00",
                "storage" : {
                    "0x01" : "0x00"
                }
            },
            "0x1000000000000000000000000000000000000003" : {
                "balance" : "0x17",
                "code" : "0x60006000600060006000732000000000000000000000000000000000000003619c40f150600160015200",
                "nonce" : "0x00",
                "storage" : {
                }
            },
            "0x1000000000000000000000000000000000000004" : {
                "balance" : "0x17",
                "code" : "0x60006000600060006001733000000000000000000000000000000000000003619c40f250600160015200",
                "nonce" : "0x00",
                "storage" : {
                }
            },
            "0x2000000000000000000000000000000000000003" : {
                "balance" : "0x17",
                "code" : "0x600a6001a0600160015200",
                "nonce" : "0x00",
                "storage" : {
                }
            },
            "0x3000000000000000000000000000000000000003" : {
                "balance" : "0x17",
                "code" : "0x600160015200",
                "nonce" : "0x00",
                "storage" : {
                }
            },
            "0xa94f5374fce5edbc8e2a8697c15331677e6ebf0b" : {
                "balance" : "0x0de0b6b3a7640000",
                "code" : "0x",
                "nonce" : "0x00",
                "storage" : {
                }
            }
        },
        "postState" : {
            "0xa94f5374fce5edbc8e2a8697c15331677e6ebf0b" : {
                "code" : "0x",
                "nonce" : "0x01",
                "balance" : "0x0de0b6b3a7604c07",
                "storage" : {
                }
            },
            "0x2000000000000000000000000000000000000003" : {
                "code" : "0x600a6001a0600160015200",
                "nonce" : "0x00",
                "balance" : "0x17",
                "storage" : {
                }
            },
            "0x3000000000000000000000000000000000000003" : {
                "code" : "0x600160015200",
                "nonce" : "0x00",
                "balance" : "0x17",
                "storage" : {
                }
            },
            "0x1000000000000000000000000000000000000001" : {
                "code" : "0x600160015500",
                "nonce" : "0x00",
                "balance" : "0x17",
                "storage" : {
                    "0x01" : "0x01"
                }
            },
            "0x2adc25665018aa1fe0e6bc666dac8fc2697ff9ba" : {
                "code" : "0x",
                "nonce" : "0x00",
                "balance" : "0x1bc16d674eca2d59",
                "storage" : {
                }
            },
            "0x1000000000000000000000000000000000000002" : {
                "code" : "0x600060015500",
                "nonce" : "0x00",
                "balance" : "0x17",
                "storage" : {
                }
            },
            "0x1000000000000000000000000000000000000004" : {
                "code" : "0x60006000600060006001733000000000000000000000000000000000000003619c40f250600160015200",
                "nonce" : "0x00",
                "balance" : "0x17",
                "storage" : {
                }
            },
            "0x1000000000000000000000000000000000000003" : {
                "code" : "0x60006000600060006000732000000000000000000000000000000000000003619c40f150600160015200",
                "nonce" : "0x00",
                "balance" : "0x17",
                "storage" : {
                }
            },
            "0x1000000000000000000000000000000000000000" : {
                "code" : "0x6000600060006000600035620186a0fa6000555a60015500",
                "nonce" : "0x00",
                "balance" : "0x0de0b6b3a76586a0",
                "storage" : {
                    "0x01" : "0x0d630a"
                }
            }
        },
        "network" : "Istanbul",
        "sealEngine" : "NoProof",
        "lastblockhash" : "0x2bc3f395d2b775cd2d9959ed7cd4c92d688a2cb298abf1518218df09a578bcac",
        "genesisRLP" : "0xf901f8f901f3a00000000000000000000000000000000000000000000000000000000000000000a01dcc4de8dec75d7aab85b567b6ccd41ad312451b948a7413f0a142fd40d49347942adc25665018aa1fe0e6bc666dac8fc2697ff9baa02c35533a5d2b2dd1890c33b6095e01b38ae1571dab8bb27461a8f18343006d70a056e81f171bcc55a6ff8345e692c0f86e5b48e01b996cadc001622fb5e363b421a056e81f171bcc55a6ff8345e692c0f86e5b48e01b996cadc001622fb5e363b421b9010000000000000000000000000000000000000000000000000000000000000000000000000000000000000000000000000000000000000000000000000000000000000000000000000000000000000000000000000000000000000000000000000000000000000000000000000000000000000000000000000000000000000000000000000000000000000000000000000000000000000000000000000000000000000000000000000000000000000000000000000000000000000000000000000000000000000000000000000000000000000000000000000000000000000000000000000000000000000000000000000000000000000000000000000000000000830200008083989680808000a00000000000000000000000000000000000000000000000000000000000000000880000000000000000c0c0",
        "blocks" : [
            {
                "rlp" : "0xf90283f901f8a0b7e125825164b7daa5457a9b2a9a65475828bd517eba7b6c2caaf7e91f26138ea01dcc4de8dec75d7aab85b567b6ccd41ad312451b948a7413f0a142fd40d49347942adc25665018aa1fe0e6bc666dac8fc2697ff9baa05d28850df6058a91849086df28e09708d59d733d0574c39737b549e7d1c4dc24a04b69d416b858ee6279b5ceec80d4ef5442900efc216ee2e7e0f380a133546aada057066912f9934ee13d0d9edbf7885c8d142982b06c0c18a5a9bffa3b45bd0043b901000000000000000000000000000000000000000000000000000000000000000000000000000000000000000000000000000000000000000000000000000000000000000000000000000000000000000000000000000000000000000000000000000000000000000000000000000000000000000000000000000000000000000000000000000000000000000000000000000000000000000000000000000000000000000000000000000000000000000000000000000000000000000000000000000000000000000000000000000000000000000000000000000000000000000000000000000000000000000000000000000000000000000000000000000000000083020000018398bca483022d598203e800a00000000000000000000000000000000000000000000000000000000000000000880000000000000000f885f8838001830f4240941000000000000000000000000000000000000000830186a0a000000000000000000000000010000000000000000000000000000000000000021ca02860edcd234d97f7f8d5bb9e82f760d5d7b6e2a13e2629d96ed7003ff4188fe9a024826289d7a9f832ceaf701130e13fb01b0694a299972ceefb8769dbb43d1046c0",
                "blockHeader" : {
                    "bloom" : "0x00000000000000000000000000000000000000000000000000000000000000000000000000000000000000000000000000000000000000000000000000000000000000000000000000000000000000000000000000000000000000000000000000000000000000000000000000000000000000000000000000000000000000000000000000000000000000000000000000000000000000000000000000000000000000000000000000000000000000000000000000000000000000000000000000000000000000000000000000000000000000000000000000000000000000000000000000000000000000000000000000000000000000000000000000000000",
                    "coinbase" : "0x2adc25665018aa1fe0e6bc666dac8fc2697ff9ba",
                    "difficulty" : "0x20000",
                    "extraData" : "0x00",
                    "gasLimit" : "0x98bca4",
                    "gasUsed" : "0x22d59",
                    "hash" : "0x2bc3f395d2b775cd2d9959ed7cd4c92d688a2cb298abf1518218df09a578bcac",
                    "mixHash" : "0x0000000000000000000000000000000000000000000000000000000000000000",
                    "nonce" : "0x0000000000000000",
                    "number" : "0x1",
                    "parentHash" : "0xb7e125825164b7daa5457a9b2a9a65475828bd517eba7b6c2caaf7e91f26138e",
                    "receiptTrie" : "0x57066912f9934ee13d0d9edbf7885c8d142982b06c0c18a5a9bffa3b45bd0043",
                    "stateRoot" : "0x5d28850df6058a91849086df28e09708d59d733d0574c39737b549e7d1c4dc24",
                    "timestamp" : "0x3e8",
                    "transactionsTrie" : "0x4b69d416b858ee6279b5ceec80d4ef5442900efc216ee2e7e0f380a133546aad",
                    "uncleHash" : "0x1dcc4de8dec75d7aab85b567b6ccd41ad312451b948a7413f0a142fd40d49347"
                },
                "transactions" : [
                    {
                        "data" : "0x0000000000000000000000001000000000000000000000000000000000000002",
                        "gasLimit" : "0x0f4240",
                        "gasPrice" : "0x01",
                        "nonce" : "0x00",
                        "to" : "0x1000000000000000000000000000000000000000",
                        "value" : "0x0186a0",
                        "v" : "0x1c",
                        "r" : "0x2860edcd234d97f7f8d5bb9e82f760d5d7b6e2a13e2629d96ed7003ff4188fe9",
                        "s" : "0x24826289d7a9f832ceaf701130e13fb01b0694a299972ceefb8769dbb43d1046"
                    }
                ]
            }
        ]
    },
    "static_callBasic_d2g0v0_Istanbul" : {
        "_info" : {
            "comment" : "",
            "filling-rpc-server" : "Geth-1.9.6-unstable-63b18027-20190920",
            "filling-tool-version" : "retesteth-0.0.1+commit.0ae18aef.Linux.g++",
            "lllcversion" : "Version: 0.5.12-develop.2019.9.13+commit.2d601a4f.Linux.g++",
            "source" : "src/GeneralStateTestsFiller/stStaticCall/static_callBasicFiller.json",
            "sourceHash" : "080ebb7e2cbb79e17d9122c9273a13362410aef5d4f3ed5dd56f5fa24819ffac"
        },
        "genesisBlockHeader" : {
            "bloom" : "0x00000000000000000000000000000000000000000000000000000000000000000000000000000000000000000000000000000000000000000000000000000000000000000000000000000000000000000000000000000000000000000000000000000000000000000000000000000000000000000000000000000000000000000000000000000000000000000000000000000000000000000000000000000000000000000000000000000000000000000000000000000000000000000000000000000000000000000000000000000000000000000000000000000000000000000000000000000000000000000000000000000000000000000000000000000000",
            "coinbase" : "0x2adc25665018aa1fe0e6bc666dac8fc2697ff9ba",
            "difficulty" : "0x20000",
            "extraData" : "0x00",
            "gasLimit" : "0x989680",
            "gasUsed" : "0x0",
            "hash" : "0xb7e125825164b7daa5457a9b2a9a65475828bd517eba7b6c2caaf7e91f26138e",
            "mixHash" : "0x0000000000000000000000000000000000000000000000000000000000000000",
            "nonce" : "0x0000000000000000",
            "number" : "0x0",
            "parentHash" : "0x0000000000000000000000000000000000000000000000000000000000000000",
            "receiptTrie" : "0x56e81f171bcc55a6ff8345e692c0f86e5b48e01b996cadc001622fb5e363b421",
            "stateRoot" : "0x2c35533a5d2b2dd1890c33b6095e01b38ae1571dab8bb27461a8f18343006d70",
            "timestamp" : "0x0",
            "transactionsTrie" : "0x56e81f171bcc55a6ff8345e692c0f86e5b48e01b996cadc001622fb5e363b421",
            "uncleHash" : "0x1dcc4de8dec75d7aab85b567b6ccd41ad312451b948a7413f0a142fd40d49347"
        },
        "pre" : {
            "0x1000000000000000000000000000000000000000" : {
                "balance" : "0x0de0b6b3a7640000",
                "code" : "0x6000600060006000600035620186a0fa6000555a60015500",
                "nonce" : "0x00",
                "storage" : {
                }
            },
            "0x1000000000000000000000000000000000000001" : {
                "balance" : "0x17",
                "code" : "0x600160015500",
                "nonce" : "0x00",
                "storage" : {
                    "0x01" : "0x01"
                }
            },
            "0x1000000000000000000000000000000000000002" : {
                "balance" : "0x17",
                "code" : "0x600060015500",
                "nonce" : "0x00",
                "storage" : {
                    "0x01" : "0x00"
                }
            },
            "0x1000000000000000000000000000000000000003" : {
                "balance" : "0x17",
                "code" : "0x60006000600060006000732000000000000000000000000000000000000003619c40f150600160015200",
                "nonce" : "0x00",
                "storage" : {
                }
            },
            "0x1000000000000000000000000000000000000004" : {
                "balance" : "0x17",
                "code" : "0x60006000600060006001733000000000000000000000000000000000000003619c40f250600160015200",
                "nonce" : "0x00",
                "storage" : {
                }
            },
            "0x2000000000000000000000000000000000000003" : {
                "balance" : "0x17",
                "code" : "0x600a6001a0600160015200",
                "nonce" : "0x00",
                "storage" : {
                }
            },
            "0x3000000000000000000000000000000000000003" : {
                "balance" : "0x17",
                "code" : "0x600160015200",
                "nonce" : "0x00",
                "storage" : {
                }
            },
            "0xa94f5374fce5edbc8e2a8697c15331677e6ebf0b" : {
                "balance" : "0x0de0b6b3a7640000",
                "code" : "0x",
                "nonce" : "0x00",
                "storage" : {
                }
            }
        },
        "postState" : {
            "0xa94f5374fce5edbc8e2a8697c15331677e6ebf0b" : {
                "code" : "0x",
                "nonce" : "0x01",
                "balance" : "0x0de0b6b3a760e885",
                "storage" : {
                }
            },
            "0x2000000000000000000000000000000000000003" : {
                "code" : "0x600a6001a0600160015200",
                "nonce" : "0x00",
                "balance" : "0x17",
                "storage" : {
                }
            },
            "0x3000000000000000000000000000000000000003" : {
                "code" : "0x600160015200",
                "nonce" : "0x00",
                "balance" : "0x17",
                "storage" : {
                }
            },
            "0x1000000000000000000000000000000000000001" : {
                "code" : "0x600160015500",
                "nonce" : "0x00",
                "balance" : "0x17",
                "storage" : {
                    "0x01" : "0x01"
                }
            },
            "0x2adc25665018aa1fe0e6bc666dac8fc2697ff9ba" : {
                "code" : "0x",
                "nonce" : "0x00",
                "balance" : "0x1bc16d674ec990db",
                "storage" : {
                }
            },
            "0x1000000000000000000000000000000000000002" : {
                "code" : "0x600060015500",
                "nonce" : "0x00",
                "balance" : "0x17",
                "storage" : {
                }
            },
            "0x1000000000000000000000000000000000000004" : {
                "code" : "0x60006000600060006001733000000000000000000000000000000000000003619c40f250600160015200",
                "nonce" : "0x00",
                "balance" : "0x17",
                "storage" : {
                }
            },
            "0x1000000000000000000000000000000000000003" : {
                "code" : "0x60006000600060006000732000000000000000000000000000000000000003619c40f150600160015200",
                "nonce" : "0x00",
                "balance" : "0x17",
                "storage" : {
                }
            },
            "0x1000000000000000000000000000000000000000" : {
                "code" : "0x6000600060006000600035620186a0fa6000555a60015500",
                "nonce" : "0x00",
                "balance" : "0x0de0b6b3a76586a0",
                "storage" : {
                    "0x00" : "0x01",
                    "0x01" : "0x0dff88"
                }
            }
        },
        "network" : "Istanbul",
        "sealEngine" : "NoProof",
        "lastblockhash" : "0x7ea01e085db9f44d8883219cb687b94b4bf4485754d7527b80dcc7aab643243a",
        "genesisRLP" : "0xf901f8f901f3a00000000000000000000000000000000000000000000000000000000000000000a01dcc4de8dec75d7aab85b567b6ccd41ad312451b948a7413f0a142fd40d49347942adc25665018aa1fe0e6bc666dac8fc2697ff9baa02c35533a5d2b2dd1890c33b6095e01b38ae1571dab8bb27461a8f18343006d70a056e81f171bcc55a6ff8345e692c0f86e5b48e01b996cadc001622fb5e363b421a056e81f171bcc55a6ff8345e692c0f86e5b48e01b996cadc001622fb5e363b421b9010000000000000000000000000000000000000000000000000000000000000000000000000000000000000000000000000000000000000000000000000000000000000000000000000000000000000000000000000000000000000000000000000000000000000000000000000000000000000000000000000000000000000000000000000000000000000000000000000000000000000000000000000000000000000000000000000000000000000000000000000000000000000000000000000000000000000000000000000000000000000000000000000000000000000000000000000000000000000000000000000000000000000000000000000000000000830200008083989680808000a00000000000000000000000000000000000000000000000000000000000000000880000000000000000c0c0",
        "blocks" : [
            {
                "rlp" : "0xf90283f901f8a0b7e125825164b7daa5457a9b2a9a65475828bd517eba7b6c2caaf7e91f26138ea01dcc4de8dec75d7aab85b567b6ccd41ad312451b948a7413f0a142fd40d49347942adc25665018aa1fe0e6bc666dac8fc2697ff9baa0c4ae6eac69687de69a6b9527e720fbe41e00d52a4eb7db4f81b262dfab2f9287a04d8ac66f3942e2f6da0333b385f51291d87ec9382c51699a217a0f30d85f697aa062f5e435827f1946d226ab5b4371734a4595560e6a0a15db1441afcf58ae5f5eb901000000000000000000000000000000000000000000000000000000000000000000000000000000000000000000000000000000000000000000000000000000000000000000000000000000000000000000000000000000000000000000000000000000000000000000000000000000000000000000000000000000000000000000000000000000000000000000000000000000000000000000000000000000000000000000000000000000000000000000000000000000000000000000000000000000000000000000000000000000000000000000000000000000000000000000000000000000000000000000000000000000000000000000000000000000000083020000018398bca4830190db8203e800a00000000000000000000000000000000000000000000000000000000000000000880000000000000000f885f8838001830f4240941000000000000000000000000000000000000000830186a0a000000000000000000000000010000000000000000000000000000000000000031ca0d80aa6b3b64679a34da57e2b6aaa529a9d6ca4874e637f96ced855d96964412ba014b3b427ef6ed22e4384be450107d069c7c49e6c83a0c54ac233ef8852f464d6c0",
                "blockHeader" : {
                    "bloom" : "0x00000000000000000000000000000000000000000000000000000000000000000000000000000000000000000000000000000000000000000000000000000000000000000000000000000000000000000000000000000000000000000000000000000000000000000000000000000000000000000000000000000000000000000000000000000000000000000000000000000000000000000000000000000000000000000000000000000000000000000000000000000000000000000000000000000000000000000000000000000000000000000000000000000000000000000000000000000000000000000000000000000000000000000000000000000000",
                    "coinbase" : "0x2adc25665018aa1fe0e6bc666dac8fc2697ff9ba",
                    "difficulty" : "0x20000",
                    "extraData" : "0x00",
                    "gasLimit" : "0x98bca4",
                    "gasUsed" : "0x190db",
                    "hash" : "0x7ea01e085db9f44d8883219cb687b94b4bf4485754d7527b80dcc7aab643243a",
                    "mixHash" : "0x0000000000000000000000000000000000000000000000000000000000000000",
                    "nonce" : "0x0000000000000000",
                    "number" : "0x1",
                    "parentHash" : "0xb7e125825164b7daa5457a9b2a9a65475828bd517eba7b6c2caaf7e91f26138e",
                    "receiptTrie" : "0x62f5e435827f1946d226ab5b4371734a4595560e6a0a15db1441afcf58ae5f5e",
                    "stateRoot" : "0xc4ae6eac69687de69a6b9527e720fbe41e00d52a4eb7db4f81b262dfab2f9287",
                    "timestamp" : "0x3e8",
                    "transactionsTrie" : "0x4d8ac66f3942e2f6da0333b385f51291d87ec9382c51699a217a0f30d85f697a",
                    "uncleHash" : "0x1dcc4de8dec75d7aab85b567b6ccd41ad312451b948a7413f0a142fd40d49347"
                },
                "transactions" : [
                    {
                        "data" : "0x0000000000000000000000001000000000000000000000000000000000000003",
                        "gasLimit" : "0x0f4240",
                        "gasPrice" : "0x01",
                        "nonce" : "0x00",
                        "to" : "0x1000000000000000000000000000000000000000",
                        "value" : "0x0186a0",
                        "v" : "0x1c",
                        "r" : "0xd80aa6b3b64679a34da57e2b6aaa529a9d6ca4874e637f96ced855d96964412b",
                        "s" : "0x14b3b427ef6ed22e4384be450107d069c7c49e6c83a0c54ac233ef8852f464d6"
                    }
                ]
            }
        ]
    },
    "static_callBasic_d3g0v0_Istanbul" : {
        "_info" : {
            "comment" : "",
            "filling-rpc-server" : "Geth-1.9.6-unstable-63b18027-20190920",
            "filling-tool-version" : "retesteth-0.0.1+commit.0ae18aef.Linux.g++",
            "lllcversion" : "Version: 0.5.12-develop.2019.9.13+commit.2d601a4f.Linux.g++",
            "source" : "src/GeneralStateTestsFiller/stStaticCall/static_callBasicFiller.json",
            "sourceHash" : "080ebb7e2cbb79e17d9122c9273a13362410aef5d4f3ed5dd56f5fa24819ffac"
        },
        "genesisBlockHeader" : {
            "bloom" : "0x00000000000000000000000000000000000000000000000000000000000000000000000000000000000000000000000000000000000000000000000000000000000000000000000000000000000000000000000000000000000000000000000000000000000000000000000000000000000000000000000000000000000000000000000000000000000000000000000000000000000000000000000000000000000000000000000000000000000000000000000000000000000000000000000000000000000000000000000000000000000000000000000000000000000000000000000000000000000000000000000000000000000000000000000000000000",
            "coinbase" : "0x2adc25665018aa1fe0e6bc666dac8fc2697ff9ba",
            "difficulty" : "0x20000",
            "extraData" : "0x00",
            "gasLimit" : "0x989680",
            "gasUsed" : "0x0",
            "hash" : "0xb7e125825164b7daa5457a9b2a9a65475828bd517eba7b6c2caaf7e91f26138e",
            "mixHash" : "0x0000000000000000000000000000000000000000000000000000000000000000",
            "nonce" : "0x0000000000000000",
            "number" : "0x0",
            "parentHash" : "0x0000000000000000000000000000000000000000000000000000000000000000",
            "receiptTrie" : "0x56e81f171bcc55a6ff8345e692c0f86e5b48e01b996cadc001622fb5e363b421",
            "stateRoot" : "0x2c35533a5d2b2dd1890c33b6095e01b38ae1571dab8bb27461a8f18343006d70",
            "timestamp" : "0x0",
            "transactionsTrie" : "0x56e81f171bcc55a6ff8345e692c0f86e5b48e01b996cadc001622fb5e363b421",
            "uncleHash" : "0x1dcc4de8dec75d7aab85b567b6ccd41ad312451b948a7413f0a142fd40d49347"
        },
        "pre" : {
            "0x1000000000000000000000000000000000000000" : {
                "balance" : "0x0de0b6b3a7640000",
                "code" : "0x6000600060006000600035620186a0fa6000555a60015500",
                "nonce" : "0x00",
                "storage" : {
                }
            },
            "0x1000000000000000000000000000000000000001" : {
                "balance" : "0x17",
                "code" : "0x600160015500",
                "nonce" : "0x00",
                "storage" : {
                    "0x01" : "0x01"
                }
            },
            "0x1000000000000000000000000000000000000002" : {
                "balance" : "0x17",
                "code" : "0x600060015500",
                "nonce" : "0x00",
                "storage" : {
                    "0x01" : "0x00"
                }
            },
            "0x1000000000000000000000000000000000000003" : {
                "balance" : "0x17",
                "code" : "0x60006000600060006000732000000000000000000000000000000000000003619c40f150600160015200",
                "nonce" : "0x00",
                "storage" : {
                }
            },
            "0x1000000000000000000000000000000000000004" : {
                "balance" : "0x17",
                "code" : "0x60006000600060006001733000000000000000000000000000000000000003619c40f250600160015200",
                "nonce" : "0x00",
                "storage" : {
                }
            },
            "0x2000000000000000000000000000000000000003" : {
                "balance" : "0x17",
                "code" : "0x600a6001a0600160015200",
                "nonce" : "0x00",
                "storage" : {
                }
            },
            "0x3000000000000000000000000000000000000003" : {
                "balance" : "0x17",
                "code" : "0x600160015200",
                "nonce" : "0x00",
                "storage" : {
                }
            },
            "0xa94f5374fce5edbc8e2a8697c15331677e6ebf0b" : {
                "balance" : "0x0de0b6b3a7640000",
                "code" : "0x",
                "nonce" : "0x00",
                "storage" : {
                }
            }
        },
        "postState" : {
            "0xa94f5374fce5edbc8e2a8697c15331677e6ebf0b" : {
                "code" : "0x",
                "nonce" : "0x01",
                "balance" : "0x0de0b6b3a7616a8a",
                "storage" : {
                }
            },
            "0x2000000000000000000000000000000000000003" : {
                "code" : "0x600a6001a0600160015200",
                "nonce" : "0x00",
                "balance" : "0x17",
                "storage" : {
                }
            },
            "0x3000000000000000000000000000000000000003" : {
                "code" : "0x600160015200",
                "nonce" : "0x00",
                "balance" : "0x17",
                "storage" : {
                }
            },
            "0x1000000000000000000000000000000000000001" : {
                "code" : "0x600160015500",
                "nonce" : "0x00",
                "balance" : "0x17",
                "storage" : {
                    "0x01" : "0x01"
                }
            },
            "0x2adc25665018aa1fe0e6bc666dac8fc2697ff9ba" : {
                "code" : "0x",
                "nonce" : "0x00",
                "balance" : "0x1bc16d674ec90ed6",
                "storage" : {
                }
            },
            "0x1000000000000000000000000000000000000002" : {
                "code" : "0x600060015500",
                "nonce" : "0x00",
                "balance" : "0x17",
                "storage" : {
                }
            },
            "0x1000000000000000000000000000000000000004" : {
                "code" : "0x60006000600060006001733000000000000000000000000000000000000003619c40f250600160015200",
                "nonce" : "0x00",
                "balance" : "0x17",
                "storage" : {
                }
            },
            "0x1000000000000000000000000000000000000003" : {
                "code" : "0x60006000600060006000732000000000000000000000000000000000000003619c40f150600160015200",
                "nonce" : "0x00",
                "balance" : "0x17",
                "storage" : {
                }
            },
            "0x1000000000000000000000000000000000000000" : {
                "code" : "0x6000600060006000600035620186a0fa6000555a60015500",
                "nonce" : "0x00",
                "balance" : "0x0de0b6b3a76586a0",
                "storage" : {
                    "0x00" : "0x01",
                    "0x01" : "0x0e818d"
                }
            }
        },
        "network" : "Istanbul",
        "sealEngine" : "NoProof",
        "lastblockhash" : "0x25372f22afefdec86459f8673fd530966e3491d06fe3723bb4947676d0a5f244",
        "genesisRLP" : "0xf901f8f901f3a00000000000000000000000000000000000000000000000000000000000000000a01dcc4de8dec75d7aab85b567b6ccd41ad312451b948a7413f0a142fd40d49347942adc25665018aa1fe0e6bc666dac8fc2697ff9baa02c35533a5d2b2dd1890c33b6095e01b38ae1571dab8bb27461a8f18343006d70a056e81f171bcc55a6ff8345e692c0f86e5b48e01b996cadc001622fb5e363b421a056e81f171bcc55a6ff8345e692c0f86e5b48e01b996cadc001622fb5e363b421b9010000000000000000000000000000000000000000000000000000000000000000000000000000000000000000000000000000000000000000000000000000000000000000000000000000000000000000000000000000000000000000000000000000000000000000000000000000000000000000000000000000000000000000000000000000000000000000000000000000000000000000000000000000000000000000000000000000000000000000000000000000000000000000000000000000000000000000000000000000000000000000000000000000000000000000000000000000000000000000000000000000000000000000000000000000000000830200008083989680808000a00000000000000000000000000000000000000000000000000000000000000000880000000000000000c0c0",
        "blocks" : [
            {
                "rlp" : "0xf90283f901f8a0b7e125825164b7daa5457a9b2a9a65475828bd517eba7b6c2caaf7e91f26138ea01dcc4de8dec75d7aab85b567b6ccd41ad312451b948a7413f0a142fd40d49347942adc25665018aa1fe0e6bc666dac8fc2697ff9baa02bd63aa5d023ce5f3b6ab362d1ed363bfd201e5f12b24dba658f21c78efa7873a09ed2748cee584f0e6504352bd44a0cb7487a35363b7618ef055dd88ada815761a0ecb7b6641acee73645d12f49bae51c0e165213d854607c240de445b2186138b1b901000000000000000000000000000000000000000000000000000000000000000000000000000000000000000000000000000000000000000000000000000000000000000000000000000000000000000000000000000000000000000000000000000000000000000000000000000000000000000000000000000000000000000000000000000000000000000000000000000000000000000000000000000000000000000000000000000000000000000000000000000000000000000000000000000000000000000000000000000000000000000000000000000000000000000000000000000000000000000000000000000000000000000000000000000000000083020000018398bca483010ed68203e800a00000000000000000000000000000000000000000000000000000000000000000880000000000000000f885f8838001830f4240941000000000000000000000000000000000000000830186a0a000000000000000000000000010000000000000000000000000000000000000041ba0477d58183d2180a39650fb1f274a6083cadf8da6815224e410c85c4ca276d705a0045d66b27b0df3f1a4787be7372ef18695331d64d58d94c339f8a135655fa9c0c0",
                "blockHeader" : {
                    "bloom" : "0x00000000000000000000000000000000000000000000000000000000000000000000000000000000000000000000000000000000000000000000000000000000000000000000000000000000000000000000000000000000000000000000000000000000000000000000000000000000000000000000000000000000000000000000000000000000000000000000000000000000000000000000000000000000000000000000000000000000000000000000000000000000000000000000000000000000000000000000000000000000000000000000000000000000000000000000000000000000000000000000000000000000000000000000000000000000",
                    "coinbase" : "0x2adc25665018aa1fe0e6bc666dac8fc2697ff9ba",
                    "difficulty" : "0x20000",
                    "extraData" : "0x00",
                    "gasLimit" : "0x98bca4",
                    "gasUsed" : "0x10ed6",
                    "hash" : "0x25372f22afefdec86459f8673fd530966e3491d06fe3723bb4947676d0a5f244",
                    "mixHash" : "0x0000000000000000000000000000000000000000000000000000000000000000",
                    "nonce" : "0x0000000000000000",
                    "number" : "0x1",
                    "parentHash" : "0xb7e125825164b7daa5457a9b2a9a65475828bd517eba7b6c2caaf7e91f26138e",
                    "receiptTrie" : "0xecb7b6641acee73645d12f49bae51c0e165213d854607c240de445b2186138b1",
                    "stateRoot" : "0x2bd63aa5d023ce5f3b6ab362d1ed363bfd201e5f12b24dba658f21c78efa7873",
                    "timestamp" : "0x3e8",
                    "transactionsTrie" : "0x9ed2748cee584f0e6504352bd44a0cb7487a35363b7618ef055dd88ada815761",
                    "uncleHash" : "0x1dcc4de8dec75d7aab85b567b6ccd41ad312451b948a7413f0a142fd40d49347"
                },
                "transactions" : [
                    {
                        "data" : "0x0000000000000000000000001000000000000000000000000000000000000004",
                        "gasLimit" : "0x0f4240",
                        "gasPrice" : "0x01",
                        "nonce" : "0x00",
                        "to" : "0x1000000000000000000000000000000000000000",
                        "value" : "0x0186a0",
                        "v" : "0x1b",
                        "r" : "0x477d58183d2180a39650fb1f274a6083cadf8da6815224e410c85c4ca276d705",
                        "s" : "0x045d66b27b0df3f1a4787be7372ef18695331d64d58d94c339f8a135655fa9c0"
                    }
                ]
            }
        ]
    }
}