{
    "static_CallAskMoreGasOnDepth2ThenTransactionHas_d0g0v0_Istanbul" : {
        "_info" : {
            "comment" : "",
            "filling-rpc-server" : "Geth-1.9.6-unstable-63b18027-20190920",
            "filling-tool-version" : "retesteth-0.0.1+commit.0ae18aef.Linux.g++",
            "lllcversion" : "Version: 0.5.12-develop.2019.9.13+commit.2d601a4f.Linux.g++",
            "source" : "src/GeneralStateTestsFiller/stStaticCall/static_CallAskMoreGasOnDepth2ThenTransactionHasFiller.json",
            "sourceHash" : "7b21ccf926d3faaea8e177d3a18503612d953c89a01dea92583010b35ba7faab"
        },
        "genesisBlockHeader" : {
            "bloom" : "0x00000000000000000000000000000000000000000000000000000000000000000000000000000000000000000000000000000000000000000000000000000000000000000000000000000000000000000000000000000000000000000000000000000000000000000000000000000000000000000000000000000000000000000000000000000000000000000000000000000000000000000000000000000000000000000000000000000000000000000000000000000000000000000000000000000000000000000000000000000000000000000000000000000000000000000000000000000000000000000000000000000000000000000000000000000000",
            "coinbase" : "0x2adc25665018aa1fe0e6bc666dac8fc2697ff9ba",
            "difficulty" : "0x20000",
            "extraData" : "0x00",
            "gasLimit" : "0x989680",
            "gasUsed" : "0x0",
            "hash" : "0xf5ea6729f4d6be5eca2d290db682332d669192c82f4beb7566e1af6be4880912",
            "mixHash" : "0x0000000000000000000000000000000000000000000000000000000000000000",
            "nonce" : "0x0000000000000000",
            "number" : "0x0",
            "parentHash" : "0x0000000000000000000000000000000000000000000000000000000000000000",
            "receiptTrie" : "0x56e81f171bcc55a6ff8345e692c0f86e5b48e01b996cadc001622fb5e363b421",
            "stateRoot" : "0x36c26b2a3fe777bc8a5eeee5108c5aedcb4a63d74ffc0c0d1a89b347c94f26da",
            "timestamp" : "0x0",
            "transactionsTrie" : "0x56e81f171bcc55a6ff8345e692c0f86e5b48e01b996cadc001622fb5e363b421",
            "uncleHash" : "0x1dcc4de8dec75d7aab85b567b6ccd41ad312451b948a7413f0a142fd40d49347"
        },
        "pre" : {
            "0x1000000000000000000000000000000000000000" : {
                "balance" : "0x00",
                "code" : "0x6000600060006000346000355af16000555a60015500",
                "nonce" : "0x00",
                "storage" : {
                }
            },
            "0x1000000000000000000000000000000000000107" : {
                "balance" : "0x00",
                "code" : "0x5a6008526000600060006000731000000000000000000000000000000000000108620927c0fa60095200",
                "nonce" : "0x00",
                "storage" : {
                }
            },
            "0x1000000000000000000000000000000000000108" : {
                "balance" : "0x00",
                "code" : "0x5a60085500",
                "nonce" : "0x00",
                "storage" : {
                }
            },
            "0x2000000000000000000000000000000000000107" : {
                "balance" : "0x00",
                "code" : "0x5a6008526000600060006000732000000000000000000000000000000000000108620927c0fa60095200",
                "nonce" : "0x00",
                "storage" : {
                }
            },
            "0x2000000000000000000000000000000000000108" : {
                "balance" : "0x00",
                "code" : "0x5a60085200",
                "nonce" : "0x00",
                "storage" : {
                }
            },
            "0xa94f5374fce5edbc8e2a8697c15331677e6ebf0b" : {
                "balance" : "0xe8d4a51000",
                "code" : "0x",
                "nonce" : "0x00",
                "storage" : {
                }
            },
            "0xb94f5374fce5edbc8e2a8697c15331677e6ebf0b" : {
                "balance" : "0x00",
                "code" : "0x5a600855600060006000600073100000000000000000000000000000000000010762030d40fa60095500",
                "nonce" : "0x00",
                "storage" : {
                }
            },
            "0xc94f5374fce5edbc8e2a8697c15331677e6ebf0b" : {
                "balance" : "0x00",
                "code" : "0x5a600855600060006000600073200000000000000000000000000000000000010762030d40fa60095500",
                "nonce" : "0x00",
                "storage" : {
                }
            }
        },
        "postState" : {
            "0x1000000000000000000000000000000000000108" : {
                "code" : "0x5a60085500",
                "nonce" : "0x00",
                "balance" : "0x00",
                "storage" : {
                }
            },
            "0xa94f5374fce5edbc8e2a8697c15331677e6ebf0b" : {
                "code" : "0x",
                "nonce" : "0x01",
                "balance" : "0xe8d4a07d3b",
                "storage" : {
                }
            },
            "0xc94f5374fce5edbc8e2a8697c15331677e6ebf0b" : {
                "code" : "0x5a600855600060006000600073200000000000000000000000000000000000010762030d40fa60095500",
                "nonce" : "0x00",
                "balance" : "0x00",
                "storage" : {
                }
            },
            "0x2000000000000000000000000000000000000108" : {
                "code" : "0x5a60085200",
                "nonce" : "0x00",
                "balance" : "0x00",
                "storage" : {
                }
            },
            "0x2adc25665018aa1fe0e6bc666dac8fc2697ff9ba" : {
                "code" : "0x",
                "nonce" : "0x00",
                "balance" : "0x1bc16d674ecc92c5",
                "storage" : {
                }
            },
            "0x1000000000000000000000000000000000000107" : {
                "code" : "0x5a6008526000600060006000731000000000000000000000000000000000000108620927c0fa60095200",
                "nonce" : "0x00",
                "balance" : "0x00",
                "storage" : {
                }
            },
            "0x2000000000000000000000000000000000000107" : {
                "code" : "0x5a6008526000600060006000732000000000000000000000000000000000000108620927c0fa60095200",
                "nonce" : "0x00",
                "balance" : "0x00",
                "storage" : {
                }
            },
            "0xb94f5374fce5edbc8e2a8697c15331677e6ebf0b" : {
                "code" : "0x5a600855600060006000600073100000000000000000000000000000000000010762030d40fa60095500",
                "nonce" : "0x00",
                "balance" : "0x00",
                "storage" : {
                    "0x09" : "0x01",
                    "0x08" : "0x08ae2f"
                }
            },
            "0x1000000000000000000000000000000000000000" : {
                "code" : "0x6000600060006000346000355af16000555a60015500",
                "nonce" : "0x00",
                "balance" : "0x00",
                "storage" : {
                    "0x00" : "0x01",
                    "0x01" : "0x04e31e"
                }
            }
        },
        "network" : "Istanbul",
        "sealEngine" : "NoProof",
        "lastblockhash" : "0x8f240ba37fac916e1ef691088017bdddb68d326348b63c75be69b77b0440ee60",
        "genesisRLP" : "0xf901f8f901f3a00000000000000000000000000000000000000000000000000000000000000000a01dcc4de8dec75d7aab85b567b6ccd41ad312451b948a7413f0a142fd40d49347942adc25665018aa1fe0e6bc666dac8fc2697ff9baa036c26b2a3fe777bc8a5eeee5108c5aedcb4a63d74ffc0c0d1a89b347c94f26daa056e81f171bcc55a6ff8345e692c0f86e5b48e01b996cadc001622fb5e363b421a056e81f171bcc55a6ff8345e692c0f86e5b48e01b996cadc001622fb5e363b421b9010000000000000000000000000000000000000000000000000000000000000000000000000000000000000000000000000000000000000000000000000000000000000000000000000000000000000000000000000000000000000000000000000000000000000000000000000000000000000000000000000000000000000000000000000000000000000000000000000000000000000000000000000000000000000000000000000000000000000000000000000000000000000000000000000000000000000000000000000000000000000000000000000000000000000000000000000000000000000000000000000000000000000000000000000000000000830200008083989680808000a00000000000000000000000000000000000000000000000000000000000000000880000000000000000c0c0",
        "blocks" : [
            {
                "rlp" : "0xf90280f901f8a0f5ea6729f4d6be5eca2d290db682332d669192c82f4beb7566e1af6be4880912a01dcc4de8dec75d7aab85b567b6ccd41ad312451b948a7413f0a142fd40d49347942adc25665018aa1fe0e6bc666dac8fc2697ff9baa06b3420b5e89e79e343260850ff53f953f2b5616185f90eeac8dc2d7a6639fa82a06a91485ebd92983e9fc8bb1c340fba67d5532407063ed68a4c343f028bbb68f2a004028c6b19b5231115cc8c751b3460ab48883f26250734127519616826721bdab901000000000000000000000000000000000000000000000000000000000000000000000000000000000000000000000000000000000000000000000000000000000000000000000000000000000000000000000000000000000000000000000000000000000000000000000000000000000000000000000000000000000000000000000000000000000000000000000000000000000000000000000000000000000000000000000000000000000000000000000000000000000000000000000000000000000000000000000000000000000000000000000000000000000000000000000000000000000000000000000000000000000000000000000000000000000083020000018398bca4830492c58203e800a00000000000000000000000000000000000000000000000000000000000000000880000000000000000f882f8808001830927c094100000000000000000000000000000000000000080a0000000000000000000000000b94f5374fce5edbc8e2a8697c15331677e6ebf0b1ca01834d29043de1554b50b121bc822c5747e494ee9eb8093ac02a18ecbe4a0725da07157945de850198040cd2c2eaba5388b54c1ce09b13e04a2e6bd678501440fa5c0",
                "blockHeader" : {
                    "bloom" : "0x00000000000000000000000000000000000000000000000000000000000000000000000000000000000000000000000000000000000000000000000000000000000000000000000000000000000000000000000000000000000000000000000000000000000000000000000000000000000000000000000000000000000000000000000000000000000000000000000000000000000000000000000000000000000000000000000000000000000000000000000000000000000000000000000000000000000000000000000000000000000000000000000000000000000000000000000000000000000000000000000000000000000000000000000000000000",
                    "coinbase" : "0x2adc25665018aa1fe0e6bc666dac8fc2697ff9ba",
                    "difficulty" : "0x20000",
                    "extraData" : "0x00",
                    "gasLimit" : "0x98bca4",
                    "gasUsed" : "0x492c5",
                    "hash" : "0x8f240ba37fac916e1ef691088017bdddb68d326348b63c75be69b77b0440ee60",
                    "mixHash" : "0x0000000000000000000000000000000000000000000000000000000000000000",
                    "nonce" : "0x0000000000000000",
                    "number" : "0x1",
                    "parentHash" : "0xf5ea6729f4d6be5eca2d290db682332d669192c82f4beb7566e1af6be4880912",
                    "receiptTrie" : "0x04028c6b19b5231115cc8c751b3460ab48883f26250734127519616826721bda",
                    "stateRoot" : "0x6b3420b5e89e79e343260850ff53f953f2b5616185f90eeac8dc2d7a6639fa82",
                    "timestamp" : "0x3e8",
                    "transactionsTrie" : "0x6a91485ebd92983e9fc8bb1c340fba67d5532407063ed68a4c343f028bbb68f2",
                    "uncleHash" : "0x1dcc4de8dec75d7aab85b567b6ccd41ad312451b948a7413f0a142fd40d49347"
                },
                "transactions" : [
                    {
                        "data" : "0x000000000000000000000000b94f5374fce5edbc8e2a8697c15331677e6ebf0b",
                        "gasLimit" : "0x0927c0",
                        "gasPrice" : "0x01",
                        "nonce" : "0x00",
                        "to" : "0x1000000000000000000000000000000000000000",
                        "value" : "0x00",
                        "v" : "0x1c",
                        "r" : "0x1834d29043de1554b50b121bc822c5747e494ee9eb8093ac02a18ecbe4a0725d",
                        "s" : "0x7157945de850198040cd2c2eaba5388b54c1ce09b13e04a2e6bd678501440fa5"
                    }
                ]
            }
        ]
    },
    "static_CallAskMoreGasOnDepth2ThenTransactionHas_d1g0v0_Istanbul" : {
        "_info" : {
            "comment" : "",
            "filling-rpc-server" : "Geth-1.9.6-unstable-63b18027-20190920",
            "filling-tool-version" : "retesteth-0.0.1+commit.0ae18aef.Linux.g++",
            "lllcversion" : "Version: 0.5.12-develop.2019.9.13+commit.2d601a4f.Linux.g++",
            "source" : "src/GeneralStateTestsFiller/stStaticCall/static_CallAskMoreGasOnDepth2ThenTransactionHasFiller.json",
            "sourceHash" : "7b21ccf926d3faaea8e177d3a18503612d953c89a01dea92583010b35ba7faab"
        },
        "genesisBlockHeader" : {
            "bloom" : "0x00000000000000000000000000000000000000000000000000000000000000000000000000000000000000000000000000000000000000000000000000000000000000000000000000000000000000000000000000000000000000000000000000000000000000000000000000000000000000000000000000000000000000000000000000000000000000000000000000000000000000000000000000000000000000000000000000000000000000000000000000000000000000000000000000000000000000000000000000000000000000000000000000000000000000000000000000000000000000000000000000000000000000000000000000000000",
            "coinbase" : "0x2adc25665018aa1fe0e6bc666dac8fc2697ff9ba",
            "difficulty" : "0x20000",
            "extraData" : "0x00",
            "gasLimit" : "0x989680",
            "gasUsed" : "0x0",
            "hash" : "0xf5ea6729f4d6be5eca2d290db682332d669192c82f4beb7566e1af6be4880912",
            "mixHash" : "0x0000000000000000000000000000000000000000000000000000000000000000",
            "nonce" : "0x0000000000000000",
            "number" : "0x0",
            "parentHash" : "0x0000000000000000000000000000000000000000000000000000000000000000",
            "receiptTrie" : "0x56e81f171bcc55a6ff8345e692c0f86e5b48e01b996cadc001622fb5e363b421",
            "stateRoot" : "0x36c26b2a3fe777bc8a5eeee5108c5aedcb4a63d74ffc0c0d1a89b347c94f26da",
            "timestamp" : "0x0",
            "transactionsTrie" : "0x56e81f171bcc55a6ff8345e692c0f86e5b48e01b996cadc001622fb5e363b421",
            "uncleHash" : "0x1dcc4de8dec75d7aab85b567b6ccd41ad312451b948a7413f0a142fd40d49347"
        },
        "pre" : {
            "0x1000000000000000000000000000000000000000" : {
                "balance" : "0x00",
                "code" : "0x6000600060006000346000355af16000555a60015500",
                "nonce" : "0x00",
                "storage" : {
                }
            },
            "0x1000000000000000000000000000000000000107" : {
                "balance" : "0x00",
                "code" : "0x5a6008526000600060006000731000000000000000000000000000000000000108620927c0fa60095200",
                "nonce" : "0x00",
                "storage" : {
                }
            },
            "0x1000000000000000000000000000000000000108" : {
                "balance" : "0x00",
                "code" : "0x5a60085500",
                "nonce" : "0x00",
                "storage" : {
                }
            },
            "0x2000000000000000000000000000000000000107" : {
                "balance" : "0x00",
                "code" : "0x5a6008526000600060006000732000000000000000000000000000000000000108620927c0fa60095200",
                "nonce" : "0x00",
                "storage" : {
                }
            },
            "0x2000000000000000000000000000000000000108" : {
                "balance" : "0x00",
                "code" : "0x5a60085200",
                "nonce" : "0x00",
                "storage" : {
                }
            },
            "0xa94f5374fce5edbc8e2a8697c15331677e6ebf0b" : {
                "balance" : "0xe8d4a51000",
                "code" : "0x",
                "nonce" : "0x00",
                "storage" : {
                }
            },
            "0xb94f5374fce5edbc8e2a8697c15331677e6ebf0b" : {
                "balance" : "0x00",
                "code" : "0x5a600855600060006000600073100000000000000000000000000000000000010762030d40fa60095500",
                "nonce" : "0x00",
                "storage" : {
                }
            },
            "0xc94f5374fce5edbc8e2a8697c15331677e6ebf0b" : {
                "balance" : "0x00",
                "code" : "0x5a600855600060006000600073200000000000000000000000000000000000010762030d40fa60095500",
                "nonce" : "0x00",
                "storage" : {
                }
            }
        },
        "postState" : {
            "0x1000000000000000000000000000000000000108" : {
                "code" : "0x5a60085500",
                "nonce" : "0x00",
                "balance" : "0x00",
                "storage" : {
                }
            },
            "0xa94f5374fce5edbc8e2a8697c15331677e6ebf0b" : {
                "code" : "0x",
                "nonce" : "0x01",
                "balance" : "0xe8d4a37b68",
                "storage" : {
                }
            },
            "0xc94f5374fce5edbc8e2a8697c15331677e6ebf0b" : {
                "code" : "0x5a600855600060006000600073200000000000000000000000000000000000010762030d40fa60095500",
                "nonce" : "0x00",
                "balance" : "0x00",
                "storage" : {
                    "0x09" : "0x01",
                    "0x08" : "0x08ae2f"
                }
            },
            "0x2000000000000000000000000000000000000108" : {
                "code" : "0x5a60085200",
                "nonce" : "0x00",
                "balance" : "0x00",
                "storage" : {
                }
            },
            "0x2adc25665018aa1fe0e6bc666dac8fc2697ff9ba" : {
                "code" : "0x",
                "nonce" : "0x00",
                "balance" : "0x1bc16d674ec99498",
                "storage" : {
                }
            },
            "0x1000000000000000000000000000000000000107" : {
                "code" : "0x5a6008526000600060006000731000000000000000000000000000000000000108620927c0fa60095200",
                "nonce" : "0x00",
                "balance" : "0x00",
                "storage" : {
                }
            },
            "0x2000000000000000000000000000000000000107" : {
                "code" : "0x5a6008526000600060006000732000000000000000000000000000000000000108620927c0fa60095200",
                "nonce" : "0x00",
                "balance" : "0x00",
                "storage" : {
                }
            },
            "0xb94f5374fce5edbc8e2a8697c15331677e6ebf0b" : {
                "code" : "0x5a600855600060006000600073100000000000000000000000000000000000010762030d40fa60095500",
                "nonce" : "0x00",
                "balance" : "0x00",
                "storage" : {
                }
            },
            "0x1000000000000000000000000000000000000000" : {
                "code" : "0x6000600060006000346000355af16000555a60015500",
                "nonce" : "0x00",
                "balance" : "0x00",
                "storage" : {
                    "0x00" : "0x01",
                    "0x01" : "0x07e14b"
                }
            }
        },
        "network" : "Istanbul",
        "sealEngine" : "NoProof",
        "lastblockhash" : "0x31561e0bf5c0146d7d15e7d694bc4814d1f69e72029e9e60552a75abb3fec693",
        "genesisRLP" : "0xf901f8f901f3a00000000000000000000000000000000000000000000000000000000000000000a01dcc4de8dec75d7aab85b567b6ccd41ad312451b948a7413f0a142fd40d49347942adc25665018aa1fe0e6bc666dac8fc2697ff9baa036c26b2a3fe777bc8a5eeee5108c5aedcb4a63d74ffc0c0d1a89b347c94f26daa056e81f171bcc55a6ff8345e692c0f86e5b48e01b996cadc001622fb5e363b421a056e81f171bcc55a6ff8345e692c0f86e5b48e01b996cadc001622fb5e363b421b9010000000000000000000000000000000000000000000000000000000000000000000000000000000000000000000000000000000000000000000000000000000000000000000000000000000000000000000000000000000000000000000000000000000000000000000000000000000000000000000000000000000000000000000000000000000000000000000000000000000000000000000000000000000000000000000000000000000000000000000000000000000000000000000000000000000000000000000000000000000000000000000000000000000000000000000000000000000000000000000000000000000000000000000000000000000000830200008083989680808000a00000000000000000000000000000000000000000000000000000000000000000880000000000000000c0c0",
        "blocks" : [
            {
                "rlp" : "0xf90280f901f8a0f5ea6729f4d6be5eca2d290db682332d669192c82f4beb7566e1af6be4880912a01dcc4de8dec75d7aab85b567b6ccd41ad312451b948a7413f0a142fd40d49347942adc25665018aa1fe0e6bc666dac8fc2697ff9baa093f1e28cf9e13a2594312633269a93b41a56c25c121bbf7b589a48d8d7d82134a0bef3d29d4653e0ba97ba493f2ee617cdedbeb2322acb191beafb821eb2d23a59a0d6f999347dbce8c144c803cc3b8c5113a29db03ad7ca6eb6b5518df5fb8de4f7b901000000000000000000000000000000000000000000000000000000000000000000000000000000000000000000000000000000000000000000000000000000000000000000000000000000000000000000000000000000000000000000000000000000000000000000000000000000000000000000000000000000000000000000000000000000000000000000000000000000000000000000000000000000000000000000000000000000000000000000000000000000000000000000000000000000000000000000000000000000000000000000000000000000000000000000000000000000000000000000000000000000000000000000000000000000000083020000018398bca4830194988203e800a00000000000000000000000000000000000000000000000000000000000000000880000000000000000f882f8808001830927c094100000000000000000000000000000000000000080a0000000000000000000000000c94f5374fce5edbc8e2a8697c15331677e6ebf0b1ca095a8ca84c5432f3f02eb06b3e0361c0135d1e865c5622805cf5d110bb22bf0cca05492704f0c1e0351061be0bcb15c635c8f0715cfcab9b7b12f3620d3b2c1566ec0",
                "blockHeader" : {
                    "bloom" : "0x00000000000000000000000000000000000000000000000000000000000000000000000000000000000000000000000000000000000000000000000000000000000000000000000000000000000000000000000000000000000000000000000000000000000000000000000000000000000000000000000000000000000000000000000000000000000000000000000000000000000000000000000000000000000000000000000000000000000000000000000000000000000000000000000000000000000000000000000000000000000000000000000000000000000000000000000000000000000000000000000000000000000000000000000000000000",
                    "coinbase" : "0x2adc25665018aa1fe0e6bc666dac8fc2697ff9ba",
                    "difficulty" : "0x20000",
                    "extraData" : "0x00",
                    "gasLimit" : "0x98bca4",
                    "gasUsed" : "0x19498",
                    "hash" : "0x31561e0bf5c0146d7d15e7d694bc4814d1f69e72029e9e60552a75abb3fec693",
                    "mixHash" : "0x0000000000000000000000000000000000000000000000000000000000000000",
                    "nonce" : "0x0000000000000000",
                    "number" : "0x1",
                    "parentHash" : "0xf5ea6729f4d6be5eca2d290db682332d669192c82f4beb7566e1af6be4880912",
                    "receiptTrie" : "0xd6f999347dbce8c144c803cc3b8c5113a29db03ad7ca6eb6b5518df5fb8de4f7",
                    "stateRoot" : "0x93f1e28cf9e13a2594312633269a93b41a56c25c121bbf7b589a48d8d7d82134",
                    "timestamp" : "0x3e8",
                    "transactionsTrie" : "0xbef3d29d4653e0ba97ba493f2ee617cdedbeb2322acb191beafb821eb2d23a59",
                    "uncleHash" : "0x1dcc4de8dec75d7aab85b567b6ccd41ad312451b948a7413f0a142fd40d49347"
                },
                "transactions" : [
                    {
                        "data" : "0x000000000000000000000000c94f5374fce5edbc8e2a8697c15331677e6ebf0b",
                        "gasLimit" : "0x0927c0",
                        "gasPrice" : "0x01",
                        "nonce" : "0x00",
                        "to" : "0x1000000000000000000000000000000000000000",
                        "value" : "0x00",
                        "v" : "0x1c",
                        "r" : "0x95a8ca84c5432f3f02eb06b3e0361c0135d1e865c5622805cf5d110bb22bf0cc",
                        "s" : "0x5492704f0c1e0351061be0bcb15c635c8f0715cfcab9b7b12f3620d3b2c1566e"
                    }
                ]
            }
        ]
    }
}