{
    "static_callcallcodecallcode_011_OOGMBefore2_d0g0v0_Istanbul" : {
        "_info" : {
            "comment" : "",
            "filling-rpc-server" : "Geth-1.9.6-unstable-63b18027-20190920",
            "filling-tool-version" : "retesteth-0.0.1+commit.0ae18aef.Linux.g++",
            "lllcversion" : "Version: 0.5.12-develop.2019.9.13+commit.2d601a4f.Linux.g++",
            "source" : "src/GeneralStateTestsFiller/stStaticCall/static_callcallcodecallcode_011_OOGMBefore2Filler.json",
            "sourceHash" : "d25060709fa9d0e7ed38cc9207d6d66b7cff3636e455bc67fee4b24a39f9c219"
        },
        "genesisBlockHeader" : {
            "bloom" : "0x00000000000000000000000000000000000000000000000000000000000000000000000000000000000000000000000000000000000000000000000000000000000000000000000000000000000000000000000000000000000000000000000000000000000000000000000000000000000000000000000000000000000000000000000000000000000000000000000000000000000000000000000000000000000000000000000000000000000000000000000000000000000000000000000000000000000000000000000000000000000000000000000000000000000000000000000000000000000000000000000000000000000000000000000000000000",
            "coinbase" : "0x2adc25665018aa1fe0e6bc666dac8fc2697ff9ba",
            "difficulty" : "0x20000",
            "extraData" : "0x00",
            "gasLimit" : "0x1c9c380",
            "gasUsed" : "0x0",
            "hash" : "0xb289aead41d04f402b57c127be64af7fc8cc44c4836a88427745bb50ff389492",
            "mixHash" : "0x0000000000000000000000000000000000000000000000000000000000000000",
            "nonce" : "0x0000000000000000",
            "number" : "0x0",
            "parentHash" : "0x0000000000000000000000000000000000000000000000000000000000000000",
            "receiptTrie" : "0x56e81f171bcc55a6ff8345e692c0f86e5b48e01b996cadc001622fb5e363b421",
            "stateRoot" : "0xf37f60e4e9ea751d34e8a894ba8657b4fa473568b39e382e69490ee000c66b35",
            "timestamp" : "0x0",
            "transactionsTrie" : "0x56e81f171bcc55a6ff8345e692c0f86e5b48e01b996cadc001622fb5e363b421",
            "uncleHash" : "0x1dcc4de8dec75d7aab85b567b6ccd41ad312451b948a7413f0a142fd40d49347"
        },
        "pre" : {
            "0x1000000000000000000000000000000000000000" : {
                "balance" : "0x0de0b6b3a7640000",
                "code" : "0x6000356000526040600060406000731000000000000000000000000000000000000001620249f0fa6000555a60015500",
                "nonce" : "0x00",
                "storage" : {
                }
            },
            "0x1000000000000000000000000000000000000001" : {
                "balance" : "0x00",
                "code" : "0x600160205260406000604060006000600035619c90f250600160205200",
                "nonce" : "0x00",
                "storage" : {
                }
            },
            "0x1000000000000000000000000000000000000002" : {
                "balance" : "0x00",
                "code" : "0x600160035560406000604060006000731000000000000000000000000000000000000003614e34f250600160205200",
                "nonce" : "0x00",
                "storage" : {
                }
            },
            "0x1000000000000000000000000000000000000003" : {
                "balance" : "0x00",
                "code" : "0x600160205200",
                "nonce" : "0x00",
                "storage" : {
                }
            },
            "0x2000000000000000000000000000000000000002" : {
                "balance" : "0x00",
                "code" : "0x5b61c3506080511015601c5760013b506001608051016080526000565b60406000604060006000731000000000000000000000000000000000000003614e34f250600160205200",
                "nonce" : "0x00",
                "storage" : {
                }
            },
            "0x3000000000000000000000000000000000000002" : {
                "balance" : "0x0a",
                "code" : "0x60406000604060006001731000000000000000000000000000000000000003614e34f250600160205200",
                "nonce" : "0x00",
                "storage" : {
                }
            },
            "0xa94f5374fce5edbc8e2a8697c15331677e6ebf0b" : {
                "balance" : "0x0de0b6b3a7640000",
                "code" : "0x",
                "nonce" : "0x00",
                "storage" : {
                }
            }
        },
        "postState" : {
            "0xa94f5374fce5edbc8e2a8697c15331677e6ebf0b" : {
                "code" : "0x",
                "nonce" : "0x01",
                "balance" : "0x0de0b6b3a7626eba",
                "storage" : {
                }
            },
            "0x2000000000000000000000000000000000000002" : {
                "code" : "0x5b61c3506080511015601c5760013b506001608051016080526000565b60406000604060006000731000000000000000000000000000000000000003614e34f250600160205200",
                "nonce" : "0x00",
                "balance" : "0x00",
                "storage" : {
                }
            },
            "0x3000000000000000000000000000000000000002" : {
                "code" : "0x60406000604060006001731000000000000000000000000000000000000003614e34f250600160205200",
                "nonce" : "0x00",
                "balance" : "0x0a",
                "storage" : {
                }
            },
            "0x1000000000000000000000000000000000000001" : {
                "code" : "0x600160205260406000604060006000600035619c90f250600160205200",
                "nonce" : "0x00",
                "balance" : "0x00",
                "storage" : {
                }
            },
            "0x2adc25665018aa1fe0e6bc666dac8fc2697ff9ba" : {
                "code" : "0x",
                "nonce" : "0x00",
                "balance" : "0x1bc16d674ec99146",
                "storage" : {
                }
            },
            "0x1000000000000000000000000000000000000002" : {
                "code" : "0x600160035560406000604060006000731000000000000000000000000000000000000003614e34f250600160205200",
                "nonce" : "0x00",
                "balance" : "0x00",
                "storage" : {
                }
            },
            "0x1000000000000000000000000000000000000003" : {
                "code" : "0x600160205200",
                "nonce" : "0x00",
                "balance" : "0x00",
                "storage" : {
                }
            },
            "0x1000000000000000000000000000000000000000" : {
                "code" : "0x6000356000526040600060406000731000000000000000000000000000000000000001620249f0fa6000555a60015500",
                "nonce" : "0x00",
                "balance" : "0x0de0b6b3a7640000",
                "storage" : {
                    "0x00" : "0x01",
                    "0x01" : "0x015cbd"
                }
            }
        },
        "network" : "Istanbul",
        "sealEngine" : "NoProof",
        "lastblockhash" : "0x0df3f3085146195066b6430b127bc5cce38223cc03adc9b07aa03d8c6f43b70d",
        "genesisRLP" : "0xf901f9f901f4a00000000000000000000000000000000000000000000000000000000000000000a01dcc4de8dec75d7aab85b567b6ccd41ad312451b948a7413f0a142fd40d49347942adc25665018aa1fe0e6bc666dac8fc2697ff9baa0f37f60e4e9ea751d34e8a894ba8657b4fa473568b39e382e69490ee000c66b35a056e81f171bcc55a6ff8345e692c0f86e5b48e01b996cadc001622fb5e363b421a056e81f171bcc55a6ff8345e692c0f86e5b48e01b996cadc001622fb5e363b421b901000000000000000000000000000000000000000000000000000000000000000000000000000000000000000000000000000000000000000000000000000000000000000000000000000000000000000000000000000000000000000000000000000000000000000000000000000000000000000000000000000000000000000000000000000000000000000000000000000000000000000000000000000000000000000000000000000000000000000000000000000000000000000000000000000000000000000000000000000000000000000000000000000000000000000000000000000000000000000000000000000000000000000000000000000000000083020000808401c9c380808000a00000000000000000000000000000000000000000000000000000000000000000880000000000000000c0c0",
        "blocks" : [
            {
                "rlp" : "0xf90281f901f9a0b289aead41d04f402b57c127be64af7fc8cc44c4836a88427745bb50ff389492a01dcc4de8dec75d7aab85b567b6ccd41ad312451b948a7413f0a142fd40d49347942adc25665018aa1fe0e6bc666dac8fc2697ff9baa06a07f395bca3bca13aa6bd98989ffba9d25aac2d97fd12508a2f11d15623bb82a06e9e32a8be17ae614397d78a3e0615b219ee54784a6e55c074bdfcc7eebf3076a0c5ea024b9fc6333c108a45510d2918b871ea614bd25b24c1db2c187065fb8e2ab901000000000000000000000000000000000000000000000000000000000000000000000000000000000000000000000000000000000000000000000000000000000000000000000000000000000000000000000000000000000000000000000000000000000000000000000000000000000000000000000000000000000000000000000000000000000000000000000000000000000000000000000000000000000000000000000000000000000000000000000000000000000000000000000000000000000000000000000000000000000000000000000000000000000000000000000000000000000000000000000000000000000000000000000000000000000083020000018401ca35ef830191468203e800a00000000000000000000000000000000000000000000000000000000000000000880000000000000000f882f880800183029fe094100000000000000000000000000000000000000080a000000000000000000000000010000000000000000000000000000000000000021ba0249e964b34a6a11fdd0488a157cd27ff5bf78eeeea9fc5442135c175b165bbc1a00a5218a0696154a1a5a2de31afd22294a9369e28676d37e30553e9977e0618e3c0",
                "blockHeader" : {
                    "bloom" : "0x00000000000000000000000000000000000000000000000000000000000000000000000000000000000000000000000000000000000000000000000000000000000000000000000000000000000000000000000000000000000000000000000000000000000000000000000000000000000000000000000000000000000000000000000000000000000000000000000000000000000000000000000000000000000000000000000000000000000000000000000000000000000000000000000000000000000000000000000000000000000000000000000000000000000000000000000000000000000000000000000000000000000000000000000000000000",
                    "coinbase" : "0x2adc25665018aa1fe0e6bc666dac8fc2697ff9ba",
                    "difficulty" : "0x20000",
                    "extraData" : "0x00",
                    "gasLimit" : "0x1ca35ef",
                    "gasUsed" : "0x19146",
                    "hash" : "0x0df3f3085146195066b6430b127bc5cce38223cc03adc9b07aa03d8c6f43b70d",
                    "mixHash" : "0x0000000000000000000000000000000000000000000000000000000000000000",
                    "nonce" : "0x0000000000000000",
                    "number" : "0x1",
                    "parentHash" : "0xb289aead41d04f402b57c127be64af7fc8cc44c4836a88427745bb50ff389492",
                    "receiptTrie" : "0xc5ea024b9fc6333c108a45510d2918b871ea614bd25b24c1db2c187065fb8e2a",
                    "stateRoot" : "0x6a07f395bca3bca13aa6bd98989ffba9d25aac2d97fd12508a2f11d15623bb82",
                    "timestamp" : "0x3e8",
                    "transactionsTrie" : "0x6e9e32a8be17ae614397d78a3e0615b219ee54784a6e55c074bdfcc7eebf3076",
                    "uncleHash" : "0x1dcc4de8dec75d7aab85b567b6ccd41ad312451b948a7413f0a142fd40d49347"
                },
                "transactions" : [
                    {
                        "data" : "0x0000000000000000000000001000000000000000000000000000000000000002",
                        "gasLimit" : "0x029fe0",
                        "gasPrice" : "0x01",
                        "nonce" : "0x00",
                        "to" : "0x1000000000000000000000000000000000000000",
                        "value" : "0x00",
                        "v" : "0x1b",
                        "r" : "0x249e964b34a6a11fdd0488a157cd27ff5bf78eeeea9fc5442135c175b165bbc1",
                        "s" : "0x0a5218a0696154a1a5a2de31afd22294a9369e28676d37e30553e9977e0618e3"
                    }
                ]
            }
        ]
    },
    "static_callcallcodecallcode_011_OOGMBefore2_d1g0v0_Istanbul" : {
        "_info" : {
            "comment" : "",
            "filling-rpc-server" : "Geth-1.9.6-unstable-63b18027-20190920",
            "filling-tool-version" : "retesteth-0.0.1+commit.0ae18aef.Linux.g++",
            "lllcversion" : "Version: 0.5.12-develop.2019.9.13+commit.2d601a4f.Linux.g++",
            "source" : "src/GeneralStateTestsFiller/stStaticCall/static_callcallcodecallcode_011_OOGMBefore2Filler.json",
            "sourceHash" : "d25060709fa9d0e7ed38cc9207d6d66b7cff3636e455bc67fee4b24a39f9c219"
        },
        "genesisBlockHeader" : {
            "bloom" : "0x00000000000000000000000000000000000000000000000000000000000000000000000000000000000000000000000000000000000000000000000000000000000000000000000000000000000000000000000000000000000000000000000000000000000000000000000000000000000000000000000000000000000000000000000000000000000000000000000000000000000000000000000000000000000000000000000000000000000000000000000000000000000000000000000000000000000000000000000000000000000000000000000000000000000000000000000000000000000000000000000000000000000000000000000000000000",
            "coinbase" : "0x2adc25665018aa1fe0e6bc666dac8fc2697ff9ba",
            "difficulty" : "0x20000",
            "extraData" : "0x00",
            "gasLimit" : "0x1c9c380",
            "gasUsed" : "0x0",
            "hash" : "0xb289aead41d04f402b57c127be64af7fc8cc44c4836a88427745bb50ff389492",
            "mixHash" : "0x0000000000000000000000000000000000000000000000000000000000000000",
            "nonce" : "0x0000000000000000",
            "number" : "0x0",
            "parentHash" : "0x0000000000000000000000000000000000000000000000000000000000000000",
            "receiptTrie" : "0x56e81f171bcc55a6ff8345e692c0f86e5b48e01b996cadc001622fb5e363b421",
            "stateRoot" : "0xf37f60e4e9ea751d34e8a894ba8657b4fa473568b39e382e69490ee000c66b35",
            "timestamp" : "0x0",
            "transactionsTrie" : "0x56e81f171bcc55a6ff8345e692c0f86e5b48e01b996cadc001622fb5e363b421",
            "uncleHash" : "0x1dcc4de8dec75d7aab85b567b6ccd41ad312451b948a7413f0a142fd40d49347"
        },
        "pre" : {
            "0x1000000000000000000000000000000000000000" : {
                "balance" : "0x0de0b6b3a7640000",
                "code" : "0x6000356000526040600060406000731000000000000000000000000000000000000001620249f0fa6000555a60015500",
                "nonce" : "0x00",
                "storage" : {
                }
            },
            "0x1000000000000000000000000000000000000001" : {
                "balance" : "0x00",
                "code" : "0x600160205260406000604060006000600035619c90f250600160205200",
                "nonce" : "0x00",
                "storage" : {
                }
            },
            "0x1000000000000000000000000000000000000002" : {
                "balance" : "0x00",
                "code" : "0x600160035560406000604060006000731000000000000000000000000000000000000003614e34f250600160205200",
                "nonce" : "0x00",
                "storage" : {
                }
            },
            "0x1000000000000000000000000000000000000003" : {
                "balance" : "0x00",
                "code" : "0x600160205200",
                "nonce" : "0x00",
                "storage" : {
                }
            },
            "0x2000000000000000000000000000000000000002" : {
                "balance" : "0x00",
                "code" : "0x5b61c3506080511015601c5760013b506001608051016080526000565b60406000604060006000731000000000000000000000000000000000000003614e34f250600160205200",
                "nonce" : "0x00",
                "storage" : {
                }
            },
            "0x3000000000000000000000000000000000000002" : {
                "balance" : "0x0a",
                "code" : "0x60406000604060006001731000000000000000000000000000000000000003614e34f250600160205200",
                "nonce" : "0x00",
                "storage" : {
                }
            },
            "0xa94f5374fce5edbc8e2a8697c15331677e6ebf0b" : {
                "balance" : "0x0de0b6b3a7640000",
                "code" : "0x",
                "nonce" : "0x00",
                "storage" : {
                }
            }
        },
        "postState" : {
            "0xa94f5374fce5edbc8e2a8697c15331677e6ebf0b" : {
                "code" : "0x",
                "nonce" : "0x01",
                "balance" : "0x0de0b6b3a7626eba",
                "storage" : {
                }
            },
            "0x2000000000000000000000000000000000000002" : {
                "code" : "0x5b61c3506080511015601c5760013b506001608051016080526000565b60406000604060006000731000000000000000000000000000000000000003614e34f250600160205200",
                "nonce" : "0x00",
                "balance" : "0x00",
                "storage" : {
                }
            },
            "0x3000000000000000000000000000000000000002" : {
                "code" : "0x60406000604060006001731000000000000000000000000000000000000003614e34f250600160205200",
                "nonce" : "0x00",
                "balance" : "0x0a",
                "storage" : {
                }
            },
            "0x1000000000000000000000000000000000000001" : {
                "code" : "0x600160205260406000604060006000600035619c90f250600160205200",
                "nonce" : "0x00",
                "balance" : "0x00",
                "storage" : {
                }
            },
            "0x2adc25665018aa1fe0e6bc666dac8fc2697ff9ba" : {
                "code" : "0x",
                "nonce" : "0x00",
                "balance" : "0x1bc16d674ec99146",
                "storage" : {
                }
            },
            "0x1000000000000000000000000000000000000002" : {
                "code" : "0x600160035560406000604060006000731000000000000000000000000000000000000003614e34f250600160205200",
                "nonce" : "0x00",
                "balance" : "0x00",
                "storage" : {
                }
            },
            "0x1000000000000000000000000000000000000003" : {
                "code" : "0x600160205200",
                "nonce" : "0x00",
                "balance" : "0x00",
                "storage" : {
                }
            },
            "0x1000000000000000000000000000000000000000" : {
                "code" : "0x6000356000526040600060406000731000000000000000000000000000000000000001620249f0fa6000555a60015500",
                "nonce" : "0x00",
                "balance" : "0x0de0b6b3a7640000",
                "storage" : {
                    "0x00" : "0x01",
                    "0x01" : "0x015cbd"
                }
            }
        },
        "network" : "Istanbul",
        "sealEngine" : "NoProof",
        "lastblockhash" : "0xf336e651522eb41918c6ed2f50cef0ff85e21f812508f0b0042ba81f0992c9a6",
        "genesisRLP" : "0xf901f9f901f4a00000000000000000000000000000000000000000000000000000000000000000a01dcc4de8dec75d7aab85b567b6ccd41ad312451b948a7413f0a142fd40d49347942adc25665018aa1fe0e6bc666dac8fc2697ff9baa0f37f60e4e9ea751d34e8a894ba8657b4fa473568b39e382e69490ee000c66b35a056e81f171bcc55a6ff8345e692c0f86e5b48e01b996cadc001622fb5e363b421a056e81f171bcc55a6ff8345e692c0f86e5b48e01b996cadc001622fb5e363b421b901000000000000000000000000000000000000000000000000000000000000000000000000000000000000000000000000000000000000000000000000000000000000000000000000000000000000000000000000000000000000000000000000000000000000000000000000000000000000000000000000000000000000000000000000000000000000000000000000000000000000000000000000000000000000000000000000000000000000000000000000000000000000000000000000000000000000000000000000000000000000000000000000000000000000000000000000000000000000000000000000000000000000000000000000000000000083020000808401c9c380808000a00000000000000000000000000000000000000000000000000000000000000000880000000000000000c0c0",
        "blocks" : [
            {
                "rlp" : "0xf90281f901f9a0b289aead41d04f402b57c127be64af7fc8cc44c4836a88427745bb50ff389492a01dcc4de8dec75d7aab85b567b6ccd41ad312451b948a7413f0a142fd40d49347942adc25665018aa1fe0e6bc666dac8fc2697ff9baa06a07f395bca3bca13aa6bd98989ffba9d25aac2d97fd12508a2f11d15623bb82a016bd3b43053fc2b22b6f18e92ad6b446497ab47057d84e1236972b8e3ebc566ea0c5ea024b9fc6333c108a45510d2918b871ea614bd25b24c1db2c187065fb8e2ab901000000000000000000000000000000000000000000000000000000000000000000000000000000000000000000000000000000000000000000000000000000000000000000000000000000000000000000000000000000000000000000000000000000000000000000000000000000000000000000000000000000000000000000000000000000000000000000000000000000000000000000000000000000000000000000000000000000000000000000000000000000000000000000000000000000000000000000000000000000000000000000000000000000000000000000000000000000000000000000000000000000000000000000000000000000000083020000018401ca35ef830191468203e800a00000000000000000000000000000000000000000000000000000000000000000880000000000000000f882f880800183029fe094100000000000000000000000000000000000000080a000000000000000000000000020000000000000000000000000000000000000021ba0330906be38689bd15a0180307e1626d8ef5f22fd4534b5cae1eec1837bca3b1fa027200cae0c4e9f63fb37b412d5ab56a1c815e6bbb197c28f69329d1fcccd43ccc0",
                "blockHeader" : {
                    "bloom" : "0x00000000000000000000000000000000000000000000000000000000000000000000000000000000000000000000000000000000000000000000000000000000000000000000000000000000000000000000000000000000000000000000000000000000000000000000000000000000000000000000000000000000000000000000000000000000000000000000000000000000000000000000000000000000000000000000000000000000000000000000000000000000000000000000000000000000000000000000000000000000000000000000000000000000000000000000000000000000000000000000000000000000000000000000000000000000",
                    "coinbase" : "0x2adc25665018aa1fe0e6bc666dac8fc2697ff9ba",
                    "difficulty" : "0x20000",
                    "extraData" : "0x00",
                    "gasLimit" : "0x1ca35ef",
                    "gasUsed" : "0x19146",
                    "hash" : "0xf336e651522eb41918c6ed2f50cef0ff85e21f812508f0b0042ba81f0992c9a6",
                    "mixHash" : "0x0000000000000000000000000000000000000000000000000000000000000000",
                    "nonce" : "0x0000000000000000",
                    "number" : "0x1",
                    "parentHash" : "0xb289aead41d04f402b57c127be64af7fc8cc44c4836a88427745bb50ff389492",
                    "receiptTrie" : "0xc5ea024b9fc6333c108a45510d2918b871ea614bd25b24c1db2c187065fb8e2a",
                    "stateRoot" : "0x6a07f395bca3bca13aa6bd98989ffba9d25aac2d97fd12508a2f11d15623bb82",
                    "timestamp" : "0x3e8",
                    "transactionsTrie" : "0x16bd3b43053fc2b22b6f18e92ad6b446497ab47057d84e1236972b8e3ebc566e",
                    "uncleHash" : "0x1dcc4de8dec75d7aab85b567b6ccd41ad312451b948a7413f0a142fd40d49347"
                },
                "transactions" : [
                    {
                        "data" : "0x0000000000000000000000002000000000000000000000000000000000000002",
                        "gasLimit" : "0x029fe0",
                        "gasPrice" : "0x01",
                        "nonce" : "0x00",
                        "to" : "0x1000000000000000000000000000000000000000",
                        "value" : "0x00",
                        "v" : "0x1b",
                        "r" : "0x330906be38689bd15a0180307e1626d8ef5f22fd4534b5cae1eec1837bca3b1f",
                        "s" : "0x27200cae0c4e9f63fb37b412d5ab56a1c815e6bbb197c28f69329d1fcccd43cc"
                    }
                ]
            }
        ]
    },
    "static_callcallcodecallcode_011_OOGMBefore2_d2g0v0_Istanbul" : {
        "_info" : {
            "comment" : "",
            "filling-rpc-server" : "Geth-1.9.6-unstable-63b18027-20190920",
            "filling-tool-version" : "retesteth-0.0.1+commit.0ae18aef.Linux.g++",
            "lllcversion" : "Version: 0.5.12-develop.2019.9.13+commit.2d601a4f.Linux.g++",
            "source" : "src/GeneralStateTestsFiller/stStaticCall/static_callcallcodecallcode_011_OOGMBefore2Filler.json",
            "sourceHash" : "d25060709fa9d0e7ed38cc9207d6d66b7cff3636e455bc67fee4b24a39f9c219"
        },
        "genesisBlockHeader" : {
            "bloom" : "0x00000000000000000000000000000000000000000000000000000000000000000000000000000000000000000000000000000000000000000000000000000000000000000000000000000000000000000000000000000000000000000000000000000000000000000000000000000000000000000000000000000000000000000000000000000000000000000000000000000000000000000000000000000000000000000000000000000000000000000000000000000000000000000000000000000000000000000000000000000000000000000000000000000000000000000000000000000000000000000000000000000000000000000000000000000000",
            "coinbase" : "0x2adc25665018aa1fe0e6bc666dac8fc2697ff9ba",
            "difficulty" : "0x20000",
            "extraData" : "0x00",
            "gasLimit" : "0x1c9c380",
            "gasUsed" : "0x0",
            "hash" : "0xb289aead41d04f402b57c127be64af7fc8cc44c4836a88427745bb50ff389492",
            "mixHash" : "0x0000000000000000000000000000000000000000000000000000000000000000",
            "nonce" : "0x0000000000000000",
            "number" : "0x0",
            "parentHash" : "0x0000000000000000000000000000000000000000000000000000000000000000",
            "receiptTrie" : "0x56e81f171bcc55a6ff8345e692c0f86e5b48e01b996cadc001622fb5e363b421",
            "stateRoot" : "0xf37f60e4e9ea751d34e8a894ba8657b4fa473568b39e382e69490ee000c66b35",
            "timestamp" : "0x0",
            "transactionsTrie" : "0x56e81f171bcc55a6ff8345e692c0f86e5b48e01b996cadc001622fb5e363b421",
            "uncleHash" : "0x1dcc4de8dec75d7aab85b567b6ccd41ad312451b948a7413f0a142fd40d49347"
        },
        "pre" : {
            "0x1000000000000000000000000000000000000000" : {
                "balance" : "0x0de0b6b3a7640000",
                "code" : "0x6000356000526040600060406000731000000000000000000000000000000000000001620249f0fa6000555a60015500",
                "nonce" : "0x00",
                "storage" : {
                }
            },
            "0x1000000000000000000000000000000000000001" : {
                "balance" : "0x00",
                "code" : "0x600160205260406000604060006000600035619c90f250600160205200",
                "nonce" : "0x00",
                "storage" : {
                }
            },
            "0x1000000000000000000000000000000000000002" : {
                "balance" : "0x00",
                "code" : "0x600160035560406000604060006000731000000000000000000000000000000000000003614e34f250600160205200",
                "nonce" : "0x00",
                "storage" : {
                }
            },
            "0x1000000000000000000000000000000000000003" : {
                "balance" : "0x00",
                "code" : "0x600160205200",
                "nonce" : "0x00",
                "storage" : {
                }
            },
            "0x2000000000000000000000000000000000000002" : {
                "balance" : "0x00",
                "code" : "0x5b61c3506080511015601c5760013b506001608051016080526000565b60406000604060006000731000000000000000000000000000000000000003614e34f250600160205200",
                "nonce" : "0x00",
                "storage" : {
                }
            },
            "0x3000000000000000000000000000000000000002" : {
                "balance" : "0x0a",
                "code" : "0x60406000604060006001731000000000000000000000000000000000000003614e34f250600160205200",
                "nonce" : "0x00",
                "storage" : {
                }
            },
            "0xa94f5374fce5edbc8e2a8697c15331677e6ebf0b" : {
                "balance" : "0x0de0b6b3a7640000",
                "code" : "0x",
                "nonce" : "0x00",
                "storage" : {
                }
            }
        },
        "postState" : {
            "0xa94f5374fce5edbc8e2a8697c15331677e6ebf0b" : {
                "code" : "0x",
                "nonce" : "0x01",
                "balance" : "0x0de0b6b3a762ee3c",
                "storage" : {
                }
            },
            "0x2000000000000000000000000000000000000002" : {
                "code" : "0x5b61c3506080511015601c5760013b506001608051016080526000565b60406000604060006000731000000000000000000000000000000000000003614e34f250600160205200",
                "nonce" : "0x00",
                "balance" : "0x00",
                "storage" : {
                }
            },
            "0x3000000000000000000000000000000000000002" : {
                "code" : "0x60406000604060006001731000000000000000000000000000000000000003614e34f250600160205200",
                "nonce" : "0x00",
                "balance" : "0x0a",
                "storage" : {
                }
            },
            "0x1000000000000000000000000000000000000001" : {
                "code" : "0x600160205260406000604060006000600035619c90f250600160205200",
                "nonce" : "0x00",
                "balance" : "0x00",
                "storage" : {
                }
            },
            "0x2adc25665018aa1fe0e6bc666dac8fc2697ff9ba" : {
                "code" : "0x",
                "nonce" : "0x00",
                "balance" : "0x1bc16d674ec911c4",
                "storage" : {
                }
            },
            "0x1000000000000000000000000000000000000002" : {
                "code" : "0x600160035560406000604060006000731000000000000000000000000000000000000003614e34f250600160205200",
                "nonce" : "0x00",
                "balance" : "0x00",
                "storage" : {
                }
            },
            "0x1000000000000000000000000000000000000003" : {
                "code" : "0x600160205200",
                "nonce" : "0x00",
                "balance" : "0x00",
                "storage" : {
                }
            },
            "0x1000000000000000000000000000000000000000" : {
                "code" : "0x6000356000526040600060406000731000000000000000000000000000000000000001620249f0fa6000555a60015500",
                "nonce" : "0x00",
                "balance" : "0x0de0b6b3a7640000",
                "storage" : {
                    "0x00" : "0x01",
                    "0x01" : "0x01dc3f"
                }
            }
        },
        "network" : "Istanbul",
        "sealEngine" : "NoProof",
        "lastblockhash" : "0x8d1d88b4f8cc392063ae416e443e115e11f7ef64b48eaad0b151e95d6abcfbd6",
        "genesisRLP" : "0xf901f9f901f4a00000000000000000000000000000000000000000000000000000000000000000a01dcc4de8dec75d7aab85b567b6ccd41ad312451b948a7413f0a142fd40d49347942adc25665018aa1fe0e6bc666dac8fc2697ff9baa0f37f60e4e9ea751d34e8a894ba8657b4fa473568b39e382e69490ee000c66b35a056e81f171bcc55a6ff8345e692c0f86e5b48e01b996cadc001622fb5e363b421a056e81f171bcc55a6ff8345e692c0f86e5b48e01b996cadc001622fb5e363b421b901000000000000000000000000000000000000000000000000000000000000000000000000000000000000000000000000000000000000000000000000000000000000000000000000000000000000000000000000000000000000000000000000000000000000000000000000000000000000000000000000000000000000000000000000000000000000000000000000000000000000000000000000000000000000000000000000000000000000000000000000000000000000000000000000000000000000000000000000000000000000000000000000000000000000000000000000000000000000000000000000000000000000000000000000000000000083020000808401c9c380808000a00000000000000000000000000000000000000000000000000000000000000000880000000000000000c0c0",
        "blocks" : [
            {
                "rlp" : "0xf90281f901f9a0b289aead41d04f402b57c127be64af7fc8cc44c4836a88427745bb50ff389492a01dcc4de8dec75d7aab85b567b6ccd41ad312451b948a7413f0a142fd40d49347942adc25665018aa1fe0e6bc666dac8fc2697ff9baa01016845c5027b3e2fd31e5cae01d3d0a1c05556f83c92e2d3711036a83694ff5a01a36925ab30c6a3697579bfcec85eaabbc7cdb566269c3910287394103beefdea0c520c807185793d899e182eecbb085cf493b4328d8db747ec430a0e8291af9acb901000000000000000000000000000000000000000000000000000000000000000000000000000000000000000000000000000000000000000000000000000000000000000000000000000000000000000000000000000000000000000000000000000000000000000000000000000000000000000000000000000000000000000000000000000000000000000000000000000000000000000000000000000000000000000000000000000000000000000000000000000000000000000000000000000000000000000000000000000000000000000000000000000000000000000000000000000000000000000000000000000000000000000000000000000000000083020000018401ca35ef830111c48203e800a00000000000000000000000000000000000000000000000000000000000000000880000000000000000f882f880800183029fe094100000000000000000000000000000000000000080a000000000000000000000000030000000000000000000000000000000000000021ba0dcb4a031aef13b897ab1092003b42c1801ff1a2ca2ef7ea774b1e1d15384e303a0591bad09664edf18bbd39356c2c0064532efd758d3a1b1634a4039be39d0bb5bc0",
                "blockHeader" : {
                    "bloom" : "0x00000000000000000000000000000000000000000000000000000000000000000000000000000000000000000000000000000000000000000000000000000000000000000000000000000000000000000000000000000000000000000000000000000000000000000000000000000000000000000000000000000000000000000000000000000000000000000000000000000000000000000000000000000000000000000000000000000000000000000000000000000000000000000000000000000000000000000000000000000000000000000000000000000000000000000000000000000000000000000000000000000000000000000000000000000000",
                    "coinbase" : "0x2adc25665018aa1fe0e6bc666dac8fc2697ff9ba",
                    "difficulty" : "0x20000",
                    "extraData" : "0x00",
                    "gasLimit" : "0x1ca35ef",
                    "gasUsed" : "0x111c4",
                    "hash" : "0x8d1d88b4f8cc392063ae416e443e115e11f7ef64b48eaad0b151e95d6abcfbd6",
                    "mixHash" : "0x0000000000000000000000000000000000000000000000000000000000000000",
                    "nonce" : "0x0000000000000000",
                    "number" : "0x1",
                    "parentHash" : "0xb289aead41d04f402b57c127be64af7fc8cc44c4836a88427745bb50ff389492",
                    "receiptTrie" : "0xc520c807185793d899e182eecbb085cf493b4328d8db747ec430a0e8291af9ac",
                    "stateRoot" : "0x1016845c5027b3e2fd31e5cae01d3d0a1c05556f83c92e2d3711036a83694ff5",
                    "timestamp" : "0x3e8",
                    "transactionsTrie" : "0x1a36925ab30c6a3697579bfcec85eaabbc7cdb566269c3910287394103beefde",
                    "uncleHash" : "0x1dcc4de8dec75d7aab85b567b6ccd41ad312451b948a7413f0a142fd40d49347"
                },
                "transactions" : [
                    {
                        "data" : "0x0000000000000000000000003000000000000000000000000000000000000002",
                        "gasLimit" : "0x029fe0",
                        "gasPrice" : "0x01",
                        "nonce" : "0x00",
                        "to" : "0x1000000000000000000000000000000000000000",
                        "value" : "0x00",
                        "v" : "0x1b",
                        "r" : "0xdcb4a031aef13b897ab1092003b42c1801ff1a2ca2ef7ea774b1e1d15384e303",
                        "s" : "0x591bad09664edf18bbd39356c2c0064532efd758d3a1b1634a4039be39d0bb5b"
                    }
                ]
            }
        ]
    }
}