{
    "static_CREATE_ContractSuicideDuringInit_d0g0v0_Istanbul" : {
        "_info" : {
            "comment" : "",
            "filling-rpc-server" : "Geth-1.9.6-unstable-63b18027-20190920",
            "filling-tool-version" : "retesteth-0.0.1+commit.0ae18aef.Linux.g++",
            "lllcversion" : "Version: 0.5.12-develop.2019.9.13+commit.2d601a4f.Linux.g++",
            "source" : "src/GeneralStateTestsFiller/stStaticCall/static_CREATE_ContractSuicideDuringInitFiller.json",
            "sourceHash" : "edf05cf8428846ccf59e1002da23c81c4341de5f7b28fcdf09ace9f0a50a24b0"
        },
        "genesisBlockHeader" : {
            "bloom" : "0x00000000000000000000000000000000000000000000000000000000000000000000000000000000000000000000000000000000000000000000000000000000000000000000000000000000000000000000000000000000000000000000000000000000000000000000000000000000000000000000000000000000000000000000000000000000000000000000000000000000000000000000000000000000000000000000000000000000000000000000000000000000000000000000000000000000000000000000000000000000000000000000000000000000000000000000000000000000000000000000000000000000000000000000000000000000",
            "coinbase" : "0x2adc25665018aa1fe0e6bc666dac8fc2697ff9ba",
            "difficulty" : "0x20000",
            "extraData" : "0x00",
            "gasLimit" : "0x989680",
            "gasUsed" : "0x0",
            "hash" : "0xdd91ccbf103b07a4cabe4f6091c6d4ca8ad983755e5d6418b6f85c0d7cc0ac88",
            "mixHash" : "0x0000000000000000000000000000000000000000000000000000000000000000",
            "nonce" : "0x0000000000000000",
            "number" : "0x0",
            "parentHash" : "0x0000000000000000000000000000000000000000000000000000000000000000",
            "receiptTrie" : "0x56e81f171bcc55a6ff8345e692c0f86e5b48e01b996cadc001622fb5e363b421",
            "stateRoot" : "0x86e311c7e501f69f589af60a99060d2f86d5dcdeeaac4372c091bb5f42cd4ffb",
            "timestamp" : "0x0",
            "transactionsTrie" : "0x56e81f171bcc55a6ff8345e692c0f86e5b48e01b996cadc001622fb5e363b421",
            "uncleHash" : "0x1dcc4de8dec75d7aab85b567b6ccd41ad312451b948a7413f0a142fd40d49347"
        },
        "pre" : {
            "0xa94f5374fce5edbc8e2a8697c15331677e6ebf0b" : {
                "balance" : "0xe8d4a51000",
                "code" : "0x",
                "nonce" : "0x00",
                "storage" : {
                }
            },
            "0xb94f5374fce5edbc8e2a8697c15331677e6ebf0b" : {
                "balance" : "0x0b",
                "code" : "0x5b61c3506080511015601c5760013b506001608051016080526000565b00",
                "nonce" : "0x00",
                "storage" : {
                }
            },
            "0xc94f5374fce5edbc8e2a8697c15331677e6ebf0b" : {
                "balance" : "0x00",
                "code" : "0x600160015200",
                "nonce" : "0x00",
                "storage" : {
                }
            },
            "0xd94f5374fce5edbc8e2a8697c15331677e6ebf0b" : {
                "balance" : "0x0b",
                "code" : "0x600160015500",
                "nonce" : "0x00",
                "storage" : {
                }
            },
            "0xe94f5374fce5edbc8e2a8697c15331677e6ebf0b" : {
                "balance" : "0x0b",
                "code" : "0x6000600060006000600173c94f5374fce5edbc8e2a8697c15331677e6ebf0b6064f100",
                "nonce" : "0x00",
                "storage" : {
                }
            }
        },
        "postState" : {
            "0xa94f5374fce5edbc8e2a8697c15331677e6ebf0b" : {
                "code" : "0x",
                "nonce" : "0x01",
                "balance" : "0xe8d4a483f6",
                "storage" : {
                }
            },
            "0xd94f5374fce5edbc8e2a8697c15331677e6ebf0b" : {
                "code" : "0x600160015500",
                "nonce" : "0x00",
                "balance" : "0x0b",
                "storage" : {
                }
            },
            "0xe94f5374fce5edbc8e2a8697c15331677e6ebf0b" : {
                "code" : "0x6000600060006000600173c94f5374fce5edbc8e2a8697c15331677e6ebf0b6064f100",
                "nonce" : "0x00",
                "balance" : "0x0b",
                "storage" : {
                }
            },
            "0xc94f5374fce5edbc8e2a8697c15331677e6ebf0b" : {
                "code" : "0x600160015200",
                "nonce" : "0x00",
                "balance" : "0x00",
                "storage" : {
                }
            },
            "0x2adc25665018aa1fe0e6bc666dac8fc2697ff9ba" : {
                "code" : "0x",
                "nonce" : "0x00",
                "balance" : "0x1bc16d674ec88c0a",
                "storage" : {
                }
            },
            "0xb94f5374fce5edbc8e2a8697c15331677e6ebf0b" : {
                "code" : "0x5b61c3506080511015601c5760013b506001608051016080526000565b00",
                "nonce" : "0x00",
                "balance" : "0x0b",
                "storage" : {
                }
            }
        },
        "network" : "Istanbul",
        "sealEngine" : "NoProof",
        "lastblockhash" : "0xe3e65c6f82c7f9a7494e87b57aaeeca65ea8b71acf32f741ee98bf217cd0a98a",
        "genesisRLP" : "0xf901f8f901f3a00000000000000000000000000000000000000000000000000000000000000000a01dcc4de8dec75d7aab85b567b6ccd41ad312451b948a7413f0a142fd40d49347942adc25665018aa1fe0e6bc666dac8fc2697ff9baa086e311c7e501f69f589af60a99060d2f86d5dcdeeaac4372c091bb5f42cd4ffba056e81f171bcc55a6ff8345e692c0f86e5b48e01b996cadc001622fb5e363b421a056e81f171bcc55a6ff8345e692c0f86e5b48e01b996cadc001622fb5e363b421b9010000000000000000000000000000000000000000000000000000000000000000000000000000000000000000000000000000000000000000000000000000000000000000000000000000000000000000000000000000000000000000000000000000000000000000000000000000000000000000000000000000000000000000000000000000000000000000000000000000000000000000000000000000000000000000000000000000000000000000000000000000000000000000000000000000000000000000000000000000000000000000000000000000000000000000000000000000000000000000000000000000000000000000000000000000000000830200008083989680808000a00000000000000000000000000000000000000000000000000000000000000000880000000000000000c0c0",
        "blocks" : [
            {
                "rlp" : "0xf90296f901f7a0dd91ccbf103b07a4cabe4f6091c6d4ca8ad983755e5d6418b6f85c0d7cc0ac88a01dcc4de8dec75d7aab85b567b6ccd41ad312451b948a7413f0a142fd40d49347942adc25665018aa1fe0e6bc666dac8fc2697ff9baa0b4bf0795fc6cc9adaa57723e6ff1d96a31ff1975b34feec71cca3219f6429129a00465dfe79ad155a2373b5ac78ae732d667d1c42656d4eece4a00eb7ca32b2222a040644339b99adbe75a7a3e258241eef569950dd639d46efb3e17c9d480d8cfecb901000000000000000000000000000000000000000000000000000000000000000000000000000000000000000000000000000000000000000000000000000000000000000000000000000000000000000000000000000000000000000000000000000000000000000000000000000000000000000000000000000000000000000000000000000000000000000000000000000000000000000000000000000000000000000000000000000000000000000000000000000000000000000000000000000000000000000000000000000000000000000000000000000000000000000000000000000000000000000000000000000000000000000000000000000000000083020000018398bca4828c0a8203e800a00000000000000000000000000000000000000000000000000000000000000000880000000000000000f899f8978001830249f08080b84a600060006000600073c94f5374fce5edbc8e2a8697c15331677e6ebf0b61ea60fa506d64600c6000556000526005601bf360005273c94f5374fce5edbc8e2a8697c15331677e6ebf0bff1ba07321e93e566c2c579f31b3763b99c5940c61ae6d7ec35b29afad0c38fa77165aa0049834148b7965ddc319513c27dd782be19965e44624cd6320ad223e3806c204c0",
                "blockHeader" : {
                    "bloom" : "0x00000000000000000000000000000000000000000000000000000000000000000000000000000000000000000000000000000000000000000000000000000000000000000000000000000000000000000000000000000000000000000000000000000000000000000000000000000000000000000000000000000000000000000000000000000000000000000000000000000000000000000000000000000000000000000000000000000000000000000000000000000000000000000000000000000000000000000000000000000000000000000000000000000000000000000000000000000000000000000000000000000000000000000000000000000000",
                    "coinbase" : "0x2adc25665018aa1fe0e6bc666dac8fc2697ff9ba",
                    "difficulty" : "0x20000",
                    "extraData" : "0x00",
                    "gasLimit" : "0x98bca4",
                    "gasUsed" : "0x8c0a",
                    "hash" : "0xe3e65c6f82c7f9a7494e87b57aaeeca65ea8b71acf32f741ee98bf217cd0a98a",
                    "mixHash" : "0x0000000000000000000000000000000000000000000000000000000000000000",
                    "nonce" : "0x0000000000000000",
                    "number" : "0x1",
                    "parentHash" : "0xdd91ccbf103b07a4cabe4f6091c6d4ca8ad983755e5d6418b6f85c0d7cc0ac88",
                    "receiptTrie" : "0x40644339b99adbe75a7a3e258241eef569950dd639d46efb3e17c9d480d8cfec",
                    "stateRoot" : "0xb4bf0795fc6cc9adaa57723e6ff1d96a31ff1975b34feec71cca3219f6429129",
                    "timestamp" : "0x3e8",
                    "transactionsTrie" : "0x0465dfe79ad155a2373b5ac78ae732d667d1c42656d4eece4a00eb7ca32b2222",
                    "uncleHash" : "0x1dcc4de8dec75d7aab85b567b6ccd41ad312451b948a7413f0a142fd40d49347"
                },
                "transactions" : [
                    {
                        "data" : "0x600060006000600073c94f5374fce5edbc8e2a8697c15331677e6ebf0b61ea60fa506d64600c6000556000526005601bf360005273c94f5374fce5edbc8e2a8697c15331677e6ebf0bff",
                        "gasLimit" : "0x0249f0",
                        "gasPrice" : "0x01",
                        "nonce" : "0x00",
                        "to" : "",
                        "value" : "0x00",
                        "v" : "0x1b",
                        "r" : "0x7321e93e566c2c579f31b3763b99c5940c61ae6d7ec35b29afad0c38fa77165a",
                        "s" : "0x049834148b7965ddc319513c27dd782be19965e44624cd6320ad223e3806c204"
                    }
                ]
            }
        ]
    },
    "static_CREATE_ContractSuicideDuringInit_d1g0v0_Istanbul" : {
        "_info" : {
            "comment" : "",
            "filling-rpc-server" : "Geth-1.9.6-unstable-63b18027-20190920",
            "filling-tool-version" : "retesteth-0.0.1+commit.0ae18aef.Linux.g++",
            "lllcversion" : "Version: 0.5.12-develop.2019.9.13+commit.2d601a4f.Linux.g++",
            "source" : "src/GeneralStateTestsFiller/stStaticCall/static_CREATE_ContractSuicideDuringInitFiller.json",
            "sourceHash" : "edf05cf8428846ccf59e1002da23c81c4341de5f7b28fcdf09ace9f0a50a24b0"
        },
        "genesisBlockHeader" : {
            "bloom" : "0x00000000000000000000000000000000000000000000000000000000000000000000000000000000000000000000000000000000000000000000000000000000000000000000000000000000000000000000000000000000000000000000000000000000000000000000000000000000000000000000000000000000000000000000000000000000000000000000000000000000000000000000000000000000000000000000000000000000000000000000000000000000000000000000000000000000000000000000000000000000000000000000000000000000000000000000000000000000000000000000000000000000000000000000000000000000",
            "coinbase" : "0x2adc25665018aa1fe0e6bc666dac8fc2697ff9ba",
            "difficulty" : "0x20000",
            "extraData" : "0x00",
            "gasLimit" : "0x989680",
            "gasUsed" : "0x0",
            "hash" : "0xdd91ccbf103b07a4cabe4f6091c6d4ca8ad983755e5d6418b6f85c0d7cc0ac88",
            "mixHash" : "0x0000000000000000000000000000000000000000000000000000000000000000",
            "nonce" : "0x0000000000000000",
            "number" : "0x0",
            "parentHash" : "0x0000000000000000000000000000000000000000000000000000000000000000",
            "receiptTrie" : "0x56e81f171bcc55a6ff8345e692c0f86e5b48e01b996cadc001622fb5e363b421",
            "stateRoot" : "0x86e311c7e501f69f589af60a99060d2f86d5dcdeeaac4372c091bb5f42cd4ffb",
            "timestamp" : "0x0",
            "transactionsTrie" : "0x56e81f171bcc55a6ff8345e692c0f86e5b48e01b996cadc001622fb5e363b421",
            "uncleHash" : "0x1dcc4de8dec75d7aab85b567b6ccd41ad312451b948a7413f0a142fd40d49347"
        },
        "pre" : {
            "0xa94f5374fce5edbc8e2a8697c15331677e6ebf0b" : {
                "balance" : "0xe8d4a51000",
                "code" : "0x",
                "nonce" : "0x00",
                "storage" : {
                }
            },
            "0xb94f5374fce5edbc8e2a8697c15331677e6ebf0b" : {
                "balance" : "0x0b",
                "code" : "0x5b61c3506080511015601c5760013b506001608051016080526000565b00",
                "nonce" : "0x00",
                "storage" : {
                }
            },
            "0xc94f5374fce5edbc8e2a8697c15331677e6ebf0b" : {
                "balance" : "0x00",
                "code" : "0x600160015200",
                "nonce" : "0x00",
                "storage" : {
                }
            },
            "0xd94f5374fce5edbc8e2a8697c15331677e6ebf0b" : {
                "balance" : "0x0b",
                "code" : "0x600160015500",
                "nonce" : "0x00",
                "storage" : {
                }
            },
            "0xe94f5374fce5edbc8e2a8697c15331677e6ebf0b" : {
                "balance" : "0x0b",
                "code" : "0x6000600060006000600173c94f5374fce5edbc8e2a8697c15331677e6ebf0b6064f100",
                "nonce" : "0x00",
                "storage" : {
                }
            }
        },
        "postState" : {
            "0xa94f5374fce5edbc8e2a8697c15331677e6ebf0b" : {
                "code" : "0x",
                "nonce" : "0x01",
                "balance" : "0xe8d4a399a5",
                "storage" : {
                }
            },
            "0xd94f5374fce5edbc8e2a8697c15331677e6ebf0b" : {
                "code" : "0x600160015500",
                "nonce" : "0x00",
                "balance" : "0x0b",
                "storage" : {
                }
            },
            "0xe94f5374fce5edbc8e2a8697c15331677e6ebf0b" : {
                "code" : "0x6000600060006000600173c94f5374fce5edbc8e2a8697c15331677e6ebf0b6064f100",
                "nonce" : "0x00",
                "balance" : "0x0b",
                "storage" : {
                }
            },
            "0xc94f5374fce5edbc8e2a8697c15331677e6ebf0b" : {
                "code" : "0x600160015200",
                "nonce" : "0x00",
                "balance" : "0x00",
                "storage" : {
                }
            },
            "0x2adc25665018aa1fe0e6bc666dac8fc2697ff9ba" : {
                "code" : "0x",
                "nonce" : "0x00",
                "balance" : "0x1bc16d674ec9765b",
                "storage" : {
                }
            },
            "0xb94f5374fce5edbc8e2a8697c15331677e6ebf0b" : {
                "code" : "0x5b61c3506080511015601c5760013b506001608051016080526000565b00",
                "nonce" : "0x00",
                "balance" : "0x0b",
                "storage" : {
                }
            }
        },
        "network" : "Istanbul",
        "sealEngine" : "NoProof",
        "lastblockhash" : "0xf67f044e832aeed49c988da03c42ba649b8efc7ea06c030ba5ca531dda515c43",
        "genesisRLP" : "0xf901f8f901f3a00000000000000000000000000000000000000000000000000000000000000000a01dcc4de8dec75d7aab85b567b6ccd41ad312451b948a7413f0a142fd40d49347942adc25665018aa1fe0e6bc666dac8fc2697ff9baa086e311c7e501f69f589af60a99060d2f86d5dcdeeaac4372c091bb5f42cd4ffba056e81f171bcc55a6ff8345e692c0f86e5b48e01b996cadc001622fb5e363b421a056e81f171bcc55a6ff8345e692c0f86e5b48e01b996cadc001622fb5e363b421b9010000000000000000000000000000000000000000000000000000000000000000000000000000000000000000000000000000000000000000000000000000000000000000000000000000000000000000000000000000000000000000000000000000000000000000000000000000000000000000000000000000000000000000000000000000000000000000000000000000000000000000000000000000000000000000000000000000000000000000000000000000000000000000000000000000000000000000000000000000000000000000000000000000000000000000000000000000000000000000000000000000000000000000000000000000000000830200008083989680808000a00000000000000000000000000000000000000000000000000000000000000000880000000000000000c0c0",
        "blocks" : [
            {
                "rlp" : "0xf90297f901f8a0dd91ccbf103b07a4cabe4f6091c6d4ca8ad983755e5d6418b6f85c0d7cc0ac88a01dcc4de8dec75d7aab85b567b6ccd41ad312451b948a7413f0a142fd40d49347942adc25665018aa1fe0e6bc666dac8fc2697ff9baa0ae3b1bc13deb25586867dd4f432c40a01fd73571efb1969bb44a8c8fd0b540f9a0fd3a02ce877b7c7d908f23efb74f9e58f967ac6a985ed658d7fdc0f8606785faa012f73a7d5240e0ab2eff1c0f1d22eb90a61fd771ce49578ffc25fe5d953873beb901000000000000000000000000000000000000000000000000000000000000000000000000000000000000000000000000000000000000000000000000000000000000000000000000000000000000000000000000000000000000000000000000000000000000000000000000000000000000000000000000000000000000000000000000000000000000000000000000000000000000000000000000000000000000000000000000000000000000000000000000000000000000000000000000000000000000000000000000000000000000000000000000000000000000000000000000000000000000000000000000000000000000000000000000000000000083020000018398bca48301765b8203e800a00000000000000000000000000000000000000000000000000000000000000000880000000000000000f899f8978001830249f08080b84a600060006000600073b94f5374fce5edbc8e2a8697c15331677e6ebf0b61ea60fa506d64600c6000556000526005601bf360005273c94f5374fce5edbc8e2a8697c15331677e6ebf0bff1ba0d58c21d80d6b9da70c2d33de06d264ad3ec4b44753bcfe09c0b79bf93ae91854a0288b4c3e6f87d5742849b2194326eebb0405e9116c71c67a26957951fa53ff27c0",
                "blockHeader" : {
                    "bloom" : "0x00000000000000000000000000000000000000000000000000000000000000000000000000000000000000000000000000000000000000000000000000000000000000000000000000000000000000000000000000000000000000000000000000000000000000000000000000000000000000000000000000000000000000000000000000000000000000000000000000000000000000000000000000000000000000000000000000000000000000000000000000000000000000000000000000000000000000000000000000000000000000000000000000000000000000000000000000000000000000000000000000000000000000000000000000000000",
                    "coinbase" : "0x2adc25665018aa1fe0e6bc666dac8fc2697ff9ba",
                    "difficulty" : "0x20000",
                    "extraData" : "0x00",
                    "gasLimit" : "0x98bca4",
                    "gasUsed" : "0x1765b",
                    "hash" : "0xf67f044e832aeed49c988da03c42ba649b8efc7ea06c030ba5ca531dda515c43",
                    "mixHash" : "0x0000000000000000000000000000000000000000000000000000000000000000",
                    "nonce" : "0x0000000000000000",
                    "number" : "0x1",
                    "parentHash" : "0xdd91ccbf103b07a4cabe4f6091c6d4ca8ad983755e5d6418b6f85c0d7cc0ac88",
                    "receiptTrie" : "0x12f73a7d5240e0ab2eff1c0f1d22eb90a61fd771ce49578ffc25fe5d953873be",
                    "stateRoot" : "0xae3b1bc13deb25586867dd4f432c40a01fd73571efb1969bb44a8c8fd0b540f9",
                    "timestamp" : "0x3e8",
                    "transactionsTrie" : "0xfd3a02ce877b7c7d908f23efb74f9e58f967ac6a985ed658d7fdc0f8606785fa",
                    "uncleHash" : "0x1dcc4de8dec75d7aab85b567b6ccd41ad312451b948a7413f0a142fd40d49347"
                },
                "transactions" : [
                    {
                        "data" : "0x600060006000600073b94f5374fce5edbc8e2a8697c15331677e6ebf0b61ea60fa506d64600c6000556000526005601bf360005273c94f5374fce5edbc8e2a8697c15331677e6ebf0bff",
                        "gasLimit" : "0x0249f0",
                        "gasPrice" : "0x01",
                        "nonce" : "0x00",
                        "to" : "",
                        "value" : "0x00",
                        "v" : "0x1b",
                        "r" : "0xd58c21d80d6b9da70c2d33de06d264ad3ec4b44753bcfe09c0b79bf93ae91854",
                        "s" : "0x288b4c3e6f87d5742849b2194326eebb0405e9116c71c67a26957951fa53ff27"
                    }
                ]
            }
        ]
    },
    "static_CREATE_ContractSuicideDuringInit_d2g0v0_Istanbul" : {
        "_info" : {
            "comment" : "",
            "filling-rpc-server" : "Geth-1.9.6-unstable-63b18027-20190920",
            "filling-tool-version" : "retesteth-0.0.1+commit.0ae18aef.Linux.g++",
            "lllcversion" : "Version: 0.5.12-develop.2019.9.13+commit.2d601a4f.Linux.g++",
            "source" : "src/GeneralStateTestsFiller/stStaticCall/static_CREATE_ContractSuicideDuringInitFiller.json",
            "sourceHash" : "edf05cf8428846ccf59e1002da23c81c4341de5f7b28fcdf09ace9f0a50a24b0"
        },
        "genesisBlockHeader" : {
            "bloom" : "0x00000000000000000000000000000000000000000000000000000000000000000000000000000000000000000000000000000000000000000000000000000000000000000000000000000000000000000000000000000000000000000000000000000000000000000000000000000000000000000000000000000000000000000000000000000000000000000000000000000000000000000000000000000000000000000000000000000000000000000000000000000000000000000000000000000000000000000000000000000000000000000000000000000000000000000000000000000000000000000000000000000000000000000000000000000000",
            "coinbase" : "0x2adc25665018aa1fe0e6bc666dac8fc2697ff9ba",
            "difficulty" : "0x20000",
            "extraData" : "0x00",
            "gasLimit" : "0x989680",
            "gasUsed" : "0x0",
            "hash" : "0xdd91ccbf103b07a4cabe4f6091c6d4ca8ad983755e5d6418b6f85c0d7cc0ac88",
            "mixHash" : "0x0000000000000000000000000000000000000000000000000000000000000000",
            "nonce" : "0x0000000000000000",
            "number" : "0x0",
            "parentHash" : "0x0000000000000000000000000000000000000000000000000000000000000000",
            "receiptTrie" : "0x56e81f171bcc55a6ff8345e692c0f86e5b48e01b996cadc001622fb5e363b421",
            "stateRoot" : "0x86e311c7e501f69f589af60a99060d2f86d5dcdeeaac4372c091bb5f42cd4ffb",
            "timestamp" : "0x0",
            "transactionsTrie" : "0x56e81f171bcc55a6ff8345e692c0f86e5b48e01b996cadc001622fb5e363b421",
            "uncleHash" : "0x1dcc4de8dec75d7aab85b567b6ccd41ad312451b948a7413f0a142fd40d49347"
        },
        "pre" : {
            "0xa94f5374fce5edbc8e2a8697c15331677e6ebf0b" : {
                "balance" : "0xe8d4a51000",
                "code" : "0x",
                "nonce" : "0x00",
                "storage" : {
                }
            },
            "0xb94f5374fce5edbc8e2a8697c15331677e6ebf0b" : {
                "balance" : "0x0b",
                "code" : "0x5b61c3506080511015601c5760013b506001608051016080526000565b00",
                "nonce" : "0x00",
                "storage" : {
                }
            },
            "0xc94f5374fce5edbc8e2a8697c15331677e6ebf0b" : {
                "balance" : "0x00",
                "code" : "0x600160015200",
                "nonce" : "0x00",
                "storage" : {
                }
            },
            "0xd94f5374fce5edbc8e2a8697c15331677e6ebf0b" : {
                "balance" : "0x0b",
                "code" : "0x600160015500",
                "nonce" : "0x00",
                "storage" : {
                }
            },
            "0xe94f5374fce5edbc8e2a8697c15331677e6ebf0b" : {
                "balance" : "0x0b",
                "code" : "0x6000600060006000600173c94f5374fce5edbc8e2a8697c15331677e6ebf0b6064f100",
                "nonce" : "0x00",
                "storage" : {
                }
            }
        },
        "postState" : {
            "0xa94f5374fce5edbc8e2a8697c15331677e6ebf0b" : {
                "code" : "0x",
                "nonce" : "0x01",
                "balance" : "0xe8d4a399a5",
                "storage" : {
                }
            },
            "0xd94f5374fce5edbc8e2a8697c15331677e6ebf0b" : {
                "code" : "0x600160015500",
                "nonce" : "0x00",
                "balance" : "0x0b",
                "storage" : {
                }
            },
            "0xe94f5374fce5edbc8e2a8697c15331677e6ebf0b" : {
                "code" : "0x6000600060006000600173c94f5374fce5edbc8e2a8697c15331677e6ebf0b6064f100",
                "nonce" : "0x00",
                "balance" : "0x0b",
                "storage" : {
                }
            },
            "0xc94f5374fce5edbc8e2a8697c15331677e6ebf0b" : {
                "code" : "0x600160015200",
                "nonce" : "0x00",
                "balance" : "0x00",
                "storage" : {
                }
            },
            "0x2adc25665018aa1fe0e6bc666dac8fc2697ff9ba" : {
                "code" : "0x",
                "nonce" : "0x00",
                "balance" : "0x1bc16d674ec9765b",
                "storage" : {
                }
            },
            "0xb94f5374fce5edbc8e2a8697c15331677e6ebf0b" : {
                "code" : "0x5b61c3506080511015601c5760013b506001608051016080526000565b00",
                "nonce" : "0x00",
                "balance" : "0x0b",
                "storage" : {
                }
            }
        },
        "network" : "Istanbul",
        "sealEngine" : "NoProof",
        "lastblockhash" : "0x5a400a46b544a36c305f1e9728b419d219bcf4fd23a679c205bfe046db57fe3a",
        "genesisRLP" : "0xf901f8f901f3a00000000000000000000000000000000000000000000000000000000000000000a01dcc4de8dec75d7aab85b567b6ccd41ad312451b948a7413f0a142fd40d49347942adc25665018aa1fe0e6bc666dac8fc2697ff9baa086e311c7e501f69f589af60a99060d2f86d5dcdeeaac4372c091bb5f42cd4ffba056e81f171bcc55a6ff8345e692c0f86e5b48e01b996cadc001622fb5e363b421a056e81f171bcc55a6ff8345e692c0f86e5b48e01b996cadc001622fb5e363b421b9010000000000000000000000000000000000000000000000000000000000000000000000000000000000000000000000000000000000000000000000000000000000000000000000000000000000000000000000000000000000000000000000000000000000000000000000000000000000000000000000000000000000000000000000000000000000000000000000000000000000000000000000000000000000000000000000000000000000000000000000000000000000000000000000000000000000000000000000000000000000000000000000000000000000000000000000000000000000000000000000000000000000000000000000000000000000830200008083989680808000a00000000000000000000000000000000000000000000000000000000000000000880000000000000000c0c0",
        "blocks" : [
            {
                "rlp" : "0xf90297f901f8a0dd91ccbf103b07a4cabe4f6091c6d4ca8ad983755e5d6418b6f85c0d7cc0ac88a01dcc4de8dec75d7aab85b567b6ccd41ad312451b948a7413f0a142fd40d49347942adc25665018aa1fe0e6bc666dac8fc2697ff9baa0ae3b1bc13deb25586867dd4f432c40a01fd73571efb1969bb44a8c8fd0b540f9a09ae6f9100504ba25689196162ffbe572526921b24199da4797add4f4648b9a65a012f73a7d5240e0ab2eff1c0f1d22eb90a61fd771ce49578ffc25fe5d953873beb901000000000000000000000000000000000000000000000000000000000000000000000000000000000000000000000000000000000000000000000000000000000000000000000000000000000000000000000000000000000000000000000000000000000000000000000000000000000000000000000000000000000000000000000000000000000000000000000000000000000000000000000000000000000000000000000000000000000000000000000000000000000000000000000000000000000000000000000000000000000000000000000000000000000000000000000000000000000000000000000000000000000000000000000000000000000083020000018398bca48301765b8203e800a00000000000000000000000000000000000000000000000000000000000000000880000000000000000f899f8978001830249f08080b84a600060006000600073d94f5374fce5edbc8e2a8697c15331677e6ebf0b61ea60fa506d64600c6000556000526005601bf360005273c94f5374fce5edbc8e2a8697c15331677e6ebf0bff1ca094d11dbc189956955535db3f391b9abb6c10ef32c7161f6170e40d810eab7eb5a05b820a6dcb54f6ed8dea9cbe9c0310718d7145cb36e42c148502435751025386c0",
                "blockHeader" : {
                    "bloom" : "0x00000000000000000000000000000000000000000000000000000000000000000000000000000000000000000000000000000000000000000000000000000000000000000000000000000000000000000000000000000000000000000000000000000000000000000000000000000000000000000000000000000000000000000000000000000000000000000000000000000000000000000000000000000000000000000000000000000000000000000000000000000000000000000000000000000000000000000000000000000000000000000000000000000000000000000000000000000000000000000000000000000000000000000000000000000000",
                    "coinbase" : "0x2adc25665018aa1fe0e6bc666dac8fc2697ff9ba",
                    "difficulty" : "0x20000",
                    "extraData" : "0x00",
                    "gasLimit" : "0x98bca4",
                    "gasUsed" : "0x1765b",
                    "hash" : "0x5a400a46b544a36c305f1e9728b419d219bcf4fd23a679c205bfe046db57fe3a",
                    "mixHash" : "0x0000000000000000000000000000000000000000000000000000000000000000",
                    "nonce" : "0x0000000000000000",
                    "number" : "0x1",
                    "parentHash" : "0xdd91ccbf103b07a4cabe4f6091c6d4ca8ad983755e5d6418b6f85c0d7cc0ac88",
                    "receiptTrie" : "0x12f73a7d5240e0ab2eff1c0f1d22eb90a61fd771ce49578ffc25fe5d953873be",
                    "stateRoot" : "0xae3b1bc13deb25586867dd4f432c40a01fd73571efb1969bb44a8c8fd0b540f9",
                    "timestamp" : "0x3e8",
                    "transactionsTrie" : "0x9ae6f9100504ba25689196162ffbe572526921b24199da4797add4f4648b9a65",
                    "uncleHash" : "0x1dcc4de8dec75d7aab85b567b6ccd41ad312451b948a7413f0a142fd40d49347"
                },
                "transactions" : [
                    {
                        "data" : "0x600060006000600073d94f5374fce5edbc8e2a8697c15331677e6ebf0b61ea60fa506d64600c6000556000526005601bf360005273c94f5374fce5edbc8e2a8697c15331677e6ebf0bff",
                        "gasLimit" : "0x0249f0",
                        "gasPrice" : "0x01",
                        "nonce" : "0x00",
                        "to" : "",
                        "value" : "0x00",
                        "v" : "0x1c",
                        "r" : "0x94d11dbc189956955535db3f391b9abb6c10ef32c7161f6170e40d810eab7eb5",
                        "s" : "0x5b820a6dcb54f6ed8dea9cbe9c0310718d7145cb36e42c148502435751025386"
                    }
                ]
            }
        ]
    },
    "static_CREATE_ContractSuicideDuringInit_d3g0v0_Istanbul" : {
        "_info" : {
            "comment" : "",
            "filling-rpc-server" : "Geth-1.9.6-unstable-63b18027-20190920",
            "filling-tool-version" : "retesteth-0.0.1+commit.0ae18aef.Linux.g++",
            "lllcversion" : "Version: 0.5.12-develop.2019.9.13+commit.2d601a4f.Linux.g++",
            "source" : "src/GeneralStateTestsFiller/stStaticCall/static_CREATE_ContractSuicideDuringInitFiller.json",
            "sourceHash" : "edf05cf8428846ccf59e1002da23c81c4341de5f7b28fcdf09ace9f0a50a24b0"
        },
        "genesisBlockHeader" : {
            "bloom" : "0x00000000000000000000000000000000000000000000000000000000000000000000000000000000000000000000000000000000000000000000000000000000000000000000000000000000000000000000000000000000000000000000000000000000000000000000000000000000000000000000000000000000000000000000000000000000000000000000000000000000000000000000000000000000000000000000000000000000000000000000000000000000000000000000000000000000000000000000000000000000000000000000000000000000000000000000000000000000000000000000000000000000000000000000000000000000",
            "coinbase" : "0x2adc25665018aa1fe0e6bc666dac8fc2697ff9ba",
            "difficulty" : "0x20000",
            "extraData" : "0x00",
            "gasLimit" : "0x989680",
            "gasUsed" : "0x0",
            "hash" : "0xdd91ccbf103b07a4cabe4f6091c6d4ca8ad983755e5d6418b6f85c0d7cc0ac88",
            "mixHash" : "0x0000000000000000000000000000000000000000000000000000000000000000",
            "nonce" : "0x0000000000000000",
            "number" : "0x0",
            "parentHash" : "0x0000000000000000000000000000000000000000000000000000000000000000",
            "receiptTrie" : "0x56e81f171bcc55a6ff8345e692c0f86e5b48e01b996cadc001622fb5e363b421",
            "stateRoot" : "0x86e311c7e501f69f589af60a99060d2f86d5dcdeeaac4372c091bb5f42cd4ffb",
            "timestamp" : "0x0",
            "transactionsTrie" : "0x56e81f171bcc55a6ff8345e692c0f86e5b48e01b996cadc001622fb5e363b421",
            "uncleHash" : "0x1dcc4de8dec75d7aab85b567b6ccd41ad312451b948a7413f0a142fd40d49347"
        },
        "pre" : {
            "0xa94f5374fce5edbc8e2a8697c15331677e6ebf0b" : {
                "balance" : "0xe8d4a51000",
                "code" : "0x",
                "nonce" : "0x00",
                "storage" : {
                }
            },
            "0xb94f5374fce5edbc8e2a8697c15331677e6ebf0b" : {
                "balance" : "0x0b",
                "code" : "0x5b61c3506080511015601c5760013b506001608051016080526000565b00",
                "nonce" : "0x00",
                "storage" : {
                }
            },
            "0xc94f5374fce5edbc8e2a8697c15331677e6ebf0b" : {
                "balance" : "0x00",
                "code" : "0x600160015200",
                "nonce" : "0x00",
                "storage" : {
                }
            },
            "0xd94f5374fce5edbc8e2a8697c15331677e6ebf0b" : {
                "balance" : "0x0b",
                "code" : "0x600160015500",
                "nonce" : "0x00",
                "storage" : {
                }
            },
            "0xe94f5374fce5edbc8e2a8697c15331677e6ebf0b" : {
                "balance" : "0x0b",
                "code" : "0x6000600060006000600173c94f5374fce5edbc8e2a8697c15331677e6ebf0b6064f100",
                "nonce" : "0x00",
                "storage" : {
                }
            }
        },
        "postState" : {
            "0xa94f5374fce5edbc8e2a8697c15331677e6ebf0b" : {
                "code" : "0x",
                "nonce" : "0x01",
                "balance" : "0xe8d4a399a5",
                "storage" : {
                }
            },
            "0xd94f5374fce5edbc8e2a8697c15331677e6ebf0b" : {
                "code" : "0x600160015500",
                "nonce" : "0x00",
                "balance" : "0x0b",
                "storage" : {
                }
            },
            "0xe94f5374fce5edbc8e2a8697c15331677e6ebf0b" : {
                "code" : "0x6000600060006000600173c94f5374fce5edbc8e2a8697c15331677e6ebf0b6064f100",
                "nonce" : "0x00",
                "balance" : "0x0b",
                "storage" : {
                }
            },
            "0xc94f5374fce5edbc8e2a8697c15331677e6ebf0b" : {
                "code" : "0x600160015200",
                "nonce" : "0x00",
                "balance" : "0x00",
                "storage" : {
                }
            },
            "0x2adc25665018aa1fe0e6bc666dac8fc2697ff9ba" : {
                "code" : "0x",
                "nonce" : "0x00",
                "balance" : "0x1bc16d674ec9765b",
                "storage" : {
                }
            },
            "0xb94f5374fce5edbc8e2a8697c15331677e6ebf0b" : {
                "code" : "0x5b61c3506080511015601c5760013b506001608051016080526000565b00",
                "nonce" : "0x00",
                "balance" : "0x0b",
                "storage" : {
                }
            }
        },
        "network" : "Istanbul",
        "sealEngine" : "NoProof",
        "lastblockhash" : "0x8e53622fc56fb5b3ae3f8b7352e7b6685408ad4df7d6a1d4afd8473e62600509",
        "genesisRLP" : "0xf901f8f901f3a00000000000000000000000000000000000000000000000000000000000000000a01dcc4de8dec75d7aab85b567b6ccd41ad312451b948a7413f0a142fd40d49347942adc25665018aa1fe0e6bc666dac8fc2697ff9baa086e311c7e501f69f589af60a99060d2f86d5dcdeeaac4372c091bb5f42cd4ffba056e81f171bcc55a6ff8345e692c0f86e5b48e01b996cadc001622fb5e363b421a056e81f171bcc55a6ff8345e692c0f86e5b48e01b996cadc001622fb5e363b421b9010000000000000000000000000000000000000000000000000000000000000000000000000000000000000000000000000000000000000000000000000000000000000000000000000000000000000000000000000000000000000000000000000000000000000000000000000000000000000000000000000000000000000000000000000000000000000000000000000000000000000000000000000000000000000000000000000000000000000000000000000000000000000000000000000000000000000000000000000000000000000000000000000000000000000000000000000000000000000000000000000000000000000000000000000000000000830200008083989680808000a00000000000000000000000000000000000000000000000000000000000000000880000000000000000c0c0",
        "blocks" : [
            {
                "rlp" : "0xf90297f901f8a0dd91ccbf103b07a4cabe4f6091c6d4ca8ad983755e5d6418b6f85c0d7cc0ac88a01dcc4de8dec75d7aab85b567b6ccd41ad312451b948a7413f0a142fd40d49347942adc25665018aa1fe0e6bc666dac8fc2697ff9baa0ae3b1bc13deb25586867dd4f432c40a01fd73571efb1969bb44a8c8fd0b540f9a0628c57b86ab7d5e1436102c84b1bf25421492ee538d7400f17f2ca7e1b3b119da012f73a7d5240e0ab2eff1c0f1d22eb90a61fd771ce49578ffc25fe5d953873beb901000000000000000000000000000000000000000000000000000000000000000000000000000000000000000000000000000000000000000000000000000000000000000000000000000000000000000000000000000000000000000000000000000000000000000000000000000000000000000000000000000000000000000000000000000000000000000000000000000000000000000000000000000000000000000000000000000000000000000000000000000000000000000000000000000000000000000000000000000000000000000000000000000000000000000000000000000000000000000000000000000000000000000000000000000000000083020000018398bca48301765b8203e800a00000000000000000000000000000000000000000000000000000000000000000880000000000000000f899f8978001830249f08080b84a600060006000600073e94f5374fce5edbc8e2a8697c15331677e6ebf0b61ea60fa506d64600c6000556000526005601bf360005273c94f5374fce5edbc8e2a8697c15331677e6ebf0bff1ca02aff3fab36f877ce8b95d1b9c844ae79f4af6cfcdcfb220e57e904374266958ba03b78da4c45b1293d1c7392081fa736499d06b72688af792243014354c42a6441c0",
                "blockHeader" : {
                    "bloom" : "0x00000000000000000000000000000000000000000000000000000000000000000000000000000000000000000000000000000000000000000000000000000000000000000000000000000000000000000000000000000000000000000000000000000000000000000000000000000000000000000000000000000000000000000000000000000000000000000000000000000000000000000000000000000000000000000000000000000000000000000000000000000000000000000000000000000000000000000000000000000000000000000000000000000000000000000000000000000000000000000000000000000000000000000000000000000000",
                    "coinbase" : "0x2adc25665018aa1fe0e6bc666dac8fc2697ff9ba",
                    "difficulty" : "0x20000",
                    "extraData" : "0x00",
                    "gasLimit" : "0x98bca4",
                    "gasUsed" : "0x1765b",
                    "hash" : "0x8e53622fc56fb5b3ae3f8b7352e7b6685408ad4df7d6a1d4afd8473e62600509",
                    "mixHash" : "0x0000000000000000000000000000000000000000000000000000000000000000",
                    "nonce" : "0x0000000000000000",
                    "number" : "0x1",
                    "parentHash" : "0xdd91ccbf103b07a4cabe4f6091c6d4ca8ad983755e5d6418b6f85c0d7cc0ac88",
                    "receiptTrie" : "0x12f73a7d5240e0ab2eff1c0f1d22eb90a61fd771ce49578ffc25fe5d953873be",
                    "stateRoot" : "0xae3b1bc13deb25586867dd4f432c40a01fd73571efb1969bb44a8c8fd0b540f9",
                    "timestamp" : "0x3e8",
                    "transactionsTrie" : "0x628c57b86ab7d5e1436102c84b1bf25421492ee538d7400f17f2ca7e1b3b119d",
                    "uncleHash" : "0x1dcc4de8dec75d7aab85b567b6ccd41ad312451b948a7413f0a142fd40d49347"
                },
                "transactions" : [
                    {
                        "data" : "0x600060006000600073e94f5374fce5edbc8e2a8697c15331677e6ebf0b61ea60fa506d64600c6000556000526005601bf360005273c94f5374fce5edbc8e2a8697c15331677e6ebf0bff",
                        "gasLimit" : "0x0249f0",
                        "gasPrice" : "0x01",
                        "nonce" : "0x00",
                        "to" : "",
                        "value" : "0x00",
                        "v" : "0x1c",
                        "r" : "0x2aff3fab36f877ce8b95d1b9c844ae79f4af6cfcdcfb220e57e904374266958b",
                        "s" : "0x3b78da4c45b1293d1c7392081fa736499d06b72688af792243014354c42a6441"
                    }
                ]
            }
        ]
    }
}