{
    "static_ReturnTest2_d0g0v0_Istanbul" : {
        "_info" : {
            "comment" : "",
            "filling-rpc-server" : "Geth-1.9.6-unstable-63b18027-20190920",
            "filling-tool-version" : "retesteth-0.0.1+commit.0ae18aef.Linux.g++",
            "lllcversion" : "Version: 0.5.12-develop.2019.9.13+commit.2d601a4f.Linux.g++",
            "source" : "src/GeneralStateTestsFiller/stStaticCall/static_ReturnTest2Filler.json",
            "sourceHash" : "27bf9530ac3e055317b163cef07813ae7125e7778ac340f94ab5e73e216e3e58"
        },
        "genesisBlockHeader" : {
            "bloom" : "0x00000000000000000000000000000000000000000000000000000000000000000000000000000000000000000000000000000000000000000000000000000000000000000000000000000000000000000000000000000000000000000000000000000000000000000000000000000000000000000000000000000000000000000000000000000000000000000000000000000000000000000000000000000000000000000000000000000000000000000000000000000000000000000000000000000000000000000000000000000000000000000000000000000000000000000000000000000000000000000000000000000000000000000000000000000000",
            "coinbase" : "0x2adc25665018aa1fe0e6bc666dac8fc2697ff9ba",
            "difficulty" : "0x20000",
            "extraData" : "0x00",
            "gasLimit" : "0x3b9aca00",
            "gasUsed" : "0x0",
            "hash" : "0xabc232ee9df15efc4ee37e546e4f18796ef02eee9dcf0b824d54d8ab8aee6db5",
            "mixHash" : "0x0000000000000000000000000000000000000000000000000000000000000000",
            "nonce" : "0x0000000000000000",
            "number" : "0x0",
            "parentHash" : "0x0000000000000000000000000000000000000000000000000000000000000000",
            "receiptTrie" : "0x56e81f171bcc55a6ff8345e692c0f86e5b48e01b996cadc001622fb5e363b421",
            "stateRoot" : "0x2b2bd89d659029432938dd4b614353f83cb963418ca4724bf229b0381984b2a0",
            "timestamp" : "0x0",
            "transactionsTrie" : "0x56e81f171bcc55a6ff8345e692c0f86e5b48e01b996cadc001622fb5e363b421",
            "uncleHash" : "0x1dcc4de8dec75d7aab85b567b6ccd41ad312451b948a7413f0a142fd40d49347"
        },
        "pre" : {
            "0x194f5374fce5edbc8e2a8697c15331677e6ebf0b" : {
                "balance" : "0x00",
                "code" : "0x6015600052602060206020600073b94f5374fce5edbc8e2a8697c15331677e6ebf0b611b58fa5060005160005560205160015560406000f300",
                "nonce" : "0x00",
                "storage" : {
                }
            },
            "0xa94f5374fce5edbc8e2a8697c15331677e6ebf0b" : {
                "balance" : "0x0f4240",
                "code" : "0x",
                "nonce" : "0x00",
                "storage" : {
                }
            },
            "0xb94f5374fce5edbc8e2a8697c15331677e6ebf0b" : {
                "balance" : "0x0186a0",
                "code" : "0x60003560030260005260206000f300",
                "nonce" : "0x00",
                "storage" : {
                }
            }
        },
        "postState" : {
            "0xa94f5374fce5edbc8e2a8697c15331677e6ebf0b" : {
                "code" : "0x",
                "nonce" : "0x01",
                "balance" : "0x0e50e4",
                "storage" : {
                }
            },
            "0x194f5374fce5edbc8e2a8697c15331677e6ebf0b" : {
                "code" : "0x6015600052602060206020600073b94f5374fce5edbc8e2a8697c15331677e6ebf0b611b58fa5060005160005560205160015560406000f300",
                "nonce" : "0x00",
                "balance" : "0x00",
                "storage" : {
                    "0x00" : "0x15",
                    "0x01" : "0x3f"
                }
            },
            "0x2adc25665018aa1fe0e6bc666dac8fc2697ff9ba" : {
                "code" : "0x",
                "nonce" : "0x00",
                "balance" : "0x1bc16d674ec8f15c",
                "storage" : {
                }
            },
            "0xb94f5374fce5edbc8e2a8697c15331677e6ebf0b" : {
                "code" : "0x60003560030260005260206000f300",
                "nonce" : "0x00",
                "balance" : "0x0186a0",
                "storage" : {
                }
            }
        },
        "network" : "Istanbul",
        "sealEngine" : "NoProof",
        "lastblockhash" : "0xb5eabae4b4ce40daecf129efa0c89d378aa74f8b2923e3f490a9aac3f8302e36",
        "genesisRLP" : "0xf901f9f901f4a00000000000000000000000000000000000000000000000000000000000000000a01dcc4de8dec75d7aab85b567b6ccd41ad312451b948a7413f0a142fd40d49347942adc25665018aa1fe0e6bc666dac8fc2697ff9baa02b2bd89d659029432938dd4b614353f83cb963418ca4724bf229b0381984b2a0a056e81f171bcc55a6ff8345e692c0f86e5b48e01b996cadc001622fb5e363b421a056e81f171bcc55a6ff8345e692c0f86e5b48e01b996cadc001622fb5e363b421b90100000000000000000000000000000000000000000000000000000000000000000000000000000000000000000000000000000000000000000000000000000000000000000000000000000000000000000000000000000000000000000000000000000000000000000000000000000000000000000000000000000000000000000000000000000000000000000000000000000000000000000000000000000000000000000000000000000000000000000000000000000000000000000000000000000000000000000000000000000000000000000000000000000000000000000000000000000000000000000000000000000000000000000000000000000000008302000080843b9aca00808000a00000000000000000000000000000000000000000000000000000000000000000880000000000000000c0c0",
        "blocks" : [
            {
                "rlp" : "0xf90260f901f8a0abc232ee9df15efc4ee37e546e4f18796ef02eee9dcf0b824d54d8ab8aee6db5a01dcc4de8dec75d7aab85b567b6ccd41ad312451b948a7413f0a142fd40d49347942adc25665018aa1fe0e6bc666dac8fc2697ff9baa02f34676b0cfa8f8e17ed105485852f2b8262b1b9953d63436bb9da18f27427eba0714f2dbf5a5c30b30264417545757fe69da878802c4ec75e9fd1c1be9988a148a0cc56506d9300411462ccdf272b8350ffb9d515ff1ba602ea4cc234bf9ec35f4db90100000000000000000000000000000000000000000000000000000000000000000000000000000000000000000000000000000000000000000000000000000000000000000000000000000000000000000000000000000000000000000000000000000000000000000000000000000000000000000000000000000000000000000000000000000000000000000000000000000000000000000000000000000000000000000000000000000000000000000000000000000000000000000000000000000000000000000000000000000000000000000000000000000000000000000000000000000000000000000000000000000000000000000000000000000000008302000001843ba9b0b182f15c8203e800a00000000000000000000000000000000000000000000000000000000000000000880000000000000000f862f86080018303d09094194f5374fce5edbc8e2a8697c15331677e6ebf0b80801ba040400852d7bed4663d6174943fa640fcc4f146f8e849b92a6cae735cdf2fc827a00cdc17ce38a87eedda06d9d1c7c98ef9a083c0a200a1ac1a4fe9d439ace32fc0c0",
                "blockHeader" : {
                    "bloom" : "0x00000000000000000000000000000000000000000000000000000000000000000000000000000000000000000000000000000000000000000000000000000000000000000000000000000000000000000000000000000000000000000000000000000000000000000000000000000000000000000000000000000000000000000000000000000000000000000000000000000000000000000000000000000000000000000000000000000000000000000000000000000000000000000000000000000000000000000000000000000000000000000000000000000000000000000000000000000000000000000000000000000000000000000000000000000000",
                    "coinbase" : "0x2adc25665018aa1fe0e6bc666dac8fc2697ff9ba",
                    "difficulty" : "0x20000",
                    "extraData" : "0x00",
                    "gasLimit" : "0x3ba9b0b1",
                    "gasUsed" : "0xf15c",
                    "hash" : "0xb5eabae4b4ce40daecf129efa0c89d378aa74f8b2923e3f490a9aac3f8302e36",
                    "mixHash" : "0x0000000000000000000000000000000000000000000000000000000000000000",
                    "nonce" : "0x0000000000000000",
                    "number" : "0x1",
                    "parentHash" : "0xabc232ee9df15efc4ee37e546e4f18796ef02eee9dcf0b824d54d8ab8aee6db5",
                    "receiptTrie" : "0xcc56506d9300411462ccdf272b8350ffb9d515ff1ba602ea4cc234bf9ec35f4d",
                    "stateRoot" : "0x2f34676b0cfa8f8e17ed105485852f2b8262b1b9953d63436bb9da18f27427eb",
                    "timestamp" : "0x3e8",
                    "transactionsTrie" : "0x714f2dbf5a5c30b30264417545757fe69da878802c4ec75e9fd1c1be9988a148",
                    "uncleHash" : "0x1dcc4de8dec75d7aab85b567b6ccd41ad312451b948a7413f0a142fd40d49347"
                },
                "transactions" : [
                    {
                        "data" : "0x",
                        "gasLimit" : "0x03d090",
                        "gasPrice" : "0x01",
                        "nonce" : "0x00",
                        "to" : "0x194f5374fce5edbc8e2a8697c15331677e6ebf0b",
                        "value" : "0x00",
                        "v" : "0x1b",
                        "r" : "0x40400852d7bed4663d6174943fa640fcc4f146f8e849b92a6cae735cdf2fc827",
                        "s" : "0x0cdc17ce38a87eedda06d9d1c7c98ef9a083c0a200a1ac1a4fe9d439ace32fc0"
                    }
                ]
            }
        ]
    }
}