{
    "static_CallRecursiveBombPreCall2_d0g0v0_Istanbul" : {
        "_info" : {
            "comment" : "",
            "filling-rpc-server" : "Geth-1.9.6-unstable-63b18027-20190920",
            "filling-tool-version" : "retesteth-0.0.1+commit.0ae18aef.Linux.g++",
            "lllcversion" : "Version: 0.5.12-develop.2019.9.13+commit.2d601a4f.Linux.g++",
            "source" : "src/GeneralStateTestsFiller/stStaticCall/static_CallRecursiveBombPreCall2Filler.json",
            "sourceHash" : "d1a15c5d31a3b975c718a4ad5df11e1e7cbdac3cb77972a7559a4c4c5078f935"
        },
        "genesisBlockHeader" : {
            "bloom" : "0x00000000000000000000000000000000000000000000000000000000000000000000000000000000000000000000000000000000000000000000000000000000000000000000000000000000000000000000000000000000000000000000000000000000000000000000000000000000000000000000000000000000000000000000000000000000000000000000000000000000000000000000000000000000000000000000000000000000000000000000000000000000000000000000000000000000000000000000000000000000000000000000000000000000000000000000000000000000000000000000000000000000000000000000000000000000",
            "coinbase" : "0x2adc25665018aa1fe0e6bc666dac8fc2697ff9ba",
            "difficulty" : "0x20000",
            "extraData" : "0x00",
            "gasLimit" : "0x7fffffffffffffff",
            "gasUsed" : "0x0",
            "hash" : "0x75e9c36ba157b7eb0e81392f749b77dcf08687baa45c24fc7ef19421daa3c749",
            "mixHash" : "0x0000000000000000000000000000000000000000000000000000000000000000",
            "nonce" : "0x0000000000000000",
            "number" : "0x0",
            "parentHash" : "0x0000000000000000000000000000000000000000000000000000000000000000",
            "receiptTrie" : "0x56e81f171bcc55a6ff8345e692c0f86e5b48e01b996cadc001622fb5e363b421",
            "stateRoot" : "0xc89d3ab02a5e153ceb2f9f20dfffc774044419543b7782636f7e1ad1d062a3cf",
            "timestamp" : "0x0",
            "transactionsTrie" : "0x56e81f171bcc55a6ff8345e692c0f86e5b48e01b996cadc001622fb5e363b421",
            "uncleHash" : "0x1dcc4de8dec75d7aab85b567b6ccd41ad312451b948a7413f0a142fd40d49347"
        },
        "pre" : {
            "0x095e7baea6a6c7c4c2dfeb977efac326af552d87" : {
                "balance" : "0x0fffffffffffffffffffffffffffffff",
                "code" : "0x600060006000600073bad304eb96065b2a98b57a48a06ae28d285a71b5620186a0fa50600060006000600073945304eb96065b2a98b57a48a06ae28d285a71b56707fffffffffffffffa6000555a60015500",
                "nonce" : "0x00",
                "storage" : {
                }
            },
            "0x945304eb96065b2a98b57a48a06ae28d285a71b5" : {
                "balance" : "0x0de0b6b3a7640000",
                "code" : "0x60016000510160005260006000600060003062036b005a03fa00",
                "nonce" : "0x00",
                "storage" : {
                }
            },
            "0xa94f5374fce5edbc8e2a8697c15331677e6ebf0b" : {
                "balance" : "0x0fffffffffffffffffffffffffffffff",
                "code" : "0x",
                "nonce" : "0x00",
                "storage" : {
                }
            }
        },
        "postState" : {
            "0xa94f5374fce5edbc8e2a8697c15331677e6ebf0b" : {
                "code" : "0x",
                "nonce" : "0x01",
                "balance" : "0x0ffffffffffffffffffffffffff37011",
                "storage" : {
                }
            },
            "0x095e7baea6a6c7c4c2dfeb977efac326af552d87" : {
                "code" : "0x600060006000600073bad304eb96065b2a98b57a48a06ae28d285a71b5620186a0fa50600060006000600073945304eb96065b2a98b57a48a06ae28d285a71b56707fffffffffffffffa6000555a60015500",
                "nonce" : "0x00",
                "balance" : "0x0fffffffffffffffffffffffffffffff",
                "storage" : {
                    "0x00" : "0x01",
                    "0x01" : "0x7fdffffffff3be36"
                }
            },
            "0x2adc25665018aa1fe0e6bc666dac8fc2697ff9ba" : {
                "code" : "0x",
                "nonce" : "0x00",
                "balance" : "0x1bc16d674ed48fee",
                "storage" : {
                }
            },
            "0x945304eb96065b2a98b57a48a06ae28d285a71b5" : {
                "code" : "0x60016000510160005260006000600060003062036b005a03fa00",
                "nonce" : "0x00",
                "balance" : "0x0de0b6b3a7640000",
                "storage" : {
                }
            }
        },
        "network" : "Istanbul",
        "sealEngine" : "NoProof",
        "lastblockhash" : "0x44eecd1eb1e78bcb31d1ca33a8ac5c42b65925fd6eadda4c20d2395f1e40c653",
        "genesisRLP" : "0xf901fdf901f8a00000000000000000000000000000000000000000000000000000000000000000a01dcc4de8dec75d7aab85b567b6ccd41ad312451b948a7413f0a142fd40d49347942adc25665018aa1fe0e6bc666dac8fc2697ff9baa0c89d3ab02a5e153ceb2f9f20dfffc774044419543b7782636f7e1ad1d062a3cfa056e81f171bcc55a6ff8345e692c0f86e5b48e01b996cadc001622fb5e363b421a056e81f171bcc55a6ff8345e692c0f86e5b48e01b996cadc001622fb5e363b421b90100000000000000000000000000000000000000000000000000000000000000000000000000000000000000000000000000000000000000000000000000000000000000000000000000000000000000000000000000000000000000000000000000000000000000000000000000000000000000000000000000000000000000000000000000000000000000000000000000000000000000000000000000000000000000000000000000000000000000000000000000000000000000000000000000000000000000000000000000000000000000000000000000000000000000000000000000000000000000000000000000000000000000000000000000000000008302000080887fffffffffffffff808000a00000000000000000000000000000000000000000000000000000000000000000880000000000000000c0c0",
        "blocks" : [
            {
                "rlp" : "0xf9026af901fda075e9c36ba157b7eb0e81392f749b77dcf08687baa45c24fc7ef19421daa3c749a01dcc4de8dec75d7aab85b567b6ccd41ad312451b948a7413f0a142fd40d49347942adc25665018aa1fe0e6bc666dac8fc2697ff9baa0142cb95c3714e1af11de2547f912a2a6abc333df95d4e296604d3277ccf6cd98a06025640a65a8492fd4f6ad3658607cd24b06b4169fd750e4678d15536264eed6a064ba9e86003221b23a76a9fbfa40f81774f07cf0aa3084ef557ebb869d3ba8e9b90100000000000000000000000000000000000000000000000000000000000000000000000000000000000000000000000000000000000000000000000000000000000000000000000000000000000000000000000000000000000000000000000000000000000000000000000000000000000000000000000000000000000000000000000000000000000000000000000000000000000000000000000000000000000000000000000000000000000000000000000000000000000000000000000000000000000000000000000000000000000000000000000000000000000000000000000000000000000000000000000000000000000000000000000000000000008302000001887fffffffffffffff830c8fee8203e800a00000000000000000000000000000000000000000000000000000000000000000880000000000000000f867f8658001887fe000000000000194095e7baea6a6c7c4c2dfeb977efac326af552d8780801ba042bd3181c70d7d5891aba1206091cdb0ca75ddf628ca3555f7aef36b063293b9a05e1b0c74024852a39beba89381980ea5dfbcf744865776ca5666ba8d04e28d9ec0",
                "blockHeader" : {
                    "bloom" : "0x00000000000000000000000000000000000000000000000000000000000000000000000000000000000000000000000000000000000000000000000000000000000000000000000000000000000000000000000000000000000000000000000000000000000000000000000000000000000000000000000000000000000000000000000000000000000000000000000000000000000000000000000000000000000000000000000000000000000000000000000000000000000000000000000000000000000000000000000000000000000000000000000000000000000000000000000000000000000000000000000000000000000000000000000000000000",
                    "coinbase" : "0x2adc25665018aa1fe0e6bc666dac8fc2697ff9ba",
                    "difficulty" : "0x20000",
                    "extraData" : "0x00",
                    "gasLimit" : "0x7fffffffffffffff",
                    "gasUsed" : "0xc8fee",
                    "hash" : "0x44eecd1eb1e78bcb31d1ca33a8ac5c42b65925fd6eadda4c20d2395f1e40c653",
                    "mixHash" : "0x0000000000000000000000000000000000000000000000000000000000000000",
                    "nonce" : "0x0000000000000000",
                    "number" : "0x1",
                    "parentHash" : "0x75e9c36ba157b7eb0e81392f749b77dcf08687baa45c24fc7ef19421daa3c749",
                    "receiptTrie" : "0x64ba9e86003221b23a76a9fbfa40f81774f07cf0aa3084ef557ebb869d3ba8e9",
                    "stateRoot" : "0x142cb95c3714e1af11de2547f912a2a6abc333df95d4e296604d3277ccf6cd98",
                    "timestamp" : "0x3e8",
                    "transactionsTrie" : "0x6025640a65a8492fd4f6ad3658607cd24b06b4169fd750e4678d15536264eed6",
                    "uncleHash" : "0x1dcc4de8dec75d7aab85b567b6ccd41ad312451b948a7413f0a142fd40d49347"
                },
                "transactions" : [
                    {
                        "data" : "0x",
                        "gasLimit" : "0x7fe0000000000001",
                        "gasPrice" : "0x01",
                        "nonce" : "0x00",
                        "to" : "0x095e7baea6a6c7c4c2dfeb977efac326af552d87",
                        "value" : "0x00",
                        "v" : "0x1b",
                        "r" : "0x42bd3181c70d7d5891aba1206091cdb0ca75ddf628ca3555f7aef36b063293b9",
                        "s" : "0x5e1b0c74024852a39beba89381980ea5dfbcf744865776ca5666ba8d04e28d9e"
                    }
                ]
            }
        ]
    }
}