{
    "static_CallRecursiveBombPreCall_d0g0v0_Istanbul" : {
        "_info" : {
            "comment" : "",
            "filling-rpc-server" : "Geth-1.9.6-unstable-63b18027-20190920",
            "filling-tool-version" : "retesteth-0.0.1+commit.0ae18aef.Linux.g++",
            "lllcversion" : "Version: 0.5.12-develop.2019.9.13+commit.2d601a4f.Linux.g++",
            "source" : "src/GeneralStateTestsFiller/stStaticCall/static_CallRecursiveBombPreCallFiller.json",
            "sourceHash" : "8d452526187d07e3f415122c48823379d1edebc78db586598c967f5932f8e60c"
        },
        "genesisBlockHeader" : {
            "bloom" : "0x00000000000000000000000000000000000000000000000000000000000000000000000000000000000000000000000000000000000000000000000000000000000000000000000000000000000000000000000000000000000000000000000000000000000000000000000000000000000000000000000000000000000000000000000000000000000000000000000000000000000000000000000000000000000000000000000000000000000000000000000000000000000000000000000000000000000000000000000000000000000000000000000000000000000000000000000000000000000000000000000000000000000000000000000000000000",
            "coinbase" : "0x2adc25665018aa1fe0e6bc666dac8fc2697ff9ba",
            "difficulty" : "0x20000",
            "extraData" : "0x00",
            "gasLimit" : "0x7fffffffffffffff",
            "gasUsed" : "0x0",
            "hash" : "0x321118af5b5f066ce888ce5495700c0068f789b2c08be81fe4ede35f877d1641",
            "mixHash" : "0x0000000000000000000000000000000000000000000000000000000000000000",
            "nonce" : "0x0000000000000000",
            "number" : "0x0",
            "parentHash" : "0x0000000000000000000000000000000000000000000000000000000000000000",
            "receiptTrie" : "0x56e81f171bcc55a6ff8345e692c0f86e5b48e01b996cadc001622fb5e363b421",
            "stateRoot" : "0x99af649e08302dc448133ea53bd54e431d92fa51b5315f807a3476f919101535",
            "timestamp" : "0x0",
            "transactionsTrie" : "0x56e81f171bcc55a6ff8345e692c0f86e5b48e01b996cadc001622fb5e363b421",
            "uncleHash" : "0x1dcc4de8dec75d7aab85b567b6ccd41ad312451b948a7413f0a142fd40d49347"
        },
        "pre" : {
            "0x095e7baea6a6c7c4c2dfeb977efac326af552d87" : {
                "balance" : "0x0fffffffffffffffffffffffffffffff",
                "code" : "0x600060006000600073bad304eb96065b2a98b57a48a06ae28d285a71b5620186a0fa50600060006000600073945304eb96065b2a98b57a48a06ae28d285a71b56707fffffffffffffff46000555a60015500",
                "nonce" : "0x00",
                "storage" : {
                }
            },
            "0x945304eb96065b2a98b57a48a06ae28d285a71b5" : {
                "balance" : "0x0de0b6b3a7640000",
                "code" : "0x600160005101600052600060006000600073945304eb96065b2a98b57a48a06ae28d285a71b562036b005a03fa00",
                "nonce" : "0x00",
                "storage" : {
                }
            },
            "0xa94f5374fce5edbc8e2a8697c15331677e6ebf0b" : {
                "balance" : "0x0fffffffffffffffffffffffffffffff",
                "code" : "0x",
                "nonce" : "0x00",
                "storage" : {
                }
            }
        },
        "postState" : {
            "0xa94f5374fce5edbc8e2a8697c15331677e6ebf0b" : {
                "code" : "0x",
                "nonce" : "0x01",
                "balance" : "0x0ffffffffffffffffffffffffff36c11",
                "storage" : {
                }
            },
            "0x095e7baea6a6c7c4c2dfeb977efac326af552d87" : {
                "code" : "0x600060006000600073bad304eb96065b2a98b57a48a06ae28d285a71b5620186a0fa50600060006000600073945304eb96065b2a98b57a48a06ae28d285a71b56707fffffffffffffff46000555a60015500",
                "nonce" : "0x00",
                "balance" : "0x0fffffffffffffffffffffffffffffff",
                "storage" : {
                    "0x00" : "0x01",
                    "0x01" : "0x7fdffffffff3ba36"
                }
            },
            "0x2adc25665018aa1fe0e6bc666dac8fc2697ff9ba" : {
                "code" : "0x",
                "nonce" : "0x00",
                "balance" : "0x1bc16d674ed493ee",
                "storage" : {
                }
            },
            "0x945304eb96065b2a98b57a48a06ae28d285a71b5" : {
                "code" : "0x600160005101600052600060006000600073945304eb96065b2a98b57a48a06ae28d285a71b562036b005a03fa00",
                "nonce" : "0x00",
                "balance" : "0x0de0b6b3a7640000",
                "storage" : {
                }
            }
        },
        "network" : "Istanbul",
        "sealEngine" : "NoProof",
        "lastblockhash" : "0xf6d061eb311edf819b590cf435af26ac6e291c57691ea1734e751267a11e6aee",
        "genesisRLP" : "0xf901fdf901f8a00000000000000000000000000000000000000000000000000000000000000000a01dcc4de8dec75d7aab85b567b6ccd41ad312451b948a7413f0a142fd40d49347942adc25665018aa1fe0e6bc666dac8fc2697ff9baa099af649e08302dc448133ea53bd54e431d92fa51b5315f807a3476f919101535a056e81f171bcc55a6ff8345e692c0f86e5b48e01b996cadc001622fb5e363b421a056e81f171bcc55a6ff8345e692c0f86e5b48e01b996cadc001622fb5e363b421b90100000000000000000000000000000000000000000000000000000000000000000000000000000000000000000000000000000000000000000000000000000000000000000000000000000000000000000000000000000000000000000000000000000000000000000000000000000000000000000000000000000000000000000000000000000000000000000000000000000000000000000000000000000000000000000000000000000000000000000000000000000000000000000000000000000000000000000000000000000000000000000000000000000000000000000000000000000000000000000000000000000000000000000000000000000000008302000080887fffffffffffffff808000a00000000000000000000000000000000000000000000000000000000000000000880000000000000000c0c0",
        "blocks" : [
            {
                "rlp" : "0xf9026af901fda0321118af5b5f066ce888ce5495700c0068f789b2c08be81fe4ede35f877d1641a01dcc4de8dec75d7aab85b567b6ccd41ad312451b948a7413f0a142fd40d49347942adc25665018aa1fe0e6bc666dac8fc2697ff9baa03ee76e537bb1e063a8dc1e644ae4fc58147c7eb2cf38008598a1887477e85d12a06025640a65a8492fd4f6ad3658607cd24b06b4169fd750e4678d15536264eed6a03decaea9fece872582cfb796ddb25688472785bb81cdc0a6e1ebfb38768f6b7bb90100000000000000000000000000000000000000000000000000000000000000000000000000000000000000000000000000000000000000000000000000000000000000000000000000000000000000000000000000000000000000000000000000000000000000000000000000000000000000000000000000000000000000000000000000000000000000000000000000000000000000000000000000000000000000000000000000000000000000000000000000000000000000000000000000000000000000000000000000000000000000000000000000000000000000000000000000000000000000000000000000000000000000000000000000000000008302000001887fffffffffffffff830c93ee8203e800a00000000000000000000000000000000000000000000000000000000000000000880000000000000000f867f8658001887fe000000000000194095e7baea6a6c7c4c2dfeb977efac326af552d8780801ba042bd3181c70d7d5891aba1206091cdb0ca75ddf628ca3555f7aef36b063293b9a05e1b0c74024852a39beba89381980ea5dfbcf744865776ca5666ba8d04e28d9ec0",
                "blockHeader" : {
                    "bloom" : "0x00000000000000000000000000000000000000000000000000000000000000000000000000000000000000000000000000000000000000000000000000000000000000000000000000000000000000000000000000000000000000000000000000000000000000000000000000000000000000000000000000000000000000000000000000000000000000000000000000000000000000000000000000000000000000000000000000000000000000000000000000000000000000000000000000000000000000000000000000000000000000000000000000000000000000000000000000000000000000000000000000000000000000000000000000000000",
                    "coinbase" : "0x2adc25665018aa1fe0e6bc666dac8fc2697ff9ba",
                    "difficulty" : "0x20000",
                    "extraData" : "0x00",
                    "gasLimit" : "0x7fffffffffffffff",
                    "gasUsed" : "0xc93ee",
                    "hash" : "0xf6d061eb311edf819b590cf435af26ac6e291c57691ea1734e751267a11e6aee",
                    "mixHash" : "0x0000000000000000000000000000000000000000000000000000000000000000",
                    "nonce" : "0x0000000000000000",
                    "number" : "0x1",
                    "parentHash" : "0x321118af5b5f066ce888ce5495700c0068f789b2c08be81fe4ede35f877d1641",
                    "receiptTrie" : "0x3decaea9fece872582cfb796ddb25688472785bb81cdc0a6e1ebfb38768f6b7b",
                    "stateRoot" : "0x3ee76e537bb1e063a8dc1e644ae4fc58147c7eb2cf38008598a1887477e85d12",
                    "timestamp" : "0x3e8",
                    "transactionsTrie" : "0x6025640a65a8492fd4f6ad3658607cd24b06b4169fd750e4678d15536264eed6",
                    "uncleHash" : "0x1dcc4de8dec75d7aab85b567b6ccd41ad312451b948a7413f0a142fd40d49347"
                },
                "transactions" : [
                    {
                        "data" : "0x",
                        "gasLimit" : "0x7fe0000000000001",
                        "gasPrice" : "0x01",
                        "nonce" : "0x00",
                        "to" : "0x095e7baea6a6c7c4c2dfeb977efac326af552d87",
                        "value" : "0x00",
                        "v" : "0x1b",
                        "r" : "0x42bd3181c70d7d5891aba1206091cdb0ca75ddf628ca3555f7aef36b063293b9",
                        "s" : "0x5e1b0c74024852a39beba89381980ea5dfbcf744865776ca5666ba8d04e28d9e"
                    }
                ]
            }
        ]
    }
}