{
    "static_CheckCallCostOOG_d0g0v0_Istanbul" : {
        "_info" : {
            "comment" : "",
            "filling-rpc-server" : "Geth-1.9.6-unstable-63b18027-20190920",
            "filling-tool-version" : "retesteth-0.0.1+commit.0ae18aef.Linux.g++",
            "lllcversion" : "Version: 0.5.12-develop.2019.9.13+commit.2d601a4f.Linux.g++",
            "source" : "src/GeneralStateTestsFiller/stStaticCall/static_CheckCallCostOOGFiller.json",
            "sourceHash" : "2e8d509b23f40977ab5964ee2424d2690d8b99dc328be0d2fcd603997e24cc9e"
        },
        "genesisBlockHeader" : {
            "bloom" : "0x00000000000000000000000000000000000000000000000000000000000000000000000000000000000000000000000000000000000000000000000000000000000000000000000000000000000000000000000000000000000000000000000000000000000000000000000000000000000000000000000000000000000000000000000000000000000000000000000000000000000000000000000000000000000000000000000000000000000000000000000000000000000000000000000000000000000000000000000000000000000000000000000000000000000000000000000000000000000000000000000000000000000000000000000000000000",
            "coinbase" : "0x2adc25665018aa1fe0e6bc666dac8fc2697ff9ba",
            "difficulty" : "0x20000",
            "extraData" : "0x00",
            "gasLimit" : "0x989680",
            "gasUsed" : "0x0",
            "hash" : "0x15e1e969ebd48dfaf170c3559169821a177775120d7c230aeab67fa1c942def8",
            "mixHash" : "0x0000000000000000000000000000000000000000000000000000000000000000",
            "nonce" : "0x0000000000000000",
            "number" : "0x0",
            "parentHash" : "0x0000000000000000000000000000000000000000000000000000000000000000",
            "receiptTrie" : "0x56e81f171bcc55a6ff8345e692c0f86e5b48e01b996cadc001622fb5e363b421",
            "stateRoot" : "0x653716a11c2eeb7e4ca2faafa3d4f6ed89f986d19c5289a494e221ab7014b467",
            "timestamp" : "0x0",
            "transactionsTrie" : "0x56e81f171bcc55a6ff8345e692c0f86e5b48e01b996cadc001622fb5e363b421",
            "uncleHash" : "0x1dcc4de8dec75d7aab85b567b6ccd41ad312451b948a7413f0a142fd40d49347"
        },
        "pre" : {
            "0x1000000000000000000000000000000000000000" : {
                "balance" : "0x00",
                "code" : "0x60006000600060007320000000000000000000000000000000000000006064fa00",
                "nonce" : "0x00",
                "storage" : {
                }
            },
            "0x2000000000000000000000000000000000000000" : {
                "balance" : "0x00",
                "code" : "0x600160015200",
                "nonce" : "0x00",
                "storage" : {
                }
            },
            "0xa94f5374fce5edbc8e2a8697c15331677e6ebf0b" : {
                "balance" : "0xe8d4a51000",
                "code" : "0x",
                "nonce" : "0x00",
                "storage" : {
                }
            }
        },
        "postState" : {
            "0xa94f5374fce5edbc8e2a8697c15331677e6ebf0b" : {
                "code" : "0x",
                "nonce" : "0x01",
                "balance" : "0xe8d4a4bb3c",
                "storage" : {
                }
            },
            "0x2000000000000000000000000000000000000000" : {
                "code" : "0x600160015200",
                "nonce" : "0x00",
                "balance" : "0x00",
                "storage" : {
                }
            },
            "0x2adc25665018aa1fe0e6bc666dac8fc2697ff9ba" : {
                "code" : "0x",
                "nonce" : "0x00",
                "balance" : "0x1bc16d674ec854c4",
                "storage" : {
                }
            },
            "0x1000000000000000000000000000000000000000" : {
                "code" : "0x60006000600060007320000000000000000000000000000000000000006064fa00",
                "nonce" : "0x00",
                "balance" : "0x00",
                "storage" : {
                }
            }
        },
        "network" : "Istanbul",
        "sealEngine" : "NoProof",
        "lastblockhash" : "0xbc989ca12a73bc976fac466a98b7adf4a390f5c2877c4ec657740eb933af8e4f",
        "genesisRLP" : "0xf901f8f901f3a00000000000000000000000000000000000000000000000000000000000000000a01dcc4de8dec75d7aab85b567b6ccd41ad312451b948a7413f0a142fd40d49347942adc25665018aa1fe0e6bc666dac8fc2697ff9baa0653716a11c2eeb7e4ca2faafa3d4f6ed89f986d19c5289a494e221ab7014b467a056e81f171bcc55a6ff8345e692c0f86e5b48e01b996cadc001622fb5e363b421a056e81f171bcc55a6ff8345e692c0f86e5b48e01b996cadc001622fb5e363b421b9010000000000000000000000000000000000000000000000000000000000000000000000000000000000000000000000000000000000000000000000000000000000000000000000000000000000000000000000000000000000000000000000000000000000000000000000000000000000000000000000000000000000000000000000000000000000000000000000000000000000000000000000000000000000000000000000000000000000000000000000000000000000000000000000000000000000000000000000000000000000000000000000000000000000000000000000000000000000000000000000000000000000000000000000000000000000830200008083989680808000a00000000000000000000000000000000000000000000000000000000000000000880000000000000000c0c0",
        "blocks" : [
            {
                "rlp" : "0xf9025ef901f7a015e1e969ebd48dfaf170c3559169821a177775120d7c230aeab67fa1c942def8a01dcc4de8dec75d7aab85b567b6ccd41ad312451b948a7413f0a142fd40d49347942adc25665018aa1fe0e6bc666dac8fc2697ff9baa05dcb4a12ce1705c0a4f7b14bca43017334c30675b93745e97b81477edb86297aa06501f33391e89964bd86be6d64bb833b315cc1e61996e356caa9352f992c7525a0cc622cd09860dbcba5e111e2491e3c10a6a007266fe0036aefc4dc772e9e8e7cb901000000000000000000000000000000000000000000000000000000000000000000000000000000000000000000000000000000000000000000000000000000000000000000000000000000000000000000000000000000000000000000000000000000000000000000000000000000000000000000000000000000000000000000000000000000000000000000000000000000000000000000000000000000000000000000000000000000000000000000000000000000000000000000000000000000000000000000000000000000000000000000000000000000000000000000000000000000000000000000000000000000000000000000000000000000000083020000018398bca48254c48203e800a00000000000000000000000000000000000000000000000000000000000000000880000000000000000f861f85f80018254c494100000000000000000000000000000000000000080801ba0146ba3b93735f1329ac56b9c97e851b8c2762cec37bbc26b0272728de11bab16a00c41b1af3d74f8c0c3bc4bbef1a454845ea27ca6632bbc71d4cbeba322928710c0",
                "blockHeader" : {
                    "bloom" : "0x00000000000000000000000000000000000000000000000000000000000000000000000000000000000000000000000000000000000000000000000000000000000000000000000000000000000000000000000000000000000000000000000000000000000000000000000000000000000000000000000000000000000000000000000000000000000000000000000000000000000000000000000000000000000000000000000000000000000000000000000000000000000000000000000000000000000000000000000000000000000000000000000000000000000000000000000000000000000000000000000000000000000000000000000000000000",
                    "coinbase" : "0x2adc25665018aa1fe0e6bc666dac8fc2697ff9ba",
                    "difficulty" : "0x20000",
                    "extraData" : "0x00",
                    "gasLimit" : "0x98bca4",
                    "gasUsed" : "0x54c4",
                    "hash" : "0xbc989ca12a73bc976fac466a98b7adf4a390f5c2877c4ec657740eb933af8e4f",
                    "mixHash" : "0x0000000000000000000000000000000000000000000000000000000000000000",
                    "nonce" : "0x0000000000000000",
                    "number" : "0x1",
                    "parentHash" : "0x15e1e969ebd48dfaf170c3559169821a177775120d7c230aeab67fa1c942def8",
                    "receiptTrie" : "0xcc622cd09860dbcba5e111e2491e3c10a6a007266fe0036aefc4dc772e9e8e7c",
                    "stateRoot" : "0x5dcb4a12ce1705c0a4f7b14bca43017334c30675b93745e97b81477edb86297a",
                    "timestamp" : "0x3e8",
                    "transactionsTrie" : "0x6501f33391e89964bd86be6d64bb833b315cc1e61996e356caa9352f992c7525",
                    "uncleHash" : "0x1dcc4de8dec75d7aab85b567b6ccd41ad312451b948a7413f0a142fd40d49347"
                },
                "transactions" : [
                    {
                        "data" : "0x",
                        "gasLimit" : "0x54c4",
                        "gasPrice" : "0x01",
                        "nonce" : "0x00",
                        "to" : "0x1000000000000000000000000000000000000000",
                        "value" : "0x00",
                        "v" : "0x1b",
                        "r" : "0x146ba3b93735f1329ac56b9c97e851b8c2762cec37bbc26b0272728de11bab16",
                        "s" : "0x0c41b1af3d74f8c0c3bc4bbef1a454845ea27ca6632bbc71d4cbeba322928710"
                    }
                ]
            }
        ]
    },
    "static_CheckCallCostOOG_d0g1v0_Istanbul" : {
        "_info" : {
            "comment" : "",
            "filling-rpc-server" : "Geth-1.9.6-unstable-63b18027-20190920",
            "filling-tool-version" : "retesteth-0.0.1+commit.0ae18aef.Linux.g++",
            "lllcversion" : "Version: 0.5.12-develop.2019.9.13+commit.2d601a4f.Linux.g++",
            "source" : "src/GeneralStateTestsFiller/stStaticCall/static_CheckCallCostOOGFiller.json",
            "sourceHash" : "2e8d509b23f40977ab5964ee2424d2690d8b99dc328be0d2fcd603997e24cc9e"
        },
        "genesisBlockHeader" : {
            "bloom" : "0x00000000000000000000000000000000000000000000000000000000000000000000000000000000000000000000000000000000000000000000000000000000000000000000000000000000000000000000000000000000000000000000000000000000000000000000000000000000000000000000000000000000000000000000000000000000000000000000000000000000000000000000000000000000000000000000000000000000000000000000000000000000000000000000000000000000000000000000000000000000000000000000000000000000000000000000000000000000000000000000000000000000000000000000000000000000",
            "coinbase" : "0x2adc25665018aa1fe0e6bc666dac8fc2697ff9ba",
            "difficulty" : "0x20000",
            "extraData" : "0x00",
            "gasLimit" : "0x989680",
            "gasUsed" : "0x0",
            "hash" : "0x15e1e969ebd48dfaf170c3559169821a177775120d7c230aeab67fa1c942def8",
            "mixHash" : "0x0000000000000000000000000000000000000000000000000000000000000000",
            "nonce" : "0x0000000000000000",
            "number" : "0x0",
            "parentHash" : "0x0000000000000000000000000000000000000000000000000000000000000000",
            "receiptTrie" : "0x56e81f171bcc55a6ff8345e692c0f86e5b48e01b996cadc001622fb5e363b421",
            "stateRoot" : "0x653716a11c2eeb7e4ca2faafa3d4f6ed89f986d19c5289a494e221ab7014b467",
            "timestamp" : "0x0",
            "transactionsTrie" : "0x56e81f171bcc55a6ff8345e692c0f86e5b48e01b996cadc001622fb5e363b421",
            "uncleHash" : "0x1dcc4de8dec75d7aab85b567b6ccd41ad312451b948a7413f0a142fd40d49347"
        },
        "pre" : {
            "0x1000000000000000000000000000000000000000" : {
                "balance" : "0x00",
                "code" : "0x60006000600060007320000000000000000000000000000000000000006064fa00",
                "nonce" : "0x00",
                "storage" : {
                }
            },
            "0x2000000000000000000000000000000000000000" : {
                "balance" : "0x00",
                "code" : "0x600160015200",
                "nonce" : "0x00",
                "storage" : {
                }
            },
            "0xa94f5374fce5edbc8e2a8697c15331677e6ebf0b" : {
                "balance" : "0xe8d4a51000",
                "code" : "0x",
                "nonce" : "0x00",
                "storage" : {
                }
            }
        },
        "postState" : {
            "0xa94f5374fce5edbc8e2a8697c15331677e6ebf0b" : {
                "code" : "0x",
                "nonce" : "0x01",
                "balance" : "0xe8d4a4bb1b",
                "storage" : {
                }
            },
            "0x2000000000000000000000000000000000000000" : {
                "code" : "0x600160015200",
                "nonce" : "0x00",
                "balance" : "0x00",
                "storage" : {
                }
            },
            "0x2adc25665018aa1fe0e6bc666dac8fc2697ff9ba" : {
                "code" : "0x",
                "nonce" : "0x00",
                "balance" : "0x1bc16d674ec854e5",
                "storage" : {
                }
            },
            "0x1000000000000000000000000000000000000000" : {
                "code" : "0x60006000600060007320000000000000000000000000000000000000006064fa00",
                "nonce" : "0x00",
                "balance" : "0x00",
                "storage" : {
                }
            }
        },
        "network" : "Istanbul",
        "sealEngine" : "NoProof",
        "lastblockhash" : "0x947e96708e9d2c1a6dd744c6a2d9a3ad3df418194cc860d7afbf9011e63fd65d",
        "genesisRLP" : "0xf901f8f901f3a00000000000000000000000000000000000000000000000000000000000000000a01dcc4de8dec75d7aab85b567b6ccd41ad312451b948a7413f0a142fd40d49347942adc25665018aa1fe0e6bc666dac8fc2697ff9baa0653716a11c2eeb7e4ca2faafa3d4f6ed89f986d19c5289a494e221ab7014b467a056e81f171bcc55a6ff8345e692c0f86e5b48e01b996cadc001622fb5e363b421a056e81f171bcc55a6ff8345e692c0f86e5b48e01b996cadc001622fb5e363b421b9010000000000000000000000000000000000000000000000000000000000000000000000000000000000000000000000000000000000000000000000000000000000000000000000000000000000000000000000000000000000000000000000000000000000000000000000000000000000000000000000000000000000000000000000000000000000000000000000000000000000000000000000000000000000000000000000000000000000000000000000000000000000000000000000000000000000000000000000000000000000000000000000000000000000000000000000000000000000000000000000000000000000000000000000000000000000830200008083989680808000a00000000000000000000000000000000000000000000000000000000000000000880000000000000000c0c0",
        "blocks" : [
            {
                "rlp" : "0xf9025ef901f7a015e1e969ebd48dfaf170c3559169821a177775120d7c230aeab67fa1c942def8a01dcc4de8dec75d7aab85b567b6ccd41ad312451b948a7413f0a142fd40d49347942adc25665018aa1fe0e6bc666dac8fc2697ff9baa09a6acb66d1db35378fcc692d875717ec2eccfdb6d2c17c034dd6c94424f97ef8a0dcc9a2a752f1de887dffd082c5f21468e6022d57b5328489ef9aae19c2fd0749a0ad9c4f7b24cfa4cf3e3c6623cae16577f32c8b49d902d3cd0a329a90af589b1bb901000000000000000000000000000000000000000000000000000000000000000000000000000000000000000000000000000000000000000000000000000000000000000000000000000000000000000000000000000000000000000000000000000000000000000000000000000000000000000000000000000000000000000000000000000000000000000000000000000000000000000000000000000000000000000000000000000000000000000000000000000000000000000000000000000000000000000000000000000000000000000000000000000000000000000000000000000000000000000000000000000000000000000000000000000000000083020000018398bca48254e58203e800a00000000000000000000000000000000000000000000000000000000000000000880000000000000000f861f85f800182552894100000000000000000000000000000000000000080801ba0abe5b0e5270d2b0a60ec755e904515ccf7ffcfb1e6c8818d5074bbc234dbd546a007507d278ff8feefb853c071a2a0744b93ae3d27cc10d39ce4618754d16c4049c0",
                "blockHeader" : {
                    "bloom" : "0x00000000000000000000000000000000000000000000000000000000000000000000000000000000000000000000000000000000000000000000000000000000000000000000000000000000000000000000000000000000000000000000000000000000000000000000000000000000000000000000000000000000000000000000000000000000000000000000000000000000000000000000000000000000000000000000000000000000000000000000000000000000000000000000000000000000000000000000000000000000000000000000000000000000000000000000000000000000000000000000000000000000000000000000000000000000",
                    "coinbase" : "0x2adc25665018aa1fe0e6bc666dac8fc2697ff9ba",
                    "difficulty" : "0x20000",
                    "extraData" : "0x00",
                    "gasLimit" : "0x98bca4",
                    "gasUsed" : "0x54e5",
                    "hash" : "0x947e96708e9d2c1a6dd744c6a2d9a3ad3df418194cc860d7afbf9011e63fd65d",
                    "mixHash" : "0x0000000000000000000000000000000000000000000000000000000000000000",
                    "nonce" : "0x0000000000000000",
                    "number" : "0x1",
                    "parentHash" : "0x15e1e969ebd48dfaf170c3559169821a177775120d7c230aeab67fa1c942def8",
                    "receiptTrie" : "0xad9c4f7b24cfa4cf3e3c6623cae16577f32c8b49d902d3cd0a329a90af589b1b",
                    "stateRoot" : "0x9a6acb66d1db35378fcc692d875717ec2eccfdb6d2c17c034dd6c94424f97ef8",
                    "timestamp" : "0x3e8",
                    "transactionsTrie" : "0xdcc9a2a752f1de887dffd082c5f21468e6022d57b5328489ef9aae19c2fd0749",
                    "uncleHash" : "0x1dcc4de8dec75d7aab85b567b6ccd41ad312451b948a7413f0a142fd40d49347"
                },
                "transactions" : [
                    {
                        "data" : "0x",
                        "gasLimit" : "0x5528",
                        "gasPrice" : "0x01",
                        "nonce" : "0x00",
                        "to" : "0x1000000000000000000000000000000000000000",
                        "value" : "0x00",
                        "v" : "0x1b",
                        "r" : "0xabe5b0e5270d2b0a60ec755e904515ccf7ffcfb1e6c8818d5074bbc234dbd546",
                        "s" : "0x07507d278ff8feefb853c071a2a0744b93ae3d27cc10d39ce4618754d16c4049"
                    }
                ]
            }
        ]
    }
}