{
    "static_ABAcallsSuicide0_d0g0v0_Istanbul" : {
        "_info" : {
            "comment" : "",
            "filling-rpc-server" : "Geth-1.9.6-unstable-63b18027-20190920",
            "filling-tool-version" : "retesteth-0.0.1+commit.0ae18aef.Linux.g++",
            "lllcversion" : "Version: 0.5.12-develop.2019.9.13+commit.2d601a4f.Linux.g++",
            "source" : "src/GeneralStateTestsFiller/stStaticCall/static_ABAcallsSuicide0Filler.json",
            "sourceHash" : "53d4c702e655378628635c49e604fb46ce4ed8a5dc204c1a08edc90dffcb4e37"
        },
        "genesisBlockHeader" : {
            "bloom" : "0x00000000000000000000000000000000000000000000000000000000000000000000000000000000000000000000000000000000000000000000000000000000000000000000000000000000000000000000000000000000000000000000000000000000000000000000000000000000000000000000000000000000000000000000000000000000000000000000000000000000000000000000000000000000000000000000000000000000000000000000000000000000000000000000000000000000000000000000000000000000000000000000000000000000000000000000000000000000000000000000000000000000000000000000000000000000",
            "coinbase" : "0x2adc25665018aa1fe0e6bc666dac8fc2697ff9ba",
            "difficulty" : "0x20000",
            "extraData" : "0x00",
            "gasLimit" : "0x5f5e100",
            "gasUsed" : "0x0",
            "hash" : "0x45abf4e8b898c54ab48721199e97f8f5c8b05f2255fdeb7d4fcb8f49d6a0f02d",
            "mixHash" : "0x0000000000000000000000000000000000000000000000000000000000000000",
            "nonce" : "0x0000000000000000",
            "number" : "0x0",
            "parentHash" : "0x0000000000000000000000000000000000000000000000000000000000000000",
            "receiptTrie" : "0x56e81f171bcc55a6ff8345e692c0f86e5b48e01b996cadc001622fb5e363b421",
            "stateRoot" : "0x135e06edcb1d6b5a2fef48fc25cbe5823d662da525bf7859c06c9748ea8b4306",
            "timestamp" : "0x0",
            "transactionsTrie" : "0x56e81f171bcc55a6ff8345e692c0f86e5b48e01b996cadc001622fb5e363b421",
            "uncleHash" : "0x1dcc4de8dec75d7aab85b567b6ccd41ad312451b948a7413f0a142fd40d49347"
        },
        "pre" : {
            "0x095e7baea6a6c7c4c2dfeb977efac326af552d87" : {
                "balance" : "0x0de0b6b3a7640000",
                "code" : "0x600060006000600073945304eb96065b2a98b57a48a06ae28d285a71b5620186a0fa585573945304eb96065b2a98b57a48a06ae28d285a71b5ff00",
                "nonce" : "0x00",
                "storage" : {
                }
            },
            "0x1000000000000000000000000000000000000000" : {
                "balance" : "0x00",
                "code" : "0x6000600060006000346000355af16000555a60015500",
                "nonce" : "0x00",
                "storage" : {
                }
            },
            "0x195e7baea6a6c7c4c2dfeb977efac326af552d87" : {
                "balance" : "0x0de0b6b3a7640000",
                "code" : "0x600060006000600073245304eb96065b2a98b57a48a06ae28d285a71b5620186a0fa585273945304eb96065b2a98b57a48a06ae28d285a71b5ff00",
                "nonce" : "0x00",
                "storage" : {
                }
            },
            "0x245304eb96065b2a98b57a48a06ae28d285a71b5" : {
                "balance" : "0x17",
                "code" : "0x600060006000600073195e7baea6a6c7c4c2dfeb977efac326af552d8761c350fa600101585200",
                "nonce" : "0x00",
                "storage" : {
                }
            },
            "0x945304eb96065b2a98b57a48a06ae28d285a71b5" : {
                "balance" : "0x17",
                "code" : "0x600060006000600073095e7baea6a6c7c4c2dfeb977efac326af552d8761c350fa600101585500",
                "nonce" : "0x00",
                "storage" : {
                }
            },
            "0xa94f5374fce5edbc8e2a8697c15331677e6ebf0b" : {
                "balance" : "0x0de0b6b3a7640000",
                "code" : "0x",
                "nonce" : "0x00",
                "storage" : {
                }
            }
        },
        "postState" : {
            "0xa94f5374fce5edbc8e2a8697c15331677e6ebf0b" : {
                "code" : "0x",
                "nonce" : "0x01",
                "balance" : "0x0de0b6b3a7602a47",
                "storage" : {
                }
            },
            "0x245304eb96065b2a98b57a48a06ae28d285a71b5" : {
                "code" : "0x600060006000600073195e7baea6a6c7c4c2dfeb977efac326af552d8761c350fa600101585200",
                "nonce" : "0x00",
                "balance" : "0x17",
                "storage" : {
                }
            },
            "0x2adc25665018aa1fe0e6bc666dac8fc2697ff9ba" : {
                "code" : "0x",
                "nonce" : "0x00",
                "balance" : "0x1bc16d674eca4f19",
                "storage" : {
                }
            },
            "0x945304eb96065b2a98b57a48a06ae28d285a71b5" : {
                "code" : "0x600060006000600073095e7baea6a6c7c4c2dfeb977efac326af552d8761c350fa600101585500",
                "nonce" : "0x00",
                "balance" : "0x0de0b6b3a76586b7",
                "storage" : {
                }
            },
            "0x195e7baea6a6c7c4c2dfeb977efac326af552d87" : {
                "code" : "0x600060006000600073245304eb96065b2a98b57a48a06ae28d285a71b5620186a0fa585273945304eb96065b2a98b57a48a06ae28d285a71b5ff00",
                "nonce" : "0x00",
                "balance" : "0x0de0b6b3a7640000",
                "storage" : {
                }
            },
            "0x1000000000000000000000000000000000000000" : {
                "code" : "0x6000600060006000346000355af16000555a60015500",
                "nonce" : "0x00",
                "balance" : "0x00",
                "storage" : {
                    "0x00" : "0x01",
                    "0x01" : "0x9637ca"
                }
            }
        },
        "network" : "Istanbul",
        "sealEngine" : "NoProof",
        "lastblockhash" : "0xbf8bbb423f03fdb9d1bee4c4c5381dead9f9dc72c81eb74203d89e29f53bb7a4",
        "genesisRLP" : "0xf901f9f901f4a00000000000000000000000000000000000000000000000000000000000000000a01dcc4de8dec75d7aab85b567b6ccd41ad312451b948a7413f0a142fd40d49347942adc25665018aa1fe0e6bc666dac8fc2697ff9baa0135e06edcb1d6b5a2fef48fc25cbe5823d662da525bf7859c06c9748ea8b4306a056e81f171bcc55a6ff8345e692c0f86e5b48e01b996cadc001622fb5e363b421a056e81f171bcc55a6ff8345e692c0f86e5b48e01b996cadc001622fb5e363b421b901000000000000000000000000000000000000000000000000000000000000000000000000000000000000000000000000000000000000000000000000000000000000000000000000000000000000000000000000000000000000000000000000000000000000000000000000000000000000000000000000000000000000000000000000000000000000000000000000000000000000000000000000000000000000000000000000000000000000000000000000000000000000000000000000000000000000000000000000000000000000000000000000000000000000000000000000000000000000000000000000000000000000000000000000000000000083020000808405f5e100808000a00000000000000000000000000000000000000000000000000000000000000000880000000000000000c0c0",
        "blocks" : [
            {
                "rlp" : "0xf90284f901f9a045abf4e8b898c54ab48721199e97f8f5c8b05f2255fdeb7d4fcb8f49d6a0f02da01dcc4de8dec75d7aab85b567b6ccd41ad312451b948a7413f0a142fd40d49347942adc25665018aa1fe0e6bc666dac8fc2697ff9baa09dadd464f7dcfc915c573e5c7ee57f90f6f9d6a111a77fb45717c59f85ddbd2ca09f6b1c378c6a28782335f983fb98991b2bc9bc6d9e8068fcdfbd310912f1da0ca0a9854d58daeeddb8f7babaacb466d8b5e265af25fc10066b88333b33ce00fe6ab901000000000000000000000000000000000000000000000000000000000000000000000000000000000000000000000000000000000000000000000000000000000000000000000000000000000000000000000000000000000000000000000000000000000000000000000000000000000000000000000000000000000000000000000000000000000000000000000000000000000000000000000000000000000000000000000000000000000000000000000000000000000000000000000000000000000000000000000000000000000000000000000000000000000000000000000000000000000000000000000000000000000000000000000000000000000083020000018405f75e7783024f198203e800a00000000000000000000000000000000000000000000000000000000000000000880000000000000000f885f883800183989680941000000000000000000000000000000000000000830186a0a0000000000000000000000000095e7baea6a6c7c4c2dfeb977efac326af552d871ca0aa4d7c170c72587d6a96d4feb7ef968b9f381c4c82efa5b369fbda8f1aaca401a01b51989f494bee43d4b6b0a9061dbdde6adf1fd782aec999d9df9a9d3d9b9e95c0",
                "blockHeader" : {
                    "bloom" : "0x00000000000000000000000000000000000000000000000000000000000000000000000000000000000000000000000000000000000000000000000000000000000000000000000000000000000000000000000000000000000000000000000000000000000000000000000000000000000000000000000000000000000000000000000000000000000000000000000000000000000000000000000000000000000000000000000000000000000000000000000000000000000000000000000000000000000000000000000000000000000000000000000000000000000000000000000000000000000000000000000000000000000000000000000000000000",
                    "coinbase" : "0x2adc25665018aa1fe0e6bc666dac8fc2697ff9ba",
                    "difficulty" : "0x20000",
                    "extraData" : "0x00",
                    "gasLimit" : "0x5f75e77",
                    "gasUsed" : "0x24f19",
                    "hash" : "0xbf8bbb423f03fdb9d1bee4c4c5381dead9f9dc72c81eb74203d89e29f53bb7a4",
                    "mixHash" : "0x0000000000000000000000000000000000000000000000000000000000000000",
                    "nonce" : "0x0000000000000000",
                    "number" : "0x1",
                    "parentHash" : "0x45abf4e8b898c54ab48721199e97f8f5c8b05f2255fdeb7d4fcb8f49d6a0f02d",
                    "receiptTrie" : "0xa9854d58daeeddb8f7babaacb466d8b5e265af25fc10066b88333b33ce00fe6a",
                    "stateRoot" : "0x9dadd464f7dcfc915c573e5c7ee57f90f6f9d6a111a77fb45717c59f85ddbd2c",
                    "timestamp" : "0x3e8",
                    "transactionsTrie" : "0x9f6b1c378c6a28782335f983fb98991b2bc9bc6d9e8068fcdfbd310912f1da0c",
                    "uncleHash" : "0x1dcc4de8dec75d7aab85b567b6ccd41ad312451b948a7413f0a142fd40d49347"
                },
                "transactions" : [
                    {
                        "data" : "0x000000000000000000000000095e7baea6a6c7c4c2dfeb977efac326af552d87",
                        "gasLimit" : "0x989680",
                        "gasPrice" : "0x01",
                        "nonce" : "0x00",
                        "to" : "0x1000000000000000000000000000000000000000",
                        "value" : "0x0186a0",
                        "v" : "0x1c",
                        "r" : "0xaa4d7c170c72587d6a96d4feb7ef968b9f381c4c82efa5b369fbda8f1aaca401",
                        "s" : "0x1b51989f494bee43d4b6b0a9061dbdde6adf1fd782aec999d9df9a9d3d9b9e95"
                    }
                ]
            }
        ]
    },
    "static_ABAcallsSuicide0_d1g0v0_Istanbul" : {
        "_info" : {
            "comment" : "",
            "filling-rpc-server" : "Geth-1.9.6-unstable-63b18027-20190920",
            "filling-tool-version" : "retesteth-0.0.1+commit.0ae18aef.Linux.g++",
            "lllcversion" : "Version: 0.5.12-develop.2019.9.13+commit.2d601a4f.Linux.g++",
            "source" : "src/GeneralStateTestsFiller/stStaticCall/static_ABAcallsSuicide0Filler.json",
            "sourceHash" : "53d4c702e655378628635c49e604fb46ce4ed8a5dc204c1a08edc90dffcb4e37"
        },
        "genesisBlockHeader" : {
            "bloom" : "0x00000000000000000000000000000000000000000000000000000000000000000000000000000000000000000000000000000000000000000000000000000000000000000000000000000000000000000000000000000000000000000000000000000000000000000000000000000000000000000000000000000000000000000000000000000000000000000000000000000000000000000000000000000000000000000000000000000000000000000000000000000000000000000000000000000000000000000000000000000000000000000000000000000000000000000000000000000000000000000000000000000000000000000000000000000000",
            "coinbase" : "0x2adc25665018aa1fe0e6bc666dac8fc2697ff9ba",
            "difficulty" : "0x20000",
            "extraData" : "0x00",
            "gasLimit" : "0x5f5e100",
            "gasUsed" : "0x0",
            "hash" : "0x45abf4e8b898c54ab48721199e97f8f5c8b05f2255fdeb7d4fcb8f49d6a0f02d",
            "mixHash" : "0x0000000000000000000000000000000000000000000000000000000000000000",
            "nonce" : "0x0000000000000000",
            "number" : "0x0",
            "parentHash" : "0x0000000000000000000000000000000000000000000000000000000000000000",
            "receiptTrie" : "0x56e81f171bcc55a6ff8345e692c0f86e5b48e01b996cadc001622fb5e363b421",
            "stateRoot" : "0x135e06edcb1d6b5a2fef48fc25cbe5823d662da525bf7859c06c9748ea8b4306",
            "timestamp" : "0x0",
            "transactionsTrie" : "0x56e81f171bcc55a6ff8345e692c0f86e5b48e01b996cadc001622fb5e363b421",
            "uncleHash" : "0x1dcc4de8dec75d7aab85b567b6ccd41ad312451b948a7413f0a142fd40d49347"
        },
        "pre" : {
            "0x095e7baea6a6c7c4c2dfeb977efac326af552d87" : {
                "balance" : "0x0de0b6b3a7640000",
                "code" : "0x600060006000600073945304eb96065b2a98b57a48a06ae28d285a71b5620186a0fa585573945304eb96065b2a98b57a48a06ae28d285a71b5ff00",
                "nonce" : "0x00",
                "storage" : {
                }
            },
            "0x1000000000000000000000000000000000000000" : {
                "balance" : "0x00",
                "code" : "0x6000600060006000346000355af16000555a60015500",
                "nonce" : "0x00",
                "storage" : {
                }
            },
            "0x195e7baea6a6c7c4c2dfeb977efac326af552d87" : {
                "balance" : "0x0de0b6b3a7640000",
                "code" : "0x600060006000600073245304eb96065b2a98b57a48a06ae28d285a71b5620186a0fa585273945304eb96065b2a98b57a48a06ae28d285a71b5ff00",
                "nonce" : "0x00",
                "storage" : {
                }
            },
            "0x245304eb96065b2a98b57a48a06ae28d285a71b5" : {
                "balance" : "0x17",
                "code" : "0x600060006000600073195e7baea6a6c7c4c2dfeb977efac326af552d8761c350fa600101585200",
                "nonce" : "0x00",
                "storage" : {
                }
            },
            "0x945304eb96065b2a98b57a48a06ae28d285a71b5" : {
                "balance" : "0x17",
                "code" : "0x600060006000600073095e7baea6a6c7c4c2dfeb977efac326af552d8761c350fa600101585500",
                "nonce" : "0x00",
                "storage" : {
                }
            },
            "0xa94f5374fce5edbc8e2a8697c15331677e6ebf0b" : {
                "balance" : "0x0de0b6b3a7640000",
                "code" : "0x",
                "nonce" : "0x00",
                "storage" : {
                }
            }
        },
        "postState" : {
            "0xa94f5374fce5edbc8e2a8697c15331677e6ebf0b" : {
                "code" : "0x",
                "nonce" : "0x01",
                "balance" : "0x0de0b6b3a760edc9",
                "storage" : {
                }
            },
            "0x095e7baea6a6c7c4c2dfeb977efac326af552d87" : {
                "code" : "0x600060006000600073945304eb96065b2a98b57a48a06ae28d285a71b5620186a0fa585573945304eb96065b2a98b57a48a06ae28d285a71b5ff00",
                "nonce" : "0x00",
                "balance" : "0x0de0b6b3a7640000",
                "storage" : {
                }
            },
            "0x245304eb96065b2a98b57a48a06ae28d285a71b5" : {
                "code" : "0x600060006000600073195e7baea6a6c7c4c2dfeb977efac326af552d8761c350fa600101585200",
                "nonce" : "0x00",
                "balance" : "0x17",
                "storage" : {
                }
            },
            "0x2adc25665018aa1fe0e6bc666dac8fc2697ff9ba" : {
                "code" : "0x",
                "nonce" : "0x00",
                "balance" : "0x1bc16d674ec98b97",
                "storage" : {
                }
            },
            "0x945304eb96065b2a98b57a48a06ae28d285a71b5" : {
                "code" : "0x600060006000600073095e7baea6a6c7c4c2dfeb977efac326af552d8761c350fa600101585500",
                "nonce" : "0x00",
                "balance" : "0x0de0b6b3a76586b7",
                "storage" : {
                }
            },
            "0x1000000000000000000000000000000000000000" : {
                "code" : "0x6000600060006000346000355af16000555a60015500",
                "nonce" : "0x00",
                "balance" : "0x00",
                "storage" : {
                    "0x00" : "0x01",
                    "0x01" : "0x96fb4c"
                }
            }
        },
        "network" : "Istanbul",
        "sealEngine" : "NoProof",
        "lastblockhash" : "0xa845e0d068a9d52cf855de723553b0c84fcb0c00a8f945589c6162958e91845a",
        "genesisRLP" : "0xf901f9f901f4a00000000000000000000000000000000000000000000000000000000000000000a01dcc4de8dec75d7aab85b567b6ccd41ad312451b948a7413f0a142fd40d49347942adc25665018aa1fe0e6bc666dac8fc2697ff9baa0135e06edcb1d6b5a2fef48fc25cbe5823d662da525bf7859c06c9748ea8b4306a056e81f171bcc55a6ff8345e692c0f86e5b48e01b996cadc001622fb5e363b421a056e81f171bcc55a6ff8345e692c0f86e5b48e01b996cadc001622fb5e363b421b901000000000000000000000000000000000000000000000000000000000000000000000000000000000000000000000000000000000000000000000000000000000000000000000000000000000000000000000000000000000000000000000000000000000000000000000000000000000000000000000000000000000000000000000000000000000000000000000000000000000000000000000000000000000000000000000000000000000000000000000000000000000000000000000000000000000000000000000000000000000000000000000000000000000000000000000000000000000000000000000000000000000000000000000000000000000083020000808405f5e100808000a00000000000000000000000000000000000000000000000000000000000000000880000000000000000c0c0",
        "blocks" : [
            {
                "rlp" : "0xf90284f901f9a045abf4e8b898c54ab48721199e97f8f5c8b05f2255fdeb7d4fcb8f49d6a0f02da01dcc4de8dec75d7aab85b567b6ccd41ad312451b948a7413f0a142fd40d49347942adc25665018aa1fe0e6bc666dac8fc2697ff9baa091826dc7cbabc72e141d273421cc4151c9f5e0057450dbd80786d88730fc5285a0fc3ef2f953a9459a7998f7047957a8c278eabac27aa58c670d3d32160c43d28fa07ca0a7ce7470dd448963d4f2a275e8797b1b255b921e7db13ed6de0c5c7e0ed9b901000000000000000000000000000000000000000000000000000000000000000000000000000000000000000000000000000000000000000000000000000000000000000000000000000000000000000000000000000000000000000000000000000000000000000000000000000000000000000000000000000000000000000000000000000000000000000000000000000000000000000000000000000000000000000000000000000000000000000000000000000000000000000000000000000000000000000000000000000000000000000000000000000000000000000000000000000000000000000000000000000000000000000000000000000000000083020000018405f75e7783018b978203e800a00000000000000000000000000000000000000000000000000000000000000000880000000000000000f885f883800183989680941000000000000000000000000000000000000000830186a0a0000000000000000000000000195e7baea6a6c7c4c2dfeb977efac326af552d871ca06357dcc90b2b56c59b83c6ec1cc3ff440498d5f09970d1695a068d05146b187ea03bbfa366bb45e206750158f14c25cb9de585a4c4ea79fad1507d021fedb58e66c0",
                "blockHeader" : {
                    "bloom" : "0x00000000000000000000000000000000000000000000000000000000000000000000000000000000000000000000000000000000000000000000000000000000000000000000000000000000000000000000000000000000000000000000000000000000000000000000000000000000000000000000000000000000000000000000000000000000000000000000000000000000000000000000000000000000000000000000000000000000000000000000000000000000000000000000000000000000000000000000000000000000000000000000000000000000000000000000000000000000000000000000000000000000000000000000000000000000",
                    "coinbase" : "0x2adc25665018aa1fe0e6bc666dac8fc2697ff9ba",
                    "difficulty" : "0x20000",
                    "extraData" : "0x00",
                    "gasLimit" : "0x5f75e77",
                    "gasUsed" : "0x18b97",
                    "hash" : "0xa845e0d068a9d52cf855de723553b0c84fcb0c00a8f945589c6162958e91845a",
                    "mixHash" : "0x0000000000000000000000000000000000000000000000000000000000000000",
                    "nonce" : "0x0000000000000000",
                    "number" : "0x1",
                    "parentHash" : "0x45abf4e8b898c54ab48721199e97f8f5c8b05f2255fdeb7d4fcb8f49d6a0f02d",
                    "receiptTrie" : "0x7ca0a7ce7470dd448963d4f2a275e8797b1b255b921e7db13ed6de0c5c7e0ed9",
                    "stateRoot" : "0x91826dc7cbabc72e141d273421cc4151c9f5e0057450dbd80786d88730fc5285",
                    "timestamp" : "0x3e8",
                    "transactionsTrie" : "0xfc3ef2f953a9459a7998f7047957a8c278eabac27aa58c670d3d32160c43d28f",
                    "uncleHash" : "0x1dcc4de8dec75d7aab85b567b6ccd41ad312451b948a7413f0a142fd40d49347"
                },
                "transactions" : [
                    {
                        "data" : "0x000000000000000000000000195e7baea6a6c7c4c2dfeb977efac326af552d87",
                        "gasLimit" : "0x989680",
                        "gasPrice" : "0x01",
                        "nonce" : "0x00",
                        "to" : "0x1000000000000000000000000000000000000000",
                        "value" : "0x0186a0",
                        "v" : "0x1c",
                        "r" : "0x6357dcc90b2b56c59b83c6ec1cc3ff440498d5f09970d1695a068d05146b187e",
                        "s" : "0x3bbfa366bb45e206750158f14c25cb9de585a4c4ea79fad1507d021fedb58e66"
                    }
                ]
            }
        ]
    }
}