{
    "static_refund_CallToSuicideTwice_d1g0v0_Istanbul" : {
        "_info" : {
            "comment" : "",
            "filling-rpc-server" : "Geth-1.9.6-unstable-63b18027-20190920",
            "filling-tool-version" : "retesteth-0.0.1+commit.0ae18aef.Linux.g++",
            "lllcversion" : "Version: 0.5.12-develop.2019.9.13+commit.2d601a4f.Linux.g++",
            "source" : "src/GeneralStateTestsFiller/stStaticCall/static_refund_CallToSuicideTwiceFiller.json",
            "sourceHash" : "52b8c8d0c76d02b516dddbf32e2c8fbe39d2da08cd9f6eae7ab13c51a1aeae3c"
        },
        "genesisBlockHeader" : {
            "bloom" : "0x00000000000000000000000000000000000000000000000000000000000000000000000000000000000000000000000000000000000000000000000000000000000000000000000000000000000000000000000000000000000000000000000000000000000000000000000000000000000000000000000000000000000000000000000000000000000000000000000000000000000000000000000000000000000000000000000000000000000000000000000000000000000000000000000000000000000000000000000000000000000000000000000000000000000000000000000000000000000000000000000000000000000000000000000000000000",
            "coinbase" : "0x2adc25665018aa1fe0e6bc666dac8fc2697ff9ba",
            "difficulty" : "0x20000",
            "extraData" : "0x00",
            "gasLimit" : "0x5f5e100",
            "gasUsed" : "0x0",
            "hash" : "0x82ff2c181322e57190854444cb23cabf704dd34a0e09cd0afd1b589970b07d79",
            "mixHash" : "0x0000000000000000000000000000000000000000000000000000000000000000",
            "nonce" : "0x0000000000000000",
            "number" : "0x0",
            "parentHash" : "0x0000000000000000000000000000000000000000000000000000000000000000",
            "receiptTrie" : "0x56e81f171bcc55a6ff8345e692c0f86e5b48e01b996cadc001622fb5e363b421",
            "stateRoot" : "0x05f4f79a79ea4ed7b567696f12bdf56b0f66e40524e51276d6ed3f51c3afb7c4",
            "timestamp" : "0x0",
            "transactionsTrie" : "0x56e81f171bcc55a6ff8345e692c0f86e5b48e01b996cadc001622fb5e363b421",
            "uncleHash" : "0x1dcc4de8dec75d7aab85b567b6ccd41ad312451b948a7413f0a142fd40d49347"
        },
        "pre" : {
            "0x095e7baea6a6c7c4c2dfeb977efac326af552d87" : {
                "balance" : "0x0de0b6b3a7640000",
                "code" : "0x600060006000600073aaae7baea6a6c7c4c2dfeb977efac326af552aaa600035fa6000556000600060006000600073aaae7baea6a6c7c4c2dfeb977efac326af552aaa600035f100",
                "nonce" : "0x00",
                "storage" : {
                    "0x01" : "0x01"
                }
            },
            "0xa94f5374fce5edbc8e2a8697c15331677e6ebf0b" : {
                "balance" : "0x05f5e100",
                "code" : "0x",
                "nonce" : "0x00",
                "storage" : {
                }
            },
            "0xaaae7baea6a6c7c4c2dfeb977efac326af552aaa" : {
                "balance" : "0x0de0b6b3a7640000",
                "code" : "0x73095e7baea6a6c7c4c2dfeb977efac326af552d87ff00",
                "nonce" : "0x00",
                "storage" : {
                    "0x01" : "0x01"
                }
            }
        },
        "postState" : {
            "0xa94f5374fce5edbc8e2a8697c15331677e6ebf0b" : {
                "code" : "0x",
                "nonce" : "0x01",
                "balance" : "0x05f4cfcf",
                "storage" : {
                }
            },
            "0x095e7baea6a6c7c4c2dfeb977efac326af552d87" : {
                "code" : "0x600060006000600073aaae7baea6a6c7c4c2dfeb977efac326af552aaa600035fa6000556000600060006000600073aaae7baea6a6c7c4c2dfeb977efac326af552aaa600035f100",
                "nonce" : "0x00",
                "balance" : "0x1bc16d674ec8000a",
                "storage" : {
                    "0x01" : "0x01"
                }
            },
            "0x2adc25665018aa1fe0e6bc666dac8fc2697ff9ba" : {
                "code" : "0x",
                "nonce" : "0x00",
                "balance" : "0x1bc16d674ec91127",
                "storage" : {
                }
            }
        },
        "network" : "Istanbul",
        "sealEngine" : "NoProof",
        "lastblockhash" : "0x5a5b917797fa7bfb7cc383bea79bc076a8e682555712006ae1ed0d51ad390a0c",
        "genesisRLP" : "0xf901f9f901f4a00000000000000000000000000000000000000000000000000000000000000000a01dcc4de8dec75d7aab85b567b6ccd41ad312451b948a7413f0a142fd40d49347942adc25665018aa1fe0e6bc666dac8fc2697ff9baa005f4f79a79ea4ed7b567696f12bdf56b0f66e40524e51276d6ed3f51c3afb7c4a056e81f171bcc55a6ff8345e692c0f86e5b48e01b996cadc001622fb5e363b421a056e81f171bcc55a6ff8345e692c0f86e5b48e01b996cadc001622fb5e363b421b901000000000000000000000000000000000000000000000000000000000000000000000000000000000000000000000000000000000000000000000000000000000000000000000000000000000000000000000000000000000000000000000000000000000000000000000000000000000000000000000000000000000000000000000000000000000000000000000000000000000000000000000000000000000000000000000000000000000000000000000000000000000000000000000000000000000000000000000000000000000000000000000000000000000000000000000000000000000000000000000000000000000000000000000000000000000083020000808405f5e100808000a00000000000000000000000000000000000000000000000000000000000000000880000000000000000c0c0",
        "blocks" : [
            {
                "rlp" : "0xf90281f901f9a082ff2c181322e57190854444cb23cabf704dd34a0e09cd0afd1b589970b07d79a01dcc4de8dec75d7aab85b567b6ccd41ad312451b948a7413f0a142fd40d49347942adc25665018aa1fe0e6bc666dac8fc2697ff9baa082da37bbf04ebd17f58b1de8d2c6e3c7f4d228f8404ed86bb0a3105a5c889b36a06417532406065a8b4c1cf8ddcaf1d716331a691134f71ef983b1ea79e6f298cca0bdf87cf2717018fe095399ba75660d08388393b04f55c2cfd2257e48f09eac0bb901000000000000000000000000000000000000000000000000000000000000000000000000000000000000000000000000000000000000000000000000000000000000000000000000000000000000000000000000000000000000000000000000000000000000000000000000000000000000000000000000000000000000000000000000000000000000000000000000000000000000000000000000000000000000000000000000000000000000000000000000000000000000000000000000000000000000000000000000000000000000000000000000000000000000000000000000000000000000000000000000000000000000000000000000000000000083020000018405f75e77830111278203e800a00000000000000000000000000000000000000000000000000000000000000000880000000000000000f882f88080018398968094095e7baea6a6c7c4c2dfeb977efac326af552d870aa000000000000000000000000000000000000000000000000000000000000100001ca07cf650c8b46640cee08fec6eaf2aa358ff40ad53d6d234cc946e5cc768c4b628a07e7a81143236d25fe0f6ddbcc3a42535f19984dadd428aedfe174a7f065b7bccc0",
                "blockHeader" : {
                    "bloom" : "0x00000000000000000000000000000000000000000000000000000000000000000000000000000000000000000000000000000000000000000000000000000000000000000000000000000000000000000000000000000000000000000000000000000000000000000000000000000000000000000000000000000000000000000000000000000000000000000000000000000000000000000000000000000000000000000000000000000000000000000000000000000000000000000000000000000000000000000000000000000000000000000000000000000000000000000000000000000000000000000000000000000000000000000000000000000000",
                    "coinbase" : "0x2adc25665018aa1fe0e6bc666dac8fc2697ff9ba",
                    "difficulty" : "0x20000",
                    "extraData" : "0x00",
                    "gasLimit" : "0x5f75e77",
                    "gasUsed" : "0x11127",
                    "hash" : "0x5a5b917797fa7bfb7cc383bea79bc076a8e682555712006ae1ed0d51ad390a0c",
                    "mixHash" : "0x0000000000000000000000000000000000000000000000000000000000000000",
                    "nonce" : "0x0000000000000000",
                    "number" : "0x1",
                    "parentHash" : "0x82ff2c181322e57190854444cb23cabf704dd34a0e09cd0afd1b589970b07d79",
                    "receiptTrie" : "0xbdf87cf2717018fe095399ba75660d08388393b04f55c2cfd2257e48f09eac0b",
                    "stateRoot" : "0x82da37bbf04ebd17f58b1de8d2c6e3c7f4d228f8404ed86bb0a3105a5c889b36",
                    "timestamp" : "0x3e8",
                    "transactionsTrie" : "0x6417532406065a8b4c1cf8ddcaf1d716331a691134f71ef983b1ea79e6f298cc",
                    "uncleHash" : "0x1dcc4de8dec75d7aab85b567b6ccd41ad312451b948a7413f0a142fd40d49347"
                },
                "transactions" : [
                    {
                        "data" : "0x0000000000000000000000000000000000000000000000000000000000010000",
                        "gasLimit" : "0x989680",
                        "gasPrice" : "0x01",
                        "nonce" : "0x00",
                        "to" : "0x095e7baea6a6c7c4c2dfeb977efac326af552d87",
                        "value" : "0x0a",
                        "v" : "0x1c",
                        "r" : "0x7cf650c8b46640cee08fec6eaf2aa358ff40ad53d6d234cc946e5cc768c4b628",
                        "s" : "0x7e7a81143236d25fe0f6ddbcc3a42535f19984dadd428aedfe174a7f065b7bcc"
                    }
                ]
            }
        ]
    },
    "static_refund_CallToSuicideTwice_d0g0v0_Istanbul" : {
        "_info" : {
            "comment" : "",
            "filling-rpc-server" : "Geth-1.9.6-unstable-63b18027-20190920",
            "filling-tool-version" : "retesteth-0.0.1+commit.0ae18aef.Linux.g++",
            "lllcversion" : "Version: 0.5.12-develop.2019.9.13+commit.2d601a4f.Linux.g++",
            "source" : "src/GeneralStateTestsFiller/stStaticCall/static_refund_CallToSuicideTwiceFiller.json",
            "sourceHash" : "52b8c8d0c76d02b516dddbf32e2c8fbe39d2da08cd9f6eae7ab13c51a1aeae3c"
        },
        "genesisBlockHeader" : {
            "bloom" : "0x00000000000000000000000000000000000000000000000000000000000000000000000000000000000000000000000000000000000000000000000000000000000000000000000000000000000000000000000000000000000000000000000000000000000000000000000000000000000000000000000000000000000000000000000000000000000000000000000000000000000000000000000000000000000000000000000000000000000000000000000000000000000000000000000000000000000000000000000000000000000000000000000000000000000000000000000000000000000000000000000000000000000000000000000000000000",
            "coinbase" : "0x2adc25665018aa1fe0e6bc666dac8fc2697ff9ba",
            "difficulty" : "0x20000",
            "extraData" : "0x00",
            "gasLimit" : "0x5f5e100",
            "gasUsed" : "0x0",
            "hash" : "0x82ff2c181322e57190854444cb23cabf704dd34a0e09cd0afd1b589970b07d79",
            "mixHash" : "0x0000000000000000000000000000000000000000000000000000000000000000",
            "nonce" : "0x0000000000000000",
            "number" : "0x0",
            "parentHash" : "0x0000000000000000000000000000000000000000000000000000000000000000",
            "receiptTrie" : "0x56e81f171bcc55a6ff8345e692c0f86e5b48e01b996cadc001622fb5e363b421",
            "stateRoot" : "0x05f4f79a79ea4ed7b567696f12bdf56b0f66e40524e51276d6ed3f51c3afb7c4",
            "timestamp" : "0x0",
            "transactionsTrie" : "0x56e81f171bcc55a6ff8345e692c0f86e5b48e01b996cadc001622fb5e363b421",
            "uncleHash" : "0x1dcc4de8dec75d7aab85b567b6ccd41ad312451b948a7413f0a142fd40d49347"
        },
        "pre" : {
            "0x095e7baea6a6c7c4c2dfeb977efac326af552d87" : {
                "balance" : "0x0de0b6b3a7640000",
                "code" : "0x600060006000600073aaae7baea6a6c7c4c2dfeb977efac326af552aaa600035fa6000556000600060006000600073aaae7baea6a6c7c4c2dfeb977efac326af552aaa600035f100",
                "nonce" : "0x00",
                "storage" : {
                    "0x01" : "0x01"
                }
            },
            "0xa94f5374fce5edbc8e2a8697c15331677e6ebf0b" : {
                "balance" : "0x05f5e100",
                "code" : "0x",
                "nonce" : "0x00",
                "storage" : {
                }
            },
            "0xaaae7baea6a6c7c4c2dfeb977efac326af552aaa" : {
                "balance" : "0x0de0b6b3a7640000",
                "code" : "0x73095e7baea6a6c7c4c2dfeb977efac326af552d87ff00",
                "nonce" : "0x00",
                "storage" : {
                    "0x01" : "0x01"
                }
            }
        },
        "postState" : {
            "0xa94f5374fce5edbc8e2a8697c15331677e6ebf0b" : {
                "code" : "0x",
                "nonce" : "0x01",
                "balance" : "0x05f581a6",
                "storage" : {
                }
            },
            "0x095e7baea6a6c7c4c2dfeb977efac326af552d87" : {
                "code" : "0x600060006000600073aaae7baea6a6c7c4c2dfeb977efac326af552aaa600035fa6000556000600060006000600073aaae7baea6a6c7c4c2dfeb977efac326af552aaa600035f100",
                "nonce" : "0x00",
                "balance" : "0x0de0b6b3a764000a",
                "storage" : {
                    "0x01" : "0x01"
                }
            },
            "0xaaae7baea6a6c7c4c2dfeb977efac326af552aaa" : {
                "code" : "0x73095e7baea6a6c7c4c2dfeb977efac326af552d87ff00",
                "nonce" : "0x00",
                "balance" : "0x0de0b6b3a7640000",
                "storage" : {
                    "0x01" : "0x01"
                }
            },
            "0x2adc25665018aa1fe0e6bc666dac8fc2697ff9ba" : {
                "code" : "0x",
                "nonce" : "0x00",
                "balance" : "0x1bc16d674ec85f50",
                "storage" : {
                }
            }
        },
        "network" : "Istanbul",
        "sealEngine" : "NoProof",
        "lastblockhash" : "0x745ffe5cf17d4f091ac551d18becd6522f25f824d125bb8e6d1aa2ff255c45a3",
        "genesisRLP" : "0xf901f9f901f4a00000000000000000000000000000000000000000000000000000000000000000a01dcc4de8dec75d7aab85b567b6ccd41ad312451b948a7413f0a142fd40d49347942adc25665018aa1fe0e6bc666dac8fc2697ff9baa005f4f79a79ea4ed7b567696f12bdf56b0f66e40524e51276d6ed3f51c3afb7c4a056e81f171bcc55a6ff8345e692c0f86e5b48e01b996cadc001622fb5e363b421a056e81f171bcc55a6ff8345e692c0f86e5b48e01b996cadc001622fb5e363b421b901000000000000000000000000000000000000000000000000000000000000000000000000000000000000000000000000000000000000000000000000000000000000000000000000000000000000000000000000000000000000000000000000000000000000000000000000000000000000000000000000000000000000000000000000000000000000000000000000000000000000000000000000000000000000000000000000000000000000000000000000000000000000000000000000000000000000000000000000000000000000000000000000000000000000000000000000000000000000000000000000000000000000000000000000000000000083020000808405f5e100808000a00000000000000000000000000000000000000000000000000000000000000000880000000000000000c0c0",
        "blocks" : [
            {
                "rlp" : "0xf90280f901f8a082ff2c181322e57190854444cb23cabf704dd34a0e09cd0afd1b589970b07d79a01dcc4de8dec75d7aab85b567b6ccd41ad312451b948a7413f0a142fd40d49347942adc25665018aa1fe0e6bc666dac8fc2697ff9baa056ad27d48cde9de5275ee0de6c25560738170693a94fe5fe35c46ee10cf701c7a05aa223482adf3a1a2a459d4ba2cac53424137e086bff91b74ba87245204ebb2ba02e3ff4810cce90d43c2a31bdf1b92057c303185fb913c68de00bbe4fc83e427cb901000000000000000000000000000000000000000000000000000000000000000000000000000000000000000000000000000000000000000000000000000000000000000000000000000000000000000000000000000000000000000000000000000000000000000000000000000000000000000000000000000000000000000000000000000000000000000000000000000000000000000000000000000000000000000000000000000000000000000000000000000000000000000000000000000000000000000000000000000000000000000000000000000000000000000000000000000000000000000000000000000000000000000000000000000000000083020000018405f75e77825f508203e800a00000000000000000000000000000000000000000000000000000000000000000880000000000000000f882f88080018398968094095e7baea6a6c7c4c2dfeb977efac326af552d870aa000000000000000000000000000000000000000000000000000000000000001f41ca00a5b6ccac6bd336c1146cc6edfb0b21ba5480143442860918f5f47d9ae4c28b7a0661f2790b39a4683530bbcc92cb05bd537e423e0be72374cc332cbb0083fde96c0",
                "blockHeader" : {
                    "bloom" : "0x00000000000000000000000000000000000000000000000000000000000000000000000000000000000000000000000000000000000000000000000000000000000000000000000000000000000000000000000000000000000000000000000000000000000000000000000000000000000000000000000000000000000000000000000000000000000000000000000000000000000000000000000000000000000000000000000000000000000000000000000000000000000000000000000000000000000000000000000000000000000000000000000000000000000000000000000000000000000000000000000000000000000000000000000000000000",
                    "coinbase" : "0x2adc25665018aa1fe0e6bc666dac8fc2697ff9ba",
                    "difficulty" : "0x20000",
                    "extraData" : "0x00",
                    "gasLimit" : "0x5f75e77",
                    "gasUsed" : "0x5f50",
                    "hash" : "0x745ffe5cf17d4f091ac551d18becd6522f25f824d125bb8e6d1aa2ff255c45a3",
                    "mixHash" : "0x0000000000000000000000000000000000000000000000000000000000000000",
                    "nonce" : "0x0000000000000000",
                    "number" : "0x1",
                    "parentHash" : "0x82ff2c181322e57190854444cb23cabf704dd34a0e09cd0afd1b589970b07d79",
                    "receiptTrie" : "0x2e3ff4810cce90d43c2a31bdf1b92057c303185fb913c68de00bbe4fc83e427c",
                    "stateRoot" : "0x56ad27d48cde9de5275ee0de6c25560738170693a94fe5fe35c46ee10cf701c7",
                    "timestamp" : "0x3e8",
                    "transactionsTrie" : "0x5aa223482adf3a1a2a459d4ba2cac53424137e086bff91b74ba87245204ebb2b",
                    "uncleHash" : "0x1dcc4de8dec75d7aab85b567b6ccd41ad312451b948a7413f0a142fd40d49347"
                },
                "transactions" : [
                    {
                        "data" : "0x00000000000000000000000000000000000000000000000000000000000001f4",
                        "gasLimit" : "0x989680",
                        "gasPrice" : "0x01",
                        "nonce" : "0x00",
                        "to" : "0x095e7baea6a6c7c4c2dfeb977efac326af552d87",
                        "value" : "0x0a",
                        "v" : "0x1c",
                        "r" : "0x0a5b6ccac6bd336c1146cc6edfb0b21ba5480143442860918f5f47d9ae4c28b7",
                        "s" : "0x661f2790b39a4683530bbcc92cb05bd537e423e0be72374cc332cbb0083fde96"
                    }
                ]
            }
        ]
    }
}