{
    "static_callChangeRevert_d0g0v0_Istanbul" : {
        "_info" : {
            "comment" : "",
            "filling-rpc-server" : "Geth-1.9.6-unstable-63b18027-20190920",
            "filling-tool-version" : "retesteth-0.0.1+commit.0ae18aef.Linux.g++",
            "lllcversion" : "Version: 0.5.12-develop.2019.9.13+commit.2d601a4f.Linux.g++",
            "source" : "src/GeneralStateTestsFiller/stStaticCall/static_callChangeRevertFiller.json",
            "sourceHash" : "686f011ece38f2c4cbab263c86e4fae105c36851f072e735714bd7a93ca662e5"
        },
        "genesisBlockHeader" : {
            "bloom" : "0x00000000000000000000000000000000000000000000000000000000000000000000000000000000000000000000000000000000000000000000000000000000000000000000000000000000000000000000000000000000000000000000000000000000000000000000000000000000000000000000000000000000000000000000000000000000000000000000000000000000000000000000000000000000000000000000000000000000000000000000000000000000000000000000000000000000000000000000000000000000000000000000000000000000000000000000000000000000000000000000000000000000000000000000000000000000",
            "coinbase" : "0x2adc25665018aa1fe0e6bc666dac8fc2697ff9ba",
            "difficulty" : "0x20000",
            "extraData" : "0x00",
            "gasLimit" : "0x989680",
            "gasUsed" : "0x0",
            "hash" : "0x68f381efe078b71dd87349b92af7b36cd88bd3ebb2f304dec6f07c4e7095fe8d",
            "mixHash" : "0x0000000000000000000000000000000000000000000000000000000000000000",
            "nonce" : "0x0000000000000000",
            "number" : "0x0",
            "parentHash" : "0x0000000000000000000000000000000000000000000000000000000000000000",
            "receiptTrie" : "0x56e81f171bcc55a6ff8345e692c0f86e5b48e01b996cadc001622fb5e363b421",
            "stateRoot" : "0x4af21feb8e6b985da761712e1677641a0855b4f6740a1021bd718a08647b7260",
            "timestamp" : "0x0",
            "transactionsTrie" : "0x56e81f171bcc55a6ff8345e692c0f86e5b48e01b996cadc001622fb5e363b421",
            "uncleHash" : "0x1dcc4de8dec75d7aab85b567b6ccd41ad312451b948a7413f0a142fd40d49347"
        },
        "pre" : {
            "0x1000000000000000000000000000000000000000" : {
                "balance" : "0x0de0b6b3a7640000",
                "code" : "0x60006000600060006001731000000000000000000000000000000000000001620186a0f16000556000600060006000731000000000000000000000000000000000000001620186a0fa60015560006000600060006001731000000000000000000000000000000000000001620186a0f160025500",
                "nonce" : "0x00",
                "storage" : {
                }
            },
            "0x1000000000000000000000000000000000000001" : {
                "balance" : "0x00",
                "code" : "0x600160015200",
                "nonce" : "0x00",
                "storage" : {
                }
            },
            "0x1000000000000000000000000000000000000002" : {
                "balance" : "0x00",
                "code" : "0x600160015260015460015500",
                "nonce" : "0x00",
                "storage" : {
                }
            },
            "0x2000000000000000000000000000000000000000" : {
                "balance" : "0x0de0b6b3a7640000",
                "code" : "0x60006000600060006001731000000000000000000000000000000000000001620186a0f16000556000600060006000731000000000000000000000000000000000000001620186a0fa60015560006000600060006001731000000000000000000000000000000000000001620186a0f16002555b61c3506080511015608f5760013b506001608051016080526073565b00",
                "nonce" : "0x00",
                "storage" : {
                }
            },
            "0x3000000000000000000000000000000000000000" : {
                "balance" : "0x0de0b6b3a7640000",
                "code" : "0x60006000600060006001731000000000000000000000000000000000000002620186a0f16000556000600060006000731000000000000000000000000000000000000002620186a0fa60015560006000600060006001731000000000000000000000000000000000000002620186a0f160025500",
                "nonce" : "0x00",
                "storage" : {
                }
            },
            "0xa000000000000000000000000000000000000000" : {
                "balance" : "0x0de0b6b3a7640000",
                "code" : "0x6000600060006000600060003562055730f100",
                "nonce" : "0x00",
                "storage" : {
                }
            },
            "0xa94f5374fce5edbc8e2a8697c15331677e6ebf0b" : {
                "balance" : "0x0de0b6b3a7640000",
                "code" : "0x",
                "nonce" : "0x00",
                "storage" : {
                }
            }
        },
        "postState" : {
            "0xa94f5374fce5edbc8e2a8697c15331677e6ebf0b" : {
                "code" : "0x",
                "nonce" : "0x01",
                "balance" : "0x0de0b6b3a760fc9a",
                "storage" : {
                }
            },
            "0xa000000000000000000000000000000000000000" : {
                "code" : "0x6000600060006000600060003562055730f100",
                "nonce" : "0x00",
                "balance" : "0x0de0b6b3a76586a0",
                "storage" : {
                }
            },
            "0x1000000000000000000000000000000000000001" : {
                "code" : "0x600160015200",
                "nonce" : "0x00",
                "balance" : "0x02",
                "storage" : {
                }
            },
            "0x3000000000000000000000000000000000000000" : {
                "code" : "0x60006000600060006001731000000000000000000000000000000000000002620186a0f16000556000600060006000731000000000000000000000000000000000000002620186a0fa60015560006000600060006001731000000000000000000000000000000000000002620186a0f160025500",
                "nonce" : "0x00",
                "balance" : "0x0de0b6b3a7640000",
                "storage" : {
                }
            },
            "0x2000000000000000000000000000000000000000" : {
                "code" : "0x60006000600060006001731000000000000000000000000000000000000001620186a0f16000556000600060006000731000000000000000000000000000000000000001620186a0fa60015560006000600060006001731000000000000000000000000000000000000001620186a0f16002555b61c3506080511015608f5760013b506001608051016080526073565b00",
                "nonce" : "0x00",
                "balance" : "0x0de0b6b3a7640000",
                "storage" : {
                }
            },
            "0x2adc25665018aa1fe0e6bc666dac8fc2697ff9ba" : {
                "code" : "0x",
                "nonce" : "0x00",
                "balance" : "0x1bc16d674ec97cc6",
                "storage" : {
                }
            },
            "0x1000000000000000000000000000000000000002" : {
                "code" : "0x600160015260015460015500",
                "nonce" : "0x00",
                "balance" : "0x00",
                "storage" : {
                }
            },
            "0x1000000000000000000000000000000000000000" : {
                "code" : "0x60006000600060006001731000000000000000000000000000000000000001620186a0f16000556000600060006000731000000000000000000000000000000000000001620186a0fa60015560006000600060006001731000000000000000000000000000000000000001620186a0f160025500",
                "nonce" : "0x00",
                "balance" : "0x0de0b6b3a763fffe",
                "storage" : {
                    "0x00" : "0x01",
                    "0x02" : "0x01",
                    "0x01" : "0x01"
                }
            }
        },
        "network" : "Istanbul",
        "sealEngine" : "NoProof",
        "lastblockhash" : "0x96af2bc632afc74986f75e20c031fe3d44cd9d54e4f248b78e709a22f3fdd3c8",
        "genesisRLP" : "0xf901f8f901f3a00000000000000000000000000000000000000000000000000000000000000000a01dcc4de8dec75d7aab85b567b6ccd41ad312451b948a7413f0a142fd40d49347942adc25665018aa1fe0e6bc666dac8fc2697ff9baa04af21feb8e6b985da761712e1677641a0855b4f6740a1021bd718a08647b7260a056e81f171bcc55a6ff8345e692c0f86e5b48e01b996cadc001622fb5e363b421a056e81f171bcc55a6ff8345e692c0f86e5b48e01b996cadc001622fb5e363b421b9010000000000000000000000000000000000000000000000000000000000000000000000000000000000000000000000000000000000000000000000000000000000000000000000000000000000000000000000000000000000000000000000000000000000000000000000000000000000000000000000000000000000000000000000000000000000000000000000000000000000000000000000000000000000000000000000000000000000000000000000000000000000000000000000000000000000000000000000000000000000000000000000000000000000000000000000000000000000000000000000000000000000000000000000000000000000830200008083989680808000a00000000000000000000000000000000000000000000000000000000000000000880000000000000000c0c0",
        "blocks" : [
            {
                "rlp" : "0xf90283f901f8a068f381efe078b71dd87349b92af7b36cd88bd3ebb2f304dec6f07c4e7095fe8da01dcc4de8dec75d7aab85b567b6ccd41ad312451b948a7413f0a142fd40d49347942adc25665018aa1fe0e6bc666dac8fc2697ff9baa0940826dad76718a08a62919956073d49d63863009246f3f656943a6b4ff1279ba03cd324403afa862f320f23be7f27435122674508241982ec81c5f772c3e0b651a063b46627113fd7d8faf5b82faec82935b0d31bc5b58cdd887ef37f5b3e3189c4b901000000000000000000000000000000000000000000000000000000000000000000000000000000000000000000000000000000000000000000000000000000000000000000000000000000000000000000000000000000000000000000000000000000000000000000000000000000000000000000000000000000000000000000000000000000000000000000000000000000000000000000000000000000000000000000000000000000000000000000000000000000000000000000000000000000000000000000000000000000000000000000000000000000000000000000000000000000000000000000000000000000000000000000000000000000000083020000018398bca483017cc68203e800a00000000000000000000000000000000000000000000000000000000000000000880000000000000000f885f8838001830f424094a000000000000000000000000000000000000000830186a0a000000000000000000000000010000000000000000000000000000000000000001ba09f5e245feb3238c83925729e6232a668f6fc26d0d0c1e3848925d6e68838e668a0680f4551eb98893f8361088db45ebffcc8083497d9f57ba842d8e58fdbfe96bec0",
                "blockHeader" : {
                    "bloom" : "0x00000000000000000000000000000000000000000000000000000000000000000000000000000000000000000000000000000000000000000000000000000000000000000000000000000000000000000000000000000000000000000000000000000000000000000000000000000000000000000000000000000000000000000000000000000000000000000000000000000000000000000000000000000000000000000000000000000000000000000000000000000000000000000000000000000000000000000000000000000000000000000000000000000000000000000000000000000000000000000000000000000000000000000000000000000000",
                    "coinbase" : "0x2adc25665018aa1fe0e6bc666dac8fc2697ff9ba",
                    "difficulty" : "0x20000",
                    "extraData" : "0x00",
                    "gasLimit" : "0x98bca4",
                    "gasUsed" : "0x17cc6",
                    "hash" : "0x96af2bc632afc74986f75e20c031fe3d44cd9d54e4f248b78e709a22f3fdd3c8",
                    "mixHash" : "0x0000000000000000000000000000000000000000000000000000000000000000",
                    "nonce" : "0x0000000000000000",
                    "number" : "0x1",
                    "parentHash" : "0x68f381efe078b71dd87349b92af7b36cd88bd3ebb2f304dec6f07c4e7095fe8d",
                    "receiptTrie" : "0x63b46627113fd7d8faf5b82faec82935b0d31bc5b58cdd887ef37f5b3e3189c4",
                    "stateRoot" : "0x940826dad76718a08a62919956073d49d63863009246f3f656943a6b4ff1279b",
                    "timestamp" : "0x3e8",
                    "transactionsTrie" : "0x3cd324403afa862f320f23be7f27435122674508241982ec81c5f772c3e0b651",
                    "uncleHash" : "0x1dcc4de8dec75d7aab85b567b6ccd41ad312451b948a7413f0a142fd40d49347"
                },
                "transactions" : [
                    {
                        "data" : "0x0000000000000000000000001000000000000000000000000000000000000000",
                        "gasLimit" : "0x0f4240",
                        "gasPrice" : "0x01",
                        "nonce" : "0x00",
                        "to" : "0xa000000000000000000000000000000000000000",
                        "value" : "0x0186a0",
                        "v" : "0x1b",
                        "r" : "0x9f5e245feb3238c83925729e6232a668f6fc26d0d0c1e3848925d6e68838e668",
                        "s" : "0x680f4551eb98893f8361088db45ebffcc8083497d9f57ba842d8e58fdbfe96be"
                    }
                ]
            }
        ]
    },
    "static_callChangeRevert_d1g0v0_Istanbul" : {
        "_info" : {
            "comment" : "",
            "filling-rpc-server" : "Geth-1.9.6-unstable-63b18027-20190920",
            "filling-tool-version" : "retesteth-0.0.1+commit.0ae18aef.Linux.g++",
            "lllcversion" : "Version: 0.5.12-develop.2019.9.13+commit.2d601a4f.Linux.g++",
            "source" : "src/GeneralStateTestsFiller/stStaticCall/static_callChangeRevertFiller.json",
            "sourceHash" : "686f011ece38f2c4cbab263c86e4fae105c36851f072e735714bd7a93ca662e5"
        },
        "genesisBlockHeader" : {
            "bloom" : "0x00000000000000000000000000000000000000000000000000000000000000000000000000000000000000000000000000000000000000000000000000000000000000000000000000000000000000000000000000000000000000000000000000000000000000000000000000000000000000000000000000000000000000000000000000000000000000000000000000000000000000000000000000000000000000000000000000000000000000000000000000000000000000000000000000000000000000000000000000000000000000000000000000000000000000000000000000000000000000000000000000000000000000000000000000000000",
            "coinbase" : "0x2adc25665018aa1fe0e6bc666dac8fc2697ff9ba",
            "difficulty" : "0x20000",
            "extraData" : "0x00",
            "gasLimit" : "0x989680",
            "gasUsed" : "0x0",
            "hash" : "0x68f381efe078b71dd87349b92af7b36cd88bd3ebb2f304dec6f07c4e7095fe8d",
            "mixHash" : "0x0000000000000000000000000000000000000000000000000000000000000000",
            "nonce" : "0x0000000000000000",
            "number" : "0x0",
            "parentHash" : "0x0000000000000000000000000000000000000000000000000000000000000000",
            "receiptTrie" : "0x56e81f171bcc55a6ff8345e692c0f86e5b48e01b996cadc001622fb5e363b421",
            "stateRoot" : "0x4af21feb8e6b985da761712e1677641a0855b4f6740a1021bd718a08647b7260",
            "timestamp" : "0x0",
            "transactionsTrie" : "0x56e81f171bcc55a6ff8345e692c0f86e5b48e01b996cadc001622fb5e363b421",
            "uncleHash" : "0x1dcc4de8dec75d7aab85b567b6ccd41ad312451b948a7413f0a142fd40d49347"
        },
        "pre" : {
            "0x1000000000000000000000000000000000000000" : {
                "balance" : "0x0de0b6b3a7640000",
                "code" : "0x60006000600060006001731000000000000000000000000000000000000001620186a0f16000556000600060006000731000000000000000000000000000000000000001620186a0fa60015560006000600060006001731000000000000000000000000000000000000001620186a0f160025500",
                "nonce" : "0x00",
                "storage" : {
                }
            },
            "0x1000000000000000000000000000000000000001" : {
                "balance" : "0x00",
                "code" : "0x600160015200",
                "nonce" : "0x00",
                "storage" : {
                }
            },
            "0x1000000000000000000000000000000000000002" : {
                "balance" : "0x00",
                "code" : "0x600160015260015460015500",
                "nonce" : "0x00",
                "storage" : {
                }
            },
            "0x2000000000000000000000000000000000000000" : {
                "balance" : "0x0de0b6b3a7640000",
                "code" : "0x60006000600060006001731000000000000000000000000000000000000001620186a0f16000556000600060006000731000000000000000000000000000000000000001620186a0fa60015560006000600060006001731000000000000000000000000000000000000001620186a0f16002555b61c3506080511015608f5760013b506001608051016080526073565b00",
                "nonce" : "0x00",
                "storage" : {
                }
            },
            "0x3000000000000000000000000000000000000000" : {
                "balance" : "0x0de0b6b3a7640000",
                "code" : "0x60006000600060006001731000000000000000000000000000000000000002620186a0f16000556000600060006000731000000000000000000000000000000000000002620186a0fa60015560006000600060006001731000000000000000000000000000000000000002620186a0f160025500",
                "nonce" : "0x00",
                "storage" : {
                }
            },
            "0xa000000000000000000000000000000000000000" : {
                "balance" : "0x0de0b6b3a7640000",
                "code" : "0x6000600060006000600060003562055730f100",
                "nonce" : "0x00",
                "storage" : {
                }
            },
            "0xa94f5374fce5edbc8e2a8697c15331677e6ebf0b" : {
                "balance" : "0x0de0b6b3a7640000",
                "code" : "0x",
                "nonce" : "0x00",
                "storage" : {
                }
            }
        },
        "postState" : {
            "0xa94f5374fce5edbc8e2a8697c15331677e6ebf0b" : {
                "code" : "0x",
                "nonce" : "0x01",
                "balance" : "0x0de0b6b3a75cccc8",
                "storage" : {
                }
            },
            "0xa000000000000000000000000000000000000000" : {
                "code" : "0x6000600060006000600060003562055730f100",
                "nonce" : "0x00",
                "balance" : "0x0de0b6b3a76586a0",
                "storage" : {
                }
            },
            "0x1000000000000000000000000000000000000001" : {
                "code" : "0x600160015200",
                "nonce" : "0x00",
                "balance" : "0x00",
                "storage" : {
                }
            },
            "0x3000000000000000000000000000000000000000" : {
                "code" : "0x60006000600060006001731000000000000000000000000000000000000002620186a0f16000556000600060006000731000000000000000000000000000000000000002620186a0fa60015560006000600060006001731000000000000000000000000000000000000002620186a0f160025500",
                "nonce" : "0x00",
                "balance" : "0x0de0b6b3a7640000",
                "storage" : {
                }
            },
            "0x2000000000000000000000000000000000000000" : {
                "code" : "0x60006000600060006001731000000000000000000000000000000000000001620186a0f16000556000600060006000731000000000000000000000000000000000000001620186a0fa60015560006000600060006001731000000000000000000000000000000000000001620186a0f16002555b61c3506080511015608f5760013b506001608051016080526073565b00",
                "nonce" : "0x00",
                "balance" : "0x0de0b6b3a7640000",
                "storage" : {
                }
            },
            "0x2adc25665018aa1fe0e6bc666dac8fc2697ff9ba" : {
                "code" : "0x",
                "nonce" : "0x00",
                "balance" : "0x1bc16d674ecdac98",
                "storage" : {
                }
            },
            "0x1000000000000000000000000000000000000002" : {
                "code" : "0x600160015260015460015500",
                "nonce" : "0x00",
                "balance" : "0x00",
                "storage" : {
                }
            },
            "0x1000000000000000000000000000000000000000" : {
                "code" : "0x60006000600060006001731000000000000000000000000000000000000001620186a0f16000556000600060006000731000000000000000000000000000000000000001620186a0fa60015560006000600060006001731000000000000000000000000000000000000001620186a0f160025500",
                "nonce" : "0x00",
                "balance" : "0x0de0b6b3a7640000",
                "storage" : {
                }
            }
        },
        "network" : "Istanbul",
        "sealEngine" : "NoProof",
        "lastblockhash" : "0x04a92a1c5f731020d2d50395270551e7f9c003f50e665ba59456eda31da3cebb",
        "genesisRLP" : "0xf901f8f901f3a00000000000000000000000000000000000000000000000000000000000000000a01dcc4de8dec75d7aab85b567b6ccd41ad312451b948a7413f0a142fd40d49347942adc25665018aa1fe0e6bc666dac8fc2697ff9baa04af21feb8e6b985da761712e1677641a0855b4f6740a1021bd718a08647b7260a056e81f171bcc55a6ff8345e692c0f86e5b48e01b996cadc001622fb5e363b421a056e81f171bcc55a6ff8345e692c0f86e5b48e01b996cadc001622fb5e363b421b9010000000000000000000000000000000000000000000000000000000000000000000000000000000000000000000000000000000000000000000000000000000000000000000000000000000000000000000000000000000000000000000000000000000000000000000000000000000000000000000000000000000000000000000000000000000000000000000000000000000000000000000000000000000000000000000000000000000000000000000000000000000000000000000000000000000000000000000000000000000000000000000000000000000000000000000000000000000000000000000000000000000000000000000000000000000000830200008083989680808000a00000000000000000000000000000000000000000000000000000000000000000880000000000000000c0c0",
        "blocks" : [
            {
                "rlp" : "0xf90283f901f8a068f381efe078b71dd87349b92af7b36cd88bd3ebb2f304dec6f07c4e7095fe8da01dcc4de8dec75d7aab85b567b6ccd41ad312451b948a7413f0a142fd40d49347942adc25665018aa1fe0e6bc666dac8fc2697ff9baa081bb076add1338477d2d7c78a0a6657cc0a8eaa3a1b0a3f84cc325003db2178ba05341d7fbc58dfa08c96605620c64f16a6c92766c9c899b1905004261115b4e0aa064e88c0780dcc5851046a36719f8e0be7a9c2c04dcb73f3785c5ceb4bab39a0fb901000000000000000000000000000000000000000000000000000000000000000000000000000000000000000000000000000000000000000000000000000000000000000000000000000000000000000000000000000000000000000000000000000000000000000000000000000000000000000000000000000000000000000000000000000000000000000000000000000000000000000000000000000000000000000000000000000000000000000000000000000000000000000000000000000000000000000000000000000000000000000000000000000000000000000000000000000000000000000000000000000000000000000000000000000000000083020000018398bca48305ac988203e800a00000000000000000000000000000000000000000000000000000000000000000880000000000000000f885f8838001830f424094a000000000000000000000000000000000000000830186a0a000000000000000000000000020000000000000000000000000000000000000001ba06c824eec94812df181cbb488d751d320540a80e56227aaf62f4e66ae54406f0da037b7c677a6db72b4134def8c88819792e96946138ee9631bb1775f470dcaf79ec0",
                "blockHeader" : {
                    "bloom" : "0x00000000000000000000000000000000000000000000000000000000000000000000000000000000000000000000000000000000000000000000000000000000000000000000000000000000000000000000000000000000000000000000000000000000000000000000000000000000000000000000000000000000000000000000000000000000000000000000000000000000000000000000000000000000000000000000000000000000000000000000000000000000000000000000000000000000000000000000000000000000000000000000000000000000000000000000000000000000000000000000000000000000000000000000000000000000",
                    "coinbase" : "0x2adc25665018aa1fe0e6bc666dac8fc2697ff9ba",
                    "difficulty" : "0x20000",
                    "extraData" : "0x00",
                    "gasLimit" : "0x98bca4",
                    "gasUsed" : "0x5ac98",
                    "hash" : "0x04a92a1c5f731020d2d50395270551e7f9c003f50e665ba59456eda31da3cebb",
                    "mixHash" : "0x0000000000000000000000000000000000000000000000000000000000000000",
                    "nonce" : "0x0000000000000000",
                    "number" : "0x1",
                    "parentHash" : "0x68f381efe078b71dd87349b92af7b36cd88bd3ebb2f304dec6f07c4e7095fe8d",
                    "receiptTrie" : "0x64e88c0780dcc5851046a36719f8e0be7a9c2c04dcb73f3785c5ceb4bab39a0f",
                    "stateRoot" : "0x81bb076add1338477d2d7c78a0a6657cc0a8eaa3a1b0a3f84cc325003db2178b",
                    "timestamp" : "0x3e8",
                    "transactionsTrie" : "0x5341d7fbc58dfa08c96605620c64f16a6c92766c9c899b1905004261115b4e0a",
                    "uncleHash" : "0x1dcc4de8dec75d7aab85b567b6ccd41ad312451b948a7413f0a142fd40d49347"
                },
                "transactions" : [
                    {
                        "data" : "0x0000000000000000000000002000000000000000000000000000000000000000",
                        "gasLimit" : "0x0f4240",
                        "gasPrice" : "0x01",
                        "nonce" : "0x00",
                        "to" : "0xa000000000000000000000000000000000000000",
                        "value" : "0x0186a0",
                        "v" : "0x1b",
                        "r" : "0x6c824eec94812df181cbb488d751d320540a80e56227aaf62f4e66ae54406f0d",
                        "s" : "0x37b7c677a6db72b4134def8c88819792e96946138ee9631bb1775f470dcaf79e"
                    }
                ]
            }
        ]
    },
    "static_callChangeRevert_d2g0v0_Istanbul" : {
        "_info" : {
            "comment" : "",
            "filling-rpc-server" : "Geth-1.9.6-unstable-63b18027-20190920",
            "filling-tool-version" : "retesteth-0.0.1+commit.0ae18aef.Linux.g++",
            "lllcversion" : "Version: 0.5.12-develop.2019.9.13+commit.2d601a4f.Linux.g++",
            "source" : "src/GeneralStateTestsFiller/stStaticCall/static_callChangeRevertFiller.json",
            "sourceHash" : "686f011ece38f2c4cbab263c86e4fae105c36851f072e735714bd7a93ca662e5"
        },
        "genesisBlockHeader" : {
            "bloom" : "0x00000000000000000000000000000000000000000000000000000000000000000000000000000000000000000000000000000000000000000000000000000000000000000000000000000000000000000000000000000000000000000000000000000000000000000000000000000000000000000000000000000000000000000000000000000000000000000000000000000000000000000000000000000000000000000000000000000000000000000000000000000000000000000000000000000000000000000000000000000000000000000000000000000000000000000000000000000000000000000000000000000000000000000000000000000000",
            "coinbase" : "0x2adc25665018aa1fe0e6bc666dac8fc2697ff9ba",
            "difficulty" : "0x20000",
            "extraData" : "0x00",
            "gasLimit" : "0x989680",
            "gasUsed" : "0x0",
            "hash" : "0x68f381efe078b71dd87349b92af7b36cd88bd3ebb2f304dec6f07c4e7095fe8d",
            "mixHash" : "0x0000000000000000000000000000000000000000000000000000000000000000",
            "nonce" : "0x0000000000000000",
            "number" : "0x0",
            "parentHash" : "0x0000000000000000000000000000000000000000000000000000000000000000",
            "receiptTrie" : "0x56e81f171bcc55a6ff8345e692c0f86e5b48e01b996cadc001622fb5e363b421",
            "stateRoot" : "0x4af21feb8e6b985da761712e1677641a0855b4f6740a1021bd718a08647b7260",
            "timestamp" : "0x0",
            "transactionsTrie" : "0x56e81f171bcc55a6ff8345e692c0f86e5b48e01b996cadc001622fb5e363b421",
            "uncleHash" : "0x1dcc4de8dec75d7aab85b567b6ccd41ad312451b948a7413f0a142fd40d49347"
        },
        "pre" : {
            "0x1000000000000000000000000000000000000000" : {
                "balance" : "0x0de0b6b3a7640000",
                "code" : "0x60006000600060006001731000000000000000000000000000000000000001620186a0f16000556000600060006000731000000000000000000000000000000000000001620186a0fa60015560006000600060006001731000000000000000000000000000000000000001620186a0f160025500",
                "nonce" : "0x00",
                "storage" : {
                }
            },
            "0x1000000000000000000000000000000000000001" : {
                "balance" : "0x00",
                "code" : "0x600160015200",
                "nonce" : "0x00",
                "storage" : {
                }
            },
            "0x1000000000000000000000000000000000000002" : {
                "balance" : "0x00",
                "code" : "0x600160015260015460015500",
                "nonce" : "0x00",
                "storage" : {
                }
            },
            "0x2000000000000000000000000000000000000000" : {
                "balance" : "0x0de0b6b3a7640000",
                "code" : "0x60006000600060006001731000000000000000000000000000000000000001620186a0f16000556000600060006000731000000000000000000000000000000000000001620186a0fa60015560006000600060006001731000000000000000000000000000000000000001620186a0f16002555b61c3506080511015608f5760013b506001608051016080526073565b00",
                "nonce" : "0x00",
                "storage" : {
                }
            },
            "0x3000000000000000000000000000000000000000" : {
                "balance" : "0x0de0b6b3a7640000",
                "code" : "0x60006000600060006001731000000000000000000000000000000000000002620186a0f16000556000600060006000731000000000000000000000000000000000000002620186a0fa60015560006000600060006001731000000000000000000000000000000000000002620186a0f160025500",
                "nonce" : "0x00",
                "storage" : {
                }
            },
            "0xa000000000000000000000000000000000000000" : {
                "balance" : "0x0de0b6b3a7640000",
                "code" : "0x6000600060006000600060003562055730f100",
                "nonce" : "0x00",
                "storage" : {
                }
            },
            "0xa94f5374fce5edbc8e2a8697c15331677e6ebf0b" : {
                "balance" : "0x0de0b6b3a7640000",
                "code" : "0x",
                "nonce" : "0x00",
                "storage" : {
                }
            }
        },
        "postState" : {
            "0xa94f5374fce5edbc8e2a8697c15331677e6ebf0b" : {
                "code" : "0x",
                "nonce" : "0x01",
                "balance" : "0x0de0b6b3a75fb47d",
                "storage" : {
                }
            },
            "0xa000000000000000000000000000000000000000" : {
                "code" : "0x6000600060006000600060003562055730f100",
                "nonce" : "0x00",
                "balance" : "0x0de0b6b3a76586a0",
                "storage" : {
                }
            },
            "0x1000000000000000000000000000000000000001" : {
                "code" : "0x600160015200",
                "nonce" : "0x00",
                "balance" : "0x00",
                "storage" : {
                }
            },
            "0x3000000000000000000000000000000000000000" : {
                "code" : "0x60006000600060006001731000000000000000000000000000000000000002620186a0f16000556000600060006000731000000000000000000000000000000000000002620186a0fa60015560006000600060006001731000000000000000000000000000000000000002620186a0f160025500",
                "nonce" : "0x00",
                "balance" : "0x0de0b6b3a763fffe",
                "storage" : {
                    "0x00" : "0x01",
                    "0x02" : "0x01"
                }
            },
            "0x2000000000000000000000000000000000000000" : {
                "code" : "0x60006000600060006001731000000000000000000000000000000000000001620186a0f16000556000600060006000731000000000000000000000000000000000000001620186a0fa60015560006000600060006001731000000000000000000000000000000000000001620186a0f16002555b61c3506080511015608f5760013b506001608051016080526073565b00",
                "nonce" : "0x00",
                "balance" : "0x0de0b6b3a7640000",
                "storage" : {
                }
            },
            "0x2adc25665018aa1fe0e6bc666dac8fc2697ff9ba" : {
                "code" : "0x",
                "nonce" : "0x00",
                "balance" : "0x1bc16d674ecac4e3",
                "storage" : {
                }
            },
            "0x1000000000000000000000000000000000000002" : {
                "code" : "0x600160015260015460015500",
                "nonce" : "0x00",
                "balance" : "0x02",
                "storage" : {
                }
            },
            "0x1000000000000000000000000000000000000000" : {
                "code" : "0x60006000600060006001731000000000000000000000000000000000000001620186a0f16000556000600060006000731000000000000000000000000000000000000001620186a0fa60015560006000600060006001731000000000000000000000000000000000000001620186a0f160025500",
                "nonce" : "0x00",
                "balance" : "0x0de0b6b3a7640000",
                "storage" : {
                }
            }
        },
        "network" : "Istanbul",
        "sealEngine" : "NoProof",
        "lastblockhash" : "0xf31d83e80c4febce5d65385340ffec5e408cf73328f517933cf8bde060ca5e94",
        "genesisRLP" : "0xf901f8f901f3a00000000000000000000000000000000000000000000000000000000000000000a01dcc4de8dec75d7aab85b567b6ccd41ad312451b948a7413f0a142fd40d49347942adc25665018aa1fe0e6bc666dac8fc2697ff9baa04af21feb8e6b985da761712e1677641a0855b4f6740a1021bd718a08647b7260a056e81f171bcc55a6ff8345e692c0f86e5b48e01b996cadc001622fb5e363b421a056e81f171bcc55a6ff8345e692c0f86e5b48e01b996cadc001622fb5e363b421b9010000000000000000000000000000000000000000000000000000000000000000000000000000000000000000000000000000000000000000000000000000000000000000000000000000000000000000000000000000000000000000000000000000000000000000000000000000000000000000000000000000000000000000000000000000000000000000000000000000000000000000000000000000000000000000000000000000000000000000000000000000000000000000000000000000000000000000000000000000000000000000000000000000000000000000000000000000000000000000000000000000000000000000000000000000000000830200008083989680808000a00000000000000000000000000000000000000000000000000000000000000000880000000000000000c0c0",
        "blocks" : [
            {
                "rlp" : "0xf90283f901f8a068f381efe078b71dd87349b92af7b36cd88bd3ebb2f304dec6f07c4e7095fe8da01dcc4de8dec75d7aab85b567b6ccd41ad312451b948a7413f0a142fd40d49347942adc25665018aa1fe0e6bc666dac8fc2697ff9baa0b3553fc541a540314f6a920e54263d2a8776013a105186a0c4c0fed3fd851ad3a0bba1bf0047b49bf0f57ead3b0c5e7f9e09e0b16fc0f06221d8a6bbc7a965c3bca033131b3fdc6348b121abc227755e513efde64bd0e54d00b3b31570a786b9526eb901000000000000000000000000000000000000000000000000000000000000000000000000000000000000000000000000000000000000000000000000000000000000000000000000000000000000000000000000000000000000000000000000000000000000000000000000000000000000000000000000000000000000000000000000000000000000000000000000000000000000000000000000000000000000000000000000000000000000000000000000000000000000000000000000000000000000000000000000000000000000000000000000000000000000000000000000000000000000000000000000000000000000000000000000000000000083020000018398bca48302c4e38203e800a00000000000000000000000000000000000000000000000000000000000000000880000000000000000f885f8838001830f424094a000000000000000000000000000000000000000830186a0a000000000000000000000000030000000000000000000000000000000000000001ba04236c4b6561e4c0101cfe0ce9a2eaba62fcfd3a8f43bdd245fbc8ee76911f129a046a7116a6ee32f8f3f471d14172e8b563fb9c3213fc7a50c22df21766d851573c0",
                "blockHeader" : {
                    "bloom" : "0x00000000000000000000000000000000000000000000000000000000000000000000000000000000000000000000000000000000000000000000000000000000000000000000000000000000000000000000000000000000000000000000000000000000000000000000000000000000000000000000000000000000000000000000000000000000000000000000000000000000000000000000000000000000000000000000000000000000000000000000000000000000000000000000000000000000000000000000000000000000000000000000000000000000000000000000000000000000000000000000000000000000000000000000000000000000",
                    "coinbase" : "0x2adc25665018aa1fe0e6bc666dac8fc2697ff9ba",
                    "difficulty" : "0x20000",
                    "extraData" : "0x00",
                    "gasLimit" : "0x98bca4",
                    "gasUsed" : "0x2c4e3",
                    "hash" : "0xf31d83e80c4febce5d65385340ffec5e408cf73328f517933cf8bde060ca5e94",
                    "mixHash" : "0x0000000000000000000000000000000000000000000000000000000000000000",
                    "nonce" : "0x0000000000000000",
                    "number" : "0x1",
                    "parentHash" : "0x68f381efe078b71dd87349b92af7b36cd88bd3ebb2f304dec6f07c4e7095fe8d",
                    "receiptTrie" : "0x33131b3fdc6348b121abc227755e513efde64bd0e54d00b3b31570a786b9526e",
                    "stateRoot" : "0xb3553fc541a540314f6a920e54263d2a8776013a105186a0c4c0fed3fd851ad3",
                    "timestamp" : "0x3e8",
                    "transactionsTrie" : "0xbba1bf0047b49bf0f57ead3b0c5e7f9e09e0b16fc0f06221d8a6bbc7a965c3bc",
                    "uncleHash" : "0x1dcc4de8dec75d7aab85b567b6ccd41ad312451b948a7413f0a142fd40d49347"
                },
                "transactions" : [
                    {
                        "data" : "0x0000000000000000000000003000000000000000000000000000000000000000",
                        "gasLimit" : "0x0f4240",
                        "gasPrice" : "0x01",
                        "nonce" : "0x00",
                        "to" : "0xa000000000000000000000000000000000000000",
                        "value" : "0x0186a0",
                        "v" : "0x1b",
                        "r" : "0x4236c4b6561e4c0101cfe0ce9a2eaba62fcfd3a8f43bdd245fbc8ee76911f129",
                        "s" : "0x46a7116a6ee32f8f3f471d14172e8b563fb9c3213fc7a50c22df21766d851573"
                    }
                ]
            }
        ]
    }
}