{
    "static_CREATE_ContractSuicideDuringInit_ThenStoreThenReturn_d0g0v0_Istanbul" : {
        "_info" : {
            "comment" : "",
            "filling-rpc-server" : "Geth-1.9.6-unstable-63b18027-20190920",
            "filling-tool-version" : "retesteth-0.0.1+commit.0ae18aef.Linux.g++",
            "lllcversion" : "Version: 0.5.12-develop.2019.9.13+commit.2d601a4f.Linux.g++",
            "source" : "src/GeneralStateTestsFiller/stStaticCall/static_CREATE_ContractSuicideDuringInit_ThenStoreThenReturnFiller.json",
            "sourceHash" : "e1522b19cbf33fb54fe17000cceba197827223d244fd5668cf90f25bbdd16075"
        },
        "genesisBlockHeader" : {
            "bloom" : "0x00000000000000000000000000000000000000000000000000000000000000000000000000000000000000000000000000000000000000000000000000000000000000000000000000000000000000000000000000000000000000000000000000000000000000000000000000000000000000000000000000000000000000000000000000000000000000000000000000000000000000000000000000000000000000000000000000000000000000000000000000000000000000000000000000000000000000000000000000000000000000000000000000000000000000000000000000000000000000000000000000000000000000000000000000000000",
            "coinbase" : "0x2adc25665018aa1fe0e6bc666dac8fc2697ff9ba",
            "difficulty" : "0x20000",
            "extraData" : "0x00",
            "gasLimit" : "0x989680",
            "gasUsed" : "0x0",
            "hash" : "0xda95aacd7d7b07db9688b2790f0e7ac562a232ea307e73e778393e47fa987808",
            "mixHash" : "0x0000000000000000000000000000000000000000000000000000000000000000",
            "nonce" : "0x0000000000000000",
            "number" : "0x0",
            "parentHash" : "0x0000000000000000000000000000000000000000000000000000000000000000",
            "receiptTrie" : "0x56e81f171bcc55a6ff8345e692c0f86e5b48e01b996cadc001622fb5e363b421",
            "stateRoot" : "0x0fc753d5a120c052247426fe76a7b5436eb942e573616e2510060e1e238ba095",
            "timestamp" : "0x0",
            "transactionsTrie" : "0x56e81f171bcc55a6ff8345e692c0f86e5b48e01b996cadc001622fb5e363b421",
            "uncleHash" : "0x1dcc4de8dec75d7aab85b567b6ccd41ad312451b948a7413f0a142fd40d49347"
        },
        "pre" : {
            "0x094f5374fce5edbc8e2a8697c15331677e6ebf0b" : {
                "balance" : "0x00",
                "code" : "0x600160015200",
                "nonce" : "0x00",
                "storage" : {
                }
            },
            "0x194f5374fce5edbc8e2a8697c15331677e6ebf0b" : {
                "balance" : "0x00",
                "code" : "0x600160015200",
                "nonce" : "0x00",
                "storage" : {
                }
            },
            "0xa94f5374fce5edbc8e2a8697c15331677e6ebf0b" : {
                "balance" : "0xe8d4a51000",
                "code" : "0x",
                "nonce" : "0x00",
                "storage" : {
                }
            },
            "0xc94f5374fce5edbc8e2a8697c15331677e6ebf0b" : {
                "balance" : "0x00",
                "code" : "0x600c60015500",
                "nonce" : "0x00",
                "storage" : {
                }
            },
            "0xd94f5374fce5edbc8e2a8697c15331677e6ebf0b" : {
                "balance" : "0x00",
                "code" : "0x600c60015500",
                "nonce" : "0x00",
                "storage" : {
                }
            }
        },
        "postState" : {
            "0xa94f5374fce5edbc8e2a8697c15331677e6ebf0b" : {
                "code" : "0x",
                "nonce" : "0x01",
                "balance" : "0xe8d4a39717",
                "storage" : {
                }
            },
            "0x194f5374fce5edbc8e2a8697c15331677e6ebf0b" : {
                "code" : "0x600160015200",
                "nonce" : "0x00",
                "balance" : "0x00",
                "storage" : {
                }
            },
            "0xd94f5374fce5edbc8e2a8697c15331677e6ebf0b" : {
                "code" : "0x600c60015500",
                "nonce" : "0x00",
                "balance" : "0x0a",
                "storage" : {
                }
            },
            "0xc94f5374fce5edbc8e2a8697c15331677e6ebf0b" : {
                "code" : "0x600c60015500",
                "nonce" : "0x00",
                "balance" : "0x00",
                "storage" : {
                }
            },
            "0x2adc25665018aa1fe0e6bc666dac8fc2697ff9ba" : {
                "code" : "0x",
                "nonce" : "0x00",
                "balance" : "0x1bc16d674ec978df",
                "storage" : {
                }
            },
            "0x094f5374fce5edbc8e2a8697c15331677e6ebf0b" : {
                "code" : "0x600160015200",
                "nonce" : "0x00",
                "balance" : "0x00",
                "storage" : {
                }
            }
        },
        "network" : "Istanbul",
        "sealEngine" : "NoProof",
        "lastblockhash" : "0x54ddc69e586c6f6a0f41c9efb5d5c8c613797a2ec0591c61296b405a59ea02a0",
        "genesisRLP" : "0xf901f8f901f3a00000000000000000000000000000000000000000000000000000000000000000a01dcc4de8dec75d7aab85b567b6ccd41ad312451b948a7413f0a142fd40d49347942adc25665018aa1fe0e6bc666dac8fc2697ff9baa00fc753d5a120c052247426fe76a7b5436eb942e573616e2510060e1e238ba095a056e81f171bcc55a6ff8345e692c0f86e5b48e01b996cadc001622fb5e363b421a056e81f171bcc55a6ff8345e692c0f86e5b48e01b996cadc001622fb5e363b421b9010000000000000000000000000000000000000000000000000000000000000000000000000000000000000000000000000000000000000000000000000000000000000000000000000000000000000000000000000000000000000000000000000000000000000000000000000000000000000000000000000000000000000000000000000000000000000000000000000000000000000000000000000000000000000000000000000000000000000000000000000000000000000000000000000000000000000000000000000000000000000000000000000000000000000000000000000000000000000000000000000000000000000000000000000000000000830200008083989680808000a00000000000000000000000000000000000000000000000000000000000000000880000000000000000c0c0",
        "blocks" : [
            {
                "rlp" : "0xf902c3f901f8a0da95aacd7d7b07db9688b2790f0e7ac562a232ea307e73e778393e47fa987808a01dcc4de8dec75d7aab85b567b6ccd41ad312451b948a7413f0a142fd40d49347942adc25665018aa1fe0e6bc666dac8fc2697ff9baa09db8c314374e9e460544c367ea8cb75351733b484428addbe3cf1f2151246b4aa0fcca63c12abb745db1a5079c20d871c0bf0fb207c91d762df45f5a746dca8c88a07daea1665b7a5f61d32ce185ac0ece61124c2d1507c3314223b2975647830c95b901000000000000000000000000000000000000000000000000000000000000000000000000000000000000000000000000000000000000000000000000000000000000000000000000000000000000000000000000000000000000000000000000000000000000000000000000000000000000000000000000000000000000000000000000000000000000000000000000000000000000000000000000000000000000000000000000000000000000000000000000000000000000000000000000000000000000000000000000000000000000000000000000000000000000000000000000000000000000000000000000000000000000000000000000000000000083020000018398bca4830178df8203e800a00000000000000000000000000000000000000000000000000000000000000000880000000000000000f8c5f8c38001830927c0800ab876600060006000600073c94f5374fce5edbc8e2a8697c15331677e6ebf0b61ea60fa506d64600c6000556000526005601bf360005273d94f5374fce5edbc8e2a8697c15331677e6ebf0bff600060006000600073d94f5374fce5edbc8e2a8697c15331677e6ebf0b61ea60fa50600b600055600e6012f31ba0e9eba78502b3c715ce2ec6115799eca917a40ddcc8108a8054e5259a29d89cb0a06ffafec2dd91b1078fc5c96ed8ef3f9f000934b00db0851b219be7701113ca2cc0",
                "blockHeader" : {
                    "bloom" : "0x00000000000000000000000000000000000000000000000000000000000000000000000000000000000000000000000000000000000000000000000000000000000000000000000000000000000000000000000000000000000000000000000000000000000000000000000000000000000000000000000000000000000000000000000000000000000000000000000000000000000000000000000000000000000000000000000000000000000000000000000000000000000000000000000000000000000000000000000000000000000000000000000000000000000000000000000000000000000000000000000000000000000000000000000000000000",
                    "coinbase" : "0x2adc25665018aa1fe0e6bc666dac8fc2697ff9ba",
                    "difficulty" : "0x20000",
                    "extraData" : "0x00",
                    "gasLimit" : "0x98bca4",
                    "gasUsed" : "0x178df",
                    "hash" : "0x54ddc69e586c6f6a0f41c9efb5d5c8c613797a2ec0591c61296b405a59ea02a0",
                    "mixHash" : "0x0000000000000000000000000000000000000000000000000000000000000000",
                    "nonce" : "0x0000000000000000",
                    "number" : "0x1",
                    "parentHash" : "0xda95aacd7d7b07db9688b2790f0e7ac562a232ea307e73e778393e47fa987808",
                    "receiptTrie" : "0x7daea1665b7a5f61d32ce185ac0ece61124c2d1507c3314223b2975647830c95",
                    "stateRoot" : "0x9db8c314374e9e460544c367ea8cb75351733b484428addbe3cf1f2151246b4a",
                    "timestamp" : "0x3e8",
                    "transactionsTrie" : "0xfcca63c12abb745db1a5079c20d871c0bf0fb207c91d762df45f5a746dca8c88",
                    "uncleHash" : "0x1dcc4de8dec75d7aab85b567b6ccd41ad312451b948a7413f0a142fd40d49347"
                },
                "transactions" : [
                    {
                        "data" : "0x600060006000600073c94f5374fce5edbc8e2a8697c15331677e6ebf0b61ea60fa506d64600c6000556000526005601bf360005273d94f5374fce5edbc8e2a8697c15331677e6ebf0bff600060006000600073d94f5374fce5edbc8e2a8697c15331677e6ebf0b61ea60fa50600b600055600e6012f3",
                        "gasLimit" : "0x0927c0",
                        "gasPrice" : "0x01",
                        "nonce" : "0x00",
                        "to" : "",
                        "value" : "0x0a",
                        "v" : "0x1b",
                        "r" : "0xe9eba78502b3c715ce2ec6115799eca917a40ddcc8108a8054e5259a29d89cb0",
                        "s" : "0x6ffafec2dd91b1078fc5c96ed8ef3f9f000934b00db0851b219be7701113ca2c"
                    }
                ]
            }
        ]
    },
    "static_CREATE_ContractSuicideDuringInit_ThenStoreThenReturn_d1g0v0_Istanbul" : {
        "_info" : {
            "comment" : "",
            "filling-rpc-server" : "Geth-1.9.6-unstable-63b18027-20190920",
            "filling-tool-version" : "retesteth-0.0.1+commit.0ae18aef.Linux.g++",
            "lllcversion" : "Version: 0.5.12-develop.2019.9.13+commit.2d601a4f.Linux.g++",
            "source" : "src/GeneralStateTestsFiller/stStaticCall/static_CREATE_ContractSuicideDuringInit_ThenStoreThenReturnFiller.json",
            "sourceHash" : "e1522b19cbf33fb54fe17000cceba197827223d244fd5668cf90f25bbdd16075"
        },
        "genesisBlockHeader" : {
            "bloom" : "0x00000000000000000000000000000000000000000000000000000000000000000000000000000000000000000000000000000000000000000000000000000000000000000000000000000000000000000000000000000000000000000000000000000000000000000000000000000000000000000000000000000000000000000000000000000000000000000000000000000000000000000000000000000000000000000000000000000000000000000000000000000000000000000000000000000000000000000000000000000000000000000000000000000000000000000000000000000000000000000000000000000000000000000000000000000000",
            "coinbase" : "0x2adc25665018aa1fe0e6bc666dac8fc2697ff9ba",
            "difficulty" : "0x20000",
            "extraData" : "0x00",
            "gasLimit" : "0x989680",
            "gasUsed" : "0x0",
            "hash" : "0xda95aacd7d7b07db9688b2790f0e7ac562a232ea307e73e778393e47fa987808",
            "mixHash" : "0x0000000000000000000000000000000000000000000000000000000000000000",
            "nonce" : "0x0000000000000000",
            "number" : "0x0",
            "parentHash" : "0x0000000000000000000000000000000000000000000000000000000000000000",
            "receiptTrie" : "0x56e81f171bcc55a6ff8345e692c0f86e5b48e01b996cadc001622fb5e363b421",
            "stateRoot" : "0x0fc753d5a120c052247426fe76a7b5436eb942e573616e2510060e1e238ba095",
            "timestamp" : "0x0",
            "transactionsTrie" : "0x56e81f171bcc55a6ff8345e692c0f86e5b48e01b996cadc001622fb5e363b421",
            "uncleHash" : "0x1dcc4de8dec75d7aab85b567b6ccd41ad312451b948a7413f0a142fd40d49347"
        },
        "pre" : {
            "0x094f5374fce5edbc8e2a8697c15331677e6ebf0b" : {
                "balance" : "0x00",
                "code" : "0x600160015200",
                "nonce" : "0x00",
                "storage" : {
                }
            },
            "0x194f5374fce5edbc8e2a8697c15331677e6ebf0b" : {
                "balance" : "0x00",
                "code" : "0x600160015200",
                "nonce" : "0x00",
                "storage" : {
                }
            },
            "0xa94f5374fce5edbc8e2a8697c15331677e6ebf0b" : {
                "balance" : "0xe8d4a51000",
                "code" : "0x",
                "nonce" : "0x00",
                "storage" : {
                }
            },
            "0xc94f5374fce5edbc8e2a8697c15331677e6ebf0b" : {
                "balance" : "0x00",
                "code" : "0x600c60015500",
                "nonce" : "0x00",
                "storage" : {
                }
            },
            "0xd94f5374fce5edbc8e2a8697c15331677e6ebf0b" : {
                "balance" : "0x00",
                "code" : "0x600c60015500",
                "nonce" : "0x00",
                "storage" : {
                }
            }
        },
        "postState" : {
            "0xa94f5374fce5edbc8e2a8697c15331677e6ebf0b" : {
                "code" : "0x",
                "nonce" : "0x01",
                "balance" : "0xe8d4a48168",
                "storage" : {
                }
            },
            "0x194f5374fce5edbc8e2a8697c15331677e6ebf0b" : {
                "code" : "0x600160015200",
                "nonce" : "0x00",
                "balance" : "0x00",
                "storage" : {
                }
            },
            "0xd94f5374fce5edbc8e2a8697c15331677e6ebf0b" : {
                "code" : "0x600c60015500",
                "nonce" : "0x00",
                "balance" : "0x0a",
                "storage" : {
                }
            },
            "0xc94f5374fce5edbc8e2a8697c15331677e6ebf0b" : {
                "code" : "0x600c60015500",
                "nonce" : "0x00",
                "balance" : "0x00",
                "storage" : {
                }
            },
            "0x2adc25665018aa1fe0e6bc666dac8fc2697ff9ba" : {
                "code" : "0x",
                "nonce" : "0x00",
                "balance" : "0x1bc16d674ec88e8e",
                "storage" : {
                }
            },
            "0x094f5374fce5edbc8e2a8697c15331677e6ebf0b" : {
                "code" : "0x600160015200",
                "nonce" : "0x00",
                "balance" : "0x00",
                "storage" : {
                }
            }
        },
        "network" : "Istanbul",
        "sealEngine" : "NoProof",
        "lastblockhash" : "0x0338bff635bcb5fbdb6ad7cde776faed10087d259a81f25b4f9029e2a9356659",
        "genesisRLP" : "0xf901f8f901f3a00000000000000000000000000000000000000000000000000000000000000000a01dcc4de8dec75d7aab85b567b6ccd41ad312451b948a7413f0a142fd40d49347942adc25665018aa1fe0e6bc666dac8fc2697ff9baa00fc753d5a120c052247426fe76a7b5436eb942e573616e2510060e1e238ba095a056e81f171bcc55a6ff8345e692c0f86e5b48e01b996cadc001622fb5e363b421a056e81f171bcc55a6ff8345e692c0f86e5b48e01b996cadc001622fb5e363b421b9010000000000000000000000000000000000000000000000000000000000000000000000000000000000000000000000000000000000000000000000000000000000000000000000000000000000000000000000000000000000000000000000000000000000000000000000000000000000000000000000000000000000000000000000000000000000000000000000000000000000000000000000000000000000000000000000000000000000000000000000000000000000000000000000000000000000000000000000000000000000000000000000000000000000000000000000000000000000000000000000000000000000000000000000000000000000830200008083989680808000a00000000000000000000000000000000000000000000000000000000000000000880000000000000000c0c0",
        "blocks" : [
            {
                "rlp" : "0xf902c2f901f7a0da95aacd7d7b07db9688b2790f0e7ac562a232ea307e73e778393e47fa987808a01dcc4de8dec75d7aab85b567b6ccd41ad312451b948a7413f0a142fd40d49347942adc25665018aa1fe0e6bc666dac8fc2697ff9baa0211bb94a9c0ba47ea678cdeba380a2ca3408e32684eaf0fef4d71f142e41bda8a0aec24ed5befb47b9ccc0e21dcb28e9ddb2068e684dcba85b1a57886e9ded96d2a09692e4cb7c65c26dbb2326b7c78b11ed024922e45281fd4530c8376e2485bae0b901000000000000000000000000000000000000000000000000000000000000000000000000000000000000000000000000000000000000000000000000000000000000000000000000000000000000000000000000000000000000000000000000000000000000000000000000000000000000000000000000000000000000000000000000000000000000000000000000000000000000000000000000000000000000000000000000000000000000000000000000000000000000000000000000000000000000000000000000000000000000000000000000000000000000000000000000000000000000000000000000000000000000000000000000000000000083020000018398bca4828e8e8203e800a00000000000000000000000000000000000000000000000000000000000000000880000000000000000f8c5f8c38001830927c0800ab876600060006000600073094f5374fce5edbc8e2a8697c15331677e6ebf0b61ea60fa506d64600c6000556000526005601bf360005273d94f5374fce5edbc8e2a8697c15331677e6ebf0bff600060006000600073194f5374fce5edbc8e2a8697c15331677e6ebf0b61ea60fa50600b600055600e6012f31ba05f8fe32c168481ee7441104f8c38be584dd768c0baeb39e8d50fc6d2fd71e0bda05efe57e4a0a35cd5acbd382a0d7fd6f0da45c1ba3f9e3be88ad68402f28bac76c0",
                "blockHeader" : {
                    "bloom" : "0x00000000000000000000000000000000000000000000000000000000000000000000000000000000000000000000000000000000000000000000000000000000000000000000000000000000000000000000000000000000000000000000000000000000000000000000000000000000000000000000000000000000000000000000000000000000000000000000000000000000000000000000000000000000000000000000000000000000000000000000000000000000000000000000000000000000000000000000000000000000000000000000000000000000000000000000000000000000000000000000000000000000000000000000000000000000",
                    "coinbase" : "0x2adc25665018aa1fe0e6bc666dac8fc2697ff9ba",
                    "difficulty" : "0x20000",
                    "extraData" : "0x00",
                    "gasLimit" : "0x98bca4",
                    "gasUsed" : "0x8e8e",
                    "hash" : "0x0338bff635bcb5fbdb6ad7cde776faed10087d259a81f25b4f9029e2a9356659",
                    "mixHash" : "0x0000000000000000000000000000000000000000000000000000000000000000",
                    "nonce" : "0x0000000000000000",
                    "number" : "0x1",
                    "parentHash" : "0xda95aacd7d7b07db9688b2790f0e7ac562a232ea307e73e778393e47fa987808",
                    "receiptTrie" : "0x9692e4cb7c65c26dbb2326b7c78b11ed024922e45281fd4530c8376e2485bae0",
                    "stateRoot" : "0x211bb94a9c0ba47ea678cdeba380a2ca3408e32684eaf0fef4d71f142e41bda8",
                    "timestamp" : "0x3e8",
                    "transactionsTrie" : "0xaec24ed5befb47b9ccc0e21dcb28e9ddb2068e684dcba85b1a57886e9ded96d2",
                    "uncleHash" : "0x1dcc4de8dec75d7aab85b567b6ccd41ad312451b948a7413f0a142fd40d49347"
                },
                "transactions" : [
                    {
                        "data" : "0x600060006000600073094f5374fce5edbc8e2a8697c15331677e6ebf0b61ea60fa506d64600c6000556000526005601bf360005273d94f5374fce5edbc8e2a8697c15331677e6ebf0bff600060006000600073194f5374fce5edbc8e2a8697c15331677e6ebf0b61ea60fa50600b600055600e6012f3",
                        "gasLimit" : "0x0927c0",
                        "gasPrice" : "0x01",
                        "nonce" : "0x00",
                        "to" : "",
                        "value" : "0x0a",
                        "v" : "0x1b",
                        "r" : "0x5f8fe32c168481ee7441104f8c38be584dd768c0baeb39e8d50fc6d2fd71e0bd",
                        "s" : "0x5efe57e4a0a35cd5acbd382a0d7fd6f0da45c1ba3f9e3be88ad68402f28bac76"
                    }
                ]
            }
        ]
    }
}