{
    "static_Call1024BalanceTooLow2_d0g0v0_Istanbul" : {
        "_info" : {
            "comment" : "",
            "filling-rpc-server" : "Geth-1.9.6-unstable-63b18027-20190920",
            "filling-tool-version" : "retesteth-0.0.1+commit.0ae18aef.Linux.g++",
            "lllcversion" : "Version: 0.5.12-develop.2019.9.13+commit.2d601a4f.Linux.g++",
            "source" : "src/GeneralStateTestsFiller/stStaticCall/static_Call1024BalanceTooLow2Filler.json",
            "sourceHash" : "893f1f25410b797d3f7659757b7326d4f77ca0a4dc60414e200d84197937e101"
        },
        "genesisBlockHeader" : {
            "bloom" : "0x00000000000000000000000000000000000000000000000000000000000000000000000000000000000000000000000000000000000000000000000000000000000000000000000000000000000000000000000000000000000000000000000000000000000000000000000000000000000000000000000000000000000000000000000000000000000000000000000000000000000000000000000000000000000000000000000000000000000000000000000000000000000000000000000000000000000000000000000000000000000000000000000000000000000000000000000000000000000000000000000000000000000000000000000000000000",
            "coinbase" : "0xb94f5374fce5edbc8e2a8697c15331677e6ebf0b",
            "difficulty" : "0x20000",
            "extraData" : "0x00",
            "gasLimit" : "0x7fffffffffffffff",
            "gasUsed" : "0x0",
            "hash" : "0xec3b0d3938626864e204ebc8e7bbb3cc85dbcaf6071e3ea19479921e244bbb32",
            "mixHash" : "0x0000000000000000000000000000000000000000000000000000000000000000",
            "nonce" : "0x0000000000000000",
            "number" : "0x0",
            "parentHash" : "0x0000000000000000000000000000000000000000000000000000000000000000",
            "receiptTrie" : "0x56e81f171bcc55a6ff8345e692c0f86e5b48e01b996cadc001622fb5e363b421",
            "stateRoot" : "0x4388edf249b4c67f2ca50f9e824acad644da6d6c808aab9ac9dba17f0d319ad1",
            "timestamp" : "0x0",
            "transactionsTrie" : "0x56e81f171bcc55a6ff8345e692c0f86e5b48e01b996cadc001622fb5e363b421",
            "uncleHash" : "0x1dcc4de8dec75d7aab85b567b6ccd41ad312451b948a7413f0a142fd40d49347"
        },
        "pre" : {
            "0x1000000000000000000000000000000000000000" : {
                "balance" : "0x00",
                "code" : "0x6000600060006000346000355af16000555a60015500",
                "nonce" : "0x00",
                "storage" : {
                }
            },
            "0xa94f5374fce5edbc8e2a8697c15331677e6ebf0b" : {
                "balance" : "0xffffffffffffffffffffffffffffffff",
                "code" : "0x",
                "nonce" : "0x00",
                "storage" : {
                }
            },
            "0xaaaf5374fce5edbc8e2a8697c15331677e6ebf0b" : {
                "balance" : "0x1b58",
                "code" : "0x",
                "nonce" : "0x00",
                "storage" : {
                }
            },
            "0xbbbf5374fce5edbc8e2a8697c15331677e6ebf0b" : {
                "balance" : "0x0400",
                "code" : "0x60016000540160005560006000600060005473bbbf5374fce5edbc8e2a8697c15331677e6ebf0b650ffffffffffffa60015500",
                "nonce" : "0x00",
                "storage" : {
                }
            },
            "0xcbbf5374fce5edbc8e2a8697c15331677e6ebf0b" : {
                "balance" : "0x0400",
                "code" : "0x60016000510160005260006000600060005173cbbf5374fce5edbc8e2a8697c15331677e6ebf0b650ffffffffffffa60205200",
                "nonce" : "0x00",
                "storage" : {
                }
            }
        },
        "postState" : {
            "0xa94f5374fce5edbc8e2a8697c15331677e6ebf0b" : {
                "code" : "0x",
                "nonce" : "0x01",
                "balance" : "0xfffffffffffffffffffff07efffe8ab3",
                "storage" : {
                }
            },
            "0xbbbf5374fce5edbc8e2a8697c15331677e6ebf0b" : {
                "code" : "0x60016000540160005560006000600060005473bbbf5374fce5edbc8e2a8697c15331677e6ebf0b650ffffffffffffa60015500",
                "nonce" : "0x00",
                "balance" : "0x040a",
                "storage" : {
                    "0x00" : "0x01"
                }
            },
            "0xcbbf5374fce5edbc8e2a8697c15331677e6ebf0b" : {
                "code" : "0x60016000510160005260006000600060005173cbbf5374fce5edbc8e2a8697c15331677e6ebf0b650ffffffffffffa60205200",
                "nonce" : "0x00",
                "balance" : "0x0400",
                "storage" : {
                }
            },
            "0xaaaf5374fce5edbc8e2a8697c15331677e6ebf0b" : {
                "code" : "0x",
                "nonce" : "0x00",
                "balance" : "0x1b58",
                "storage" : {
                }
            },
            "0xb94f5374fce5edbc8e2a8697c15331677e6ebf0b" : {
                "code" : "0x",
                "nonce" : "0x00",
                "balance" : "0x1bc17ce84ec97542",
                "storage" : {
                }
            },
            "0x1000000000000000000000000000000000000000" : {
                "code" : "0x6000600060006000346000355af16000555a60015500",
                "nonce" : "0x00",
                "balance" : "0x00",
                "storage" : {
                    "0x00" : "0x01",
                    "0x01" : "0x7effffb069"
                }
            }
        },
        "network" : "Istanbul",
        "sealEngine" : "NoProof",
        "lastblockhash" : "0x61e0cc6e4cf7186279ded2ee4823d45ea98cc23b28b877346dd94faed187edc2",
        "genesisRLP" : "0xf901fdf901f8a00000000000000000000000000000000000000000000000000000000000000000a01dcc4de8dec75d7aab85b567b6ccd41ad312451b948a7413f0a142fd40d4934794b94f5374fce5edbc8e2a8697c15331677e6ebf0ba04388edf249b4c67f2ca50f9e824acad644da6d6c808aab9ac9dba17f0d319ad1a056e81f171bcc55a6ff8345e692c0f86e5b48e01b996cadc001622fb5e363b421a056e81f171bcc55a6ff8345e692c0f86e5b48e01b996cadc001622fb5e363b421b90100000000000000000000000000000000000000000000000000000000000000000000000000000000000000000000000000000000000000000000000000000000000000000000000000000000000000000000000000000000000000000000000000000000000000000000000000000000000000000000000000000000000000000000000000000000000000000000000000000000000000000000000000000000000000000000000000000000000000000000000000000000000000000000000000000000000000000000000000000000000000000000000000000000000000000000000000000000000000000000000000000000000000000000000000000000008302000080887fffffffffffffff808000a00000000000000000000000000000000000000000000000000000000000000000880000000000000000c0c0",
        "blocks" : [
            {
                "rlp" : "0xf9028bf90200a0ec3b0d3938626864e204ebc8e7bbb3cc85dbcaf6071e3ea19479921e244bbb32a01dcc4de8dec75d7aab85b567b6ccd41ad312451b948a7413f0a142fd40d4934794b94f5374fce5edbc8e2a8697c15331677e6ebf0ba01aab147b1bb222caeed811aa8062df5e4bc38a255d487af8e1ef4b9e6c97fff4a06d84bb28258e8da184dd87b5cf574bfc121ba99901642ab4ad9b3dadb8501b87a0d6a7d8140219d6935b00a11954013c38b9a20d4d5f78372b6bec804ea4f2573bb90100000000000000000000000000000000000000000000000000000000000000000000000000000000000000000000000000000000000000000000000000000000000000000000000000000000000000000000000000000000000000000000000000000000000000000000000000000000000000000000000000000000000000000000000000000000000000000000000000000000000000000000000000000000000000000000000000000000000000000000000000000000000000000000000000000000000000000000000000000000000000000000000000000000000000000000000000000000000000000000000000000000000000000000000000000000008302000001887fffffffffffffff860f81000175428203e800a00000000000000000000000000000000000000000000000000000000000000000880000000000000000f885f88380018610000000d7889410000000000000000000000000000000000000000aa0000000000000000000000000bbbf5374fce5edbc8e2a8697c15331677e6ebf0b1ba0b1e452408438c403f550007ae9828cb59352f429a9dad3ef5910c83dd12a46caa0235e1dfc752c5714afa03fe460549b7a1028fca15f7a13cc82bc38c411e3ce8ac0",
                "blockHeader" : {
                    "bloom" : "0x00000000000000000000000000000000000000000000000000000000000000000000000000000000000000000000000000000000000000000000000000000000000000000000000000000000000000000000000000000000000000000000000000000000000000000000000000000000000000000000000000000000000000000000000000000000000000000000000000000000000000000000000000000000000000000000000000000000000000000000000000000000000000000000000000000000000000000000000000000000000000000000000000000000000000000000000000000000000000000000000000000000000000000000000000000000",
                    "coinbase" : "0xb94f5374fce5edbc8e2a8697c15331677e6ebf0b",
                    "difficulty" : "0x20000",
                    "extraData" : "0x00",
                    "gasLimit" : "0x7fffffffffffffff",
                    "gasUsed" : "0xf8100017542",
                    "hash" : "0x61e0cc6e4cf7186279ded2ee4823d45ea98cc23b28b877346dd94faed187edc2",
                    "mixHash" : "0x0000000000000000000000000000000000000000000000000000000000000000",
                    "nonce" : "0x0000000000000000",
                    "number" : "0x1",
                    "parentHash" : "0xec3b0d3938626864e204ebc8e7bbb3cc85dbcaf6071e3ea19479921e244bbb32",
                    "receiptTrie" : "0xd6a7d8140219d6935b00a11954013c38b9a20d4d5f78372b6bec804ea4f2573b",
                    "stateRoot" : "0x1aab147b1bb222caeed811aa8062df5e4bc38a255d487af8e1ef4b9e6c97fff4",
                    "timestamp" : "0x3e8",
                    "transactionsTrie" : "0x6d84bb28258e8da184dd87b5cf574bfc121ba99901642ab4ad9b3dadb8501b87",
                    "uncleHash" : "0x1dcc4de8dec75d7aab85b567b6ccd41ad312451b948a7413f0a142fd40d49347"
                },
                "transactions" : [
                    {
                        "data" : "0x000000000000000000000000bbbf5374fce5edbc8e2a8697c15331677e6ebf0b",
                        "gasLimit" : "0x10000000d788",
                        "gasPrice" : "0x01",
                        "nonce" : "0x00",
                        "to" : "0x1000000000000000000000000000000000000000",
                        "value" : "0x0a",
                        "v" : "0x1b",
                        "r" : "0xb1e452408438c403f550007ae9828cb59352f429a9dad3ef5910c83dd12a46ca",
                        "s" : "0x235e1dfc752c5714afa03fe460549b7a1028fca15f7a13cc82bc38c411e3ce8a"
                    }
                ]
            }
        ]
    },
    "static_Call1024BalanceTooLow2_d1g0v0_Istanbul" : {
        "_info" : {
            "comment" : "",
            "filling-rpc-server" : "Geth-1.9.6-unstable-63b18027-20190920",
            "filling-tool-version" : "retesteth-0.0.1+commit.0ae18aef.Linux.g++",
            "lllcversion" : "Version: 0.5.12-develop.2019.9.13+commit.2d601a4f.Linux.g++",
            "source" : "src/GeneralStateTestsFiller/stStaticCall/static_Call1024BalanceTooLow2Filler.json",
            "sourceHash" : "893f1f25410b797d3f7659757b7326d4f77ca0a4dc60414e200d84197937e101"
        },
        "genesisBlockHeader" : {
            "bloom" : "0x00000000000000000000000000000000000000000000000000000000000000000000000000000000000000000000000000000000000000000000000000000000000000000000000000000000000000000000000000000000000000000000000000000000000000000000000000000000000000000000000000000000000000000000000000000000000000000000000000000000000000000000000000000000000000000000000000000000000000000000000000000000000000000000000000000000000000000000000000000000000000000000000000000000000000000000000000000000000000000000000000000000000000000000000000000000",
            "coinbase" : "0xb94f5374fce5edbc8e2a8697c15331677e6ebf0b",
            "difficulty" : "0x20000",
            "extraData" : "0x00",
            "gasLimit" : "0x7fffffffffffffff",
            "gasUsed" : "0x0",
            "hash" : "0xec3b0d3938626864e204ebc8e7bbb3cc85dbcaf6071e3ea19479921e244bbb32",
            "mixHash" : "0x0000000000000000000000000000000000000000000000000000000000000000",
            "nonce" : "0x0000000000000000",
            "number" : "0x0",
            "parentHash" : "0x0000000000000000000000000000000000000000000000000000000000000000",
            "receiptTrie" : "0x56e81f171bcc55a6ff8345e692c0f86e5b48e01b996cadc001622fb5e363b421",
            "stateRoot" : "0x4388edf249b4c67f2ca50f9e824acad644da6d6c808aab9ac9dba17f0d319ad1",
            "timestamp" : "0x0",
            "transactionsTrie" : "0x56e81f171bcc55a6ff8345e692c0f86e5b48e01b996cadc001622fb5e363b421",
            "uncleHash" : "0x1dcc4de8dec75d7aab85b567b6ccd41ad312451b948a7413f0a142fd40d49347"
        },
        "pre" : {
            "0x1000000000000000000000000000000000000000" : {
                "balance" : "0x00",
                "code" : "0x6000600060006000346000355af16000555a60015500",
                "nonce" : "0x00",
                "storage" : {
                }
            },
            "0xa94f5374fce5edbc8e2a8697c15331677e6ebf0b" : {
                "balance" : "0xffffffffffffffffffffffffffffffff",
                "code" : "0x",
                "nonce" : "0x00",
                "storage" : {
                }
            },
            "0xaaaf5374fce5edbc8e2a8697c15331677e6ebf0b" : {
                "balance" : "0x1b58",
                "code" : "0x",
                "nonce" : "0x00",
                "storage" : {
                }
            },
            "0xbbbf5374fce5edbc8e2a8697c15331677e6ebf0b" : {
                "balance" : "0x0400",
                "code" : "0x60016000540160005560006000600060005473bbbf5374fce5edbc8e2a8697c15331677e6ebf0b650ffffffffffffa60015500",
                "nonce" : "0x00",
                "storage" : {
                }
            },
            "0xcbbf5374fce5edbc8e2a8697c15331677e6ebf0b" : {
                "balance" : "0x0400",
                "code" : "0x60016000510160005260006000600060005173cbbf5374fce5edbc8e2a8697c15331677e6ebf0b650ffffffffffffa60205200",
                "nonce" : "0x00",
                "storage" : {
                }
            }
        },
        "postState" : {
            "0xa94f5374fce5edbc8e2a8697c15331677e6ebf0b" : {
                "code" : "0x",
                "nonce" : "0x01",
                "balance" : "0xfffffffffffffffffffffffffff33737",
                "storage" : {
                }
            },
            "0xbbbf5374fce5edbc8e2a8697c15331677e6ebf0b" : {
                "code" : "0x60016000540160005560006000600060005473bbbf5374fce5edbc8e2a8697c15331677e6ebf0b650ffffffffffffa60015500",
                "nonce" : "0x00",
                "balance" : "0x0400",
                "storage" : {
                }
            },
            "0xcbbf5374fce5edbc8e2a8697c15331677e6ebf0b" : {
                "code" : "0x60016000510160005260006000600060005173cbbf5374fce5edbc8e2a8697c15331677e6ebf0b650ffffffffffffa60205200",
                "nonce" : "0x00",
                "balance" : "0x040a",
                "storage" : {
                }
            },
            "0xaaaf5374fce5edbc8e2a8697c15331677e6ebf0b" : {
                "code" : "0x",
                "nonce" : "0x00",
                "balance" : "0x1b58",
                "storage" : {
                }
            },
            "0xb94f5374fce5edbc8e2a8697c15331677e6ebf0b" : {
                "code" : "0x",
                "nonce" : "0x00",
                "balance" : "0x1bc16d674ed4c8be",
                "storage" : {
                }
            },
            "0x1000000000000000000000000000000000000000" : {
                "code" : "0x6000600060006000346000355af16000555a60015500",
                "nonce" : "0x00",
                "balance" : "0x00",
                "storage" : {
                    "0x00" : "0x01",
                    "0x01" : "0x0ffffff45ced"
                }
            }
        },
        "network" : "Istanbul",
        "sealEngine" : "NoProof",
        "lastblockhash" : "0x8783c29a90e1c585d52a5b10e4fa9c6c22d059a80da04a844d5765c2a0d16e22",
        "genesisRLP" : "0xf901fdf901f8a00000000000000000000000000000000000000000000000000000000000000000a01dcc4de8dec75d7aab85b567b6ccd41ad312451b948a7413f0a142fd40d4934794b94f5374fce5edbc8e2a8697c15331677e6ebf0ba04388edf249b4c67f2ca50f9e824acad644da6d6c808aab9ac9dba17f0d319ad1a056e81f171bcc55a6ff8345e692c0f86e5b48e01b996cadc001622fb5e363b421a056e81f171bcc55a6ff8345e692c0f86e5b48e01b996cadc001622fb5e363b421b90100000000000000000000000000000000000000000000000000000000000000000000000000000000000000000000000000000000000000000000000000000000000000000000000000000000000000000000000000000000000000000000000000000000000000000000000000000000000000000000000000000000000000000000000000000000000000000000000000000000000000000000000000000000000000000000000000000000000000000000000000000000000000000000000000000000000000000000000000000000000000000000000000000000000000000000000000000000000000000000000000000000000000000000000000000000008302000080887fffffffffffffff808000a00000000000000000000000000000000000000000000000000000000000000000880000000000000000c0c0",
        "blocks" : [
            {
                "rlp" : "0xf90288f901fda0ec3b0d3938626864e204ebc8e7bbb3cc85dbcaf6071e3ea19479921e244bbb32a01dcc4de8dec75d7aab85b567b6ccd41ad312451b948a7413f0a142fd40d4934794b94f5374fce5edbc8e2a8697c15331677e6ebf0ba05d64e7ddefdfa2284c45cfb121a77d43780a5204ebd9a59d5151161f0041090ba0731e1c8acd6c79a25ca65509b7004bc2e33e38338d72abfffb6870c64d07f9e7a022e4dbc685623185dd01b9a48953ce276fc54b1e0ba978f4c4ee8ebfed7a8f57b90100000000000000000000000000000000000000000000000000000000000000000000000000000000000000000000000000000000000000000000000000000000000000000000000000000000000000000000000000000000000000000000000000000000000000000000000000000000000000000000000000000000000000000000000000000000000000000000000000000000000000000000000000000000000000000000000000000000000000000000000000000000000000000000000000000000000000000000000000000000000000000000000000000000000000000000000000000000000000000000000000000000000000000000000000000000008302000001887fffffffffffffff830cc8be8203e800a00000000000000000000000000000000000000000000000000000000000000000880000000000000000f885f88380018610000000d7889410000000000000000000000000000000000000000aa0000000000000000000000000cbbf5374fce5edbc8e2a8697c15331677e6ebf0b1ca00c37faece60d62016a1b540885e98d92b065a9dfde9f3b35b9a1b83e013798daa066e1a38f5aa306541a9dec9703e36609ba38bd263a107588d9c6eb346169b8ebc0",
                "blockHeader" : {
                    "bloom" : "0x00000000000000000000000000000000000000000000000000000000000000000000000000000000000000000000000000000000000000000000000000000000000000000000000000000000000000000000000000000000000000000000000000000000000000000000000000000000000000000000000000000000000000000000000000000000000000000000000000000000000000000000000000000000000000000000000000000000000000000000000000000000000000000000000000000000000000000000000000000000000000000000000000000000000000000000000000000000000000000000000000000000000000000000000000000000",
                    "coinbase" : "0xb94f5374fce5edbc8e2a8697c15331677e6ebf0b",
                    "difficulty" : "0x20000",
                    "extraData" : "0x00",
                    "gasLimit" : "0x7fffffffffffffff",
                    "gasUsed" : "0xcc8be",
                    "hash" : "0x8783c29a90e1c585d52a5b10e4fa9c6c22d059a80da04a844d5765c2a0d16e22",
                    "mixHash" : "0x0000000000000000000000000000000000000000000000000000000000000000",
                    "nonce" : "0x0000000000000000",
                    "number" : "0x1",
                    "parentHash" : "0xec3b0d3938626864e204ebc8e7bbb3cc85dbcaf6071e3ea19479921e244bbb32",
                    "receiptTrie" : "0x22e4dbc685623185dd01b9a48953ce276fc54b1e0ba978f4c4ee8ebfed7a8f57",
                    "stateRoot" : "0x5d64e7ddefdfa2284c45cfb121a77d43780a5204ebd9a59d5151161f0041090b",
                    "timestamp" : "0x3e8",
                    "transactionsTrie" : "0x731e1c8acd6c79a25ca65509b7004bc2e33e38338d72abfffb6870c64d07f9e7",
                    "uncleHash" : "0x1dcc4de8dec75d7aab85b567b6ccd41ad312451b948a7413f0a142fd40d49347"
                },
                "transactions" : [
                    {
                        "data" : "0x000000000000000000000000cbbf5374fce5edbc8e2a8697c15331677e6ebf0b",
                        "gasLimit" : "0x10000000d788",
                        "gasPrice" : "0x01",
                        "nonce" : "0x00",
                        "to" : "0x1000000000000000000000000000000000000000",
                        "value" : "0x0a",
                        "v" : "0x1c",
                        "r" : "0x0c37faece60d62016a1b540885e98d92b065a9dfde9f3b35b9a1b83e013798da",
                        "s" : "0x66e1a38f5aa306541a9dec9703e36609ba38bd263a107588d9c6eb346169b8eb"
                    }
                ]
            }
        ]
    }
}