{
    "static_CallRecursiveBomb0_d0g0v0_Istanbul" : {
        "_info" : {
            "comment" : "",
            "filling-rpc-server" : "Geth-1.9.6-unstable-63b18027-20190920",
            "filling-tool-version" : "retesteth-0.0.1+commit.0ae18aef.Linux.g++",
            "lllcversion" : "Version: 0.5.12-develop.2019.9.13+commit.2d601a4f.Linux.g++",
            "source" : "src/GeneralStateTestsFiller/stStaticCall/static_CallRecursiveBomb0Filler.json",
            "sourceHash" : "848c9526d0ddeccdf22cbf76c32b0df944671f73dc7e8638716c748a9837cdb7"
        },
        "genesisBlockHeader" : {
            "bloom" : "0x00000000000000000000000000000000000000000000000000000000000000000000000000000000000000000000000000000000000000000000000000000000000000000000000000000000000000000000000000000000000000000000000000000000000000000000000000000000000000000000000000000000000000000000000000000000000000000000000000000000000000000000000000000000000000000000000000000000000000000000000000000000000000000000000000000000000000000000000000000000000000000000000000000000000000000000000000000000000000000000000000000000000000000000000000000000",
            "coinbase" : "0x2adc25665018aa1fe0e6bc666dac8fc2697ff9ba",
            "difficulty" : "0x20000",
            "extraData" : "0x00",
            "gasLimit" : "0x174876e800",
            "gasUsed" : "0x0",
            "hash" : "0x2ced9d498d8f43927f510162472ccb1eb42f1cfb1ea640aee5a7184f6160b2e5",
            "mixHash" : "0x0000000000000000000000000000000000000000000000000000000000000000",
            "nonce" : "0x0000000000000000",
            "number" : "0x0",
            "parentHash" : "0x0000000000000000000000000000000000000000000000000000000000000000",
            "receiptTrie" : "0x56e81f171bcc55a6ff8345e692c0f86e5b48e01b996cadc001622fb5e363b421",
            "stateRoot" : "0x87e1efe69adce6ef80b9781031dc7a204a22a83afdab1d7b9b83ee9ec9562e23",
            "timestamp" : "0x0",
            "transactionsTrie" : "0x56e81f171bcc55a6ff8345e692c0f86e5b48e01b996cadc001622fb5e363b421",
            "uncleHash" : "0x1dcc4de8dec75d7aab85b567b6ccd41ad312451b948a7413f0a142fd40d49347"
        },
        "pre" : {
            "0x095e7baea6a6c7c4c2dfeb977efac326af552d87" : {
                "balance" : "0x77359400",
                "code" : "0x600060006000600073945304eb96065b2a98b57a48a06ae28d285a71b56305f5e100fa6000555a60015500",
                "nonce" : "0x00",
                "storage" : {
                }
            },
            "0x945304eb96065b2a98b57a48a06ae28d285a71b5" : {
                "balance" : "0x0de0b6b3a7640000",
                "code" : "0x600160005101600052600060006000600030612af85a03fa00",
                "nonce" : "0x00",
                "storage" : {
                }
            },
            "0xa94f5374fce5edbc8e2a8697c15331677e6ebf0b" : {
                "balance" : "0x0de0b6b3a7640000",
                "code" : "0x",
                "nonce" : "0x00",
                "storage" : {
                }
            }
        },
        "postState" : {
            "0xa94f5374fce5edbc8e2a8697c15331677e6ebf0b" : {
                "code" : "0x",
                "nonce" : "0x01",
                "balance" : "0x0de0b6b3a75d3f73",
                "storage" : {
                }
            },
            "0x095e7baea6a6c7c4c2dfeb977efac326af552d87" : {
                "code" : "0x600060006000600073945304eb96065b2a98b57a48a06ae28d285a71b56305f5e100fa6000555a60015500",
                "nonce" : "0x00",
                "balance" : "0x77371aa0",
                "storage" : {
                    "0x00" : "0x01",
                    "0x01" : "0x025406f836"
                }
            },
            "0x2adc25665018aa1fe0e6bc666dac8fc2697ff9ba" : {
                "code" : "0x",
                "nonce" : "0x00",
                "balance" : "0x1bc16d674ecd39ed",
                "storage" : {
                }
            },
            "0x945304eb96065b2a98b57a48a06ae28d285a71b5" : {
                "code" : "0x600160005101600052600060006000600030612af85a03fa00",
                "nonce" : "0x00",
                "balance" : "0x0de0b6b3a7640000",
                "storage" : {
                }
            }
        },
        "network" : "Istanbul",
        "sealEngine" : "NoProof",
        "lastblockhash" : "0xeed04ab8aec94634192c16d00e3ae9fffa7b2c970b6ad626d48b82b24ef17172",
        "genesisRLP" : "0xf901faf901f5a00000000000000000000000000000000000000000000000000000000000000000a01dcc4de8dec75d7aab85b567b6ccd41ad312451b948a7413f0a142fd40d49347942adc25665018aa1fe0e6bc666dac8fc2697ff9baa087e1efe69adce6ef80b9781031dc7a204a22a83afdab1d7b9b83ee9ec9562e23a056e81f171bcc55a6ff8345e692c0f86e5b48e01b996cadc001622fb5e363b421a056e81f171bcc55a6ff8345e692c0f86e5b48e01b996cadc001622fb5e363b421b9010000000000000000000000000000000000000000000000000000000000000000000000000000000000000000000000000000000000000000000000000000000000000000000000000000000000000000000000000000000000000000000000000000000000000000000000000000000000000000000000000000000000000000000000000000000000000000000000000000000000000000000000000000000000000000000000000000000000000000000000000000000000000000000000000000000000000000000000000000000000000000000000000000000000000000000000000000000000000000000000000000000000000000000000000000000000830200008085174876e800808000a00000000000000000000000000000000000000000000000000000000000000000880000000000000000c0c0",
        "blocks" : [
            {
                "rlp" : "0xf90267f901faa02ced9d498d8f43927f510162472ccb1eb42f1cfb1ea640aee5a7184f6160b2e5a01dcc4de8dec75d7aab85b567b6ccd41ad312451b948a7413f0a142fd40d49347942adc25665018aa1fe0e6bc666dac8fc2697ff9baa057339886612f7ad27961ba0da1dddb47d8c69405245e3ccea0f45af087a0bb77a00af7b181de6f4a1f154aa23eb601a797bb2289b039c5756fbe0cbf66a3132e9ba0ab50b1d182cd8da69b149fb12161d9edb759f1b1369cc702c0933fc2391621c5b9010000000000000000000000000000000000000000000000000000000000000000000000000000000000000000000000000000000000000000000000000000000000000000000000000000000000000000000000000000000000000000000000000000000000000000000000000000000000000000000000000000000000000000000000000000000000000000000000000000000000000000000000000000000000000000000000000000000000000000000000000000000000000000000000000000000000000000000000000000000000000000000000000000000000000000000000000000000000000000000000000000000000000000000000000000000000830200000185174e4905b9830539ed8203e800a00000000000000000000000000000000000000000000000000000000000000000880000000000000000f867f86580018502540be40094095e7baea6a6c7c4c2dfeb977efac326af552d87830186a0801ba03874910128913e29e0a4feea2af012d8269da44cc1bfacad5d847a8707399affa069ae4529ef229bdb5d99ec7af5293277639304e6eedd39bddbe0a0199ce2783dc0",
                "blockHeader" : {
                    "bloom" : "0x00000000000000000000000000000000000000000000000000000000000000000000000000000000000000000000000000000000000000000000000000000000000000000000000000000000000000000000000000000000000000000000000000000000000000000000000000000000000000000000000000000000000000000000000000000000000000000000000000000000000000000000000000000000000000000000000000000000000000000000000000000000000000000000000000000000000000000000000000000000000000000000000000000000000000000000000000000000000000000000000000000000000000000000000000000000",
                    "coinbase" : "0x2adc25665018aa1fe0e6bc666dac8fc2697ff9ba",
                    "difficulty" : "0x20000",
                    "extraData" : "0x00",
                    "gasLimit" : "0x174e4905b9",
                    "gasUsed" : "0x539ed",
                    "hash" : "0xeed04ab8aec94634192c16d00e3ae9fffa7b2c970b6ad626d48b82b24ef17172",
                    "mixHash" : "0x0000000000000000000000000000000000000000000000000000000000000000",
                    "nonce" : "0x0000000000000000",
                    "number" : "0x1",
                    "parentHash" : "0x2ced9d498d8f43927f510162472ccb1eb42f1cfb1ea640aee5a7184f6160b2e5",
                    "receiptTrie" : "0xab50b1d182cd8da69b149fb12161d9edb759f1b1369cc702c0933fc2391621c5",
                    "stateRoot" : "0x57339886612f7ad27961ba0da1dddb47d8c69405245e3ccea0f45af087a0bb77",
                    "timestamp" : "0x3e8",
                    "transactionsTrie" : "0x0af7b181de6f4a1f154aa23eb601a797bb2289b039c5756fbe0cbf66a3132e9b",
                    "uncleHash" : "0x1dcc4de8dec75d7aab85b567b6ccd41ad312451b948a7413f0a142fd40d49347"
                },
                "transactions" : [
                    {
                        "data" : "0x",
                        "gasLimit" : "0x02540be400",
                        "gasPrice" : "0x01",
                        "nonce" : "0x00",
                        "to" : "0x095e7baea6a6c7c4c2dfeb977efac326af552d87",
                        "value" : "0x0186a0",
                        "v" : "0x1b",
                        "r" : "0x3874910128913e29e0a4feea2af012d8269da44cc1bfacad5d847a8707399aff",
                        "s" : "0x69ae4529ef229bdb5d99ec7af5293277639304e6eedd39bddbe0a0199ce2783d"
                    }
                ]
            }
        ]
    }
}