{
    "static_Call50000_ecrec_d0g0v0_Istanbul" : {
        "_info" : {
            "comment" : "",
            "filling-rpc-server" : "Geth-1.9.6-unstable-63b18027-20190920",
            "filling-tool-version" : "retesteth-0.0.1+commit.0ae18aef.Linux.g++",
            "lllcversion" : "Version: 0.5.12-develop.2019.9.13+commit.2d601a4f.Linux.g++",
            "source" : "src/GeneralStateTestsFiller/stStaticCall/static_Call50000_ecrecFiller.json",
            "sourceHash" : "9e00d75cdcf2532a34972db42d8f3e9e639785ac58459c729da1c7c4db9fecf1"
        },
        "genesisBlockHeader" : {
            "bloom" : "0x00000000000000000000000000000000000000000000000000000000000000000000000000000000000000000000000000000000000000000000000000000000000000000000000000000000000000000000000000000000000000000000000000000000000000000000000000000000000000000000000000000000000000000000000000000000000000000000000000000000000000000000000000000000000000000000000000000000000000000000000000000000000000000000000000000000000000000000000000000000000000000000000000000000000000000000000000000000000000000000000000000000000000000000000000000000",
            "coinbase" : "0xb94f5374fce5edbc8e2a8697c15331677e6ebf0b",
            "difficulty" : "0x20000",
            "extraData" : "0x00",
            "gasLimit" : "0x5a995c0",
            "gasUsed" : "0x0",
            "hash" : "0xa8f65f006880a39e042b77beb4e089548338203f3071d3879d02356060bdef80",
            "mixHash" : "0x0000000000000000000000000000000000000000000000000000000000000000",
            "nonce" : "0x0000000000000000",
            "number" : "0x0",
            "parentHash" : "0x0000000000000000000000000000000000000000000000000000000000000000",
            "receiptTrie" : "0x56e81f171bcc55a6ff8345e692c0f86e5b48e01b996cadc001622fb5e363b421",
            "stateRoot" : "0xcdb3d516f8e427e0a8bbf27c3df8751a74450f1b206dfe8c11018d0ffa6a4e0c",
            "timestamp" : "0x0",
            "transactionsTrie" : "0x56e81f171bcc55a6ff8345e692c0f86e5b48e01b996cadc001622fb5e363b421",
            "uncleHash" : "0x1dcc4de8dec75d7aab85b567b6ccd41ad312451b948a7413f0a142fd40d49347"
        },
        "pre" : {
            "0x1000000000000000000000000000000000000000" : {
                "balance" : "0x00",
                "code" : "0x6000600060006000346000355af16000555a60015500",
                "nonce" : "0x00",
                "storage" : {
                }
            },
            "0xa94f5374fce5edbc8e2a8697c15331677e6ebf0b" : {
                "balance" : "0xffffffffffffffffffffffffffffffff",
                "code" : "0x",
                "nonce" : "0x00",
                "storage" : {
                }
            },
            "0xbbbf5374fce5edbc8e2a8697c15331677e6ebf0b" : {
                "balance" : "0xffffffffffffffffffffffffffffffff",
                "code" : "0x5b61c3506080511015602a576000600061c350600060016101f4fa6000556001608051016080526000565b60805160015500",
                "nonce" : "0x00",
                "storage" : {
                }
            },
            "0xcccf5374fce5edbc8e2a8697c15331677e6ebf0b" : {
                "balance" : "0xffffffffffffffffffffffffffffffff",
                "code" : "0x5b61c3506080511015602a576000600061c350600060016101f4fa6000526001608051016080526000565b60805160205200",
                "nonce" : "0x00",
                "storage" : {
                }
            }
        },
        "postState" : {
            "0xa94f5374fce5edbc8e2a8697c15331677e6ebf0b" : {
                "code" : "0x",
                "nonce" : "0x01",
                "balance" : "0xfffffffffffffffffffffffffa743ff9",
                "storage" : {
                }
            },
            "0xbbbf5374fce5edbc8e2a8697c15331677e6ebf0b" : {
                "code" : "0x5b61c3506080511015602a576000600061c350600060016101f4fa6000556001608051016080526000565b60805160015500",
                "nonce" : "0x00",
                "balance" : "0xffffffffffffffffffffffffffffffff",
                "storage" : {
                }
            },
            "0xcccf5374fce5edbc8e2a8697c15331677e6ebf0b" : {
                "code" : "0x5b61c3506080511015602a576000600061c350600060016101f4fa6000526001608051016080526000565b60805160205200",
                "nonce" : "0x00",
                "balance" : "0xffffffffffffffffffffffffffffffff",
                "storage" : {
                }
            },
            "0xb94f5374fce5edbc8e2a8697c15331677e6ebf0b" : {
                "code" : "0x",
                "nonce" : "0x00",
                "balance" : "0x1bc16d675453bffc",
                "storage" : {
                }
            },
            "0x1000000000000000000000000000000000000000" : {
                "code" : "0x6000600060006000346000355af16000555a60015500",
                "nonce" : "0x00",
                "balance" : "0x0a",
                "storage" : {
                    "0x01" : "0x1682c7"
                }
            }
        },
        "network" : "Istanbul",
        "sealEngine" : "NoProof",
        "lastblockhash" : "0xe791d39b79d2fc4cda196ded222184103abc555fcca7a8d3f3dbc679ce4eb499",
        "genesisRLP" : "0xf901f9f901f4a00000000000000000000000000000000000000000000000000000000000000000a01dcc4de8dec75d7aab85b567b6ccd41ad312451b948a7413f0a142fd40d4934794b94f5374fce5edbc8e2a8697c15331677e6ebf0ba0cdb3d516f8e427e0a8bbf27c3df8751a74450f1b206dfe8c11018d0ffa6a4e0ca056e81f171bcc55a6ff8345e692c0f86e5b48e01b996cadc001622fb5e363b421a056e81f171bcc55a6ff8345e692c0f86e5b48e01b996cadc001622fb5e363b421b901000000000000000000000000000000000000000000000000000000000000000000000000000000000000000000000000000000000000000000000000000000000000000000000000000000000000000000000000000000000000000000000000000000000000000000000000000000000000000000000000000000000000000000000000000000000000000000000000000000000000000000000000000000000000000000000000000000000000000000000000000000000000000000000000000000000000000000000000000000000000000000000000000000000000000000000000000000000000000000000000000000000000000000000000000000000083020000808405a995c0808000a00000000000000000000000000000000000000000000000000000000000000000880000000000000000c0c0",
        "blocks" : [
            {
                "rlp" : "0xf90283f901faa0a8f65f006880a39e042b77beb4e089548338203f3071d3879d02356060bdef80a01dcc4de8dec75d7aab85b567b6ccd41ad312451b948a7413f0a142fd40d4934794b94f5374fce5edbc8e2a8697c15331677e6ebf0ba0998b05014997bddb8306d8de3dc29c04a6009a750da2453a9b9c8acde35d0b86a03ec0c77b5bdbbea5f1de4ba40917e759ad628175e1c1f909b3c6358ff2131334a00fbab9ff3c06a6689d58c04d0820bc53d23a0bb0def4f47814a21fb5a26a637ab901000000000000000000000000000000000000000000000000000000000000000000000000000000000000000000000000000000000000000000000000000000000000000000000000000000000000000000000000000000000000000000000000000000000000000000000000000000000000000000000000000000000000000000000000000000000000000000000000000000000000000000000000000000000000000000000000000000000000000000000000000000000000000000000000000000000000000000000000000000000000000000000000000000000000000000000000000000000000000000000000000000000000000000000000000000000083020000018405ab002484058bbffc8203e800a00000000000000000000000000000000000000000000000000000000000000000880000000000000000f883f88180018405a1f4a09410000000000000000000000000000000000000000aa0000000000000000000000000bbbf5374fce5edbc8e2a8697c15331677e6ebf0b1ca0f72027180656f54abc6a3fe12974b7924ba100ad82de6f9a183f8ff161ad7259a00b4017e867158b6ae266d01d06f823150d667675e5fdc729fe116070a922a97fc0",
                "blockHeader" : {
                    "bloom" : "0x00000000000000000000000000000000000000000000000000000000000000000000000000000000000000000000000000000000000000000000000000000000000000000000000000000000000000000000000000000000000000000000000000000000000000000000000000000000000000000000000000000000000000000000000000000000000000000000000000000000000000000000000000000000000000000000000000000000000000000000000000000000000000000000000000000000000000000000000000000000000000000000000000000000000000000000000000000000000000000000000000000000000000000000000000000000",
                    "coinbase" : "0xb94f5374fce5edbc8e2a8697c15331677e6ebf0b",
                    "difficulty" : "0x20000",
                    "extraData" : "0x00",
                    "gasLimit" : "0x5ab0024",
                    "gasUsed" : "0x58bbffc",
                    "hash" : "0xe791d39b79d2fc4cda196ded222184103abc555fcca7a8d3f3dbc679ce4eb499",
                    "mixHash" : "0x0000000000000000000000000000000000000000000000000000000000000000",
                    "nonce" : "0x0000000000000000",
                    "number" : "0x1",
                    "parentHash" : "0xa8f65f006880a39e042b77beb4e089548338203f3071d3879d02356060bdef80",
                    "receiptTrie" : "0x0fbab9ff3c06a6689d58c04d0820bc53d23a0bb0def4f47814a21fb5a26a637a",
                    "stateRoot" : "0x998b05014997bddb8306d8de3dc29c04a6009a750da2453a9b9c8acde35d0b86",
                    "timestamp" : "0x3e8",
                    "transactionsTrie" : "0x3ec0c77b5bdbbea5f1de4ba40917e759ad628175e1c1f909b3c6358ff2131334",
                    "uncleHash" : "0x1dcc4de8dec75d7aab85b567b6ccd41ad312451b948a7413f0a142fd40d49347"
                },
                "transactions" : [
                    {
                        "data" : "0x000000000000000000000000bbbf5374fce5edbc8e2a8697c15331677e6ebf0b",
                        "gasLimit" : "0x05a1f4a0",
                        "gasPrice" : "0x01",
                        "nonce" : "0x00",
                        "to" : "0x1000000000000000000000000000000000000000",
                        "value" : "0x0a",
                        "v" : "0x1c",
                        "r" : "0xf72027180656f54abc6a3fe12974b7924ba100ad82de6f9a183f8ff161ad7259",
                        "s" : "0x0b4017e867158b6ae266d01d06f823150d667675e5fdc729fe116070a922a97f"
                    }
                ]
            }
        ]
    },
    "static_Call50000_ecrec_d1g0v0_Istanbul" : {
        "_info" : {
            "comment" : "",
            "filling-rpc-server" : "Geth-1.9.6-unstable-63b18027-20190920",
            "filling-tool-version" : "retesteth-0.0.1+commit.0ae18aef.Linux.g++",
            "lllcversion" : "Version: 0.5.12-develop.2019.9.13+commit.2d601a4f.Linux.g++",
            "source" : "src/GeneralStateTestsFiller/stStaticCall/static_Call50000_ecrecFiller.json",
            "sourceHash" : "9e00d75cdcf2532a34972db42d8f3e9e639785ac58459c729da1c7c4db9fecf1"
        },
        "genesisBlockHeader" : {
            "bloom" : "0x00000000000000000000000000000000000000000000000000000000000000000000000000000000000000000000000000000000000000000000000000000000000000000000000000000000000000000000000000000000000000000000000000000000000000000000000000000000000000000000000000000000000000000000000000000000000000000000000000000000000000000000000000000000000000000000000000000000000000000000000000000000000000000000000000000000000000000000000000000000000000000000000000000000000000000000000000000000000000000000000000000000000000000000000000000000",
            "coinbase" : "0xb94f5374fce5edbc8e2a8697c15331677e6ebf0b",
            "difficulty" : "0x20000",
            "extraData" : "0x00",
            "gasLimit" : "0x5a995c0",
            "gasUsed" : "0x0",
            "hash" : "0xa8f65f006880a39e042b77beb4e089548338203f3071d3879d02356060bdef80",
            "mixHash" : "0x0000000000000000000000000000000000000000000000000000000000000000",
            "nonce" : "0x0000000000000000",
            "number" : "0x0",
            "parentHash" : "0x0000000000000000000000000000000000000000000000000000000000000000",
            "receiptTrie" : "0x56e81f171bcc55a6ff8345e692c0f86e5b48e01b996cadc001622fb5e363b421",
            "stateRoot" : "0xcdb3d516f8e427e0a8bbf27c3df8751a74450f1b206dfe8c11018d0ffa6a4e0c",
            "timestamp" : "0x0",
            "transactionsTrie" : "0x56e81f171bcc55a6ff8345e692c0f86e5b48e01b996cadc001622fb5e363b421",
            "uncleHash" : "0x1dcc4de8dec75d7aab85b567b6ccd41ad312451b948a7413f0a142fd40d49347"
        },
        "pre" : {
            "0x1000000000000000000000000000000000000000" : {
                "balance" : "0x00",
                "code" : "0x6000600060006000346000355af16000555a60015500",
                "nonce" : "0x00",
                "storage" : {
                }
            },
            "0xa94f5374fce5edbc8e2a8697c15331677e6ebf0b" : {
                "balance" : "0xffffffffffffffffffffffffffffffff",
                "code" : "0x",
                "nonce" : "0x00",
                "storage" : {
                }
            },
            "0xbbbf5374fce5edbc8e2a8697c15331677e6ebf0b" : {
                "balance" : "0xffffffffffffffffffffffffffffffff",
                "code" : "0x5b61c3506080511015602a576000600061c350600060016101f4fa6000556001608051016080526000565b60805160015500",
                "nonce" : "0x00",
                "storage" : {
                }
            },
            "0xcccf5374fce5edbc8e2a8697c15331677e6ebf0b" : {
                "balance" : "0xffffffffffffffffffffffffffffffff",
                "code" : "0x5b61c3506080511015602a576000600061c350600060016101f4fa6000526001608051016080526000565b60805160205200",
                "nonce" : "0x00",
                "storage" : {
                }
            }
        },
        "postState" : {
            "0xa94f5374fce5edbc8e2a8697c15331677e6ebf0b" : {
                "code" : "0x",
                "nonce" : "0x01",
                "balance" : "0xfffffffffffffffffffffffffc2cb779",
                "storage" : {
                }
            },
            "0xbbbf5374fce5edbc8e2a8697c15331677e6ebf0b" : {
                "code" : "0x5b61c3506080511015602a576000600061c350600060016101f4fa6000556001608051016080526000565b60805160015500",
                "nonce" : "0x00",
                "balance" : "0xffffffffffffffffffffffffffffffff",
                "storage" : {
                }
            },
            "0xcccf5374fce5edbc8e2a8697c15331677e6ebf0b" : {
                "code" : "0x5b61c3506080511015602a576000600061c350600060016101f4fa6000526001608051016080526000565b60805160205200",
                "nonce" : "0x00",
                "balance" : "0x0100000000000000000000000000000009",
                "storage" : {
                }
            },
            "0xb94f5374fce5edbc8e2a8697c15331677e6ebf0b" : {
                "code" : "0x",
                "nonce" : "0x00",
                "balance" : "0x1bc16d67529b487c",
                "storage" : {
                }
            },
            "0x1000000000000000000000000000000000000000" : {
                "code" : "0x6000600060006000346000355af16000555a60015500",
                "nonce" : "0x00",
                "balance" : "0x00",
                "storage" : {
                    "0x00" : "0x01",
                    "0x01" : "0x01cefa47"
                }
            }
        },
        "network" : "Istanbul",
        "sealEngine" : "NoProof",
        "lastblockhash" : "0xab0a1e3020dede9f07595b0c8555f39a6bb210cef02555bbc289a8fe2de5c2ec",
        "genesisRLP" : "0xf901f9f901f4a00000000000000000000000000000000000000000000000000000000000000000a01dcc4de8dec75d7aab85b567b6ccd41ad312451b948a7413f0a142fd40d4934794b94f5374fce5edbc8e2a8697c15331677e6ebf0ba0cdb3d516f8e427e0a8bbf27c3df8751a74450f1b206dfe8c11018d0ffa6a4e0ca056e81f171bcc55a6ff8345e692c0f86e5b48e01b996cadc001622fb5e363b421a056e81f171bcc55a6ff8345e692c0f86e5b48e01b996cadc001622fb5e363b421b901000000000000000000000000000000000000000000000000000000000000000000000000000000000000000000000000000000000000000000000000000000000000000000000000000000000000000000000000000000000000000000000000000000000000000000000000000000000000000000000000000000000000000000000000000000000000000000000000000000000000000000000000000000000000000000000000000000000000000000000000000000000000000000000000000000000000000000000000000000000000000000000000000000000000000000000000000000000000000000000000000000000000000000000000000000000083020000808405a995c0808000a00000000000000000000000000000000000000000000000000000000000000000880000000000000000c0c0",
        "blocks" : [
            {
                "rlp" : "0xf90283f901faa0a8f65f006880a39e042b77beb4e089548338203f3071d3879d02356060bdef80a01dcc4de8dec75d7aab85b567b6ccd41ad312451b948a7413f0a142fd40d4934794b94f5374fce5edbc8e2a8697c15331677e6ebf0ba0d5c282510461d80236d63ca03d9b2ba95daec9f1f95548d8e58d4f91747454f5a0e89a685efc845f5b4f0cde26ecdcf64efb883e0536f562e2d6f2eae8e2720960a0f85e6a79b07893a8d4a2360bd6fa633f161434dccb72cd72169c349401858872b901000000000000000000000000000000000000000000000000000000000000000000000000000000000000000000000000000000000000000000000000000000000000000000000000000000000000000000000000000000000000000000000000000000000000000000000000000000000000000000000000000000000000000000000000000000000000000000000000000000000000000000000000000000000000000000000000000000000000000000000000000000000000000000000000000000000000000000000000000000000000000000000000000000000000000000000000000000000000000000000000000000000000000000000000000000000083020000018405ab00248403d3487c8203e800a00000000000000000000000000000000000000000000000000000000000000000880000000000000000f883f88180018405a1f4a09410000000000000000000000000000000000000000aa0000000000000000000000000cccf5374fce5edbc8e2a8697c15331677e6ebf0b1ca0bd0b091091065c41dc1ecca59ac63d5d86c30c8e3939971541b2319c4b29fce9a061d3478f16c32cfbd917641ff8794abe69b1b37089ddb12441809a27d55725bdc0",
                "blockHeader" : {
                    "bloom" : "0x00000000000000000000000000000000000000000000000000000000000000000000000000000000000000000000000000000000000000000000000000000000000000000000000000000000000000000000000000000000000000000000000000000000000000000000000000000000000000000000000000000000000000000000000000000000000000000000000000000000000000000000000000000000000000000000000000000000000000000000000000000000000000000000000000000000000000000000000000000000000000000000000000000000000000000000000000000000000000000000000000000000000000000000000000000000",
                    "coinbase" : "0xb94f5374fce5edbc8e2a8697c15331677e6ebf0b",
                    "difficulty" : "0x20000",
                    "extraData" : "0x00",
                    "gasLimit" : "0x5ab0024",
                    "gasUsed" : "0x3d3487c",
                    "hash" : "0xab0a1e3020dede9f07595b0c8555f39a6bb210cef02555bbc289a8fe2de5c2ec",
                    "mixHash" : "0x0000000000000000000000000000000000000000000000000000000000000000",
                    "nonce" : "0x0000000000000000",
                    "number" : "0x1",
                    "parentHash" : "0xa8f65f006880a39e042b77beb4e089548338203f3071d3879d02356060bdef80",
                    "receiptTrie" : "0xf85e6a79b07893a8d4a2360bd6fa633f161434dccb72cd72169c349401858872",
                    "stateRoot" : "0xd5c282510461d80236d63ca03d9b2ba95daec9f1f95548d8e58d4f91747454f5",
                    "timestamp" : "0x3e8",
                    "transactionsTrie" : "0xe89a685efc845f5b4f0cde26ecdcf64efb883e0536f562e2d6f2eae8e2720960",
                    "uncleHash" : "0x1dcc4de8dec75d7aab85b567b6ccd41ad312451b948a7413f0a142fd40d49347"
                },
                "transactions" : [
                    {
                        "data" : "0x000000000000000000000000cccf5374fce5edbc8e2a8697c15331677e6ebf0b",
                        "gasLimit" : "0x05a1f4a0",
                        "gasPrice" : "0x01",
                        "nonce" : "0x00",
                        "to" : "0x1000000000000000000000000000000000000000",
                        "value" : "0x0a",
                        "v" : "0x1c",
                        "r" : "0xbd0b091091065c41dc1ecca59ac63d5d86c30c8e3939971541b2319c4b29fce9",
                        "s" : "0x61d3478f16c32cfbd917641ff8794abe69b1b37089ddb12441809a27d55725bd"
                    }
                ]
            }
        ]
    }
}