{
    "static_RawCallGasAsk_d0g0v0_Istanbul" : {
        "_info" : {
            "comment" : "",
            "filling-rpc-server" : "Geth-1.9.6-unstable-63b18027-20190920",
            "filling-tool-version" : "retesteth-0.0.1+commit.0ae18aef.Linux.g++",
            "lllcversion" : "Version: 0.5.12-develop.2019.9.13+commit.2d601a4f.Linux.g++",
            "source" : "src/GeneralStateTestsFiller/stStaticCall/static_RawCallGasAskFiller.json",
            "sourceHash" : "1550385c5a2bae55e42309b92adc3baf29f2a54f9aaa1ebc3ac423223ac40896"
        },
        "genesisBlockHeader" : {
            "bloom" : "0x00000000000000000000000000000000000000000000000000000000000000000000000000000000000000000000000000000000000000000000000000000000000000000000000000000000000000000000000000000000000000000000000000000000000000000000000000000000000000000000000000000000000000000000000000000000000000000000000000000000000000000000000000000000000000000000000000000000000000000000000000000000000000000000000000000000000000000000000000000000000000000000000000000000000000000000000000000000000000000000000000000000000000000000000000000000",
            "coinbase" : "0x2adc25665018aa1fe0e6bc666dac8fc2697ff9ba",
            "difficulty" : "0x20000",
            "extraData" : "0x00",
            "gasLimit" : "0x989680",
            "gasUsed" : "0x0",
            "hash" : "0xd4b3ebe9346fb5f3454fa0015c45395f484f54dbbb899a9b1d33afec3a300377",
            "mixHash" : "0x0000000000000000000000000000000000000000000000000000000000000000",
            "nonce" : "0x0000000000000000",
            "number" : "0x0",
            "parentHash" : "0x0000000000000000000000000000000000000000000000000000000000000000",
            "receiptTrie" : "0x56e81f171bcc55a6ff8345e692c0f86e5b48e01b996cadc001622fb5e363b421",
            "stateRoot" : "0xaf23441dc3b37f4988b603a2cd7e5ac4e187cbf8ec2de1a583eec9320c14ab94",
            "timestamp" : "0x0",
            "transactionsTrie" : "0x56e81f171bcc55a6ff8345e692c0f86e5b48e01b996cadc001622fb5e363b421",
            "uncleHash" : "0x1dcc4de8dec75d7aab85b567b6ccd41ad312451b948a7413f0a142fd40d49347"
        },
        "pre" : {
            "0x094f5374fce5edbc8e2a8697c15331677e6ebf0b" : {
                "balance" : "0x00",
                "code" : "0x5a60005200",
                "nonce" : "0x00",
                "storage" : {
                }
            },
            "0x1000000000000000000000000000000000000000" : {
                "balance" : "0xe8d4a51000",
                "code" : "0x600060006000600060006000355af100",
                "nonce" : "0x00",
                "storage" : {
                }
            },
            "0x1000000000000000000000000000000000000001" : {
                "balance" : "0x00",
                "code" : "0x600060006000600073094f5374fce5edbc8e2a8697c15331677e6ebf0b622dc6c0fa505a60015500",
                "nonce" : "0x00",
                "storage" : {
                }
            },
            "0x2000000000000000000000000000000000000001" : {
                "balance" : "0x00",
                "code" : "0x600060006000600073094f5374fce5edbc8e2a8697c15331677e6ebf0b617530fa505a60015500",
                "nonce" : "0x00",
                "storage" : {
                }
            },
            "0x3000000000000000000000000000000000000001" : {
                "balance" : "0x00",
                "code" : "0x611f406000611f40600073094f5374fce5edbc8e2a8697c15331677e6ebf0b622dc6c0fa505a60015500",
                "nonce" : "0x00",
                "storage" : {
                }
            },
            "0x4000000000000000000000000000000000000001" : {
                "balance" : "0x00",
                "code" : "0x611f406000611f40600073094f5374fce5edbc8e2a8697c15331677e6ebf0b617530fa505a60015500",
                "nonce" : "0x00",
                "storage" : {
                }
            },
            "0xa94f5374fce5edbc8e2a8697c15331677e6ebf0b" : {
                "balance" : "0xe8d4a51000",
                "code" : "0x",
                "nonce" : "0x00",
                "storage" : {
                }
            }
        },
        "postState" : {
            "0xa94f5374fce5edbc8e2a8697c15331677e6ebf0b" : {
                "code" : "0x",
                "nonce" : "0x01",
                "balance" : "0xe8d4a4698d",
                "storage" : {
                }
            },
            "0x4000000000000000000000000000000000000001" : {
                "code" : "0x611f406000611f40600073094f5374fce5edbc8e2a8697c15331677e6ebf0b617530fa505a60015500",
                "nonce" : "0x00",
                "balance" : "0x00",
                "storage" : {
                }
            },
            "0x1000000000000000000000000000000000000001" : {
                "code" : "0x600060006000600073094f5374fce5edbc8e2a8697c15331677e6ebf0b622dc6c0fa505a60015500",
                "nonce" : "0x00",
                "balance" : "0x00",
                "storage" : {
                    "0x01" : "0x072ba2"
                }
            },
            "0x3000000000000000000000000000000000000001" : {
                "code" : "0x611f406000611f40600073094f5374fce5edbc8e2a8697c15331677e6ebf0b622dc6c0fa505a60015500",
                "nonce" : "0x00",
                "balance" : "0x00",
                "storage" : {
                }
            },
            "0x2000000000000000000000000000000000000001" : {
                "code" : "0x600060006000600073094f5374fce5edbc8e2a8697c15331677e6ebf0b617530fa505a60015500",
                "nonce" : "0x00",
                "balance" : "0x00",
                "storage" : {
                }
            },
            "0x2adc25665018aa1fe0e6bc666dac8fc2697ff9ba" : {
                "code" : "0x",
                "nonce" : "0x00",
                "balance" : "0x1bc16d674ec8a673",
                "storage" : {
                }
            },
            "0x094f5374fce5edbc8e2a8697c15331677e6ebf0b" : {
                "code" : "0x5a60005200",
                "nonce" : "0x00",
                "balance" : "0x00",
                "storage" : {
                }
            },
            "0x1000000000000000000000000000000000000000" : {
                "code" : "0x600060006000600060006000355af100",
                "nonce" : "0x00",
                "balance" : "0xe8d4a51000",
                "storage" : {
                }
            }
        },
        "network" : "Istanbul",
        "sealEngine" : "NoProof",
        "lastblockhash" : "0x5efb6f2f38288b134e1bd4a2c4b7eb83318f4a9f74e6d5fa887e4b96204716ce",
        "genesisRLP" : "0xf901f8f901f3a00000000000000000000000000000000000000000000000000000000000000000a01dcc4de8dec75d7aab85b567b6ccd41ad312451b948a7413f0a142fd40d49347942adc25665018aa1fe0e6bc666dac8fc2697ff9baa0af23441dc3b37f4988b603a2cd7e5ac4e187cbf8ec2de1a583eec9320c14ab94a056e81f171bcc55a6ff8345e692c0f86e5b48e01b996cadc001622fb5e363b421a056e81f171bcc55a6ff8345e692c0f86e5b48e01b996cadc001622fb5e363b421b9010000000000000000000000000000000000000000000000000000000000000000000000000000000000000000000000000000000000000000000000000000000000000000000000000000000000000000000000000000000000000000000000000000000000000000000000000000000000000000000000000000000000000000000000000000000000000000000000000000000000000000000000000000000000000000000000000000000000000000000000000000000000000000000000000000000000000000000000000000000000000000000000000000000000000000000000000000000000000000000000000000000000000000000000000000000000830200008083989680808000a00000000000000000000000000000000000000000000000000000000000000000880000000000000000c0c0",
        "blocks" : [
            {
                "rlp" : "0xf9027ff901f7a0d4b3ebe9346fb5f3454fa0015c45395f484f54dbbb899a9b1d33afec3a300377a01dcc4de8dec75d7aab85b567b6ccd41ad312451b948a7413f0a142fd40d49347942adc25665018aa1fe0e6bc666dac8fc2697ff9baa00d4750f84719c3179f700fdd3fc1a77b340958371eb9e33bde9f63b1e94665a2a0d905575e7b70e2beb9bb55f8047e4d5b68f078885d1074ac828a7f27d27c3c4ea0bbc5a94eaf4820e4fcfb36f1a9be0eed03018b28977308cbd185d88f9d04f61cb901000000000000000000000000000000000000000000000000000000000000000000000000000000000000000000000000000000000000000000000000000000000000000000000000000000000000000000000000000000000000000000000000000000000000000000000000000000000000000000000000000000000000000000000000000000000000000000000000000000000000000000000000000000000000000000000000000000000000000000000000000000000000000000000000000000000000000000000000000000000000000000000000000000000000000000000000000000000000000000000000000000000000000000000000000000000083020000018398bca482a6738203e800a00000000000000000000000000000000000000000000000000000000000000000880000000000000000f882f88080018307a12094100000000000000000000000000000000000000080a000000000000000000000000010000000000000000000000000000000000000011ba0c98a7af7d884c4301ead9c40eeddf7af4bc3976f5f44146c7d8d8a827715e467a03994c21902d713b6996a84059ff4e84778341d2a83929c281182411087c2b3eec0",
                "blockHeader" : {
                    "bloom" : "0x00000000000000000000000000000000000000000000000000000000000000000000000000000000000000000000000000000000000000000000000000000000000000000000000000000000000000000000000000000000000000000000000000000000000000000000000000000000000000000000000000000000000000000000000000000000000000000000000000000000000000000000000000000000000000000000000000000000000000000000000000000000000000000000000000000000000000000000000000000000000000000000000000000000000000000000000000000000000000000000000000000000000000000000000000000000",
                    "coinbase" : "0x2adc25665018aa1fe0e6bc666dac8fc2697ff9ba",
                    "difficulty" : "0x20000",
                    "extraData" : "0x00",
                    "gasLimit" : "0x98bca4",
                    "gasUsed" : "0xa673",
                    "hash" : "0x5efb6f2f38288b134e1bd4a2c4b7eb83318f4a9f74e6d5fa887e4b96204716ce",
                    "mixHash" : "0x0000000000000000000000000000000000000000000000000000000000000000",
                    "nonce" : "0x0000000000000000",
                    "number" : "0x1",
                    "parentHash" : "0xd4b3ebe9346fb5f3454fa0015c45395f484f54dbbb899a9b1d33afec3a300377",
                    "receiptTrie" : "0xbbc5a94eaf4820e4fcfb36f1a9be0eed03018b28977308cbd185d88f9d04f61c",
                    "stateRoot" : "0x0d4750f84719c3179f700fdd3fc1a77b340958371eb9e33bde9f63b1e94665a2",
                    "timestamp" : "0x3e8",
                    "transactionsTrie" : "0xd905575e7b70e2beb9bb55f8047e4d5b68f078885d1074ac828a7f27d27c3c4e",
                    "uncleHash" : "0x1dcc4de8dec75d7aab85b567b6ccd41ad312451b948a7413f0a142fd40d49347"
                },
                "transactions" : [
                    {
                        "data" : "0x0000000000000000000000001000000000000000000000000000000000000001",
                        "gasLimit" : "0x07a120",
                        "gasPrice" : "0x01",
                        "nonce" : "0x00",
                        "to" : "0x1000000000000000000000000000000000000000",
                        "value" : "0x00",
                        "v" : "0x1b",
                        "r" : "0xc98a7af7d884c4301ead9c40eeddf7af4bc3976f5f44146c7d8d8a827715e467",
                        "s" : "0x3994c21902d713b6996a84059ff4e84778341d2a83929c281182411087c2b3ee"
                    }
                ]
            }
        ]
    },
    "static_RawCallGasAsk_d1g0v0_Istanbul" : {
        "_info" : {
            "comment" : "",
            "filling-rpc-server" : "Geth-1.9.6-unstable-63b18027-20190920",
            "filling-tool-version" : "retesteth-0.0.1+commit.0ae18aef.Linux.g++",
            "lllcversion" : "Version: 0.5.12-develop.2019.9.13+commit.2d601a4f.Linux.g++",
            "source" : "src/GeneralStateTestsFiller/stStaticCall/static_RawCallGasAskFiller.json",
            "sourceHash" : "1550385c5a2bae55e42309b92adc3baf29f2a54f9aaa1ebc3ac423223ac40896"
        },
        "genesisBlockHeader" : {
            "bloom" : "0x00000000000000000000000000000000000000000000000000000000000000000000000000000000000000000000000000000000000000000000000000000000000000000000000000000000000000000000000000000000000000000000000000000000000000000000000000000000000000000000000000000000000000000000000000000000000000000000000000000000000000000000000000000000000000000000000000000000000000000000000000000000000000000000000000000000000000000000000000000000000000000000000000000000000000000000000000000000000000000000000000000000000000000000000000000000",
            "coinbase" : "0x2adc25665018aa1fe0e6bc666dac8fc2697ff9ba",
            "difficulty" : "0x20000",
            "extraData" : "0x00",
            "gasLimit" : "0x989680",
            "gasUsed" : "0x0",
            "hash" : "0xd4b3ebe9346fb5f3454fa0015c45395f484f54dbbb899a9b1d33afec3a300377",
            "mixHash" : "0x0000000000000000000000000000000000000000000000000000000000000000",
            "nonce" : "0x0000000000000000",
            "number" : "0x0",
            "parentHash" : "0x0000000000000000000000000000000000000000000000000000000000000000",
            "receiptTrie" : "0x56e81f171bcc55a6ff8345e692c0f86e5b48e01b996cadc001622fb5e363b421",
            "stateRoot" : "0xaf23441dc3b37f4988b603a2cd7e5ac4e187cbf8ec2de1a583eec9320c14ab94",
            "timestamp" : "0x0",
            "transactionsTrie" : "0x56e81f171bcc55a6ff8345e692c0f86e5b48e01b996cadc001622fb5e363b421",
            "uncleHash" : "0x1dcc4de8dec75d7aab85b567b6ccd41ad312451b948a7413f0a142fd40d49347"
        },
        "pre" : {
            "0x094f5374fce5edbc8e2a8697c15331677e6ebf0b" : {
                "balance" : "0x00",
                "code" : "0x5a60005200",
                "nonce" : "0x00",
                "storage" : {
                }
            },
            "0x1000000000000000000000000000000000000000" : {
                "balance" : "0xe8d4a51000",
                "code" : "0x600060006000600060006000355af100",
                "nonce" : "0x00",
                "storage" : {
                }
            },
            "0x1000000000000000000000000000000000000001" : {
                "balance" : "0x00",
                "code" : "0x600060006000600073094f5374fce5edbc8e2a8697c15331677e6ebf0b622dc6c0fa505a60015500",
                "nonce" : "0x00",
                "storage" : {
                }
            },
            "0x2000000000000000000000000000000000000001" : {
                "balance" : "0x00",
                "code" : "0x600060006000600073094f5374fce5edbc8e2a8697c15331677e6ebf0b617530fa505a60015500",
                "nonce" : "0x00",
                "storage" : {
                }
            },
            "0x3000000000000000000000000000000000000001" : {
                "balance" : "0x00",
                "code" : "0x611f406000611f40600073094f5374fce5edbc8e2a8697c15331677e6ebf0b622dc6c0fa505a60015500",
                "nonce" : "0x00",
                "storage" : {
                }
            },
            "0x4000000000000000000000000000000000000001" : {
                "balance" : "0x00",
                "code" : "0x611f406000611f40600073094f5374fce5edbc8e2a8697c15331677e6ebf0b617530fa505a60015500",
                "nonce" : "0x00",
                "storage" : {
                }
            },
            "0xa94f5374fce5edbc8e2a8697c15331677e6ebf0b" : {
                "balance" : "0xe8d4a51000",
                "code" : "0x",
                "nonce" : "0x00",
                "storage" : {
                }
            }
        },
        "postState" : {
            "0xa94f5374fce5edbc8e2a8697c15331677e6ebf0b" : {
                "code" : "0x",
                "nonce" : "0x01",
                "balance" : "0xe8d4a4698d",
                "storage" : {
                }
            },
            "0x4000000000000000000000000000000000000001" : {
                "code" : "0x611f406000611f40600073094f5374fce5edbc8e2a8697c15331677e6ebf0b617530fa505a60015500",
                "nonce" : "0x00",
                "balance" : "0x00",
                "storage" : {
                }
            },
            "0x1000000000000000000000000000000000000001" : {
                "code" : "0x600060006000600073094f5374fce5edbc8e2a8697c15331677e6ebf0b622dc6c0fa505a60015500",
                "nonce" : "0x00",
                "balance" : "0x00",
                "storage" : {
                }
            },
            "0x3000000000000000000000000000000000000001" : {
                "code" : "0x611f406000611f40600073094f5374fce5edbc8e2a8697c15331677e6ebf0b622dc6c0fa505a60015500",
                "nonce" : "0x00",
                "balance" : "0x00",
                "storage" : {
                }
            },
            "0x2000000000000000000000000000000000000001" : {
                "code" : "0x600060006000600073094f5374fce5edbc8e2a8697c15331677e6ebf0b617530fa505a60015500",
                "nonce" : "0x00",
                "balance" : "0x00",
                "storage" : {
                    "0x01" : "0x072ba2"
                }
            },
            "0x2adc25665018aa1fe0e6bc666dac8fc2697ff9ba" : {
                "code" : "0x",
                "nonce" : "0x00",
                "balance" : "0x1bc16d674ec8a673",
                "storage" : {
                }
            },
            "0x094f5374fce5edbc8e2a8697c15331677e6ebf0b" : {
                "code" : "0x5a60005200",
                "nonce" : "0x00",
                "balance" : "0x00",
                "storage" : {
                }
            },
            "0x1000000000000000000000000000000000000000" : {
                "code" : "0x600060006000600060006000355af100",
                "nonce" : "0x00",
                "balance" : "0xe8d4a51000",
                "storage" : {
                }
            }
        },
        "network" : "Istanbul",
        "sealEngine" : "NoProof",
        "lastblockhash" : "0x91bc7c471878264efd4d17bc5c52101ce84cd91e5e69cfd846046b5008316afc",
        "genesisRLP" : "0xf901f8f901f3a00000000000000000000000000000000000000000000000000000000000000000a01dcc4de8dec75d7aab85b567b6ccd41ad312451b948a7413f0a142fd40d49347942adc25665018aa1fe0e6bc666dac8fc2697ff9baa0af23441dc3b37f4988b603a2cd7e5ac4e187cbf8ec2de1a583eec9320c14ab94a056e81f171bcc55a6ff8345e692c0f86e5b48e01b996cadc001622fb5e363b421a056e81f171bcc55a6ff8345e692c0f86e5b48e01b996cadc001622fb5e363b421b9010000000000000000000000000000000000000000000000000000000000000000000000000000000000000000000000000000000000000000000000000000000000000000000000000000000000000000000000000000000000000000000000000000000000000000000000000000000000000000000000000000000000000000000000000000000000000000000000000000000000000000000000000000000000000000000000000000000000000000000000000000000000000000000000000000000000000000000000000000000000000000000000000000000000000000000000000000000000000000000000000000000000000000000000000000000000830200008083989680808000a00000000000000000000000000000000000000000000000000000000000000000880000000000000000c0c0",
        "blocks" : [
            {
                "rlp" : "0xf9027ff901f7a0d4b3ebe9346fb5f3454fa0015c45395f484f54dbbb899a9b1d33afec3a300377a01dcc4de8dec75d7aab85b567b6ccd41ad312451b948a7413f0a142fd40d49347942adc25665018aa1fe0e6bc666dac8fc2697ff9baa0a55e58fcec9d4afdee203996c8981dee85ac2f707575358e06e8c9893872c988a09b4bb7547e89c9d77e771f763fe179baaf096b818ef92c771c5494e5718f23eaa0bbc5a94eaf4820e4fcfb36f1a9be0eed03018b28977308cbd185d88f9d04f61cb901000000000000000000000000000000000000000000000000000000000000000000000000000000000000000000000000000000000000000000000000000000000000000000000000000000000000000000000000000000000000000000000000000000000000000000000000000000000000000000000000000000000000000000000000000000000000000000000000000000000000000000000000000000000000000000000000000000000000000000000000000000000000000000000000000000000000000000000000000000000000000000000000000000000000000000000000000000000000000000000000000000000000000000000000000000000083020000018398bca482a6738203e800a00000000000000000000000000000000000000000000000000000000000000000880000000000000000f882f88080018307a12094100000000000000000000000000000000000000080a000000000000000000000000020000000000000000000000000000000000000011ca01d2623ed7712c47cf4eeaa3d4727cad70b67a0e289538c11e3881af15f774d52a03a58f29bcdaa1804dbe28254e22ba910e1c208bdd7ab9dce981c7da064739d20c0",
                "blockHeader" : {
                    "bloom" : "0x00000000000000000000000000000000000000000000000000000000000000000000000000000000000000000000000000000000000000000000000000000000000000000000000000000000000000000000000000000000000000000000000000000000000000000000000000000000000000000000000000000000000000000000000000000000000000000000000000000000000000000000000000000000000000000000000000000000000000000000000000000000000000000000000000000000000000000000000000000000000000000000000000000000000000000000000000000000000000000000000000000000000000000000000000000000",
                    "coinbase" : "0x2adc25665018aa1fe0e6bc666dac8fc2697ff9ba",
                    "difficulty" : "0x20000",
                    "extraData" : "0x00",
                    "gasLimit" : "0x98bca4",
                    "gasUsed" : "0xa673",
                    "hash" : "0x91bc7c471878264efd4d17bc5c52101ce84cd91e5e69cfd846046b5008316afc",
                    "mixHash" : "0x0000000000000000000000000000000000000000000000000000000000000000",
                    "nonce" : "0x0000000000000000",
                    "number" : "0x1",
                    "parentHash" : "0xd4b3ebe9346fb5f3454fa0015c45395f484f54dbbb899a9b1d33afec3a300377",
                    "receiptTrie" : "0xbbc5a94eaf4820e4fcfb36f1a9be0eed03018b28977308cbd185d88f9d04f61c",
                    "stateRoot" : "0xa55e58fcec9d4afdee203996c8981dee85ac2f707575358e06e8c9893872c988",
                    "timestamp" : "0x3e8",
                    "transactionsTrie" : "0x9b4bb7547e89c9d77e771f763fe179baaf096b818ef92c771c5494e5718f23ea",
                    "uncleHash" : "0x1dcc4de8dec75d7aab85b567b6ccd41ad312451b948a7413f0a142fd40d49347"
                },
                "transactions" : [
                    {
                        "data" : "0x0000000000000000000000002000000000000000000000000000000000000001",
                        "gasLimit" : "0x07a120",
                        "gasPrice" : "0x01",
                        "nonce" : "0x00",
                        "to" : "0x1000000000000000000000000000000000000000",
                        "value" : "0x00",
                        "v" : "0x1c",
                        "r" : "0x1d2623ed7712c47cf4eeaa3d4727cad70b67a0e289538c11e3881af15f774d52",
                        "s" : "0x3a58f29bcdaa1804dbe28254e22ba910e1c208bdd7ab9dce981c7da064739d20"
                    }
                ]
            }
        ]
    },
    "static_RawCallGasAsk_d2g0v0_Istanbul" : {
        "_info" : {
            "comment" : "",
            "filling-rpc-server" : "Geth-1.9.6-unstable-63b18027-20190920",
            "filling-tool-version" : "retesteth-0.0.1+commit.0ae18aef.Linux.g++",
            "lllcversion" : "Version: 0.5.12-develop.2019.9.13+commit.2d601a4f.Linux.g++",
            "source" : "src/GeneralStateTestsFiller/stStaticCall/static_RawCallGasAskFiller.json",
            "sourceHash" : "1550385c5a2bae55e42309b92adc3baf29f2a54f9aaa1ebc3ac423223ac40896"
        },
        "genesisBlockHeader" : {
            "bloom" : "0x00000000000000000000000000000000000000000000000000000000000000000000000000000000000000000000000000000000000000000000000000000000000000000000000000000000000000000000000000000000000000000000000000000000000000000000000000000000000000000000000000000000000000000000000000000000000000000000000000000000000000000000000000000000000000000000000000000000000000000000000000000000000000000000000000000000000000000000000000000000000000000000000000000000000000000000000000000000000000000000000000000000000000000000000000000000",
            "coinbase" : "0x2adc25665018aa1fe0e6bc666dac8fc2697ff9ba",
            "difficulty" : "0x20000",
            "extraData" : "0x00",
            "gasLimit" : "0x989680",
            "gasUsed" : "0x0",
            "hash" : "0xd4b3ebe9346fb5f3454fa0015c45395f484f54dbbb899a9b1d33afec3a300377",
            "mixHash" : "0x0000000000000000000000000000000000000000000000000000000000000000",
            "nonce" : "0x0000000000000000",
            "number" : "0x0",
            "parentHash" : "0x0000000000000000000000000000000000000000000000000000000000000000",
            "receiptTrie" : "0x56e81f171bcc55a6ff8345e692c0f86e5b48e01b996cadc001622fb5e363b421",
            "stateRoot" : "0xaf23441dc3b37f4988b603a2cd7e5ac4e187cbf8ec2de1a583eec9320c14ab94",
            "timestamp" : "0x0",
            "transactionsTrie" : "0x56e81f171bcc55a6ff8345e692c0f86e5b48e01b996cadc001622fb5e363b421",
            "uncleHash" : "0x1dcc4de8dec75d7aab85b567b6ccd41ad312451b948a7413f0a142fd40d49347"
        },
        "pre" : {
            "0x094f5374fce5edbc8e2a8697c15331677e6ebf0b" : {
                "balance" : "0x00",
                "code" : "0x5a60005200",
                "nonce" : "0x00",
                "storage" : {
                }
            },
            "0x1000000000000000000000000000000000000000" : {
                "balance" : "0xe8d4a51000",
                "code" : "0x600060006000600060006000355af100",
                "nonce" : "0x00",
                "storage" : {
                }
            },
            "0x1000000000000000000000000000000000000001" : {
                "balance" : "0x00",
                "code" : "0x600060006000600073094f5374fce5edbc8e2a8697c15331677e6ebf0b622dc6c0fa505a60015500",
                "nonce" : "0x00",
                "storage" : {
                }
            },
            "0x2000000000000000000000000000000000000001" : {
                "balance" : "0x00",
                "code" : "0x600060006000600073094f5374fce5edbc8e2a8697c15331677e6ebf0b617530fa505a60015500",
                "nonce" : "0x00",
                "storage" : {
                }
            },
            "0x3000000000000000000000000000000000000001" : {
                "balance" : "0x00",
                "code" : "0x611f406000611f40600073094f5374fce5edbc8e2a8697c15331677e6ebf0b622dc6c0fa505a60015500",
                "nonce" : "0x00",
                "storage" : {
                }
            },
            "0x4000000000000000000000000000000000000001" : {
                "balance" : "0x00",
                "code" : "0x611f406000611f40600073094f5374fce5edbc8e2a8697c15331677e6ebf0b617530fa505a60015500",
                "nonce" : "0x00",
                "storage" : {
                }
            },
            "0xa94f5374fce5edbc8e2a8697c15331677e6ebf0b" : {
                "balance" : "0xe8d4a51000",
                "code" : "0x",
                "nonce" : "0x00",
                "storage" : {
                }
            }
        },
        "postState" : {
            "0xa94f5374fce5edbc8e2a8697c15331677e6ebf0b" : {
                "code" : "0x",
                "nonce" : "0x01",
                "balance" : "0xe8d4a46625",
                "storage" : {
                }
            },
            "0x4000000000000000000000000000000000000001" : {
                "code" : "0x611f406000611f40600073094f5374fce5edbc8e2a8697c15331677e6ebf0b617530fa505a60015500",
                "nonce" : "0x00",
                "balance" : "0x00",
                "storage" : {
                }
            },
            "0x1000000000000000000000000000000000000001" : {
                "code" : "0x600060006000600073094f5374fce5edbc8e2a8697c15331677e6ebf0b622dc6c0fa505a60015500",
                "nonce" : "0x00",
                "balance" : "0x00",
                "storage" : {
                }
            },
            "0x3000000000000000000000000000000000000001" : {
                "code" : "0x611f406000611f40600073094f5374fce5edbc8e2a8697c15331677e6ebf0b622dc6c0fa505a60015500",
                "nonce" : "0x00",
                "balance" : "0x00",
                "storage" : {
                    "0x01" : "0x07283a"
                }
            },
            "0x2000000000000000000000000000000000000001" : {
                "code" : "0x600060006000600073094f5374fce5edbc8e2a8697c15331677e6ebf0b617530fa505a60015500",
                "nonce" : "0x00",
                "balance" : "0x00",
                "storage" : {
                }
            },
            "0x2adc25665018aa1fe0e6bc666dac8fc2697ff9ba" : {
                "code" : "0x",
                "nonce" : "0x00",
                "balance" : "0x1bc16d674ec8a9db",
                "storage" : {
                }
            },
            "0x094f5374fce5edbc8e2a8697c15331677e6ebf0b" : {
                "code" : "0x5a60005200",
                "nonce" : "0x00",
                "balance" : "0x00",
                "storage" : {
                }
            },
            "0x1000000000000000000000000000000000000000" : {
                "code" : "0x600060006000600060006000355af100",
                "nonce" : "0x00",
                "balance" : "0xe8d4a51000",
                "storage" : {
                }
            }
        },
        "network" : "Istanbul",
        "sealEngine" : "NoProof",
        "lastblockhash" : "0x41fce2d22a9bd55a1965330aac0bd8640c050dcb1ebfa44c4dd3906e758f9751",
        "genesisRLP" : "0xf901f8f901f3a00000000000000000000000000000000000000000000000000000000000000000a01dcc4de8dec75d7aab85b567b6ccd41ad312451b948a7413f0a142fd40d49347942adc25665018aa1fe0e6bc666dac8fc2697ff9baa0af23441dc3b37f4988b603a2cd7e5ac4e187cbf8ec2de1a583eec9320c14ab94a056e81f171bcc55a6ff8345e692c0f86e5b48e01b996cadc001622fb5e363b421a056e81f171bcc55a6ff8345e692c0f86e5b48e01b996cadc001622fb5e363b421b9010000000000000000000000000000000000000000000000000000000000000000000000000000000000000000000000000000000000000000000000000000000000000000000000000000000000000000000000000000000000000000000000000000000000000000000000000000000000000000000000000000000000000000000000000000000000000000000000000000000000000000000000000000000000000000000000000000000000000000000000000000000000000000000000000000000000000000000000000000000000000000000000000000000000000000000000000000000000000000000000000000000000000000000000000000000000830200008083989680808000a00000000000000000000000000000000000000000000000000000000000000000880000000000000000c0c0",
        "blocks" : [
            {
                "rlp" : "0xf9027ff901f7a0d4b3ebe9346fb5f3454fa0015c45395f484f54dbbb899a9b1d33afec3a300377a01dcc4de8dec75d7aab85b567b6ccd41ad312451b948a7413f0a142fd40d49347942adc25665018aa1fe0e6bc666dac8fc2697ff9baa0184c074cd4b6d96ed1b6e89ec7d94eae800853dbd922401f80537d6761c34cdda0abf0dd8f1725e9105720c1dab0e1865049278eba6c7f2cc924487bf2b7677a3ea0139624f869e92bfa480b4f91c5f610c33fc19939a0a092c4ba450e0cfdf3d0b8b901000000000000000000000000000000000000000000000000000000000000000000000000000000000000000000000000000000000000000000000000000000000000000000000000000000000000000000000000000000000000000000000000000000000000000000000000000000000000000000000000000000000000000000000000000000000000000000000000000000000000000000000000000000000000000000000000000000000000000000000000000000000000000000000000000000000000000000000000000000000000000000000000000000000000000000000000000000000000000000000000000000000000000000000000000000000083020000018398bca482a9db8203e800a00000000000000000000000000000000000000000000000000000000000000000880000000000000000f882f88080018307a12094100000000000000000000000000000000000000080a000000000000000000000000030000000000000000000000000000000000000011ca08d2065a8f9e5af6a9531c1e01db286fe81fed3fcde252a807ad58a6d36a382f9a0185f409bf9cea6ee5b103bef87ca482d4b83230a4de63de29287139be90c5f20c0",
                "blockHeader" : {
                    "bloom" : "0x00000000000000000000000000000000000000000000000000000000000000000000000000000000000000000000000000000000000000000000000000000000000000000000000000000000000000000000000000000000000000000000000000000000000000000000000000000000000000000000000000000000000000000000000000000000000000000000000000000000000000000000000000000000000000000000000000000000000000000000000000000000000000000000000000000000000000000000000000000000000000000000000000000000000000000000000000000000000000000000000000000000000000000000000000000000",
                    "coinbase" : "0x2adc25665018aa1fe0e6bc666dac8fc2697ff9ba",
                    "difficulty" : "0x20000",
                    "extraData" : "0x00",
                    "gasLimit" : "0x98bca4",
                    "gasUsed" : "0xa9db",
                    "hash" : "0x41fce2d22a9bd55a1965330aac0bd8640c050dcb1ebfa44c4dd3906e758f9751",
                    "mixHash" : "0x0000000000000000000000000000000000000000000000000000000000000000",
                    "nonce" : "0x0000000000000000",
                    "number" : "0x1",
                    "parentHash" : "0xd4b3ebe9346fb5f3454fa0015c45395f484f54dbbb899a9b1d33afec3a300377",
                    "receiptTrie" : "0x139624f869e92bfa480b4f91c5f610c33fc19939a0a092c4ba450e0cfdf3d0b8",
                    "stateRoot" : "0x184c074cd4b6d96ed1b6e89ec7d94eae800853dbd922401f80537d6761c34cdd",
                    "timestamp" : "0x3e8",
                    "transactionsTrie" : "0xabf0dd8f1725e9105720c1dab0e1865049278eba6c7f2cc924487bf2b7677a3e",
                    "uncleHash" : "0x1dcc4de8dec75d7aab85b567b6ccd41ad312451b948a7413f0a142fd40d49347"
                },
                "transactions" : [
                    {
                        "data" : "0x0000000000000000000000003000000000000000000000000000000000000001",
                        "gasLimit" : "0x07a120",
                        "gasPrice" : "0x01",
                        "nonce" : "0x00",
                        "to" : "0x1000000000000000000000000000000000000000",
                        "value" : "0x00",
                        "v" : "0x1c",
                        "r" : "0x8d2065a8f9e5af6a9531c1e01db286fe81fed3fcde252a807ad58a6d36a382f9",
                        "s" : "0x185f409bf9cea6ee5b103bef87ca482d4b83230a4de63de29287139be90c5f20"
                    }
                ]
            }
        ]
    },
    "static_RawCallGasAsk_d3g0v0_Istanbul" : {
        "_info" : {
            "comment" : "",
            "filling-rpc-server" : "Geth-1.9.6-unstable-63b18027-20190920",
            "filling-tool-version" : "retesteth-0.0.1+commit.0ae18aef.Linux.g++",
            "lllcversion" : "Version: 0.5.12-develop.2019.9.13+commit.2d601a4f.Linux.g++",
            "source" : "src/GeneralStateTestsFiller/stStaticCall/static_RawCallGasAskFiller.json",
            "sourceHash" : "1550385c5a2bae55e42309b92adc3baf29f2a54f9aaa1ebc3ac423223ac40896"
        },
        "genesisBlockHeader" : {
            "bloom" : "0x00000000000000000000000000000000000000000000000000000000000000000000000000000000000000000000000000000000000000000000000000000000000000000000000000000000000000000000000000000000000000000000000000000000000000000000000000000000000000000000000000000000000000000000000000000000000000000000000000000000000000000000000000000000000000000000000000000000000000000000000000000000000000000000000000000000000000000000000000000000000000000000000000000000000000000000000000000000000000000000000000000000000000000000000000000000",
            "coinbase" : "0x2adc25665018aa1fe0e6bc666dac8fc2697ff9ba",
            "difficulty" : "0x20000",
            "extraData" : "0x00",
            "gasLimit" : "0x989680",
            "gasUsed" : "0x0",
            "hash" : "0xd4b3ebe9346fb5f3454fa0015c45395f484f54dbbb899a9b1d33afec3a300377",
            "mixHash" : "0x0000000000000000000000000000000000000000000000000000000000000000",
            "nonce" : "0x0000000000000000",
            "number" : "0x0",
            "parentHash" : "0x0000000000000000000000000000000000000000000000000000000000000000",
            "receiptTrie" : "0x56e81f171bcc55a6ff8345e692c0f86e5b48e01b996cadc001622fb5e363b421",
            "stateRoot" : "0xaf23441dc3b37f4988b603a2cd7e5ac4e187cbf8ec2de1a583eec9320c14ab94",
            "timestamp" : "0x0",
            "transactionsTrie" : "0x56e81f171bcc55a6ff8345e692c0f86e5b48e01b996cadc001622fb5e363b421",
            "uncleHash" : "0x1dcc4de8dec75d7aab85b567b6ccd41ad312451b948a7413f0a142fd40d49347"
        },
        "pre" : {
            "0x094f5374fce5edbc8e2a8697c15331677e6ebf0b" : {
                "balance" : "0x00",
                "code" : "0x5a60005200",
                "nonce" : "0x00",
                "storage" : {
                }
            },
            "0x1000000000000000000000000000000000000000" : {
                "balance" : "0xe8d4a51000",
                "code" : "0x600060006000600060006000355af100",
                "nonce" : "0x00",
                "storage" : {
                }
            },
            "0x1000000000000000000000000000000000000001" : {
                "balance" : "0x00",
                "code" : "0x600060006000600073094f5374fce5edbc8e2a8697c15331677e6ebf0b622dc6c0fa505a60015500",
                "nonce" : "0x00",
                "storage" : {
                }
            },
            "0x2000000000000000000000000000000000000001" : {
                "balance" : "0x00",
                "code" : "0x600060006000600073094f5374fce5edbc8e2a8697c15331677e6ebf0b617530fa505a60015500",
                "nonce" : "0x00",
                "storage" : {
                }
            },
            "0x3000000000000000000000000000000000000001" : {
                "balance" : "0x00",
                "code" : "0x611f406000611f40600073094f5374fce5edbc8e2a8697c15331677e6ebf0b622dc6c0fa505a60015500",
                "nonce" : "0x00",
                "storage" : {
                }
            },
            "0x4000000000000000000000000000000000000001" : {
                "balance" : "0x00",
                "code" : "0x611f406000611f40600073094f5374fce5edbc8e2a8697c15331677e6ebf0b617530fa505a60015500",
                "nonce" : "0x00",
                "storage" : {
                }
            },
            "0xa94f5374fce5edbc8e2a8697c15331677e6ebf0b" : {
                "balance" : "0xe8d4a51000",
                "code" : "0x",
                "nonce" : "0x00",
                "storage" : {
                }
            }
        },
        "postState" : {
            "0xa94f5374fce5edbc8e2a8697c15331677e6ebf0b" : {
                "code" : "0x",
                "nonce" : "0x01",
                "balance" : "0xe8d4a46625",
                "storage" : {
                }
            },
            "0x4000000000000000000000000000000000000001" : {
                "code" : "0x611f406000611f40600073094f5374fce5edbc8e2a8697c15331677e6ebf0b617530fa505a60015500",
                "nonce" : "0x00",
                "balance" : "0x00",
                "storage" : {
                    "0x01" : "0x07283a"
                }
            },
            "0x1000000000000000000000000000000000000001" : {
                "code" : "0x600060006000600073094f5374fce5edbc8e2a8697c15331677e6ebf0b622dc6c0fa505a60015500",
                "nonce" : "0x00",
                "balance" : "0x00",
                "storage" : {
                }
            },
            "0x3000000000000000000000000000000000000001" : {
                "code" : "0x611f406000611f40600073094f5374fce5edbc8e2a8697c15331677e6ebf0b622dc6c0fa505a60015500",
                "nonce" : "0x00",
                "balance" : "0x00",
                "storage" : {
                }
            },
            "0x2000000000000000000000000000000000000001" : {
                "code" : "0x600060006000600073094f5374fce5edbc8e2a8697c15331677e6ebf0b617530fa505a60015500",
                "nonce" : "0x00",
                "balance" : "0x00",
                "storage" : {
                }
            },
            "0x2adc25665018aa1fe0e6bc666dac8fc2697ff9ba" : {
                "code" : "0x",
                "nonce" : "0x00",
                "balance" : "0x1bc16d674ec8a9db",
                "storage" : {
                }
            },
            "0x094f5374fce5edbc8e2a8697c15331677e6ebf0b" : {
                "code" : "0x5a60005200",
                "nonce" : "0x00",
                "balance" : "0x00",
                "storage" : {
                }
            },
            "0x1000000000000000000000000000000000000000" : {
                "code" : "0x600060006000600060006000355af100",
                "nonce" : "0x00",
                "balance" : "0xe8d4a51000",
                "storage" : {
                }
            }
        },
        "network" : "Istanbul",
        "sealEngine" : "NoProof",
        "lastblockhash" : "0xf04b52deaf82dbf271715252db764be1c1da84f3b68ddd70db8fbf1aa43771c4",
        "genesisRLP" : "0xf901f8f901f3a00000000000000000000000000000000000000000000000000000000000000000a01dcc4de8dec75d7aab85b567b6ccd41ad312451b948a7413f0a142fd40d49347942adc25665018aa1fe0e6bc666dac8fc2697ff9baa0af23441dc3b37f4988b603a2cd7e5ac4e187cbf8ec2de1a583eec9320c14ab94a056e81f171bcc55a6ff8345e692c0f86e5b48e01b996cadc001622fb5e363b421a056e81f171bcc55a6ff8345e692c0f86e5b48e01b996cadc001622fb5e363b421b9010000000000000000000000000000000000000000000000000000000000000000000000000000000000000000000000000000000000000000000000000000000000000000000000000000000000000000000000000000000000000000000000000000000000000000000000000000000000000000000000000000000000000000000000000000000000000000000000000000000000000000000000000000000000000000000000000000000000000000000000000000000000000000000000000000000000000000000000000000000000000000000000000000000000000000000000000000000000000000000000000000000000000000000000000000000000830200008083989680808000a00000000000000000000000000000000000000000000000000000000000000000880000000000000000c0c0",
        "blocks" : [
            {
                "rlp" : "0xf9027ff901f7a0d4b3ebe9346fb5f3454fa0015c45395f484f54dbbb899a9b1d33afec3a300377a01dcc4de8dec75d7aab85b567b6ccd41ad312451b948a7413f0a142fd40d49347942adc25665018aa1fe0e6bc666dac8fc2697ff9baa07525708c801952232ab63b1798741d378ec69cc56d8062f4c09eba56fac62920a044ba69ff4359597ef647a2179a50b0e642eef65fd8aadca768587e0d0d9d9f8fa0139624f869e92bfa480b4f91c5f610c33fc19939a0a092c4ba450e0cfdf3d0b8b901000000000000000000000000000000000000000000000000000000000000000000000000000000000000000000000000000000000000000000000000000000000000000000000000000000000000000000000000000000000000000000000000000000000000000000000000000000000000000000000000000000000000000000000000000000000000000000000000000000000000000000000000000000000000000000000000000000000000000000000000000000000000000000000000000000000000000000000000000000000000000000000000000000000000000000000000000000000000000000000000000000000000000000000000000000000083020000018398bca482a9db8203e800a00000000000000000000000000000000000000000000000000000000000000000880000000000000000f882f88080018307a12094100000000000000000000000000000000000000080a000000000000000000000000040000000000000000000000000000000000000011ba044224765cf6de7ba3f94112e9f2ef285931ce2e6640108fb25def3aba30d881aa04ab4a55fd33faa846895c823e96e02e81056be8621d47ebd4e901c22f62306d6c0",
                "blockHeader" : {
                    "bloom" : "0x00000000000000000000000000000000000000000000000000000000000000000000000000000000000000000000000000000000000000000000000000000000000000000000000000000000000000000000000000000000000000000000000000000000000000000000000000000000000000000000000000000000000000000000000000000000000000000000000000000000000000000000000000000000000000000000000000000000000000000000000000000000000000000000000000000000000000000000000000000000000000000000000000000000000000000000000000000000000000000000000000000000000000000000000000000000",
                    "coinbase" : "0x2adc25665018aa1fe0e6bc666dac8fc2697ff9ba",
                    "difficulty" : "0x20000",
                    "extraData" : "0x00",
                    "gasLimit" : "0x98bca4",
                    "gasUsed" : "0xa9db",
                    "hash" : "0xf04b52deaf82dbf271715252db764be1c1da84f3b68ddd70db8fbf1aa43771c4",
                    "mixHash" : "0x0000000000000000000000000000000000000000000000000000000000000000",
                    "nonce" : "0x0000000000000000",
                    "number" : "0x1",
                    "parentHash" : "0xd4b3ebe9346fb5f3454fa0015c45395f484f54dbbb899a9b1d33afec3a300377",
                    "receiptTrie" : "0x139624f869e92bfa480b4f91c5f610c33fc19939a0a092c4ba450e0cfdf3d0b8",
                    "stateRoot" : "0x7525708c801952232ab63b1798741d378ec69cc56d8062f4c09eba56fac62920",
                    "timestamp" : "0x3e8",
                    "transactionsTrie" : "0x44ba69ff4359597ef647a2179a50b0e642eef65fd8aadca768587e0d0d9d9f8f",
                    "uncleHash" : "0x1dcc4de8dec75d7aab85b567b6ccd41ad312451b948a7413f0a142fd40d49347"
                },
                "transactions" : [
                    {
                        "data" : "0x0000000000000000000000004000000000000000000000000000000000000001",
                        "gasLimit" : "0x07a120",
                        "gasPrice" : "0x01",
                        "nonce" : "0x00",
                        "to" : "0x1000000000000000000000000000000000000000",
                        "value" : "0x00",
                        "v" : "0x1b",
                        "r" : "0x44224765cf6de7ba3f94112e9f2ef285931ce2e6640108fb25def3aba30d881a",
                        "s" : "0x4ab4a55fd33faa846895c823e96e02e81056be8621d47ebd4e901c22f62306d6"
                    }
                ]
            }
        ]
    }
}