{
    "static_ABAcallsSuicide1_d0g0v0_Istanbul" : {
        "_info" : {
            "comment" : "",
            "filling-rpc-server" : "Geth-1.9.6-unstable-63b18027-20190920",
            "filling-tool-version" : "retesteth-0.0.1+commit.0ae18aef.Linux.g++",
            "lllcversion" : "Version: 0.5.12-develop.2019.9.13+commit.2d601a4f.Linux.g++",
            "source" : "src/GeneralStateTestsFiller/stStaticCall/static_ABAcallsSuicide1Filler.json",
            "sourceHash" : "f2c0d3b73d4aa73c0b35896cd9d11cde7de23e1e7c559513d2b380e73dee6ab7"
        },
        "genesisBlockHeader" : {
            "bloom" : "0x00000000000000000000000000000000000000000000000000000000000000000000000000000000000000000000000000000000000000000000000000000000000000000000000000000000000000000000000000000000000000000000000000000000000000000000000000000000000000000000000000000000000000000000000000000000000000000000000000000000000000000000000000000000000000000000000000000000000000000000000000000000000000000000000000000000000000000000000000000000000000000000000000000000000000000000000000000000000000000000000000000000000000000000000000000000",
            "coinbase" : "0x2adc25665018aa1fe0e6bc666dac8fc2697ff9ba",
            "difficulty" : "0x20000",
            "extraData" : "0x00",
            "gasLimit" : "0x5f5e100",
            "gasUsed" : "0x0",
            "hash" : "0x20b6d3aa6601e5ca95222394655b3298cc20bc45d6f6862de512a6ac2f1fe4f3",
            "mixHash" : "0x0000000000000000000000000000000000000000000000000000000000000000",
            "nonce" : "0x0000000000000000",
            "number" : "0x0",
            "parentHash" : "0x0000000000000000000000000000000000000000000000000000000000000000",
            "receiptTrie" : "0x56e81f171bcc55a6ff8345e692c0f86e5b48e01b996cadc001622fb5e363b421",
            "stateRoot" : "0x5ef1b79a7241da2b59fbc134ef18d059aae94e0758a36a9e70e8dbbaae7ac146",
            "timestamp" : "0x0",
            "transactionsTrie" : "0x56e81f171bcc55a6ff8345e692c0f86e5b48e01b996cadc001622fb5e363b421",
            "uncleHash" : "0x1dcc4de8dec75d7aab85b567b6ccd41ad312451b948a7413f0a142fd40d49347"
        },
        "pre" : {
            "0x095e7baea6a6c7c4c2dfeb977efac326af552d87" : {
                "balance" : "0x0de0b6b3a7640000",
                "code" : "0x600035600052600060006020600073945304eb96065b2a98b57a48a06ae28d285a71b5600035fa00",
                "nonce" : "0x00",
                "storage" : {
                }
            },
            "0x945304eb96065b2a98b57a48a06ae28d285a71b5" : {
                "balance" : "0x17",
                "code" : "0x600035600052600060006020600073095e7baea6a6c7c4c2dfeb977efac326af552d8761c35060003503fa50730f572e5295c57f15886f9b263e2f6d2d6c7b5ec6ff00",
                "nonce" : "0x00",
                "storage" : {
                }
            },
            "0xa94f5374fce5edbc8e2a8697c15331677e6ebf0b" : {
                "balance" : "0x0de0b6b3a7640000",
                "code" : "0x",
                "nonce" : "0x00",
                "storage" : {
                }
            }
        },
        "postState" : {
            "0xa94f5374fce5edbc8e2a8697c15331677e6ebf0b" : {
                "code" : "0x",
                "nonce" : "0x01",
                "balance" : "0x0de0b6b3a7609d34",
                "storage" : {
                }
            },
            "0x095e7baea6a6c7c4c2dfeb977efac326af552d87" : {
                "code" : "0x600035600052600060006020600073945304eb96065b2a98b57a48a06ae28d285a71b5600035fa00",
                "nonce" : "0x00",
                "balance" : "0x0de0b6b3a76586a0",
                "storage" : {
                }
            },
            "0x2adc25665018aa1fe0e6bc666dac8fc2697ff9ba" : {
                "code" : "0x",
                "nonce" : "0x00",
                "balance" : "0x1bc16d674ec9dc2c",
                "storage" : {
                }
            },
            "0x945304eb96065b2a98b57a48a06ae28d285a71b5" : {
                "code" : "0x600035600052600060006020600073095e7baea6a6c7c4c2dfeb977efac326af552d8761c35060003503fa50730f572e5295c57f15886f9b263e2f6d2d6c7b5ec6ff00",
                "nonce" : "0x00",
                "balance" : "0x17",
                "storage" : {
                }
            }
        },
        "network" : "Istanbul",
        "sealEngine" : "NoProof",
        "lastblockhash" : "0xda630c2f257d02a79ddaadb5573c2bbd5d2d81ea043b210bde3e6405a762f362",
        "genesisRLP" : "0xf901f9f901f4a00000000000000000000000000000000000000000000000000000000000000000a01dcc4de8dec75d7aab85b567b6ccd41ad312451b948a7413f0a142fd40d49347942adc25665018aa1fe0e6bc666dac8fc2697ff9baa05ef1b79a7241da2b59fbc134ef18d059aae94e0758a36a9e70e8dbbaae7ac146a056e81f171bcc55a6ff8345e692c0f86e5b48e01b996cadc001622fb5e363b421a056e81f171bcc55a6ff8345e692c0f86e5b48e01b996cadc001622fb5e363b421b901000000000000000000000000000000000000000000000000000000000000000000000000000000000000000000000000000000000000000000000000000000000000000000000000000000000000000000000000000000000000000000000000000000000000000000000000000000000000000000000000000000000000000000000000000000000000000000000000000000000000000000000000000000000000000000000000000000000000000000000000000000000000000000000000000000000000000000000000000000000000000000000000000000000000000000000000000000000000000000000000000000000000000000000000000000000083020000808405f5e100808000a00000000000000000000000000000000000000000000000000000000000000000880000000000000000c0c0",
        "blocks" : [
            {
                "rlp" : "0xf90284f901f9a020b6d3aa6601e5ca95222394655b3298cc20bc45d6f6862de512a6ac2f1fe4f3a01dcc4de8dec75d7aab85b567b6ccd41ad312451b948a7413f0a142fd40d49347942adc25665018aa1fe0e6bc666dac8fc2697ff9baa086add9ada503947ad1ae2a56a65164048d0624a560b29ba3ef4a4ff3530fe301a00af939feba2fe2063aba3fc0ebe3d80b8226d8ecff7611aad040f3a17ac1ca85a09187d248125363c202102dae4014403f79f63a8dc6a193aab7be34ba4c5a462bb901000000000000000000000000000000000000000000000000000000000000000000000000000000000000000000000000000000000000000000000000000000000000000000000000000000000000000000000000000000000000000000000000000000000000000000000000000000000000000000000000000000000000000000000000000000000000000000000000000000000000000000000000000000000000000000000000000000000000000000000000000000000000000000000000000000000000000000000000000000000000000000000000000000000000000000000000000000000000000000000000000000000000000000000000000000000083020000018405f75e778301dc2c8203e800a00000000000000000000000000000000000000000000000000000000000000000880000000000000000f885f88380018398968094095e7baea6a6c7c4c2dfeb977efac326af552d87830186a0a000000000000000000000000000000000000000000000000000000000000186a01ca0efaec7f38b2e93c9ce2ae76815f26b1f40620f419016ea97e56fc0194054e6f0a029aba0901f12419a4aa8144d02028ee65f708535d9f8b487e7fd75a07d6fdc75c0",
                "blockHeader" : {
                    "bloom" : "0x00000000000000000000000000000000000000000000000000000000000000000000000000000000000000000000000000000000000000000000000000000000000000000000000000000000000000000000000000000000000000000000000000000000000000000000000000000000000000000000000000000000000000000000000000000000000000000000000000000000000000000000000000000000000000000000000000000000000000000000000000000000000000000000000000000000000000000000000000000000000000000000000000000000000000000000000000000000000000000000000000000000000000000000000000000000",
                    "coinbase" : "0x2adc25665018aa1fe0e6bc666dac8fc2697ff9ba",
                    "difficulty" : "0x20000",
                    "extraData" : "0x00",
                    "gasLimit" : "0x5f75e77",
                    "gasUsed" : "0x1dc2c",
                    "hash" : "0xda630c2f257d02a79ddaadb5573c2bbd5d2d81ea043b210bde3e6405a762f362",
                    "mixHash" : "0x0000000000000000000000000000000000000000000000000000000000000000",
                    "nonce" : "0x0000000000000000",
                    "number" : "0x1",
                    "parentHash" : "0x20b6d3aa6601e5ca95222394655b3298cc20bc45d6f6862de512a6ac2f1fe4f3",
                    "receiptTrie" : "0x9187d248125363c202102dae4014403f79f63a8dc6a193aab7be34ba4c5a462b",
                    "stateRoot" : "0x86add9ada503947ad1ae2a56a65164048d0624a560b29ba3ef4a4ff3530fe301",
                    "timestamp" : "0x3e8",
                    "transactionsTrie" : "0x0af939feba2fe2063aba3fc0ebe3d80b8226d8ecff7611aad040f3a17ac1ca85",
                    "uncleHash" : "0x1dcc4de8dec75d7aab85b567b6ccd41ad312451b948a7413f0a142fd40d49347"
                },
                "transactions" : [
                    {
                        "data" : "0x00000000000000000000000000000000000000000000000000000000000186a0",
                        "gasLimit" : "0x989680",
                        "gasPrice" : "0x01",
                        "nonce" : "0x00",
                        "to" : "0x095e7baea6a6c7c4c2dfeb977efac326af552d87",
                        "value" : "0x0186a0",
                        "v" : "0x1c",
                        "r" : "0xefaec7f38b2e93c9ce2ae76815f26b1f40620f419016ea97e56fc0194054e6f0",
                        "s" : "0x29aba0901f12419a4aa8144d02028ee65f708535d9f8b487e7fd75a07d6fdc75"
                    }
                ]
            }
        ]
    },
    "static_ABAcallsSuicide1_d1g0v0_Istanbul" : {
        "_info" : {
            "comment" : "",
            "filling-rpc-server" : "Geth-1.9.6-unstable-63b18027-20190920",
            "filling-tool-version" : "retesteth-0.0.1+commit.0ae18aef.Linux.g++",
            "lllcversion" : "Version: 0.5.12-develop.2019.9.13+commit.2d601a4f.Linux.g++",
            "source" : "src/GeneralStateTestsFiller/stStaticCall/static_ABAcallsSuicide1Filler.json",
            "sourceHash" : "f2c0d3b73d4aa73c0b35896cd9d11cde7de23e1e7c559513d2b380e73dee6ab7"
        },
        "genesisBlockHeader" : {
            "bloom" : "0x00000000000000000000000000000000000000000000000000000000000000000000000000000000000000000000000000000000000000000000000000000000000000000000000000000000000000000000000000000000000000000000000000000000000000000000000000000000000000000000000000000000000000000000000000000000000000000000000000000000000000000000000000000000000000000000000000000000000000000000000000000000000000000000000000000000000000000000000000000000000000000000000000000000000000000000000000000000000000000000000000000000000000000000000000000000",
            "coinbase" : "0x2adc25665018aa1fe0e6bc666dac8fc2697ff9ba",
            "difficulty" : "0x20000",
            "extraData" : "0x00",
            "gasLimit" : "0x5f5e100",
            "gasUsed" : "0x0",
            "hash" : "0x20b6d3aa6601e5ca95222394655b3298cc20bc45d6f6862de512a6ac2f1fe4f3",
            "mixHash" : "0x0000000000000000000000000000000000000000000000000000000000000000",
            "nonce" : "0x0000000000000000",
            "number" : "0x0",
            "parentHash" : "0x0000000000000000000000000000000000000000000000000000000000000000",
            "receiptTrie" : "0x56e81f171bcc55a6ff8345e692c0f86e5b48e01b996cadc001622fb5e363b421",
            "stateRoot" : "0x5ef1b79a7241da2b59fbc134ef18d059aae94e0758a36a9e70e8dbbaae7ac146",
            "timestamp" : "0x0",
            "transactionsTrie" : "0x56e81f171bcc55a6ff8345e692c0f86e5b48e01b996cadc001622fb5e363b421",
            "uncleHash" : "0x1dcc4de8dec75d7aab85b567b6ccd41ad312451b948a7413f0a142fd40d49347"
        },
        "pre" : {
            "0x095e7baea6a6c7c4c2dfeb977efac326af552d87" : {
                "balance" : "0x0de0b6b3a7640000",
                "code" : "0x600035600052600060006020600073945304eb96065b2a98b57a48a06ae28d285a71b5600035fa00",
                "nonce" : "0x00",
                "storage" : {
                }
            },
            "0x945304eb96065b2a98b57a48a06ae28d285a71b5" : {
                "balance" : "0x17",
                "code" : "0x600035600052600060006020600073095e7baea6a6c7c4c2dfeb977efac326af552d8761c35060003503fa50730f572e5295c57f15886f9b263e2f6d2d6c7b5ec6ff00",
                "nonce" : "0x00",
                "storage" : {
                }
            },
            "0xa94f5374fce5edbc8e2a8697c15331677e6ebf0b" : {
                "balance" : "0x0de0b6b3a7640000",
                "code" : "0x",
                "nonce" : "0x00",
                "storage" : {
                }
            }
        },
        "postState" : {
            "0xa94f5374fce5edbc8e2a8697c15331677e6ebf0b" : {
                "code" : "0x",
                "nonce" : "0x01",
                "balance" : "0x0de0b6b3a75d9d34",
                "storage" : {
                }
            },
            "0x095e7baea6a6c7c4c2dfeb977efac326af552d87" : {
                "code" : "0x600035600052600060006020600073945304eb96065b2a98b57a48a06ae28d285a71b5600035fa00",
                "nonce" : "0x00",
                "balance" : "0x0de0b6b3a76586a0",
                "storage" : {
                }
            },
            "0x2adc25665018aa1fe0e6bc666dac8fc2697ff9ba" : {
                "code" : "0x",
                "nonce" : "0x00",
                "balance" : "0x1bc16d674eccdc2c",
                "storage" : {
                }
            },
            "0x945304eb96065b2a98b57a48a06ae28d285a71b5" : {
                "code" : "0x600035600052600060006020600073095e7baea6a6c7c4c2dfeb977efac326af552d8761c35060003503fa50730f572e5295c57f15886f9b263e2f6d2d6c7b5ec6ff00",
                "nonce" : "0x00",
                "balance" : "0x17",
                "storage" : {
                }
            }
        },
        "network" : "Istanbul",
        "sealEngine" : "NoProof",
        "lastblockhash" : "0x9fd3f4af3774839560ae5f3bb0fd23227fd72e0f944c3e2b67f157f0016801fb",
        "genesisRLP" : "0xf901f9f901f4a00000000000000000000000000000000000000000000000000000000000000000a01dcc4de8dec75d7aab85b567b6ccd41ad312451b948a7413f0a142fd40d49347942adc25665018aa1fe0e6bc666dac8fc2697ff9baa05ef1b79a7241da2b59fbc134ef18d059aae94e0758a36a9e70e8dbbaae7ac146a056e81f171bcc55a6ff8345e692c0f86e5b48e01b996cadc001622fb5e363b421a056e81f171bcc55a6ff8345e692c0f86e5b48e01b996cadc001622fb5e363b421b901000000000000000000000000000000000000000000000000000000000000000000000000000000000000000000000000000000000000000000000000000000000000000000000000000000000000000000000000000000000000000000000000000000000000000000000000000000000000000000000000000000000000000000000000000000000000000000000000000000000000000000000000000000000000000000000000000000000000000000000000000000000000000000000000000000000000000000000000000000000000000000000000000000000000000000000000000000000000000000000000000000000000000000000000000000000083020000808405f5e100808000a00000000000000000000000000000000000000000000000000000000000000000880000000000000000c0c0",
        "blocks" : [
            {
                "rlp" : "0xf90284f901f9a020b6d3aa6601e5ca95222394655b3298cc20bc45d6f6862de512a6ac2f1fe4f3a01dcc4de8dec75d7aab85b567b6ccd41ad312451b948a7413f0a142fd40d49347942adc25665018aa1fe0e6bc666dac8fc2697ff9baa0260b8610531266a9667c28a28b41c4c2935d62b1a27d36a7d0f09a4eaa42a894a0e0e38366d34bdc5b0dfc678689718c4e1d29c3e2cf0d2e9ab5b0f2942a610c42a0e1b9d785458bc038123139f9dc87c88882991df61b7eb85a90bb5aa00e193c33b901000000000000000000000000000000000000000000000000000000000000000000000000000000000000000000000000000000000000000000000000000000000000000000000000000000000000000000000000000000000000000000000000000000000000000000000000000000000000000000000000000000000000000000000000000000000000000000000000000000000000000000000000000000000000000000000000000000000000000000000000000000000000000000000000000000000000000000000000000000000000000000000000000000000000000000000000000000000000000000000000000000000000000000000000000000000083020000018405f75e778304dc2c8203e800a00000000000000000000000000000000000000000000000000000000000000000880000000000000000f885f88380018398968094095e7baea6a6c7c4c2dfeb977efac326af552d87830186a0a000000000000000000000000000000000000000000000000000000000000486a01ba06b3145bfb899a72fa38a9027c845ce9eb3c545ff9ee39d82deb6ee7131d4c4b1a0499f18c24d50088ffa4021df40ae055aa86c5e23932e0c0fd9307349a7a76b36c0",
                "blockHeader" : {
                    "bloom" : "0x00000000000000000000000000000000000000000000000000000000000000000000000000000000000000000000000000000000000000000000000000000000000000000000000000000000000000000000000000000000000000000000000000000000000000000000000000000000000000000000000000000000000000000000000000000000000000000000000000000000000000000000000000000000000000000000000000000000000000000000000000000000000000000000000000000000000000000000000000000000000000000000000000000000000000000000000000000000000000000000000000000000000000000000000000000000",
                    "coinbase" : "0x2adc25665018aa1fe0e6bc666dac8fc2697ff9ba",
                    "difficulty" : "0x20000",
                    "extraData" : "0x00",
                    "gasLimit" : "0x5f75e77",
                    "gasUsed" : "0x4dc2c",
                    "hash" : "0x9fd3f4af3774839560ae5f3bb0fd23227fd72e0f944c3e2b67f157f0016801fb",
                    "mixHash" : "0x0000000000000000000000000000000000000000000000000000000000000000",
                    "nonce" : "0x0000000000000000",
                    "number" : "0x1",
                    "parentHash" : "0x20b6d3aa6601e5ca95222394655b3298cc20bc45d6f6862de512a6ac2f1fe4f3",
                    "receiptTrie" : "0xe1b9d785458bc038123139f9dc87c88882991df61b7eb85a90bb5aa00e193c33",
                    "stateRoot" : "0x260b8610531266a9667c28a28b41c4c2935d62b1a27d36a7d0f09a4eaa42a894",
                    "timestamp" : "0x3e8",
                    "transactionsTrie" : "0xe0e38366d34bdc5b0dfc678689718c4e1d29c3e2cf0d2e9ab5b0f2942a610c42",
                    "uncleHash" : "0x1dcc4de8dec75d7aab85b567b6ccd41ad312451b948a7413f0a142fd40d49347"
                },
                "transactions" : [
                    {
                        "data" : "0x00000000000000000000000000000000000000000000000000000000000486a0",
                        "gasLimit" : "0x989680",
                        "gasPrice" : "0x01",
                        "nonce" : "0x00",
                        "to" : "0x095e7baea6a6c7c4c2dfeb977efac326af552d87",
                        "value" : "0x0186a0",
                        "v" : "0x1b",
                        "r" : "0x6b3145bfb899a72fa38a9027c845ce9eb3c545ff9ee39d82deb6ee7131d4c4b1",
                        "s" : "0x499f18c24d50088ffa4021df40ae055aa86c5e23932e0c0fd9307349a7a76b36"
                    }
                ]
            }
        ]
    }
}