{
    "static_CallRecursiveBomb1_d0g0v0_Istanbul" : {
        "_info" : {
            "comment" : "",
            "filling-rpc-server" : "Geth-1.9.6-unstable-63b18027-20190920",
            "filling-tool-version" : "retesteth-0.0.1+commit.0ae18aef.Linux.g++",
            "lllcversion" : "Version: 0.5.12-develop.2019.9.13+commit.2d601a4f.Linux.g++",
            "source" : "src/GeneralStateTestsFiller/stStaticCall/static_CallRecursiveBomb1Filler.json",
            "sourceHash" : "036e5ed7e60533a64d22cbd42ee12a6418d61e6f0c5ef8bc405fc04cfd434692"
        },
        "genesisBlockHeader" : {
            "bloom" : "0x00000000000000000000000000000000000000000000000000000000000000000000000000000000000000000000000000000000000000000000000000000000000000000000000000000000000000000000000000000000000000000000000000000000000000000000000000000000000000000000000000000000000000000000000000000000000000000000000000000000000000000000000000000000000000000000000000000000000000000000000000000000000000000000000000000000000000000000000000000000000000000000000000000000000000000000000000000000000000000000000000000000000000000000000000000000",
            "coinbase" : "0x2adc25665018aa1fe0e6bc666dac8fc2697ff9ba",
            "difficulty" : "0x20000",
            "extraData" : "0x00",
            "gasLimit" : "0x5f5e100",
            "gasUsed" : "0x0",
            "hash" : "0x71b63a073f5cb616edc35e6e40e94579d3224eefe75d0b741825489dbfb2f3f3",
            "mixHash" : "0x0000000000000000000000000000000000000000000000000000000000000000",
            "nonce" : "0x0000000000000000",
            "number" : "0x0",
            "parentHash" : "0x0000000000000000000000000000000000000000000000000000000000000000",
            "receiptTrie" : "0x56e81f171bcc55a6ff8345e692c0f86e5b48e01b996cadc001622fb5e363b421",
            "stateRoot" : "0xe595979a9d331237c9ebdfdcfcebdcc97ca005bb4d6a7ac8780f99bbaab5cd8a",
            "timestamp" : "0x0",
            "transactionsTrie" : "0x56e81f171bcc55a6ff8345e692c0f86e5b48e01b996cadc001622fb5e363b421",
            "uncleHash" : "0x1dcc4de8dec75d7aab85b567b6ccd41ad312451b948a7413f0a142fd40d49347"
        },
        "pre" : {
            "0x095e7baea6a6c7c4c2dfeb977efac326af552d87" : {
                "balance" : "0x01312d00",
                "code" : "0x600160005101600052600060006000600030613a985a03fa00",
                "nonce" : "0x00",
                "storage" : {
                }
            },
            "0x195e7baea6a6c7c4c2dfeb977efac326af552d87" : {
                "balance" : "0x01312d00",
                "code" : "0x6000600060006000600073095e7baea6a6c7c4c2dfeb977efac326af552d875af2505a60015500",
                "nonce" : "0x00",
                "storage" : {
                }
            },
            "0xa94f5374fce5edbc8e2a8697c15331677e6ebf0b" : {
                "balance" : "0x0de0b6b3a7640000",
                "code" : "0x",
                "nonce" : "0x00",
                "storage" : {
                }
            }
        },
        "postState" : {
            "0xa94f5374fce5edbc8e2a8697c15331677e6ebf0b" : {
                "code" : "0x",
                "nonce" : "0x01",
                "balance" : "0x0de0b6b3a6313f24",
                "storage" : {
                }
            },
            "0x095e7baea6a6c7c4c2dfeb977efac326af552d87" : {
                "code" : "0x600160005101600052600060006000600030613a985a03fa00",
                "nonce" : "0x00",
                "balance" : "0x01312d00",
                "storage" : {
                }
            },
            "0x2adc25665018aa1fe0e6bc666dac8fc2697ff9ba" : {
                "code" : "0x",
                "nonce" : "0x00",
                "balance" : "0x1bc16d674ff93a3c",
                "storage" : {
                }
            },
            "0x195e7baea6a6c7c4c2dfeb977efac326af552d87" : {
                "code" : "0x6000600060006000600073095e7baea6a6c7c4c2dfeb977efac326af552d875af2505a60015500",
                "nonce" : "0x00",
                "balance" : "0x0132b3a0",
                "storage" : {
                    "0x01" : "0x09befb"
                }
            }
        },
        "network" : "Istanbul",
        "sealEngine" : "NoProof",
        "lastblockhash" : "0x7d5f3a1cb038de9711124e598f95481b85952e05af80fa3f13a022b7f0290b6c",
        "genesisRLP" : "0xf901f9f901f4a00000000000000000000000000000000000000000000000000000000000000000a01dcc4de8dec75d7aab85b567b6ccd41ad312451b948a7413f0a142fd40d49347942adc25665018aa1fe0e6bc666dac8fc2697ff9baa0e595979a9d331237c9ebdfdcfcebdcc97ca005bb4d6a7ac8780f99bbaab5cd8aa056e81f171bcc55a6ff8345e692c0f86e5b48e01b996cadc001622fb5e363b421a056e81f171bcc55a6ff8345e692c0f86e5b48e01b996cadc001622fb5e363b421b901000000000000000000000000000000000000000000000000000000000000000000000000000000000000000000000000000000000000000000000000000000000000000000000000000000000000000000000000000000000000000000000000000000000000000000000000000000000000000000000000000000000000000000000000000000000000000000000000000000000000000000000000000000000000000000000000000000000000000000000000000000000000000000000000000000000000000000000000000000000000000000000000000000000000000000000000000000000000000000000000000000000000000000000000000000000083020000808405f5e100808000a00000000000000000000000000000000000000000000000000000000000000000880000000000000000c0c0",
        "blocks" : [
            {
                "rlp" : "0xf90266f901faa071b63a073f5cb616edc35e6e40e94579d3224eefe75d0b741825489dbfb2f3f3a01dcc4de8dec75d7aab85b567b6ccd41ad312451b948a7413f0a142fd40d49347942adc25665018aa1fe0e6bc666dac8fc2697ff9baa034cc6f507070644479692bc6f76901d08798fdd686096cc3102c8a1d6d14f8b7a0f43d1bd7037dd2e7bda922e14641314ea9a967237bc8336896eeebee3bf9c445a0f7527418f2ffd9ed051cc75363fea6d8359f2fd761c23b2918ae9c969815c214b901000000000000000000000000000000000000000000000000000000000000000000000000000000000000000000000000000000000000000000000000000000000000000000000000000000000000000000000000000000000000000000000000000000000000000000000000000000000000000000000000000000000000000000000000000000000000000000000000000000000000000000000000000000000000000000000000000000000000000000000000000000000000000000000000000000000000000000000000000000000000000000000000000000000000000000000000000000000000000000000000000000000000000000000000000000000083020000018405f75e778401313a3c8203e800a00000000000000000000000000000000000000000000000000000000000000000880000000000000000f866f864800184013aab1494195e7baea6a6c7c4c2dfeb977efac326af552d87830186a0801ba013a81e9be2457ccf373e1e5a2bbf78298df549ac9f5fd52bfbf18dffebaf0682a01620d812cb14e80794c6e9254f2fe28e7584dc951dfd15fd6acabb83eb885a8bc0",
                "blockHeader" : {
                    "bloom" : "0x00000000000000000000000000000000000000000000000000000000000000000000000000000000000000000000000000000000000000000000000000000000000000000000000000000000000000000000000000000000000000000000000000000000000000000000000000000000000000000000000000000000000000000000000000000000000000000000000000000000000000000000000000000000000000000000000000000000000000000000000000000000000000000000000000000000000000000000000000000000000000000000000000000000000000000000000000000000000000000000000000000000000000000000000000000000",
                    "coinbase" : "0x2adc25665018aa1fe0e6bc666dac8fc2697ff9ba",
                    "difficulty" : "0x20000",
                    "extraData" : "0x00",
                    "gasLimit" : "0x5f75e77",
                    "gasUsed" : "0x1313a3c",
                    "hash" : "0x7d5f3a1cb038de9711124e598f95481b85952e05af80fa3f13a022b7f0290b6c",
                    "mixHash" : "0x0000000000000000000000000000000000000000000000000000000000000000",
                    "nonce" : "0x0000000000000000",
                    "number" : "0x1",
                    "parentHash" : "0x71b63a073f5cb616edc35e6e40e94579d3224eefe75d0b741825489dbfb2f3f3",
                    "receiptTrie" : "0xf7527418f2ffd9ed051cc75363fea6d8359f2fd761c23b2918ae9c969815c214",
                    "stateRoot" : "0x34cc6f507070644479692bc6f76901d08798fdd686096cc3102c8a1d6d14f8b7",
                    "timestamp" : "0x3e8",
                    "transactionsTrie" : "0xf43d1bd7037dd2e7bda922e14641314ea9a967237bc8336896eeebee3bf9c445",
                    "uncleHash" : "0x1dcc4de8dec75d7aab85b567b6ccd41ad312451b948a7413f0a142fd40d49347"
                },
                "transactions" : [
                    {
                        "data" : "0x",
                        "gasLimit" : "0x013aab14",
                        "gasPrice" : "0x01",
                        "nonce" : "0x00",
                        "to" : "0x195e7baea6a6c7c4c2dfeb977efac326af552d87",
                        "value" : "0x0186a0",
                        "v" : "0x1b",
                        "r" : "0x13a81e9be2457ccf373e1e5a2bbf78298df549ac9f5fd52bfbf18dffebaf0682",
                        "s" : "0x1620d812cb14e80794c6e9254f2fe28e7584dc951dfd15fd6acabb83eb885a8b"
                    }
                ]
            }
        ]
    }
}