{
    "static_CallRecursiveBombLog_d0g0v0_Istanbul" : {
        "_info" : {
            "comment" : "",
            "filling-rpc-server" : "Geth-1.9.6-unstable-63b18027-20190920",
            "filling-tool-version" : "retesteth-0.0.1+commit.0ae18aef.Linux.g++",
            "lllcversion" : "Version: 0.5.12-develop.2019.9.13+commit.2d601a4f.Linux.g++",
            "source" : "src/GeneralStateTestsFiller/stStaticCall/static_CallRecursiveBombLogFiller.json",
            "sourceHash" : "f9214402b7afe84abe58467dbde00b35127d0b06c4f5d9092d09c08838422979"
        },
        "genesisBlockHeader" : {
            "bloom" : "0x00000000000000000000000000000000000000000000000000000000000000000000000000000000000000000000000000000000000000000000000000000000000000000000000000000000000000000000000000000000000000000000000000000000000000000000000000000000000000000000000000000000000000000000000000000000000000000000000000000000000000000000000000000000000000000000000000000000000000000000000000000000000000000000000000000000000000000000000000000000000000000000000000000000000000000000000000000000000000000000000000000000000000000000000000000000",
            "coinbase" : "0x2adc25665018aa1fe0e6bc666dac8fc2697ff9ba",
            "difficulty" : "0x20000",
            "extraData" : "0x00",
            "gasLimit" : "0x174876e800",
            "gasUsed" : "0x0",
            "hash" : "0xf6c3f7eda8f8e33cd90c5d68fab70c81010690c74d6fbbcc5787994ee65562c8",
            "mixHash" : "0x0000000000000000000000000000000000000000000000000000000000000000",
            "nonce" : "0x0000000000000000",
            "number" : "0x0",
            "parentHash" : "0x0000000000000000000000000000000000000000000000000000000000000000",
            "receiptTrie" : "0x56e81f171bcc55a6ff8345e692c0f86e5b48e01b996cadc001622fb5e363b421",
            "stateRoot" : "0xfce7e2089fbd9d2df07b75219f56634ea7af4f87af80cf282e426dfa087c9695",
            "timestamp" : "0x0",
            "transactionsTrie" : "0x56e81f171bcc55a6ff8345e692c0f86e5b48e01b996cadc001622fb5e363b421",
            "uncleHash" : "0x1dcc4de8dec75d7aab85b567b6ccd41ad312451b948a7413f0a142fd40d49347"
        },
        "pre" : {
            "0x095e7baea6a6c7c4c2dfeb977efac326af552d87" : {
                "balance" : "0x01312d00",
                "code" : "0x600060006000600073945304eb96065b2a98b57a48a06ae28d285a71b5620186a05a03fa6000555a60015500",
                "nonce" : "0x00",
                "storage" : {
                }
            },
            "0x945304eb96065b2a98b57a48a06ae28d285a71b5" : {
                "balance" : "0x0de0b6b3a7640000",
                "code" : "0x7fffffffffffffffffffffffffffffffffffffffffffffffffffffffffffffffff60005260206000a06000600060006000306161a85a03fa00",
                "nonce" : "0x00",
                "storage" : {
                }
            },
            "0xa94f5374fce5edbc8e2a8697c15331677e6ebf0b" : {
                "balance" : "0x0de0b6b3a7640000",
                "code" : "0x",
                "nonce" : "0x00",
                "storage" : {
                }
            }
        },
        "postState" : {
            "0xa94f5374fce5edbc8e2a8697c15331677e6ebf0b" : {
                "code" : "0x",
                "nonce" : "0x01",
                "balance" : "0x0de0b6b15ca67254",
                "storage" : {
                }
            },
            "0x095e7baea6a6c7c4c2dfeb977efac326af552d87" : {
                "code" : "0x600060006000600073945304eb96065b2a98b57a48a06ae28d285a71b5620186a05a03fa6000555a60015500",
                "nonce" : "0x00",
                "balance" : "0x0132b3a0",
                "storage" : {
                    "0x01" : "0x09502b17"
                }
            },
            "0x2adc25665018aa1fe0e6bc666dac8fc2697ff9ba" : {
                "code" : "0x",
                "nonce" : "0x00",
                "balance" : "0x1bc16d699984070c",
                "storage" : {
                }
            },
            "0x945304eb96065b2a98b57a48a06ae28d285a71b5" : {
                "code" : "0x7fffffffffffffffffffffffffffffffffffffffffffffffffffffffffffffffff60005260206000a06000600060006000306161a85a03fa00",
                "nonce" : "0x00",
                "balance" : "0x0de0b6b3a7640000",
                "storage" : {
                }
            }
        },
        "network" : "Istanbul",
        "sealEngine" : "NoProof",
        "lastblockhash" : "0x466fca078cf5a13bb593014eb7aae02eb101f2c4493d0788c4a86e127247ad7f",
        "genesisRLP" : "0xf901faf901f5a00000000000000000000000000000000000000000000000000000000000000000a01dcc4de8dec75d7aab85b567b6ccd41ad312451b948a7413f0a142fd40d49347942adc25665018aa1fe0e6bc666dac8fc2697ff9baa0fce7e2089fbd9d2df07b75219f56634ea7af4f87af80cf282e426dfa087c9695a056e81f171bcc55a6ff8345e692c0f86e5b48e01b996cadc001622fb5e363b421a056e81f171bcc55a6ff8345e692c0f86e5b48e01b996cadc001622fb5e363b421b9010000000000000000000000000000000000000000000000000000000000000000000000000000000000000000000000000000000000000000000000000000000000000000000000000000000000000000000000000000000000000000000000000000000000000000000000000000000000000000000000000000000000000000000000000000000000000000000000000000000000000000000000000000000000000000000000000000000000000000000000000000000000000000000000000000000000000000000000000000000000000000000000000000000000000000000000000000000000000000000000000000000000000000000000000000000000830200008085174876e800808000a00000000000000000000000000000000000000000000000000000000000000000880000000000000000c0c0",
        "blocks" : [
            {
                "rlp" : "0xf90269f901fca0f6c3f7eda8f8e33cd90c5d68fab70c81010690c74d6fbbcc5787994ee65562c8a01dcc4de8dec75d7aab85b567b6ccd41ad312451b948a7413f0a142fd40d49347942adc25665018aa1fe0e6bc666dac8fc2697ff9baa0f7f03b6c7f9983afbfd4d52e43f47825cee5be3ced5bf23317ee6bfdd9579687a00af7b181de6f4a1f154aa23eb601a797bb2289b039c5756fbe0cbf66a3132e9ba01c8e2a8ba8510783e8e36e3e6f96509b89c2e6b1538f73fac25f988e3aff4d09b9010000000000000000000000000000000000000000000000000000000000000000000000000000000000000000000000000000000000000000000000000000000000000000000000000000000000000000000000000000000000000000000000000000000000000000000000000000000000000000000000000000000000000000000000000000000000000000000000000000000000000000000000000000000000000000000000000000000000000000000000000000000000000000000000000000000000000000000000000000000000000000000000000000000000000000000000000000000000000000000000000000000000000000000000000000000000830200000185174e4905b985024abc070c8203e800a00000000000000000000000000000000000000000000000000000000000000000880000000000000000f867f86580018502540be40094095e7baea6a6c7c4c2dfeb977efac326af552d87830186a0801ba03874910128913e29e0a4feea2af012d8269da44cc1bfacad5d847a8707399affa069ae4529ef229bdb5d99ec7af5293277639304e6eedd39bddbe0a0199ce2783dc0",
                "blockHeader" : {
                    "bloom" : "0x00000000000000000000000000000000000000000000000000000000000000000000000000000000000000000000000000000000000000000000000000000000000000000000000000000000000000000000000000000000000000000000000000000000000000000000000000000000000000000000000000000000000000000000000000000000000000000000000000000000000000000000000000000000000000000000000000000000000000000000000000000000000000000000000000000000000000000000000000000000000000000000000000000000000000000000000000000000000000000000000000000000000000000000000000000000",
                    "coinbase" : "0x2adc25665018aa1fe0e6bc666dac8fc2697ff9ba",
                    "difficulty" : "0x20000",
                    "extraData" : "0x00",
                    "gasLimit" : "0x174e4905b9",
                    "gasUsed" : "0x24abc070c",
                    "hash" : "0x466fca078cf5a13bb593014eb7aae02eb101f2c4493d0788c4a86e127247ad7f",
                    "mixHash" : "0x0000000000000000000000000000000000000000000000000000000000000000",
                    "nonce" : "0x0000000000000000",
                    "number" : "0x1",
                    "parentHash" : "0xf6c3f7eda8f8e33cd90c5d68fab70c81010690c74d6fbbcc5787994ee65562c8",
                    "receiptTrie" : "0x1c8e2a8ba8510783e8e36e3e6f96509b89c2e6b1538f73fac25f988e3aff4d09",
                    "stateRoot" : "0xf7f03b6c7f9983afbfd4d52e43f47825cee5be3ced5bf23317ee6bfdd9579687",
                    "timestamp" : "0x3e8",
                    "transactionsTrie" : "0x0af7b181de6f4a1f154aa23eb601a797bb2289b039c5756fbe0cbf66a3132e9b",
                    "uncleHash" : "0x1dcc4de8dec75d7aab85b567b6ccd41ad312451b948a7413f0a142fd40d49347"
                },
                "transactions" : [
                    {
                        "data" : "0x",
                        "gasLimit" : "0x02540be400",
                        "gasPrice" : "0x01",
                        "nonce" : "0x00",
                        "to" : "0x095e7baea6a6c7c4c2dfeb977efac326af552d87",
                        "value" : "0x0186a0",
                        "v" : "0x1b",
                        "r" : "0x3874910128913e29e0a4feea2af012d8269da44cc1bfacad5d847a8707399aff",
                        "s" : "0x69ae4529ef229bdb5d99ec7af5293277639304e6eedd39bddbe0a0199ce2783d"
                    }
                ]
            }
        ]
    }
}