{
    "static_ReturnTest_d0g0v0_Istanbul" : {
        "_info" : {
            "comment" : "",
            "filling-rpc-server" : "Geth-1.9.6-unstable-63b18027-20190920",
            "filling-tool-version" : "retesteth-0.0.1+commit.0ae18aef.Linux.g++",
            "lllcversion" : "Version: 0.5.12-develop.2019.9.13+commit.2d601a4f.Linux.g++",
            "source" : "src/GeneralStateTestsFiller/stStaticCall/static_ReturnTestFiller.json",
            "sourceHash" : "f1ca227ef49ee9c542fca39b955e319a4d5995a726077cd5495fda07c3fc71ca"
        },
        "genesisBlockHeader" : {
            "bloom" : "0x00000000000000000000000000000000000000000000000000000000000000000000000000000000000000000000000000000000000000000000000000000000000000000000000000000000000000000000000000000000000000000000000000000000000000000000000000000000000000000000000000000000000000000000000000000000000000000000000000000000000000000000000000000000000000000000000000000000000000000000000000000000000000000000000000000000000000000000000000000000000000000000000000000000000000000000000000000000000000000000000000000000000000000000000000000000",
            "coinbase" : "0x2adc25665018aa1fe0e6bc666dac8fc2697ff9ba",
            "difficulty" : "0x20000",
            "extraData" : "0x00",
            "gasLimit" : "0x989680",
            "gasUsed" : "0x0",
            "hash" : "0xe88ee03086f4cf4badfc4a32b04348c511399dd5b85bd8c565b6e756af825de6",
            "mixHash" : "0x0000000000000000000000000000000000000000000000000000000000000000",
            "nonce" : "0x0000000000000000",
            "number" : "0x0",
            "parentHash" : "0x0000000000000000000000000000000000000000000000000000000000000000",
            "receiptTrie" : "0x56e81f171bcc55a6ff8345e692c0f86e5b48e01b996cadc001622fb5e363b421",
            "stateRoot" : "0xec645b8105bc519c3ba96ff78a6d1dbb2d5da7a5faceec9839e8550f63ac50c8",
            "timestamp" : "0x0",
            "transactionsTrie" : "0x56e81f171bcc55a6ff8345e692c0f86e5b48e01b996cadc001622fb5e363b421",
            "uncleHash" : "0x1dcc4de8dec75d7aab85b567b6ccd41ad312451b948a7413f0a142fd40d49347"
        },
        "pre" : {
            "0x194f5374fce5edbc8e2a8697c15331677e6ebf0b" : {
                "balance" : "0x00",
                "code" : "0x6001601f6001601e73b94f5374fce5edbc8e2a8697c15331677e6ebf0b6107d0fa506000516000556002601ef300",
                "nonce" : "0x00",
                "storage" : {
                }
            },
            "0xa94f5374fce5edbc8e2a8697c15331677e6ebf0b" : {
                "balance" : "0x0f4240",
                "code" : "0x",
                "nonce" : "0x00",
                "storage" : {
                }
            },
            "0xb94f5374fce5edbc8e2a8697c15331677e6ebf0b" : {
                "balance" : "0x0186a0",
                "code" : "0x60156000526001601ff300",
                "nonce" : "0x00",
                "storage" : {
                }
            }
        },
        "postState" : {
            "0xa94f5374fce5edbc8e2a8697c15331677e6ebf0b" : {
                "code" : "0x",
                "nonce" : "0x01",
                "balance" : "0x0e9f24",
                "storage" : {
                }
            },
            "0x194f5374fce5edbc8e2a8697c15331677e6ebf0b" : {
                "code" : "0x6001601f6001601e73b94f5374fce5edbc8e2a8697c15331677e6ebf0b6107d0fa506000516000556002601ef300",
                "nonce" : "0x00",
                "balance" : "0x00",
                "storage" : {
                    "0x00" : "0x15"
                }
            },
            "0x2adc25665018aa1fe0e6bc666dac8fc2697ff9ba" : {
                "code" : "0x",
                "nonce" : "0x00",
                "balance" : "0x1bc16d674ec8a31c",
                "storage" : {
                }
            },
            "0xb94f5374fce5edbc8e2a8697c15331677e6ebf0b" : {
                "code" : "0x60156000526001601ff300",
                "nonce" : "0x00",
                "balance" : "0x0186a0",
                "storage" : {
                }
            }
        },
        "network" : "Istanbul",
        "sealEngine" : "NoProof",
        "lastblockhash" : "0x0c7b2c5ce52c2a566e57058a1b3f015e7445ac051c1baeddc46e8ef49d60db43",
        "genesisRLP" : "0xf901f8f901f3a00000000000000000000000000000000000000000000000000000000000000000a01dcc4de8dec75d7aab85b567b6ccd41ad312451b948a7413f0a142fd40d49347942adc25665018aa1fe0e6bc666dac8fc2697ff9baa0ec645b8105bc519c3ba96ff78a6d1dbb2d5da7a5faceec9839e8550f63ac50c8a056e81f171bcc55a6ff8345e692c0f86e5b48e01b996cadc001622fb5e363b421a056e81f171bcc55a6ff8345e692c0f86e5b48e01b996cadc001622fb5e363b421b9010000000000000000000000000000000000000000000000000000000000000000000000000000000000000000000000000000000000000000000000000000000000000000000000000000000000000000000000000000000000000000000000000000000000000000000000000000000000000000000000000000000000000000000000000000000000000000000000000000000000000000000000000000000000000000000000000000000000000000000000000000000000000000000000000000000000000000000000000000000000000000000000000000000000000000000000000000000000000000000000000000000000000000000000000000000000830200008083989680808000a00000000000000000000000000000000000000000000000000000000000000000880000000000000000c0c0",
        "blocks" : [
            {
                "rlp" : "0xf9025ff901f7a0e88ee03086f4cf4badfc4a32b04348c511399dd5b85bd8c565b6e756af825de6a01dcc4de8dec75d7aab85b567b6ccd41ad312451b948a7413f0a142fd40d49347942adc25665018aa1fe0e6bc666dac8fc2697ff9baa00bdc85e56fe54bd375eb8c316542bd9204c0d91f8872877908b6675be323e455a0503f1d6935235f7b7d9d33ff9771fba4c3e8271ddd595fd8b8f29b445b460078a0840ef3967a57f137f8ad565e4ddbcd723d7e45cf2a8c074e4b7a7a86f48fa1e3b901000000000000000000000000000000000000000000000000000000000000000000000000000000000000000000000000000000000000000000000000000000000000000000000000000000000000000000000000000000000000000000000000000000000000000000000000000000000000000000000000000000000000000000000000000000000000000000000000000000000000000000000000000000000000000000000000000000000000000000000000000000000000000000000000000000000000000000000000000000000000000000000000000000000000000000000000000000000000000000000000000000000000000000000000000000000083020000018398bca482a31c8203e800a00000000000000000000000000000000000000000000000000000000000000000880000000000000000f862f8608001830493e094194f5374fce5edbc8e2a8697c15331677e6ebf0b80801ba020da68794ae547ca605073f401fa13b957d3a93590822aa791bf7e5bb04bfad9a001a3212c79d7cbac919724f07da0e43302b7c10d14cba594aadc4220cc735555c0",
                "blockHeader" : {
                    "bloom" : "0x00000000000000000000000000000000000000000000000000000000000000000000000000000000000000000000000000000000000000000000000000000000000000000000000000000000000000000000000000000000000000000000000000000000000000000000000000000000000000000000000000000000000000000000000000000000000000000000000000000000000000000000000000000000000000000000000000000000000000000000000000000000000000000000000000000000000000000000000000000000000000000000000000000000000000000000000000000000000000000000000000000000000000000000000000000000",
                    "coinbase" : "0x2adc25665018aa1fe0e6bc666dac8fc2697ff9ba",
                    "difficulty" : "0x20000",
                    "extraData" : "0x00",
                    "gasLimit" : "0x98bca4",
                    "gasUsed" : "0xa31c",
                    "hash" : "0x0c7b2c5ce52c2a566e57058a1b3f015e7445ac051c1baeddc46e8ef49d60db43",
                    "mixHash" : "0x0000000000000000000000000000000000000000000000000000000000000000",
                    "nonce" : "0x0000000000000000",
                    "number" : "0x1",
                    "parentHash" : "0xe88ee03086f4cf4badfc4a32b04348c511399dd5b85bd8c565b6e756af825de6",
                    "receiptTrie" : "0x840ef3967a57f137f8ad565e4ddbcd723d7e45cf2a8c074e4b7a7a86f48fa1e3",
                    "stateRoot" : "0x0bdc85e56fe54bd375eb8c316542bd9204c0d91f8872877908b6675be323e455",
                    "timestamp" : "0x3e8",
                    "transactionsTrie" : "0x503f1d6935235f7b7d9d33ff9771fba4c3e8271ddd595fd8b8f29b445b460078",
                    "uncleHash" : "0x1dcc4de8dec75d7aab85b567b6ccd41ad312451b948a7413f0a142fd40d49347"
                },
                "transactions" : [
                    {
                        "data" : "0x",
                        "gasLimit" : "0x0493e0",
                        "gasPrice" : "0x01",
                        "nonce" : "0x00",
                        "to" : "0x194f5374fce5edbc8e2a8697c15331677e6ebf0b",
                        "value" : "0x00",
                        "v" : "0x1b",
                        "r" : "0x20da68794ae547ca605073f401fa13b957d3a93590822aa791bf7e5bb04bfad9",
                        "s" : "0x01a3212c79d7cbac919724f07da0e43302b7c10d14cba594aadc4220cc735555"
                    }
                ]
            }
        ]
    }
}