{
    "ContractStoreClearsOOG_d0g0v0_Istanbul" : {
        "_info" : {
            "comment" : "",
            "filling-rpc-server" : "Geth-1.9.6-unstable-63b18027-20190920",
            "filling-tool-version" : "retesteth-0.0.1+commit.0ae18aef.Linux.g++",
            "lllcversion" : "Version: 0.5.12-develop.2019.9.13+commit.2d601a4f.Linux.g++",
            "source" : "src/GeneralStateTestsFiller/stTransactionTest/ContractStoreClearsOOGFiller.json",
            "sourceHash" : "d6ec85d84b735d174bb1422afa2c0a3f496733d504a2e70ce4b0ac8df24127ce"
        },
        "genesisBlockHeader" : {
            "bloom" : "0x00000000000000000000000000000000000000000000000000000000000000000000000000000000000000000000000000000000000000000000000000000000000000000000000000000000000000000000000000000000000000000000000000000000000000000000000000000000000000000000000000000000000000000000000000000000000000000000000000000000000000000000000000000000000000000000000000000000000000000000000000000000000000000000000000000000000000000000000000000000000000000000000000000000000000000000000000000000000000000000000000000000000000000000000000000000",
            "coinbase" : "0xb94f5374fce5edbc8e2a8697c15331677e6ebf0b",
            "difficulty" : "0x20000",
            "extraData" : "0x00",
            "gasLimit" : "0x186a0",
            "gasUsed" : "0x0",
            "hash" : "0x9b01c56d766e9a02c0e03b231a74877f42338d87231066bc292909c98a16b2a7",
            "mixHash" : "0x0000000000000000000000000000000000000000000000000000000000000000",
            "nonce" : "0x0000000000000000",
            "number" : "0x0",
            "parentHash" : "0x0000000000000000000000000000000000000000000000000000000000000000",
            "receiptTrie" : "0x56e81f171bcc55a6ff8345e692c0f86e5b48e01b996cadc001622fb5e363b421",
            "stateRoot" : "0xce0c6be7a190a012a2d50f72ba0e77e1fa316b24d2ae8ce84a118afb1043d4af",
            "timestamp" : "0x0",
            "transactionsTrie" : "0x56e81f171bcc55a6ff8345e692c0f86e5b48e01b996cadc001622fb5e363b421",
            "uncleHash" : "0x1dcc4de8dec75d7aab85b567b6ccd41ad312451b948a7413f0a142fd40d49347"
        },
        "pre" : {
            "0xa94f5374fce5edbc8e2a8697c15331677e6ebf0b" : {
                "balance" : "0x7530",
                "code" : "0x",
                "nonce" : "0x00",
                "storage" : {
                }
            },
            "0xd2571607e241ecf590ed94b12d87c94babe36db6" : {
                "balance" : "0x00",
                "code" : "0x600060005560006001556000600255600060035560006004556000600555600060065560006007556000600855600c60095500",
                "nonce" : "0x00",
                "storage" : {
                    "0x00" : "0x0c",
                    "0x01" : "0x0c",
                    "0x02" : "0x0c",
                    "0x03" : "0x0c",
                    "0x04" : "0x0c",
                    "0x05" : "0x0c",
                    "0x06" : "0x0c",
                    "0x07" : "0x0c",
                    "0x08" : "0x0c",
                    "0x09" : "0x0c"
                }
            }
        },
        "postState" : {
            "0xa94f5374fce5edbc8e2a8697c15331677e6ebf0b" : {
                "code" : "0x",
                "nonce" : "0x01",
                "balance" : "0x1b58",
                "storage" : {
                }
            },
            "0xd2571607e241ecf590ed94b12d87c94babe36db6" : {
                "code" : "0x600060005560006001556000600255600060035560006004556000600555600060065560006007556000600855600c60095500",
                "nonce" : "0x00",
                "balance" : "0x00",
                "storage" : {
                    "0x05" : "0x0c",
                    "0x00" : "0x0c",
                    "0x02" : "0x0c",
                    "0x09" : "0x0c",
                    "0x04" : "0x0c",
                    "0x07" : "0x0c",
                    "0x01" : "0x0c",
                    "0x03" : "0x0c",
                    "0x08" : "0x0c",
                    "0x06" : "0x0c"
                }
            },
            "0xb94f5374fce5edbc8e2a8697c15331677e6ebf0b" : {
                "code" : "0x",
                "nonce" : "0x00",
                "balance" : "0x1bc16d674ec859d8",
                "storage" : {
                }
            }
        },
        "network" : "Istanbul",
        "sealEngine" : "NoProof",
        "lastblockhash" : "0x20a36421534e944cc260c28f08739ff415f9768a2a9923f596779357dc2ded37",
        "genesisRLP" : "0xf901f8f901f3a00000000000000000000000000000000000000000000000000000000000000000a01dcc4de8dec75d7aab85b567b6ccd41ad312451b948a7413f0a142fd40d4934794b94f5374fce5edbc8e2a8697c15331677e6ebf0ba0ce0c6be7a190a012a2d50f72ba0e77e1fa316b24d2ae8ce84a118afb1043d4afa056e81f171bcc55a6ff8345e692c0f86e5b48e01b996cadc001622fb5e363b421a056e81f171bcc55a6ff8345e692c0f86e5b48e01b996cadc001622fb5e363b421b90100000000000000000000000000000000000000000000000000000000000000000000000000000000000000000000000000000000000000000000000000000000000000000000000000000000000000000000000000000000000000000000000000000000000000000000000000000000000000000000000000000000000000000000000000000000000000000000000000000000000000000000000000000000000000000000000000000000000000000000000000000000000000000000000000000000000000000000000000000000000000000000000000000000000000000000000000000000000000000000000000000000000000000000000000000000008302000080830186a0808000a00000000000000000000000000000000000000000000000000000000000000000880000000000000000c0c0",
        "blocks" : [
            {
                "rlp" : "0xf9025ef901f7a09b01c56d766e9a02c0e03b231a74877f42338d87231066bc292909c98a16b2a7a01dcc4de8dec75d7aab85b567b6ccd41ad312451b948a7413f0a142fd40d4934794b94f5374fce5edbc8e2a8697c15331677e6ebf0ba08d514eb074a60cb5a16f2c19baffc776249a9aae326d527e06f61db9331aa9dda0073fdc92ed39f73cf06fd98da8177617251c94db7e50d844acb13f48d624fe0aa0373de1da75dd9d50e359596d3e8cc328b712dc555a823b1bebbe593a1ba54051b90100000000000000000000000000000000000000000000000000000000000000000000000000000000000000000000000000000000000000000000000000000000000000000000000000000000000000000000000000000000000000000000000000000000000000000000000000000000000000000000000000000000000000000000000000000000000000000000000000000000000000000000000000000000000000000000000000000000000000000000000000000000000000000000000000000000000000000000000000000000000000000000000000000000000000000000000000000000000000000000000000000000000000000000000000000000008302000001830187008259d88203e800a00000000000000000000000000000000000000000000000000000000000000000880000000000000000f861f85f80018259d894d2571607e241ecf590ed94b12d87c94babe36db60a801ca0078898154e50fdfdaa1f64855a288f0ca10b822dc72b8ef2fce036e9db2edbaaa06c53d939df28d8da2adc4a724609cf49ddca3017ba777c5eafadb84b352400d9c0",
                "blockHeader" : {
                    "bloom" : "0x00000000000000000000000000000000000000000000000000000000000000000000000000000000000000000000000000000000000000000000000000000000000000000000000000000000000000000000000000000000000000000000000000000000000000000000000000000000000000000000000000000000000000000000000000000000000000000000000000000000000000000000000000000000000000000000000000000000000000000000000000000000000000000000000000000000000000000000000000000000000000000000000000000000000000000000000000000000000000000000000000000000000000000000000000000000",
                    "coinbase" : "0xb94f5374fce5edbc8e2a8697c15331677e6ebf0b",
                    "difficulty" : "0x20000",
                    "extraData" : "0x00",
                    "gasLimit" : "0x18700",
                    "gasUsed" : "0x59d8",
                    "hash" : "0x20a36421534e944cc260c28f08739ff415f9768a2a9923f596779357dc2ded37",
                    "mixHash" : "0x0000000000000000000000000000000000000000000000000000000000000000",
                    "nonce" : "0x0000000000000000",
                    "number" : "0x1",
                    "parentHash" : "0x9b01c56d766e9a02c0e03b231a74877f42338d87231066bc292909c98a16b2a7",
                    "receiptTrie" : "0x373de1da75dd9d50e359596d3e8cc328b712dc555a823b1bebbe593a1ba54051",
                    "stateRoot" : "0x8d514eb074a60cb5a16f2c19baffc776249a9aae326d527e06f61db9331aa9dd",
                    "timestamp" : "0x3e8",
                    "transactionsTrie" : "0x073fdc92ed39f73cf06fd98da8177617251c94db7e50d844acb13f48d624fe0a",
                    "uncleHash" : "0x1dcc4de8dec75d7aab85b567b6ccd41ad312451b948a7413f0a142fd40d49347"
                },
                "transactions" : [
                    {
                        "data" : "0x",
                        "gasLimit" : "0x59d8",
                        "gasPrice" : "0x01",
                        "nonce" : "0x00",
                        "to" : "0xd2571607e241ecf590ed94b12d87c94babe36db6",
                        "value" : "0x0a",
                        "v" : "0x1c",
                        "r" : "0x078898154e50fdfdaa1f64855a288f0ca10b822dc72b8ef2fce036e9db2edbaa",
                        "s" : "0x6c53d939df28d8da2adc4a724609cf49ddca3017ba777c5eafadb84b352400d9"
                    }
                ]
            }
        ]
    }
}