{
    "CreateTransactionSuccess_d0g0v0_Istanbul" : {
        "_info" : {
            "comment" : "",
            "filling-rpc-server" : "Geth-1.9.6-unstable-63b18027-20190920",
            "filling-tool-version" : "retesteth-0.0.1+commit.0ae18aef.Linux.g++",
            "lllcversion" : "Version: 0.5.12-develop.2019.9.13+commit.2d601a4f.Linux.g++",
            "source" : "src/GeneralStateTestsFiller/stTransactionTest/CreateTransactionSuccessFiller.json",
            "sourceHash" : "7cfec809e2be93fd58671c134fcc2223408ed5b3cafa46cb9255a8ddbb5396a5"
        },
        "genesisBlockHeader" : {
            "bloom" : "0x00000000000000000000000000000000000000000000000000000000000000000000000000000000000000000000000000000000000000000000000000000000000000000000000000000000000000000000000000000000000000000000000000000000000000000000000000000000000000000000000000000000000000000000000000000000000000000000000000000000000000000000000000000000000000000000000000000000000000000000000000000000000000000000000000000000000000000000000000000000000000000000000000000000000000000000000000000000000000000000000000000000000000000000000000000000",
            "coinbase" : "0x2adc25665018aa1fe0e6bc666dac8fc2697ff9ba",
            "difficulty" : "0x20000",
            "extraData" : "0x00",
            "gasLimit" : "0xe8d4a51000",
            "gasUsed" : "0x0",
            "hash" : "0xb4d4fb60f026b9029e7e69b45648a158ed39251d0d8d7c49dfe904aef3973373",
            "mixHash" : "0x0000000000000000000000000000000000000000000000000000000000000000",
            "nonce" : "0x0000000000000000",
            "number" : "0x0",
            "parentHash" : "0x0000000000000000000000000000000000000000000000000000000000000000",
            "receiptTrie" : "0x56e81f171bcc55a6ff8345e692c0f86e5b48e01b996cadc001622fb5e363b421",
            "stateRoot" : "0xa3e1c133a5a51b03399ed9ad0380f3182e9e18322f232b816dd4b9094f871e1b",
            "timestamp" : "0x0",
            "transactionsTrie" : "0x56e81f171bcc55a6ff8345e692c0f86e5b48e01b996cadc001622fb5e363b421",
            "uncleHash" : "0x1dcc4de8dec75d7aab85b567b6ccd41ad312451b948a7413f0a142fd40d49347"
        },
        "pre" : {
            "0xa94f5374fce5edbc8e2a8697c15331677e6ebf0b" : {
                "balance" : "0x0186a0",
                "code" : "0x",
                "nonce" : "0x00",
                "storage" : {
                }
            }
        },
        "postState" : {
            "0xa94f5374fce5edbc8e2a8697c15331677e6ebf0b" : {
                "code" : "0x",
                "nonce" : "0x01",
                "balance" : "0x99fa",
                "storage" : {
                }
            },
            "0x2adc25665018aa1fe0e6bc666dac8fc2697ff9ba" : {
                "code" : "0x",
                "nonce" : "0x00",
                "balance" : "0x1bc16d674ec8ec42",
                "storage" : {
                }
            },
            "0x6295ee1b4f6dd65047762f924ecd367c17eabf8f" : {
                "code" : "0x60e060020a600035048063f8a8fd6d14601457005b601a6020565b60006000f35b56",
                "nonce" : "0x01",
                "balance" : "0x64",
                "storage" : {
                }
            }
        },
        "network" : "Istanbul",
        "sealEngine" : "NoProof",
        "lastblockhash" : "0xd82eaa9dee773161a9b44ee4ced75a8350308f20432fc2cc3fe9369a951aa875",
        "genesisRLP" : "0xf901faf901f5a00000000000000000000000000000000000000000000000000000000000000000a01dcc4de8dec75d7aab85b567b6ccd41ad312451b948a7413f0a142fd40d49347942adc25665018aa1fe0e6bc666dac8fc2697ff9baa0a3e1c133a5a51b03399ed9ad0380f3182e9e18322f232b816dd4b9094f871e1ba056e81f171bcc55a6ff8345e692c0f86e5b48e01b996cadc001622fb5e363b421a056e81f171bcc55a6ff8345e692c0f86e5b48e01b996cadc001622fb5e363b421b9010000000000000000000000000000000000000000000000000000000000000000000000000000000000000000000000000000000000000000000000000000000000000000000000000000000000000000000000000000000000000000000000000000000000000000000000000000000000000000000000000000000000000000000000000000000000000000000000000000000000000000000000000000000000000000000000000000000000000000000000000000000000000000000000000000000000000000000000000000000000000000000000000000000000000000000000000000000000000000000000000000000000000000000000000000000000830200008085e8d4a51000808000a00000000000000000000000000000000000000000000000000000000000000000880000000000000000c0c0",
        "blocks" : [
            {
                "rlp" : "0xf9027bf901f9a0b4d4fb60f026b9029e7e69b45648a158ed39251d0d8d7c49dfe904aef3973373a01dcc4de8dec75d7aab85b567b6ccd41ad312451b948a7413f0a142fd40d49347942adc25665018aa1fe0e6bc666dac8fc2697ff9baa0b3efd62ce7c6ac11cf0c7fc1cbe38f1990de4da41af03e30aad64f3ef1fcaa18a0bae8e9273546528dffc1096e056e73ffbdf000a5673d777d3d3dc68adca44ee9a0c214d4f882cf23a54c9284c78e863d997859db0a6948945a1f7418a334878393b9010000000000000000000000000000000000000000000000000000000000000000000000000000000000000000000000000000000000000000000000000000000000000000000000000000000000000000000000000000000000000000000000000000000000000000000000000000000000000000000000000000000000000000000000000000000000000000000000000000000000000000000000000000000000000000000000000000000000000000000000000000000000000000000000000000000000000000000000000000000000000000000000000000000000000000000000000000000000000000000000000000000000000000000000000000000000830200000185e90eda394382ec428203e800a00000000000000000000000000000000000000000000000000000000000000000880000000000000000f87cf87a8001830111708064ae602280600c6000396000f30060e060020a600035048063f8a8fd6d14601457005b601a6020565b60006000f35b561ba01dce1dede104bc6f68b8af4c343eb75494039c7f28b0769425732ef00a4027cca014091d84ea5ebbd4503fad626cca170400acdf4161f7a5aca06e365066230693c0",
                "blockHeader" : {
                    "bloom" : "0x00000000000000000000000000000000000000000000000000000000000000000000000000000000000000000000000000000000000000000000000000000000000000000000000000000000000000000000000000000000000000000000000000000000000000000000000000000000000000000000000000000000000000000000000000000000000000000000000000000000000000000000000000000000000000000000000000000000000000000000000000000000000000000000000000000000000000000000000000000000000000000000000000000000000000000000000000000000000000000000000000000000000000000000000000000000",
                    "coinbase" : "0x2adc25665018aa1fe0e6bc666dac8fc2697ff9ba",
                    "difficulty" : "0x20000",
                    "extraData" : "0x00",
                    "gasLimit" : "0xe90eda3943",
                    "gasUsed" : "0xec42",
                    "hash" : "0xd82eaa9dee773161a9b44ee4ced75a8350308f20432fc2cc3fe9369a951aa875",
                    "mixHash" : "0x0000000000000000000000000000000000000000000000000000000000000000",
                    "nonce" : "0x0000000000000000",
                    "number" : "0x1",
                    "parentHash" : "0xb4d4fb60f026b9029e7e69b45648a158ed39251d0d8d7c49dfe904aef3973373",
                    "receiptTrie" : "0xc214d4f882cf23a54c9284c78e863d997859db0a6948945a1f7418a334878393",
                    "stateRoot" : "0xb3efd62ce7c6ac11cf0c7fc1cbe38f1990de4da41af03e30aad64f3ef1fcaa18",
                    "timestamp" : "0x3e8",
                    "transactionsTrie" : "0xbae8e9273546528dffc1096e056e73ffbdf000a5673d777d3d3dc68adca44ee9",
                    "uncleHash" : "0x1dcc4de8dec75d7aab85b567b6ccd41ad312451b948a7413f0a142fd40d49347"
                },
                "transactions" : [
                    {
                        "data" : "0x602280600c6000396000f30060e060020a600035048063f8a8fd6d14601457005b601a6020565b60006000f35b56",
                        "gasLimit" : "0x011170",
                        "gasPrice" : "0x01",
                        "nonce" : "0x00",
                        "to" : "",
                        "value" : "0x64",
                        "v" : "0x1b",
                        "r" : "0x1dce1dede104bc6f68b8af4c343eb75494039c7f28b0769425732ef00a4027cc",
                        "s" : "0x14091d84ea5ebbd4503fad626cca170400acdf4161f7a5aca06e365066230693"
                    }
                ]
            }
        ]
    }
}