{
    "InternlCallStoreClearsSucces_d0g0v0_Istanbul" : {
        "_info" : {
            "comment" : "",
            "filling-rpc-server" : "Geth-1.9.6-unstable-63b18027-20190920",
            "filling-tool-version" : "retesteth-0.0.1+commit.0ae18aef.Linux.g++",
            "lllcversion" : "Version: 0.5.12-develop.2019.9.13+commit.2d601a4f.Linux.g++",
            "source" : "src/GeneralStateTestsFiller/stTransactionTest/InternlCallStoreClearsSuccesFiller.json",
            "sourceHash" : "bdc78c84c83687ff25791161668c01cea6cc389b2d9808e4fe47c4d4766d5801"
        },
        "genesisBlockHeader" : {
            "bloom" : "0x00000000000000000000000000000000000000000000000000000000000000000000000000000000000000000000000000000000000000000000000000000000000000000000000000000000000000000000000000000000000000000000000000000000000000000000000000000000000000000000000000000000000000000000000000000000000000000000000000000000000000000000000000000000000000000000000000000000000000000000000000000000000000000000000000000000000000000000000000000000000000000000000000000000000000000000000000000000000000000000000000000000000000000000000000000000",
            "coinbase" : "0xb94f5374fce5edbc8e2a8697c15331677e6ebf0b",
            "difficulty" : "0x20000",
            "extraData" : "0x00",
            "gasLimit" : "0xf4240",
            "gasUsed" : "0x0",
            "hash" : "0x29a80ed5e6ae0ca99c2224fb03ce1a40b730665dcf497a1073e2218af3ebf8b8",
            "mixHash" : "0x0000000000000000000000000000000000000000000000000000000000000000",
            "nonce" : "0x0000000000000000",
            "number" : "0x0",
            "parentHash" : "0x0000000000000000000000000000000000000000000000000000000000000000",
            "receiptTrie" : "0x56e81f171bcc55a6ff8345e692c0f86e5b48e01b996cadc001622fb5e363b421",
            "stateRoot" : "0xe6f614bce76d7dc99b953078bf545c8e8f933ef588be0a782dbbf59a6f61c706",
            "timestamp" : "0x0",
            "transactionsTrie" : "0x56e81f171bcc55a6ff8345e692c0f86e5b48e01b996cadc001622fb5e363b421",
            "uncleHash" : "0x1dcc4de8dec75d7aab85b567b6ccd41ad312451b948a7413f0a142fd40d49347"
        },
        "pre" : {
            "0x0000000000000000000000000000000000000000" : {
                "balance" : "0x00",
                "code" : "0x600060005560006001556000600255600060035560006004556000600555600060065560006007556000600855600060095500",
                "nonce" : "0x00",
                "storage" : {
                    "0x00" : "0x0c",
                    "0x01" : "0x0c",
                    "0x02" : "0x0c",
                    "0x03" : "0x0c",
                    "0x04" : "0x0c",
                    "0x05" : "0x0c",
                    "0x06" : "0x0c",
                    "0x07" : "0x0c",
                    "0x08" : "0x0c",
                    "0x09" : "0x0c"
                }
            },
            "0xa94f5374fce5edbc8e2a8697c15331677e6ebf0b" : {
                "balance" : "0x0f4240",
                "code" : "0x",
                "nonce" : "0x00",
                "storage" : {
                }
            },
            "0xc94f5374fce5edbc8e2a8697c15331677e6ebf0b" : {
                "balance" : "0x0a",
                "code" : "0x600060006000600060016000620186a0f100",
                "nonce" : "0x00",
                "storage" : {
                }
            }
        },
        "postState" : {
            "0xa94f5374fce5edbc8e2a8697c15331677e6ebf0b" : {
                "code" : "0x",
                "nonce" : "0x01",
                "balance" : "0x0ea8ed",
                "storage" : {
                }
            },
            "0x0000000000000000000000000000000000000000" : {
                "code" : "0x600060005560006001556000600255600060035560006004556000600555600060065560006007556000600855600060095500",
                "nonce" : "0x00",
                "balance" : "0x01",
                "storage" : {
                }
            },
            "0xc94f5374fce5edbc8e2a8697c15331677e6ebf0b" : {
                "code" : "0x600060006000600060016000620186a0f100",
                "nonce" : "0x00",
                "balance" : "0x13",
                "storage" : {
                }
            },
            "0xb94f5374fce5edbc8e2a8697c15331677e6ebf0b" : {
                "code" : "0x",
                "nonce" : "0x00",
                "balance" : "0x1bc16d674ec89949",
                "storage" : {
                }
            }
        },
        "network" : "Istanbul",
        "sealEngine" : "NoProof",
        "lastblockhash" : "0x620e8a3184e47f4d28f670081f37c6a50cd4ff14b199103842ff4015085bb8c0",
        "genesisRLP" : "0xf901f8f901f3a00000000000000000000000000000000000000000000000000000000000000000a01dcc4de8dec75d7aab85b567b6ccd41ad312451b948a7413f0a142fd40d4934794b94f5374fce5edbc8e2a8697c15331677e6ebf0ba0e6f614bce76d7dc99b953078bf545c8e8f933ef588be0a782dbbf59a6f61c706a056e81f171bcc55a6ff8345e692c0f86e5b48e01b996cadc001622fb5e363b421a056e81f171bcc55a6ff8345e692c0f86e5b48e01b996cadc001622fb5e363b421b90100000000000000000000000000000000000000000000000000000000000000000000000000000000000000000000000000000000000000000000000000000000000000000000000000000000000000000000000000000000000000000000000000000000000000000000000000000000000000000000000000000000000000000000000000000000000000000000000000000000000000000000000000000000000000000000000000000000000000000000000000000000000000000000000000000000000000000000000000000000000000000000000000000000000000000000000000000000000000000000000000000000000000000000000000000000008302000080830f4240808000a00000000000000000000000000000000000000000000000000000000000000000880000000000000000c0c0",
        "blocks" : [
            {
                "rlp" : "0xf9025ff901f7a029a80ed5e6ae0ca99c2224fb03ce1a40b730665dcf497a1073e2218af3ebf8b8a01dcc4de8dec75d7aab85b567b6ccd41ad312451b948a7413f0a142fd40d4934794b94f5374fce5edbc8e2a8697c15331677e6ebf0ba03b6b57566f85a1034992dc0810e81710bb64f6f3a5ff69b3f57380024fbd2a14a0697b6901f21d7a5c6656c92a058d90d332475dbc868c5e5891574a7353c66c69a0e935804369730a03edd0d5f0df4a070439038c62be79425b3a8a47204bfb77dcb90100000000000000000000000000000000000000000000000000000000000000000000000000000000000000000000000000000000000000000000000000000000000000000000000000000000000000000000000000000000000000000000000000000000000000000000000000000000000000000000000000000000000000000000000000000000000000000000000000000000000000000000000000000000000000000000000000000000000000000000000000000000000000000000000000000000000000000000000000000000000000000000000000000000000000000000000000000000000000000000000000000000000000000000000000000000008302000001830f460f8299498203e800a00000000000000000000000000000000000000000000000000000000000000000880000000000000000f862f86080018302710094c94f5374fce5edbc8e2a8697c15331677e6ebf0b0a801ba07d0c2d1a8f354d9b41ffb01da17110ef2b4e8e713376f984ee6ba756b27bfe4fa003ec23ba795f690f5c9f21c570fdfe4f5be181a68c6616198b814af7b763c928c0",
                "blockHeader" : {
                    "bloom" : "0x00000000000000000000000000000000000000000000000000000000000000000000000000000000000000000000000000000000000000000000000000000000000000000000000000000000000000000000000000000000000000000000000000000000000000000000000000000000000000000000000000000000000000000000000000000000000000000000000000000000000000000000000000000000000000000000000000000000000000000000000000000000000000000000000000000000000000000000000000000000000000000000000000000000000000000000000000000000000000000000000000000000000000000000000000000000",
                    "coinbase" : "0xb94f5374fce5edbc8e2a8697c15331677e6ebf0b",
                    "difficulty" : "0x20000",
                    "extraData" : "0x00",
                    "gasLimit" : "0xf460f",
                    "gasUsed" : "0x9949",
                    "hash" : "0x620e8a3184e47f4d28f670081f37c6a50cd4ff14b199103842ff4015085bb8c0",
                    "mixHash" : "0x0000000000000000000000000000000000000000000000000000000000000000",
                    "nonce" : "0x0000000000000000",
                    "number" : "0x1",
                    "parentHash" : "0x29a80ed5e6ae0ca99c2224fb03ce1a40b730665dcf497a1073e2218af3ebf8b8",
                    "receiptTrie" : "0xe935804369730a03edd0d5f0df4a070439038c62be79425b3a8a47204bfb77dc",
                    "stateRoot" : "0x3b6b57566f85a1034992dc0810e81710bb64f6f3a5ff69b3f57380024fbd2a14",
                    "timestamp" : "0x3e8",
                    "transactionsTrie" : "0x697b6901f21d7a5c6656c92a058d90d332475dbc868c5e5891574a7353c66c69",
                    "uncleHash" : "0x1dcc4de8dec75d7aab85b567b6ccd41ad312451b948a7413f0a142fd40d49347"
                },
                "transactions" : [
                    {
                        "data" : "0x",
                        "gasLimit" : "0x027100",
                        "gasPrice" : "0x01",
                        "nonce" : "0x00",
                        "to" : "0xc94f5374fce5edbc8e2a8697c15331677e6ebf0b",
                        "value" : "0x0a",
                        "v" : "0x1b",
                        "r" : "0x7d0c2d1a8f354d9b41ffb01da17110ef2b4e8e713376f984ee6ba756b27bfe4f",
                        "s" : "0x03ec23ba795f690f5c9f21c570fdfe4f5be181a68c6616198b814af7b763c928"
                    }
                ]
            }
        ]
    }
}