{
    "OverflowGasRequire2_d0g0v0_Istanbul" : {
        "_info" : {
            "comment" : "",
            "filling-rpc-server" : "Geth-1.9.6-unstable-63b18027-20190920",
            "filling-tool-version" : "retesteth-0.0.1+commit.0ae18aef.Linux.g++",
            "lllcversion" : "Version: 0.5.12-develop.2019.9.13+commit.2d601a4f.Linux.g++",
            "source" : "src/GeneralStateTestsFiller/stTransactionTest/OverflowGasRequire2Filler.json",
            "sourceHash" : "9ea7b3d705fe84095c60db580e79b51fd344f8d722bcab525487ab7b4c56df2f"
        },
        "genesisBlockHeader" : {
            "bloom" : "0x00000000000000000000000000000000000000000000000000000000000000000000000000000000000000000000000000000000000000000000000000000000000000000000000000000000000000000000000000000000000000000000000000000000000000000000000000000000000000000000000000000000000000000000000000000000000000000000000000000000000000000000000000000000000000000000000000000000000000000000000000000000000000000000000000000000000000000000000000000000000000000000000000000000000000000000000000000000000000000000000000000000000000000000000000000000",
            "coinbase" : "0x2adc25665018aa1fe0e6bc666dac8fc2697ff9ba",
            "difficulty" : "0x20000",
            "extraData" : "0x00",
            "gasLimit" : "0x7fffffffffffffff",
            "gasUsed" : "0x0",
            "hash" : "0x7bd18f11a7cbcbaa5d6025ea6eabf3d61be2a703e8a766b3992de919adb35109",
            "mixHash" : "0x0000000000000000000000000000000000000000000000000000000000000000",
            "nonce" : "0x0000000000000000",
            "number" : "0x0",
            "parentHash" : "0x0000000000000000000000000000000000000000000000000000000000000000",
            "receiptTrie" : "0x56e81f171bcc55a6ff8345e692c0f86e5b48e01b996cadc001622fb5e363b421",
            "stateRoot" : "0x21e74bd5b4b29e241d402d6d7483d050bbdfcf2ae943522c2875c3f293e1ce70",
            "timestamp" : "0x0",
            "transactionsTrie" : "0x56e81f171bcc55a6ff8345e692c0f86e5b48e01b996cadc001622fb5e363b421",
            "uncleHash" : "0x1dcc4de8dec75d7aab85b567b6ccd41ad312451b948a7413f0a142fd40d49347"
        },
        "pre" : {
            "0xa94f5374fce5edbc8e2a8697c15331677e6ebf0b" : {
                "balance" : "0xffffffffffffffffffffffffffffffffffffffffffffffffffffffffffffffff",
                "code" : "0x",
                "nonce" : "0x00",
                "storage" : {
                }
            }
        },
        "postState" : {
            "0xa94f5374fce5edbc8e2a8697c15331677e6ebf0b" : {
                "code" : "0x",
                "nonce" : "0x01",
                "balance" : "0xffffffffffffffffffffffffffffffffffffffffffffffffffffffffffe6357f",
                "storage" : {
                }
            },
            "0x2adc25665018aa1fe0e6bc666dac8fc2697ff9ba" : {
                "code" : "0x",
                "nonce" : "0x00",
                "balance" : "0x1bc16d674ee1ca80",
                "storage" : {
                }
            }
        },
        "network" : "Istanbul",
        "sealEngine" : "NoProof",
        "lastblockhash" : "0xd35338c639e0ead62b3089614967fb46168fedda8afa324b3005cda88c9dd743",
        "genesisRLP" : "0xf901fdf901f8a00000000000000000000000000000000000000000000000000000000000000000a01dcc4de8dec75d7aab85b567b6ccd41ad312451b948a7413f0a142fd40d49347942adc25665018aa1fe0e6bc666dac8fc2697ff9baa021e74bd5b4b29e241d402d6d7483d050bbdfcf2ae943522c2875c3f293e1ce70a056e81f171bcc55a6ff8345e692c0f86e5b48e01b996cadc001622fb5e363b421a056e81f171bcc55a6ff8345e692c0f86e5b48e01b996cadc001622fb5e363b421b90100000000000000000000000000000000000000000000000000000000000000000000000000000000000000000000000000000000000000000000000000000000000000000000000000000000000000000000000000000000000000000000000000000000000000000000000000000000000000000000000000000000000000000000000000000000000000000000000000000000000000000000000000000000000000000000000000000000000000000000000000000000000000000000000000000000000000000000000000000000000000000000000000000000000000000000000000000000000000000000000000000000000000000000000000000000008302000080887fffffffffffffff808000a00000000000000000000000000000000000000000000000000000000000000000880000000000000000c0c0",
        "blocks" : [
            {
                "rlp" : "0xf90271f901fca07bd18f11a7cbcbaa5d6025ea6eabf3d61be2a703e8a766b3992de919adb35109a01dcc4de8dec75d7aab85b567b6ccd41ad312451b948a7413f0a142fd40d49347942adc25665018aa1fe0e6bc666dac8fc2697ff9baa0b631b25c5cc0e998fbb110d17fc49b99c8ce808678a1f9845ddd55951d4605aba0543ce10966d974105195ed934ed36512377d0b22187b1766a181b483ec73aac7a026b8f9256c4c32d39bc89cb0d1abf07f52355e8648fba5ef69b7fb0e3707513eb90100000000000000000000000000000000000000000000000000000000000000000000000000000000000000000000000000000000000000000000000000000000000000000000000000000000000000000000000000000000000000000000000000000000000000000000000000000000000000000000000000000000000000000000000000000000000000000000000000000000000000000000000000000000000000000000000000000000000000000000000000000000000000000000000000000000000000000000000000000000000000000000000000000000000000000000000000000000000000000000000000000000000000000000000000000000008302000001887fffffffffffffff8252888203e800a00000000000000000000000000000000000000000000000000000000000000000880000000000000000f86ff86d805088100000000000000094b94f5374fce5edbc8e2a8697c15331677e6ebf0b808832403495489834541ba0ad09f36b8b3e242c628ba02751a13cebdbccc36ce52be40b18332e91eb6a8cb1a07381f8aa7848dc2650f37c3c559b4bcbceddf329939ce6e3bdd1e36781b0b746c0",
                "blockHeader" : {
                    "bloom" : "0x00000000000000000000000000000000000000000000000000000000000000000000000000000000000000000000000000000000000000000000000000000000000000000000000000000000000000000000000000000000000000000000000000000000000000000000000000000000000000000000000000000000000000000000000000000000000000000000000000000000000000000000000000000000000000000000000000000000000000000000000000000000000000000000000000000000000000000000000000000000000000000000000000000000000000000000000000000000000000000000000000000000000000000000000000000000",
                    "coinbase" : "0x2adc25665018aa1fe0e6bc666dac8fc2697ff9ba",
                    "difficulty" : "0x20000",
                    "extraData" : "0x00",
                    "gasLimit" : "0x7fffffffffffffff",
                    "gasUsed" : "0x5288",
                    "hash" : "0xd35338c639e0ead62b3089614967fb46168fedda8afa324b3005cda88c9dd743",
                    "mixHash" : "0x0000000000000000000000000000000000000000000000000000000000000000",
                    "nonce" : "0x0000000000000000",
                    "number" : "0x1",
                    "parentHash" : "0x7bd18f11a7cbcbaa5d6025ea6eabf3d61be2a703e8a766b3992de919adb35109",
                    "receiptTrie" : "0x26b8f9256c4c32d39bc89cb0d1abf07f52355e8648fba5ef69b7fb0e3707513e",
                    "stateRoot" : "0xb631b25c5cc0e998fbb110d17fc49b99c8ce808678a1f9845ddd55951d4605ab",
                    "timestamp" : "0x3e8",
                    "transactionsTrie" : "0x543ce10966d974105195ed934ed36512377d0b22187b1766a181b483ec73aac7",
                    "uncleHash" : "0x1dcc4de8dec75d7aab85b567b6ccd41ad312451b948a7413f0a142fd40d49347"
                },
                "transactions" : [
                    {
                        "data" : "0x3240349548983454",
                        "gasLimit" : "0x1000000000000000",
                        "gasPrice" : "0x50",
                        "nonce" : "0x00",
                        "to" : "0xb94f5374fce5edbc8e2a8697c15331677e6ebf0b",
                        "value" : "0x00",
                        "v" : "0x1b",
                        "r" : "0xad09f36b8b3e242c628ba02751a13cebdbccc36ce52be40b18332e91eb6a8cb1",
                        "s" : "0x7381f8aa7848dc2650f37c3c559b4bcbceddf329939ce6e3bdd1e36781b0b746"
                    }
                ]
            }
        ]
    }
}