{
    "SuicidesAndInternlCallSuicidesSuccess_d0g0v0_Istanbul" : {
        "_info" : {
            "comment" : "",
            "filling-rpc-server" : "Geth-1.9.6-unstable-63b18027-20190920",
            "filling-tool-version" : "retesteth-0.0.1+commit.0ae18aef.Linux.g++",
            "lllcversion" : "Version: 0.5.12-develop.2019.9.13+commit.2d601a4f.Linux.g++",
            "source" : "src/GeneralStateTestsFiller/stTransactionTest/SuicidesAndInternlCallSuicidesSuccessFiller.json",
            "sourceHash" : "0d035b97a68621a515f5395c348bbb685b122e8be58c20e40276f2734935c459"
        },
        "genesisBlockHeader" : {
            "bloom" : "0x00000000000000000000000000000000000000000000000000000000000000000000000000000000000000000000000000000000000000000000000000000000000000000000000000000000000000000000000000000000000000000000000000000000000000000000000000000000000000000000000000000000000000000000000000000000000000000000000000000000000000000000000000000000000000000000000000000000000000000000000000000000000000000000000000000000000000000000000000000000000000000000000000000000000000000000000000000000000000000000000000000000000000000000000000000000",
            "coinbase" : "0xb94f5374fce5edbc8e2a8697c15331677e6ebf0b",
            "difficulty" : "0x20000",
            "extraData" : "0x00",
            "gasLimit" : "0x989680",
            "gasUsed" : "0x0",
            "hash" : "0x54f45da9a46946750c47e5c25b7cd32995ae4a33987589a26405c82d31d95413",
            "mixHash" : "0x0000000000000000000000000000000000000000000000000000000000000000",
            "nonce" : "0x0000000000000000",
            "number" : "0x0",
            "parentHash" : "0x0000000000000000000000000000000000000000000000000000000000000000",
            "receiptTrie" : "0x56e81f171bcc55a6ff8345e692c0f86e5b48e01b996cadc001622fb5e363b421",
            "stateRoot" : "0xd917b3082f2d7a9ce9e83cc7e1031c4fc7546702d165892710db5d249645866c",
            "timestamp" : "0x0",
            "transactionsTrie" : "0x56e81f171bcc55a6ff8345e692c0f86e5b48e01b996cadc001622fb5e363b421",
            "uncleHash" : "0x1dcc4de8dec75d7aab85b567b6ccd41ad312451b948a7413f0a142fd40d49347"
        },
        "pre" : {
            "0x0000000000000000000000000000000000000000" : {
                "balance" : "0x00",
                "code" : "0x6001ff00",
                "nonce" : "0x00",
                "storage" : {
                }
            },
            "0xa94f5374fce5edbc8e2a8697c15331677e6ebf0b" : {
                "balance" : "0x02bf20",
                "code" : "0x",
                "nonce" : "0x00",
                "storage" : {
                }
            },
            "0xc94f5374fce5edbc8e2a8697c15331677e6ebf0b" : {
                "balance" : "0x03e8",
                "code" : "0x600060006000600060016000600035f1506000ff00",
                "nonce" : "0x00",
                "storage" : {
                }
            }
        },
        "postState" : {
            "0xa94f5374fce5edbc8e2a8697c15331677e6ebf0b" : {
                "code" : "0x",
                "nonce" : "0x01",
                "balance" : "0x023abd",
                "storage" : {
                }
            },
            "0x0000000000000000000000000000000000000000" : {
                "code" : "0x6001ff00",
                "nonce" : "0x00",
                "balance" : "0x03f2",
                "storage" : {
                }
            },
            "0xb94f5374fce5edbc8e2a8697c15331677e6ebf0b" : {
                "code" : "0x",
                "nonce" : "0x00",
                "balance" : "0x1bc16d674ec88459",
                "storage" : {
                }
            }
        },
        "network" : "Istanbul",
        "sealEngine" : "NoProof",
        "lastblockhash" : "0xee711f073f5037e4e100b0ab2716659f694f07b987cf622c2ca818f4674084df",
        "genesisRLP" : "0xf901f8f901f3a00000000000000000000000000000000000000000000000000000000000000000a01dcc4de8dec75d7aab85b567b6ccd41ad312451b948a7413f0a142fd40d4934794b94f5374fce5edbc8e2a8697c15331677e6ebf0ba0d917b3082f2d7a9ce9e83cc7e1031c4fc7546702d165892710db5d249645866ca056e81f171bcc55a6ff8345e692c0f86e5b48e01b996cadc001622fb5e363b421a056e81f171bcc55a6ff8345e692c0f86e5b48e01b996cadc001622fb5e363b421b9010000000000000000000000000000000000000000000000000000000000000000000000000000000000000000000000000000000000000000000000000000000000000000000000000000000000000000000000000000000000000000000000000000000000000000000000000000000000000000000000000000000000000000000000000000000000000000000000000000000000000000000000000000000000000000000000000000000000000000000000000000000000000000000000000000000000000000000000000000000000000000000000000000000000000000000000000000000000000000000000000000000000000000000000000000000000830200008083989680808000a00000000000000000000000000000000000000000000000000000000000000000880000000000000000c0c0",
        "blocks" : [
            {
                "rlp" : "0xf9027ff901f7a054f45da9a46946750c47e5c25b7cd32995ae4a33987589a26405c82d31d95413a01dcc4de8dec75d7aab85b567b6ccd41ad312451b948a7413f0a142fd40d4934794b94f5374fce5edbc8e2a8697c15331677e6ebf0ba0c9097edbe83ee98dc77f2480ca711d0b69f4db8d70b38b9bac3fd66c5889e2b4a024bde6e3c80a3d190bff24a4adacd0f9517242bf4fd0f8c3efd766ae2ec9a88fa01a3a8a6cb8d73f3ed90f4bf92d156e4ab7ef19b274362698432c43817ce3a403b901000000000000000000000000000000000000000000000000000000000000000000000000000000000000000000000000000000000000000000000000000000000000000000000000000000000000000000000000000000000000000000000000000000000000000000000000000000000000000000000000000000000000000000000000000000000000000000000000000000000000000000000000000000000000000000000000000000000000000000000000000000000000000000000000000000000000000000000000000000000000000000000000000000000000000000000000000000000000000000000000000000000000000000000000000000000083020000018398bca48284598203e800a00000000000000000000000000000000000000000000000000000000000000000880000000000000000f882f8808001830249f094c94f5374fce5edbc8e2a8697c15331677e6ebf0b0aa000000000000000000000000000000000000000000000000000000000000055f01ba04e64e95f563f664980d5e9640c45e6d521997c02b7c0e3872142092a44ed31e4a025faaf4bcb2b7d3a896f9c5902afef5959f67ff021c27e116ba20ded8cc55b79c0",
                "blockHeader" : {
                    "bloom" : "0x00000000000000000000000000000000000000000000000000000000000000000000000000000000000000000000000000000000000000000000000000000000000000000000000000000000000000000000000000000000000000000000000000000000000000000000000000000000000000000000000000000000000000000000000000000000000000000000000000000000000000000000000000000000000000000000000000000000000000000000000000000000000000000000000000000000000000000000000000000000000000000000000000000000000000000000000000000000000000000000000000000000000000000000000000000000",
                    "coinbase" : "0xb94f5374fce5edbc8e2a8697c15331677e6ebf0b",
                    "difficulty" : "0x20000",
                    "extraData" : "0x00",
                    "gasLimit" : "0x98bca4",
                    "gasUsed" : "0x8459",
                    "hash" : "0xee711f073f5037e4e100b0ab2716659f694f07b987cf622c2ca818f4674084df",
                    "mixHash" : "0x0000000000000000000000000000000000000000000000000000000000000000",
                    "nonce" : "0x0000000000000000",
                    "number" : "0x1",
                    "parentHash" : "0x54f45da9a46946750c47e5c25b7cd32995ae4a33987589a26405c82d31d95413",
                    "receiptTrie" : "0x1a3a8a6cb8d73f3ed90f4bf92d156e4ab7ef19b274362698432c43817ce3a403",
                    "stateRoot" : "0xc9097edbe83ee98dc77f2480ca711d0b69f4db8d70b38b9bac3fd66c5889e2b4",
                    "timestamp" : "0x3e8",
                    "transactionsTrie" : "0x24bde6e3c80a3d190bff24a4adacd0f9517242bf4fd0f8c3efd766ae2ec9a88f",
                    "uncleHash" : "0x1dcc4de8dec75d7aab85b567b6ccd41ad312451b948a7413f0a142fd40d49347"
                },
                "transactions" : [
                    {
                        "data" : "0x00000000000000000000000000000000000000000000000000000000000055f0",
                        "gasLimit" : "0x0249f0",
                        "gasPrice" : "0x01",
                        "nonce" : "0x00",
                        "to" : "0xc94f5374fce5edbc8e2a8697c15331677e6ebf0b",
                        "value" : "0x0a",
                        "v" : "0x1b",
                        "r" : "0x4e64e95f563f664980d5e9640c45e6d521997c02b7c0e3872142092a44ed31e4",
                        "s" : "0x25faaf4bcb2b7d3a896f9c5902afef5959f67ff021c27e116ba20ded8cc55b79"
                    }
                ]
            }
        ]
    },
    "SuicidesAndInternlCallSuicidesSuccess_d1g0v0_Istanbul" : {
        "_info" : {
            "comment" : "",
            "filling-rpc-server" : "Geth-1.9.6-unstable-63b18027-20190920",
            "filling-tool-version" : "retesteth-0.0.1+commit.0ae18aef.Linux.g++",
            "lllcversion" : "Version: 0.5.12-develop.2019.9.13+commit.2d601a4f.Linux.g++",
            "source" : "src/GeneralStateTestsFiller/stTransactionTest/SuicidesAndInternlCallSuicidesSuccessFiller.json",
            "sourceHash" : "0d035b97a68621a515f5395c348bbb685b122e8be58c20e40276f2734935c459"
        },
        "genesisBlockHeader" : {
            "bloom" : "0x00000000000000000000000000000000000000000000000000000000000000000000000000000000000000000000000000000000000000000000000000000000000000000000000000000000000000000000000000000000000000000000000000000000000000000000000000000000000000000000000000000000000000000000000000000000000000000000000000000000000000000000000000000000000000000000000000000000000000000000000000000000000000000000000000000000000000000000000000000000000000000000000000000000000000000000000000000000000000000000000000000000000000000000000000000000",
            "coinbase" : "0xb94f5374fce5edbc8e2a8697c15331677e6ebf0b",
            "difficulty" : "0x20000",
            "extraData" : "0x00",
            "gasLimit" : "0x989680",
            "gasUsed" : "0x0",
            "hash" : "0x54f45da9a46946750c47e5c25b7cd32995ae4a33987589a26405c82d31d95413",
            "mixHash" : "0x0000000000000000000000000000000000000000000000000000000000000000",
            "nonce" : "0x0000000000000000",
            "number" : "0x0",
            "parentHash" : "0x0000000000000000000000000000000000000000000000000000000000000000",
            "receiptTrie" : "0x56e81f171bcc55a6ff8345e692c0f86e5b48e01b996cadc001622fb5e363b421",
            "stateRoot" : "0xd917b3082f2d7a9ce9e83cc7e1031c4fc7546702d165892710db5d249645866c",
            "timestamp" : "0x0",
            "transactionsTrie" : "0x56e81f171bcc55a6ff8345e692c0f86e5b48e01b996cadc001622fb5e363b421",
            "uncleHash" : "0x1dcc4de8dec75d7aab85b567b6ccd41ad312451b948a7413f0a142fd40d49347"
        },
        "pre" : {
            "0x0000000000000000000000000000000000000000" : {
                "balance" : "0x00",
                "code" : "0x6001ff00",
                "nonce" : "0x00",
                "storage" : {
                }
            },
            "0xa94f5374fce5edbc8e2a8697c15331677e6ebf0b" : {
                "balance" : "0x02bf20",
                "code" : "0x",
                "nonce" : "0x00",
                "storage" : {
                }
            },
            "0xc94f5374fce5edbc8e2a8697c15331677e6ebf0b" : {
                "balance" : "0x03e8",
                "code" : "0x600060006000600060016000600035f1506000ff00",
                "nonce" : "0x00",
                "storage" : {
                }
            }
        },
        "postState" : {
            "0xa94f5374fce5edbc8e2a8697c15331677e6ebf0b" : {
                "code" : "0x",
                "nonce" : "0x01",
                "balance" : "0x0242e6",
                "storage" : {
                }
            },
            "0x0000000000000000000000000000000000000001" : {
                "code" : "0x",
                "nonce" : "0x00",
                "balance" : "0x01",
                "storage" : {
                }
            },
            "0xb94f5374fce5edbc8e2a8697c15331677e6ebf0b" : {
                "code" : "0x",
                "nonce" : "0x00",
                "balance" : "0x1bc16d674ec87c30",
                "storage" : {
                }
            }
        },
        "network" : "Istanbul",
        "sealEngine" : "NoProof",
        "lastblockhash" : "0xfd7955936cf9fd05483de3c582383e6c24c199314e9d71a891fe3440f671bef2",
        "genesisRLP" : "0xf901f8f901f3a00000000000000000000000000000000000000000000000000000000000000000a01dcc4de8dec75d7aab85b567b6ccd41ad312451b948a7413f0a142fd40d4934794b94f5374fce5edbc8e2a8697c15331677e6ebf0ba0d917b3082f2d7a9ce9e83cc7e1031c4fc7546702d165892710db5d249645866ca056e81f171bcc55a6ff8345e692c0f86e5b48e01b996cadc001622fb5e363b421a056e81f171bcc55a6ff8345e692c0f86e5b48e01b996cadc001622fb5e363b421b9010000000000000000000000000000000000000000000000000000000000000000000000000000000000000000000000000000000000000000000000000000000000000000000000000000000000000000000000000000000000000000000000000000000000000000000000000000000000000000000000000000000000000000000000000000000000000000000000000000000000000000000000000000000000000000000000000000000000000000000000000000000000000000000000000000000000000000000000000000000000000000000000000000000000000000000000000000000000000000000000000000000000000000000000000000000000830200008083989680808000a00000000000000000000000000000000000000000000000000000000000000000880000000000000000c0c0",
        "blocks" : [
            {
                "rlp" : "0xf9027ff901f7a054f45da9a46946750c47e5c25b7cd32995ae4a33987589a26405c82d31d95413a01dcc4de8dec75d7aab85b567b6ccd41ad312451b948a7413f0a142fd40d4934794b94f5374fce5edbc8e2a8697c15331677e6ebf0ba042c2301badfcd8ed3f0fa9ab52a9542e309a83a4e26d6fd8bde24057515b334ea0ecdbcc32127a4eaad7830507ce6cea6fd67734fc8c786cb867498651f9693ba5a0752ac993dfd63274075fd41f71ffc8cbacf23f78d51104f6453c359765726b52b901000000000000000000000000000000000000000000000000000000000000000000000000000000000000000000000000000000000000000000000000000000000000000000000000000000000000000000000000000000000000000000000000000000000000000000000000000000000000000000000000000000000000000000000000000000000000000000000000000000000000000000000000000000000000000000000000000000000000000000000000000000000000000000000000000000000000000000000000000000000000000000000000000000000000000000000000000000000000000000000000000000000000000000000000000000000083020000018398bca4827c308203e800a00000000000000000000000000000000000000000000000000000000000000000880000000000000000f882f8808001830249f094c94f5374fce5edbc8e2a8697c15331677e6ebf0b0aa0000000000000000000000000000000000000000000000000000000000000aaf01ca0ffc8340a8f6e6f369044ede589bb7fc1ad1ad193715f1a1a949c9fcd8f22b722a04508a1cb07debf43cbdb34b65dcf18c9ac42550487afdff6c30ab349540771a8c0",
                "blockHeader" : {
                    "bloom" : "0x00000000000000000000000000000000000000000000000000000000000000000000000000000000000000000000000000000000000000000000000000000000000000000000000000000000000000000000000000000000000000000000000000000000000000000000000000000000000000000000000000000000000000000000000000000000000000000000000000000000000000000000000000000000000000000000000000000000000000000000000000000000000000000000000000000000000000000000000000000000000000000000000000000000000000000000000000000000000000000000000000000000000000000000000000000000",
                    "coinbase" : "0xb94f5374fce5edbc8e2a8697c15331677e6ebf0b",
                    "difficulty" : "0x20000",
                    "extraData" : "0x00",
                    "gasLimit" : "0x98bca4",
                    "gasUsed" : "0x7c30",
                    "hash" : "0xfd7955936cf9fd05483de3c582383e6c24c199314e9d71a891fe3440f671bef2",
                    "mixHash" : "0x0000000000000000000000000000000000000000000000000000000000000000",
                    "nonce" : "0x0000000000000000",
                    "number" : "0x1",
                    "parentHash" : "0x54f45da9a46946750c47e5c25b7cd32995ae4a33987589a26405c82d31d95413",
                    "receiptTrie" : "0x752ac993dfd63274075fd41f71ffc8cbacf23f78d51104f6453c359765726b52",
                    "stateRoot" : "0x42c2301badfcd8ed3f0fa9ab52a9542e309a83a4e26d6fd8bde24057515b334e",
                    "timestamp" : "0x3e8",
                    "transactionsTrie" : "0xecdbcc32127a4eaad7830507ce6cea6fd67734fc8c786cb867498651f9693ba5",
                    "uncleHash" : "0x1dcc4de8dec75d7aab85b567b6ccd41ad312451b948a7413f0a142fd40d49347"
                },
                "transactions" : [
                    {
                        "data" : "0x000000000000000000000000000000000000000000000000000000000000aaf0",
                        "gasLimit" : "0x0249f0",
                        "gasPrice" : "0x01",
                        "nonce" : "0x00",
                        "to" : "0xc94f5374fce5edbc8e2a8697c15331677e6ebf0b",
                        "value" : "0x0a",
                        "v" : "0x1c",
                        "r" : "0xffc8340a8f6e6f369044ede589bb7fc1ad1ad193715f1a1a949c9fcd8f22b722",
                        "s" : "0x4508a1cb07debf43cbdb34b65dcf18c9ac42550487afdff6c30ab349540771a8"
                    }
                ]
            }
        ]
    }
}