{
    "BadStateRootTxBC_Istanbul" : {
        "_info" : {
            "comment" : "",
            "filledwith" : "testeth 1.8.0-alpha.0-12+commit.b120a12c.dirty",
            "lllcversion" : "Version: 0.5.12-develop.2019.9.13+commit.2d601a4f.Linux.g++",
            "source" : "src/BlockchainTestsFiller/ValidBlocks/bcStateTests/BadStateRootTxBCFiller.json",
            "sourceHash" : "59fd898fbb0ea0e34943753b3f7d772e07baba82b69c20c64323ad9a2e2d227a"
        },
        "blocks" : [
            {
                "blockHeader" : {
                    "bloom" : "0x00000000000000000000000000000000000000000000000000000000000000000000000000000000000000000000000000000000000000000000000000000000000000000000000000000000000000000000000000000000000000000000000000000000000000000000000000000000000000000000000000000000000000000000000000000000000000000000000000000000000000000000000000000000000000000000000000000000000000000000000000000000000000000000000000000000000000000000000000000000000000000000000000000000000000000000000000000000000000000000000000000000000000000000000000000000",
                    "coinbase" : "0x2adc25665018aa1fe0e6bc666dac8fc2697ff9ba",
                    "difficulty" : "0x020000",
                    "extraData" : "",
                    "gasLimit" : "0x7fffffffffffffff",
                    "gasUsed" : "0x556d",
                    "hash" : "0x861fdae807172f6ce058fcc7e7f4f8deae29dea5c1a562bc33f86063b990903d",
                    "mixHash" : "0x0000000000000000000000000000000000000000000000000000000000000000",
                    "nonce" : "0x0000000000000000",
                    "number" : "0x01",
                    "parentHash" : "0xa8b4f02ce7cac2047999dda3f507d46c68188dce95ae4e74c490a2d57c5f795e",
                    "receiptTrie" : "0x5fa98a3ba1e25059bf41376c6f9a57b500a02c14c6a87afd1665a3906c4afd51",
                    "stateRoot" : "0x6a117466ec6b8dbea3a613366a1b468bdeb6282e0156772c81cc2139caa7c88e",
                    "timestamp" : "0x03e8",
                    "transactionsTrie" : "0x76660905a74ef4a24b19295d8740a349b1170d3298118106201d43cd7886afbf",
                    "uncleHash" : "0x1dcc4de8dec75d7aab85b567b6ccd41ad312451b948a7413f0a142fd40d49347"
                },
                "rlp" : "0xf902c5f901fca0a8b4f02ce7cac2047999dda3f507d46c68188dce95ae4e74c490a2d57c5f795ea01dcc4de8dec75d7aab85b567b6ccd41ad312451b948a7413f0a142fd40d49347942adc25665018aa1fe0e6bc666dac8fc2697ff9baa06a117466ec6b8dbea3a613366a1b468bdeb6282e0156772c81cc2139caa7c88ea076660905a74ef4a24b19295d8740a349b1170d3298118106201d43cd7886afbfa05fa98a3ba1e25059bf41376c6f9a57b500a02c14c6a87afd1665a3906c4afd51b90100000000000000000000000000000000000000000000000000000000000000000000000000000000000000000000000000000000000000000000000000000000000000000000000000000000000000000000000000000000000000000000000000000000000000000000000000000000000000000000000000000000000000000000000000000000000000000000000000000000000000000000000000000000000000000000000000000000000000000000000000000000000000000000000000000000000000000000000000000000000000000000000000000000000000000000000000000000000000000000000000000000000000000000000000000000008302000001887fffffffffffffff82556d8203e880a00000000000000000000000000000000000000000000000000000000000000000880000000000000000f8c3f8c1800183030d40941baf27b88c48dd02b744999cf3522766929d2b2a80b86000000000000000000000000000000000000000000000000000000000000bc03712fac13c68425054e372b0861af05648614d69d32800fba9ad4522238d4b937a00000000000000000000000000000000000000000000000000000000000000001ca03d55a2ac293c7ad82632b18705e67ad2a0e6177d44f601dca043934c8cd8c07aa01c069ed47162b350a1f496e9a55f53685189e9c3076a4931334a43719b9a158ec0",
                "transactions" : [
                    {
                        "data" : "0x00000000000000000000000000000000000000000000000000000000000bc03712fac13c68425054e372b0861af05648614d69d32800fba9ad4522238d4b937a0000000000000000000000000000000000000000000000000000000000000000",
                        "gasLimit" : "0x030d40",
                        "gasPrice" : "0x01",
                        "nonce" : "0x00",
                        "r" : "0x3d55a2ac293c7ad82632b18705e67ad2a0e6177d44f601dca043934c8cd8c07a",
                        "s" : "0x1c069ed47162b350a1f496e9a55f53685189e9c3076a4931334a43719b9a158e",
                        "to" : "0x1baf27b88c48dd02b744999cf3522766929d2b2a",
                        "v" : "0x1c",
                        "value" : "0x00"
                    }
                ],
                "uncleHeaders" : [
                ]
            }
        ],
        "genesisBlockHeader" : {
            "bloom" : "0x00000000000000000000000000000000000000000000000000000000000000000000000000000000000000000000000000000000000000000000000000000000000000000000000000000000000000000000000000000000000000000000000000000000000000000000000000000000000000000000000000000000000000000000000000000000000000000000000000000000000000000000000000000000000000000000000000000000000000000000000000000000000000000000000000000000000000000000000000000000000000000000000000000000000000000000000000000000000000000000000000000000000000000000000000000000",
            "coinbase" : "0x2adc25665018aa1fe0e6bc666dac8fc2697ff9ba",
            "difficulty" : "0x020000",
            "extraData" : "0x42",
            "gasLimit" : "0x7fffffffffffffff",
            "gasUsed" : "0x00",
            "hash" : "0xa8b4f02ce7cac2047999dda3f507d46c68188dce95ae4e74c490a2d57c5f795e",
            "mixHash" : "0x56e81f171bcc55a6ff8345e692c0f86e5b48e01b996cadc001622fb5e363b421",
            "nonce" : "0x0102030405060708",
            "number" : "0x00",
            "parentHash" : "0x0000000000000000000000000000000000000000000000000000000000000000",
            "receiptTrie" : "0x56e81f171bcc55a6ff8345e692c0f86e5b48e01b996cadc001622fb5e363b421",
            "stateRoot" : "0x423c3994e5db8348336dd13c498b840988ea7f716a0b876af847c6b8a3446e43",
            "timestamp" : "0x03b6",
            "transactionsTrie" : "0x56e81f171bcc55a6ff8345e692c0f86e5b48e01b996cadc001622fb5e363b421",
            "uncleHash" : "0x1dcc4de8dec75d7aab85b567b6ccd41ad312451b948a7413f0a142fd40d49347"
        },
        "genesisRLP" : "0xf901fff901faa00000000000000000000000000000000000000000000000000000000000000000a01dcc4de8dec75d7aab85b567b6ccd41ad312451b948a7413f0a142fd40d49347942adc25665018aa1fe0e6bc666dac8fc2697ff9baa0423c3994e5db8348336dd13c498b840988ea7f716a0b876af847c6b8a3446e43a056e81f171bcc55a6ff8345e692c0f86e5b48e01b996cadc001622fb5e363b421a056e81f171bcc55a6ff8345e692c0f86e5b48e01b996cadc001622fb5e363b421b90100000000000000000000000000000000000000000000000000000000000000000000000000000000000000000000000000000000000000000000000000000000000000000000000000000000000000000000000000000000000000000000000000000000000000000000000000000000000000000000000000000000000000000000000000000000000000000000000000000000000000000000000000000000000000000000000000000000000000000000000000000000000000000000000000000000000000000000000000000000000000000000000000000000000000000000000000000000000000000000000000000000000000000000000000000000008302000080887fffffffffffffff808203b642a056e81f171bcc55a6ff8345e692c0f86e5b48e01b996cadc001622fb5e363b421880102030405060708c0c0",
        "lastblockhash" : "0x861fdae807172f6ce058fcc7e7f4f8deae29dea5c1a562bc33f86063b990903d",
        "network" : "Istanbul",
        "postState" : {
            "0x1baf27b88c48dd02b744999cf3522766929d2b2a" : {
                "balance" : "0x03e8",
                "code" : "0x600073a94f5374fce5edbc8e2a8697c15331677e6ebf0b3314156023573540602035145b15602e576040356000555b",
                "nonce" : "0x00",
                "storage" : {
                }
            },
            "0x2adc25665018aa1fe0e6bc666dac8fc2697ff9ba" : {
                "balance" : "0x1bc16d674ec8556d",
                "code" : "",
                "nonce" : "0x00",
                "storage" : {
                }
            },
            "0xa94f5374fce5edbc8e2a8697c15331677e6ebf0b" : {
                "balance" : "0x1e2f13",
                "code" : "",
                "nonce" : "0x01",
                "storage" : {
                }
            }
        },
        "pre" : {
            "0x1baf27b88c48dd02b744999cf3522766929d2b2a" : {
                "balance" : "0x03e8",
                "code" : "0x600073a94f5374fce5edbc8e2a8697c15331677e6ebf0b3314156023573540602035145b15602e576040356000555b",
                "nonce" : "0x00",
                "storage" : {
                }
            },
            "0xa94f5374fce5edbc8e2a8697c15331677e6ebf0b" : {
                "balance" : "0x1e8480",
                "code" : "",
                "nonce" : "0x00",
                "storage" : {
                }
            }
        },
        "sealEngine" : "NoProof"
    }
}