{
    "blockhashTests_Istanbul" : {
        "_info" : {
            "comment" : "",
            "filledwith" : "testeth 1.8.0-alpha.0-12+commit.b120a12c.dirty",
            "lllcversion" : "Version: 0.5.12-develop.2019.9.13+commit.2d601a4f.Linux.g++",
            "source" : "src/BlockchainTestsFiller/ValidBlocks/bcStateTests/blockhashTestsFiller.json",
            "sourceHash" : "25814d3869f0ac4933b0c77d7193d89de1029adc9f76b6350ddd04e7094c6560"
        },
        "blocks" : [
            {
                "blockHeader" : {
                    "bloom" : "0x00000000000000000000000000000000000000000000000000000000000000000000000000000000000000000000000000000000000000000000000000000000000000000000000000000000000000000000000000000000000000000000000000000000000000000000000000000000000000000000000000000000000000000000000000000000000000000000000000000000000000000000000000000000000000000000000000000000000000000000000000000000000000000000000000000000000000000000000000000000000000000000000000000000000000000000000000000000000000000000000000000000000000000000000000000000",
                    "coinbase" : "0x8888f1f195afa192cfee860698584c030f4c9db1",
                    "difficulty" : "0x020000",
                    "extraData" : "",
                    "gasLimit" : "0x2fefba",
                    "gasUsed" : "0xa6b6",
                    "hash" : "0x04bb0c58d46d6c06f4abdf4e5604131c3a00354a64f07f71f48752a27b1d2cb4",
                    "mixHash" : "0x0000000000000000000000000000000000000000000000000000000000000000",
                    "nonce" : "0x0000000000000000",
                    "number" : "0x01",
                    "parentHash" : "0x96c4aefa5e7fd08ef135fa6d8fb2d5686ad357401e824eb7b61310baa848be6f",
                    "receiptTrie" : "0x065371cbc393ce04f896b5722208fddb49391eae0cc771f236b947166ee57e6d",
                    "stateRoot" : "0x476421db7102241c5d99ec62fc8641d94106d6ead1c942d334633af54017ecce",
                    "timestamp" : "0x5db73204",
                    "transactionsTrie" : "0xd6ba91470a65633ad8e430f5e77ee4a78fcbc83700385d342db5ff39989ea497",
                    "uncleHash" : "0x1dcc4de8dec75d7aab85b567b6ccd41ad312451b948a7413f0a142fd40d49347"
                },
                "rlp" : "0xf90261f901f9a096c4aefa5e7fd08ef135fa6d8fb2d5686ad357401e824eb7b61310baa848be6fa01dcc4de8dec75d7aab85b567b6ccd41ad312451b948a7413f0a142fd40d49347948888f1f195afa192cfee860698584c030f4c9db1a0476421db7102241c5d99ec62fc8641d94106d6ead1c942d334633af54017eccea0d6ba91470a65633ad8e430f5e77ee4a78fcbc83700385d342db5ff39989ea497a0065371cbc393ce04f896b5722208fddb49391eae0cc771f236b947166ee57e6db90100000000000000000000000000000000000000000000000000000000000000000000000000000000000000000000000000000000000000000000000000000000000000000000000000000000000000000000000000000000000000000000000000000000000000000000000000000000000000000000000000000000000000000000000000000000000000000000000000000000000000000000000000000000000000000000000000000000000000000000000000000000000000000000000000000000000000000000000000000000000000000000000000000000000000000000000000000000000000000000000000000000000000000000000000000000008302000001832fefba82a6b6845db7320480a00000000000000000000000000000000000000000000000000000000000000000880000000000000000f862f8608001830249f094095e7baea6a6c7c4c2dfeb977efac326af552d8780801ba08f7d4d301a80268a68d5d45905cc84a1e05b4e11cfb1d04ec7a4a5c4a23b5c90a0499c4eee3f24777a1d34dc19c24b62634b9b92ecbb1fd87ea5e7b845f2ba16c3c0",
                "transactions" : [
                    {
                        "data" : "0x",
                        "gasLimit" : "0x0249f0",
                        "gasPrice" : "0x01",
                        "nonce" : "0x00",
                        "r" : "0x8f7d4d301a80268a68d5d45905cc84a1e05b4e11cfb1d04ec7a4a5c4a23b5c90",
                        "s" : "0x499c4eee3f24777a1d34dc19c24b62634b9b92ecbb1fd87ea5e7b845f2ba16c3",
                        "to" : "0x095e7baea6a6c7c4c2dfeb977efac326af552d87",
                        "v" : "0x1b",
                        "value" : "0x00"
                    }
                ],
                "uncleHeaders" : [
                ]
            },
            {
                "blockHeader" : {
                    "bloom" : "0x00000000000000000000000000000000000000000000000000000000000000000000000000000000000000000000000000000000000000000000000000000000000000000000000000000000000000000000000000000000000000000000000000000000000000000000000000000000000000000000000000000000000000000000000000000000000000000000000000000000000000000000000000000000000000000000000000000000000000000000000000000000000000000000000000000000000000000000000000000000000000000000000000000000000000000000000000000000000000000000000000000000000000000000000000000000",
                    "coinbase" : "0x8888f1f195afa192cfee860698584c030f4c9db1",
                    "difficulty" : "0x020040",
                    "extraData" : "",
                    "gasLimit" : "0x2fefba",
                    "gasUsed" : "0x0249f0",
                    "hash" : "0x88fc1b301d05809de93cc90e857b6566ab4a4fb7c463fa310933aa336909fbd6",
                    "mixHash" : "0x0000000000000000000000000000000000000000000000000000000000000000",
                    "nonce" : "0x0000000000000000",
                    "number" : "0x02",
                    "parentHash" : "0x04bb0c58d46d6c06f4abdf4e5604131c3a00354a64f07f71f48752a27b1d2cb4",
                    "receiptTrie" : "0xa0e10907f175886de9bd8cd4ac2c21d1db4109a3a9fecf60f54015ee102803fd",
                    "stateRoot" : "0x66f757908d37418a63c1710f883da28d7bd9b74143b449c7cb7ac4120a7a16e1",
                    "timestamp" : "0x5db73205",
                    "transactionsTrie" : "0xd954a5202e78be1de112b20b2cfd81b0671426b93c739bf5c6fa87ae8213197a",
                    "uncleHash" : "0x1dcc4de8dec75d7aab85b567b6ccd41ad312451b948a7413f0a142fd40d49347"
                },
                "rlp" : "0xf90262f901faa004bb0c58d46d6c06f4abdf4e5604131c3a00354a64f07f71f48752a27b1d2cb4a01dcc4de8dec75d7aab85b567b6ccd41ad312451b948a7413f0a142fd40d49347948888f1f195afa192cfee860698584c030f4c9db1a066f757908d37418a63c1710f883da28d7bd9b74143b449c7cb7ac4120a7a16e1a0d954a5202e78be1de112b20b2cfd81b0671426b93c739bf5c6fa87ae8213197aa0a0e10907f175886de9bd8cd4ac2c21d1db4109a3a9fecf60f54015ee102803fdb90100000000000000000000000000000000000000000000000000000000000000000000000000000000000000000000000000000000000000000000000000000000000000000000000000000000000000000000000000000000000000000000000000000000000000000000000000000000000000000000000000000000000000000000000000000000000000000000000000000000000000000000000000000000000000000000000000000000000000000000000000000000000000000000000000000000000000000000000000000000000000000000000000000000000000000000000000000000000000000000000000000000000000000000000000000000008302004002832fefba830249f0845db7320580a00000000000000000000000000000000000000000000000000000000000000000880000000000000000f862f8600180830249f094195e7baea6a6c7c4c2dfeb977efac326af552d8780801ba0ef2b3ee7fab91f73e7d1be76f0698c08df26d48c12be1a3c330d3f5dff39e856a025b8af8c65b0bd99dd4998fabea60caee571797731eac5569ee5f79ecada5759c0",
                "transactions" : [
                    {
                        "data" : "0x",
                        "gasLimit" : "0x0249f0",
                        "gasPrice" : "0x00",
                        "nonce" : "0x01",
                        "r" : "0xef2b3ee7fab91f73e7d1be76f0698c08df26d48c12be1a3c330d3f5dff39e856",
                        "s" : "0x25b8af8c65b0bd99dd4998fabea60caee571797731eac5569ee5f79ecada5759",
                        "to" : "0x195e7baea6a6c7c4c2dfeb977efac326af552d87",
                        "v" : "0x1b",
                        "value" : "0x00"
                    }
                ],
                "uncleHeaders" : [
                ]
            },
            {
                "blockHeader" : {
                    "bloom" : "0x00000000000000000000000000000000000000000000000000000000000000000000000000000000000000000000000000000000000000000000000000000000000000000000000000000000000000000000000000000000000000000000000000000000000000000000000000000000000000000000000000000000000000000000000000000000000000000000000000000000000000000000000000000000000000000000000000000000000000000000000000000000000000000000000000000000000000000000000000000000000000000000000000000000000000000000000000000000000000000000000000000000000000000000000000000000",
                    "coinbase" : "0x8888f1f195afa192cfee860698584c030f4c9db1",
                    "difficulty" : "0x020080",
                    "extraData" : "",
                    "gasLimit" : "0x2fefba",
                    "gasUsed" : "0xa6b6",
                    "hash" : "0x337a19ffdbd841b6c0c6627ff91a53bbef1f14bc9f0267b1dc384e2619fedd04",
                    "mixHash" : "0x0000000000000000000000000000000000000000000000000000000000000000",
                    "nonce" : "0x0000000000000000",
                    "number" : "0x03",
                    "parentHash" : "0x88fc1b301d05809de93cc90e857b6566ab4a4fb7c463fa310933aa336909fbd6",
                    "receiptTrie" : "0x065371cbc393ce04f896b5722208fddb49391eae0cc771f236b947166ee57e6d",
                    "stateRoot" : "0x258bd4b98e87e97b79698ca5f354f2ab7daa7ecc69dcf00f9e2731d2c3292b03",
                    "timestamp" : "0x5db73206",
                    "transactionsTrie" : "0xe7a583cf499521fb1b10b3a375047663e25fd78b3db53b1e92e1c41e53cbb23d",
                    "uncleHash" : "0x1dcc4de8dec75d7aab85b567b6ccd41ad312451b948a7413f0a142fd40d49347"
                },
                "rlp" : "0xf90261f901f9a088fc1b301d05809de93cc90e857b6566ab4a4fb7c463fa310933aa336909fbd6a01dcc4de8dec75d7aab85b567b6ccd41ad312451b948a7413f0a142fd40d49347948888f1f195afa192cfee860698584c030f4c9db1a0258bd4b98e87e97b79698ca5f354f2ab7daa7ecc69dcf00f9e2731d2c3292b03a0e7a583cf499521fb1b10b3a375047663e25fd78b3db53b1e92e1c41e53cbb23da0065371cbc393ce04f896b5722208fddb49391eae0cc771f236b947166ee57e6db90100000000000000000000000000000000000000000000000000000000000000000000000000000000000000000000000000000000000000000000000000000000000000000000000000000000000000000000000000000000000000000000000000000000000000000000000000000000000000000000000000000000000000000000000000000000000000000000000000000000000000000000000000000000000000000000000000000000000000000000000000000000000000000000000000000000000000000000000000000000000000000000000000000000000000000000000000000000000000000000000000000000000000000000000000000000008302008003832fefba82a6b6845db7320680a00000000000000000000000000000000000000000000000000000000000000000880000000000000000f862f8600280830249f094295e7baea6a6c7c4c2dfeb977efac326af552d8780801ca0a37e56d9fcf9bcb6a4240007f7a298e4557e84a41317ad8a54c6f758670dfdcfa079c6ba18545fe9c7e7b934ee3d441a9160f63ffd8916318e2fb2f8dbd58c5aa2c0",
                "transactions" : [
                    {
                        "data" : "0x",
                        "gasLimit" : "0x0249f0",
                        "gasPrice" : "0x00",
                        "nonce" : "0x02",
                        "r" : "0xa37e56d9fcf9bcb6a4240007f7a298e4557e84a41317ad8a54c6f758670dfdcf",
                        "s" : "0x79c6ba18545fe9c7e7b934ee3d441a9160f63ffd8916318e2fb2f8dbd58c5aa2",
                        "to" : "0x295e7baea6a6c7c4c2dfeb977efac326af552d87",
                        "v" : "0x1c",
                        "value" : "0x00"
                    }
                ],
                "uncleHeaders" : [
                ]
            },
            {
                "blockHeader" : {
                    "bloom" : "0x00000000000000000000000000000000000000000000000000000000000000000000000000000000000000000000000000000000000000000000000000000000000000000000000000000000000000000000000000000000000000000000000000000000000000000000000000000000000000000000000000000000000000000000000000000000000000000000000000000000000000000000000000000000000000000000000000000000000000000000000000000000000000000000000000000000000000000000000000000000000000000000000000000000000000000000000000000000000000000000000000000000000000000000000000000000",
                    "coinbase" : "0x8888f1f195afa192cfee860698584c030f4c9db1",
                    "difficulty" : "0x0200c0",
                    "extraData" : "",
                    "gasLimit" : "0x2fefba",
                    "gasUsed" : "0xa37c",
                    "hash" : "0x681d54651f5ce98a8e7f8750e8b0b0c80b5e689bb8f9327638df402a5dfde24a",
                    "mixHash" : "0x0000000000000000000000000000000000000000000000000000000000000000",
                    "nonce" : "0x0000000000000000",
                    "number" : "0x04",
                    "parentHash" : "0x337a19ffdbd841b6c0c6627ff91a53bbef1f14bc9f0267b1dc384e2619fedd04",
                    "receiptTrie" : "0x3fbb193da2ab82e108395799e878c98233d4849364391f2e19a798fb70a262fb",
                    "stateRoot" : "0xc3cc16b483ff53ddacea9122c81f5c45bd41e2ccbcc920e0ddf8e2ab2d57199a",
                    "timestamp" : "0x5db73207",
                    "transactionsTrie" : "0x39949f1106c123c2b08c5d83d1901d8f52b8ea143715aff7bb41b20421a5a3f7",
                    "uncleHash" : "0x1dcc4de8dec75d7aab85b567b6ccd41ad312451b948a7413f0a142fd40d49347"
                },
                "rlp" : "0xf90261f901f9a0337a19ffdbd841b6c0c6627ff91a53bbef1f14bc9f0267b1dc384e2619fedd04a01dcc4de8dec75d7aab85b567b6ccd41ad312451b948a7413f0a142fd40d49347948888f1f195afa192cfee860698584c030f4c9db1a0c3cc16b483ff53ddacea9122c81f5c45bd41e2ccbcc920e0ddf8e2ab2d57199aa039949f1106c123c2b08c5d83d1901d8f52b8ea143715aff7bb41b20421a5a3f7a03fbb193da2ab82e108395799e878c98233d4849364391f2e19a798fb70a262fbb9010000000000000000000000000000000000000000000000000000000000000000000000000000000000000000000000000000000000000000000000000000000000000000000000000000000000000000000000000000000000000000000000000000000000000000000000000000000000000000000000000000000000000000000000000000000000000000000000000000000000000000000000000000000000000000000000000000000000000000000000000000000000000000000000000000000000000000000000000000000000000000000000000000000000000000000000000000000000000000000000000000000000000000000000000000000000830200c004832fefba82a37c845db7320780a00000000000000000000000000000000000000000000000000000000000000000880000000000000000f862f8600380830249f094395e7baea6a6c7c4c2dfeb977efac326af552d8780801ba07a287ed5f28cb05cfca14aedc3f5c6adcb1d5508f8ffc1a1a80e6807ef92c881a06788de15c61f27947a7c2e3dad465db599dbe5205deb1f1336722c058b4f0b11c0",
                "transactions" : [
                    {
                        "data" : "0x",
                        "gasLimit" : "0x0249f0",
                        "gasPrice" : "0x00",
                        "nonce" : "0x03",
                        "r" : "0x7a287ed5f28cb05cfca14aedc3f5c6adcb1d5508f8ffc1a1a80e6807ef92c881",
                        "s" : "0x6788de15c61f27947a7c2e3dad465db599dbe5205deb1f1336722c058b4f0b11",
                        "to" : "0x395e7baea6a6c7c4c2dfeb977efac326af552d87",
                        "v" : "0x1b",
                        "value" : "0x00"
                    }
                ],
                "uncleHeaders" : [
                ]
            },
            {
                "blockHeader" : {
                    "bloom" : "0x00000000000000000000000000000000000000000000000000000000000000000000000000000000000000000000000000000000000000000000000000000000000000000000000000000000000000000000000000000000000000000000000000000000000000000000000000000000000000000000000000000000000000000000000000000000000000000000000000000000000000000000000000000000000000000000000000000000000000000000000000000000000000000000000000000000000000000000000000000000000000000000000000000000000000000000000000000000000000000000000000000000000000000000000000000000",
                    "coinbase" : "0x8888f1f195afa192cfee860698584c030f4c9db1",
                    "difficulty" : "0x020100",
                    "extraData" : "",
                    "gasLimit" : "0x2fefba",
                    "gasUsed" : "0xa6b6",
                    "hash" : "0x99e2436c7cfffb39489ddba75be388ed6bee3b13815dea5b19f53faee89dcf49",
                    "mixHash" : "0x0000000000000000000000000000000000000000000000000000000000000000",
                    "nonce" : "0x0000000000000000",
                    "number" : "0x05",
                    "parentHash" : "0x681d54651f5ce98a8e7f8750e8b0b0c80b5e689bb8f9327638df402a5dfde24a",
                    "receiptTrie" : "0x065371cbc393ce04f896b5722208fddb49391eae0cc771f236b947166ee57e6d",
                    "stateRoot" : "0xe4f1b793752153a7339b6ce8fcf23ec365631c83f325a0a50c20c0741cf99855",
                    "timestamp" : "0x5db73208",
                    "transactionsTrie" : "0x41159ca0124f819b698853a7387ce44c5f62b720be5fbbf848064bfde11cbc98",
                    "uncleHash" : "0x1dcc4de8dec75d7aab85b567b6ccd41ad312451b948a7413f0a142fd40d49347"
                },
                "rlp" : "0xf90261f901f9a0681d54651f5ce98a8e7f8750e8b0b0c80b5e689bb8f9327638df402a5dfde24aa01dcc4de8dec75d7aab85b567b6ccd41ad312451b948a7413f0a142fd40d49347948888f1f195afa192cfee860698584c030f4c9db1a0e4f1b793752153a7339b6ce8fcf23ec365631c83f325a0a50c20c0741cf99855a041159ca0124f819b698853a7387ce44c5f62b720be5fbbf848064bfde11cbc98a0065371cbc393ce04f896b5722208fddb49391eae0cc771f236b947166ee57e6db90100000000000000000000000000000000000000000000000000000000000000000000000000000000000000000000000000000000000000000000000000000000000000000000000000000000000000000000000000000000000000000000000000000000000000000000000000000000000000000000000000000000000000000000000000000000000000000000000000000000000000000000000000000000000000000000000000000000000000000000000000000000000000000000000000000000000000000000000000000000000000000000000000000000000000000000000000000000000000000000000000000000000000000000000000000000008302010005832fefba82a6b6845db7320880a00000000000000000000000000000000000000000000000000000000000000000880000000000000000f862f8600480830249f094495e7baea6a6c7c4c2dfeb977efac326af552d8780801ca031cf6ed06716db235afb7f74fd576a3e8712110b46c8183ca913ce0419c8db64a06eaa270e49692dee44a7e60bec345205589f62aabb2517d9bf202b065c846c54c0",
                "transactions" : [
                    {
                        "data" : "0x",
                        "gasLimit" : "0x0249f0",
                        "gasPrice" : "0x00",
                        "nonce" : "0x04",
                        "r" : "0x31cf6ed06716db235afb7f74fd576a3e8712110b46c8183ca913ce0419c8db64",
                        "s" : "0x6eaa270e49692dee44a7e60bec345205589f62aabb2517d9bf202b065c846c54",
                        "to" : "0x495e7baea6a6c7c4c2dfeb977efac326af552d87",
                        "v" : "0x1c",
                        "value" : "0x00"
                    }
                ],
                "uncleHeaders" : [
                ]
            }
        ],
        "genesisBlockHeader" : {
            "bloom" : "0x00000000000000000000000000000000000000000000000000000000000000000000000000000000000000000000000000000000000000000000000000000000000000000000000000000000000000000000000000000000000000000000000000000000000000000000000000000000000000000000000000000000000000000000000000000000000000000000000000000000000000000000000000000000000000000000000000000000000000000000000000000000000000000000000000000000000000000000000000000000000000000000000000000000000000000000000000000000000000000000000000000000000000000000000000000000",
            "coinbase" : "0x8888f1f195afa192cfee860698584c030f4c9db1",
            "difficulty" : "0x020000",
            "extraData" : "0x42",
            "gasLimit" : "0x2fefd8",
            "gasUsed" : "0x00",
            "hash" : "0x96c4aefa5e7fd08ef135fa6d8fb2d5686ad357401e824eb7b61310baa848be6f",
            "mixHash" : "0x56e81f171bcc55a6ff8345e692c0f86e5b48e01b996cadc001622fb5e363b421",
            "nonce" : "0x0102030405060708",
            "number" : "0x00",
            "parentHash" : "0x0000000000000000000000000000000000000000000000000000000000000000",
            "receiptTrie" : "0x56e81f171bcc55a6ff8345e692c0f86e5b48e01b996cadc001622fb5e363b421",
            "stateRoot" : "0x3bc5ede3c67e5f7005e06876b2dccc6ab37fcafedcadd928614285bd897fcfa0",
            "timestamp" : "0x54c98c81",
            "transactionsTrie" : "0x56e81f171bcc55a6ff8345e692c0f86e5b48e01b996cadc001622fb5e363b421",
            "uncleHash" : "0x1dcc4de8dec75d7aab85b567b6ccd41ad312451b948a7413f0a142fd40d49347"
        },
        "genesisRLP" : "0xf901fcf901f7a00000000000000000000000000000000000000000000000000000000000000000a01dcc4de8dec75d7aab85b567b6ccd41ad312451b948a7413f0a142fd40d49347948888f1f195afa192cfee860698584c030f4c9db1a03bc5ede3c67e5f7005e06876b2dccc6ab37fcafedcadd928614285bd897fcfa0a056e81f171bcc55a6ff8345e692c0f86e5b48e01b996cadc001622fb5e363b421a056e81f171bcc55a6ff8345e692c0f86e5b48e01b996cadc001622fb5e363b421b90100000000000000000000000000000000000000000000000000000000000000000000000000000000000000000000000000000000000000000000000000000000000000000000000000000000000000000000000000000000000000000000000000000000000000000000000000000000000000000000000000000000000000000000000000000000000000000000000000000000000000000000000000000000000000000000000000000000000000000000000000000000000000000000000000000000000000000000000000000000000000000000000000000000000000000000000000000000000000000000000000000000000000000000000000000000008302000080832fefd8808454c98c8142a056e81f171bcc55a6ff8345e692c0f86e5b48e01b996cadc001622fb5e363b421880102030405060708c0c0",
        "lastblockhash" : "0x99e2436c7cfffb39489ddba75be388ed6bee3b13815dea5b19f53faee89dcf49",
        "network" : "Istanbul",
        "postState" : {
            "0x095e7baea6a6c7c4c2dfeb977efac326af552d87" : {
                "balance" : "0x0de0b6b3a7640000",
                "code" : "0x60004060005560054060015560044060025500",
                "nonce" : "0x00",
                "storage" : {
                    "0x00" : "0x96c4aefa5e7fd08ef135fa6d8fb2d5686ad357401e824eb7b61310baa848be6f"
                }
            },
            "0x195e7baea6a6c7c4c2dfeb977efac326af552d87" : {
                "balance" : "0x0de0b6b3a7640000",
                "code" : "0x61010043035b804050600556",
                "nonce" : "0x00",
                "storage" : {
                }
            },
            "0x295e7baea6a6c7c4c2dfeb977efac326af552d87" : {
                "balance" : "0x0de0b6b3a7640000",
                "code" : "0x6000406000556004406001556101004060025500",
                "nonce" : "0x00",
                "storage" : {
                    "0x00" : "0x96c4aefa5e7fd08ef135fa6d8fb2d5686ad357401e824eb7b61310baa848be6f"
                }
            },
            "0x395e7baea6a6c7c4c2dfeb977efac326af552d87" : {
                "balance" : "0x0de0b6b3a7640000",
                "code" : "0x600040600055680100000000000000014060015500",
                "nonce" : "0x00",
                "storage" : {
                    "0x00" : "0x96c4aefa5e7fd08ef135fa6d8fb2d5686ad357401e824eb7b61310baa848be6f"
                }
            },
            "0x495e7baea6a6c7c4c2dfeb977efac326af552d87" : {
                "balance" : "0x0de0b6b3a7640000",
                "code" : "0x600040600055610101406001557fffffffffffffffffffffffffffffffffffffffffffffffffffffffffffffffff4060025500",
                "nonce" : "0x00",
                "storage" : {
                    "0x00" : "0x96c4aefa5e7fd08ef135fa6d8fb2d5686ad357401e824eb7b61310baa848be6f"
                }
            },
            "0x8888f1f195afa192cfee860698584c030f4c9db1" : {
                "balance" : "0x8ac7230489e8a6b6",
                "code" : "",
                "nonce" : "0x00",
                "storage" : {
                }
            },
            "0xa94f5374fce5edbc8e2a8697c15331677e6ebf0b" : {
                "balance" : "0x0e9b8a",
                "code" : "",
                "nonce" : "0x05",
                "storage" : {
                }
            }
        },
        "pre" : {
            "0x095e7baea6a6c7c4c2dfeb977efac326af552d87" : {
                "balance" : "0x0de0b6b3a7640000",
                "code" : "0x60004060005560054060015560044060025500",
                "nonce" : "0x00",
                "storage" : {
                }
            },
            "0x195e7baea6a6c7c4c2dfeb977efac326af552d87" : {
                "balance" : "0x0de0b6b3a7640000",
                "code" : "0x61010043035b804050600556",
                "nonce" : "0x00",
                "storage" : {
                }
            },
            "0x295e7baea6a6c7c4c2dfeb977efac326af552d87" : {
                "balance" : "0x0de0b6b3a7640000",
                "code" : "0x6000406000556004406001556101004060025500",
                "nonce" : "0x00",
                "storage" : {
                }
            },
            "0x395e7baea6a6c7c4c2dfeb977efac326af552d87" : {
                "balance" : "0x0de0b6b3a7640000",
                "code" : "0x600040600055680100000000000000014060015500",
                "nonce" : "0x00",
                "storage" : {
                }
            },
            "0x495e7baea6a6c7c4c2dfeb977efac326af552d87" : {
                "balance" : "0x0de0b6b3a7640000",
                "code" : "0x600040600055610101406001557fffffffffffffffffffffffffffffffffffffffffffffffffffffffffffffffff4060025500",
                "nonce" : "0x00",
                "storage" : {
                }
            },
            "0xa94f5374fce5edbc8e2a8697c15331677e6ebf0b" : {
                "balance" : "0x0f4240",
                "code" : "",
                "nonce" : "0x00",
                "storage" : {
                }
            }
        },
        "sealEngine" : "NoProof"
    }
}