{
    "BLOCKHASH_Bounds_Istanbul" : {
        "_info" : {
            "comment" : "",
            "filledwith" : "testeth 1.8.0-alpha.0-12+commit.b120a12c.dirty",
            "lllcversion" : "Version: 0.5.12-develop.2019.9.13+commit.2d601a4f.Linux.g++",
            "source" : "src/BlockchainTestsFiller/ValidBlocks/bcStateTests/BLOCKHASH_BoundsFiller.json",
            "sourceHash" : "ab8b88b92ebbea45147da552a47091b2bf240ed0f5ce5ab5834a19906193ec04"
        },
        "blocks" : [
            {
                "blockHeader" : {
                    "bloom" : "0x00000000000000000000000000000000000000000000000000000000000000000000000000000000000000000000000000000000000000000000000000000000000000000000000000000000000000000000000000000000000000000000000000000000000000000000000000000000000000000000000000000000000000000000000000000000000000000000000000000000000000000000000000000000000000000000000000000000000000000000000000000000000000000000000000000000000000000000000000000000000000000000000000000000000000000000000000000000000000000000000000000000000000000000000000000000",
                    "coinbase" : "0x2adc25665018aa1fe0e6bc666dac8fc2697ff9ba",
                    "difficulty" : "0x020000",
                    "extraData" : "",
                    "gasLimit" : "0x7fffffffffffffff",
                    "gasUsed" : "0x01ac5c",
                    "hash" : "0x6ed80549a9d01ede6937c31a143a95ca9a2046ae2607f889bf6728aad72b0ee0",
                    "mixHash" : "0x0000000000000000000000000000000000000000000000000000000000000000",
                    "nonce" : "0x0000000000000000",
                    "number" : "0x01",
                    "parentHash" : "0xf7666415a06fe86f39a614be3e707683426ca0cec5a92ccce6664bebbe2ba55c",
                    "receiptTrie" : "0xab13282da5ad532c1de4c6f3f11f4d9090644a6e609225d74c9a2c2979276523",
                    "stateRoot" : "0xc1316ba528ec2dd4c81147e73b7c750f3308015ac3900be55d5bceb2adff2530",
                    "timestamp" : "0x03e8",
                    "transactionsTrie" : "0xee43fc418be6b43209e9692e06c96b18ce47ed4e0be964cc1b2128567debc2dd",
                    "uncleHash" : "0x1dcc4de8dec75d7aab85b567b6ccd41ad312451b948a7413f0a142fd40d49347"
                },
                "rlp" : "0xf9032bf901fda0f7666415a06fe86f39a614be3e707683426ca0cec5a92ccce6664bebbe2ba55ca01dcc4de8dec75d7aab85b567b6ccd41ad312451b948a7413f0a142fd40d49347942adc25665018aa1fe0e6bc666dac8fc2697ff9baa0c1316ba528ec2dd4c81147e73b7c750f3308015ac3900be55d5bceb2adff2530a0ee43fc418be6b43209e9692e06c96b18ce47ed4e0be964cc1b2128567debc2dda0ab13282da5ad532c1de4c6f3f11f4d9090644a6e609225d74c9a2c2979276523b90100000000000000000000000000000000000000000000000000000000000000000000000000000000000000000000000000000000000000000000000000000000000000000000000000000000000000000000000000000000000000000000000000000000000000000000000000000000000000000000000000000000000000000000000000000000000000000000000000000000000000000000000000000000000000000000000000000000000000000000000000000000000000000000000000000000000000000000000000000000000000000000000000000000000000000000000000000000000000000000000000000000000000000000000000000000008302000001887fffffffffffffff8301ac5c8203e880a00000000000000000000000000000000000000000000000000000000000000000880000000000000000f90127f8608001830249f094100000000000000000000000000000000000000001801ba0a8d69db5cc7b988975447a2e77fa471a04e8738915df60767b3104a95bf95c1aa030d6d7f9cd259c5937c46412312a382eabaf62794a7f6d6183891f864057feecf8608001830f424094100000000000000000000000000000000000000101801ba03e25058b9043ef9130f5423b04831a80989f086dacf5ff8468da47b0790086d7a04115beb874eee5f516fd60c91471249bde75186e260632ebf3567b7f05b3ea40f8618001840ee6b28094100000000000000000000000000000000000000201801ca0b4d82d934cb8d0b959b87a51e42cd51d560d24a71047b2127e78830404837662a00e7c42d2e4ce666564a232a4705cf6e43a2bcf29ecbd7db39a21484d01383e75c0",
                "transactions" : [
                    {
                        "data" : "0x",
                        "gasLimit" : "0x0249f0",
                        "gasPrice" : "0x01",
                        "nonce" : "0x00",
                        "r" : "0xa8d69db5cc7b988975447a2e77fa471a04e8738915df60767b3104a95bf95c1a",
                        "s" : "0x30d6d7f9cd259c5937c46412312a382eabaf62794a7f6d6183891f864057feec",
                        "to" : "0x1000000000000000000000000000000000000000",
                        "v" : "0x1b",
                        "value" : "0x01"
                    },
                    {
                        "data" : "0x",
                        "gasLimit" : "0x0f4240",
                        "gasPrice" : "0x01",
                        "nonce" : "0x00",
                        "r" : "0x3e25058b9043ef9130f5423b04831a80989f086dacf5ff8468da47b0790086d7",
                        "s" : "0x4115beb874eee5f516fd60c91471249bde75186e260632ebf3567b7f05b3ea40",
                        "to" : "0x1000000000000000000000000000000000000001",
                        "v" : "0x1b",
                        "value" : "0x01"
                    },
                    {
                        "data" : "0x",
                        "gasLimit" : "0x0ee6b280",
                        "gasPrice" : "0x01",
                        "nonce" : "0x00",
                        "r" : "0xb4d82d934cb8d0b959b87a51e42cd51d560d24a71047b2127e78830404837662",
                        "s" : "0x0e7c42d2e4ce666564a232a4705cf6e43a2bcf29ecbd7db39a21484d01383e75",
                        "to" : "0x1000000000000000000000000000000000000002",
                        "v" : "0x1c",
                        "value" : "0x01"
                    }
                ],
                "uncleHeaders" : [
                ]
            }
        ],
        "genesisBlockHeader" : {
            "bloom" : "0x00000000000000000000000000000000000000000000000000000000000000000000000000000000000000000000000000000000000000000000000000000000000000000000000000000000000000000000000000000000000000000000000000000000000000000000000000000000000000000000000000000000000000000000000000000000000000000000000000000000000000000000000000000000000000000000000000000000000000000000000000000000000000000000000000000000000000000000000000000000000000000000000000000000000000000000000000000000000000000000000000000000000000000000000000000000",
            "coinbase" : "0x2adc25665018aa1fe0e6bc666dac8fc2697ff9ba",
            "difficulty" : "0x020000",
            "extraData" : "0x42",
            "gasLimit" : "0x7fffffffffffffff",
            "gasUsed" : "0x00",
            "hash" : "0xf7666415a06fe86f39a614be3e707683426ca0cec5a92ccce6664bebbe2ba55c",
            "mixHash" : "0x56e81f171bcc55a6ff8345e692c0f86e5b48e01b996cadc001622fb5e363b421",
            "nonce" : "0x0102030405060708",
            "number" : "0x00",
            "parentHash" : "0x0000000000000000000000000000000000000000000000000000000000000000",
            "receiptTrie" : "0x56e81f171bcc55a6ff8345e692c0f86e5b48e01b996cadc001622fb5e363b421",
            "stateRoot" : "0xb8973de1e49b2791294aef552ead7d9fca219707572a9ce18a2a5b98f25bce4a",
            "timestamp" : "0x03b6",
            "transactionsTrie" : "0x56e81f171bcc55a6ff8345e692c0f86e5b48e01b996cadc001622fb5e363b421",
            "uncleHash" : "0x1dcc4de8dec75d7aab85b567b6ccd41ad312451b948a7413f0a142fd40d49347"
        },
        "genesisRLP" : "0xf901fff901faa00000000000000000000000000000000000000000000000000000000000000000a01dcc4de8dec75d7aab85b567b6ccd41ad312451b948a7413f0a142fd40d49347942adc25665018aa1fe0e6bc666dac8fc2697ff9baa0b8973de1e49b2791294aef552ead7d9fca219707572a9ce18a2a5b98f25bce4aa056e81f171bcc55a6ff8345e692c0f86e5b48e01b996cadc001622fb5e363b421a056e81f171bcc55a6ff8345e692c0f86e5b48e01b996cadc001622fb5e363b421b90100000000000000000000000000000000000000000000000000000000000000000000000000000000000000000000000000000000000000000000000000000000000000000000000000000000000000000000000000000000000000000000000000000000000000000000000000000000000000000000000000000000000000000000000000000000000000000000000000000000000000000000000000000000000000000000000000000000000000000000000000000000000000000000000000000000000000000000000000000000000000000000000000000000000000000000000000000000000000000000000000000000000000000000000000000000008302000080887fffffffffffffff808203b642a056e81f171bcc55a6ff8345e692c0f86e5b48e01b996cadc001622fb5e363b421880102030405060708c0c0",
        "lastblockhash" : "0x6ed80549a9d01ede6937c31a143a95ca9a2046ae2607f889bf6728aad72b0ee0",
        "network" : "Istanbul",
        "postState" : {
            "0x1000000000000000000000000000000000000000" : {
                "balance" : "0x01",
                "code" : "0x60004060005563ffffffff4060015567ffffffffffffffff406002556fffffffffffffffffffffffffffffffff406003557fffffffffffffffffffffffffffffffffffffffffffffffffffffffffffffffff40600455",
                "nonce" : "0x00",
                "storage" : {
                    "0x00" : "0xf7666415a06fe86f39a614be3e707683426ca0cec5a92ccce6664bebbe2ba55c"
                }
            },
            "0x1000000000000000000000000000000000000001" : {
                "balance" : "0x01",
                "code" : "0x60004060005563ffffffff4060015567ffffffffffffffff406002556fffffffffffffffffffffffffffffffff406003557fffffffffffffffffffffffffffffffffffffffffffffffffffffffffffffffff40600455",
                "nonce" : "0x00",
                "storage" : {
                    "0x00" : "0xf7666415a06fe86f39a614be3e707683426ca0cec5a92ccce6664bebbe2ba55c"
                }
            },
            "0x1000000000000000000000000000000000000002" : {
                "balance" : "0x01",
                "code" : "",
                "nonce" : "0x00",
                "storage" : {
                }
            },
            "0x118797674cc60c07ad39a824cecc53c29d803feb" : {
                "balance" : "0x7fffffffffffadf6",
                "code" : "",
                "nonce" : "0x01",
                "storage" : {
                }
            },
            "0x2adc25665018aa1fe0e6bc666dac8fc2697ff9ba" : {
                "balance" : "0x1bc16d674ec9ac5c",
                "code" : "",
                "nonce" : "0x00",
                "storage" : {
                }
            },
            "0x840c2083a4726e89c45df3387770b8fb55677229" : {
                "balance" : "0x7fffffffffff52d4",
                "code" : "",
                "nonce" : "0x01",
                "storage" : {
                }
            },
            "0xa94f5374fce5edbc8e2a8697c15331677e6ebf0b" : {
                "balance" : "0x7fffffffffff52d4",
                "code" : "",
                "nonce" : "0x01",
                "storage" : {
                }
            }
        },
        "pre" : {
            "0x1000000000000000000000000000000000000000" : {
                "balance" : "0x00",
                "code" : "0x60004060005563ffffffff4060015567ffffffffffffffff406002556fffffffffffffffffffffffffffffffff406003557fffffffffffffffffffffffffffffffffffffffffffffffffffffffffffffffff40600455",
                "nonce" : "0x00",
                "storage" : {
                }
            },
            "0x1000000000000000000000000000000000000001" : {
                "balance" : "0x00",
                "code" : "0x60004060005563ffffffff4060015567ffffffffffffffff406002556fffffffffffffffffffffffffffffffff406003557fffffffffffffffffffffffffffffffffffffffffffffffffffffffffffffffff40600455",
                "nonce" : "0x00",
                "storage" : {
                }
            },
            "0x118797674cc60c07ad39a824cecc53c29d803feb" : {
                "balance" : "0x7fffffffffffffff",
                "code" : "",
                "nonce" : "0x00",
                "storage" : {
                }
            },
            "0x840c2083a4726e89c45df3387770b8fb55677229" : {
                "balance" : "0x7fffffffffffffff",
                "code" : "",
                "nonce" : "0x00",
                "storage" : {
                }
            },
            "0xa94f5374fce5edbc8e2a8697c15331677e6ebf0b" : {
                "balance" : "0x7fffffffffffffff",
                "code" : "",
                "nonce" : "0x00",
                "storage" : {
                }
            }
        },
        "sealEngine" : "NoProof"
    }
}