{
    "BLOCKHASH_Bounds_Istanbul" : {
        "_info" : {
            "comment" : "",
            "filling-rpc-server" : "Geth-1.9.11-unstable-a382d783-20200127",
            "filling-tool-version" : "retesteth-0.0.2+commit.ce1fdd3d.Linux.g++",
            "lllcversion" : "Version: 0.5.14-develop.2019.11.27+commit.8f259595.Linux.g++",
            "source" : "src/BlockchainTestsFiller/ValidBlocks/bcStateTests/BLOCKHASH_BoundsFiller.json",
            "sourceHash" : "6ec04515288e8422e2c1eb925cdff958b02ba972766d50b3c0d626fbf7e92ca7"
        },
        "sealEngine" : "NoProof",
        "network" : "Istanbul",
        "pre" : {
            "0x1000000000000000000000000000000000000000" : {
                "balance" : "0x00",
                "code" : "0x60004060005563ffffffff4060015567ffffffffffffffff406002556fffffffffffffffffffffffffffffffff406003557fffffffffffffffffffffffffffffffffffffffffffffffffffffffffffffffff40600455",
                "nonce" : "0x00",
                "storage" : {
                }
            },
            "0x1000000000000000000000000000000000000001" : {
                "balance" : "0x00",
                "code" : "0x60004060005563ffffffff4060015567ffffffffffffffff406002556fffffffffffffffffffffffffffffffff406003557fffffffffffffffffffffffffffffffffffffffffffffffffffffffffffffffff40600455",
                "nonce" : "0x00",
                "storage" : {
                }
            },
            "0x118797674cc60c07ad39a824cecc53c29d803feb" : {
                "balance" : "0x7fffffffffffffff",
                "code" : "0x",
                "nonce" : "0x00",
                "storage" : {
                }
            },
            "0x840c2083a4726e89c45df3387770b8fb55677229" : {
                "balance" : "0x7fffffffffffffff",
                "code" : "0x",
                "nonce" : "0x00",
                "storage" : {
                }
            },
            "0xa94f5374fce5edbc8e2a8697c15331677e6ebf0b" : {
                "balance" : "0x7fffffffffffffff",
                "code" : "0x",
                "nonce" : "0x00",
                "storage" : {
                }
            }
        },
        "genesisBlockHeader" : {
            "bloom" : "0x00000000000000000000000000000000000000000000000000000000000000000000000000000000000000000000000000000000000000000000000000000000000000000000000000000000000000000000000000000000000000000000000000000000000000000000000000000000000000000000000000000000000000000000000000000000000000000000000000000000000000000000000000000000000000000000000000000000000000000000000000000000000000000000000000000000000000000000000000000000000000000000000000000000000000000000000000000000000000000000000000000000000000000000000000000000",
            "coinbase" : "0x2adc25665018aa1fe0e6bc666dac8fc2697ff9ba",
            "difficulty" : "0x020000",
            "extraData" : "0x42",
            "gasLimit" : "0x7fffffffffffffff",
            "gasUsed" : "0x00",
            "hash" : "0x763f52e74d2429d49d77d8f486f483651f632a7b9c58afd6a5d148684aafba83",
            "mixHash" : "0x0000000000000000000000000000000000000000000000000000000000000000",
            "nonce" : "0x0000000000000000",
            "number" : "0x00",
            "parentHash" : "0x0000000000000000000000000000000000000000000000000000000000000000",
            "receiptTrie" : "0x56e81f171bcc55a6ff8345e692c0f86e5b48e01b996cadc001622fb5e363b421",
            "stateRoot" : "0xb8973de1e49b2791294aef552ead7d9fca219707572a9ce18a2a5b98f25bce4a",
            "timestamp" : "0x03b6",
            "transactionsTrie" : "0x56e81f171bcc55a6ff8345e692c0f86e5b48e01b996cadc001622fb5e363b421",
            "uncleHash" : "0x1dcc4de8dec75d7aab85b567b6ccd41ad312451b948a7413f0a142fd40d49347"
        },
        "genesisRLP" : "0xf901fff901faa00000000000000000000000000000000000000000000000000000000000000000a01dcc4de8dec75d7aab85b567b6ccd41ad312451b948a7413f0a142fd40d49347942adc25665018aa1fe0e6bc666dac8fc2697ff9baa0b8973de1e49b2791294aef552ead7d9fca219707572a9ce18a2a5b98f25bce4aa056e81f171bcc55a6ff8345e692c0f86e5b48e01b996cadc001622fb5e363b421a056e81f171bcc55a6ff8345e692c0f86e5b48e01b996cadc001622fb5e363b421b90100000000000000000000000000000000000000000000000000000000000000000000000000000000000000000000000000000000000000000000000000000000000000000000000000000000000000000000000000000000000000000000000000000000000000000000000000000000000000000000000000000000000000000000000000000000000000000000000000000000000000000000000000000000000000000000000000000000000000000000000000000000000000000000000000000000000000000000000000000000000000000000000000000000000000000000000000000000000000000000000000000000000000000000000000000000008302000080887fffffffffffffff808203b642a00000000000000000000000000000000000000000000000000000000000000000880000000000000000c0c0",
        "blocks" : [
            {
                "chainname" : "default",
                "blocknumber" : "1",
                "uncleHeaders" : [
                ],
                "blockHeader" : {
                    "bloom" : "0x00000000000000000000000000000000000000000000000000000000000000000000000000000000000000000000000000000000000000000000000000000000000000000000000000000000000000000000000000000000000000000000000000000000000000000000000000000000000000000000000000000000000000000000000000000000000000000000000000000000000000000000000000000000000000000000000000000000000000000000000000000000000000000000000000000000000000000000000000000000000000000000000000000000000000000000000000000000000000000000000000000000000000000000000000000000",
                    "coinbase" : "0x2adc25665018aa1fe0e6bc666dac8fc2697ff9ba",
                    "difficulty" : "0x020000",
                    "extraData" : "0x42",
                    "gasLimit" : "0x7fffffffffffffff",
                    "gasUsed" : "0x01ac5c",
                    "hash" : "0x932a5b78d0750d98abd941dc692186b8a74367954e0d415fd35f6e0edbd2b73b",
                    "mixHash" : "0x0000000000000000000000000000000000000000000000000000000000000000",
                    "nonce" : "0x0000000000000000",
                    "number" : "0x01",
                    "parentHash" : "0x763f52e74d2429d49d77d8f486f483651f632a7b9c58afd6a5d148684aafba83",
                    "receiptTrie" : "0xab13282da5ad532c1de4c6f3f11f4d9090644a6e609225d74c9a2c2979276523",
                    "stateRoot" : "0x95eeee5d2ded271bbe7213346c186d4eceb3bf3058add1233343f39cfbba7804",
                    "timestamp" : "0x03e8",
                    "transactionsTrie" : "0xee43fc418be6b43209e9692e06c96b18ce47ed4e0be964cc1b2128567debc2dd",
                    "uncleHash" : "0x1dcc4de8dec75d7aab85b567b6ccd41ad312451b948a7413f0a142fd40d49347"
                },
                "transactions" : [
                    {
                        "data" : "0x",
                        "gasLimit" : "0x0249f0",
                        "gasPrice" : "0x01",
                        "nonce" : "0x00",
                        "r" : "0xa8d69db5cc7b988975447a2e77fa471a04e8738915df60767b3104a95bf95c1a",
                        "s" : "0x30d6d7f9cd259c5937c46412312a382eabaf62794a7f6d6183891f864057feec",
                        "to" : "0x1000000000000000000000000000000000000000",
                        "v" : "0x1b",
                        "value" : "0x01"
                    },
                    {
                        "data" : "0x",
                        "gasLimit" : "0x0f4240",
                        "gasPrice" : "0x01",
                        "nonce" : "0x00",
                        "r" : "0x3e25058b9043ef9130f5423b04831a80989f086dacf5ff8468da47b0790086d7",
                        "s" : "0x4115beb874eee5f516fd60c91471249bde75186e260632ebf3567b7f05b3ea40",
                        "to" : "0x1000000000000000000000000000000000000001",
                        "v" : "0x1b",
                        "value" : "0x01"
                    },
                    {
                        "data" : "0x",
                        "gasLimit" : "0x0ee6b280",
                        "gasPrice" : "0x01",
                        "nonce" : "0x00",
                        "r" : "0xb4d82d934cb8d0b959b87a51e42cd51d560d24a71047b2127e78830404837662",
                        "s" : "0x0e7c42d2e4ce666564a232a4705cf6e43a2bcf29ecbd7db39a21484d01383e75",
                        "to" : "0x1000000000000000000000000000000000000002",
                        "v" : "0x1c",
                        "value" : "0x01"
                    }
                ],
                "rlp" : "0xf9032bf901fda0763f52e74d2429d49d77d8f486f483651f632a7b9c58afd6a5d148684aafba83a01dcc4de8dec75d7aab85b567b6ccd41ad312451b948a7413f0a142fd40d49347942adc25665018aa1fe0e6bc666dac8fc2697ff9baa095eeee5d2ded271bbe7213346c186d4eceb3bf3058add1233343f39cfbba7804a0ee43fc418be6b43209e9692e06c96b18ce47ed4e0be964cc1b2128567debc2dda0ab13282da5ad532c1de4c6f3f11f4d9090644a6e609225d74c9a2c2979276523b90100000000000000000000000000000000000000000000000000000000000000000000000000000000000000000000000000000000000000000000000000000000000000000000000000000000000000000000000000000000000000000000000000000000000000000000000000000000000000000000000000000000000000000000000000000000000000000000000000000000000000000000000000000000000000000000000000000000000000000000000000000000000000000000000000000000000000000000000000000000000000000000000000000000000000000000000000000000000000000000000000000000000000000000000000000000008302000001887fffffffffffffff8301ac5c8203e842a00000000000000000000000000000000000000000000000000000000000000000880000000000000000f90127f8608001830249f094100000000000000000000000000000000000000001801ba0a8d69db5cc7b988975447a2e77fa471a04e8738915df60767b3104a95bf95c1aa030d6d7f9cd259c5937c46412312a382eabaf62794a7f6d6183891f864057feecf8608001830f424094100000000000000000000000000000000000000101801ba03e25058b9043ef9130f5423b04831a80989f086dacf5ff8468da47b0790086d7a04115beb874eee5f516fd60c91471249bde75186e260632ebf3567b7f05b3ea40f8618001840ee6b28094100000000000000000000000000000000000000201801ca0b4d82d934cb8d0b959b87a51e42cd51d560d24a71047b2127e78830404837662a00e7c42d2e4ce666564a232a4705cf6e43a2bcf29ecbd7db39a21484d01383e75c0"
            }
        ],
        "postState" : {
            "0xa94f5374fce5edbc8e2a8697c15331677e6ebf0b" : {
                "code" : "0x",
                "nonce" : "0x01",
                "balance" : "0x7fffffffffff52d4",
                "storage" : {
                }
            },
            "0x118797674cc60c07ad39a824cecc53c29d803feb" : {
                "code" : "0x",
                "nonce" : "0x01",
                "balance" : "0x7fffffffffffadf6",
                "storage" : {
                }
            },
            "0x1000000000000000000000000000000000000001" : {
                "code" : "0x60004060005563ffffffff4060015567ffffffffffffffff406002556fffffffffffffffffffffffffffffffff406003557fffffffffffffffffffffffffffffffffffffffffffffffffffffffffffffffff40600455",
                "nonce" : "0x00",
                "balance" : "0x01",
                "storage" : {
                    "0x00" : "0x763f52e74d2429d49d77d8f486f483651f632a7b9c58afd6a5d148684aafba83"
                }
            },
            "0x2adc25665018aa1fe0e6bc666dac8fc2697ff9ba" : {
                "code" : "0x",
                "nonce" : "0x00",
                "balance" : "0x1bc16d674ec9ac5c",
                "storage" : {
                }
            },
            "0x1000000000000000000000000000000000000002" : {
                "code" : "0x",
                "nonce" : "0x00",
                "balance" : "0x01",
                "storage" : {
                }
            },
            "0x1000000000000000000000000000000000000000" : {
                "code" : "0x60004060005563ffffffff4060015567ffffffffffffffff406002556fffffffffffffffffffffffffffffffff406003557fffffffffffffffffffffffffffffffffffffffffffffffffffffffffffffffff40600455",
                "nonce" : "0x00",
                "balance" : "0x01",
                "storage" : {
                    "0x00" : "0x763f52e74d2429d49d77d8f486f483651f632a7b9c58afd6a5d148684aafba83"
                }
            },
            "0x840c2083a4726e89c45df3387770b8fb55677229" : {
                "code" : "0x",
                "nonce" : "0x01",
                "balance" : "0x7fffffffffff52d4",
                "storage" : {
                }
            }
        },
        "lastblockhash" : "0x932a5b78d0750d98abd941dc692186b8a74367954e0d415fd35f6e0edbd2b73b"
    }
}