{
    "blockhashTests_Istanbul" : {
        "_info" : {
            "comment" : "",
            "filling-rpc-server" : "Geth-1.9.11-unstable-a382d783-20200127",
            "filling-tool-version" : "retesteth-0.0.2+commit.ce1fdd3d.Linux.g++",
            "lllcversion" : "Version: 0.5.14-develop.2019.11.27+commit.8f259595.Linux.g++",
            "source" : "src/BlockchainTestsFiller/ValidBlocks/bcStateTests/blockhashTestsFiller.json",
            "sourceHash" : "0536b7d2ee37af159194c0788fafe5b4c63e1efaeb56c3d683dca379d39b2bf7"
        },
        "sealEngine" : "NoProof",
        "network" : "Istanbul",
        "pre" : {
            "0x095e7baea6a6c7c4c2dfeb977efac326af552d87" : {
                "balance" : "0x0de0b6b3a7640000",
                "code" : "0x60004060005560054060015560044060025500",
                "nonce" : "0x00",
                "storage" : {
                }
            },
            "0x195e7baea6a6c7c4c2dfeb977efac326af552d87" : {
                "balance" : "0x0de0b6b3a7640000",
                "code" : "0x61010043035b804050600556",
                "nonce" : "0x00",
                "storage" : {
                }
            },
            "0x295e7baea6a6c7c4c2dfeb977efac326af552d87" : {
                "balance" : "0x0de0b6b3a7640000",
                "code" : "0x6000406000556004406001556101004060025500",
                "nonce" : "0x00",
                "storage" : {
                }
            },
            "0x395e7baea6a6c7c4c2dfeb977efac326af552d87" : {
                "balance" : "0x0de0b6b3a7640000",
                "code" : "0x600040600055680100000000000000014060015500",
                "nonce" : "0x00",
                "storage" : {
                }
            },
            "0x495e7baea6a6c7c4c2dfeb977efac326af552d87" : {
                "balance" : "0x0de0b6b3a7640000",
                "code" : "0x600040600055610101406001557fffffffffffffffffffffffffffffffffffffffffffffffffffffffffffffffff4060025500",
                "nonce" : "0x00",
                "storage" : {
                }
            },
            "0xa94f5374fce5edbc8e2a8697c15331677e6ebf0b" : {
                "balance" : "0x0f4240",
                "code" : "0x",
                "nonce" : "0x00",
                "storage" : {
                }
            }
        },
        "genesisBlockHeader" : {
            "bloom" : "0x00000000000000000000000000000000000000000000000000000000000000000000000000000000000000000000000000000000000000000000000000000000000000000000000000000000000000000000000000000000000000000000000000000000000000000000000000000000000000000000000000000000000000000000000000000000000000000000000000000000000000000000000000000000000000000000000000000000000000000000000000000000000000000000000000000000000000000000000000000000000000000000000000000000000000000000000000000000000000000000000000000000000000000000000000000000",
            "coinbase" : "0x8888f1f195afa192cfee860698584c030f4c9db1",
            "difficulty" : "0x020000",
            "extraData" : "0x42",
            "gasLimit" : "0x2fefd8",
            "gasUsed" : "0x00",
            "hash" : "0x2fb1d1458629e8b82290ff2d5232c80aa2f7ad9304d90b76900c9e6b77cec17c",
            "mixHash" : "0x0000000000000000000000000000000000000000000000000000000000000000",
            "nonce" : "0x0000000000000000",
            "number" : "0x00",
            "parentHash" : "0x0000000000000000000000000000000000000000000000000000000000000000",
            "receiptTrie" : "0x56e81f171bcc55a6ff8345e692c0f86e5b48e01b996cadc001622fb5e363b421",
            "stateRoot" : "0x3bc5ede3c67e5f7005e06876b2dccc6ab37fcafedcadd928614285bd897fcfa0",
            "timestamp" : "0x54c98c81",
            "transactionsTrie" : "0x56e81f171bcc55a6ff8345e692c0f86e5b48e01b996cadc001622fb5e363b421",
            "uncleHash" : "0x1dcc4de8dec75d7aab85b567b6ccd41ad312451b948a7413f0a142fd40d49347"
        },
        "genesisRLP" : "0xf901fcf901f7a00000000000000000000000000000000000000000000000000000000000000000a01dcc4de8dec75d7aab85b567b6ccd41ad312451b948a7413f0a142fd40d49347948888f1f195afa192cfee860698584c030f4c9db1a03bc5ede3c67e5f7005e06876b2dccc6ab37fcafedcadd928614285bd897fcfa0a056e81f171bcc55a6ff8345e692c0f86e5b48e01b996cadc001622fb5e363b421a056e81f171bcc55a6ff8345e692c0f86e5b48e01b996cadc001622fb5e363b421b90100000000000000000000000000000000000000000000000000000000000000000000000000000000000000000000000000000000000000000000000000000000000000000000000000000000000000000000000000000000000000000000000000000000000000000000000000000000000000000000000000000000000000000000000000000000000000000000000000000000000000000000000000000000000000000000000000000000000000000000000000000000000000000000000000000000000000000000000000000000000000000000000000000000000000000000000000000000000000000000000000000000000000000000000000000000008302000080832fefd8808454c98c8142a00000000000000000000000000000000000000000000000000000000000000000880000000000000000c0c0",
        "blocks" : [
            {
                "chainname" : "default",
                "blocknumber" : "1",
                "uncleHeaders" : [
                ],
                "blockHeader" : {
                    "bloom" : "0x00000000000000000000000000000000000000000000000000000000000000000000000000000000000000000000000000000000000000000000000000000000000000000000000000000000000000000000000000000000000000000000000000000000000000000000000000000000000000000000000000000000000000000000000000000000000000000000000000000000000000000000000000000000000000000000000000000000000000000000000000000000000000000000000000000000000000000000000000000000000000000000000000000000000000000000000000000000000000000000000000000000000000000000000000000000",
                    "coinbase" : "0x8888f1f195afa192cfee860698584c030f4c9db1",
                    "difficulty" : "0x020000",
                    "extraData" : "0x42",
                    "gasLimit" : "0x2ffbd2",
                    "gasUsed" : "0xa6b6",
                    "hash" : "0x3a8612031bf3aa7ac43b594add9cf9aad9819a8855cb5284e1299549db76b84d",
                    "mixHash" : "0x0000000000000000000000000000000000000000000000000000000000000000",
                    "nonce" : "0x0000000000000000",
                    "number" : "0x01",
                    "parentHash" : "0x2fb1d1458629e8b82290ff2d5232c80aa2f7ad9304d90b76900c9e6b77cec17c",
                    "receiptTrie" : "0x065371cbc393ce04f896b5722208fddb49391eae0cc771f236b947166ee57e6d",
                    "stateRoot" : "0x8cbdb1b38d380a47a896ff45740a8640481a230174491f4876b23bf59ff984dd",
                    "timestamp" : "0x54c99069",
                    "transactionsTrie" : "0xd6ba91470a65633ad8e430f5e77ee4a78fcbc83700385d342db5ff39989ea497",
                    "uncleHash" : "0x1dcc4de8dec75d7aab85b567b6ccd41ad312451b948a7413f0a142fd40d49347"
                },
                "transactions" : [
                    {
                        "data" : "0x",
                        "gasLimit" : "0x0249f0",
                        "gasPrice" : "0x01",
                        "nonce" : "0x00",
                        "r" : "0x8f7d4d301a80268a68d5d45905cc84a1e05b4e11cfb1d04ec7a4a5c4a23b5c90",
                        "s" : "0x499c4eee3f24777a1d34dc19c24b62634b9b92ecbb1fd87ea5e7b845f2ba16c3",
                        "to" : "0x095e7baea6a6c7c4c2dfeb977efac326af552d87",
                        "v" : "0x1b",
                        "value" : "0x00"
                    }
                ],
                "rlp" : "0xf90261f901f9a02fb1d1458629e8b82290ff2d5232c80aa2f7ad9304d90b76900c9e6b77cec17ca01dcc4de8dec75d7aab85b567b6ccd41ad312451b948a7413f0a142fd40d49347948888f1f195afa192cfee860698584c030f4c9db1a08cbdb1b38d380a47a896ff45740a8640481a230174491f4876b23bf59ff984dda0d6ba91470a65633ad8e430f5e77ee4a78fcbc83700385d342db5ff39989ea497a0065371cbc393ce04f896b5722208fddb49391eae0cc771f236b947166ee57e6db90100000000000000000000000000000000000000000000000000000000000000000000000000000000000000000000000000000000000000000000000000000000000000000000000000000000000000000000000000000000000000000000000000000000000000000000000000000000000000000000000000000000000000000000000000000000000000000000000000000000000000000000000000000000000000000000000000000000000000000000000000000000000000000000000000000000000000000000000000000000000000000000000000000000000000000000000000000000000000000000000000000000000000000000000000000000008302000001832ffbd282a6b68454c9906942a00000000000000000000000000000000000000000000000000000000000000000880000000000000000f862f8608001830249f094095e7baea6a6c7c4c2dfeb977efac326af552d8780801ba08f7d4d301a80268a68d5d45905cc84a1e05b4e11cfb1d04ec7a4a5c4a23b5c90a0499c4eee3f24777a1d34dc19c24b62634b9b92ecbb1fd87ea5e7b845f2ba16c3c0"
            },
            {
                "chainname" : "default",
                "blocknumber" : "2",
                "uncleHeaders" : [
                ],
                "blockHeader" : {
                    "bloom" : "0x00000000000000000000000000000000000000000000000000000000000000000000000000000000000000000000000000000000000000000000000000000000000000000000000000000000000000000000000000000000000000000000000000000000000000000000000000000000000000000000000000000000000000000000000000000000000000000000000000000000000000000000000000000000000000000000000000000000000000000000000000000000000000000000000000000000000000000000000000000000000000000000000000000000000000000000000000000000000000000000000000000000000000000000000000000000",
                    "coinbase" : "0x8888f1f195afa192cfee860698584c030f4c9db1",
                    "difficulty" : "0x020000",
                    "extraData" : "0x42",
                    "gasLimit" : "0x3007cf",
                    "gasUsed" : "0x0249f0",
                    "hash" : "0xc0efb50e78448598bbe5cc8b2794689cfe37c8455d6cdc3e62be4f7c857fc140",
                    "mixHash" : "0x0000000000000000000000000000000000000000000000000000000000000000",
                    "nonce" : "0x0000000000000000",
                    "number" : "0x02",
                    "parentHash" : "0x3a8612031bf3aa7ac43b594add9cf9aad9819a8855cb5284e1299549db76b84d",
                    "receiptTrie" : "0xa0e10907f175886de9bd8cd4ac2c21d1db4109a3a9fecf60f54015ee102803fd",
                    "stateRoot" : "0xad8de91cb284b474386035ebe05b4019bc2b1931ca5e7ce7b47945edccab22c9",
                    "timestamp" : "0x54c99451",
                    "transactionsTrie" : "0xd954a5202e78be1de112b20b2cfd81b0671426b93c739bf5c6fa87ae8213197a",
                    "uncleHash" : "0x1dcc4de8dec75d7aab85b567b6ccd41ad312451b948a7413f0a142fd40d49347"
                },
                "transactions" : [
                    {
                        "data" : "0x",
                        "gasLimit" : "0x0249f0",
                        "gasPrice" : "0x00",
                        "nonce" : "0x01",
                        "r" : "0xef2b3ee7fab91f73e7d1be76f0698c08df26d48c12be1a3c330d3f5dff39e856",
                        "s" : "0x25b8af8c65b0bd99dd4998fabea60caee571797731eac5569ee5f79ecada5759",
                        "to" : "0x195e7baea6a6c7c4c2dfeb977efac326af552d87",
                        "v" : "0x1b",
                        "value" : "0x00"
                    }
                ],
                "rlp" : "0xf90262f901faa03a8612031bf3aa7ac43b594add9cf9aad9819a8855cb5284e1299549db76b84da01dcc4de8dec75d7aab85b567b6ccd41ad312451b948a7413f0a142fd40d49347948888f1f195afa192cfee860698584c030f4c9db1a0ad8de91cb284b474386035ebe05b4019bc2b1931ca5e7ce7b47945edccab22c9a0d954a5202e78be1de112b20b2cfd81b0671426b93c739bf5c6fa87ae8213197aa0a0e10907f175886de9bd8cd4ac2c21d1db4109a3a9fecf60f54015ee102803fdb90100000000000000000000000000000000000000000000000000000000000000000000000000000000000000000000000000000000000000000000000000000000000000000000000000000000000000000000000000000000000000000000000000000000000000000000000000000000000000000000000000000000000000000000000000000000000000000000000000000000000000000000000000000000000000000000000000000000000000000000000000000000000000000000000000000000000000000000000000000000000000000000000000000000000000000000000000000000000000000000000000000000000000000000000000000000008302000002833007cf830249f08454c9945142a00000000000000000000000000000000000000000000000000000000000000000880000000000000000f862f8600180830249f094195e7baea6a6c7c4c2dfeb977efac326af552d8780801ba0ef2b3ee7fab91f73e7d1be76f0698c08df26d48c12be1a3c330d3f5dff39e856a025b8af8c65b0bd99dd4998fabea60caee571797731eac5569ee5f79ecada5759c0"
            },
            {
                "chainname" : "default",
                "blocknumber" : "3",
                "uncleHeaders" : [
                ],
                "blockHeader" : {
                    "bloom" : "0x00000000000000000000000000000000000000000000000000000000000000000000000000000000000000000000000000000000000000000000000000000000000000000000000000000000000000000000000000000000000000000000000000000000000000000000000000000000000000000000000000000000000000000000000000000000000000000000000000000000000000000000000000000000000000000000000000000000000000000000000000000000000000000000000000000000000000000000000000000000000000000000000000000000000000000000000000000000000000000000000000000000000000000000000000000000",
                    "coinbase" : "0x8888f1f195afa192cfee860698584c030f4c9db1",
                    "difficulty" : "0x020000",
                    "extraData" : "0x42",
                    "gasLimit" : "0x3013cf",
                    "gasUsed" : "0xa6b6",
                    "hash" : "0x7872b8b4bc8e2b9c3c969710f76add44a15fcf9d2dd15346a81dbfc0f56ce1aa",
                    "mixHash" : "0x0000000000000000000000000000000000000000000000000000000000000000",
                    "nonce" : "0x0000000000000000",
                    "number" : "0x03",
                    "parentHash" : "0xc0efb50e78448598bbe5cc8b2794689cfe37c8455d6cdc3e62be4f7c857fc140",
                    "receiptTrie" : "0x065371cbc393ce04f896b5722208fddb49391eae0cc771f236b947166ee57e6d",
                    "stateRoot" : "0x2ba57720457066e91eea8058ffea58aaa503dda6b5262f484f24300b27c09fad",
                    "timestamp" : "0x54c99839",
                    "transactionsTrie" : "0xe7a583cf499521fb1b10b3a375047663e25fd78b3db53b1e92e1c41e53cbb23d",
                    "uncleHash" : "0x1dcc4de8dec75d7aab85b567b6ccd41ad312451b948a7413f0a142fd40d49347"
                },
                "transactions" : [
                    {
                        "data" : "0x",
                        "gasLimit" : "0x0249f0",
                        "gasPrice" : "0x00",
                        "nonce" : "0x02",
                        "r" : "0xa37e56d9fcf9bcb6a4240007f7a298e4557e84a41317ad8a54c6f758670dfdcf",
                        "s" : "0x79c6ba18545fe9c7e7b934ee3d441a9160f63ffd8916318e2fb2f8dbd58c5aa2",
                        "to" : "0x295e7baea6a6c7c4c2dfeb977efac326af552d87",
                        "v" : "0x1c",
                        "value" : "0x00"
                    }
                ],
                "rlp" : "0xf90261f901f9a0c0efb50e78448598bbe5cc8b2794689cfe37c8455d6cdc3e62be4f7c857fc140a01dcc4de8dec75d7aab85b567b6ccd41ad312451b948a7413f0a142fd40d49347948888f1f195afa192cfee860698584c030f4c9db1a02ba57720457066e91eea8058ffea58aaa503dda6b5262f484f24300b27c09fada0e7a583cf499521fb1b10b3a375047663e25fd78b3db53b1e92e1c41e53cbb23da0065371cbc393ce04f896b5722208fddb49391eae0cc771f236b947166ee57e6db90100000000000000000000000000000000000000000000000000000000000000000000000000000000000000000000000000000000000000000000000000000000000000000000000000000000000000000000000000000000000000000000000000000000000000000000000000000000000000000000000000000000000000000000000000000000000000000000000000000000000000000000000000000000000000000000000000000000000000000000000000000000000000000000000000000000000000000000000000000000000000000000000000000000000000000000000000000000000000000000000000000000000000000000000000000000008302000003833013cf82a6b68454c9983942a00000000000000000000000000000000000000000000000000000000000000000880000000000000000f862f8600280830249f094295e7baea6a6c7c4c2dfeb977efac326af552d8780801ca0a37e56d9fcf9bcb6a4240007f7a298e4557e84a41317ad8a54c6f758670dfdcfa079c6ba18545fe9c7e7b934ee3d441a9160f63ffd8916318e2fb2f8dbd58c5aa2c0"
            },
            {
                "chainname" : "default",
                "blocknumber" : "4",
                "uncleHeaders" : [
                ],
                "blockHeader" : {
                    "bloom" : "0x00000000000000000000000000000000000000000000000000000000000000000000000000000000000000000000000000000000000000000000000000000000000000000000000000000000000000000000000000000000000000000000000000000000000000000000000000000000000000000000000000000000000000000000000000000000000000000000000000000000000000000000000000000000000000000000000000000000000000000000000000000000000000000000000000000000000000000000000000000000000000000000000000000000000000000000000000000000000000000000000000000000000000000000000000000000",
                    "coinbase" : "0x8888f1f195afa192cfee860698584c030f4c9db1",
                    "difficulty" : "0x020000",
                    "extraData" : "0x42",
                    "gasLimit" : "0x301fd2",
                    "gasUsed" : "0xa37c",
                    "hash" : "0x0a19ba6e8bec90d2e00a75ca6ecea003a065d953e65d8fe778db2970869d62e7",
                    "mixHash" : "0x0000000000000000000000000000000000000000000000000000000000000000",
                    "nonce" : "0x0000000000000000",
                    "number" : "0x04",
                    "parentHash" : "0x7872b8b4bc8e2b9c3c969710f76add44a15fcf9d2dd15346a81dbfc0f56ce1aa",
                    "receiptTrie" : "0x3fbb193da2ab82e108395799e878c98233d4849364391f2e19a798fb70a262fb",
                    "stateRoot" : "0x8a1b15ab3b2b6efa441a43690a6490ba16378f2c6160deff1e2b8ad48100c546",
                    "timestamp" : "0x54c99c21",
                    "transactionsTrie" : "0x39949f1106c123c2b08c5d83d1901d8f52b8ea143715aff7bb41b20421a5a3f7",
                    "uncleHash" : "0x1dcc4de8dec75d7aab85b567b6ccd41ad312451b948a7413f0a142fd40d49347"
                },
                "transactions" : [
                    {
                        "data" : "0x",
                        "gasLimit" : "0x0249f0",
                        "gasPrice" : "0x00",
                        "nonce" : "0x03",
                        "r" : "0x7a287ed5f28cb05cfca14aedc3f5c6adcb1d5508f8ffc1a1a80e6807ef92c881",
                        "s" : "0x6788de15c61f27947a7c2e3dad465db599dbe5205deb1f1336722c058b4f0b11",
                        "to" : "0x395e7baea6a6c7c4c2dfeb977efac326af552d87",
                        "v" : "0x1b",
                        "value" : "0x00"
                    }
                ],
                "rlp" : "0xf90261f901f9a07872b8b4bc8e2b9c3c969710f76add44a15fcf9d2dd15346a81dbfc0f56ce1aaa01dcc4de8dec75d7aab85b567b6ccd41ad312451b948a7413f0a142fd40d49347948888f1f195afa192cfee860698584c030f4c9db1a08a1b15ab3b2b6efa441a43690a6490ba16378f2c6160deff1e2b8ad48100c546a039949f1106c123c2b08c5d83d1901d8f52b8ea143715aff7bb41b20421a5a3f7a03fbb193da2ab82e108395799e878c98233d4849364391f2e19a798fb70a262fbb9010000000000000000000000000000000000000000000000000000000000000000000000000000000000000000000000000000000000000000000000000000000000000000000000000000000000000000000000000000000000000000000000000000000000000000000000000000000000000000000000000000000000000000000000000000000000000000000000000000000000000000000000000000000000000000000000000000000000000000000000000000000000000000000000000000000000000000000000000000000000000000000000000000000000000000000000000000000000000000000000000000000000000000000000000000000000830200000483301fd282a37c8454c99c2142a00000000000000000000000000000000000000000000000000000000000000000880000000000000000f862f8600380830249f094395e7baea6a6c7c4c2dfeb977efac326af552d8780801ba07a287ed5f28cb05cfca14aedc3f5c6adcb1d5508f8ffc1a1a80e6807ef92c881a06788de15c61f27947a7c2e3dad465db599dbe5205deb1f1336722c058b4f0b11c0"
            },
            {
                "chainname" : "default",
                "blocknumber" : "5",
                "uncleHeaders" : [
                ],
                "blockHeader" : {
                    "bloom" : "0x00000000000000000000000000000000000000000000000000000000000000000000000000000000000000000000000000000000000000000000000000000000000000000000000000000000000000000000000000000000000000000000000000000000000000000000000000000000000000000000000000000000000000000000000000000000000000000000000000000000000000000000000000000000000000000000000000000000000000000000000000000000000000000000000000000000000000000000000000000000000000000000000000000000000000000000000000000000000000000000000000000000000000000000000000000000",
                    "coinbase" : "0x8888f1f195afa192cfee860698584c030f4c9db1",
                    "difficulty" : "0x020000",
                    "extraData" : "0x42",
                    "gasLimit" : "0x302bd8",
                    "gasUsed" : "0xa6b6",
                    "hash" : "0x713162af1b2b7c183f824b805de07ac3132080c997dd7a683807bd4d779dfa00",
                    "mixHash" : "0x0000000000000000000000000000000000000000000000000000000000000000",
                    "nonce" : "0x0000000000000000",
                    "number" : "0x05",
                    "parentHash" : "0x0a19ba6e8bec90d2e00a75ca6ecea003a065d953e65d8fe778db2970869d62e7",
                    "receiptTrie" : "0x065371cbc393ce04f896b5722208fddb49391eae0cc771f236b947166ee57e6d",
                    "stateRoot" : "0x95ce4b16125c8c7ff89c7f0828c1bb3402eebaaece4d167290aac6f649dc763f",
                    "timestamp" : "0x54c9a009",
                    "transactionsTrie" : "0x41159ca0124f819b698853a7387ce44c5f62b720be5fbbf848064bfde11cbc98",
                    "uncleHash" : "0x1dcc4de8dec75d7aab85b567b6ccd41ad312451b948a7413f0a142fd40d49347"
                },
                "transactions" : [
                    {
                        "data" : "0x",
                        "gasLimit" : "0x0249f0",
                        "gasPrice" : "0x00",
                        "nonce" : "0x04",
                        "r" : "0x31cf6ed06716db235afb7f74fd576a3e8712110b46c8183ca913ce0419c8db64",
                        "s" : "0x6eaa270e49692dee44a7e60bec345205589f62aabb2517d9bf202b065c846c54",
                        "to" : "0x495e7baea6a6c7c4c2dfeb977efac326af552d87",
                        "v" : "0x1c",
                        "value" : "0x00"
                    }
                ],
                "rlp" : "0xf90261f901f9a00a19ba6e8bec90d2e00a75ca6ecea003a065d953e65d8fe778db2970869d62e7a01dcc4de8dec75d7aab85b567b6ccd41ad312451b948a7413f0a142fd40d49347948888f1f195afa192cfee860698584c030f4c9db1a095ce4b16125c8c7ff89c7f0828c1bb3402eebaaece4d167290aac6f649dc763fa041159ca0124f819b698853a7387ce44c5f62b720be5fbbf848064bfde11cbc98a0065371cbc393ce04f896b5722208fddb49391eae0cc771f236b947166ee57e6db9010000000000000000000000000000000000000000000000000000000000000000000000000000000000000000000000000000000000000000000000000000000000000000000000000000000000000000000000000000000000000000000000000000000000000000000000000000000000000000000000000000000000000000000000000000000000000000000000000000000000000000000000000000000000000000000000000000000000000000000000000000000000000000000000000000000000000000000000000000000000000000000000000000000000000000000000000000000000000000000000000000000000000000000000000000000000830200000583302bd882a6b68454c9a00942a00000000000000000000000000000000000000000000000000000000000000000880000000000000000f862f8600480830249f094495e7baea6a6c7c4c2dfeb977efac326af552d8780801ca031cf6ed06716db235afb7f74fd576a3e8712110b46c8183ca913ce0419c8db64a06eaa270e49692dee44a7e60bec345205589f62aabb2517d9bf202b065c846c54c0"
            }
        ],
        "postState" : {
            "0xa94f5374fce5edbc8e2a8697c15331677e6ebf0b" : {
                "code" : "0x",
                "nonce" : "0x05",
                "balance" : "0x0e9b8a",
                "storage" : {
                }
            },
            "0x095e7baea6a6c7c4c2dfeb977efac326af552d87" : {
                "code" : "0x60004060005560054060015560044060025500",
                "nonce" : "0x00",
                "balance" : "0x0de0b6b3a7640000",
                "storage" : {
                    "0x00" : "0x2fb1d1458629e8b82290ff2d5232c80aa2f7ad9304d90b76900c9e6b77cec17c"
                }
            },
            "0x495e7baea6a6c7c4c2dfeb977efac326af552d87" : {
                "code" : "0x600040600055610101406001557fffffffffffffffffffffffffffffffffffffffffffffffffffffffffffffffff4060025500",
                "nonce" : "0x00",
                "balance" : "0x0de0b6b3a7640000",
                "storage" : {
                    "0x00" : "0x2fb1d1458629e8b82290ff2d5232c80aa2f7ad9304d90b76900c9e6b77cec17c"
                }
            },
            "0x8888f1f195afa192cfee860698584c030f4c9db1" : {
                "code" : "0x",
                "nonce" : "0x00",
                "balance" : "0x8ac7230489e8a6b6",
                "storage" : {
                }
            },
            "0x295e7baea6a6c7c4c2dfeb977efac326af552d87" : {
                "code" : "0x6000406000556004406001556101004060025500",
                "nonce" : "0x00",
                "balance" : "0x0de0b6b3a7640000",
                "storage" : {
                    "0x00" : "0x2fb1d1458629e8b82290ff2d5232c80aa2f7ad9304d90b76900c9e6b77cec17c"
                }
            },
            "0x395e7baea6a6c7c4c2dfeb977efac326af552d87" : {
                "code" : "0x600040600055680100000000000000014060015500",
                "nonce" : "0x00",
                "balance" : "0x0de0b6b3a7640000",
                "storage" : {
                    "0x00" : "0x2fb1d1458629e8b82290ff2d5232c80aa2f7ad9304d90b76900c9e6b77cec17c"
                }
            },
            "0x195e7baea6a6c7c4c2dfeb977efac326af552d87" : {
                "code" : "0x61010043035b804050600556",
                "nonce" : "0x00",
                "balance" : "0x0de0b6b3a7640000",
                "storage" : {
                }
            }
        },
        "lastblockhash" : "0x713162af1b2b7c183f824b805de07ac3132080c997dd7a683807bd4d779dfa00"
    }
}