{
    "create2collisionwithSelfdestructSameBlock_Istanbul" : {
        "_info" : {
            "comment" : "collision with address that has been selfdesturcted by another transaction in the same block",
            "filledwith" : "testeth 1.8.0-alpha.0-12+commit.b120a12c.dirty",
            "lllcversion" : "Version: 0.5.12-develop.2019.9.13+commit.2d601a4f.Linux.g++",
            "source" : "src/BlockchainTestsFiller/ValidBlocks/bcStateTests/create2collisionwithSelfdestructSameBlockFiller.json",
            "sourceHash" : "1c63a19923c09d0443ca5ade216d615913c52c1fe6e8129629857b5d83a1a758"
        },
        "blocks" : [
            {
                "blockHeader" : {
                    "bloom" : "0x00000000000000000000000000000000000000000000000000000000000000000000000000000000000000000000000000000000000000000000000000000000000000000000000000000000000000000000000000000000000000000000000000000000000000000000000000000000000000000000000000000000000000000000000000000000000000000000000000000000000000000000000000000000000000000000000000000000000000000000000000000000000000000000000000000000000000000000000000000000000000000000000000000000000000000000000000000000000000000000000000000000000000000000000000000000",
                    "coinbase" : "0x8888f1f195afa192cfee860698584c030f4c9db1",
                    "difficulty" : "0x020000",
                    "extraData" : "",
                    "gasLimit" : "0x2fefba",
                    "gasUsed" : "0x01b5f3",
                    "hash" : "0x5c01076c5eb24acf8bf3df2a30fb64395ca6b00715811f0510a5f048cc925747",
                    "mixHash" : "0x0000000000000000000000000000000000000000000000000000000000000000",
                    "nonce" : "0x0000000000000000",
                    "number" : "0x01",
                    "parentHash" : "0x6284d52b3ca06f62fc6b76abbb5cbdf75714f8bddf8eca4b7fe46bbe945741da",
                    "receiptTrie" : "0x5bd9db951b04b66cdc89dfe8eaca47e76699020d7bff3c8ce86b9117f23e6fee",
                    "stateRoot" : "0x2f7d30e0dddd004316c7bca3f7e4289d8d9272228a508179afdd9d5c0c10a419",
                    "timestamp" : "0x5db73209",
                    "transactionsTrie" : "0x9a7dac460da5307c43a305019543be57db0d51ad199c47501a350bbe9fd4e1cd",
                    "uncleHash" : "0x1dcc4de8dec75d7aab85b567b6ccd41ad312451b948a7413f0a142fd40d49347"
                },
                "rlp" : "0xf902baf901faa06284d52b3ca06f62fc6b76abbb5cbdf75714f8bddf8eca4b7fe46bbe945741daa01dcc4de8dec75d7aab85b567b6ccd41ad312451b948a7413f0a142fd40d49347948888f1f195afa192cfee860698584c030f4c9db1a02f7d30e0dddd004316c7bca3f7e4289d8d9272228a508179afdd9d5c0c10a419a09a7dac460da5307c43a305019543be57db0d51ad199c47501a350bbe9fd4e1cda05bd9db951b04b66cdc89dfe8eaca47e76699020d7bff3c8ce86b9117f23e6feeb90100000000000000000000000000000000000000000000000000000000000000000000000000000000000000000000000000000000000000000000000000000000000000000000000000000000000000000000000000000000000000000000000000000000000000000000000000000000000000000000000000000000000000000000000000000000000000000000000000000000000000000000000000000000000000000000000000000000000000000000000000000000000000000000000000000000000000000000000000000000000000000000000000000000000000000000000000000000000000000000000000000000000000000000000000000000008302000001832fefba8301b5f3845db7320980a00000000000000000000000000000000000000000000000000000000000000000880000000000000000f8baf8608001830249f094ec0e71ad0a90ffe1909d27dac207f7680abba42d80801ba03d666b40cc93bea89201058674c2f1eb50ff5e50eeea2dca60f9ce367a736d7ea0760ee620e6a73d7ea93f00664a108aedb9dd0c0bd6a57ee9b5bbce0bd76606b2f8560101830249f0800a8a6000600060006000f5001ba0c1ff8c9cff7de4a785740a51f93fda08c1421a410eb531e7a94c264a2354654fa04235735cfb65768448e200f67107d25c12ee1f7b8292f0621260f895d17f1602c0",
                "transactions" : [
                    {
                        "data" : "0x",
                        "gasLimit" : "0x0249f0",
                        "gasPrice" : "0x01",
                        "nonce" : "0x00",
                        "r" : "0x3d666b40cc93bea89201058674c2f1eb50ff5e50eeea2dca60f9ce367a736d7e",
                        "s" : "0x760ee620e6a73d7ea93f00664a108aedb9dd0c0bd6a57ee9b5bbce0bd76606b2",
                        "to" : "0xec0e71ad0a90ffe1909d27dac207f7680abba42d",
                        "v" : "0x1b",
                        "value" : "0x00"
                    },
                    {
                        "data" : "0x6000600060006000f500",
                        "gasLimit" : "0x0249f0",
                        "gasPrice" : "0x01",
                        "nonce" : "0x01",
                        "r" : "0xc1ff8c9cff7de4a785740a51f93fda08c1421a410eb531e7a94c264a2354654f",
                        "s" : "0x4235735cfb65768448e200f67107d25c12ee1f7b8292f0621260f895d17f1602",
                        "to" : "",
                        "v" : "0x1b",
                        "value" : "0x0a"
                    }
                ],
                "uncleHeaders" : [
                ]
            }
        ],
        "genesisBlockHeader" : {
            "bloom" : "0x00000000000000000000000000000000000000000000000000000000000000000000000000000000000000000000000000000000000000000000000000000000000000000000000000000000000000000000000000000000000000000000000000000000000000000000000000000000000000000000000000000000000000000000000000000000000000000000000000000000000000000000000000000000000000000000000000000000000000000000000000000000000000000000000000000000000000000000000000000000000000000000000000000000000000000000000000000000000000000000000000000000000000000000000000000000",
            "coinbase" : "0x8888f1f195afa192cfee860698584c030f4c9db1",
            "difficulty" : "0x020000",
            "extraData" : "0x42",
            "gasLimit" : "0x2fefd8",
            "gasUsed" : "0x00",
            "hash" : "0x6284d52b3ca06f62fc6b76abbb5cbdf75714f8bddf8eca4b7fe46bbe945741da",
            "mixHash" : "0x56e81f171bcc55a6ff8345e692c0f86e5b48e01b996cadc001622fb5e363b421",
            "nonce" : "0x0102030405060708",
            "number" : "0x00",
            "parentHash" : "0x0000000000000000000000000000000000000000000000000000000000000000",
            "receiptTrie" : "0x56e81f171bcc55a6ff8345e692c0f86e5b48e01b996cadc001622fb5e363b421",
            "stateRoot" : "0x5b0751a85bedf3f095798feb7cfa86c16c328babbe9db026743416bdd540b78f",
            "timestamp" : "0x54c98c81",
            "transactionsTrie" : "0x56e81f171bcc55a6ff8345e692c0f86e5b48e01b996cadc001622fb5e363b421",
            "uncleHash" : "0x1dcc4de8dec75d7aab85b567b6ccd41ad312451b948a7413f0a142fd40d49347"
        },
        "genesisRLP" : "0xf901fcf901f7a00000000000000000000000000000000000000000000000000000000000000000a01dcc4de8dec75d7aab85b567b6ccd41ad312451b948a7413f0a142fd40d49347948888f1f195afa192cfee860698584c030f4c9db1a05b0751a85bedf3f095798feb7cfa86c16c328babbe9db026743416bdd540b78fa056e81f171bcc55a6ff8345e692c0f86e5b48e01b996cadc001622fb5e363b421a056e81f171bcc55a6ff8345e692c0f86e5b48e01b996cadc001622fb5e363b421b90100000000000000000000000000000000000000000000000000000000000000000000000000000000000000000000000000000000000000000000000000000000000000000000000000000000000000000000000000000000000000000000000000000000000000000000000000000000000000000000000000000000000000000000000000000000000000000000000000000000000000000000000000000000000000000000000000000000000000000000000000000000000000000000000000000000000000000000000000000000000000000000000000000000000000000000000000000000000000000000000000000000000000000000000000000000008302000080832fefd8808454c98c8142a056e81f171bcc55a6ff8345e692c0f86e5b48e01b996cadc001622fb5e363b421880102030405060708c0c0",
        "lastblockhash" : "0x5c01076c5eb24acf8bf3df2a30fb64395ca6b00715811f0510a5f048cc925747",
        "network" : "Istanbul",
        "postState" : {
            "0x0000000000000000000000000000000000000010" : {
                "balance" : "0x01",
                "code" : "",
                "nonce" : "0x00",
                "storage" : {
                }
            },
            "0x22a4ec9c035f66874f234c3a5bc7e18073e89057" : {
                "balance" : "0x00",
                "code" : "",
                "nonce" : "0x01",
                "storage" : {
                }
            },
            "0x8888f1f195afa192cfee860698584c030f4c9db1" : {
                "balance" : "0x1bc16d674ec9b5f3",
                "code" : "",
                "nonce" : "0x00",
                "storage" : {
                }
            },
            "0xa94f5374fce5edbc8e2a8697c15331677e6ebf0b" : {
                "balance" : "0x0de0b6b3a7624a03",
                "code" : "",
                "nonce" : "0x02",
                "storage" : {
                }
            },
            "0xec0e71ad0a90ffe1909d27dac207f7680abba42d" : {
                "balance" : "0x0a",
                "code" : "",
                "nonce" : "0x02",
                "storage" : {
                }
            }
        },
        "pre" : {
            "0xa94f5374fce5edbc8e2a8697c15331677e6ebf0b" : {
                "balance" : "0x0de0b6b3a7640000",
                "code" : "",
                "nonce" : "0x00",
                "storage" : {
                }
            },
            "0xec0e71ad0a90ffe1909d27dac207f7680abba42d" : {
                "balance" : "0x01",
                "code" : "0x6010ff00",
                "nonce" : "0x03",
                "storage" : {
                }
            }
        },
        "sealEngine" : "NoProof"
    }
}