{
    "create2collisionwithSelfdestructSameBlock_Istanbul" : {
        "_info" : {
            "comment" : "collision with address that has been selfdesturcted by another transaction in the same block",
            "filling-rpc-server" : "Geth-1.9.11-unstable-a382d783-20200127",
            "filling-tool-version" : "retesteth-0.0.2+commit.ce1fdd3d.Linux.g++",
            "lllcversion" : "Version: 0.5.14-develop.2019.11.27+commit.8f259595.Linux.g++",
            "source" : "src/BlockchainTestsFiller/ValidBlocks/bcStateTests/create2collisionwithSelfdestructSameBlockFiller.json",
            "sourceHash" : "16ab5cfce6714a22d784447b8fe946e26270857971d12c5056e93b35123b2a54"
        },
        "sealEngine" : "NoProof",
        "network" : "Istanbul",
        "pre" : {
            "0xa94f5374fce5edbc8e2a8697c15331677e6ebf0b" : {
                "balance" : "0x0de0b6b3a7640000",
                "code" : "0x",
                "nonce" : "0x00",
                "storage" : {
                }
            },
            "0xec0e71ad0a90ffe1909d27dac207f7680abba42d" : {
                "balance" : "0x01",
                "code" : "0x6010ff00",
                "nonce" : "0x03",
                "storage" : {
                }
            }
        },
        "genesisBlockHeader" : {
            "bloom" : "0x00000000000000000000000000000000000000000000000000000000000000000000000000000000000000000000000000000000000000000000000000000000000000000000000000000000000000000000000000000000000000000000000000000000000000000000000000000000000000000000000000000000000000000000000000000000000000000000000000000000000000000000000000000000000000000000000000000000000000000000000000000000000000000000000000000000000000000000000000000000000000000000000000000000000000000000000000000000000000000000000000000000000000000000000000000000",
            "coinbase" : "0x8888f1f195afa192cfee860698584c030f4c9db1",
            "difficulty" : "0x020000",
            "extraData" : "0x42",
            "gasLimit" : "0x2fefd8",
            "gasUsed" : "0x00",
            "hash" : "0x0a7c670b64bae0993f2d1be8d520de9ac99b2657e98833fe1514b95c7345c03f",
            "mixHash" : "0x0000000000000000000000000000000000000000000000000000000000000000",
            "nonce" : "0x0000000000000000",
            "number" : "0x00",
            "parentHash" : "0x0000000000000000000000000000000000000000000000000000000000000000",
            "receiptTrie" : "0x56e81f171bcc55a6ff8345e692c0f86e5b48e01b996cadc001622fb5e363b421",
            "stateRoot" : "0x5b0751a85bedf3f095798feb7cfa86c16c328babbe9db026743416bdd540b78f",
            "timestamp" : "0x54c98c81",
            "transactionsTrie" : "0x56e81f171bcc55a6ff8345e692c0f86e5b48e01b996cadc001622fb5e363b421",
            "uncleHash" : "0x1dcc4de8dec75d7aab85b567b6ccd41ad312451b948a7413f0a142fd40d49347"
        },
        "genesisRLP" : "0xf901fcf901f7a00000000000000000000000000000000000000000000000000000000000000000a01dcc4de8dec75d7aab85b567b6ccd41ad312451b948a7413f0a142fd40d49347948888f1f195afa192cfee860698584c030f4c9db1a05b0751a85bedf3f095798feb7cfa86c16c328babbe9db026743416bdd540b78fa056e81f171bcc55a6ff8345e692c0f86e5b48e01b996cadc001622fb5e363b421a056e81f171bcc55a6ff8345e692c0f86e5b48e01b996cadc001622fb5e363b421b90100000000000000000000000000000000000000000000000000000000000000000000000000000000000000000000000000000000000000000000000000000000000000000000000000000000000000000000000000000000000000000000000000000000000000000000000000000000000000000000000000000000000000000000000000000000000000000000000000000000000000000000000000000000000000000000000000000000000000000000000000000000000000000000000000000000000000000000000000000000000000000000000000000000000000000000000000000000000000000000000000000000000000000000000000000000008302000080832fefd8808454c98c8142a00000000000000000000000000000000000000000000000000000000000000000880000000000000000c0c0",
        "blocks" : [
            {
                "chainname" : "default",
                "blocknumber" : "1",
                "uncleHeaders" : [
                ],
                "blockHeader" : {
                    "bloom" : "0x00000000000000000000000000000000000000000000000000000000000000000000000000000000000000000000000000000000000000000000000000000000000000000000000000000000000000000000000000000000000000000000000000000000000000000000000000000000000000000000000000000000000000000000000000000000000000000000000000000000000000000000000000000000000000000000000000000000000000000000000000000000000000000000000000000000000000000000000000000000000000000000000000000000000000000000000000000000000000000000000000000000000000000000000000000000",
                    "coinbase" : "0x8888f1f195afa192cfee860698584c030f4c9db1",
                    "difficulty" : "0x020000",
                    "extraData" : "0x42",
                    "gasLimit" : "0x2ffbd2",
                    "gasUsed" : "0x01b5f3",
                    "hash" : "0x56618b8665cf40f5e4a193ee8ebe1b81e130bb14f8bd918f040ee75af41cf2b6",
                    "mixHash" : "0x0000000000000000000000000000000000000000000000000000000000000000",
                    "nonce" : "0x0000000000000000",
                    "number" : "0x01",
                    "parentHash" : "0x0a7c670b64bae0993f2d1be8d520de9ac99b2657e98833fe1514b95c7345c03f",
                    "receiptTrie" : "0x5bd9db951b04b66cdc89dfe8eaca47e76699020d7bff3c8ce86b9117f23e6fee",
                    "stateRoot" : "0x2f7d30e0dddd004316c7bca3f7e4289d8d9272228a508179afdd9d5c0c10a419",
                    "timestamp" : "0x54c99069",
                    "transactionsTrie" : "0x9a7dac460da5307c43a305019543be57db0d51ad199c47501a350bbe9fd4e1cd",
                    "uncleHash" : "0x1dcc4de8dec75d7aab85b567b6ccd41ad312451b948a7413f0a142fd40d49347"
                },
                "transactions" : [
                    {
                        "data" : "0x",
                        "gasLimit" : "0x0249f0",
                        "gasPrice" : "0x01",
                        "nonce" : "0x00",
                        "r" : "0x3d666b40cc93bea89201058674c2f1eb50ff5e50eeea2dca60f9ce367a736d7e",
                        "s" : "0x760ee620e6a73d7ea93f00664a108aedb9dd0c0bd6a57ee9b5bbce0bd76606b2",
                        "to" : "0xec0e71ad0a90ffe1909d27dac207f7680abba42d",
                        "v" : "0x1b",
                        "value" : "0x00"
                    },
                    {
                        "data" : "0x6000600060006000f500",
                        "gasLimit" : "0x0249f0",
                        "gasPrice" : "0x01",
                        "nonce" : "0x01",
                        "r" : "0xc1ff8c9cff7de4a785740a51f93fda08c1421a410eb531e7a94c264a2354654f",
                        "s" : "0x4235735cfb65768448e200f67107d25c12ee1f7b8292f0621260f895d17f1602",
                        "to" : "",
                        "v" : "0x1b",
                        "value" : "0x0a"
                    }
                ],
                "rlp" : "0xf902baf901faa00a7c670b64bae0993f2d1be8d520de9ac99b2657e98833fe1514b95c7345c03fa01dcc4de8dec75d7aab85b567b6ccd41ad312451b948a7413f0a142fd40d49347948888f1f195afa192cfee860698584c030f4c9db1a02f7d30e0dddd004316c7bca3f7e4289d8d9272228a508179afdd9d5c0c10a419a09a7dac460da5307c43a305019543be57db0d51ad199c47501a350bbe9fd4e1cda05bd9db951b04b66cdc89dfe8eaca47e76699020d7bff3c8ce86b9117f23e6feeb90100000000000000000000000000000000000000000000000000000000000000000000000000000000000000000000000000000000000000000000000000000000000000000000000000000000000000000000000000000000000000000000000000000000000000000000000000000000000000000000000000000000000000000000000000000000000000000000000000000000000000000000000000000000000000000000000000000000000000000000000000000000000000000000000000000000000000000000000000000000000000000000000000000000000000000000000000000000000000000000000000000000000000000000000000000000008302000001832ffbd28301b5f38454c9906942a00000000000000000000000000000000000000000000000000000000000000000880000000000000000f8baf8608001830249f094ec0e71ad0a90ffe1909d27dac207f7680abba42d80801ba03d666b40cc93bea89201058674c2f1eb50ff5e50eeea2dca60f9ce367a736d7ea0760ee620e6a73d7ea93f00664a108aedb9dd0c0bd6a57ee9b5bbce0bd76606b2f8560101830249f0800a8a6000600060006000f5001ba0c1ff8c9cff7de4a785740a51f93fda08c1421a410eb531e7a94c264a2354654fa04235735cfb65768448e200f67107d25c12ee1f7b8292f0621260f895d17f1602c0"
            }
        ],
        "postState" : {
            "0xa94f5374fce5edbc8e2a8697c15331677e6ebf0b" : {
                "code" : "0x",
                "nonce" : "0x02",
                "balance" : "0x0de0b6b3a7624a03",
                "storage" : {
                }
            },
            "0x0000000000000000000000000000000000000010" : {
                "code" : "0x",
                "nonce" : "0x00",
                "balance" : "0x01",
                "storage" : {
                }
            },
            "0x8888f1f195afa192cfee860698584c030f4c9db1" : {
                "code" : "0x",
                "nonce" : "0x00",
                "balance" : "0x1bc16d674ec9b5f3",
                "storage" : {
                }
            },
            "0xec0e71ad0a90ffe1909d27dac207f7680abba42d" : {
                "code" : "0x",
                "nonce" : "0x02",
                "balance" : "0x0a",
                "storage" : {
                }
            },
            "0x22a4ec9c035f66874f234c3a5bc7e18073e89057" : {
                "code" : "0x",
                "nonce" : "0x01",
                "balance" : "0x00",
                "storage" : {
                }
            }
        },
        "lastblockhash" : "0x56618b8665cf40f5e4a193ee8ebe1b81e130bb14f8bd918f040ee75af41cf2b6"
    }
}