{
    "extCodeHashOfDeletedAccount_Istanbul" : {
        "_info" : {
            "comment" : "5) a blockchain test with block having 2/3 transactions. account a is in the state with the code before the first transaction. 1st transaction (sstore 1 codehash(a)) 2nd transaction suicide a (could be merged with 1st transaction) 3d transaction (sstore 2 codehash(a)) check by expect section sstore value of 1 and 2.",
            "filling-rpc-server" : "Geth-1.9.11-unstable-a382d783-20200127",
            "filling-tool-version" : "retesteth-0.0.2+commit.ce1fdd3d.Linux.g++",
            "lllcversion" : "Version: 0.5.14-develop.2019.11.27+commit.8f259595.Linux.g++",
            "source" : "src/BlockchainTestsFiller/ValidBlocks/bcStateTests/extCodeHashOfDeletedAccountFiller.json",
            "sourceHash" : "bf3cd764fdcce65443367223d1666c695ce7b9a6a14cf747186791c61ce895a8"
        },
        "sealEngine" : "NoProof",
        "network" : "Istanbul",
        "pre" : {
            "0x1000000000000000000000000000000000000000" : {
                "balance" : "0x03e8",
                "code" : "0x7320000000000000000000000000000000000000003f6000557320000000000000000000000000000000000000003b6001556020600060007320000000000000000000000000000000000000003c60005160025500",
                "nonce" : "0x00",
                "storage" : {
                }
            },
            "0x1100000000000000000000000000000000000000" : {
                "balance" : "0x03e8",
                "code" : "0x60006000600060006000732000000000000000000000000000000000000000620186a0f100",
                "nonce" : "0x00",
                "storage" : {
                }
            },
            "0x1200000000000000000000000000000000000000" : {
                "balance" : "0x03e8",
                "code" : "0x7320000000000000000000000000000000000000003f6000557320000000000000000000000000000000000000003b6001556020600060007320000000000000000000000000000000000000003c60005160025500",
                "nonce" : "0x00",
                "storage" : {
                }
            },
            "0x2000000000000000000000000000000000000000" : {
                "balance" : "0x03e8",
                "code" : "0x6001ff00",
                "nonce" : "0x00",
                "storage" : {
                }
            },
            "0xa94f5374fce5edbc8e2a8697c15331677e6ebf0b" : {
                "balance" : "0x016345785d8a0000",
                "code" : "0x",
                "nonce" : "0x00",
                "storage" : {
                }
            }
        },
        "genesisBlockHeader" : {
            "bloom" : "0x00000000000000000000000000000000000000000000000000000000000000000000000000000000000000000000000000000000000000000000000000000000000000000000000000000000000000000000000000000000000000000000000000000000000000000000000000000000000000000000000000000000000000000000000000000000000000000000000000000000000000000000000000000000000000000000000000000000000000000000000000000000000000000000000000000000000000000000000000000000000000000000000000000000000000000000000000000000000000000000000000000000000000000000000000000000",
            "coinbase" : "0x8888f1f195afa192cfee860698584c030f4c9db1",
            "difficulty" : "0x020000",
            "extraData" : "0x42",
            "gasLimit" : "0x2fefd8",
            "gasUsed" : "0x00",
            "hash" : "0xbe699b00e45f8ebf37f569a33758a2c3fec17de00b8755aa1edb66114ce819c1",
            "mixHash" : "0x0000000000000000000000000000000000000000000000000000000000000000",
            "nonce" : "0x0000000000000000",
            "number" : "0x00",
            "parentHash" : "0x0000000000000000000000000000000000000000000000000000000000000000",
            "receiptTrie" : "0x56e81f171bcc55a6ff8345e692c0f86e5b48e01b996cadc001622fb5e363b421",
            "stateRoot" : "0x1230a246c339d507cb3918e0082185a24859c6ffb5161fe1f773596dcf8be3a8",
            "timestamp" : "0x54c98c81",
            "transactionsTrie" : "0x56e81f171bcc55a6ff8345e692c0f86e5b48e01b996cadc001622fb5e363b421",
            "uncleHash" : "0x1dcc4de8dec75d7aab85b567b6ccd41ad312451b948a7413f0a142fd40d49347"
        },
        "genesisRLP" : "0xf901fcf901f7a00000000000000000000000000000000000000000000000000000000000000000a01dcc4de8dec75d7aab85b567b6ccd41ad312451b948a7413f0a142fd40d49347948888f1f195afa192cfee860698584c030f4c9db1a01230a246c339d507cb3918e0082185a24859c6ffb5161fe1f773596dcf8be3a8a056e81f171bcc55a6ff8345e692c0f86e5b48e01b996cadc001622fb5e363b421a056e81f171bcc55a6ff8345e692c0f86e5b48e01b996cadc001622fb5e363b421b90100000000000000000000000000000000000000000000000000000000000000000000000000000000000000000000000000000000000000000000000000000000000000000000000000000000000000000000000000000000000000000000000000000000000000000000000000000000000000000000000000000000000000000000000000000000000000000000000000000000000000000000000000000000000000000000000000000000000000000000000000000000000000000000000000000000000000000000000000000000000000000000000000000000000000000000000000000000000000000000000000000000000000000000000000000000008302000080832fefd8808454c98c8142a00000000000000000000000000000000000000000000000000000000000000000880000000000000000c0c0",
        "blocks" : [
            {
                "chainname" : "default",
                "blocknumber" : "1",
                "uncleHeaders" : [
                ],
                "blockHeader" : {
                    "bloom" : "0x00000000000000000000000000000000000000000000000000000000000000000000000000000000000000000000000000000000000000000000000000000000000000000000000000000000000000000000000000000000000000000000000000000000000000000000000000000000000000000000000000000000000000000000000000000000000000000000000000000000000000000000000000000000000000000000000000000000000000000000000000000000000000000000000000000000000000000000000000000000000000000000000000000000000000000000000000000000000000000000000000000000000000000000000000000000",
                    "coinbase" : "0x8888f1f195afa192cfee860698584c030f4c9db1",
                    "difficulty" : "0x020000",
                    "extraData" : "0x42",
                    "gasLimit" : "0x2ffbd2",
                    "gasUsed" : "0x0214d2",
                    "hash" : "0x7af7a197ef391d5deb7b422e134d575c1bf7a528439ac6c0a8e95d9c680fb9ba",
                    "mixHash" : "0x0000000000000000000000000000000000000000000000000000000000000000",
                    "nonce" : "0x0000000000000000",
                    "number" : "0x01",
                    "parentHash" : "0xbe699b00e45f8ebf37f569a33758a2c3fec17de00b8755aa1edb66114ce819c1",
                    "receiptTrie" : "0x44f439ad73c5660d9b27c57761d998ed4d56953de4a78ef2a4cbca6cb71db27c",
                    "stateRoot" : "0x6ceca2abda42f53a37a99da508e069ebf2477949292e4094ceb47fce4da8ca86",
                    "timestamp" : "0x54c99069",
                    "transactionsTrie" : "0xe6cfeb14af7b3a91b1446f7e1a38c32998d2225b23b41d0a30d89980bba67e42",
                    "uncleHash" : "0x1dcc4de8dec75d7aab85b567b6ccd41ad312451b948a7413f0a142fd40d49347"
                },
                "transactions" : [
                    {
                        "data" : "0x",
                        "gasLimit" : "0x061a80",
                        "gasPrice" : "0x01",
                        "nonce" : "0x00",
                        "r" : "0x436c8420915217ae867d043179d78b4a8abc7a66f7658df0a06d4aa1f60475f3",
                        "s" : "0x17eab00aa21e61a07156519a1639a46bf5fb97e3fb07ea39ca885e9bb9145360",
                        "to" : "0x1000000000000000000000000000000000000000",
                        "v" : "0x1c",
                        "value" : "0x00"
                    },
                    {
                        "data" : "0x",
                        "gasLimit" : "0x061a80",
                        "gasPrice" : "0x01",
                        "nonce" : "0x01",
                        "r" : "0x211f2484b4229df13ba874c8d0daea7aa63f7cfb58bcaeac30da082ad867a7aa",
                        "s" : "0x3351adf0ceb867bfa88c150724693e01af84ec32a2bf0f29403aa0bb97f4c630",
                        "to" : "0x1100000000000000000000000000000000000000",
                        "v" : "0x1b",
                        "value" : "0x00"
                    },
                    {
                        "data" : "0x",
                        "gasLimit" : "0x061a80",
                        "gasPrice" : "0x01",
                        "nonce" : "0x02",
                        "r" : "0x88b24eaadbdec2fdf405a4017f5e0d7d8810d4c74a34843539f2be6cc1a989fc",
                        "s" : "0x79ad8ded0eeefa6732038ceb50e3a987a5ba9c1ea12eb3e6f78651858f1fd2a1",
                        "to" : "0x1200000000000000000000000000000000000000",
                        "v" : "0x1c",
                        "value" : "0x00"
                    }
                ],
                "rlp" : "0xf90327f901faa0be699b00e45f8ebf37f569a33758a2c3fec17de00b8755aa1edb66114ce819c1a01dcc4de8dec75d7aab85b567b6ccd41ad312451b948a7413f0a142fd40d49347948888f1f195afa192cfee860698584c030f4c9db1a06ceca2abda42f53a37a99da508e069ebf2477949292e4094ceb47fce4da8ca86a0e6cfeb14af7b3a91b1446f7e1a38c32998d2225b23b41d0a30d89980bba67e42a044f439ad73c5660d9b27c57761d998ed4d56953de4a78ef2a4cbca6cb71db27cb90100000000000000000000000000000000000000000000000000000000000000000000000000000000000000000000000000000000000000000000000000000000000000000000000000000000000000000000000000000000000000000000000000000000000000000000000000000000000000000000000000000000000000000000000000000000000000000000000000000000000000000000000000000000000000000000000000000000000000000000000000000000000000000000000000000000000000000000000000000000000000000000000000000000000000000000000000000000000000000000000000000000000000000000000000000000008302000001832ffbd2830214d28454c9906942a00000000000000000000000000000000000000000000000000000000000000000880000000000000000f90126f860800183061a8094100000000000000000000000000000000000000080801ca0436c8420915217ae867d043179d78b4a8abc7a66f7658df0a06d4aa1f60475f3a017eab00aa21e61a07156519a1639a46bf5fb97e3fb07ea39ca885e9bb9145360f860010183061a8094110000000000000000000000000000000000000080801ba0211f2484b4229df13ba874c8d0daea7aa63f7cfb58bcaeac30da082ad867a7aaa03351adf0ceb867bfa88c150724693e01af84ec32a2bf0f29403aa0bb97f4c630f860020183061a8094120000000000000000000000000000000000000080801ca088b24eaadbdec2fdf405a4017f5e0d7d8810d4c74a34843539f2be6cc1a989fca079ad8ded0eeefa6732038ceb50e3a987a5ba9c1ea12eb3e6f78651858f1fd2a1c0"
            }
        ],
        "postState" : {
            "0xa94f5374fce5edbc8e2a8697c15331677e6ebf0b" : {
                "code" : "0x",
                "nonce" : "0x03",
                "balance" : "0x016345785d87eb2e",
                "storage" : {
                }
            },
            "0x0000000000000000000000000000000000000001" : {
                "code" : "0x",
                "nonce" : "0x00",
                "balance" : "0x03e8",
                "storage" : {
                }
            },
            "0x1100000000000000000000000000000000000000" : {
                "code" : "0x60006000600060006000732000000000000000000000000000000000000000620186a0f100",
                "nonce" : "0x00",
                "balance" : "0x03e8",
                "storage" : {
                }
            },
            "0x1200000000000000000000000000000000000000" : {
                "code" : "0x7320000000000000000000000000000000000000003f6000557320000000000000000000000000000000000000003b6001556020600060007320000000000000000000000000000000000000003c60005160025500",
                "nonce" : "0x00",
                "balance" : "0x03e8",
                "storage" : {
                }
            },
            "0x8888f1f195afa192cfee860698584c030f4c9db1" : {
                "code" : "0x",
                "nonce" : "0x00",
                "balance" : "0x1bc16d674eca14d2",
                "storage" : {
                }
            },
            "0x1000000000000000000000000000000000000000" : {
                "code" : "0x7320000000000000000000000000000000000000003f6000557320000000000000000000000000000000000000003b6001556020600060007320000000000000000000000000000000000000003c60005160025500",
                "nonce" : "0x00",
                "balance" : "0x03e8",
                "storage" : {
                    "0x00" : "0xe71340103a107305070392c8c06d50d48483dbfd0f83ebe26c2f5d0e1872efab",
                    "0x02" : "0x6001ff0000000000000000000000000000000000000000000000000000000000",
                    "0x01" : "0x04"
                }
            }
        },
        "lastblockhash" : "0x7af7a197ef391d5deb7b422e134d575c1bf7a528439ac6c0a8e95d9c680fb9ba"
    }
}