{
    "multimpleBalanceInstruction_Istanbul" : {
        "_info" : {
            "comment" : "",
            "filling-rpc-server" : "Geth-1.9.11-unstable-a382d783-20200127",
            "filling-tool-version" : "retesteth-0.0.2+commit.ce1fdd3d.Linux.g++",
            "lllcversion" : "Version: 0.5.14-develop.2019.11.27+commit.8f259595.Linux.g++",
            "source" : "src/BlockchainTestsFiller/ValidBlocks/bcStateTests/multimpleBalanceInstructionFiller.json",
            "sourceHash" : "2d2fe6a1dbe2505c4abe63c920395a7cb707619fafe473b65ea1388794e76532"
        },
        "sealEngine" : "NoProof",
        "network" : "Istanbul",
        "pre" : {
            "0x095e7baea6a6c7c4c2dfeb977efac326af552d87" : {
                "balance" : "0x0186a0",
                "code" : "0x73a94f5374fce5edbc8e2a8697c15331677e6ebf0b31600055738888f1f195afa192cfee860698584c030f4c9db13160015573a94f5374fce5edbc8e2a8697c15331677e6ebf0b31600255738888f1f195afa192cfee860698584c030f4c9db13160035573095e7baea6a6c7c4c2dfeb977efac326af552d873160055500",
                "nonce" : "0x00",
                "storage" : {
                }
            },
            "0x195e7baea6a6c7c4c2dfeb977efac326af552d87" : {
                "balance" : "0x0186a0",
                "code" : "0x73a94f5374fce5edbc8e2a8697c15331677e6ebf0b31600055738888f1f195afa192cfee860698584c030f4c9db13160015573a94f5374fce5edbc8e2a8697c15331677e6ebf0b31600255738888f1f195afa192cfee860698584c030f4c9db13160035573095e7baea6a6c7c4c2dfeb977efac326af552d873160045573195e7baea6a6c7c4c2dfeb977efac326af552d873160055500",
                "nonce" : "0x00",
                "storage" : {
                }
            },
            "0xa94f5374fce5edbc8e2a8697c15331677e6ebf0b" : {
                "balance" : "0x1748721582",
                "code" : "0x",
                "nonce" : "0x00",
                "storage" : {
                }
            }
        },
        "genesisBlockHeader" : {
            "bloom" : "0x00000000000000000000000000000000000000000000000000000000000000000000000000000000000000000000000000000000000000000000000000000000000000000000000000000000000000000000000000000000000000000000000000000000000000000000000000000000000000000000000000000000000000000000000000000000000000000000000000000000000000000000000000000000000000000000000000000000000000000000000000000000000000000000000000000000000000000000000000000000000000000000000000000000000000000000000000000000000000000000000000000000000000000000000000000000",
            "coinbase" : "0x8888f1f195afa192cfee860698584c030f4c9db1",
            "difficulty" : "0x020000",
            "extraData" : "0x42",
            "gasLimit" : "0x2fefd8",
            "gasUsed" : "0x00",
            "hash" : "0x3baaa91a06afe006fbaa708904ab42f87e5cdc3b464f4bd6bf234d8421bd6074",
            "mixHash" : "0x0000000000000000000000000000000000000000000000000000000000000000",
            "nonce" : "0x0000000000000000",
            "number" : "0x00",
            "parentHash" : "0x0000000000000000000000000000000000000000000000000000000000000000",
            "receiptTrie" : "0x56e81f171bcc55a6ff8345e692c0f86e5b48e01b996cadc001622fb5e363b421",
            "stateRoot" : "0xbcce68a2148be53caa426c3a3196d4422fecc04abacf5f4ea56a8ff8f4a36817",
            "timestamp" : "0x54c98c81",
            "transactionsTrie" : "0x56e81f171bcc55a6ff8345e692c0f86e5b48e01b996cadc001622fb5e363b421",
            "uncleHash" : "0x1dcc4de8dec75d7aab85b567b6ccd41ad312451b948a7413f0a142fd40d49347"
        },
        "genesisRLP" : "0xf901fcf901f7a00000000000000000000000000000000000000000000000000000000000000000a01dcc4de8dec75d7aab85b567b6ccd41ad312451b948a7413f0a142fd40d49347948888f1f195afa192cfee860698584c030f4c9db1a0bcce68a2148be53caa426c3a3196d4422fecc04abacf5f4ea56a8ff8f4a36817a056e81f171bcc55a6ff8345e692c0f86e5b48e01b996cadc001622fb5e363b421a056e81f171bcc55a6ff8345e692c0f86e5b48e01b996cadc001622fb5e363b421b90100000000000000000000000000000000000000000000000000000000000000000000000000000000000000000000000000000000000000000000000000000000000000000000000000000000000000000000000000000000000000000000000000000000000000000000000000000000000000000000000000000000000000000000000000000000000000000000000000000000000000000000000000000000000000000000000000000000000000000000000000000000000000000000000000000000000000000000000000000000000000000000000000000000000000000000000000000000000000000000000000000000000000000000000000000000008302000080832fefd8808454c98c8142a00000000000000000000000000000000000000000000000000000000000000000880000000000000000c0c0",
        "blocks" : [
            {
                "chainname" : "default",
                "blocknumber" : "1",
                "uncleHeaders" : [
                ],
                "blockHeader" : {
                    "bloom" : "0x00000000000000000000000000000000000000000000000000000000000000000000000000000000000000000000000000000000000000000000000000000000000000000000000000000000000000000000000000000000000000000000000000000000000000000000000000000000000000000000000000000000000000000000000000000000000000000000000000000000000000000000000000000000000000000000000000000000000000000000000000000000000000000000000000000000000000000000000000000000000000000000000000000000000000000000000000000000000000000000000000000000000000000000000000000000",
                    "coinbase" : "0x8888f1f195afa192cfee860698584c030f4c9db1",
                    "difficulty" : "0x020000",
                    "extraData" : "0x42",
                    "gasLimit" : "0x2ffbd2",
                    "gasUsed" : "0x015072",
                    "hash" : "0xcb84b6548602205515cc7af047f5a0e8e8958db53980300dbf30744b0f110e44",
                    "mixHash" : "0x0000000000000000000000000000000000000000000000000000000000000000",
                    "nonce" : "0x0000000000000000",
                    "number" : "0x01",
                    "parentHash" : "0x3baaa91a06afe006fbaa708904ab42f87e5cdc3b464f4bd6bf234d8421bd6074",
                    "receiptTrie" : "0xb42da30e58ff86a7769a40abf2ae0be1674b84d833b3e2fe5bc3421d6652e9bb",
                    "stateRoot" : "0xa56f2baf0a200f0a365373b39e8f00600c2c3860e4213d5bce144275a67149cf",
                    "timestamp" : "0x54c99069",
                    "transactionsTrie" : "0x6fb77a9ddaa64a8e161b643d05533a4093f2be900ad06279b1b56b3bcee3b979",
                    "uncleHash" : "0x1dcc4de8dec75d7aab85b567b6ccd41ad312451b948a7413f0a142fd40d49347"
                },
                "transactions" : [
                    {
                        "data" : "0x",
                        "gasLimit" : "0x0249f0",
                        "gasPrice" : "0x0a",
                        "nonce" : "0x00",
                        "r" : "0xd42a045ac77a6d4676dd5fbc5104ed7471b6cef2465cfefaa52919b340f942a9",
                        "s" : "0x6e4d319aea79e45cde79d337e6edf849ceac505cab65dd41a572cab132d4dcca",
                        "to" : "0x095e7baea6a6c7c4c2dfeb977efac326af552d87",
                        "v" : "0x1b",
                        "value" : "0x0a"
                    }
                ],
                "rlp" : "0xf90262f901faa03baaa91a06afe006fbaa708904ab42f87e5cdc3b464f4bd6bf234d8421bd6074a01dcc4de8dec75d7aab85b567b6ccd41ad312451b948a7413f0a142fd40d49347948888f1f195afa192cfee860698584c030f4c9db1a0a56f2baf0a200f0a365373b39e8f00600c2c3860e4213d5bce144275a67149cfa06fb77a9ddaa64a8e161b643d05533a4093f2be900ad06279b1b56b3bcee3b979a0b42da30e58ff86a7769a40abf2ae0be1674b84d833b3e2fe5bc3421d6652e9bbb90100000000000000000000000000000000000000000000000000000000000000000000000000000000000000000000000000000000000000000000000000000000000000000000000000000000000000000000000000000000000000000000000000000000000000000000000000000000000000000000000000000000000000000000000000000000000000000000000000000000000000000000000000000000000000000000000000000000000000000000000000000000000000000000000000000000000000000000000000000000000000000000000000000000000000000000000000000000000000000000000000000000000000000000000000000000008302000001832ffbd2830150728454c9906942a00000000000000000000000000000000000000000000000000000000000000000880000000000000000f862f860800a830249f094095e7baea6a6c7c4c2dfeb977efac326af552d870a801ba0d42a045ac77a6d4676dd5fbc5104ed7471b6cef2465cfefaa52919b340f942a9a06e4d319aea79e45cde79d337e6edf849ceac505cab65dd41a572cab132d4dccac0"
            },
            {
                "chainname" : "default",
                "blocknumber" : "2",
                "uncleHeaders" : [
                ],
                "blockHeader" : {
                    "bloom" : "0x00000000000000000000000000000000000000000000000000000000000000000000000000000000000000000000000000000000000000000000000000000000000000000000000000000000000000000000000000000000000000000000000000000000000000000000000000000000000000000000000000000000000000000000000000000000000000000000000000000000000000000000000000000000000000000000000000000000000000000000000000000000000000000000000000000000000000000000000000000000000000000000000000000000000000000000000000000000000000000000000000000000000000000000000000000000",
                    "coinbase" : "0x8888f1f195afa192cfee860698584c030f4c9db1",
                    "difficulty" : "0x020000",
                    "extraData" : "0x42",
                    "gasLimit" : "0x3007cf",
                    "gasUsed" : "0x023754",
                    "hash" : "0x0dff9669f26bf1be8b85fce1d1c0c5d6230d9d6c7e195cf0c5a3f59f6d3f3e0d",
                    "mixHash" : "0x0000000000000000000000000000000000000000000000000000000000000000",
                    "nonce" : "0x0000000000000000",
                    "number" : "0x02",
                    "parentHash" : "0xcb84b6548602205515cc7af047f5a0e8e8958db53980300dbf30744b0f110e44",
                    "receiptTrie" : "0x3bfa2d8733130de11f4f21117a9b3461cfea450da840dd0f66659f37b9473bd3",
                    "stateRoot" : "0x676b4d8d50a74fcadcf6a1e63e6e324a4695f59edc3248f87e49f6eee15a4a48",
                    "timestamp" : "0x54c99451",
                    "transactionsTrie" : "0x0ec2a6fb4e8b6e9423d61e1f2f5144d628c59cfc0bcc98fe1f8d8fd4a6f6f35b",
                    "uncleHash" : "0x1dcc4de8dec75d7aab85b567b6ccd41ad312451b948a7413f0a142fd40d49347"
                },
                "transactions" : [
                    {
                        "data" : "0x",
                        "gasLimit" : "0x0249f0",
                        "gasPrice" : "0x0a",
                        "nonce" : "0x01",
                        "r" : "0x6d01fca31ce3065aac598e12f6cee26f63f9162a0ff86ff3bbadf6099c7531dc",
                        "s" : "0x6d33d52ce23c9fcd69179690e21de794371a38940a590f32f8570eddfd926e71",
                        "to" : "0x195e7baea6a6c7c4c2dfeb977efac326af552d87",
                        "v" : "0x1b",
                        "value" : "0x03e8"
                    }
                ],
                "rlp" : "0xf90264f901faa0cb84b6548602205515cc7af047f5a0e8e8958db53980300dbf30744b0f110e44a01dcc4de8dec75d7aab85b567b6ccd41ad312451b948a7413f0a142fd40d49347948888f1f195afa192cfee860698584c030f4c9db1a0676b4d8d50a74fcadcf6a1e63e6e324a4695f59edc3248f87e49f6eee15a4a48a00ec2a6fb4e8b6e9423d61e1f2f5144d628c59cfc0bcc98fe1f8d8fd4a6f6f35ba03bfa2d8733130de11f4f21117a9b3461cfea450da840dd0f66659f37b9473bd3b90100000000000000000000000000000000000000000000000000000000000000000000000000000000000000000000000000000000000000000000000000000000000000000000000000000000000000000000000000000000000000000000000000000000000000000000000000000000000000000000000000000000000000000000000000000000000000000000000000000000000000000000000000000000000000000000000000000000000000000000000000000000000000000000000000000000000000000000000000000000000000000000000000000000000000000000000000000000000000000000000000000000000000000000000000000000008302000002833007cf830237548454c9945142a00000000000000000000000000000000000000000000000000000000000000000880000000000000000f864f862010a830249f094195e7baea6a6c7c4c2dfeb977efac326af552d878203e8801ba06d01fca31ce3065aac598e12f6cee26f63f9162a0ff86ff3bbadf6099c7531dca06d33d52ce23c9fcd69179690e21de794371a38940a590f32f8570eddfd926e71c0"
            }
        ],
        "postState" : {
            "0xa94f5374fce5edbc8e2a8697c15331677e6ebf0b" : {
                "code" : "0x",
                "nonce" : "0x02",
                "balance" : "0x17484ec3d4",
                "storage" : {
                }
            },
            "0x095e7baea6a6c7c4c2dfeb977efac326af552d87" : {
                "code" : "0x73a94f5374fce5edbc8e2a8697c15331677e6ebf0b31600055738888f1f195afa192cfee860698584c030f4c9db13160015573a94f5374fce5edbc8e2a8697c15331677e6ebf0b31600255738888f1f195afa192cfee860698584c030f4c9db13160035573095e7baea6a6c7c4c2dfeb977efac326af552d873160055500",
                "nonce" : "0x00",
                "balance" : "0x0186aa",
                "storage" : {
                    "0x05" : "0x0186aa",
                    "0x00" : "0x17485b3218",
                    "0x02" : "0x17485b3218"
                }
            },
            "0x8888f1f195afa192cfee860698584c030f4c9db1" : {
                "code" : "0x",
                "nonce" : "0x00",
                "balance" : "0x3782dace9db34dbc",
                "storage" : {
                }
            },
            "0x195e7baea6a6c7c4c2dfeb977efac326af552d87" : {
                "code" : "0x73a94f5374fce5edbc8e2a8697c15331677e6ebf0b31600055738888f1f195afa192cfee860698584c030f4c9db13160015573a94f5374fce5edbc8e2a8697c15331677e6ebf0b31600255738888f1f195afa192cfee860698584c030f4c9db13160035573095e7baea6a6c7c4c2dfeb977efac326af552d873160045573195e7baea6a6c7c4c2dfeb977efac326af552d873160055500",
                "nonce" : "0x00",
                "balance" : "0x018a88",
                "storage" : {
                    "0x05" : "0x018a88",
                    "0x00" : "0x17484e09bc",
                    "0x02" : "0x17484e09bc",
                    "0x04" : "0x0186aa",
                    "0x01" : "0x1bc16d674ed52474",
                    "0x03" : "0x1bc16d674ed52474"
                }
            }
        },
        "lastblockhash" : "0x0dff9669f26bf1be8b85fce1d1c0c5d6230d9d6c7e195cf0c5a3f59f6d3f3e0d"
    }
}