{
    "OOGStateCopyContainingDeletedContract_Istanbul" : {
        "_info" : {
            "comment" : "",
            "filling-rpc-server" : "Geth-1.9.11-unstable-a382d783-20200127",
            "filling-tool-version" : "retesteth-0.0.2+commit.ce1fdd3d.Linux.g++",
            "lllcversion" : "Version: 0.5.14-develop.2019.11.27+commit.8f259595.Linux.g++",
            "source" : "src/BlockchainTestsFiller/ValidBlocks/bcStateTests/OOGStateCopyContainingDeletedContractFiller.json",
            "sourceHash" : "f83646bac8149d5e2960209e07a2c36bca1596e29ca87e85721314fd86b48b4c"
        },
        "sealEngine" : "NoProof",
        "network" : "Istanbul",
        "pre" : {
            "0x2e0de3fc10a88911ff857126db1a5f0da6f25173" : {
                "balance" : "0x01",
                "code" : "0x60606040526000357c01000000000000000000000000000000000000000000000000000000009004806342e90c3314610044578063fc49c80e1461005157610042565b005b61004f600450610064565b005b6100626004803590602001506100a4565b005b6000600090505b600a8160ff1610156100a057602a600060005082600a81101561000257909001600050819055505b808060010191505061006b565b5b50565b3073ffffffffffffffffffffffffffffffffffffffff1661ea6060405180807f53746f7265282900000000000000000000000000000000000000000000000000815260200150600701905060405180910390207c0100000000000000000000000000000000000000000000000000000000809104027c0100000000000000000000000000000000000000000000000000000000900490604051827c010000000000000000000000000000000000000000000000000000000002815260040180905060006040518083038160008887f19350505050508073ffffffffffffffffffffffffffffffffffffffff166326c6a34c604051817c01000000000000000000000000000000000000000000000000000000000281526004018090506020604051808303816000876161da5a03f115610002575050506040515160006000506009600a81101561000257909001600050819055505b5056",
                "nonce" : "0x00",
                "storage" : {
                }
            },
            "0x64306ec3f51a26dcf19f5da0c043040f54f4eca5" : {
                "balance" : "0x01",
                "code" : "0x60606040526000357c0100000000000000000000000000000000000000000000000000000000900480630c5feb5d14604157806326c6a34c14604c57603f565b005b604a600450606b565b005b60556004506086565b6040518082815260200191505060405180910390f35b3373ffffffffffffffffffffffffffffffffffffffff16ff5b565b600061053990506091565b9056",
                "nonce" : "0x00",
                "storage" : {
                }
            },
            "0xa94f5374fce5edbc8e2a8697c15331677e6ebf0b" : {
                "balance" : "0x174876e800",
                "code" : "0x",
                "nonce" : "0x00",
                "storage" : {
                }
            }
        },
        "genesisBlockHeader" : {
            "bloom" : "0x00000000000000000000000000000000000000000000000000000000000000000000000000000000000000000000000000000000000000000000000000000000000000000000000000000000000000000000000000000000000000000000000000000000000000000000000000000000000000000000000000000000000000000000000000000000000000000000000000000000000000000000000000000000000000000000000000000000000000000000000000000000000000000000000000000000000000000000000000000000000000000000000000000000000000000000000000000000000000000000000000000000000000000000000000000000",
            "coinbase" : "0x8888f1f195afa192cfee860698584c030f4c9db1",
            "difficulty" : "0x020000",
            "extraData" : "0x42",
            "gasLimit" : "0x2fefd8",
            "gasUsed" : "0x00",
            "hash" : "0xd03a60148b6be03e0a745d24507b132492b2dc679ad0e51b57b42055137e2c0d",
            "mixHash" : "0x0000000000000000000000000000000000000000000000000000000000000000",
            "nonce" : "0x0000000000000000",
            "number" : "0x00",
            "parentHash" : "0x0000000000000000000000000000000000000000000000000000000000000000",
            "receiptTrie" : "0x56e81f171bcc55a6ff8345e692c0f86e5b48e01b996cadc001622fb5e363b421",
            "stateRoot" : "0x2b9f478fe39744a8c17eb48ae7bf86f6a47031a823a632f9bd661b59978aeefd",
            "timestamp" : "0x54c98c81",
            "transactionsTrie" : "0x56e81f171bcc55a6ff8345e692c0f86e5b48e01b996cadc001622fb5e363b421",
            "uncleHash" : "0x1dcc4de8dec75d7aab85b567b6ccd41ad312451b948a7413f0a142fd40d49347"
        },
        "genesisRLP" : "0xf901fcf901f7a00000000000000000000000000000000000000000000000000000000000000000a01dcc4de8dec75d7aab85b567b6ccd41ad312451b948a7413f0a142fd40d49347948888f1f195afa192cfee860698584c030f4c9db1a02b9f478fe39744a8c17eb48ae7bf86f6a47031a823a632f9bd661b59978aeefda056e81f171bcc55a6ff8345e692c0f86e5b48e01b996cadc001622fb5e363b421a056e81f171bcc55a6ff8345e692c0f86e5b48e01b996cadc001622fb5e363b421b90100000000000000000000000000000000000000000000000000000000000000000000000000000000000000000000000000000000000000000000000000000000000000000000000000000000000000000000000000000000000000000000000000000000000000000000000000000000000000000000000000000000000000000000000000000000000000000000000000000000000000000000000000000000000000000000000000000000000000000000000000000000000000000000000000000000000000000000000000000000000000000000000000000000000000000000000000000000000000000000000000000000000000000000000000000000008302000080832fefd8808454c98c8142a00000000000000000000000000000000000000000000000000000000000000000880000000000000000c0c0",
        "blocks" : [
            {
                "chainname" : "default",
                "blocknumber" : "1",
                "uncleHeaders" : [
                ],
                "blockHeader" : {
                    "bloom" : "0x00000000000000000000000000000000000000000000000000000000000000000000000000000000000000000000000000000000000000000000000000000000000000000000000000000000000000000000000000000000000000000000000000000000000000000000000000000000000000000000000000000000000000000000000000000000000000000000000000000000000000000000000000000000000000000000000000000000000000000000000000000000000000000000000000000000000000000000000000000000000000000000000000000000000000000000000000000000000000000000000000000000000000000000000000000000",
                    "coinbase" : "0x8888f1f195afa192cfee860698584c030f4c9db1",
                    "difficulty" : "0x020000",
                    "extraData" : "0x42",
                    "gasLimit" : "0x2ffbd2",
                    "gasUsed" : "0x01c6cc",
                    "hash" : "0x5087b8458b1bd9f2e380e5d3a0c04f14d07eb7d72c5795056fbbd7799399e60f",
                    "mixHash" : "0x0000000000000000000000000000000000000000000000000000000000000000",
                    "nonce" : "0x0000000000000000",
                    "number" : "0x01",
                    "parentHash" : "0xd03a60148b6be03e0a745d24507b132492b2dc679ad0e51b57b42055137e2c0d",
                    "receiptTrie" : "0x093dc1bbf1d3517d6f7dac7c9d534a14aa015c4495b770b9268c2b8fa599b53c",
                    "stateRoot" : "0x791f03e7df8cd08471dd986997125f24f4ec0969ed9e52ef6f2eaba953dec7a0",
                    "timestamp" : "0x54c99069",
                    "transactionsTrie" : "0x5c3eb7e26c39308ede0b5a0b9b403fb89c3369deda106c32faf7d0def6f421d2",
                    "uncleHash" : "0x1dcc4de8dec75d7aab85b567b6ccd41ad312451b948a7413f0a142fd40d49347"
                },
                "transactions" : [
                    {
                        "data" : "0x0c5feb5d",
                        "gasLimit" : "0x0493e0",
                        "gasPrice" : "0x0a",
                        "nonce" : "0x00",
                        "r" : "0x0cf2cc4de3013273d0aae3cf36cdb6cf152573f7a5b99fe2c514a845bbb98a93",
                        "s" : "0x48f4aa20b37303bf4f2c0e7e5f6c178814f99ab4d3d98cf9382185f1ae256b7f",
                        "to" : "0x64306ec3f51a26dcf19f5da0c043040f54f4eca5",
                        "v" : "0x1b",
                        "value" : "0x01"
                    },
                    {
                        "data" : "0xfc49c80e00000000000000000000000064306ec3f51a26dcf19f5da0c043040f54f4eca5",
                        "gasLimit" : "0x0493e0",
                        "gasPrice" : "0x0a",
                        "nonce" : "0x01",
                        "r" : "0xc9f11f1b4aedd9c1d99a6e2aea6f9ce90bdd6bb6063193715fdb43e77029346f",
                        "s" : "0x3440044e3aa54293e887f1751146bf915e73c39eae7da82b75a6d2c7a31d252b",
                        "to" : "0x2e0de3fc10a88911ff857126db1a5f0da6f25173",
                        "v" : "0x1c",
                        "value" : "0x03ea"
                    }
                ],
                "rlp" : "0xf902eef901faa0d03a60148b6be03e0a745d24507b132492b2dc679ad0e51b57b42055137e2c0da01dcc4de8dec75d7aab85b567b6ccd41ad312451b948a7413f0a142fd40d49347948888f1f195afa192cfee860698584c030f4c9db1a0791f03e7df8cd08471dd986997125f24f4ec0969ed9e52ef6f2eaba953dec7a0a05c3eb7e26c39308ede0b5a0b9b403fb89c3369deda106c32faf7d0def6f421d2a0093dc1bbf1d3517d6f7dac7c9d534a14aa015c4495b770b9268c2b8fa599b53cb90100000000000000000000000000000000000000000000000000000000000000000000000000000000000000000000000000000000000000000000000000000000000000000000000000000000000000000000000000000000000000000000000000000000000000000000000000000000000000000000000000000000000000000000000000000000000000000000000000000000000000000000000000000000000000000000000000000000000000000000000000000000000000000000000000000000000000000000000000000000000000000000000000000000000000000000000000000000000000000000000000000000000000000000000000000000008302000001832ffbd28301c6cc8454c9906942a00000000000000000000000000000000000000000000000000000000000000000880000000000000000f8eef864800a830493e09464306ec3f51a26dcf19f5da0c043040f54f4eca501840c5feb5d1ba00cf2cc4de3013273d0aae3cf36cdb6cf152573f7a5b99fe2c514a845bbb98a93a048f4aa20b37303bf4f2c0e7e5f6c178814f99ab4d3d98cf9382185f1ae256b7ff886010a830493e0942e0de3fc10a88911ff857126db1a5f0da6f251738203eaa4fc49c80e00000000000000000000000064306ec3f51a26dcf19f5da0c043040f54f4eca51ca0c9f11f1b4aedd9c1d99a6e2aea6f9ce90bdd6bb6063193715fdb43e77029346fa03440044e3aa54293e887f1751146bf915e73c39eae7da82b75a6d2c7a31d252bc0"
            }
        ],
        "postState" : {
            "0xa94f5374fce5edbc8e2a8697c15331677e6ebf0b" : {
                "code" : "0x",
                "nonce" : "0x02",
                "balance" : "0x174865201f",
                "storage" : {
                }
            },
            "0x8888f1f195afa192cfee860698584c030f4c9db1" : {
                "code" : "0x",
                "nonce" : "0x00",
                "balance" : "0x1bc16d674ed9c3f8",
                "storage" : {
                }
            },
            "0x2e0de3fc10a88911ff857126db1a5f0da6f25173" : {
                "code" : "0x60606040526000357c01000000000000000000000000000000000000000000000000000000009004806342e90c3314610044578063fc49c80e1461005157610042565b005b61004f600450610064565b005b6100626004803590602001506100a4565b005b6000600090505b600a8160ff1610156100a057602a600060005082600a81101561000257909001600050819055505b808060010191505061006b565b5b50565b3073ffffffffffffffffffffffffffffffffffffffff1661ea6060405180807f53746f7265282900000000000000000000000000000000000000000000000000815260200150600701905060405180910390207c0100000000000000000000000000000000000000000000000000000000809104027c0100000000000000000000000000000000000000000000000000000000900490604051827c010000000000000000000000000000000000000000000000000000000002815260040180905060006040518083038160008887f19350505050508073ffffffffffffffffffffffffffffffffffffffff166326c6a34c604051817c01000000000000000000000000000000000000000000000000000000000281526004018090506020604051808303816000876161da5a03f115610002575050506040515160006000506009600a81101561000257909001600050819055505b5056",
                "nonce" : "0x00",
                "balance" : "0x03eb",
                "storage" : {
                    "0x09" : "0x26c6a34c00000000000000000000000000000000000000000000000000000000"
                }
            }
        },
        "lastblockhash" : "0x5087b8458b1bd9f2e380e5d3a0c04f14d07eb7d72c5795056fbbd7799399e60f"
    }
}