{
    "randomStatetest160_Istanbul" : {
        "_info" : {
            "comment" : "",
            "filledwith" : "testeth 1.8.0-alpha.0-12+commit.b120a12c.dirty",
            "lllcversion" : "Version: 0.5.12-develop.2019.9.13+commit.2d601a4f.Linux.g++",
            "source" : "src/BlockchainTestsFiller/ValidBlocks/bcStateTests/randomStatetest160Filler.json",
            "sourceHash" : "94629cc8b2f4b9f03e5e89a468443fc0e011ff5400bb652c91087b7ad7e60d65"
        },
        "blocks" : [
            {
                "blockHeader" : {
                    "bloom" : "0x00000000000000000000000000000000000000000000000000000000000000000000000000000000000000000000000000000000000000000000000000000000000000000000000000000000000000000000000000000000000000000000000000000000000000000000000000000000000000000000000000000000000000000000000000000000000000000000000000000000000000000000000000000000000000000000000000000000000000000000000000000000000000000000000000000000000000000000000000000000000000000000000000000000000000000000000000000000000000000000000000000000000000000000000000000000",
                    "coinbase" : "0x945304eb96065b2a98b57a48a06ae28d285a71b5",
                    "difficulty" : "0x020000",
                    "extraData" : "",
                    "gasLimit" : "0x7fe0000000000001",
                    "gasUsed" : "0x015087",
                    "hash" : "0x7213e14b84b7b0e2d50951ff05fe2ecd72bd4591fa8e1df699282909ac88d369",
                    "mixHash" : "0x0000000000000000000000000000000000000000000000000000000000000000",
                    "nonce" : "0x0000000000000000",
                    "number" : "0x01",
                    "parentHash" : "0x387a1bdd3356b335f90559c63e165259dd6ae2add1e22729c7802caf7ce6689c",
                    "receiptTrie" : "0xfdceecdfef59c24afab5bc5c49400b6f1c2e19b0373225085b45936d240d835f",
                    "stateRoot" : "0xa58b4c29666634778ce6dab47d7bdbcc33e2e2533f1f63c5c16980498eea4be1",
                    "timestamp" : "0x5db7320b",
                    "transactionsTrie" : "0xea2c23140f9304ac644ed2168d38810b255563a317f85d94b1417efe60e9c67f",
                    "uncleHash" : "0x1dcc4de8dec75d7aab85b567b6ccd41ad312451b948a7413f0a142fd40d49347"
                },
                "rlp" : "0xf9026af901ffa0387a1bdd3356b335f90559c63e165259dd6ae2add1e22729c7802caf7ce6689ca01dcc4de8dec75d7aab85b567b6ccd41ad312451b948a7413f0a142fd40d4934794945304eb96065b2a98b57a48a06ae28d285a71b5a0a58b4c29666634778ce6dab47d7bdbcc33e2e2533f1f63c5c16980498eea4be1a0ea2c23140f9304ac644ed2168d38810b255563a317f85d94b1417efe60e9c67fa0fdceecdfef59c24afab5bc5c49400b6f1c2e19b0373225085b45936d240d835fb90100000000000000000000000000000000000000000000000000000000000000000000000000000000000000000000000000000000000000000000000000000000000000000000000000000000000000000000000000000000000000000000000000000000000000000000000000000000000000000000000000000000000000000000000000000000000000000000000000000000000000000000000000000000000000000000000000000000000000000000000000000000000000000000000000000000000000000000000000000000000000000000000000000000000000000000000000000000000000000000000000000000000000000000000000000000008302000001887fe000000000000183015087845db7320b80a00000000000000000000000000000000000000000000000000000000000000000880000000000000000f865f863800183061a8094095e7baea6a6c7c4c2dfeb977efac326af552d87830186a0421ba0cd95e27b278d4519277b0d2675dc5a4ba134a179c9161b08907df9f1f8309765a078634240a51c2e3d932e8dd4cf5befb3ced234cde11c6d2a23fd47d2e96bfdffc0",
                "transactions" : [
                    {
                        "data" : "0x42",
                        "gasLimit" : "0x061a80",
                        "gasPrice" : "0x01",
                        "nonce" : "0x00",
                        "r" : "0xcd95e27b278d4519277b0d2675dc5a4ba134a179c9161b08907df9f1f8309765",
                        "s" : "0x78634240a51c2e3d932e8dd4cf5befb3ced234cde11c6d2a23fd47d2e96bfdff",
                        "to" : "0x095e7baea6a6c7c4c2dfeb977efac326af552d87",
                        "v" : "0x1b",
                        "value" : "0x0186a0"
                    }
                ],
                "uncleHeaders" : [
                ]
            }
        ],
        "genesisBlockHeader" : {
            "bloom" : "0x00000000000000000000000000000000000000000000000000000000000000000000000000000000000000000000000000000000000000000000000000000000000000000000000000000000000000000000000000000000000000000000000000000000000000000000000000000000000000000000000000000000000000000000000000000000000000000000000000000000000000000000000000000000000000000000000000000000000000000000000000000000000000000000000000000000000000000000000000000000000000000000000000000000000000000000000000000000000000000000000000000000000000000000000000000000",
            "coinbase" : "0x945304eb96065b2a98b57a48a06ae28d285a71b5",
            "difficulty" : "0x020000",
            "extraData" : "0x42",
            "gasLimit" : "0x7fffffffffffffff",
            "gasUsed" : "0x00",
            "hash" : "0x387a1bdd3356b335f90559c63e165259dd6ae2add1e22729c7802caf7ce6689c",
            "mixHash" : "0x56e81f171bcc55a6ff8345e692c0f86e5b48e01b996cadc001622fb5e363b421",
            "nonce" : "0x0102030405060708",
            "number" : "0x00",
            "parentHash" : "0x0000000000000000000000000000000000000000000000000000000000000000",
            "receiptTrie" : "0x56e81f171bcc55a6ff8345e692c0f86e5b48e01b996cadc001622fb5e363b421",
            "stateRoot" : "0x4848a3608d20eb776f7fdc8b36b74314a4b88d9cfcea76482ff9ba2728de0969",
            "timestamp" : "0x03e8",
            "transactionsTrie" : "0x56e81f171bcc55a6ff8345e692c0f86e5b48e01b996cadc001622fb5e363b421",
            "uncleHash" : "0x1dcc4de8dec75d7aab85b567b6ccd41ad312451b948a7413f0a142fd40d49347"
        },
        "genesisRLP" : "0xf901fff901faa00000000000000000000000000000000000000000000000000000000000000000a01dcc4de8dec75d7aab85b567b6ccd41ad312451b948a7413f0a142fd40d4934794945304eb96065b2a98b57a48a06ae28d285a71b5a04848a3608d20eb776f7fdc8b36b74314a4b88d9cfcea76482ff9ba2728de0969a056e81f171bcc55a6ff8345e692c0f86e5b48e01b996cadc001622fb5e363b421a056e81f171bcc55a6ff8345e692c0f86e5b48e01b996cadc001622fb5e363b421b90100000000000000000000000000000000000000000000000000000000000000000000000000000000000000000000000000000000000000000000000000000000000000000000000000000000000000000000000000000000000000000000000000000000000000000000000000000000000000000000000000000000000000000000000000000000000000000000000000000000000000000000000000000000000000000000000000000000000000000000000000000000000000000000000000000000000000000000000000000000000000000000000000000000000000000000000000000000000000000000000000000000000000000000000000000000008302000080887fffffffffffffff808203e842a056e81f171bcc55a6ff8345e692c0f86e5b48e01b996cadc001622fb5e363b421880102030405060708c0c0",
        "lastblockhash" : "0x7213e14b84b7b0e2d50951ff05fe2ecd72bd4591fa8e1df699282909ac88d369",
        "network" : "Istanbul",
        "postState" : {
            "0x095e7baea6a6c7c4c2dfeb977efac326af552d87" : {
                "balance" : "0x0de0b6b3a76586a0",
                "code" : "0x4242434444454443525520307555",
                "nonce" : "0x00",
                "storage" : {
                    "0x7fe0000000000001" : "0x020000"
                }
            },
            "0x945304eb96065b2a98b57a48a06ae28d285a71b5" : {
                "balance" : "0x1bc16d674ec950b5",
                "code" : "0x6000355415600957005b60203560003555",
                "nonce" : "0x00",
                "storage" : {
                }
            },
            "0xa94f5374fce5edbc8e2a8697c15331677e6ebf0b" : {
                "balance" : "0x0de0b6b3a76128d9",
                "code" : "",
                "nonce" : "0x01",
                "storage" : {
                }
            }
        },
        "pre" : {
            "0x095e7baea6a6c7c4c2dfeb977efac326af552d87" : {
                "balance" : "0x0de0b6b3a7640000",
                "code" : "0x4242434444454443525520307555",
                "nonce" : "0x00",
                "storage" : {
                }
            },
            "0x945304eb96065b2a98b57a48a06ae28d285a71b5" : {
                "balance" : "0x2e",
                "code" : "0x6000355415600957005b60203560003555",
                "nonce" : "0x00",
                "storage" : {
                }
            },
            "0xa94f5374fce5edbc8e2a8697c15331677e6ebf0b" : {
                "balance" : "0x0de0b6b3a7640000",
                "code" : "",
                "nonce" : "0x00",
                "storage" : {
                }
            }
        },
        "sealEngine" : "NoProof"
    }
}