{
    "randomStatetest94_Istanbul" : {
        "_info" : {
            "comment" : "test takes a lot for time because of sha3 calculation on a huge range",
            "filledwith" : "testeth 1.8.0-alpha.0-12+commit.b120a12c.dirty",
            "lllcversion" : "Version: 0.5.12-develop.2019.9.13+commit.2d601a4f.Linux.g++",
            "source" : "src/BlockchainTestsFiller/ValidBlocks/bcStateTests/randomStatetest94Filler.json",
            "sourceHash" : "f022a5148bfefc6b428808b2d618244a79abc982fc16e66caf22c720267d6de1"
        },
        "blocks" : [
            {
                "blockHeader" : {
                    "bloom" : "0x00000000000000000000000000000000000000000000000000000000000000000000000000000000000000000000000000000000000000000000000000000000000000000000000000000000000000000000000000000000000000000000000000000000000000000000000000000000000000000000000000000000000000000000000000000000000000000000000000000000000000000000000000000000000000000000000000000000000000000000000000000000000000000000000000000000000000000000000000000000000000000000000000000000000000000000000000000000000000000000000000000000000000000000000000000000",
                    "coinbase" : "0x945304eb96065b2a98b57a48a06ae28d285a71b5",
                    "difficulty" : "0x020000",
                    "extraData" : "",
                    "gasLimit" : "0x7fe0000000000001",
                    "gasUsed" : "0x0449ee0ca4eb",
                    "hash" : "0x920e3ba3eb4a9a43ba412bc8800fbcdaf2adf1ff42bbaaa618df63add94a87c6",
                    "mixHash" : "0x0000000000000000000000000000000000000000000000000000000000000000",
                    "nonce" : "0x0000000000000000",
                    "number" : "0x01",
                    "parentHash" : "0xbda2b7e466e793f456294003aee1e702d77e89d852c3d8aa0c1971877356baca",
                    "receiptTrie" : "0xbce020e61573541a8cdbf9c1f0ab3d61a668f51d588c76227494a1d2df426fa7",
                    "stateRoot" : "0x0ab27919593202aa5f8aedabbbbb76c7a2aa701a790037c1e4c514f90da9ddd1",
                    "timestamp" : "0x5db7320c",
                    "transactionsTrie" : "0x74bf1dc886ea419650c420eab7ad6b89d4227d5450b369fdbd8f6ca305c43106",
                    "uncleHash" : "0x1dcc4de8dec75d7aab85b567b6ccd41ad312451b948a7413f0a142fd40d49347"
                },
                "rlp" : "0xf90272f90202a0bda2b7e466e793f456294003aee1e702d77e89d852c3d8aa0c1971877356bacaa01dcc4de8dec75d7aab85b567b6ccd41ad312451b948a7413f0a142fd40d4934794945304eb96065b2a98b57a48a06ae28d285a71b5a00ab27919593202aa5f8aedabbbbb76c7a2aa701a790037c1e4c514f90da9ddd1a074bf1dc886ea419650c420eab7ad6b89d4227d5450b369fdbd8f6ca305c43106a0bce020e61573541a8cdbf9c1f0ab3d61a668f51d588c76227494a1d2df426fa7b90100000000000000000000000000000000000000000000000000000000000000000000000000000000000000000000000000000000000000000000000000000000000000000000000000000000000000000000000000000000000000000000000000000000000000000000000000000000000000000000000000000000000000000000000000000000000000000000000000000000000000000000000000000000000000000000000000000000000000000000000000000000000000000000000000000000000000000000000000000000000000000000000000000000000000000000000000000000000000000000000000000000000000000000000000000000008302000001887fe0000000000001860449ee0ca4eb845db7320c80a00000000000000000000000000000000000000000000000000000000000000000880000000000000000f86af8688001887effffffffffffff94095e7baea6a6c7c4c2dfeb977efac326af552d87830186a0421ba04c2cdd77d6f05279603e0f2106bff4a0e515e0886a7f9776c663188d68e5f256a0769f54af0f4518bb7b6511d5412c7e288f42bd68bfc5f5a34838787a6cb1cb2fc0",
                "transactions" : [
                    {
                        "data" : "0x42",
                        "gasLimit" : "0x7effffffffffffff",
                        "gasPrice" : "0x01",
                        "nonce" : "0x00",
                        "r" : "0x4c2cdd77d6f05279603e0f2106bff4a0e515e0886a7f9776c663188d68e5f256",
                        "s" : "0x769f54af0f4518bb7b6511d5412c7e288f42bd68bfc5f5a34838787a6cb1cb2f",
                        "to" : "0x095e7baea6a6c7c4c2dfeb977efac326af552d87",
                        "v" : "0x1b",
                        "value" : "0x0186a0"
                    }
                ],
                "uncleHeaders" : [
                ]
            }
        ],
        "genesisBlockHeader" : {
            "bloom" : "0x00000000000000000000000000000000000000000000000000000000000000000000000000000000000000000000000000000000000000000000000000000000000000000000000000000000000000000000000000000000000000000000000000000000000000000000000000000000000000000000000000000000000000000000000000000000000000000000000000000000000000000000000000000000000000000000000000000000000000000000000000000000000000000000000000000000000000000000000000000000000000000000000000000000000000000000000000000000000000000000000000000000000000000000000000000000",
            "coinbase" : "0x945304eb96065b2a98b57a48a06ae28d285a71b5",
            "difficulty" : "0x020000",
            "extraData" : "0x42",
            "gasLimit" : "0x7fffffffffffffff",
            "gasUsed" : "0x00",
            "hash" : "0xbda2b7e466e793f456294003aee1e702d77e89d852c3d8aa0c1971877356baca",
            "mixHash" : "0x56e81f171bcc55a6ff8345e692c0f86e5b48e01b996cadc001622fb5e363b421",
            "nonce" : "0x0102030405060708",
            "number" : "0x00",
            "parentHash" : "0x0000000000000000000000000000000000000000000000000000000000000000",
            "receiptTrie" : "0x56e81f171bcc55a6ff8345e692c0f86e5b48e01b996cadc001622fb5e363b421",
            "stateRoot" : "0xbf1e18a2ebf3f848274535afad70b63dcadba191df444d24b7a1a88a2a633a53",
            "timestamp" : "0x03e8",
            "transactionsTrie" : "0x56e81f171bcc55a6ff8345e692c0f86e5b48e01b996cadc001622fb5e363b421",
            "uncleHash" : "0x1dcc4de8dec75d7aab85b567b6ccd41ad312451b948a7413f0a142fd40d49347"
        },
        "genesisRLP" : "0xf901fff901faa00000000000000000000000000000000000000000000000000000000000000000a01dcc4de8dec75d7aab85b567b6ccd41ad312451b948a7413f0a142fd40d4934794945304eb96065b2a98b57a48a06ae28d285a71b5a0bf1e18a2ebf3f848274535afad70b63dcadba191df444d24b7a1a88a2a633a53a056e81f171bcc55a6ff8345e692c0f86e5b48e01b996cadc001622fb5e363b421a056e81f171bcc55a6ff8345e692c0f86e5b48e01b996cadc001622fb5e363b421b90100000000000000000000000000000000000000000000000000000000000000000000000000000000000000000000000000000000000000000000000000000000000000000000000000000000000000000000000000000000000000000000000000000000000000000000000000000000000000000000000000000000000000000000000000000000000000000000000000000000000000000000000000000000000000000000000000000000000000000000000000000000000000000000000000000000000000000000000000000000000000000000000000000000000000000000000000000000000000000000000000000000000000000000000000000000008302000080887fffffffffffffff808203e842a056e81f171bcc55a6ff8345e692c0f86e5b48e01b996cadc001622fb5e363b421880102030405060708c0c0",
        "lastblockhash" : "0x920e3ba3eb4a9a43ba412bc8800fbcdaf2adf1ff42bbaaa618df63add94a87c6",
        "network" : "Istanbul",
        "postState" : {
            "0x095e7baea6a6c7c4c2dfeb977efac326af552d87" : {
                "balance" : "0x0de0b6b3a76586a0",
                "code" : "0x44444243204555",
                "nonce" : "0x00",
                "storage" : {
                    "0x7fe0000000000001" : "0xaa1929facf0a8339e9cba392f8e1d981e7bf708ec73b439444ad8c145d2f859f"
                }
            },
            "0x945304eb96065b2a98b57a48a06ae28d285a71b5" : {
                "balance" : "0x1bc171b13cd4a519",
                "code" : "0x6000355415600957005b60203560003555",
                "nonce" : "0x00",
                "storage" : {
                }
            },
            "0xa94f5374fce5edbc8e2a8697c15331677e6ebf0b" : {
                "balance" : "0x0845951613fcfe5bf1d475",
                "code" : "",
                "nonce" : "0x01",
                "storage" : {
                }
            }
        },
        "pre" : {
            "0x095e7baea6a6c7c4c2dfeb977efac326af552d87" : {
                "balance" : "0x0de0b6b3a7640000",
                "code" : "0x44444243204555",
                "nonce" : "0x00",
                "storage" : {
                }
            },
            "0x945304eb96065b2a98b57a48a06ae28d285a71b5" : {
                "balance" : "0x2e",
                "code" : "0x6000355415600957005b60203560003555",
                "nonce" : "0x00",
                "storage" : {
                }
            },
            "0xa94f5374fce5edbc8e2a8697c15331677e6ebf0b" : {
                "balance" : "0x084595161401484a000000",
                "code" : "",
                "nonce" : "0x00",
                "storage" : {
                }
            }
        },
        "sealEngine" : "NoProof"
    }
}