{
    "randomStatetest324_Istanbul" : {
        "_info" : {
            "comment" : "",
            "filling-rpc-server" : "Geth-1.9.11-unstable-a382d783-20200127",
            "filling-tool-version" : "retesteth-0.0.2+commit.ce1fdd3d.Linux.g++",
            "lllcversion" : "Version: 0.5.14-develop.2019.11.27+commit.8f259595.Linux.g++",
            "source" : "src/BlockchainTestsFiller/ValidBlocks/bcStateTests/randomStatetest324Filler.json",
            "sourceHash" : "a73626c5114b6dfaf886022d93bfd53c0a81c98ec5f143d9efdba99de267391e"
        },
        "sealEngine" : "NoProof",
        "network" : "Istanbul",
        "pre" : {
            "0x095e7baea6a6c7c4c2dfeb977efac326af552d87" : {
                "balance" : "0x00",
                "code" : "0x7f00000000000000000000000000000000000000000000000000000000000000007f000000000000000000000000000000000000000000000000000000000000c3507f000000000000000000000000ffffffffffffffffffffffffffffffffffffffff827ffffffffffffffffffffffffffffffffffffffffffffffffffffffffffffffffe7f0000000000000000000000000000000000000000000000000000000000000001457fffffffffffffffffffffffffffffffffffffffffffffffffffffffffffffffff620a445643a20543a055",
                "nonce" : "0x00",
                "storage" : {
                }
            },
            "0x945304eb96065b2a98b57a48a06ae28d285a71b5" : {
                "balance" : "0x2e",
                "code" : "0x6000355415600957005b60203560003555",
                "nonce" : "0x00",
                "storage" : {
                }
            },
            "0xa94f5374fce5edbc8e2a8697c15331677e6ebf0b" : {
                "balance" : "0x0de0b6b3a7640000",
                "code" : "0x",
                "nonce" : "0x00",
                "storage" : {
                }
            }
        },
        "genesisBlockHeader" : {
            "bloom" : "0x00000000000000000000000000000000000000000000000000000000000000000000000000000000000000000000000000000000000000000000000000000000000000000000000000000000000000000000000000000000000000000000000000000000000000000000000000000000000000000000000000000000000000000000000000000000000000000000000000000000000000000000000000000000000000000000000000000000000000000000000000000000000000000000000000000000000000000000000000000000000000000000000000000000000000000000000000000000000000000000000000000000000000000000000000000000",
            "coinbase" : "0x945304eb96065b2a98b57a48a06ae28d285a71b5",
            "difficulty" : "0x020000",
            "extraData" : "0x42",
            "gasLimit" : "0x7fffffffffffffff",
            "gasUsed" : "0x00",
            "hash" : "0xab0903cc32ba6d484a2915861dbdb437edcb208b894c874ce469898c59e06ebf",
            "mixHash" : "0x0000000000000000000000000000000000000000000000000000000000000000",
            "nonce" : "0x0000000000000000",
            "number" : "0x00",
            "parentHash" : "0x0000000000000000000000000000000000000000000000000000000000000000",
            "receiptTrie" : "0x56e81f171bcc55a6ff8345e692c0f86e5b48e01b996cadc001622fb5e363b421",
            "stateRoot" : "0x682d96eaa167fb589dc964e43c276b9971b7a0e1cac8b877395d4e1b5bcff04b",
            "timestamp" : "0x03e8",
            "transactionsTrie" : "0x56e81f171bcc55a6ff8345e692c0f86e5b48e01b996cadc001622fb5e363b421",
            "uncleHash" : "0x1dcc4de8dec75d7aab85b567b6ccd41ad312451b948a7413f0a142fd40d49347"
        },
        "genesisRLP" : "0xf901fff901faa00000000000000000000000000000000000000000000000000000000000000000a01dcc4de8dec75d7aab85b567b6ccd41ad312451b948a7413f0a142fd40d4934794945304eb96065b2a98b57a48a06ae28d285a71b5a0682d96eaa167fb589dc964e43c276b9971b7a0e1cac8b877395d4e1b5bcff04ba056e81f171bcc55a6ff8345e692c0f86e5b48e01b996cadc001622fb5e363b421a056e81f171bcc55a6ff8345e692c0f86e5b48e01b996cadc001622fb5e363b421b90100000000000000000000000000000000000000000000000000000000000000000000000000000000000000000000000000000000000000000000000000000000000000000000000000000000000000000000000000000000000000000000000000000000000000000000000000000000000000000000000000000000000000000000000000000000000000000000000000000000000000000000000000000000000000000000000000000000000000000000000000000000000000000000000000000000000000000000000000000000000000000000000000000000000000000000000000000000000000000000000000000000000000000000000000000000008302000080887fffffffffffffff808203e842a00000000000000000000000000000000000000000000000000000000000000000880000000000000000c0c0",
        "blocks" : [
            {
                "chainname" : "default",
                "blocknumber" : "1",
                "uncleHeaders" : [
                ],
                "blockHeader" : {
                    "bloom" : "0x00000000000000001000000000000000000000000000000000000000000000000000000000000000000000000000000000000000000000000000000000000000000000000000000000000000000000000000000000000000000000000000000000000000000000000000000000000000000000000000000000000000000000200002000000000000000000000000000000000000000000000000000000000000000000000000000004000000000000000000000000000000000000000000000000000000000000200010000000000000000000000000000000000000000000000000000040000000000000000000000000000010000000400000000000000000",
                    "coinbase" : "0x945304eb96065b2a98b57a48a06ae28d285a71b5",
                    "difficulty" : "0x020000",
                    "extraData" : "0x42",
                    "gasLimit" : "0x7fffffffffffffff",
                    "gasUsed" : "0x60f49c",
                    "hash" : "0x9be32337f60989b32e6fc7153a03c262e7672f676196f84e0da085b8e27b652f",
                    "mixHash" : "0x0000000000000000000000000000000000000000000000000000000000000000",
                    "nonce" : "0x0000000000000000",
                    "number" : "0x01",
                    "parentHash" : "0xab0903cc32ba6d484a2915861dbdb437edcb208b894c874ce469898c59e06ebf",
                    "receiptTrie" : "0x6c8928b322d57fb3956f77041b40e720288394474f71c3e95fb4b2ac3100bb34",
                    "stateRoot" : "0x0da6193b50261ba5246e55c4b5cecc0cf6fa8502f4c91fdf8b291b4831107ad9",
                    "timestamp" : "0x07d0",
                    "transactionsTrie" : "0xf8fdea333eba118c177f364e2e369f0660eb0a046a7a29b8adff4c1e06d63c48",
                    "uncleHash" : "0x1dcc4de8dec75d7aab85b567b6ccd41ad312451b948a7413f0a142fd40d49347"
                },
                "transactions" : [
                    {
                        "data" : "0x7f00000000000000000000000000000000000000000000000000000000000000007f000000000000000000000000000000000000000000000000000000000000c3507f000000000000000000000000ffffffffffffffffffffffffffffffffffffffff827ffffffffffffffffffffffffffffffffffffffffffffffffffffffffffffffffe7f0000000000000000000000000000000000000000000000000000000000000001457fffffffffffffffffffffffffffffffffffffffffffffffffffffffffffffffff620a445643a20543a0",
                        "gasLimit" : "0x7c24b3d2",
                        "gasPrice" : "0x01",
                        "nonce" : "0x00",
                        "r" : "0x03d06fd1ff9f18f1b0340dac2b29eae7f5498352f37ac49ffebc9dbb0be831f2",
                        "s" : "0x76208eb4f03100e6205ce4ad3f364d239cb93b91031c7c9a89e4aa5b15ff3340",
                        "to" : "0x095e7baea6a6c7c4c2dfeb977efac326af552d87",
                        "v" : "0x1c",
                        "value" : "0x48353323"
                    }
                ],
                "rlp" : "0xf9033ef901fda0ab0903cc32ba6d484a2915861dbdb437edcb208b894c874ce469898c59e06ebfa01dcc4de8dec75d7aab85b567b6ccd41ad312451b948a7413f0a142fd40d4934794945304eb96065b2a98b57a48a06ae28d285a71b5a00da6193b50261ba5246e55c4b5cecc0cf6fa8502f4c91fdf8b291b4831107ad9a0f8fdea333eba118c177f364e2e369f0660eb0a046a7a29b8adff4c1e06d63c48a06c8928b322d57fb3956f77041b40e720288394474f71c3e95fb4b2ac3100bb34b90100000000000000000010000000000000000000000000000000000000000000000000000000000000000000000000000000000000000000000000000000000000000000000000000000000000000000000000000000000000000000000000000000000000000000000000000000000000000000000000000000000000000000002000020000000000000000000000000000000000000000000000000000000000000000000000000000040000000000000000000000000000000000000000000000000000000000002000100000000000000000000000000000000000000000000000000000400000000000000000000000000000100000004000000000000000008302000001887fffffffffffffff8360f49c8207d042a00000000000000000000000000000000000000000000000000000000000000000880000000000000000f9013af901378001847c24b3d294095e7baea6a6c7c4c2dfeb977efac326af552d878448353323b8d17f00000000000000000000000000000000000000000000000000000000000000007f000000000000000000000000000000000000000000000000000000000000c3507f000000000000000000000000ffffffffffffffffffffffffffffffffffffffff827ffffffffffffffffffffffffffffffffffffffffffffffffffffffffffffffffe7f0000000000000000000000000000000000000000000000000000000000000001457fffffffffffffffffffffffffffffffffffffffffffffffffffffffffffffffff620a445643a20543a01ca003d06fd1ff9f18f1b0340dac2b29eae7f5498352f37ac49ffebc9dbb0be831f2a076208eb4f03100e6205ce4ad3f364d239cb93b91031c7c9a89e4aa5b15ff3340c0"
            }
        ],
        "postState" : {
            "0xa94f5374fce5edbc8e2a8697c15331677e6ebf0b" : {
                "code" : "0x",
                "nonce" : "0x01",
                "balance" : "0x0de0b6b35ecdd841",
                "storage" : {
                }
            },
            "0x095e7baea6a6c7c4c2dfeb977efac326af552d87" : {
                "code" : "0x7f00000000000000000000000000000000000000000000000000000000000000007f000000000000000000000000000000000000000000000000000000000000c3507f000000000000000000000000ffffffffffffffffffffffffffffffffffffffff827ffffffffffffffffffffffffffffffffffffffffffffffffffffffffffffffffe7f0000000000000000000000000000000000000000000000000000000000000001457fffffffffffffffffffffffffffffffffffffffffffffffffffffffffffffffff620a445643a20543a055",
                "nonce" : "0x00",
                "balance" : "0x48353323",
                "storage" : {
                    "0x00" : "0xffffffffffffffffffffffffffffffffffffffff"
                }
            },
            "0x945304eb96065b2a98b57a48a06ae28d285a71b5" : {
                "code" : "0x6000355415600957005b60203560003555",
                "nonce" : "0x00",
                "balance" : "0x1bc16d674f28f4ca",
                "storage" : {
                }
            }
        },
        "lastblockhash" : "0x9be32337f60989b32e6fc7153a03c262e7672f676196f84e0da085b8e27b652f"
    }
}