{
    "randomStatetest94_Istanbul" : {
        "_info" : {
            "comment" : "test takes a lot for time because of sha3 calculation on a huge range",
            "filling-rpc-server" : "Geth-1.9.11-unstable-a382d783-20200127",
            "filling-tool-version" : "retesteth-0.0.2+commit.ce1fdd3d.Linux.g++",
            "lllcversion" : "Version: 0.5.14-develop.2019.11.27+commit.8f259595.Linux.g++",
            "source" : "src/BlockchainTestsFiller/ValidBlocks/bcStateTests/randomStatetest94Filler.json",
            "sourceHash" : "f022a5148bfefc6b428808b2d618244a79abc982fc16e66caf22c720267d6de1"
        },
        "sealEngine" : "NoProof",
        "network" : "Istanbul",
        "pre" : {
            "0x095e7baea6a6c7c4c2dfeb977efac326af552d87" : {
                "balance" : "0x0de0b6b3a7640000",
                "code" : "0x44444243204555",
                "nonce" : "0x00",
                "storage" : {
                }
            },
            "0x945304eb96065b2a98b57a48a06ae28d285a71b5" : {
                "balance" : "0x2e",
                "code" : "0x6000355415600957005b60203560003555",
                "nonce" : "0x00",
                "storage" : {
                }
            },
            "0xa94f5374fce5edbc8e2a8697c15331677e6ebf0b" : {
                "balance" : "0x084595161401484a000000",
                "code" : "0x",
                "nonce" : "0x00",
                "storage" : {
                }
            }
        },
        "genesisBlockHeader" : {
            "bloom" : "0x00000000000000000000000000000000000000000000000000000000000000000000000000000000000000000000000000000000000000000000000000000000000000000000000000000000000000000000000000000000000000000000000000000000000000000000000000000000000000000000000000000000000000000000000000000000000000000000000000000000000000000000000000000000000000000000000000000000000000000000000000000000000000000000000000000000000000000000000000000000000000000000000000000000000000000000000000000000000000000000000000000000000000000000000000000000",
            "coinbase" : "0x945304eb96065b2a98b57a48a06ae28d285a71b5",
            "difficulty" : "0x020000",
            "extraData" : "0x42",
            "gasLimit" : "0x7fffffffffffffff",
            "gasUsed" : "0x00",
            "hash" : "0x433c9d1240c07c1758a6261a900d7017557395c7e1f6db4a5301c43c4e27dcc2",
            "mixHash" : "0x0000000000000000000000000000000000000000000000000000000000000000",
            "nonce" : "0x0000000000000000",
            "number" : "0x00",
            "parentHash" : "0x0000000000000000000000000000000000000000000000000000000000000000",
            "receiptTrie" : "0x56e81f171bcc55a6ff8345e692c0f86e5b48e01b996cadc001622fb5e363b421",
            "stateRoot" : "0xbf1e18a2ebf3f848274535afad70b63dcadba191df444d24b7a1a88a2a633a53",
            "timestamp" : "0x03e8",
            "transactionsTrie" : "0x56e81f171bcc55a6ff8345e692c0f86e5b48e01b996cadc001622fb5e363b421",
            "uncleHash" : "0x1dcc4de8dec75d7aab85b567b6ccd41ad312451b948a7413f0a142fd40d49347"
        },
        "genesisRLP" : "0xf901fff901faa00000000000000000000000000000000000000000000000000000000000000000a01dcc4de8dec75d7aab85b567b6ccd41ad312451b948a7413f0a142fd40d4934794945304eb96065b2a98b57a48a06ae28d285a71b5a0bf1e18a2ebf3f848274535afad70b63dcadba191df444d24b7a1a88a2a633a53a056e81f171bcc55a6ff8345e692c0f86e5b48e01b996cadc001622fb5e363b421a056e81f171bcc55a6ff8345e692c0f86e5b48e01b996cadc001622fb5e363b421b90100000000000000000000000000000000000000000000000000000000000000000000000000000000000000000000000000000000000000000000000000000000000000000000000000000000000000000000000000000000000000000000000000000000000000000000000000000000000000000000000000000000000000000000000000000000000000000000000000000000000000000000000000000000000000000000000000000000000000000000000000000000000000000000000000000000000000000000000000000000000000000000000000000000000000000000000000000000000000000000000000000000000000000000000000000000008302000080887fffffffffffffff808203e842a00000000000000000000000000000000000000000000000000000000000000000880000000000000000c0c0",
        "blocks" : [
            {
                "chainname" : "default",
                "blocknumber" : "1",
                "uncleHeaders" : [
                ],
                "blockHeader" : {
                    "bloom" : "0x00000000000000000000000000000000000000000000000000000000000000000000000000000000000000000000000000000000000000000000000000000000000000000000000000000000000000000000000000000000000000000000000000000000000000000000000000000000000000000000000000000000000000000000000000000000000000000000000000000000000000000000000000000000000000000000000000000000000000000000000000000000000000000000000000000000000000000000000000000000000000000000000000000000000000000000000000000000000000000000000000000000000000000000000000000000",
                    "coinbase" : "0x945304eb96065b2a98b57a48a06ae28d285a71b5",
                    "difficulty" : "0x020000",
                    "extraData" : "0x42",
                    "gasLimit" : "0x7fffffffffffffff",
                    "gasUsed" : "0xa29e",
                    "hash" : "0x9d36f9cb3b03f62709c635e4fbc91fc46afa1c69cb97d061e6fb1f4b73aea5eb",
                    "mixHash" : "0x0000000000000000000000000000000000000000000000000000000000000000",
                    "nonce" : "0x0000000000000000",
                    "number" : "0x01",
                    "parentHash" : "0x433c9d1240c07c1758a6261a900d7017557395c7e1f6db4a5301c43c4e27dcc2",
                    "receiptTrie" : "0x87b1236e5f94b0ff6112ee5399aa310bcb892c9980ef1596ba309bb2e8ab2b4a",
                    "stateRoot" : "0xa815c8112b0fda8dfcd8b2063f699c70816396258ed9ddb69817b82708db2659",
                    "timestamp" : "0x07d0",
                    "transactionsTrie" : "0x74bf1dc886ea419650c420eab7ad6b89d4227d5450b369fdbd8f6ca305c43106",
                    "uncleHash" : "0x1dcc4de8dec75d7aab85b567b6ccd41ad312451b948a7413f0a142fd40d49347"
                },
                "transactions" : [
                    {
                        "data" : "0x42",
                        "gasLimit" : "0x7effffffffffffff",
                        "gasPrice" : "0x01",
                        "nonce" : "0x00",
                        "r" : "0x4c2cdd77d6f05279603e0f2106bff4a0e515e0886a7f9776c663188d68e5f256",
                        "s" : "0x769f54af0f4518bb7b6511d5412c7e288f42bd68bfc5f5a34838787a6cb1cb2f",
                        "to" : "0x095e7baea6a6c7c4c2dfeb977efac326af552d87",
                        "v" : "0x1b",
                        "value" : "0x0186a0"
                    }
                ],
                "rlp" : "0xf9026cf901fca0433c9d1240c07c1758a6261a900d7017557395c7e1f6db4a5301c43c4e27dcc2a01dcc4de8dec75d7aab85b567b6ccd41ad312451b948a7413f0a142fd40d4934794945304eb96065b2a98b57a48a06ae28d285a71b5a0a815c8112b0fda8dfcd8b2063f699c70816396258ed9ddb69817b82708db2659a074bf1dc886ea419650c420eab7ad6b89d4227d5450b369fdbd8f6ca305c43106a087b1236e5f94b0ff6112ee5399aa310bcb892c9980ef1596ba309bb2e8ab2b4ab90100000000000000000000000000000000000000000000000000000000000000000000000000000000000000000000000000000000000000000000000000000000000000000000000000000000000000000000000000000000000000000000000000000000000000000000000000000000000000000000000000000000000000000000000000000000000000000000000000000000000000000000000000000000000000000000000000000000000000000000000000000000000000000000000000000000000000000000000000000000000000000000000000000000000000000000000000000000000000000000000000000000000000000000000000000000008302000001887fffffffffffffff82a29e8207d042a00000000000000000000000000000000000000000000000000000000000000000880000000000000000f86af8688001887effffffffffffff94095e7baea6a6c7c4c2dfeb977efac326af552d87830186a0421ba04c2cdd77d6f05279603e0f2106bff4a0e515e0886a7f9776c663188d68e5f256a0769f54af0f4518bb7b6511d5412c7e288f42bd68bfc5f5a34838787a6cb1cb2fc0"
            }
        ],
        "postState" : {
            "0xa94f5374fce5edbc8e2a8697c15331677e6ebf0b" : {
                "code" : "0x",
                "nonce" : "0x01",
                "balance" : "0x0845951614014849fdd6c2",
                "storage" : {
                }
            },
            "0x095e7baea6a6c7c4c2dfeb977efac326af552d87" : {
                "code" : "0x44444243204555",
                "nonce" : "0x00",
                "balance" : "0x0de0b6b3a76586a0",
                "storage" : {
                    "0x7fffffffffffffff" : "0x8f945894e30e531acce645e2945e7b7deeb328abdc59ee25b78b8a1023893a9d"
                }
            },
            "0x945304eb96065b2a98b57a48a06ae28d285a71b5" : {
                "code" : "0x6000355415600957005b60203560003555",
                "nonce" : "0x00",
                "balance" : "0x1bc16d674ec8a2cc",
                "storage" : {
                }
            }
        },
        "lastblockhash" : "0x9d36f9cb3b03f62709c635e4fbc91fc46afa1c69cb97d061e6fb1f4b73aea5eb"
    }
}