{
    "randomStatetest136_Istanbul" : {
        "_info" : {
            "comment" : "",
            "filledwith" : "testeth 1.8.0-alpha.0-12+commit.b120a12c.dirty",
            "lllcversion" : "Version: 0.5.12-develop.2019.9.13+commit.2d601a4f.Linux.g++",
            "source" : "src/BlockchainTestsFiller/ValidBlocks/bcStateTests/randomStatetest136Filler.json",
            "sourceHash" : "e003a5509dd0c2fb84dd4a11b13a266033749498c48264d998b7cdec78bf4ebd"
        },
        "blocks" : [
            {
                "blockHeader" : {
                    "bloom" : "0x00000000000000001000000000000000000000000000000000000000000000000000000000000000000000000000000000000000000000000000000000000000000000000000000000000000000000000000000000000000800000000000000000020000000000000200000000000000000000000000000000000000000000000000000000000000000000000000000000000000000400000000000000000000000000000000000004000000000000000008000000000000000000000000000000000000000000000000000000000000000000000040000000000000000000000000000040000000000000000000000000000000000000000000000000000000",
                    "coinbase" : "0x945304eb96065b2a98b57a48a06ae28d285a71b5",
                    "difficulty" : "0x020000",
                    "extraData" : "",
                    "gasLimit" : "0x7fe0000000000001",
                    "gasUsed" : "0xac2d",
                    "hash" : "0xc8b341ae5de55d7698b8c5464b9872e2c8a68e0f0cbcc5ad5260b8876b42cb13",
                    "mixHash" : "0x0000000000000000000000000000000000000000000000000000000000000000",
                    "nonce" : "0x0000000000000000",
                    "number" : "0x01",
                    "parentHash" : "0x73712c8e6debf65ff59020f3de0a71b52158ef69aa11fffffe5ff962fe351470",
                    "receiptTrie" : "0x1409ac7e5223ee0f009a4bca50d4c1c735ceccb442ed6600da0bb6afe40858d1",
                    "stateRoot" : "0x3a9a90a3de0f96c5a0c4026ae43cf5fc2d74e0a968cb044f9261f29e5ed7e09b",
                    "timestamp" : "0x5db73205",
                    "transactionsTrie" : "0x2e483c07d65a44180a691cf0864a8d7fd6d7155e91a60c6a77f010419c18c18b",
                    "uncleHash" : "0x1dcc4de8dec75d7aab85b567b6ccd41ad312451b948a7413f0a142fd40d49347"
                },
                "rlp" : "0xf90305f901fea073712c8e6debf65ff59020f3de0a71b52158ef69aa11fffffe5ff962fe351470a01dcc4de8dec75d7aab85b567b6ccd41ad312451b948a7413f0a142fd40d4934794945304eb96065b2a98b57a48a06ae28d285a71b5a03a9a90a3de0f96c5a0c4026ae43cf5fc2d74e0a968cb044f9261f29e5ed7e09ba02e483c07d65a44180a691cf0864a8d7fd6d7155e91a60c6a77f010419c18c18ba01409ac7e5223ee0f009a4bca50d4c1c735ceccb442ed6600da0bb6afe40858d1b90100000000000000000010000000000000000000000000000000000000000000000000000000000000000000000000000000000000000000000000000000000000000000000000000000000000000000000000000000000000008000000000000000000200000000000002000000000000000000000000000000000000000000000000000000000000000000000000000000000000000004000000000000000000000000000000000000040000000000000000080000000000000000000000000000000000000000000000000000000000000000000000400000000000000000000000000000400000000000000000000000000000000000000000000000000000008302000001887fe000000000000182ac2d845db7320580a00000000000000000000000000000000000000000000000000000000000000000880000000000000000f90100f8fe8001847f504af894095e7baea6a6c7c4c2dfeb977efac326af552d878435126cddb8987f000000000000000000000000945304eb96065b2a98b57a48a06ae28d285a71b57ffffffffffffffffffffffffffffffffffffffffffffffffffffffffffffffffe7ffffffffffffffffffffffffffffffffffffffffffffffffffffffffffffffffe45437f0000000000000000000000000000000000000000000000000000000000000001a26f5a6e9570705019164232776c738c8d871ba07799b9e0afe03b5797002aefc29140d05d6f0e911c0128330ae25733ef8b63d3a06f65bac28371733698f76a6cb7bca344a487b46cbdf0eede214f45af03cfd2cbc0",
                "transactions" : [
                    {
                        "data" : "0x7f000000000000000000000000945304eb96065b2a98b57a48a06ae28d285a71b57ffffffffffffffffffffffffffffffffffffffffffffffffffffffffffffffffe7ffffffffffffffffffffffffffffffffffffffffffffffffffffffffffffffffe45437f0000000000000000000000000000000000000000000000000000000000000001a26f5a6e9570705019164232776c738c8d87",
                        "gasLimit" : "0x7f504af8",
                        "gasPrice" : "0x01",
                        "nonce" : "0x00",
                        "r" : "0x7799b9e0afe03b5797002aefc29140d05d6f0e911c0128330ae25733ef8b63d3",
                        "s" : "0x6f65bac28371733698f76a6cb7bca344a487b46cbdf0eede214f45af03cfd2cb",
                        "to" : "0x095e7baea6a6c7c4c2dfeb977efac326af552d87",
                        "v" : "0x1b",
                        "value" : "0x35126cdd"
                    }
                ],
                "uncleHeaders" : [
                ]
            }
        ],
        "genesisBlockHeader" : {
            "bloom" : "0x00000000000000000000000000000000000000000000000000000000000000000000000000000000000000000000000000000000000000000000000000000000000000000000000000000000000000000000000000000000000000000000000000000000000000000000000000000000000000000000000000000000000000000000000000000000000000000000000000000000000000000000000000000000000000000000000000000000000000000000000000000000000000000000000000000000000000000000000000000000000000000000000000000000000000000000000000000000000000000000000000000000000000000000000000000000",
            "coinbase" : "0x945304eb96065b2a98b57a48a06ae28d285a71b5",
            "difficulty" : "0x020000",
            "extraData" : "0x42",
            "gasLimit" : "0x7fffffffffffffff",
            "gasUsed" : "0x00",
            "hash" : "0x73712c8e6debf65ff59020f3de0a71b52158ef69aa11fffffe5ff962fe351470",
            "mixHash" : "0x56e81f171bcc55a6ff8345e692c0f86e5b48e01b996cadc001622fb5e363b421",
            "nonce" : "0x0102030405060708",
            "number" : "0x00",
            "parentHash" : "0x0000000000000000000000000000000000000000000000000000000000000000",
            "receiptTrie" : "0x56e81f171bcc55a6ff8345e692c0f86e5b48e01b996cadc001622fb5e363b421",
            "stateRoot" : "0xf8d634ea250104845e4d0641491cf99eb833df829762b76513fef17f3b2f7551",
            "timestamp" : "0x03e8",
            "transactionsTrie" : "0x56e81f171bcc55a6ff8345e692c0f86e5b48e01b996cadc001622fb5e363b421",
            "uncleHash" : "0x1dcc4de8dec75d7aab85b567b6ccd41ad312451b948a7413f0a142fd40d49347"
        },
        "genesisRLP" : "0xf901fff901faa00000000000000000000000000000000000000000000000000000000000000000a01dcc4de8dec75d7aab85b567b6ccd41ad312451b948a7413f0a142fd40d4934794945304eb96065b2a98b57a48a06ae28d285a71b5a0f8d634ea250104845e4d0641491cf99eb833df829762b76513fef17f3b2f7551a056e81f171bcc55a6ff8345e692c0f86e5b48e01b996cadc001622fb5e363b421a056e81f171bcc55a6ff8345e692c0f86e5b48e01b996cadc001622fb5e363b421b90100000000000000000000000000000000000000000000000000000000000000000000000000000000000000000000000000000000000000000000000000000000000000000000000000000000000000000000000000000000000000000000000000000000000000000000000000000000000000000000000000000000000000000000000000000000000000000000000000000000000000000000000000000000000000000000000000000000000000000000000000000000000000000000000000000000000000000000000000000000000000000000000000000000000000000000000000000000000000000000000000000000000000000000000000000000008302000080887fffffffffffffff808203e842a056e81f171bcc55a6ff8345e692c0f86e5b48e01b996cadc001622fb5e363b421880102030405060708c0c0",
        "lastblockhash" : "0xc8b341ae5de55d7698b8c5464b9872e2c8a68e0f0cbcc5ad5260b8876b42cb13",
        "network" : "Istanbul",
        "postState" : {
            "0x095e7baea6a6c7c4c2dfeb977efac326af552d87" : {
                "balance" : "0x35126cdd",
                "code" : "0x7f000000000000000000000000945304eb96065b2a98b57a48a06ae28d285a71b57ffffffffffffffffffffffffffffffffffffffffffffffffffffffffffffffffe7ffffffffffffffffffffffffffffffffffffffffffffffffffffffffffffffffe45437f0000000000000000000000000000000000000000000000000000000000000001a26f5a6e9570705019164232776c738c8d8760005155",
                "nonce" : "0x00",
                "storage" : {
                    "0x00" : "0x5a6e9570705019164232776c738c8d87"
                }
            },
            "0x945304eb96065b2a98b57a48a06ae28d285a71b5" : {
                "balance" : "0x1bc16d674ec8ac5b",
                "code" : "0x6000355415600957005b60203560003555",
                "nonce" : "0x00",
                "storage" : {
                }
            },
            "0xa94f5374fce5edbc8e2a8697c15331677e6ebf0b" : {
                "balance" : "0x0de0b6b37250e6f6",
                "code" : "",
                "nonce" : "0x01",
                "storage" : {
                }
            }
        },
        "pre" : {
            "0x095e7baea6a6c7c4c2dfeb977efac326af552d87" : {
                "balance" : "0x00",
                "code" : "0x7f000000000000000000000000945304eb96065b2a98b57a48a06ae28d285a71b57ffffffffffffffffffffffffffffffffffffffffffffffffffffffffffffffffe7ffffffffffffffffffffffffffffffffffffffffffffffffffffffffffffffffe45437f0000000000000000000000000000000000000000000000000000000000000001a26f5a6e9570705019164232776c738c8d8760005155",
                "nonce" : "0x00",
                "storage" : {
                }
            },
            "0x945304eb96065b2a98b57a48a06ae28d285a71b5" : {
                "balance" : "0x2e",
                "code" : "0x6000355415600957005b60203560003555",
                "nonce" : "0x00",
                "storage" : {
                }
            },
            "0xa94f5374fce5edbc8e2a8697c15331677e6ebf0b" : {
                "balance" : "0x0de0b6b3a7640000",
                "code" : "",
                "nonce" : "0x00",
                "storage" : {
                }
            }
        },
        "sealEngine" : "NoProof"
    }
}