{
    "simpleSuicide_Istanbul" : {
        "_info" : {
            "comment" : "",
            "filling-rpc-server" : "Geth-1.9.11-unstable-a382d783-20200127",
            "filling-tool-version" : "retesteth-0.0.2+commit.ce1fdd3d.Linux.g++",
            "lllcversion" : "Version: 0.5.14-develop.2019.11.27+commit.8f259595.Linux.g++",
            "source" : "src/BlockchainTestsFiller/ValidBlocks/bcStateTests/simpleSuicideFiller.json",
            "sourceHash" : "8fac7134a82c5854b8a2c5d42294922efc3b4b039650d0dd8eabb6d76665b8d4"
        },
        "sealEngine" : "NoProof",
        "network" : "Istanbul",
        "pre" : {
            "0x095e7baea6a6c7c4c2dfeb977efac326af552d87" : {
                "balance" : "0x0186a0",
                "code" : "0x73a94f5374fce5edbc8e2a8697c15331677e6ebf0bff00",
                "nonce" : "0x00",
                "storage" : {
                }
            },
            "0xa94f5374fce5edbc8e2a8697c15331677e6ebf0b" : {
                "balance" : "0x1748721582",
                "code" : "0x",
                "nonce" : "0x00",
                "storage" : {
                }
            }
        },
        "genesisBlockHeader" : {
            "bloom" : "0x00000000000000000000000000000000000000000000000000000000000000000000000000000000000000000000000000000000000000000000000000000000000000000000000000000000000000000000000000000000000000000000000000000000000000000000000000000000000000000000000000000000000000000000000000000000000000000000000000000000000000000000000000000000000000000000000000000000000000000000000000000000000000000000000000000000000000000000000000000000000000000000000000000000000000000000000000000000000000000000000000000000000000000000000000000000",
            "coinbase" : "0x8888f1f195afa192cfee860698584c030f4c9db1",
            "difficulty" : "0x020000",
            "extraData" : "0x42",
            "gasLimit" : "0x2fefd8",
            "gasUsed" : "0x00",
            "hash" : "0xe0686bedd5e53fb37735863b76f3f1fab9a19ae95d020b9957439f62290e6a39",
            "mixHash" : "0x0000000000000000000000000000000000000000000000000000000000000000",
            "nonce" : "0x0000000000000000",
            "number" : "0x00",
            "parentHash" : "0x0000000000000000000000000000000000000000000000000000000000000000",
            "receiptTrie" : "0x56e81f171bcc55a6ff8345e692c0f86e5b48e01b996cadc001622fb5e363b421",
            "stateRoot" : "0xee5236257427300b4628518e8785dca0a473836ffaf5b0bcd705398ef74647d0",
            "timestamp" : "0x54c98c81",
            "transactionsTrie" : "0x56e81f171bcc55a6ff8345e692c0f86e5b48e01b996cadc001622fb5e363b421",
            "uncleHash" : "0x1dcc4de8dec75d7aab85b567b6ccd41ad312451b948a7413f0a142fd40d49347"
        },
        "genesisRLP" : "0xf901fcf901f7a00000000000000000000000000000000000000000000000000000000000000000a01dcc4de8dec75d7aab85b567b6ccd41ad312451b948a7413f0a142fd40d49347948888f1f195afa192cfee860698584c030f4c9db1a0ee5236257427300b4628518e8785dca0a473836ffaf5b0bcd705398ef74647d0a056e81f171bcc55a6ff8345e692c0f86e5b48e01b996cadc001622fb5e363b421a056e81f171bcc55a6ff8345e692c0f86e5b48e01b996cadc001622fb5e363b421b90100000000000000000000000000000000000000000000000000000000000000000000000000000000000000000000000000000000000000000000000000000000000000000000000000000000000000000000000000000000000000000000000000000000000000000000000000000000000000000000000000000000000000000000000000000000000000000000000000000000000000000000000000000000000000000000000000000000000000000000000000000000000000000000000000000000000000000000000000000000000000000000000000000000000000000000000000000000000000000000000000000000000000000000000000000000008302000080832fefd8808454c98c8142a00000000000000000000000000000000000000000000000000000000000000000880000000000000000c0c0",
        "blocks" : [
            {
                "chainname" : "default",
                "blocknumber" : "1",
                "uncleHeaders" : [
                ],
                "blockHeader" : {
                    "bloom" : "0x00000000000000000000000000000000000000000000000000000000000000000000000000000000000000000000000000000000000000000000000000000000000000000000000000000000000000000000000000000000000000000000000000000000000000000000000000000000000000000000000000000000000000000000000000000000000000000000000000000000000000000000000000000000000000000000000000000000000000000000000000000000000000000000000000000000000000000000000000000000000000000000000000000000000000000000000000000000000000000000000000000000000000000000000000000000",
                    "coinbase" : "0x8888f1f195afa192cfee860698584c030f4c9db1",
                    "difficulty" : "0x020000",
                    "extraData" : "0x42",
                    "gasLimit" : "0x2ffbd2",
                    "gasUsed" : "0x32ca",
                    "hash" : "0xf4566772f636bae5581e16fe69122369c743142487161d7bdb992e75e3405bef",
                    "mixHash" : "0x0000000000000000000000000000000000000000000000000000000000000000",
                    "nonce" : "0x0000000000000000",
                    "number" : "0x01",
                    "parentHash" : "0xe0686bedd5e53fb37735863b76f3f1fab9a19ae95d020b9957439f62290e6a39",
                    "receiptTrie" : "0xbdc6970604c358a6e29ea6d74bc6182566b1d8479b2d5fdae39ff17df01813d7",
                    "stateRoot" : "0xea3095173b0ff24016737672668b1a7681f9d2a99bf2a0c49b05e86aef49bd92",
                    "timestamp" : "0x54c99069",
                    "transactionsTrie" : "0x53d5b71a8fbb9590de82d69dfa4ac31923b0c8afce0d30d0d8d1e931f25030dc",
                    "uncleHash" : "0x1dcc4de8dec75d7aab85b567b6ccd41ad312451b948a7413f0a142fd40d49347"
                },
                "transactions" : [
                    {
                        "data" : "0x",
                        "gasLimit" : "0xc350",
                        "gasPrice" : "0x0a",
                        "nonce" : "0x00",
                        "r" : "0xf3266921c93d600c43f6fa4724b7abae079b35b9e95df592f95f9f3445e94c88",
                        "s" : "0x12f977552ebdb7a492cf35f3106df16ccb4576ebad4113056ee1f52cbe4978c1",
                        "to" : "0x095e7baea6a6c7c4c2dfeb977efac326af552d87",
                        "v" : "0x1b",
                        "value" : "0x0a"
                    }
                ],
                "rlp" : "0xf90260f901f9a0e0686bedd5e53fb37735863b76f3f1fab9a19ae95d020b9957439f62290e6a39a01dcc4de8dec75d7aab85b567b6ccd41ad312451b948a7413f0a142fd40d49347948888f1f195afa192cfee860698584c030f4c9db1a0ea3095173b0ff24016737672668b1a7681f9d2a99bf2a0c49b05e86aef49bd92a053d5b71a8fbb9590de82d69dfa4ac31923b0c8afce0d30d0d8d1e931f25030dca0bdc6970604c358a6e29ea6d74bc6182566b1d8479b2d5fdae39ff17df01813d7b90100000000000000000000000000000000000000000000000000000000000000000000000000000000000000000000000000000000000000000000000000000000000000000000000000000000000000000000000000000000000000000000000000000000000000000000000000000000000000000000000000000000000000000000000000000000000000000000000000000000000000000000000000000000000000000000000000000000000000000000000000000000000000000000000000000000000000000000000000000000000000000000000000000000000000000000000000000000000000000000000000000000000000000000000000000000008302000001832ffbd28232ca8454c9906942a00000000000000000000000000000000000000000000000000000000000000000880000000000000000f861f85f800a82c35094095e7baea6a6c7c4c2dfeb977efac326af552d870a801ba0f3266921c93d600c43f6fa4724b7abae079b35b9e95df592f95f9f3445e94c88a012f977552ebdb7a492cf35f3106df16ccb4576ebad4113056ee1f52cbe4978c1c0"
            },
            {
                "chainname" : "default",
                "blocknumber" : "2",
                "uncleHeaders" : [
                ],
                "blockHeader" : {
                    "bloom" : "0x00000000000000000000000000000000000000000000000000000000000000000000000000000000000000000000000000000000000000000000000000000000000000000000000000000000000000000000000000000000000000000000000000000000000000000000000000000000000000000000000000000000000000000000000000000000000000000000000000000000000000000000000000000000000000000000000000000000000000000000000000000000000000000000000000000000000000000000000000000000000000000000000000000000000000000000000000000000000000000000000000000000000000000000000000000000",
                    "coinbase" : "0x8888f1f195afa192cfee860698584c030f4c9db1",
                    "difficulty" : "0x020000",
                    "extraData" : "0x42",
                    "gasLimit" : "0x3007cf",
                    "gasUsed" : "0x5208",
                    "hash" : "0x2522fb057950de57bd3a460a6f56e723adb54376d2e1a55095dfc4d87d0f0fde",
                    "mixHash" : "0x0000000000000000000000000000000000000000000000000000000000000000",
                    "nonce" : "0x0000000000000000",
                    "number" : "0x02",
                    "parentHash" : "0xf4566772f636bae5581e16fe69122369c743142487161d7bdb992e75e3405bef",
                    "receiptTrie" : "0x056b23fbba480696b65fe5a59b8f2148a1299103c4f57df839233af2cf4ca2d2",
                    "stateRoot" : "0xf808544abbeec313fb844fa7f7d466d8966e2e039aa96a6ede70ac30c9ce2e27",
                    "timestamp" : "0x54c99451",
                    "transactionsTrie" : "0x326814571a40c9c7db48527b6819d6a25c03735dd63a9762911729510d07a45c",
                    "uncleHash" : "0x1dcc4de8dec75d7aab85b567b6ccd41ad312451b948a7413f0a142fd40d49347"
                },
                "transactions" : [
                    {
                        "data" : "0x",
                        "gasLimit" : "0xc350",
                        "gasPrice" : "0x0a",
                        "nonce" : "0x01",
                        "r" : "0x823762ef8e6fc0498753553d5defe18004462e636cf76eb06515c7652aac3040",
                        "s" : "0x7239c31a3df7ea1e894d71558ac36179c97446bc630f3f4b8d035ee436b6ad46",
                        "to" : "0x095e7baea6a6c7c4c2dfeb977efac326af552d87",
                        "v" : "0x1b",
                        "value" : "0x03e8"
                    }
                ],
                "rlp" : "0xf90262f901f9a0f4566772f636bae5581e16fe69122369c743142487161d7bdb992e75e3405befa01dcc4de8dec75d7aab85b567b6ccd41ad312451b948a7413f0a142fd40d49347948888f1f195afa192cfee860698584c030f4c9db1a0f808544abbeec313fb844fa7f7d466d8966e2e039aa96a6ede70ac30c9ce2e27a0326814571a40c9c7db48527b6819d6a25c03735dd63a9762911729510d07a45ca0056b23fbba480696b65fe5a59b8f2148a1299103c4f57df839233af2cf4ca2d2b90100000000000000000000000000000000000000000000000000000000000000000000000000000000000000000000000000000000000000000000000000000000000000000000000000000000000000000000000000000000000000000000000000000000000000000000000000000000000000000000000000000000000000000000000000000000000000000000000000000000000000000000000000000000000000000000000000000000000000000000000000000000000000000000000000000000000000000000000000000000000000000000000000000000000000000000000000000000000000000000000000000000000000000000000000000000008302000002833007cf8252088454c9945142a00000000000000000000000000000000000000000000000000000000000000000880000000000000000f863f861010a82c35094095e7baea6a6c7c4c2dfeb977efac326af552d878203e8801ba0823762ef8e6fc0498753553d5defe18004462e636cf76eb06515c7652aac3040a07239c31a3df7ea1e894d71558ac36179c97446bc630f3f4b8d035ee436b6ad46c0"
            }
        ],
        "postState" : {
            "0xa94f5374fce5edbc8e2a8697c15331677e6ebf0b" : {
                "code" : "0x",
                "nonce" : "0x02",
                "balance" : "0x17486e6806",
                "storage" : {
                }
            },
            "0x095e7baea6a6c7c4c2dfeb977efac326af552d87" : {
                "code" : "0x",
                "nonce" : "0x00",
                "balance" : "0x03e8",
                "storage" : {
                }
            },
            "0x8888f1f195afa192cfee860698584c030f4c9db1" : {
                "code" : "0x",
                "nonce" : "0x00",
                "balance" : "0x3782dace9d953034",
                "storage" : {
                }
            }
        },
        "lastblockhash" : "0x2522fb057950de57bd3a460a6f56e723adb54376d2e1a55095dfc4d87d0f0fde"
    }
}