{
    "suicideStorageCheckVCreate_Istanbul" : {
        "_info" : {
            "comment" : "[2:21:10] Vitalik Buterin: (i) set storage key 1 of contract C to 3. (ii) self-destruct contract C. (iii) in the next transaction create contract C, and read its storage key.  I - via old create.",
            "filling-rpc-server" : "Geth-1.9.11-unstable-a382d783-20200127",
            "filling-tool-version" : "retesteth-0.0.2+commit.ce1fdd3d.Linux.g++",
            "lllcversion" : "Version: 0.5.14-develop.2019.11.27+commit.8f259595.Linux.g++",
            "source" : "src/BlockchainTestsFiller/ValidBlocks/bcStateTests/suicideStorageCheckVCreateFiller.json",
            "sourceHash" : "36989f4f2945e6a6649ed5bf0b548ecf4484dadf1c26b8369027d9a3bf98de2f"
        },
        "sealEngine" : "NoProof",
        "network" : "Istanbul",
        "pre" : {
            "0xa94f5374fce5edbc8e2a8697c15331677e6ebf0b" : {
                "balance" : "0x02540be400",
                "code" : "0x",
                "nonce" : "0x00",
                "storage" : {
                }
            },
            "0xe3476106159f87477ad639e3ddcbb6b240efe459" : {
                "balance" : "0x03e8",
                "code" : "0x60036001556001ff00",
                "nonce" : "0x00",
                "storage" : {
                }
            }
        },
        "genesisBlockHeader" : {
            "bloom" : "0x00000000000000000000000000000000000000000000000000000000000000000000000000000000000000000000000000000000000000000000000000000000000000000000000000000000000000000000000000000000000000000000000000000000000000000000000000000000000000000000000000000000000000000000000000000000000000000000000000000000000000000000000000000000000000000000000000000000000000000000000000000000000000000000000000000000000000000000000000000000000000000000000000000000000000000000000000000000000000000000000000000000000000000000000000000000",
            "coinbase" : "0x8888f1f195afa192cfee860698584c030f4c9db1",
            "difficulty" : "0x020000",
            "extraData" : "0x42",
            "gasLimit" : "0x2fefd8",
            "gasUsed" : "0x00",
            "hash" : "0x55ccfe62185f0fce2b8b63764dbe33cecb0576809ac761df87637cb14cac63ac",
            "mixHash" : "0x0000000000000000000000000000000000000000000000000000000000000000",
            "nonce" : "0x0000000000000000",
            "number" : "0x00",
            "parentHash" : "0x0000000000000000000000000000000000000000000000000000000000000000",
            "receiptTrie" : "0x56e81f171bcc55a6ff8345e692c0f86e5b48e01b996cadc001622fb5e363b421",
            "stateRoot" : "0x6891165e36c0db9424d6b9855553b9b8941d1fc08a6c79e1645921885a98a903",
            "timestamp" : "0x54c98c81",
            "transactionsTrie" : "0x56e81f171bcc55a6ff8345e692c0f86e5b48e01b996cadc001622fb5e363b421",
            "uncleHash" : "0x1dcc4de8dec75d7aab85b567b6ccd41ad312451b948a7413f0a142fd40d49347"
        },
        "genesisRLP" : "0xf901fcf901f7a00000000000000000000000000000000000000000000000000000000000000000a01dcc4de8dec75d7aab85b567b6ccd41ad312451b948a7413f0a142fd40d49347948888f1f195afa192cfee860698584c030f4c9db1a06891165e36c0db9424d6b9855553b9b8941d1fc08a6c79e1645921885a98a903a056e81f171bcc55a6ff8345e692c0f86e5b48e01b996cadc001622fb5e363b421a056e81f171bcc55a6ff8345e692c0f86e5b48e01b996cadc001622fb5e363b421b90100000000000000000000000000000000000000000000000000000000000000000000000000000000000000000000000000000000000000000000000000000000000000000000000000000000000000000000000000000000000000000000000000000000000000000000000000000000000000000000000000000000000000000000000000000000000000000000000000000000000000000000000000000000000000000000000000000000000000000000000000000000000000000000000000000000000000000000000000000000000000000000000000000000000000000000000000000000000000000000000000000000000000000000000000000000008302000080832fefd8808454c98c8142a00000000000000000000000000000000000000000000000000000000000000000880000000000000000c0c0",
        "blocks" : [
            {
                "chainname" : "default",
                "blocknumber" : "1",
                "uncleHeaders" : [
                ],
                "blockHeader" : {
                    "bloom" : "0x00000000000000000000000000000000000000000000000000000000000000000000000000000000000000000000000000000000000000000000000000000000000000000000000000000000000000000000000000000000000000000000000000000000000000000000000000000000000000000000000000000000000000000000000000000000000000000000000000000000000000000000000000000000000000000000000000000000000000000000000000000000000000000000000000000000000000000000000000000000000000000000000000000000000000000000000000000000000000000000000000000000000000000000000000000000",
                    "coinbase" : "0x8888f1f195afa192cfee860698584c030f4c9db1",
                    "difficulty" : "0x020000",
                    "extraData" : "0x42",
                    "gasLimit" : "0x2ffbd2",
                    "gasUsed" : "0x025976",
                    "hash" : "0x04886214404a8933b3a035ece65f57bb0577bf45dba23b26bc285885a1ca3234",
                    "mixHash" : "0x0000000000000000000000000000000000000000000000000000000000000000",
                    "nonce" : "0x0000000000000000",
                    "number" : "0x01",
                    "parentHash" : "0x55ccfe62185f0fce2b8b63764dbe33cecb0576809ac761df87637cb14cac63ac",
                    "receiptTrie" : "0x3779e82e61cc8e120a55d0e91ccff78a4f8d09a92ac3bd3fcb7e2bdd1e731f0a",
                    "stateRoot" : "0x4be68cde0b98b9f2a47047beb8f77c56680198d14b39f7e4e4a322084db051a4",
                    "timestamp" : "0x54c99069",
                    "transactionsTrie" : "0xdd551114141f3d2c9fbaf30cfbc667fb5b515b8ff11c4a9bcb3b6cb80e702dff",
                    "uncleHash" : "0x1dcc4de8dec75d7aab85b567b6ccd41ad312451b948a7413f0a142fd40d49347"
                },
                "transactions" : [
                    {
                        "data" : "0x",
                        "gasLimit" : "0x061a80",
                        "gasPrice" : "0x01",
                        "nonce" : "0x00",
                        "r" : "0x6ec80a292680500270c0c41910099f740582ed4c969ae73130afb627a0904769",
                        "s" : "0x3d240fbac3547335d89c90c047a0064640dec7e4be36d70531900ec504842a18",
                        "to" : "0xe3476106159f87477ad639e3ddcbb6b240efe459",
                        "v" : "0x1b",
                        "value" : "0x00"
                    },
                    {
                        "data" : "0x6a6001546003556002600255600052600b60156000f000",
                        "gasLimit" : "0x061a80",
                        "gasPrice" : "0x01",
                        "nonce" : "0x01",
                        "r" : "0x24fe4a35d6e046db21bf7fe277b3138a7d1ec74caae8e5a3229c4fce4b1f8fd9",
                        "s" : "0x543ab15777427a4ceed4000029bbd7678fe420f084370c3d6054231bc698c07d",
                        "to" : "",
                        "v" : "0x1b",
                        "value" : "0x00"
                    }
                ],
                "rlp" : "0xf902c7f901faa055ccfe62185f0fce2b8b63764dbe33cecb0576809ac761df87637cb14cac63aca01dcc4de8dec75d7aab85b567b6ccd41ad312451b948a7413f0a142fd40d49347948888f1f195afa192cfee860698584c030f4c9db1a04be68cde0b98b9f2a47047beb8f77c56680198d14b39f7e4e4a322084db051a4a0dd551114141f3d2c9fbaf30cfbc667fb5b515b8ff11c4a9bcb3b6cb80e702dffa03779e82e61cc8e120a55d0e91ccff78a4f8d09a92ac3bd3fcb7e2bdd1e731f0ab90100000000000000000000000000000000000000000000000000000000000000000000000000000000000000000000000000000000000000000000000000000000000000000000000000000000000000000000000000000000000000000000000000000000000000000000000000000000000000000000000000000000000000000000000000000000000000000000000000000000000000000000000000000000000000000000000000000000000000000000000000000000000000000000000000000000000000000000000000000000000000000000000000000000000000000000000000000000000000000000000000000000000000000000000000000000008302000001832ffbd2830259768454c9906942a00000000000000000000000000000000000000000000000000000000000000000880000000000000000f8c7f860800183061a8094e3476106159f87477ad639e3ddcbb6b240efe45980801ba06ec80a292680500270c0c41910099f740582ed4c969ae73130afb627a0904769a03d240fbac3547335d89c90c047a0064640dec7e4be36d70531900ec504842a18f863010183061a808080976a6001546003556002600255600052600b60156000f0001ba024fe4a35d6e046db21bf7fe277b3138a7d1ec74caae8e5a3229c4fce4b1f8fd9a0543ab15777427a4ceed4000029bbd7678fe420f084370c3d6054231bc698c07dc0"
            }
        ],
        "postState" : {
            "0xa94f5374fce5edbc8e2a8697c15331677e6ebf0b" : {
                "code" : "0x",
                "nonce" : "0x02",
                "balance" : "0x0254098a8a",
                "storage" : {
                }
            },
            "0x0000000000000000000000000000000000000001" : {
                "code" : "0x",
                "nonce" : "0x00",
                "balance" : "0x03e8",
                "storage" : {
                }
            },
            "0x8888f1f195afa192cfee860698584c030f4c9db1" : {
                "code" : "0x",
                "nonce" : "0x00",
                "balance" : "0x1bc16d674eca5976",
                "storage" : {
                }
            },
            "0xec0e71ad0a90ffe1909d27dac207f7680abba42d" : {
                "code" : "0x",
                "nonce" : "0x02",
                "balance" : "0x00",
                "storage" : {
                }
            },
            "0xe3476106159f87477ad639e3ddcbb6b240efe459" : {
                "code" : "0x",
                "nonce" : "0x01",
                "balance" : "0x00",
                "storage" : {
                    "0x02" : "0x02"
                }
            }
        },
        "lastblockhash" : "0x04886214404a8933b3a035ece65f57bb0577bf45dba23b26bc285885a1ca3234"
    }
}