{
    "suicideCoinbaseState_Istanbul" : {
        "_info" : {
            "comment" : "",
            "filledwith" : "testeth 1.8.0-alpha.0-12+commit.b120a12c.dirty",
            "lllcversion" : "Version: 0.5.12-develop.2019.9.13+commit.2d601a4f.Linux.g++",
            "source" : "src/BlockchainTestsFiller/ValidBlocks/bcStateTests/suicideCoinbaseStateFiller.json",
            "sourceHash" : "606ddebd68d4015c8b0c7d08510ef4f8ad388b42b3b898fe47f41594a0e4d326"
        },
        "blocks" : [
            {
                "blockHeader" : {
                    "bloom" : "0x00000000000000000000000000000000000000000000000000000000000000000000000000000000000000000000000000000000000000000000000000000000000000000000000000000000000000000000000000000000000000000000000000000000000000000000000000000000000000000000000000000000000000000000000000000000000000000000000000000000000000000000000000000000000000000000000000000000000000000000000000000000000000000000000000000000000000000000000000000000000000000000000000000000000000000000000000000000000000000000000000000000000000000000000000000000",
                    "coinbase" : "0x095e7baea6a6c7c4c2dfeb977efac326af552d87",
                    "difficulty" : "0x020000",
                    "extraData" : "",
                    "gasLimit" : "0x98705c",
                    "gasUsed" : "0x32ca",
                    "hash" : "0x9d7b6bc2aee2c0320b0f34be1de4b0895285b0a832b3ffeedb7ac8f642105cf3",
                    "mixHash" : "0x0000000000000000000000000000000000000000000000000000000000000000",
                    "nonce" : "0x0000000000000000",
                    "number" : "0x01",
                    "parentHash" : "0x291b1d875eda222f33c220af54def746a7d1b23ebf90919e0d5150a2ea8f2eb2",
                    "receiptTrie" : "0xbdc6970604c358a6e29ea6d74bc6182566b1d8479b2d5fdae39ff17df01813d7",
                    "stateRoot" : "0x957cbf7da128d19c65b100e0c50e5afb3759a0775864fc4d056d586304d0a38a",
                    "timestamp" : "0x5db7320b",
                    "transactionsTrie" : "0x71f709457a5104b4156ff2cff0dbc56a9e6a9f221acfdbde6976b12b5e6a546f",
                    "uncleHash" : "0x1dcc4de8dec75d7aab85b567b6ccd41ad312451b948a7413f0a142fd40d49347"
                },
                "rlp" : "0xf90264f901f9a0291b1d875eda222f33c220af54def746a7d1b23ebf90919e0d5150a2ea8f2eb2a01dcc4de8dec75d7aab85b567b6ccd41ad312451b948a7413f0a142fd40d4934794095e7baea6a6c7c4c2dfeb977efac326af552d87a0957cbf7da128d19c65b100e0c50e5afb3759a0775864fc4d056d586304d0a38aa071f709457a5104b4156ff2cff0dbc56a9e6a9f221acfdbde6976b12b5e6a546fa0bdc6970604c358a6e29ea6d74bc6182566b1d8479b2d5fdae39ff17df01813d7b901000000000000000000000000000000000000000000000000000000000000000000000000000000000000000000000000000000000000000000000000000000000000000000000000000000000000000000000000000000000000000000000000000000000000000000000000000000000000000000000000000000000000000000000000000000000000000000000000000000000000000000000000000000000000000000000000000000000000000000000000000000000000000000000000000000000000000000000000000000000000000000000000000000000000000000000000000000000000000000000000000000000000000000000000000000000083020000018398705c8232ca845db7320b80a00000000000000000000000000000000000000000000000000000000000000000880000000000000000f865f8638001830f424094095e7baea6a6c7c4c2dfeb977efac326af552d87830186a0801ba0b5a74d7a966105ad23121c35e63f659bb4b94a7b7a437b7a2ea78d4672cad937a0535bf92804677e0bd3c56a4328561202e4d6b6fd374fe9f27b97e4c9d69f7db5c0",
                "transactions" : [
                    {
                        "data" : "0x",
                        "gasLimit" : "0x0f4240",
                        "gasPrice" : "0x01",
                        "nonce" : "0x00",
                        "r" : "0xb5a74d7a966105ad23121c35e63f659bb4b94a7b7a437b7a2ea78d4672cad937",
                        "s" : "0x535bf92804677e0bd3c56a4328561202e4d6b6fd374fe9f27b97e4c9d69f7db5",
                        "to" : "0x095e7baea6a6c7c4c2dfeb977efac326af552d87",
                        "v" : "0x1b",
                        "value" : "0x0186a0"
                    }
                ],
                "uncleHeaders" : [
                ]
            }
        ],
        "genesisBlockHeader" : {
            "bloom" : "0x00000000000000000000000000000000000000000000000000000000000000000000000000000000000000000000000000000000000000000000000000000000000000000000000000000000000000000000000000000000000000000000000000000000000000000000000000000000000000000000000000000000000000000000000000000000000000000000000000000000000000000000000000000000000000000000000000000000000000000000000000000000000000000000000000000000000000000000000000000000000000000000000000000000000000000000000000000000000000000000000000000000000000000000000000000000",
            "coinbase" : "0x095e7baea6a6c7c4c2dfeb977efac326af552d87",
            "difficulty" : "0x020000",
            "extraData" : "0x42",
            "gasLimit" : "0x989680",
            "gasUsed" : "0x00",
            "hash" : "0x291b1d875eda222f33c220af54def746a7d1b23ebf90919e0d5150a2ea8f2eb2",
            "mixHash" : "0x56e81f171bcc55a6ff8345e692c0f86e5b48e01b996cadc001622fb5e363b421",
            "nonce" : "0x0102030405060708",
            "number" : "0x00",
            "parentHash" : "0x0000000000000000000000000000000000000000000000000000000000000000",
            "receiptTrie" : "0x56e81f171bcc55a6ff8345e692c0f86e5b48e01b996cadc001622fb5e363b421",
            "stateRoot" : "0x7722ba1cd0bb36aef60bdf684760e700850cac5f4958a49e5f095f11ef44cb37",
            "timestamp" : "0x03e8",
            "transactionsTrie" : "0x56e81f171bcc55a6ff8345e692c0f86e5b48e01b996cadc001622fb5e363b421",
            "uncleHash" : "0x1dcc4de8dec75d7aab85b567b6ccd41ad312451b948a7413f0a142fd40d49347"
        },
        "genesisRLP" : "0xf901faf901f5a00000000000000000000000000000000000000000000000000000000000000000a01dcc4de8dec75d7aab85b567b6ccd41ad312451b948a7413f0a142fd40d4934794095e7baea6a6c7c4c2dfeb977efac326af552d87a07722ba1cd0bb36aef60bdf684760e700850cac5f4958a49e5f095f11ef44cb37a056e81f171bcc55a6ff8345e692c0f86e5b48e01b996cadc001622fb5e363b421a056e81f171bcc55a6ff8345e692c0f86e5b48e01b996cadc001622fb5e363b421b9010000000000000000000000000000000000000000000000000000000000000000000000000000000000000000000000000000000000000000000000000000000000000000000000000000000000000000000000000000000000000000000000000000000000000000000000000000000000000000000000000000000000000000000000000000000000000000000000000000000000000000000000000000000000000000000000000000000000000000000000000000000000000000000000000000000000000000000000000000000000000000000000000000000000000000000000000000000000000000000000000000000000000000000000000000000000830200008083989680808203e842a056e81f171bcc55a6ff8345e692c0f86e5b48e01b996cadc001622fb5e363b421880102030405060708c0c0",
        "lastblockhash" : "0x9d7b6bc2aee2c0320b0f34be1de4b0895285b0a832b3ffeedb7ac8f642105cf3",
        "network" : "Istanbul",
        "postState" : {
            "0x095e7baea6a6c7c4c2dfeb977efac326af552d87" : {
                "balance" : "0x1bc16d674ec80000",
                "code" : "",
                "nonce" : "0x00",
                "storage" : {
                }
            },
            "0xa94f5374fce5edbc8e2a8697c15331677e6ebf0b" : {
                "balance" : "0x1bc16d674ec7cd36",
                "code" : "",
                "nonce" : "0x01",
                "storage" : {
                }
            }
        },
        "pre" : {
            "0x095e7baea6a6c7c4c2dfeb977efac326af552d87" : {
                "balance" : "0x0de0b6b3a7640000",
                "code" : "0x73a94f5374fce5edbc8e2a8697c15331677e6ebf0bff00",
                "nonce" : "0x00",
                "storage" : {
                }
            },
            "0xa94f5374fce5edbc8e2a8697c15331677e6ebf0b" : {
                "balance" : "0x0de0b6b3a7640000",
                "code" : "",
                "nonce" : "0x00",
                "storage" : {
                }
            }
        },
        "sealEngine" : "NoProof"
    }
}