{
    "SuicidesMixingCoinbase_Istanbul" : {
        "_info" : {
            "comment" : "",
            "filledwith" : "testeth 1.8.0-alpha.0-12+commit.b120a12c.dirty",
            "lllcversion" : "Version: 0.5.12-develop.2019.9.13+commit.2d601a4f.Linux.g++",
            "source" : "src/BlockchainTestsFiller/ValidBlocks/bcStateTests/SuicidesMixingCoinbaseFiller.json",
            "sourceHash" : "1c9903151139395e1fd8747134b0c852634cef1cbedaf000665d8fe5a778df1c"
        },
        "blocks" : [
            {
                "blockHeader" : {
                    "bloom" : "0x00000000000000000000000000000000000000000000000000000000000000000000000000000000000000000000000000000000000000000000000000000000000000000000000000000000000000000000000000000000000000000000000000000000000000000000000000000000000000000000000000000000000000000000000000000000000000000000000000000000000000000000000000000000000000000000000000000000000000000000000000000000000000000000000000000000000000000000000000000000000000000000000000000000000000000000000000000000000000000000000000000000000000000000000000000000",
                    "coinbase" : "0xb94f5374fce5edbc8e2a8697c15331677e6ebf0b",
                    "difficulty" : "0x020000",
                    "extraData" : "",
                    "gasLimit" : "0x0f460f",
                    "gasUsed" : "0x54c4",
                    "hash" : "0xd7940b0fe58a08703328473cc8620183ab6f385751755723e359fd69ba0259c7",
                    "mixHash" : "0x0000000000000000000000000000000000000000000000000000000000000000",
                    "nonce" : "0x0000000000000000",
                    "number" : "0x01",
                    "parentHash" : "0xe94964f3ff3b578d69a4fb0a4a8891a33d722cb8e2746777e52f36b6fa0f3e51",
                    "receiptTrie" : "0xcc622cd09860dbcba5e111e2491e3c10a6a007266fe0036aefc4dc772e9e8e7c",
                    "stateRoot" : "0x52577df6bae129af0133388ef6f0aea5a5c1cee371935cb3d65472e6cef19fa2",
                    "timestamp" : "0x5db73226",
                    "transactionsTrie" : "0x39047d94bb4fe524b2905298df492cfed4f0950492cfa6d711a5ed4ccfb53015",
                    "uncleHash" : "0x1dcc4de8dec75d7aab85b567b6ccd41ad312451b948a7413f0a142fd40d49347"
                },
                "rlp" : "0xf90260f901f9a0e94964f3ff3b578d69a4fb0a4a8891a33d722cb8e2746777e52f36b6fa0f3e51a01dcc4de8dec75d7aab85b567b6ccd41ad312451b948a7413f0a142fd40d4934794b94f5374fce5edbc8e2a8697c15331677e6ebf0ba052577df6bae129af0133388ef6f0aea5a5c1cee371935cb3d65472e6cef19fa2a039047d94bb4fe524b2905298df492cfed4f0950492cfa6d711a5ed4ccfb53015a0cc622cd09860dbcba5e111e2491e3c10a6a007266fe0036aefc4dc772e9e8e7cb90100000000000000000000000000000000000000000000000000000000000000000000000000000000000000000000000000000000000000000000000000000000000000000000000000000000000000000000000000000000000000000000000000000000000000000000000000000000000000000000000000000000000000000000000000000000000000000000000000000000000000000000000000000000000000000000000000000000000000000000000000000000000000000000000000000000000000000000000000000000000000000000000000000000000000000000000000000000000000000000000000000000000000000000000000000000008302000001830f460f8254c4845db7322680a00000000000000000000000000000000000000000000000000000000000000000880000000000000000f861f85f80018254c494b94f5374fce5edbc8e2a8697c15331677e6ebf0b0a801ba0a2c20190601f2701622be3659db54a9f4b00fb8f6cf2d4abaaff5ef3c0ced58ca0132604eebdd70c2bed6cf777d90fc6bc106607065b3ed4b80f410709d35bc422c0",
                "transactions" : [
                    {
                        "data" : "0x",
                        "gasLimit" : "0x54c4",
                        "gasPrice" : "0x01",
                        "nonce" : "0x00",
                        "r" : "0xa2c20190601f2701622be3659db54a9f4b00fb8f6cf2d4abaaff5ef3c0ced58c",
                        "s" : "0x132604eebdd70c2bed6cf777d90fc6bc106607065b3ed4b80f410709d35bc422",
                        "to" : "0xb94f5374fce5edbc8e2a8697c15331677e6ebf0b",
                        "v" : "0x1b",
                        "value" : "0x0a"
                    }
                ],
                "uncleHeaders" : [
                ]
            },
            {
                "blockHeader" : {
                    "bloom" : "0x00000000000000000000000000000000000000000000000000000000000000000000000000000000000000000000000000000000000000000000000000000000000000000000000000000000000000000000000000000000000000000000000000000000000000000000000000000000000000000000000000000000000000000000000000000000000000000000000000000000000000000000000000000000000000000000000000000000000000000000000000000000000000000000000000000000000000000000000000000000000000000000000000000000000000000000000000000000000000000000000000000000000000000000000000000000",
                    "coinbase" : "0xb24f5374fce5edbc8e2a8697c15331677e6ebf0b",
                    "difficulty" : "0x020040",
                    "extraData" : "",
                    "gasLimit" : "0x0f49df",
                    "gasUsed" : "0x697b",
                    "hash" : "0x826823c9a68ad82580728467b3d671ffd3786685ddebfbed79aea1b3dbbdf490",
                    "mixHash" : "0x0000000000000000000000000000000000000000000000000000000000000000",
                    "nonce" : "0x0000000000000000",
                    "number" : "0x02",
                    "parentHash" : "0xd7940b0fe58a08703328473cc8620183ab6f385751755723e359fd69ba0259c7",
                    "receiptTrie" : "0x11b9a3af527495821ab161c2237f35f6a032d0dc5e9ee404f60ba12f9b7c26a9",
                    "stateRoot" : "0xe2c8b9e0819ef4d8b7fa4209e9914645a30feab206d4adb28a3c330377a57de9",
                    "timestamp" : "0x5db73227",
                    "transactionsTrie" : "0x425c4c93531b34f5f180c3f13b2bd31d14274925c844b283ca66e1bf8f47495b",
                    "uncleHash" : "0x1dcc4de8dec75d7aab85b567b6ccd41ad312451b948a7413f0a142fd40d49347"
                },
                "rlp" : "0xf90260f901f9a0d7940b0fe58a08703328473cc8620183ab6f385751755723e359fd69ba0259c7a01dcc4de8dec75d7aab85b567b6ccd41ad312451b948a7413f0a142fd40d4934794b24f5374fce5edbc8e2a8697c15331677e6ebf0ba0e2c8b9e0819ef4d8b7fa4209e9914645a30feab206d4adb28a3c330377a57de9a0425c4c93531b34f5f180c3f13b2bd31d14274925c844b283ca66e1bf8f47495ba011b9a3af527495821ab161c2237f35f6a032d0dc5e9ee404f60ba12f9b7c26a9b90100000000000000000000000000000000000000000000000000000000000000000000000000000000000000000000000000000000000000000000000000000000000000000000000000000000000000000000000000000000000000000000000000000000000000000000000000000000000000000000000000000000000000000000000000000000000000000000000000000000000000000000000000000000000000000000000000000000000000000000000000000000000000000000000000000000000000000000000000000000000000000000000000000000000000000000000000000000000000000000000000000000000000000000000000000000008302004002830f49df82697b845db7322780a00000000000000000000000000000000000000000000000000000000000000000880000000000000000f861f85f010182ea6094b24f5374fce5edbc8e2a8697c15331677e6ebf0b0a801ca0661628d10355390a5fc1f45bd3fbeab92e2c6fea8a396a9086c6b9d349c6dcb7a0143cdbed0519bc49402ae08abf2e1a964ca395742689b3ee38d06d427414738ac0",
                "transactions" : [
                    {
                        "data" : "0x",
                        "gasLimit" : "0xea60",
                        "gasPrice" : "0x01",
                        "nonce" : "0x01",
                        "r" : "0x661628d10355390a5fc1f45bd3fbeab92e2c6fea8a396a9086c6b9d349c6dcb7",
                        "s" : "0x143cdbed0519bc49402ae08abf2e1a964ca395742689b3ee38d06d427414738a",
                        "to" : "0xb24f5374fce5edbc8e2a8697c15331677e6ebf0b",
                        "v" : "0x1c",
                        "value" : "0x0a"
                    }
                ],
                "uncleHeaders" : [
                ]
            }
        ],
        "genesisBlockHeader" : {
            "bloom" : "0x00000000000000000000000000000000000000000000000000000000000000000000000000000000000000000000000000000000000000000000000000000000000000000000000000000000000000000000000000000000000000000000000000000000000000000000000000000000000000000000000000000000000000000000000000000000000000000000000000000000000000000000000000000000000000000000000000000000000000000000000000000000000000000000000000000000000000000000000000000000000000000000000000000000000000000000000000000000000000000000000000000000000000000000000000000000",
            "coinbase" : "0xb94f5374fce5edbc8e2a8697c15331677e6ebf0b",
            "difficulty" : "0x020000",
            "extraData" : "0x42",
            "gasLimit" : "0x0f4240",
            "gasUsed" : "0x00",
            "hash" : "0xe94964f3ff3b578d69a4fb0a4a8891a33d722cb8e2746777e52f36b6fa0f3e51",
            "mixHash" : "0x56e81f171bcc55a6ff8345e692c0f86e5b48e01b996cadc001622fb5e363b421",
            "nonce" : "0x0102030405060708",
            "number" : "0x00",
            "parentHash" : "0x0000000000000000000000000000000000000000000000000000000000000000",
            "receiptTrie" : "0x56e81f171bcc55a6ff8345e692c0f86e5b48e01b996cadc001622fb5e363b421",
            "stateRoot" : "0x1aef035b37342084c6b936e8b675ecc7f1688a6de4778cf4d706a61e0acc49f3",
            "timestamp" : "0x03e8",
            "transactionsTrie" : "0x56e81f171bcc55a6ff8345e692c0f86e5b48e01b996cadc001622fb5e363b421",
            "uncleHash" : "0x1dcc4de8dec75d7aab85b567b6ccd41ad312451b948a7413f0a142fd40d49347"
        },
        "genesisRLP" : "0xf901faf901f5a00000000000000000000000000000000000000000000000000000000000000000a01dcc4de8dec75d7aab85b567b6ccd41ad312451b948a7413f0a142fd40d4934794b94f5374fce5edbc8e2a8697c15331677e6ebf0ba01aef035b37342084c6b936e8b675ecc7f1688a6de4778cf4d706a61e0acc49f3a056e81f171bcc55a6ff8345e692c0f86e5b48e01b996cadc001622fb5e363b421a056e81f171bcc55a6ff8345e692c0f86e5b48e01b996cadc001622fb5e363b421b90100000000000000000000000000000000000000000000000000000000000000000000000000000000000000000000000000000000000000000000000000000000000000000000000000000000000000000000000000000000000000000000000000000000000000000000000000000000000000000000000000000000000000000000000000000000000000000000000000000000000000000000000000000000000000000000000000000000000000000000000000000000000000000000000000000000000000000000000000000000000000000000000000000000000000000000000000000000000000000000000000000000000000000000000000000000008302000080830f4240808203e842a056e81f171bcc55a6ff8345e692c0f86e5b48e01b996cadc001622fb5e363b421880102030405060708c0c0",
        "lastblockhash" : "0x826823c9a68ad82580728467b3d671ffd3786685ddebfbed79aea1b3dbbdf490",
        "network" : "Istanbul",
        "postState" : {
            "0xa94f5374fce5edbc8e2a8697c15331677e6ebf0b" : {
                "balance" : "0x029d17",
                "code" : "",
                "nonce" : "0x02",
                "storage" : {
                }
            },
            "0xb24f5374fce5edbc8e2a8697c15331677e6ebf0b" : {
                "balance" : "0x1bc16d674ec80000",
                "code" : "",
                "nonce" : "0x00",
                "storage" : {
                }
            },
            "0xb94f5374fce5edbc8e2a8697c15331677e6ebf0b" : {
                "balance" : "0x1bc16d674ec858ac",
                "code" : "0x73c94f5374fce5edbc8e2a8697c15331677e6ebf0bff00",
                "nonce" : "0x00",
                "storage" : {
                }
            },
            "0xc24f5374fce5edbc8e2a8697c15331677e6ebf0b" : {
                "balance" : "0x03f2",
                "code" : "",
                "nonce" : "0x00",
                "storage" : {
                }
            }
        },
        "pre" : {
            "0xa94f5374fce5edbc8e2a8697c15331677e6ebf0b" : {
                "balance" : "0x035b60",
                "code" : "",
                "nonce" : "0x00",
                "storage" : {
                }
            },
            "0xb24f5374fce5edbc8e2a8697c15331677e6ebf0b" : {
                "balance" : "0x03e8",
                "code" : "0x73c24f5374fce5edbc8e2a8697c15331677e6ebf0bff00",
                "nonce" : "0x00",
                "storage" : {
                }
            },
            "0xb94f5374fce5edbc8e2a8697c15331677e6ebf0b" : {
                "balance" : "0x03e8",
                "code" : "0x73c94f5374fce5edbc8e2a8697c15331677e6ebf0bff00",
                "nonce" : "0x00",
                "storage" : {
                }
            }
        },
        "sealEngine" : "NoProof"
    }
}