{
    "suicideCoinbase_Istanbul" : {
        "_info" : {
            "comment" : "",
            "filling-rpc-server" : "Geth-1.9.11-unstable-a382d783-20200127",
            "filling-tool-version" : "retesteth-0.0.2+commit.ce1fdd3d.Linux.g++",
            "lllcversion" : "Version: 0.5.14-develop.2019.11.27+commit.8f259595.Linux.g++",
            "source" : "src/BlockchainTestsFiller/ValidBlocks/bcStateTests/suicideCoinbaseFiller.json",
            "sourceHash" : "e6ef521d05a6bd8aa55222e64070b4940f187db87d6075182b79f268fe7da550"
        },
        "sealEngine" : "NoProof",
        "network" : "Istanbul",
        "pre" : {
            "0x8888f1f195afa192cfee860698584c030f4c9db1" : {
                "balance" : "0x03e8",
                "code" : "0x60606040526000357c0100000000000000000000000000000000000000000000000000000000900480630c55699c146037576035565b005b60406004506042565b005b3373ffffffffffffffffffffffffffffffffffffffff16ff5b56",
                "nonce" : "0x00",
                "storage" : {
                }
            },
            "0xa94f5374fce5edbc8e2a8697c15331677e6ebf0b" : {
                "balance" : "0x02540be400",
                "code" : "0x",
                "nonce" : "0x00",
                "storage" : {
                }
            }
        },
        "genesisBlockHeader" : {
            "bloom" : "0x00000000000000000000000000000000000000000000000000000000000000000000000000000000000000000000000000000000000000000000000000000000000000000000000000000000000000000000000000000000000000000000000000000000000000000000000000000000000000000000000000000000000000000000000000000000000000000000000000000000000000000000000000000000000000000000000000000000000000000000000000000000000000000000000000000000000000000000000000000000000000000000000000000000000000000000000000000000000000000000000000000000000000000000000000000000",
            "coinbase" : "0x8888f1f195afa192cfee860698584c030f4c9db1",
            "difficulty" : "0x020000",
            "extraData" : "0x42",
            "gasLimit" : "0x2fefd8",
            "gasUsed" : "0x00",
            "hash" : "0xf202940f24eec99c98551f41dcf87a948f9a9872de0050dbb4de03dce279013c",
            "mixHash" : "0x0000000000000000000000000000000000000000000000000000000000000000",
            "nonce" : "0x0000000000000000",
            "number" : "0x00",
            "parentHash" : "0x0000000000000000000000000000000000000000000000000000000000000000",
            "receiptTrie" : "0x56e81f171bcc55a6ff8345e692c0f86e5b48e01b996cadc001622fb5e363b421",
            "stateRoot" : "0x4941fba20142b10d43d0a893dfa4f5eedcbcb4b55c8554efd71e226624d9b37c",
            "timestamp" : "0x54c98c81",
            "transactionsTrie" : "0x56e81f171bcc55a6ff8345e692c0f86e5b48e01b996cadc001622fb5e363b421",
            "uncleHash" : "0x1dcc4de8dec75d7aab85b567b6ccd41ad312451b948a7413f0a142fd40d49347"
        },
        "genesisRLP" : "0xf901fcf901f7a00000000000000000000000000000000000000000000000000000000000000000a01dcc4de8dec75d7aab85b567b6ccd41ad312451b948a7413f0a142fd40d49347948888f1f195afa192cfee860698584c030f4c9db1a04941fba20142b10d43d0a893dfa4f5eedcbcb4b55c8554efd71e226624d9b37ca056e81f171bcc55a6ff8345e692c0f86e5b48e01b996cadc001622fb5e363b421a056e81f171bcc55a6ff8345e692c0f86e5b48e01b996cadc001622fb5e363b421b90100000000000000000000000000000000000000000000000000000000000000000000000000000000000000000000000000000000000000000000000000000000000000000000000000000000000000000000000000000000000000000000000000000000000000000000000000000000000000000000000000000000000000000000000000000000000000000000000000000000000000000000000000000000000000000000000000000000000000000000000000000000000000000000000000000000000000000000000000000000000000000000000000000000000000000000000000000000000000000000000000000000000000000000000000000000008302000080832fefd8808454c98c8142a00000000000000000000000000000000000000000000000000000000000000000880000000000000000c0c0",
        "blocks" : [
            {
                "chainname" : "default",
                "blocknumber" : "1",
                "uncleHeaders" : [
                ],
                "blockHeader" : {
                    "bloom" : "0x00000000000000000000000000000000000000000000000000000000000000000000000000000000000000000000000000000000000000000000000000000000000000000000000000000000000000000000000000000000000000000000000000000000000000000000000000000000000000000000000000000000000000000000000000000000000000000000000000000000000000000000000000000000000000000000000000000000000000000000000000000000000000000000000000000000000000000000000000000000000000000000000000000000000000000000000000000000000000000000000000000000000000000000000000000000",
                    "coinbase" : "0x8888f1f195afa192cfee860698584c030f4c9db1",
                    "difficulty" : "0x020000",
                    "extraData" : "0x42",
                    "gasLimit" : "0x2ffbd2",
                    "gasUsed" : "0xd723",
                    "hash" : "0x326e127eff0580128901b77693e8ef96414c82414d7602aee6fa07cdafa9acaf",
                    "mixHash" : "0x0000000000000000000000000000000000000000000000000000000000000000",
                    "nonce" : "0x0000000000000000",
                    "number" : "0x01",
                    "parentHash" : "0xf202940f24eec99c98551f41dcf87a948f9a9872de0050dbb4de03dce279013c",
                    "receiptTrie" : "0x4154ea35f24da65e1a041fcecfdff49e102c06d57b09482f98f400d026ef6333",
                    "stateRoot" : "0x0c8647ebfc415222ba9bc9088cbd25983776ce5a1ef28a1ecac990da6f527ea5",
                    "timestamp" : "0x54c99069",
                    "transactionsTrie" : "0xfcfe9f2203bd98342867117fa3de299a09578371efd04fc9e76a46f7f1fda4bb",
                    "uncleHash" : "0x1dcc4de8dec75d7aab85b567b6ccd41ad312451b948a7413f0a142fd40d49347"
                },
                "transactions" : [
                    {
                        "data" : "0x0c55699c",
                        "gasLimit" : "0x07a120",
                        "gasPrice" : "0x0a",
                        "nonce" : "0x00",
                        "r" : "0x91fc4c402ced19b984e953546d3fc786c46a79c9f0c7918b8f3343dc529ef0e5",
                        "s" : "0x546d89230c90ca8bf7988a826430d4771ab3a67cc0f3cb8019d67ab10ec10524",
                        "to" : "0x8888f1f195afa192cfee860698584c030f4c9db1",
                        "v" : "0x1b",
                        "value" : "0x03e9"
                    },
                    {
                        "data" : "0x",
                        "gasLimit" : "0xc350",
                        "gasPrice" : "0x0a",
                        "nonce" : "0x01",
                        "r" : "0xb03ab16ed211bf447ac030216ab088f18367ee51303545d2957990e9d3a28f10",
                        "s" : "0x7f18dd055139f7ac5558997b80ccae799ab6fbad2326799db509a9d4e5a52d72",
                        "to" : "0x0000000000000000000000000000000000000000",
                        "v" : "0x1b",
                        "value" : "0x03e8"
                    },
                    {
                        "data" : "0x",
                        "gasLimit" : "0xc350",
                        "gasPrice" : "0x0a",
                        "nonce" : "0x02",
                        "r" : "0x0925abd1221d388622138f4bae46803313f297001e96fec22dc4268fca5b5a82",
                        "s" : "0x55cd8142bcec39f80b359aa089f6a70568d23a67048026703981fad9339ef5d4",
                        "to" : "0x0000000000000000000000000000000000000000",
                        "v" : "0x1b",
                        "value" : "0x03ea"
                    }
                ],
                "rlp" : "0xf9032ef901f9a0f202940f24eec99c98551f41dcf87a948f9a9872de0050dbb4de03dce279013ca01dcc4de8dec75d7aab85b567b6ccd41ad312451b948a7413f0a142fd40d49347948888f1f195afa192cfee860698584c030f4c9db1a00c8647ebfc415222ba9bc9088cbd25983776ce5a1ef28a1ecac990da6f527ea5a0fcfe9f2203bd98342867117fa3de299a09578371efd04fc9e76a46f7f1fda4bba04154ea35f24da65e1a041fcecfdff49e102c06d57b09482f98f400d026ef6333b90100000000000000000000000000000000000000000000000000000000000000000000000000000000000000000000000000000000000000000000000000000000000000000000000000000000000000000000000000000000000000000000000000000000000000000000000000000000000000000000000000000000000000000000000000000000000000000000000000000000000000000000000000000000000000000000000000000000000000000000000000000000000000000000000000000000000000000000000000000000000000000000000000000000000000000000000000000000000000000000000000000000000000000000000000000000008302000001832ffbd282d7238454c9906942a00000000000000000000000000000000000000000000000000000000000000000880000000000000000f9012ef866800a8307a120948888f1f195afa192cfee860698584c030f4c9db18203e9840c55699c1ba091fc4c402ced19b984e953546d3fc786c46a79c9f0c7918b8f3343dc529ef0e5a0546d89230c90ca8bf7988a826430d4771ab3a67cc0f3cb8019d67ab10ec10524f861010a82c3509400000000000000000000000000000000000000008203e8801ba0b03ab16ed211bf447ac030216ab088f18367ee51303545d2957990e9d3a28f10a07f18dd055139f7ac5558997b80ccae799ab6fbad2326799db509a9d4e5a52d72f861020a82c3509400000000000000000000000000000000000000008203ea801ba00925abd1221d388622138f4bae46803313f297001e96fec22dc4268fca5b5a82a055cd8142bcec39f80b359aa089f6a70568d23a67048026703981fad9339ef5d4c0"
            }
        ],
        "postState" : {
            "0xa94f5374fce5edbc8e2a8697c15331677e6ebf0b" : {
                "code" : "0x",
                "nonce" : "0x03",
                "balance" : "0x02540378b8",
                "storage" : {
                }
            },
            "0x0000000000000000000000000000000000000000" : {
                "code" : "0x",
                "nonce" : "0x00",
                "balance" : "0x07d2",
                "storage" : {
                }
            },
            "0x8888f1f195afa192cfee860698584c030f4c9db1" : {
                "code" : "0x",
                "nonce" : "0x00",
                "balance" : "0x1bc16d674ece68a0",
                "storage" : {
                }
            }
        },
        "lastblockhash" : "0x326e127eff0580128901b77693e8ef96414c82414d7602aee6fa07cdafa9acaf"
    }
}