{
    "SuicidesMixingCoinbase_Istanbul" : {
        "_info" : {
            "comment" : "",
            "filling-rpc-server" : "Geth-1.9.11-unstable-a382d783-20200127",
            "filling-tool-version" : "retesteth-0.0.2+commit.ce1fdd3d.Linux.g++",
            "lllcversion" : "Version: 0.5.14-develop.2019.11.27+commit.8f259595.Linux.g++",
            "source" : "src/BlockchainTestsFiller/ValidBlocks/bcStateTests/SuicidesMixingCoinbaseFiller.json",
            "sourceHash" : "eb87a662e7d7f3c17736650749cc45610dedd3c3d57a9fe39654e45c37f2d786"
        },
        "sealEngine" : "NoProof",
        "network" : "Istanbul",
        "pre" : {
            "0xa94f5374fce5edbc8e2a8697c15331677e6ebf0b" : {
                "balance" : "0x035b60",
                "code" : "0x",
                "nonce" : "0x00",
                "storage" : {
                }
            },
            "0xb24f5374fce5edbc8e2a8697c15331677e6ebf0b" : {
                "balance" : "0x03e8",
                "code" : "0x73c24f5374fce5edbc8e2a8697c15331677e6ebf0bff00",
                "nonce" : "0x00",
                "storage" : {
                }
            },
            "0xb94f5374fce5edbc8e2a8697c15331677e6ebf0b" : {
                "balance" : "0x03e8",
                "code" : "0x73c94f5374fce5edbc8e2a8697c15331677e6ebf0bff00",
                "nonce" : "0x00",
                "storage" : {
                }
            }
        },
        "genesisBlockHeader" : {
            "bloom" : "0x00000000000000000000000000000000000000000000000000000000000000000000000000000000000000000000000000000000000000000000000000000000000000000000000000000000000000000000000000000000000000000000000000000000000000000000000000000000000000000000000000000000000000000000000000000000000000000000000000000000000000000000000000000000000000000000000000000000000000000000000000000000000000000000000000000000000000000000000000000000000000000000000000000000000000000000000000000000000000000000000000000000000000000000000000000000",
            "coinbase" : "0xb94f5374fce5edbc8e2a8697c15331677e6ebf0b",
            "difficulty" : "0x020000",
            "extraData" : "0x42",
            "gasLimit" : "0x0f4240",
            "gasUsed" : "0x00",
            "hash" : "0x74f6e44a8571b78daa8c0b1e2509a44c4059ad411ab9bcb36e6ba52416bde9a2",
            "mixHash" : "0x0000000000000000000000000000000000000000000000000000000000000000",
            "nonce" : "0x0000000000000000",
            "number" : "0x00",
            "parentHash" : "0x0000000000000000000000000000000000000000000000000000000000000000",
            "receiptTrie" : "0x56e81f171bcc55a6ff8345e692c0f86e5b48e01b996cadc001622fb5e363b421",
            "stateRoot" : "0x1aef035b37342084c6b936e8b675ecc7f1688a6de4778cf4d706a61e0acc49f3",
            "timestamp" : "0x03e8",
            "transactionsTrie" : "0x56e81f171bcc55a6ff8345e692c0f86e5b48e01b996cadc001622fb5e363b421",
            "uncleHash" : "0x1dcc4de8dec75d7aab85b567b6ccd41ad312451b948a7413f0a142fd40d49347"
        },
        "genesisRLP" : "0xf901faf901f5a00000000000000000000000000000000000000000000000000000000000000000a01dcc4de8dec75d7aab85b567b6ccd41ad312451b948a7413f0a142fd40d4934794b94f5374fce5edbc8e2a8697c15331677e6ebf0ba01aef035b37342084c6b936e8b675ecc7f1688a6de4778cf4d706a61e0acc49f3a056e81f171bcc55a6ff8345e692c0f86e5b48e01b996cadc001622fb5e363b421a056e81f171bcc55a6ff8345e692c0f86e5b48e01b996cadc001622fb5e363b421b90100000000000000000000000000000000000000000000000000000000000000000000000000000000000000000000000000000000000000000000000000000000000000000000000000000000000000000000000000000000000000000000000000000000000000000000000000000000000000000000000000000000000000000000000000000000000000000000000000000000000000000000000000000000000000000000000000000000000000000000000000000000000000000000000000000000000000000000000000000000000000000000000000000000000000000000000000000000000000000000000000000000000000000000000000000000008302000080830f4240808203e842a00000000000000000000000000000000000000000000000000000000000000000880000000000000000c0c0",
        "blocks" : [
            {
                "chainname" : "default",
                "blocknumber" : "1",
                "uncleHeaders" : [
                ],
                "blockHeader" : {
                    "bloom" : "0x00000000000000000000000000000000000000000000000000000000000000000000000000000000000000000000000000000000000000000000000000000000000000000000000000000000000000000000000000000000000000000000000000000000000000000000000000000000000000000000000000000000000000000000000000000000000000000000000000000000000000000000000000000000000000000000000000000000000000000000000000000000000000000000000000000000000000000000000000000000000000000000000000000000000000000000000000000000000000000000000000000000000000000000000000000000",
                    "coinbase" : "0xb94f5374fce5edbc8e2a8697c15331677e6ebf0b",
                    "difficulty" : "0x020000",
                    "extraData" : "0x42",
                    "gasLimit" : "0x0f460f",
                    "gasUsed" : "0x54c4",
                    "hash" : "0xd9ad83f168bc0e0a78efea99970fe46b1259a52f0f2e48081d6b54d9ce2106b3",
                    "mixHash" : "0x0000000000000000000000000000000000000000000000000000000000000000",
                    "nonce" : "0x0000000000000000",
                    "number" : "0x01",
                    "parentHash" : "0x74f6e44a8571b78daa8c0b1e2509a44c4059ad411ab9bcb36e6ba52416bde9a2",
                    "receiptTrie" : "0xcc622cd09860dbcba5e111e2491e3c10a6a007266fe0036aefc4dc772e9e8e7c",
                    "stateRoot" : "0x52577df6bae129af0133388ef6f0aea5a5c1cee371935cb3d65472e6cef19fa2",
                    "timestamp" : "0x07d0",
                    "transactionsTrie" : "0x39047d94bb4fe524b2905298df492cfed4f0950492cfa6d711a5ed4ccfb53015",
                    "uncleHash" : "0x1dcc4de8dec75d7aab85b567b6ccd41ad312451b948a7413f0a142fd40d49347"
                },
                "transactions" : [
                    {
                        "data" : "0x",
                        "gasLimit" : "0x54c4",
                        "gasPrice" : "0x01",
                        "nonce" : "0x00",
                        "r" : "0xa2c20190601f2701622be3659db54a9f4b00fb8f6cf2d4abaaff5ef3c0ced58c",
                        "s" : "0x132604eebdd70c2bed6cf777d90fc6bc106607065b3ed4b80f410709d35bc422",
                        "to" : "0xb94f5374fce5edbc8e2a8697c15331677e6ebf0b",
                        "v" : "0x1b",
                        "value" : "0x0a"
                    }
                ],
                "rlp" : "0xf9025ef901f7a074f6e44a8571b78daa8c0b1e2509a44c4059ad411ab9bcb36e6ba52416bde9a2a01dcc4de8dec75d7aab85b567b6ccd41ad312451b948a7413f0a142fd40d4934794b94f5374fce5edbc8e2a8697c15331677e6ebf0ba052577df6bae129af0133388ef6f0aea5a5c1cee371935cb3d65472e6cef19fa2a039047d94bb4fe524b2905298df492cfed4f0950492cfa6d711a5ed4ccfb53015a0cc622cd09860dbcba5e111e2491e3c10a6a007266fe0036aefc4dc772e9e8e7cb90100000000000000000000000000000000000000000000000000000000000000000000000000000000000000000000000000000000000000000000000000000000000000000000000000000000000000000000000000000000000000000000000000000000000000000000000000000000000000000000000000000000000000000000000000000000000000000000000000000000000000000000000000000000000000000000000000000000000000000000000000000000000000000000000000000000000000000000000000000000000000000000000000000000000000000000000000000000000000000000000000000000000000000000000000000000008302000001830f460f8254c48207d042a00000000000000000000000000000000000000000000000000000000000000000880000000000000000f861f85f80018254c494b94f5374fce5edbc8e2a8697c15331677e6ebf0b0a801ba0a2c20190601f2701622be3659db54a9f4b00fb8f6cf2d4abaaff5ef3c0ced58ca0132604eebdd70c2bed6cf777d90fc6bc106607065b3ed4b80f410709d35bc422c0"
            },
            {
                "chainname" : "default",
                "blocknumber" : "2",
                "uncleHeaders" : [
                ],
                "blockHeader" : {
                    "bloom" : "0x00000000000000000000000000000000000000000000000000000000000000000000000000000000000000000000000000000000000000000000000000000000000000000000000000000000000000000000000000000000000000000000000000000000000000000000000000000000000000000000000000000000000000000000000000000000000000000000000000000000000000000000000000000000000000000000000000000000000000000000000000000000000000000000000000000000000000000000000000000000000000000000000000000000000000000000000000000000000000000000000000000000000000000000000000000000",
                    "coinbase" : "0xb24f5374fce5edbc8e2a8697c15331677e6ebf0b",
                    "difficulty" : "0x020000",
                    "extraData" : "0x42",
                    "gasLimit" : "0x0f49df",
                    "gasUsed" : "0x697b",
                    "hash" : "0xb7bd464df14a0f6c4017266b9174a5653b15ed19fa2f442b80499ea1b5218abb",
                    "mixHash" : "0x0000000000000000000000000000000000000000000000000000000000000000",
                    "nonce" : "0x0000000000000000",
                    "number" : "0x02",
                    "parentHash" : "0xd9ad83f168bc0e0a78efea99970fe46b1259a52f0f2e48081d6b54d9ce2106b3",
                    "receiptTrie" : "0x11b9a3af527495821ab161c2237f35f6a032d0dc5e9ee404f60ba12f9b7c26a9",
                    "stateRoot" : "0xe2c8b9e0819ef4d8b7fa4209e9914645a30feab206d4adb28a3c330377a57de9",
                    "timestamp" : "0x0bb8",
                    "transactionsTrie" : "0x425c4c93531b34f5f180c3f13b2bd31d14274925c844b283ca66e1bf8f47495b",
                    "uncleHash" : "0x1dcc4de8dec75d7aab85b567b6ccd41ad312451b948a7413f0a142fd40d49347"
                },
                "transactions" : [
                    {
                        "data" : "0x",
                        "gasLimit" : "0xea60",
                        "gasPrice" : "0x01",
                        "nonce" : "0x01",
                        "r" : "0x661628d10355390a5fc1f45bd3fbeab92e2c6fea8a396a9086c6b9d349c6dcb7",
                        "s" : "0x143cdbed0519bc49402ae08abf2e1a964ca395742689b3ee38d06d427414738a",
                        "to" : "0xb24f5374fce5edbc8e2a8697c15331677e6ebf0b",
                        "v" : "0x1c",
                        "value" : "0x0a"
                    }
                ],
                "rlp" : "0xf9025ef901f7a0d9ad83f168bc0e0a78efea99970fe46b1259a52f0f2e48081d6b54d9ce2106b3a01dcc4de8dec75d7aab85b567b6ccd41ad312451b948a7413f0a142fd40d4934794b24f5374fce5edbc8e2a8697c15331677e6ebf0ba0e2c8b9e0819ef4d8b7fa4209e9914645a30feab206d4adb28a3c330377a57de9a0425c4c93531b34f5f180c3f13b2bd31d14274925c844b283ca66e1bf8f47495ba011b9a3af527495821ab161c2237f35f6a032d0dc5e9ee404f60ba12f9b7c26a9b90100000000000000000000000000000000000000000000000000000000000000000000000000000000000000000000000000000000000000000000000000000000000000000000000000000000000000000000000000000000000000000000000000000000000000000000000000000000000000000000000000000000000000000000000000000000000000000000000000000000000000000000000000000000000000000000000000000000000000000000000000000000000000000000000000000000000000000000000000000000000000000000000000000000000000000000000000000000000000000000000000000000000000000000000000000000008302000002830f49df82697b820bb842a00000000000000000000000000000000000000000000000000000000000000000880000000000000000f861f85f010182ea6094b24f5374fce5edbc8e2a8697c15331677e6ebf0b0a801ca0661628d10355390a5fc1f45bd3fbeab92e2c6fea8a396a9086c6b9d349c6dcb7a0143cdbed0519bc49402ae08abf2e1a964ca395742689b3ee38d06d427414738ac0"
            }
        ],
        "postState" : {
            "0xa94f5374fce5edbc8e2a8697c15331677e6ebf0b" : {
                "code" : "0x",
                "nonce" : "0x02",
                "balance" : "0x029d17",
                "storage" : {
                }
            },
            "0xb24f5374fce5edbc8e2a8697c15331677e6ebf0b" : {
                "code" : "0x",
                "nonce" : "0x00",
                "balance" : "0x1bc16d674ec80000",
                "storage" : {
                }
            },
            "0xb94f5374fce5edbc8e2a8697c15331677e6ebf0b" : {
                "code" : "0x73c94f5374fce5edbc8e2a8697c15331677e6ebf0bff00",
                "nonce" : "0x00",
                "balance" : "0x1bc16d674ec858ac",
                "storage" : {
                }
            },
            "0xc24f5374fce5edbc8e2a8697c15331677e6ebf0b" : {
                "code" : "0x",
                "nonce" : "0x00",
                "balance" : "0x03f2",
                "storage" : {
                }
            }
        },
        "lastblockhash" : "0xb7bd464df14a0f6c4017266b9174a5653b15ed19fa2f442b80499ea1b5218abb"
    }
}