{
    "suicideThenCheckBalance_Istanbul" : {
        "_info" : {
            "comment" : "[2:22:42] Vitalik Buterin: another one is: (i) self-destruct contract C, (ii) in the next transaction, send 1 wei to C, (iii) verify that C's balance is 1 wei. [2:23:01] Vitalik Buterin: the reason this is important now is that with EIP98, clients will be switching to not 'committing' their caches to the trie at the end of every tx. [2:23:18] Vitalik Buterin: and this means that selfdestruct has to be handled more carefully than before. [2:23:49] Vitalik Buterin: pyethereum screwed it up and it had to get fixed, though pyethereum's bug had to do with pre-spurious dragon 'existence' so it may not be relevant now.",
            "filling-rpc-server" : "Geth-1.9.11-unstable-a382d783-20200127",
            "filling-tool-version" : "retesteth-0.0.2+commit.ce1fdd3d.Linux.g++",
            "lllcversion" : "Version: 0.5.14-develop.2019.11.27+commit.8f259595.Linux.g++",
            "source" : "src/BlockchainTestsFiller/ValidBlocks/bcStateTests/suicideThenCheckBalanceFiller.json",
            "sourceHash" : "2d43fb17d2bee2d048bb2afe80a4bc44dca4325730398b84bb9d47bb6d5dbcbb"
        },
        "sealEngine" : "NoProof",
        "network" : "Istanbul",
        "pre" : {
            "0xa3476106159f87477ad639e3ddcbb6b240efe459" : {
                "balance" : "0x03e8",
                "code" : "0x6000600060006000600173e3476106159f87477ad639e3ddcbb6b240efe4596101f4f15073e3476106159f87477ad639e3ddcbb6b240efe4593160015500",
                "nonce" : "0x00",
                "storage" : {
                }
            },
            "0xa94f5374fce5edbc8e2a8697c15331677e6ebf0b" : {
                "balance" : "0x02540be400",
                "code" : "0x",
                "nonce" : "0x00",
                "storage" : {
                }
            },
            "0xe3476106159f87477ad639e3ddcbb6b240efe459" : {
                "balance" : "0x03e8",
                "code" : "0x60036001556001ff00",
                "nonce" : "0x00",
                "storage" : {
                }
            }
        },
        "genesisBlockHeader" : {
            "bloom" : "0x00000000000000000000000000000000000000000000000000000000000000000000000000000000000000000000000000000000000000000000000000000000000000000000000000000000000000000000000000000000000000000000000000000000000000000000000000000000000000000000000000000000000000000000000000000000000000000000000000000000000000000000000000000000000000000000000000000000000000000000000000000000000000000000000000000000000000000000000000000000000000000000000000000000000000000000000000000000000000000000000000000000000000000000000000000000",
            "coinbase" : "0x8888f1f195afa192cfee860698584c030f4c9db1",
            "difficulty" : "0x020000",
            "extraData" : "0x42",
            "gasLimit" : "0x2fefd8",
            "gasUsed" : "0x00",
            "hash" : "0xba7007e83718cc190baba6f363e3bb30c52dfc4603251c0e1d82a1788d41a8f0",
            "mixHash" : "0x0000000000000000000000000000000000000000000000000000000000000000",
            "nonce" : "0x0000000000000000",
            "number" : "0x00",
            "parentHash" : "0x0000000000000000000000000000000000000000000000000000000000000000",
            "receiptTrie" : "0x56e81f171bcc55a6ff8345e692c0f86e5b48e01b996cadc001622fb5e363b421",
            "stateRoot" : "0x18d124a3c56b6e32c3dd97a8a53a1aff3549052d0cdbd8b9b7c590f2ddbd2b45",
            "timestamp" : "0x54c98c81",
            "transactionsTrie" : "0x56e81f171bcc55a6ff8345e692c0f86e5b48e01b996cadc001622fb5e363b421",
            "uncleHash" : "0x1dcc4de8dec75d7aab85b567b6ccd41ad312451b948a7413f0a142fd40d49347"
        },
        "genesisRLP" : "0xf901fcf901f7a00000000000000000000000000000000000000000000000000000000000000000a01dcc4de8dec75d7aab85b567b6ccd41ad312451b948a7413f0a142fd40d49347948888f1f195afa192cfee860698584c030f4c9db1a018d124a3c56b6e32c3dd97a8a53a1aff3549052d0cdbd8b9b7c590f2ddbd2b45a056e81f171bcc55a6ff8345e692c0f86e5b48e01b996cadc001622fb5e363b421a056e81f171bcc55a6ff8345e692c0f86e5b48e01b996cadc001622fb5e363b421b90100000000000000000000000000000000000000000000000000000000000000000000000000000000000000000000000000000000000000000000000000000000000000000000000000000000000000000000000000000000000000000000000000000000000000000000000000000000000000000000000000000000000000000000000000000000000000000000000000000000000000000000000000000000000000000000000000000000000000000000000000000000000000000000000000000000000000000000000000000000000000000000000000000000000000000000000000000000000000000000000000000000000000000000000000000000008302000080832fefd8808454c98c8142a00000000000000000000000000000000000000000000000000000000000000000880000000000000000c0c0",
        "blocks" : [
            {
                "chainname" : "default",
                "blocknumber" : "1",
                "uncleHeaders" : [
                ],
                "blockHeader" : {
                    "bloom" : "0x00000000000000000000000000000000000000000000000000000000000000000000000000000000000000000000000000000000000000000000000000000000000000000000000000000000000000000000000000000000000000000000000000000000000000000000000000000000000000000000000000000000000000000000000000000000000000000000000000000000000000000000000000000000000000000000000000000000000000000000000000000000000000000000000000000000000000000000000000000000000000000000000000000000000000000000000000000000000000000000000000000000000000000000000000000000",
                    "coinbase" : "0x8888f1f195afa192cfee860698584c030f4c9db1",
                    "difficulty" : "0x020000",
                    "extraData" : "0x42",
                    "gasLimit" : "0x2ffbd2",
                    "gasUsed" : "0x01d932",
                    "hash" : "0x8a3d64f98caf8b1309264822d1923af512aabe100a578322e5dd0aec465a16f4",
                    "mixHash" : "0x0000000000000000000000000000000000000000000000000000000000000000",
                    "nonce" : "0x0000000000000000",
                    "number" : "0x01",
                    "parentHash" : "0xba7007e83718cc190baba6f363e3bb30c52dfc4603251c0e1d82a1788d41a8f0",
                    "receiptTrie" : "0x7523cb1003a53616f591a73795af8271cf65bc9f53b05007fd3767707878577f",
                    "stateRoot" : "0xa4de4cdc4b473d4db97360eece39f216d8bd269e0e52c6306cb88d2b881a1470",
                    "timestamp" : "0x54c99069",
                    "transactionsTrie" : "0x7af29f674f9538b253f2bb499951adc03426d1ea468da7e00f3487702dcda1ec",
                    "uncleHash" : "0x1dcc4de8dec75d7aab85b567b6ccd41ad312451b948a7413f0a142fd40d49347"
                },
                "transactions" : [
                    {
                        "data" : "0x",
                        "gasLimit" : "0x061a80",
                        "gasPrice" : "0x01",
                        "nonce" : "0x00",
                        "r" : "0x6ec80a292680500270c0c41910099f740582ed4c969ae73130afb627a0904769",
                        "s" : "0x3d240fbac3547335d89c90c047a0064640dec7e4be36d70531900ec504842a18",
                        "to" : "0xe3476106159f87477ad639e3ddcbb6b240efe459",
                        "v" : "0x1b",
                        "value" : "0x00"
                    },
                    {
                        "data" : "0x",
                        "gasLimit" : "0x061a80",
                        "gasPrice" : "0x01",
                        "nonce" : "0x01",
                        "r" : "0x6b0037dab52c023d4705c500605aad0f0978a5242a9b8c69725da59360c77278",
                        "s" : "0x4504a5706bcea8684a9b03117b883e064d9d61bb2571e08583697a743815e5a7",
                        "to" : "0xa3476106159f87477ad639e3ddcbb6b240efe459",
                        "v" : "0x1c",
                        "value" : "0x00"
                    }
                ],
                "rlp" : "0xf902c4f901faa0ba7007e83718cc190baba6f363e3bb30c52dfc4603251c0e1d82a1788d41a8f0a01dcc4de8dec75d7aab85b567b6ccd41ad312451b948a7413f0a142fd40d49347948888f1f195afa192cfee860698584c030f4c9db1a0a4de4cdc4b473d4db97360eece39f216d8bd269e0e52c6306cb88d2b881a1470a07af29f674f9538b253f2bb499951adc03426d1ea468da7e00f3487702dcda1eca07523cb1003a53616f591a73795af8271cf65bc9f53b05007fd3767707878577fb90100000000000000000000000000000000000000000000000000000000000000000000000000000000000000000000000000000000000000000000000000000000000000000000000000000000000000000000000000000000000000000000000000000000000000000000000000000000000000000000000000000000000000000000000000000000000000000000000000000000000000000000000000000000000000000000000000000000000000000000000000000000000000000000000000000000000000000000000000000000000000000000000000000000000000000000000000000000000000000000000000000000000000000000000000000000008302000001832ffbd28301d9328454c9906942a00000000000000000000000000000000000000000000000000000000000000000880000000000000000f8c4f860800183061a8094e3476106159f87477ad639e3ddcbb6b240efe45980801ba06ec80a292680500270c0c41910099f740582ed4c969ae73130afb627a0904769a03d240fbac3547335d89c90c047a0064640dec7e4be36d70531900ec504842a18f860010183061a8094a3476106159f87477ad639e3ddcbb6b240efe45980801ca06b0037dab52c023d4705c500605aad0f0978a5242a9b8c69725da59360c77278a04504a5706bcea8684a9b03117b883e064d9d61bb2571e08583697a743815e5a7c0"
            }
        ],
        "postState" : {
            "0xa94f5374fce5edbc8e2a8697c15331677e6ebf0b" : {
                "code" : "0x",
                "nonce" : "0x02",
                "balance" : "0x02540a0ace",
                "storage" : {
                }
            },
            "0x0000000000000000000000000000000000000001" : {
                "code" : "0x",
                "nonce" : "0x00",
                "balance" : "0x03e8",
                "storage" : {
                }
            },
            "0xa3476106159f87477ad639e3ddcbb6b240efe459" : {
                "code" : "0x6000600060006000600173e3476106159f87477ad639e3ddcbb6b240efe4596101f4f15073e3476106159f87477ad639e3ddcbb6b240efe4593160015500",
                "nonce" : "0x00",
                "balance" : "0x03e7",
                "storage" : {
                    "0x01" : "0x01"
                }
            },
            "0x8888f1f195afa192cfee860698584c030f4c9db1" : {
                "code" : "0x",
                "nonce" : "0x00",
                "balance" : "0x1bc16d674ec9d932",
                "storage" : {
                }
            },
            "0xe3476106159f87477ad639e3ddcbb6b240efe459" : {
                "code" : "0x",
                "nonce" : "0x00",
                "balance" : "0x01",
                "storage" : {
                }
            }
        },
        "lastblockhash" : "0x8a3d64f98caf8b1309264822d1923af512aabe100a578322e5dd0aec465a16f4"
    }
}