{
    "TransactionToItselfNotEnoughFounds_Istanbul" : {
        "_info" : {
            "comment" : "Check that out of founds transaction to itself rejected. must be a blockchain test.",
            "filling-rpc-server" : "Geth-1.9.11-unstable-a382d783-20200127",
            "filling-tool-version" : "retesteth-0.0.2+commit.ce1fdd3d.Linux.g++",
            "lllcversion" : "Version: 0.5.14-develop.2019.11.27+commit.8f259595.Linux.g++",
            "source" : "src/BlockchainTestsFiller/ValidBlocks/bcStateTests/TransactionToItselfNotEnoughFoundsFiller.json",
            "sourceHash" : "9c8741355604666631613677026e499e91b5ca6b852565279c6e27bd3d919668"
        },
        "sealEngine" : "NoProof",
        "network" : "Istanbul",
        "pre" : {
            "0x4793c6c16334857a532068c44816aba9723aa2c7" : {
                "balance" : "0x0186a0",
                "code" : "0x",
                "nonce" : "0x00",
                "storage" : {
                }
            },
            "0xa94f5374fce5edbc8e2a8697c15331677e6ebf0b" : {
                "balance" : "0x0186a0",
                "code" : "0x",
                "nonce" : "0x00",
                "storage" : {
                }
            },
            "0xbb5718723cc99337653795afcb05fd4f584f1491" : {
                "balance" : "0x0186a0",
                "code" : "0x",
                "nonce" : "0x01",
                "storage" : {
                }
            },
            "0xcd43b81d624daad79386f40c46d57aef76e59205" : {
                "balance" : "0x0186a0",
                "code" : "0x",
                "nonce" : "0x02",
                "storage" : {
                }
            },
            "0xd6d6a21fa58e5413fa7cf5ef52f8b1d14f6fecfe" : {
                "balance" : "0x0186a0",
                "code" : "0x",
                "nonce" : "0x00",
                "storage" : {
                }
            }
        },
        "genesisBlockHeader" : {
            "bloom" : "0x00000000000000000000000000000000000000000000000000000000000000000000000000000000000000000000000000000000000000000000000000000000000000000000000000000000000000000000000000000000000000000000000000000000000000000000000000000000000000000000000000000000000000000000000000000000000000000000000000000000000000000000000000000000000000000000000000000000000000000000000000000000000000000000000000000000000000000000000000000000000000000000000000000000000000000000000000000000000000000000000000000000000000000000000000000000",
            "coinbase" : "0x2adc25665018aa1fe0e6bc666dac8fc2697ff9ba",
            "difficulty" : "0x020000",
            "extraData" : "0x42",
            "gasLimit" : "0x05f5e100",
            "gasUsed" : "0x00",
            "hash" : "0x705642a5f6cc51c4808b361ff6532a1731f7e69b7479778f5e7c64601f31716a",
            "mixHash" : "0x0000000000000000000000000000000000000000000000000000000000000000",
            "nonce" : "0x0000000000000000",
            "number" : "0x00",
            "parentHash" : "0x0000000000000000000000000000000000000000000000000000000000000000",
            "receiptTrie" : "0x56e81f171bcc55a6ff8345e692c0f86e5b48e01b996cadc001622fb5e363b421",
            "stateRoot" : "0x5ff8cc0ed6ad1ecda0eba0efeca5a1dcb40225af1caccd1f9d3bbc9d2e0e09f0",
            "timestamp" : "0x03e8",
            "transactionsTrie" : "0x56e81f171bcc55a6ff8345e692c0f86e5b48e01b996cadc001622fb5e363b421",
            "uncleHash" : "0x1dcc4de8dec75d7aab85b567b6ccd41ad312451b948a7413f0a142fd40d49347"
        },
        "genesisRLP" : "0xf901fbf901f6a00000000000000000000000000000000000000000000000000000000000000000a01dcc4de8dec75d7aab85b567b6ccd41ad312451b948a7413f0a142fd40d49347942adc25665018aa1fe0e6bc666dac8fc2697ff9baa05ff8cc0ed6ad1ecda0eba0efeca5a1dcb40225af1caccd1f9d3bbc9d2e0e09f0a056e81f171bcc55a6ff8345e692c0f86e5b48e01b996cadc001622fb5e363b421a056e81f171bcc55a6ff8345e692c0f86e5b48e01b996cadc001622fb5e363b421b901000000000000000000000000000000000000000000000000000000000000000000000000000000000000000000000000000000000000000000000000000000000000000000000000000000000000000000000000000000000000000000000000000000000000000000000000000000000000000000000000000000000000000000000000000000000000000000000000000000000000000000000000000000000000000000000000000000000000000000000000000000000000000000000000000000000000000000000000000000000000000000000000000000000000000000000000000000000000000000000000000000000000000000000000000000000083020000808405f5e100808203e842a00000000000000000000000000000000000000000000000000000000000000000880000000000000000c0c0",
        "blocks" : [
            {
                "chainname" : "default",
                "blocknumber" : "1",
                "uncleHeaders" : [
                ],
                "blockHeader" : {
                    "bloom" : "0x00000000000000000000000000000000000000000000000000000000000000000000000000000000000000000000000000000000000000000000000000000000000000000000000000000000000000000000000000000000000000000000000000000000000000000000000000000000000000000000000000000000000000000000000000000000000000000000000000000000000000000000000000000000000000000000000000000000000000000000000000000000000000000000000000000000000000000000000000000000000000000000000000000000000000000000000000000000000000000000000000000000000000000000000000000000",
                    "coinbase" : "0x2adc25665018aa1fe0e6bc666dac8fc2697ff9ba",
                    "difficulty" : "0x020000",
                    "extraData" : "0x42",
                    "gasLimit" : "0x05f75e77",
                    "gasUsed" : "0xf618",
                    "hash" : "0xc967a56bf1e452fa6c7720ef93c0bfcd04842662558ca4aecf0df6f3814a9731",
                    "mixHash" : "0x0000000000000000000000000000000000000000000000000000000000000000",
                    "nonce" : "0x0000000000000000",
                    "number" : "0x01",
                    "parentHash" : "0x705642a5f6cc51c4808b361ff6532a1731f7e69b7479778f5e7c64601f31716a",
                    "receiptTrie" : "0x251f2cb798e965c5d9b11c882f37c69fd2c42b314fabe64d2b4998c76eb93ae8",
                    "stateRoot" : "0x8b7a6dcaf4f6fb9cffc95b71b5569ea7ab2773239d560068430a0c50f4064dde",
                    "timestamp" : "0x07d0",
                    "transactionsTrie" : "0x5396485f3ad23b68c32a7d32885a660ebe5ace17af748e111ccfb0e22a9712f5",
                    "uncleHash" : "0x1dcc4de8dec75d7aab85b567b6ccd41ad312451b948a7413f0a142fd40d49347"
                },
                "transactions" : [
                    {
                        "data" : "0x",
                        "gasLimit" : "0xc350",
                        "gasPrice" : "0x01",
                        "nonce" : "0x00",
                        "r" : "0x014dba7203af8f21a38972bc8df26d3e54b129c746f760cdf7505b44d0ce0504",
                        "s" : "0x678a6616d3c7ce1005c3b095b0cb84f23d9eb0ba6f01bf7fbfdf548cd82b41c3",
                        "to" : "0xa94f5374fce5edbc8e2a8697c15331677e6ebf0b",
                        "v" : "0x1b",
                        "value" : "0x4e21"
                    },
                    {
                        "data" : "0x",
                        "gasLimit" : "0xc350",
                        "gasPrice" : "0x00",
                        "nonce" : "0x01",
                        "r" : "0x8662ad5d3f03c33d6fafb1c3a10dc7662cf615aec20ba5436496af930bd206b9",
                        "s" : "0x1582104181aa02212bfdac431dabf4e1f29c70b0e0e621b8040acaa378199a37",
                        "to" : "0xbb5718723cc99337653795afcb05fd4f584f1491",
                        "v" : "0x1c",
                        "value" : "0xc351"
                    },
                    {
                        "data" : "0x",
                        "gasLimit" : "0x0249f0",
                        "gasPrice" : "0x00",
                        "nonce" : "0x02",
                        "r" : "0xc8edfa3769762ac32c5ce884ecddb0475eae8947cfacf0b41f07f2e7473ef3dd",
                        "s" : "0x388e4331de0aff1db589bf1d782d11af144bc0caecf2103ee3d926e6d4b2eed4",
                        "to" : "0xcd43b81d624daad79386f40c46d57aef76e59205",
                        "v" : "0x1c",
                        "value" : "0xc351"
                    }
                ],
                "rlp" : "0xf90329f901f8a0705642a5f6cc51c4808b361ff6532a1731f7e69b7479778f5e7c64601f31716aa01dcc4de8dec75d7aab85b567b6ccd41ad312451b948a7413f0a142fd40d49347942adc25665018aa1fe0e6bc666dac8fc2697ff9baa08b7a6dcaf4f6fb9cffc95b71b5569ea7ab2773239d560068430a0c50f4064ddea05396485f3ad23b68c32a7d32885a660ebe5ace17af748e111ccfb0e22a9712f5a0251f2cb798e965c5d9b11c882f37c69fd2c42b314fabe64d2b4998c76eb93ae8b901000000000000000000000000000000000000000000000000000000000000000000000000000000000000000000000000000000000000000000000000000000000000000000000000000000000000000000000000000000000000000000000000000000000000000000000000000000000000000000000000000000000000000000000000000000000000000000000000000000000000000000000000000000000000000000000000000000000000000000000000000000000000000000000000000000000000000000000000000000000000000000000000000000000000000000000000000000000000000000000000000000000000000000000000000000000083020000018405f75e7782f6188207d042a00000000000000000000000000000000000000000000000000000000000000000880000000000000000f9012af861800182c35094a94f5374fce5edbc8e2a8697c15331677e6ebf0b824e21801ba0014dba7203af8f21a38972bc8df26d3e54b129c746f760cdf7505b44d0ce0504a0678a6616d3c7ce1005c3b095b0cb84f23d9eb0ba6f01bf7fbfdf548cd82b41c3f861018082c35094bb5718723cc99337653795afcb05fd4f584f149182c351801ca08662ad5d3f03c33d6fafb1c3a10dc7662cf615aec20ba5436496af930bd206b9a01582104181aa02212bfdac431dabf4e1f29c70b0e0e621b8040acaa378199a37f8620280830249f094cd43b81d624daad79386f40c46d57aef76e5920582c351801ca0c8edfa3769762ac32c5ce884ecddb0475eae8947cfacf0b41f07f2e7473ef3dda0388e4331de0aff1db589bf1d782d11af144bc0caecf2103ee3d926e6d4b2eed4c0"
            }
        ],
        "postState" : {
            "0xa94f5374fce5edbc8e2a8697c15331677e6ebf0b" : {
                "code" : "0x",
                "nonce" : "0x01",
                "balance" : "0x013498",
                "storage" : {
                }
            },
            "0xd6d6a21fa58e5413fa7cf5ef52f8b1d14f6fecfe" : {
                "code" : "0x",
                "nonce" : "0x00",
                "balance" : "0x0186a0",
                "storage" : {
                }
            },
            "0x2adc25665018aa1fe0e6bc666dac8fc2697ff9ba" : {
                "code" : "0x",
                "nonce" : "0x00",
                "balance" : "0x1bc16d674ec85208",
                "storage" : {
                }
            },
            "0xcd43b81d624daad79386f40c46d57aef76e59205" : {
                "code" : "0x",
                "nonce" : "0x03",
                "balance" : "0x0186a0",
                "storage" : {
                }
            },
            "0x4793c6c16334857a532068c44816aba9723aa2c7" : {
                "code" : "0x",
                "nonce" : "0x00",
                "balance" : "0x0186a0",
                "storage" : {
                }
            },
            "0xbb5718723cc99337653795afcb05fd4f584f1491" : {
                "code" : "0x",
                "nonce" : "0x02",
                "balance" : "0x0186a0",
                "storage" : {
                }
            }
        },
        "lastblockhash" : "0xc967a56bf1e452fa6c7720ef93c0bfcd04842662558ca4aecf0df6f3814a9731"
    }
}