{
    "UserTransactionZeroCostWithData_Istanbul" : {
        "_info" : {
            "comment" : "",
            "filling-rpc-server" : "Geth-1.9.11-unstable-a382d783-20200127",
            "filling-tool-version" : "retesteth-0.0.2+commit.ce1fdd3d.Linux.g++",
            "lllcversion" : "Version: 0.5.14-develop.2019.11.27+commit.8f259595.Linux.g++",
            "source" : "src/BlockchainTestsFiller/ValidBlocks/bcStateTests/UserTransactionZeroCostWithDataFiller.json",
            "sourceHash" : "7910bb6abd79565713b67b6b91c4e1c2cb7c5a362428f80ca7b3fdffc0b0317f"
        },
        "sealEngine" : "NoProof",
        "network" : "Istanbul",
        "pre" : {
            "0xCD43B81D624Daad79386f40C46D57Aef76e59205" : {
                "balance" : "0x020788",
                "code" : "0x",
                "nonce" : "0x00",
                "storage" : {
                }
            },
            "0xa94f5374fce5edbc8e2a8697c15331677e6ebf0b" : {
                "balance" : "0x020788",
                "code" : "0x",
                "nonce" : "0x00",
                "storage" : {
                }
            },
            "0xbD44Cf86A0d3c0401CE4aA7443599Fa8da9b2243" : {
                "balance" : "0x020788",
                "code" : "0x",
                "nonce" : "0x00",
                "storage" : {
                }
            }
        },
        "genesisBlockHeader" : {
            "bloom" : "0x00000000000000000000000000000000000000000000000000000000000000000000000000000000000000000000000000000000000000000000000000000000000000000000000000000000000000000000000000000000000000000000000000000000000000000000000000000000000000000000000000000000000000000000000000000000000000000000000000000000000000000000000000000000000000000000000000000000000000000000000000000000000000000000000000000000000000000000000000000000000000000000000000000000000000000000000000000000000000000000000000000000000000000000000000000000",
            "coinbase" : "0x2adc25665018aa1fe0e6bc666dac8fc2697ff9ba",
            "difficulty" : "0x020000",
            "extraData" : "0x42",
            "gasLimit" : "0x989680",
            "gasUsed" : "0x00",
            "hash" : "0x4722c00e901215db8fc6515ef85f70e7077dc8ba33ea092393fb393bf2e4bce4",
            "mixHash" : "0x0000000000000000000000000000000000000000000000000000000000000000",
            "nonce" : "0x0000000000000000",
            "number" : "0x00",
            "parentHash" : "0x0000000000000000000000000000000000000000000000000000000000000000",
            "receiptTrie" : "0x56e81f171bcc55a6ff8345e692c0f86e5b48e01b996cadc001622fb5e363b421",
            "stateRoot" : "0x445ef433c1ee3128d013e4d89e3a610e5a98f77c43b268ec0f296e3234d0d8cb",
            "timestamp" : "0x03e8",
            "transactionsTrie" : "0x56e81f171bcc55a6ff8345e692c0f86e5b48e01b996cadc001622fb5e363b421",
            "uncleHash" : "0x1dcc4de8dec75d7aab85b567b6ccd41ad312451b948a7413f0a142fd40d49347"
        },
        "genesisRLP" : "0xf901faf901f5a00000000000000000000000000000000000000000000000000000000000000000a01dcc4de8dec75d7aab85b567b6ccd41ad312451b948a7413f0a142fd40d49347942adc25665018aa1fe0e6bc666dac8fc2697ff9baa0445ef433c1ee3128d013e4d89e3a610e5a98f77c43b268ec0f296e3234d0d8cba056e81f171bcc55a6ff8345e692c0f86e5b48e01b996cadc001622fb5e363b421a056e81f171bcc55a6ff8345e692c0f86e5b48e01b996cadc001622fb5e363b421b9010000000000000000000000000000000000000000000000000000000000000000000000000000000000000000000000000000000000000000000000000000000000000000000000000000000000000000000000000000000000000000000000000000000000000000000000000000000000000000000000000000000000000000000000000000000000000000000000000000000000000000000000000000000000000000000000000000000000000000000000000000000000000000000000000000000000000000000000000000000000000000000000000000000000000000000000000000000000000000000000000000000000000000000000000000000000830200008083989680808203e842a00000000000000000000000000000000000000000000000000000000000000000880000000000000000c0c0",
        "blocks" : [
            {
                "chainname" : "default",
                "blocknumber" : "1",
                "uncleHeaders" : [
                ],
                "blockHeader" : {
                    "bloom" : "0x00000000000000000000000000000000000000000000000000000000000000000000000000000000000000000000000000000000000000000000000000000000000000000000000000000000000000000000000000000000000000000000000000000000000000000000000000000000000000000000000000000000000000000000000000000000000000000000000000000000000000000000000000000000000000000000000000000000000000000000000000000000000000000000000000000000000000000000000000000000000000000000000000000000000000000000000000000000000000000000000000000000000000000000000000000000",
                    "coinbase" : "0x2adc25665018aa1fe0e6bc666dac8fc2697ff9ba",
                    "difficulty" : "0x020000",
                    "extraData" : "0x42",
                    "gasLimit" : "0x98bca4",
                    "gasUsed" : "0xf798",
                    "hash" : "0x6d809bb65d6d9e67342e29184098957b84e1928221bc062e2722d52e4c75b861",
                    "mixHash" : "0x0000000000000000000000000000000000000000000000000000000000000000",
                    "nonce" : "0x0000000000000000",
                    "number" : "0x01",
                    "parentHash" : "0x4722c00e901215db8fc6515ef85f70e7077dc8ba33ea092393fb393bf2e4bce4",
                    "receiptTrie" : "0xa24f5f5b52a4aaa581f3cb1ae9fb73b688452879e638fbe0bf91c5e8604ccd2f",
                    "stateRoot" : "0x6fa3e96330fb700cb129c094a28604d9287ebacadc15604414d248ed762b2fa9",
                    "timestamp" : "0x07d0",
                    "transactionsTrie" : "0x955109b68d7580d1ce904896b44670a2ebabd378e02aa0193536af23439d955b",
                    "uncleHash" : "0x1dcc4de8dec75d7aab85b567b6ccd41ad312451b948a7413f0a142fd40d49347"
                },
                "transactions" : [
                    {
                        "data" : "0x3240349548983454",
                        "gasLimit" : "0x020404",
                        "gasPrice" : "0x00",
                        "nonce" : "0x00",
                        "r" : "0x15a2ad6eb44d209f5bba151c2af98d0899919834ded91a98a2b1b87df432f77f",
                        "s" : "0x1a6ada020acb0d796aad69413d52fd33405160a03064081d2bd4654b7ce36f1c",
                        "to" : "0xb94f5374fce5edbc8e2a8697c15331677e6ebf0b",
                        "v" : "0x1c",
                        "value" : "0x0384"
                    },
                    {
                        "data" : "0x3240349548983454",
                        "gasLimit" : "0xea60",
                        "gasPrice" : "0x00",
                        "nonce" : "0x00",
                        "r" : "0xbf4f2214e98030e4bcc089da7f9bdcf61d1bb39476d9c164c81cb41e31ffdcd1",
                        "s" : "0x7e981dab2df1b58616551c3a9252149bb0422bd6a49cab1b0c0bd8f27d857080",
                        "to" : "0xb94f5374fce5edbc8e2a8697c15331677e6ebf0b",
                        "v" : "0x1b",
                        "value" : "0x0384"
                    },
                    {
                        "data" : "0x3240349548983454",
                        "gasLimit" : "0x7f58",
                        "gasPrice" : "0x00",
                        "nonce" : "0x00",
                        "r" : "0xd8c0f168276fbface0bf8e84d3e24b640df4b374f6d62ec75bf11a15fe922b30",
                        "s" : "0x13cf00b9b751ef4461a7ba3f84b2c5aff2b1482b34383270731dbea4a6a43831",
                        "to" : "0xb94f5374fce5edbc8e2a8697c15331677e6ebf0b",
                        "v" : "0x1c",
                        "value" : "0x0384"
                    }
                ],
                "rlp" : "0xf90340f901f7a04722c00e901215db8fc6515ef85f70e7077dc8ba33ea092393fb393bf2e4bce4a01dcc4de8dec75d7aab85b567b6ccd41ad312451b948a7413f0a142fd40d49347942adc25665018aa1fe0e6bc666dac8fc2697ff9baa06fa3e96330fb700cb129c094a28604d9287ebacadc15604414d248ed762b2fa9a0955109b68d7580d1ce904896b44670a2ebabd378e02aa0193536af23439d955ba0a24f5f5b52a4aaa581f3cb1ae9fb73b688452879e638fbe0bf91c5e8604ccd2fb901000000000000000000000000000000000000000000000000000000000000000000000000000000000000000000000000000000000000000000000000000000000000000000000000000000000000000000000000000000000000000000000000000000000000000000000000000000000000000000000000000000000000000000000000000000000000000000000000000000000000000000000000000000000000000000000000000000000000000000000000000000000000000000000000000000000000000000000000000000000000000000000000000000000000000000000000000000000000000000000000000000000000000000000000000000000083020000018398bca482f7988207d042a00000000000000000000000000000000000000000000000000000000000000000880000000000000000f90142f86a80808302040494b94f5374fce5edbc8e2a8697c15331677e6ebf0b8203848832403495489834541ca015a2ad6eb44d209f5bba151c2af98d0899919834ded91a98a2b1b87df432f77fa01a6ada020acb0d796aad69413d52fd33405160a03064081d2bd4654b7ce36f1cf869808082ea6094b94f5374fce5edbc8e2a8697c15331677e6ebf0b8203848832403495489834541ba0bf4f2214e98030e4bcc089da7f9bdcf61d1bb39476d9c164c81cb41e31ffdcd1a07e981dab2df1b58616551c3a9252149bb0422bd6a49cab1b0c0bd8f27d857080f8698080827f5894b94f5374fce5edbc8e2a8697c15331677e6ebf0b8203848832403495489834541ca0d8c0f168276fbface0bf8e84d3e24b640df4b374f6d62ec75bf11a15fe922b30a013cf00b9b751ef4461a7ba3f84b2c5aff2b1482b34383270731dbea4a6a43831c0"
            }
        ],
        "postState" : {
            "0xa94f5374fce5edbc8e2a8697c15331677e6ebf0b" : {
                "code" : "0x",
                "nonce" : "0x01",
                "balance" : "0x020404",
                "storage" : {
                }
            },
            "0xbd44cf86a0d3c0401ce4aa7443599fa8da9b2243" : {
                "code" : "0x",
                "nonce" : "0x01",
                "balance" : "0x020404",
                "storage" : {
                }
            },
            "0x2adc25665018aa1fe0e6bc666dac8fc2697ff9ba" : {
                "code" : "0x",
                "nonce" : "0x00",
                "balance" : "0x1bc16d674ec80000",
                "storage" : {
                }
            },
            "0xcd43b81d624daad79386f40c46d57aef76e59205" : {
                "code" : "0x",
                "nonce" : "0x01",
                "balance" : "0x020404",
                "storage" : {
                }
            },
            "0xb94f5374fce5edbc8e2a8697c15331677e6ebf0b" : {
                "code" : "0x",
                "nonce" : "0x00",
                "balance" : "0x0a8c",
                "storage" : {
                }
            }
        },
        "lastblockhash" : "0x6d809bb65d6d9e67342e29184098957b84e1928221bc062e2722d52e4c75b861"
    }
}