{
    "ZeroValue_TransactionCALLwithData_ToEmpty_OOGRevert_Istanbul" : {
        "_info" : {
            "comment" : "intrinsic oog with data",
            "filling-rpc-server" : "Geth-1.9.11-unstable-a382d783-20200127",
            "filling-tool-version" : "retesteth-0.0.2+commit.ce1fdd3d.Linux.g++",
            "lllcversion" : "Version: 0.5.14-develop.2019.11.27+commit.8f259595.Linux.g++",
            "source" : "src/BlockchainTestsFiller/ValidBlocks/bcStateTests/ZeroValue_TransactionCALLwithData_ToEmpty_OOGRevertFiller.json",
            "sourceHash" : "762816a46dd45335f995e1dcff9aeded716b14e06d920374c910a63871cc8fc7"
        },
        "sealEngine" : "NoProof",
        "network" : "Istanbul",
        "pre" : {
            "0xa94f5374fce5edbc8e2a8697c15331677e6ebf0b" : {
                "balance" : "0xe8d4a51000",
                "code" : "0x",
                "nonce" : "0x00",
                "storage" : {
                }
            },
            "0xb94f5374fce5edbc8e2a8697c15331677e6ebf0b" : {
                "balance" : "0x00",
                "code" : "0x",
                "nonce" : "0x00",
                "storage" : {
                }
            }
        },
        "genesisBlockHeader" : {
            "bloom" : "0x00000000000000000000000000000000000000000000000000000000000000000000000000000000000000000000000000000000000000000000000000000000000000000000000000000000000000000000000000000000000000000000000000000000000000000000000000000000000000000000000000000000000000000000000000000000000000000000000000000000000000000000000000000000000000000000000000000000000000000000000000000000000000000000000000000000000000000000000000000000000000000000000000000000000000000000000000000000000000000000000000000000000000000000000000000000",
            "coinbase" : "0x2adc25665018aa1fe0e6bc666dac8fc2697ff9ba",
            "difficulty" : "0x020000",
            "extraData" : "0x42",
            "gasLimit" : "0x989680",
            "gasUsed" : "0x00",
            "hash" : "0x0f239a780ff30676c2f3b185a17b80a14de3efe7667051ff78e8f4b18f791c3f",
            "mixHash" : "0x0000000000000000000000000000000000000000000000000000000000000000",
            "nonce" : "0x0000000000000000",
            "number" : "0x00",
            "parentHash" : "0x0000000000000000000000000000000000000000000000000000000000000000",
            "receiptTrie" : "0x56e81f171bcc55a6ff8345e692c0f86e5b48e01b996cadc001622fb5e363b421",
            "stateRoot" : "0x137accfabce83c4f192c91b88d6e5e5e6e58afa387137b16170fafd5114d8d45",
            "timestamp" : "0x03e8",
            "transactionsTrie" : "0x56e81f171bcc55a6ff8345e692c0f86e5b48e01b996cadc001622fb5e363b421",
            "uncleHash" : "0x1dcc4de8dec75d7aab85b567b6ccd41ad312451b948a7413f0a142fd40d49347"
        },
        "genesisRLP" : "0xf901faf901f5a00000000000000000000000000000000000000000000000000000000000000000a01dcc4de8dec75d7aab85b567b6ccd41ad312451b948a7413f0a142fd40d49347942adc25665018aa1fe0e6bc666dac8fc2697ff9baa0137accfabce83c4f192c91b88d6e5e5e6e58afa387137b16170fafd5114d8d45a056e81f171bcc55a6ff8345e692c0f86e5b48e01b996cadc001622fb5e363b421a056e81f171bcc55a6ff8345e692c0f86e5b48e01b996cadc001622fb5e363b421b9010000000000000000000000000000000000000000000000000000000000000000000000000000000000000000000000000000000000000000000000000000000000000000000000000000000000000000000000000000000000000000000000000000000000000000000000000000000000000000000000000000000000000000000000000000000000000000000000000000000000000000000000000000000000000000000000000000000000000000000000000000000000000000000000000000000000000000000000000000000000000000000000000000000000000000000000000000000000000000000000000000000000000000000000000000000000830200008083989680808203e842a00000000000000000000000000000000000000000000000000000000000000000880000000000000000c0c0",
        "blocks" : [
            {
                "chainname" : "default",
                "blocknumber" : "1",
                "uncleHeaders" : [
                ],
                "blockHeader" : {
                    "bloom" : "0x00000000000000000000000000000000000000000000000000000000000000000000000000000000000000000000000000000000000000000000000000000000000000000000000000000000000000000000000000000000000000000000000000000000000000000000000000000000000000000000000000000000000000000000000000000000000000000000000000000000000000000000000000000000000000000000000000000000000000000000000000000000000000000000000000000000000000000000000000000000000000000000000000000000000000000000000000000000000000000000000000000000000000000000000000000000",
                    "coinbase" : "0x2adc25665018aa1fe0e6bc666dac8fc2697ff9ba",
                    "difficulty" : "0x020000",
                    "extraData" : "0x42",
                    "gasLimit" : "0x98bca4",
                    "gasUsed" : "0x8e08",
                    "hash" : "0x45e6a91dc7af8d240379ab21c69ad80e0ebeb5e487703094a3bc387f98e5c22e",
                    "mixHash" : "0x0000000000000000000000000000000000000000000000000000000000000000",
                    "nonce" : "0x0000000000000000",
                    "number" : "0x01",
                    "parentHash" : "0x0f239a780ff30676c2f3b185a17b80a14de3efe7667051ff78e8f4b18f791c3f",
                    "receiptTrie" : "0xdce32bd6385c19fa3206e83493eb817e25c2d3360aa710fb88f6af6470cda837",
                    "stateRoot" : "0x0968e111aff257506c3e3ab76b6e86d4ebc26767242a1e58391eb3ac100dc060",
                    "timestamp" : "0x07d0",
                    "transactionsTrie" : "0xf5e31e9a404cb06dbd4d917ffb16bf4f3984cf90de41afc286619028b96c2e23",
                    "uncleHash" : "0x1dcc4de8dec75d7aab85b567b6ccd41ad312451b948a7413f0a142fd40d49347"
                },
                "transactions" : [
                    {
                        "data" : "0x45a915e4d060149eb4365960e6a7a45f334393093061116b197e3240065ff2d845a915e4d060149eb4365960e6a7a45f334393093061116b197e3240065ff2d845a915e4d060149eb4365960e6a7a45f334393093061116b197e3240065ff2d845a915e4d060149eb4365960e6a7a45f334393093061116b197e3240065ff2d845a915e4d060149eb4365960e6a7a45f334393093061116b197e3240065ff2d845a915e4d060149eb4365960e6a7a45f334393093061116b197e3240065ff2d845a915e4d060149eb4365960e6a7a45f334393093061116b197e3240065ff2d845a915e4d060149eb4365960e6a7a45f334393093061116b197e3240065ff2d845a915e4d060149eb4365960e6a7a45f334393093061116b197e3240065ff2d845a915e4d060149eb4365960e6a7a45f334393093061116b197e3240065ff2d845a915e4d060149eb4365960e6a7a45f334393093061116b197e3240065ff2d845a915e4d060149eb4365960e6a7a45f334393093061116b197e3240065ff2d845a915e4d060149eb4365960e6a7a45f334393093061116b197e3240065ff2d845a915e4d060149eb4365960e6a7a45f334393093061116b197e3240065ff2d845a915e4d060149eb4365960e6a7a45f334393093061116b197e3240065ff2d845a915e4d060149eb4365960e6a7a45f334393093061116b197e3240065ff2d845a915e4d060149eb4365960e6a7a45f334393093061116b197e3240065ff2d845a915e4d060149eb4365960e6a7a45f334393093061116b197e3240065ff2d845a915e4d060149eb4365960e6a7a45f334393093061116b197e3240065ff2d845a915e4d060149eb4365960e6a7a45f334393093061116b197e3240065ff2d845a915e4d060149eb4365960e6a7a45f334393093061116b197e3240065ff2d845a915e4d060149eb4365960e6a7a45f334393093061116b197e3240065ff2d845a915e4d060149eb4365960e6a7a45f334393093061116b197e3240065ff2d845a915e4d060149eb4365960e6a7a45f334393093061116b197e3240065ff2d845a915e4d060149eb4365960e6a7a45f334393093061116b197e3240065ff2d845a915e4d060149eb4365960e6a7a45f334393093061116b197e3240065ff2d845a915e4d060149eb4365960e6a7a45f334393093061116b197e3240065ff2d845a915e4d060149eb4365960e6a7a45f334393093061116b197e3240065ff2d845a915e4d060149eb4365960e6a7a45f334393093061116b197e3240065ff2d845a915e4d060149eb4365960e6a7a45f334393093061116b197e3240065ff2d8",
                        "gasLimit" : "0x013880",
                        "gasPrice" : "0x01",
                        "nonce" : "0x00",
                        "r" : "0x852f746a346f4d3df7ee5420b89007d5ed413596440f99b14e7c580b8ac2e1d5",
                        "s" : "0x510ae9642cd6a6ef60e9fef5508d491afc02275cb6033ba35b687714d7babeb7",
                        "to" : "0xb94f5374fce5edbc8e2a8697c15331677e6ebf0b",
                        "v" : "0x1b",
                        "value" : "0x00"
                    }
                ],
                "rlp" : "0xf90623f901f7a00f239a780ff30676c2f3b185a17b80a14de3efe7667051ff78e8f4b18f791c3fa01dcc4de8dec75d7aab85b567b6ccd41ad312451b948a7413f0a142fd40d49347942adc25665018aa1fe0e6bc666dac8fc2697ff9baa00968e111aff257506c3e3ab76b6e86d4ebc26767242a1e58391eb3ac100dc060a0f5e31e9a404cb06dbd4d917ffb16bf4f3984cf90de41afc286619028b96c2e23a0dce32bd6385c19fa3206e83493eb817e25c2d3360aa710fb88f6af6470cda837b901000000000000000000000000000000000000000000000000000000000000000000000000000000000000000000000000000000000000000000000000000000000000000000000000000000000000000000000000000000000000000000000000000000000000000000000000000000000000000000000000000000000000000000000000000000000000000000000000000000000000000000000000000000000000000000000000000000000000000000000000000000000000000000000000000000000000000000000000000000000000000000000000000000000000000000000000000000000000000000000000000000000000000000000000000000000083020000018398bca4828e088207d042a00000000000000000000000000000000000000000000000000000000000000000880000000000000000f90425f9042280018301388094b94f5374fce5edbc8e2a8697c15331677e6ebf0b80b903c045a915e4d060149eb4365960e6a7a45f334393093061116b197e3240065ff2d845a915e4d060149eb4365960e6a7a45f334393093061116b197e3240065ff2d845a915e4d060149eb4365960e6a7a45f334393093061116b197e3240065ff2d845a915e4d060149eb4365960e6a7a45f334393093061116b197e3240065ff2d845a915e4d060149eb4365960e6a7a45f334393093061116b197e3240065ff2d845a915e4d060149eb4365960e6a7a45f334393093061116b197e3240065ff2d845a915e4d060149eb4365960e6a7a45f334393093061116b197e3240065ff2d845a915e4d060149eb4365960e6a7a45f334393093061116b197e3240065ff2d845a915e4d060149eb4365960e6a7a45f334393093061116b197e3240065ff2d845a915e4d060149eb4365960e6a7a45f334393093061116b197e3240065ff2d845a915e4d060149eb4365960e6a7a45f334393093061116b197e3240065ff2d845a915e4d060149eb4365960e6a7a45f334393093061116b197e3240065ff2d845a915e4d060149eb4365960e6a7a45f334393093061116b197e3240065ff2d845a915e4d060149eb4365960e6a7a45f334393093061116b197e3240065ff2d845a915e4d060149eb4365960e6a7a45f334393093061116b197e3240065ff2d845a915e4d060149eb4365960e6a7a45f334393093061116b197e3240065ff2d845a915e4d060149eb4365960e6a7a45f334393093061116b197e3240065ff2d845a915e4d060149eb4365960e6a7a45f334393093061116b197e3240065ff2d845a915e4d060149eb4365960e6a7a45f334393093061116b197e3240065ff2d845a915e4d060149eb4365960e6a7a45f334393093061116b197e3240065ff2d845a915e4d060149eb4365960e6a7a45f334393093061116b197e3240065ff2d845a915e4d060149eb4365960e6a7a45f334393093061116b197e3240065ff2d845a915e4d060149eb4365960e6a7a45f334393093061116b197e3240065ff2d845a915e4d060149eb4365960e6a7a45f334393093061116b197e3240065ff2d845a915e4d060149eb4365960e6a7a45f334393093061116b197e3240065ff2d845a915e4d060149eb4365960e6a7a45f334393093061116b197e3240065ff2d845a915e4d060149eb4365960e6a7a45f334393093061116b197e3240065ff2d845a915e4d060149eb4365960e6a7a45f334393093061116b197e3240065ff2d845a915e4d060149eb4365960e6a7a45f334393093061116b197e3240065ff2d845a915e4d060149eb4365960e6a7a45f334393093061116b197e3240065ff2d81ba0852f746a346f4d3df7ee5420b89007d5ed413596440f99b14e7c580b8ac2e1d5a0510ae9642cd6a6ef60e9fef5508d491afc02275cb6033ba35b687714d7babeb7c0"
            }
        ],
        "postState" : {
            "0xa94f5374fce5edbc8e2a8697c15331677e6ebf0b" : {
                "code" : "0x",
                "nonce" : "0x01",
                "balance" : "0xe8d4a481f8",
                "storage" : {
                }
            },
            "0x2adc25665018aa1fe0e6bc666dac8fc2697ff9ba" : {
                "code" : "0x",
                "nonce" : "0x00",
                "balance" : "0x1bc16d674ec88e08",
                "storage" : {
                }
            }
        },
        "lastblockhash" : "0x45e6a91dc7af8d240379ab21c69ad80e0ebeb5e487703094a3bc387f98e5c22e"
    }
}