{
    "ZeroValue_TransactionCALLwithData_ToNonZeroBalance_OOGRevert_Istanbul" : {
        "_info" : {
            "comment" : "intrinsic OOG with data",
            "filling-rpc-server" : "Geth-1.9.11-unstable-a382d783-20200127",
            "filling-tool-version" : "retesteth-0.0.2+commit.ce1fdd3d.Linux.g++",
            "lllcversion" : "Version: 0.5.14-develop.2019.11.27+commit.8f259595.Linux.g++",
            "source" : "src/BlockchainTestsFiller/ValidBlocks/bcStateTests/ZeroValue_TransactionCALLwithData_ToNonZeroBalance_OOGRevertFiller.json",
            "sourceHash" : "73f58565225c0176884ec38b9a2aa1eadd7710b0a816abc4a1c8c419a5d752ff"
        },
        "sealEngine" : "NoProof",
        "network" : "Istanbul",
        "pre" : {
            "0xa94f5374fce5edbc8e2a8697c15331677e6ebf0b" : {
                "balance" : "0xe8d4a51000",
                "code" : "0x",
                "nonce" : "0x00",
                "storage" : {
                }
            },
            "0xb94f5374fce5edbc8e2a8697c15331677e6ebf0b" : {
                "balance" : "0x64",
                "code" : "0x",
                "nonce" : "0x00",
                "storage" : {
                }
            }
        },
        "genesisBlockHeader" : {
            "bloom" : "0x00000000000000000000000000000000000000000000000000000000000000000000000000000000000000000000000000000000000000000000000000000000000000000000000000000000000000000000000000000000000000000000000000000000000000000000000000000000000000000000000000000000000000000000000000000000000000000000000000000000000000000000000000000000000000000000000000000000000000000000000000000000000000000000000000000000000000000000000000000000000000000000000000000000000000000000000000000000000000000000000000000000000000000000000000000000",
            "coinbase" : "0x2adc25665018aa1fe0e6bc666dac8fc2697ff9ba",
            "difficulty" : "0x020000",
            "extraData" : "0x42",
            "gasLimit" : "0x989680",
            "gasUsed" : "0x00",
            "hash" : "0x861ebcbe3a92493f17173dd19032cf5d40ac0de2c714f2b66824ccf4b511c3e5",
            "mixHash" : "0x0000000000000000000000000000000000000000000000000000000000000000",
            "nonce" : "0x0000000000000000",
            "number" : "0x00",
            "parentHash" : "0x0000000000000000000000000000000000000000000000000000000000000000",
            "receiptTrie" : "0x56e81f171bcc55a6ff8345e692c0f86e5b48e01b996cadc001622fb5e363b421",
            "stateRoot" : "0x4575ff9537549d145650ffcb340dfba8c6fe2b4b0a45169a126195ba47f15e29",
            "timestamp" : "0x03e8",
            "transactionsTrie" : "0x56e81f171bcc55a6ff8345e692c0f86e5b48e01b996cadc001622fb5e363b421",
            "uncleHash" : "0x1dcc4de8dec75d7aab85b567b6ccd41ad312451b948a7413f0a142fd40d49347"
        },
        "genesisRLP" : "0xf901faf901f5a00000000000000000000000000000000000000000000000000000000000000000a01dcc4de8dec75d7aab85b567b6ccd41ad312451b948a7413f0a142fd40d49347942adc25665018aa1fe0e6bc666dac8fc2697ff9baa04575ff9537549d145650ffcb340dfba8c6fe2b4b0a45169a126195ba47f15e29a056e81f171bcc55a6ff8345e692c0f86e5b48e01b996cadc001622fb5e363b421a056e81f171bcc55a6ff8345e692c0f86e5b48e01b996cadc001622fb5e363b421b9010000000000000000000000000000000000000000000000000000000000000000000000000000000000000000000000000000000000000000000000000000000000000000000000000000000000000000000000000000000000000000000000000000000000000000000000000000000000000000000000000000000000000000000000000000000000000000000000000000000000000000000000000000000000000000000000000000000000000000000000000000000000000000000000000000000000000000000000000000000000000000000000000000000000000000000000000000000000000000000000000000000000000000000000000000000000830200008083989680808203e842a00000000000000000000000000000000000000000000000000000000000000000880000000000000000c0c0",
        "blocks" : [
            {
                "chainname" : "default",
                "blocknumber" : "1",
                "uncleHeaders" : [
                ],
                "blockHeader" : {
                    "bloom" : "0x00000000000000000000000000000000000000000000000000000000000000000000000000000000000000000000000000000000000000000000000000000000000000000000000000000000000000000000000000000000000000000000000000000000000000000000000000000000000000000000000000000000000000000000000000000000000000000000000000000000000000000000000000000000000000000000000000000000000000000000000000000000000000000000000000000000000000000000000000000000000000000000000000000000000000000000000000000000000000000000000000000000000000000000000000000000",
                    "coinbase" : "0x2adc25665018aa1fe0e6bc666dac8fc2697ff9ba",
                    "difficulty" : "0x020000",
                    "extraData" : "0x42",
                    "gasLimit" : "0x98bca4",
                    "gasUsed" : "0x8a08",
                    "hash" : "0xa109334cec94043eeede46190a390e50f8420854671e1e507501844e8080eea4",
                    "mixHash" : "0x0000000000000000000000000000000000000000000000000000000000000000",
                    "nonce" : "0x0000000000000000",
                    "number" : "0x01",
                    "parentHash" : "0x861ebcbe3a92493f17173dd19032cf5d40ac0de2c714f2b66824ccf4b511c3e5",
                    "receiptTrie" : "0xca7bae7bc4d20e5c09c5690b82bc82e21095de4c47a186679a85d48a94f5aa09",
                    "stateRoot" : "0x5e3355e9576d172e0840ba895bb922039b66af14deda8bc7a09ed23fc24343a2",
                    "timestamp" : "0x07d0",
                    "transactionsTrie" : "0xdefad1d5e4afb6a00676ae8d301def3c91c96e4c46696ad1af734d8b7f723dcf",
                    "uncleHash" : "0x1dcc4de8dec75d7aab85b567b6ccd41ad312451b948a7413f0a142fd40d49347"
                },
                "transactions" : [
                    {
                        "data" : "0x45a915e4d060149eb4365960e6a7a45f334393093061116b197e3240065ff2d845a915e4d060149eb4365960e6a7a45f334393093061116b197e3240065ff2d845a915e4d060149eb4365960e6a7a45f334393093061116b197e3240065ff2d845a915e4d060149eb4365960e6a7a45f334393093061116b197e3240065ff2d845a915e4d060149eb4365960e6a7a45f334393093061116b197e3240065ff2d845a915e4d060149eb4365960e6a7a45f334393093061116b197e3240065ff2d845a915e4d060149eb4365960e6a7a45f334393093061116b197e3240065ff2d845a915e4d060149eb4365960e6a7a45f334393093061116b197e3240065ff2d845a915e4d060149eb4365960e6a7a45f334393093061116b197e3240065ff2d845a915e4d060149eb4365960e6a7a45f334393093061116b197e3240065ff2d845a915e4d060149eb4365960e6a7a45f334393093061116b197e3240065ff2d845a915e4d060149eb4365960e6a7a45f334393093061116b197e3240065ff2d845a915e4d060149eb4365960e6a7a45f334393093061116b197e3240065ff2d845a915e4d060149eb4365960e6a7a45f334393093061116b197e3240065ff2d845a915e4d060149eb4365960e6a7a45f334393093061116b197e3240065ff2d845a915e4d060149eb4365960e6a7a45f334393093061116b197e3240065ff2d845a915e4d060149eb4365960e6a7a45f334393093061116b197e3240065ff2d845a915e4d060149eb4365960e6a7a45f334393093061116b197e3240065ff2d845a915e4d060149eb4365960e6a7a45f334393093061116b197e3240065ff2d845a915e4d060149eb4365960e6a7a45f334393093061116b197e3240065ff2d845a915e4d060149eb4365960e6a7a45f334393093061116b197e3240065ff2d845a915e4d060149eb4365960e6a7a45f334393093061116b197e3240065ff2d845a915e4d060149eb4365960e6a7a45f334393093061116b197e3240065ff2d845a915e4d060149eb4365960e6a7a45f334393093061116b197e3240065ff2d845a915e4d060149eb4365960e6a7a45f334393093061116b197e3240065ff2d845a915e4d060149eb4365960e6a7a45f334393093061116b197e3240065ff2d845a915e4d060149eb4365960e6a7a45f334393093061116b197e3240065ff2d845a915e4d060149eb4365960e6a7a45f334393093061116b197e3240065ff2d8",
                        "gasLimit" : "0x013880",
                        "gasPrice" : "0x01",
                        "nonce" : "0x00",
                        "r" : "0x4868c600bdb1ff8a7eea0819aab5e07733bdc056ea88c2e6ca41619e36a344b3",
                        "s" : "0x560c4687da30e069df53fab8fc0bc0fa1971b4fe050609470a79b39c6a4e9f56",
                        "to" : "0xb94f5374fce5edbc8e2a8697c15331677e6ebf0b",
                        "v" : "0x1c",
                        "value" : "0x00"
                    }
                ],
                "rlp" : "0xf905e3f901f7a0861ebcbe3a92493f17173dd19032cf5d40ac0de2c714f2b66824ccf4b511c3e5a01dcc4de8dec75d7aab85b567b6ccd41ad312451b948a7413f0a142fd40d49347942adc25665018aa1fe0e6bc666dac8fc2697ff9baa05e3355e9576d172e0840ba895bb922039b66af14deda8bc7a09ed23fc24343a2a0defad1d5e4afb6a00676ae8d301def3c91c96e4c46696ad1af734d8b7f723dcfa0ca7bae7bc4d20e5c09c5690b82bc82e21095de4c47a186679a85d48a94f5aa09b901000000000000000000000000000000000000000000000000000000000000000000000000000000000000000000000000000000000000000000000000000000000000000000000000000000000000000000000000000000000000000000000000000000000000000000000000000000000000000000000000000000000000000000000000000000000000000000000000000000000000000000000000000000000000000000000000000000000000000000000000000000000000000000000000000000000000000000000000000000000000000000000000000000000000000000000000000000000000000000000000000000000000000000000000000000000083020000018398bca4828a088207d042a00000000000000000000000000000000000000000000000000000000000000000880000000000000000f903e5f903e280018301388094b94f5374fce5edbc8e2a8697c15331677e6ebf0b80b9038045a915e4d060149eb4365960e6a7a45f334393093061116b197e3240065ff2d845a915e4d060149eb4365960e6a7a45f334393093061116b197e3240065ff2d845a915e4d060149eb4365960e6a7a45f334393093061116b197e3240065ff2d845a915e4d060149eb4365960e6a7a45f334393093061116b197e3240065ff2d845a915e4d060149eb4365960e6a7a45f334393093061116b197e3240065ff2d845a915e4d060149eb4365960e6a7a45f334393093061116b197e3240065ff2d845a915e4d060149eb4365960e6a7a45f334393093061116b197e3240065ff2d845a915e4d060149eb4365960e6a7a45f334393093061116b197e3240065ff2d845a915e4d060149eb4365960e6a7a45f334393093061116b197e3240065ff2d845a915e4d060149eb4365960e6a7a45f334393093061116b197e3240065ff2d845a915e4d060149eb4365960e6a7a45f334393093061116b197e3240065ff2d845a915e4d060149eb4365960e6a7a45f334393093061116b197e3240065ff2d845a915e4d060149eb4365960e6a7a45f334393093061116b197e3240065ff2d845a915e4d060149eb4365960e6a7a45f334393093061116b197e3240065ff2d845a915e4d060149eb4365960e6a7a45f334393093061116b197e3240065ff2d845a915e4d060149eb4365960e6a7a45f334393093061116b197e3240065ff2d845a915e4d060149eb4365960e6a7a45f334393093061116b197e3240065ff2d845a915e4d060149eb4365960e6a7a45f334393093061116b197e3240065ff2d845a915e4d060149eb4365960e6a7a45f334393093061116b197e3240065ff2d845a915e4d060149eb4365960e6a7a45f334393093061116b197e3240065ff2d845a915e4d060149eb4365960e6a7a45f334393093061116b197e3240065ff2d845a915e4d060149eb4365960e6a7a45f334393093061116b197e3240065ff2d845a915e4d060149eb4365960e6a7a45f334393093061116b197e3240065ff2d845a915e4d060149eb4365960e6a7a45f334393093061116b197e3240065ff2d845a915e4d060149eb4365960e6a7a45f334393093061116b197e3240065ff2d845a915e4d060149eb4365960e6a7a45f334393093061116b197e3240065ff2d845a915e4d060149eb4365960e6a7a45f334393093061116b197e3240065ff2d845a915e4d060149eb4365960e6a7a45f334393093061116b197e3240065ff2d81ca04868c600bdb1ff8a7eea0819aab5e07733bdc056ea88c2e6ca41619e36a344b3a0560c4687da30e069df53fab8fc0bc0fa1971b4fe050609470a79b39c6a4e9f56c0"
            }
        ],
        "postState" : {
            "0xa94f5374fce5edbc8e2a8697c15331677e6ebf0b" : {
                "code" : "0x",
                "nonce" : "0x01",
                "balance" : "0xe8d4a485f8",
                "storage" : {
                }
            },
            "0x2adc25665018aa1fe0e6bc666dac8fc2697ff9ba" : {
                "code" : "0x",
                "nonce" : "0x00",
                "balance" : "0x1bc16d674ec88a08",
                "storage" : {
                }
            },
            "0xb94f5374fce5edbc8e2a8697c15331677e6ebf0b" : {
                "code" : "0x",
                "nonce" : "0x00",
                "balance" : "0x64",
                "storage" : {
                }
            }
        },
        "lastblockhash" : "0xa109334cec94043eeede46190a390e50f8420854671e1e507501844e8080eea4"
    }
}