{
    "ZeroValue_TransactionCALLwithData_ToOneStorageKey_OOGRevert_Istanbul" : {
        "_info" : {
            "comment" : "intrinsic oog with data",
            "filledwith" : "testeth 1.8.0-alpha.0-12+commit.b120a12c.dirty",
            "lllcversion" : "Version: 0.5.12-develop.2019.9.13+commit.2d601a4f.Linux.g++",
            "source" : "src/BlockchainTestsFiller/ValidBlocks/bcStateTests/ZeroValue_TransactionCALLwithData_ToOneStorageKey_OOGRevertFiller.json",
            "sourceHash" : "2a62180a66f81729cb93bc6f49eaf97b8a5f941e5d30513dc145486d9bad9e9e"
        },
        "blocks" : [
            {
                "blockHeader" : {
                    "bloom" : "0x00000000000000000000000000000000000000000000000000000000000000000000000000000000000000000000000000000000000000000000000000000000000000000000000000000000000000000000000000000000000000000000000000000000000000000000000000000000000000000000000000000000000000000000000000000000000000000000000000000000000000000000000000000000000000000000000000000000000000000000000000000000000000000000000000000000000000000000000000000000000000000000000000000000000000000000000000000000000000000000000000000000000000000000000000000000",
                    "coinbase" : "0x2adc25665018aa1fe0e6bc666dac8fc2697ff9ba",
                    "difficulty" : "0x020000",
                    "extraData" : "",
                    "gasLimit" : "0x98705c",
                    "gasUsed" : "0x9208",
                    "hash" : "0xebb685110f26327f660380375bb593690f3e7662ed15882b99d92777b8738cc0",
                    "mixHash" : "0x0000000000000000000000000000000000000000000000000000000000000000",
                    "nonce" : "0x0000000000000000",
                    "number" : "0x01",
                    "parentHash" : "0x18fe1d90dbfaa47a4bf391fbfadf52ea8b0327333cb4083ab3a112e087b28bfc",
                    "receiptTrie" : "0x63aa093effb07e7f543474a3b2767483d995a582325ded67b69e8fc1db8ad33d",
                    "stateRoot" : "0x0aef4a9f3b728e99abd17d7bb3de81b4ae8a98af739b3080bb05ecfa43c22c93",
                    "timestamp" : "0x5db73205",
                    "transactionsTrie" : "0x55220c2e5ea4eddd89f44437ebce84e11ef94a084d025193fb7473b5d07e1715",
                    "uncleHash" : "0x1dcc4de8dec75d7aab85b567b6ccd41ad312451b948a7413f0a142fd40d49347"
                },
                "rlp" : "0xf90665f901f9a018fe1d90dbfaa47a4bf391fbfadf52ea8b0327333cb4083ab3a112e087b28bfca01dcc4de8dec75d7aab85b567b6ccd41ad312451b948a7413f0a142fd40d49347942adc25665018aa1fe0e6bc666dac8fc2697ff9baa00aef4a9f3b728e99abd17d7bb3de81b4ae8a98af739b3080bb05ecfa43c22c93a055220c2e5ea4eddd89f44437ebce84e11ef94a084d025193fb7473b5d07e1715a063aa093effb07e7f543474a3b2767483d995a582325ded67b69e8fc1db8ad33db901000000000000000000000000000000000000000000000000000000000000000000000000000000000000000000000000000000000000000000000000000000000000000000000000000000000000000000000000000000000000000000000000000000000000000000000000000000000000000000000000000000000000000000000000000000000000000000000000000000000000000000000000000000000000000000000000000000000000000000000000000000000000000000000000000000000000000000000000000000000000000000000000000000000000000000000000000000000000000000000000000000000000000000000000000000000083020000018398705c829208845db7320580a00000000000000000000000000000000000000000000000000000000000000000880000000000000000f90465f904628001830124f894b94f5374fce5edbc8e2a8697c15331677e6ebf0b80b9040045a915e4d060149eb4365960e6a7a45f334393093061116b197e3240065ff2d845a915e4d060149eb4365960e6a7a45f334393093061116b197e3240065ff2d845a915e4d060149eb4365960e6a7a45f334393093061116b197e3240065ff2d845a915e4d060149eb4365960e6a7a45f334393093061116b197e3240065ff2d845a915e4d060149eb4365960e6a7a45f334393093061116b197e3240065ff2d845a915e4d060149eb4365960e6a7a45f334393093061116b197e3240065ff2d845a915e4d060149eb4365960e6a7a45f334393093061116b197e3240065ff2d845a915e4d060149eb4365960e6a7a45f334393093061116b197e3240065ff2d845a915e4d060149eb4365960e6a7a45f334393093061116b197e3240065ff2d845a915e4d060149eb4365960e6a7a45f334393093061116b197e3240065ff2d845a915e4d060149eb4365960e6a7a45f334393093061116b197e3240065ff2d845a915e4d060149eb4365960e6a7a45f334393093061116b197e3240065ff2d845a915e4d060149eb4365960e6a7a45f334393093061116b197e3240065ff2d845a915e4d060149eb4365960e6a7a45f334393093061116b197e3240065ff2d845a915e4d060149eb4365960e6a7a45f334393093061116b197e3240065ff2d845a915e4d060149eb4365960e6a7a45f334393093061116b197e3240065ff2d845a915e4d060149eb4365960e6a7a45f334393093061116b197e3240065ff2d845a915e4d060149eb4365960e6a7a45f334393093061116b197e3240065ff2d845a915e4d060149eb4365960e6a7a45f334393093061116b197e3240065ff2d845a915e4d060149eb4365960e6a7a45f334393093061116b197e3240065ff2d845a915e4d060149eb4365960e6a7a45f334393093061116b197e3240065ff2d845a915e4d060149eb4365960e6a7a45f334393093061116b197e3240065ff2d845a915e4d060149eb4365960e6a7a45f334393093061116b197e3240065ff2d845a915e4d060149eb4365960e6a7a45f334393093061116b197e3240065ff2d845a915e4d060149eb4365960e6a7a45f334393093061116b197e3240065ff2d845a915e4d060149eb4365960e6a7a45f334393093061116b197e3240065ff2d845a915e4d060149eb4365960e6a7a45f334393093061116b197e3240065ff2d845a915e4d060149eb4365960e6a7a45f334393093061116b197e3240065ff2d845a915e4d060149eb4365960e6a7a45f334393093061116b197e3240065ff2d845a915e4d060149eb4365960e6a7a45f334393093061116b197e3240065ff2d845a915e4d060149eb4365960e6a7a45f334393093061116b197e3240065ff2d845a915e4d060149eb4365960e6a7a45f334393093061116b197e3240065ff2d81ca03bb117b54dea543479432fd685fe42442cc9a70fa1802d605b94e036652d3706a011f33939441423041d13c0846f312554f9a17a0fefd1b77a05c958133738641fc0",
                "transactions" : [
                    {
                        "data" : "0x45a915e4d060149eb4365960e6a7a45f334393093061116b197e3240065ff2d845a915e4d060149eb4365960e6a7a45f334393093061116b197e3240065ff2d845a915e4d060149eb4365960e6a7a45f334393093061116b197e3240065ff2d845a915e4d060149eb4365960e6a7a45f334393093061116b197e3240065ff2d845a915e4d060149eb4365960e6a7a45f334393093061116b197e3240065ff2d845a915e4d060149eb4365960e6a7a45f334393093061116b197e3240065ff2d845a915e4d060149eb4365960e6a7a45f334393093061116b197e3240065ff2d845a915e4d060149eb4365960e6a7a45f334393093061116b197e3240065ff2d845a915e4d060149eb4365960e6a7a45f334393093061116b197e3240065ff2d845a915e4d060149eb4365960e6a7a45f334393093061116b197e3240065ff2d845a915e4d060149eb4365960e6a7a45f334393093061116b197e3240065ff2d845a915e4d060149eb4365960e6a7a45f334393093061116b197e3240065ff2d845a915e4d060149eb4365960e6a7a45f334393093061116b197e3240065ff2d845a915e4d060149eb4365960e6a7a45f334393093061116b197e3240065ff2d845a915e4d060149eb4365960e6a7a45f334393093061116b197e3240065ff2d845a915e4d060149eb4365960e6a7a45f334393093061116b197e3240065ff2d845a915e4d060149eb4365960e6a7a45f334393093061116b197e3240065ff2d845a915e4d060149eb4365960e6a7a45f334393093061116b197e3240065ff2d845a915e4d060149eb4365960e6a7a45f334393093061116b197e3240065ff2d845a915e4d060149eb4365960e6a7a45f334393093061116b197e3240065ff2d845a915e4d060149eb4365960e6a7a45f334393093061116b197e3240065ff2d845a915e4d060149eb4365960e6a7a45f334393093061116b197e3240065ff2d845a915e4d060149eb4365960e6a7a45f334393093061116b197e3240065ff2d845a915e4d060149eb4365960e6a7a45f334393093061116b197e3240065ff2d845a915e4d060149eb4365960e6a7a45f334393093061116b197e3240065ff2d845a915e4d060149eb4365960e6a7a45f334393093061116b197e3240065ff2d845a915e4d060149eb4365960e6a7a45f334393093061116b197e3240065ff2d845a915e4d060149eb4365960e6a7a45f334393093061116b197e3240065ff2d845a915e4d060149eb4365960e6a7a45f334393093061116b197e3240065ff2d845a915e4d060149eb4365960e6a7a45f334393093061116b197e3240065ff2d845a915e4d060149eb4365960e6a7a45f334393093061116b197e3240065ff2d845a915e4d060149eb4365960e6a7a45f334393093061116b197e3240065ff2d8",
                        "gasLimit" : "0x0124f8",
                        "gasPrice" : "0x01",
                        "nonce" : "0x00",
                        "r" : "0x3bb117b54dea543479432fd685fe42442cc9a70fa1802d605b94e036652d3706",
                        "s" : "0x11f33939441423041d13c0846f312554f9a17a0fefd1b77a05c958133738641f",
                        "to" : "0xb94f5374fce5edbc8e2a8697c15331677e6ebf0b",
                        "v" : "0x1c",
                        "value" : "0x00"
                    }
                ],
                "uncleHeaders" : [
                ]
            }
        ],
        "genesisBlockHeader" : {
            "bloom" : "0x00000000000000000000000000000000000000000000000000000000000000000000000000000000000000000000000000000000000000000000000000000000000000000000000000000000000000000000000000000000000000000000000000000000000000000000000000000000000000000000000000000000000000000000000000000000000000000000000000000000000000000000000000000000000000000000000000000000000000000000000000000000000000000000000000000000000000000000000000000000000000000000000000000000000000000000000000000000000000000000000000000000000000000000000000000000",
            "coinbase" : "0x2adc25665018aa1fe0e6bc666dac8fc2697ff9ba",
            "difficulty" : "0x020000",
            "extraData" : "0x42",
            "gasLimit" : "0x989680",
            "gasUsed" : "0x00",
            "hash" : "0x18fe1d90dbfaa47a4bf391fbfadf52ea8b0327333cb4083ab3a112e087b28bfc",
            "mixHash" : "0x56e81f171bcc55a6ff8345e692c0f86e5b48e01b996cadc001622fb5e363b421",
            "nonce" : "0x0102030405060708",
            "number" : "0x00",
            "parentHash" : "0x0000000000000000000000000000000000000000000000000000000000000000",
            "receiptTrie" : "0x56e81f171bcc55a6ff8345e692c0f86e5b48e01b996cadc001622fb5e363b421",
            "stateRoot" : "0x25a66260e106e4aabf890c1bc398ad84d91a5da434f7fe39c2664c2cb1b39e99",
            "timestamp" : "0x03e8",
            "transactionsTrie" : "0x56e81f171bcc55a6ff8345e692c0f86e5b48e01b996cadc001622fb5e363b421",
            "uncleHash" : "0x1dcc4de8dec75d7aab85b567b6ccd41ad312451b948a7413f0a142fd40d49347"
        },
        "genesisRLP" : "0xf901faf901f5a00000000000000000000000000000000000000000000000000000000000000000a01dcc4de8dec75d7aab85b567b6ccd41ad312451b948a7413f0a142fd40d49347942adc25665018aa1fe0e6bc666dac8fc2697ff9baa025a66260e106e4aabf890c1bc398ad84d91a5da434f7fe39c2664c2cb1b39e99a056e81f171bcc55a6ff8345e692c0f86e5b48e01b996cadc001622fb5e363b421a056e81f171bcc55a6ff8345e692c0f86e5b48e01b996cadc001622fb5e363b421b9010000000000000000000000000000000000000000000000000000000000000000000000000000000000000000000000000000000000000000000000000000000000000000000000000000000000000000000000000000000000000000000000000000000000000000000000000000000000000000000000000000000000000000000000000000000000000000000000000000000000000000000000000000000000000000000000000000000000000000000000000000000000000000000000000000000000000000000000000000000000000000000000000000000000000000000000000000000000000000000000000000000000000000000000000000000000830200008083989680808203e842a056e81f171bcc55a6ff8345e692c0f86e5b48e01b996cadc001622fb5e363b421880102030405060708c0c0",
        "lastblockhash" : "0xebb685110f26327f660380375bb593690f3e7662ed15882b99d92777b8738cc0",
        "network" : "Istanbul",
        "postState" : {
            "0x2adc25665018aa1fe0e6bc666dac8fc2697ff9ba" : {
                "balance" : "0x1bc16d674ec89208",
                "code" : "",
                "nonce" : "0x00",
                "storage" : {
                }
            },
            "0xa94f5374fce5edbc8e2a8697c15331677e6ebf0b" : {
                "balance" : "0xe8d4a47df8",
                "code" : "",
                "nonce" : "0x01",
                "storage" : {
                }
            }
        },
        "pre" : {
            "0xa94f5374fce5edbc8e2a8697c15331677e6ebf0b" : {
                "balance" : "0xe8d4a51000",
                "code" : "",
                "nonce" : "0x00",
                "storage" : {
                }
            },
            "0xb94f5374fce5edbc8e2a8697c15331677e6ebf0b" : {
                "balance" : "0x00",
                "code" : "",
                "nonce" : "0x00",
                "storage" : {
                    "0x00" : "0x01"
                }
            }
        },
        "sealEngine" : "NoProof"
    }
}