{
    "ByZero_d0g0v0_Istanbul" : {
        "_info" : {
            "comment" : "DIV/SDIV/MOD/SMOD by zero tests",
            "filling-rpc-server" : "Geth-1.9.7-unstable-9a770659-20191018",
            "filling-tool-version" : "retesteth-0.0.1+commit.e4b931fe.Darwin.appleclang",
            "lllcversion" : "Error getting LLLC Version",
            "source" : "src/GeneralStateTestsFiller/stSolidityTest/ByZeroFiller.json",
            "sourceHash" : "2a2237a74b4584e0a2541cd8fc4a3b3c59191aa957393e5cb5b68a11b15e5d02"
        },
        "genesisBlockHeader" : {
            "bloom" : "0x00000000000000000000000000000000000000000000000000000000000000000000000000000000000000000000000000000000000000000000000000000000000000000000000000000000000000000000000000000000000000000000000000000000000000000000000000000000000000000000000000000000000000000000000000000000000000000000000000000000000000000000000000000000000000000000000000000000000000000000000000000000000000000000000000000000000000000000000000000000000000000000000000000000000000000000000000000000000000000000000000000000000000000000000000000000",
            "coinbase" : "0x2adc25665018aa1fe0e6bc666dac8fc2697ff9ba",
            "difficulty" : "0x20000",
            "extraData" : "0x00",
            "gasLimit" : "0xf4240",
            "gasUsed" : "0x0",
            "hash" : "0xa8445744e5e42ac5931ea7566f871654a86fa5b14a30731467675e7d25ed2fbb",
            "mixHash" : "0x0000000000000000000000000000000000000000000000000000000000000000",
            "nonce" : "0x0000000000000000",
            "number" : "0x0",
            "parentHash" : "0x0000000000000000000000000000000000000000000000000000000000000000",
            "receiptTrie" : "0x56e81f171bcc55a6ff8345e692c0f86e5b48e01b996cadc001622fb5e363b421",
            "stateRoot" : "0x517f2cdf6adb1a644878c390ffab4e130f1bed4b498ef7ce58c5addd98d61018",
            "timestamp" : "0x0",
            "transactionsTrie" : "0x56e81f171bcc55a6ff8345e692c0f86e5b48e01b996cadc001622fb5e363b421",
            "uncleHash" : "0x1dcc4de8dec75d7aab85b567b6ccd41ad312451b948a7413f0a142fd40d49347"
        },
        "pre" : {
            "0xa94f5374fce5edbc8e2a8697c15331677e6ebf0b" : {
                "balance" : "0x0de0b6b3a7640000",
                "code" : "0x",
                "nonce" : "0x00",
                "storage" : {
                }
            }
        },
        "postState" : {
            "0xa94f5374fce5edbc8e2a8697c15331677e6ebf0b" : {
                "code" : "0x",
                "nonce" : "0x01",
                "balance" : "0x0de0b6b3a762e252",
                "storage" : {
                }
            },
            "0x2adc25665018aa1fe0e6bc666dac8fc2697ff9ba" : {
                "code" : "0x",
                "nonce" : "0x00",
                "balance" : "0x1bc16d674ec91dae",
                "storage" : {
                }
            },
            "0x6295ee1b4f6dd65047762f924ecd367c17eabf8f" : {
                "code" : "0x",
                "nonce" : "0x01",
                "balance" : "0x00",
                "storage" : {
                    "0x00" : "0x01"
                }
            }
        },
        "network" : "Istanbul",
        "sealEngine" : "NoProof",
        "lastblockhash" : "0x04b6874d6c1a78f1667fa2464c8bd3c93069ee20cd4ea93cce904b4a8046156e",
        "genesisRLP" : "0xf901f8f901f3a00000000000000000000000000000000000000000000000000000000000000000a01dcc4de8dec75d7aab85b567b6ccd41ad312451b948a7413f0a142fd40d49347942adc25665018aa1fe0e6bc666dac8fc2697ff9baa0517f2cdf6adb1a644878c390ffab4e130f1bed4b498ef7ce58c5addd98d61018a056e81f171bcc55a6ff8345e692c0f86e5b48e01b996cadc001622fb5e363b421a056e81f171bcc55a6ff8345e692c0f86e5b48e01b996cadc001622fb5e363b421b90100000000000000000000000000000000000000000000000000000000000000000000000000000000000000000000000000000000000000000000000000000000000000000000000000000000000000000000000000000000000000000000000000000000000000000000000000000000000000000000000000000000000000000000000000000000000000000000000000000000000000000000000000000000000000000000000000000000000000000000000000000000000000000000000000000000000000000000000000000000000000000000000000000000000000000000000000000000000000000000000000000000000000000000000000000000008302000080830f4240808000a00000000000000000000000000000000000000000000000000000000000000000880000000000000000c0c0",
        "blocks" : [
            {
                "rlp" : "0xf90255f901f8a0a8445744e5e42ac5931ea7566f871654a86fa5b14a30731467675e7d25ed2fbba01dcc4de8dec75d7aab85b567b6ccd41ad312451b948a7413f0a142fd40d49347942adc25665018aa1fe0e6bc666dac8fc2697ff9baa07d072566156309e274c52ed688f7cd0bd0fc9cbd6c077888da999c92246acdd8a004a4c4c2cfa9f438ac0b527273567cb38fe599abf7c59bc23e8c4e5fe76c3d62a0072ab2476fb441511ae22aad943fd99a2b6431d0059e938a460ca07597af1d9cb90100000000000000000000000000000000000000000000000000000000000000000000000000000000000000000000000000000000000000000000000000000000000000000000000000000000000000000000000000000000000000000000000000000000000000000000000000000000000000000000000000000000000000000000000000000000000000000000000000000000000000000000000000000000000000000000000000000000000000000000000000000000000000000000000000000000000000000000000000000000000000000000000000000000000000000000000000000000000000000000000000000000000000000000000000000000008302000001830f460f83011dae8203e800a00000000000000000000000000000000000000000000000000000000000000000880000000000000000f857f855800183061a808080896001600060010455001ca0c8c873dbe4ec70e53905d1532a5172e1179aa778bed8b39cbce8e16922573380a020cab0afab3e9fc49a5f437963f73cb80713924654a30f46b4731e435ee37fbec0",
                "blockHeader" : {
                    "bloom" : "0x00000000000000000000000000000000000000000000000000000000000000000000000000000000000000000000000000000000000000000000000000000000000000000000000000000000000000000000000000000000000000000000000000000000000000000000000000000000000000000000000000000000000000000000000000000000000000000000000000000000000000000000000000000000000000000000000000000000000000000000000000000000000000000000000000000000000000000000000000000000000000000000000000000000000000000000000000000000000000000000000000000000000000000000000000000000",
                    "coinbase" : "0x2adc25665018aa1fe0e6bc666dac8fc2697ff9ba",
                    "difficulty" : "0x20000",
                    "extraData" : "0x00",
                    "gasLimit" : "0xf460f",
                    "gasUsed" : "0x11dae",
                    "hash" : "0x04b6874d6c1a78f1667fa2464c8bd3c93069ee20cd4ea93cce904b4a8046156e",
                    "mixHash" : "0x0000000000000000000000000000000000000000000000000000000000000000",
                    "nonce" : "0x0000000000000000",
                    "number" : "0x1",
                    "parentHash" : "0xa8445744e5e42ac5931ea7566f871654a86fa5b14a30731467675e7d25ed2fbb",
                    "receiptTrie" : "0x072ab2476fb441511ae22aad943fd99a2b6431d0059e938a460ca07597af1d9c",
                    "stateRoot" : "0x7d072566156309e274c52ed688f7cd0bd0fc9cbd6c077888da999c92246acdd8",
                    "timestamp" : "0x3e8",
                    "transactionsTrie" : "0x04a4c4c2cfa9f438ac0b527273567cb38fe599abf7c59bc23e8c4e5fe76c3d62",
                    "uncleHash" : "0x1dcc4de8dec75d7aab85b567b6ccd41ad312451b948a7413f0a142fd40d49347"
                },
                "transactions" : [
                    {
                        "data" : "0x600160006001045500",
                        "gasLimit" : "0x061a80",
                        "gasPrice" : "0x01",
                        "nonce" : "0x00",
                        "to" : "",
                        "value" : "0x00",
                        "v" : "0x1c",
                        "r" : "0xc8c873dbe4ec70e53905d1532a5172e1179aa778bed8b39cbce8e16922573380",
                        "s" : "0x20cab0afab3e9fc49a5f437963f73cb80713924654a30f46b4731e435ee37fbe"
                    }
                ]
            }
        ]
    },
    "ByZero_d1g0v0_Istanbul" : {
        "_info" : {
            "comment" : "DIV/SDIV/MOD/SMOD by zero tests",
            "filling-rpc-server" : "Geth-1.9.7-unstable-9a770659-20191018",
            "filling-tool-version" : "retesteth-0.0.1+commit.e4b931fe.Darwin.appleclang",
            "lllcversion" : "Error getting LLLC Version",
            "source" : "src/GeneralStateTestsFiller/stSolidityTest/ByZeroFiller.json",
            "sourceHash" : "2a2237a74b4584e0a2541cd8fc4a3b3c59191aa957393e5cb5b68a11b15e5d02"
        },
        "genesisBlockHeader" : {
            "bloom" : "0x00000000000000000000000000000000000000000000000000000000000000000000000000000000000000000000000000000000000000000000000000000000000000000000000000000000000000000000000000000000000000000000000000000000000000000000000000000000000000000000000000000000000000000000000000000000000000000000000000000000000000000000000000000000000000000000000000000000000000000000000000000000000000000000000000000000000000000000000000000000000000000000000000000000000000000000000000000000000000000000000000000000000000000000000000000000",
            "coinbase" : "0x2adc25665018aa1fe0e6bc666dac8fc2697ff9ba",
            "difficulty" : "0x20000",
            "extraData" : "0x00",
            "gasLimit" : "0xf4240",
            "gasUsed" : "0x0",
            "hash" : "0xa8445744e5e42ac5931ea7566f871654a86fa5b14a30731467675e7d25ed2fbb",
            "mixHash" : "0x0000000000000000000000000000000000000000000000000000000000000000",
            "nonce" : "0x0000000000000000",
            "number" : "0x0",
            "parentHash" : "0x0000000000000000000000000000000000000000000000000000000000000000",
            "receiptTrie" : "0x56e81f171bcc55a6ff8345e692c0f86e5b48e01b996cadc001622fb5e363b421",
            "stateRoot" : "0x517f2cdf6adb1a644878c390ffab4e130f1bed4b498ef7ce58c5addd98d61018",
            "timestamp" : "0x0",
            "transactionsTrie" : "0x56e81f171bcc55a6ff8345e692c0f86e5b48e01b996cadc001622fb5e363b421",
            "uncleHash" : "0x1dcc4de8dec75d7aab85b567b6ccd41ad312451b948a7413f0a142fd40d49347"
        },
        "pre" : {
            "0xa94f5374fce5edbc8e2a8697c15331677e6ebf0b" : {
                "balance" : "0x0de0b6b3a7640000",
                "code" : "0x",
                "nonce" : "0x00",
                "storage" : {
                }
            }
        },
        "postState" : {
            "0xa94f5374fce5edbc8e2a8697c15331677e6ebf0b" : {
                "code" : "0x",
                "nonce" : "0x01",
                "balance" : "0x0de0b6b3a762e252",
                "storage" : {
                }
            },
            "0x2adc25665018aa1fe0e6bc666dac8fc2697ff9ba" : {
                "code" : "0x",
                "nonce" : "0x00",
                "balance" : "0x1bc16d674ec91dae",
                "storage" : {
                }
            },
            "0x6295ee1b4f6dd65047762f924ecd367c17eabf8f" : {
                "code" : "0x",
                "nonce" : "0x01",
                "balance" : "0x00",
                "storage" : {
                    "0x00" : "0x01"
                }
            }
        },
        "network" : "Istanbul",
        "sealEngine" : "NoProof",
        "lastblockhash" : "0xf85a93b66b1bcb7612441a4faeb58d25d6f55273085d2cedf83a64e025a64c7e",
        "genesisRLP" : "0xf901f8f901f3a00000000000000000000000000000000000000000000000000000000000000000a01dcc4de8dec75d7aab85b567b6ccd41ad312451b948a7413f0a142fd40d49347942adc25665018aa1fe0e6bc666dac8fc2697ff9baa0517f2cdf6adb1a644878c390ffab4e130f1bed4b498ef7ce58c5addd98d61018a056e81f171bcc55a6ff8345e692c0f86e5b48e01b996cadc001622fb5e363b421a056e81f171bcc55a6ff8345e692c0f86e5b48e01b996cadc001622fb5e363b421b90100000000000000000000000000000000000000000000000000000000000000000000000000000000000000000000000000000000000000000000000000000000000000000000000000000000000000000000000000000000000000000000000000000000000000000000000000000000000000000000000000000000000000000000000000000000000000000000000000000000000000000000000000000000000000000000000000000000000000000000000000000000000000000000000000000000000000000000000000000000000000000000000000000000000000000000000000000000000000000000000000000000000000000000000000000000008302000080830f4240808000a00000000000000000000000000000000000000000000000000000000000000000880000000000000000c0c0",
        "blocks" : [
            {
                "rlp" : "0xf90255f901f8a0a8445744e5e42ac5931ea7566f871654a86fa5b14a30731467675e7d25ed2fbba01dcc4de8dec75d7aab85b567b6ccd41ad312451b948a7413f0a142fd40d49347942adc25665018aa1fe0e6bc666dac8fc2697ff9baa07d072566156309e274c52ed688f7cd0bd0fc9cbd6c077888da999c92246acdd8a02929fb0c969ab6d8d1211ed71ffa911e7910598a4bc4145ff386a2e48a48852aa0072ab2476fb441511ae22aad943fd99a2b6431d0059e938a460ca07597af1d9cb90100000000000000000000000000000000000000000000000000000000000000000000000000000000000000000000000000000000000000000000000000000000000000000000000000000000000000000000000000000000000000000000000000000000000000000000000000000000000000000000000000000000000000000000000000000000000000000000000000000000000000000000000000000000000000000000000000000000000000000000000000000000000000000000000000000000000000000000000000000000000000000000000000000000000000000000000000000000000000000000000000000000000000000000000000000000008302000001830f460f83011dae8203e800a00000000000000000000000000000000000000000000000000000000000000000880000000000000000f857f855800183061a808080896001600060010555001ca045b195a2275219e6d8f7156d822351a5f0e151e908cd7b6b9f78bc81da0ff6a5a03a229d64df07cee282ed48b9437f6a0cd4fbfafacbe67074be59d026f22019c3c0",
                "blockHeader" : {
                    "bloom" : "0x00000000000000000000000000000000000000000000000000000000000000000000000000000000000000000000000000000000000000000000000000000000000000000000000000000000000000000000000000000000000000000000000000000000000000000000000000000000000000000000000000000000000000000000000000000000000000000000000000000000000000000000000000000000000000000000000000000000000000000000000000000000000000000000000000000000000000000000000000000000000000000000000000000000000000000000000000000000000000000000000000000000000000000000000000000000",
                    "coinbase" : "0x2adc25665018aa1fe0e6bc666dac8fc2697ff9ba",
                    "difficulty" : "0x20000",
                    "extraData" : "0x00",
                    "gasLimit" : "0xf460f",
                    "gasUsed" : "0x11dae",
                    "hash" : "0xf85a93b66b1bcb7612441a4faeb58d25d6f55273085d2cedf83a64e025a64c7e",
                    "mixHash" : "0x0000000000000000000000000000000000000000000000000000000000000000",
                    "nonce" : "0x0000000000000000",
                    "number" : "0x1",
                    "parentHash" : "0xa8445744e5e42ac5931ea7566f871654a86fa5b14a30731467675e7d25ed2fbb",
                    "receiptTrie" : "0x072ab2476fb441511ae22aad943fd99a2b6431d0059e938a460ca07597af1d9c",
                    "stateRoot" : "0x7d072566156309e274c52ed688f7cd0bd0fc9cbd6c077888da999c92246acdd8",
                    "timestamp" : "0x3e8",
                    "transactionsTrie" : "0x2929fb0c969ab6d8d1211ed71ffa911e7910598a4bc4145ff386a2e48a48852a",
                    "uncleHash" : "0x1dcc4de8dec75d7aab85b567b6ccd41ad312451b948a7413f0a142fd40d49347"
                },
                "transactions" : [
                    {
                        "data" : "0x600160006001055500",
                        "gasLimit" : "0x061a80",
                        "gasPrice" : "0x01",
                        "nonce" : "0x00",
                        "to" : "",
                        "value" : "0x00",
                        "v" : "0x1c",
                        "r" : "0x45b195a2275219e6d8f7156d822351a5f0e151e908cd7b6b9f78bc81da0ff6a5",
                        "s" : "0x3a229d64df07cee282ed48b9437f6a0cd4fbfafacbe67074be59d026f22019c3"
                    }
                ]
            }
        ]
    },
    "ByZero_d2g0v0_Istanbul" : {
        "_info" : {
            "comment" : "DIV/SDIV/MOD/SMOD by zero tests",
            "filling-rpc-server" : "Geth-1.9.7-unstable-9a770659-20191018",
            "filling-tool-version" : "retesteth-0.0.1+commit.e4b931fe.Darwin.appleclang",
            "lllcversion" : "Error getting LLLC Version",
            "source" : "src/GeneralStateTestsFiller/stSolidityTest/ByZeroFiller.json",
            "sourceHash" : "2a2237a74b4584e0a2541cd8fc4a3b3c59191aa957393e5cb5b68a11b15e5d02"
        },
        "genesisBlockHeader" : {
            "bloom" : "0x00000000000000000000000000000000000000000000000000000000000000000000000000000000000000000000000000000000000000000000000000000000000000000000000000000000000000000000000000000000000000000000000000000000000000000000000000000000000000000000000000000000000000000000000000000000000000000000000000000000000000000000000000000000000000000000000000000000000000000000000000000000000000000000000000000000000000000000000000000000000000000000000000000000000000000000000000000000000000000000000000000000000000000000000000000000",
            "coinbase" : "0x2adc25665018aa1fe0e6bc666dac8fc2697ff9ba",
            "difficulty" : "0x20000",
            "extraData" : "0x00",
            "gasLimit" : "0xf4240",
            "gasUsed" : "0x0",
            "hash" : "0xa8445744e5e42ac5931ea7566f871654a86fa5b14a30731467675e7d25ed2fbb",
            "mixHash" : "0x0000000000000000000000000000000000000000000000000000000000000000",
            "nonce" : "0x0000000000000000",
            "number" : "0x0",
            "parentHash" : "0x0000000000000000000000000000000000000000000000000000000000000000",
            "receiptTrie" : "0x56e81f171bcc55a6ff8345e692c0f86e5b48e01b996cadc001622fb5e363b421",
            "stateRoot" : "0x517f2cdf6adb1a644878c390ffab4e130f1bed4b498ef7ce58c5addd98d61018",
            "timestamp" : "0x0",
            "transactionsTrie" : "0x56e81f171bcc55a6ff8345e692c0f86e5b48e01b996cadc001622fb5e363b421",
            "uncleHash" : "0x1dcc4de8dec75d7aab85b567b6ccd41ad312451b948a7413f0a142fd40d49347"
        },
        "pre" : {
            "0xa94f5374fce5edbc8e2a8697c15331677e6ebf0b" : {
                "balance" : "0x0de0b6b3a7640000",
                "code" : "0x",
                "nonce" : "0x00",
                "storage" : {
                }
            }
        },
        "postState" : {
            "0xa94f5374fce5edbc8e2a8697c15331677e6ebf0b" : {
                "code" : "0x",
                "nonce" : "0x01",
                "balance" : "0x0de0b6b3a762e252",
                "storage" : {
                }
            },
            "0x2adc25665018aa1fe0e6bc666dac8fc2697ff9ba" : {
                "code" : "0x",
                "nonce" : "0x00",
                "balance" : "0x1bc16d674ec91dae",
                "storage" : {
                }
            },
            "0x6295ee1b4f6dd65047762f924ecd367c17eabf8f" : {
                "code" : "0x",
                "nonce" : "0x01",
                "balance" : "0x00",
                "storage" : {
                    "0x00" : "0x01"
                }
            }
        },
        "network" : "Istanbul",
        "sealEngine" : "NoProof",
        "lastblockhash" : "0x4a5bb4ff4b1658934d220f1abe50106c0c8621a1f7e648995a8d383e5a4bc1df",
        "genesisRLP" : "0xf901f8f901f3a00000000000000000000000000000000000000000000000000000000000000000a01dcc4de8dec75d7aab85b567b6ccd41ad312451b948a7413f0a142fd40d49347942adc25665018aa1fe0e6bc666dac8fc2697ff9baa0517f2cdf6adb1a644878c390ffab4e130f1bed4b498ef7ce58c5addd98d61018a056e81f171bcc55a6ff8345e692c0f86e5b48e01b996cadc001622fb5e363b421a056e81f171bcc55a6ff8345e692c0f86e5b48e01b996cadc001622fb5e363b421b90100000000000000000000000000000000000000000000000000000000000000000000000000000000000000000000000000000000000000000000000000000000000000000000000000000000000000000000000000000000000000000000000000000000000000000000000000000000000000000000000000000000000000000000000000000000000000000000000000000000000000000000000000000000000000000000000000000000000000000000000000000000000000000000000000000000000000000000000000000000000000000000000000000000000000000000000000000000000000000000000000000000000000000000000000000000008302000080830f4240808000a00000000000000000000000000000000000000000000000000000000000000000880000000000000000c0c0",
        "blocks" : [
            {
                "rlp" : "0xf90255f901f8a0a8445744e5e42ac5931ea7566f871654a86fa5b14a30731467675e7d25ed2fbba01dcc4de8dec75d7aab85b567b6ccd41ad312451b948a7413f0a142fd40d49347942adc25665018aa1fe0e6bc666dac8fc2697ff9baa07d072566156309e274c52ed688f7cd0bd0fc9cbd6c077888da999c92246acdd8a06d874eb49c6cc2b3fe3973aae8f8b93338a64e0bec91ebd58ee866cfd5fc746aa0072ab2476fb441511ae22aad943fd99a2b6431d0059e938a460ca07597af1d9cb90100000000000000000000000000000000000000000000000000000000000000000000000000000000000000000000000000000000000000000000000000000000000000000000000000000000000000000000000000000000000000000000000000000000000000000000000000000000000000000000000000000000000000000000000000000000000000000000000000000000000000000000000000000000000000000000000000000000000000000000000000000000000000000000000000000000000000000000000000000000000000000000000000000000000000000000000000000000000000000000000000000000000000000000000000000000008302000001830f460f83011dae8203e800a00000000000000000000000000000000000000000000000000000000000000000880000000000000000f857f855800183061a808080896001600060010655001ba0061e6c385c6dc270c6a0dd005ec70092f144a05f152d7c016b5c9a765ada05faa04aec13bd8972bbeb5dd62c618d5c5834f81caaf8b3d059a167c6a19fae77eef0c0",
                "blockHeader" : {
                    "bloom" : "0x00000000000000000000000000000000000000000000000000000000000000000000000000000000000000000000000000000000000000000000000000000000000000000000000000000000000000000000000000000000000000000000000000000000000000000000000000000000000000000000000000000000000000000000000000000000000000000000000000000000000000000000000000000000000000000000000000000000000000000000000000000000000000000000000000000000000000000000000000000000000000000000000000000000000000000000000000000000000000000000000000000000000000000000000000000000",
                    "coinbase" : "0x2adc25665018aa1fe0e6bc666dac8fc2697ff9ba",
                    "difficulty" : "0x20000",
                    "extraData" : "0x00",
                    "gasLimit" : "0xf460f",
                    "gasUsed" : "0x11dae",
                    "hash" : "0x4a5bb4ff4b1658934d220f1abe50106c0c8621a1f7e648995a8d383e5a4bc1df",
                    "mixHash" : "0x0000000000000000000000000000000000000000000000000000000000000000",
                    "nonce" : "0x0000000000000000",
                    "number" : "0x1",
                    "parentHash" : "0xa8445744e5e42ac5931ea7566f871654a86fa5b14a30731467675e7d25ed2fbb",
                    "receiptTrie" : "0x072ab2476fb441511ae22aad943fd99a2b6431d0059e938a460ca07597af1d9c",
                    "stateRoot" : "0x7d072566156309e274c52ed688f7cd0bd0fc9cbd6c077888da999c92246acdd8",
                    "timestamp" : "0x3e8",
                    "transactionsTrie" : "0x6d874eb49c6cc2b3fe3973aae8f8b93338a64e0bec91ebd58ee866cfd5fc746a",
                    "uncleHash" : "0x1dcc4de8dec75d7aab85b567b6ccd41ad312451b948a7413f0a142fd40d49347"
                },
                "transactions" : [
                    {
                        "data" : "0x600160006001065500",
                        "gasLimit" : "0x061a80",
                        "gasPrice" : "0x01",
                        "nonce" : "0x00",
                        "to" : "",
                        "value" : "0x00",
                        "v" : "0x1b",
                        "r" : "0x061e6c385c6dc270c6a0dd005ec70092f144a05f152d7c016b5c9a765ada05fa",
                        "s" : "0x4aec13bd8972bbeb5dd62c618d5c5834f81caaf8b3d059a167c6a19fae77eef0"
                    }
                ]
            }
        ]
    },
    "ByZero_d3g0v0_Istanbul" : {
        "_info" : {
            "comment" : "DIV/SDIV/MOD/SMOD by zero tests",
            "filling-rpc-server" : "Geth-1.9.7-unstable-9a770659-20191018",
            "filling-tool-version" : "retesteth-0.0.1+commit.e4b931fe.Darwin.appleclang",
            "lllcversion" : "Error getting LLLC Version",
            "source" : "src/GeneralStateTestsFiller/stSolidityTest/ByZeroFiller.json",
            "sourceHash" : "2a2237a74b4584e0a2541cd8fc4a3b3c59191aa957393e5cb5b68a11b15e5d02"
        },
        "genesisBlockHeader" : {
            "bloom" : "0x00000000000000000000000000000000000000000000000000000000000000000000000000000000000000000000000000000000000000000000000000000000000000000000000000000000000000000000000000000000000000000000000000000000000000000000000000000000000000000000000000000000000000000000000000000000000000000000000000000000000000000000000000000000000000000000000000000000000000000000000000000000000000000000000000000000000000000000000000000000000000000000000000000000000000000000000000000000000000000000000000000000000000000000000000000000",
            "coinbase" : "0x2adc25665018aa1fe0e6bc666dac8fc2697ff9ba",
            "difficulty" : "0x20000",
            "extraData" : "0x00",
            "gasLimit" : "0xf4240",
            "gasUsed" : "0x0",
            "hash" : "0xa8445744e5e42ac5931ea7566f871654a86fa5b14a30731467675e7d25ed2fbb",
            "mixHash" : "0x0000000000000000000000000000000000000000000000000000000000000000",
            "nonce" : "0x0000000000000000",
            "number" : "0x0",
            "parentHash" : "0x0000000000000000000000000000000000000000000000000000000000000000",
            "receiptTrie" : "0x56e81f171bcc55a6ff8345e692c0f86e5b48e01b996cadc001622fb5e363b421",
            "stateRoot" : "0x517f2cdf6adb1a644878c390ffab4e130f1bed4b498ef7ce58c5addd98d61018",
            "timestamp" : "0x0",
            "transactionsTrie" : "0x56e81f171bcc55a6ff8345e692c0f86e5b48e01b996cadc001622fb5e363b421",
            "uncleHash" : "0x1dcc4de8dec75d7aab85b567b6ccd41ad312451b948a7413f0a142fd40d49347"
        },
        "pre" : {
            "0xa94f5374fce5edbc8e2a8697c15331677e6ebf0b" : {
                "balance" : "0x0de0b6b3a7640000",
                "code" : "0x",
                "nonce" : "0x00",
                "storage" : {
                }
            }
        },
        "postState" : {
            "0xa94f5374fce5edbc8e2a8697c15331677e6ebf0b" : {
                "code" : "0x",
                "nonce" : "0x01",
                "balance" : "0x0de0b6b3a762e252",
                "storage" : {
                }
            },
            "0x2adc25665018aa1fe0e6bc666dac8fc2697ff9ba" : {
                "code" : "0x",
                "nonce" : "0x00",
                "balance" : "0x1bc16d674ec91dae",
                "storage" : {
                }
            },
            "0x6295ee1b4f6dd65047762f924ecd367c17eabf8f" : {
                "code" : "0x",
                "nonce" : "0x01",
                "balance" : "0x00",
                "storage" : {
                    "0x00" : "0x01"
                }
            }
        },
        "network" : "Istanbul",
        "sealEngine" : "NoProof",
        "lastblockhash" : "0x54ffff947518d6cbe2abb27cffca9fae44ad25d51019a7d03f973d9499e53a58",
        "genesisRLP" : "0xf901f8f901f3a00000000000000000000000000000000000000000000000000000000000000000a01dcc4de8dec75d7aab85b567b6ccd41ad312451b948a7413f0a142fd40d49347942adc25665018aa1fe0e6bc666dac8fc2697ff9baa0517f2cdf6adb1a644878c390ffab4e130f1bed4b498ef7ce58c5addd98d61018a056e81f171bcc55a6ff8345e692c0f86e5b48e01b996cadc001622fb5e363b421a056e81f171bcc55a6ff8345e692c0f86e5b48e01b996cadc001622fb5e363b421b90100000000000000000000000000000000000000000000000000000000000000000000000000000000000000000000000000000000000000000000000000000000000000000000000000000000000000000000000000000000000000000000000000000000000000000000000000000000000000000000000000000000000000000000000000000000000000000000000000000000000000000000000000000000000000000000000000000000000000000000000000000000000000000000000000000000000000000000000000000000000000000000000000000000000000000000000000000000000000000000000000000000000000000000000000000000008302000080830f4240808000a00000000000000000000000000000000000000000000000000000000000000000880000000000000000c0c0",
        "blocks" : [
            {
                "rlp" : "0xf90255f901f8a0a8445744e5e42ac5931ea7566f871654a86fa5b14a30731467675e7d25ed2fbba01dcc4de8dec75d7aab85b567b6ccd41ad312451b948a7413f0a142fd40d49347942adc25665018aa1fe0e6bc666dac8fc2697ff9baa07d072566156309e274c52ed688f7cd0bd0fc9cbd6c077888da999c92246acdd8a08232905b80d4f1da44e0b9c6408b7ca1c1945f4ee17b50971a95f6782f24587ba0072ab2476fb441511ae22aad943fd99a2b6431d0059e938a460ca07597af1d9cb90100000000000000000000000000000000000000000000000000000000000000000000000000000000000000000000000000000000000000000000000000000000000000000000000000000000000000000000000000000000000000000000000000000000000000000000000000000000000000000000000000000000000000000000000000000000000000000000000000000000000000000000000000000000000000000000000000000000000000000000000000000000000000000000000000000000000000000000000000000000000000000000000000000000000000000000000000000000000000000000000000000000000000000000000000000000008302000001830f460f83011dae8203e800a00000000000000000000000000000000000000000000000000000000000000000880000000000000000f857f855800183061a808080896001600060010755001ba04a3c3c23111bc799aa3593a0ffaaba6b0642c8b1d07feed371480f69ffc59fb5a039dab06c35a6f75b7ea80e9ffab910506cf6ef1fa0a9604ca355fcde0f830533c0",
                "blockHeader" : {
                    "bloom" : "0x00000000000000000000000000000000000000000000000000000000000000000000000000000000000000000000000000000000000000000000000000000000000000000000000000000000000000000000000000000000000000000000000000000000000000000000000000000000000000000000000000000000000000000000000000000000000000000000000000000000000000000000000000000000000000000000000000000000000000000000000000000000000000000000000000000000000000000000000000000000000000000000000000000000000000000000000000000000000000000000000000000000000000000000000000000000",
                    "coinbase" : "0x2adc25665018aa1fe0e6bc666dac8fc2697ff9ba",
                    "difficulty" : "0x20000",
                    "extraData" : "0x00",
                    "gasLimit" : "0xf460f",
                    "gasUsed" : "0x11dae",
                    "hash" : "0x54ffff947518d6cbe2abb27cffca9fae44ad25d51019a7d03f973d9499e53a58",
                    "mixHash" : "0x0000000000000000000000000000000000000000000000000000000000000000",
                    "nonce" : "0x0000000000000000",
                    "number" : "0x1",
                    "parentHash" : "0xa8445744e5e42ac5931ea7566f871654a86fa5b14a30731467675e7d25ed2fbb",
                    "receiptTrie" : "0x072ab2476fb441511ae22aad943fd99a2b6431d0059e938a460ca07597af1d9c",
                    "stateRoot" : "0x7d072566156309e274c52ed688f7cd0bd0fc9cbd6c077888da999c92246acdd8",
                    "timestamp" : "0x3e8",
                    "transactionsTrie" : "0x8232905b80d4f1da44e0b9c6408b7ca1c1945f4ee17b50971a95f6782f24587b",
                    "uncleHash" : "0x1dcc4de8dec75d7aab85b567b6ccd41ad312451b948a7413f0a142fd40d49347"
                },
                "transactions" : [
                    {
                        "data" : "0x600160006001075500",
                        "gasLimit" : "0x061a80",
                        "gasPrice" : "0x01",
                        "nonce" : "0x00",
                        "to" : "",
                        "value" : "0x00",
                        "v" : "0x1b",
                        "r" : "0x4a3c3c23111bc799aa3593a0ffaaba6b0642c8b1d07feed371480f69ffc59fb5",
                        "s" : "0x39dab06c35a6f75b7ea80e9ffab910506cf6ef1fa0a9604ca355fcde0f830533"
                    }
                ]
            }
        ]
    }
}