{
    "ContractInheritance_d0g0v0_Istanbul" : {
        "_info" : {
            "comment" : "",
            "filling-rpc-server" : "Geth-1.9.6-unstable-63b18027-20190920",
            "filling-tool-version" : "retesteth-0.0.1+commit.0ae18aef.Linux.g++",
            "lllcversion" : "Version: 0.5.12-develop.2019.9.13+commit.2d601a4f.Linux.g++",
            "source" : "src/GeneralStateTestsFiller/stSolidityTest/ContractInheritanceFiller.json",
            "sourceHash" : "7aa99f4963f5a43e561d9a5c59c928ad60d180af26d3ae093c79771c4b5d8aee"
        },
        "genesisBlockHeader" : {
            "bloom" : "0x00000000000000000000000000000000000000000000000000000000000000000000000000000000000000000000000000000000000000000000000000000000000000000000000000000000000000000000000000000000000000000000000000000000000000000000000000000000000000000000000000000000000000000000000000000000000000000000000000000000000000000000000000000000000000000000000000000000000000000000000000000000000000000000000000000000000000000000000000000000000000000000000000000000000000000000000000000000000000000000000000000000000000000000000000000000",
            "coinbase" : "0x2adc25665018aa1fe0e6bc666dac8fc2697ff9ba",
            "difficulty" : "0x20000",
            "extraData" : "0x00",
            "gasLimit" : "0x7fffffffffffffff",
            "gasUsed" : "0x0",
            "hash" : "0x2a23dbbc50fb5758cf36dbda01662bd0fd89c3fd48a2c6169120c503ab6233a8",
            "mixHash" : "0x0000000000000000000000000000000000000000000000000000000000000000",
            "nonce" : "0x0000000000000000",
            "number" : "0x0",
            "parentHash" : "0x0000000000000000000000000000000000000000000000000000000000000000",
            "receiptTrie" : "0x56e81f171bcc55a6ff8345e692c0f86e5b48e01b996cadc001622fb5e363b421",
            "stateRoot" : "0x541e90277b6d53ec0b6d69b093e16bfdbc841846cb08c62ee7d581554a0ddbc0",
            "timestamp" : "0x0",
            "transactionsTrie" : "0x56e81f171bcc55a6ff8345e692c0f86e5b48e01b996cadc001622fb5e363b421",
            "uncleHash" : "0x1dcc4de8dec75d7aab85b567b6ccd41ad312451b948a7413f0a142fd40d49347"
        },
        "pre" : {
            "0x095e7baea6a6c7c4c2dfeb977efac326af552d87" : {
                "balance" : "0x0186a0",
                "code" : "0x7c010000000000000000000000000000000000000000000000000000000060003504633e0bca3b8114610039578063c0406226146100a857005b6100b55b600160008060456101ec8339604560006000f091508173ffffffffffffffffffffffffffffffffffffffff166381bda09b60206000827c010000000000000000000000000000000000000000000000000000000002600052600460006000866161da5a03f161011957005b6100bf60006100c961003d565b8060005260206000f35b8060005260206000f35b600080547fffffffffffffffffffffffffffffffffffffffffffffffffffffffffffffff0016919091179081905560ff16919050565b505060005163ffffffff166002141561019d575b5b505090565b505060005163ffffffff1660011415610194575b60456101a7600039604560006000f090508073ffffffffffffffffffffffffffffffffffffffff166381bda09b60206000827c010000000000000000000000000000000000000000000000000000000002600052600460006000866161da5a03f16100ff57005b60009250610114565b600092506101145600603980600c6000396000f3007c0100000000000000000000000000000000000000000000000000000000600035046381bda09b8114602d57005b60026000818152602090f3603980600c6000396000f3007c0100000000000000000000000000000000000000000000000000000000600035046381bda09b8114602d57005b60016000818152602090f3",
                "nonce" : "0x00",
                "storage" : {
                }
            },
            "0xa94f5374fce5edbc8e2a8697c15331677e6ebf0b" : {
                "balance" : "0x02faf080",
                "code" : "0x",
                "nonce" : "0x00",
                "storage" : {
                }
            }
        },
        "postState" : {
            "0xa94f5374fce5edbc8e2a8697c15331677e6ebf0b" : {
                "code" : "0x",
                "nonce" : "0x01",
                "balance" : "0x02f8f1e2",
                "storage" : {
                }
            },
            "0x095e7baea6a6c7c4c2dfeb977efac326af552d87" : {
                "code" : "0x7c010000000000000000000000000000000000000000000000000000000060003504633e0bca3b8114610039578063c0406226146100a857005b6100b55b600160008060456101ec8339604560006000f091508173ffffffffffffffffffffffffffffffffffffffff166381bda09b60206000827c010000000000000000000000000000000000000000000000000000000002600052600460006000866161da5a03f161011957005b6100bf60006100c961003d565b8060005260206000f35b8060005260206000f35b600080547fffffffffffffffffffffffffffffffffffffffffffffffffffffffffffffff0016919091179081905560ff16919050565b505060005163ffffffff166002141561019d575b5b505090565b505060005163ffffffff1660011415610194575b60456101a7600039604560006000f090508073ffffffffffffffffffffffffffffffffffffffff166381bda09b60206000827c010000000000000000000000000000000000000000000000000000000002600052600460006000866161da5a03f16100ff57005b60009250610114565b600092506101145600603980600c6000396000f3007c0100000000000000000000000000000000000000000000000000000000600035046381bda09b8114602d57005b60026000818152602090f3603980600c6000396000f3007c0100000000000000000000000000000000000000000000000000000000600035046381bda09b8114602d57005b60016000818152602090f3",
                "nonce" : "0x02",
                "balance" : "0x0186a0",
                "storage" : {
                    "0x00" : "0x01"
                }
            },
            "0xd2571607e241ecf590ed94b12d87c94babe36db6" : {
                "code" : "0x7c0100000000000000000000000000000000000000000000000000000000600035046381bda09b8114602d57005b60016000818152602090f3",
                "nonce" : "0x01",
                "balance" : "0x00",
                "storage" : {
                }
            },
            "0x2adc25665018aa1fe0e6bc666dac8fc2697ff9ba" : {
                "code" : "0x",
                "nonce" : "0x00",
                "balance" : "0x1bc16d674ec9fe9e",
                "storage" : {
                }
            },
            "0xb88de88b35ecbf3c141e3caae2baf35834d18f63" : {
                "code" : "0x7c0100000000000000000000000000000000000000000000000000000000600035046381bda09b8114602d57005b60026000818152602090f3",
                "nonce" : "0x01",
                "balance" : "0x00",
                "storage" : {
                }
            }
        },
        "network" : "Istanbul",
        "sealEngine" : "NoProof",
        "lastblockhash" : "0x4a47ebf957d623ce969562502ce0defa5cc13afdea7452cd29703c015403b46b",
        "genesisRLP" : "0xf901fdf901f8a00000000000000000000000000000000000000000000000000000000000000000a01dcc4de8dec75d7aab85b567b6ccd41ad312451b948a7413f0a142fd40d49347942adc25665018aa1fe0e6bc666dac8fc2697ff9baa0541e90277b6d53ec0b6d69b093e16bfdbc841846cb08c62ee7d581554a0ddbc0a056e81f171bcc55a6ff8345e692c0f86e5b48e01b996cadc001622fb5e363b421a056e81f171bcc55a6ff8345e692c0f86e5b48e01b996cadc001622fb5e363b421b90100000000000000000000000000000000000000000000000000000000000000000000000000000000000000000000000000000000000000000000000000000000000000000000000000000000000000000000000000000000000000000000000000000000000000000000000000000000000000000000000000000000000000000000000000000000000000000000000000000000000000000000000000000000000000000000000000000000000000000000000000000000000000000000000000000000000000000000000000000000000000000000000000000000000000000000000000000000000000000000000000000000000000000000000000000000008302000080887fffffffffffffff808000a00000000000000000000000000000000000000000000000000000000000000000880000000000000000c0c0",
        "blocks" : [
            {
                "rlp" : "0xf9026af901fda02a23dbbc50fb5758cf36dbda01662bd0fd89c3fd48a2c6169120c503ab6233a8a01dcc4de8dec75d7aab85b567b6ccd41ad312451b948a7413f0a142fd40d49347942adc25665018aa1fe0e6bc666dac8fc2697ff9baa0fdfc3fb377f58f00d9636e732a704c4ff97741332ce73d591517a066ee5d84f4a07ac566294ed3512f8e0d2d8f9d26f6444d714df51f76b82f9218ea8e40ca1e05a07c334bc616c8af9d0f2a20cd70d1fdfef21855ce9264a2b4766447dd29235b33b90100000000000000000000000000000000000000000000000000000000000000000000000000000000000000000000000000000000000000000000000000000000000000000000000000000000000000000000000000000000000000000000000000000000000000000000000000000000000000000000000000000000000000000000000000000000000000000000000000000000000000000000000000000000000000000000000000000000000000000000000000000000000000000000000000000000000000000000000000000000000000000000000000000000000000000000000000000000000000000000000000000000000000000000000000000000008302000001887fffffffffffffff8301fe9e8203e800a00000000000000000000000000000000000000000000000000000000000000000880000000000000000f867f86580018402160ec094095e7baea6a6c7c4c2dfeb977efac326af552d878084c04062261ca03ba06ba2264c9b13af9e362a1923b6e13ed81e3a0395712dde9ba065d55b22fea0479bff8d4b24cb7ecaf24bd2d79fe31ffca0d02e874bc96354f79c5a9afba98cc0",
                "blockHeader" : {
                    "bloom" : "0x00000000000000000000000000000000000000000000000000000000000000000000000000000000000000000000000000000000000000000000000000000000000000000000000000000000000000000000000000000000000000000000000000000000000000000000000000000000000000000000000000000000000000000000000000000000000000000000000000000000000000000000000000000000000000000000000000000000000000000000000000000000000000000000000000000000000000000000000000000000000000000000000000000000000000000000000000000000000000000000000000000000000000000000000000000000",
                    "coinbase" : "0x2adc25665018aa1fe0e6bc666dac8fc2697ff9ba",
                    "difficulty" : "0x20000",
                    "extraData" : "0x00",
                    "gasLimit" : "0x7fffffffffffffff",
                    "gasUsed" : "0x1fe9e",
                    "hash" : "0x4a47ebf957d623ce969562502ce0defa5cc13afdea7452cd29703c015403b46b",
                    "mixHash" : "0x0000000000000000000000000000000000000000000000000000000000000000",
                    "nonce" : "0x0000000000000000",
                    "number" : "0x1",
                    "parentHash" : "0x2a23dbbc50fb5758cf36dbda01662bd0fd89c3fd48a2c6169120c503ab6233a8",
                    "receiptTrie" : "0x7c334bc616c8af9d0f2a20cd70d1fdfef21855ce9264a2b4766447dd29235b33",
                    "stateRoot" : "0xfdfc3fb377f58f00d9636e732a704c4ff97741332ce73d591517a066ee5d84f4",
                    "timestamp" : "0x3e8",
                    "transactionsTrie" : "0x7ac566294ed3512f8e0d2d8f9d26f6444d714df51f76b82f9218ea8e40ca1e05",
                    "uncleHash" : "0x1dcc4de8dec75d7aab85b567b6ccd41ad312451b948a7413f0a142fd40d49347"
                },
                "transactions" : [
                    {
                        "data" : "0xc0406226",
                        "gasLimit" : "0x02160ec0",
                        "gasPrice" : "0x01",
                        "nonce" : "0x00",
                        "to" : "0x095e7baea6a6c7c4c2dfeb977efac326af552d87",
                        "value" : "0x00",
                        "v" : "0x1c",
                        "r" : "0x3ba06ba2264c9b13af9e362a1923b6e13ed81e3a0395712dde9ba065d55b22fe",
                        "s" : "0x479bff8d4b24cb7ecaf24bd2d79fe31ffca0d02e874bc96354f79c5a9afba98c"
                    }
                ]
            }
        ]
    }
}