{
    "TestOverflow_d0g0v0_Istanbul" : {
        "_info" : {
            "comment" : "",
            "filling-rpc-server" : "Geth-1.9.6-unstable-63b18027-20190920",
            "filling-tool-version" : "retesteth-0.0.1+commit.0ae18aef.Linux.g++",
            "lllcversion" : "Version: 0.5.12-develop.2019.9.13+commit.2d601a4f.Linux.g++",
            "source" : "src/GeneralStateTestsFiller/stSolidityTest/TestOverflowFiller.json",
            "sourceHash" : "6598066cd11b4dcaf8f07f6fb1c0ac55fd97a7fdeb4f5bfc922dbcd5bc27568b"
        },
        "genesisBlockHeader" : {
            "bloom" : "0x00000000000000000000000000000000000000000000000000000000000000000000000000000000000000000000000000000000000000000000000000000000000000000000000000000000000000000000000000000000000000000000000000000000000000000000000000000000000000000000000000000000000000000000000000000000000000000000000000000000000000000000000000000000000000000000000000000000000000000000000000000000000000000000000000000000000000000000000000000000000000000000000000000000000000000000000000000000000000000000000000000000000000000000000000000000",
            "coinbase" : "0x2adc25665018aa1fe0e6bc666dac8fc2697ff9ba",
            "difficulty" : "0x20000",
            "extraData" : "0x00",
            "gasLimit" : "0x7fffffffffffffff",
            "gasUsed" : "0x0",
            "hash" : "0xe39f2de37999a334f66516909bb3e7f1e13ba330052f8f817f15ca5b0662a6f2",
            "mixHash" : "0x0000000000000000000000000000000000000000000000000000000000000000",
            "nonce" : "0x0000000000000000",
            "number" : "0x0",
            "parentHash" : "0x0000000000000000000000000000000000000000000000000000000000000000",
            "receiptTrie" : "0x56e81f171bcc55a6ff8345e692c0f86e5b48e01b996cadc001622fb5e363b421",
            "stateRoot" : "0x406245bf6d5687082ad42d88d31628cf2a49427556d762ed794585451552d9a5",
            "timestamp" : "0x0",
            "transactionsTrie" : "0x56e81f171bcc55a6ff8345e692c0f86e5b48e01b996cadc001622fb5e363b421",
            "uncleHash" : "0x1dcc4de8dec75d7aab85b567b6ccd41ad312451b948a7413f0a142fd40d49347"
        },
        "pre" : {
            "0x095e7baea6a6c7c4c2dfeb977efac326af552d87" : {
                "balance" : "0x0186a0",
                "code" : "0x6000357c0100000000000000000000000000000000000000000000000000000000900480638040cac41461003a578063c04062261461004c57005b610042610099565b8060005260206000f35b61005461005e565b8060005260206000f35b6000610068610099565b600060006101000a81548160ff02191690830217905550600060009054906101000a900460ff169050610096565b90565b60006000600060006001935083507fffffffffffffffffffffffffffffffffffffffffffffffffffffffffffffffff925060006001840114156100db576100e4565b6000935061013b565b63ffffffff915060006001830163ffffffff1614156101025761010b565b6000935061013b565b67ffffffffffffffff905060006001820167ffffffffffffffff1614156101315761013a565b6000935061013b565b5b5050509056",
                "nonce" : "0x00",
                "storage" : {
                }
            },
            "0xa94f5374fce5edbc8e2a8697c15331677e6ebf0b" : {
                "balance" : "0x02faf080",
                "code" : "0x",
                "nonce" : "0x00",
                "storage" : {
                }
            }
        },
        "postState" : {
            "0xa94f5374fce5edbc8e2a8697c15331677e6ebf0b" : {
                "code" : "0x",
                "nonce" : "0x01",
                "balance" : "0x02fa4818",
                "storage" : {
                }
            },
            "0x095e7baea6a6c7c4c2dfeb977efac326af552d87" : {
                "code" : "0x6000357c0100000000000000000000000000000000000000000000000000000000900480638040cac41461003a578063c04062261461004c57005b610042610099565b8060005260206000f35b61005461005e565b8060005260206000f35b6000610068610099565b600060006101000a81548160ff02191690830217905550600060009054906101000a900460ff169050610096565b90565b60006000600060006001935083507fffffffffffffffffffffffffffffffffffffffffffffffffffffffffffffffff925060006001840114156100db576100e4565b6000935061013b565b63ffffffff915060006001830163ffffffff1614156101025761010b565b6000935061013b565b67ffffffffffffffff905060006001820167ffffffffffffffff1614156101315761013a565b6000935061013b565b5b5050509056",
                "nonce" : "0x00",
                "balance" : "0x0186a0",
                "storage" : {
                    "0x00" : "0x01"
                }
            },
            "0x2adc25665018aa1fe0e6bc666dac8fc2697ff9ba" : {
                "code" : "0x",
                "nonce" : "0x00",
                "balance" : "0x1bc16d674ec8a868",
                "storage" : {
                }
            }
        },
        "network" : "Istanbul",
        "sealEngine" : "NoProof",
        "lastblockhash" : "0xd3b60a5c173c56514659d5b7429387514db92727e8588967998107dacb996003",
        "genesisRLP" : "0xf901fdf901f8a00000000000000000000000000000000000000000000000000000000000000000a01dcc4de8dec75d7aab85b567b6ccd41ad312451b948a7413f0a142fd40d49347942adc25665018aa1fe0e6bc666dac8fc2697ff9baa0406245bf6d5687082ad42d88d31628cf2a49427556d762ed794585451552d9a5a056e81f171bcc55a6ff8345e692c0f86e5b48e01b996cadc001622fb5e363b421a056e81f171bcc55a6ff8345e692c0f86e5b48e01b996cadc001622fb5e363b421b90100000000000000000000000000000000000000000000000000000000000000000000000000000000000000000000000000000000000000000000000000000000000000000000000000000000000000000000000000000000000000000000000000000000000000000000000000000000000000000000000000000000000000000000000000000000000000000000000000000000000000000000000000000000000000000000000000000000000000000000000000000000000000000000000000000000000000000000000000000000000000000000000000000000000000000000000000000000000000000000000000000000000000000000000000000000008302000080887fffffffffffffff808000a00000000000000000000000000000000000000000000000000000000000000000880000000000000000c0c0",
        "blocks" : [
            {
                "rlp" : "0xf90269f901fca0e39f2de37999a334f66516909bb3e7f1e13ba330052f8f817f15ca5b0662a6f2a01dcc4de8dec75d7aab85b567b6ccd41ad312451b948a7413f0a142fd40d49347942adc25665018aa1fe0e6bc666dac8fc2697ff9baa0ebed1d739b6b85a5d37c747d035242d02cc4c015fffa5270659b127c017a5550a07ac566294ed3512f8e0d2d8f9d26f6444d714df51f76b82f9218ea8e40ca1e05a006f890d54ec65d8650b6c73eefd1fbc39f78b5b25f4e1ec10885c9f29f84ee98b90100000000000000000000000000000000000000000000000000000000000000000000000000000000000000000000000000000000000000000000000000000000000000000000000000000000000000000000000000000000000000000000000000000000000000000000000000000000000000000000000000000000000000000000000000000000000000000000000000000000000000000000000000000000000000000000000000000000000000000000000000000000000000000000000000000000000000000000000000000000000000000000000000000000000000000000000000000000000000000000000000000000000000000000000000000000008302000001887fffffffffffffff82a8688203e800a00000000000000000000000000000000000000000000000000000000000000000880000000000000000f867f86580018402160ec094095e7baea6a6c7c4c2dfeb977efac326af552d878084c04062261ca03ba06ba2264c9b13af9e362a1923b6e13ed81e3a0395712dde9ba065d55b22fea0479bff8d4b24cb7ecaf24bd2d79fe31ffca0d02e874bc96354f79c5a9afba98cc0",
                "blockHeader" : {
                    "bloom" : "0x00000000000000000000000000000000000000000000000000000000000000000000000000000000000000000000000000000000000000000000000000000000000000000000000000000000000000000000000000000000000000000000000000000000000000000000000000000000000000000000000000000000000000000000000000000000000000000000000000000000000000000000000000000000000000000000000000000000000000000000000000000000000000000000000000000000000000000000000000000000000000000000000000000000000000000000000000000000000000000000000000000000000000000000000000000000",
                    "coinbase" : "0x2adc25665018aa1fe0e6bc666dac8fc2697ff9ba",
                    "difficulty" : "0x20000",
                    "extraData" : "0x00",
                    "gasLimit" : "0x7fffffffffffffff",
                    "gasUsed" : "0xa868",
                    "hash" : "0xd3b60a5c173c56514659d5b7429387514db92727e8588967998107dacb996003",
                    "mixHash" : "0x0000000000000000000000000000000000000000000000000000000000000000",
                    "nonce" : "0x0000000000000000",
                    "number" : "0x1",
                    "parentHash" : "0xe39f2de37999a334f66516909bb3e7f1e13ba330052f8f817f15ca5b0662a6f2",
                    "receiptTrie" : "0x06f890d54ec65d8650b6c73eefd1fbc39f78b5b25f4e1ec10885c9f29f84ee98",
                    "stateRoot" : "0xebed1d739b6b85a5d37c747d035242d02cc4c015fffa5270659b127c017a5550",
                    "timestamp" : "0x3e8",
                    "transactionsTrie" : "0x7ac566294ed3512f8e0d2d8f9d26f6444d714df51f76b82f9218ea8e40ca1e05",
                    "uncleHash" : "0x1dcc4de8dec75d7aab85b567b6ccd41ad312451b948a7413f0a142fd40d49347"
                },
                "transactions" : [
                    {
                        "data" : "0xc0406226",
                        "gasLimit" : "0x02160ec0",
                        "gasPrice" : "0x01",
                        "nonce" : "0x00",
                        "to" : "0x095e7baea6a6c7c4c2dfeb977efac326af552d87",
                        "value" : "0x00",
                        "v" : "0x1c",
                        "r" : "0x3ba06ba2264c9b13af9e362a1923b6e13ed81e3a0395712dde9ba065d55b22fe",
                        "s" : "0x479bff8d4b24cb7ecaf24bd2d79fe31ffca0d02e874bc96354f79c5a9afba98c"
                    }
                ]
            }
        ]
    }
}