{
    "TestStoreGasPrices_d0g0v0_Istanbul" : {
        "_info" : {
            "comment" : "",
            "filling-rpc-server" : "Geth-1.9.6-unstable-63b18027-20190920",
            "filling-tool-version" : "retesteth-0.0.1+commit.0ae18aef.Linux.g++",
            "lllcversion" : "Version: 0.5.12-develop.2019.9.13+commit.2d601a4f.Linux.g++",
            "source" : "src/GeneralStateTestsFiller/stSolidityTest/TestStoreGasPricesFiller.json",
            "sourceHash" : "2dcc76ccc255fb319cb9f75e2b68c5b332b92abdea005c80fd22035e20c0ea4f"
        },
        "genesisBlockHeader" : {
            "bloom" : "0x00000000000000000000000000000000000000000000000000000000000000000000000000000000000000000000000000000000000000000000000000000000000000000000000000000000000000000000000000000000000000000000000000000000000000000000000000000000000000000000000000000000000000000000000000000000000000000000000000000000000000000000000000000000000000000000000000000000000000000000000000000000000000000000000000000000000000000000000000000000000000000000000000000000000000000000000000000000000000000000000000000000000000000000000000000000",
            "coinbase" : "0x2adc25665018aa1fe0e6bc666dac8fc2697ff9ba",
            "difficulty" : "0x20000",
            "extraData" : "0x00",
            "gasLimit" : "0x7fffffffffffffff",
            "gasUsed" : "0x0",
            "hash" : "0x005663fbe808e78d5cb62ac9a512788535aabe3e0bfabd9729e599d3f762a68f",
            "mixHash" : "0x0000000000000000000000000000000000000000000000000000000000000000",
            "nonce" : "0x0000000000000000",
            "number" : "0x0",
            "parentHash" : "0x0000000000000000000000000000000000000000000000000000000000000000",
            "receiptTrie" : "0x56e81f171bcc55a6ff8345e692c0f86e5b48e01b996cadc001622fb5e363b421",
            "stateRoot" : "0xfbafc42f4c1e19667dd7941190f9ecde3c77fae9bb1930e3f7d3c8a22696bf41",
            "timestamp" : "0x0",
            "transactionsTrie" : "0x56e81f171bcc55a6ff8345e692c0f86e5b48e01b996cadc001622fb5e363b421",
            "uncleHash" : "0x1dcc4de8dec75d7aab85b567b6ccd41ad312451b948a7413f0a142fd40d49347"
        },
        "pre" : {
            "0x095e7baea6a6c7c4c2dfeb977efac326af552d87" : {
                "balance" : "0x0186a0",
                "code" : "0x7c01000000000000000000000000000000000000000000000000000000006000350463c04062268114602d57005b6033603d565b8060005260206000f35b600060005a600160205590505a81036000555a600260205590505a81036001555a600260205590505a81036002555a65168aa8d53fe660205590505a81036003555a600260205590505a81036004555a600060205590505a81036005555a5060019291505056",
                "nonce" : "0x00",
                "storage" : {
                }
            },
            "0xa94f5374fce5edbc8e2a8697c15331677e6ebf0b" : {
                "balance" : "0x02faf080",
                "code" : "0x",
                "nonce" : "0x00",
                "storage" : {
                }
            }
        },
        "postState" : {
            "0xa94f5374fce5edbc8e2a8697c15331677e6ebf0b" : {
                "code" : "0x",
                "nonce" : "0x01",
                "balance" : "0x02f8b5c2",
                "storage" : {
                }
            },
            "0x095e7baea6a6c7c4c2dfeb977efac326af552d87" : {
                "code" : "0x7c01000000000000000000000000000000000000000000000000000000006000350463c04062268114602d57005b6033603d565b8060005260206000f35b600060005a600160205590505a81036000555a600260205590505a81036001555a600260205590505a81036002555a65168aa8d53fe660205590505a81036003555a600260205590505a81036004555a600060205590505a81036005555a5060019291505056",
                "nonce" : "0x00",
                "balance" : "0x0186a0",
                "storage" : {
                    "0x05" : "0x032d",
                    "0x00" : "0x4e2d",
                    "0x02" : "0x032d",
                    "0x04" : "0x032d",
                    "0x01" : "0x032d",
                    "0x03" : "0x032d"
                }
            },
            "0x2adc25665018aa1fe0e6bc666dac8fc2697ff9ba" : {
                "code" : "0x",
                "nonce" : "0x00",
                "balance" : "0x1bc16d674eca3abe",
                "storage" : {
                }
            }
        },
        "network" : "Istanbul",
        "sealEngine" : "NoProof",
        "lastblockhash" : "0x6ed4baf1cf7cd35a45380d997d805921190cd9f4c8042d3583b242a8f5bfebf2",
        "genesisRLP" : "0xf901fdf901f8a00000000000000000000000000000000000000000000000000000000000000000a01dcc4de8dec75d7aab85b567b6ccd41ad312451b948a7413f0a142fd40d49347942adc25665018aa1fe0e6bc666dac8fc2697ff9baa0fbafc42f4c1e19667dd7941190f9ecde3c77fae9bb1930e3f7d3c8a22696bf41a056e81f171bcc55a6ff8345e692c0f86e5b48e01b996cadc001622fb5e363b421a056e81f171bcc55a6ff8345e692c0f86e5b48e01b996cadc001622fb5e363b421b90100000000000000000000000000000000000000000000000000000000000000000000000000000000000000000000000000000000000000000000000000000000000000000000000000000000000000000000000000000000000000000000000000000000000000000000000000000000000000000000000000000000000000000000000000000000000000000000000000000000000000000000000000000000000000000000000000000000000000000000000000000000000000000000000000000000000000000000000000000000000000000000000000000000000000000000000000000000000000000000000000000000000000000000000000000000008302000080887fffffffffffffff808000a00000000000000000000000000000000000000000000000000000000000000000880000000000000000c0c0",
        "blocks" : [
            {
                "rlp" : "0xf9026af901fda0005663fbe808e78d5cb62ac9a512788535aabe3e0bfabd9729e599d3f762a68fa01dcc4de8dec75d7aab85b567b6ccd41ad312451b948a7413f0a142fd40d49347942adc25665018aa1fe0e6bc666dac8fc2697ff9baa0875c376b1d5618cb2cad7467f39cc5d8f83fa81662513c66c66ff0cc70afc7c0a07ac566294ed3512f8e0d2d8f9d26f6444d714df51f76b82f9218ea8e40ca1e05a0d45bd988fd4a638831558e3b6fdc61303f01e34fbe659f262e07d3c67a51bdfeb90100000000000000000000000000000000000000000000000000000000000000000000000000000000000000000000000000000000000000000000000000000000000000000000000000000000000000000000000000000000000000000000000000000000000000000000000000000000000000000000000000000000000000000000000000000000000000000000000000000000000000000000000000000000000000000000000000000000000000000000000000000000000000000000000000000000000000000000000000000000000000000000000000000000000000000000000000000000000000000000000000000000000000000000000000000000008302000001887fffffffffffffff83023abe8203e800a00000000000000000000000000000000000000000000000000000000000000000880000000000000000f867f86580018402160ec094095e7baea6a6c7c4c2dfeb977efac326af552d878084c04062261ca03ba06ba2264c9b13af9e362a1923b6e13ed81e3a0395712dde9ba065d55b22fea0479bff8d4b24cb7ecaf24bd2d79fe31ffca0d02e874bc96354f79c5a9afba98cc0",
                "blockHeader" : {
                    "bloom" : "0x00000000000000000000000000000000000000000000000000000000000000000000000000000000000000000000000000000000000000000000000000000000000000000000000000000000000000000000000000000000000000000000000000000000000000000000000000000000000000000000000000000000000000000000000000000000000000000000000000000000000000000000000000000000000000000000000000000000000000000000000000000000000000000000000000000000000000000000000000000000000000000000000000000000000000000000000000000000000000000000000000000000000000000000000000000000",
                    "coinbase" : "0x2adc25665018aa1fe0e6bc666dac8fc2697ff9ba",
                    "difficulty" : "0x20000",
                    "extraData" : "0x00",
                    "gasLimit" : "0x7fffffffffffffff",
                    "gasUsed" : "0x23abe",
                    "hash" : "0x6ed4baf1cf7cd35a45380d997d805921190cd9f4c8042d3583b242a8f5bfebf2",
                    "mixHash" : "0x0000000000000000000000000000000000000000000000000000000000000000",
                    "nonce" : "0x0000000000000000",
                    "number" : "0x1",
                    "parentHash" : "0x005663fbe808e78d5cb62ac9a512788535aabe3e0bfabd9729e599d3f762a68f",
                    "receiptTrie" : "0xd45bd988fd4a638831558e3b6fdc61303f01e34fbe659f262e07d3c67a51bdfe",
                    "stateRoot" : "0x875c376b1d5618cb2cad7467f39cc5d8f83fa81662513c66c66ff0cc70afc7c0",
                    "timestamp" : "0x3e8",
                    "transactionsTrie" : "0x7ac566294ed3512f8e0d2d8f9d26f6444d714df51f76b82f9218ea8e40ca1e05",
                    "uncleHash" : "0x1dcc4de8dec75d7aab85b567b6ccd41ad312451b948a7413f0a142fd40d49347"
                },
                "transactions" : [
                    {
                        "data" : "0xc0406226",
                        "gasLimit" : "0x02160ec0",
                        "gasPrice" : "0x01",
                        "nonce" : "0x00",
                        "to" : "0x095e7baea6a6c7c4c2dfeb977efac326af552d87",
                        "value" : "0x00",
                        "v" : "0x1c",
                        "r" : "0x3ba06ba2264c9b13af9e362a1923b6e13ed81e3a0395712dde9ba065d55b22fe",
                        "s" : "0x479bff8d4b24cb7ecaf24bd2d79fe31ffca0d02e874bc96354f79c5a9afba98c"
                    }
                ]
            }
        ]
    }
}