{
    "TestStructuresAndVariabless_d0g0v0_Istanbul" : {
        "_info" : {
            "comment" : "",
            "filling-rpc-server" : "Geth-1.9.6-unstable-63b18027-20190920",
            "filling-tool-version" : "retesteth-0.0.1+commit.0ae18aef.Linux.g++",
            "lllcversion" : "Version: 0.5.12-develop.2019.9.13+commit.2d601a4f.Linux.g++",
            "source" : "src/GeneralStateTestsFiller/stSolidityTest/TestStructuresAndVariablessFiller.json",
            "sourceHash" : "6b098ac1aaa0efc43094daaecb751960180971d6b31dc91b8057a753d54e22cb"
        },
        "genesisBlockHeader" : {
            "bloom" : "0x00000000000000000000000000000000000000000000000000000000000000000000000000000000000000000000000000000000000000000000000000000000000000000000000000000000000000000000000000000000000000000000000000000000000000000000000000000000000000000000000000000000000000000000000000000000000000000000000000000000000000000000000000000000000000000000000000000000000000000000000000000000000000000000000000000000000000000000000000000000000000000000000000000000000000000000000000000000000000000000000000000000000000000000000000000000",
            "coinbase" : "0x2adc25665018aa1fe0e6bc666dac8fc2697ff9ba",
            "difficulty" : "0x20000",
            "extraData" : "0x00",
            "gasLimit" : "0x7fffffffffffffff",
            "gasUsed" : "0x0",
            "hash" : "0x969117fd3dc1997141f45925bbe17cb4ebdc574d7b55de509fffe460351e462a",
            "mixHash" : "0x0000000000000000000000000000000000000000000000000000000000000000",
            "nonce" : "0x0000000000000000",
            "number" : "0x0",
            "parentHash" : "0x0000000000000000000000000000000000000000000000000000000000000000",
            "receiptTrie" : "0x56e81f171bcc55a6ff8345e692c0f86e5b48e01b996cadc001622fb5e363b421",
            "stateRoot" : "0x17e091d8ced26108637c9e9bb797ad52373f24cbdca74f276c02d3b99c845727",
            "timestamp" : "0x0",
            "transactionsTrie" : "0x56e81f171bcc55a6ff8345e692c0f86e5b48e01b996cadc001622fb5e363b421",
            "uncleHash" : "0x1dcc4de8dec75d7aab85b567b6ccd41ad312451b948a7413f0a142fd40d49347"
        },
        "pre" : {
            "0x095e7baea6a6c7c4c2dfeb977efac326af552d87" : {
                "balance" : "0x0186a0",
                "code" : "0x7c010000000000000000000000000000000000000000000000000000000060003504632a9afb838114610039578063c04062261461004b57005b61004161005d565b8060005260206000f35b61005361016c565b8060005260206000f35b600160ff8154141561006e57610076565b506000610169565b60015460035414156100875761008f565b506000610169565b73a94f5374fce5edbc8e2a8697c15331677e6ebf0b73ffffffffffffffffffffffffffffffffffffffff60016002540481161614156100cd576100d5565b506000610169565b7f676c6f62616c2064617461203332206c656e67746820737472696e670000000060045414156101045761010c565b506000610169565b6005600080815260200190815260200160002060009054906101000a900473ffffffffffffffffffffffffffffffffffffffff1673a94f5374fce5edbc8e2a8697c15331677e6ebf0b141561016057610168565b506000610169565b5b90565b600060ff806001555073a94f5374fce5edbc8e2a8697c15331677e6ebf0b6002805473ffffffffffffffffffffffffffffffffffffffff1916821790555060ff80600355507f676c6f62616c2064617461203332206c656e67746820737472696e6700000000806004555073a94f5374fce5edbc8e2a8697c15331677e6ebf0b6005600080815260200190815260200160002060006101000a81548173ffffffffffffffffffffffffffffffffffffffff0219169083021790555061022f61005d565b600060006101000a81548160ff0219169083021790555060ff6001600054041690509056",
                "nonce" : "0x00",
                "storage" : {
                }
            },
            "0xa94f5374fce5edbc8e2a8697c15331677e6ebf0b" : {
                "balance" : "0x0f4240",
                "code" : "0x",
                "nonce" : "0x00",
                "storage" : {
                }
            }
        },
        "postState" : {
            "0xa94f5374fce5edbc8e2a8697c15331677e6ebf0b" : {
                "code" : "0x",
                "nonce" : "0x01",
                "balance" : "0x0cf8af",
                "storage" : {
                }
            },
            "0x095e7baea6a6c7c4c2dfeb977efac326af552d87" : {
                "code" : "0x7c010000000000000000000000000000000000000000000000000000000060003504632a9afb838114610039578063c04062261461004b57005b61004161005d565b8060005260206000f35b61005361016c565b8060005260206000f35b600160ff8154141561006e57610076565b506000610169565b60015460035414156100875761008f565b506000610169565b73a94f5374fce5edbc8e2a8697c15331677e6ebf0b73ffffffffffffffffffffffffffffffffffffffff60016002540481161614156100cd576100d5565b506000610169565b7f676c6f62616c2064617461203332206c656e67746820737472696e670000000060045414156101045761010c565b506000610169565b6005600080815260200190815260200160002060009054906101000a900473ffffffffffffffffffffffffffffffffffffffff1673a94f5374fce5edbc8e2a8697c15331677e6ebf0b141561016057610168565b506000610169565b5b90565b600060ff806001555073a94f5374fce5edbc8e2a8697c15331677e6ebf0b6002805473ffffffffffffffffffffffffffffffffffffffff1916821790555060ff80600355507f676c6f62616c2064617461203332206c656e67746820737472696e6700000000806004555073a94f5374fce5edbc8e2a8697c15331677e6ebf0b6005600080815260200190815260200160002060006101000a81548173ffffffffffffffffffffffffffffffffffffffff0219169083021790555061022f61005d565b600060006101000a81548160ff0219169083021790555060ff6001600054041690509056",
                "nonce" : "0x00",
                "balance" : "0x018704",
                "storage" : {
                    "0x00" : "0x01",
                    "0x02" : "0xa94f5374fce5edbc8e2a8697c15331677e6ebf0b",
                    "0x04" : "0x676c6f62616c2064617461203332206c656e67746820737472696e6700000000",
                    "0x01" : "0xff",
                    "0x03" : "0xff",
                    "0x05b8ccbb9d4d8fb16ea74ce3c29a41f1b461fbdaff4714a0d9a8eb05499746bc" : "0xa94f5374fce5edbc8e2a8697c15331677e6ebf0b"
                }
            },
            "0x2adc25665018aa1fe0e6bc666dac8fc2697ff9ba" : {
                "code" : "0x",
                "nonce" : "0x00",
                "balance" : "0x1bc16d674eca492d",
                "storage" : {
                }
            }
        },
        "network" : "Istanbul",
        "sealEngine" : "NoProof",
        "lastblockhash" : "0x3ea84364f46e94328cf366b0470b274191c8ad5d31ba4f05a8f050d278020765",
        "genesisRLP" : "0xf901fdf901f8a00000000000000000000000000000000000000000000000000000000000000000a01dcc4de8dec75d7aab85b567b6ccd41ad312451b948a7413f0a142fd40d49347942adc25665018aa1fe0e6bc666dac8fc2697ff9baa017e091d8ced26108637c9e9bb797ad52373f24cbdca74f276c02d3b99c845727a056e81f171bcc55a6ff8345e692c0f86e5b48e01b996cadc001622fb5e363b421a056e81f171bcc55a6ff8345e692c0f86e5b48e01b996cadc001622fb5e363b421b90100000000000000000000000000000000000000000000000000000000000000000000000000000000000000000000000000000000000000000000000000000000000000000000000000000000000000000000000000000000000000000000000000000000000000000000000000000000000000000000000000000000000000000000000000000000000000000000000000000000000000000000000000000000000000000000000000000000000000000000000000000000000000000000000000000000000000000000000000000000000000000000000000000000000000000000000000000000000000000000000000000000000000000000000000000000008302000080887fffffffffffffff808000a00000000000000000000000000000000000000000000000000000000000000000880000000000000000c0c0",
        "blocks" : [
            {
                "rlp" : "0xf90269f901fda0969117fd3dc1997141f45925bbe17cb4ebdc574d7b55de509fffe460351e462aa01dcc4de8dec75d7aab85b567b6ccd41ad312451b948a7413f0a142fd40d49347942adc25665018aa1fe0e6bc666dac8fc2697ff9baa057ca62da933e3eeb5bc12319c8309cdfdcc10c1a8a5ebedba564c9617b9eb868a0840d8d9c81fbde94d0f1e08263bb5d0d6092fb753f24f2072dcf3dc4b0f198f4a0c2baa3065084adcbd971540aa7545663fd5cab4fd33e21eb4208907d00b411b9b90100000000000000000000000000000000000000000000000000000000000000000000000000000000000000000000000000000000000000000000000000000000000000000000000000000000000000000000000000000000000000000000000000000000000000000000000000000000000000000000000000000000000000000000000000000000000000000000000000000000000000000000000000000000000000000000000000000000000000000000000000000000000000000000000000000000000000000000000000000000000000000000000000000000000000000000000000000000000000000000000000000000000000000000000000000000008302000001887fffffffffffffff8302492d8203e800a00000000000000000000000000000000000000000000000000000000000000000880000000000000000f866f86480018305573094095e7baea6a6c7c4c2dfeb977efac326af552d876484c04062261ba04b5305634acd08c1bdb367bf5e3f44499a16f4157f62241ad9780b31da94af42a057e2df90dc63621d959c8f2d19d15b70b7722d5fb4825348dd710da861e80dafc0",
                "blockHeader" : {
                    "bloom" : "0x00000000000000000000000000000000000000000000000000000000000000000000000000000000000000000000000000000000000000000000000000000000000000000000000000000000000000000000000000000000000000000000000000000000000000000000000000000000000000000000000000000000000000000000000000000000000000000000000000000000000000000000000000000000000000000000000000000000000000000000000000000000000000000000000000000000000000000000000000000000000000000000000000000000000000000000000000000000000000000000000000000000000000000000000000000000",
                    "coinbase" : "0x2adc25665018aa1fe0e6bc666dac8fc2697ff9ba",
                    "difficulty" : "0x20000",
                    "extraData" : "0x00",
                    "gasLimit" : "0x7fffffffffffffff",
                    "gasUsed" : "0x2492d",
                    "hash" : "0x3ea84364f46e94328cf366b0470b274191c8ad5d31ba4f05a8f050d278020765",
                    "mixHash" : "0x0000000000000000000000000000000000000000000000000000000000000000",
                    "nonce" : "0x0000000000000000",
                    "number" : "0x1",
                    "parentHash" : "0x969117fd3dc1997141f45925bbe17cb4ebdc574d7b55de509fffe460351e462a",
                    "receiptTrie" : "0xc2baa3065084adcbd971540aa7545663fd5cab4fd33e21eb4208907d00b411b9",
                    "stateRoot" : "0x57ca62da933e3eeb5bc12319c8309cdfdcc10c1a8a5ebedba564c9617b9eb868",
                    "timestamp" : "0x3e8",
                    "transactionsTrie" : "0x840d8d9c81fbde94d0f1e08263bb5d0d6092fb753f24f2072dcf3dc4b0f198f4",
                    "uncleHash" : "0x1dcc4de8dec75d7aab85b567b6ccd41ad312451b948a7413f0a142fd40d49347"
                },
                "transactions" : [
                    {
                        "data" : "0xc0406226",
                        "gasLimit" : "0x055730",
                        "gasPrice" : "0x01",
                        "nonce" : "0x00",
                        "to" : "0x095e7baea6a6c7c4c2dfeb977efac326af552d87",
                        "value" : "0x64",
                        "v" : "0x1b",
                        "r" : "0x4b5305634acd08c1bdb367bf5e3f44499a16f4157f62241ad9780b31da94af42",
                        "s" : "0x57e2df90dc63621d959c8f2d19d15b70b7722d5fb4825348dd710da861e80daf"
                    }
                ]
            }
        ]
    }
}