{
    "TestKeywords_d0g0v0_Istanbul" : {
        "_info" : {
            "comment" : "",
            "filling-rpc-server" : "Geth-1.9.6-unstable-63b18027-20190920",
            "filling-tool-version" : "retesteth-0.0.1+commit.0ae18aef.Linux.g++",
            "lllcversion" : "Version: 0.5.12-develop.2019.9.13+commit.2d601a4f.Linux.g++",
            "source" : "src/GeneralStateTestsFiller/stSolidityTest/TestKeywordsFiller.json",
            "sourceHash" : "a5651f982b30f9e090653ec7036cfd39ff23b0f5a3aad1d6f2946d687143eb8d"
        },
        "genesisBlockHeader" : {
            "bloom" : "0x00000000000000000000000000000000000000000000000000000000000000000000000000000000000000000000000000000000000000000000000000000000000000000000000000000000000000000000000000000000000000000000000000000000000000000000000000000000000000000000000000000000000000000000000000000000000000000000000000000000000000000000000000000000000000000000000000000000000000000000000000000000000000000000000000000000000000000000000000000000000000000000000000000000000000000000000000000000000000000000000000000000000000000000000000000000",
            "coinbase" : "0x2adc25665018aa1fe0e6bc666dac8fc2697ff9ba",
            "difficulty" : "0x20000",
            "extraData" : "0x00",
            "gasLimit" : "0x5f5e100",
            "gasUsed" : "0x0",
            "hash" : "0xc1f0f4675744d5d57ffc9d2907d1f7b46190037e3adabc30fb5ec84c1c9a870d",
            "mixHash" : "0x0000000000000000000000000000000000000000000000000000000000000000",
            "nonce" : "0x0000000000000000",
            "number" : "0x0",
            "parentHash" : "0x0000000000000000000000000000000000000000000000000000000000000000",
            "receiptTrie" : "0x56e81f171bcc55a6ff8345e692c0f86e5b48e01b996cadc001622fb5e363b421",
            "stateRoot" : "0xe466e2676020d7a701543c69b8d874b0bc13ce7a94baebd5b5e17b90017233d5",
            "timestamp" : "0x0",
            "transactionsTrie" : "0x56e81f171bcc55a6ff8345e692c0f86e5b48e01b996cadc001622fb5e363b421",
            "uncleHash" : "0x1dcc4de8dec75d7aab85b567b6ccd41ad312451b948a7413f0a142fd40d49347"
        },
        "pre" : {
            "0x095e7baea6a6c7c4c2dfeb977efac326af552d87" : {
                "balance" : "0x0186a0",
                "code" : "0x7c01000000000000000000000000000000000000000000000000000000006000350463380e439681146037578063c040622614604757005b603d6084565b8060005260206000f35b604d6057565b8060005260206000f35b6000605f6084565b600060006101000a81548160ff0219169083021790555060ff60016000540416905090565b6000808160011560cd575b600a82121560a157600190910190608f565b81600a1460ac5760c9565b50600a5b60008160ff16111560c85760019182900391900360b0565b5b60d5565b6000925060ed565b8160001460e05760e8565b6001925060ed565b600092505b50509056",
                "nonce" : "0x00",
                "storage" : {
                }
            },
            "0xa94f5374fce5edbc8e2a8697c15331677e6ebf0b" : {
                "balance" : "0x0f4240",
                "code" : "0x",
                "nonce" : "0x00",
                "storage" : {
                }
            }
        },
        "postState" : {
            "0xa94f5374fce5edbc8e2a8697c15331677e6ebf0b" : {
                "code" : "0x",
                "nonce" : "0x01",
                "balance" : "0x0e956b",
                "storage" : {
                }
            },
            "0x095e7baea6a6c7c4c2dfeb977efac326af552d87" : {
                "code" : "0x7c01000000000000000000000000000000000000000000000000000000006000350463380e439681146037578063c040622614604757005b603d6084565b8060005260206000f35b604d6057565b8060005260206000f35b6000605f6084565b600060006101000a81548160ff0219169083021790555060ff60016000540416905090565b6000808160011560cd575b600a82121560a157600190910190608f565b81600a1460ac5760c9565b50600a5b60008160ff16111560c85760019182900391900360b0565b5b60d5565b6000925060ed565b8160001460e05760e8565b6001925060ed565b600092505b50509056",
                "nonce" : "0x00",
                "balance" : "0x0186a1",
                "storage" : {
                    "0x00" : "0x01"
                }
            },
            "0x2adc25665018aa1fe0e6bc666dac8fc2697ff9ba" : {
                "code" : "0x",
                "nonce" : "0x00",
                "balance" : "0x1bc16d674ec8acd4",
                "storage" : {
                }
            }
        },
        "network" : "Istanbul",
        "sealEngine" : "NoProof",
        "lastblockhash" : "0x454fb8fff53ce1b09bcc74194135f0d5c897c1d468da537dfb59656e5cc5b4d2",
        "genesisRLP" : "0xf901f9f901f4a00000000000000000000000000000000000000000000000000000000000000000a01dcc4de8dec75d7aab85b567b6ccd41ad312451b948a7413f0a142fd40d49347942adc25665018aa1fe0e6bc666dac8fc2697ff9baa0e466e2676020d7a701543c69b8d874b0bc13ce7a94baebd5b5e17b90017233d5a056e81f171bcc55a6ff8345e692c0f86e5b48e01b996cadc001622fb5e363b421a056e81f171bcc55a6ff8345e692c0f86e5b48e01b996cadc001622fb5e363b421b901000000000000000000000000000000000000000000000000000000000000000000000000000000000000000000000000000000000000000000000000000000000000000000000000000000000000000000000000000000000000000000000000000000000000000000000000000000000000000000000000000000000000000000000000000000000000000000000000000000000000000000000000000000000000000000000000000000000000000000000000000000000000000000000000000000000000000000000000000000000000000000000000000000000000000000000000000000000000000000000000000000000000000000000000000000000083020000808405f5e100808000a00000000000000000000000000000000000000000000000000000000000000000880000000000000000c0c0",
        "blocks" : [
            {
                "rlp" : "0xf90264f901f8a0c1f0f4675744d5d57ffc9d2907d1f7b46190037e3adabc30fb5ec84c1c9a870da01dcc4de8dec75d7aab85b567b6ccd41ad312451b948a7413f0a142fd40d49347942adc25665018aa1fe0e6bc666dac8fc2697ff9baa0dfe8eaad517e06568e03b50f85552dd7c9d25928fb8baa5bfd2d02744140b923a0758e126e5308d1ef59b0be3487c5cd860b33d0b7ebde2ecb38b45cde05f5cbc1a072113249e9e46c4dd78a1ffdd27861e2b5c99572d45e023e886ea5404f9eb1dcb901000000000000000000000000000000000000000000000000000000000000000000000000000000000000000000000000000000000000000000000000000000000000000000000000000000000000000000000000000000000000000000000000000000000000000000000000000000000000000000000000000000000000000000000000000000000000000000000000000000000000000000000000000000000000000000000000000000000000000000000000000000000000000000000000000000000000000000000000000000000000000000000000000000000000000000000000000000000000000000000000000000000000000000000000000000000083020000018405f75e7782acd48203e800a00000000000000000000000000000000000000000000000000000000000000000880000000000000000f866f86480018305573094095e7baea6a6c7c4c2dfeb977efac326af552d870184c04062261ba0de52c10f466ca9a09c552f9669cf780cae9466caf4389d9196863b9ad1609d5ea076154d3c182d7b93f161add2125a73a0ba33ca816963930e51e1e7ee67d3bd7fc0",
                "blockHeader" : {
                    "bloom" : "0x00000000000000000000000000000000000000000000000000000000000000000000000000000000000000000000000000000000000000000000000000000000000000000000000000000000000000000000000000000000000000000000000000000000000000000000000000000000000000000000000000000000000000000000000000000000000000000000000000000000000000000000000000000000000000000000000000000000000000000000000000000000000000000000000000000000000000000000000000000000000000000000000000000000000000000000000000000000000000000000000000000000000000000000000000000000",
                    "coinbase" : "0x2adc25665018aa1fe0e6bc666dac8fc2697ff9ba",
                    "difficulty" : "0x20000",
                    "extraData" : "0x00",
                    "gasLimit" : "0x5f75e77",
                    "gasUsed" : "0xacd4",
                    "hash" : "0x454fb8fff53ce1b09bcc74194135f0d5c897c1d468da537dfb59656e5cc5b4d2",
                    "mixHash" : "0x0000000000000000000000000000000000000000000000000000000000000000",
                    "nonce" : "0x0000000000000000",
                    "number" : "0x1",
                    "parentHash" : "0xc1f0f4675744d5d57ffc9d2907d1f7b46190037e3adabc30fb5ec84c1c9a870d",
                    "receiptTrie" : "0x72113249e9e46c4dd78a1ffdd27861e2b5c99572d45e023e886ea5404f9eb1dc",
                    "stateRoot" : "0xdfe8eaad517e06568e03b50f85552dd7c9d25928fb8baa5bfd2d02744140b923",
                    "timestamp" : "0x3e8",
                    "transactionsTrie" : "0x758e126e5308d1ef59b0be3487c5cd860b33d0b7ebde2ecb38b45cde05f5cbc1",
                    "uncleHash" : "0x1dcc4de8dec75d7aab85b567b6ccd41ad312451b948a7413f0a142fd40d49347"
                },
                "transactions" : [
                    {
                        "data" : "0xc0406226",
                        "gasLimit" : "0x055730",
                        "gasPrice" : "0x01",
                        "nonce" : "0x00",
                        "to" : "0x095e7baea6a6c7c4c2dfeb977efac326af552d87",
                        "value" : "0x01",
                        "v" : "0x1b",
                        "r" : "0xde52c10f466ca9a09c552f9669cf780cae9466caf4389d9196863b9ad1609d5e",
                        "s" : "0x76154d3c182d7b93f161add2125a73a0ba33ca816963930e51e1e7ee67d3bd7f"
                    }
                ]
            }
        ]
    }
}