{
    "TestCryptographicFunctions_d0g0v0_Istanbul" : {
        "_info" : {
            "comment" : "",
            "filling-rpc-server" : "Geth-1.9.6-unstable-63b18027-20190920",
            "filling-tool-version" : "retesteth-0.0.1+commit.0ae18aef.Linux.g++",
            "lllcversion" : "Version: 0.5.12-develop.2019.9.13+commit.2d601a4f.Linux.g++",
            "source" : "src/GeneralStateTestsFiller/stSolidityTest/TestCryptographicFunctionsFiller.json",
            "sourceHash" : "c18e6528e58b2f6d6b1ad0c8b1cbc4433469486131b2100c18f20058a387d01e"
        },
        "genesisBlockHeader" : {
            "bloom" : "0x00000000000000000000000000000000000000000000000000000000000000000000000000000000000000000000000000000000000000000000000000000000000000000000000000000000000000000000000000000000000000000000000000000000000000000000000000000000000000000000000000000000000000000000000000000000000000000000000000000000000000000000000000000000000000000000000000000000000000000000000000000000000000000000000000000000000000000000000000000000000000000000000000000000000000000000000000000000000000000000000000000000000000000000000000000000",
            "coinbase" : "0x2adc25665018aa1fe0e6bc666dac8fc2697ff9ba",
            "difficulty" : "0x20000",
            "extraData" : "0x00",
            "gasLimit" : "0x7fffffffffffffff",
            "gasUsed" : "0x0",
            "hash" : "0xbfabbd9e5dc59dc5de3b1710cc8892a27146de5ead26b6e16e184ea704787825",
            "mixHash" : "0x0000000000000000000000000000000000000000000000000000000000000000",
            "nonce" : "0x0000000000000000",
            "number" : "0x0",
            "parentHash" : "0x0000000000000000000000000000000000000000000000000000000000000000",
            "receiptTrie" : "0x56e81f171bcc55a6ff8345e692c0f86e5b48e01b996cadc001622fb5e363b421",
            "stateRoot" : "0xf2e3a9a359399f54acfe449ed11bae9cd52926dcdf6729f2c57aadbe3a0aa04e",
            "timestamp" : "0x0",
            "transactionsTrie" : "0x56e81f171bcc55a6ff8345e692c0f86e5b48e01b996cadc001622fb5e363b421",
            "uncleHash" : "0x1dcc4de8dec75d7aab85b567b6ccd41ad312451b948a7413f0a142fd40d49347"
        },
        "pre" : {
            "0x095e7baea6a6c7c4c2dfeb977efac326af552d87" : {
                "balance" : "0x0186a0",
                "code" : "0x6000357c010000000000000000000000000000000000000000000000000000000090048063c04062261461003a578063e0a9fd281461004c57005b61004261005e565b8060005260206000f35b610054610099565b8060005260206000f35b6000610068610099565b600060006101000a81548160ff02191690830217905550600060009054906101000a900460ff169050610096565b90565b60006001905080507f43c4b4524adb81e4e9a5c4648a98e9d320e3908ac5b6c889144b642cd08ae16d60010260407f74657374737472696e67000000000000000000000000000000000000000000008152600a016040900360402014156100ff57610108565b600090506102ec565b7f3c8727e019a42b444667a587b6001251becadabbb36bfed8087a92c18882d11160010260026020600060007f74657374737472696e67000000000000000000000000000000000000000000008152600a0160006000856161da5a03f161016b57005b50600051141561017a57610183565b600090506102ec565b73cd566972b5e50104011a92b59fa8e0b1234851ae6c010000000000000000000000000260036020600060007f74657374737472696e67000000000000000000000000000000000000000000008152600a0160006000856161da5a03f16101e657005b506000516c010000000000000000000000000214156102045761020d565b600090506102ec565b73a94f5374fce5edbc8e2a8697c15331677e6ebf0b60016020600060007f18c547e4f7b0f325ad1e56f57e26c745b09a3e503d86e00e5255ff7f715d3d1c6001028152602001601c81526020017f73b1693892219d736caba55bdb67216e485557ea6b6af75f37096c9aa6a5a75f60010281526020017feeb940b1d03b21e36b0e47e79769f095fe2ab855bd91e3a38756b7d75a9c4549600102815260200160006000856161da5a03f16102bd57005b5060005173ffffffffffffffffffffffffffffffffffffffff1614156102e2576102eb565b600090506102ec565b5b9056",
                "nonce" : "0x00",
                "storage" : {
                }
            },
            "0xa94f5374fce5edbc8e2a8697c15331677e6ebf0b" : {
                "balance" : "0x02faf080",
                "code" : "0x",
                "nonce" : "0x00",
                "storage" : {
                }
            }
        },
        "postState" : {
            "0xa94f5374fce5edbc8e2a8697c15331677e6ebf0b" : {
                "code" : "0x",
                "nonce" : "0x01",
                "balance" : "0x02fa2f76",
                "storage" : {
                }
            },
            "0x095e7baea6a6c7c4c2dfeb977efac326af552d87" : {
                "code" : "0x6000357c010000000000000000000000000000000000000000000000000000000090048063c04062261461003a578063e0a9fd281461004c57005b61004261005e565b8060005260206000f35b610054610099565b8060005260206000f35b6000610068610099565b600060006101000a81548160ff02191690830217905550600060009054906101000a900460ff169050610096565b90565b60006001905080507f43c4b4524adb81e4e9a5c4648a98e9d320e3908ac5b6c889144b642cd08ae16d60010260407f74657374737472696e67000000000000000000000000000000000000000000008152600a016040900360402014156100ff57610108565b600090506102ec565b7f3c8727e019a42b444667a587b6001251becadabbb36bfed8087a92c18882d11160010260026020600060007f74657374737472696e67000000000000000000000000000000000000000000008152600a0160006000856161da5a03f161016b57005b50600051141561017a57610183565b600090506102ec565b73cd566972b5e50104011a92b59fa8e0b1234851ae6c010000000000000000000000000260036020600060007f74657374737472696e67000000000000000000000000000000000000000000008152600a0160006000856161da5a03f16101e657005b506000516c010000000000000000000000000214156102045761020d565b600090506102ec565b73a94f5374fce5edbc8e2a8697c15331677e6ebf0b60016020600060007f18c547e4f7b0f325ad1e56f57e26c745b09a3e503d86e00e5255ff7f715d3d1c6001028152602001601c81526020017f73b1693892219d736caba55bdb67216e485557ea6b6af75f37096c9aa6a5a75f60010281526020017feeb940b1d03b21e36b0e47e79769f095fe2ab855bd91e3a38756b7d75a9c4549600102815260200160006000856161da5a03f16102bd57005b5060005173ffffffffffffffffffffffffffffffffffffffff1614156102e2576102eb565b600090506102ec565b5b9056",
                "nonce" : "0x00",
                "balance" : "0x018704",
                "storage" : {
                    "0x00" : "0x01"
                }
            },
            "0x2adc25665018aa1fe0e6bc666dac8fc2697ff9ba" : {
                "code" : "0x",
                "nonce" : "0x00",
                "balance" : "0x1bc16d674ec8c0a6",
                "storage" : {
                }
            }
        },
        "network" : "Istanbul",
        "sealEngine" : "NoProof",
        "lastblockhash" : "0x440fbdf2a4b80ef9c3a148182c0df99f901429593dae0e18c2c2e6e340a60620",
        "genesisRLP" : "0xf901fdf901f8a00000000000000000000000000000000000000000000000000000000000000000a01dcc4de8dec75d7aab85b567b6ccd41ad312451b948a7413f0a142fd40d49347942adc25665018aa1fe0e6bc666dac8fc2697ff9baa0f2e3a9a359399f54acfe449ed11bae9cd52926dcdf6729f2c57aadbe3a0aa04ea056e81f171bcc55a6ff8345e692c0f86e5b48e01b996cadc001622fb5e363b421a056e81f171bcc55a6ff8345e692c0f86e5b48e01b996cadc001622fb5e363b421b90100000000000000000000000000000000000000000000000000000000000000000000000000000000000000000000000000000000000000000000000000000000000000000000000000000000000000000000000000000000000000000000000000000000000000000000000000000000000000000000000000000000000000000000000000000000000000000000000000000000000000000000000000000000000000000000000000000000000000000000000000000000000000000000000000000000000000000000000000000000000000000000000000000000000000000000000000000000000000000000000000000000000000000000000000000000008302000080887fffffffffffffff808000a00000000000000000000000000000000000000000000000000000000000000000880000000000000000c0c0",
        "blocks" : [
            {
                "rlp" : "0xf90269f901fca0bfabbd9e5dc59dc5de3b1710cc8892a27146de5ead26b6e16e184ea704787825a01dcc4de8dec75d7aab85b567b6ccd41ad312451b948a7413f0a142fd40d49347942adc25665018aa1fe0e6bc666dac8fc2697ff9baa0794c0bbc942d45b8807e76924479e60eb87f9481b1e22b9e14f653a970cf3190a08434166e881be58d6b74fb77ff3332a435208864dfc1bb330b4ea7d6c526997fa096c9036ccb838ab08089c124fa56a4772ae9b13a66de54cab74338ee7f18b02db90100000000000000000000000000000000000000000000000000000000000000000000000000000000000000000000000000000000000000000000000000000000000000000000000000000000000000000000000000000000000000000000000000000000000000000000000000000000000000000000000000000000000000000000000000000000000000000000000000000000000000000000000000000000000000000000000000000000000000000000000000000000000000000000000000000000000000000000000000000000000000000000000000000000000000000000000000000000000000000000000000000000000000000000000000000000008302000001887fffffffffffffff82c0a68203e800a00000000000000000000000000000000000000000000000000000000000000000880000000000000000f867f86580018402160ec094095e7baea6a6c7c4c2dfeb977efac326af552d876484c04062261ba034e6c6b7a2fcc20a447bcdef520b713a01c8f74084738aa93e72b466eba8c24da06ad238d471308dfcc7eef68b089a9866d611825f5bedeea7952dbf69afb8c18fc0",
                "blockHeader" : {
                    "bloom" : "0x00000000000000000000000000000000000000000000000000000000000000000000000000000000000000000000000000000000000000000000000000000000000000000000000000000000000000000000000000000000000000000000000000000000000000000000000000000000000000000000000000000000000000000000000000000000000000000000000000000000000000000000000000000000000000000000000000000000000000000000000000000000000000000000000000000000000000000000000000000000000000000000000000000000000000000000000000000000000000000000000000000000000000000000000000000000",
                    "coinbase" : "0x2adc25665018aa1fe0e6bc666dac8fc2697ff9ba",
                    "difficulty" : "0x20000",
                    "extraData" : "0x00",
                    "gasLimit" : "0x7fffffffffffffff",
                    "gasUsed" : "0xc0a6",
                    "hash" : "0x440fbdf2a4b80ef9c3a148182c0df99f901429593dae0e18c2c2e6e340a60620",
                    "mixHash" : "0x0000000000000000000000000000000000000000000000000000000000000000",
                    "nonce" : "0x0000000000000000",
                    "number" : "0x1",
                    "parentHash" : "0xbfabbd9e5dc59dc5de3b1710cc8892a27146de5ead26b6e16e184ea704787825",
                    "receiptTrie" : "0x96c9036ccb838ab08089c124fa56a4772ae9b13a66de54cab74338ee7f18b02d",
                    "stateRoot" : "0x794c0bbc942d45b8807e76924479e60eb87f9481b1e22b9e14f653a970cf3190",
                    "timestamp" : "0x3e8",
                    "transactionsTrie" : "0x8434166e881be58d6b74fb77ff3332a435208864dfc1bb330b4ea7d6c526997f",
                    "uncleHash" : "0x1dcc4de8dec75d7aab85b567b6ccd41ad312451b948a7413f0a142fd40d49347"
                },
                "transactions" : [
                    {
                        "data" : "0xc0406226",
                        "gasLimit" : "0x02160ec0",
                        "gasPrice" : "0x01",
                        "nonce" : "0x00",
                        "to" : "0x095e7baea6a6c7c4c2dfeb977efac326af552d87",
                        "value" : "0x64",
                        "v" : "0x1b",
                        "r" : "0x34e6c6b7a2fcc20a447bcdef520b713a01c8f74084738aa93e72b466eba8c24d",
                        "s" : "0x6ad238d471308dfcc7eef68b089a9866d611825f5bedeea7952dbf69afb8c18f"
                    }
                ]
            }
        ]
    }
}