{
    "TestContractSuicide_d0g0v0_Istanbul" : {
        "_info" : {
            "comment" : "",
            "filling-rpc-server" : "Geth-1.9.6-unstable-63b18027-20190920",
            "filling-tool-version" : "retesteth-0.0.1+commit.0ae18aef.Linux.g++",
            "lllcversion" : "Version: 0.5.12-develop.2019.9.13+commit.2d601a4f.Linux.g++",
            "source" : "src/GeneralStateTestsFiller/stSolidityTest/TestContractSuicideFiller.json",
            "sourceHash" : "225b559cc43da16963e89ba06433c244f8132e2aed0981f675bc622204a99ad4"
        },
        "genesisBlockHeader" : {
            "bloom" : "0x00000000000000000000000000000000000000000000000000000000000000000000000000000000000000000000000000000000000000000000000000000000000000000000000000000000000000000000000000000000000000000000000000000000000000000000000000000000000000000000000000000000000000000000000000000000000000000000000000000000000000000000000000000000000000000000000000000000000000000000000000000000000000000000000000000000000000000000000000000000000000000000000000000000000000000000000000000000000000000000000000000000000000000000000000000000",
            "coinbase" : "0x2adc25665018aa1fe0e6bc666dac8fc2697ff9ba",
            "difficulty" : "0x20000",
            "extraData" : "0x00",
            "gasLimit" : "0x5f5e100",
            "gasUsed" : "0x0",
            "hash" : "0x8efae2945605b01870ef68503bc7cb2453b9be8161fa7068fe38fc65570f162f",
            "mixHash" : "0x0000000000000000000000000000000000000000000000000000000000000000",
            "nonce" : "0x0000000000000000",
            "number" : "0x0",
            "parentHash" : "0x0000000000000000000000000000000000000000000000000000000000000000",
            "receiptTrie" : "0x56e81f171bcc55a6ff8345e692c0f86e5b48e01b996cadc001622fb5e363b421",
            "stateRoot" : "0xbddafbf36a4d04d4f410bcac7b94c424576f28fcec0cc6a1490c0175dc853e13",
            "timestamp" : "0x0",
            "transactionsTrie" : "0x56e81f171bcc55a6ff8345e692c0f86e5b48e01b996cadc001622fb5e363b421",
            "uncleHash" : "0x1dcc4de8dec75d7aab85b567b6ccd41ad312451b948a7413f0a142fd40d49347"
        },
        "pre" : {
            "0x095e7baea6a6c7c4c2dfeb977efac326af552d87" : {
                "balance" : "0x0186a0",
                "code" : "0x7c01000000000000000000000000000000000000000000000000000000006000350463a60eedda8114610039578063c04062261461004b57005b61004161005d565b8060005260206000f35b61005361015a565b8060005260206000f35b60006000608161018a600039608160006000f0905073ffffffffffffffffffffffffffffffffffffffff811662f55d9d6000807ef55d9d00000000000000000000000000000000000000000000000000000000825260044173ffffffffffffffffffffffffffffffffffffffff168152602001600060008660325a03f16100e057005b505073ffffffffffffffffffffffffffffffffffffffff811663b9c3d0a5602060007fb9c3d0a50000000000000000000000000000000000000000000000000000000081526004600060008660325a03f161013757005b505060005160e11461014857610151565b60019150610156565b600091505b5090565b600061016461005d565b600060006101000a81548160ff0219169083021790555060ff600160005404169050905600607580600c6000396000f3007c01000000000000000000000000000000000000000000000000000000006000350462f55d9d81146036578063b9c3d0a514604557005b603f600435605a565b60006000f35b604b6055565b8060005260206000f35b60e190565b8073ffffffffffffffffffffffffffffffffffffffff16ff5056",
                "nonce" : "0x00",
                "storage" : {
                }
            },
            "0xa94f5374fce5edbc8e2a8697c15331677e6ebf0b" : {
                "balance" : "0x0f4240",
                "code" : "0x",
                "nonce" : "0x00",
                "storage" : {
                }
            }
        },
        "postState" : {
            "0xa94f5374fce5edbc8e2a8697c15331677e6ebf0b" : {
                "code" : "0x",
                "nonce" : "0x01",
                "balance" : "0x0e0540",
                "storage" : {
                }
            },
            "0x095e7baea6a6c7c4c2dfeb977efac326af552d87" : {
                "code" : "0x7c01000000000000000000000000000000000000000000000000000000006000350463a60eedda8114610039578063c04062261461004b57005b61004161005d565b8060005260206000f35b61005361015a565b8060005260206000f35b60006000608161018a600039608160006000f0905073ffffffffffffffffffffffffffffffffffffffff811662f55d9d6000807ef55d9d00000000000000000000000000000000000000000000000000000000825260044173ffffffffffffffffffffffffffffffffffffffff168152602001600060008660325a03f16100e057005b505073ffffffffffffffffffffffffffffffffffffffff811663b9c3d0a5602060007fb9c3d0a50000000000000000000000000000000000000000000000000000000081526004600060008660325a03f161013757005b505060005160e11461014857610151565b60019150610156565b600091505b5090565b600061016461005d565b600060006101000a81548160ff0219169083021790555060ff600160005404169050905600607580600c6000396000f3007c01000000000000000000000000000000000000000000000000000000006000350462f55d9d81146036578063b9c3d0a514604557005b603f600435605a565b60006000f35b604b6055565b8060005260206000f35b60e190565b8073ffffffffffffffffffffffffffffffffffffffff16ff5056",
                "nonce" : "0x01",
                "balance" : "0x0186a1",
                "storage" : {
                    "0x00" : "0x01"
                }
            },
            "0x2adc25665018aa1fe0e6bc666dac8fc2697ff9ba" : {
                "code" : "0x",
                "nonce" : "0x00",
                "balance" : "0x1bc16d674ec93cff",
                "storage" : {
                }
            }
        },
        "network" : "Istanbul",
        "sealEngine" : "NoProof",
        "lastblockhash" : "0xb50f8328f9d682192b91c2cabc8f06896d30d1d3400bbcb7083c4f19d0e77793",
        "genesisRLP" : "0xf901f9f901f4a00000000000000000000000000000000000000000000000000000000000000000a01dcc4de8dec75d7aab85b567b6ccd41ad312451b948a7413f0a142fd40d49347942adc25665018aa1fe0e6bc666dac8fc2697ff9baa0bddafbf36a4d04d4f410bcac7b94c424576f28fcec0cc6a1490c0175dc853e13a056e81f171bcc55a6ff8345e692c0f86e5b48e01b996cadc001622fb5e363b421a056e81f171bcc55a6ff8345e692c0f86e5b48e01b996cadc001622fb5e363b421b901000000000000000000000000000000000000000000000000000000000000000000000000000000000000000000000000000000000000000000000000000000000000000000000000000000000000000000000000000000000000000000000000000000000000000000000000000000000000000000000000000000000000000000000000000000000000000000000000000000000000000000000000000000000000000000000000000000000000000000000000000000000000000000000000000000000000000000000000000000000000000000000000000000000000000000000000000000000000000000000000000000000000000000000000000000000083020000808405f5e100808000a00000000000000000000000000000000000000000000000000000000000000000880000000000000000c0c0",
        "blocks" : [
            {
                "rlp" : "0xf90265f901f9a08efae2945605b01870ef68503bc7cb2453b9be8161fa7068fe38fc65570f162fa01dcc4de8dec75d7aab85b567b6ccd41ad312451b948a7413f0a142fd40d49347942adc25665018aa1fe0e6bc666dac8fc2697ff9baa0c460d0e86bd8c41a259b7b72e6e2137ed8ba9398010b394cd65462ec4e307b72a0758e126e5308d1ef59b0be3487c5cd860b33d0b7ebde2ecb38b45cde05f5cbc1a0e5b2f66592037cd86d2af95f6e4b326be05898fa8c0adf61b5b21baae77ead73b901000000000000000000000000000000000000000000000000000000000000000000000000000000000000000000000000000000000000000000000000000000000000000000000000000000000000000000000000000000000000000000000000000000000000000000000000000000000000000000000000000000000000000000000000000000000000000000000000000000000000000000000000000000000000000000000000000000000000000000000000000000000000000000000000000000000000000000000000000000000000000000000000000000000000000000000000000000000000000000000000000000000000000000000000000000000083020000018405f75e7783013cff8203e800a00000000000000000000000000000000000000000000000000000000000000000880000000000000000f866f86480018305573094095e7baea6a6c7c4c2dfeb977efac326af552d870184c04062261ba0de52c10f466ca9a09c552f9669cf780cae9466caf4389d9196863b9ad1609d5ea076154d3c182d7b93f161add2125a73a0ba33ca816963930e51e1e7ee67d3bd7fc0",
                "blockHeader" : {
                    "bloom" : "0x00000000000000000000000000000000000000000000000000000000000000000000000000000000000000000000000000000000000000000000000000000000000000000000000000000000000000000000000000000000000000000000000000000000000000000000000000000000000000000000000000000000000000000000000000000000000000000000000000000000000000000000000000000000000000000000000000000000000000000000000000000000000000000000000000000000000000000000000000000000000000000000000000000000000000000000000000000000000000000000000000000000000000000000000000000000",
                    "coinbase" : "0x2adc25665018aa1fe0e6bc666dac8fc2697ff9ba",
                    "difficulty" : "0x20000",
                    "extraData" : "0x00",
                    "gasLimit" : "0x5f75e77",
                    "gasUsed" : "0x13cff",
                    "hash" : "0xb50f8328f9d682192b91c2cabc8f06896d30d1d3400bbcb7083c4f19d0e77793",
                    "mixHash" : "0x0000000000000000000000000000000000000000000000000000000000000000",
                    "nonce" : "0x0000000000000000",
                    "number" : "0x1",
                    "parentHash" : "0x8efae2945605b01870ef68503bc7cb2453b9be8161fa7068fe38fc65570f162f",
                    "receiptTrie" : "0xe5b2f66592037cd86d2af95f6e4b326be05898fa8c0adf61b5b21baae77ead73",
                    "stateRoot" : "0xc460d0e86bd8c41a259b7b72e6e2137ed8ba9398010b394cd65462ec4e307b72",
                    "timestamp" : "0x3e8",
                    "transactionsTrie" : "0x758e126e5308d1ef59b0be3487c5cd860b33d0b7ebde2ecb38b45cde05f5cbc1",
                    "uncleHash" : "0x1dcc4de8dec75d7aab85b567b6ccd41ad312451b948a7413f0a142fd40d49347"
                },
                "transactions" : [
                    {
                        "data" : "0xc0406226",
                        "gasLimit" : "0x055730",
                        "gasPrice" : "0x01",
                        "nonce" : "0x00",
                        "to" : "0x095e7baea6a6c7c4c2dfeb977efac326af552d87",
                        "value" : "0x01",
                        "v" : "0x1b",
                        "r" : "0xde52c10f466ca9a09c552f9669cf780cae9466caf4389d9196863b9ad1609d5e",
                        "s" : "0x76154d3c182d7b93f161add2125a73a0ba33ca816963930e51e1e7ee67d3bd7f"
                    }
                ]
            }
        ]
    }
}