{
    "TestBlockAndTransactionProperties_d0g0v0_Istanbul" : {
        "_info" : {
            "comment" : "",
            "filling-rpc-server" : "Geth-1.9.6-unstable-63b18027-20190920",
            "filling-tool-version" : "retesteth-0.0.1+commit.0ae18aef.Linux.g++",
            "lllcversion" : "Version: 0.5.12-develop.2019.9.13+commit.2d601a4f.Linux.g++",
            "source" : "src/GeneralStateTestsFiller/stSolidityTest/TestBlockAndTransactionPropertiesFiller.json",
            "sourceHash" : "00b879ac1891e09048ab1fba3c89de16f7a1f7f0a0d9f1214c24ac173fdc7e47"
        },
        "genesisBlockHeader" : {
            "bloom" : "0x00000000000000000000000000000000000000000000000000000000000000000000000000000000000000000000000000000000000000000000000000000000000000000000000000000000000000000000000000000000000000000000000000000000000000000000000000000000000000000000000000000000000000000000000000000000000000000000000000000000000000000000000000000000000000000000000000000000000000000000000000000000000000000000000000000000000000000000000000000000000000000000000000000000000000000000000000000000000000000000000000000000000000000000000000000000",
            "coinbase" : "0x2adc25665018aa1fe0e6bc666dac8fc2697ff9ba",
            "difficulty" : "0x20000",
            "extraData" : "0x00",
            "gasLimit" : "0x7fffffffffffffff",
            "gasUsed" : "0x0",
            "hash" : "0xf3dbd90efa4dd0b4af97742a674544e0e46a7f0beb6f5bbd82b402fa0cd908c3",
            "mixHash" : "0x0000000000000000000000000000000000000000000000000000000000000000",
            "nonce" : "0x0000000000000000",
            "number" : "0x0",
            "parentHash" : "0x0000000000000000000000000000000000000000000000000000000000000000",
            "receiptTrie" : "0x56e81f171bcc55a6ff8345e692c0f86e5b48e01b996cadc001622fb5e363b421",
            "stateRoot" : "0x06ae9710bf7ce8132ccebd1f1ab051d5d181f60ef075d6fb521c5e8f1e9665c3",
            "timestamp" : "0x0",
            "transactionsTrie" : "0x56e81f171bcc55a6ff8345e692c0f86e5b48e01b996cadc001622fb5e363b421",
            "uncleHash" : "0x1dcc4de8dec75d7aab85b567b6ccd41ad312451b948a7413f0a142fd40d49347"
        },
        "pre" : {
            "0x095e7baea6a6c7c4c2dfeb977efac326af552d87" : {
                "balance" : "0x0186a0",
                "code" : "0x60606040526000357c010000000000000000000000000000000000000000000000000000000090048063c040622614610044578063e97384dc1461006957610042565b005b610051600480505061008e565b60405180821515815260200191505060405180910390f35b61007660048050506100c9565b60405180821515815260200191505060405180910390f35b60006100986100c9565b600060006101000a81548160ff02191690830217905550600060009054906101000a900460ff1690506100c6565b90565b6000600190508050732adc25665018aa1fe0e6bc666dac8fc2697ff9ba4173ffffffffffffffffffffffffffffffffffffffff1614151561010d57600090506101f7565b6302b8feb04414151561012357600090506101f7565b677fffffffffffffff4514151561013d57600090506101f7565b60784314151561015057600090506101f7565b6078405042505a5073a94f5374fce5edbc8e2a8697c15331677e6ebf0b3373ffffffffffffffffffffffffffffffffffffffff1614151561019457600090506101f7565b6064341415156101a757600090506101f7565b60013a1415156101ba57600090506101f7565b73a94f5374fce5edbc8e2a8697c15331677e6ebf0b3273ffffffffffffffffffffffffffffffffffffffff161415156101f657600090506101f7565b5b9056",
                "nonce" : "0x00",
                "storage" : {
                }
            },
            "0xa94f5374fce5edbc8e2a8697c15331677e6ebf0b" : {
                "balance" : "0x0f4240",
                "code" : "0x",
                "nonce" : "0x00",
                "storage" : {
                }
            }
        },
        "postState" : {
            "0xa94f5374fce5edbc8e2a8697c15331677e6ebf0b" : {
                "code" : "0x",
                "nonce" : "0x01",
                "balance" : "0x0ee4aa",
                "storage" : {
                }
            },
            "0x095e7baea6a6c7c4c2dfeb977efac326af552d87" : {
                "code" : "0x60606040526000357c010000000000000000000000000000000000000000000000000000000090048063c040622614610044578063e97384dc1461006957610042565b005b610051600480505061008e565b60405180821515815260200191505060405180910390f35b61007660048050506100c9565b60405180821515815260200191505060405180910390f35b60006100986100c9565b600060006101000a81548160ff02191690830217905550600060009054906101000a900460ff1690506100c6565b90565b6000600190508050732adc25665018aa1fe0e6bc666dac8fc2697ff9ba4173ffffffffffffffffffffffffffffffffffffffff1614151561010d57600090506101f7565b6302b8feb04414151561012357600090506101f7565b677fffffffffffffff4514151561013d57600090506101f7565b60784314151561015057600090506101f7565b6078405042505a5073a94f5374fce5edbc8e2a8697c15331677e6ebf0b3373ffffffffffffffffffffffffffffffffffffffff1614151561019457600090506101f7565b6064341415156101a757600090506101f7565b60013a1415156101ba57600090506101f7565b73a94f5374fce5edbc8e2a8697c15331677e6ebf0b3273ffffffffffffffffffffffffffffffffffffffff161415156101f657600090506101f7565b5b9056",
                "nonce" : "0x00",
                "balance" : "0x018704",
                "storage" : {
                }
            },
            "0x2adc25665018aa1fe0e6bc666dac8fc2697ff9ba" : {
                "code" : "0x",
                "nonce" : "0x00",
                "balance" : "0x1bc16d674ec85d32",
                "storage" : {
                }
            }
        },
        "network" : "Istanbul",
        "sealEngine" : "NoProof",
        "lastblockhash" : "0x416a019141e42ad508504b971d6aacbda9600f905e5c2daf025e0ea6e54fa904",
        "genesisRLP" : "0xf901fdf901f8a00000000000000000000000000000000000000000000000000000000000000000a01dcc4de8dec75d7aab85b567b6ccd41ad312451b948a7413f0a142fd40d49347942adc25665018aa1fe0e6bc666dac8fc2697ff9baa006ae9710bf7ce8132ccebd1f1ab051d5d181f60ef075d6fb521c5e8f1e9665c3a056e81f171bcc55a6ff8345e692c0f86e5b48e01b996cadc001622fb5e363b421a056e81f171bcc55a6ff8345e692c0f86e5b48e01b996cadc001622fb5e363b421b90100000000000000000000000000000000000000000000000000000000000000000000000000000000000000000000000000000000000000000000000000000000000000000000000000000000000000000000000000000000000000000000000000000000000000000000000000000000000000000000000000000000000000000000000000000000000000000000000000000000000000000000000000000000000000000000000000000000000000000000000000000000000000000000000000000000000000000000000000000000000000000000000000000000000000000000000000000000000000000000000000000000000000000000000000000000008302000080887fffffffffffffff808000a00000000000000000000000000000000000000000000000000000000000000000880000000000000000c0c0",
        "blocks" : [
            {
                "rlp" : "0xf90268f901fca0f3dbd90efa4dd0b4af97742a674544e0e46a7f0beb6f5bbd82b402fa0cd908c3a01dcc4de8dec75d7aab85b567b6ccd41ad312451b948a7413f0a142fd40d49347942adc25665018aa1fe0e6bc666dac8fc2697ff9baa0759d9f4a3c717314699c27419460a324df85463e7bb9c1dcfd27d66b0d7102e7a0840d8d9c81fbde94d0f1e08263bb5d0d6092fb753f24f2072dcf3dc4b0f198f4a0461ca2916e95c25dec19156de308d87d43051bf12d1aa8dee5f4d5171917a9a2b90100000000000000000000000000000000000000000000000000000000000000000000000000000000000000000000000000000000000000000000000000000000000000000000000000000000000000000000000000000000000000000000000000000000000000000000000000000000000000000000000000000000000000000000000000000000000000000000000000000000000000000000000000000000000000000000000000000000000000000000000000000000000000000000000000000000000000000000000000000000000000000000000000000000000000000000000000000000000000000000000000000000000000000000000000000000008302000001887fffffffffffffff825d328203e800a00000000000000000000000000000000000000000000000000000000000000000880000000000000000f866f86480018305573094095e7baea6a6c7c4c2dfeb977efac326af552d876484c04062261ba04b5305634acd08c1bdb367bf5e3f44499a16f4157f62241ad9780b31da94af42a057e2df90dc63621d959c8f2d19d15b70b7722d5fb4825348dd710da861e80dafc0",
                "blockHeader" : {
                    "bloom" : "0x00000000000000000000000000000000000000000000000000000000000000000000000000000000000000000000000000000000000000000000000000000000000000000000000000000000000000000000000000000000000000000000000000000000000000000000000000000000000000000000000000000000000000000000000000000000000000000000000000000000000000000000000000000000000000000000000000000000000000000000000000000000000000000000000000000000000000000000000000000000000000000000000000000000000000000000000000000000000000000000000000000000000000000000000000000000",
                    "coinbase" : "0x2adc25665018aa1fe0e6bc666dac8fc2697ff9ba",
                    "difficulty" : "0x20000",
                    "extraData" : "0x00",
                    "gasLimit" : "0x7fffffffffffffff",
                    "gasUsed" : "0x5d32",
                    "hash" : "0x416a019141e42ad508504b971d6aacbda9600f905e5c2daf025e0ea6e54fa904",
                    "mixHash" : "0x0000000000000000000000000000000000000000000000000000000000000000",
                    "nonce" : "0x0000000000000000",
                    "number" : "0x1",
                    "parentHash" : "0xf3dbd90efa4dd0b4af97742a674544e0e46a7f0beb6f5bbd82b402fa0cd908c3",
                    "receiptTrie" : "0x461ca2916e95c25dec19156de308d87d43051bf12d1aa8dee5f4d5171917a9a2",
                    "stateRoot" : "0x759d9f4a3c717314699c27419460a324df85463e7bb9c1dcfd27d66b0d7102e7",
                    "timestamp" : "0x3e8",
                    "transactionsTrie" : "0x840d8d9c81fbde94d0f1e08263bb5d0d6092fb753f24f2072dcf3dc4b0f198f4",
                    "uncleHash" : "0x1dcc4de8dec75d7aab85b567b6ccd41ad312451b948a7413f0a142fd40d49347"
                },
                "transactions" : [
                    {
                        "data" : "0xc0406226",
                        "gasLimit" : "0x055730",
                        "gasPrice" : "0x01",
                        "nonce" : "0x00",
                        "to" : "0x095e7baea6a6c7c4c2dfeb977efac326af552d87",
                        "value" : "0x64",
                        "v" : "0x1b",
                        "r" : "0x4b5305634acd08c1bdb367bf5e3f44499a16f4157f62241ad9780b31da94af42",
                        "s" : "0x57e2df90dc63621d959c8f2d19d15b70b7722d5fb4825348dd710da861e80daf"
                    }
                ]
            }
        ]
    }
}