{
    "randomStatetest103_d0g0v0_Istanbul" : {
        "_info" : {
            "comment" : "",
            "filling-rpc-server" : "Geth-1.9.6-unstable-63b18027-20190920",
            "filling-tool-version" : "retesteth-0.0.1+commit.0ae18aef.Linux.g++",
            "lllcversion" : "Version: 0.5.12-develop.2019.9.13+commit.2d601a4f.Linux.g++",
            "source" : "src/GeneralStateTestsFiller/stRandom/randomStatetest103Filler.json",
            "sourceHash" : "054da68850b803e67caa06967142e4d7c53d0ea0bce4a7fad74548ec4fd50a1a"
        },
        "genesisBlockHeader" : {
            "bloom" : "0x00000000000000000000000000000000000000000000000000000000000000000000000000000000000000000000000000000000000000000000000000000000000000000000000000000000000000000000000000000000000000000000000000000000000000000000000000000000000000000000000000000000000000000000000000000000000000000000000000000000000000000000000000000000000000000000000000000000000000000000000000000000000000000000000000000000000000000000000000000000000000000000000000000000000000000000000000000000000000000000000000000000000000000000000000000000",
            "coinbase" : "0x945304eb96065b2a98b57a48a06ae28d285a71b5",
            "difficulty" : "0x20000",
            "extraData" : "0x00",
            "gasLimit" : "0x7fffffffffffffff",
            "gasUsed" : "0x0",
            "hash" : "0xc8f31723a44ae24c239e80874f843a59be8cdccd3a5e46215cb8ce31790e7e83",
            "mixHash" : "0x0000000000000000000000000000000000000000000000000000000000000000",
            "nonce" : "0x0000000000000000",
            "number" : "0x0",
            "parentHash" : "0x0000000000000000000000000000000000000000000000000000000000000000",
            "receiptTrie" : "0x56e81f171bcc55a6ff8345e692c0f86e5b48e01b996cadc001622fb5e363b421",
            "stateRoot" : "0x141b2346c7a6d2916916655780c6dd1dcbca58ca4df0e1807b30ca343f43c75c",
            "timestamp" : "0x0",
            "transactionsTrie" : "0x56e81f171bcc55a6ff8345e692c0f86e5b48e01b996cadc001622fb5e363b421",
            "uncleHash" : "0x1dcc4de8dec75d7aab85b567b6ccd41ad312451b948a7413f0a142fd40d49347"
        },
        "pre" : {
            "0x095e7baea6a6c7c4c2dfeb977efac326af552d87" : {
                "balance" : "0x00",
                "code" : "0x7fffffffffffffffffffffffffffffffffffffffffffffffffffffffffffffffff7f000000000000000000000000945304eb96065b2a98b57a48a06ae28d285a71b57ffffffffffffffffffffffffffffffffffffffffffffffffffffffffffffffffe92357fffffffffffffffffffffffffffffffffffffffffffffffffffffffffffffffff597f00000000000000000000000000000000000000000000000000000000000000019385a39988160a205a93196d336428",
                "nonce" : "0x00",
                "storage" : {
                }
            },
            "0x945304eb96065b2a98b57a48a06ae28d285a71b5" : {
                "balance" : "0x2e",
                "code" : "0x6000355415600957005b60203560003555",
                "nonce" : "0x00",
                "storage" : {
                }
            },
            "0xa94f5374fce5edbc8e2a8697c15331677e6ebf0b" : {
                "balance" : "0x0de0b6b3a7640000",
                "code" : "0x",
                "nonce" : "0x00",
                "storage" : {
                }
            }
        },
        "postState" : {
            "0xa94f5374fce5edbc8e2a8697c15331677e6ebf0b" : {
                "code" : "0x",
                "nonce" : "0x01",
                "balance" : "0x0de0b6b3a1401ac5",
                "storage" : {
                }
            },
            "0x095e7baea6a6c7c4c2dfeb977efac326af552d87" : {
                "code" : "0x7fffffffffffffffffffffffffffffffffffffffffffffffffffffffffffffffff7f000000000000000000000000945304eb96065b2a98b57a48a06ae28d285a71b57ffffffffffffffffffffffffffffffffffffffffffffffffffffffffffffffffe92357fffffffffffffffffffffffffffffffffffffffffffffffffffffffffffffffff597f00000000000000000000000000000000000000000000000000000000000000019385a39988160a205a93196d336428",
                "nonce" : "0x00",
                "balance" : "0x00",
                "storage" : {
                }
            },
            "0x945304eb96065b2a98b57a48a06ae28d285a71b5" : {
                "code" : "0x6000355415600957005b60203560003555",
                "nonce" : "0x00",
                "balance" : "0x1bc16d6754ebe569",
                "storage" : {
                }
            }
        },
        "network" : "Istanbul",
        "sealEngine" : "NoProof",
        "lastblockhash" : "0xc1db9a736a088efe89b6330a531a6a7b43044815e52c9be727258c734c4ca2ee",
        "genesisRLP" : "0xf901fdf901f8a00000000000000000000000000000000000000000000000000000000000000000a01dcc4de8dec75d7aab85b567b6ccd41ad312451b948a7413f0a142fd40d4934794945304eb96065b2a98b57a48a06ae28d285a71b5a0141b2346c7a6d2916916655780c6dd1dcbca58ca4df0e1807b30ca343f43c75ca056e81f171bcc55a6ff8345e692c0f86e5b48e01b996cadc001622fb5e363b421a056e81f171bcc55a6ff8345e692c0f86e5b48e01b996cadc001622fb5e363b421b90100000000000000000000000000000000000000000000000000000000000000000000000000000000000000000000000000000000000000000000000000000000000000000000000000000000000000000000000000000000000000000000000000000000000000000000000000000000000000000000000000000000000000000000000000000000000000000000000000000000000000000000000000000000000000000000000000000000000000000000000000000000000000000000000000000000000000000000000000000000000000000000000000000000000000000000000000000000000000000000000000000000000000000000000000000000008302000080887fffffffffffffff808000a00000000000000000000000000000000000000000000000000000000000000000880000000000000000c0c0",
        "blocks" : [
            {
                "rlp" : "0xf90325f901fea0c8f31723a44ae24c239e80874f843a59be8cdccd3a5e46215cb8ce31790e7e83a01dcc4de8dec75d7aab85b567b6ccd41ad312451b948a7413f0a142fd40d4934794945304eb96065b2a98b57a48a06ae28d285a71b5a0a3fa2389ca13a52e0eed47f89c692867b11e6998be88fa0052ea1e721e2c5beaa093db1e2b03c84493a37b94d8a3bd57004fccff5258c4a6815bff6ac6c1629221a0ce9ec75dc5968b983b94842442fa6f23e529aa2aa6437a400897b724151f5af9b90100000000000000000000000000000000000000000000000000000000000000000000000000000000000000000000000000000000000000000000000000000000000000000000000000000000000000000000000000000000000000000000000000000000000000000000000000000000000000000000000000000000000000000000000000000000000000000000000000000000000000000000000000000000000000000000000000000000000000000000000000000000000000000000000000000000000000000000000000000000000000000000000000000000000000000000000000000000000000000000000000000000000000000000000000000000008302000001887fffffffffffffff840623e53b8203e800a00000000000000000000000000000000000000000000000000000000000000000880000000000000000f90120f9011d8001840623e53b94095e7baea6a6c7c4c2dfeb977efac326af552d87845ef1042eb8b77fffffffffffffffffffffffffffffffffffffffffffffffffffffffffffffffff7f000000000000000000000000945304eb96065b2a98b57a48a06ae28d285a71b57ffffffffffffffffffffffffffffffffffffffffffffffffffffffffffffffffe92357fffffffffffffffffffffffffffffffffffffffffffffffffffffffffffffffff597f00000000000000000000000000000000000000000000000000000000000000019385a39988160a205a93196d3364281ba0a7991d5d65cf926b9d2eba7f378df974cdb3f233d337cbcc0012d5e50bf106b8a014406d761b4d5c2881432bbf4e7d542bced2fdc79532bd6ebc4f652a57e40acac0",
                "blockHeader" : {
                    "bloom" : "0x00000000000000000000000000000000000000000000000000000000000000000000000000000000000000000000000000000000000000000000000000000000000000000000000000000000000000000000000000000000000000000000000000000000000000000000000000000000000000000000000000000000000000000000000000000000000000000000000000000000000000000000000000000000000000000000000000000000000000000000000000000000000000000000000000000000000000000000000000000000000000000000000000000000000000000000000000000000000000000000000000000000000000000000000000000000",
                    "coinbase" : "0x945304eb96065b2a98b57a48a06ae28d285a71b5",
                    "difficulty" : "0x20000",
                    "extraData" : "0x00",
                    "gasLimit" : "0x7fffffffffffffff",
                    "gasUsed" : "0x623e53b",
                    "hash" : "0xc1db9a736a088efe89b6330a531a6a7b43044815e52c9be727258c734c4ca2ee",
                    "mixHash" : "0x0000000000000000000000000000000000000000000000000000000000000000",
                    "nonce" : "0x0000000000000000",
                    "number" : "0x1",
                    "parentHash" : "0xc8f31723a44ae24c239e80874f843a59be8cdccd3a5e46215cb8ce31790e7e83",
                    "receiptTrie" : "0xce9ec75dc5968b983b94842442fa6f23e529aa2aa6437a400897b724151f5af9",
                    "stateRoot" : "0xa3fa2389ca13a52e0eed47f89c692867b11e6998be88fa0052ea1e721e2c5bea",
                    "timestamp" : "0x3e8",
                    "transactionsTrie" : "0x93db1e2b03c84493a37b94d8a3bd57004fccff5258c4a6815bff6ac6c1629221",
                    "uncleHash" : "0x1dcc4de8dec75d7aab85b567b6ccd41ad312451b948a7413f0a142fd40d49347"
                },
                "transactions" : [
                    {
                        "data" : "0x7fffffffffffffffffffffffffffffffffffffffffffffffffffffffffffffffff7f000000000000000000000000945304eb96065b2a98b57a48a06ae28d285a71b57ffffffffffffffffffffffffffffffffffffffffffffffffffffffffffffffffe92357fffffffffffffffffffffffffffffffffffffffffffffffffffffffffffffffff597f00000000000000000000000000000000000000000000000000000000000000019385a39988160a205a93196d336428",
                        "gasLimit" : "0x0623e53b",
                        "gasPrice" : "0x01",
                        "nonce" : "0x00",
                        "to" : "0x095e7baea6a6c7c4c2dfeb977efac326af552d87",
                        "value" : "0x5ef1042e",
                        "v" : "0x1b",
                        "r" : "0xa7991d5d65cf926b9d2eba7f378df974cdb3f233d337cbcc0012d5e50bf106b8",
                        "s" : "0x14406d761b4d5c2881432bbf4e7d542bced2fdc79532bd6ebc4f652a57e40aca"
                    }
                ]
            }
        ]
    }
}