{
    "randomStatetest88_d0g0v0_Istanbul" : {
        "_info" : {
            "comment" : "",
            "filling-rpc-server" : "Geth-1.9.6-unstable-63b18027-20190920",
            "filling-tool-version" : "retesteth-0.0.1+commit.0ae18aef.Linux.g++",
            "lllcversion" : "Version: 0.5.12-develop.2019.9.13+commit.2d601a4f.Linux.g++",
            "source" : "src/GeneralStateTestsFiller/stRandom/randomStatetest88Filler.json",
            "sourceHash" : "41e417d380bd71b8aebc9f5010e553f618eaac2f71b08c092df7252ff7497dbd"
        },
        "genesisBlockHeader" : {
            "bloom" : "0x00000000000000000000000000000000000000000000000000000000000000000000000000000000000000000000000000000000000000000000000000000000000000000000000000000000000000000000000000000000000000000000000000000000000000000000000000000000000000000000000000000000000000000000000000000000000000000000000000000000000000000000000000000000000000000000000000000000000000000000000000000000000000000000000000000000000000000000000000000000000000000000000000000000000000000000000000000000000000000000000000000000000000000000000000000000",
            "coinbase" : "0x945304eb96065b2a98b57a48a06ae28d285a71b5",
            "difficulty" : "0x20000",
            "extraData" : "0x00",
            "gasLimit" : "0x7fffffffffffffff",
            "gasUsed" : "0x0",
            "hash" : "0x4f3b67d6f0593f9d6a86c4b9bbad7d41835160643f8851d6a415ad5aba404744",
            "mixHash" : "0x0000000000000000000000000000000000000000000000000000000000000000",
            "nonce" : "0x0000000000000000",
            "number" : "0x0",
            "parentHash" : "0x0000000000000000000000000000000000000000000000000000000000000000",
            "receiptTrie" : "0x56e81f171bcc55a6ff8345e692c0f86e5b48e01b996cadc001622fb5e363b421",
            "stateRoot" : "0xba3937c6cd1c26dcd8269d97aca8327573aeb8780ca67bcaba06dc70a6f21314",
            "timestamp" : "0x0",
            "transactionsTrie" : "0x56e81f171bcc55a6ff8345e692c0f86e5b48e01b996cadc001622fb5e363b421",
            "uncleHash" : "0x1dcc4de8dec75d7aab85b567b6ccd41ad312451b948a7413f0a142fd40d49347"
        },
        "pre" : {
            "0x095e7baea6a6c7c4c2dfeb977efac326af552d87" : {
                "balance" : "0x00",
                "code" : "0x7f000000000000000000000000945304eb96065b2a98b57a48a06ae28d285a71b54343537f000000000000000000000000000000000000000000000000000000000000c350117fffffffffffffffffffffffffffffffffffffffffffffffffffffffffffffffff7f00000000000000000000000000000000000000000000000000000000000000016f34f06a7014541167033909103620f35560005155",
                "nonce" : "0x00",
                "storage" : {
                }
            },
            "0x945304eb96065b2a98b57a48a06ae28d285a71b5" : {
                "balance" : "0x2e",
                "code" : "0x6000355415600957005b60203560003555",
                "nonce" : "0x00",
                "storage" : {
                }
            },
            "0xa94f5374fce5edbc8e2a8697c15331677e6ebf0b" : {
                "balance" : "0x0de0b6b3a7640000",
                "code" : "0x",
                "nonce" : "0x00",
                "storage" : {
                }
            }
        },
        "postState" : {
            "0xa94f5374fce5edbc8e2a8697c15331677e6ebf0b" : {
                "code" : "0x",
                "nonce" : "0x01",
                "balance" : "0x0de0b6b368c9eced",
                "storage" : {
                }
            },
            "0x095e7baea6a6c7c4c2dfeb977efac326af552d87" : {
                "code" : "0x7f000000000000000000000000945304eb96065b2a98b57a48a06ae28d285a71b54343537f000000000000000000000000000000000000000000000000000000000000c350117fffffffffffffffffffffffffffffffffffffffffffffffffffffffffffffffff7f00000000000000000000000000000000000000000000000000000000000000016f34f06a7014541167033909103620f35560005155",
                "nonce" : "0x00",
                "balance" : "0x3e996cb5",
                "storage" : {
                    "0x01000000000000000000000000000000000000000000000000000000000000" : "0x34f06a7014541167033909103620f355"
                }
            },
            "0x945304eb96065b2a98b57a48a06ae28d285a71b5" : {
                "code" : "0x6000355415600957005b60203560003555",
                "nonce" : "0x00",
                "balance" : "0x1bc16d674ec8a68c",
                "storage" : {
                }
            }
        },
        "network" : "Istanbul",
        "sealEngine" : "NoProof",
        "lastblockhash" : "0xbb567c476993af708573c3cf7bb430336f4d9d532abfeb75687e04c8ceaf9bc0",
        "genesisRLP" : "0xf901fdf901f8a00000000000000000000000000000000000000000000000000000000000000000a01dcc4de8dec75d7aab85b567b6ccd41ad312451b948a7413f0a142fd40d4934794945304eb96065b2a98b57a48a06ae28d285a71b5a0ba3937c6cd1c26dcd8269d97aca8327573aeb8780ca67bcaba06dc70a6f21314a056e81f171bcc55a6ff8345e692c0f86e5b48e01b996cadc001622fb5e363b421a056e81f171bcc55a6ff8345e692c0f86e5b48e01b996cadc001622fb5e363b421b90100000000000000000000000000000000000000000000000000000000000000000000000000000000000000000000000000000000000000000000000000000000000000000000000000000000000000000000000000000000000000000000000000000000000000000000000000000000000000000000000000000000000000000000000000000000000000000000000000000000000000000000000000000000000000000000000000000000000000000000000000000000000000000000000000000000000000000000000000000000000000000000000000000000000000000000000000000000000000000000000000000000000000000000000000000000008302000080887fffffffffffffff808000a00000000000000000000000000000000000000000000000000000000000000000880000000000000000c0c0",
        "blocks" : [
            {
                "rlp" : "0xf90303f901fca04f3b67d6f0593f9d6a86c4b9bbad7d41835160643f8851d6a415ad5aba404744a01dcc4de8dec75d7aab85b567b6ccd41ad312451b948a7413f0a142fd40d4934794945304eb96065b2a98b57a48a06ae28d285a71b5a04421ae07dad200bbb795388c4bd2db4b630c3d600eaac0d870f6c5838fe33eaba0f99b8be9b61a0c8269836ad7a9f3e478e48dee3ca9d0f04a24508c3f5e6cebcba05feaa7f170463c7d94084965ca9d7e6f452bfd2fd01732c598b2af4057e8ce87b90100000000000000000000000000000000000000000000000000000000000000000000000000000000000000000000000000000000000000000000000000000000000000000000000000000000000000000000000000000000000000000000000000000000000000000000000000000000000000000000000000000000000000000000000000000000000000000000000000000000000000000000000000000000000000000000000000000000000000000000000000000000000000000000000000000000000000000000000000000000000000000000000000000000000000000000000000000000000000000000000000000000000000000000000000000000008302000001887fffffffffffffff82a65e8203e800a00000000000000000000000000000000000000000000000000000000000000000880000000000000000f90100f8fe8001843274418994095e7baea6a6c7c4c2dfeb977efac326af552d87843e996cb5b8987f000000000000000000000000945304eb96065b2a98b57a48a06ae28d285a71b54343537f000000000000000000000000000000000000000000000000000000000000c350117fffffffffffffffffffffffffffffffffffffffffffffffffffffffffffffffff7f00000000000000000000000000000000000000000000000000000000000000016f34f06a7014541167033909103620f31ca018651186fc7d800271ac9f5fcef5af949674f04946cb77f247d30e5e2695e013a04fe2ffe71ed08880d15d803a03d413079fa76d5a2c6a401d4c067f76d100cf82c0",
                "blockHeader" : {
                    "bloom" : "0x00000000000000000000000000000000000000000000000000000000000000000000000000000000000000000000000000000000000000000000000000000000000000000000000000000000000000000000000000000000000000000000000000000000000000000000000000000000000000000000000000000000000000000000000000000000000000000000000000000000000000000000000000000000000000000000000000000000000000000000000000000000000000000000000000000000000000000000000000000000000000000000000000000000000000000000000000000000000000000000000000000000000000000000000000000000",
                    "coinbase" : "0x945304eb96065b2a98b57a48a06ae28d285a71b5",
                    "difficulty" : "0x20000",
                    "extraData" : "0x00",
                    "gasLimit" : "0x7fffffffffffffff",
                    "gasUsed" : "0xa65e",
                    "hash" : "0xbb567c476993af708573c3cf7bb430336f4d9d532abfeb75687e04c8ceaf9bc0",
                    "mixHash" : "0x0000000000000000000000000000000000000000000000000000000000000000",
                    "nonce" : "0x0000000000000000",
                    "number" : "0x1",
                    "parentHash" : "0x4f3b67d6f0593f9d6a86c4b9bbad7d41835160643f8851d6a415ad5aba404744",
                    "receiptTrie" : "0x5feaa7f170463c7d94084965ca9d7e6f452bfd2fd01732c598b2af4057e8ce87",
                    "stateRoot" : "0x4421ae07dad200bbb795388c4bd2db4b630c3d600eaac0d870f6c5838fe33eab",
                    "timestamp" : "0x3e8",
                    "transactionsTrie" : "0xf99b8be9b61a0c8269836ad7a9f3e478e48dee3ca9d0f04a24508c3f5e6cebcb",
                    "uncleHash" : "0x1dcc4de8dec75d7aab85b567b6ccd41ad312451b948a7413f0a142fd40d49347"
                },
                "transactions" : [
                    {
                        "data" : "0x7f000000000000000000000000945304eb96065b2a98b57a48a06ae28d285a71b54343537f000000000000000000000000000000000000000000000000000000000000c350117fffffffffffffffffffffffffffffffffffffffffffffffffffffffffffffffff7f00000000000000000000000000000000000000000000000000000000000000016f34f06a7014541167033909103620f3",
                        "gasLimit" : "0x32744189",
                        "gasPrice" : "0x01",
                        "nonce" : "0x00",
                        "to" : "0x095e7baea6a6c7c4c2dfeb977efac326af552d87",
                        "value" : "0x3e996cb5",
                        "v" : "0x1c",
                        "r" : "0x18651186fc7d800271ac9f5fcef5af949674f04946cb77f247d30e5e2695e013",
                        "s" : "0x4fe2ffe71ed08880d15d803a03d413079fa76d5a2c6a401d4c067f76d100cf82"
                    }
                ]
            }
        ]
    }
}