{
    "randomStatetest271_d0g0v0_Istanbul" : {
        "_info" : {
            "comment" : "",
            "filling-rpc-server" : "Geth-1.9.6-unstable-63b18027-20190920",
            "filling-tool-version" : "retesteth-0.0.1+commit.0ae18aef.Linux.g++",
            "lllcversion" : "Version: 0.5.12-develop.2019.9.13+commit.2d601a4f.Linux.g++",
            "source" : "src/GeneralStateTestsFiller/stRandom/randomStatetest271Filler.json",
            "sourceHash" : "ecd17f633fbbd93e96e15e14b2c9685df77ed0b1fc1cb5ae362db1857f519019"
        },
        "genesisBlockHeader" : {
            "bloom" : "0x00000000000000000000000000000000000000000000000000000000000000000000000000000000000000000000000000000000000000000000000000000000000000000000000000000000000000000000000000000000000000000000000000000000000000000000000000000000000000000000000000000000000000000000000000000000000000000000000000000000000000000000000000000000000000000000000000000000000000000000000000000000000000000000000000000000000000000000000000000000000000000000000000000000000000000000000000000000000000000000000000000000000000000000000000000000",
            "coinbase" : "0x945304eb96065b2a98b57a48a06ae28d285a71b5",
            "difficulty" : "0x20000",
            "extraData" : "0x00",
            "gasLimit" : "0x7fffffffffffffff",
            "gasUsed" : "0x0",
            "hash" : "0xf17119e6079a36a5f04272b8467ee80f70682db8fdae08bf46f77adebee98f93",
            "mixHash" : "0x0000000000000000000000000000000000000000000000000000000000000000",
            "nonce" : "0x0000000000000000",
            "number" : "0x0",
            "parentHash" : "0x0000000000000000000000000000000000000000000000000000000000000000",
            "receiptTrie" : "0x56e81f171bcc55a6ff8345e692c0f86e5b48e01b996cadc001622fb5e363b421",
            "stateRoot" : "0xb41ea2dee1a9985ed93e4b8c2883840c326234a5ed586a61d27e23e7b3f8674e",
            "timestamp" : "0x0",
            "transactionsTrie" : "0x56e81f171bcc55a6ff8345e692c0f86e5b48e01b996cadc001622fb5e363b421",
            "uncleHash" : "0x1dcc4de8dec75d7aab85b567b6ccd41ad312451b948a7413f0a142fd40d49347"
        },
        "pre" : {
            "0x095e7baea6a6c7c4c2dfeb977efac326af552d87" : {
                "balance" : "0x00",
                "code" : "0x7f0000000000000000000000000000000000000000000000000000000000000001457f000000000000000000000000000000000000000000000000000000000000c350417f000000000000000000000000945304eb96065b2a98b57a48a06ae28d285a71b57f0000000000000000000000000000000000000000000000000000000000000000357f00000000000000000000000000000000000000000000000000000000000000000b6d7d958a0269995560005155",
                "nonce" : "0x00",
                "storage" : {
                }
            },
            "0x945304eb96065b2a98b57a48a06ae28d285a71b5" : {
                "balance" : "0x2e",
                "code" : "0x6000355415600957005b60203560003555",
                "nonce" : "0x00",
                "storage" : {
                }
            },
            "0xa94f5374fce5edbc8e2a8697c15331677e6ebf0b" : {
                "balance" : "0x0de0b6b3a7640000",
                "code" : "0x",
                "nonce" : "0x00",
                "storage" : {
                }
            }
        },
        "postState" : {
            "0xa94f5374fce5edbc8e2a8697c15331677e6ebf0b" : {
                "code" : "0x",
                "nonce" : "0x01",
                "balance" : "0x0de0b6b39bd39a8e",
                "storage" : {
                }
            },
            "0x095e7baea6a6c7c4c2dfeb977efac326af552d87" : {
                "code" : "0x7f0000000000000000000000000000000000000000000000000000000000000001457f000000000000000000000000000000000000000000000000000000000000c350417f000000000000000000000000945304eb96065b2a98b57a48a06ae28d285a71b57f0000000000000000000000000000000000000000000000000000000000000000357f00000000000000000000000000000000000000000000000000000000000000000b6d7d958a0269995560005155",
                "nonce" : "0x00",
                "balance" : "0x0b900eb8",
                "storage" : {
                }
            },
            "0x945304eb96065b2a98b57a48a06ae28d285a71b5" : {
                "code" : "0x6000355415600957005b60203560003555",
                "nonce" : "0x00",
                "balance" : "0x1bc16d674ec856e8",
                "storage" : {
                }
            }
        },
        "network" : "Istanbul",
        "sealEngine" : "NoProof",
        "lastblockhash" : "0x2d25f574a150172f55dd835c58427d45038390f2c786e22898910b30b5bdae17",
        "genesisRLP" : "0xf901fdf901f8a00000000000000000000000000000000000000000000000000000000000000000a01dcc4de8dec75d7aab85b567b6ccd41ad312451b948a7413f0a142fd40d4934794945304eb96065b2a98b57a48a06ae28d285a71b5a0b41ea2dee1a9985ed93e4b8c2883840c326234a5ed586a61d27e23e7b3f8674ea056e81f171bcc55a6ff8345e692c0f86e5b48e01b996cadc001622fb5e363b421a056e81f171bcc55a6ff8345e692c0f86e5b48e01b996cadc001622fb5e363b421b90100000000000000000000000000000000000000000000000000000000000000000000000000000000000000000000000000000000000000000000000000000000000000000000000000000000000000000000000000000000000000000000000000000000000000000000000000000000000000000000000000000000000000000000000000000000000000000000000000000000000000000000000000000000000000000000000000000000000000000000000000000000000000000000000000000000000000000000000000000000000000000000000000000000000000000000000000000000000000000000000000000000000000000000000000000000008302000080887fffffffffffffff808000a00000000000000000000000000000000000000000000000000000000000000000880000000000000000c0c0",
        "blocks" : [
            {
                "rlp" : "0xf9031cf901fca0f17119e6079a36a5f04272b8467ee80f70682db8fdae08bf46f77adebee98f93a01dcc4de8dec75d7aab85b567b6ccd41ad312451b948a7413f0a142fd40d4934794945304eb96065b2a98b57a48a06ae28d285a71b5a0cd209e0f83fe4ccb838c74ff8443b772ca8e940b9a3057e0618c28c9afb20fe2a02da117ffb1a3415f595467176e2e1c3e1c4dd5332d7f40dc74ee9b1d570621d6a0a6fc149c37dcb52f146d398fb95671d26596916121b054b243ca677eb82315abb90100000000000000000000000000000000000000000000000000000000000000000000000000000000000000000000000000000000000000000000000000000000000000000000000000000000000000000000000000000000000000000000000000000000000000000000000000000000000000000000000000000000000000000000000000000000000000000000000000000000000000000000000000000000000000000000000000000000000000000000000000000000000000000000000000000000000000000000000000000000000000000000000000000000000000000000000000000000000000000000000000000000000000000000000000000000008302000001887fffffffffffffff8256ba8203e800a00000000000000000000000000000000000000000000000000000000000000000880000000000000000f90119f90116800184238967b794095e7baea6a6c7c4c2dfeb977efac326af552d87840b900eb8b8b07f0000000000000000000000000000000000000000000000000000000000000001457f000000000000000000000000000000000000000000000000000000000000c350417f000000000000000000000000945304eb96065b2a98b57a48a06ae28d285a71b57f0000000000000000000000000000000000000000000000000000000000000000357f00000000000000000000000000000000000000000000000000000000000000000b6d7d958a0269991ca0ed14c2e795774422e77df38abdd57f67588cd2f2fe74b8358205fba83231407ea06b1997d393b68c76a212544e13a52391c8f6c7767ee00995d2d5bcd407a4e887c0",
                "blockHeader" : {
                    "bloom" : "0x00000000000000000000000000000000000000000000000000000000000000000000000000000000000000000000000000000000000000000000000000000000000000000000000000000000000000000000000000000000000000000000000000000000000000000000000000000000000000000000000000000000000000000000000000000000000000000000000000000000000000000000000000000000000000000000000000000000000000000000000000000000000000000000000000000000000000000000000000000000000000000000000000000000000000000000000000000000000000000000000000000000000000000000000000000000",
                    "coinbase" : "0x945304eb96065b2a98b57a48a06ae28d285a71b5",
                    "difficulty" : "0x20000",
                    "extraData" : "0x00",
                    "gasLimit" : "0x7fffffffffffffff",
                    "gasUsed" : "0x56ba",
                    "hash" : "0x2d25f574a150172f55dd835c58427d45038390f2c786e22898910b30b5bdae17",
                    "mixHash" : "0x0000000000000000000000000000000000000000000000000000000000000000",
                    "nonce" : "0x0000000000000000",
                    "number" : "0x1",
                    "parentHash" : "0xf17119e6079a36a5f04272b8467ee80f70682db8fdae08bf46f77adebee98f93",
                    "receiptTrie" : "0xa6fc149c37dcb52f146d398fb95671d26596916121b054b243ca677eb82315ab",
                    "stateRoot" : "0xcd209e0f83fe4ccb838c74ff8443b772ca8e940b9a3057e0618c28c9afb20fe2",
                    "timestamp" : "0x3e8",
                    "transactionsTrie" : "0x2da117ffb1a3415f595467176e2e1c3e1c4dd5332d7f40dc74ee9b1d570621d6",
                    "uncleHash" : "0x1dcc4de8dec75d7aab85b567b6ccd41ad312451b948a7413f0a142fd40d49347"
                },
                "transactions" : [
                    {
                        "data" : "0x7f0000000000000000000000000000000000000000000000000000000000000001457f000000000000000000000000000000000000000000000000000000000000c350417f000000000000000000000000945304eb96065b2a98b57a48a06ae28d285a71b57f0000000000000000000000000000000000000000000000000000000000000000357f00000000000000000000000000000000000000000000000000000000000000000b6d7d958a026999",
                        "gasLimit" : "0x238967b7",
                        "gasPrice" : "0x01",
                        "nonce" : "0x00",
                        "to" : "0x095e7baea6a6c7c4c2dfeb977efac326af552d87",
                        "value" : "0x0b900eb8",
                        "v" : "0x1c",
                        "r" : "0xed14c2e795774422e77df38abdd57f67588cd2f2fe74b8358205fba83231407e",
                        "s" : "0x6b1997d393b68c76a212544e13a52391c8f6c7767ee00995d2d5bcd407a4e887"
                    }
                ]
            }
        ]
    }
}