{
    "randomStatetest25_d0g0v0_Istanbul" : {
        "_info" : {
            "comment" : "",
            "filling-rpc-server" : "Geth-1.9.6-unstable-63b18027-20190920",
            "filling-tool-version" : "retesteth-0.0.1+commit.0ae18aef.Linux.g++",
            "lllcversion" : "Version: 0.5.12-develop.2019.9.13+commit.2d601a4f.Linux.g++",
            "source" : "src/GeneralStateTestsFiller/stRandom/randomStatetest25Filler.json",
            "sourceHash" : "424a91789f5b7e5458bb0dae635bd40f6cb05617ab619a129d957f8ad5d927f9"
        },
        "genesisBlockHeader" : {
            "bloom" : "0x00000000000000000000000000000000000000000000000000000000000000000000000000000000000000000000000000000000000000000000000000000000000000000000000000000000000000000000000000000000000000000000000000000000000000000000000000000000000000000000000000000000000000000000000000000000000000000000000000000000000000000000000000000000000000000000000000000000000000000000000000000000000000000000000000000000000000000000000000000000000000000000000000000000000000000000000000000000000000000000000000000000000000000000000000000000",
            "coinbase" : "0x945304eb96065b2a98b57a48a06ae28d285a71b5",
            "difficulty" : "0x20000",
            "extraData" : "0x00",
            "gasLimit" : "0x7fffffffffffffff",
            "gasUsed" : "0x0",
            "hash" : "0xf546d95974e587c38c0f15bfc221e55b9750508310564d23eb570c1eaa8b986c",
            "mixHash" : "0x0000000000000000000000000000000000000000000000000000000000000000",
            "nonce" : "0x0000000000000000",
            "number" : "0x0",
            "parentHash" : "0x0000000000000000000000000000000000000000000000000000000000000000",
            "receiptTrie" : "0x56e81f171bcc55a6ff8345e692c0f86e5b48e01b996cadc001622fb5e363b421",
            "stateRoot" : "0xea43fbcdeb38060d19a471df47dd3c5a106bdb45e0cbd26eda6062667de36eaa",
            "timestamp" : "0x0",
            "transactionsTrie" : "0x56e81f171bcc55a6ff8345e692c0f86e5b48e01b996cadc001622fb5e363b421",
            "uncleHash" : "0x1dcc4de8dec75d7aab85b567b6ccd41ad312451b948a7413f0a142fd40d49347"
        },
        "pre" : {
            "0x095e7baea6a6c7c4c2dfeb977efac326af552d87" : {
                "balance" : "0x00",
                "code" : "0x427f00000000000000000000000000000000000000000000000000000000000000007f0000000000000000000000010000000000000000000000000000000000000000437f000000000000000000000000ffffffffffffffffffffffffffffffffffffffff807f00000000000000000000000100000000000000000000000000000000000000007ffffffffffffffffffffffffffffffffffffffffffffffffffffffffffffffffe6844f1389163a444405b123678749c55",
                "nonce" : "0x00",
                "storage" : {
                }
            },
            "0x945304eb96065b2a98b57a48a06ae28d285a71b5" : {
                "balance" : "0x2e",
                "code" : "0x6000355415600957005b60203560003555",
                "nonce" : "0x00",
                "storage" : {
                }
            },
            "0xa94f5374fce5edbc8e2a8697c15331677e6ebf0b" : {
                "balance" : "0x0de0b6b3a7640000",
                "code" : "0x",
                "nonce" : "0x00",
                "storage" : {
                }
            }
        },
        "postState" : {
            "0xa94f5374fce5edbc8e2a8697c15331677e6ebf0b" : {
                "code" : "0x",
                "nonce" : "0x01",
                "balance" : "0x0de0b6b33444c28f",
                "storage" : {
                }
            },
            "0x095e7baea6a6c7c4c2dfeb977efac326af552d87" : {
                "code" : "0x427f00000000000000000000000000000000000000000000000000000000000000007f0000000000000000000000010000000000000000000000000000000000000000437f000000000000000000000000ffffffffffffffffffffffffffffffffffffffff807f00000000000000000000000100000000000000000000000000000000000000007ffffffffffffffffffffffffffffffffffffffffffffffffffffffffffffffffe6844f1389163a444405b123678749c55",
                "nonce" : "0x00",
                "balance" : "0x731ee4d0",
                "storage" : {
                }
            },
            "0x945304eb96065b2a98b57a48a06ae28d285a71b5" : {
                "code" : "0x6000355415600957005b60203560003555",
                "nonce" : "0x00",
                "balance" : "0x1bc16d674ec858cf",
                "storage" : {
                }
            }
        },
        "network" : "Istanbul",
        "sealEngine" : "NoProof",
        "lastblockhash" : "0x6b16332b845d1db4f3e0236043481711107fcf4e25c33c6419b01af6a9558e38",
        "genesisRLP" : "0xf901fdf901f8a00000000000000000000000000000000000000000000000000000000000000000a01dcc4de8dec75d7aab85b567b6ccd41ad312451b948a7413f0a142fd40d4934794945304eb96065b2a98b57a48a06ae28d285a71b5a0ea43fbcdeb38060d19a471df47dd3c5a106bdb45e0cbd26eda6062667de36eaaa056e81f171bcc55a6ff8345e692c0f86e5b48e01b996cadc001622fb5e363b421a056e81f171bcc55a6ff8345e692c0f86e5b48e01b996cadc001622fb5e363b421b90100000000000000000000000000000000000000000000000000000000000000000000000000000000000000000000000000000000000000000000000000000000000000000000000000000000000000000000000000000000000000000000000000000000000000000000000000000000000000000000000000000000000000000000000000000000000000000000000000000000000000000000000000000000000000000000000000000000000000000000000000000000000000000000000000000000000000000000000000000000000000000000000000000000000000000000000000000000000000000000000000000000000000000000000000000000008302000080887fffffffffffffff808000a00000000000000000000000000000000000000000000000000000000000000000880000000000000000c0c0",
        "blocks" : [
            {
                "rlp" : "0xf90323f901fca0f546d95974e587c38c0f15bfc221e55b9750508310564d23eb570c1eaa8b986ca01dcc4de8dec75d7aab85b567b6ccd41ad312451b948a7413f0a142fd40d4934794945304eb96065b2a98b57a48a06ae28d285a71b5a007191192ed10988d0b895c37c6b634b231bd19fca5855d5daa5857ba6cb0e7ffa0df34fc167ca11c372184d2eb91185c0a8eb97ef4b76bb48b708c45994634292fa001ed5ad30bf81d8be8c33f42a5b2b564f7b8edb818502b719b56a68b1f004938b90100000000000000000000000000000000000000000000000000000000000000000000000000000000000000000000000000000000000000000000000000000000000000000000000000000000000000000000000000000000000000000000000000000000000000000000000000000000000000000000000000000000000000000000000000000000000000000000000000000000000000000000000000000000000000000000000000000000000000000000000000000000000000000000000000000000000000000000000000000000000000000000000000000000000000000000000000000000000000000000000000000000000000000000000000000000008302000001887fffffffffffffff8258a18203e800a00000000000000000000000000000000000000000000000000000000000000000880000000000000000f90120f9011d8001842d34dd4294095e7baea6a6c7c4c2dfeb977efac326af552d8784731ee4d0b8b7427f00000000000000000000000000000000000000000000000000000000000000007f0000000000000000000000010000000000000000000000000000000000000000437f000000000000000000000000ffffffffffffffffffffffffffffffffffffffff807f00000000000000000000000100000000000000000000000000000000000000007ffffffffffffffffffffffffffffffffffffffffffffffffffffffffffffffffe6844f1389163a444405b123678749c1ca057ec73a338f094b638288fb42c180f897d34aae785c13d06adcf9dc24230acc1a04aebcebd6992c674b6318aaf3d7252eb5b6d007edc4208fe1403867bd3cc0e63c0",
                "blockHeader" : {
                    "bloom" : "0x00000000000000000000000000000000000000000000000000000000000000000000000000000000000000000000000000000000000000000000000000000000000000000000000000000000000000000000000000000000000000000000000000000000000000000000000000000000000000000000000000000000000000000000000000000000000000000000000000000000000000000000000000000000000000000000000000000000000000000000000000000000000000000000000000000000000000000000000000000000000000000000000000000000000000000000000000000000000000000000000000000000000000000000000000000000",
                    "coinbase" : "0x945304eb96065b2a98b57a48a06ae28d285a71b5",
                    "difficulty" : "0x20000",
                    "extraData" : "0x00",
                    "gasLimit" : "0x7fffffffffffffff",
                    "gasUsed" : "0x58a1",
                    "hash" : "0x6b16332b845d1db4f3e0236043481711107fcf4e25c33c6419b01af6a9558e38",
                    "mixHash" : "0x0000000000000000000000000000000000000000000000000000000000000000",
                    "nonce" : "0x0000000000000000",
                    "number" : "0x1",
                    "parentHash" : "0xf546d95974e587c38c0f15bfc221e55b9750508310564d23eb570c1eaa8b986c",
                    "receiptTrie" : "0x01ed5ad30bf81d8be8c33f42a5b2b564f7b8edb818502b719b56a68b1f004938",
                    "stateRoot" : "0x07191192ed10988d0b895c37c6b634b231bd19fca5855d5daa5857ba6cb0e7ff",
                    "timestamp" : "0x3e8",
                    "transactionsTrie" : "0xdf34fc167ca11c372184d2eb91185c0a8eb97ef4b76bb48b708c45994634292f",
                    "uncleHash" : "0x1dcc4de8dec75d7aab85b567b6ccd41ad312451b948a7413f0a142fd40d49347"
                },
                "transactions" : [
                    {
                        "data" : "0x427f00000000000000000000000000000000000000000000000000000000000000007f0000000000000000000000010000000000000000000000000000000000000000437f000000000000000000000000ffffffffffffffffffffffffffffffffffffffff807f00000000000000000000000100000000000000000000000000000000000000007ffffffffffffffffffffffffffffffffffffffffffffffffffffffffffffffffe6844f1389163a444405b123678749c",
                        "gasLimit" : "0x2d34dd42",
                        "gasPrice" : "0x01",
                        "nonce" : "0x00",
                        "to" : "0x095e7baea6a6c7c4c2dfeb977efac326af552d87",
                        "value" : "0x731ee4d0",
                        "v" : "0x1c",
                        "r" : "0x57ec73a338f094b638288fb42c180f897d34aae785c13d06adcf9dc24230acc1",
                        "s" : "0x4aebcebd6992c674b6318aaf3d7252eb5b6d007edc4208fe1403867bd3cc0e63"
                    }
                ]
            }
        ]
    }
}