{
    "randomStatetest201_d0g0v0_Istanbul" : {
        "_info" : {
            "comment" : "",
            "filling-rpc-server" : "Geth-1.9.6-unstable-63b18027-20190920",
            "filling-tool-version" : "retesteth-0.0.1+commit.0ae18aef.Linux.g++",
            "lllcversion" : "Version: 0.5.12-develop.2019.9.13+commit.2d601a4f.Linux.g++",
            "source" : "src/GeneralStateTestsFiller/stRandom/randomStatetest201Filler.json",
            "sourceHash" : "6581cc5eadb06620187e28960943b17d74220a93dd4b1c4ef546e84342d9195c"
        },
        "genesisBlockHeader" : {
            "bloom" : "0x00000000000000000000000000000000000000000000000000000000000000000000000000000000000000000000000000000000000000000000000000000000000000000000000000000000000000000000000000000000000000000000000000000000000000000000000000000000000000000000000000000000000000000000000000000000000000000000000000000000000000000000000000000000000000000000000000000000000000000000000000000000000000000000000000000000000000000000000000000000000000000000000000000000000000000000000000000000000000000000000000000000000000000000000000000000",
            "coinbase" : "0x945304eb96065b2a98b57a48a06ae28d285a71b5",
            "difficulty" : "0x20000",
            "extraData" : "0x00",
            "gasLimit" : "0x7fffffffffffffff",
            "gasUsed" : "0x0",
            "hash" : "0xd672e61f9391c56a1276b276d1ba2eeb8042887ff26990b81d8e671434009398",
            "mixHash" : "0x0000000000000000000000000000000000000000000000000000000000000000",
            "nonce" : "0x0000000000000000",
            "number" : "0x0",
            "parentHash" : "0x0000000000000000000000000000000000000000000000000000000000000000",
            "receiptTrie" : "0x56e81f171bcc55a6ff8345e692c0f86e5b48e01b996cadc001622fb5e363b421",
            "stateRoot" : "0x7f292963f141640db494db7d69cb778eb8cb2a792a8d288c6baf091c1acf449c",
            "timestamp" : "0x0",
            "transactionsTrie" : "0x56e81f171bcc55a6ff8345e692c0f86e5b48e01b996cadc001622fb5e363b421",
            "uncleHash" : "0x1dcc4de8dec75d7aab85b567b6ccd41ad312451b948a7413f0a142fd40d49347"
        },
        "pre" : {
            "0x095e7baea6a6c7c4c2dfeb977efac326af552d87" : {
                "balance" : "0x00",
                "code" : "0x7f000000000000000000000000ffffffffffffffffffffffffffffffffffffffff7fffffffffffffffffffffffffffffffffffffffffffffffffffffffffffffffff7ffffffffffffffffffffffffffffffffffffffffffffffffffffffffffffffffe7f000000000000000000000000ffffffffffffffffffffffffffffffffffffffff09ff7f00000000000000000000000000000000000000000000000000000000000000017f000000000000000000000000ffffffffffffffffffffffffffffffffffffffff8b8263974074da449e6861039960005155",
                "nonce" : "0x00",
                "storage" : {
                }
            },
            "0x945304eb96065b2a98b57a48a06ae28d285a71b5" : {
                "balance" : "0x2e",
                "code" : "0x6000355415600957005b60203560003555",
                "nonce" : "0x00",
                "storage" : {
                }
            },
            "0xa94f5374fce5edbc8e2a8697c15331677e6ebf0b" : {
                "balance" : "0x0de0b6b3a7640000",
                "code" : "0x",
                "nonce" : "0x00",
                "storage" : {
                }
            }
        },
        "postState" : {
            "0xa94f5374fce5edbc8e2a8697c15331677e6ebf0b" : {
                "code" : "0x",
                "nonce" : "0x01",
                "balance" : "0x0de0b6b36e8cdff2",
                "storage" : {
                }
            },
            "0x0000000000000000000000000000000000000000" : {
                "code" : "0x",
                "nonce" : "0x00",
                "balance" : "0x38d6ac56",
                "storage" : {
                }
            },
            "0x945304eb96065b2a98b57a48a06ae28d285a71b5" : {
                "code" : "0x6000355415600957005b60203560003555",
                "nonce" : "0x00",
                "balance" : "0x1bc16d674ec873e6",
                "storage" : {
                }
            }
        },
        "network" : "Istanbul",
        "sealEngine" : "NoProof",
        "lastblockhash" : "0xf745fadc459ee0464739783441f376d2718052f1929e8fdeafa7be6e5e1cb2fe",
        "genesisRLP" : "0xf901fdf901f8a00000000000000000000000000000000000000000000000000000000000000000a01dcc4de8dec75d7aab85b567b6ccd41ad312451b948a7413f0a142fd40d4934794945304eb96065b2a98b57a48a06ae28d285a71b5a07f292963f141640db494db7d69cb778eb8cb2a792a8d288c6baf091c1acf449ca056e81f171bcc55a6ff8345e692c0f86e5b48e01b996cadc001622fb5e363b421a056e81f171bcc55a6ff8345e692c0f86e5b48e01b996cadc001622fb5e363b421b90100000000000000000000000000000000000000000000000000000000000000000000000000000000000000000000000000000000000000000000000000000000000000000000000000000000000000000000000000000000000000000000000000000000000000000000000000000000000000000000000000000000000000000000000000000000000000000000000000000000000000000000000000000000000000000000000000000000000000000000000000000000000000000000000000000000000000000000000000000000000000000000000000000000000000000000000000000000000000000000000000000000000000000000000000000000008302000080887fffffffffffffff808000a00000000000000000000000000000000000000000000000000000000000000000880000000000000000c0c0",
        "blocks" : [
            {
                "rlp" : "0xf90341f901fca0d672e61f9391c56a1276b276d1ba2eeb8042887ff26990b81d8e671434009398a01dcc4de8dec75d7aab85b567b6ccd41ad312451b948a7413f0a142fd40d4934794945304eb96065b2a98b57a48a06ae28d285a71b5a045ab899679281936df3feca4d9ba885b6f8a01469f2a2272acf778067e00ce19a05b3bc9259e9cbc03434821271e2ab3ef242098efa8520d8b7e35404eeac55b29a088423ee9e5f07d7a034315025ec1f677bbc90bd8c08970b959d689a8b028b4c5b90100000000000000000000000000000000000000000000000000000000000000000000000000000000000000000000000000000000000000000000000000000000000000000000000000000000000000000000000000000000000000000000000000000000000000000000000000000000000000000000000000000000000000000000000000000000000000000000000000000000000000000000000000000000000000000000000000000000000000000000000000000000000000000000000000000000000000000000000000000000000000000000000000000000000000000000000000000000000000000000000000000000000000000000000000000000008302000001887fffffffffffffff8273b88203e800a00000000000000000000000000000000000000000000000000000000000000000880000000000000000f9013ef9013b8001844930896894095e7baea6a6c7c4c2dfeb977efac326af552d878438d6ac56b8d57f000000000000000000000000ffffffffffffffffffffffffffffffffffffffff7fffffffffffffffffffffffffffffffffffffffffffffffffffffffffffffffff7ffffffffffffffffffffffffffffffffffffffffffffffffffffffffffffffffe7f000000000000000000000000ffffffffffffffffffffffffffffffffffffffff09ff7f00000000000000000000000000000000000000000000000000000000000000017f000000000000000000000000ffffffffffffffffffffffffffffffffffffffff8b8263974074da449e686103991ba0f12429d39349e5c02188b873cd46837661dca4572d4160e70803c87ad41fed9aa0324dfa577bec0c81144c3a2f74a6dafa8424b8f831087d574beff514cbc97b28c0",
                "blockHeader" : {
                    "bloom" : "0x00000000000000000000000000000000000000000000000000000000000000000000000000000000000000000000000000000000000000000000000000000000000000000000000000000000000000000000000000000000000000000000000000000000000000000000000000000000000000000000000000000000000000000000000000000000000000000000000000000000000000000000000000000000000000000000000000000000000000000000000000000000000000000000000000000000000000000000000000000000000000000000000000000000000000000000000000000000000000000000000000000000000000000000000000000000",
                    "coinbase" : "0x945304eb96065b2a98b57a48a06ae28d285a71b5",
                    "difficulty" : "0x20000",
                    "extraData" : "0x00",
                    "gasLimit" : "0x7fffffffffffffff",
                    "gasUsed" : "0x73b8",
                    "hash" : "0xf745fadc459ee0464739783441f376d2718052f1929e8fdeafa7be6e5e1cb2fe",
                    "mixHash" : "0x0000000000000000000000000000000000000000000000000000000000000000",
                    "nonce" : "0x0000000000000000",
                    "number" : "0x1",
                    "parentHash" : "0xd672e61f9391c56a1276b276d1ba2eeb8042887ff26990b81d8e671434009398",
                    "receiptTrie" : "0x88423ee9e5f07d7a034315025ec1f677bbc90bd8c08970b959d689a8b028b4c5",
                    "stateRoot" : "0x45ab899679281936df3feca4d9ba885b6f8a01469f2a2272acf778067e00ce19",
                    "timestamp" : "0x3e8",
                    "transactionsTrie" : "0x5b3bc9259e9cbc03434821271e2ab3ef242098efa8520d8b7e35404eeac55b29",
                    "uncleHash" : "0x1dcc4de8dec75d7aab85b567b6ccd41ad312451b948a7413f0a142fd40d49347"
                },
                "transactions" : [
                    {
                        "data" : "0x7f000000000000000000000000ffffffffffffffffffffffffffffffffffffffff7fffffffffffffffffffffffffffffffffffffffffffffffffffffffffffffffff7ffffffffffffffffffffffffffffffffffffffffffffffffffffffffffffffffe7f000000000000000000000000ffffffffffffffffffffffffffffffffffffffff09ff7f00000000000000000000000000000000000000000000000000000000000000017f000000000000000000000000ffffffffffffffffffffffffffffffffffffffff8b8263974074da449e68610399",
                        "gasLimit" : "0x49308968",
                        "gasPrice" : "0x01",
                        "nonce" : "0x00",
                        "to" : "0x095e7baea6a6c7c4c2dfeb977efac326af552d87",
                        "value" : "0x38d6ac56",
                        "v" : "0x1b",
                        "r" : "0xf12429d39349e5c02188b873cd46837661dca4572d4160e70803c87ad41fed9a",
                        "s" : "0x324dfa577bec0c81144c3a2f74a6dafa8424b8f831087d574beff514cbc97b28"
                    }
                ]
            }
        ]
    }
}