{
    "randomStatetest66_d0g0v0_Istanbul" : {
        "_info" : {
            "comment" : "",
            "filling-rpc-server" : "Geth-1.9.6-unstable-63b18027-20190920",
            "filling-tool-version" : "retesteth-0.0.1+commit.0ae18aef.Linux.g++",
            "lllcversion" : "Version: 0.5.12-develop.2019.9.13+commit.2d601a4f.Linux.g++",
            "source" : "src/GeneralStateTestsFiller/stRandom/randomStatetest66Filler.json",
            "sourceHash" : "299d1f7c75f9ca0c4105813678102c7afd8816a46cf0eb8e8d9b178104b0c5ee"
        },
        "genesisBlockHeader" : {
            "bloom" : "0x00000000000000000000000000000000000000000000000000000000000000000000000000000000000000000000000000000000000000000000000000000000000000000000000000000000000000000000000000000000000000000000000000000000000000000000000000000000000000000000000000000000000000000000000000000000000000000000000000000000000000000000000000000000000000000000000000000000000000000000000000000000000000000000000000000000000000000000000000000000000000000000000000000000000000000000000000000000000000000000000000000000000000000000000000000000",
            "coinbase" : "0x945304eb96065b2a98b57a48a06ae28d285a71b5",
            "difficulty" : "0x20000",
            "extraData" : "0x00",
            "gasLimit" : "0x7fffffffffffffff",
            "gasUsed" : "0x0",
            "hash" : "0xce5465404e8780ac5643758acd342db7c30b49cf341a7258acb51fefa2f3c531",
            "mixHash" : "0x0000000000000000000000000000000000000000000000000000000000000000",
            "nonce" : "0x0000000000000000",
            "number" : "0x0",
            "parentHash" : "0x0000000000000000000000000000000000000000000000000000000000000000",
            "receiptTrie" : "0x56e81f171bcc55a6ff8345e692c0f86e5b48e01b996cadc001622fb5e363b421",
            "stateRoot" : "0x5b31b907f1666ab5016af3c114ffdbb9b9a953a54def393ecb65493a7146a634",
            "timestamp" : "0x0",
            "transactionsTrie" : "0x56e81f171bcc55a6ff8345e692c0f86e5b48e01b996cadc001622fb5e363b421",
            "uncleHash" : "0x1dcc4de8dec75d7aab85b567b6ccd41ad312451b948a7413f0a142fd40d49347"
        },
        "pre" : {
            "0x095e7baea6a6c7c4c2dfeb977efac326af552d87" : {
                "balance" : "0x00",
                "code" : "0x457fffffffffffffffffffffffffffffffffffffffffffffffffffffffffffffffff417fffffffffffffffffffffffffffffffffffffffffffffffffffffffffffffffff7f000000000000000000000000945304eb96065b2a98b57a48a06ae28d285a71b57ffffffffffffffffffffffffffffffffffffffffffffffffffffffffffffffffe097f000000000000000000000001000000000000000000000000000000000000000055",
                "nonce" : "0x00",
                "storage" : {
                }
            },
            "0x945304eb96065b2a98b57a48a06ae28d285a71b5" : {
                "balance" : "0x2e",
                "code" : "0x6000355415600957005b60203560003555",
                "nonce" : "0x00",
                "storage" : {
                }
            },
            "0xa94f5374fce5edbc8e2a8697c15331677e6ebf0b" : {
                "balance" : "0x0de0b6b3a7640000",
                "code" : "0x",
                "nonce" : "0x00",
                "storage" : {
                }
            }
        },
        "postState" : {
            "0xa94f5374fce5edbc8e2a8697c15331677e6ebf0b" : {
                "code" : "0x",
                "nonce" : "0x01",
                "balance" : "0x0de0b6b3780cf673",
                "storage" : {
                }
            },
            "0x095e7baea6a6c7c4c2dfeb977efac326af552d87" : {
                "code" : "0x457fffffffffffffffffffffffffffffffffffffffffffffffffffffffffffffffff417fffffffffffffffffffffffffffffffffffffffffffffffffffffffffffffffff7f000000000000000000000000945304eb96065b2a98b57a48a06ae28d285a71b57ffffffffffffffffffffffffffffffffffffffffffffffffffffffffffffffffe097f000000000000000000000001000000000000000000000000000000000000000055",
                "nonce" : "0x00",
                "balance" : "0x2f5660ce",
                "storage" : {
                    "0x010000000000000000000000000000000000000000" : "0xffffffffffffffffffffffff6bacfb1469f9a4d5674a85b75f951d72d7a58e4a"
                }
            },
            "0x945304eb96065b2a98b57a48a06ae28d285a71b5" : {
                "code" : "0x6000355415600957005b60203560003555",
                "nonce" : "0x00",
                "balance" : "0x1bc16d674ec8a8ed",
                "storage" : {
                }
            }
        },
        "network" : "Istanbul",
        "sealEngine" : "NoProof",
        "lastblockhash" : "0x7a5427ae2496e150e51ce7772dc5d619eb3589cdb310e0bbf0cdad376555e297",
        "genesisRLP" : "0xf901fdf901f8a00000000000000000000000000000000000000000000000000000000000000000a01dcc4de8dec75d7aab85b567b6ccd41ad312451b948a7413f0a142fd40d4934794945304eb96065b2a98b57a48a06ae28d285a71b5a05b31b907f1666ab5016af3c114ffdbb9b9a953a54def393ecb65493a7146a634a056e81f171bcc55a6ff8345e692c0f86e5b48e01b996cadc001622fb5e363b421a056e81f171bcc55a6ff8345e692c0f86e5b48e01b996cadc001622fb5e363b421b90100000000000000000000000000000000000000000000000000000000000000000000000000000000000000000000000000000000000000000000000000000000000000000000000000000000000000000000000000000000000000000000000000000000000000000000000000000000000000000000000000000000000000000000000000000000000000000000000000000000000000000000000000000000000000000000000000000000000000000000000000000000000000000000000000000000000000000000000000000000000000000000000000000000000000000000000000000000000000000000000000000000000000000000000000000000008302000080887fffffffffffffff808000a00000000000000000000000000000000000000000000000000000000000000000880000000000000000c0c0",
        "blocks" : [
            {
                "rlp" : "0xf90314f901fca0ce5465404e8780ac5643758acd342db7c30b49cf341a7258acb51fefa2f3c531a01dcc4de8dec75d7aab85b567b6ccd41ad312451b948a7413f0a142fd40d4934794945304eb96065b2a98b57a48a06ae28d285a71b5a03eed67aaa188eb7f6734b66c576f9c6da417b86a3252434a78f9d7419fec5542a01b9adb3ae60f1b1b665d1bafc75ea1367c114a9344447199707083e8ab347a56a0d1cb2a046c4608a7f79af105f9e04b6d19a3e593c1ca5916480c6ec125021201b90100000000000000000000000000000000000000000000000000000000000000000000000000000000000000000000000000000000000000000000000000000000000000000000000000000000000000000000000000000000000000000000000000000000000000000000000000000000000000000000000000000000000000000000000000000000000000000000000000000000000000000000000000000000000000000000000000000000000000000000000000000000000000000000000000000000000000000000000000000000000000000000000000000000000000000000000000000000000000000000000000000000000000000000000000000000008302000001887fffffffffffffff82a8bf8203e800a00000000000000000000000000000000000000000000000000000000000000000880000000000000000f90111f9010e8001845be4cce894095e7baea6a6c7c4c2dfeb977efac326af552d87842f5660ceb8a8457fffffffffffffffffffffffffffffffffffffffffffffffffffffffffffffffff417fffffffffffffffffffffffffffffffffffffffffffffffffffffffffffffffff7f000000000000000000000000945304eb96065b2a98b57a48a06ae28d285a71b57ffffffffffffffffffffffffffffffffffffffffffffffffffffffffffffffffe097f00000000000000000000000100000000000000000000000000000000000000001ca0cca15afc73f64994b09f9b24e8e7b18708b8de5be22ea7f18a705115f1ddd33ba0453e4c177ee63d99e9e46d0f97f0ad4fb804f07918c9abbd0560e6dd5fa2a49fc0",
                "blockHeader" : {
                    "bloom" : "0x00000000000000000000000000000000000000000000000000000000000000000000000000000000000000000000000000000000000000000000000000000000000000000000000000000000000000000000000000000000000000000000000000000000000000000000000000000000000000000000000000000000000000000000000000000000000000000000000000000000000000000000000000000000000000000000000000000000000000000000000000000000000000000000000000000000000000000000000000000000000000000000000000000000000000000000000000000000000000000000000000000000000000000000000000000000",
                    "coinbase" : "0x945304eb96065b2a98b57a48a06ae28d285a71b5",
                    "difficulty" : "0x20000",
                    "extraData" : "0x00",
                    "gasLimit" : "0x7fffffffffffffff",
                    "gasUsed" : "0xa8bf",
                    "hash" : "0x7a5427ae2496e150e51ce7772dc5d619eb3589cdb310e0bbf0cdad376555e297",
                    "mixHash" : "0x0000000000000000000000000000000000000000000000000000000000000000",
                    "nonce" : "0x0000000000000000",
                    "number" : "0x1",
                    "parentHash" : "0xce5465404e8780ac5643758acd342db7c30b49cf341a7258acb51fefa2f3c531",
                    "receiptTrie" : "0xd1cb2a046c4608a7f79af105f9e04b6d19a3e593c1ca5916480c6ec125021201",
                    "stateRoot" : "0x3eed67aaa188eb7f6734b66c576f9c6da417b86a3252434a78f9d7419fec5542",
                    "timestamp" : "0x3e8",
                    "transactionsTrie" : "0x1b9adb3ae60f1b1b665d1bafc75ea1367c114a9344447199707083e8ab347a56",
                    "uncleHash" : "0x1dcc4de8dec75d7aab85b567b6ccd41ad312451b948a7413f0a142fd40d49347"
                },
                "transactions" : [
                    {
                        "data" : "0x457fffffffffffffffffffffffffffffffffffffffffffffffffffffffffffffffff417fffffffffffffffffffffffffffffffffffffffffffffffffffffffffffffffff7f000000000000000000000000945304eb96065b2a98b57a48a06ae28d285a71b57ffffffffffffffffffffffffffffffffffffffffffffffffffffffffffffffffe097f0000000000000000000000010000000000000000000000000000000000000000",
                        "gasLimit" : "0x5be4cce8",
                        "gasPrice" : "0x01",
                        "nonce" : "0x00",
                        "to" : "0x095e7baea6a6c7c4c2dfeb977efac326af552d87",
                        "value" : "0x2f5660ce",
                        "v" : "0x1c",
                        "r" : "0xcca15afc73f64994b09f9b24e8e7b18708b8de5be22ea7f18a705115f1ddd33b",
                        "s" : "0x453e4c177ee63d99e9e46d0f97f0ad4fb804f07918c9abbd0560e6dd5fa2a49f"
                    }
                ]
            }
        ]
    }
}