{
    "randomStatetest60_d0g0v0_Istanbul" : {
        "_info" : {
            "comment" : "",
            "filling-rpc-server" : "Geth-1.9.6-unstable-63b18027-20190920",
            "filling-tool-version" : "retesteth-0.0.1+commit.0ae18aef.Linux.g++",
            "lllcversion" : "Version: 0.5.12-develop.2019.9.13+commit.2d601a4f.Linux.g++",
            "source" : "src/GeneralStateTestsFiller/stRandom/randomStatetest60Filler.json",
            "sourceHash" : "0f798b31ff14edda1890556ba7a0f61d62df7172682c8e6ce26c39f5b8c09b45"
        },
        "genesisBlockHeader" : {
            "bloom" : "0x00000000000000000000000000000000000000000000000000000000000000000000000000000000000000000000000000000000000000000000000000000000000000000000000000000000000000000000000000000000000000000000000000000000000000000000000000000000000000000000000000000000000000000000000000000000000000000000000000000000000000000000000000000000000000000000000000000000000000000000000000000000000000000000000000000000000000000000000000000000000000000000000000000000000000000000000000000000000000000000000000000000000000000000000000000000",
            "coinbase" : "0x945304eb96065b2a98b57a48a06ae28d285a71b5",
            "difficulty" : "0x20000",
            "extraData" : "0x00",
            "gasLimit" : "0x7fffffffffffffff",
            "gasUsed" : "0x0",
            "hash" : "0x8beee884d9030830e1b07aad0547f8ff4a68bad3709e888cea31cc854126f4dc",
            "mixHash" : "0x0000000000000000000000000000000000000000000000000000000000000000",
            "nonce" : "0x0000000000000000",
            "number" : "0x0",
            "parentHash" : "0x0000000000000000000000000000000000000000000000000000000000000000",
            "receiptTrie" : "0x56e81f171bcc55a6ff8345e692c0f86e5b48e01b996cadc001622fb5e363b421",
            "stateRoot" : "0x59a47652269f13439e345d49142d0b6440e6e9ecd1b7088ce172705d648c1017",
            "timestamp" : "0x0",
            "transactionsTrie" : "0x56e81f171bcc55a6ff8345e692c0f86e5b48e01b996cadc001622fb5e363b421",
            "uncleHash" : "0x1dcc4de8dec75d7aab85b567b6ccd41ad312451b948a7413f0a142fd40d49347"
        },
        "pre" : {
            "0x095e7baea6a6c7c4c2dfeb977efac326af552d87" : {
                "balance" : "0x00",
                "code" : "0x427f0000000000000000000000000000000000000000000000000000000000000000427f000000000000000000000000ffffffffffffffffffffffffffffffffffffffff437f000000000000000000000000000000000000000000000000000000000000c3507ffffffffffffffffffffffffffffffffffffffffffffffffffffffffffffffffe6f969001091aa15b8b9b75459d015a045560005155",
                "nonce" : "0x00",
                "storage" : {
                }
            },
            "0x945304eb96065b2a98b57a48a06ae28d285a71b5" : {
                "balance" : "0x2e",
                "code" : "0x6000355415600957005b60203560003555",
                "nonce" : "0x00",
                "storage" : {
                }
            },
            "0xa94f5374fce5edbc8e2a8697c15331677e6ebf0b" : {
                "balance" : "0x0de0b6b3a7640000",
                "code" : "0x",
                "nonce" : "0x00",
                "storage" : {
                }
            }
        },
        "postState" : {
            "0xa94f5374fce5edbc8e2a8697c15331677e6ebf0b" : {
                "code" : "0x",
                "nonce" : "0x01",
                "balance" : "0x0de0b6b352853b13",
                "storage" : {
                }
            },
            "0x095e7baea6a6c7c4c2dfeb977efac326af552d87" : {
                "code" : "0x427f0000000000000000000000000000000000000000000000000000000000000000427f000000000000000000000000ffffffffffffffffffffffffffffffffffffffff437f000000000000000000000000000000000000000000000000000000000000c3507ffffffffffffffffffffffffffffffffffffffffffffffffffffffffffffffffe6f969001091aa15b8b9b75459d015a045560005155",
                "nonce" : "0x00",
                "balance" : "0x54de1eaf",
                "storage" : {
                    "0x00" : "0x969001091aa15b8b9b75459d015a0455"
                }
            },
            "0x945304eb96065b2a98b57a48a06ae28d285a71b5" : {
                "code" : "0x6000355415600957005b60203560003555",
                "nonce" : "0x00",
                "balance" : "0x1bc16d674ec8a66c",
                "storage" : {
                }
            }
        },
        "network" : "Istanbul",
        "sealEngine" : "NoProof",
        "lastblockhash" : "0x6794d76912f91390bac96682d3f87218592e093f87f53834c0b783227e88f78d",
        "genesisRLP" : "0xf901fdf901f8a00000000000000000000000000000000000000000000000000000000000000000a01dcc4de8dec75d7aab85b567b6ccd41ad312451b948a7413f0a142fd40d4934794945304eb96065b2a98b57a48a06ae28d285a71b5a059a47652269f13439e345d49142d0b6440e6e9ecd1b7088ce172705d648c1017a056e81f171bcc55a6ff8345e692c0f86e5b48e01b996cadc001622fb5e363b421a056e81f171bcc55a6ff8345e692c0f86e5b48e01b996cadc001622fb5e363b421b90100000000000000000000000000000000000000000000000000000000000000000000000000000000000000000000000000000000000000000000000000000000000000000000000000000000000000000000000000000000000000000000000000000000000000000000000000000000000000000000000000000000000000000000000000000000000000000000000000000000000000000000000000000000000000000000000000000000000000000000000000000000000000000000000000000000000000000000000000000000000000000000000000000000000000000000000000000000000000000000000000000000000000000000000000000000008302000080887fffffffffffffff808000a00000000000000000000000000000000000000000000000000000000000000000880000000000000000c0c0",
        "blocks" : [
            {
                "rlp" : "0xf90301f901fca08beee884d9030830e1b07aad0547f8ff4a68bad3709e888cea31cc854126f4dca01dcc4de8dec75d7aab85b567b6ccd41ad312451b948a7413f0a142fd40d4934794945304eb96065b2a98b57a48a06ae28d285a71b5a02808a099174a1663cdab9bde0904002a87ca28e5b38f5ea3af31dcd97f84886ea085e545cf48a5ad3c3dac1747d4c0a770121c46c93ba1a2a91c0af49da70ac873a0593f80fc474331e44bcfab042f9061384606eb699f3dc851338826abc1c5d665b90100000000000000000000000000000000000000000000000000000000000000000000000000000000000000000000000000000000000000000000000000000000000000000000000000000000000000000000000000000000000000000000000000000000000000000000000000000000000000000000000000000000000000000000000000000000000000000000000000000000000000000000000000000000000000000000000000000000000000000000000000000000000000000000000000000000000000000000000000000000000000000000000000000000000000000000000000000000000000000000000000000000000000000000000000000000008302000001887fffffffffffffff82a63e8203e800a00000000000000000000000000000000000000000000000000000000000000000880000000000000000f8fff8fd80018446dc0e0794095e7baea6a6c7c4c2dfeb977efac326af552d878454de1eafb897427f0000000000000000000000000000000000000000000000000000000000000000427f000000000000000000000000ffffffffffffffffffffffffffffffffffffffff437f000000000000000000000000000000000000000000000000000000000000c3507ffffffffffffffffffffffffffffffffffffffffffffffffffffffffffffffffe6f969001091aa15b8b9b75459d015a041ca03818a77f60290bb862b709bdde14546bba610b256b73027a91c7cdb6226a82ada02017396eb3270581d61ddf33d7a9bd2b91d263cfe584749f9bc93b1ea058246ac0",
                "blockHeader" : {
                    "bloom" : "0x00000000000000000000000000000000000000000000000000000000000000000000000000000000000000000000000000000000000000000000000000000000000000000000000000000000000000000000000000000000000000000000000000000000000000000000000000000000000000000000000000000000000000000000000000000000000000000000000000000000000000000000000000000000000000000000000000000000000000000000000000000000000000000000000000000000000000000000000000000000000000000000000000000000000000000000000000000000000000000000000000000000000000000000000000000000",
                    "coinbase" : "0x945304eb96065b2a98b57a48a06ae28d285a71b5",
                    "difficulty" : "0x20000",
                    "extraData" : "0x00",
                    "gasLimit" : "0x7fffffffffffffff",
                    "gasUsed" : "0xa63e",
                    "hash" : "0x6794d76912f91390bac96682d3f87218592e093f87f53834c0b783227e88f78d",
                    "mixHash" : "0x0000000000000000000000000000000000000000000000000000000000000000",
                    "nonce" : "0x0000000000000000",
                    "number" : "0x1",
                    "parentHash" : "0x8beee884d9030830e1b07aad0547f8ff4a68bad3709e888cea31cc854126f4dc",
                    "receiptTrie" : "0x593f80fc474331e44bcfab042f9061384606eb699f3dc851338826abc1c5d665",
                    "stateRoot" : "0x2808a099174a1663cdab9bde0904002a87ca28e5b38f5ea3af31dcd97f84886e",
                    "timestamp" : "0x3e8",
                    "transactionsTrie" : "0x85e545cf48a5ad3c3dac1747d4c0a770121c46c93ba1a2a91c0af49da70ac873",
                    "uncleHash" : "0x1dcc4de8dec75d7aab85b567b6ccd41ad312451b948a7413f0a142fd40d49347"
                },
                "transactions" : [
                    {
                        "data" : "0x427f0000000000000000000000000000000000000000000000000000000000000000427f000000000000000000000000ffffffffffffffffffffffffffffffffffffffff437f000000000000000000000000000000000000000000000000000000000000c3507ffffffffffffffffffffffffffffffffffffffffffffffffffffffffffffffffe6f969001091aa15b8b9b75459d015a04",
                        "gasLimit" : "0x46dc0e07",
                        "gasPrice" : "0x01",
                        "nonce" : "0x00",
                        "to" : "0x095e7baea6a6c7c4c2dfeb977efac326af552d87",
                        "value" : "0x54de1eaf",
                        "v" : "0x1c",
                        "r" : "0x3818a77f60290bb862b709bdde14546bba610b256b73027a91c7cdb6226a82ad",
                        "s" : "0x2017396eb3270581d61ddf33d7a9bd2b91d263cfe584749f9bc93b1ea058246a"
                    }
                ]
            }
        ]
    }
}