{
    "randomStatetest313_d0g0v0_Istanbul" : {
        "_info" : {
            "comment" : "",
            "filling-rpc-server" : "Geth-1.9.6-unstable-63b18027-20190920",
            "filling-tool-version" : "retesteth-0.0.1+commit.0ae18aef.Linux.g++",
            "lllcversion" : "Version: 0.5.12-develop.2019.9.13+commit.2d601a4f.Linux.g++",
            "source" : "src/GeneralStateTestsFiller/stRandom/randomStatetest313Filler.json",
            "sourceHash" : "491c7a1a4d65150c1c71b9c179dd80fad7c9f2c7eb00f588265d2b710257b533"
        },
        "genesisBlockHeader" : {
            "bloom" : "0x00000000000000000000000000000000000000000000000000000000000000000000000000000000000000000000000000000000000000000000000000000000000000000000000000000000000000000000000000000000000000000000000000000000000000000000000000000000000000000000000000000000000000000000000000000000000000000000000000000000000000000000000000000000000000000000000000000000000000000000000000000000000000000000000000000000000000000000000000000000000000000000000000000000000000000000000000000000000000000000000000000000000000000000000000000000",
            "coinbase" : "0x945304eb96065b2a98b57a48a06ae28d285a71b5",
            "difficulty" : "0x20000",
            "extraData" : "0x00",
            "gasLimit" : "0x7fffffffffffffff",
            "gasUsed" : "0x0",
            "hash" : "0x729a720b465b82073acbc376f9c267270df55901dddd0d2f4bad34fa8f1c8bd7",
            "mixHash" : "0x0000000000000000000000000000000000000000000000000000000000000000",
            "nonce" : "0x0000000000000000",
            "number" : "0x0",
            "parentHash" : "0x0000000000000000000000000000000000000000000000000000000000000000",
            "receiptTrie" : "0x56e81f171bcc55a6ff8345e692c0f86e5b48e01b996cadc001622fb5e363b421",
            "stateRoot" : "0x40d0e2b443823d4c29c8804f08785f838c18a41463c3359b37ad447f71a76cf1",
            "timestamp" : "0x0",
            "transactionsTrie" : "0x56e81f171bcc55a6ff8345e692c0f86e5b48e01b996cadc001622fb5e363b421",
            "uncleHash" : "0x1dcc4de8dec75d7aab85b567b6ccd41ad312451b948a7413f0a142fd40d49347"
        },
        "pre" : {
            "0x095e7baea6a6c7c4c2dfeb977efac326af552d87" : {
                "balance" : "0x00",
                "code" : "0x0b7f00000000000000000000000000000000000000000000000000000000000000013c7f000000000000000000000000000000000000000000000000000000000000c350a345457fffffffffffffffffffffffffffffffffffffffffffffffffffffffffffffffff8287a3208c8c5a60005155",
                "nonce" : "0x00",
                "storage" : {
                }
            },
            "0x945304eb96065b2a98b57a48a06ae28d285a71b5" : {
                "balance" : "0x2e",
                "code" : "0x6000355415600957005b60203560003555",
                "nonce" : "0x00",
                "storage" : {
                }
            },
            "0xa94f5374fce5edbc8e2a8697c15331677e6ebf0b" : {
                "balance" : "0x0de0b6b3a7640000",
                "code" : "0x",
                "nonce" : "0x00",
                "storage" : {
                }
            }
        },
        "postState" : {
            "0xa94f5374fce5edbc8e2a8697c15331677e6ebf0b" : {
                "code" : "0x",
                "nonce" : "0x01",
                "balance" : "0x0de0b6b35f0a879a",
                "storage" : {
                }
            },
            "0x095e7baea6a6c7c4c2dfeb977efac326af552d87" : {
                "code" : "0x0b7f00000000000000000000000000000000000000000000000000000000000000013c7f000000000000000000000000000000000000000000000000000000000000c350a345457fffffffffffffffffffffffffffffffffffffffffffffffffffffffffffffffff8287a3208c8c5a60005155",
                "nonce" : "0x00",
                "balance" : "0x00",
                "storage" : {
                }
            },
            "0x945304eb96065b2a98b57a48a06ae28d285a71b5" : {
                "code" : "0x6000355415600957005b60203560003555",
                "nonce" : "0x00",
                "balance" : "0x1bc16d6797217894",
                "storage" : {
                }
            }
        },
        "network" : "Istanbul",
        "sealEngine" : "NoProof",
        "lastblockhash" : "0x0fba84e46e750befe0a00a6a3ac5c217dc84b3a9106cfcb59d83383bb1fb294c",
        "genesisRLP" : "0xf901fdf901f8a00000000000000000000000000000000000000000000000000000000000000000a01dcc4de8dec75d7aab85b567b6ccd41ad312451b948a7413f0a142fd40d4934794945304eb96065b2a98b57a48a06ae28d285a71b5a040d0e2b443823d4c29c8804f08785f838c18a41463c3359b37ad447f71a76cf1a056e81f171bcc55a6ff8345e692c0f86e5b48e01b996cadc001622fb5e363b421a056e81f171bcc55a6ff8345e692c0f86e5b48e01b996cadc001622fb5e363b421b90100000000000000000000000000000000000000000000000000000000000000000000000000000000000000000000000000000000000000000000000000000000000000000000000000000000000000000000000000000000000000000000000000000000000000000000000000000000000000000000000000000000000000000000000000000000000000000000000000000000000000000000000000000000000000000000000000000000000000000000000000000000000000000000000000000000000000000000000000000000000000000000000000000000000000000000000000000000000000000000000000000000000000000000000000000000008302000080887fffffffffffffff808000a00000000000000000000000000000000000000000000000000000000000000000880000000000000000c0c0",
        "blocks" : [
            {
                "rlp" : "0xf902dbf901fea0729a720b465b82073acbc376f9c267270df55901dddd0d2f4bad34fa8f1c8bd7a01dcc4de8dec75d7aab85b567b6ccd41ad312451b948a7413f0a142fd40d4934794945304eb96065b2a98b57a48a06ae28d285a71b5a0530156c9fe105c1914532735bc7561d67d65285e2e7d799edc62d469fe315a2ba0f7440d30d9021eedc1b9964b6a9d342a5eee70a7c4889fe33672ce84b3ff8e25a0b9b56a1aafea6f22bb184821ab3e21b864a039a49bfd40f1074fb880659d51a5b90100000000000000000000000000000000000000000000000000000000000000000000000000000000000000000000000000000000000000000000000000000000000000000000000000000000000000000000000000000000000000000000000000000000000000000000000000000000000000000000000000000000000000000000000000000000000000000000000000000000000000000000000000000000000000000000000000000000000000000000000000000000000000000000000000000000000000000000000000000000000000000000000000000000000000000000000000000000000000000000000000000000000000000000000000000000008302000001887fffffffffffffff84485978668203e800a00000000000000000000000000000000000000000000000000000000000000000880000000000000000f8d7f8d58001844859786694095e7baea6a6c7c4c2dfeb977efac326af552d87843159e0f9b86f0b7f00000000000000000000000000000000000000000000000000000000000000013c7f000000000000000000000000000000000000000000000000000000000000c350a345457fffffffffffffffffffffffffffffffffffffffffffffffffffffffffffffffff8287a3208c8c5a1ba038dd8c018c66dfd6961db708bf3790e352976144e258fd6bcf398fa73f7c7476a044316351f356944f40f93b0f6337b0f5c7abaf24a6a8c865ba2a476f90899185c0",
                "blockHeader" : {
                    "bloom" : "0x00000000000000000000000000000000000000000000000000000000000000000000000000000000000000000000000000000000000000000000000000000000000000000000000000000000000000000000000000000000000000000000000000000000000000000000000000000000000000000000000000000000000000000000000000000000000000000000000000000000000000000000000000000000000000000000000000000000000000000000000000000000000000000000000000000000000000000000000000000000000000000000000000000000000000000000000000000000000000000000000000000000000000000000000000000000",
                    "coinbase" : "0x945304eb96065b2a98b57a48a06ae28d285a71b5",
                    "difficulty" : "0x20000",
                    "extraData" : "0x00",
                    "gasLimit" : "0x7fffffffffffffff",
                    "gasUsed" : "0x48597866",
                    "hash" : "0x0fba84e46e750befe0a00a6a3ac5c217dc84b3a9106cfcb59d83383bb1fb294c",
                    "mixHash" : "0x0000000000000000000000000000000000000000000000000000000000000000",
                    "nonce" : "0x0000000000000000",
                    "number" : "0x1",
                    "parentHash" : "0x729a720b465b82073acbc376f9c267270df55901dddd0d2f4bad34fa8f1c8bd7",
                    "receiptTrie" : "0xb9b56a1aafea6f22bb184821ab3e21b864a039a49bfd40f1074fb880659d51a5",
                    "stateRoot" : "0x530156c9fe105c1914532735bc7561d67d65285e2e7d799edc62d469fe315a2b",
                    "timestamp" : "0x3e8",
                    "transactionsTrie" : "0xf7440d30d9021eedc1b9964b6a9d342a5eee70a7c4889fe33672ce84b3ff8e25",
                    "uncleHash" : "0x1dcc4de8dec75d7aab85b567b6ccd41ad312451b948a7413f0a142fd40d49347"
                },
                "transactions" : [
                    {
                        "data" : "0x0b7f00000000000000000000000000000000000000000000000000000000000000013c7f000000000000000000000000000000000000000000000000000000000000c350a345457fffffffffffffffffffffffffffffffffffffffffffffffffffffffffffffffff8287a3208c8c5a",
                        "gasLimit" : "0x48597866",
                        "gasPrice" : "0x01",
                        "nonce" : "0x00",
                        "to" : "0x095e7baea6a6c7c4c2dfeb977efac326af552d87",
                        "value" : "0x3159e0f9",
                        "v" : "0x1b",
                        "r" : "0x38dd8c018c66dfd6961db708bf3790e352976144e258fd6bcf398fa73f7c7476",
                        "s" : "0x44316351f356944f40f93b0f6337b0f5c7abaf24a6a8c865ba2a476f90899185"
                    }
                ]
            }
        ]
    }
}