{
    "randomStatetest19_d0g0v0_Istanbul" : {
        "_info" : {
            "comment" : "",
            "filling-rpc-server" : "Geth-1.9.6-unstable-63b18027-20190920",
            "filling-tool-version" : "retesteth-0.0.1+commit.0ae18aef.Linux.g++",
            "lllcversion" : "Version: 0.5.12-develop.2019.9.13+commit.2d601a4f.Linux.g++",
            "source" : "src/GeneralStateTestsFiller/stRandom/randomStatetest19Filler.json",
            "sourceHash" : "5b5c696307baf100a258fb370deff17ce2e1116b0eee96a898539a69f3bdbba0"
        },
        "genesisBlockHeader" : {
            "bloom" : "0x00000000000000000000000000000000000000000000000000000000000000000000000000000000000000000000000000000000000000000000000000000000000000000000000000000000000000000000000000000000000000000000000000000000000000000000000000000000000000000000000000000000000000000000000000000000000000000000000000000000000000000000000000000000000000000000000000000000000000000000000000000000000000000000000000000000000000000000000000000000000000000000000000000000000000000000000000000000000000000000000000000000000000000000000000000000",
            "coinbase" : "0x945304eb96065b2a98b57a48a06ae28d285a71b5",
            "difficulty" : "0x20000",
            "extraData" : "0x00",
            "gasLimit" : "0x7fffffffffffffff",
            "gasUsed" : "0x0",
            "hash" : "0xa8d0cc709acaa32b84bee5b817b06a3943102f0968a8c24ea6eaca9cf79ada81",
            "mixHash" : "0x0000000000000000000000000000000000000000000000000000000000000000",
            "nonce" : "0x0000000000000000",
            "number" : "0x0",
            "parentHash" : "0x0000000000000000000000000000000000000000000000000000000000000000",
            "receiptTrie" : "0x56e81f171bcc55a6ff8345e692c0f86e5b48e01b996cadc001622fb5e363b421",
            "stateRoot" : "0x5c5f81c79e0889933ebd6554c08c81cb5a2b96dfa153ba20a20d20b8a4073cb2",
            "timestamp" : "0x0",
            "transactionsTrie" : "0x56e81f171bcc55a6ff8345e692c0f86e5b48e01b996cadc001622fb5e363b421",
            "uncleHash" : "0x1dcc4de8dec75d7aab85b567b6ccd41ad312451b948a7413f0a142fd40d49347"
        },
        "pre" : {
            "0x095e7baea6a6c7c4c2dfeb977efac326af552d87" : {
                "balance" : "0x00",
                "code" : "0x7ffffffffffffffffffffffffffffffffffffffffffffffffffffffffffffffffe3a7f000000000000000000000000ffffffffffffffffffffffffffffffffffffffff7ffffffffffffffffffffffffffffffffffffffffffffffffffffffffffffffffe417f0000000000000000000000000000000000000000000000000000000000000001587f000000000000000000000000000000000000000000000000000000000000c3506fff59876660063b7c8df1ff088a84145560005155",
                "nonce" : "0x00",
                "storage" : {
                }
            },
            "0x945304eb96065b2a98b57a48a06ae28d285a71b5" : {
                "balance" : "0x2e",
                "code" : "0x6000355415600957005b60203560003555",
                "nonce" : "0x00",
                "storage" : {
                }
            },
            "0xa94f5374fce5edbc8e2a8697c15331677e6ebf0b" : {
                "balance" : "0x0de0b6b3a7640000",
                "code" : "0x",
                "nonce" : "0x00",
                "storage" : {
                }
            }
        },
        "postState" : {
            "0xa94f5374fce5edbc8e2a8697c15331677e6ebf0b" : {
                "code" : "0x",
                "nonce" : "0x01",
                "balance" : "0x0de0b6b38995e2c5",
                "storage" : {
                }
            },
            "0x095e7baea6a6c7c4c2dfeb977efac326af552d87" : {
                "code" : "0x7ffffffffffffffffffffffffffffffffffffffffffffffffffffffffffffffffe3a7f000000000000000000000000ffffffffffffffffffffffffffffffffffffffff7ffffffffffffffffffffffffffffffffffffffffffffffffffffffffffffffffe417f0000000000000000000000000000000000000000000000000000000000000001587f000000000000000000000000000000000000000000000000000000000000c3506fff59876660063b7c8df1ff088a84145560005155",
                "nonce" : "0x00",
                "balance" : "0x1dcd74de",
                "storage" : {
                    "0x00" : "0xff59876660063b7c8df1ff088a841455"
                }
            },
            "0x945304eb96065b2a98b57a48a06ae28d285a71b5" : {
                "code" : "0x6000355415600957005b60203560003555",
                "nonce" : "0x00",
                "balance" : "0x1bc16d674ec8a88b",
                "storage" : {
                }
            }
        },
        "network" : "Istanbul",
        "sealEngine" : "NoProof",
        "lastblockhash" : "0x76c8907f6b82b232b7961b9bf5f0d660852991632356af1cad608236e0c3fb76",
        "genesisRLP" : "0xf901fdf901f8a00000000000000000000000000000000000000000000000000000000000000000a01dcc4de8dec75d7aab85b567b6ccd41ad312451b948a7413f0a142fd40d4934794945304eb96065b2a98b57a48a06ae28d285a71b5a05c5f81c79e0889933ebd6554c08c81cb5a2b96dfa153ba20a20d20b8a4073cb2a056e81f171bcc55a6ff8345e692c0f86e5b48e01b996cadc001622fb5e363b421a056e81f171bcc55a6ff8345e692c0f86e5b48e01b996cadc001622fb5e363b421b90100000000000000000000000000000000000000000000000000000000000000000000000000000000000000000000000000000000000000000000000000000000000000000000000000000000000000000000000000000000000000000000000000000000000000000000000000000000000000000000000000000000000000000000000000000000000000000000000000000000000000000000000000000000000000000000000000000000000000000000000000000000000000000000000000000000000000000000000000000000000000000000000000000000000000000000000000000000000000000000000000000000000000000000000000000000008302000080887fffffffffffffff808000a00000000000000000000000000000000000000000000000000000000000000000880000000000000000c0c0",
        "blocks" : [
            {
                "rlp" : "0xf90324f901fca0a8d0cc709acaa32b84bee5b817b06a3943102f0968a8c24ea6eaca9cf79ada81a01dcc4de8dec75d7aab85b567b6ccd41ad312451b948a7413f0a142fd40d4934794945304eb96065b2a98b57a48a06ae28d285a71b5a0c04dbee98243551e4ccfb18520563dc599d1ba5705eb4663d0469beeb8545641a0d3016532093850b19504fadefe12bb26153f45fa552072f7c89e582d94406daba04a8b762ca3f4d639576653170d81b8fc3addbbd3a8592cf6ee85959e925c63c8b90100000000000000000000000000000000000000000000000000000000000000000000000000000000000000000000000000000000000000000000000000000000000000000000000000000000000000000000000000000000000000000000000000000000000000000000000000000000000000000000000000000000000000000000000000000000000000000000000000000000000000000000000000000000000000000000000000000000000000000000000000000000000000000000000000000000000000000000000000000000000000000000000000000000000000000000000000000000000000000000000000000000000000000000000000000000008302000001887fffffffffffffff82a85d8203e800a00000000000000000000000000000000000000000000000000000000000000000880000000000000000f90121f9011e8001846d92971694095e7baea6a6c7c4c2dfeb977efac326af552d87841dcd74deb8b87ffffffffffffffffffffffffffffffffffffffffffffffffffffffffffffffffe3a7f000000000000000000000000ffffffffffffffffffffffffffffffffffffffff7ffffffffffffffffffffffffffffffffffffffffffffffffffffffffffffffffe417f0000000000000000000000000000000000000000000000000000000000000001587f000000000000000000000000000000000000000000000000000000000000c3506fff59876660063b7c8df1ff088a84141ba0c0e4c28cb1656d05d19b10bf0450ab5765e963deb85af0cd1b6d17d804c35c15a0727645f3e2e52ddcb8a0f5cd52801b4551c8881e46dd8c21cc0b23c52de096bbc0",
                "blockHeader" : {
                    "bloom" : "0x00000000000000000000000000000000000000000000000000000000000000000000000000000000000000000000000000000000000000000000000000000000000000000000000000000000000000000000000000000000000000000000000000000000000000000000000000000000000000000000000000000000000000000000000000000000000000000000000000000000000000000000000000000000000000000000000000000000000000000000000000000000000000000000000000000000000000000000000000000000000000000000000000000000000000000000000000000000000000000000000000000000000000000000000000000000",
                    "coinbase" : "0x945304eb96065b2a98b57a48a06ae28d285a71b5",
                    "difficulty" : "0x20000",
                    "extraData" : "0x00",
                    "gasLimit" : "0x7fffffffffffffff",
                    "gasUsed" : "0xa85d",
                    "hash" : "0x76c8907f6b82b232b7961b9bf5f0d660852991632356af1cad608236e0c3fb76",
                    "mixHash" : "0x0000000000000000000000000000000000000000000000000000000000000000",
                    "nonce" : "0x0000000000000000",
                    "number" : "0x1",
                    "parentHash" : "0xa8d0cc709acaa32b84bee5b817b06a3943102f0968a8c24ea6eaca9cf79ada81",
                    "receiptTrie" : "0x4a8b762ca3f4d639576653170d81b8fc3addbbd3a8592cf6ee85959e925c63c8",
                    "stateRoot" : "0xc04dbee98243551e4ccfb18520563dc599d1ba5705eb4663d0469beeb8545641",
                    "timestamp" : "0x3e8",
                    "transactionsTrie" : "0xd3016532093850b19504fadefe12bb26153f45fa552072f7c89e582d94406dab",
                    "uncleHash" : "0x1dcc4de8dec75d7aab85b567b6ccd41ad312451b948a7413f0a142fd40d49347"
                },
                "transactions" : [
                    {
                        "data" : "0x7ffffffffffffffffffffffffffffffffffffffffffffffffffffffffffffffffe3a7f000000000000000000000000ffffffffffffffffffffffffffffffffffffffff7ffffffffffffffffffffffffffffffffffffffffffffffffffffffffffffffffe417f0000000000000000000000000000000000000000000000000000000000000001587f000000000000000000000000000000000000000000000000000000000000c3506fff59876660063b7c8df1ff088a8414",
                        "gasLimit" : "0x6d929716",
                        "gasPrice" : "0x01",
                        "nonce" : "0x00",
                        "to" : "0x095e7baea6a6c7c4c2dfeb977efac326af552d87",
                        "value" : "0x1dcd74de",
                        "v" : "0x1b",
                        "r" : "0xc0e4c28cb1656d05d19b10bf0450ab5765e963deb85af0cd1b6d17d804c35c15",
                        "s" : "0x727645f3e2e52ddcb8a0f5cd52801b4551c8881e46dd8c21cc0b23c52de096bb"
                    }
                ]
            }
        ]
    }
}