{
    "randomStatetest144_d0g0v0_Istanbul" : {
        "_info" : {
            "comment" : "",
            "filling-rpc-server" : "Geth-1.9.6-unstable-63b18027-20190920",
            "filling-tool-version" : "retesteth-0.0.1+commit.0ae18aef.Linux.g++",
            "lllcversion" : "Version: 0.5.12-develop.2019.9.13+commit.2d601a4f.Linux.g++",
            "source" : "src/GeneralStateTestsFiller/stRandom/randomStatetest144Filler.json",
            "sourceHash" : "b6ffaaf78cd57ba46d026db3457e55f8d71720c62673d50eca535b2acc44757a"
        },
        "genesisBlockHeader" : {
            "bloom" : "0x00000000000000000000000000000000000000000000000000000000000000000000000000000000000000000000000000000000000000000000000000000000000000000000000000000000000000000000000000000000000000000000000000000000000000000000000000000000000000000000000000000000000000000000000000000000000000000000000000000000000000000000000000000000000000000000000000000000000000000000000000000000000000000000000000000000000000000000000000000000000000000000000000000000000000000000000000000000000000000000000000000000000000000000000000000000",
            "coinbase" : "0xb0085a57673c8f7d78fb870418f622e42fd686e4",
            "difficulty" : "0x20000",
            "extraData" : "0x00",
            "gasLimit" : "0x5c1948c7",
            "gasUsed" : "0x0",
            "hash" : "0xa52a0cc7379ca44c2d7085626eb15bddcdb1df35dd83810d25341088ad03ff7c",
            "mixHash" : "0x0000000000000000000000000000000000000000000000000000000000000000",
            "nonce" : "0x0000000000000000",
            "number" : "0x0",
            "parentHash" : "0x0000000000000000000000000000000000000000000000000000000000000000",
            "receiptTrie" : "0x56e81f171bcc55a6ff8345e692c0f86e5b48e01b996cadc001622fb5e363b421",
            "stateRoot" : "0xaea8abf0e3dfa13ed85a9d25a22e39257df49fcc1d58253de60b1dcb2ae356c7",
            "timestamp" : "0x0",
            "transactionsTrie" : "0x56e81f171bcc55a6ff8345e692c0f86e5b48e01b996cadc001622fb5e363b421",
            "uncleHash" : "0x1dcc4de8dec75d7aab85b567b6ccd41ad312451b948a7413f0a142fd40d49347"
        },
        "pre" : {
            "0x095e7baea6a6c7c4c2dfeb977efac326af552d87" : {
                "balance" : "0x03255f99de856501",
                "code" : "0x621da82575e942e4fd977abdb407069cf700116e02b4f9b25d866b6d13163fff2b8ef03cf8ab5d662afb7bb5c9e68462741090bc0976c9705b40411efe39e80c20b572c5e3d75f788f9be2f0981672b8de37f9e2d1515046cb77cc3ee74646fb096eadce98908499b6fd54725f3c6a725968761ba50494d1ecaf1e787db9a052952427c4f271c28d3e25728b2b76439a3166cd0ed37f30ec2421ed38ebd3b00b89ba9208391dc274e4eefa69161a37dfff7111756dd7971065f05aa9de4867609e7d847a290d0eeb08cde2ff294ae11dd16f8a3e32494d943fa0622cc04cd7476b6d2a1008e4ad1e2c33e2928e707c797f2a1a586bbf78658189bf58172ff77130be2ffc9bbf7f171939be260b30eb65b46a6cf107be1c9ed5c92c99d69fe0559389600e6013601c60096016601260016001600c6017016d200351654b9773409608aaa7db1f67b518d025727bdc6e0463b2bc334b658536d84dadc47a2288da62c36b9a35bf8934e3781a4c44e91637ce5c6b2f916d76706529d728b6f5ee076013601e601960086005601c6013601d96423568ce21a850c04a77ceb9",
                "nonce" : "0x59",
                "storage" : {
                }
            },
            "0x945304eb96065b2a98b57a48a06ae28d285a71b5" : {
                "balance" : "0x2401ac5958344e85",
                "code" : "0x",
                "nonce" : "0x35",
                "storage" : {
                }
            },
            "0xa94f5374fce5edbc8e2a8697c15331677e6ebf0b" : {
                "balance" : "0x71e90493e6eb4c59",
                "code" : "0x",
                "nonce" : "0x00",
                "storage" : {
                }
            }
        },
        "postState" : {
            "0xa94f5374fce5edbc8e2a8697c15331677e6ebf0b" : {
                "code" : "0x",
                "nonce" : "0x01",
                "balance" : "0x71e90493a9b0b9ac",
                "storage" : {
                }
            },
            "0x095e7baea6a6c7c4c2dfeb977efac326af552d87" : {
                "code" : "0x621da82575e942e4fd977abdb407069cf700116e02b4f9b25d866b6d13163fff2b8ef03cf8ab5d662afb7bb5c9e68462741090bc0976c9705b40411efe39e80c20b572c5e3d75f788f9be2f0981672b8de37f9e2d1515046cb77cc3ee74646fb096eadce98908499b6fd54725f3c6a725968761ba50494d1ecaf1e787db9a052952427c4f271c28d3e25728b2b76439a3166cd0ed37f30ec2421ed38ebd3b00b89ba9208391dc274e4eefa69161a37dfff7111756dd7971065f05aa9de4867609e7d847a290d0eeb08cde2ff294ae11dd16f8a3e32494d943fa0622cc04cd7476b6d2a1008e4ad1e2c33e2928e707c797f2a1a586bbf78658189bf58172ff77130be2ffc9bbf7f171939be260b30eb65b46a6cf107be1c9ed5c92c99d69fe0559389600e6013601c60096016601260016001600c6017016d200351654b9773409608aaa7db1f67b518d025727bdc6e0463b2bc334b658536d84dadc47a2288da62c36b9a35bf8934e3781a4c44e91637ce5c6b2f916d76706529d728b6f5ee076013601e601960086005601c6013601d96423568ce21a850c04a77ceb9",
                "nonce" : "0x59",
                "balance" : "0x03255f9a1b72d9ee",
                "storage" : {
                }
            },
            "0x945304eb96065b2a98b57a48a06ae28d285a71b5" : {
                "code" : "0x",
                "nonce" : "0x35",
                "balance" : "0x2401ac5958344e85",
                "storage" : {
                }
            },
            "0xb0085a57673c8f7d78fb870418f622e42fd686e4" : {
                "code" : "0x",
                "nonce" : "0x00",
                "balance" : "0x1bc16d674f151dc0",
                "storage" : {
                }
            }
        },
        "network" : "Istanbul",
        "sealEngine" : "NoProof",
        "lastblockhash" : "0x2ff828a9b794e4fb617665e30fdb7a90cca0345b7889d196b478068328650021",
        "genesisRLP" : "0xf901f9f901f4a00000000000000000000000000000000000000000000000000000000000000000a01dcc4de8dec75d7aab85b567b6ccd41ad312451b948a7413f0a142fd40d4934794b0085a57673c8f7d78fb870418f622e42fd686e4a0aea8abf0e3dfa13ed85a9d25a22e39257df49fcc1d58253de60b1dcb2ae356c7a056e81f171bcc55a6ff8345e692c0f86e5b48e01b996cadc001622fb5e363b421a056e81f171bcc55a6ff8345e692c0f86e5b48e01b996cadc001622fb5e363b421b90100000000000000000000000000000000000000000000000000000000000000000000000000000000000000000000000000000000000000000000000000000000000000000000000000000000000000000000000000000000000000000000000000000000000000000000000000000000000000000000000000000000000000000000000000000000000000000000000000000000000000000000000000000000000000000000000000000000000000000000000000000000000000000000000000000000000000000000000000000000000000000000000000000000000000000000000000000000000000000000000000000000000000000000000000000000008302000080845c1948c7808000a00000000000000000000000000000000000000000000000000000000000000000880000000000000000c0c0",
        "blocks" : [
            {
                "rlp" : "0xf9028ef901f8a0a52a0cc7379ca44c2d7085626eb15bddcdb1df35dd83810d25341088ad03ff7ca01dcc4de8dec75d7aab85b567b6ccd41ad312451b948a7413f0a142fd40d4934794b0085a57673c8f7d78fb870418f622e42fd686e4a040b7406420760c2f0f97de59e99fc2645216320b3fa3cd25d8c1e6446b048b3fa0887060a2aafce3459c84d1e1e3981c568116714e7a1f9d361cb1088970eb3078a06e58da5054f2f7f7a3c68f5a5ba4398ecaf3e5fde2c271fc418624d45a327e52b90100000000000000000000000000000000000000000000000000000000000000000000000000000000000000000000000000000000000000000000000000000000000000000000000000000000000000000000000000000000000000000000000000000000000000000000000000000000000000000000000000000000000000000000000000000000000000000000000000000000000000000000000000000000000000000000000000000000000000000000000000000000000000000000000000000000000000000000000000000000000000000000000000000000000000000000000000000000000000000000000000000000000000000000000000000000008302000001845c304f188255188203e800a00000000000000000000000000000000000000000000000000000000000000000880000000000000000f890f88e8081e884189cbf1c94095e7baea6a6c7c4c2dfeb977efac326af552d87843ced74eda8166e31b12700cdefa7a0591398d415023175d1e5a1eca036986533972cab6625e976572ee91c150c1ca07afc3f51640a02ecf49db82a2aa54c630e5edf19b7d9f8fdbdd687503036fefba065575640cdc9df14faa52aa099124143bbcf188925085242f64514544325a7a3c0",
                "blockHeader" : {
                    "bloom" : "0x00000000000000000000000000000000000000000000000000000000000000000000000000000000000000000000000000000000000000000000000000000000000000000000000000000000000000000000000000000000000000000000000000000000000000000000000000000000000000000000000000000000000000000000000000000000000000000000000000000000000000000000000000000000000000000000000000000000000000000000000000000000000000000000000000000000000000000000000000000000000000000000000000000000000000000000000000000000000000000000000000000000000000000000000000000000",
                    "coinbase" : "0xb0085a57673c8f7d78fb870418f622e42fd686e4",
                    "difficulty" : "0x20000",
                    "extraData" : "0x00",
                    "gasLimit" : "0x5c304f18",
                    "gasUsed" : "0x5518",
                    "hash" : "0x2ff828a9b794e4fb617665e30fdb7a90cca0345b7889d196b478068328650021",
                    "mixHash" : "0x0000000000000000000000000000000000000000000000000000000000000000",
                    "nonce" : "0x0000000000000000",
                    "number" : "0x1",
                    "parentHash" : "0xa52a0cc7379ca44c2d7085626eb15bddcdb1df35dd83810d25341088ad03ff7c",
                    "receiptTrie" : "0x6e58da5054f2f7f7a3c68f5a5ba4398ecaf3e5fde2c271fc418624d45a327e52",
                    "stateRoot" : "0x40b7406420760c2f0f97de59e99fc2645216320b3fa3cd25d8c1e6446b048b3f",
                    "timestamp" : "0x3e8",
                    "transactionsTrie" : "0x887060a2aafce3459c84d1e1e3981c568116714e7a1f9d361cb1088970eb3078",
                    "uncleHash" : "0x1dcc4de8dec75d7aab85b567b6ccd41ad312451b948a7413f0a142fd40d49347"
                },
                "transactions" : [
                    {
                        "data" : "0x166e31b12700cdefa7a0591398d415023175d1e5a1eca036986533972cab6625e976572ee91c150c",
                        "gasLimit" : "0x189cbf1c",
                        "gasPrice" : "0xe8",
                        "nonce" : "0x00",
                        "to" : "0x095e7baea6a6c7c4c2dfeb977efac326af552d87",
                        "value" : "0x3ced74ed",
                        "v" : "0x1c",
                        "r" : "0x7afc3f51640a02ecf49db82a2aa54c630e5edf19b7d9f8fdbdd687503036fefb",
                        "s" : "0x65575640cdc9df14faa52aa099124143bbcf188925085242f64514544325a7a3"
                    }
                ]
            }
        ]
    }
}