{
    "randomStatetest320_d0g0v0_Istanbul" : {
        "_info" : {
            "comment" : "",
            "filling-rpc-server" : "Geth-1.9.6-unstable-63b18027-20190920",
            "filling-tool-version" : "retesteth-0.0.1+commit.0ae18aef.Linux.g++",
            "lllcversion" : "Version: 0.5.12-develop.2019.9.13+commit.2d601a4f.Linux.g++",
            "source" : "src/GeneralStateTestsFiller/stRandom/randomStatetest320Filler.json",
            "sourceHash" : "0d8f1516feadcbadde051f4cfcd3ffbf2f8f9519837e200987185f3ac57d6b9b"
        },
        "genesisBlockHeader" : {
            "bloom" : "0x00000000000000000000000000000000000000000000000000000000000000000000000000000000000000000000000000000000000000000000000000000000000000000000000000000000000000000000000000000000000000000000000000000000000000000000000000000000000000000000000000000000000000000000000000000000000000000000000000000000000000000000000000000000000000000000000000000000000000000000000000000000000000000000000000000000000000000000000000000000000000000000000000000000000000000000000000000000000000000000000000000000000000000000000000000000",
            "coinbase" : "0x945304eb96065b2a98b57a48a06ae28d285a71b5",
            "difficulty" : "0x20000",
            "extraData" : "0x00",
            "gasLimit" : "0x7fffffffffffffff",
            "gasUsed" : "0x0",
            "hash" : "0xa61469c6eb6cfa6c28309a0710c1a2288e6b853c8cb59640a1c87e3b58e73401",
            "mixHash" : "0x0000000000000000000000000000000000000000000000000000000000000000",
            "nonce" : "0x0000000000000000",
            "number" : "0x0",
            "parentHash" : "0x0000000000000000000000000000000000000000000000000000000000000000",
            "receiptTrie" : "0x56e81f171bcc55a6ff8345e692c0f86e5b48e01b996cadc001622fb5e363b421",
            "stateRoot" : "0x985410e2adcd97e408123e89312ba165205aeebf90dfc6050562927291cf89f6",
            "timestamp" : "0x0",
            "transactionsTrie" : "0x56e81f171bcc55a6ff8345e692c0f86e5b48e01b996cadc001622fb5e363b421",
            "uncleHash" : "0x1dcc4de8dec75d7aab85b567b6ccd41ad312451b948a7413f0a142fd40d49347"
        },
        "pre" : {
            "0x095e7baea6a6c7c4c2dfeb977efac326af552d87" : {
                "balance" : "0x00",
                "code" : "0x7f00000000000000000000000100000000000000000000000000000000000000007f000000000000000000000000945304eb96065b2a98b57a48a06ae28d285a71b57fffffffffffffffffffffffffffffffffffffffffffffffffffffffffffffffff45457f000000000000000000000000000000000000000000000000000000000000c3507f000000000000000000000000945304eb96065b2a98b57a48a06ae28d285a71b57f000000000000000000000000000000000000000000000000000000000000c3505b0a36095511805131558f14fc3b",
                "nonce" : "0x00",
                "storage" : {
                }
            },
            "0x945304eb96065b2a98b57a48a06ae28d285a71b5" : {
                "balance" : "0x2e",
                "code" : "0x6000355415600957005b60203560003555",
                "nonce" : "0x00",
                "storage" : {
                }
            },
            "0xa94f5374fce5edbc8e2a8697c15331677e6ebf0b" : {
                "balance" : "0x0de0b6b3a7640000",
                "code" : "0x",
                "nonce" : "0x00",
                "storage" : {
                }
            }
        },
        "postState" : {
            "0xa94f5374fce5edbc8e2a8697c15331677e6ebf0b" : {
                "code" : "0x",
                "nonce" : "0x01",
                "balance" : "0x0de0b6b386c07630",
                "storage" : {
                }
            },
            "0x095e7baea6a6c7c4c2dfeb977efac326af552d87" : {
                "code" : "0x7f00000000000000000000000100000000000000000000000000000000000000007f000000000000000000000000945304eb96065b2a98b57a48a06ae28d285a71b57fffffffffffffffffffffffffffffffffffffffffffffffffffffffffffffffff45457f000000000000000000000000000000000000000000000000000000000000c3507f000000000000000000000000945304eb96065b2a98b57a48a06ae28d285a71b57f000000000000000000000000000000000000000000000000000000000000c3505b0a36095511805131558f14fc3b",
                "nonce" : "0x00",
                "balance" : "0x00",
                "storage" : {
                }
            },
            "0x945304eb96065b2a98b57a48a06ae28d285a71b5" : {
                "code" : "0x6000355415600957005b60203560003555",
                "nonce" : "0x00",
                "balance" : "0x1bc16d676f6b89fe",
                "storage" : {
                }
            }
        },
        "network" : "Istanbul",
        "sealEngine" : "NoProof",
        "lastblockhash" : "0xbd893ce44dda68d31349062691e4f14bb5e88179354fed7cdae1b4512e6c2567",
        "genesisRLP" : "0xf901fdf901f8a00000000000000000000000000000000000000000000000000000000000000000a01dcc4de8dec75d7aab85b567b6ccd41ad312451b948a7413f0a142fd40d4934794945304eb96065b2a98b57a48a06ae28d285a71b5a0985410e2adcd97e408123e89312ba165205aeebf90dfc6050562927291cf89f6a056e81f171bcc55a6ff8345e692c0f86e5b48e01b996cadc001622fb5e363b421a056e81f171bcc55a6ff8345e692c0f86e5b48e01b996cadc001622fb5e363b421b90100000000000000000000000000000000000000000000000000000000000000000000000000000000000000000000000000000000000000000000000000000000000000000000000000000000000000000000000000000000000000000000000000000000000000000000000000000000000000000000000000000000000000000000000000000000000000000000000000000000000000000000000000000000000000000000000000000000000000000000000000000000000000000000000000000000000000000000000000000000000000000000000000000000000000000000000000000000000000000000000000000000000000000000000000000000008302000080887fffffffffffffff808000a00000000000000000000000000000000000000000000000000000000000000000880000000000000000c0c0",
        "blocks" : [
            {
                "rlp" : "0xf90344f901fea0a61469c6eb6cfa6c28309a0710c1a2288e6b853c8cb59640a1c87e3b58e73401a01dcc4de8dec75d7aab85b567b6ccd41ad312451b948a7413f0a142fd40d4934794945304eb96065b2a98b57a48a06ae28d285a71b5a03476b5a44a9b2133f514e65ce5933f34198de4ea34fb43ef55ed1b0db43bb691a0709ebeebba673110330c58e6bffbdd722f7d8a8bb1af6a42da868fba12e4e07ea0da906c5e400963833eb135be505d054a94eb8a6554dba36c8d7f82664ae085f0b90100000000000000000000000000000000000000000000000000000000000000000000000000000000000000000000000000000000000000000000000000000000000000000000000000000000000000000000000000000000000000000000000000000000000000000000000000000000000000000000000000000000000000000000000000000000000000000000000000000000000000000000000000000000000000000000000000000000000000000000000000000000000000000000000000000000000000000000000000000000000000000000000000000000000000000000000000000000000000000000000000000000000000000000000000000000008302000001887fffffffffffffff8420a389d08203e800a00000000000000000000000000000000000000000000000000000000000000000880000000000000000f9013ff9013c80018420a389d094095e7baea6a6c7c4c2dfeb977efac326af552d878431922948b8d67f00000000000000000000000100000000000000000000000000000000000000007f000000000000000000000000945304eb96065b2a98b57a48a06ae28d285a71b57fffffffffffffffffffffffffffffffffffffffffffffffffffffffffffffffff45457f000000000000000000000000000000000000000000000000000000000000c3507f000000000000000000000000945304eb96065b2a98b57a48a06ae28d285a71b57f000000000000000000000000000000000000000000000000000000000000c3505b0a36095511805131558f14fc3b1ba096270582e7edee44166d90eaaa3894846c3a699dd4ec7c7ec9c909cd0bd09ab1a06e33c7163fe0ff49034e685d7e02754bd6c5298f40b596c12c35ea50fa611c96c0",
                "blockHeader" : {
                    "bloom" : "0x00000000000000000000000000000000000000000000000000000000000000000000000000000000000000000000000000000000000000000000000000000000000000000000000000000000000000000000000000000000000000000000000000000000000000000000000000000000000000000000000000000000000000000000000000000000000000000000000000000000000000000000000000000000000000000000000000000000000000000000000000000000000000000000000000000000000000000000000000000000000000000000000000000000000000000000000000000000000000000000000000000000000000000000000000000000",
                    "coinbase" : "0x945304eb96065b2a98b57a48a06ae28d285a71b5",
                    "difficulty" : "0x20000",
                    "extraData" : "0x00",
                    "gasLimit" : "0x7fffffffffffffff",
                    "gasUsed" : "0x20a389d0",
                    "hash" : "0xbd893ce44dda68d31349062691e4f14bb5e88179354fed7cdae1b4512e6c2567",
                    "mixHash" : "0x0000000000000000000000000000000000000000000000000000000000000000",
                    "nonce" : "0x0000000000000000",
                    "number" : "0x1",
                    "parentHash" : "0xa61469c6eb6cfa6c28309a0710c1a2288e6b853c8cb59640a1c87e3b58e73401",
                    "receiptTrie" : "0xda906c5e400963833eb135be505d054a94eb8a6554dba36c8d7f82664ae085f0",
                    "stateRoot" : "0x3476b5a44a9b2133f514e65ce5933f34198de4ea34fb43ef55ed1b0db43bb691",
                    "timestamp" : "0x3e8",
                    "transactionsTrie" : "0x709ebeebba673110330c58e6bffbdd722f7d8a8bb1af6a42da868fba12e4e07e",
                    "uncleHash" : "0x1dcc4de8dec75d7aab85b567b6ccd41ad312451b948a7413f0a142fd40d49347"
                },
                "transactions" : [
                    {
                        "data" : "0x7f00000000000000000000000100000000000000000000000000000000000000007f000000000000000000000000945304eb96065b2a98b57a48a06ae28d285a71b57fffffffffffffffffffffffffffffffffffffffffffffffffffffffffffffffff45457f000000000000000000000000000000000000000000000000000000000000c3507f000000000000000000000000945304eb96065b2a98b57a48a06ae28d285a71b57f000000000000000000000000000000000000000000000000000000000000c3505b0a36095511805131558f14fc3b",
                        "gasLimit" : "0x20a389d0",
                        "gasPrice" : "0x01",
                        "nonce" : "0x00",
                        "to" : "0x095e7baea6a6c7c4c2dfeb977efac326af552d87",
                        "value" : "0x31922948",
                        "v" : "0x1b",
                        "r" : "0x96270582e7edee44166d90eaaa3894846c3a699dd4ec7c7ec9c909cd0bd09ab1",
                        "s" : "0x6e33c7163fe0ff49034e685d7e02754bd6c5298f40b596c12c35ea50fa611c96"
                    }
                ]
            }
        ]
    }
}