{
    "randomStatetest205_d0g0v0_Istanbul" : {
        "_info" : {
            "comment" : "",
            "filling-rpc-server" : "Geth-1.9.6-unstable-63b18027-20190920",
            "filling-tool-version" : "retesteth-0.0.1+commit.0ae18aef.Linux.g++",
            "lllcversion" : "Version: 0.5.12-develop.2019.9.13+commit.2d601a4f.Linux.g++",
            "source" : "src/GeneralStateTestsFiller/stRandom/randomStatetest205Filler.json",
            "sourceHash" : "ce72394cd1eb9a02859cb0af82ff49758d48bbf3fecb4b3e0896391f6ea6cfd3"
        },
        "genesisBlockHeader" : {
            "bloom" : "0x00000000000000000000000000000000000000000000000000000000000000000000000000000000000000000000000000000000000000000000000000000000000000000000000000000000000000000000000000000000000000000000000000000000000000000000000000000000000000000000000000000000000000000000000000000000000000000000000000000000000000000000000000000000000000000000000000000000000000000000000000000000000000000000000000000000000000000000000000000000000000000000000000000000000000000000000000000000000000000000000000000000000000000000000000000000",
            "coinbase" : "0x945304eb96065b2a98b57a48a06ae28d285a71b5",
            "difficulty" : "0x20000",
            "extraData" : "0x00",
            "gasLimit" : "0x7fffffffffffffff",
            "gasUsed" : "0x0",
            "hash" : "0xb493968d799d70edad4ed2550b2dbdd2991d4e070b6932d112ba6e730c2a66f8",
            "mixHash" : "0x0000000000000000000000000000000000000000000000000000000000000000",
            "nonce" : "0x0000000000000000",
            "number" : "0x0",
            "parentHash" : "0x0000000000000000000000000000000000000000000000000000000000000000",
            "receiptTrie" : "0x56e81f171bcc55a6ff8345e692c0f86e5b48e01b996cadc001622fb5e363b421",
            "stateRoot" : "0x84bab6061cbf039fef3a73f70eb0a1895220e10904f78974c1a1137ffd9ec26c",
            "timestamp" : "0x0",
            "transactionsTrie" : "0x56e81f171bcc55a6ff8345e692c0f86e5b48e01b996cadc001622fb5e363b421",
            "uncleHash" : "0x1dcc4de8dec75d7aab85b567b6ccd41ad312451b948a7413f0a142fd40d49347"
        },
        "pre" : {
            "0x095e7baea6a6c7c4c2dfeb977efac326af552d87" : {
                "balance" : "0x00",
                "code" : "0x3360b261edefa0326fdc74d570982966277b49cdb30a453fa06c34a7423da44ba2d04341af08c478b17a57318ab10ab43b3744333b0aa8864ac27b3fd022e380056735a5fcda3e9fdc25695972a076884de6d6b6b06dd45416c8110bae3c70576b433a4672777847e81823024ddd1292b929ad28e64a732b74c0ae1941d5936ecd35738e2f279273788f4aaf19907a532a6b0f117c32b6cb967aae8bdfcf86e2d4d64599986abcf65a20754f5a816c58ed669138f6a0448670b906bbf1eb145ced896c578de5aa27769006b1a784e84b6316d4e60c7053b0b6550c70a177cb7a3e88d4e83fb1897a09c2161ff6cc2679c178292687137854da672e316c66ef03dc9ac37e8e430b7c64d1939bf67383c4bafeb2f0471fe896b7c0e114bf6f152b266cc769ae4d38f3df618f5eeb9085601f601060086016632c019e2e73095e7baea6a6c7c4c2dfeb977efac326af552d87626b8a0ef179e6b62e86237845e9605d61219d97c1d0145516f5355fe73384e87a6a87cc6d2378c81797ac3746bc562e2fd1145e14781307bc4ada39732e9d0e8725fde75c5abc313c11e3238c7cd9b7186a6a14f8d5c3cad9da5339446ad1311ccc67a0691559157a674825358b301ac42d7bcae31beb8b0849903402175ca3740f3fd690ad66287d6bf67a98c09e6de5717596052d30f4b9bb8046a6b67ef51b1b13c496e97bf9a2e67aeca97fa10a266f8cf22c10cc0375b514b25de466a146576b2cb565754efc80d4b8aa5497aa0fb4cbab90ee57298d322474d276366e04eab856c9f6070c80701fa30596dd0b6ea5bc38ba64e1d16aff1b8c61caa379064465a9308dbb1465294ddcb5fa32833e4ffb049c71761ed93472c7e58f171c6c8b51e2ec704d34897b80466e826b0c1ce2488511cbb1aaad26b075ed5ebf070be6e14eaa6b973423bcb2e0541307d88ff66d1b7e29fffb10218ca75bf3f9957d6ee27a0945278d5f9303b3e3f28a325a7f17905f7467c4afcbb3a43dbbd37e9591e3f5a82841ee9cb8b23f68b4572e8cd96d0f7daacbd3ab3bd5a8f427baf6ea7ae70d98d3948eafb74e2e4a158ac116c5219403c9073a457409c6e464bae32b2c856b15bda1b2176295fd1cecfe7d794ab2692061aa79387004112272204198437fc78d1dbe0e8932ce6f47828a2bf4df47446291b99d92a90de3623954589d36",
                "nonce" : "0x00",
                "storage" : {
                }
            },
            "0x945304eb96065b2a98b57a48a06ae28d285a71b5" : {
                "balance" : "0x2e",
                "code" : "0x6000355415600957005b60203560003555",
                "nonce" : "0x00",
                "storage" : {
                }
            },
            "0xa94f5374fce5edbc8e2a8697c15331677e6ebf0b" : {
                "balance" : "0x0de0b6b3a7640000",
                "code" : "0x",
                "nonce" : "0x00",
                "storage" : {
                }
            }
        },
        "postState" : {
            "0xa94f5374fce5edbc8e2a8697c15331677e6ebf0b" : {
                "code" : "0x",
                "nonce" : "0x01",
                "balance" : "0x0de0b6b35968de52",
                "storage" : {
                }
            },
            "0x095e7baea6a6c7c4c2dfeb977efac326af552d87" : {
                "code" : "0x3360b261edefa0326fdc74d570982966277b49cdb30a453fa06c34a7423da44ba2d04341af08c478b17a57318ab10ab43b3744333b0aa8864ac27b3fd022e380056735a5fcda3e9fdc25695972a076884de6d6b6b06dd45416c8110bae3c70576b433a4672777847e81823024ddd1292b929ad28e64a732b74c0ae1941d5936ecd35738e2f279273788f4aaf19907a532a6b0f117c32b6cb967aae8bdfcf86e2d4d64599986abcf65a20754f5a816c58ed669138f6a0448670b906bbf1eb145ced896c578de5aa27769006b1a784e84b6316d4e60c7053b0b6550c70a177cb7a3e88d4e83fb1897a09c2161ff6cc2679c178292687137854da672e316c66ef03dc9ac37e8e430b7c64d1939bf67383c4bafeb2f0471fe896b7c0e114bf6f152b266cc769ae4d38f3df618f5eeb9085601f601060086016632c019e2e73095e7baea6a6c7c4c2dfeb977efac326af552d87626b8a0ef179e6b62e86237845e9605d61219d97c1d0145516f5355fe73384e87a6a87cc6d2378c81797ac3746bc562e2fd1145e14781307bc4ada39732e9d0e8725fde75c5abc313c11e3238c7cd9b7186a6a14f8d5c3cad9da5339446ad1311ccc67a0691559157a674825358b301ac42d7bcae31beb8b0849903402175ca3740f3fd690ad66287d6bf67a98c09e6de5717596052d30f4b9bb8046a6b67ef51b1b13c496e97bf9a2e67aeca97fa10a266f8cf22c10cc0375b514b25de466a146576b2cb565754efc80d4b8aa5497aa0fb4cbab90ee57298d322474d276366e04eab856c9f6070c80701fa30596dd0b6ea5bc38ba64e1d16aff1b8c61caa379064465a9308dbb1465294ddcb5fa32833e4ffb049c71761ed93472c7e58f171c6c8b51e2ec704d34897b80466e826b0c1ce2488511cbb1aaad26b075ed5ebf070be6e14eaa6b973423bcb2e0541307d88ff66d1b7e29fffb10218ca75bf3f9957d6ee27a0945278d5f9303b3e3f28a325a7f17905f7467c4afcbb3a43dbbd37e9591e3f5a82841ee9cb8b23f68b4572e8cd96d0f7daacbd3ab3bd5a8f427baf6ea7ae70d98d3948eafb74e2e4a158ac116c5219403c9073a457409c6e464bae32b2c856b15bda1b2176295fd1cecfe7d794ab2692061aa79387004112272204198437fc78d1dbe0e8932ce6f47828a2bf4df47446291b99d92a90de3623954589d36",
                "nonce" : "0x00",
                "balance" : "0x4dd39b8a",
                "storage" : {
                }
            },
            "0x945304eb96065b2a98b57a48a06ae28d285a71b5" : {
                "code" : "0x6000355415600957005b60203560003555",
                "nonce" : "0x00",
                "balance" : "0x1bc16d674eef8652",
                "storage" : {
                }
            }
        },
        "network" : "Istanbul",
        "sealEngine" : "NoProof",
        "lastblockhash" : "0xc9407a3e911c2a070b543e2631432aecbad878a3991f6b628a3b39ede9ae3ab4",
        "genesisRLP" : "0xf901fdf901f8a00000000000000000000000000000000000000000000000000000000000000000a01dcc4de8dec75d7aab85b567b6ccd41ad312451b948a7413f0a142fd40d4934794945304eb96065b2a98b57a48a06ae28d285a71b5a084bab6061cbf039fef3a73f70eb0a1895220e10904f78974c1a1137ffd9ec26ca056e81f171bcc55a6ff8345e692c0f86e5b48e01b996cadc001622fb5e363b421a056e81f171bcc55a6ff8345e692c0f86e5b48e01b996cadc001622fb5e363b421b90100000000000000000000000000000000000000000000000000000000000000000000000000000000000000000000000000000000000000000000000000000000000000000000000000000000000000000000000000000000000000000000000000000000000000000000000000000000000000000000000000000000000000000000000000000000000000000000000000000000000000000000000000000000000000000000000000000000000000000000000000000000000000000000000000000000000000000000000000000000000000000000000000000000000000000000000000000000000000000000000000000000000000000000000000000000008302000080887fffffffffffffff808000a00000000000000000000000000000000000000000000000000000000000000000880000000000000000c0c0",
        "blocks" : [
            {
                "rlp" : "0xf9032af901fda0b493968d799d70edad4ed2550b2dbdd2991d4e070b6932d112ba6e730c2a66f8a01dcc4de8dec75d7aab85b567b6ccd41ad312451b948a7413f0a142fd40d4934794945304eb96065b2a98b57a48a06ae28d285a71b5a03bcf897a1bbdecdc8c1c62ae7c96df22e9bc2bc94feb9cc66f3f4d9974f6d1f7a0f5a1ab4be6ba5128135a9ef89ca888a73c7a22c5a9f3c9c74010249c4d2d14e4a0052442d09432b2cf91f65ddf081b0ce070a7e10d158a6ba32e5d250754751831b90100000000000000000010000000000000000000000000000000000000000000000000000000000000000000000000000000000000000000000000000000000000000000000000000000000000000000000000000000000000000000000000000000000000000000000000000000000000000000000000000000000000000000000000000000000000000000000000000000000000000000000000000000000000000000000000000000040000000000000000000000000000000000000000000000000000000000000000000000000000000000000000000000000000000000000000000000400000000000000000000000000000000000000000000000000000008302000001887fffffffffffffff832786248203e800a00000000000000000000000000000000000000000000000000000000000000000880000000000000000f90126f901238001845f2173d394095e7baea6a6c7c4c2dfeb977efac326af552d87844dd39b8ab8bd74ac5e422199cb842b1fdcdef502d4142d033387c6d17fe1f03f0fc4a3c05daadf323f3bb04b7e33dbad9b32f058aa6df6d54c8d7ac95568ba4a6b33a2b0ce8d8c7480ab9e818cf8998564e6d38b92aa1ecd76aa8aff266dd266c96af419778c16a109cba6976922093e50bda96ac1333a946574ad748ad839546ff861257bb6a41cab34045ea7335e1c9667c67424f9baf8781e79e002a233a622f41f2744c21b6baed43543e0dfb9aa81fd1050326b0ebad84fda176f3438d3a7f0831ca085a048e46c2093a29887718ef88f50d3b621606207d0b5dd6c01e92de076726aa03dd157d122ad095aa36335823024238a37040384d0d84b47f000ccc8735a2606c0",
                "blockHeader" : {
                    "bloom" : "0x00000000000000001000000000000000000000000000000000000000000000000000000000000000000000000000000000000000000000000000000000000000000000000000000000000000000000000000000000000000000000000000000000000000000000000000000000000000000000000000000000000000000000000000000000000000000000000000000000000000000000000000000000000000000000000000000004000000000000000000000000000000000000000000000000000000000000000000000000000000000000000000000000000000000000000000000040000000000000000000000000000000000000000000000000000000",
                    "coinbase" : "0x945304eb96065b2a98b57a48a06ae28d285a71b5",
                    "difficulty" : "0x20000",
                    "extraData" : "0x00",
                    "gasLimit" : "0x7fffffffffffffff",
                    "gasUsed" : "0x278624",
                    "hash" : "0xc9407a3e911c2a070b543e2631432aecbad878a3991f6b628a3b39ede9ae3ab4",
                    "mixHash" : "0x0000000000000000000000000000000000000000000000000000000000000000",
                    "nonce" : "0x0000000000000000",
                    "number" : "0x1",
                    "parentHash" : "0xb493968d799d70edad4ed2550b2dbdd2991d4e070b6932d112ba6e730c2a66f8",
                    "receiptTrie" : "0x052442d09432b2cf91f65ddf081b0ce070a7e10d158a6ba32e5d250754751831",
                    "stateRoot" : "0x3bcf897a1bbdecdc8c1c62ae7c96df22e9bc2bc94feb9cc66f3f4d9974f6d1f7",
                    "timestamp" : "0x3e8",
                    "transactionsTrie" : "0xf5a1ab4be6ba5128135a9ef89ca888a73c7a22c5a9f3c9c74010249c4d2d14e4",
                    "uncleHash" : "0x1dcc4de8dec75d7aab85b567b6ccd41ad312451b948a7413f0a142fd40d49347"
                },
                "transactions" : [
                    {
                        "data" : "0x74ac5e422199cb842b1fdcdef502d4142d033387c6d17fe1f03f0fc4a3c05daadf323f3bb04b7e33dbad9b32f058aa6df6d54c8d7ac95568ba4a6b33a2b0ce8d8c7480ab9e818cf8998564e6d38b92aa1ecd76aa8aff266dd266c96af419778c16a109cba6976922093e50bda96ac1333a946574ad748ad839546ff861257bb6a41cab34045ea7335e1c9667c67424f9baf8781e79e002a233a622f41f2744c21b6baed43543e0dfb9aa81fd1050326b0ebad84fda176f3438d3a7f083",
                        "gasLimit" : "0x5f2173d3",
                        "gasPrice" : "0x01",
                        "nonce" : "0x00",
                        "to" : "0x095e7baea6a6c7c4c2dfeb977efac326af552d87",
                        "value" : "0x4dd39b8a",
                        "v" : "0x1c",
                        "r" : "0x85a048e46c2093a29887718ef88f50d3b621606207d0b5dd6c01e92de076726a",
                        "s" : "0x3dd157d122ad095aa36335823024238a37040384d0d84b47f000ccc8735a2606"
                    }
                ]
            }
        ]
    }
}