{
    "randomStatetest184_d0g0v0_Istanbul" : {
        "_info" : {
            "comment" : "",
            "filling-rpc-server" : "Geth-1.9.6-unstable-63b18027-20190920",
            "filling-tool-version" : "retesteth-0.0.1+commit.0ae18aef.Linux.g++",
            "lllcversion" : "Version: 0.5.12-develop.2019.9.13+commit.2d601a4f.Linux.g++",
            "source" : "src/GeneralStateTestsFiller/stRandom/randomStatetest184Filler.json",
            "sourceHash" : "ec56f6bc26783631f58399fb86c51750c94198e11ef5f49058bd906f7b686d0c"
        },
        "genesisBlockHeader" : {
            "bloom" : "0x00000000000000000000000000000000000000000000000000000000000000000000000000000000000000000000000000000000000000000000000000000000000000000000000000000000000000000000000000000000000000000000000000000000000000000000000000000000000000000000000000000000000000000000000000000000000000000000000000000000000000000000000000000000000000000000000000000000000000000000000000000000000000000000000000000000000000000000000000000000000000000000000000000000000000000000000000000000000000000000000000000000000000000000000000000000",
            "coinbase" : "0x6d6e40885310545835a5b582dbc23ef026404bda",
            "difficulty" : "0x20000",
            "extraData" : "0x00",
            "gasLimit" : "0x102b7fe66d",
            "gasUsed" : "0x0",
            "hash" : "0x441e68d068cb3ac444e984954b298a7aa1df09f18b2bc0f1d45c661f2eda5cc4",
            "mixHash" : "0x0000000000000000000000000000000000000000000000000000000000000000",
            "nonce" : "0x0000000000000000",
            "number" : "0x0",
            "parentHash" : "0x0000000000000000000000000000000000000000000000000000000000000000",
            "receiptTrie" : "0x56e81f171bcc55a6ff8345e692c0f86e5b48e01b996cadc001622fb5e363b421",
            "stateRoot" : "0x297f41012f7d9ab3be0c8aaf734119c78b7606e34997dcd334b8ec84721dd0cf",
            "timestamp" : "0x0",
            "transactionsTrie" : "0x56e81f171bcc55a6ff8345e692c0f86e5b48e01b996cadc001622fb5e363b421",
            "uncleHash" : "0x1dcc4de8dec75d7aab85b567b6ccd41ad312451b948a7413f0a142fd40d49347"
        },
        "pre" : {
            "0x095e7baea6a6c7c4c2dfeb977efac326af552d87" : {
                "balance" : "0x070a217c02c8f2d4",
                "code" : "0x6f823a02877cef7c1afb60663009def564608c557bad2ae05769b991313726edbfa0881d9cc955b0f5154751da315696ea7ce130184b64f2507582c502d450349ff24fb8aeb2a46146687b666bd7bd0364946cb720c76d483f5afea0049251fd9793c4b0376afbb4ebcdc42fdd42edcd4b619cec787638009cea26a1abe570e3186ab790b7dc7db36e4cda2570b0847adf6e39579c7c43a4ac976cd507d493cdfaebe09936078e31c71c4665d34a4b816b8004",
                "nonce" : "0x75",
                "storage" : {
                }
            },
            "0x945304eb96065b2a98b57a48a06ae28d285a71b5" : {
                "balance" : "0x9740421ff0ff3ae3",
                "code" : "0x",
                "nonce" : "0x1d",
                "storage" : {
                }
            },
            "0xa94f5374fce5edbc8e2a8697c15331677e6ebf0b" : {
                "balance" : "0x10c1142f2b8e8eb058",
                "code" : "0x",
                "nonce" : "0x00",
                "storage" : {
                }
            }
        },
        "postState" : {
            "0xa94f5374fce5edbc8e2a8697c15331677e6ebf0b" : {
                "code" : "0x",
                "nonce" : "0x01",
                "balance" : "0x10c1142f2b215f3b04",
                "storage" : {
                }
            },
            "0x095e7baea6a6c7c4c2dfeb977efac326af552d87" : {
                "code" : "0x6f823a02877cef7c1afb60663009def564608c557bad2ae05769b991313726edbfa0881d9cc955b0f5154751da315696ea7ce130184b64f2507582c502d450349ff24fb8aeb2a46146687b666bd7bd0364946cb720c76d483f5afea0049251fd9793c4b0376afbb4ebcdc42fdd42edcd4b619cec787638009cea26a1abe570e3186ab790b7dc7db36e4cda2570b0847adf6e39579c7c43a4ac976cd507d493cdfaebe09936078e31c71c4665d34a4b816b8004",
                "nonce" : "0x75",
                "balance" : "0x070a217c6fe6c2f8",
                "storage" : {
                    "0x8c" : "0x823a02877cef7c1afb60663009def564"
                }
            },
            "0x6d6e40885310545835a5b582dbc23ef026404bda" : {
                "code" : "0x",
                "nonce" : "0x00",
                "balance" : "0x1bc16d674ed9a530",
                "storage" : {
                }
            },
            "0x945304eb96065b2a98b57a48a06ae28d285a71b5" : {
                "code" : "0x",
                "nonce" : "0x1d",
                "balance" : "0x9740421ff0ff3ae3",
                "storage" : {
                }
            }
        },
        "network" : "Istanbul",
        "sealEngine" : "NoProof",
        "lastblockhash" : "0x9d3370e236ce26b201fd561ff0c4cdebe93b5dbeadef236e987ddea1c320ca56",
        "genesisRLP" : "0xf901faf901f5a00000000000000000000000000000000000000000000000000000000000000000a01dcc4de8dec75d7aab85b567b6ccd41ad312451b948a7413f0a142fd40d49347946d6e40885310545835a5b582dbc23ef026404bdaa0297f41012f7d9ab3be0c8aaf734119c78b7606e34997dcd334b8ec84721dd0cfa056e81f171bcc55a6ff8345e692c0f86e5b48e01b996cadc001622fb5e363b421a056e81f171bcc55a6ff8345e692c0f86e5b48e01b996cadc001622fb5e363b421b9010000000000000000000000000000000000000000000000000000000000000000000000000000000000000000000000000000000000000000000000000000000000000000000000000000000000000000000000000000000000000000000000000000000000000000000000000000000000000000000000000000000000000000000000000000000000000000000000000000000000000000000000000000000000000000000000000000000000000000000000000000000000000000000000000000000000000000000000000000000000000000000000000000000000000000000000000000000000000000000000000000000000000000000000000000000000830200008085102b7fe66d808000a00000000000000000000000000000000000000000000000000000000000000000880000000000000000c0c0",
        "blocks" : [
            {
                "rlp" : "0xf90276f901f9a0441e68d068cb3ac444e984954b298a7aa1df09f18b2bc0f1d45c661f2eda5cc4a01dcc4de8dec75d7aab85b567b6ccd41ad312451b948a7413f0a142fd40d49347946d6e40885310545835a5b582dbc23ef026404bdaa04d85e093d9e5ce8c25ef1b3f4f22dcc180623b741e5c05f114bae699f42cdcd7a0e5c79263d9ee3544da3e96a20fc20b11cd2dc548c211a7d1073311a1b02191b7a033bf90dba639d02e96bf13906c1715d9499285af8ba954b14c45365b9145682db9010000000000000000000000000000000000000000000000000000000000000000000000000000000000000000000000000000000000000000000000000000000000000000000000000000000000000000000000000000000000000000000000000000000000000000000000000000000000000000000000000000000000000000000000000000000000000000000000000000000000000000000000000000000000000000000000000000000000000000000000000000000000000000000000000000000000000000000000000000000000000000000000000000000000000000000000000000000000000000000000000000000000000000000000000000000000830200000185102f8ac66582a15482271000a00000000000000000000000000000000000000000000000000000000000000000880000000000000000f877f875801c843b75fb8794095e7baea6a6c7c4c2dfeb977efac326af552d87846d1dd0249064dd3e4e84676723342c1dfaf9af4ef31ba0dcac3cc6bc71280f50cc82297c3483d65434803e718433c85d8dbb0644bfc379a059ed5cc1b44e24918daabd74179907fffc4692d5b9e8428a89aa4815c7870eddc0",
                "blockHeader" : {
                    "bloom" : "0x00000000000000000000000000000000000000000000000000000000000000000000000000000000000000000000000000000000000000000000000000000000000000000000000000000000000000000000000000000000000000000000000000000000000000000000000000000000000000000000000000000000000000000000000000000000000000000000000000000000000000000000000000000000000000000000000000000000000000000000000000000000000000000000000000000000000000000000000000000000000000000000000000000000000000000000000000000000000000000000000000000000000000000000000000000000",
                    "coinbase" : "0x6d6e40885310545835a5b582dbc23ef026404bda",
                    "difficulty" : "0x20000",
                    "extraData" : "0x00",
                    "gasLimit" : "0x102f8ac665",
                    "gasUsed" : "0xa154",
                    "hash" : "0x9d3370e236ce26b201fd561ff0c4cdebe93b5dbeadef236e987ddea1c320ca56",
                    "mixHash" : "0x0000000000000000000000000000000000000000000000000000000000000000",
                    "nonce" : "0x0000000000000000",
                    "number" : "0x1",
                    "parentHash" : "0x441e68d068cb3ac444e984954b298a7aa1df09f18b2bc0f1d45c661f2eda5cc4",
                    "receiptTrie" : "0x33bf90dba639d02e96bf13906c1715d9499285af8ba954b14c45365b9145682d",
                    "stateRoot" : "0x4d85e093d9e5ce8c25ef1b3f4f22dcc180623b741e5c05f114bae699f42cdcd7",
                    "timestamp" : "0x2710",
                    "transactionsTrie" : "0xe5c79263d9ee3544da3e96a20fc20b11cd2dc548c211a7d1073311a1b02191b7",
                    "uncleHash" : "0x1dcc4de8dec75d7aab85b567b6ccd41ad312451b948a7413f0a142fd40d49347"
                },
                "transactions" : [
                    {
                        "data" : "0x64dd3e4e84676723342c1dfaf9af4ef3",
                        "gasLimit" : "0x3b75fb87",
                        "gasPrice" : "0x1c",
                        "nonce" : "0x00",
                        "to" : "0x095e7baea6a6c7c4c2dfeb977efac326af552d87",
                        "value" : "0x6d1dd024",
                        "v" : "0x1b",
                        "r" : "0xdcac3cc6bc71280f50cc82297c3483d65434803e718433c85d8dbb0644bfc379",
                        "s" : "0x59ed5cc1b44e24918daabd74179907fffc4692d5b9e8428a89aa4815c7870edd"
                    }
                ]
            }
        ]
    }
}