{
    "randomStatetest97_d0g0v0_Istanbul" : {
        "_info" : {
            "comment" : "",
            "filling-rpc-server" : "Geth-1.9.6-unstable-63b18027-20190920",
            "filling-tool-version" : "retesteth-0.0.1+commit.0ae18aef.Linux.g++",
            "lllcversion" : "Version: 0.5.12-develop.2019.9.13+commit.2d601a4f.Linux.g++",
            "source" : "src/GeneralStateTestsFiller/stRandom/randomStatetest97Filler.json",
            "sourceHash" : "633c00ddbd61a59e1b9c47d341634a628677804fb9011c6ceef4e055ef43760c"
        },
        "genesisBlockHeader" : {
            "bloom" : "0x00000000000000000000000000000000000000000000000000000000000000000000000000000000000000000000000000000000000000000000000000000000000000000000000000000000000000000000000000000000000000000000000000000000000000000000000000000000000000000000000000000000000000000000000000000000000000000000000000000000000000000000000000000000000000000000000000000000000000000000000000000000000000000000000000000000000000000000000000000000000000000000000000000000000000000000000000000000000000000000000000000000000000000000000000000000",
            "coinbase" : "0x945304eb96065b2a98b57a48a06ae28d285a71b5",
            "difficulty" : "0x20000",
            "extraData" : "0x00",
            "gasLimit" : "0x7fffffffffffffff",
            "gasUsed" : "0x0",
            "hash" : "0xacb4b34be5f67ab644cbd2fa28faf60221b9f78b4c947cafd52964c19341c4f7",
            "mixHash" : "0x0000000000000000000000000000000000000000000000000000000000000000",
            "nonce" : "0x0000000000000000",
            "number" : "0x0",
            "parentHash" : "0x0000000000000000000000000000000000000000000000000000000000000000",
            "receiptTrie" : "0x56e81f171bcc55a6ff8345e692c0f86e5b48e01b996cadc001622fb5e363b421",
            "stateRoot" : "0x36467c36aecf4fece24d29f14eb8ac0a07d01c5632e028e2267e69da40a45f4f",
            "timestamp" : "0x0",
            "transactionsTrie" : "0x56e81f171bcc55a6ff8345e692c0f86e5b48e01b996cadc001622fb5e363b421",
            "uncleHash" : "0x1dcc4de8dec75d7aab85b567b6ccd41ad312451b948a7413f0a142fd40d49347"
        },
        "pre" : {
            "0x095e7baea6a6c7c4c2dfeb977efac326af552d87" : {
                "balance" : "0x00",
                "code" : "0x7f000000000000000000000000945304eb96065b2a98b57a48a06ae28d285a71b5587f0000000000000000000000000000000000000000000000000000000000000001957f0000000000000000000000000000000000000000000000000000000000000000407f00000000000000000000000000000000000000000000000000000000000000017f000000000000000000000000000000000000000000000000000000000000c3509781040107338b35071887a186",
                "nonce" : "0x00",
                "storage" : {
                }
            },
            "0x945304eb96065b2a98b57a48a06ae28d285a71b5" : {
                "balance" : "0x2e",
                "code" : "0x6000355415600957005b60203560003555",
                "nonce" : "0x00",
                "storage" : {
                }
            },
            "0xa94f5374fce5edbc8e2a8697c15331677e6ebf0b" : {
                "balance" : "0x0de0b6b3a7640000",
                "code" : "0x",
                "nonce" : "0x00",
                "storage" : {
                }
            }
        },
        "postState" : {
            "0xa94f5374fce5edbc8e2a8697c15331677e6ebf0b" : {
                "code" : "0x",
                "nonce" : "0x01",
                "balance" : "0x0de0b6b3a3248f11",
                "storage" : {
                }
            },
            "0x095e7baea6a6c7c4c2dfeb977efac326af552d87" : {
                "code" : "0x7f000000000000000000000000945304eb96065b2a98b57a48a06ae28d285a71b5587f0000000000000000000000000000000000000000000000000000000000000001957f0000000000000000000000000000000000000000000000000000000000000000407f00000000000000000000000000000000000000000000000000000000000000017f000000000000000000000000000000000000000000000000000000000000c3509781040107338b35071887a186",
                "nonce" : "0x00",
                "balance" : "0x00",
                "storage" : {
                }
            },
            "0x945304eb96065b2a98b57a48a06ae28d285a71b5" : {
                "code" : "0x6000355415600957005b60203560003555",
                "nonce" : "0x00",
                "balance" : "0x1bc16d675307711d",
                "storage" : {
                }
            }
        },
        "network" : "Istanbul",
        "sealEngine" : "NoProof",
        "lastblockhash" : "0xe29b03047bb68947653df5d9b630ae2241dff3c1bc041654dc44497550bfd15c",
        "genesisRLP" : "0xf901fdf901f8a00000000000000000000000000000000000000000000000000000000000000000a01dcc4de8dec75d7aab85b567b6ccd41ad312451b948a7413f0a142fd40d4934794945304eb96065b2a98b57a48a06ae28d285a71b5a036467c36aecf4fece24d29f14eb8ac0a07d01c5632e028e2267e69da40a45f4fa056e81f171bcc55a6ff8345e692c0f86e5b48e01b996cadc001622fb5e363b421a056e81f171bcc55a6ff8345e692c0f86e5b48e01b996cadc001622fb5e363b421b90100000000000000000000000000000000000000000000000000000000000000000000000000000000000000000000000000000000000000000000000000000000000000000000000000000000000000000000000000000000000000000000000000000000000000000000000000000000000000000000000000000000000000000000000000000000000000000000000000000000000000000000000000000000000000000000000000000000000000000000000000000000000000000000000000000000000000000000000000000000000000000000000000000000000000000000000000000000000000000000000000000000000000000000000000000000008302000080887fffffffffffffff808000a00000000000000000000000000000000000000000000000000000000000000000880000000000000000c0c0",
        "blocks" : [
            {
                "rlp" : "0xf90323f901fea0acb4b34be5f67ab644cbd2fa28faf60221b9f78b4c947cafd52964c19341c4f7a01dcc4de8dec75d7aab85b567b6ccd41ad312451b948a7413f0a142fd40d4934794945304eb96065b2a98b57a48a06ae28d285a71b5a0dd12493fdba513e78e1a7b9a62e4a86149b79f83974e3dcd30aed749b203433da089a9f6bbb2c7d16f064331bb8a0e6d2f0cb7b756a58b9de5c63da6d5adf6cff4a0335ea290687b54de4e781c2e7c32bc9d650ab4148ff8b95aa604d75bf8276c32b90100000000000000000000000000000000000000000000000000000000000000000000000000000000000000000000000000000000000000000000000000000000000000000000000000000000000000000000000000000000000000000000000000000000000000000000000000000000000000000000000000000000000000000000000000000000000000000000000000000000000000000000000000000000000000000000000000000000000000000000000000000000000000000000000000000000000000000000000000000000000000000000000000000000000000000000000000000000000000000000000000000000000000000000000000000000008302000001887fffffffffffffff84043f70ef8203e800a00000000000000000000000000000000000000000000000000000000000000000880000000000000000f9011ef9011b800184043f70ef94095e7baea6a6c7c4c2dfeb977efac326af552d878414008cb2b8b57f000000000000000000000000945304eb96065b2a98b57a48a06ae28d285a71b5587f0000000000000000000000000000000000000000000000000000000000000001957f0000000000000000000000000000000000000000000000000000000000000000407f00000000000000000000000000000000000000000000000000000000000000017f000000000000000000000000000000000000000000000000000000000000c3509781040107338b35071887a1861ca0066e6224b014adec7eff79060ad455fb1f9db181a2b1117b37f97bf12fa4751ea0155f97a727698f2d391a9a228107f466685b3999c7fc583707ba74830d8e3fccc0",
                "blockHeader" : {
                    "bloom" : "0x00000000000000000000000000000000000000000000000000000000000000000000000000000000000000000000000000000000000000000000000000000000000000000000000000000000000000000000000000000000000000000000000000000000000000000000000000000000000000000000000000000000000000000000000000000000000000000000000000000000000000000000000000000000000000000000000000000000000000000000000000000000000000000000000000000000000000000000000000000000000000000000000000000000000000000000000000000000000000000000000000000000000000000000000000000000",
                    "coinbase" : "0x945304eb96065b2a98b57a48a06ae28d285a71b5",
                    "difficulty" : "0x20000",
                    "extraData" : "0x00",
                    "gasLimit" : "0x7fffffffffffffff",
                    "gasUsed" : "0x43f70ef",
                    "hash" : "0xe29b03047bb68947653df5d9b630ae2241dff3c1bc041654dc44497550bfd15c",
                    "mixHash" : "0x0000000000000000000000000000000000000000000000000000000000000000",
                    "nonce" : "0x0000000000000000",
                    "number" : "0x1",
                    "parentHash" : "0xacb4b34be5f67ab644cbd2fa28faf60221b9f78b4c947cafd52964c19341c4f7",
                    "receiptTrie" : "0x335ea290687b54de4e781c2e7c32bc9d650ab4148ff8b95aa604d75bf8276c32",
                    "stateRoot" : "0xdd12493fdba513e78e1a7b9a62e4a86149b79f83974e3dcd30aed749b203433d",
                    "timestamp" : "0x3e8",
                    "transactionsTrie" : "0x89a9f6bbb2c7d16f064331bb8a0e6d2f0cb7b756a58b9de5c63da6d5adf6cff4",
                    "uncleHash" : "0x1dcc4de8dec75d7aab85b567b6ccd41ad312451b948a7413f0a142fd40d49347"
                },
                "transactions" : [
                    {
                        "data" : "0x7f000000000000000000000000945304eb96065b2a98b57a48a06ae28d285a71b5587f0000000000000000000000000000000000000000000000000000000000000001957f0000000000000000000000000000000000000000000000000000000000000000407f00000000000000000000000000000000000000000000000000000000000000017f000000000000000000000000000000000000000000000000000000000000c3509781040107338b35071887a186",
                        "gasLimit" : "0x043f70ef",
                        "gasPrice" : "0x01",
                        "nonce" : "0x00",
                        "to" : "0x095e7baea6a6c7c4c2dfeb977efac326af552d87",
                        "value" : "0x14008cb2",
                        "v" : "0x1c",
                        "r" : "0x066e6224b014adec7eff79060ad455fb1f9db181a2b1117b37f97bf12fa4751e",
                        "s" : "0x155f97a727698f2d391a9a228107f466685b3999c7fc583707ba74830d8e3fcc"
                    }
                ]
            }
        ]
    }
}