{
    "randomStatetest233_d0g0v0_Istanbul" : {
        "_info" : {
            "comment" : "",
            "filling-rpc-server" : "Geth-1.9.6-unstable-63b18027-20190920",
            "filling-tool-version" : "retesteth-0.0.1+commit.0ae18aef.Linux.g++",
            "lllcversion" : "Version: 0.5.12-develop.2019.9.13+commit.2d601a4f.Linux.g++",
            "source" : "src/GeneralStateTestsFiller/stRandom/randomStatetest233Filler.json",
            "sourceHash" : "3712e36891fd6d2f95dd553eec2400acd397b024d2c67b472ea440ea1cb0af31"
        },
        "genesisBlockHeader" : {
            "bloom" : "0x00000000000000000000000000000000000000000000000000000000000000000000000000000000000000000000000000000000000000000000000000000000000000000000000000000000000000000000000000000000000000000000000000000000000000000000000000000000000000000000000000000000000000000000000000000000000000000000000000000000000000000000000000000000000000000000000000000000000000000000000000000000000000000000000000000000000000000000000000000000000000000000000000000000000000000000000000000000000000000000000000000000000000000000000000000000",
            "coinbase" : "0x945304eb96065b2a98b57a48a06ae28d285a71b5",
            "difficulty" : "0x20000",
            "extraData" : "0x00",
            "gasLimit" : "0x7fffffffffffffff",
            "gasUsed" : "0x0",
            "hash" : "0x370cf35a017fa88bfdf2415f32aec7f8f74bccb0fbb4e7e854cd65907222c949",
            "mixHash" : "0x0000000000000000000000000000000000000000000000000000000000000000",
            "nonce" : "0x0000000000000000",
            "number" : "0x0",
            "parentHash" : "0x0000000000000000000000000000000000000000000000000000000000000000",
            "receiptTrie" : "0x56e81f171bcc55a6ff8345e692c0f86e5b48e01b996cadc001622fb5e363b421",
            "stateRoot" : "0xb1c3777757993e0bae9a1cacd9ca97e8a2f899b2e01725dfc302a2fc0cf69374",
            "timestamp" : "0x0",
            "transactionsTrie" : "0x56e81f171bcc55a6ff8345e692c0f86e5b48e01b996cadc001622fb5e363b421",
            "uncleHash" : "0x1dcc4de8dec75d7aab85b567b6ccd41ad312451b948a7413f0a142fd40d49347"
        },
        "pre" : {
            "0x095e7baea6a6c7c4c2dfeb977efac326af552d87" : {
                "balance" : "0x00",
                "code" : "0x7ffffffffffffffffffffffffffffffffffffffffffffffffffffffffffffffffe817fffffffffffffffffffffffffffffffffffffffffffffffffffffffffffffffff42057f000000000000000000000000ffffffffffffffffffffffffffffffffffffffff517f000000000000000000000001000000000000000000000000000000000000000065715460005155",
                "nonce" : "0x00",
                "storage" : {
                }
            },
            "0x945304eb96065b2a98b57a48a06ae28d285a71b5" : {
                "balance" : "0x2e",
                "code" : "0x6000355415600957005b60203560003555",
                "nonce" : "0x00",
                "storage" : {
                }
            },
            "0xa94f5374fce5edbc8e2a8697c15331677e6ebf0b" : {
                "balance" : "0x0de0b6b3a7640000",
                "code" : "0x",
                "nonce" : "0x00",
                "storage" : {
                }
            }
        },
        "postState" : {
            "0xa94f5374fce5edbc8e2a8697c15331677e6ebf0b" : {
                "code" : "0x",
                "nonce" : "0x01",
                "balance" : "0x0de0b6b39068dcb5",
                "storage" : {
                }
            },
            "0x095e7baea6a6c7c4c2dfeb977efac326af552d87" : {
                "code" : "0x7ffffffffffffffffffffffffffffffffffffffffffffffffffffffffffffffffe817fffffffffffffffffffffffffffffffffffffffffffffffffffffffffffffffff42057f000000000000000000000000ffffffffffffffffffffffffffffffffffffffff517f000000000000000000000001000000000000000000000000000000000000000065715460005155",
                "nonce" : "0x00",
                "balance" : "0x00",
                "storage" : {
                }
            },
            "0x945304eb96065b2a98b57a48a06ae28d285a71b5" : {
                "code" : "0x6000355415600957005b60203560003555",
                "nonce" : "0x00",
                "balance" : "0x1bc16d6765c32379",
                "storage" : {
                }
            }
        },
        "network" : "Istanbul",
        "sealEngine" : "NoProof",
        "lastblockhash" : "0x20723fed7c7d3edd0ced4c4b72fab20c5fe88627757112172b2bb8dca6b3eadb",
        "genesisRLP" : "0xf901fdf901f8a00000000000000000000000000000000000000000000000000000000000000000a01dcc4de8dec75d7aab85b567b6ccd41ad312451b948a7413f0a142fd40d4934794945304eb96065b2a98b57a48a06ae28d285a71b5a0b1c3777757993e0bae9a1cacd9ca97e8a2f899b2e01725dfc302a2fc0cf69374a056e81f171bcc55a6ff8345e692c0f86e5b48e01b996cadc001622fb5e363b421a056e81f171bcc55a6ff8345e692c0f86e5b48e01b996cadc001622fb5e363b421b90100000000000000000000000000000000000000000000000000000000000000000000000000000000000000000000000000000000000000000000000000000000000000000000000000000000000000000000000000000000000000000000000000000000000000000000000000000000000000000000000000000000000000000000000000000000000000000000000000000000000000000000000000000000000000000000000000000000000000000000000000000000000000000000000000000000000000000000000000000000000000000000000000000000000000000000000000000000000000000000000000000000000000000000000000000000008302000080887fffffffffffffff808000a00000000000000000000000000000000000000000000000000000000000000000880000000000000000c0c0",
        "blocks" : [
            {
                "rlp" : "0xf902f7f901fea0370cf35a017fa88bfdf2415f32aec7f8f74bccb0fbb4e7e854cd65907222c949a01dcc4de8dec75d7aab85b567b6ccd41ad312451b948a7413f0a142fd40d4934794945304eb96065b2a98b57a48a06ae28d285a71b5a0be35d3f06346f229cfeba5f3db3b49d867629e92658f956607ea7643d8953856a0577e771e13a76032ab812ad011c9331932751313599a0d495d836f5259c425e3a0b634e6e9feade9b30a2b557a84c030a0b8410a57fd1798a16e3e4473ca33a53fb90100000000000000000000000000000000000000000000000000000000000000000000000000000000000000000000000000000000000000000000000000000000000000000000000000000000000000000000000000000000000000000000000000000000000000000000000000000000000000000000000000000000000000000000000000000000000000000000000000000000000000000000000000000000000000000000000000000000000000000000000000000000000000000000000000000000000000000000000000000000000000000000000000000000000000000000000000000000000000000000000000000000000000000000000000000000008302000001887fffffffffffffff8416fb234b8203e800a00000000000000000000000000000000000000000000000000000000000000000880000000000000000f8f3f8f180018416fb234b94095e7baea6a6c7c4c2dfeb977efac326af552d878477b5363eb88b7ffffffffffffffffffffffffffffffffffffffffffffffffffffffffffffffffe817fffffffffffffffffffffffffffffffffffffffffffffffffffffffffffffffff42057f000000000000000000000000ffffffffffffffffffffffffffffffffffffffff517f00000000000000000000000100000000000000000000000000000000000000006571541ba062004db7e70cc9415b637b50f69c2d43a204adb6d003f59d36b9c943dfc7710ca03e5fb9250725241d6558a4bf1f6bba3320772be2db78581184482cdc19858485c0",
                "blockHeader" : {
                    "bloom" : "0x00000000000000000000000000000000000000000000000000000000000000000000000000000000000000000000000000000000000000000000000000000000000000000000000000000000000000000000000000000000000000000000000000000000000000000000000000000000000000000000000000000000000000000000000000000000000000000000000000000000000000000000000000000000000000000000000000000000000000000000000000000000000000000000000000000000000000000000000000000000000000000000000000000000000000000000000000000000000000000000000000000000000000000000000000000000",
                    "coinbase" : "0x945304eb96065b2a98b57a48a06ae28d285a71b5",
                    "difficulty" : "0x20000",
                    "extraData" : "0x00",
                    "gasLimit" : "0x7fffffffffffffff",
                    "gasUsed" : "0x16fb234b",
                    "hash" : "0x20723fed7c7d3edd0ced4c4b72fab20c5fe88627757112172b2bb8dca6b3eadb",
                    "mixHash" : "0x0000000000000000000000000000000000000000000000000000000000000000",
                    "nonce" : "0x0000000000000000",
                    "number" : "0x1",
                    "parentHash" : "0x370cf35a017fa88bfdf2415f32aec7f8f74bccb0fbb4e7e854cd65907222c949",
                    "receiptTrie" : "0xb634e6e9feade9b30a2b557a84c030a0b8410a57fd1798a16e3e4473ca33a53f",
                    "stateRoot" : "0xbe35d3f06346f229cfeba5f3db3b49d867629e92658f956607ea7643d8953856",
                    "timestamp" : "0x3e8",
                    "transactionsTrie" : "0x577e771e13a76032ab812ad011c9331932751313599a0d495d836f5259c425e3",
                    "uncleHash" : "0x1dcc4de8dec75d7aab85b567b6ccd41ad312451b948a7413f0a142fd40d49347"
                },
                "transactions" : [
                    {
                        "data" : "0x7ffffffffffffffffffffffffffffffffffffffffffffffffffffffffffffffffe817fffffffffffffffffffffffffffffffffffffffffffffffffffffffffffffffff42057f000000000000000000000000ffffffffffffffffffffffffffffffffffffffff517f0000000000000000000000010000000000000000000000000000000000000000657154",
                        "gasLimit" : "0x16fb234b",
                        "gasPrice" : "0x01",
                        "nonce" : "0x00",
                        "to" : "0x095e7baea6a6c7c4c2dfeb977efac326af552d87",
                        "value" : "0x77b5363e",
                        "v" : "0x1b",
                        "r" : "0x62004db7e70cc9415b637b50f69c2d43a204adb6d003f59d36b9c943dfc7710c",
                        "s" : "0x3e5fb9250725241d6558a4bf1f6bba3320772be2db78581184482cdc19858485"
                    }
                ]
            }
        ]
    }
}