{
    "randomStatetest185_d0g0v0_Istanbul" : {
        "_info" : {
            "comment" : "",
            "filling-rpc-server" : "Geth-1.9.6-unstable-63b18027-20190920",
            "filling-tool-version" : "retesteth-0.0.1+commit.0ae18aef.Linux.g++",
            "lllcversion" : "Version: 0.5.12-develop.2019.9.13+commit.2d601a4f.Linux.g++",
            "source" : "src/GeneralStateTestsFiller/stRandom/randomStatetest185Filler.json",
            "sourceHash" : "d1924728cf0179fe7ea78c2e9c86afcda2889cc04bf8220bb1f54152552b424d"
        },
        "genesisBlockHeader" : {
            "bloom" : "0x00000000000000000000000000000000000000000000000000000000000000000000000000000000000000000000000000000000000000000000000000000000000000000000000000000000000000000000000000000000000000000000000000000000000000000000000000000000000000000000000000000000000000000000000000000000000000000000000000000000000000000000000000000000000000000000000000000000000000000000000000000000000000000000000000000000000000000000000000000000000000000000000000000000000000000000000000000000000000000000000000000000000000000000000000000000",
            "coinbase" : "0x945304eb96065b2a98b57a48a06ae28d285a71b5",
            "difficulty" : "0x20000",
            "extraData" : "0x00",
            "gasLimit" : "0x7fffffffffffffff",
            "gasUsed" : "0x0",
            "hash" : "0x5419750c15ce7cb1e65918c1a575538dfa3c242ddec1fdc6c7da4c9f0f97c7bd",
            "mixHash" : "0x0000000000000000000000000000000000000000000000000000000000000000",
            "nonce" : "0x0000000000000000",
            "number" : "0x0",
            "parentHash" : "0x0000000000000000000000000000000000000000000000000000000000000000",
            "receiptTrie" : "0x56e81f171bcc55a6ff8345e692c0f86e5b48e01b996cadc001622fb5e363b421",
            "stateRoot" : "0xbd706582025195712eab946dd96229e88f5dd7cd9843aa3e88ad07a9055e7731",
            "timestamp" : "0x0",
            "transactionsTrie" : "0x56e81f171bcc55a6ff8345e692c0f86e5b48e01b996cadc001622fb5e363b421",
            "uncleHash" : "0x1dcc4de8dec75d7aab85b567b6ccd41ad312451b948a7413f0a142fd40d49347"
        },
        "pre" : {
            "0x095e7baea6a6c7c4c2dfeb977efac326af552d87" : {
                "balance" : "0x00",
                "code" : "0x7f000000000000000000000000000000000000000000000000000000000000c3507f00000000000000000000000000000000000000000000000000000000000000007f000000000000000000000000ffffffffffffffffffffffffffffffffffffffff411a7f000000000000000000000000ffffffffffffffffffffffffffffffffffffffff7f000000000000000000000000ffffffffffffffffffffffffffffffffffffffff7f000000000000000000000000000000000000000000000000000000000000000162805a8d3aa3",
                "nonce" : "0x00",
                "storage" : {
                }
            },
            "0x945304eb96065b2a98b57a48a06ae28d285a71b5" : {
                "balance" : "0x2e",
                "code" : "0x6000355415600957005b60203560003555",
                "nonce" : "0x00",
                "storage" : {
                }
            },
            "0xa94f5374fce5edbc8e2a8697c15331677e6ebf0b" : {
                "balance" : "0x0de0b6b3a7640000",
                "code" : "0x",
                "nonce" : "0x00",
                "storage" : {
                }
            }
        },
        "postState" : {
            "0xa94f5374fce5edbc8e2a8697c15331677e6ebf0b" : {
                "code" : "0x",
                "nonce" : "0x01",
                "balance" : "0x0de0b6b3562c7901",
                "storage" : {
                }
            },
            "0x095e7baea6a6c7c4c2dfeb977efac326af552d87" : {
                "code" : "0x7f000000000000000000000000000000000000000000000000000000000000c3507f00000000000000000000000000000000000000000000000000000000000000007f000000000000000000000000ffffffffffffffffffffffffffffffffffffffff411a7f000000000000000000000000ffffffffffffffffffffffffffffffffffffffff7f000000000000000000000000ffffffffffffffffffffffffffffffffffffffff7f000000000000000000000000000000000000000000000000000000000000000162805a8d3aa3",
                "nonce" : "0x00",
                "balance" : "0x451cf342",
                "storage" : {
                }
            },
            "0x945304eb96065b2a98b57a48a06ae28d285a71b5" : {
                "code" : "0x6000355415600957005b60203560003555",
                "nonce" : "0x00",
                "balance" : "0x1bc16d675ae293eb",
                "storage" : {
                }
            }
        },
        "network" : "Istanbul",
        "sealEngine" : "NoProof",
        "lastblockhash" : "0x87f1236e7e6aa8b76caf7ceca1f1a106ea0d94d59fed82caadcee18e3c42e312",
        "genesisRLP" : "0xf901fdf901f8a00000000000000000000000000000000000000000000000000000000000000000a01dcc4de8dec75d7aab85b567b6ccd41ad312451b948a7413f0a142fd40d4934794945304eb96065b2a98b57a48a06ae28d285a71b5a0bd706582025195712eab946dd96229e88f5dd7cd9843aa3e88ad07a9055e7731a056e81f171bcc55a6ff8345e692c0f86e5b48e01b996cadc001622fb5e363b421a056e81f171bcc55a6ff8345e692c0f86e5b48e01b996cadc001622fb5e363b421b90100000000000000000000000000000000000000000000000000000000000000000000000000000000000000000000000000000000000000000000000000000000000000000000000000000000000000000000000000000000000000000000000000000000000000000000000000000000000000000000000000000000000000000000000000000000000000000000000000000000000000000000000000000000000000000000000000000000000000000000000000000000000000000000000000000000000000000000000000000000000000000000000000000000000000000000000000000000000000000000000000000000000000000000000000000000008302000080887fffffffffffffff808000a00000000000000000000000000000000000000000000000000000000000000000880000000000000000c0c0",
        "blocks" : [
            {
                "rlp" : "0xf9033cf901fea05419750c15ce7cb1e65918c1a575538dfa3c242ddec1fdc6c7da4c9f0f97c7bda01dcc4de8dec75d7aab85b567b6ccd41ad312451b948a7413f0a142fd40d4934794945304eb96065b2a98b57a48a06ae28d285a71b5a07a72574c6646f65668842e43fd3f1e2f749aec148527ba6d42194df49bbd71f0a019673cc486947d873ef2ff0c6fcf0957afafce3770b78428c9bc540fb499aceaa0ee9212702e79af07a0ecd1565398476e332ab6d8c2bc8cbe9c9527e99a842432b90100000000000000000010000000000000000000000000000000000000000000000000000000000000000000000000000000000000000000000000000000000400000000000000000000000000000000000000000000000400000000000000000000000000100000000000000000000000000000000000000000000000000000000000000000000000000000000020000000000000000000000000000000000000000000000000000000040000000000000000000000000000000000000000000000000000000000000000000000000000000000000000000000000000000000400000000000400800000000000000000000000000000000000000000000000000008302000001887fffffffffffffff840c1a93bd8203e800a00000000000000000000000000000000000000000000000000000000000000000880000000000000000f90137f901348001846ab0d01f94095e7baea6a6c7c4c2dfeb977efac326af552d8784451cf342b8ce7f000000000000000000000000000000000000000000000000000000000000c3507f00000000000000000000000000000000000000000000000000000000000000007f000000000000000000000000ffffffffffffffffffffffffffffffffffffffff411a7f000000000000000000000000ffffffffffffffffffffffffffffffffffffffff7f000000000000000000000000ffffffffffffffffffffffffffffffffffffffff7f000000000000000000000000000000000000000000000000000000000000000162805a8d3aa31ca05cbecc6d81c4baae402354827843dc412639d8a4d103c96c614121f45e24446ba011f4b1c637c608fdb5a7cca59670ca0a5946a4cbaa0c0ef5e7f0867600f28988c0",
                "blockHeader" : {
                    "bloom" : "0x00000000000000001000000000000000000000000000000000000000000000000000000000000000000000000000000000000000000000000000000000040000000000000000000000000000000000000000000000040000000000000000000000000010000000000000000000000000000000000000000000000000000000000000000000000000000000002000000000000000000000000000000000000000000000000000000004000000000000000000000000000000000000000000000000000000000000000000000000000000000000000000000000000000000040000000000040080000000000000000000000000000000000000000000000000000",
                    "coinbase" : "0x945304eb96065b2a98b57a48a06ae28d285a71b5",
                    "difficulty" : "0x20000",
                    "extraData" : "0x00",
                    "gasLimit" : "0x7fffffffffffffff",
                    "gasUsed" : "0xc1a93bd",
                    "hash" : "0x87f1236e7e6aa8b76caf7ceca1f1a106ea0d94d59fed82caadcee18e3c42e312",
                    "mixHash" : "0x0000000000000000000000000000000000000000000000000000000000000000",
                    "nonce" : "0x0000000000000000",
                    "number" : "0x1",
                    "parentHash" : "0x5419750c15ce7cb1e65918c1a575538dfa3c242ddec1fdc6c7da4c9f0f97c7bd",
                    "receiptTrie" : "0xee9212702e79af07a0ecd1565398476e332ab6d8c2bc8cbe9c9527e99a842432",
                    "stateRoot" : "0x7a72574c6646f65668842e43fd3f1e2f749aec148527ba6d42194df49bbd71f0",
                    "timestamp" : "0x3e8",
                    "transactionsTrie" : "0x19673cc486947d873ef2ff0c6fcf0957afafce3770b78428c9bc540fb499acea",
                    "uncleHash" : "0x1dcc4de8dec75d7aab85b567b6ccd41ad312451b948a7413f0a142fd40d49347"
                },
                "transactions" : [
                    {
                        "data" : "0x7f000000000000000000000000000000000000000000000000000000000000c3507f00000000000000000000000000000000000000000000000000000000000000007f000000000000000000000000ffffffffffffffffffffffffffffffffffffffff411a7f000000000000000000000000ffffffffffffffffffffffffffffffffffffffff7f000000000000000000000000ffffffffffffffffffffffffffffffffffffffff7f000000000000000000000000000000000000000000000000000000000000000162805a8d3aa3",
                        "gasLimit" : "0x6ab0d01f",
                        "gasPrice" : "0x01",
                        "nonce" : "0x00",
                        "to" : "0x095e7baea6a6c7c4c2dfeb977efac326af552d87",
                        "value" : "0x451cf342",
                        "v" : "0x1c",
                        "r" : "0x5cbecc6d81c4baae402354827843dc412639d8a4d103c96c614121f45e24446b",
                        "s" : "0x11f4b1c637c608fdb5a7cca59670ca0a5946a4cbaa0c0ef5e7f0867600f28988"
                    }
                ]
            }
        ]
    }
}