{
    "randomStatetest41_d0g0v0_Istanbul" : {
        "_info" : {
            "comment" : "",
            "filling-rpc-server" : "Geth-1.9.6-unstable-63b18027-20190920",
            "filling-tool-version" : "retesteth-0.0.1+commit.0ae18aef.Linux.g++",
            "lllcversion" : "Version: 0.5.12-develop.2019.9.13+commit.2d601a4f.Linux.g++",
            "source" : "src/GeneralStateTestsFiller/stRandom/randomStatetest41Filler.json",
            "sourceHash" : "d0bca5752b4364e7567922776306d741f93978c3c49973a08776a4748f74864a"
        },
        "genesisBlockHeader" : {
            "bloom" : "0x00000000000000000000000000000000000000000000000000000000000000000000000000000000000000000000000000000000000000000000000000000000000000000000000000000000000000000000000000000000000000000000000000000000000000000000000000000000000000000000000000000000000000000000000000000000000000000000000000000000000000000000000000000000000000000000000000000000000000000000000000000000000000000000000000000000000000000000000000000000000000000000000000000000000000000000000000000000000000000000000000000000000000000000000000000000",
            "coinbase" : "0x945304eb96065b2a98b57a48a06ae28d285a71b5",
            "difficulty" : "0x20000",
            "extraData" : "0x00",
            "gasLimit" : "0x7fffffffffffffff",
            "gasUsed" : "0x0",
            "hash" : "0x28d5b517719828e3d227df34215a24f9224868789a441a1feb1b482c6941ad03",
            "mixHash" : "0x0000000000000000000000000000000000000000000000000000000000000000",
            "nonce" : "0x0000000000000000",
            "number" : "0x0",
            "parentHash" : "0x0000000000000000000000000000000000000000000000000000000000000000",
            "receiptTrie" : "0x56e81f171bcc55a6ff8345e692c0f86e5b48e01b996cadc001622fb5e363b421",
            "stateRoot" : "0x82b32253dedd0ce0573eebf3aea228dc74f0bf90d71cd65c621048ab177156a9",
            "timestamp" : "0x0",
            "transactionsTrie" : "0x56e81f171bcc55a6ff8345e692c0f86e5b48e01b996cadc001622fb5e363b421",
            "uncleHash" : "0x1dcc4de8dec75d7aab85b567b6ccd41ad312451b948a7413f0a142fd40d49347"
        },
        "pre" : {
            "0x095e7baea6a6c7c4c2dfeb977efac326af552d87" : {
                "balance" : "0x00",
                "code" : "0x7f000000000000000000000000945304eb96065b2a98b57a48a06ae28d285a71b57f000000000000000000000000945304eb96065b2a98b57a48a06ae28d285a71b57f000000000000000000000000ffffffffffffffffffffffffffffffffffffffff7f000000000000000000000000000000000000000000000000000000000000c350517f0000000000000000000000010000000000000000000000000000000000000000417f000000000000000000000000945304eb96065b2a98b57a48a06ae28d285a71b56a84a10719a1786a6510349b028255",
                "nonce" : "0x00",
                "storage" : {
                }
            },
            "0x945304eb96065b2a98b57a48a06ae28d285a71b5" : {
                "balance" : "0x2e",
                "code" : "0x6000355415600957005b60203560003555",
                "nonce" : "0x00",
                "storage" : {
                }
            },
            "0xa94f5374fce5edbc8e2a8697c15331677e6ebf0b" : {
                "balance" : "0x0de0b6b3a7640000",
                "code" : "0x",
                "nonce" : "0x00",
                "storage" : {
                }
            }
        },
        "postState" : {
            "0xa94f5374fce5edbc8e2a8697c15331677e6ebf0b" : {
                "code" : "0x",
                "nonce" : "0x01",
                "balance" : "0x0de0b6b3a2b54a71",
                "storage" : {
                }
            },
            "0x095e7baea6a6c7c4c2dfeb977efac326af552d87" : {
                "code" : "0x7f000000000000000000000000945304eb96065b2a98b57a48a06ae28d285a71b57f000000000000000000000000945304eb96065b2a98b57a48a06ae28d285a71b57f000000000000000000000000ffffffffffffffffffffffffffffffffffffffff7f000000000000000000000000000000000000000000000000000000000000c350517f0000000000000000000000010000000000000000000000000000000000000000417f000000000000000000000000945304eb96065b2a98b57a48a06ae28d285a71b56a84a10719a1786a6510349b028255",
                "nonce" : "0x00",
                "balance" : "0x04ade804",
                "storage" : {
                    "0x010000000000000000000000000000000000000000" : "0x4cd81adcb05087c4859b28e08fedc25944c5e206071ceafb0ef91f522b9c97"
                }
            },
            "0x945304eb96065b2a98b57a48a06ae28d285a71b5" : {
                "code" : "0x6000355415600957005b60203560003555",
                "nonce" : "0x00",
                "balance" : "0x1bc16d674ec8cdb9",
                "storage" : {
                }
            }
        },
        "network" : "Istanbul",
        "sealEngine" : "NoProof",
        "lastblockhash" : "0xd06d1da0da6bdcf3c4fec42ea7c7e0957c5e15dc638d937e276884d4e150d9b9",
        "genesisRLP" : "0xf901fdf901f8a00000000000000000000000000000000000000000000000000000000000000000a01dcc4de8dec75d7aab85b567b6ccd41ad312451b948a7413f0a142fd40d4934794945304eb96065b2a98b57a48a06ae28d285a71b5a082b32253dedd0ce0573eebf3aea228dc74f0bf90d71cd65c621048ab177156a9a056e81f171bcc55a6ff8345e692c0f86e5b48e01b996cadc001622fb5e363b421a056e81f171bcc55a6ff8345e692c0f86e5b48e01b996cadc001622fb5e363b421b90100000000000000000000000000000000000000000000000000000000000000000000000000000000000000000000000000000000000000000000000000000000000000000000000000000000000000000000000000000000000000000000000000000000000000000000000000000000000000000000000000000000000000000000000000000000000000000000000000000000000000000000000000000000000000000000000000000000000000000000000000000000000000000000000000000000000000000000000000000000000000000000000000000000000000000000000000000000000000000000000000000000000000000000000000000000008302000080887fffffffffffffff808000a00000000000000000000000000000000000000000000000000000000000000000880000000000000000c0c0",
        "blocks" : [
            {
                "rlp" : "0xf90342f901fca028d5b517719828e3d227df34215a24f9224868789a441a1feb1b482c6941ad03a01dcc4de8dec75d7aab85b567b6ccd41ad312451b948a7413f0a142fd40d4934794945304eb96065b2a98b57a48a06ae28d285a71b5a0edbb60534afbce6a208355a83f446ae2b21406c277fb26d80fe87b59796769e5a021bc8cb7e4c1c9c93eb35537c0ea04ccb4dba5ced01e6407ab78ce1c6db962fca0d53c39538360df448ca1d6ad28665ca98971fe6ef18e5b82b672629803221f3bb90100000000000000000000000000000000000000000000000000000000000000000000000000000000000000000000000000000000000000000000000000000000000000000000000000000000000000000000000000000000000000000000000000000000000000000000000000000000000000000000000000000000000000000000000000000000000000000000000000000000000000000000000000000000000000000000000000000000000000000000000000000000000000000000000000000000000000000000000000000000000000000000000000000000000000000000000000000000000000000000000000000000000000000000000000000000008302000001887fffffffffffffff82cd8b8203e800a00000000000000000000000000000000000000000000000000000000000000000880000000000000000f9013ff9013c8001843cd14fc194095e7baea6a6c7c4c2dfeb977efac326af552d878404ade804b8d67f000000000000000000000000945304eb96065b2a98b57a48a06ae28d285a71b57f000000000000000000000000945304eb96065b2a98b57a48a06ae28d285a71b57f000000000000000000000000ffffffffffffffffffffffffffffffffffffffff7f000000000000000000000000000000000000000000000000000000000000c350517f0000000000000000000000010000000000000000000000000000000000000000417f000000000000000000000000945304eb96065b2a98b57a48a06ae28d285a71b56a84a10719a1786a6510349b02821ca0a0c3e0be70227fca38374e34e0f530fa2028fdf4c05e4f3cc478670178ad46d4a0344c1f7fcc0c5333ef2a1faf078de6e26afda5d415f2b066a1763251577d9b67c0",
                "blockHeader" : {
                    "bloom" : "0x00000000000000000000000000000000000000000000000000000000000000000000000000000000000000000000000000000000000000000000000000000000000000000000000000000000000000000000000000000000000000000000000000000000000000000000000000000000000000000000000000000000000000000000000000000000000000000000000000000000000000000000000000000000000000000000000000000000000000000000000000000000000000000000000000000000000000000000000000000000000000000000000000000000000000000000000000000000000000000000000000000000000000000000000000000000",
                    "coinbase" : "0x945304eb96065b2a98b57a48a06ae28d285a71b5",
                    "difficulty" : "0x20000",
                    "extraData" : "0x00",
                    "gasLimit" : "0x7fffffffffffffff",
                    "gasUsed" : "0xcd8b",
                    "hash" : "0xd06d1da0da6bdcf3c4fec42ea7c7e0957c5e15dc638d937e276884d4e150d9b9",
                    "mixHash" : "0x0000000000000000000000000000000000000000000000000000000000000000",
                    "nonce" : "0x0000000000000000",
                    "number" : "0x1",
                    "parentHash" : "0x28d5b517719828e3d227df34215a24f9224868789a441a1feb1b482c6941ad03",
                    "receiptTrie" : "0xd53c39538360df448ca1d6ad28665ca98971fe6ef18e5b82b672629803221f3b",
                    "stateRoot" : "0xedbb60534afbce6a208355a83f446ae2b21406c277fb26d80fe87b59796769e5",
                    "timestamp" : "0x3e8",
                    "transactionsTrie" : "0x21bc8cb7e4c1c9c93eb35537c0ea04ccb4dba5ced01e6407ab78ce1c6db962fc",
                    "uncleHash" : "0x1dcc4de8dec75d7aab85b567b6ccd41ad312451b948a7413f0a142fd40d49347"
                },
                "transactions" : [
                    {
                        "data" : "0x7f000000000000000000000000945304eb96065b2a98b57a48a06ae28d285a71b57f000000000000000000000000945304eb96065b2a98b57a48a06ae28d285a71b57f000000000000000000000000ffffffffffffffffffffffffffffffffffffffff7f000000000000000000000000000000000000000000000000000000000000c350517f0000000000000000000000010000000000000000000000000000000000000000417f000000000000000000000000945304eb96065b2a98b57a48a06ae28d285a71b56a84a10719a1786a6510349b0282",
                        "gasLimit" : "0x3cd14fc1",
                        "gasPrice" : "0x01",
                        "nonce" : "0x00",
                        "to" : "0x095e7baea6a6c7c4c2dfeb977efac326af552d87",
                        "value" : "0x04ade804",
                        "v" : "0x1c",
                        "r" : "0xa0c3e0be70227fca38374e34e0f530fa2028fdf4c05e4f3cc478670178ad46d4",
                        "s" : "0x344c1f7fcc0c5333ef2a1faf078de6e26afda5d415f2b066a1763251577d9b67"
                    }
                ]
            }
        ]
    }
}