{
    "randomStatetest178_d0g0v0_Istanbul" : {
        "_info" : {
            "comment" : "",
            "filling-rpc-server" : "Geth-1.9.6-unstable-63b18027-20190920",
            "filling-tool-version" : "retesteth-0.0.1+commit.0ae18aef.Linux.g++",
            "lllcversion" : "Version: 0.5.12-develop.2019.9.13+commit.2d601a4f.Linux.g++",
            "source" : "src/GeneralStateTestsFiller/stRandom/randomStatetest178Filler.json",
            "sourceHash" : "dfcbc526912a78b7148a00c7005bd58e7ea5eb78dc02a02b9ecfac34a7c7c085"
        },
        "genesisBlockHeader" : {
            "bloom" : "0x00000000000000000000000000000000000000000000000000000000000000000000000000000000000000000000000000000000000000000000000000000000000000000000000000000000000000000000000000000000000000000000000000000000000000000000000000000000000000000000000000000000000000000000000000000000000000000000000000000000000000000000000000000000000000000000000000000000000000000000000000000000000000000000000000000000000000000000000000000000000000000000000000000000000000000000000000000000000000000000000000000000000000000000000000000000",
            "coinbase" : "0x945304eb96065b2a98b57a48a06ae28d285a71b5",
            "difficulty" : "0x20000",
            "extraData" : "0x00",
            "gasLimit" : "0x7fffffffffffffff",
            "gasUsed" : "0x0",
            "hash" : "0x25271311a6d06704bfd7b4bef0dc40db2f0d2bf5ad75545802180fb0e1eca4ec",
            "mixHash" : "0x0000000000000000000000000000000000000000000000000000000000000000",
            "nonce" : "0x0000000000000000",
            "number" : "0x0",
            "parentHash" : "0x0000000000000000000000000000000000000000000000000000000000000000",
            "receiptTrie" : "0x56e81f171bcc55a6ff8345e692c0f86e5b48e01b996cadc001622fb5e363b421",
            "stateRoot" : "0x3437c99457f8203ced51b50c76af15b0fa4c1faba0b8123cc27b1f316907b19e",
            "timestamp" : "0x0",
            "transactionsTrie" : "0x56e81f171bcc55a6ff8345e692c0f86e5b48e01b996cadc001622fb5e363b421",
            "uncleHash" : "0x1dcc4de8dec75d7aab85b567b6ccd41ad312451b948a7413f0a142fd40d49347"
        },
        "pre" : {
            "0x095e7baea6a6c7c4c2dfeb977efac326af552d87" : {
                "balance" : "0x00",
                "code" : "0x7d342beabe599e4bc177fd97d36df48d50650ba6129a9a83d4cf809ec21452357c620167f530c3265be9887f6e5b8186decdc00a6a801e5f56dd8d9d36a4806dbccc299e4bbf46ad577e25b5b1fc76b6999cb23a6a03c4035e36b8494135ee170647395da00b6e0a64c43f3358b8bdcf593c89fb70b865ef153b5195c77959256beb4f932095eb8ac80bc2c050f6f550a362aac77f5c4b197151df039d64b77dca22eb8fd4b8cf50fb85a36f1d909d1919a47fe97de5526726b4a47b866b7b13471056439457cd7cbc5060d978056ff5dd24a1f49e50b9f5924f473b2dc5306d67054ca575d0603e616291a3601460106009601f6338a57ddc73095e7baea6a6c7c4c2dfeb977efac326af552d87630e3319c8f133",
                "nonce" : "0x00",
                "storage" : {
                }
            },
            "0x945304eb96065b2a98b57a48a06ae28d285a71b5" : {
                "balance" : "0x2e",
                "code" : "0x6000355415600957005b60203560003555",
                "nonce" : "0x00",
                "storage" : {
                }
            },
            "0xa94f5374fce5edbc8e2a8697c15331677e6ebf0b" : {
                "balance" : "0x0de0b6b3a7640000",
                "code" : "0x",
                "nonce" : "0x00",
                "storage" : {
                }
            }
        },
        "postState" : {
            "0xa94f5374fce5edbc8e2a8697c15331677e6ebf0b" : {
                "code" : "0x",
                "nonce" : "0x01",
                "balance" : "0x0de0b6b337e7b5e1",
                "storage" : {
                }
            },
            "0x095e7baea6a6c7c4c2dfeb977efac326af552d87" : {
                "code" : "0x7d342beabe599e4bc177fd97d36df48d50650ba6129a9a83d4cf809ec21452357c620167f530c3265be9887f6e5b8186decdc00a6a801e5f56dd8d9d36a4806dbccc299e4bbf46ad577e25b5b1fc76b6999cb23a6a03c4035e36b8494135ee170647395da00b6e0a64c43f3358b8bdcf593c89fb70b865ef153b5195c77959256beb4f932095eb8ac80bc2c050f6f550a362aac77f5c4b197151df039d64b77dca22eb8fd4b8cf50fb85a36f1d909d1919a47fe97de5526726b4a47b866b7b13471056439457cd7cbc5060d978056ff5dd24a1f49e50b9f5924f473b2dc5306d67054ca575d0603e616291a3601460106009601f6338a57ddc73095e7baea6a6c7c4c2dfeb977efac326af552d87630e3319c8f133",
                "nonce" : "0x00",
                "balance" : "0x6f33bb2d",
                "storage" : {
                }
            },
            "0x945304eb96065b2a98b57a48a06ae28d285a71b5" : {
                "code" : "0x6000355415600957005b60203560003555",
                "nonce" : "0x00",
                "balance" : "0x1bc16d674f108f20",
                "storage" : {
                }
            }
        },
        "network" : "Istanbul",
        "sealEngine" : "NoProof",
        "lastblockhash" : "0xd8de13c732bd3ad5bf6839df48776877a421e5cfff4f2ba47740f113710c77f9",
        "genesisRLP" : "0xf901fdf901f8a00000000000000000000000000000000000000000000000000000000000000000a01dcc4de8dec75d7aab85b567b6ccd41ad312451b948a7413f0a142fd40d4934794945304eb96065b2a98b57a48a06ae28d285a71b5a03437c99457f8203ced51b50c76af15b0fa4c1faba0b8123cc27b1f316907b19ea056e81f171bcc55a6ff8345e692c0f86e5b48e01b996cadc001622fb5e363b421a056e81f171bcc55a6ff8345e692c0f86e5b48e01b996cadc001622fb5e363b421b90100000000000000000000000000000000000000000000000000000000000000000000000000000000000000000000000000000000000000000000000000000000000000000000000000000000000000000000000000000000000000000000000000000000000000000000000000000000000000000000000000000000000000000000000000000000000000000000000000000000000000000000000000000000000000000000000000000000000000000000000000000000000000000000000000000000000000000000000000000000000000000000000000000000000000000000000000000000000000000000000000000000000000000000000000000000008302000080887fffffffffffffff808000a00000000000000000000000000000000000000000000000000000000000000000880000000000000000c0c0",
        "blocks" : [
            {
                "rlp" : "0xf905c3f901fda025271311a6d06704bfd7b4bef0dc40db2f0d2bf5ad75545802180fb0e1eca4eca01dcc4de8dec75d7aab85b567b6ccd41ad312451b948a7413f0a142fd40d4934794945304eb96065b2a98b57a48a06ae28d285a71b5a0b5a4070318093eae3320c818238ce5776661f99f309ce0068925e47023e7e7faa04c00769c735e6e62b05b7dc098860ba2bcea0ec190e97f2665827e326bd13e07a03a4bf68f15674bdc88afe2a90b38b916dabf60eefd70a8b79ed4928b2296b6dcb90100000000000000000010000000000000000000000400000000000000000000000000000000200000000000200000000000000000000000000000000000000000000000000000000000000000000000000200000000000000000000000000000000000000000000000000000000000000000400008000000000000000000000000000000000000000000000000000000000000000000000000000000000000000002000000000000000040000000000000000000000000000000000000000000000000000000000000000000000000000000000000000080000000000000000000000000000400001000000000000000000000000000000000000000000000000008302000001887fffffffffffffff83488ef28203e800a00000000000000000000000000000000000000000000000000000000000000000880000000000000000f903bff903bc80018438c2a77b94095e7baea6a6c7c4c2dfeb977efac326af552d87846f33bb2db9035566fd78520a4acd897a6e29cf1b15f576b05a2bc0c18bb93a759d3f5e1ac5d34ba1e261c70b7afd59945da98cc373eac6aa543bae2e6726e3ff03ad2e788dc33f3b736ef736637d8ac680281bb29884e641473063e58e7318f5f4cbade311c02eed1c323c19bba7df4729406464b42ed0cb6d0189be83857fb09713ae69e7d2d472e6d85d23920625c84c39489fc80d272868f40c64cc6cb93ea5741d1918dfc8f61086b1b0637390a1934b637c37ec94877d3ea763b20b9e04fa589f30da18f1565bcf15ad38bc735b9d45b5d963cadd77e9e3db27853e7462a6417a4ac9af38f967a198c6f50deb53634bcbbe9c6a83a7357847acc4f6360fa46e43595a8936969798890170a6874b4e67391c228e9d0a754f68635d505c3f9a8c2555728626e286db52177c2228fb04d4b702bea78df3747d6fa1079394222b8d2a0dfc34ce6d9e5664062fa8977526ced3516147e12a7b9e36f6628dd9efe320bef809146e8fad97d5aedf559bcc15442b1fd347758332cb1d4bb96471a01de009dc175e3eae40d189755a7c1f46c55d3353af6fd0ee638735594b4bb2e6aa99fdbc96508431f421dd770b6379f9b5cbee55423a23c5538390612dc07c752c39f1c87a02777b0fa261dd883d49b2ae5c02c6e81bd0a53ba5d53e12530485664f77811ffaca4c688d18d6122f3a564151676f40f70e45da4fe562355ba17d36458de5f760c8148a11b1fece135e184d2dbf9ecf019d634d8498ae6c6862431f356e1940bc7bb1a252ece1b1605e467f328c79bb45440e29a9444f1948f3737dc02ec2c10862323af3bae0db487768f3aa49fb0967d7eb138302bcb9cedb6b327f4d35a39cf561f1ee73c294825a5de76bd6bf707c5a660e3a417b6ac0586e80ecb6300ea61a618b628d8fcc6c80a37fbfda4e162006259f39441a81fd310c9a323be96b826199149ebdb88ea3e87df96d06c71959b65c4a3e73b50da0a67590625ad154729d9a0a585ba3fc028fc342115f2308566e69cd557f7a7a73474bae3846016f5281b41609a85ee1b4244652d5c1360c9d30fe27dd2d62b415d06a278aafd0816e734b76a3500869747b893809a7c2a185836da26ef253e0a0de429e617a82f8f17f055b1b67fe7366d9a5a491fb47f997937d38e7e8d4cbe8fa227c8b70f8a70e7b667883e393d677c86a9c8ec7144c61cf62e24038931ca08ffb48208ffd77382b9ba341d1521b651c5b1fd0cb8797a65f3fdcf53eed1e11a063e23be0a1d6ed9272cc2decf3fb8d75b1d6ec866e463bc3d46c155ff214fe67c0",
                "blockHeader" : {
                    "bloom" : "0x00000000000000001000000000000000000000040000000000000000000000000000000020000000000020000000000000000000000000000000000000000000000000000000000000000000000000020000000000000000000000000000000000000000000000000000000000000000040000800000000000000000000000000000000000000000000000000000000000000000000000000000000000000000200000000000000004000000000000000000000000000000000000000000000000000000000000000000000000000000000000000008000000000000000000000000000040000100000000000000000000000000000000000000000000000000",
                    "coinbase" : "0x945304eb96065b2a98b57a48a06ae28d285a71b5",
                    "difficulty" : "0x20000",
                    "extraData" : "0x00",
                    "gasLimit" : "0x7fffffffffffffff",
                    "gasUsed" : "0x488ef2",
                    "hash" : "0xd8de13c732bd3ad5bf6839df48776877a421e5cfff4f2ba47740f113710c77f9",
                    "mixHash" : "0x0000000000000000000000000000000000000000000000000000000000000000",
                    "nonce" : "0x0000000000000000",
                    "number" : "0x1",
                    "parentHash" : "0x25271311a6d06704bfd7b4bef0dc40db2f0d2bf5ad75545802180fb0e1eca4ec",
                    "receiptTrie" : "0x3a4bf68f15674bdc88afe2a90b38b916dabf60eefd70a8b79ed4928b2296b6dc",
                    "stateRoot" : "0xb5a4070318093eae3320c818238ce5776661f99f309ce0068925e47023e7e7fa",
                    "timestamp" : "0x3e8",
                    "transactionsTrie" : "0x4c00769c735e6e62b05b7dc098860ba2bcea0ec190e97f2665827e326bd13e07",
                    "uncleHash" : "0x1dcc4de8dec75d7aab85b567b6ccd41ad312451b948a7413f0a142fd40d49347"
                },
                "transactions" : [
                    {
                        "data" : "0x66fd78520a4acd897a6e29cf1b15f576b05a2bc0c18bb93a759d3f5e1ac5d34ba1e261c70b7afd59945da98cc373eac6aa543bae2e6726e3ff03ad2e788dc33f3b736ef736637d8ac680281bb29884e641473063e58e7318f5f4cbade311c02eed1c323c19bba7df4729406464b42ed0cb6d0189be83857fb09713ae69e7d2d472e6d85d23920625c84c39489fc80d272868f40c64cc6cb93ea5741d1918dfc8f61086b1b0637390a1934b637c37ec94877d3ea763b20b9e04fa589f30da18f1565bcf15ad38bc735b9d45b5d963cadd77e9e3db27853e7462a6417a4ac9af38f967a198c6f50deb53634bcbbe9c6a83a7357847acc4f6360fa46e43595a8936969798890170a6874b4e67391c228e9d0a754f68635d505c3f9a8c2555728626e286db52177c2228fb04d4b702bea78df3747d6fa1079394222b8d2a0dfc34ce6d9e5664062fa8977526ced3516147e12a7b9e36f6628dd9efe320bef809146e8fad97d5aedf559bcc15442b1fd347758332cb1d4bb96471a01de009dc175e3eae40d189755a7c1f46c55d3353af6fd0ee638735594b4bb2e6aa99fdbc96508431f421dd770b6379f9b5cbee55423a23c5538390612dc07c752c39f1c87a02777b0fa261dd883d49b2ae5c02c6e81bd0a53ba5d53e12530485664f77811ffaca4c688d18d6122f3a564151676f40f70e45da4fe562355ba17d36458de5f760c8148a11b1fece135e184d2dbf9ecf019d634d8498ae6c6862431f356e1940bc7bb1a252ece1b1605e467f328c79bb45440e29a9444f1948f3737dc02ec2c10862323af3bae0db487768f3aa49fb0967d7eb138302bcb9cedb6b327f4d35a39cf561f1ee73c294825a5de76bd6bf707c5a660e3a417b6ac0586e80ecb6300ea61a618b628d8fcc6c80a37fbfda4e162006259f39441a81fd310c9a323be96b826199149ebdb88ea3e87df96d06c71959b65c4a3e73b50da0a67590625ad154729d9a0a585ba3fc028fc342115f2308566e69cd557f7a7a73474bae3846016f5281b41609a85ee1b4244652d5c1360c9d30fe27dd2d62b415d06a278aafd0816e734b76a3500869747b893809a7c2a185836da26ef253e0a0de429e617a82f8f17f055b1b67fe7366d9a5a491fb47f997937d38e7e8d4cbe8fa227c8b70f8a70e7b667883e393d677c86a9c8ec7144c61cf62e2403893",
                        "gasLimit" : "0x38c2a77b",
                        "gasPrice" : "0x01",
                        "nonce" : "0x00",
                        "to" : "0x095e7baea6a6c7c4c2dfeb977efac326af552d87",
                        "value" : "0x6f33bb2d",
                        "v" : "0x1c",
                        "r" : "0x8ffb48208ffd77382b9ba341d1521b651c5b1fd0cb8797a65f3fdcf53eed1e11",
                        "s" : "0x63e23be0a1d6ed9272cc2decf3fb8d75b1d6ec866e463bc3d46c155ff214fe67"
                    }
                ]
            }
        ]
    }
}