{
    "randomStatetest280_d0g0v0_Istanbul" : {
        "_info" : {
            "comment" : "",
            "filling-rpc-server" : "Geth-1.9.6-unstable-63b18027-20190920",
            "filling-tool-version" : "retesteth-0.0.1+commit.0ae18aef.Linux.g++",
            "lllcversion" : "Version: 0.5.12-develop.2019.9.13+commit.2d601a4f.Linux.g++",
            "source" : "src/GeneralStateTestsFiller/stRandom/randomStatetest280Filler.json",
            "sourceHash" : "07385107a1dd3d12d91c1450f2b7f09a1be46ab892f88d00affd2c05d7f74fac"
        },
        "genesisBlockHeader" : {
            "bloom" : "0x00000000000000000000000000000000000000000000000000000000000000000000000000000000000000000000000000000000000000000000000000000000000000000000000000000000000000000000000000000000000000000000000000000000000000000000000000000000000000000000000000000000000000000000000000000000000000000000000000000000000000000000000000000000000000000000000000000000000000000000000000000000000000000000000000000000000000000000000000000000000000000000000000000000000000000000000000000000000000000000000000000000000000000000000000000000",
            "coinbase" : "0x945304eb96065b2a98b57a48a06ae28d285a71b5",
            "difficulty" : "0x20000",
            "extraData" : "0x00",
            "gasLimit" : "0x7fffffffffffffff",
            "gasUsed" : "0x0",
            "hash" : "0x6fa28cb07f309f7ee6cb6ea5447e3ee89e363ba82f5e3d3d8ed3da4557112a57",
            "mixHash" : "0x0000000000000000000000000000000000000000000000000000000000000000",
            "nonce" : "0x0000000000000000",
            "number" : "0x0",
            "parentHash" : "0x0000000000000000000000000000000000000000000000000000000000000000",
            "receiptTrie" : "0x56e81f171bcc55a6ff8345e692c0f86e5b48e01b996cadc001622fb5e363b421",
            "stateRoot" : "0x46f13aed704fc880b6e8c2d45d538152f29aa617a7a639c2b0686501e389ae7f",
            "timestamp" : "0x0",
            "transactionsTrie" : "0x56e81f171bcc55a6ff8345e692c0f86e5b48e01b996cadc001622fb5e363b421",
            "uncleHash" : "0x1dcc4de8dec75d7aab85b567b6ccd41ad312451b948a7413f0a142fd40d49347"
        },
        "pre" : {
            "0x095e7baea6a6c7c4c2dfeb977efac326af552d87" : {
                "balance" : "0x00",
                "code" : "0x7f000000000000000000000000000000000000000000000000000000000000000143507f000000000000000000000000000000000000000000000000000000000000c350417f00000000000000000000000000000000000000000000000000000000000000006f423b3c407e7c6f16718668738d193cf260005155",
                "nonce" : "0x00",
                "storage" : {
                }
            },
            "0x945304eb96065b2a98b57a48a06ae28d285a71b5" : {
                "balance" : "0x2e",
                "code" : "0x6000355415600957005b60203560003555",
                "nonce" : "0x00",
                "storage" : {
                }
            },
            "0xa94f5374fce5edbc8e2a8697c15331677e6ebf0b" : {
                "balance" : "0x0de0b6b3a7640000",
                "code" : "0x",
                "nonce" : "0x00",
                "storage" : {
                }
            }
        },
        "postState" : {
            "0xa94f5374fce5edbc8e2a8697c15331677e6ebf0b" : {
                "code" : "0x",
                "nonce" : "0x01",
                "balance" : "0x0de0b6b37726804f",
                "storage" : {
                }
            },
            "0x095e7baea6a6c7c4c2dfeb977efac326af552d87" : {
                "code" : "0x7f000000000000000000000000000000000000000000000000000000000000000143507f000000000000000000000000000000000000000000000000000000000000c350417f00000000000000000000000000000000000000000000000000000000000000006f423b3c407e7c6f16718668738d193cf260005155",
                "nonce" : "0x00",
                "balance" : "0x303cdc5a",
                "storage" : {
                    "0x00" : "0x423b3c407e7c6f16718668738d193cf2"
                }
            },
            "0x945304eb96065b2a98b57a48a06ae28d285a71b5" : {
                "code" : "0x6000355415600957005b60203560003555",
                "nonce" : "0x00",
                "balance" : "0x1bc16d674ec8a385",
                "storage" : {
                }
            }
        },
        "network" : "Istanbul",
        "sealEngine" : "NoProof",
        "lastblockhash" : "0x7736969778bff1ee3dab247ac7117fa49380f59c633e288b678a0a379a220c62",
        "genesisRLP" : "0xf901fdf901f8a00000000000000000000000000000000000000000000000000000000000000000a01dcc4de8dec75d7aab85b567b6ccd41ad312451b948a7413f0a142fd40d4934794945304eb96065b2a98b57a48a06ae28d285a71b5a046f13aed704fc880b6e8c2d45d538152f29aa617a7a639c2b0686501e389ae7fa056e81f171bcc55a6ff8345e692c0f86e5b48e01b996cadc001622fb5e363b421a056e81f171bcc55a6ff8345e692c0f86e5b48e01b996cadc001622fb5e363b421b90100000000000000000000000000000000000000000000000000000000000000000000000000000000000000000000000000000000000000000000000000000000000000000000000000000000000000000000000000000000000000000000000000000000000000000000000000000000000000000000000000000000000000000000000000000000000000000000000000000000000000000000000000000000000000000000000000000000000000000000000000000000000000000000000000000000000000000000000000000000000000000000000000000000000000000000000000000000000000000000000000000000000000000000000000000000008302000080887fffffffffffffff808000a00000000000000000000000000000000000000000000000000000000000000000880000000000000000c0c0",
        "blocks" : [
            {
                "rlp" : "0xf902e1f901fca06fa28cb07f309f7ee6cb6ea5447e3ee89e363ba82f5e3d3d8ed3da4557112a57a01dcc4de8dec75d7aab85b567b6ccd41ad312451b948a7413f0a142fd40d4934794945304eb96065b2a98b57a48a06ae28d285a71b5a04ffffdf31d7300959c912578da59716f922f54ed1f3b909d354069b00b17784fa0bb2e689014ed107c8f3db8006bc8c08e48a07f9dac1148dde4b1378d59c137e8a0ffd35ec94565dff3ff737c3b862ce1c42fa3aa81ba7a9f26119868c21ce95ef3b90100000000000000000000000000000000000000000000000000000000000000000000000000000000000000000000000000000000000000000000000000000000000000000000000000000000000000000000000000000000000000000000000000000000000000000000000000000000000000000000000000000000000000000000000000000000000000000000000000000000000000000000000000000000000000000000000000000000000000000000000000000000000000000000000000000000000000000000000000000000000000000000000000000000000000000000000000000000000000000000000000000000000000000000000000000000008302000001887fffffffffffffff82a3578203e800a00000000000000000000000000000000000000000000000000000000000000000880000000000000000f8dff8dd8001842db9c36994095e7baea6a6c7c4c2dfeb977efac326af552d8784303cdc5ab8777f000000000000000000000000000000000000000000000000000000000000000143507f000000000000000000000000000000000000000000000000000000000000c350417f00000000000000000000000000000000000000000000000000000000000000006f423b3c407e7c6f16718668738d193cf21ba0bd0ac54b7059edc01e69dbf0e61745dda274932c653f5dbe04b9c5862ae4866ca0401207f4a96b8f30a6784b32ed7470b85351524cf83effd8639799adb349779ec0",
                "blockHeader" : {
                    "bloom" : "0x00000000000000000000000000000000000000000000000000000000000000000000000000000000000000000000000000000000000000000000000000000000000000000000000000000000000000000000000000000000000000000000000000000000000000000000000000000000000000000000000000000000000000000000000000000000000000000000000000000000000000000000000000000000000000000000000000000000000000000000000000000000000000000000000000000000000000000000000000000000000000000000000000000000000000000000000000000000000000000000000000000000000000000000000000000000",
                    "coinbase" : "0x945304eb96065b2a98b57a48a06ae28d285a71b5",
                    "difficulty" : "0x20000",
                    "extraData" : "0x00",
                    "gasLimit" : "0x7fffffffffffffff",
                    "gasUsed" : "0xa357",
                    "hash" : "0x7736969778bff1ee3dab247ac7117fa49380f59c633e288b678a0a379a220c62",
                    "mixHash" : "0x0000000000000000000000000000000000000000000000000000000000000000",
                    "nonce" : "0x0000000000000000",
                    "number" : "0x1",
                    "parentHash" : "0x6fa28cb07f309f7ee6cb6ea5447e3ee89e363ba82f5e3d3d8ed3da4557112a57",
                    "receiptTrie" : "0xffd35ec94565dff3ff737c3b862ce1c42fa3aa81ba7a9f26119868c21ce95ef3",
                    "stateRoot" : "0x4ffffdf31d7300959c912578da59716f922f54ed1f3b909d354069b00b17784f",
                    "timestamp" : "0x3e8",
                    "transactionsTrie" : "0xbb2e689014ed107c8f3db8006bc8c08e48a07f9dac1148dde4b1378d59c137e8",
                    "uncleHash" : "0x1dcc4de8dec75d7aab85b567b6ccd41ad312451b948a7413f0a142fd40d49347"
                },
                "transactions" : [
                    {
                        "data" : "0x7f000000000000000000000000000000000000000000000000000000000000000143507f000000000000000000000000000000000000000000000000000000000000c350417f00000000000000000000000000000000000000000000000000000000000000006f423b3c407e7c6f16718668738d193cf2",
                        "gasLimit" : "0x2db9c369",
                        "gasPrice" : "0x01",
                        "nonce" : "0x00",
                        "to" : "0x095e7baea6a6c7c4c2dfeb977efac326af552d87",
                        "value" : "0x303cdc5a",
                        "v" : "0x1b",
                        "r" : "0xbd0ac54b7059edc01e69dbf0e61745dda274932c653f5dbe04b9c5862ae4866c",
                        "s" : "0x401207f4a96b8f30a6784b32ed7470b85351524cf83effd8639799adb349779e"
                    }
                ]
            }
        ]
    }
}