{
    "randomStatetest24_d0g0v0_Istanbul" : {
        "_info" : {
            "comment" : "",
            "filling-rpc-server" : "Geth-1.9.6-unstable-63b18027-20190920",
            "filling-tool-version" : "retesteth-0.0.1+commit.0ae18aef.Linux.g++",
            "lllcversion" : "Version: 0.5.12-develop.2019.9.13+commit.2d601a4f.Linux.g++",
            "source" : "src/GeneralStateTestsFiller/stRandom/randomStatetest24Filler.json",
            "sourceHash" : "fe5cc9787d2fa3efe883341759513287ed799bea8c19033c9984b2ef24ae22b3"
        },
        "genesisBlockHeader" : {
            "bloom" : "0x00000000000000000000000000000000000000000000000000000000000000000000000000000000000000000000000000000000000000000000000000000000000000000000000000000000000000000000000000000000000000000000000000000000000000000000000000000000000000000000000000000000000000000000000000000000000000000000000000000000000000000000000000000000000000000000000000000000000000000000000000000000000000000000000000000000000000000000000000000000000000000000000000000000000000000000000000000000000000000000000000000000000000000000000000000000",
            "coinbase" : "0x945304eb96065b2a98b57a48a06ae28d285a71b5",
            "difficulty" : "0x20000",
            "extraData" : "0x00",
            "gasLimit" : "0x7fffffffffffffff",
            "gasUsed" : "0x0",
            "hash" : "0xc9faf819206a0b58c02101cc51220c3e83af8f812bbd4c62ac9f750d2bad4bd1",
            "mixHash" : "0x0000000000000000000000000000000000000000000000000000000000000000",
            "nonce" : "0x0000000000000000",
            "number" : "0x0",
            "parentHash" : "0x0000000000000000000000000000000000000000000000000000000000000000",
            "receiptTrie" : "0x56e81f171bcc55a6ff8345e692c0f86e5b48e01b996cadc001622fb5e363b421",
            "stateRoot" : "0xd890e85a9c5864b97a7428086ab7d66db03797533ba5b6a2250b7df2f0d2b858",
            "timestamp" : "0x0",
            "transactionsTrie" : "0x56e81f171bcc55a6ff8345e692c0f86e5b48e01b996cadc001622fb5e363b421",
            "uncleHash" : "0x1dcc4de8dec75d7aab85b567b6ccd41ad312451b948a7413f0a142fd40d49347"
        },
        "pre" : {
            "0x095e7baea6a6c7c4c2dfeb977efac326af552d87" : {
                "balance" : "0x00",
                "code" : "0x41417f000000000000000000000000ffffffffffffffffffffffffffffffffffffffff459d7f0000000000000000000000000000000000000000000000000000000000000001817f000000000000000000000000000000000000000000000000000000000000c35095418211337b0530435560005155",
                "nonce" : "0x00",
                "storage" : {
                }
            },
            "0x945304eb96065b2a98b57a48a06ae28d285a71b5" : {
                "balance" : "0x2e",
                "code" : "0x6000355415600957005b60203560003555",
                "nonce" : "0x00",
                "storage" : {
                }
            },
            "0xa94f5374fce5edbc8e2a8697c15331677e6ebf0b" : {
                "balance" : "0x0de0b6b3a7640000",
                "code" : "0x",
                "nonce" : "0x00",
                "storage" : {
                }
            }
        },
        "postState" : {
            "0xa94f5374fce5edbc8e2a8697c15331677e6ebf0b" : {
                "code" : "0x",
                "nonce" : "0x01",
                "balance" : "0x0de0b6b37c7f0c6e",
                "storage" : {
                }
            },
            "0x095e7baea6a6c7c4c2dfeb977efac326af552d87" : {
                "code" : "0x41417f000000000000000000000000ffffffffffffffffffffffffffffffffffffffff459d7f0000000000000000000000000000000000000000000000000000000000000001817f000000000000000000000000000000000000000000000000000000000000c35095418211337b0530435560005155",
                "nonce" : "0x00",
                "balance" : "0x00",
                "storage" : {
                }
            },
            "0x945304eb96065b2a98b57a48a06ae28d285a71b5" : {
                "code" : "0x6000355415600957005b60203560003555",
                "nonce" : "0x00",
                "balance" : "0x1bc16d6779acf3c0",
                "storage" : {
                }
            }
        },
        "network" : "Istanbul",
        "sealEngine" : "NoProof",
        "lastblockhash" : "0x4fe1da49aa52857b950acf44763d1cc53c8064844b26c689ca96cc886c6bc4d6",
        "genesisRLP" : "0xf901fdf901f8a00000000000000000000000000000000000000000000000000000000000000000a01dcc4de8dec75d7aab85b567b6ccd41ad312451b948a7413f0a142fd40d4934794945304eb96065b2a98b57a48a06ae28d285a71b5a0d890e85a9c5864b97a7428086ab7d66db03797533ba5b6a2250b7df2f0d2b858a056e81f171bcc55a6ff8345e692c0f86e5b48e01b996cadc001622fb5e363b421a056e81f171bcc55a6ff8345e692c0f86e5b48e01b996cadc001622fb5e363b421b90100000000000000000000000000000000000000000000000000000000000000000000000000000000000000000000000000000000000000000000000000000000000000000000000000000000000000000000000000000000000000000000000000000000000000000000000000000000000000000000000000000000000000000000000000000000000000000000000000000000000000000000000000000000000000000000000000000000000000000000000000000000000000000000000000000000000000000000000000000000000000000000000000000000000000000000000000000000000000000000000000000000000000000000000000000000008302000080887fffffffffffffff808000a00000000000000000000000000000000000000000000000000000000000000000880000000000000000c0c0",
        "blocks" : [
            {
                "rlp" : "0xf902ddf901fea0c9faf819206a0b58c02101cc51220c3e83af8f812bbd4c62ac9f750d2bad4bd1a01dcc4de8dec75d7aab85b567b6ccd41ad312451b948a7413f0a142fd40d4934794945304eb96065b2a98b57a48a06ae28d285a71b5a0ee01d677ef2ec5762976bfb018e9e464b2047784259b4d24dd6fc334045491eaa0f96e1acdb7ac54b6928e603e5f29b05ba888a8b26dad30ba3faa564405f10acea00d6d242a18571fe77ed5c27ceb8e6529269b8a5754f64cf79fd19bcf6902103eb90100000000000000000000000000000000000000000000000000000000000000000000000000000000000000000000000000000000000000000000000000000000000000000000000000000000000000000000000000000000000000000000000000000000000000000000000000000000000000000000000000000000000000000000000000000000000000000000000000000000000000000000000000000000000000000000000000000000000000000000000000000000000000000000000000000000000000000000000000000000000000000000000000000000000000000000000000000000000000000000000000000000000000000000000000000000008302000001887fffffffffffffff842ae4f3928203e800a00000000000000000000000000000000000000000000000000000000000000000880000000000000000f8d9f8d78001842ae4f39294095e7baea6a6c7c4c2dfeb977efac326af552d8784664165b5b87141417f000000000000000000000000ffffffffffffffffffffffffffffffffffffffff459d7f0000000000000000000000000000000000000000000000000000000000000001817f000000000000000000000000000000000000000000000000000000000000c35095418211337b0530431ca05d5390bd36096d0594699344444e1ab6b714654d9a579ce4a9a937838b61af6ba0588b19c69b37375b57faf9df0a3ae98a6c1e723be93015e05d043a73c63b49d8c0",
                "blockHeader" : {
                    "bloom" : "0x00000000000000000000000000000000000000000000000000000000000000000000000000000000000000000000000000000000000000000000000000000000000000000000000000000000000000000000000000000000000000000000000000000000000000000000000000000000000000000000000000000000000000000000000000000000000000000000000000000000000000000000000000000000000000000000000000000000000000000000000000000000000000000000000000000000000000000000000000000000000000000000000000000000000000000000000000000000000000000000000000000000000000000000000000000000",
                    "coinbase" : "0x945304eb96065b2a98b57a48a06ae28d285a71b5",
                    "difficulty" : "0x20000",
                    "extraData" : "0x00",
                    "gasLimit" : "0x7fffffffffffffff",
                    "gasUsed" : "0x2ae4f392",
                    "hash" : "0x4fe1da49aa52857b950acf44763d1cc53c8064844b26c689ca96cc886c6bc4d6",
                    "mixHash" : "0x0000000000000000000000000000000000000000000000000000000000000000",
                    "nonce" : "0x0000000000000000",
                    "number" : "0x1",
                    "parentHash" : "0xc9faf819206a0b58c02101cc51220c3e83af8f812bbd4c62ac9f750d2bad4bd1",
                    "receiptTrie" : "0x0d6d242a18571fe77ed5c27ceb8e6529269b8a5754f64cf79fd19bcf6902103e",
                    "stateRoot" : "0xee01d677ef2ec5762976bfb018e9e464b2047784259b4d24dd6fc334045491ea",
                    "timestamp" : "0x3e8",
                    "transactionsTrie" : "0xf96e1acdb7ac54b6928e603e5f29b05ba888a8b26dad30ba3faa564405f10ace",
                    "uncleHash" : "0x1dcc4de8dec75d7aab85b567b6ccd41ad312451b948a7413f0a142fd40d49347"
                },
                "transactions" : [
                    {
                        "data" : "0x41417f000000000000000000000000ffffffffffffffffffffffffffffffffffffffff459d7f0000000000000000000000000000000000000000000000000000000000000001817f000000000000000000000000000000000000000000000000000000000000c35095418211337b053043",
                        "gasLimit" : "0x2ae4f392",
                        "gasPrice" : "0x01",
                        "nonce" : "0x00",
                        "to" : "0x095e7baea6a6c7c4c2dfeb977efac326af552d87",
                        "value" : "0x664165b5",
                        "v" : "0x1c",
                        "r" : "0x5d5390bd36096d0594699344444e1ab6b714654d9a579ce4a9a937838b61af6b",
                        "s" : "0x588b19c69b37375b57faf9df0a3ae98a6c1e723be93015e05d043a73c63b49d8"
                    }
                ]
            }
        ]
    }
}