{
    "randomStatetest55_d0g0v0_Istanbul" : {
        "_info" : {
            "comment" : "",
            "filling-rpc-server" : "Geth-1.9.6-unstable-63b18027-20190920",
            "filling-tool-version" : "retesteth-0.0.1+commit.0ae18aef.Linux.g++",
            "lllcversion" : "Version: 0.5.12-develop.2019.9.13+commit.2d601a4f.Linux.g++",
            "source" : "src/GeneralStateTestsFiller/stRandom/randomStatetest55Filler.json",
            "sourceHash" : "3085986df3a863d989ebd04ec0b908429fbc0ba0e7697ee2264fbb489e3317a7"
        },
        "genesisBlockHeader" : {
            "bloom" : "0x00000000000000000000000000000000000000000000000000000000000000000000000000000000000000000000000000000000000000000000000000000000000000000000000000000000000000000000000000000000000000000000000000000000000000000000000000000000000000000000000000000000000000000000000000000000000000000000000000000000000000000000000000000000000000000000000000000000000000000000000000000000000000000000000000000000000000000000000000000000000000000000000000000000000000000000000000000000000000000000000000000000000000000000000000000000",
            "coinbase" : "0x945304eb96065b2a98b57a48a06ae28d285a71b5",
            "difficulty" : "0x20000",
            "extraData" : "0x00",
            "gasLimit" : "0x7fffffffffffffff",
            "gasUsed" : "0x0",
            "hash" : "0xeed200d0ab432c8c2ce1ccb72312db5eeff0d4387958baa3c59e332d327dbd7f",
            "mixHash" : "0x0000000000000000000000000000000000000000000000000000000000000000",
            "nonce" : "0x0000000000000000",
            "number" : "0x0",
            "parentHash" : "0x0000000000000000000000000000000000000000000000000000000000000000",
            "receiptTrie" : "0x56e81f171bcc55a6ff8345e692c0f86e5b48e01b996cadc001622fb5e363b421",
            "stateRoot" : "0x7cb7dbaf63975ff87f6eef62e6a140c7d173005158fc466bc070185b8d7c12b7",
            "timestamp" : "0x0",
            "transactionsTrie" : "0x56e81f171bcc55a6ff8345e692c0f86e5b48e01b996cadc001622fb5e363b421",
            "uncleHash" : "0x1dcc4de8dec75d7aab85b567b6ccd41ad312451b948a7413f0a142fd40d49347"
        },
        "pre" : {
            "0x095e7baea6a6c7c4c2dfeb977efac326af552d87" : {
                "balance" : "0x00",
                "code" : "0x7f00000000000000000000000000000000000000000000000000000000000000007f000000000000000000000000945304eb96065b2a98b57a48a06ae28d285a71b57f000000000000000000000000000000000000000000000000000000000000000084967f000000000000000000000000ffffffffffffffffffffffffffffffffffffffff137ffffffffffffffffffffffffffffffffffffffffffffffffffffffffffffffffe016f3a5b594088a2f238089b71",
                "nonce" : "0x00",
                "storage" : {
                }
            },
            "0x945304eb96065b2a98b57a48a06ae28d285a71b5" : {
                "balance" : "0x2e",
                "code" : "0x6000355415600957005b60203560003555",
                "nonce" : "0x00",
                "storage" : {
                }
            },
            "0xa94f5374fce5edbc8e2a8697c15331677e6ebf0b" : {
                "balance" : "0x0de0b6b3a7640000",
                "code" : "0x",
                "nonce" : "0x00",
                "storage" : {
                }
            }
        },
        "postState" : {
            "0xa94f5374fce5edbc8e2a8697c15331677e6ebf0b" : {
                "code" : "0x",
                "nonce" : "0x01",
                "balance" : "0x0de0b6b37b8d9182",
                "storage" : {
                }
            },
            "0x095e7baea6a6c7c4c2dfeb977efac326af552d87" : {
                "code" : "0x7f00000000000000000000000000000000000000000000000000000000000000007f000000000000000000000000945304eb96065b2a98b57a48a06ae28d285a71b57f000000000000000000000000000000000000000000000000000000000000000084967f000000000000000000000000ffffffffffffffffffffffffffffffffffffffff137ffffffffffffffffffffffffffffffffffffffffffffffffffffffffffffffffe016f3a5b594088a2f238089b71",
                "nonce" : "0x00",
                "balance" : "0x00",
                "storage" : {
                }
            },
            "0x945304eb96065b2a98b57a48a06ae28d285a71b5" : {
                "code" : "0x6000355415600957005b60203560003555",
                "nonce" : "0x00",
                "balance" : "0x1bc16d677a9e6eac",
                "storage" : {
                }
            }
        },
        "network" : "Istanbul",
        "sealEngine" : "NoProof",
        "lastblockhash" : "0xdd6f580a81c0ce720a771c9011e89b659d6acec144761032f603253e2836b5c1",
        "genesisRLP" : "0xf901fdf901f8a00000000000000000000000000000000000000000000000000000000000000000a01dcc4de8dec75d7aab85b567b6ccd41ad312451b948a7413f0a142fd40d4934794945304eb96065b2a98b57a48a06ae28d285a71b5a07cb7dbaf63975ff87f6eef62e6a140c7d173005158fc466bc070185b8d7c12b7a056e81f171bcc55a6ff8345e692c0f86e5b48e01b996cadc001622fb5e363b421a056e81f171bcc55a6ff8345e692c0f86e5b48e01b996cadc001622fb5e363b421b90100000000000000000000000000000000000000000000000000000000000000000000000000000000000000000000000000000000000000000000000000000000000000000000000000000000000000000000000000000000000000000000000000000000000000000000000000000000000000000000000000000000000000000000000000000000000000000000000000000000000000000000000000000000000000000000000000000000000000000000000000000000000000000000000000000000000000000000000000000000000000000000000000000000000000000000000000000000000000000000000000000000000000000000000000000000008302000080887fffffffffffffff808000a00000000000000000000000000000000000000000000000000000000000000000880000000000000000c0c0",
        "blocks" : [
            {
                "rlp" : "0xf90323f901fea0eed200d0ab432c8c2ce1ccb72312db5eeff0d4387958baa3c59e332d327dbd7fa01dcc4de8dec75d7aab85b567b6ccd41ad312451b948a7413f0a142fd40d4934794945304eb96065b2a98b57a48a06ae28d285a71b5a0382f0a5755076464176836dd309c45123f6e90cd78ef7b030fe619caaff183d3a0837ae25b151e727913edbce95b9477426bb69ee357df86ef337199be4cacf821a09b91df679270c03da4deaea16b249b145ac02d3ddc870daa5c89d3943345000bb90100000000000000000000000000000000000000000000000000000000000000000000000000000000000000000000000000000000000000000000000000000000000000000000000000000000000000000000000000000000000000000000000000000000000000000000000000000000000000000000000000000000000000000000000000000000000000000000000000000000000000000000000000000000000000000000000000000000000000000000000000000000000000000000000000000000000000000000000000000000000000000000000000000000000000000000000000000000000000000000000000000000000000000000000000000000008302000001887fffffffffffffff842bd66e7e8203e800a00000000000000000000000000000000000000000000000000000000000000000880000000000000000f9011ef9011b8001842bd66e7e94095e7baea6a6c7c4c2dfeb977efac326af552d878440bfde69b8b57f00000000000000000000000000000000000000000000000000000000000000007f000000000000000000000000945304eb96065b2a98b57a48a06ae28d285a71b57f000000000000000000000000000000000000000000000000000000000000000084967f000000000000000000000000ffffffffffffffffffffffffffffffffffffffff137ffffffffffffffffffffffffffffffffffffffffffffffffffffffffffffffffe016f3a5b594088a2f238089b711ba0a119f83ce4e515c1a05eaeb94929919eb29b95d2857f5a1f0ce0659e1afe7a41a045a9e59d7d1fa35229fb9da288835751cff77276c0eb8bc99a417d2582d0d407c0",
                "blockHeader" : {
                    "bloom" : "0x00000000000000000000000000000000000000000000000000000000000000000000000000000000000000000000000000000000000000000000000000000000000000000000000000000000000000000000000000000000000000000000000000000000000000000000000000000000000000000000000000000000000000000000000000000000000000000000000000000000000000000000000000000000000000000000000000000000000000000000000000000000000000000000000000000000000000000000000000000000000000000000000000000000000000000000000000000000000000000000000000000000000000000000000000000000",
                    "coinbase" : "0x945304eb96065b2a98b57a48a06ae28d285a71b5",
                    "difficulty" : "0x20000",
                    "extraData" : "0x00",
                    "gasLimit" : "0x7fffffffffffffff",
                    "gasUsed" : "0x2bd66e7e",
                    "hash" : "0xdd6f580a81c0ce720a771c9011e89b659d6acec144761032f603253e2836b5c1",
                    "mixHash" : "0x0000000000000000000000000000000000000000000000000000000000000000",
                    "nonce" : "0x0000000000000000",
                    "number" : "0x1",
                    "parentHash" : "0xeed200d0ab432c8c2ce1ccb72312db5eeff0d4387958baa3c59e332d327dbd7f",
                    "receiptTrie" : "0x9b91df679270c03da4deaea16b249b145ac02d3ddc870daa5c89d3943345000b",
                    "stateRoot" : "0x382f0a5755076464176836dd309c45123f6e90cd78ef7b030fe619caaff183d3",
                    "timestamp" : "0x3e8",
                    "transactionsTrie" : "0x837ae25b151e727913edbce95b9477426bb69ee357df86ef337199be4cacf821",
                    "uncleHash" : "0x1dcc4de8dec75d7aab85b567b6ccd41ad312451b948a7413f0a142fd40d49347"
                },
                "transactions" : [
                    {
                        "data" : "0x7f00000000000000000000000000000000000000000000000000000000000000007f000000000000000000000000945304eb96065b2a98b57a48a06ae28d285a71b57f000000000000000000000000000000000000000000000000000000000000000084967f000000000000000000000000ffffffffffffffffffffffffffffffffffffffff137ffffffffffffffffffffffffffffffffffffffffffffffffffffffffffffffffe016f3a5b594088a2f238089b71",
                        "gasLimit" : "0x2bd66e7e",
                        "gasPrice" : "0x01",
                        "nonce" : "0x00",
                        "to" : "0x095e7baea6a6c7c4c2dfeb977efac326af552d87",
                        "value" : "0x40bfde69",
                        "v" : "0x1b",
                        "r" : "0xa119f83ce4e515c1a05eaeb94929919eb29b95d2857f5a1f0ce0659e1afe7a41",
                        "s" : "0x45a9e59d7d1fa35229fb9da288835751cff77276c0eb8bc99a417d2582d0d407"
                    }
                ]
            }
        ]
    }
}