{
    "NonZeroValue_TransactionCALLwithData_d0g0v0_Istanbul" : {
        "_info" : {
            "comment" : "",
            "filling-rpc-server" : "Geth-1.9.6-unstable-63b18027-20190920",
            "filling-tool-version" : "retesteth-0.0.1+commit.0ae18aef.Linux.g++",
            "lllcversion" : "Version: 0.5.12-develop.2019.9.13+commit.2d601a4f.Linux.g++",
            "source" : "src/GeneralStateTestsFiller/stNonZeroCallsTest/NonZeroValue_TransactionCALLwithDataFiller.json",
            "sourceHash" : "c659b9a5d293863ea1cc3172a799426718c37b65bc4fa0f508738b7661c15886"
        },
        "genesisBlockHeader" : {
            "bloom" : "0x00000000000000000000000000000000000000000000000000000000000000000000000000000000000000000000000000000000000000000000000000000000000000000000000000000000000000000000000000000000000000000000000000000000000000000000000000000000000000000000000000000000000000000000000000000000000000000000000000000000000000000000000000000000000000000000000000000000000000000000000000000000000000000000000000000000000000000000000000000000000000000000000000000000000000000000000000000000000000000000000000000000000000000000000000000000",
            "coinbase" : "0x2adc25665018aa1fe0e6bc666dac8fc2697ff9ba",
            "difficulty" : "0x20000",
            "extraData" : "0x00",
            "gasLimit" : "0x989680",
            "gasUsed" : "0x0",
            "hash" : "0x5124dbd41e24af11f9f46fd48a3fe05e7afa472add30e20b8ef571128a252067",
            "mixHash" : "0x0000000000000000000000000000000000000000000000000000000000000000",
            "nonce" : "0x0000000000000000",
            "number" : "0x0",
            "parentHash" : "0x0000000000000000000000000000000000000000000000000000000000000000",
            "receiptTrie" : "0x56e81f171bcc55a6ff8345e692c0f86e5b48e01b996cadc001622fb5e363b421",
            "stateRoot" : "0x17ca3d673553cbfcf5de4a99ea08088763bbf64aa67ae17a485f585bcc01d3f2",
            "timestamp" : "0x0",
            "transactionsTrie" : "0x56e81f171bcc55a6ff8345e692c0f86e5b48e01b996cadc001622fb5e363b421",
            "uncleHash" : "0x1dcc4de8dec75d7aab85b567b6ccd41ad312451b948a7413f0a142fd40d49347"
        },
        "pre" : {
            "0xa94f5374fce5edbc8e2a8697c15331677e6ebf0b" : {
                "balance" : "0xe8d4a51000",
                "code" : "0x",
                "nonce" : "0x00",
                "storage" : {
                }
            }
        },
        "postState" : {
            "0xa94f5374fce5edbc8e2a8697c15331677e6ebf0b" : {
                "code" : "0x",
                "nonce" : "0x01",
                "balance" : "0xe8d4a4bcb7",
                "storage" : {
                }
            },
            "0x2adc25665018aa1fe0e6bc666dac8fc2697ff9ba" : {
                "code" : "0x",
                "nonce" : "0x00",
                "balance" : "0x1bc16d674ec85348",
                "storage" : {
                }
            },
            "0xb94f5374fce5edbc8e2a8697c15331677e6ebf0b" : {
                "code" : "0x",
                "nonce" : "0x00",
                "balance" : "0x01",
                "storage" : {
                }
            }
        },
        "network" : "Istanbul",
        "sealEngine" : "NoProof",
        "lastblockhash" : "0xd8cd55bf8f8e92159b32b7b93ad7163c36ec11ecb9c1b1372f744194f518fc0e",
        "genesisRLP" : "0xf901f8f901f3a00000000000000000000000000000000000000000000000000000000000000000a01dcc4de8dec75d7aab85b567b6ccd41ad312451b948a7413f0a142fd40d49347942adc25665018aa1fe0e6bc666dac8fc2697ff9baa017ca3d673553cbfcf5de4a99ea08088763bbf64aa67ae17a485f585bcc01d3f2a056e81f171bcc55a6ff8345e692c0f86e5b48e01b996cadc001622fb5e363b421a056e81f171bcc55a6ff8345e692c0f86e5b48e01b996cadc001622fb5e363b421b9010000000000000000000000000000000000000000000000000000000000000000000000000000000000000000000000000000000000000000000000000000000000000000000000000000000000000000000000000000000000000000000000000000000000000000000000000000000000000000000000000000000000000000000000000000000000000000000000000000000000000000000000000000000000000000000000000000000000000000000000000000000000000000000000000000000000000000000000000000000000000000000000000000000000000000000000000000000000000000000000000000000000000000000000000000000000830200008083989680808000a00000000000000000000000000000000000000000000000000000000000000000880000000000000000c0c0",
        "blocks" : [
            {
                "rlp" : "0xf90273f901f7a05124dbd41e24af11f9f46fd48a3fe05e7afa472add30e20b8ef571128a252067a01dcc4de8dec75d7aab85b567b6ccd41ad312451b948a7413f0a142fd40d49347942adc25665018aa1fe0e6bc666dac8fc2697ff9baa0793a7c9764bc378040fecb71d3062ca96a8b88610fbe1999a7b634cb2931ec1da0f06b7865f9815b87966bf85f209ef033842530cacd70091c5b3eda09057a8bf9a059be149ca00dc15721e4bd7e5f6b45c8fadf75aa509fbda90d42006e9480f908b901000000000000000000000000000000000000000000000000000000000000000000000000000000000000000000000000000000000000000000000000000000000000000000000000000000000000000000000000000000000000000000000000000000000000000000000000000000000000000000000000000000000000000000000000000000000000000000000000000000000000000000000000000000000000000000000000000000000000000000000000000000000000000000000000000000000000000000000000000000000000000000000000000000000000000000000000000000000000000000000000000000000000000000000000000000000083020000018398bca48253488203e800a00000000000000000000000000000000000000000000000000000000000000000880000000000000000f876f8748001830927c094b94f5374fce5edbc8e2a8697c15331677e6ebf0b019411223344556677889910111213141516171819201ba0e7b071c0284506bf00b0d80a0513e6d32765d601a607a416200c9f460e8f8203a025ca64ca394548e13bc38b1a1723a151c10eccb5dac4117bf26faee663962d12c0",
                "blockHeader" : {
                    "bloom" : "0x00000000000000000000000000000000000000000000000000000000000000000000000000000000000000000000000000000000000000000000000000000000000000000000000000000000000000000000000000000000000000000000000000000000000000000000000000000000000000000000000000000000000000000000000000000000000000000000000000000000000000000000000000000000000000000000000000000000000000000000000000000000000000000000000000000000000000000000000000000000000000000000000000000000000000000000000000000000000000000000000000000000000000000000000000000000",
                    "coinbase" : "0x2adc25665018aa1fe0e6bc666dac8fc2697ff9ba",
                    "difficulty" : "0x20000",
                    "extraData" : "0x00",
                    "gasLimit" : "0x98bca4",
                    "gasUsed" : "0x5348",
                    "hash" : "0xd8cd55bf8f8e92159b32b7b93ad7163c36ec11ecb9c1b1372f744194f518fc0e",
                    "mixHash" : "0x0000000000000000000000000000000000000000000000000000000000000000",
                    "nonce" : "0x0000000000000000",
                    "number" : "0x1",
                    "parentHash" : "0x5124dbd41e24af11f9f46fd48a3fe05e7afa472add30e20b8ef571128a252067",
                    "receiptTrie" : "0x59be149ca00dc15721e4bd7e5f6b45c8fadf75aa509fbda90d42006e9480f908",
                    "stateRoot" : "0x793a7c9764bc378040fecb71d3062ca96a8b88610fbe1999a7b634cb2931ec1d",
                    "timestamp" : "0x3e8",
                    "transactionsTrie" : "0xf06b7865f9815b87966bf85f209ef033842530cacd70091c5b3eda09057a8bf9",
                    "uncleHash" : "0x1dcc4de8dec75d7aab85b567b6ccd41ad312451b948a7413f0a142fd40d49347"
                },
                "transactions" : [
                    {
                        "data" : "0x1122334455667788991011121314151617181920",
                        "gasLimit" : "0x0927c0",
                        "gasPrice" : "0x01",
                        "nonce" : "0x00",
                        "to" : "0xb94f5374fce5edbc8e2a8697c15331677e6ebf0b",
                        "value" : "0x01",
                        "v" : "0x1b",
                        "r" : "0xe7b071c0284506bf00b0d80a0513e6d32765d601a607a416200c9f460e8f8203",
                        "s" : "0x25ca64ca394548e13bc38b1a1723a151c10eccb5dac4117bf26faee663962d12"
                    }
                ]
            }
        ]
    }
}