{
    "callcallcallcode_001_d0g0v0_Istanbul" : {
        "_info" : {
            "comment" : "",
            "filling-rpc-server" : "Geth-1.9.6-unstable-63b18027-20190920",
            "filling-tool-version" : "retesteth-0.0.1+commit.0ae18aef.Linux.g++",
            "lllcversion" : "Version: 0.5.12-develop.2019.9.13+commit.2d601a4f.Linux.g++",
            "source" : "src/GeneralStateTestsFiller/stCallDelegateCodesHomestead/callcallcallcode_001Filler.json",
            "sourceHash" : "58c6167560ea63d678a0c10575f058a9e8f581ff76ea248768b3549c04a9f083"
        },
        "genesisBlockHeader" : {
            "bloom" : "0x00000000000000000000000000000000000000000000000000000000000000000000000000000000000000000000000000000000000000000000000000000000000000000000000000000000000000000000000000000000000000000000000000000000000000000000000000000000000000000000000000000000000000000000000000000000000000000000000000000000000000000000000000000000000000000000000000000000000000000000000000000000000000000000000000000000000000000000000000000000000000000000000000000000000000000000000000000000000000000000000000000000000000000000000000000000",
            "coinbase" : "0x2adc25665018aa1fe0e6bc666dac8fc2697ff9ba",
            "difficulty" : "0x20000",
            "extraData" : "0x00",
            "gasLimit" : "0x1c9c380",
            "gasUsed" : "0x0",
            "hash" : "0x0a2953699674d248f5290167ab073f87fd5818a3ef9a100d07c0941b83cf0b78",
            "mixHash" : "0x0000000000000000000000000000000000000000000000000000000000000000",
            "nonce" : "0x0000000000000000",
            "number" : "0x0",
            "parentHash" : "0x0000000000000000000000000000000000000000000000000000000000000000",
            "receiptTrie" : "0x56e81f171bcc55a6ff8345e692c0f86e5b48e01b996cadc001622fb5e363b421",
            "stateRoot" : "0x682abf5c2f63ba9801a94456d9343be9a879c5a149e14d6889334d16a577c3e0",
            "timestamp" : "0x0",
            "transactionsTrie" : "0x56e81f171bcc55a6ff8345e692c0f86e5b48e01b996cadc001622fb5e363b421",
            "uncleHash" : "0x1dcc4de8dec75d7aab85b567b6ccd41ad312451b948a7413f0a142fd40d49347"
        },
        "pre" : {
            "0x1000000000000000000000000000000000000000" : {
                "balance" : "0x0de0b6b3a7640000",
                "code" : "0x6040600060406000600173100000000000000000000000000000000000000162055730f160005500",
                "nonce" : "0x00",
                "storage" : {
                }
            },
            "0x1000000000000000000000000000000000000001" : {
                "balance" : "0x0de0b6b3a7640000",
                "code" : "0x60406000604060006002731000000000000000000000000000000000000002620493e0f160015500",
                "nonce" : "0x00",
                "storage" : {
                }
            },
            "0x1000000000000000000000000000000000000002" : {
                "balance" : "0x0de0b6b3a7640000",
                "code" : "0x60406000604060007310000000000000000000000000000000000000036203d090f460025500",
                "nonce" : "0x00",
                "storage" : {
                }
            },
            "0x1000000000000000000000000000000000000003" : {
                "balance" : "0x00",
                "code" : "0x600160035533600455346007553061014a553261014c55366101505538610152553a6101545500",
                "nonce" : "0x00",
                "storage" : {
                }
            },
            "0xa94f5374fce5edbc8e2a8697c15331677e6ebf0b" : {
                "balance" : "0x0de0b6b3a7640000",
                "code" : "0x",
                "nonce" : "0x00",
                "storage" : {
                }
            }
        },
        "postState" : {
            "0xa94f5374fce5edbc8e2a8697c15331677e6ebf0b" : {
                "code" : "0x",
                "nonce" : "0x01",
                "balance" : "0x0de0b6b3a760158c",
                "storage" : {
                }
            },
            "0x1000000000000000000000000000000000000001" : {
                "code" : "0x60406000604060006002731000000000000000000000000000000000000002620493e0f160015500",
                "nonce" : "0x00",
                "balance" : "0x0de0b6b3a763ffff",
                "storage" : {
                    "0x01" : "0x01"
                }
            },
            "0x2adc25665018aa1fe0e6bc666dac8fc2697ff9ba" : {
                "code" : "0x",
                "nonce" : "0x00",
                "balance" : "0x1bc16d674ecbea74",
                "storage" : {
                }
            },
            "0x1000000000000000000000000000000000000002" : {
                "code" : "0x60406000604060007310000000000000000000000000000000000000036203d090f460025500",
                "nonce" : "0x00",
                "balance" : "0x0de0b6b3a7640002",
                "storage" : {
                    "0x014a" : "0x1000000000000000000000000000000000000002",
                    "0x02" : "0x01",
                    "0x0150" : "0x40",
                    "0x04" : "0x1000000000000000000000000000000000000001",
                    "0x0154" : "0x01",
                    "0x07" : "0x02",
                    "0x0152" : "0x27",
                    "0x03" : "0x01",
                    "0x014c" : "0xa94f5374fce5edbc8e2a8697c15331677e6ebf0b"
                }
            },
            "0x1000000000000000000000000000000000000003" : {
                "code" : "0x600160035533600455346007553061014a553261014c55366101505538610152553a6101545500",
                "nonce" : "0x00",
                "balance" : "0x00",
                "storage" : {
                }
            },
            "0x1000000000000000000000000000000000000000" : {
                "code" : "0x6040600060406000600173100000000000000000000000000000000000000162055730f160005500",
                "nonce" : "0x00",
                "balance" : "0x0de0b6b3a763ffff",
                "storage" : {
                    "0x00" : "0x01"
                }
            }
        },
        "network" : "Istanbul",
        "sealEngine" : "NoProof",
        "lastblockhash" : "0x1eda015613b1825f2877452937fa456cd16aeb8f7cd42032d885faeac398ab64",
        "genesisRLP" : "0xf901f9f901f4a00000000000000000000000000000000000000000000000000000000000000000a01dcc4de8dec75d7aab85b567b6ccd41ad312451b948a7413f0a142fd40d49347942adc25665018aa1fe0e6bc666dac8fc2697ff9baa0682abf5c2f63ba9801a94456d9343be9a879c5a149e14d6889334d16a577c3e0a056e81f171bcc55a6ff8345e692c0f86e5b48e01b996cadc001622fb5e363b421a056e81f171bcc55a6ff8345e692c0f86e5b48e01b996cadc001622fb5e363b421b901000000000000000000000000000000000000000000000000000000000000000000000000000000000000000000000000000000000000000000000000000000000000000000000000000000000000000000000000000000000000000000000000000000000000000000000000000000000000000000000000000000000000000000000000000000000000000000000000000000000000000000000000000000000000000000000000000000000000000000000000000000000000000000000000000000000000000000000000000000000000000000000000000000000000000000000000000000000000000000000000000000000000000000000000000000000083020000808401c9c380808000a00000000000000000000000000000000000000000000000000000000000000000880000000000000000c0c0",
        "blocks" : [
            {
                "rlp" : "0xf90261f901f9a00a2953699674d248f5290167ab073f87fd5818a3ef9a100d07c0941b83cf0b78a01dcc4de8dec75d7aab85b567b6ccd41ad312451b948a7413f0a142fd40d49347942adc25665018aa1fe0e6bc666dac8fc2697ff9baa03a39917b00f8fb62572957834ef92710c0dd4d54e096163c8fd9e53a8deb717aa05d88595a2b9f129f2901f79a207ca2d95f38ac387707e6cb1de43679d06079d4a0b04f56009e6eb8fecf758faf1a93509e10610ee15597b6e50a6d97b51de3cda8b901000000000000000000000000000000000000000000000000000000000000000000000000000000000000000000000000000000000000000000000000000000000000000000000000000000000000000000000000000000000000000000000000000000000000000000000000000000000000000000000000000000000000000000000000000000000000000000000000000000000000000000000000000000000000000000000000000000000000000000000000000000000000000000000000000000000000000000000000000000000000000000000000000000000000000000000000000000000000000000000000000000000000000000000000000000000083020000018401ca35ef8303ea748203e800a00000000000000000000000000000000000000000000000000000000000000000880000000000000000f862f8608001832dc6c094100000000000000000000000000000000000000080801ba0bc3f717090c5b3d46550833ec05cc91a3c352bd18be2c0eed5ed3e54e8af58f9a03a7d01021289eca372726c91175e4f422da3147bd3961cd66ca95f1cf3619fb2c0",
                "blockHeader" : {
                    "bloom" : "0x00000000000000000000000000000000000000000000000000000000000000000000000000000000000000000000000000000000000000000000000000000000000000000000000000000000000000000000000000000000000000000000000000000000000000000000000000000000000000000000000000000000000000000000000000000000000000000000000000000000000000000000000000000000000000000000000000000000000000000000000000000000000000000000000000000000000000000000000000000000000000000000000000000000000000000000000000000000000000000000000000000000000000000000000000000000",
                    "coinbase" : "0x2adc25665018aa1fe0e6bc666dac8fc2697ff9ba",
                    "difficulty" : "0x20000",
                    "extraData" : "0x00",
                    "gasLimit" : "0x1ca35ef",
                    "gasUsed" : "0x3ea74",
                    "hash" : "0x1eda015613b1825f2877452937fa456cd16aeb8f7cd42032d885faeac398ab64",
                    "mixHash" : "0x0000000000000000000000000000000000000000000000000000000000000000",
                    "nonce" : "0x0000000000000000",
                    "number" : "0x1",
                    "parentHash" : "0x0a2953699674d248f5290167ab073f87fd5818a3ef9a100d07c0941b83cf0b78",
                    "receiptTrie" : "0xb04f56009e6eb8fecf758faf1a93509e10610ee15597b6e50a6d97b51de3cda8",
                    "stateRoot" : "0x3a39917b00f8fb62572957834ef92710c0dd4d54e096163c8fd9e53a8deb717a",
                    "timestamp" : "0x3e8",
                    "transactionsTrie" : "0x5d88595a2b9f129f2901f79a207ca2d95f38ac387707e6cb1de43679d06079d4",
                    "uncleHash" : "0x1dcc4de8dec75d7aab85b567b6ccd41ad312451b948a7413f0a142fd40d49347"
                },
                "transactions" : [
                    {
                        "data" : "0x",
                        "gasLimit" : "0x2dc6c0",
                        "gasPrice" : "0x01",
                        "nonce" : "0x00",
                        "to" : "0x1000000000000000000000000000000000000000",
                        "value" : "0x00",
                        "v" : "0x1b",
                        "r" : "0xbc3f717090c5b3d46550833ec05cc91a3c352bd18be2c0eed5ed3e54e8af58f9",
                        "s" : "0x3a7d01021289eca372726c91175e4f422da3147bd3961cd66ca95f1cf3619fb2"
                    }
                ]
            }
        ]
    }
}