{
    "oneUncleGeneration4_Istanbul" : {
        "_info" : {
            "comment" : "",
            "filling-rpc-server" : "Geth-1.9.11-unstable-a382d783-20200127",
            "filling-tool-version" : "retesteth-0.0.2+commit.e8723140.Linux.g++",
            "lllcversion" : "Version: 0.5.14-develop.2019.11.27+commit.8f259595.Linux.g++",
            "source" : "src/BlockchainTestsFiller/ValidBlocks/bcUncleTest/oneUncleGeneration4Filler.json",
            "sourceHash" : "b5ee51881ac418fe65f1ac90c3413e346c59027b87556a247da0c94c290d4735"
        },
        "sealEngine" : "NoProof",
        "network" : "Istanbul",
        "pre" : {
            "0xa94f5374fce5edbc8e2a8697c15331677e6ebf0b" : {
                "balance" : "0x09184e72a000",
                "code" : "0x",
                "nonce" : "0x00",
                "storage" : {
                }
            }
        },
        "genesisBlockHeader" : {
            "bloom" : "0x00000000000000000000000000000000000000000000000000000000000000000000000000000000000000000000000000000000000000000000000000000000000000000000000000000000000000000000000000000000000000000000000000000000000000000000000000000000000000000000000000000000000000000000000000000000000000000000000000000000000000000000000000000000000000000000000000000000000000000000000000000000000000000000000000000000000000000000000000000000000000000000000000000000000000000000000000000000000000000000000000000000000000000000000000000000",
            "coinbase" : "0x8888f1f195afa192cfee860698584c030f4c9db1",
            "difficulty" : "0x020000",
            "extraData" : "0x42",
            "gasLimit" : "0x2fefd8",
            "gasUsed" : "0x00",
            "hash" : "0x2b253498ad5e63a16978753398bad1fde371a3e513438297b52d65dc98e1db29",
            "mixHash" : "0x0000000000000000000000000000000000000000000000000000000000000000",
            "nonce" : "0x0000000000000000",
            "number" : "0x00",
            "parentHash" : "0x0000000000000000000000000000000000000000000000000000000000000000",
            "receiptTrie" : "0x56e81f171bcc55a6ff8345e692c0f86e5b48e01b996cadc001622fb5e363b421",
            "stateRoot" : "0x7dba07d6b448a186e9612e5f737d1c909dce473e53199901a302c00646d523c1",
            "timestamp" : "0x54c98c81",
            "transactionsTrie" : "0x56e81f171bcc55a6ff8345e692c0f86e5b48e01b996cadc001622fb5e363b421",
            "uncleHash" : "0x1dcc4de8dec75d7aab85b567b6ccd41ad312451b948a7413f0a142fd40d49347"
        },
        "genesisRLP" : "0xf901fcf901f7a00000000000000000000000000000000000000000000000000000000000000000a01dcc4de8dec75d7aab85b567b6ccd41ad312451b948a7413f0a142fd40d49347948888f1f195afa192cfee860698584c030f4c9db1a07dba07d6b448a186e9612e5f737d1c909dce473e53199901a302c00646d523c1a056e81f171bcc55a6ff8345e692c0f86e5b48e01b996cadc001622fb5e363b421a056e81f171bcc55a6ff8345e692c0f86e5b48e01b996cadc001622fb5e363b421b90100000000000000000000000000000000000000000000000000000000000000000000000000000000000000000000000000000000000000000000000000000000000000000000000000000000000000000000000000000000000000000000000000000000000000000000000000000000000000000000000000000000000000000000000000000000000000000000000000000000000000000000000000000000000000000000000000000000000000000000000000000000000000000000000000000000000000000000000000000000000000000000000000000000000000000000000000000000000000000000000000000000000000000000000000000000008302000080832fefd8808454c98c8142a00000000000000000000000000000000000000000000000000000000000000000880000000000000000c0c0",
        "blocks" : [
            {
                "chainname" : "default",
                "blocknumber" : "1",
                "uncleHeaders" : [
                ],
                "blockHeader" : {
                    "bloom" : "0x00000000000000000000000000000000000000000000000000000000000000000000000000000000000000000000000000000000000000000000000000000000000000000000000000000000000000000000000000000000000000000000000000000000000000000000000000000000000000000000000000000000000000000000000000000000000000000000000000000000000000000000000000000000000000000000000000000000000000000000000000000000000000000000000000000000000000000000000000000000000000000000000000000000000000000000000000000000000000000000000000000000000000000000000000000000",
                    "coinbase" : "0x8888f1f195afa192cfee860698584c030f4c9db1",
                    "difficulty" : "0x020000",
                    "extraData" : "0x42",
                    "gasLimit" : "0x2ffbd2",
                    "gasUsed" : "0x5208",
                    "hash" : "0xf88512d9e022357594866c44ecaa2fc9cb48f34d1987e401109400761aeb898d",
                    "mixHash" : "0x0000000000000000000000000000000000000000000000000000000000000000",
                    "nonce" : "0x0000000000000000",
                    "number" : "0x01",
                    "parentHash" : "0x2b253498ad5e63a16978753398bad1fde371a3e513438297b52d65dc98e1db29",
                    "receiptTrie" : "0x056b23fbba480696b65fe5a59b8f2148a1299103c4f57df839233af2cf4ca2d2",
                    "stateRoot" : "0x9f975da0cdc4d5f074009af73873d83f3e29d9e7f33fee3f11a38133166034e5",
                    "timestamp" : "0x54c99069",
                    "transactionsTrie" : "0x5c9151c2413d1cd25c51ffb4ac38948acc1359bf08c6b49f283660e9bcf0f516",
                    "uncleHash" : "0x1dcc4de8dec75d7aab85b567b6ccd41ad312451b948a7413f0a142fd40d49347"
                },
                "transactions" : [
                    {
                        "data" : "0x",
                        "gasLimit" : "0x04cb2f",
                        "gasPrice" : "0x01",
                        "nonce" : "0x00",
                        "r" : "0x77c7cd36820c71821c1aed59de46e70e701c4a8dd89c9ba508ab722210f60da8",
                        "s" : "0x3f29825d40c7c3f7bff3ca69267e0f3fb74b2d18b8c2c4e3c135b5d3b06e288d",
                        "to" : "0x095e7baea6a6c7c4c2dfeb977efac326af552d87",
                        "v" : "0x1b",
                        "value" : "0x0a"
                    }
                ],
                "rlp" : "0xf90261f901f9a02b253498ad5e63a16978753398bad1fde371a3e513438297b52d65dc98e1db29a01dcc4de8dec75d7aab85b567b6ccd41ad312451b948a7413f0a142fd40d49347948888f1f195afa192cfee860698584c030f4c9db1a09f975da0cdc4d5f074009af73873d83f3e29d9e7f33fee3f11a38133166034e5a05c9151c2413d1cd25c51ffb4ac38948acc1359bf08c6b49f283660e9bcf0f516a0056b23fbba480696b65fe5a59b8f2148a1299103c4f57df839233af2cf4ca2d2b90100000000000000000000000000000000000000000000000000000000000000000000000000000000000000000000000000000000000000000000000000000000000000000000000000000000000000000000000000000000000000000000000000000000000000000000000000000000000000000000000000000000000000000000000000000000000000000000000000000000000000000000000000000000000000000000000000000000000000000000000000000000000000000000000000000000000000000000000000000000000000000000000000000000000000000000000000000000000000000000000000000000000000000000000000000000008302000001832ffbd28252088454c9906942a00000000000000000000000000000000000000000000000000000000000000000880000000000000000f862f86080018304cb2f94095e7baea6a6c7c4c2dfeb977efac326af552d870a801ba077c7cd36820c71821c1aed59de46e70e701c4a8dd89c9ba508ab722210f60da8a03f29825d40c7c3f7bff3ca69267e0f3fb74b2d18b8c2c4e3c135b5d3b06e288dc0"
            },
            {
                "chainname" : "default",
                "blocknumber" : "2",
                "uncleHeaders" : [
                ],
                "blockHeader" : {
                    "bloom" : "0x00000000000000000000000000000000000000000000000000000000000000000000000000000000000000000000000000000000000000000000000000000000000000000000000000000000000000000000000000000000000000000000000000000000000000000000000000000000000000000000000000000000000000000000000000000000000000000000000000000000000000000000000000000000000000000000000000000000000000000000000000000000000000000000000000000000000000000000000000000000000000000000000000000000000000000000000000000000000000000000000000000000000000000000000000000000",
                    "coinbase" : "0x8888f1f195afa192cfee860698584c030f4c9db1",
                    "difficulty" : "0x020000",
                    "extraData" : "0x42",
                    "gasLimit" : "0x3007cf",
                    "gasUsed" : "0x5208",
                    "hash" : "0x94e46186faa5a62649c6190a1686b62e31308d766a215ff31dbc55b612322faa",
                    "mixHash" : "0x0000000000000000000000000000000000000000000000000000000000000000",
                    "nonce" : "0x0000000000000000",
                    "number" : "0x02",
                    "parentHash" : "0xf88512d9e022357594866c44ecaa2fc9cb48f34d1987e401109400761aeb898d",
                    "receiptTrie" : "0x056b23fbba480696b65fe5a59b8f2148a1299103c4f57df839233af2cf4ca2d2",
                    "stateRoot" : "0xdf68925b0ee17b44c826ce4537dc0924700f7b7aa1c7c1b1d489a779b1be2525",
                    "timestamp" : "0x54c99451",
                    "transactionsTrie" : "0xc673e076264c4669a5c2e479f1757b78e42511efe33b5fd2c0a23b929c7f87f5",
                    "uncleHash" : "0x1dcc4de8dec75d7aab85b567b6ccd41ad312451b948a7413f0a142fd40d49347"
                },
                "transactions" : [
                    {
                        "data" : "0x",
                        "gasLimit" : "0x04cb2f",
                        "gasPrice" : "0x01",
                        "nonce" : "0x01",
                        "r" : "0x33c86e64d708c97c6b135cadff79dbf45985aa0b53694789e90d15f756765f23",
                        "s" : "0x001d0f8caa2a16405148c9d85581be5814960010f3cba938b5501590cea1f7cf",
                        "to" : "0x095e7baea6a6c7c4c2dfeb977efac326af552d87",
                        "v" : "0x1b",
                        "value" : "0x0a"
                    }
                ],
                "rlp" : "0xf90260f901f9a0f88512d9e022357594866c44ecaa2fc9cb48f34d1987e401109400761aeb898da01dcc4de8dec75d7aab85b567b6ccd41ad312451b948a7413f0a142fd40d49347948888f1f195afa192cfee860698584c030f4c9db1a0df68925b0ee17b44c826ce4537dc0924700f7b7aa1c7c1b1d489a779b1be2525a0c673e076264c4669a5c2e479f1757b78e42511efe33b5fd2c0a23b929c7f87f5a0056b23fbba480696b65fe5a59b8f2148a1299103c4f57df839233af2cf4ca2d2b90100000000000000000000000000000000000000000000000000000000000000000000000000000000000000000000000000000000000000000000000000000000000000000000000000000000000000000000000000000000000000000000000000000000000000000000000000000000000000000000000000000000000000000000000000000000000000000000000000000000000000000000000000000000000000000000000000000000000000000000000000000000000000000000000000000000000000000000000000000000000000000000000000000000000000000000000000000000000000000000000000000000000000000000000000000000008302000002833007cf8252088454c9945142a00000000000000000000000000000000000000000000000000000000000000000880000000000000000f861f85f01018304cb2f94095e7baea6a6c7c4c2dfeb977efac326af552d870a801ba033c86e64d708c97c6b135cadff79dbf45985aa0b53694789e90d15f756765f239f1d0f8caa2a16405148c9d85581be5814960010f3cba938b5501590cea1f7cfc0"
            },
            {
                "chainname" : "default",
                "blocknumber" : "3",
                "uncleHeaders" : [
                ],
                "blockHeader" : {
                    "bloom" : "0x00000000000000000000000000000000000000000000000000000000000000000000000000000000000000000000000000000000000000000000000000000000000000000000000000000000000000000000000000000000000000000000000000000000000000000000000000000000000000000000000000000000000000000000000000000000000000000000000000000000000000000000000000000000000000000000000000000000000000000000000000000000000000000000000000000000000000000000000000000000000000000000000000000000000000000000000000000000000000000000000000000000000000000000000000000000",
                    "coinbase" : "0x8888f1f195afa192cfee860698584c030f4c9db1",
                    "difficulty" : "0x020000",
                    "extraData" : "0x42",
                    "gasLimit" : "0x3013cf",
                    "gasUsed" : "0x5208",
                    "hash" : "0xffb90a7a923491adb3badb12a76a23e59ddcf38d9e90d868e0d7b06ff3e63e27",
                    "mixHash" : "0x0000000000000000000000000000000000000000000000000000000000000000",
                    "nonce" : "0x0000000000000000",
                    "number" : "0x03",
                    "parentHash" : "0x94e46186faa5a62649c6190a1686b62e31308d766a215ff31dbc55b612322faa",
                    "receiptTrie" : "0x056b23fbba480696b65fe5a59b8f2148a1299103c4f57df839233af2cf4ca2d2",
                    "stateRoot" : "0xa886e704f7f73b0aa9dbfe288bcd7b6ab47c82b37cd29fabb7b5d21bbae3e72b",
                    "timestamp" : "0x54c99839",
                    "transactionsTrie" : "0x1722b8a91bfc4f5614ce36ee77c7cce6620ab4af36d3c54baa66d7dbeb7bce1a",
                    "uncleHash" : "0x1dcc4de8dec75d7aab85b567b6ccd41ad312451b948a7413f0a142fd40d49347"
                },
                "transactions" : [
                    {
                        "data" : "0x",
                        "gasLimit" : "0x04cb2f",
                        "gasPrice" : "0x01",
                        "nonce" : "0x02",
                        "r" : "0x15eb1cc916728b9799e55c489857727669afb2986433d5f54cde11faaed9f0ee",
                        "s" : "0x5d36f6d06c34aae8d0a2a5895c8ba4a17ad46a5fa59f361cb3e7e01a23030e38",
                        "to" : "0x095e7baea6a6c7c4c2dfeb977efac326af552d87",
                        "v" : "0x1c",
                        "value" : "0x0a"
                    }
                ],
                "rlp" : "0xf90261f901f9a094e46186faa5a62649c6190a1686b62e31308d766a215ff31dbc55b612322faaa01dcc4de8dec75d7aab85b567b6ccd41ad312451b948a7413f0a142fd40d49347948888f1f195afa192cfee860698584c030f4c9db1a0a886e704f7f73b0aa9dbfe288bcd7b6ab47c82b37cd29fabb7b5d21bbae3e72ba01722b8a91bfc4f5614ce36ee77c7cce6620ab4af36d3c54baa66d7dbeb7bce1aa0056b23fbba480696b65fe5a59b8f2148a1299103c4f57df839233af2cf4ca2d2b90100000000000000000000000000000000000000000000000000000000000000000000000000000000000000000000000000000000000000000000000000000000000000000000000000000000000000000000000000000000000000000000000000000000000000000000000000000000000000000000000000000000000000000000000000000000000000000000000000000000000000000000000000000000000000000000000000000000000000000000000000000000000000000000000000000000000000000000000000000000000000000000000000000000000000000000000000000000000000000000000000000000000000000000000000000000008302000003833013cf8252088454c9983942a00000000000000000000000000000000000000000000000000000000000000000880000000000000000f862f86002018304cb2f94095e7baea6a6c7c4c2dfeb977efac326af552d870a801ca015eb1cc916728b9799e55c489857727669afb2986433d5f54cde11faaed9f0eea05d36f6d06c34aae8d0a2a5895c8ba4a17ad46a5fa59f361cb3e7e01a23030e38c0"
            },
            {
                "chainname" : "default",
                "blocknumber" : "4",
                "uncleHeaders" : [
                ],
                "blockHeader" : {
                    "bloom" : "0x00000000000000000000000000000000000000000000000000000000000000000000000000000000000000000000000000000000000000000000000000000000000000000000000000000000000000000000000000000000000000000000000000000000000000000000000000000000000000000000000000000000000000000000000000000000000000000000000000000000000000000000000000000000000000000000000000000000000000000000000000000000000000000000000000000000000000000000000000000000000000000000000000000000000000000000000000000000000000000000000000000000000000000000000000000000",
                    "coinbase" : "0x8888f1f195afa192cfee860698584c030f4c9db1",
                    "difficulty" : "0x020000",
                    "extraData" : "0x42",
                    "gasLimit" : "0x301fd2",
                    "gasUsed" : "0x5208",
                    "hash" : "0xf0eaa4eb344e6554168fe76020774211b165aaab37935e9868a97941ba108e60",
                    "mixHash" : "0x0000000000000000000000000000000000000000000000000000000000000000",
                    "nonce" : "0x0000000000000000",
                    "number" : "0x04",
                    "parentHash" : "0xffb90a7a923491adb3badb12a76a23e59ddcf38d9e90d868e0d7b06ff3e63e27",
                    "receiptTrie" : "0x056b23fbba480696b65fe5a59b8f2148a1299103c4f57df839233af2cf4ca2d2",
                    "stateRoot" : "0x0277faba6f397b4cf0d8b95f0bb705614350672bb7d9a43a7a24b98d1b2667e9",
                    "timestamp" : "0x54c99c21",
                    "transactionsTrie" : "0x9735e49acaddb4d8338ed33df8dd006449b20b85e89e47224ac8ec8f7ea26071",
                    "uncleHash" : "0x1dcc4de8dec75d7aab85b567b6ccd41ad312451b948a7413f0a142fd40d49347"
                },
                "transactions" : [
                    {
                        "data" : "0x",
                        "gasLimit" : "0x04cb2f",
                        "gasPrice" : "0x01",
                        "nonce" : "0x03",
                        "r" : "0xa7b7f2fa93025fc1e6aa18c1aa07c32a456439754e196cb74f2f7d12cf3e840d",
                        "s" : "0x2078cf840fb25fc3d858b2a85b622f21be0588b5c5d81d433427f6470e06a4a7",
                        "to" : "0x095e7baea6a6c7c4c2dfeb977efac326af552d87",
                        "v" : "0x1b",
                        "value" : "0x0a"
                    }
                ],
                "rlp" : "0xf90261f901f9a0ffb90a7a923491adb3badb12a76a23e59ddcf38d9e90d868e0d7b06ff3e63e27a01dcc4de8dec75d7aab85b567b6ccd41ad312451b948a7413f0a142fd40d49347948888f1f195afa192cfee860698584c030f4c9db1a00277faba6f397b4cf0d8b95f0bb705614350672bb7d9a43a7a24b98d1b2667e9a09735e49acaddb4d8338ed33df8dd006449b20b85e89e47224ac8ec8f7ea26071a0056b23fbba480696b65fe5a59b8f2148a1299103c4f57df839233af2cf4ca2d2b9010000000000000000000000000000000000000000000000000000000000000000000000000000000000000000000000000000000000000000000000000000000000000000000000000000000000000000000000000000000000000000000000000000000000000000000000000000000000000000000000000000000000000000000000000000000000000000000000000000000000000000000000000000000000000000000000000000000000000000000000000000000000000000000000000000000000000000000000000000000000000000000000000000000000000000000000000000000000000000000000000000000000000000000000000000000000830200000483301fd28252088454c99c2142a00000000000000000000000000000000000000000000000000000000000000000880000000000000000f862f86003018304cb2f94095e7baea6a6c7c4c2dfeb977efac326af552d870a801ba0a7b7f2fa93025fc1e6aa18c1aa07c32a456439754e196cb74f2f7d12cf3e840da02078cf840fb25fc3d858b2a85b622f21be0588b5c5d81d433427f6470e06a4a7c0"
            },
            {
                "chainname" : "default",
                "blocknumber" : "5",
                "uncleHeaders" : [
                ],
                "blockHeader" : {
                    "bloom" : "0x00000000000000000000000000000000000000000000000000000000000000000000000000000000000000000000000000000000000000000000000000000000000000000000000000000000000000000000000000000000000000000000000000000000000000000000000000000000000000000000000000000000000000000000000000000000000000000000000000000000000000000000000000000000000000000000000000000000000000000000000000000000000000000000000000000000000000000000000000000000000000000000000000000000000000000000000000000000000000000000000000000000000000000000000000000000",
                    "coinbase" : "0x8888f1f195afa192cfee860698584c030f4c9db1",
                    "difficulty" : "0x020000",
                    "extraData" : "0x42",
                    "gasLimit" : "0x302bd8",
                    "gasUsed" : "0x5208",
                    "hash" : "0x34deb61edfcd65944be145fed65174808d32bba2ed4586c05a2ed8a6616ffdaa",
                    "mixHash" : "0x0000000000000000000000000000000000000000000000000000000000000000",
                    "nonce" : "0x0000000000000000",
                    "number" : "0x05",
                    "parentHash" : "0xf0eaa4eb344e6554168fe76020774211b165aaab37935e9868a97941ba108e60",
                    "receiptTrie" : "0x056b23fbba480696b65fe5a59b8f2148a1299103c4f57df839233af2cf4ca2d2",
                    "stateRoot" : "0x435b477bbfaa9b29a4de52db3e3277b8f8a9b36b9fa712fe32d002433241681f",
                    "timestamp" : "0x54c9a009",
                    "transactionsTrie" : "0x7e457eebaff319b52b0446acbf66b7d4d641643ec78446b22fa087d412a858a1",
                    "uncleHash" : "0x1dcc4de8dec75d7aab85b567b6ccd41ad312451b948a7413f0a142fd40d49347"
                },
                "transactions" : [
                    {
                        "data" : "0x",
                        "gasLimit" : "0x04cb2f",
                        "gasPrice" : "0x01",
                        "nonce" : "0x04",
                        "r" : "0xce71dc96c33cae8ba60e25cc2a00a83e4a9fc564520cec1449f63da7435fcb29",
                        "s" : "0x796d06a71cf9a4a3a680421d69147413fa1e903f181f9782783ad9ca55d36b13",
                        "to" : "0x095e7baea6a6c7c4c2dfeb977efac326af552d87",
                        "v" : "0x1b",
                        "value" : "0x0a"
                    }
                ],
                "rlp" : "0xf90261f901f9a0f0eaa4eb344e6554168fe76020774211b165aaab37935e9868a97941ba108e60a01dcc4de8dec75d7aab85b567b6ccd41ad312451b948a7413f0a142fd40d49347948888f1f195afa192cfee860698584c030f4c9db1a0435b477bbfaa9b29a4de52db3e3277b8f8a9b36b9fa712fe32d002433241681fa07e457eebaff319b52b0446acbf66b7d4d641643ec78446b22fa087d412a858a1a0056b23fbba480696b65fe5a59b8f2148a1299103c4f57df839233af2cf4ca2d2b9010000000000000000000000000000000000000000000000000000000000000000000000000000000000000000000000000000000000000000000000000000000000000000000000000000000000000000000000000000000000000000000000000000000000000000000000000000000000000000000000000000000000000000000000000000000000000000000000000000000000000000000000000000000000000000000000000000000000000000000000000000000000000000000000000000000000000000000000000000000000000000000000000000000000000000000000000000000000000000000000000000000000000000000000000000000000830200000583302bd88252088454c9a00942a00000000000000000000000000000000000000000000000000000000000000000880000000000000000f862f86004018304cb2f94095e7baea6a6c7c4c2dfeb977efac326af552d870a801ba0ce71dc96c33cae8ba60e25cc2a00a83e4a9fc564520cec1449f63da7435fcb29a0796d06a71cf9a4a3a680421d69147413fa1e903f181f9782783ad9ca55d36b13c0"
            },
            {
                "chainname" : "default",
                "blocknumber" : "6",
                "uncleHeaders" : [
                    {
                        "bloom" : "0x00000000000000000000000000000000000000000000000000000000000000000000000000000000000000000000000000000000000000000000000000000000000000000000000000000000000000000000000000000000000000000000000000000000000000000000000000000000000000000000000000000000000000000000000000000000000000000000000000000000000000000000000000000000000000000000000000000000000000000000000000000000000000000000000000000000000000000000000000000000000000000000000000000000000000000000000000000000000000000000000000000000000000000000000000000000",
                        "coinbase" : "0xbcde5374fce5edbc8e2a8697c15331677e6ebf01",
                        "difficulty" : "0x020000",
                        "extraData" : "0x42",
                        "gasLimit" : "0x3007cf",
                        "gasUsed" : "0x00",
                        "hash" : "0x47b56045d3a727d0520e12ce20d63a810673d56958502d9b31794b63471042dd",
                        "mixHash" : "0x0000000000000000000000000000000000000000000000000000000000000000",
                        "nonce" : "0x0000000000000000",
                        "number" : "0x02",
                        "parentHash" : "0xf88512d9e022357594866c44ecaa2fc9cb48f34d1987e401109400761aeb898d",
                        "receiptTrie" : "0x56e81f171bcc55a6ff8345e692c0f86e5b48e01b996cadc001622fb5e363b421",
                        "stateRoot" : "0xfe87abb0d3ab38d4eb64405de03db5245b0d40c4b85d8a1b5028ada8643de2db",
                        "timestamp" : "0x54c99451",
                        "transactionsTrie" : "0x56e81f171bcc55a6ff8345e692c0f86e5b48e01b996cadc001622fb5e363b421",
                        "uncleHash" : "0x1dcc4de8dec75d7aab85b567b6ccd41ad312451b948a7413f0a142fd40d49347"
                    }
                ],
                "blockHeader" : {
                    "bloom" : "0x00000000000000000000000000000000000000000000000000000000000000000000000000000000000000000000000000000000000000000000000000000000000000000000000000000000000000000000000000000000000000000000000000000000000000000000000000000000000000000000000000000000000000000000000000000000000000000000000000000000000000000000000000000000000000000000000000000000000000000000000000000000000000000000000000000000000000000000000000000000000000000000000000000000000000000000000000000000000000000000000000000000000000000000000000000000",
                    "coinbase" : "0x8888f1f195afa192cfee860698584c030f4c9db1",
                    "difficulty" : "0x020000",
                    "extraData" : "0x42",
                    "gasLimit" : "0x3037e1",
                    "gasUsed" : "0x5208",
                    "hash" : "0x12b6b73566f399d1d3200e719013eeeb2f8b144340c5f0b800f32c32b1ae3675",
                    "mixHash" : "0x0000000000000000000000000000000000000000000000000000000000000000",
                    "nonce" : "0x0000000000000000",
                    "number" : "0x06",
                    "parentHash" : "0x34deb61edfcd65944be145fed65174808d32bba2ed4586c05a2ed8a6616ffdaa",
                    "receiptTrie" : "0x056b23fbba480696b65fe5a59b8f2148a1299103c4f57df839233af2cf4ca2d2",
                    "stateRoot" : "0x1f060b3a722050412577a27fd89c4b65d22629673ea8d1c1c4f348cb69b9e723",
                    "timestamp" : "0x54c9a3f1",
                    "transactionsTrie" : "0x72e4aac2bdb78c4c3f8e50bf39b1aa8714fdbf32c1d3426750b9c108c52ce8fd",
                    "uncleHash" : "0x11efe21f842bb74861c3747acf1c55c0bca7464c6f72551f24ea7a77f1914d53"
                },
                "transactions" : [
                    {
                        "data" : "0x",
                        "gasLimit" : "0x04cb2f",
                        "gasPrice" : "0x01",
                        "nonce" : "0x05",
                        "r" : "0xb6a4064ef7d23f0e149472d6f1257055149840b6c73a4ae25e595b9f9fc78edc",
                        "s" : "0x04ad52e8157ae742b551851d58fd6c3919cd7e5a0a9c6685d5bc630a657dcde7",
                        "to" : "0x095e7baea6a6c7c4c2dfeb977efac326af552d87",
                        "v" : "0x1b",
                        "value" : "0x0a"
                    }
                ],
                "rlp" : "0xf9045df901f9a034deb61edfcd65944be145fed65174808d32bba2ed4586c05a2ed8a6616ffdaaa011efe21f842bb74861c3747acf1c55c0bca7464c6f72551f24ea7a77f1914d53948888f1f195afa192cfee860698584c030f4c9db1a01f060b3a722050412577a27fd89c4b65d22629673ea8d1c1c4f348cb69b9e723a072e4aac2bdb78c4c3f8e50bf39b1aa8714fdbf32c1d3426750b9c108c52ce8fda0056b23fbba480696b65fe5a59b8f2148a1299103c4f57df839233af2cf4ca2d2b90100000000000000000000000000000000000000000000000000000000000000000000000000000000000000000000000000000000000000000000000000000000000000000000000000000000000000000000000000000000000000000000000000000000000000000000000000000000000000000000000000000000000000000000000000000000000000000000000000000000000000000000000000000000000000000000000000000000000000000000000000000000000000000000000000000000000000000000000000000000000000000000000000000000000000000000000000000000000000000000000000000000000000000000000000000000008302000006833037e18252088454c9a3f142a00000000000000000000000000000000000000000000000000000000000000000880000000000000000f862f86005018304cb2f94095e7baea6a6c7c4c2dfeb977efac326af552d870a801ba0b6a4064ef7d23f0e149472d6f1257055149840b6c73a4ae25e595b9f9fc78edca004ad52e8157ae742b551851d58fd6c3919cd7e5a0a9c6685d5bc630a657dcde7f901faf901f7a0f88512d9e022357594866c44ecaa2fc9cb48f34d1987e401109400761aeb898da01dcc4de8dec75d7aab85b567b6ccd41ad312451b948a7413f0a142fd40d4934794bcde5374fce5edbc8e2a8697c15331677e6ebf01a0fe87abb0d3ab38d4eb64405de03db5245b0d40c4b85d8a1b5028ada8643de2dba056e81f171bcc55a6ff8345e692c0f86e5b48e01b996cadc001622fb5e363b421a056e81f171bcc55a6ff8345e692c0f86e5b48e01b996cadc001622fb5e363b421b90100000000000000000000000000000000000000000000000000000000000000000000000000000000000000000000000000000000000000000000000000000000000000000000000000000000000000000000000000000000000000000000000000000000000000000000000000000000000000000000000000000000000000000000000000000000000000000000000000000000000000000000000000000000000000000000000000000000000000000000000000000000000000000000000000000000000000000000000000000000000000000000000000000000000000000000000000000000000000000000000000000000000000000000000000000000008302000002833007cf808454c9945142a00000000000000000000000000000000000000000000000000000000000000000880000000000000000"
            }
        ],
        "postState" : {
            "0xa94f5374fce5edbc8e2a8697c15331677e6ebf0b" : {
                "code" : "0x",
                "nonce" : "0x06",
                "balance" : "0x09184e70b394",
                "storage" : {
                }
            },
            "0x095e7baea6a6c7c4c2dfeb977efac326af552d87" : {
                "code" : "0x",
                "nonce" : "0x00",
                "balance" : "0x3c",
                "storage" : {
                }
            },
            "0x8888f1f195afa192cfee860698584c030f4c9db1" : {
                "code" : "0x",
                "nonce" : "0x00",
                "balance" : "0xa7669bd713282c30",
                "storage" : {
                }
            },
            "0xbcde5374fce5edbc8e2a8697c15331677e6ebf01" : {
                "code" : "0x",
                "nonce" : "0x00",
                "balance" : "0x0de0b6b3a7640000",
                "storage" : {
                }
            }
        },
        "lastblockhash" : "0x12b6b73566f399d1d3200e719013eeeb2f8b144340c5f0b800f32c32b1ae3675"
    }
}