{
    "callRevert_Istanbul" : {
        "_info" : {
            "comment" : "This test contains a message call transaction that fails by REVERT.  The interest is on the status code in the transaction receipt (though not specified in the expect section).",
            "filling-rpc-server" : "Geth-1.9.11-unstable-a382d783-20200127",
            "filling-tool-version" : "retesteth-0.0.2+commit.e8723140.Linux.g++",
            "lllcversion" : "Version: 0.5.14-develop.2019.11.27+commit.8f259595.Linux.g++",
            "source" : "src/BlockchainTestsFiller/ValidBlocks/bcValidBlockTest/callRevertFiller.json",
            "sourceHash" : "5d8a5cef7a63c9d0e16dffb714b2b86da26ac426b4435e952ff9bafafb725218"
        },
        "sealEngine" : "NoProof",
        "network" : "Istanbul",
        "pre" : {
            "0x095e7baea6a6c7c4c2dfeb977efac326af552d87" : {
                "balance" : "0x02540be400",
                "code" : "0x60006000fd00",
                "nonce" : "0x00",
                "storage" : {
                }
            },
            "0xa94f5374fce5edbc8e2a8697c15331677e6ebf0b" : {
                "balance" : "0x02540be400",
                "code" : "0x",
                "nonce" : "0x00",
                "storage" : {
                }
            }
        },
        "genesisBlockHeader" : {
            "bloom" : "0x00000000000000000000000000000000000000000000000000000000000000000000000000000000000000000000000000000000000000000000000000000000000000000000000000000000000000000000000000000000000000000000000000000000000000000000000000000000000000000000000000000000000000000000000000000000000000000000000000000000000000000000000000000000000000000000000000000000000000000000000000000000000000000000000000000000000000000000000000000000000000000000000000000000000000000000000000000000000000000000000000000000000000000000000000000000",
            "coinbase" : "0x8888f1f195afa192cfee860698584c030f4c9db1",
            "difficulty" : "0x020000",
            "extraData" : "0x42",
            "gasLimit" : "0x2fefd8",
            "gasUsed" : "0x00",
            "hash" : "0x927dff8c01592e8c76f169f2f60fb3945b51a3ce84949c18cada2e8f92dfabc3",
            "mixHash" : "0x0000000000000000000000000000000000000000000000000000000000000000",
            "nonce" : "0x0000000000000000",
            "number" : "0x00",
            "parentHash" : "0x0000000000000000000000000000000000000000000000000000000000000000",
            "receiptTrie" : "0x56e81f171bcc55a6ff8345e692c0f86e5b48e01b996cadc001622fb5e363b421",
            "stateRoot" : "0x917a9bec910e12dd4b947c27959a757796f9dcbe116c02e764eb94b699a15d29",
            "timestamp" : "0x54c98c81",
            "transactionsTrie" : "0x56e81f171bcc55a6ff8345e692c0f86e5b48e01b996cadc001622fb5e363b421",
            "uncleHash" : "0x1dcc4de8dec75d7aab85b567b6ccd41ad312451b948a7413f0a142fd40d49347"
        },
        "genesisRLP" : "0xf901fcf901f7a00000000000000000000000000000000000000000000000000000000000000000a01dcc4de8dec75d7aab85b567b6ccd41ad312451b948a7413f0a142fd40d49347948888f1f195afa192cfee860698584c030f4c9db1a0917a9bec910e12dd4b947c27959a757796f9dcbe116c02e764eb94b699a15d29a056e81f171bcc55a6ff8345e692c0f86e5b48e01b996cadc001622fb5e363b421a056e81f171bcc55a6ff8345e692c0f86e5b48e01b996cadc001622fb5e363b421b90100000000000000000000000000000000000000000000000000000000000000000000000000000000000000000000000000000000000000000000000000000000000000000000000000000000000000000000000000000000000000000000000000000000000000000000000000000000000000000000000000000000000000000000000000000000000000000000000000000000000000000000000000000000000000000000000000000000000000000000000000000000000000000000000000000000000000000000000000000000000000000000000000000000000000000000000000000000000000000000000000000000000000000000000000000000008302000080832fefd8808454c98c8142a00000000000000000000000000000000000000000000000000000000000000000880000000000000000c0c0",
        "blocks" : [
            {
                "chainname" : "default",
                "blocknumber" : "1",
                "uncleHeaders" : [
                ],
                "blockHeader" : {
                    "bloom" : "0x00000000000000000000000000000000000000000000000000000000000000000000000000000000000000000000000000000000000000000000000000000000000000000000000000000000000000000000000000000000000000000000000000000000000000000000000000000000000000000000000000000000000000000000000000000000000000000000000000000000000000000000000000000000000000000000000000000000000000000000000000000000000000000000000000000000000000000000000000000000000000000000000000000000000000000000000000000000000000000000000000000000000000000000000000000000",
                    "coinbase" : "0x8888f1f195afa192cfee860698584c030f4c9db1",
                    "difficulty" : "0x020000",
                    "extraData" : "0x42",
                    "gasLimit" : "0x2ffbd2",
                    "gasUsed" : "0x520e",
                    "hash" : "0xcec11f2e5c8e2d42511c41b53997595a7aebe3af98d4511930801561a1111049",
                    "mixHash" : "0x0000000000000000000000000000000000000000000000000000000000000000",
                    "nonce" : "0x0000000000000000",
                    "number" : "0x01",
                    "parentHash" : "0x927dff8c01592e8c76f169f2f60fb3945b51a3ce84949c18cada2e8f92dfabc3",
                    "receiptTrie" : "0xc733a6282567d7007fb35203354919afd21d68196012dd03724b170f575d0b78",
                    "stateRoot" : "0xfcca2bfeb2325431d682d789d8fb8575af27a4f0de132417dc0908752fcfdd17",
                    "timestamp" : "0x54c99069",
                    "transactionsTrie" : "0x53d5b71a8fbb9590de82d69dfa4ac31923b0c8afce0d30d0d8d1e931f25030dc",
                    "uncleHash" : "0x1dcc4de8dec75d7aab85b567b6ccd41ad312451b948a7413f0a142fd40d49347"
                },
                "transactions" : [
                    {
                        "data" : "0x",
                        "gasLimit" : "0xc350",
                        "gasPrice" : "0x0a",
                        "nonce" : "0x00",
                        "r" : "0xf3266921c93d600c43f6fa4724b7abae079b35b9e95df592f95f9f3445e94c88",
                        "s" : "0x12f977552ebdb7a492cf35f3106df16ccb4576ebad4113056ee1f52cbe4978c1",
                        "to" : "0x095e7baea6a6c7c4c2dfeb977efac326af552d87",
                        "v" : "0x1b",
                        "value" : "0x0a"
                    }
                ],
                "rlp" : "0xf90260f901f9a0927dff8c01592e8c76f169f2f60fb3945b51a3ce84949c18cada2e8f92dfabc3a01dcc4de8dec75d7aab85b567b6ccd41ad312451b948a7413f0a142fd40d49347948888f1f195afa192cfee860698584c030f4c9db1a0fcca2bfeb2325431d682d789d8fb8575af27a4f0de132417dc0908752fcfdd17a053d5b71a8fbb9590de82d69dfa4ac31923b0c8afce0d30d0d8d1e931f25030dca0c733a6282567d7007fb35203354919afd21d68196012dd03724b170f575d0b78b90100000000000000000000000000000000000000000000000000000000000000000000000000000000000000000000000000000000000000000000000000000000000000000000000000000000000000000000000000000000000000000000000000000000000000000000000000000000000000000000000000000000000000000000000000000000000000000000000000000000000000000000000000000000000000000000000000000000000000000000000000000000000000000000000000000000000000000000000000000000000000000000000000000000000000000000000000000000000000000000000000000000000000000000000000000000008302000001832ffbd282520e8454c9906942a00000000000000000000000000000000000000000000000000000000000000000880000000000000000f861f85f800a82c35094095e7baea6a6c7c4c2dfeb977efac326af552d870a801ba0f3266921c93d600c43f6fa4724b7abae079b35b9e95df592f95f9f3445e94c88a012f977552ebdb7a492cf35f3106df16ccb4576ebad4113056ee1f52cbe4978c1c0"
            }
        ],
        "postState" : {
            "0xa94f5374fce5edbc8e2a8697c15331677e6ebf0b" : {
                "code" : "0x",
                "nonce" : "0x01",
                "balance" : "0x025408af74",
                "storage" : {
                }
            },
            "0x095e7baea6a6c7c4c2dfeb977efac326af552d87" : {
                "code" : "0x60006000fd00",
                "nonce" : "0x00",
                "balance" : "0x02540be400",
                "storage" : {
                }
            },
            "0x8888f1f195afa192cfee860698584c030f4c9db1" : {
                "code" : "0x",
                "nonce" : "0x00",
                "balance" : "0x1bc16d674ecb348c",
                "storage" : {
                }
            }
        },
        "lastblockhash" : "0xcec11f2e5c8e2d42511c41b53997595a7aebe3af98d4511930801561a1111049"
    }
}