{
    "dataTx_Istanbul" : {
        "_info" : {
            "comment" : "",
            "filling-rpc-server" : "Geth-1.9.11-unstable-a382d783-20200127",
            "filling-tool-version" : "retesteth-0.0.2+commit.e8723140.Linux.g++",
            "lllcversion" : "Version: 0.5.14-develop.2019.11.27+commit.8f259595.Linux.g++",
            "source" : "src/BlockchainTestsFiller/ValidBlocks/bcValidBlockTest/dataTxFiller.json",
            "sourceHash" : "7c580f9155cdfbdfcfffdea8649b6c1e5166806ccf23a4474463ce3d137e1235"
        },
        "sealEngine" : "NoProof",
        "network" : "Istanbul",
        "pre" : {
            "0xa94f5374fce5edbc8e2a8697c15331677e6ebf0b" : {
                "balance" : "0x02540be400",
                "code" : "0x",
                "nonce" : "0x00",
                "storage" : {
                }
            }
        },
        "genesisBlockHeader" : {
            "bloom" : "0x00000000000000000000000000000000000000000000000000000000000000000000000000000000000000000000000000000000000000000000000000000000000000000000000000000000000000000000000000000000000000000000000000000000000000000000000000000000000000000000000000000000000000000000000000000000000000000000000000000000000000000000000000000000000000000000000000000000000000000000000000000000000000000000000000000000000000000000000000000000000000000000000000000000000000000000000000000000000000000000000000000000000000000000000000000000",
            "coinbase" : "0x8888f1f195afa192cfee860698584c030f4c9db1",
            "difficulty" : "0x020000",
            "extraData" : "0x42",
            "gasLimit" : "0x2fefd8",
            "gasUsed" : "0x00",
            "hash" : "0x68a61c4a05db4913009de5666753258eb9306157680dc5da0d93656550c9257e",
            "mixHash" : "0x0000000000000000000000000000000000000000000000000000000000000000",
            "nonce" : "0x0000000000000000",
            "number" : "0x00",
            "parentHash" : "0x0000000000000000000000000000000000000000000000000000000000000000",
            "receiptTrie" : "0x56e81f171bcc55a6ff8345e692c0f86e5b48e01b996cadc001622fb5e363b421",
            "stateRoot" : "0xcafd881ab193703b83816c49ff6c2bf6ba6f464a1be560c42106128c8dbc35e7",
            "timestamp" : "0x54c98c81",
            "transactionsTrie" : "0x56e81f171bcc55a6ff8345e692c0f86e5b48e01b996cadc001622fb5e363b421",
            "uncleHash" : "0x1dcc4de8dec75d7aab85b567b6ccd41ad312451b948a7413f0a142fd40d49347"
        },
        "genesisRLP" : "0xf901fcf901f7a00000000000000000000000000000000000000000000000000000000000000000a01dcc4de8dec75d7aab85b567b6ccd41ad312451b948a7413f0a142fd40d49347948888f1f195afa192cfee860698584c030f4c9db1a0cafd881ab193703b83816c49ff6c2bf6ba6f464a1be560c42106128c8dbc35e7a056e81f171bcc55a6ff8345e692c0f86e5b48e01b996cadc001622fb5e363b421a056e81f171bcc55a6ff8345e692c0f86e5b48e01b996cadc001622fb5e363b421b90100000000000000000000000000000000000000000000000000000000000000000000000000000000000000000000000000000000000000000000000000000000000000000000000000000000000000000000000000000000000000000000000000000000000000000000000000000000000000000000000000000000000000000000000000000000000000000000000000000000000000000000000000000000000000000000000000000000000000000000000000000000000000000000000000000000000000000000000000000000000000000000000000000000000000000000000000000000000000000000000000000000000000000000000000000000008302000080832fefd8808454c98c8142a00000000000000000000000000000000000000000000000000000000000000000880000000000000000c0c0",
        "blocks" : [
            {
                "chainname" : "default",
                "blocknumber" : "1",
                "uncleHeaders" : [
                ],
                "blockHeader" : {
                    "bloom" : "0x00000000000000000000000000000000000000000000000000000000000000000000000000000000000000000000000000000000000000000000000000000000000000000000000000000000000000000000000000000000000000000000000000000000000000000000000000000000000000000000000000000000000000000000000000000000000000000000000000000000000000000000000000000000000000000000000000000000000000000000000000000000000000000000000000000000000000000000000000000000000000000000000000000000000000000000000000000000000000000000000000000000000000000000000000000000",
                    "coinbase" : "0x8888f1f195afa192cfee860698584c030f4c9db1",
                    "difficulty" : "0x020000",
                    "extraData" : "0x42",
                    "gasLimit" : "0x2ffbd2",
                    "gasUsed" : "0x00",
                    "hash" : "0x9a7a04c7e859c90f89b83713039445833d44a0869f23f8e77cea07bf4809bffc",
                    "mixHash" : "0x0000000000000000000000000000000000000000000000000000000000000000",
                    "nonce" : "0x0000000000000000",
                    "number" : "0x01",
                    "parentHash" : "0x68a61c4a05db4913009de5666753258eb9306157680dc5da0d93656550c9257e",
                    "receiptTrie" : "0x56e81f171bcc55a6ff8345e692c0f86e5b48e01b996cadc001622fb5e363b421",
                    "stateRoot" : "0x8d5347d9c606ba837a3b2ca960505233aec6b5f4718904bc0863814c0c32618c",
                    "timestamp" : "0x54c99069",
                    "transactionsTrie" : "0x56e81f171bcc55a6ff8345e692c0f86e5b48e01b996cadc001622fb5e363b421",
                    "uncleHash" : "0x1dcc4de8dec75d7aab85b567b6ccd41ad312451b948a7413f0a142fd40d49347"
                },
                "transactions" : [
                ],
                "rlp" : "0xf901fcf901f7a068a61c4a05db4913009de5666753258eb9306157680dc5da0d93656550c9257ea01dcc4de8dec75d7aab85b567b6ccd41ad312451b948a7413f0a142fd40d49347948888f1f195afa192cfee860698584c030f4c9db1a08d5347d9c606ba837a3b2ca960505233aec6b5f4718904bc0863814c0c32618ca056e81f171bcc55a6ff8345e692c0f86e5b48e01b996cadc001622fb5e363b421a056e81f171bcc55a6ff8345e692c0f86e5b48e01b996cadc001622fb5e363b421b90100000000000000000000000000000000000000000000000000000000000000000000000000000000000000000000000000000000000000000000000000000000000000000000000000000000000000000000000000000000000000000000000000000000000000000000000000000000000000000000000000000000000000000000000000000000000000000000000000000000000000000000000000000000000000000000000000000000000000000000000000000000000000000000000000000000000000000000000000000000000000000000000000000000000000000000000000000000000000000000000000000000000000000000000000000000008302000001832ffbd2808454c9906942a00000000000000000000000000000000000000000000000000000000000000000880000000000000000c0c0"
            },
            {
                "chainname" : "default",
                "blocknumber" : "2",
                "uncleHeaders" : [
                ],
                "blockHeader" : {
                    "bloom" : "0x00000000000000000000000000000000000000000000000000000000000000000000000000000000000000000000000000000000000000000000000000000000000000000000000000000000000000000000000000000000000000000000000000000000000000000000000000000000000000000000000000000000000000000000000000000000000000000000000000000000000000000000000000000000000000000000000000000000000000000000000000000000000000000000000000000000000000000000000000000000000000000000000000000000000000000000000000000000000000000000000000000000000000000000000000000000",
                    "coinbase" : "0x8888f1f195afa192cfee860698584c030f4c9db1",
                    "difficulty" : "0x020000",
                    "extraData" : "0x42",
                    "gasLimit" : "0x3007cf",
                    "gasUsed" : "0x0186a0",
                    "hash" : "0x83161666f305ec17beebab204a594c515920227f8279d6557210984c5bea7c69",
                    "mixHash" : "0x0000000000000000000000000000000000000000000000000000000000000000",
                    "nonce" : "0x0000000000000000",
                    "number" : "0x02",
                    "parentHash" : "0x9a7a04c7e859c90f89b83713039445833d44a0869f23f8e77cea07bf4809bffc",
                    "receiptTrie" : "0x777f1c1c378807634128348e4f0eeca6a0e7f516ea411690ca04266323f671a4",
                    "stateRoot" : "0xb39e01688f9177894d009d795fe8133ab5a47e63b1e2e095cdb4689475673862",
                    "timestamp" : "0x54c99451",
                    "transactionsTrie" : "0x02c56753744d1f68550540c286b9b349d3cfca065bf1a087da62ac06057ff7f8",
                    "uncleHash" : "0x1dcc4de8dec75d7aab85b567b6ccd41ad312451b948a7413f0a142fd40d49347"
                },
                "transactions" : [
                    {
                        "data" : "0x60056013565b6101918061001d6000396000f35b3360008190555056006001600060e060020a6000350480630a874df61461003a57806341c0e1b514610058578063a02b161e14610066578063dbbdf0831461007757005b610045600435610149565b80600160a060020a031660005260206000f35b610060610161565b60006000f35b6100716004356100d4565b60006000f35b61008560043560243561008b565b60006000f35b600054600160a060020a031632600160a060020a031614156100ac576100b1565b6100d0565b8060018360005260205260406000208190555081600060005260206000a15b5050565b600054600160a060020a031633600160a060020a031614158015610118575033600160a060020a0316600182600052602052604060002054600160a060020a031614155b61012157610126565b610146565b600060018260005260205260406000208190555080600060005260206000a15b50565b60006001826000526020526040600020549050919050565b600054600160a060020a031633600160a060020a0316146101815761018f565b600054600160a060020a0316ff5b56",
                        "gasLimit" : "0x0186a0",
                        "gasPrice" : "0x32",
                        "nonce" : "0x00",
                        "r" : "0x468a915f087692bb9be503831a3dfef2cf9c8dee26deb40ff2ec99e8d22665ae",
                        "s" : "0x5cedae0810c3851ecd1004bfdbfe6ddc7753c2d665993bb01ce75af7857b13dc",
                        "to" : "",
                        "v" : "0x1b",
                        "value" : "0x00"
                    }
                ],
                "rlp" : "0xf90400f901faa09a7a04c7e859c90f89b83713039445833d44a0869f23f8e77cea07bf4809bffca01dcc4de8dec75d7aab85b567b6ccd41ad312451b948a7413f0a142fd40d49347948888f1f195afa192cfee860698584c030f4c9db1a0b39e01688f9177894d009d795fe8133ab5a47e63b1e2e095cdb4689475673862a002c56753744d1f68550540c286b9b349d3cfca065bf1a087da62ac06057ff7f8a0777f1c1c378807634128348e4f0eeca6a0e7f516ea411690ca04266323f671a4b90100000000000000000000000000000000000000000000000000000000000000000000000000000000000000000000000000000000000000000000000000000000000000000000000000000000000000000000000000000000000000000000000000000000000000000000000000000000000000000000000000000000000000000000000000000000000000000000000000000000000000000000000000000000000000000000000000000000000000000000000000000000000000000000000000000000000000000000000000000000000000000000000000000000000000000000000000000000000000000000000000000000000000000000000000000000008302000002833007cf830186a08454c9945142a00000000000000000000000000000000000000000000000000000000000000000880000000000000000f901fff901fc8032830186a08080b901ae60056013565b6101918061001d6000396000f35b3360008190555056006001600060e060020a6000350480630a874df61461003a57806341c0e1b514610058578063a02b161e14610066578063dbbdf0831461007757005b610045600435610149565b80600160a060020a031660005260206000f35b610060610161565b60006000f35b6100716004356100d4565b60006000f35b61008560043560243561008b565b60006000f35b600054600160a060020a031632600160a060020a031614156100ac576100b1565b6100d0565b8060018360005260205260406000208190555081600060005260206000a15b5050565b600054600160a060020a031633600160a060020a031614158015610118575033600160a060020a0316600182600052602052604060002054600160a060020a031614155b61012157610126565b610146565b600060018260005260205260406000208190555080600060005260206000a15b50565b60006001826000526020526040600020549050919050565b600054600160a060020a031633600160a060020a0316146101815761018f565b600054600160a060020a0316ff5b561ba0468a915f087692bb9be503831a3dfef2cf9c8dee26deb40ff2ec99e8d22665aea05cedae0810c3851ecd1004bfdbfe6ddc7753c2d665993bb01ce75af7857b13dcc0"
            }
        ],
        "postState" : {
            "0xa94f5374fce5edbc8e2a8697c15331677e6ebf0b" : {
                "code" : "0x",
                "nonce" : "0x01",
                "balance" : "0x0253bf98c0",
                "storage" : {
                }
            },
            "0x8888f1f195afa192cfee860698584c030f4c9db1" : {
                "code" : "0x",
                "nonce" : "0x00",
                "balance" : "0x3782dace9ddc4b40",
                "storage" : {
                }
            }
        },
        "lastblockhash" : "0x83161666f305ec17beebab204a594c515920227f8279d6557210984c5bea7c69"
    }
}