{
    "gasLimitTooHigh2_Istanbul" : {
        "_info" : {
            "comment" : "",
            "filling-rpc-server" : "Geth-1.9.11-unstable-a382d783-20200127",
            "filling-tool-version" : "retesteth-0.0.2+commit.e8723140.Linux.g++",
            "lllcversion" : "Version: 0.5.14-develop.2019.11.27+commit.8f259595.Linux.g++",
            "source" : "src/BlockchainTestsFiller/ValidBlocks/bcValidBlockTest/gasLimitTooHigh2Filler.json",
            "sourceHash" : "a2dbd538b8a1e909b96ab7bc31d70fa05a19fae73e1f00f988b8babd5713bf10"
        },
        "sealEngine" : "NoProof",
        "network" : "Istanbul",
        "pre" : {
            "0xa94f5374fce5edbc8e2a8697c15331677e6ebf0b" : {
                "balance" : "0x02540be400",
                "code" : "0x",
                "nonce" : "0x00",
                "storage" : {
                }
            }
        },
        "genesisBlockHeader" : {
            "bloom" : "0x00000000000000000000000000000000000000000000000000000000000000000000000000000000000000000000000000000000000000000000000000000000000000000000000000000000000000000000000000000000000000000000000000000000000000000000000000000000000000000000000000000000000000000000000000000000000000000000000000000000000000000000000000000000000000000000000000000000000000000000000000000000000000000000000000000000000000000000000000000000000000000000000000000000000000000000000000000000000000000000000000000000000000000000000000000000",
            "coinbase" : "0x8888f1f195afa192cfee860698584c030f4c9db1",
            "difficulty" : "0x020000",
            "extraData" : "0x42",
            "gasLimit" : "0x2fefd8",
            "gasUsed" : "0x00",
            "hash" : "0x68a61c4a05db4913009de5666753258eb9306157680dc5da0d93656550c9257e",
            "mixHash" : "0x0000000000000000000000000000000000000000000000000000000000000000",
            "nonce" : "0x0000000000000000",
            "number" : "0x00",
            "parentHash" : "0x0000000000000000000000000000000000000000000000000000000000000000",
            "receiptTrie" : "0x56e81f171bcc55a6ff8345e692c0f86e5b48e01b996cadc001622fb5e363b421",
            "stateRoot" : "0xcafd881ab193703b83816c49ff6c2bf6ba6f464a1be560c42106128c8dbc35e7",
            "timestamp" : "0x54c98c81",
            "transactionsTrie" : "0x56e81f171bcc55a6ff8345e692c0f86e5b48e01b996cadc001622fb5e363b421",
            "uncleHash" : "0x1dcc4de8dec75d7aab85b567b6ccd41ad312451b948a7413f0a142fd40d49347"
        },
        "genesisRLP" : "0xf901fcf901f7a00000000000000000000000000000000000000000000000000000000000000000a01dcc4de8dec75d7aab85b567b6ccd41ad312451b948a7413f0a142fd40d49347948888f1f195afa192cfee860698584c030f4c9db1a0cafd881ab193703b83816c49ff6c2bf6ba6f464a1be560c42106128c8dbc35e7a056e81f171bcc55a6ff8345e692c0f86e5b48e01b996cadc001622fb5e363b421a056e81f171bcc55a6ff8345e692c0f86e5b48e01b996cadc001622fb5e363b421b90100000000000000000000000000000000000000000000000000000000000000000000000000000000000000000000000000000000000000000000000000000000000000000000000000000000000000000000000000000000000000000000000000000000000000000000000000000000000000000000000000000000000000000000000000000000000000000000000000000000000000000000000000000000000000000000000000000000000000000000000000000000000000000000000000000000000000000000000000000000000000000000000000000000000000000000000000000000000000000000000000000000000000000000000000000000008302000080832fefd8808454c98c8142a00000000000000000000000000000000000000000000000000000000000000000880000000000000000c0c0",
        "blocks" : [
            {
                "chainname" : "default",
                "blocknumber" : "1",
                "uncleHeaders" : [
                ],
                "blockHeader" : {
                    "bloom" : "0x00000000000000000000000000000000000000000000000000000000000000000000000000000000000000000000000000000000000000000000000000000000000000000000000000000000000000000000000000000000000000000000000000000000000000000000000000000000000000000000000000000000000000000000000000000000000000000000000000000000000000000000000000000000000000000000000000000000000000000000000000000000000000000000000000000000000000000000000000000000000000000000000000000000000000000000000000000000000000000000000000000000000000000000000000000000",
                    "coinbase" : "0x8888f1f195afa192cfee860698584c030f4c9db1",
                    "difficulty" : "0x020000",
                    "extraData" : "0x42",
                    "gasLimit" : "0x2ffbd2",
                    "gasUsed" : "0x014820",
                    "hash" : "0xdd9da7ce9e12180344231b7f2f5674aa5022e82d95da55c543ad71de22306f90",
                    "mixHash" : "0x0000000000000000000000000000000000000000000000000000000000000000",
                    "nonce" : "0x0000000000000000",
                    "number" : "0x01",
                    "parentHash" : "0x68a61c4a05db4913009de5666753258eb9306157680dc5da0d93656550c9257e",
                    "receiptTrie" : "0x04deb4be6955e1a300123be48007597f67e4229f8ce70f4f10388de6fd3fa267",
                    "stateRoot" : "0x3c3c3c5558bc71c6c4e06b004e7478238c5f831c3a434e641d41633ed94c21eb",
                    "timestamp" : "0x54c99069",
                    "transactionsTrie" : "0xc52db987225c0bbeb1808b41fa870bc5f134073ed79c2d1a9c8b28545de80f49",
                    "uncleHash" : "0x1dcc4de8dec75d7aab85b567b6ccd41ad312451b948a7413f0a142fd40d49347"
                },
                "transactions" : [
                    {
                        "data" : "0x",
                        "gasLimit" : "0x5208",
                        "gasPrice" : "0x01",
                        "nonce" : "0x00",
                        "r" : "0x272bb540c27b214d5cb7deb7ee3a5b0045574474f59a494033efa146c67d0cd2",
                        "s" : "0x272179cc62995b02183f47adcc6a11a66b7cc66c543f9bd4eea28c0368415f62",
                        "to" : "0x095e7baea6a6c7c4c2dfeb977efac326af552d87",
                        "v" : "0x1c",
                        "value" : "0x0a"
                    },
                    {
                        "data" : "0x",
                        "gasLimit" : "0x5208",
                        "gasPrice" : "0x01",
                        "nonce" : "0x01",
                        "r" : "0xcd5d6b8050014bc9d170d316d1d5ce8a321e964033c81a267db9abf46871798b",
                        "s" : "0x29109ebdc6c46e732e68f26acbc79c4b27ee90123edb2b2d9cc303533584a685",
                        "to" : "0x095e7baea6a6c7c4c2dfeb977efac326af552d87",
                        "v" : "0x1c",
                        "value" : "0x0a"
                    },
                    {
                        "data" : "0x",
                        "gasLimit" : "0x5208",
                        "gasPrice" : "0x01",
                        "nonce" : "0x02",
                        "r" : "0xd9e6314ad1ab598ed8948dcc9e68382e8ea532019c9d6363a30b827237d7c89b",
                        "s" : "0x58ab0d9c0d6054dbdb626ae4211aca67517f93ceeebdb71e5a8a06117bf52e3e",
                        "to" : "0x095e7baea6a6c7c4c2dfeb977efac326af552d87",
                        "v" : "0x1c",
                        "value" : "0x0a"
                    },
                    {
                        "data" : "0x",
                        "gasLimit" : "0x5208",
                        "gasPrice" : "0x01",
                        "nonce" : "0x03",
                        "r" : "0x7b2200ec5136ce610f849f66d04175024134620b94ee509897025c25b1c1b0e7",
                        "s" : "0x76cc6272ea4917f4f3a875030a69b6ceef2e11ad21c9c2acaf4964f2344e665a",
                        "to" : "0x095e7baea6a6c7c4c2dfeb977efac326af552d87",
                        "v" : "0x1c",
                        "value" : "0x0a"
                    }
                ],
                "rlp" : "0xf90385f901faa068a61c4a05db4913009de5666753258eb9306157680dc5da0d93656550c9257ea01dcc4de8dec75d7aab85b567b6ccd41ad312451b948a7413f0a142fd40d49347948888f1f195afa192cfee860698584c030f4c9db1a03c3c3c5558bc71c6c4e06b004e7478238c5f831c3a434e641d41633ed94c21eba0c52db987225c0bbeb1808b41fa870bc5f134073ed79c2d1a9c8b28545de80f49a004deb4be6955e1a300123be48007597f67e4229f8ce70f4f10388de6fd3fa267b90100000000000000000000000000000000000000000000000000000000000000000000000000000000000000000000000000000000000000000000000000000000000000000000000000000000000000000000000000000000000000000000000000000000000000000000000000000000000000000000000000000000000000000000000000000000000000000000000000000000000000000000000000000000000000000000000000000000000000000000000000000000000000000000000000000000000000000000000000000000000000000000000000000000000000000000000000000000000000000000000000000000000000000000000000000000008302000001832ffbd2830148208454c9906942a00000000000000000000000000000000000000000000000000000000000000000880000000000000000f90184f85f800182520894095e7baea6a6c7c4c2dfeb977efac326af552d870a801ca0272bb540c27b214d5cb7deb7ee3a5b0045574474f59a494033efa146c67d0cd2a0272179cc62995b02183f47adcc6a11a66b7cc66c543f9bd4eea28c0368415f62f85f010182520894095e7baea6a6c7c4c2dfeb977efac326af552d870a801ca0cd5d6b8050014bc9d170d316d1d5ce8a321e964033c81a267db9abf46871798ba029109ebdc6c46e732e68f26acbc79c4b27ee90123edb2b2d9cc303533584a685f85f020182520894095e7baea6a6c7c4c2dfeb977efac326af552d870a801ca0d9e6314ad1ab598ed8948dcc9e68382e8ea532019c9d6363a30b827237d7c89ba058ab0d9c0d6054dbdb626ae4211aca67517f93ceeebdb71e5a8a06117bf52e3ef85f030182520894095e7baea6a6c7c4c2dfeb977efac326af552d870a801ca07b2200ec5136ce610f849f66d04175024134620b94ee509897025c25b1c1b0e7a076cc6272ea4917f4f3a875030a69b6ceef2e11ad21c9c2acaf4964f2344e665ac0"
            }
        ],
        "postState" : {
            "0xa94f5374fce5edbc8e2a8697c15331677e6ebf0b" : {
                "code" : "0x",
                "nonce" : "0x04",
                "balance" : "0x02540a9bb8",
                "storage" : {
                }
            },
            "0x095e7baea6a6c7c4c2dfeb977efac326af552d87" : {
                "code" : "0x",
                "nonce" : "0x00",
                "balance" : "0x28",
                "storage" : {
                }
            },
            "0x8888f1f195afa192cfee860698584c030f4c9db1" : {
                "code" : "0x",
                "nonce" : "0x00",
                "balance" : "0x1bc16d674ec94820",
                "storage" : {
                }
            }
        },
        "lastblockhash" : "0xdd9da7ce9e12180344231b7f2f5674aa5022e82d95da55c543ad71de22306f90"
    }
}