{
    "RecallSuicidedContract_Istanbul" : {
        "_info" : {
            "comment" : "",
            "filledwith" : "testeth 1.8.0-alpha.0-12+commit.b120a12c.dirty",
            "lllcversion" : "Version: 0.5.12-develop.2019.9.13+commit.2d601a4f.Linux.g++",
            "source" : "src/BlockchainTestsFiller/ValidBlocks/bcValidBlockTest/RecallSuicidedContractFiller.json",
            "sourceHash" : "b058240d6f6695269a70d49caa60d86223450744e74bb2c42f80edf91d2f75bf"
        },
        "blocks" : [
            {
                "blockHeader" : {
                    "bloom" : "0x00000000000000000000000000000000000000000000000000000000000000000000000000000000000000000000000000000000000000000000000000000000000000000000000000000000000000000000000000000000000000000000000000000000000000000000000000000000000000000000000000000000000000000000000000000000000000000000000000000000000000000000000000000000000000000000000000000000000000000000000000000000000000000000000000000000000000000000000000000000000000000000000000000000000000000000000000000000000000000000000000000000000000000000000000000000",
                    "coinbase" : "0x8888f1f195afa192cfee860698584c030f4c9db1",
                    "difficulty" : "0x020000",
                    "extraData" : "",
                    "gasLimit" : "0x2fefba",
                    "gasUsed" : "0x010d9c",
                    "hash" : "0xc6ff7372d4143b6392bb8f35d8301203939e065d3908b2b6ea8e7fc7bf4009f1",
                    "mixHash" : "0x0000000000000000000000000000000000000000000000000000000000000000",
                    "nonce" : "0x0000000000000000",
                    "number" : "0x01",
                    "parentHash" : "0x5a39ed1020c04d4d84539975b893a4e7c53eab6c2965db8bc3468093a31bc5ae",
                    "receiptTrie" : "0x9e1d33e32131a988cc76e7e1856e4774c47715c8b3204ce9510cf436bc38e971",
                    "stateRoot" : "0x8a767bdef9cfbe164e127fdd99fed39035ee01626efd1e8811733f8ca3b95653",
                    "timestamp" : "0x5db732e1",
                    "transactionsTrie" : "0x7f40c85c972d94c1505e6309a763cabd663665e88520dc1df9910bdb2edb80ae",
                    "uncleHash" : "0x1dcc4de8dec75d7aab85b567b6ccd41ad312451b948a7413f0a142fd40d49347"
                },
                "rlp" : "0xf902a7f901faa05a39ed1020c04d4d84539975b893a4e7c53eab6c2965db8bc3468093a31bc5aea01dcc4de8dec75d7aab85b567b6ccd41ad312451b948a7413f0a142fd40d49347948888f1f195afa192cfee860698584c030f4c9db1a08a767bdef9cfbe164e127fdd99fed39035ee01626efd1e8811733f8ca3b95653a07f40c85c972d94c1505e6309a763cabd663665e88520dc1df9910bdb2edb80aea09e1d33e32131a988cc76e7e1856e4774c47715c8b3204ce9510cf436bc38e971b90100000000000000000000000000000000000000000000000000000000000000000000000000000000000000000000000000000000000000000000000000000000000000000000000000000000000000000000000000000000000000000000000000000000000000000000000000000000000000000000000000000000000000000000000000000000000000000000000000000000000000000000000000000000000000000000000000000000000000000000000000000000000000000000000000000000000000000000000000000000000000000000000000000000000000000000000000000000000000000000000000000000000000000000000000000000008302000001832fefba83010d9c845db732e180a00000000000000000000000000000000000000000000000000000000000000000880000000000000000f8a7f8a5800a8307a1208081ffb857604b80600c6000396000f3007c01000000000000000000000000000000000000000000000000000000006000350463cbf0b0c08114602d57005b60006004358073ffffffffffffffffffffffffffffffffffffffff16ff1ca00e7d3c664c49aa9f5ce4eb76c8547450466262a78bd093160f492ea0853c68e9a03f843e72210ff1da4fd9e375339872bcf0fad05c014e280ffc755e173700dd62c0",
                "transactions" : [
                    {
                        "data" : "0x604b80600c6000396000f3007c01000000000000000000000000000000000000000000000000000000006000350463cbf0b0c08114602d57005b60006004358073ffffffffffffffffffffffffffffffffffffffff16ff",
                        "gasLimit" : "0x07a120",
                        "gasPrice" : "0x0a",
                        "nonce" : "0x00",
                        "r" : "0x0e7d3c664c49aa9f5ce4eb76c8547450466262a78bd093160f492ea0853c68e9",
                        "s" : "0x3f843e72210ff1da4fd9e375339872bcf0fad05c014e280ffc755e173700dd62",
                        "to" : "",
                        "v" : "0x1c",
                        "value" : "0xff"
                    }
                ],
                "uncleHeaders" : [
                ]
            },
            {
                "blockHeader" : {
                    "bloom" : "0x00000000000000000000000000000000000000000000000000000000000000000000000000000000000000000000000000000000000000000000000000000000000000000000000000000000000000000000000000000000000000000000000000000000000000000000000000000000000000000000000000000000000000000000000000000000000000000000000000000000000000000000000000000000000000000000000000000000000000000000000000000000000000000000000000000000000000000000000000000000000000000000000000000000000000000000000000000000000000000000000000000000000000000000000000000000",
                    "coinbase" : "0x8888f1f195afa192cfee860698584c030f4c9db1",
                    "difficulty" : "0x020040",
                    "extraData" : "",
                    "gasLimit" : "0x2fefba",
                    "gasUsed" : "0x6a6f",
                    "hash" : "0x3d8fcac8be04212ef4f5d25db79186e8ffca67c9675da25cefc0fb7d946eac2e",
                    "mixHash" : "0x0000000000000000000000000000000000000000000000000000000000000000",
                    "nonce" : "0x0000000000000000",
                    "number" : "0x02",
                    "parentHash" : "0xc6ff7372d4143b6392bb8f35d8301203939e065d3908b2b6ea8e7fc7bf4009f1",
                    "receiptTrie" : "0xc066a64a471ca7f0649e84a87d9e9e88eaaaf56638b8ed103ce78f56c39a32a4",
                    "stateRoot" : "0xa05c6ddbffce1cdc3b7d9bd79172f045a52066def55d8313db4919b33f92b25e",
                    "timestamp" : "0x5db732e2",
                    "transactionsTrie" : "0x581b9ae3564d0a429f48551804ec427b549b0f9ff92f0e2e96a4898167f82409",
                    "uncleHash" : "0x1dcc4de8dec75d7aab85b567b6ccd41ad312451b948a7413f0a142fd40d49347"
                },
                "rlp" : "0xf90285f901f9a0c6ff7372d4143b6392bb8f35d8301203939e065d3908b2b6ea8e7fc7bf4009f1a01dcc4de8dec75d7aab85b567b6ccd41ad312451b948a7413f0a142fd40d49347948888f1f195afa192cfee860698584c030f4c9db1a0a05c6ddbffce1cdc3b7d9bd79172f045a52066def55d8313db4919b33f92b25ea0581b9ae3564d0a429f48551804ec427b549b0f9ff92f0e2e96a4898167f82409a0c066a64a471ca7f0649e84a87d9e9e88eaaaf56638b8ed103ce78f56c39a32a4b90100000000000000000000000000000000000000000000000000000000000000000000000000000000000000000000000000000000000000000000000000000000000000000000000000000000000000000000000000000000000000000000000000000000000000000000000000000000000000000000000000000000000000000000000000000000000000000000000000000000000000000000000000000000000000000000000000000000000000000000000000000000000000000000000000000000000000000000000000000000000000000000000000000000000000000000000000000000000000000000000000000000000000000000000000000000008302004002832fefba826a6f845db732e280a00000000000000000000000000000000000000000000000000000000000000000880000000000000000f886f884010a8307a120946295ee1b4f6dd65047762f924ecd367c17eabf8f01a4cbf0b0c000000000000000000000000000000000000000000000000000000000000000001ba0e9f25400a2683c5323e1f0a2c1d1bbfbc7a525e861993b9f21e414acfa876df0a04e3cb018a144be08a3cf6abc8abfcb0f159190af5d697283f05b326ba59ccc10c0",
                "transactions" : [
                    {
                        "data" : "0xcbf0b0c00000000000000000000000000000000000000000000000000000000000000000",
                        "gasLimit" : "0x07a120",
                        "gasPrice" : "0x0a",
                        "nonce" : "0x01",
                        "r" : "0xe9f25400a2683c5323e1f0a2c1d1bbfbc7a525e861993b9f21e414acfa876df0",
                        "s" : "0x4e3cb018a144be08a3cf6abc8abfcb0f159190af5d697283f05b326ba59ccc10",
                        "to" : "0x6295ee1b4f6dd65047762f924ecd367c17eabf8f",
                        "v" : "0x1b",
                        "value" : "0x01"
                    }
                ],
                "uncleHeaders" : [
                ]
            },
            {
                "blockHeader" : {
                    "bloom" : "0x00000000000000000000000000000000000000000000000000000000000000000000000000000000000000000000000000000000000000000000000000000000000000000000000000000000000000000000000000000000000000000000000000000000000000000000000000000000000000000000000000000000000000000000000000000000000000000000000000000000000000000000000000000000000000000000000000000000000000000000000000000000000000000000000000000000000000000000000000000000000000000000000000000000000000000000000000000000000000000000000000000000000000000000000000000000",
                    "coinbase" : "0x8888f1f195afa192cfee860698584c030f4c9db1",
                    "difficulty" : "0x020080",
                    "extraData" : "",
                    "gasLimit" : "0x2fefba",
                    "gasUsed" : "0x531c",
                    "hash" : "0xe0a6cd808fab085a9f3a4472ddffb5bc609c2ba0ff44d4581d03d8601825fc13",
                    "mixHash" : "0x0000000000000000000000000000000000000000000000000000000000000000",
                    "nonce" : "0x0000000000000000",
                    "number" : "0x03",
                    "parentHash" : "0x3d8fcac8be04212ef4f5d25db79186e8ffca67c9675da25cefc0fb7d946eac2e",
                    "receiptTrie" : "0xd9ca566ea5f94162b2c5bcc1d132fb3f8bc8f0095249d92b9981db5b2688989c",
                    "stateRoot" : "0x8a5efeb1ea3f39eb3ede048712b4219f5497a3fbbf947d0e768eb8fd789cd5b9",
                    "timestamp" : "0x5db732e3",
                    "transactionsTrie" : "0xeb87d8102765efd55c70863ab739867ed1bd718611d2b37058d6b7ebd0941a97",
                    "uncleHash" : "0x1dcc4de8dec75d7aab85b567b6ccd41ad312451b948a7413f0a142fd40d49347"
                },
                "rlp" : "0xf90285f901f9a03d8fcac8be04212ef4f5d25db79186e8ffca67c9675da25cefc0fb7d946eac2ea01dcc4de8dec75d7aab85b567b6ccd41ad312451b948a7413f0a142fd40d49347948888f1f195afa192cfee860698584c030f4c9db1a08a5efeb1ea3f39eb3ede048712b4219f5497a3fbbf947d0e768eb8fd789cd5b9a0eb87d8102765efd55c70863ab739867ed1bd718611d2b37058d6b7ebd0941a97a0d9ca566ea5f94162b2c5bcc1d132fb3f8bc8f0095249d92b9981db5b2688989cb90100000000000000000000000000000000000000000000000000000000000000000000000000000000000000000000000000000000000000000000000000000000000000000000000000000000000000000000000000000000000000000000000000000000000000000000000000000000000000000000000000000000000000000000000000000000000000000000000000000000000000000000000000000000000000000000000000000000000000000000000000000000000000000000000000000000000000000000000000000000000000000000000000000000000000000000000000000000000000000000000000000000000000000000000000000000008302008003832fefba82531c845db732e380a00000000000000000000000000000000000000000000000000000000000000000880000000000000000f886f884020a8307a120946295ee1b4f6dd65047762f924ecd367c17eabf8f01a4cbf0b0c001100000000000110000000000000110000000000000110000000000000000111ba02db741161d0014df4fdc93cfb33867295da3b2d9bcc9af8e2d6bb478e1a877d0a0439808cf9ba3e46e97e20a05450daa2a6dca8b21fc47041b5fa492fb322f39e4c0",
                "transactions" : [
                    {
                        "data" : "0xcbf0b0c00110000000000011000000000000011000000000000011000000000000000011",
                        "gasLimit" : "0x07a120",
                        "gasPrice" : "0x0a",
                        "nonce" : "0x02",
                        "r" : "0x2db741161d0014df4fdc93cfb33867295da3b2d9bcc9af8e2d6bb478e1a877d0",
                        "s" : "0x439808cf9ba3e46e97e20a05450daa2a6dca8b21fc47041b5fa492fb322f39e4",
                        "to" : "0x6295ee1b4f6dd65047762f924ecd367c17eabf8f",
                        "v" : "0x1b",
                        "value" : "0x01"
                    }
                ],
                "uncleHeaders" : [
                ]
            }
        ],
        "genesisBlockHeader" : {
            "bloom" : "0x00000000000000000000000000000000000000000000000000000000000000000000000000000000000000000000000000000000000000000000000000000000000000000000000000000000000000000000000000000000000000000000000000000000000000000000000000000000000000000000000000000000000000000000000000000000000000000000000000000000000000000000000000000000000000000000000000000000000000000000000000000000000000000000000000000000000000000000000000000000000000000000000000000000000000000000000000000000000000000000000000000000000000000000000000000000",
            "coinbase" : "0x8888f1f195afa192cfee860698584c030f4c9db1",
            "difficulty" : "0x020000",
            "extraData" : "0x42",
            "gasLimit" : "0x2fefd8",
            "gasUsed" : "0x00",
            "hash" : "0x5a39ed1020c04d4d84539975b893a4e7c53eab6c2965db8bc3468093a31bc5ae",
            "mixHash" : "0x56e81f171bcc55a6ff8345e692c0f86e5b48e01b996cadc001622fb5e363b421",
            "nonce" : "0x0102030405060708",
            "number" : "0x00",
            "parentHash" : "0x0000000000000000000000000000000000000000000000000000000000000000",
            "receiptTrie" : "0x56e81f171bcc55a6ff8345e692c0f86e5b48e01b996cadc001622fb5e363b421",
            "stateRoot" : "0x7dba07d6b448a186e9612e5f737d1c909dce473e53199901a302c00646d523c1",
            "timestamp" : "0x54c98c81",
            "transactionsTrie" : "0x56e81f171bcc55a6ff8345e692c0f86e5b48e01b996cadc001622fb5e363b421",
            "uncleHash" : "0x1dcc4de8dec75d7aab85b567b6ccd41ad312451b948a7413f0a142fd40d49347"
        },
        "genesisRLP" : "0xf901fcf901f7a00000000000000000000000000000000000000000000000000000000000000000a01dcc4de8dec75d7aab85b567b6ccd41ad312451b948a7413f0a142fd40d49347948888f1f195afa192cfee860698584c030f4c9db1a07dba07d6b448a186e9612e5f737d1c909dce473e53199901a302c00646d523c1a056e81f171bcc55a6ff8345e692c0f86e5b48e01b996cadc001622fb5e363b421a056e81f171bcc55a6ff8345e692c0f86e5b48e01b996cadc001622fb5e363b421b90100000000000000000000000000000000000000000000000000000000000000000000000000000000000000000000000000000000000000000000000000000000000000000000000000000000000000000000000000000000000000000000000000000000000000000000000000000000000000000000000000000000000000000000000000000000000000000000000000000000000000000000000000000000000000000000000000000000000000000000000000000000000000000000000000000000000000000000000000000000000000000000000000000000000000000000000000000000000000000000000000000000000000000000000000000000008302000080832fefd8808454c98c8142a056e81f171bcc55a6ff8345e692c0f86e5b48e01b996cadc001622fb5e363b421880102030405060708c0c0",
        "lastblockhash" : "0xe0a6cd808fab085a9f3a4472ddffb5bc609c2ba0ff44d4581d03d8601825fc13",
        "network" : "Istanbul",
        "postState" : {
            "0x0000000000000000000000000000000000000000" : {
                "balance" : "0x0100",
                "code" : "",
                "nonce" : "0x00",
                "storage" : {
                }
            },
            "0x6295ee1b4f6dd65047762f924ecd367c17eabf8f" : {
                "balance" : "0x01",
                "code" : "",
                "nonce" : "0x00",
                "storage" : {
                }
            },
            "0x8888f1f195afa192cfee860698584c030f4c9db1" : {
                "balance" : "0x53444835ec69ef86",
                "code" : "",
                "nonce" : "0x00",
                "storage" : {
                }
            },
            "0xa94f5374fce5edbc8e2a8697c15331677e6ebf0b" : {
                "balance" : "0x09184e60af79",
                "code" : "",
                "nonce" : "0x03",
                "storage" : {
                }
            }
        },
        "pre" : {
            "0xa94f5374fce5edbc8e2a8697c15331677e6ebf0b" : {
                "balance" : "0x09184e72a000",
                "code" : "",
                "nonce" : "0x00",
                "storage" : {
                }
            }
        },
        "sealEngine" : "NoProof"
    }
}