{
    "RecallSuicidedContractInOneBlock_Istanbul" : {
        "_info" : {
            "comment" : "",
            "filling-rpc-server" : "Geth-1.9.11-unstable-a382d783-20200127",
            "filling-tool-version" : "retesteth-0.0.2+commit.e8723140.Linux.g++",
            "lllcversion" : "Version: 0.5.14-develop.2019.11.27+commit.8f259595.Linux.g++",
            "source" : "src/BlockchainTestsFiller/ValidBlocks/bcValidBlockTest/RecallSuicidedContractInOneBlockFiller.json",
            "sourceHash" : "b572592a59bc4d2b68bddf47fc13d93419d32a74bbdd106381085f70c0f5cff0"
        },
        "sealEngine" : "NoProof",
        "network" : "Istanbul",
        "pre" : {
            "0xa94f5374fce5edbc8e2a8697c15331677e6ebf0b" : {
                "balance" : "0x09184e72a000",
                "code" : "0x",
                "nonce" : "0x00",
                "storage" : {
                }
            }
        },
        "genesisBlockHeader" : {
            "bloom" : "0x00000000000000000000000000000000000000000000000000000000000000000000000000000000000000000000000000000000000000000000000000000000000000000000000000000000000000000000000000000000000000000000000000000000000000000000000000000000000000000000000000000000000000000000000000000000000000000000000000000000000000000000000000000000000000000000000000000000000000000000000000000000000000000000000000000000000000000000000000000000000000000000000000000000000000000000000000000000000000000000000000000000000000000000000000000000",
            "coinbase" : "0x8888f1f195afa192cfee860698584c030f4c9db1",
            "difficulty" : "0x020000",
            "extraData" : "0x42",
            "gasLimit" : "0x2fefd8",
            "gasUsed" : "0x00",
            "hash" : "0x2b253498ad5e63a16978753398bad1fde371a3e513438297b52d65dc98e1db29",
            "mixHash" : "0x0000000000000000000000000000000000000000000000000000000000000000",
            "nonce" : "0x0000000000000000",
            "number" : "0x00",
            "parentHash" : "0x0000000000000000000000000000000000000000000000000000000000000000",
            "receiptTrie" : "0x56e81f171bcc55a6ff8345e692c0f86e5b48e01b996cadc001622fb5e363b421",
            "stateRoot" : "0x7dba07d6b448a186e9612e5f737d1c909dce473e53199901a302c00646d523c1",
            "timestamp" : "0x54c98c81",
            "transactionsTrie" : "0x56e81f171bcc55a6ff8345e692c0f86e5b48e01b996cadc001622fb5e363b421",
            "uncleHash" : "0x1dcc4de8dec75d7aab85b567b6ccd41ad312451b948a7413f0a142fd40d49347"
        },
        "genesisRLP" : "0xf901fcf901f7a00000000000000000000000000000000000000000000000000000000000000000a01dcc4de8dec75d7aab85b567b6ccd41ad312451b948a7413f0a142fd40d49347948888f1f195afa192cfee860698584c030f4c9db1a07dba07d6b448a186e9612e5f737d1c909dce473e53199901a302c00646d523c1a056e81f171bcc55a6ff8345e692c0f86e5b48e01b996cadc001622fb5e363b421a056e81f171bcc55a6ff8345e692c0f86e5b48e01b996cadc001622fb5e363b421b90100000000000000000000000000000000000000000000000000000000000000000000000000000000000000000000000000000000000000000000000000000000000000000000000000000000000000000000000000000000000000000000000000000000000000000000000000000000000000000000000000000000000000000000000000000000000000000000000000000000000000000000000000000000000000000000000000000000000000000000000000000000000000000000000000000000000000000000000000000000000000000000000000000000000000000000000000000000000000000000000000000000000000000000000000000000008302000080832fefd8808454c98c8142a00000000000000000000000000000000000000000000000000000000000000000880000000000000000c0c0",
        "blocks" : [
            {
                "chainname" : "default",
                "blocknumber" : "1",
                "uncleHeaders" : [
                ],
                "blockHeader" : {
                    "bloom" : "0x00000000000000000000000000000000000000000000000000000000000000000000000000000000000000000000000000000000000000000000000000000000000000000000000000000000000000000000000000000000000000000000000000000000000000000000000000000000000000000000000000000000000000000000000000000000000000000000000000000000000000000000000000000000000000000000000000000000000000000000000000000000000000000000000000000000000000000000000000000000000000000000000000000000000000000000000000000000000000000000000000000000000000000000000000000000",
                    "coinbase" : "0x8888f1f195afa192cfee860698584c030f4c9db1",
                    "difficulty" : "0x020000",
                    "extraData" : "0x42",
                    "gasLimit" : "0x2ffbd2",
                    "gasUsed" : "0x010d9c",
                    "hash" : "0x6fb852f76716a7f0cca84efae22cc1dba52cf68720e493fae565fcfba8a3a3f1",
                    "mixHash" : "0x0000000000000000000000000000000000000000000000000000000000000000",
                    "nonce" : "0x0000000000000000",
                    "number" : "0x01",
                    "parentHash" : "0x2b253498ad5e63a16978753398bad1fde371a3e513438297b52d65dc98e1db29",
                    "receiptTrie" : "0x9e1d33e32131a988cc76e7e1856e4774c47715c8b3204ce9510cf436bc38e971",
                    "stateRoot" : "0x8a767bdef9cfbe164e127fdd99fed39035ee01626efd1e8811733f8ca3b95653",
                    "timestamp" : "0x54c99069",
                    "transactionsTrie" : "0x7f40c85c972d94c1505e6309a763cabd663665e88520dc1df9910bdb2edb80ae",
                    "uncleHash" : "0x1dcc4de8dec75d7aab85b567b6ccd41ad312451b948a7413f0a142fd40d49347"
                },
                "transactions" : [
                    {
                        "data" : "0x604b80600c6000396000f3007c01000000000000000000000000000000000000000000000000000000006000350463cbf0b0c08114602d57005b60006004358073ffffffffffffffffffffffffffffffffffffffff16ff",
                        "gasLimit" : "0x07a120",
                        "gasPrice" : "0x0a",
                        "nonce" : "0x00",
                        "r" : "0x0e7d3c664c49aa9f5ce4eb76c8547450466262a78bd093160f492ea0853c68e9",
                        "s" : "0x3f843e72210ff1da4fd9e375339872bcf0fad05c014e280ffc755e173700dd62",
                        "to" : "",
                        "v" : "0x1c",
                        "value" : "0xff"
                    }
                ],
                "rlp" : "0xf902a7f901faa02b253498ad5e63a16978753398bad1fde371a3e513438297b52d65dc98e1db29a01dcc4de8dec75d7aab85b567b6ccd41ad312451b948a7413f0a142fd40d49347948888f1f195afa192cfee860698584c030f4c9db1a08a767bdef9cfbe164e127fdd99fed39035ee01626efd1e8811733f8ca3b95653a07f40c85c972d94c1505e6309a763cabd663665e88520dc1df9910bdb2edb80aea09e1d33e32131a988cc76e7e1856e4774c47715c8b3204ce9510cf436bc38e971b90100000000000000000000000000000000000000000000000000000000000000000000000000000000000000000000000000000000000000000000000000000000000000000000000000000000000000000000000000000000000000000000000000000000000000000000000000000000000000000000000000000000000000000000000000000000000000000000000000000000000000000000000000000000000000000000000000000000000000000000000000000000000000000000000000000000000000000000000000000000000000000000000000000000000000000000000000000000000000000000000000000000000000000000000000000000008302000001832ffbd283010d9c8454c9906942a00000000000000000000000000000000000000000000000000000000000000000880000000000000000f8a7f8a5800a8307a1208081ffb857604b80600c6000396000f3007c01000000000000000000000000000000000000000000000000000000006000350463cbf0b0c08114602d57005b60006004358073ffffffffffffffffffffffffffffffffffffffff16ff1ca00e7d3c664c49aa9f5ce4eb76c8547450466262a78bd093160f492ea0853c68e9a03f843e72210ff1da4fd9e375339872bcf0fad05c014e280ffc755e173700dd62c0"
            },
            {
                "chainname" : "default",
                "blocknumber" : "2",
                "uncleHeaders" : [
                ],
                "blockHeader" : {
                    "bloom" : "0x00000000000000000000000000000000000000000000000000000000000000000000000000000000000000000000000000000000000000000000000000000000000000000000000000000000000000000000000000000000000000000000000000000000000000000000000000000000000000000000000000000000000000000000000000000000000000000000000000000000000000000000000000000000000000000000000000000000000000000000000000000000000000000000000000000000000000000000000000000000000000000000000000000000000000000000000000000000000000000000000000000000000000000000000000000000",
                    "coinbase" : "0x8888f1f195afa192cfee860698584c030f4c9db1",
                    "difficulty" : "0x020000",
                    "extraData" : "0x42",
                    "gasLimit" : "0x3007cf",
                    "gasUsed" : "0xbd8b",
                    "hash" : "0xbff4695ef2b14a7e9e12fdd8a475597d9d762db1a730cf9be48cc975ef8afdd9",
                    "mixHash" : "0x0000000000000000000000000000000000000000000000000000000000000000",
                    "nonce" : "0x0000000000000000",
                    "number" : "0x02",
                    "parentHash" : "0x6fb852f76716a7f0cca84efae22cc1dba52cf68720e493fae565fcfba8a3a3f1",
                    "receiptTrie" : "0xbbeb4f587e39862f7d826cdeb590ec36b4233c37530edf0b2cc509e43f8458c5",
                    "stateRoot" : "0x7ea66894272d1e4c296beb2285f38d3d65d51e298956b0bfc2c46004ac375ac9",
                    "timestamp" : "0x54c99451",
                    "transactionsTrie" : "0x4fe1aa9540114cce1ee19a4751bede622013e27f1025c7ef5d955f0132f978db",
                    "uncleHash" : "0x1dcc4de8dec75d7aab85b567b6ccd41ad312451b948a7413f0a142fd40d49347"
                },
                "transactions" : [
                    {
                        "data" : "0xcbf0b0c00000000000000000000000000000000000000000000000000000000000000000",
                        "gasLimit" : "0x07a120",
                        "gasPrice" : "0x0a",
                        "nonce" : "0x01",
                        "r" : "0xe9f25400a2683c5323e1f0a2c1d1bbfbc7a525e861993b9f21e414acfa876df0",
                        "s" : "0x4e3cb018a144be08a3cf6abc8abfcb0f159190af5d697283f05b326ba59ccc10",
                        "to" : "0x6295ee1b4f6dd65047762f924ecd367c17eabf8f",
                        "v" : "0x1b",
                        "value" : "0x01"
                    },
                    {
                        "data" : "0xcbf0b0c00110000000000011000000000000011000000000000011000000000000000011",
                        "gasLimit" : "0x07a120",
                        "gasPrice" : "0x0a",
                        "nonce" : "0x02",
                        "r" : "0x2db741161d0014df4fdc93cfb33867295da3b2d9bcc9af8e2d6bb478e1a877d0",
                        "s" : "0x439808cf9ba3e46e97e20a05450daa2a6dca8b21fc47041b5fa492fb322f39e4",
                        "to" : "0x6295ee1b4f6dd65047762f924ecd367c17eabf8f",
                        "v" : "0x1b",
                        "value" : "0x01"
                    }
                ],
                "rlp" : "0xf9030cf901f9a06fb852f76716a7f0cca84efae22cc1dba52cf68720e493fae565fcfba8a3a3f1a01dcc4de8dec75d7aab85b567b6ccd41ad312451b948a7413f0a142fd40d49347948888f1f195afa192cfee860698584c030f4c9db1a07ea66894272d1e4c296beb2285f38d3d65d51e298956b0bfc2c46004ac375ac9a04fe1aa9540114cce1ee19a4751bede622013e27f1025c7ef5d955f0132f978dba0bbeb4f587e39862f7d826cdeb590ec36b4233c37530edf0b2cc509e43f8458c5b90100000000000000000000000000000000000000000000000000000000000000000000000000000000000000000000000000000000000000000000000000000000000000000000000000000000000000000000000000000000000000000000000000000000000000000000000000000000000000000000000000000000000000000000000000000000000000000000000000000000000000000000000000000000000000000000000000000000000000000000000000000000000000000000000000000000000000000000000000000000000000000000000000000000000000000000000000000000000000000000000000000000000000000000000000000000008302000002833007cf82bd8b8454c9945142a00000000000000000000000000000000000000000000000000000000000000000880000000000000000f9010cf884010a8307a120946295ee1b4f6dd65047762f924ecd367c17eabf8f01a4cbf0b0c000000000000000000000000000000000000000000000000000000000000000001ba0e9f25400a2683c5323e1f0a2c1d1bbfbc7a525e861993b9f21e414acfa876df0a04e3cb018a144be08a3cf6abc8abfcb0f159190af5d697283f05b326ba59ccc10f884020a8307a120946295ee1b4f6dd65047762f924ecd367c17eabf8f01a4cbf0b0c001100000000000110000000000000110000000000000110000000000000000111ba02db741161d0014df4fdc93cfb33867295da3b2d9bcc9af8e2d6bb478e1a877d0a0439808cf9ba3e46e97e20a05450daa2a6dca8b21fc47041b5fa492fb322f39e4c0"
            }
        ],
        "postState" : {
            "0xa94f5374fce5edbc8e2a8697c15331677e6ebf0b" : {
                "code" : "0x",
                "nonce" : "0x03",
                "balance" : "0x09184e60af79",
                "storage" : {
                }
            },
            "0x0000000000000000000000000000000000000000" : {
                "code" : "0x",
                "nonce" : "0x00",
                "balance" : "0x0100",
                "storage" : {
                }
            },
            "0x8888f1f195afa192cfee860698584c030f4c9db1" : {
                "code" : "0x",
                "nonce" : "0x00",
                "balance" : "0x3782dace9da1ef86",
                "storage" : {
                }
            },
            "0x6295ee1b4f6dd65047762f924ecd367c17eabf8f" : {
                "code" : "0x",
                "nonce" : "0x00",
                "balance" : "0x01",
                "storage" : {
                }
            }
        },
        "lastblockhash" : "0xbff4695ef2b14a7e9e12fdd8a475597d9d762db1a730cf9be48cc975ef8afdd9"
    }
}