{
    "SimpleTx3LowS_Istanbul" : {
        "_info" : {
            "comment" : "",
            "filling-rpc-server" : "Geth-1.9.11-unstable-a382d783-20200127",
            "filling-tool-version" : "retesteth-0.0.2+commit.e8723140.Linux.g++",
            "lllcversion" : "Version: 0.5.14-develop.2019.11.27+commit.8f259595.Linux.g++",
            "source" : "src/BlockchainTestsFiller/ValidBlocks/bcValidBlockTest/SimpleTx3LowSFiller.json",
            "sourceHash" : "6ab9bea42f951298c7098808a42b6a2f23916654a5b60940d19934f9e9c586ba"
        },
        "sealEngine" : "NoProof",
        "network" : "Istanbul",
        "pre" : {
            "0x6f3a65fb0c93b075018ef11cc89b06a8b7ee923f" : {
                "balance" : "0x02540be400",
                "code" : "0x",
                "nonce" : "0x03",
                "storage" : {
                }
            },
            "0xa94f5374fce5edbc8e2a8697c15331677e6ebf0b" : {
                "balance" : "0x02540be400",
                "code" : "0x",
                "nonce" : "0x00",
                "storage" : {
                }
            },
            "0xe7d4d35b9338397b905b272e8079bfca8ce334ca" : {
                "balance" : "0x02540be400",
                "code" : "0x",
                "nonce" : "0x00",
                "storage" : {
                }
            }
        },
        "genesisBlockHeader" : {
            "bloom" : "0x00000000000000000000000000000000000000000000000000000000000000000000000000000000000000000000000000000000000000000000000000000000000000000000000000000000000000000000000000000000000000000000000000000000000000000000000000000000000000000000000000000000000000000000000000000000000000000000000000000000000000000000000000000000000000000000000000000000000000000000000000000000000000000000000000000000000000000000000000000000000000000000000000000000000000000000000000000000000000000000000000000000000000000000000000000000",
            "coinbase" : "0x8888f1f195afa192cfee860698584c030f4c9db1",
            "difficulty" : "0x020000",
            "extraData" : "0x42",
            "gasLimit" : "0x2fefd8",
            "gasUsed" : "0x00",
            "hash" : "0x713b33453ea88bcf546ea13524801a950e3d532e2d9f76229173c88c0c94992c",
            "mixHash" : "0x0000000000000000000000000000000000000000000000000000000000000000",
            "nonce" : "0x0000000000000000",
            "number" : "0x00",
            "parentHash" : "0x0000000000000000000000000000000000000000000000000000000000000000",
            "receiptTrie" : "0x56e81f171bcc55a6ff8345e692c0f86e5b48e01b996cadc001622fb5e363b421",
            "stateRoot" : "0x7b9b73ded2b385dce4d4b4fba2cf2da9e93910b0ef52287a76c89083a9c75952",
            "timestamp" : "0x54c98c81",
            "transactionsTrie" : "0x56e81f171bcc55a6ff8345e692c0f86e5b48e01b996cadc001622fb5e363b421",
            "uncleHash" : "0x1dcc4de8dec75d7aab85b567b6ccd41ad312451b948a7413f0a142fd40d49347"
        },
        "genesisRLP" : "0xf901fcf901f7a00000000000000000000000000000000000000000000000000000000000000000a01dcc4de8dec75d7aab85b567b6ccd41ad312451b948a7413f0a142fd40d49347948888f1f195afa192cfee860698584c030f4c9db1a07b9b73ded2b385dce4d4b4fba2cf2da9e93910b0ef52287a76c89083a9c75952a056e81f171bcc55a6ff8345e692c0f86e5b48e01b996cadc001622fb5e363b421a056e81f171bcc55a6ff8345e692c0f86e5b48e01b996cadc001622fb5e363b421b90100000000000000000000000000000000000000000000000000000000000000000000000000000000000000000000000000000000000000000000000000000000000000000000000000000000000000000000000000000000000000000000000000000000000000000000000000000000000000000000000000000000000000000000000000000000000000000000000000000000000000000000000000000000000000000000000000000000000000000000000000000000000000000000000000000000000000000000000000000000000000000000000000000000000000000000000000000000000000000000000000000000000000000000000000000000008302000080832fefd8808454c98c8142a00000000000000000000000000000000000000000000000000000000000000000880000000000000000c0c0",
        "blocks" : [
            {
                "chainname" : "default",
                "blocknumber" : "1",
                "uncleHeaders" : [
                ],
                "blockHeader" : {
                    "bloom" : "0x00000000000000000000000000000000000000000000000000000000000000000000000000000000000000000000000000000000000000000000000000000000000000000000000000000000000000000000000000000000000000000000000000000000000000000000000000000000000000000000000000000000000000000000000000000000000000000000000000000000000000000000000000000000000000000000000000000000000000000000000000000000000000000000000000000000000000000000000000000000000000000000000000000000000000000000000000000000000000000000000000000000000000000000000000000000",
                    "coinbase" : "0x8888f1f195afa192cfee860698584c030f4c9db1",
                    "difficulty" : "0x020000",
                    "extraData" : "0x42",
                    "gasLimit" : "0x2ffbd2",
                    "gasUsed" : "0xf618",
                    "hash" : "0x13b9c03fa5f87a9e6d8914d6fda74e90941ff0a4d3254033f1587b47686e4455",
                    "mixHash" : "0x0000000000000000000000000000000000000000000000000000000000000000",
                    "nonce" : "0x0000000000000000",
                    "number" : "0x01",
                    "parentHash" : "0x713b33453ea88bcf546ea13524801a950e3d532e2d9f76229173c88c0c94992c",
                    "receiptTrie" : "0x251f2cb798e965c5d9b11c882f37c69fd2c42b314fabe64d2b4998c76eb93ae8",
                    "stateRoot" : "0x2fc6ade2b26e029d43763a4ef694abc034437524713726372f152688bcc5cd5e",
                    "timestamp" : "0x54c99069",
                    "transactionsTrie" : "0x657cc9dda5d5d7ce33b511f457270f98c4cfd1e1b7fcd6b9265f28500454f759",
                    "uncleHash" : "0x1dcc4de8dec75d7aab85b567b6ccd41ad312451b948a7413f0a142fd40d49347"
                },
                "transactions" : [
                    {
                        "data" : "0x",
                        "gasLimit" : "0xc350",
                        "gasPrice" : "0x0a",
                        "nonce" : "0x00",
                        "r" : "0xf3266921c93d600c43f6fa4724b7abae079b35b9e95df592f95f9f3445e94c88",
                        "s" : "0x12f977552ebdb7a492cf35f3106df16ccb4576ebad4113056ee1f52cbe4978c1",
                        "to" : "0x095e7baea6a6c7c4c2dfeb977efac326af552d87",
                        "v" : "0x1b",
                        "value" : "0x0a"
                    },
                    {
                        "data" : "0x",
                        "gasLimit" : "0x5208",
                        "gasPrice" : "0x01",
                        "nonce" : "0x00",
                        "r" : "0x98ff921201554726367d2be8c804a7ff89ccf285ebc57dff8ae4c44b9c19ac4a",
                        "s" : "0x7fffffffffffffffffffffffffffffff5d576e7357a4501ddfe92f46681b10a0",
                        "to" : "0x000000000000000000000000000b9331677e6ebf",
                        "v" : "0x1c",
                        "value" : "0x14"
                    },
                    {
                        "data" : "0x",
                        "gasLimit" : "0x5208",
                        "gasPrice" : "0x01",
                        "nonce" : "0x03",
                        "r" : "0x98ff921201554726367d2be8c804a7ff89ccf285ebc57dff8ae4c44b9c19ac4a",
                        "s" : "0x7fffffffffffffffffffffffffffffff5d576e7357a4501ddfe92f46681b10a0",
                        "to" : "0xb94f5374fce5edbc8e2a8697c15331677e6ebf0b",
                        "v" : "0x1c",
                        "value" : "0x1e"
                    }
                ],
                "rlp" : "0xf90323f901f9a0713b33453ea88bcf546ea13524801a950e3d532e2d9f76229173c88c0c94992ca01dcc4de8dec75d7aab85b567b6ccd41ad312451b948a7413f0a142fd40d49347948888f1f195afa192cfee860698584c030f4c9db1a02fc6ade2b26e029d43763a4ef694abc034437524713726372f152688bcc5cd5ea0657cc9dda5d5d7ce33b511f457270f98c4cfd1e1b7fcd6b9265f28500454f759a0251f2cb798e965c5d9b11c882f37c69fd2c42b314fabe64d2b4998c76eb93ae8b90100000000000000000000000000000000000000000000000000000000000000000000000000000000000000000000000000000000000000000000000000000000000000000000000000000000000000000000000000000000000000000000000000000000000000000000000000000000000000000000000000000000000000000000000000000000000000000000000000000000000000000000000000000000000000000000000000000000000000000000000000000000000000000000000000000000000000000000000000000000000000000000000000000000000000000000000000000000000000000000000000000000000000000000000000000000008302000001832ffbd282f6188454c9906942a00000000000000000000000000000000000000000000000000000000000000000880000000000000000f90123f85f800a82c35094095e7baea6a6c7c4c2dfeb977efac326af552d870a801ba0f3266921c93d600c43f6fa4724b7abae079b35b9e95df592f95f9f3445e94c88a012f977552ebdb7a492cf35f3106df16ccb4576ebad4113056ee1f52cbe4978c1f85f800182520894000000000000000000000000000b9331677e6ebf14801ca098ff921201554726367d2be8c804a7ff89ccf285ebc57dff8ae4c44b9c19ac4aa07fffffffffffffffffffffffffffffff5d576e7357a4501ddfe92f46681b10a0f85f030182520894b94f5374fce5edbc8e2a8697c15331677e6ebf0b1e801ca098ff921201554726367d2be8c804a7ff89ccf285ebc57dff8ae4c44b9c19ac4aa07fffffffffffffffffffffffffffffff5d576e7357a4501ddfe92f46681b10a0c0"
            }
        ],
        "postState" : {
            "0xa94f5374fce5edbc8e2a8697c15331677e6ebf0b" : {
                "code" : "0x",
                "nonce" : "0x01",
                "balance" : "0x025408afa6",
                "storage" : {
                }
            },
            "0x095e7baea6a6c7c4c2dfeb977efac326af552d87" : {
                "code" : "0x",
                "nonce" : "0x00",
                "balance" : "0x0a",
                "storage" : {
                }
            },
            "0xe7d4d35b9338397b905b272e8079bfca8ce334ca" : {
                "code" : "0x",
                "nonce" : "0x01",
                "balance" : "0x02540b91e4",
                "storage" : {
                }
            },
            "0x6f3a65fb0c93b075018ef11cc89b06a8b7ee923f" : {
                "code" : "0x",
                "nonce" : "0x04",
                "balance" : "0x02540b91da",
                "storage" : {
                }
            },
            "0x000000000000000000000000000b9331677e6ebf" : {
                "code" : "0x",
                "nonce" : "0x00",
                "balance" : "0x14",
                "storage" : {
                }
            },
            "0x8888f1f195afa192cfee860698584c030f4c9db1" : {
                "code" : "0x",
                "nonce" : "0x00",
                "balance" : "0x1bc16d674ecbd860",
                "storage" : {
                }
            },
            "0xb94f5374fce5edbc8e2a8697c15331677e6ebf0b" : {
                "code" : "0x",
                "nonce" : "0x00",
                "balance" : "0x1e",
                "storage" : {
                }
            }
        },
        "lastblockhash" : "0x13b9c03fa5f87a9e6d8914d6fda74e90941ff0a4d3254033f1587b47686e4455"
    }
}