{
    "create2collisionwithSelfdestructSameBlock_Constantinople" : {
        "_info" : {
            "comment" : "collision with address that has been selfdesturcted by another transaction in the same block",
            "filledwith" : "testeth 1.6.0-alpha.0-12+commit.05b55e64",
            "lllcversion" : "Version: 0.5.0-develop.2018.11.9+commit.9709dfe0.Linux.g++",
            "source" : "src/BlockchainTestsFiller/bcStateTests/create2collisionwithSelfdestructSameBlockFiller.json",
            "sourceHash" : "0faf5ce2d3db19bda4385cccf8e9ccaea9e108f94d353db9010305c3e3c9070d"
        },
        "blocks" : [
            {
                "blockHeader" : {
                    "bloom" : "0x00000000000000000000000000000000000000000000000000000000000000000000000000000000000000000000000000000000000000000000000000000000000000000000000000000000000000000000000000000000000000000000000000000000000000000000000000000000000000000000000000000000000000000000000000000000000000000000000000000000000000000000000000000000000000000000000000000000000000000000000000000000000000000000000000000000000000000000000000000000000000000000000000000000000000000000000000000000000000000000000000000000000000000000000000000000",
                    "coinbase" : "0x8888f1f195afa192cfee860698584c030f4c9db1",
                    "difficulty" : "0x020000",
                    "extraData" : "",
                    "gasLimit" : "0x2fefba",
                    "gasUsed" : "0x01b6f3",
                    "hash" : "0x5cb5c141fddcd42810d721c2382fa67adcaf11eb29b0433d4193fb845ecf23c5",
                    "mixHash" : "0x0000000000000000000000000000000000000000000000000000000000000000",
                    "nonce" : "0x0000000000000000",
                    "number" : "0x01",
                    "parentHash" : "0x36750291f1a8429aeb553a790dc2d149d04dbba0ca4cfc7fd5eb12d478117c9f",
                    "receiptTrie" : "0xe8e2ce84e12ec67439103ffa365e13ffea2c6f10c90b783e34d033b3ce56752e",
                    "stateRoot" : "0x35516e7616a3526b67f4d92b11b0e6969a6d15a32d1bb0da7a7773377c9327f0",
                    "timestamp" : "0x5c477015",
                    "transactionsTrie" : "0xe43a3d032e8c63ea45d7237fb886a5c009fd50277c3a6d5f4ff96801497dd87d",
                    "uncleHash" : "0x1dcc4de8dec75d7aab85b567b6ccd41ad312451b948a7413f0a142fd40d49347"
                },
                "rlp" : "0xf902b9f901faa036750291f1a8429aeb553a790dc2d149d04dbba0ca4cfc7fd5eb12d478117c9fa01dcc4de8dec75d7aab85b567b6ccd41ad312451b948a7413f0a142fd40d49347948888f1f195afa192cfee860698584c030f4c9db1a035516e7616a3526b67f4d92b11b0e6969a6d15a32d1bb0da7a7773377c9327f0a0e43a3d032e8c63ea45d7237fb886a5c009fd50277c3a6d5f4ff96801497dd87da0e8e2ce84e12ec67439103ffa365e13ffea2c6f10c90b783e34d033b3ce56752eb90100000000000000000000000000000000000000000000000000000000000000000000000000000000000000000000000000000000000000000000000000000000000000000000000000000000000000000000000000000000000000000000000000000000000000000000000000000000000000000000000000000000000000000000000000000000000000000000000000000000000000000000000000000000000000000000000000000000000000000000000000000000000000000000000000000000000000000000000000000000000000000000000000000000000000000000000000000000000000000000000000000000000000000000000000000000008302000001832fefba8301b6f3845c47701580a00000000000000000000000000000000000000000000000000000000000000000880000000000000000f8b9f8608001830249f094ec0e71ad0a90ffe1909d27dac207f7680abba42d80801ba03d666b40cc93bea89201058674c2f1eb50ff5e50eeea2dca60f9ce367a736d7ea0760ee620e6a73d7ea93f00664a108aedb9dd0c0bd6a57ee9b5bbce0bd76606b2f8550101830249f0800a896000600060006000f51ba048eadf8a79c2f5f001f58745dafc4cda11460e7f40661fbae3f48b7ef055134ca049a83ce358e2d8c1b2e10772a6a23e939305032138aca1e4c40c6b41ccfdc3f9c0",
                "transactions" : [
                    {
                        "data" : "0x",
                        "gasLimit" : "0x0249f0",
                        "gasPrice" : "0x01",
                        "nonce" : "0x00",
                        "r" : "0x3d666b40cc93bea89201058674c2f1eb50ff5e50eeea2dca60f9ce367a736d7e",
                        "s" : "0x760ee620e6a73d7ea93f00664a108aedb9dd0c0bd6a57ee9b5bbce0bd76606b2",
                        "to" : "0xec0e71ad0a90ffe1909d27dac207f7680abba42d",
                        "v" : "0x1b",
                        "value" : "0x00"
                    },
                    {
                        "data" : "0x6000600060006000f5",
                        "gasLimit" : "0x0249f0",
                        "gasPrice" : "0x01",
                        "nonce" : "0x01",
                        "r" : "0x48eadf8a79c2f5f001f58745dafc4cda11460e7f40661fbae3f48b7ef055134c",
                        "s" : "0x49a83ce358e2d8c1b2e10772a6a23e939305032138aca1e4c40c6b41ccfdc3f9",
                        "to" : "",
                        "v" : "0x1b",
                        "value" : "0x0a"
                    }
                ],
                "uncleHeaders" : [
                ]
            }
        ],
        "genesisBlockHeader" : {
            "bloom" : "0x00000000000000000000000000000000000000000000000000000000000000000000000000000000000000000000000000000000000000000000000000000000000000000000000000000000000000000000000000000000000000000000000000000000000000000000000000000000000000000000000000000000000000000000000000000000000000000000000000000000000000000000000000000000000000000000000000000000000000000000000000000000000000000000000000000000000000000000000000000000000000000000000000000000000000000000000000000000000000000000000000000000000000000000000000000000",
            "coinbase" : "0x8888f1f195afa192cfee860698584c030f4c9db1",
            "difficulty" : "0x020000",
            "extraData" : "0x42",
            "gasLimit" : "0x2fefd8",
            "gasUsed" : "0x00",
            "hash" : "0x36750291f1a8429aeb553a790dc2d149d04dbba0ca4cfc7fd5eb12d478117c9f",
            "mixHash" : "0x56e81f171bcc55a6ff8345e692c0f86e5b48e01b996cadc001622fb5e363b421",
            "nonce" : "0x0102030405060708",
            "number" : "0x00",
            "parentHash" : "0x0000000000000000000000000000000000000000000000000000000000000000",
            "receiptTrie" : "0x56e81f171bcc55a6ff8345e692c0f86e5b48e01b996cadc001622fb5e363b421",
            "stateRoot" : "0x5fb6fa65cd732c5dbab686f22ffd97ccc70f8ff9bbc4e308dfbf99b4bfb3d4f1",
            "timestamp" : "0x54c98c81",
            "transactionsTrie" : "0x56e81f171bcc55a6ff8345e692c0f86e5b48e01b996cadc001622fb5e363b421",
            "uncleHash" : "0x1dcc4de8dec75d7aab85b567b6ccd41ad312451b948a7413f0a142fd40d49347"
        },
        "genesisRLP" : "0xf901fcf901f7a00000000000000000000000000000000000000000000000000000000000000000a01dcc4de8dec75d7aab85b567b6ccd41ad312451b948a7413f0a142fd40d49347948888f1f195afa192cfee860698584c030f4c9db1a05fb6fa65cd732c5dbab686f22ffd97ccc70f8ff9bbc4e308dfbf99b4bfb3d4f1a056e81f171bcc55a6ff8345e692c0f86e5b48e01b996cadc001622fb5e363b421a056e81f171bcc55a6ff8345e692c0f86e5b48e01b996cadc001622fb5e363b421b90100000000000000000000000000000000000000000000000000000000000000000000000000000000000000000000000000000000000000000000000000000000000000000000000000000000000000000000000000000000000000000000000000000000000000000000000000000000000000000000000000000000000000000000000000000000000000000000000000000000000000000000000000000000000000000000000000000000000000000000000000000000000000000000000000000000000000000000000000000000000000000000000000000000000000000000000000000000000000000000000000000000000000000000000000000000008302000080832fefd8808454c98c8142a056e81f171bcc55a6ff8345e692c0f86e5b48e01b996cadc001622fb5e363b421880102030405060708c0c0",
        "lastblockhash" : "0x5cb5c141fddcd42810d721c2382fa67adcaf11eb29b0433d4193fb845ecf23c5",
        "network" : "Constantinople",
        "postState" : {
            "0x0000000000000000000000000000000000000010" : {
                "balance" : "0x01",
                "code" : "",
                "nonce" : "0x00",
                "storage" : {
                }
            },
            "0x22a4ec9c035f66874f234c3a5bc7e18073e89057" : {
                "balance" : "0x00",
                "code" : "",
                "nonce" : "0x01",
                "storage" : {
                }
            },
            "0x8888f1f195afa192cfee860698584c030f4c9db1" : {
                "balance" : "0x1bc16d674ec9b6f3",
                "code" : "",
                "nonce" : "0x00",
                "storage" : {
                }
            },
            "0xa94f5374fce5edbc8e2a8697c15331677e6ebf0b" : {
                "balance" : "0x0de0b6b3a7624903",
                "code" : "",
                "nonce" : "0x02",
                "storage" : {
                }
            },
            "0xec0e71ad0a90ffe1909d27dac207f7680abba42d" : {
                "balance" : "0x0a",
                "code" : "",
                "nonce" : "0x02",
                "storage" : {
                }
            }
        },
        "pre" : {
            "0xa94f5374fce5edbc8e2a8697c15331677e6ebf0b" : {
                "balance" : "0x0de0b6b3a7640000",
                "code" : "",
                "nonce" : "0x00",
                "storage" : {
                }
            },
            "0xec0e71ad0a90ffe1909d27dac207f7680abba42d" : {
                "balance" : "0x01",
                "code" : "0x6010ff",
                "nonce" : "0x03",
                "storage" : {
                }
            }
        },
        "sealEngine" : "NoProof"
    },
    "create2collisionwithSelfdestructSameBlock_ConstantinopleFix" : {
        "_info" : {
            "comment" : "collision with address that has been selfdesturcted by another transaction in the same block",
            "filledwith" : "testeth 1.6.0-alpha.0-12+commit.05b55e64",
            "lllcversion" : "Version: 0.5.0-develop.2018.11.9+commit.9709dfe0.Linux.g++",
            "source" : "src/BlockchainTestsFiller/bcStateTests/create2collisionwithSelfdestructSameBlockFiller.json",
            "sourceHash" : "0faf5ce2d3db19bda4385cccf8e9ccaea9e108f94d353db9010305c3e3c9070d"
        },
        "blocks" : [
            {
                "blockHeader" : {
                    "bloom" : "0x00000000000000000000000000000000000000000000000000000000000000000000000000000000000000000000000000000000000000000000000000000000000000000000000000000000000000000000000000000000000000000000000000000000000000000000000000000000000000000000000000000000000000000000000000000000000000000000000000000000000000000000000000000000000000000000000000000000000000000000000000000000000000000000000000000000000000000000000000000000000000000000000000000000000000000000000000000000000000000000000000000000000000000000000000000000",
                    "coinbase" : "0x8888f1f195afa192cfee860698584c030f4c9db1",
                    "difficulty" : "0x020000",
                    "extraData" : "",
                    "gasLimit" : "0x2fefba",
                    "gasUsed" : "0x01b6f3",
                    "hash" : "0x5cb5c141fddcd42810d721c2382fa67adcaf11eb29b0433d4193fb845ecf23c5",
                    "mixHash" : "0x0000000000000000000000000000000000000000000000000000000000000000",
                    "nonce" : "0x0000000000000000",
                    "number" : "0x01",
                    "parentHash" : "0x36750291f1a8429aeb553a790dc2d149d04dbba0ca4cfc7fd5eb12d478117c9f",
                    "receiptTrie" : "0xe8e2ce84e12ec67439103ffa365e13ffea2c6f10c90b783e34d033b3ce56752e",
                    "stateRoot" : "0x35516e7616a3526b67f4d92b11b0e6969a6d15a32d1bb0da7a7773377c9327f0",
                    "timestamp" : "0x5c477015",
                    "transactionsTrie" : "0xe43a3d032e8c63ea45d7237fb886a5c009fd50277c3a6d5f4ff96801497dd87d",
                    "uncleHash" : "0x1dcc4de8dec75d7aab85b567b6ccd41ad312451b948a7413f0a142fd40d49347"
                },
                "rlp" : "0xf902b9f901faa036750291f1a8429aeb553a790dc2d149d04dbba0ca4cfc7fd5eb12d478117c9fa01dcc4de8dec75d7aab85b567b6ccd41ad312451b948a7413f0a142fd40d49347948888f1f195afa192cfee860698584c030f4c9db1a035516e7616a3526b67f4d92b11b0e6969a6d15a32d1bb0da7a7773377c9327f0a0e43a3d032e8c63ea45d7237fb886a5c009fd50277c3a6d5f4ff96801497dd87da0e8e2ce84e12ec67439103ffa365e13ffea2c6f10c90b783e34d033b3ce56752eb90100000000000000000000000000000000000000000000000000000000000000000000000000000000000000000000000000000000000000000000000000000000000000000000000000000000000000000000000000000000000000000000000000000000000000000000000000000000000000000000000000000000000000000000000000000000000000000000000000000000000000000000000000000000000000000000000000000000000000000000000000000000000000000000000000000000000000000000000000000000000000000000000000000000000000000000000000000000000000000000000000000000000000000000000000000000008302000001832fefba8301b6f3845c47701580a00000000000000000000000000000000000000000000000000000000000000000880000000000000000f8b9f8608001830249f094ec0e71ad0a90ffe1909d27dac207f7680abba42d80801ba03d666b40cc93bea89201058674c2f1eb50ff5e50eeea2dca60f9ce367a736d7ea0760ee620e6a73d7ea93f00664a108aedb9dd0c0bd6a57ee9b5bbce0bd76606b2f8550101830249f0800a896000600060006000f51ba048eadf8a79c2f5f001f58745dafc4cda11460e7f40661fbae3f48b7ef055134ca049a83ce358e2d8c1b2e10772a6a23e939305032138aca1e4c40c6b41ccfdc3f9c0",
                "transactions" : [
                    {
                        "data" : "0x",
                        "gasLimit" : "0x0249f0",
                        "gasPrice" : "0x01",
                        "nonce" : "0x00",
                        "r" : "0x3d666b40cc93bea89201058674c2f1eb50ff5e50eeea2dca60f9ce367a736d7e",
                        "s" : "0x760ee620e6a73d7ea93f00664a108aedb9dd0c0bd6a57ee9b5bbce0bd76606b2",
                        "to" : "0xec0e71ad0a90ffe1909d27dac207f7680abba42d",
                        "v" : "0x1b",
                        "value" : "0x00"
                    },
                    {
                        "data" : "0x6000600060006000f5",
                        "gasLimit" : "0x0249f0",
                        "gasPrice" : "0x01",
                        "nonce" : "0x01",
                        "r" : "0x48eadf8a79c2f5f001f58745dafc4cda11460e7f40661fbae3f48b7ef055134c",
                        "s" : "0x49a83ce358e2d8c1b2e10772a6a23e939305032138aca1e4c40c6b41ccfdc3f9",
                        "to" : "",
                        "v" : "0x1b",
                        "value" : "0x0a"
                    }
                ],
                "uncleHeaders" : [
                ]
            }
        ],
        "genesisBlockHeader" : {
            "bloom" : "0x00000000000000000000000000000000000000000000000000000000000000000000000000000000000000000000000000000000000000000000000000000000000000000000000000000000000000000000000000000000000000000000000000000000000000000000000000000000000000000000000000000000000000000000000000000000000000000000000000000000000000000000000000000000000000000000000000000000000000000000000000000000000000000000000000000000000000000000000000000000000000000000000000000000000000000000000000000000000000000000000000000000000000000000000000000000",
            "coinbase" : "0x8888f1f195afa192cfee860698584c030f4c9db1",
            "difficulty" : "0x020000",
            "extraData" : "0x42",
            "gasLimit" : "0x2fefd8",
            "gasUsed" : "0x00",
            "hash" : "0x36750291f1a8429aeb553a790dc2d149d04dbba0ca4cfc7fd5eb12d478117c9f",
            "mixHash" : "0x56e81f171bcc55a6ff8345e692c0f86e5b48e01b996cadc001622fb5e363b421",
            "nonce" : "0x0102030405060708",
            "number" : "0x00",
            "parentHash" : "0x0000000000000000000000000000000000000000000000000000000000000000",
            "receiptTrie" : "0x56e81f171bcc55a6ff8345e692c0f86e5b48e01b996cadc001622fb5e363b421",
            "stateRoot" : "0x5fb6fa65cd732c5dbab686f22ffd97ccc70f8ff9bbc4e308dfbf99b4bfb3d4f1",
            "timestamp" : "0x54c98c81",
            "transactionsTrie" : "0x56e81f171bcc55a6ff8345e692c0f86e5b48e01b996cadc001622fb5e363b421",
            "uncleHash" : "0x1dcc4de8dec75d7aab85b567b6ccd41ad312451b948a7413f0a142fd40d49347"
        },
        "genesisRLP" : "0xf901fcf901f7a00000000000000000000000000000000000000000000000000000000000000000a01dcc4de8dec75d7aab85b567b6ccd41ad312451b948a7413f0a142fd40d49347948888f1f195afa192cfee860698584c030f4c9db1a05fb6fa65cd732c5dbab686f22ffd97ccc70f8ff9bbc4e308dfbf99b4bfb3d4f1a056e81f171bcc55a6ff8345e692c0f86e5b48e01b996cadc001622fb5e363b421a056e81f171bcc55a6ff8345e692c0f86e5b48e01b996cadc001622fb5e363b421b90100000000000000000000000000000000000000000000000000000000000000000000000000000000000000000000000000000000000000000000000000000000000000000000000000000000000000000000000000000000000000000000000000000000000000000000000000000000000000000000000000000000000000000000000000000000000000000000000000000000000000000000000000000000000000000000000000000000000000000000000000000000000000000000000000000000000000000000000000000000000000000000000000000000000000000000000000000000000000000000000000000000000000000000000000000000008302000080832fefd8808454c98c8142a056e81f171bcc55a6ff8345e692c0f86e5b48e01b996cadc001622fb5e363b421880102030405060708c0c0",
        "lastblockhash" : "0x5cb5c141fddcd42810d721c2382fa67adcaf11eb29b0433d4193fb845ecf23c5",
        "network" : "ConstantinopleFix",
        "postState" : {
            "0x0000000000000000000000000000000000000010" : {
                "balance" : "0x01",
                "code" : "",
                "nonce" : "0x00",
                "storage" : {
                }
            },
            "0x22a4ec9c035f66874f234c3a5bc7e18073e89057" : {
                "balance" : "0x00",
                "code" : "",
                "nonce" : "0x01",
                "storage" : {
                }
            },
            "0x8888f1f195afa192cfee860698584c030f4c9db1" : {
                "balance" : "0x1bc16d674ec9b6f3",
                "code" : "",
                "nonce" : "0x00",
                "storage" : {
                }
            },
            "0xa94f5374fce5edbc8e2a8697c15331677e6ebf0b" : {
                "balance" : "0x0de0b6b3a7624903",
                "code" : "",
                "nonce" : "0x02",
                "storage" : {
                }
            },
            "0xec0e71ad0a90ffe1909d27dac207f7680abba42d" : {
                "balance" : "0x0a",
                "code" : "",
                "nonce" : "0x02",
                "storage" : {
                }
            }
        },
        "pre" : {
            "0xa94f5374fce5edbc8e2a8697c15331677e6ebf0b" : {
                "balance" : "0x0de0b6b3a7640000",
                "code" : "",
                "nonce" : "0x00",
                "storage" : {
                }
            },
            "0xec0e71ad0a90ffe1909d27dac207f7680abba42d" : {
                "balance" : "0x01",
                "code" : "0x6010ff",
                "nonce" : "0x03",
                "storage" : {
                }
            }
        },
        "sealEngine" : "NoProof"
    }
}