{
    "randomStatetest94_Byzantium" : {
        "_info" : {
            "comment" : "test takes a lot for time because of sha3 calculation on a huge range",
            "filledwith" : "testeth 1.7.0-alpha.0+commit.fe75b954.dirty",
            "lllcversion" : "Version: 0.5.0-develop.2018.11.9+commit.9709dfe0.Linux.g++",
            "source" : "src/BlockchainTestsFiller/bcStateTests/randomStatetest94Filler.json",
            "sourceHash" : "8df0216215d65c32cdff5adff87468c82d6eee79b412d158ba66329c4fbdd0ae"
        },
        "blocks" : [
            {
                "blockHeader" : {
                    "bloom" : "0x00000000000000000000000000000000000000000000000000000000000000000000000000000000000000000000000000000000000000000000000000000000000000000000000000000000000000000000000000000000000000000000000000000000000000000000000000000000000000000000000000000000000000000000000000000000000000000000000000000000000000000000000000000000000000000000000000000000000000000000000000000000000000000000000000000000000000000000000000000000000000000000000000000000000000000000000000000000000000000000000000000000000000000000000000000000",
                    "coinbase" : "0x945304eb96065b2a98b57a48a06ae28d285a71b5",
                    "difficulty" : "0x020000",
                    "extraData" : "",
                    "gasLimit" : "0x7fe0000000000001",
                    "gasUsed" : "0x043c2da44482",
                    "hash" : "0xd1bfefbdc0247c32aff5282d8b5ab6c16daa168073ba193b4b599074ea2497b3",
                    "mixHash" : "0x0000000000000000000000000000000000000000000000000000000000000000",
                    "nonce" : "0x0000000000000000",
                    "number" : "0x01",
                    "parentHash" : "0xbda2b7e466e793f456294003aee1e702d77e89d852c3d8aa0c1971877356baca",
                    "receiptTrie" : "0x37c7f1033f5161e2dd8319275edb1854ea3cd145dcd52e92597140e8826c57b4",
                    "stateRoot" : "0xecf958365d0157680a391875009dcde2471fea74c5cea2dd2902090e45f02c8d",
                    "timestamp" : "0x5d207859",
                    "transactionsTrie" : "0x74bf1dc886ea419650c420eab7ad6b89d4227d5450b369fdbd8f6ca305c43106",
                    "uncleHash" : "0x1dcc4de8dec75d7aab85b567b6ccd41ad312451b948a7413f0a142fd40d49347"
                },
                "rlp" : "0xf90272f90202a0bda2b7e466e793f456294003aee1e702d77e89d852c3d8aa0c1971877356bacaa01dcc4de8dec75d7aab85b567b6ccd41ad312451b948a7413f0a142fd40d4934794945304eb96065b2a98b57a48a06ae28d285a71b5a0ecf958365d0157680a391875009dcde2471fea74c5cea2dd2902090e45f02c8da074bf1dc886ea419650c420eab7ad6b89d4227d5450b369fdbd8f6ca305c43106a037c7f1033f5161e2dd8319275edb1854ea3cd145dcd52e92597140e8826c57b4b90100000000000000000000000000000000000000000000000000000000000000000000000000000000000000000000000000000000000000000000000000000000000000000000000000000000000000000000000000000000000000000000000000000000000000000000000000000000000000000000000000000000000000000000000000000000000000000000000000000000000000000000000000000000000000000000000000000000000000000000000000000000000000000000000000000000000000000000000000000000000000000000000000000000000000000000000000000000000000000000000000000000000000000000000000000000008302000001887fe000000000000186043c2da44482845d20785980a00000000000000000000000000000000000000000000000000000000000000000880000000000000000f86af8688001887effffffffffffff94095e7baea6a6c7c4c2dfeb977efac326af552d87830186a0421ba04c2cdd77d6f05279603e0f2106bff4a0e515e0886a7f9776c663188d68e5f256a0769f54af0f4518bb7b6511d5412c7e288f42bd68bfc5f5a34838787a6cb1cb2fc0",
                "transactions" : [
                    {
                        "data" : "0x42",
                        "gasLimit" : "0x7effffffffffffff",
                        "gasPrice" : "0x01",
                        "nonce" : "0x00",
                        "r" : "0x4c2cdd77d6f05279603e0f2106bff4a0e515e0886a7f9776c663188d68e5f256",
                        "s" : "0x769f54af0f4518bb7b6511d5412c7e288f42bd68bfc5f5a34838787a6cb1cb2f",
                        "to" : "0x095e7baea6a6c7c4c2dfeb977efac326af552d87",
                        "v" : "0x1b",
                        "value" : "0x0186a0"
                    }
                ],
                "uncleHeaders" : [
                ]
            }
        ],
        "genesisBlockHeader" : {
            "bloom" : "0x00000000000000000000000000000000000000000000000000000000000000000000000000000000000000000000000000000000000000000000000000000000000000000000000000000000000000000000000000000000000000000000000000000000000000000000000000000000000000000000000000000000000000000000000000000000000000000000000000000000000000000000000000000000000000000000000000000000000000000000000000000000000000000000000000000000000000000000000000000000000000000000000000000000000000000000000000000000000000000000000000000000000000000000000000000000",
            "coinbase" : "0x945304eb96065b2a98b57a48a06ae28d285a71b5",
            "difficulty" : "0x020000",
            "extraData" : "0x42",
            "gasLimit" : "0x7fffffffffffffff",
            "gasUsed" : "0x00",
            "hash" : "0xbda2b7e466e793f456294003aee1e702d77e89d852c3d8aa0c1971877356baca",
            "mixHash" : "0x56e81f171bcc55a6ff8345e692c0f86e5b48e01b996cadc001622fb5e363b421",
            "nonce" : "0x0102030405060708",
            "number" : "0x00",
            "parentHash" : "0x0000000000000000000000000000000000000000000000000000000000000000",
            "receiptTrie" : "0x56e81f171bcc55a6ff8345e692c0f86e5b48e01b996cadc001622fb5e363b421",
            "stateRoot" : "0xbf1e18a2ebf3f848274535afad70b63dcadba191df444d24b7a1a88a2a633a53",
            "timestamp" : "0x03e8",
            "transactionsTrie" : "0x56e81f171bcc55a6ff8345e692c0f86e5b48e01b996cadc001622fb5e363b421",
            "uncleHash" : "0x1dcc4de8dec75d7aab85b567b6ccd41ad312451b948a7413f0a142fd40d49347"
        },
        "genesisRLP" : "0xf901fff901faa00000000000000000000000000000000000000000000000000000000000000000a01dcc4de8dec75d7aab85b567b6ccd41ad312451b948a7413f0a142fd40d4934794945304eb96065b2a98b57a48a06ae28d285a71b5a0bf1e18a2ebf3f848274535afad70b63dcadba191df444d24b7a1a88a2a633a53a056e81f171bcc55a6ff8345e692c0f86e5b48e01b996cadc001622fb5e363b421a056e81f171bcc55a6ff8345e692c0f86e5b48e01b996cadc001622fb5e363b421b90100000000000000000000000000000000000000000000000000000000000000000000000000000000000000000000000000000000000000000000000000000000000000000000000000000000000000000000000000000000000000000000000000000000000000000000000000000000000000000000000000000000000000000000000000000000000000000000000000000000000000000000000000000000000000000000000000000000000000000000000000000000000000000000000000000000000000000000000000000000000000000000000000000000000000000000000000000000000000000000000000000000000000000000000000000000008302000080887fffffffffffffff808203e842a056e81f171bcc55a6ff8345e692c0f86e5b48e01b996cadc001622fb5e363b421880102030405060708c0c0",
        "lastblockhash" : "0xd1bfefbdc0247c32aff5282d8b5ab6c16daa168073ba193b4b599074ea2497b3",
        "network" : "Byzantium",
        "postState" : {
            "0x095e7baea6a6c7c4c2dfeb977efac326af552d87" : {
                "balance" : "0x0de0b6b3a76586a0",
                "code" : "0x44444243204555",
                "nonce" : "0x00",
                "storage" : {
                    "0x7fe0000000000001" : "0xcc55dc2ef68d690a804ca551216a4a0bcbeec0f028fd4ae9000e5ee644eba443"
                }
            },
            "0x945304eb96065b2a98b57a48a06ae28d285a71b5" : {
                "balance" : "0x29a2285723d044b0",
                "code" : "0x6000355415600957005b60203560003555",
                "nonce" : "0x00",
                "storage" : {
                }
            },
            "0xa94f5374fce5edbc8e2a8697c15331677e6ebf0b" : {
                "balance" : "0x0845951613fd0c1c5a34de",
                "code" : "",
                "nonce" : "0x01",
                "storage" : {
                }
            }
        },
        "pre" : {
            "0x095e7baea6a6c7c4c2dfeb977efac326af552d87" : {
                "balance" : "0x0de0b6b3a7640000",
                "code" : "0x44444243204555",
                "nonce" : "0x00",
                "storage" : {
                }
            },
            "0x945304eb96065b2a98b57a48a06ae28d285a71b5" : {
                "balance" : "0x2e",
                "code" : "0x6000355415600957005b60203560003555",
                "nonce" : "0x00",
                "storage" : {
                }
            },
            "0xa94f5374fce5edbc8e2a8697c15331677e6ebf0b" : {
                "balance" : "0x084595161401484a000000",
                "code" : "",
                "nonce" : "0x00",
                "storage" : {
                }
            }
        },
        "sealEngine" : "NoProof"
    },
    "randomStatetest94_Constantinople" : {
        "_info" : {
            "comment" : "test takes a lot for time because of sha3 calculation on a huge range",
            "filledwith" : "testeth 1.7.0-alpha.0+commit.fe75b954.dirty",
            "lllcversion" : "Version: 0.5.0-develop.2018.11.9+commit.9709dfe0.Linux.g++",
            "source" : "src/BlockchainTestsFiller/bcStateTests/randomStatetest94Filler.json",
            "sourceHash" : "8df0216215d65c32cdff5adff87468c82d6eee79b412d158ba66329c4fbdd0ae"
        },
        "blocks" : [
            {
                "blockHeader" : {
                    "bloom" : "0x00000000000000000000000000000000000000000000000000000000000000000000000000000000000000000000000000000000000000000000000000000000000000000000000000000000000000000000000000000000000000000000000000000000000000000000000000000000000000000000000000000000000000000000000000000000000000000000000000000000000000000000000000000000000000000000000000000000000000000000000000000000000000000000000000000000000000000000000000000000000000000000000000000000000000000000000000000000000000000000000000000000000000000000000000000000",
                    "coinbase" : "0x945304eb96065b2a98b57a48a06ae28d285a71b5",
                    "difficulty" : "0x020000",
                    "extraData" : "",
                    "gasLimit" : "0x7fe0000000000001",
                    "gasUsed" : "0x043c2da72d8f",
                    "hash" : "0x3ee259ec74241120d23e6b628df77d58532cb064b72e983c5881364801108b5b",
                    "mixHash" : "0x0000000000000000000000000000000000000000000000000000000000000000",
                    "nonce" : "0x0000000000000000",
                    "number" : "0x01",
                    "parentHash" : "0xbda2b7e466e793f456294003aee1e702d77e89d852c3d8aa0c1971877356baca",
                    "receiptTrie" : "0xc55c2fefdb1a19e46ff574938ed8bd654a833dc9531fbdc63c59e7a89be418d9",
                    "stateRoot" : "0x90d331d2ba4a5ebdc46d2836e6f5afd50d539b4ef65f9de39510d987331649c4",
                    "timestamp" : "0x5d20786b",
                    "transactionsTrie" : "0x74bf1dc886ea419650c420eab7ad6b89d4227d5450b369fdbd8f6ca305c43106",
                    "uncleHash" : "0x1dcc4de8dec75d7aab85b567b6ccd41ad312451b948a7413f0a142fd40d49347"
                },
                "rlp" : "0xf90272f90202a0bda2b7e466e793f456294003aee1e702d77e89d852c3d8aa0c1971877356bacaa01dcc4de8dec75d7aab85b567b6ccd41ad312451b948a7413f0a142fd40d4934794945304eb96065b2a98b57a48a06ae28d285a71b5a090d331d2ba4a5ebdc46d2836e6f5afd50d539b4ef65f9de39510d987331649c4a074bf1dc886ea419650c420eab7ad6b89d4227d5450b369fdbd8f6ca305c43106a0c55c2fefdb1a19e46ff574938ed8bd654a833dc9531fbdc63c59e7a89be418d9b90100000000000000000000000000000000000000000000000000000000000000000000000000000000000000000000000000000000000000000000000000000000000000000000000000000000000000000000000000000000000000000000000000000000000000000000000000000000000000000000000000000000000000000000000000000000000000000000000000000000000000000000000000000000000000000000000000000000000000000000000000000000000000000000000000000000000000000000000000000000000000000000000000000000000000000000000000000000000000000000000000000000000000000000000000000000008302000001887fe000000000000186043c2da72d8f845d20786b80a00000000000000000000000000000000000000000000000000000000000000000880000000000000000f86af8688001887effffffffffffff94095e7baea6a6c7c4c2dfeb977efac326af552d87830186a0421ba04c2cdd77d6f05279603e0f2106bff4a0e515e0886a7f9776c663188d68e5f256a0769f54af0f4518bb7b6511d5412c7e288f42bd68bfc5f5a34838787a6cb1cb2fc0",
                "transactions" : [
                    {
                        "data" : "0x42",
                        "gasLimit" : "0x7effffffffffffff",
                        "gasPrice" : "0x01",
                        "nonce" : "0x00",
                        "r" : "0x4c2cdd77d6f05279603e0f2106bff4a0e515e0886a7f9776c663188d68e5f256",
                        "s" : "0x769f54af0f4518bb7b6511d5412c7e288f42bd68bfc5f5a34838787a6cb1cb2f",
                        "to" : "0x095e7baea6a6c7c4c2dfeb977efac326af552d87",
                        "v" : "0x1b",
                        "value" : "0x0186a0"
                    }
                ],
                "uncleHeaders" : [
                ]
            }
        ],
        "genesisBlockHeader" : {
            "bloom" : "0x00000000000000000000000000000000000000000000000000000000000000000000000000000000000000000000000000000000000000000000000000000000000000000000000000000000000000000000000000000000000000000000000000000000000000000000000000000000000000000000000000000000000000000000000000000000000000000000000000000000000000000000000000000000000000000000000000000000000000000000000000000000000000000000000000000000000000000000000000000000000000000000000000000000000000000000000000000000000000000000000000000000000000000000000000000000",
            "coinbase" : "0x945304eb96065b2a98b57a48a06ae28d285a71b5",
            "difficulty" : "0x020000",
            "extraData" : "0x42",
            "gasLimit" : "0x7fffffffffffffff",
            "gasUsed" : "0x00",
            "hash" : "0xbda2b7e466e793f456294003aee1e702d77e89d852c3d8aa0c1971877356baca",
            "mixHash" : "0x56e81f171bcc55a6ff8345e692c0f86e5b48e01b996cadc001622fb5e363b421",
            "nonce" : "0x0102030405060708",
            "number" : "0x00",
            "parentHash" : "0x0000000000000000000000000000000000000000000000000000000000000000",
            "receiptTrie" : "0x56e81f171bcc55a6ff8345e692c0f86e5b48e01b996cadc001622fb5e363b421",
            "stateRoot" : "0xbf1e18a2ebf3f848274535afad70b63dcadba191df444d24b7a1a88a2a633a53",
            "timestamp" : "0x03e8",
            "transactionsTrie" : "0x56e81f171bcc55a6ff8345e692c0f86e5b48e01b996cadc001622fb5e363b421",
            "uncleHash" : "0x1dcc4de8dec75d7aab85b567b6ccd41ad312451b948a7413f0a142fd40d49347"
        },
        "genesisRLP" : "0xf901fff901faa00000000000000000000000000000000000000000000000000000000000000000a01dcc4de8dec75d7aab85b567b6ccd41ad312451b948a7413f0a142fd40d4934794945304eb96065b2a98b57a48a06ae28d285a71b5a0bf1e18a2ebf3f848274535afad70b63dcadba191df444d24b7a1a88a2a633a53a056e81f171bcc55a6ff8345e692c0f86e5b48e01b996cadc001622fb5e363b421a056e81f171bcc55a6ff8345e692c0f86e5b48e01b996cadc001622fb5e363b421b90100000000000000000000000000000000000000000000000000000000000000000000000000000000000000000000000000000000000000000000000000000000000000000000000000000000000000000000000000000000000000000000000000000000000000000000000000000000000000000000000000000000000000000000000000000000000000000000000000000000000000000000000000000000000000000000000000000000000000000000000000000000000000000000000000000000000000000000000000000000000000000000000000000000000000000000000000000000000000000000000000000000000000000000000000000000008302000080887fffffffffffffff808203e842a056e81f171bcc55a6ff8345e692c0f86e5b48e01b996cadc001622fb5e363b421880102030405060708c0c0",
        "lastblockhash" : "0x3ee259ec74241120d23e6b628df77d58532cb064b72e983c5881364801108b5b",
        "network" : "Constantinople",
        "postState" : {
            "0x095e7baea6a6c7c4c2dfeb977efac326af552d87" : {
                "balance" : "0x0de0b6b3a76586a0",
                "code" : "0x44444243204555",
                "nonce" : "0x00",
                "storage" : {
                    "0x7fe0000000000001" : "0x18a859be152c77912ef9908b8361a67ad424a073529cb009caae4c5c881bea88"
                }
            },
            "0x945304eb96065b2a98b57a48a06ae28d285a71b5" : {
                "balance" : "0x1bc171a37c6f2dbd",
                "code" : "0x6000355415600957005b60203560003555",
                "nonce" : "0x00",
                "storage" : {
                }
            },
            "0xa94f5374fce5edbc8e2a8697c15331677e6ebf0b" : {
                "balance" : "0x0845951613fd0c1c574bd1",
                "code" : "",
                "nonce" : "0x01",
                "storage" : {
                }
            }
        },
        "pre" : {
            "0x095e7baea6a6c7c4c2dfeb977efac326af552d87" : {
                "balance" : "0x0de0b6b3a7640000",
                "code" : "0x44444243204555",
                "nonce" : "0x00",
                "storage" : {
                }
            },
            "0x945304eb96065b2a98b57a48a06ae28d285a71b5" : {
                "balance" : "0x2e",
                "code" : "0x6000355415600957005b60203560003555",
                "nonce" : "0x00",
                "storage" : {
                }
            },
            "0xa94f5374fce5edbc8e2a8697c15331677e6ebf0b" : {
                "balance" : "0x084595161401484a000000",
                "code" : "",
                "nonce" : "0x00",
                "storage" : {
                }
            }
        },
        "sealEngine" : "NoProof"
    },
    "randomStatetest94_ConstantinopleFix" : {
        "_info" : {
            "comment" : "test takes a lot for time because of sha3 calculation on a huge range",
            "filledwith" : "testeth 1.7.0-alpha.0+commit.fe75b954.dirty",
            "lllcversion" : "Version: 0.5.0-develop.2018.11.9+commit.9709dfe0.Linux.g++",
            "source" : "src/BlockchainTestsFiller/bcStateTests/randomStatetest94Filler.json",
            "sourceHash" : "8df0216215d65c32cdff5adff87468c82d6eee79b412d158ba66329c4fbdd0ae"
        },
        "blocks" : [
            {
                "blockHeader" : {
                    "bloom" : "0x00000000000000000000000000000000000000000000000000000000000000000000000000000000000000000000000000000000000000000000000000000000000000000000000000000000000000000000000000000000000000000000000000000000000000000000000000000000000000000000000000000000000000000000000000000000000000000000000000000000000000000000000000000000000000000000000000000000000000000000000000000000000000000000000000000000000000000000000000000000000000000000000000000000000000000000000000000000000000000000000000000000000000000000000000000000",
                    "coinbase" : "0x945304eb96065b2a98b57a48a06ae28d285a71b5",
                    "difficulty" : "0x020000",
                    "extraData" : "",
                    "gasLimit" : "0x7fe0000000000001",
                    "gasUsed" : "0x043c2da72d8f",
                    "hash" : "0xfd05b2d26d001104e8f63470a56eda6f547fb01fc83197820bb4df71348ef417",
                    "mixHash" : "0x0000000000000000000000000000000000000000000000000000000000000000",
                    "nonce" : "0x0000000000000000",
                    "number" : "0x01",
                    "parentHash" : "0xbda2b7e466e793f456294003aee1e702d77e89d852c3d8aa0c1971877356baca",
                    "receiptTrie" : "0xc55c2fefdb1a19e46ff574938ed8bd654a833dc9531fbdc63c59e7a89be418d9",
                    "stateRoot" : "0x12e16e59eb57e5e10c98fb530295e8b4b23a99ac3ba98710d81deb9a0387c138",
                    "timestamp" : "0x5d20787d",
                    "transactionsTrie" : "0x74bf1dc886ea419650c420eab7ad6b89d4227d5450b369fdbd8f6ca305c43106",
                    "uncleHash" : "0x1dcc4de8dec75d7aab85b567b6ccd41ad312451b948a7413f0a142fd40d49347"
                },
                "rlp" : "0xf90272f90202a0bda2b7e466e793f456294003aee1e702d77e89d852c3d8aa0c1971877356bacaa01dcc4de8dec75d7aab85b567b6ccd41ad312451b948a7413f0a142fd40d4934794945304eb96065b2a98b57a48a06ae28d285a71b5a012e16e59eb57e5e10c98fb530295e8b4b23a99ac3ba98710d81deb9a0387c138a074bf1dc886ea419650c420eab7ad6b89d4227d5450b369fdbd8f6ca305c43106a0c55c2fefdb1a19e46ff574938ed8bd654a833dc9531fbdc63c59e7a89be418d9b90100000000000000000000000000000000000000000000000000000000000000000000000000000000000000000000000000000000000000000000000000000000000000000000000000000000000000000000000000000000000000000000000000000000000000000000000000000000000000000000000000000000000000000000000000000000000000000000000000000000000000000000000000000000000000000000000000000000000000000000000000000000000000000000000000000000000000000000000000000000000000000000000000000000000000000000000000000000000000000000000000000000000000000000000000000000008302000001887fe000000000000186043c2da72d8f845d20787d80a00000000000000000000000000000000000000000000000000000000000000000880000000000000000f86af8688001887effffffffffffff94095e7baea6a6c7c4c2dfeb977efac326af552d87830186a0421ba04c2cdd77d6f05279603e0f2106bff4a0e515e0886a7f9776c663188d68e5f256a0769f54af0f4518bb7b6511d5412c7e288f42bd68bfc5f5a34838787a6cb1cb2fc0",
                "transactions" : [
                    {
                        "data" : "0x42",
                        "gasLimit" : "0x7effffffffffffff",
                        "gasPrice" : "0x01",
                        "nonce" : "0x00",
                        "r" : "0x4c2cdd77d6f05279603e0f2106bff4a0e515e0886a7f9776c663188d68e5f256",
                        "s" : "0x769f54af0f4518bb7b6511d5412c7e288f42bd68bfc5f5a34838787a6cb1cb2f",
                        "to" : "0x095e7baea6a6c7c4c2dfeb977efac326af552d87",
                        "v" : "0x1b",
                        "value" : "0x0186a0"
                    }
                ],
                "uncleHeaders" : [
                ]
            }
        ],
        "genesisBlockHeader" : {
            "bloom" : "0x00000000000000000000000000000000000000000000000000000000000000000000000000000000000000000000000000000000000000000000000000000000000000000000000000000000000000000000000000000000000000000000000000000000000000000000000000000000000000000000000000000000000000000000000000000000000000000000000000000000000000000000000000000000000000000000000000000000000000000000000000000000000000000000000000000000000000000000000000000000000000000000000000000000000000000000000000000000000000000000000000000000000000000000000000000000",
            "coinbase" : "0x945304eb96065b2a98b57a48a06ae28d285a71b5",
            "difficulty" : "0x020000",
            "extraData" : "0x42",
            "gasLimit" : "0x7fffffffffffffff",
            "gasUsed" : "0x00",
            "hash" : "0xbda2b7e466e793f456294003aee1e702d77e89d852c3d8aa0c1971877356baca",
            "mixHash" : "0x56e81f171bcc55a6ff8345e692c0f86e5b48e01b996cadc001622fb5e363b421",
            "nonce" : "0x0102030405060708",
            "number" : "0x00",
            "parentHash" : "0x0000000000000000000000000000000000000000000000000000000000000000",
            "receiptTrie" : "0x56e81f171bcc55a6ff8345e692c0f86e5b48e01b996cadc001622fb5e363b421",
            "stateRoot" : "0xbf1e18a2ebf3f848274535afad70b63dcadba191df444d24b7a1a88a2a633a53",
            "timestamp" : "0x03e8",
            "transactionsTrie" : "0x56e81f171bcc55a6ff8345e692c0f86e5b48e01b996cadc001622fb5e363b421",
            "uncleHash" : "0x1dcc4de8dec75d7aab85b567b6ccd41ad312451b948a7413f0a142fd40d49347"
        },
        "genesisRLP" : "0xf901fff901faa00000000000000000000000000000000000000000000000000000000000000000a01dcc4de8dec75d7aab85b567b6ccd41ad312451b948a7413f0a142fd40d4934794945304eb96065b2a98b57a48a06ae28d285a71b5a0bf1e18a2ebf3f848274535afad70b63dcadba191df444d24b7a1a88a2a633a53a056e81f171bcc55a6ff8345e692c0f86e5b48e01b996cadc001622fb5e363b421a056e81f171bcc55a6ff8345e692c0f86e5b48e01b996cadc001622fb5e363b421b90100000000000000000000000000000000000000000000000000000000000000000000000000000000000000000000000000000000000000000000000000000000000000000000000000000000000000000000000000000000000000000000000000000000000000000000000000000000000000000000000000000000000000000000000000000000000000000000000000000000000000000000000000000000000000000000000000000000000000000000000000000000000000000000000000000000000000000000000000000000000000000000000000000000000000000000000000000000000000000000000000000000000000000000000000000000008302000080887fffffffffffffff808203e842a056e81f171bcc55a6ff8345e692c0f86e5b48e01b996cadc001622fb5e363b421880102030405060708c0c0",
        "lastblockhash" : "0xfd05b2d26d001104e8f63470a56eda6f547fb01fc83197820bb4df71348ef417",
        "network" : "ConstantinopleFix",
        "postState" : {
            "0x095e7baea6a6c7c4c2dfeb977efac326af552d87" : {
                "balance" : "0x0de0b6b3a76586a0",
                "code" : "0x44444243204555",
                "nonce" : "0x00",
                "storage" : {
                    "0x7fe0000000000001" : "0x19b32ba7e15c2602e4aedc6b7bb68cafac71fe424143f3d1d7d6cdef82e99e47"
                }
            },
            "0x945304eb96065b2a98b57a48a06ae28d285a71b5" : {
                "balance" : "0x1bc171a37c6f2dbd",
                "code" : "0x6000355415600957005b60203560003555",
                "nonce" : "0x00",
                "storage" : {
                }
            },
            "0xa94f5374fce5edbc8e2a8697c15331677e6ebf0b" : {
                "balance" : "0x0845951613fd0c1c574bd1",
                "code" : "",
                "nonce" : "0x01",
                "storage" : {
                }
            }
        },
        "pre" : {
            "0x095e7baea6a6c7c4c2dfeb977efac326af552d87" : {
                "balance" : "0x0de0b6b3a7640000",
                "code" : "0x44444243204555",
                "nonce" : "0x00",
                "storage" : {
                }
            },
            "0x945304eb96065b2a98b57a48a06ae28d285a71b5" : {
                "balance" : "0x2e",
                "code" : "0x6000355415600957005b60203560003555",
                "nonce" : "0x00",
                "storage" : {
                }
            },
            "0xa94f5374fce5edbc8e2a8697c15331677e6ebf0b" : {
                "balance" : "0x084595161401484a000000",
                "code" : "",
                "nonce" : "0x00",
                "storage" : {
                }
            }
        },
        "sealEngine" : "NoProof"
    },
    "randomStatetest94_Homestead" : {
        "_info" : {
            "comment" : "test takes a lot for time because of sha3 calculation on a huge range",
            "filledwith" : "testeth 1.7.0-alpha.0+commit.fe75b954.dirty",
            "lllcversion" : "Version: 0.5.0-develop.2018.11.9+commit.9709dfe0.Linux.g++",
            "source" : "src/BlockchainTestsFiller/bcStateTests/randomStatetest94Filler.json",
            "sourceHash" : "8df0216215d65c32cdff5adff87468c82d6eee79b412d158ba66329c4fbdd0ae"
        },
        "blocks" : [
            {
                "blockHeader" : {
                    "bloom" : "0x00000000000000000000000000000000000000000000000000000000000000000000000000000000000000000000000000000000000000000000000000000000000000000000000000000000000000000000000000000000000000000000000000000000000000000000000000000000000000000000000000000000000000000000000000000000000000000000000000000000000000000000000000000000000000000000000000000000000000000000000000000000000000000000000000000000000000000000000000000000000000000000000000000000000000000000000000000000000000000000000000000000000000000000000000000000",
                    "coinbase" : "0x945304eb96065b2a98b57a48a06ae28d285a71b5",
                    "difficulty" : "0x020000",
                    "extraData" : "",
                    "gasLimit" : "0x7fe0000000000001",
                    "gasUsed" : "0x043c2da44482",
                    "hash" : "0x710ee515538941009aabb7b006afd72e216632ec3acc5a72f8f7e40149987e8c",
                    "mixHash" : "0x0000000000000000000000000000000000000000000000000000000000000000",
                    "nonce" : "0x0000000000000000",
                    "number" : "0x01",
                    "parentHash" : "0xbda2b7e466e793f456294003aee1e702d77e89d852c3d8aa0c1971877356baca",
                    "receiptTrie" : "0x2139e1c74b1166a9766afafc777ed2b08f61793e85058a51b3a2e65cec4e8b31",
                    "stateRoot" : "0x71560b12aeffdd8bdfc30a7efa8189e96884b03f747dbd8391e505aaf2ebf43d",
                    "timestamp" : "0x5d207847",
                    "transactionsTrie" : "0x74bf1dc886ea419650c420eab7ad6b89d4227d5450b369fdbd8f6ca305c43106",
                    "uncleHash" : "0x1dcc4de8dec75d7aab85b567b6ccd41ad312451b948a7413f0a142fd40d49347"
                },
                "rlp" : "0xf90272f90202a0bda2b7e466e793f456294003aee1e702d77e89d852c3d8aa0c1971877356bacaa01dcc4de8dec75d7aab85b567b6ccd41ad312451b948a7413f0a142fd40d4934794945304eb96065b2a98b57a48a06ae28d285a71b5a071560b12aeffdd8bdfc30a7efa8189e96884b03f747dbd8391e505aaf2ebf43da074bf1dc886ea419650c420eab7ad6b89d4227d5450b369fdbd8f6ca305c43106a02139e1c74b1166a9766afafc777ed2b08f61793e85058a51b3a2e65cec4e8b31b90100000000000000000000000000000000000000000000000000000000000000000000000000000000000000000000000000000000000000000000000000000000000000000000000000000000000000000000000000000000000000000000000000000000000000000000000000000000000000000000000000000000000000000000000000000000000000000000000000000000000000000000000000000000000000000000000000000000000000000000000000000000000000000000000000000000000000000000000000000000000000000000000000000000000000000000000000000000000000000000000000000000000000000000000000000000008302000001887fe000000000000186043c2da44482845d20784780a00000000000000000000000000000000000000000000000000000000000000000880000000000000000f86af8688001887effffffffffffff94095e7baea6a6c7c4c2dfeb977efac326af552d87830186a0421ba04c2cdd77d6f05279603e0f2106bff4a0e515e0886a7f9776c663188d68e5f256a0769f54af0f4518bb7b6511d5412c7e288f42bd68bfc5f5a34838787a6cb1cb2fc0",
                "transactions" : [
                    {
                        "data" : "0x42",
                        "gasLimit" : "0x7effffffffffffff",
                        "gasPrice" : "0x01",
                        "nonce" : "0x00",
                        "r" : "0x4c2cdd77d6f05279603e0f2106bff4a0e515e0886a7f9776c663188d68e5f256",
                        "s" : "0x769f54af0f4518bb7b6511d5412c7e288f42bd68bfc5f5a34838787a6cb1cb2f",
                        "to" : "0x095e7baea6a6c7c4c2dfeb977efac326af552d87",
                        "v" : "0x1b",
                        "value" : "0x0186a0"
                    }
                ],
                "uncleHeaders" : [
                ]
            }
        ],
        "genesisBlockHeader" : {
            "bloom" : "0x00000000000000000000000000000000000000000000000000000000000000000000000000000000000000000000000000000000000000000000000000000000000000000000000000000000000000000000000000000000000000000000000000000000000000000000000000000000000000000000000000000000000000000000000000000000000000000000000000000000000000000000000000000000000000000000000000000000000000000000000000000000000000000000000000000000000000000000000000000000000000000000000000000000000000000000000000000000000000000000000000000000000000000000000000000000",
            "coinbase" : "0x945304eb96065b2a98b57a48a06ae28d285a71b5",
            "difficulty" : "0x020000",
            "extraData" : "0x42",
            "gasLimit" : "0x7fffffffffffffff",
            "gasUsed" : "0x00",
            "hash" : "0xbda2b7e466e793f456294003aee1e702d77e89d852c3d8aa0c1971877356baca",
            "mixHash" : "0x56e81f171bcc55a6ff8345e692c0f86e5b48e01b996cadc001622fb5e363b421",
            "nonce" : "0x0102030405060708",
            "number" : "0x00",
            "parentHash" : "0x0000000000000000000000000000000000000000000000000000000000000000",
            "receiptTrie" : "0x56e81f171bcc55a6ff8345e692c0f86e5b48e01b996cadc001622fb5e363b421",
            "stateRoot" : "0xbf1e18a2ebf3f848274535afad70b63dcadba191df444d24b7a1a88a2a633a53",
            "timestamp" : "0x03e8",
            "transactionsTrie" : "0x56e81f171bcc55a6ff8345e692c0f86e5b48e01b996cadc001622fb5e363b421",
            "uncleHash" : "0x1dcc4de8dec75d7aab85b567b6ccd41ad312451b948a7413f0a142fd40d49347"
        },
        "genesisRLP" : "0xf901fff901faa00000000000000000000000000000000000000000000000000000000000000000a01dcc4de8dec75d7aab85b567b6ccd41ad312451b948a7413f0a142fd40d4934794945304eb96065b2a98b57a48a06ae28d285a71b5a0bf1e18a2ebf3f848274535afad70b63dcadba191df444d24b7a1a88a2a633a53a056e81f171bcc55a6ff8345e692c0f86e5b48e01b996cadc001622fb5e363b421a056e81f171bcc55a6ff8345e692c0f86e5b48e01b996cadc001622fb5e363b421b90100000000000000000000000000000000000000000000000000000000000000000000000000000000000000000000000000000000000000000000000000000000000000000000000000000000000000000000000000000000000000000000000000000000000000000000000000000000000000000000000000000000000000000000000000000000000000000000000000000000000000000000000000000000000000000000000000000000000000000000000000000000000000000000000000000000000000000000000000000000000000000000000000000000000000000000000000000000000000000000000000000000000000000000000000000000008302000080887fffffffffffffff808203e842a056e81f171bcc55a6ff8345e692c0f86e5b48e01b996cadc001622fb5e363b421880102030405060708c0c0",
        "lastblockhash" : "0x710ee515538941009aabb7b006afd72e216632ec3acc5a72f8f7e40149987e8c",
        "network" : "Homestead",
        "postState" : {
            "0x095e7baea6a6c7c4c2dfeb977efac326af552d87" : {
                "balance" : "0x0de0b6b3a76586a0",
                "code" : "0x44444243204555",
                "nonce" : "0x00",
                "storage" : {
                    "0x7fe0000000000001" : "0xbb3b713805fd745251527b77573442016fcbc5669ba5cf063d5657d361f6db77"
                }
            },
            "0x945304eb96065b2a98b57a48a06ae28d285a71b5" : {
                "balance" : "0x456395be729844b0",
                "code" : "0x6000355415600957005b60203560003555",
                "nonce" : "0x00",
                "storage" : {
                }
            },
            "0xa94f5374fce5edbc8e2a8697c15331677e6ebf0b" : {
                "balance" : "0x0845951613fd0c1c5a34de",
                "code" : "",
                "nonce" : "0x01",
                "storage" : {
                }
            }
        },
        "pre" : {
            "0x095e7baea6a6c7c4c2dfeb977efac326af552d87" : {
                "balance" : "0x0de0b6b3a7640000",
                "code" : "0x44444243204555",
                "nonce" : "0x00",
                "storage" : {
                }
            },
            "0x945304eb96065b2a98b57a48a06ae28d285a71b5" : {
                "balance" : "0x2e",
                "code" : "0x6000355415600957005b60203560003555",
                "nonce" : "0x00",
                "storage" : {
                }
            },
            "0xa94f5374fce5edbc8e2a8697c15331677e6ebf0b" : {
                "balance" : "0x084595161401484a000000",
                "code" : "",
                "nonce" : "0x00",
                "storage" : {
                }
            }
        },
        "sealEngine" : "NoProof"
    }
}