{
    "suicideStorageCheck_Byzantium" : {
        "_info" : {
            "comment" : "[2:21:10] Vitalik Buterin: (i) set storage key 1 of contract C to 3. (ii) self-destruct contract C. (iii) in the next transaction create contract C, and read its storage key.  I - via transaction create.",
            "filledwith" : "testeth 1.6.0-alpha.0-12+commit.05b55e64",
            "lllcversion" : "Version: 0.5.0-develop.2018.11.9+commit.9709dfe0.Linux.g++",
            "source" : "src/BlockchainTestsFiller/bcStateTests/suicideStorageCheckFiller.json",
            "sourceHash" : "df5c506c017622a894f1edbee97006be110e3c3beb429b8b2e21ab7e77030b0f"
        },
        "blocks" : [
            {
                "blockHeader" : {
                    "bloom" : "0x00000000000000000000000000000000000000000000000000000000000000000000000000000000000000000000000000000000000000000000000000000000000000000000000000000000000000000000000000000000000000000000000000000000000000000000000000000000000000000000000000000000000000000000000000000000000000000000000000000000000000000000000000000000000000000000000000000000000000000000000000000000000000000000000000000000000000000000000000000000000000000000000000000000000000000000000000000000000000000000000000000000000000000000000000000000",
                    "coinbase" : "0x8888f1f195afa192cfee860698584c030f4c9db1",
                    "difficulty" : "0x020000",
                    "extraData" : "",
                    "gasLimit" : "0x2fefba",
                    "gasUsed" : "0x01ec11",
                    "hash" : "0xd22f310366af5962f68d18e7b8f8cbb822c685e956567fe62f232efe52ff16d5",
                    "mixHash" : "0x0000000000000000000000000000000000000000000000000000000000000000",
                    "nonce" : "0x0000000000000000",
                    "number" : "0x01",
                    "parentHash" : "0xd8750fa2906a4ecb9483bf1de4329c02bd943df408e5a8842dec2b8701049dcb",
                    "receiptTrie" : "0xe3ac97387ce2247618b09a4ed4d844b758a0211008791b96ace316a527a29c1a",
                    "stateRoot" : "0x334d8d12b70ab372703f37bf6c9fed76c7c61ba1f131517123d5d440776d825a",
                    "timestamp" : "0x5c477012",
                    "transactionsTrie" : "0xe405ee625e0e3816b412c75b5ecf86553e01f707acbd8435795feb93ec5bf401",
                    "uncleHash" : "0x1dcc4de8dec75d7aab85b567b6ccd41ad312451b948a7413f0a142fd40d49347"
                },
                "rlp" : "0xf902bbf901faa0d8750fa2906a4ecb9483bf1de4329c02bd943df408e5a8842dec2b8701049dcba01dcc4de8dec75d7aab85b567b6ccd41ad312451b948a7413f0a142fd40d49347948888f1f195afa192cfee860698584c030f4c9db1a0334d8d12b70ab372703f37bf6c9fed76c7c61ba1f131517123d5d440776d825aa0e405ee625e0e3816b412c75b5ecf86553e01f707acbd8435795feb93ec5bf401a0e3ac97387ce2247618b09a4ed4d844b758a0211008791b96ace316a527a29c1ab90100000000000000000000000000000000000000000000000000000000000000000000000000000000000000000000000000000000000000000000000000000000000000000000000000000000000000000000000000000000000000000000000000000000000000000000000000000000000000000000000000000000000000000000000000000000000000000000000000000000000000000000000000000000000000000000000000000000000000000000000000000000000000000000000000000000000000000000000000000000000000000000000000000000000000000000000000000000000000000000000000000000000000000000000000000000008302000001832fefba8301ec11845c47701280a00000000000000000000000000000000000000000000000000000000000000000880000000000000000f8bbf860800183061a8094ec0e71ad0a90ffe1909d27dac207f7680abba42d80801ca0737494b1f14192e3426047b8a26402379695309ddd33412b45e85e2a12308338a0546928572bfdbf26609a6311ec547f03eb3cdb6c95c3cd8196ca11b53950d376f857010183061a8080808b60015460035560026002551ca052152c9fb8d40c82eed3024162fd6a11e0c58d4e748ce78c2d20c5d2992883e3a03c97b5951f88adfc908b497baf434902ffaba39cd1e617a0992d9b0243971186c0",
                "transactions" : [
                    {
                        "data" : "0x",
                        "gasLimit" : "0x061a80",
                        "gasPrice" : "0x01",
                        "nonce" : "0x00",
                        "r" : "0x737494b1f14192e3426047b8a26402379695309ddd33412b45e85e2a12308338",
                        "s" : "0x546928572bfdbf26609a6311ec547f03eb3cdb6c95c3cd8196ca11b53950d376",
                        "to" : "0xec0e71ad0a90ffe1909d27dac207f7680abba42d",
                        "v" : "0x1c",
                        "value" : "0x00"
                    },
                    {
                        "data" : "0x6001546003556002600255",
                        "gasLimit" : "0x061a80",
                        "gasPrice" : "0x01",
                        "nonce" : "0x01",
                        "r" : "0x52152c9fb8d40c82eed3024162fd6a11e0c58d4e748ce78c2d20c5d2992883e3",
                        "s" : "0x3c97b5951f88adfc908b497baf434902ffaba39cd1e617a0992d9b0243971186",
                        "to" : "",
                        "v" : "0x1c",
                        "value" : "0x00"
                    }
                ],
                "uncleHeaders" : [
                ]
            }
        ],
        "genesisBlockHeader" : {
            "bloom" : "0x00000000000000000000000000000000000000000000000000000000000000000000000000000000000000000000000000000000000000000000000000000000000000000000000000000000000000000000000000000000000000000000000000000000000000000000000000000000000000000000000000000000000000000000000000000000000000000000000000000000000000000000000000000000000000000000000000000000000000000000000000000000000000000000000000000000000000000000000000000000000000000000000000000000000000000000000000000000000000000000000000000000000000000000000000000000",
            "coinbase" : "0x8888f1f195afa192cfee860698584c030f4c9db1",
            "difficulty" : "0x020000",
            "extraData" : "0x42",
            "gasLimit" : "0x2fefd8",
            "gasUsed" : "0x00",
            "hash" : "0xd8750fa2906a4ecb9483bf1de4329c02bd943df408e5a8842dec2b8701049dcb",
            "mixHash" : "0x56e81f171bcc55a6ff8345e692c0f86e5b48e01b996cadc001622fb5e363b421",
            "nonce" : "0x0102030405060708",
            "number" : "0x00",
            "parentHash" : "0x0000000000000000000000000000000000000000000000000000000000000000",
            "receiptTrie" : "0x56e81f171bcc55a6ff8345e692c0f86e5b48e01b996cadc001622fb5e363b421",
            "stateRoot" : "0x9b2015e7ccf9d59f6d72707eef92cb4a9aa9a46a2c42a21a57f7367c8f81918b",
            "timestamp" : "0x54c98c81",
            "transactionsTrie" : "0x56e81f171bcc55a6ff8345e692c0f86e5b48e01b996cadc001622fb5e363b421",
            "uncleHash" : "0x1dcc4de8dec75d7aab85b567b6ccd41ad312451b948a7413f0a142fd40d49347"
        },
        "genesisRLP" : "0xf901fcf901f7a00000000000000000000000000000000000000000000000000000000000000000a01dcc4de8dec75d7aab85b567b6ccd41ad312451b948a7413f0a142fd40d49347948888f1f195afa192cfee860698584c030f4c9db1a09b2015e7ccf9d59f6d72707eef92cb4a9aa9a46a2c42a21a57f7367c8f81918ba056e81f171bcc55a6ff8345e692c0f86e5b48e01b996cadc001622fb5e363b421a056e81f171bcc55a6ff8345e692c0f86e5b48e01b996cadc001622fb5e363b421b90100000000000000000000000000000000000000000000000000000000000000000000000000000000000000000000000000000000000000000000000000000000000000000000000000000000000000000000000000000000000000000000000000000000000000000000000000000000000000000000000000000000000000000000000000000000000000000000000000000000000000000000000000000000000000000000000000000000000000000000000000000000000000000000000000000000000000000000000000000000000000000000000000000000000000000000000000000000000000000000000000000000000000000000000000000000008302000080832fefd8808454c98c8142a056e81f171bcc55a6ff8345e692c0f86e5b48e01b996cadc001622fb5e363b421880102030405060708c0c0",
        "lastblockhash" : "0xd22f310366af5962f68d18e7b8f8cbb822c685e956567fe62f232efe52ff16d5",
        "network" : "Byzantium",
        "postState" : {
            "0x0000000000000000000000000000000000000001" : {
                "balance" : "0x03e8",
                "code" : "",
                "nonce" : "0x00",
                "storage" : {
                }
            },
            "0x8888f1f195afa192cfee860698584c030f4c9db1" : {
                "balance" : "0x29a2241af62dec11",
                "code" : "",
                "nonce" : "0x00",
                "storage" : {
                }
            },
            "0xa94f5374fce5edbc8e2a8697c15331677e6ebf0b" : {
                "balance" : "0x025409f7ef",
                "code" : "",
                "nonce" : "0x02",
                "storage" : {
                }
            },
            "0xec0e71ad0a90ffe1909d27dac207f7680abba42d" : {
                "balance" : "0x00",
                "code" : "",
                "nonce" : "0x01",
                "storage" : {
                    "0x02" : "0x02"
                }
            }
        },
        "pre" : {
            "0xa94f5374fce5edbc8e2a8697c15331677e6ebf0b" : {
                "balance" : "0x02540be400",
                "code" : "",
                "nonce" : "0x00",
                "storage" : {
                }
            },
            "0xec0e71ad0a90ffe1909d27dac207f7680abba42d" : {
                "balance" : "0x03e8",
                "code" : "0x60036001556001ff",
                "nonce" : "0x00",
                "storage" : {
                }
            }
        },
        "sealEngine" : "NoProof"
    },
    "suicideStorageCheck_Constantinople" : {
        "_info" : {
            "comment" : "[2:21:10] Vitalik Buterin: (i) set storage key 1 of contract C to 3. (ii) self-destruct contract C. (iii) in the next transaction create contract C, and read its storage key.  I - via transaction create.",
            "filledwith" : "testeth 1.6.0-alpha.0-12+commit.05b55e64",
            "lllcversion" : "Version: 0.5.0-develop.2018.11.9+commit.9709dfe0.Linux.g++",
            "source" : "src/BlockchainTestsFiller/bcStateTests/suicideStorageCheckFiller.json",
            "sourceHash" : "df5c506c017622a894f1edbee97006be110e3c3beb429b8b2e21ab7e77030b0f"
        },
        "blocks" : [
            {
                "blockHeader" : {
                    "bloom" : "0x00000000000000000000000000000000000000000000000000000000000000000000000000000000000000000000000000000000000000000000000000000000000000000000000000000000000000000000000000000000000000000000000000000000000000000000000000000000000000000000000000000000000000000000000000000000000000000000000000000000000000000000000000000000000000000000000000000000000000000000000000000000000000000000000000000000000000000000000000000000000000000000000000000000000000000000000000000000000000000000000000000000000000000000000000000000",
                    "coinbase" : "0x8888f1f195afa192cfee860698584c030f4c9db1",
                    "difficulty" : "0x020000",
                    "extraData" : "",
                    "gasLimit" : "0x2fefba",
                    "gasUsed" : "0x01d951",
                    "hash" : "0x76f86e9d3a4ac440e8bca22b5ad61466cf714f0bdf0693033a51f95358e6a818",
                    "mixHash" : "0x0000000000000000000000000000000000000000000000000000000000000000",
                    "nonce" : "0x0000000000000000",
                    "number" : "0x01",
                    "parentHash" : "0xd8750fa2906a4ecb9483bf1de4329c02bd943df408e5a8842dec2b8701049dcb",
                    "receiptTrie" : "0xe9b441f236bf04e6cc466511e5bd91c6f2df3a3c97d9b9edab6cde7be06d3cf3",
                    "stateRoot" : "0x1ae8cb636e00671eaf6343e539b3b228ded6faa38e622c6806e20c7d1971d0ca",
                    "timestamp" : "0x5c477012",
                    "transactionsTrie" : "0xe405ee625e0e3816b412c75b5ecf86553e01f707acbd8435795feb93ec5bf401",
                    "uncleHash" : "0x1dcc4de8dec75d7aab85b567b6ccd41ad312451b948a7413f0a142fd40d49347"
                },
                "rlp" : "0xf902bbf901faa0d8750fa2906a4ecb9483bf1de4329c02bd943df408e5a8842dec2b8701049dcba01dcc4de8dec75d7aab85b567b6ccd41ad312451b948a7413f0a142fd40d49347948888f1f195afa192cfee860698584c030f4c9db1a01ae8cb636e00671eaf6343e539b3b228ded6faa38e622c6806e20c7d1971d0caa0e405ee625e0e3816b412c75b5ecf86553e01f707acbd8435795feb93ec5bf401a0e9b441f236bf04e6cc466511e5bd91c6f2df3a3c97d9b9edab6cde7be06d3cf3b90100000000000000000000000000000000000000000000000000000000000000000000000000000000000000000000000000000000000000000000000000000000000000000000000000000000000000000000000000000000000000000000000000000000000000000000000000000000000000000000000000000000000000000000000000000000000000000000000000000000000000000000000000000000000000000000000000000000000000000000000000000000000000000000000000000000000000000000000000000000000000000000000000000000000000000000000000000000000000000000000000000000000000000000000000000000008302000001832fefba8301d951845c47701280a00000000000000000000000000000000000000000000000000000000000000000880000000000000000f8bbf860800183061a8094ec0e71ad0a90ffe1909d27dac207f7680abba42d80801ca0737494b1f14192e3426047b8a26402379695309ddd33412b45e85e2a12308338a0546928572bfdbf26609a6311ec547f03eb3cdb6c95c3cd8196ca11b53950d376f857010183061a8080808b60015460035560026002551ca052152c9fb8d40c82eed3024162fd6a11e0c58d4e748ce78c2d20c5d2992883e3a03c97b5951f88adfc908b497baf434902ffaba39cd1e617a0992d9b0243971186c0",
                "transactions" : [
                    {
                        "data" : "0x",
                        "gasLimit" : "0x061a80",
                        "gasPrice" : "0x01",
                        "nonce" : "0x00",
                        "r" : "0x737494b1f14192e3426047b8a26402379695309ddd33412b45e85e2a12308338",
                        "s" : "0x546928572bfdbf26609a6311ec547f03eb3cdb6c95c3cd8196ca11b53950d376",
                        "to" : "0xec0e71ad0a90ffe1909d27dac207f7680abba42d",
                        "v" : "0x1c",
                        "value" : "0x00"
                    },
                    {
                        "data" : "0x6001546003556002600255",
                        "gasLimit" : "0x061a80",
                        "gasPrice" : "0x01",
                        "nonce" : "0x01",
                        "r" : "0x52152c9fb8d40c82eed3024162fd6a11e0c58d4e748ce78c2d20c5d2992883e3",
                        "s" : "0x3c97b5951f88adfc908b497baf434902ffaba39cd1e617a0992d9b0243971186",
                        "to" : "",
                        "v" : "0x1c",
                        "value" : "0x00"
                    }
                ],
                "uncleHeaders" : [
                ]
            }
        ],
        "genesisBlockHeader" : {
            "bloom" : "0x00000000000000000000000000000000000000000000000000000000000000000000000000000000000000000000000000000000000000000000000000000000000000000000000000000000000000000000000000000000000000000000000000000000000000000000000000000000000000000000000000000000000000000000000000000000000000000000000000000000000000000000000000000000000000000000000000000000000000000000000000000000000000000000000000000000000000000000000000000000000000000000000000000000000000000000000000000000000000000000000000000000000000000000000000000000",
            "coinbase" : "0x8888f1f195afa192cfee860698584c030f4c9db1",
            "difficulty" : "0x020000",
            "extraData" : "0x42",
            "gasLimit" : "0x2fefd8",
            "gasUsed" : "0x00",
            "hash" : "0xd8750fa2906a4ecb9483bf1de4329c02bd943df408e5a8842dec2b8701049dcb",
            "mixHash" : "0x56e81f171bcc55a6ff8345e692c0f86e5b48e01b996cadc001622fb5e363b421",
            "nonce" : "0x0102030405060708",
            "number" : "0x00",
            "parentHash" : "0x0000000000000000000000000000000000000000000000000000000000000000",
            "receiptTrie" : "0x56e81f171bcc55a6ff8345e692c0f86e5b48e01b996cadc001622fb5e363b421",
            "stateRoot" : "0x9b2015e7ccf9d59f6d72707eef92cb4a9aa9a46a2c42a21a57f7367c8f81918b",
            "timestamp" : "0x54c98c81",
            "transactionsTrie" : "0x56e81f171bcc55a6ff8345e692c0f86e5b48e01b996cadc001622fb5e363b421",
            "uncleHash" : "0x1dcc4de8dec75d7aab85b567b6ccd41ad312451b948a7413f0a142fd40d49347"
        },
        "genesisRLP" : "0xf901fcf901f7a00000000000000000000000000000000000000000000000000000000000000000a01dcc4de8dec75d7aab85b567b6ccd41ad312451b948a7413f0a142fd40d49347948888f1f195afa192cfee860698584c030f4c9db1a09b2015e7ccf9d59f6d72707eef92cb4a9aa9a46a2c42a21a57f7367c8f81918ba056e81f171bcc55a6ff8345e692c0f86e5b48e01b996cadc001622fb5e363b421a056e81f171bcc55a6ff8345e692c0f86e5b48e01b996cadc001622fb5e363b421b90100000000000000000000000000000000000000000000000000000000000000000000000000000000000000000000000000000000000000000000000000000000000000000000000000000000000000000000000000000000000000000000000000000000000000000000000000000000000000000000000000000000000000000000000000000000000000000000000000000000000000000000000000000000000000000000000000000000000000000000000000000000000000000000000000000000000000000000000000000000000000000000000000000000000000000000000000000000000000000000000000000000000000000000000000000000008302000080832fefd8808454c98c8142a056e81f171bcc55a6ff8345e692c0f86e5b48e01b996cadc001622fb5e363b421880102030405060708c0c0",
        "lastblockhash" : "0x76f86e9d3a4ac440e8bca22b5ad61466cf714f0bdf0693033a51f95358e6a818",
        "network" : "Constantinople",
        "postState" : {
            "0x0000000000000000000000000000000000000001" : {
                "balance" : "0x03e8",
                "code" : "",
                "nonce" : "0x00",
                "storage" : {
                }
            },
            "0x8888f1f195afa192cfee860698584c030f4c9db1" : {
                "balance" : "0x1bc16d674ec9d951",
                "code" : "",
                "nonce" : "0x00",
                "storage" : {
                }
            },
            "0xa94f5374fce5edbc8e2a8697c15331677e6ebf0b" : {
                "balance" : "0x02540a0aaf",
                "code" : "",
                "nonce" : "0x02",
                "storage" : {
                }
            },
            "0xec0e71ad0a90ffe1909d27dac207f7680abba42d" : {
                "balance" : "0x00",
                "code" : "",
                "nonce" : "0x01",
                "storage" : {
                    "0x02" : "0x02"
                }
            }
        },
        "pre" : {
            "0xa94f5374fce5edbc8e2a8697c15331677e6ebf0b" : {
                "balance" : "0x02540be400",
                "code" : "",
                "nonce" : "0x00",
                "storage" : {
                }
            },
            "0xec0e71ad0a90ffe1909d27dac207f7680abba42d" : {
                "balance" : "0x03e8",
                "code" : "0x60036001556001ff",
                "nonce" : "0x00",
                "storage" : {
                }
            }
        },
        "sealEngine" : "NoProof"
    },
    "suicideStorageCheck_ConstantinopleFix" : {
        "_info" : {
            "comment" : "[2:21:10] Vitalik Buterin: (i) set storage key 1 of contract C to 3. (ii) self-destruct contract C. (iii) in the next transaction create contract C, and read its storage key.  I - via transaction create.",
            "filledwith" : "testeth 1.6.0-alpha.0-12+commit.05b55e64",
            "lllcversion" : "Version: 0.5.0-develop.2018.11.9+commit.9709dfe0.Linux.g++",
            "source" : "src/BlockchainTestsFiller/bcStateTests/suicideStorageCheckFiller.json",
            "sourceHash" : "df5c506c017622a894f1edbee97006be110e3c3beb429b8b2e21ab7e77030b0f"
        },
        "blocks" : [
            {
                "blockHeader" : {
                    "bloom" : "0x00000000000000000000000000000000000000000000000000000000000000000000000000000000000000000000000000000000000000000000000000000000000000000000000000000000000000000000000000000000000000000000000000000000000000000000000000000000000000000000000000000000000000000000000000000000000000000000000000000000000000000000000000000000000000000000000000000000000000000000000000000000000000000000000000000000000000000000000000000000000000000000000000000000000000000000000000000000000000000000000000000000000000000000000000000000",
                    "coinbase" : "0x8888f1f195afa192cfee860698584c030f4c9db1",
                    "difficulty" : "0x020000",
                    "extraData" : "",
                    "gasLimit" : "0x2fefba",
                    "gasUsed" : "0x01ec11",
                    "hash" : "0x5db6f58242e69206364d8df648d21320e386ae442a7aa15269fb75a84cae4003",
                    "mixHash" : "0x0000000000000000000000000000000000000000000000000000000000000000",
                    "nonce" : "0x0000000000000000",
                    "number" : "0x01",
                    "parentHash" : "0xd8750fa2906a4ecb9483bf1de4329c02bd943df408e5a8842dec2b8701049dcb",
                    "receiptTrie" : "0xe3ac97387ce2247618b09a4ed4d844b758a0211008791b96ace316a527a29c1a",
                    "stateRoot" : "0xd404c5f9081f4f701c915bb3e48cc68ad5256bdf01d527676a6d508a20c9c6e4",
                    "timestamp" : "0x5c477012",
                    "transactionsTrie" : "0xe405ee625e0e3816b412c75b5ecf86553e01f707acbd8435795feb93ec5bf401",
                    "uncleHash" : "0x1dcc4de8dec75d7aab85b567b6ccd41ad312451b948a7413f0a142fd40d49347"
                },
                "rlp" : "0xf902bbf901faa0d8750fa2906a4ecb9483bf1de4329c02bd943df408e5a8842dec2b8701049dcba01dcc4de8dec75d7aab85b567b6ccd41ad312451b948a7413f0a142fd40d49347948888f1f195afa192cfee860698584c030f4c9db1a0d404c5f9081f4f701c915bb3e48cc68ad5256bdf01d527676a6d508a20c9c6e4a0e405ee625e0e3816b412c75b5ecf86553e01f707acbd8435795feb93ec5bf401a0e3ac97387ce2247618b09a4ed4d844b758a0211008791b96ace316a527a29c1ab90100000000000000000000000000000000000000000000000000000000000000000000000000000000000000000000000000000000000000000000000000000000000000000000000000000000000000000000000000000000000000000000000000000000000000000000000000000000000000000000000000000000000000000000000000000000000000000000000000000000000000000000000000000000000000000000000000000000000000000000000000000000000000000000000000000000000000000000000000000000000000000000000000000000000000000000000000000000000000000000000000000000000000000000000000000000008302000001832fefba8301ec11845c47701280a00000000000000000000000000000000000000000000000000000000000000000880000000000000000f8bbf860800183061a8094ec0e71ad0a90ffe1909d27dac207f7680abba42d80801ca0737494b1f14192e3426047b8a26402379695309ddd33412b45e85e2a12308338a0546928572bfdbf26609a6311ec547f03eb3cdb6c95c3cd8196ca11b53950d376f857010183061a8080808b60015460035560026002551ca052152c9fb8d40c82eed3024162fd6a11e0c58d4e748ce78c2d20c5d2992883e3a03c97b5951f88adfc908b497baf434902ffaba39cd1e617a0992d9b0243971186c0",
                "transactions" : [
                    {
                        "data" : "0x",
                        "gasLimit" : "0x061a80",
                        "gasPrice" : "0x01",
                        "nonce" : "0x00",
                        "r" : "0x737494b1f14192e3426047b8a26402379695309ddd33412b45e85e2a12308338",
                        "s" : "0x546928572bfdbf26609a6311ec547f03eb3cdb6c95c3cd8196ca11b53950d376",
                        "to" : "0xec0e71ad0a90ffe1909d27dac207f7680abba42d",
                        "v" : "0x1c",
                        "value" : "0x00"
                    },
                    {
                        "data" : "0x6001546003556002600255",
                        "gasLimit" : "0x061a80",
                        "gasPrice" : "0x01",
                        "nonce" : "0x01",
                        "r" : "0x52152c9fb8d40c82eed3024162fd6a11e0c58d4e748ce78c2d20c5d2992883e3",
                        "s" : "0x3c97b5951f88adfc908b497baf434902ffaba39cd1e617a0992d9b0243971186",
                        "to" : "",
                        "v" : "0x1c",
                        "value" : "0x00"
                    }
                ],
                "uncleHeaders" : [
                ]
            }
        ],
        "genesisBlockHeader" : {
            "bloom" : "0x00000000000000000000000000000000000000000000000000000000000000000000000000000000000000000000000000000000000000000000000000000000000000000000000000000000000000000000000000000000000000000000000000000000000000000000000000000000000000000000000000000000000000000000000000000000000000000000000000000000000000000000000000000000000000000000000000000000000000000000000000000000000000000000000000000000000000000000000000000000000000000000000000000000000000000000000000000000000000000000000000000000000000000000000000000000",
            "coinbase" : "0x8888f1f195afa192cfee860698584c030f4c9db1",
            "difficulty" : "0x020000",
            "extraData" : "0x42",
            "gasLimit" : "0x2fefd8",
            "gasUsed" : "0x00",
            "hash" : "0xd8750fa2906a4ecb9483bf1de4329c02bd943df408e5a8842dec2b8701049dcb",
            "mixHash" : "0x56e81f171bcc55a6ff8345e692c0f86e5b48e01b996cadc001622fb5e363b421",
            "nonce" : "0x0102030405060708",
            "number" : "0x00",
            "parentHash" : "0x0000000000000000000000000000000000000000000000000000000000000000",
            "receiptTrie" : "0x56e81f171bcc55a6ff8345e692c0f86e5b48e01b996cadc001622fb5e363b421",
            "stateRoot" : "0x9b2015e7ccf9d59f6d72707eef92cb4a9aa9a46a2c42a21a57f7367c8f81918b",
            "timestamp" : "0x54c98c81",
            "transactionsTrie" : "0x56e81f171bcc55a6ff8345e692c0f86e5b48e01b996cadc001622fb5e363b421",
            "uncleHash" : "0x1dcc4de8dec75d7aab85b567b6ccd41ad312451b948a7413f0a142fd40d49347"
        },
        "genesisRLP" : "0xf901fcf901f7a00000000000000000000000000000000000000000000000000000000000000000a01dcc4de8dec75d7aab85b567b6ccd41ad312451b948a7413f0a142fd40d49347948888f1f195afa192cfee860698584c030f4c9db1a09b2015e7ccf9d59f6d72707eef92cb4a9aa9a46a2c42a21a57f7367c8f81918ba056e81f171bcc55a6ff8345e692c0f86e5b48e01b996cadc001622fb5e363b421a056e81f171bcc55a6ff8345e692c0f86e5b48e01b996cadc001622fb5e363b421b90100000000000000000000000000000000000000000000000000000000000000000000000000000000000000000000000000000000000000000000000000000000000000000000000000000000000000000000000000000000000000000000000000000000000000000000000000000000000000000000000000000000000000000000000000000000000000000000000000000000000000000000000000000000000000000000000000000000000000000000000000000000000000000000000000000000000000000000000000000000000000000000000000000000000000000000000000000000000000000000000000000000000000000000000000000000008302000080832fefd8808454c98c8142a056e81f171bcc55a6ff8345e692c0f86e5b48e01b996cadc001622fb5e363b421880102030405060708c0c0",
        "lastblockhash" : "0x5db6f58242e69206364d8df648d21320e386ae442a7aa15269fb75a84cae4003",
        "network" : "ConstantinopleFix",
        "postState" : {
            "0x0000000000000000000000000000000000000001" : {
                "balance" : "0x03e8",
                "code" : "",
                "nonce" : "0x00",
                "storage" : {
                }
            },
            "0x8888f1f195afa192cfee860698584c030f4c9db1" : {
                "balance" : "0x1bc16d674ec9ec11",
                "code" : "",
                "nonce" : "0x00",
                "storage" : {
                }
            },
            "0xa94f5374fce5edbc8e2a8697c15331677e6ebf0b" : {
                "balance" : "0x025409f7ef",
                "code" : "",
                "nonce" : "0x02",
                "storage" : {
                }
            },
            "0xec0e71ad0a90ffe1909d27dac207f7680abba42d" : {
                "balance" : "0x00",
                "code" : "",
                "nonce" : "0x01",
                "storage" : {
                    "0x02" : "0x02"
                }
            }
        },
        "pre" : {
            "0xa94f5374fce5edbc8e2a8697c15331677e6ebf0b" : {
                "balance" : "0x02540be400",
                "code" : "",
                "nonce" : "0x00",
                "storage" : {
                }
            },
            "0xec0e71ad0a90ffe1909d27dac207f7680abba42d" : {
                "balance" : "0x03e8",
                "code" : "0x60036001556001ff",
                "nonce" : "0x00",
                "storage" : {
                }
            }
        },
        "sealEngine" : "NoProof"
    }
}