{
    "suicideStorageCheckVCreate2_Byzantium" : {
        "_info" : {
            "comment" : "[2:21:10] Vitalik Buterin: (i) set storage key 1 of contract C to 3. (ii) self-destruct contract C. (iii) in the next transaction create contract C, and read its storage key.  I - via old create2",
            "filledwith" : "testeth 1.6.0-alpha.0-12+commit.05b55e64",
            "lllcversion" : "Version: 0.5.0-develop.2018.11.9+commit.9709dfe0.Linux.g++",
            "source" : "src/BlockchainTestsFiller/bcStateTests/suicideStorageCheckVCreate2Filler.json",
            "sourceHash" : "501bdd5d5fb18f73873da7ee99dc07a0a8777ceb9bcc70c4720f4a617c1b1e96"
        },
        "blocks" : [
            {
                "blockHeader" : {
                    "bloom" : "0x00000000000000000000000000000000000000000000000000000000000000000000000000000000000000000000000000000000000000000000000000000000000000000000000000000000000000000000000000000000000000000000000000000000000000000000000000000000000000000000000000000000000000000000000000000000000000000000000000000000000000000000000000000000000000000000000000000000000000000000000000000000000000000000000000000000000000000000000000000000000000000000000000000000000000000000000000000000000000000000000000000000000000000000000000000000",
                    "coinbase" : "0x8888f1f195afa192cfee860698584c030f4c9db1",
                    "difficulty" : "0x020000",
                    "extraData" : "",
                    "gasLimit" : "0x2fefba",
                    "gasUsed" : "0x06d221",
                    "hash" : "0xaa2c8bb12d1c44f4582a4cc5072139630b0cb8f113383f3a14dcfcdb3a001e05",
                    "mixHash" : "0x0000000000000000000000000000000000000000000000000000000000000000",
                    "nonce" : "0x0000000000000000",
                    "number" : "0x01",
                    "parentHash" : "0xd11d484e754458fdc47bb171f4af049a30804c6a95eb31906b47c8fbf62589a4",
                    "receiptTrie" : "0x5c76c28fbfd74b7601db1b63589e7bf12840d83d0d0ca54a873654b131d0640b",
                    "stateRoot" : "0xd05914e07e6aafab35a4bea91ec7b337745d9d8b8a482fdfd0bdf4b136e7891e",
                    "timestamp" : "0x5c477018",
                    "transactionsTrie" : "0xe9bb3dd6a96eb52c0ae1467c98ae8b798822a9c6de7380b5b84bf0f02fa81858",
                    "uncleHash" : "0x1dcc4de8dec75d7aab85b567b6ccd41ad312451b948a7413f0a142fd40d49347"
                },
                "rlp" : "0xf902c8f901faa0d11d484e754458fdc47bb171f4af049a30804c6a95eb31906b47c8fbf62589a4a01dcc4de8dec75d7aab85b567b6ccd41ad312451b948a7413f0a142fd40d49347948888f1f195afa192cfee860698584c030f4c9db1a0d05914e07e6aafab35a4bea91ec7b337745d9d8b8a482fdfd0bdf4b136e7891ea0e9bb3dd6a96eb52c0ae1467c98ae8b798822a9c6de7380b5b84bf0f02fa81858a05c76c28fbfd74b7601db1b63589e7bf12840d83d0d0ca54a873654b131d0640bb90100000000000000000000000000000000000000000000000000000000000000000000000000000000000000000000000000000000000000000000000000000000000000000000000000000000000000000000000000000000000000000000000000000000000000000000000000000000000000000000000000000000000000000000000000000000000000000000000000000000000000000000000000000000000000000000000000000000000000000000000000000000000000000000000000000000000000000000000000000000000000000000000000000000000000000000000000000000000000000000000000000000000000000000000000000000008302000001832fefba8306d221845c47701880a00000000000000000000000000000000000000000000000000000000000000000880000000000000000f8c8f860800183061a809403855fc81ba27fb87117ab961e6bef17f7e8425080801ba0c72b7ef409567591b7a1a23e6e3e7d1f26f9fb92a5b3ae48148cd3a5a71a48eca031e806a13be8afc352f8eef62f73c952a5db94f800e985719d88fed91d26b3dff864010183061a808080986a60015460035560026002556000526000600b60156000f51ba087a55dfcc758fc7c9697c9f74dbf741910c816d6162ce85a25cfdad20d14d63da04c55cf5ad08530628ecea0e317bb855bafa2a23ed0fdc4a7d1a20c1b77bab40ac0",
                "transactions" : [
                    {
                        "data" : "0x",
                        "gasLimit" : "0x061a80",
                        "gasPrice" : "0x01",
                        "nonce" : "0x00",
                        "r" : "0xc72b7ef409567591b7a1a23e6e3e7d1f26f9fb92a5b3ae48148cd3a5a71a48ec",
                        "s" : "0x31e806a13be8afc352f8eef62f73c952a5db94f800e985719d88fed91d26b3df",
                        "to" : "0x03855fc81ba27fb87117ab961e6bef17f7e84250",
                        "v" : "0x1b",
                        "value" : "0x00"
                    },
                    {
                        "data" : "0x6a60015460035560026002556000526000600b60156000f5",
                        "gasLimit" : "0x061a80",
                        "gasPrice" : "0x01",
                        "nonce" : "0x01",
                        "r" : "0x87a55dfcc758fc7c9697c9f74dbf741910c816d6162ce85a25cfdad20d14d63d",
                        "s" : "0x4c55cf5ad08530628ecea0e317bb855bafa2a23ed0fdc4a7d1a20c1b77bab40a",
                        "to" : "",
                        "v" : "0x1b",
                        "value" : "0x00"
                    }
                ],
                "uncleHeaders" : [
                ]
            }
        ],
        "genesisBlockHeader" : {
            "bloom" : "0x00000000000000000000000000000000000000000000000000000000000000000000000000000000000000000000000000000000000000000000000000000000000000000000000000000000000000000000000000000000000000000000000000000000000000000000000000000000000000000000000000000000000000000000000000000000000000000000000000000000000000000000000000000000000000000000000000000000000000000000000000000000000000000000000000000000000000000000000000000000000000000000000000000000000000000000000000000000000000000000000000000000000000000000000000000000",
            "coinbase" : "0x8888f1f195afa192cfee860698584c030f4c9db1",
            "difficulty" : "0x020000",
            "extraData" : "0x42",
            "gasLimit" : "0x2fefd8",
            "gasUsed" : "0x00",
            "hash" : "0xd11d484e754458fdc47bb171f4af049a30804c6a95eb31906b47c8fbf62589a4",
            "mixHash" : "0x56e81f171bcc55a6ff8345e692c0f86e5b48e01b996cadc001622fb5e363b421",
            "nonce" : "0x0102030405060708",
            "number" : "0x00",
            "parentHash" : "0x0000000000000000000000000000000000000000000000000000000000000000",
            "receiptTrie" : "0x56e81f171bcc55a6ff8345e692c0f86e5b48e01b996cadc001622fb5e363b421",
            "stateRoot" : "0xc53d6a6190680f094db29a75caa5ce3e71acec27420624357d7a125fbbbb0c20",
            "timestamp" : "0x54c98c81",
            "transactionsTrie" : "0x56e81f171bcc55a6ff8345e692c0f86e5b48e01b996cadc001622fb5e363b421",
            "uncleHash" : "0x1dcc4de8dec75d7aab85b567b6ccd41ad312451b948a7413f0a142fd40d49347"
        },
        "genesisRLP" : "0xf901fcf901f7a00000000000000000000000000000000000000000000000000000000000000000a01dcc4de8dec75d7aab85b567b6ccd41ad312451b948a7413f0a142fd40d49347948888f1f195afa192cfee860698584c030f4c9db1a0c53d6a6190680f094db29a75caa5ce3e71acec27420624357d7a125fbbbb0c20a056e81f171bcc55a6ff8345e692c0f86e5b48e01b996cadc001622fb5e363b421a056e81f171bcc55a6ff8345e692c0f86e5b48e01b996cadc001622fb5e363b421b90100000000000000000000000000000000000000000000000000000000000000000000000000000000000000000000000000000000000000000000000000000000000000000000000000000000000000000000000000000000000000000000000000000000000000000000000000000000000000000000000000000000000000000000000000000000000000000000000000000000000000000000000000000000000000000000000000000000000000000000000000000000000000000000000000000000000000000000000000000000000000000000000000000000000000000000000000000000000000000000000000000000000000000000000000000000008302000080832fefd8808454c98c8142a056e81f171bcc55a6ff8345e692c0f86e5b48e01b996cadc001622fb5e363b421880102030405060708c0c0",
        "lastblockhash" : "0xaa2c8bb12d1c44f4582a4cc5072139630b0cb8f113383f3a14dcfcdb3a001e05",
        "network" : "Byzantium",
        "postState" : {
            "0x0000000000000000000000000000000000000001" : {
                "balance" : "0x03e8",
                "code" : "",
                "nonce" : "0x00",
                "storage" : {
                }
            },
            "0x8888f1f195afa192cfee860698584c030f4c9db1" : {
                "balance" : "0x29a2241af632d221",
                "code" : "",
                "nonce" : "0x00",
                "storage" : {
                }
            },
            "0xa94f5374fce5edbc8e2a8697c15331677e6ebf0b" : {
                "balance" : "0x02540511df",
                "code" : "",
                "nonce" : "0x02",
                "storage" : {
                }
            }
        },
        "pre" : {
            "0x03855fc81ba27fb87117ab961e6bef17f7e84250" : {
                "balance" : "0x03e8",
                "code" : "0x60036001556001ff",
                "nonce" : "0x00",
                "storage" : {
                }
            },
            "0xa94f5374fce5edbc8e2a8697c15331677e6ebf0b" : {
                "balance" : "0x02540be400",
                "code" : "",
                "nonce" : "0x00",
                "storage" : {
                }
            }
        },
        "sealEngine" : "NoProof"
    },
    "suicideStorageCheckVCreate2_Constantinople" : {
        "_info" : {
            "comment" : "[2:21:10] Vitalik Buterin: (i) set storage key 1 of contract C to 3. (ii) self-destruct contract C. (iii) in the next transaction create contract C, and read its storage key.  I - via old create2",
            "filledwith" : "testeth 1.6.0-alpha.0-12+commit.05b55e64",
            "lllcversion" : "Version: 0.5.0-develop.2018.11.9+commit.9709dfe0.Linux.g++",
            "source" : "src/BlockchainTestsFiller/bcStateTests/suicideStorageCheckVCreate2Filler.json",
            "sourceHash" : "501bdd5d5fb18f73873da7ee99dc07a0a8777ceb9bcc70c4720f4a617c1b1e96"
        },
        "blocks" : [
            {
                "blockHeader" : {
                    "bloom" : "0x00000000000000000000000000000000000000000000000000000000000000000000000000000000000000000000000000000000000000000000000000000000000000000000000000000000000000000000000000000000000000000000000000000000000000000000000000000000000000000000000000000000000000000000000000000000000000000000000000000000000000000000000000000000000000000000000000000000000000000000000000000000000000000000000000000000000000000000000000000000000000000000000000000000000000000000000000000000000000000000000000000000000000000000000000000000",
                    "coinbase" : "0x8888f1f195afa192cfee860698584c030f4c9db1",
                    "difficulty" : "0x020000",
                    "extraData" : "",
                    "gasLimit" : "0x2fefba",
                    "gasUsed" : "0x025923",
                    "hash" : "0xe8baa3f302cdbd6c58fc376048b8aa41a23de1012e34ae640c57934a4fd555c4",
                    "mixHash" : "0x0000000000000000000000000000000000000000000000000000000000000000",
                    "nonce" : "0x0000000000000000",
                    "number" : "0x01",
                    "parentHash" : "0xd11d484e754458fdc47bb171f4af049a30804c6a95eb31906b47c8fbf62589a4",
                    "receiptTrie" : "0xae1f847c82a0006e47aba7f904ba4f062fc6776aeef8af7ad99ac914b09a26ff",
                    "stateRoot" : "0x9f2dc5c54162f3f31c4eb2a63a90e316be8e5d3b76e7f222e8a40e49fe24b648",
                    "timestamp" : "0x5c477018",
                    "transactionsTrie" : "0xe9bb3dd6a96eb52c0ae1467c98ae8b798822a9c6de7380b5b84bf0f02fa81858",
                    "uncleHash" : "0x1dcc4de8dec75d7aab85b567b6ccd41ad312451b948a7413f0a142fd40d49347"
                },
                "rlp" : "0xf902c8f901faa0d11d484e754458fdc47bb171f4af049a30804c6a95eb31906b47c8fbf62589a4a01dcc4de8dec75d7aab85b567b6ccd41ad312451b948a7413f0a142fd40d49347948888f1f195afa192cfee860698584c030f4c9db1a09f2dc5c54162f3f31c4eb2a63a90e316be8e5d3b76e7f222e8a40e49fe24b648a0e9bb3dd6a96eb52c0ae1467c98ae8b798822a9c6de7380b5b84bf0f02fa81858a0ae1f847c82a0006e47aba7f904ba4f062fc6776aeef8af7ad99ac914b09a26ffb90100000000000000000000000000000000000000000000000000000000000000000000000000000000000000000000000000000000000000000000000000000000000000000000000000000000000000000000000000000000000000000000000000000000000000000000000000000000000000000000000000000000000000000000000000000000000000000000000000000000000000000000000000000000000000000000000000000000000000000000000000000000000000000000000000000000000000000000000000000000000000000000000000000000000000000000000000000000000000000000000000000000000000000000000000000000008302000001832fefba83025923845c47701880a00000000000000000000000000000000000000000000000000000000000000000880000000000000000f8c8f860800183061a809403855fc81ba27fb87117ab961e6bef17f7e8425080801ba0c72b7ef409567591b7a1a23e6e3e7d1f26f9fb92a5b3ae48148cd3a5a71a48eca031e806a13be8afc352f8eef62f73c952a5db94f800e985719d88fed91d26b3dff864010183061a808080986a60015460035560026002556000526000600b60156000f51ba087a55dfcc758fc7c9697c9f74dbf741910c816d6162ce85a25cfdad20d14d63da04c55cf5ad08530628ecea0e317bb855bafa2a23ed0fdc4a7d1a20c1b77bab40ac0",
                "transactions" : [
                    {
                        "data" : "0x",
                        "gasLimit" : "0x061a80",
                        "gasPrice" : "0x01",
                        "nonce" : "0x00",
                        "r" : "0xc72b7ef409567591b7a1a23e6e3e7d1f26f9fb92a5b3ae48148cd3a5a71a48ec",
                        "s" : "0x31e806a13be8afc352f8eef62f73c952a5db94f800e985719d88fed91d26b3df",
                        "to" : "0x03855fc81ba27fb87117ab961e6bef17f7e84250",
                        "v" : "0x1b",
                        "value" : "0x00"
                    },
                    {
                        "data" : "0x6a60015460035560026002556000526000600b60156000f5",
                        "gasLimit" : "0x061a80",
                        "gasPrice" : "0x01",
                        "nonce" : "0x01",
                        "r" : "0x87a55dfcc758fc7c9697c9f74dbf741910c816d6162ce85a25cfdad20d14d63d",
                        "s" : "0x4c55cf5ad08530628ecea0e317bb855bafa2a23ed0fdc4a7d1a20c1b77bab40a",
                        "to" : "",
                        "v" : "0x1b",
                        "value" : "0x00"
                    }
                ],
                "uncleHeaders" : [
                ]
            }
        ],
        "genesisBlockHeader" : {
            "bloom" : "0x00000000000000000000000000000000000000000000000000000000000000000000000000000000000000000000000000000000000000000000000000000000000000000000000000000000000000000000000000000000000000000000000000000000000000000000000000000000000000000000000000000000000000000000000000000000000000000000000000000000000000000000000000000000000000000000000000000000000000000000000000000000000000000000000000000000000000000000000000000000000000000000000000000000000000000000000000000000000000000000000000000000000000000000000000000000",
            "coinbase" : "0x8888f1f195afa192cfee860698584c030f4c9db1",
            "difficulty" : "0x020000",
            "extraData" : "0x42",
            "gasLimit" : "0x2fefd8",
            "gasUsed" : "0x00",
            "hash" : "0xd11d484e754458fdc47bb171f4af049a30804c6a95eb31906b47c8fbf62589a4",
            "mixHash" : "0x56e81f171bcc55a6ff8345e692c0f86e5b48e01b996cadc001622fb5e363b421",
            "nonce" : "0x0102030405060708",
            "number" : "0x00",
            "parentHash" : "0x0000000000000000000000000000000000000000000000000000000000000000",
            "receiptTrie" : "0x56e81f171bcc55a6ff8345e692c0f86e5b48e01b996cadc001622fb5e363b421",
            "stateRoot" : "0xc53d6a6190680f094db29a75caa5ce3e71acec27420624357d7a125fbbbb0c20",
            "timestamp" : "0x54c98c81",
            "transactionsTrie" : "0x56e81f171bcc55a6ff8345e692c0f86e5b48e01b996cadc001622fb5e363b421",
            "uncleHash" : "0x1dcc4de8dec75d7aab85b567b6ccd41ad312451b948a7413f0a142fd40d49347"
        },
        "genesisRLP" : "0xf901fcf901f7a00000000000000000000000000000000000000000000000000000000000000000a01dcc4de8dec75d7aab85b567b6ccd41ad312451b948a7413f0a142fd40d49347948888f1f195afa192cfee860698584c030f4c9db1a0c53d6a6190680f094db29a75caa5ce3e71acec27420624357d7a125fbbbb0c20a056e81f171bcc55a6ff8345e692c0f86e5b48e01b996cadc001622fb5e363b421a056e81f171bcc55a6ff8345e692c0f86e5b48e01b996cadc001622fb5e363b421b90100000000000000000000000000000000000000000000000000000000000000000000000000000000000000000000000000000000000000000000000000000000000000000000000000000000000000000000000000000000000000000000000000000000000000000000000000000000000000000000000000000000000000000000000000000000000000000000000000000000000000000000000000000000000000000000000000000000000000000000000000000000000000000000000000000000000000000000000000000000000000000000000000000000000000000000000000000000000000000000000000000000000000000000000000000000008302000080832fefd8808454c98c8142a056e81f171bcc55a6ff8345e692c0f86e5b48e01b996cadc001622fb5e363b421880102030405060708c0c0",
        "lastblockhash" : "0xe8baa3f302cdbd6c58fc376048b8aa41a23de1012e34ae640c57934a4fd555c4",
        "network" : "Constantinople",
        "postState" : {
            "0x0000000000000000000000000000000000000001" : {
                "balance" : "0x03e8",
                "code" : "",
                "nonce" : "0x00",
                "storage" : {
                }
            },
            "0x03855fc81ba27fb87117ab961e6bef17f7e84250" : {
                "balance" : "0x00",
                "code" : "",
                "nonce" : "0x01",
                "storage" : {
                    "0x02" : "0x02"
                }
            },
            "0x8888f1f195afa192cfee860698584c030f4c9db1" : {
                "balance" : "0x1bc16d674eca5923",
                "code" : "",
                "nonce" : "0x00",
                "storage" : {
                }
            },
            "0xa94f5374fce5edbc8e2a8697c15331677e6ebf0b" : {
                "balance" : "0x0254098add",
                "code" : "",
                "nonce" : "0x02",
                "storage" : {
                }
            },
            "0xec0e71ad0a90ffe1909d27dac207f7680abba42d" : {
                "balance" : "0x00",
                "code" : "",
                "nonce" : "0x02",
                "storage" : {
                }
            }
        },
        "pre" : {
            "0x03855fc81ba27fb87117ab961e6bef17f7e84250" : {
                "balance" : "0x03e8",
                "code" : "0x60036001556001ff",
                "nonce" : "0x00",
                "storage" : {
                }
            },
            "0xa94f5374fce5edbc8e2a8697c15331677e6ebf0b" : {
                "balance" : "0x02540be400",
                "code" : "",
                "nonce" : "0x00",
                "storage" : {
                }
            }
        },
        "sealEngine" : "NoProof"
    },
    "suicideStorageCheckVCreate2_ConstantinopleFix" : {
        "_info" : {
            "comment" : "[2:21:10] Vitalik Buterin: (i) set storage key 1 of contract C to 3. (ii) self-destruct contract C. (iii) in the next transaction create contract C, and read its storage key.  I - via old create2",
            "filledwith" : "testeth 1.6.0-alpha.0-12+commit.05b55e64",
            "lllcversion" : "Version: 0.5.0-develop.2018.11.9+commit.9709dfe0.Linux.g++",
            "source" : "src/BlockchainTestsFiller/bcStateTests/suicideStorageCheckVCreate2Filler.json",
            "sourceHash" : "501bdd5d5fb18f73873da7ee99dc07a0a8777ceb9bcc70c4720f4a617c1b1e96"
        },
        "blocks" : [
            {
                "blockHeader" : {
                    "bloom" : "0x00000000000000000000000000000000000000000000000000000000000000000000000000000000000000000000000000000000000000000000000000000000000000000000000000000000000000000000000000000000000000000000000000000000000000000000000000000000000000000000000000000000000000000000000000000000000000000000000000000000000000000000000000000000000000000000000000000000000000000000000000000000000000000000000000000000000000000000000000000000000000000000000000000000000000000000000000000000000000000000000000000000000000000000000000000000",
                    "coinbase" : "0x8888f1f195afa192cfee860698584c030f4c9db1",
                    "difficulty" : "0x020000",
                    "extraData" : "",
                    "gasLimit" : "0x2fefba",
                    "gasUsed" : "0x026be3",
                    "hash" : "0x8b0b81c3d3d3150fb8a89d3a48a6fb30b35baf201e2f13db0a618079872ce0f5",
                    "mixHash" : "0x0000000000000000000000000000000000000000000000000000000000000000",
                    "nonce" : "0x0000000000000000",
                    "number" : "0x01",
                    "parentHash" : "0xd11d484e754458fdc47bb171f4af049a30804c6a95eb31906b47c8fbf62589a4",
                    "receiptTrie" : "0x8fd8d352dbb0041defe5d5c0bb6fc09a74357a51371074b103d9c3bf7e4b6dd3",
                    "stateRoot" : "0x3db8221fbc0426da19eb1453cc0a72e9971b1162eee20496c27d257b1b03e13f",
                    "timestamp" : "0x5c477018",
                    "transactionsTrie" : "0xe9bb3dd6a96eb52c0ae1467c98ae8b798822a9c6de7380b5b84bf0f02fa81858",
                    "uncleHash" : "0x1dcc4de8dec75d7aab85b567b6ccd41ad312451b948a7413f0a142fd40d49347"
                },
                "rlp" : "0xf902c8f901faa0d11d484e754458fdc47bb171f4af049a30804c6a95eb31906b47c8fbf62589a4a01dcc4de8dec75d7aab85b567b6ccd41ad312451b948a7413f0a142fd40d49347948888f1f195afa192cfee860698584c030f4c9db1a03db8221fbc0426da19eb1453cc0a72e9971b1162eee20496c27d257b1b03e13fa0e9bb3dd6a96eb52c0ae1467c98ae8b798822a9c6de7380b5b84bf0f02fa81858a08fd8d352dbb0041defe5d5c0bb6fc09a74357a51371074b103d9c3bf7e4b6dd3b90100000000000000000000000000000000000000000000000000000000000000000000000000000000000000000000000000000000000000000000000000000000000000000000000000000000000000000000000000000000000000000000000000000000000000000000000000000000000000000000000000000000000000000000000000000000000000000000000000000000000000000000000000000000000000000000000000000000000000000000000000000000000000000000000000000000000000000000000000000000000000000000000000000000000000000000000000000000000000000000000000000000000000000000000000000000008302000001832fefba83026be3845c47701880a00000000000000000000000000000000000000000000000000000000000000000880000000000000000f8c8f860800183061a809403855fc81ba27fb87117ab961e6bef17f7e8425080801ba0c72b7ef409567591b7a1a23e6e3e7d1f26f9fb92a5b3ae48148cd3a5a71a48eca031e806a13be8afc352f8eef62f73c952a5db94f800e985719d88fed91d26b3dff864010183061a808080986a60015460035560026002556000526000600b60156000f51ba087a55dfcc758fc7c9697c9f74dbf741910c816d6162ce85a25cfdad20d14d63da04c55cf5ad08530628ecea0e317bb855bafa2a23ed0fdc4a7d1a20c1b77bab40ac0",
                "transactions" : [
                    {
                        "data" : "0x",
                        "gasLimit" : "0x061a80",
                        "gasPrice" : "0x01",
                        "nonce" : "0x00",
                        "r" : "0xc72b7ef409567591b7a1a23e6e3e7d1f26f9fb92a5b3ae48148cd3a5a71a48ec",
                        "s" : "0x31e806a13be8afc352f8eef62f73c952a5db94f800e985719d88fed91d26b3df",
                        "to" : "0x03855fc81ba27fb87117ab961e6bef17f7e84250",
                        "v" : "0x1b",
                        "value" : "0x00"
                    },
                    {
                        "data" : "0x6a60015460035560026002556000526000600b60156000f5",
                        "gasLimit" : "0x061a80",
                        "gasPrice" : "0x01",
                        "nonce" : "0x01",
                        "r" : "0x87a55dfcc758fc7c9697c9f74dbf741910c816d6162ce85a25cfdad20d14d63d",
                        "s" : "0x4c55cf5ad08530628ecea0e317bb855bafa2a23ed0fdc4a7d1a20c1b77bab40a",
                        "to" : "",
                        "v" : "0x1b",
                        "value" : "0x00"
                    }
                ],
                "uncleHeaders" : [
                ]
            }
        ],
        "genesisBlockHeader" : {
            "bloom" : "0x00000000000000000000000000000000000000000000000000000000000000000000000000000000000000000000000000000000000000000000000000000000000000000000000000000000000000000000000000000000000000000000000000000000000000000000000000000000000000000000000000000000000000000000000000000000000000000000000000000000000000000000000000000000000000000000000000000000000000000000000000000000000000000000000000000000000000000000000000000000000000000000000000000000000000000000000000000000000000000000000000000000000000000000000000000000",
            "coinbase" : "0x8888f1f195afa192cfee860698584c030f4c9db1",
            "difficulty" : "0x020000",
            "extraData" : "0x42",
            "gasLimit" : "0x2fefd8",
            "gasUsed" : "0x00",
            "hash" : "0xd11d484e754458fdc47bb171f4af049a30804c6a95eb31906b47c8fbf62589a4",
            "mixHash" : "0x56e81f171bcc55a6ff8345e692c0f86e5b48e01b996cadc001622fb5e363b421",
            "nonce" : "0x0102030405060708",
            "number" : "0x00",
            "parentHash" : "0x0000000000000000000000000000000000000000000000000000000000000000",
            "receiptTrie" : "0x56e81f171bcc55a6ff8345e692c0f86e5b48e01b996cadc001622fb5e363b421",
            "stateRoot" : "0xc53d6a6190680f094db29a75caa5ce3e71acec27420624357d7a125fbbbb0c20",
            "timestamp" : "0x54c98c81",
            "transactionsTrie" : "0x56e81f171bcc55a6ff8345e692c0f86e5b48e01b996cadc001622fb5e363b421",
            "uncleHash" : "0x1dcc4de8dec75d7aab85b567b6ccd41ad312451b948a7413f0a142fd40d49347"
        },
        "genesisRLP" : "0xf901fcf901f7a00000000000000000000000000000000000000000000000000000000000000000a01dcc4de8dec75d7aab85b567b6ccd41ad312451b948a7413f0a142fd40d49347948888f1f195afa192cfee860698584c030f4c9db1a0c53d6a6190680f094db29a75caa5ce3e71acec27420624357d7a125fbbbb0c20a056e81f171bcc55a6ff8345e692c0f86e5b48e01b996cadc001622fb5e363b421a056e81f171bcc55a6ff8345e692c0f86e5b48e01b996cadc001622fb5e363b421b90100000000000000000000000000000000000000000000000000000000000000000000000000000000000000000000000000000000000000000000000000000000000000000000000000000000000000000000000000000000000000000000000000000000000000000000000000000000000000000000000000000000000000000000000000000000000000000000000000000000000000000000000000000000000000000000000000000000000000000000000000000000000000000000000000000000000000000000000000000000000000000000000000000000000000000000000000000000000000000000000000000000000000000000000000000000008302000080832fefd8808454c98c8142a056e81f171bcc55a6ff8345e692c0f86e5b48e01b996cadc001622fb5e363b421880102030405060708c0c0",
        "lastblockhash" : "0x8b0b81c3d3d3150fb8a89d3a48a6fb30b35baf201e2f13db0a618079872ce0f5",
        "network" : "ConstantinopleFix",
        "postState" : {
            "0x0000000000000000000000000000000000000001" : {
                "balance" : "0x03e8",
                "code" : "",
                "nonce" : "0x00",
                "storage" : {
                }
            },
            "0x03855fc81ba27fb87117ab961e6bef17f7e84250" : {
                "balance" : "0x00",
                "code" : "",
                "nonce" : "0x01",
                "storage" : {
                    "0x02" : "0x02"
                }
            },
            "0x8888f1f195afa192cfee860698584c030f4c9db1" : {
                "balance" : "0x1bc16d674eca6be3",
                "code" : "",
                "nonce" : "0x00",
                "storage" : {
                }
            },
            "0xa94f5374fce5edbc8e2a8697c15331677e6ebf0b" : {
                "balance" : "0x025409781d",
                "code" : "",
                "nonce" : "0x02",
                "storage" : {
                }
            },
            "0xec0e71ad0a90ffe1909d27dac207f7680abba42d" : {
                "balance" : "0x00",
                "code" : "",
                "nonce" : "0x02",
                "storage" : {
                }
            }
        },
        "pre" : {
            "0x03855fc81ba27fb87117ab961e6bef17f7e84250" : {
                "balance" : "0x03e8",
                "code" : "0x60036001556001ff",
                "nonce" : "0x00",
                "storage" : {
                }
            },
            "0xa94f5374fce5edbc8e2a8697c15331677e6ebf0b" : {
                "balance" : "0x02540be400",
                "code" : "",
                "nonce" : "0x00",
                "storage" : {
                }
            }
        },
        "sealEngine" : "NoProof"
    }
}