{
    "txCost-sec73_Byzantium" : {
        "_info" : {
            "comment" : "this test check transaction rejection if it's gas amount is less than the intrinsic gas amount",
            "filledwith" : "testeth 1.7.0-alpha.0+commit.fe75b954.dirty",
            "lllcversion" : "Version: 0.5.0-develop.2018.11.9+commit.9709dfe0.Linux.g++",
            "source" : "src/BlockchainTestsFiller/bcStateTests/txCost-sec73Filler.json",
            "sourceHash" : "5dbc5c921c81acc4f5de0306c6485f55237ca6ce8c1f647742587c526c2166a6"
        },
        "blocks" : [
            {
                "blockHeader" : {
                    "bloom" : "0x00000000000000000000000000000000000000000000000000000000000000000000000000000000000000000000000000000000000000000000000000000000000000000000000000000000000000000000000000000000000000000000000000000000000000000000000000000000000000000000000000000000000000000000000000000000000000000000000000000000000000000000000000000000000000000000000000000000000000000000000000000000000000000000000000000000000000000000000000000000000000000000000000000000000000000000000000000000000000000000000000000000000000000000000000000000",
                    "coinbase" : "0x2adc25665018aa1fe0e6bc666dac8fc2697ff9ba",
                    "difficulty" : "0x020000",
                    "extraData" : "",
                    "gasLimit" : "0x0f460f",
                    "gasUsed" : "0x00",
                    "hash" : "0xe426bae3c03bb6a33ffdd6e4f5e37ae64c6345bb0d69421bef21d94e5452dafd",
                    "mixHash" : "0x0000000000000000000000000000000000000000000000000000000000000000",
                    "nonce" : "0x0000000000000000",
                    "number" : "0x01",
                    "parentHash" : "0xf288923a276aa26d5f870258daf6688c35aa0086cbda85471d6957a167e12c9f",
                    "receiptTrie" : "0x56e81f171bcc55a6ff8345e692c0f86e5b48e01b996cadc001622fb5e363b421",
                    "stateRoot" : "0xe448f193231f4c9e61f1d6185c440c5c077ce978ff971c4e1be8b85de34ef130",
                    "timestamp" : "0x5d209f60",
                    "transactionsTrie" : "0x56e81f171bcc55a6ff8345e692c0f86e5b48e01b996cadc001622fb5e363b421",
                    "uncleHash" : "0x1dcc4de8dec75d7aab85b567b6ccd41ad312451b948a7413f0a142fd40d49347"
                },
                "rlp" : "0xf901fcf901f7a0f288923a276aa26d5f870258daf6688c35aa0086cbda85471d6957a167e12c9fa01dcc4de8dec75d7aab85b567b6ccd41ad312451b948a7413f0a142fd40d49347942adc25665018aa1fe0e6bc666dac8fc2697ff9baa0e448f193231f4c9e61f1d6185c440c5c077ce978ff971c4e1be8b85de34ef130a056e81f171bcc55a6ff8345e692c0f86e5b48e01b996cadc001622fb5e363b421a056e81f171bcc55a6ff8345e692c0f86e5b48e01b996cadc001622fb5e363b421b90100000000000000000000000000000000000000000000000000000000000000000000000000000000000000000000000000000000000000000000000000000000000000000000000000000000000000000000000000000000000000000000000000000000000000000000000000000000000000000000000000000000000000000000000000000000000000000000000000000000000000000000000000000000000000000000000000000000000000000000000000000000000000000000000000000000000000000000000000000000000000000000000000000000000000000000000000000000000000000000000000000000000000000000000000000000008302000001830f460f80845d209f6080a00000000000000000000000000000000000000000000000000000000000000000880000000000000000c0c0",
                "transactions" : [
                ],
                "uncleHeaders" : [
                ]
            }
        ],
        "genesisBlockHeader" : {
            "bloom" : "0x00000000000000000000000000000000000000000000000000000000000000000000000000000000000000000000000000000000000000000000000000000000000000000000000000000000000000000000000000000000000000000000000000000000000000000000000000000000000000000000000000000000000000000000000000000000000000000000000000000000000000000000000000000000000000000000000000000000000000000000000000000000000000000000000000000000000000000000000000000000000000000000000000000000000000000000000000000000000000000000000000000000000000000000000000000000",
            "coinbase" : "0x2adc25665018aa1fe0e6bc666dac8fc2697ff9ba",
            "difficulty" : "0x020000",
            "extraData" : "0x42",
            "gasLimit" : "0x0f4240",
            "gasUsed" : "0x00",
            "hash" : "0xf288923a276aa26d5f870258daf6688c35aa0086cbda85471d6957a167e12c9f",
            "mixHash" : "0x56e81f171bcc55a6ff8345e692c0f86e5b48e01b996cadc001622fb5e363b421",
            "nonce" : "0x0102030405060708",
            "number" : "0x00",
            "parentHash" : "0x0000000000000000000000000000000000000000000000000000000000000000",
            "receiptTrie" : "0x56e81f171bcc55a6ff8345e692c0f86e5b48e01b996cadc001622fb5e363b421",
            "stateRoot" : "0xb73f1ed022d056909f34484fa432461e4702c1db53c2b8f532a59518620d30ff",
            "timestamp" : "0x03e8",
            "transactionsTrie" : "0x56e81f171bcc55a6ff8345e692c0f86e5b48e01b996cadc001622fb5e363b421",
            "uncleHash" : "0x1dcc4de8dec75d7aab85b567b6ccd41ad312451b948a7413f0a142fd40d49347"
        },
        "genesisRLP" : "0xf901faf901f5a00000000000000000000000000000000000000000000000000000000000000000a01dcc4de8dec75d7aab85b567b6ccd41ad312451b948a7413f0a142fd40d49347942adc25665018aa1fe0e6bc666dac8fc2697ff9baa0b73f1ed022d056909f34484fa432461e4702c1db53c2b8f532a59518620d30ffa056e81f171bcc55a6ff8345e692c0f86e5b48e01b996cadc001622fb5e363b421a056e81f171bcc55a6ff8345e692c0f86e5b48e01b996cadc001622fb5e363b421b90100000000000000000000000000000000000000000000000000000000000000000000000000000000000000000000000000000000000000000000000000000000000000000000000000000000000000000000000000000000000000000000000000000000000000000000000000000000000000000000000000000000000000000000000000000000000000000000000000000000000000000000000000000000000000000000000000000000000000000000000000000000000000000000000000000000000000000000000000000000000000000000000000000000000000000000000000000000000000000000000000000000000000000000000000000000008302000080830f4240808203e842a056e81f171bcc55a6ff8345e692c0f86e5b48e01b996cadc001622fb5e363b421880102030405060708c0c0",
        "lastblockhash" : "0xe426bae3c03bb6a33ffdd6e4f5e37ae64c6345bb0d69421bef21d94e5452dafd",
        "network" : "Byzantium",
        "postState" : {
            "0x095e7baea6a6c7c4c2dfeb977efac326af552d87" : {
                "balance" : "0x00",
                "code" : "",
                "nonce" : "0x00",
                "storage" : {
                }
            },
            "0x2adc25665018aa1fe0e6bc666dac8fc2697ff9ba" : {
                "balance" : "0x29a2241af62c0000",
                "code" : "",
                "nonce" : "0x00",
                "storage" : {
                }
            },
            "0xa94f5374fce5edbc8e2a8697c15331677e6ebf0b" : {
                "balance" : "0x0de0b6b3a7640000",
                "code" : "",
                "nonce" : "0x00",
                "storage" : {
                }
            }
        },
        "pre" : {
            "0x095e7baea6a6c7c4c2dfeb977efac326af552d87" : {
                "balance" : "0x00",
                "code" : "",
                "nonce" : "0x00",
                "storage" : {
                }
            },
            "0xa94f5374fce5edbc8e2a8697c15331677e6ebf0b" : {
                "balance" : "0x0de0b6b3a7640000",
                "code" : "",
                "nonce" : "0x00",
                "storage" : {
                }
            }
        },
        "sealEngine" : "NoProof"
    },
    "txCost-sec73_Constantinople" : {
        "_info" : {
            "comment" : "this test check transaction rejection if it's gas amount is less than the intrinsic gas amount",
            "filledwith" : "testeth 1.7.0-alpha.0+commit.fe75b954.dirty",
            "lllcversion" : "Version: 0.5.0-develop.2018.11.9+commit.9709dfe0.Linux.g++",
            "source" : "src/BlockchainTestsFiller/bcStateTests/txCost-sec73Filler.json",
            "sourceHash" : "5dbc5c921c81acc4f5de0306c6485f55237ca6ce8c1f647742587c526c2166a6"
        },
        "blocks" : [
            {
                "blockHeader" : {
                    "bloom" : "0x00000000000000000000000000000000000000000000000000000000000000000000000000000000000000000000000000000000000000000000000000000000000000000000000000000000000000000000000000000000000000000000000000000000000000000000000000000000000000000000000000000000000000000000000000000000000000000000000000000000000000000000000000000000000000000000000000000000000000000000000000000000000000000000000000000000000000000000000000000000000000000000000000000000000000000000000000000000000000000000000000000000000000000000000000000000",
                    "coinbase" : "0x2adc25665018aa1fe0e6bc666dac8fc2697ff9ba",
                    "difficulty" : "0x020000",
                    "extraData" : "",
                    "gasLimit" : "0x0f460f",
                    "gasUsed" : "0x00",
                    "hash" : "0x0cf3f1f79a4fb76c01bd92a39a2c8a3467f91b77a2582f1583fbe64af298dc93",
                    "mixHash" : "0x0000000000000000000000000000000000000000000000000000000000000000",
                    "nonce" : "0x0000000000000000",
                    "number" : "0x01",
                    "parentHash" : "0xf288923a276aa26d5f870258daf6688c35aa0086cbda85471d6957a167e12c9f",
                    "receiptTrie" : "0x56e81f171bcc55a6ff8345e692c0f86e5b48e01b996cadc001622fb5e363b421",
                    "stateRoot" : "0x934c0b77969ab1e884271b5758c24e527d684c8d0883aec9a47d9adedcf261f2",
                    "timestamp" : "0x5d209f60",
                    "transactionsTrie" : "0x56e81f171bcc55a6ff8345e692c0f86e5b48e01b996cadc001622fb5e363b421",
                    "uncleHash" : "0x1dcc4de8dec75d7aab85b567b6ccd41ad312451b948a7413f0a142fd40d49347"
                },
                "rlp" : "0xf901fcf901f7a0f288923a276aa26d5f870258daf6688c35aa0086cbda85471d6957a167e12c9fa01dcc4de8dec75d7aab85b567b6ccd41ad312451b948a7413f0a142fd40d49347942adc25665018aa1fe0e6bc666dac8fc2697ff9baa0934c0b77969ab1e884271b5758c24e527d684c8d0883aec9a47d9adedcf261f2a056e81f171bcc55a6ff8345e692c0f86e5b48e01b996cadc001622fb5e363b421a056e81f171bcc55a6ff8345e692c0f86e5b48e01b996cadc001622fb5e363b421b90100000000000000000000000000000000000000000000000000000000000000000000000000000000000000000000000000000000000000000000000000000000000000000000000000000000000000000000000000000000000000000000000000000000000000000000000000000000000000000000000000000000000000000000000000000000000000000000000000000000000000000000000000000000000000000000000000000000000000000000000000000000000000000000000000000000000000000000000000000000000000000000000000000000000000000000000000000000000000000000000000000000000000000000000000000000008302000001830f460f80845d209f6080a00000000000000000000000000000000000000000000000000000000000000000880000000000000000c0c0",
                "transactions" : [
                ],
                "uncleHeaders" : [
                ]
            }
        ],
        "genesisBlockHeader" : {
            "bloom" : "0x00000000000000000000000000000000000000000000000000000000000000000000000000000000000000000000000000000000000000000000000000000000000000000000000000000000000000000000000000000000000000000000000000000000000000000000000000000000000000000000000000000000000000000000000000000000000000000000000000000000000000000000000000000000000000000000000000000000000000000000000000000000000000000000000000000000000000000000000000000000000000000000000000000000000000000000000000000000000000000000000000000000000000000000000000000000",
            "coinbase" : "0x2adc25665018aa1fe0e6bc666dac8fc2697ff9ba",
            "difficulty" : "0x020000",
            "extraData" : "0x42",
            "gasLimit" : "0x0f4240",
            "gasUsed" : "0x00",
            "hash" : "0xf288923a276aa26d5f870258daf6688c35aa0086cbda85471d6957a167e12c9f",
            "mixHash" : "0x56e81f171bcc55a6ff8345e692c0f86e5b48e01b996cadc001622fb5e363b421",
            "nonce" : "0x0102030405060708",
            "number" : "0x00",
            "parentHash" : "0x0000000000000000000000000000000000000000000000000000000000000000",
            "receiptTrie" : "0x56e81f171bcc55a6ff8345e692c0f86e5b48e01b996cadc001622fb5e363b421",
            "stateRoot" : "0xb73f1ed022d056909f34484fa432461e4702c1db53c2b8f532a59518620d30ff",
            "timestamp" : "0x03e8",
            "transactionsTrie" : "0x56e81f171bcc55a6ff8345e692c0f86e5b48e01b996cadc001622fb5e363b421",
            "uncleHash" : "0x1dcc4de8dec75d7aab85b567b6ccd41ad312451b948a7413f0a142fd40d49347"
        },
        "genesisRLP" : "0xf901faf901f5a00000000000000000000000000000000000000000000000000000000000000000a01dcc4de8dec75d7aab85b567b6ccd41ad312451b948a7413f0a142fd40d49347942adc25665018aa1fe0e6bc666dac8fc2697ff9baa0b73f1ed022d056909f34484fa432461e4702c1db53c2b8f532a59518620d30ffa056e81f171bcc55a6ff8345e692c0f86e5b48e01b996cadc001622fb5e363b421a056e81f171bcc55a6ff8345e692c0f86e5b48e01b996cadc001622fb5e363b421b90100000000000000000000000000000000000000000000000000000000000000000000000000000000000000000000000000000000000000000000000000000000000000000000000000000000000000000000000000000000000000000000000000000000000000000000000000000000000000000000000000000000000000000000000000000000000000000000000000000000000000000000000000000000000000000000000000000000000000000000000000000000000000000000000000000000000000000000000000000000000000000000000000000000000000000000000000000000000000000000000000000000000000000000000000000000008302000080830f4240808203e842a056e81f171bcc55a6ff8345e692c0f86e5b48e01b996cadc001622fb5e363b421880102030405060708c0c0",
        "lastblockhash" : "0x0cf3f1f79a4fb76c01bd92a39a2c8a3467f91b77a2582f1583fbe64af298dc93",
        "network" : "Constantinople",
        "postState" : {
            "0x095e7baea6a6c7c4c2dfeb977efac326af552d87" : {
                "balance" : "0x00",
                "code" : "",
                "nonce" : "0x00",
                "storage" : {
                }
            },
            "0x2adc25665018aa1fe0e6bc666dac8fc2697ff9ba" : {
                "balance" : "0x1bc16d674ec80000",
                "code" : "",
                "nonce" : "0x00",
                "storage" : {
                }
            },
            "0xa94f5374fce5edbc8e2a8697c15331677e6ebf0b" : {
                "balance" : "0x0de0b6b3a7640000",
                "code" : "",
                "nonce" : "0x00",
                "storage" : {
                }
            }
        },
        "pre" : {
            "0x095e7baea6a6c7c4c2dfeb977efac326af552d87" : {
                "balance" : "0x00",
                "code" : "",
                "nonce" : "0x00",
                "storage" : {
                }
            },
            "0xa94f5374fce5edbc8e2a8697c15331677e6ebf0b" : {
                "balance" : "0x0de0b6b3a7640000",
                "code" : "",
                "nonce" : "0x00",
                "storage" : {
                }
            }
        },
        "sealEngine" : "NoProof"
    },
    "txCost-sec73_ConstantinopleFix" : {
        "_info" : {
            "comment" : "this test check transaction rejection if it's gas amount is less than the intrinsic gas amount",
            "filledwith" : "testeth 1.7.0-alpha.0+commit.fe75b954.dirty",
            "lllcversion" : "Version: 0.5.0-develop.2018.11.9+commit.9709dfe0.Linux.g++",
            "source" : "src/BlockchainTestsFiller/bcStateTests/txCost-sec73Filler.json",
            "sourceHash" : "5dbc5c921c81acc4f5de0306c6485f55237ca6ce8c1f647742587c526c2166a6"
        },
        "blocks" : [
            {
                "blockHeader" : {
                    "bloom" : "0x00000000000000000000000000000000000000000000000000000000000000000000000000000000000000000000000000000000000000000000000000000000000000000000000000000000000000000000000000000000000000000000000000000000000000000000000000000000000000000000000000000000000000000000000000000000000000000000000000000000000000000000000000000000000000000000000000000000000000000000000000000000000000000000000000000000000000000000000000000000000000000000000000000000000000000000000000000000000000000000000000000000000000000000000000000000",
                    "coinbase" : "0x2adc25665018aa1fe0e6bc666dac8fc2697ff9ba",
                    "difficulty" : "0x020000",
                    "extraData" : "",
                    "gasLimit" : "0x0f460f",
                    "gasUsed" : "0x00",
                    "hash" : "0x0cf3f1f79a4fb76c01bd92a39a2c8a3467f91b77a2582f1583fbe64af298dc93",
                    "mixHash" : "0x0000000000000000000000000000000000000000000000000000000000000000",
                    "nonce" : "0x0000000000000000",
                    "number" : "0x01",
                    "parentHash" : "0xf288923a276aa26d5f870258daf6688c35aa0086cbda85471d6957a167e12c9f",
                    "receiptTrie" : "0x56e81f171bcc55a6ff8345e692c0f86e5b48e01b996cadc001622fb5e363b421",
                    "stateRoot" : "0x934c0b77969ab1e884271b5758c24e527d684c8d0883aec9a47d9adedcf261f2",
                    "timestamp" : "0x5d209f60",
                    "transactionsTrie" : "0x56e81f171bcc55a6ff8345e692c0f86e5b48e01b996cadc001622fb5e363b421",
                    "uncleHash" : "0x1dcc4de8dec75d7aab85b567b6ccd41ad312451b948a7413f0a142fd40d49347"
                },
                "rlp" : "0xf901fcf901f7a0f288923a276aa26d5f870258daf6688c35aa0086cbda85471d6957a167e12c9fa01dcc4de8dec75d7aab85b567b6ccd41ad312451b948a7413f0a142fd40d49347942adc25665018aa1fe0e6bc666dac8fc2697ff9baa0934c0b77969ab1e884271b5758c24e527d684c8d0883aec9a47d9adedcf261f2a056e81f171bcc55a6ff8345e692c0f86e5b48e01b996cadc001622fb5e363b421a056e81f171bcc55a6ff8345e692c0f86e5b48e01b996cadc001622fb5e363b421b90100000000000000000000000000000000000000000000000000000000000000000000000000000000000000000000000000000000000000000000000000000000000000000000000000000000000000000000000000000000000000000000000000000000000000000000000000000000000000000000000000000000000000000000000000000000000000000000000000000000000000000000000000000000000000000000000000000000000000000000000000000000000000000000000000000000000000000000000000000000000000000000000000000000000000000000000000000000000000000000000000000000000000000000000000000000008302000001830f460f80845d209f6080a00000000000000000000000000000000000000000000000000000000000000000880000000000000000c0c0",
                "transactions" : [
                ],
                "uncleHeaders" : [
                ]
            }
        ],
        "genesisBlockHeader" : {
            "bloom" : "0x00000000000000000000000000000000000000000000000000000000000000000000000000000000000000000000000000000000000000000000000000000000000000000000000000000000000000000000000000000000000000000000000000000000000000000000000000000000000000000000000000000000000000000000000000000000000000000000000000000000000000000000000000000000000000000000000000000000000000000000000000000000000000000000000000000000000000000000000000000000000000000000000000000000000000000000000000000000000000000000000000000000000000000000000000000000",
            "coinbase" : "0x2adc25665018aa1fe0e6bc666dac8fc2697ff9ba",
            "difficulty" : "0x020000",
            "extraData" : "0x42",
            "gasLimit" : "0x0f4240",
            "gasUsed" : "0x00",
            "hash" : "0xf288923a276aa26d5f870258daf6688c35aa0086cbda85471d6957a167e12c9f",
            "mixHash" : "0x56e81f171bcc55a6ff8345e692c0f86e5b48e01b996cadc001622fb5e363b421",
            "nonce" : "0x0102030405060708",
            "number" : "0x00",
            "parentHash" : "0x0000000000000000000000000000000000000000000000000000000000000000",
            "receiptTrie" : "0x56e81f171bcc55a6ff8345e692c0f86e5b48e01b996cadc001622fb5e363b421",
            "stateRoot" : "0xb73f1ed022d056909f34484fa432461e4702c1db53c2b8f532a59518620d30ff",
            "timestamp" : "0x03e8",
            "transactionsTrie" : "0x56e81f171bcc55a6ff8345e692c0f86e5b48e01b996cadc001622fb5e363b421",
            "uncleHash" : "0x1dcc4de8dec75d7aab85b567b6ccd41ad312451b948a7413f0a142fd40d49347"
        },
        "genesisRLP" : "0xf901faf901f5a00000000000000000000000000000000000000000000000000000000000000000a01dcc4de8dec75d7aab85b567b6ccd41ad312451b948a7413f0a142fd40d49347942adc25665018aa1fe0e6bc666dac8fc2697ff9baa0b73f1ed022d056909f34484fa432461e4702c1db53c2b8f532a59518620d30ffa056e81f171bcc55a6ff8345e692c0f86e5b48e01b996cadc001622fb5e363b421a056e81f171bcc55a6ff8345e692c0f86e5b48e01b996cadc001622fb5e363b421b90100000000000000000000000000000000000000000000000000000000000000000000000000000000000000000000000000000000000000000000000000000000000000000000000000000000000000000000000000000000000000000000000000000000000000000000000000000000000000000000000000000000000000000000000000000000000000000000000000000000000000000000000000000000000000000000000000000000000000000000000000000000000000000000000000000000000000000000000000000000000000000000000000000000000000000000000000000000000000000000000000000000000000000000000000000000008302000080830f4240808203e842a056e81f171bcc55a6ff8345e692c0f86e5b48e01b996cadc001622fb5e363b421880102030405060708c0c0",
        "lastblockhash" : "0x0cf3f1f79a4fb76c01bd92a39a2c8a3467f91b77a2582f1583fbe64af298dc93",
        "network" : "ConstantinopleFix",
        "postState" : {
            "0x095e7baea6a6c7c4c2dfeb977efac326af552d87" : {
                "balance" : "0x00",
                "code" : "",
                "nonce" : "0x00",
                "storage" : {
                }
            },
            "0x2adc25665018aa1fe0e6bc666dac8fc2697ff9ba" : {
                "balance" : "0x1bc16d674ec80000",
                "code" : "",
                "nonce" : "0x00",
                "storage" : {
                }
            },
            "0xa94f5374fce5edbc8e2a8697c15331677e6ebf0b" : {
                "balance" : "0x0de0b6b3a7640000",
                "code" : "",
                "nonce" : "0x00",
                "storage" : {
                }
            }
        },
        "pre" : {
            "0x095e7baea6a6c7c4c2dfeb977efac326af552d87" : {
                "balance" : "0x00",
                "code" : "",
                "nonce" : "0x00",
                "storage" : {
                }
            },
            "0xa94f5374fce5edbc8e2a8697c15331677e6ebf0b" : {
                "balance" : "0x0de0b6b3a7640000",
                "code" : "",
                "nonce" : "0x00",
                "storage" : {
                }
            }
        },
        "sealEngine" : "NoProof"
    }
}