{
    "InChainUncleGreatGreatGreatGreatGrandPa_Frontier" : {
        "_info" : {
            "comment" : "",
            "filledwith" : "testeth 1.6.0-alpha.0-12+commit.05b55e64",
            "lllcversion" : "Version: 0.5.0-develop.2018.11.9+commit.9709dfe0.Linux.g++",
            "source" : "src/BlockchainTestsFiller/bcUncleTest/InChainUncleGreatGreatGreatGreatGrandPaFiller.json",
            "sourceHash" : "85aa386b73ab82273d2d4a0f384dc4cf7b91e512ea8e6365b09d769ecded13b3"
        },
        "blocks" : [
            {
                "blockHeader" : {
                    "bloom" : "0x00000000000000000000000000000000000000000000000000000000000000000000000000000000000000000000000000000000000000000000000000000000000000000000000000000000000000000000000000000000000000000000000000000000000000000000000000000000000000000000000000000000000000000000000000000000000000000000000000000000000000000000000000000000000000000000000000000000000000000000000000000000000000000000000000000000000000000000000000000000000000000000000000000000000000000000000000000000000000000000000000000000000000000000000000000000",
                    "coinbase" : "0x8888f1f195afa192cfee860698584c030f4c9db1",
                    "difficulty" : "0x020000",
                    "extraData" : "",
                    "gasLimit" : "0x2fefba",
                    "gasUsed" : "0x5208",
                    "hash" : "0xd31aacfd6f3af82c79a8273ce1cb66d023f3bb3334f164181e37bef48b93a8a4",
                    "mixHash" : "0x0000000000000000000000000000000000000000000000000000000000000000",
                    "nonce" : "0x0000000000000000",
                    "number" : "0x01",
                    "parentHash" : "0x5a39ed1020c04d4d84539975b893a4e7c53eab6c2965db8bc3468093a31bc5ae",
                    "receiptTrie" : "0xe9244cf7503b79c03d3a099e07a80d2dbc77bb0b502d8a89d51ac0d68dd31313",
                    "stateRoot" : "0xcb52de543653d86ccd13ba3ddf8b052525b04231c6884a4db3188a184681d878",
                    "timestamp" : "0x5c4776d9",
                    "transactionsTrie" : "0x5c9151c2413d1cd25c51ffb4ac38948acc1359bf08c6b49f283660e9bcf0f516",
                    "uncleHash" : "0x1dcc4de8dec75d7aab85b567b6ccd41ad312451b948a7413f0a142fd40d49347"
                },
                "rlp" : "0xf90261f901f9a05a39ed1020c04d4d84539975b893a4e7c53eab6c2965db8bc3468093a31bc5aea01dcc4de8dec75d7aab85b567b6ccd41ad312451b948a7413f0a142fd40d49347948888f1f195afa192cfee860698584c030f4c9db1a0cb52de543653d86ccd13ba3ddf8b052525b04231c6884a4db3188a184681d878a05c9151c2413d1cd25c51ffb4ac38948acc1359bf08c6b49f283660e9bcf0f516a0e9244cf7503b79c03d3a099e07a80d2dbc77bb0b502d8a89d51ac0d68dd31313b90100000000000000000000000000000000000000000000000000000000000000000000000000000000000000000000000000000000000000000000000000000000000000000000000000000000000000000000000000000000000000000000000000000000000000000000000000000000000000000000000000000000000000000000000000000000000000000000000000000000000000000000000000000000000000000000000000000000000000000000000000000000000000000000000000000000000000000000000000000000000000000000000000000000000000000000000000000000000000000000000000000000000000000000000000000000008302000001832fefba825208845c4776d980a00000000000000000000000000000000000000000000000000000000000000000880000000000000000f862f86080018304cb2f94095e7baea6a6c7c4c2dfeb977efac326af552d870a801ba077c7cd36820c71821c1aed59de46e70e701c4a8dd89c9ba508ab722210f60da8a03f29825d40c7c3f7bff3ca69267e0f3fb74b2d18b8c2c4e3c135b5d3b06e288dc0",
                "transactions" : [
                    {
                        "data" : "0x",
                        "gasLimit" : "0x04cb2f",
                        "gasPrice" : "0x01",
                        "nonce" : "0x00",
                        "r" : "0x77c7cd36820c71821c1aed59de46e70e701c4a8dd89c9ba508ab722210f60da8",
                        "s" : "0x3f29825d40c7c3f7bff3ca69267e0f3fb74b2d18b8c2c4e3c135b5d3b06e288d",
                        "to" : "0x095e7baea6a6c7c4c2dfeb977efac326af552d87",
                        "v" : "0x1b",
                        "value" : "0x0a"
                    }
                ],
                "uncleHeaders" : [
                ]
            },
            {
                "blockHeader" : {
                    "bloom" : "0x00000000000000000000000000000000000000000000000000000000000000000000000000000000000000000000000000000000000000000000000000000000000000000000000000000000000000000000000000000000000000000000000000000000000000000000000000000000000000000000000000000000000000000000000000000000000000000000000000000000000000000000000000000000000000000000000000000000000000000000000000000000000000000000000000000000000000000000000000000000000000000000000000000000000000000000000000000000000000000000000000000000000000000000000000000000",
                    "coinbase" : "0x8888f1f195afa192cfee860698584c030f4c9db1",
                    "difficulty" : "0x020040",
                    "extraData" : "",
                    "gasLimit" : "0x2fefba",
                    "gasUsed" : "0x5208",
                    "hash" : "0xb80011d7bc612597ca1f3afccbb3a73db0c52a37d5f96abe65c63b015aaf25e0",
                    "mixHash" : "0x0000000000000000000000000000000000000000000000000000000000000000",
                    "nonce" : "0x0000000000000000",
                    "number" : "0x02",
                    "parentHash" : "0xd31aacfd6f3af82c79a8273ce1cb66d023f3bb3334f164181e37bef48b93a8a4",
                    "receiptTrie" : "0x5ea1a8b24652fed0ecab4738edd9211891eb8c4353c345973b78a02cc0f32f6b",
                    "stateRoot" : "0xe7e4760f75476ec7f51869d8bdce5c693058fd5a95c77ea9c0bf7ced1e50d70e",
                    "timestamp" : "0x5c4776da",
                    "transactionsTrie" : "0xc673e076264c4669a5c2e479f1757b78e42511efe33b5fd2c0a23b929c7f87f5",
                    "uncleHash" : "0x1dcc4de8dec75d7aab85b567b6ccd41ad312451b948a7413f0a142fd40d49347"
                },
                "rlp" : "0xf90260f901f9a0d31aacfd6f3af82c79a8273ce1cb66d023f3bb3334f164181e37bef48b93a8a4a01dcc4de8dec75d7aab85b567b6ccd41ad312451b948a7413f0a142fd40d49347948888f1f195afa192cfee860698584c030f4c9db1a0e7e4760f75476ec7f51869d8bdce5c693058fd5a95c77ea9c0bf7ced1e50d70ea0c673e076264c4669a5c2e479f1757b78e42511efe33b5fd2c0a23b929c7f87f5a05ea1a8b24652fed0ecab4738edd9211891eb8c4353c345973b78a02cc0f32f6bb90100000000000000000000000000000000000000000000000000000000000000000000000000000000000000000000000000000000000000000000000000000000000000000000000000000000000000000000000000000000000000000000000000000000000000000000000000000000000000000000000000000000000000000000000000000000000000000000000000000000000000000000000000000000000000000000000000000000000000000000000000000000000000000000000000000000000000000000000000000000000000000000000000000000000000000000000000000000000000000000000000000000000000000000000000000000008302004002832fefba825208845c4776da80a00000000000000000000000000000000000000000000000000000000000000000880000000000000000f861f85f01018304cb2f94095e7baea6a6c7c4c2dfeb977efac326af552d870a801ba033c86e64d708c97c6b135cadff79dbf45985aa0b53694789e90d15f756765f239f1d0f8caa2a16405148c9d85581be5814960010f3cba938b5501590cea1f7cfc0",
                "transactions" : [
                    {
                        "data" : "0x",
                        "gasLimit" : "0x04cb2f",
                        "gasPrice" : "0x01",
                        "nonce" : "0x01",
                        "r" : "0x33c86e64d708c97c6b135cadff79dbf45985aa0b53694789e90d15f756765f23",
                        "s" : "0x1d0f8caa2a16405148c9d85581be5814960010f3cba938b5501590cea1f7cf",
                        "to" : "0x095e7baea6a6c7c4c2dfeb977efac326af552d87",
                        "v" : "0x1b",
                        "value" : "0x0a"
                    }
                ],
                "uncleHeaders" : [
                ]
            },
            {
                "blockHeader" : {
                    "bloom" : "0x00000000000000000000000000000000000000000000000000000000000000000000000000000000000000000000000000000000000000000000000000000000000000000000000000000000000000000000000000000000000000000000000000000000000000000000000000000000000000000000000000000000000000000000000000000000000000000000000000000000000000000000000000000000000000000000000000000000000000000000000000000000000000000000000000000000000000000000000000000000000000000000000000000000000000000000000000000000000000000000000000000000000000000000000000000000",
                    "coinbase" : "0x8888f1f195afa192cfee860698584c030f4c9db1",
                    "difficulty" : "0x020080",
                    "extraData" : "",
                    "gasLimit" : "0x2fefba",
                    "gasUsed" : "0x5208",
                    "hash" : "0x324152199cd8dd7335d1e44b4a52831d2e51c49a533ae4348af8b41d7f517a36",
                    "mixHash" : "0x0000000000000000000000000000000000000000000000000000000000000000",
                    "nonce" : "0x0000000000000000",
                    "number" : "0x03",
                    "parentHash" : "0xb80011d7bc612597ca1f3afccbb3a73db0c52a37d5f96abe65c63b015aaf25e0",
                    "receiptTrie" : "0x4ede0225773c7a517b91994aca65ade45124e7ef4b8be1e6097c9773a11920af",
                    "stateRoot" : "0x611bfab1015d8c54765dff6be143b5ac81757633aa8859a72262099e1d848ce8",
                    "timestamp" : "0x5c4776db",
                    "transactionsTrie" : "0x1722b8a91bfc4f5614ce36ee77c7cce6620ab4af36d3c54baa66d7dbeb7bce1a",
                    "uncleHash" : "0x1dcc4de8dec75d7aab85b567b6ccd41ad312451b948a7413f0a142fd40d49347"
                },
                "rlp" : "0xf90261f901f9a0b80011d7bc612597ca1f3afccbb3a73db0c52a37d5f96abe65c63b015aaf25e0a01dcc4de8dec75d7aab85b567b6ccd41ad312451b948a7413f0a142fd40d49347948888f1f195afa192cfee860698584c030f4c9db1a0611bfab1015d8c54765dff6be143b5ac81757633aa8859a72262099e1d848ce8a01722b8a91bfc4f5614ce36ee77c7cce6620ab4af36d3c54baa66d7dbeb7bce1aa04ede0225773c7a517b91994aca65ade45124e7ef4b8be1e6097c9773a11920afb90100000000000000000000000000000000000000000000000000000000000000000000000000000000000000000000000000000000000000000000000000000000000000000000000000000000000000000000000000000000000000000000000000000000000000000000000000000000000000000000000000000000000000000000000000000000000000000000000000000000000000000000000000000000000000000000000000000000000000000000000000000000000000000000000000000000000000000000000000000000000000000000000000000000000000000000000000000000000000000000000000000000000000000000000000000000008302008003832fefba825208845c4776db80a00000000000000000000000000000000000000000000000000000000000000000880000000000000000f862f86002018304cb2f94095e7baea6a6c7c4c2dfeb977efac326af552d870a801ca015eb1cc916728b9799e55c489857727669afb2986433d5f54cde11faaed9f0eea05d36f6d06c34aae8d0a2a5895c8ba4a17ad46a5fa59f361cb3e7e01a23030e38c0",
                "transactions" : [
                    {
                        "data" : "0x",
                        "gasLimit" : "0x04cb2f",
                        "gasPrice" : "0x01",
                        "nonce" : "0x02",
                        "r" : "0x15eb1cc916728b9799e55c489857727669afb2986433d5f54cde11faaed9f0ee",
                        "s" : "0x5d36f6d06c34aae8d0a2a5895c8ba4a17ad46a5fa59f361cb3e7e01a23030e38",
                        "to" : "0x095e7baea6a6c7c4c2dfeb977efac326af552d87",
                        "v" : "0x1c",
                        "value" : "0x0a"
                    }
                ],
                "uncleHeaders" : [
                ]
            },
            {
                "blockHeader" : {
                    "bloom" : "0x00000000000000000000000000000000000000000000000000000000000000000000000000000000000000000000000000000000000000000000000000000000000000000000000000000000000000000000000000000000000000000000000000000000000000000000000000000000000000000000000000000000000000000000000000000000000000000000000000000000000000000000000000000000000000000000000000000000000000000000000000000000000000000000000000000000000000000000000000000000000000000000000000000000000000000000000000000000000000000000000000000000000000000000000000000000",
                    "coinbase" : "0x8888f1f195afa192cfee860698584c030f4c9db1",
                    "difficulty" : "0x0200c0",
                    "extraData" : "",
                    "gasLimit" : "0x2fefba",
                    "gasUsed" : "0x5208",
                    "hash" : "0x9edbac9beedb912219fa9ba005cfa2cba119aab6e2059dd3ec82e36086a7ddde",
                    "mixHash" : "0x0000000000000000000000000000000000000000000000000000000000000000",
                    "nonce" : "0x0000000000000000",
                    "number" : "0x04",
                    "parentHash" : "0x324152199cd8dd7335d1e44b4a52831d2e51c49a533ae4348af8b41d7f517a36",
                    "receiptTrie" : "0x69deb0f79afb53bdf4c14eba71e4404be1094d3d788ecc339f017c2e58893be9",
                    "stateRoot" : "0x0c3ce4dfb1b837f3b857028aff9c63f24359d84a006f1241770ab8331dde3107",
                    "timestamp" : "0x5c4776dc",
                    "transactionsTrie" : "0x9735e49acaddb4d8338ed33df8dd006449b20b85e89e47224ac8ec8f7ea26071",
                    "uncleHash" : "0x1dcc4de8dec75d7aab85b567b6ccd41ad312451b948a7413f0a142fd40d49347"
                },
                "rlp" : "0xf90261f901f9a0324152199cd8dd7335d1e44b4a52831d2e51c49a533ae4348af8b41d7f517a36a01dcc4de8dec75d7aab85b567b6ccd41ad312451b948a7413f0a142fd40d49347948888f1f195afa192cfee860698584c030f4c9db1a00c3ce4dfb1b837f3b857028aff9c63f24359d84a006f1241770ab8331dde3107a09735e49acaddb4d8338ed33df8dd006449b20b85e89e47224ac8ec8f7ea26071a069deb0f79afb53bdf4c14eba71e4404be1094d3d788ecc339f017c2e58893be9b9010000000000000000000000000000000000000000000000000000000000000000000000000000000000000000000000000000000000000000000000000000000000000000000000000000000000000000000000000000000000000000000000000000000000000000000000000000000000000000000000000000000000000000000000000000000000000000000000000000000000000000000000000000000000000000000000000000000000000000000000000000000000000000000000000000000000000000000000000000000000000000000000000000000000000000000000000000000000000000000000000000000000000000000000000000000000830200c004832fefba825208845c4776dc80a00000000000000000000000000000000000000000000000000000000000000000880000000000000000f862f86003018304cb2f94095e7baea6a6c7c4c2dfeb977efac326af552d870a801ba0a7b7f2fa93025fc1e6aa18c1aa07c32a456439754e196cb74f2f7d12cf3e840da02078cf840fb25fc3d858b2a85b622f21be0588b5c5d81d433427f6470e06a4a7c0",
                "transactions" : [
                    {
                        "data" : "0x",
                        "gasLimit" : "0x04cb2f",
                        "gasPrice" : "0x01",
                        "nonce" : "0x03",
                        "r" : "0xa7b7f2fa93025fc1e6aa18c1aa07c32a456439754e196cb74f2f7d12cf3e840d",
                        "s" : "0x2078cf840fb25fc3d858b2a85b622f21be0588b5c5d81d433427f6470e06a4a7",
                        "to" : "0x095e7baea6a6c7c4c2dfeb977efac326af552d87",
                        "v" : "0x1b",
                        "value" : "0x0a"
                    }
                ],
                "uncleHeaders" : [
                ]
            },
            {
                "blockHeader" : {
                    "bloom" : "0x00000000000000000000000000000000000000000000000000000000000000000000000000000000000000000000000000000000000000000000000000000000000000000000000000000000000000000000000000000000000000000000000000000000000000000000000000000000000000000000000000000000000000000000000000000000000000000000000000000000000000000000000000000000000000000000000000000000000000000000000000000000000000000000000000000000000000000000000000000000000000000000000000000000000000000000000000000000000000000000000000000000000000000000000000000000",
                    "coinbase" : "0x8888f1f195afa192cfee860698584c030f4c9db1",
                    "difficulty" : "0x020100",
                    "extraData" : "",
                    "gasLimit" : "0x2fefba",
                    "gasUsed" : "0x5208",
                    "hash" : "0x55e32a43df3cf1d1120aff313273d17844e9dc88738465066b3339e947caef05",
                    "mixHash" : "0x0000000000000000000000000000000000000000000000000000000000000000",
                    "nonce" : "0x0000000000000000",
                    "number" : "0x05",
                    "parentHash" : "0x9edbac9beedb912219fa9ba005cfa2cba119aab6e2059dd3ec82e36086a7ddde",
                    "receiptTrie" : "0xe2ae757a304ff8d30220499b6abac6ab78a67232d6d7b6bf4a6ca4b863b64ff9",
                    "stateRoot" : "0x72f178532a814ac25b12f6aa78d93fa62f6f22d00632316b89d5ff3245dcfb19",
                    "timestamp" : "0x5c4776dd",
                    "transactionsTrie" : "0x7e457eebaff319b52b0446acbf66b7d4d641643ec78446b22fa087d412a858a1",
                    "uncleHash" : "0x1dcc4de8dec75d7aab85b567b6ccd41ad312451b948a7413f0a142fd40d49347"
                },
                "rlp" : "0xf90261f901f9a09edbac9beedb912219fa9ba005cfa2cba119aab6e2059dd3ec82e36086a7dddea01dcc4de8dec75d7aab85b567b6ccd41ad312451b948a7413f0a142fd40d49347948888f1f195afa192cfee860698584c030f4c9db1a072f178532a814ac25b12f6aa78d93fa62f6f22d00632316b89d5ff3245dcfb19a07e457eebaff319b52b0446acbf66b7d4d641643ec78446b22fa087d412a858a1a0e2ae757a304ff8d30220499b6abac6ab78a67232d6d7b6bf4a6ca4b863b64ff9b90100000000000000000000000000000000000000000000000000000000000000000000000000000000000000000000000000000000000000000000000000000000000000000000000000000000000000000000000000000000000000000000000000000000000000000000000000000000000000000000000000000000000000000000000000000000000000000000000000000000000000000000000000000000000000000000000000000000000000000000000000000000000000000000000000000000000000000000000000000000000000000000000000000000000000000000000000000000000000000000000000000000000000000000000000000000008302010005832fefba825208845c4776dd80a00000000000000000000000000000000000000000000000000000000000000000880000000000000000f862f86004018304cb2f94095e7baea6a6c7c4c2dfeb977efac326af552d870a801ba0ce71dc96c33cae8ba60e25cc2a00a83e4a9fc564520cec1449f63da7435fcb29a0796d06a71cf9a4a3a680421d69147413fa1e903f181f9782783ad9ca55d36b13c0",
                "transactions" : [
                    {
                        "data" : "0x",
                        "gasLimit" : "0x04cb2f",
                        "gasPrice" : "0x01",
                        "nonce" : "0x04",
                        "r" : "0xce71dc96c33cae8ba60e25cc2a00a83e4a9fc564520cec1449f63da7435fcb29",
                        "s" : "0x796d06a71cf9a4a3a680421d69147413fa1e903f181f9782783ad9ca55d36b13",
                        "to" : "0x095e7baea6a6c7c4c2dfeb977efac326af552d87",
                        "v" : "0x1b",
                        "value" : "0x0a"
                    }
                ],
                "uncleHeaders" : [
                ]
            },
            {
                "blockHeader" : {
                    "bloom" : "0x00000000000000000000000000000000000000000000000000000000000000000000000000000000000000000000000000000000000000000000000000000000000000000000000000000000000000000000000000000000000000000000000000000000000000000000000000000000000000000000000000000000000000000000000000000000000000000000000000000000000000000000000000000000000000000000000000000000000000000000000000000000000000000000000000000000000000000000000000000000000000000000000000000000000000000000000000000000000000000000000000000000000000000000000000000000",
                    "coinbase" : "0x8888f1f195afa192cfee860698584c030f4c9db1",
                    "difficulty" : "0x020140",
                    "extraData" : "",
                    "gasLimit" : "0x2fefba",
                    "gasUsed" : "0x5208",
                    "hash" : "0xa45a288cf40bc39c2c02a578310f33bca85d36d2f40e3d342058841936408a91",
                    "mixHash" : "0x0000000000000000000000000000000000000000000000000000000000000000",
                    "nonce" : "0x0000000000000000",
                    "number" : "0x06",
                    "parentHash" : "0x55e32a43df3cf1d1120aff313273d17844e9dc88738465066b3339e947caef05",
                    "receiptTrie" : "0x849a66e138adff4a516bf3cdf9734e092027eadf37fca9320f2d422bda58a01f",
                    "stateRoot" : "0x4fce7db8f2e81e86d93c8d95fbe34fcd7091927b19a7ef15d37efc8debe0f640",
                    "timestamp" : "0x5c4776de",
                    "transactionsTrie" : "0x72e4aac2bdb78c4c3f8e50bf39b1aa8714fdbf32c1d3426750b9c108c52ce8fd",
                    "uncleHash" : "0x1dcc4de8dec75d7aab85b567b6ccd41ad312451b948a7413f0a142fd40d49347"
                },
                "rlp" : "0xf90261f901f9a055e32a43df3cf1d1120aff313273d17844e9dc88738465066b3339e947caef05a01dcc4de8dec75d7aab85b567b6ccd41ad312451b948a7413f0a142fd40d49347948888f1f195afa192cfee860698584c030f4c9db1a04fce7db8f2e81e86d93c8d95fbe34fcd7091927b19a7ef15d37efc8debe0f640a072e4aac2bdb78c4c3f8e50bf39b1aa8714fdbf32c1d3426750b9c108c52ce8fda0849a66e138adff4a516bf3cdf9734e092027eadf37fca9320f2d422bda58a01fb90100000000000000000000000000000000000000000000000000000000000000000000000000000000000000000000000000000000000000000000000000000000000000000000000000000000000000000000000000000000000000000000000000000000000000000000000000000000000000000000000000000000000000000000000000000000000000000000000000000000000000000000000000000000000000000000000000000000000000000000000000000000000000000000000000000000000000000000000000000000000000000000000000000000000000000000000000000000000000000000000000000000000000000000000000000000008302014006832fefba825208845c4776de80a00000000000000000000000000000000000000000000000000000000000000000880000000000000000f862f86005018304cb2f94095e7baea6a6c7c4c2dfeb977efac326af552d870a801ba0b6a4064ef7d23f0e149472d6f1257055149840b6c73a4ae25e595b9f9fc78edca004ad52e8157ae742b551851d58fd6c3919cd7e5a0a9c6685d5bc630a657dcde7c0",
                "transactions" : [
                    {
                        "data" : "0x",
                        "gasLimit" : "0x04cb2f",
                        "gasPrice" : "0x01",
                        "nonce" : "0x05",
                        "r" : "0xb6a4064ef7d23f0e149472d6f1257055149840b6c73a4ae25e595b9f9fc78edc",
                        "s" : "0x04ad52e8157ae742b551851d58fd6c3919cd7e5a0a9c6685d5bc630a657dcde7",
                        "to" : "0x095e7baea6a6c7c4c2dfeb977efac326af552d87",
                        "v" : "0x1b",
                        "value" : "0x0a"
                    }
                ],
                "uncleHeaders" : [
                ]
            },
            {
                "expectExceptionALL" : "UncleInChain",
                "rlp" : "0xf9045ff901f9a0a45a288cf40bc39c2c02a578310f33bca85d36d2f40e3d342058841936408a91a0edfad2879f8d0f4f1fb28d7af13e778ff261cb0c57501c9ccd13f7c6acce0937948888f1f195afa192cfee860698584c030f4c9db1a08dfc8c0329a0aef2bde5023d5aa2067e965b50d9527bc91733f45aa0cf0c2a1da0b599d73bc0f69c32741df069fac99e6a88ec762035157a4da4e56988ca234691a0fa86f16d802244d9cf1a7355bf1ef7c68bebca8b427bea750813b7c091dc0ff2b90100000000000000000000000000000000000000000000000000000000000000000000000000000000000000000000000000000000000000000000000000000000000000000000000000000000000000000000000000000000000000000000000000000000000000000000000000000000000000000000000000000000000000000000000000000000000000000000000000000000000000000000000000000000000000000000000000000000000000000000000000000000000000000000000000000000000000000000000000000000000000000000000000000000000000000000000000000000000000000000000000000000000000000000000000000000008302018007832fefba825208845c4776df80a00000000000000000000000000000000000000000000000000000000000000000880000000000000000f862f86006018304cb2f94095e7baea6a6c7c4c2dfeb977efac326af552d870a801ba06e5cde32123fa42eeaa27497d538e8fd35c60eda30ead6c296750d3dfcc6d748a01926babbf8c4fef9eb45fe0d532cc30683a16b3415084a9043b27f513057014bf901fcf901f9a05a39ed1020c04d4d84539975b893a4e7c53eab6c2965db8bc3468093a31bc5aea01dcc4de8dec75d7aab85b567b6ccd41ad312451b948a7413f0a142fd40d49347948888f1f195afa192cfee860698584c030f4c9db1a0cb52de543653d86ccd13ba3ddf8b052525b04231c6884a4db3188a184681d878a05c9151c2413d1cd25c51ffb4ac38948acc1359bf08c6b49f283660e9bcf0f516a0e9244cf7503b79c03d3a099e07a80d2dbc77bb0b502d8a89d51ac0d68dd31313b90100000000000000000000000000000000000000000000000000000000000000000000000000000000000000000000000000000000000000000000000000000000000000000000000000000000000000000000000000000000000000000000000000000000000000000000000000000000000000000000000000000000000000000000000000000000000000000000000000000000000000000000000000000000000000000000000000000000000000000000000000000000000000000000000000000000000000000000000000000000000000000000000000000000000000000000000000000000000000000000000000000000000000000000000000000000008302000001832fefba825208845c4776d980a00000000000000000000000000000000000000000000000000000000000000000880000000000000000"
            }
        ],
        "genesisBlockHeader" : {
            "bloom" : "0x00000000000000000000000000000000000000000000000000000000000000000000000000000000000000000000000000000000000000000000000000000000000000000000000000000000000000000000000000000000000000000000000000000000000000000000000000000000000000000000000000000000000000000000000000000000000000000000000000000000000000000000000000000000000000000000000000000000000000000000000000000000000000000000000000000000000000000000000000000000000000000000000000000000000000000000000000000000000000000000000000000000000000000000000000000000",
            "coinbase" : "0x8888f1f195afa192cfee860698584c030f4c9db1",
            "difficulty" : "0x020000",
            "extraData" : "0x42",
            "gasLimit" : "0x2fefd8",
            "gasUsed" : "0x00",
            "hash" : "0x5a39ed1020c04d4d84539975b893a4e7c53eab6c2965db8bc3468093a31bc5ae",
            "mixHash" : "0x56e81f171bcc55a6ff8345e692c0f86e5b48e01b996cadc001622fb5e363b421",
            "nonce" : "0x0102030405060708",
            "number" : "0x00",
            "parentHash" : "0x0000000000000000000000000000000000000000000000000000000000000000",
            "receiptTrie" : "0x56e81f171bcc55a6ff8345e692c0f86e5b48e01b996cadc001622fb5e363b421",
            "stateRoot" : "0x7dba07d6b448a186e9612e5f737d1c909dce473e53199901a302c00646d523c1",
            "timestamp" : "0x54c98c81",
            "transactionsTrie" : "0x56e81f171bcc55a6ff8345e692c0f86e5b48e01b996cadc001622fb5e363b421",
            "uncleHash" : "0x1dcc4de8dec75d7aab85b567b6ccd41ad312451b948a7413f0a142fd40d49347"
        },
        "genesisRLP" : "0xf901fcf901f7a00000000000000000000000000000000000000000000000000000000000000000a01dcc4de8dec75d7aab85b567b6ccd41ad312451b948a7413f0a142fd40d49347948888f1f195afa192cfee860698584c030f4c9db1a07dba07d6b448a186e9612e5f737d1c909dce473e53199901a302c00646d523c1a056e81f171bcc55a6ff8345e692c0f86e5b48e01b996cadc001622fb5e363b421a056e81f171bcc55a6ff8345e692c0f86e5b48e01b996cadc001622fb5e363b421b90100000000000000000000000000000000000000000000000000000000000000000000000000000000000000000000000000000000000000000000000000000000000000000000000000000000000000000000000000000000000000000000000000000000000000000000000000000000000000000000000000000000000000000000000000000000000000000000000000000000000000000000000000000000000000000000000000000000000000000000000000000000000000000000000000000000000000000000000000000000000000000000000000000000000000000000000000000000000000000000000000000000000000000000000000000000008302000080832fefd8808454c98c8142a056e81f171bcc55a6ff8345e692c0f86e5b48e01b996cadc001622fb5e363b421880102030405060708c0c0",
        "lastblockhash" : "0xa45a288cf40bc39c2c02a578310f33bca85d36d2f40e3d342058841936408a91",
        "network" : "Frontier",
        "postState" : {
            "0x095e7baea6a6c7c4c2dfeb977efac326af552d87" : {
                "balance" : "0x3c",
                "code" : "",
                "nonce" : "0x00",
                "storage" : {
                }
            },
            "0x8888f1f195afa192cfee860698584c030f4c9db1" : {
                "balance" : "0x01a055690d9db9ec30",
                "code" : "",
                "nonce" : "0x00",
                "storage" : {
                }
            },
            "0xa94f5374fce5edbc8e2a8697c15331677e6ebf0b" : {
                "balance" : "0x09184e70b394",
                "code" : "",
                "nonce" : "0x06",
                "storage" : {
                }
            }
        },
        "pre" : {
            "0xa94f5374fce5edbc8e2a8697c15331677e6ebf0b" : {
                "balance" : "0x09184e72a000",
                "code" : "",
                "nonce" : "0x00",
                "storage" : {
                }
            }
        },
        "sealEngine" : "NoProof"
    }
}