{
    "ExtCodeCopyTargetRangeLongerThanCodeTests_d0g0v0_Istanbul" : {
        "_info" : {
            "comment" : "Uses EXTCODECOPY to copy 32 bytes of code into a 64 byte range of memory and ensures that the last 32 bytes of the memory range are zeroed out",
            "filling-rpc-server" : "Geth-1.9.6-unstable-63b18027-20190920",
            "filling-tool-version" : "retesteth-0.0.1+commit.0ae18aef.Linux.g++",
            "lllcversion" : "Version: 0.5.12-develop.2019.9.13+commit.2d601a4f.Linux.g++",
            "source" : "src/GeneralStateTestsFiller/stCodeCopyTest/ExtCodeCopyTargetRangeLongerThanCodeTestsFiller.json",
            "sourceHash" : "19ced5254635d0f18c42c53b06a4ba63709461dc9756c82d9f9db3b8de30c83f"
        },
        "genesisBlockHeader" : {
            "bloom" : "0x00000000000000000000000000000000000000000000000000000000000000000000000000000000000000000000000000000000000000000000000000000000000000000000000000000000000000000000000000000000000000000000000000000000000000000000000000000000000000000000000000000000000000000000000000000000000000000000000000000000000000000000000000000000000000000000000000000000000000000000000000000000000000000000000000000000000000000000000000000000000000000000000000000000000000000000000000000000000000000000000000000000000000000000000000000000",
            "coinbase" : "0x2adc25665018aa1fe0e6bc666dac8fc2697ff9ba",
            "difficulty" : "0x20000",
            "extraData" : "0x00",
            "gasLimit" : "0x7fffffffffffffff",
            "gasUsed" : "0x0",
            "hash" : "0xb994b3a7a2c8fb29f083d23cca49e9e6f74b6ed14f4b2e97f2357bb114085f7c",
            "mixHash" : "0x0000000000000000000000000000000000000000000000000000000000000000",
            "nonce" : "0x0000000000000000",
            "number" : "0x0",
            "parentHash" : "0x0000000000000000000000000000000000000000000000000000000000000000",
            "receiptTrie" : "0x56e81f171bcc55a6ff8345e692c0f86e5b48e01b996cadc001622fb5e363b421",
            "stateRoot" : "0xe832fd15027718bffe4ece37405480f78f05bcee46ada292ab20b595faff51ee",
            "timestamp" : "0x0",
            "transactionsTrie" : "0x56e81f171bcc55a6ff8345e692c0f86e5b48e01b996cadc001622fb5e363b421",
            "uncleHash" : "0x1dcc4de8dec75d7aab85b567b6ccd41ad312451b948a7413f0a142fd40d49347"
        },
        "pre" : {
            "0xa94f5374fce5edbc8e2a8697c15331677e6ebf0b" : {
                "balance" : "0xffffffffffffffffffffffffffffffff",
                "code" : "0x",
                "nonce" : "0x00",
                "storage" : {
                }
            },
            "0xaaaf5374fce5edbc8e2a8697c15331677e6ebf0b" : {
                "balance" : "0x1b58",
                "code" : "0x61123460205260406000600073eeef5374fce5edbc8e2a8697c15331677e6ebf0b3c60005160005560205160015561567860605260406000604073a94f5374fce5edbc8e2a8697c15331677e6ebf0b3c60405160025560605160035500",
                "nonce" : "0x00",
                "storage" : {
                }
            },
            "0xeeef5374fce5edbc8e2a8697c15331677e6ebf0b" : {
                "balance" : "0x00",
                "code" : "0x1122334455667788991011121314151617181920212223242526272829303132",
                "nonce" : "0x01",
                "storage" : {
                }
            }
        },
        "postState" : {
            "0xa94f5374fce5edbc8e2a8697c15331677e6ebf0b" : {
                "code" : "0x",
                "nonce" : "0x01",
                "balance" : "0xffffffffffffffffffffffffffff5099",
                "storage" : {
                }
            },
            "0xeeef5374fce5edbc8e2a8697c15331677e6ebf0b" : {
                "code" : "0x1122334455667788991011121314151617181920212223242526272829303132",
                "nonce" : "0x01",
                "balance" : "0x00",
                "storage" : {
                }
            },
            "0x2adc25665018aa1fe0e6bc666dac8fc2697ff9ba" : {
                "code" : "0x",
                "nonce" : "0x00",
                "balance" : "0x1bc16d674ec8af66",
                "storage" : {
                }
            },
            "0xaaaf5374fce5edbc8e2a8697c15331677e6ebf0b" : {
                "code" : "0x61123460205260406000600073eeef5374fce5edbc8e2a8697c15331677e6ebf0b3c60005160005560205160015561567860605260406000604073a94f5374fce5edbc8e2a8697c15331677e6ebf0b3c60405160025560605160035500",
                "nonce" : "0x00",
                "balance" : "0x1b58",
                "storage" : {
                    "0x00" : "0x1122334455667788991011121314151617181920212223242526272829303132"
                }
            }
        },
        "network" : "Istanbul",
        "sealEngine" : "NoProof",
        "lastblockhash" : "0xc1a48a7a609322a2b011d721bb14cf5e411fa4c0cb279ea0caaada470a21cafc",
        "genesisRLP" : "0xf901fdf901f8a00000000000000000000000000000000000000000000000000000000000000000a01dcc4de8dec75d7aab85b567b6ccd41ad312451b948a7413f0a142fd40d49347942adc25665018aa1fe0e6bc666dac8fc2697ff9baa0e832fd15027718bffe4ece37405480f78f05bcee46ada292ab20b595faff51eea056e81f171bcc55a6ff8345e692c0f86e5b48e01b996cadc001622fb5e363b421a056e81f171bcc55a6ff8345e692c0f86e5b48e01b996cadc001622fb5e363b421b90100000000000000000000000000000000000000000000000000000000000000000000000000000000000000000000000000000000000000000000000000000000000000000000000000000000000000000000000000000000000000000000000000000000000000000000000000000000000000000000000000000000000000000000000000000000000000000000000000000000000000000000000000000000000000000000000000000000000000000000000000000000000000000000000000000000000000000000000000000000000000000000000000000000000000000000000000000000000000000000000000000000000000000000000000000000008302000080887fffffffffffffff808000a00000000000000000000000000000000000000000000000000000000000000000880000000000000000c0c0",
        "blocks" : [
            {
                "rlp" : "0xf90264f901fca0b994b3a7a2c8fb29f083d23cca49e9e6f74b6ed14f4b2e97f2357bb114085f7ca01dcc4de8dec75d7aab85b567b6ccd41ad312451b948a7413f0a142fd40d49347942adc25665018aa1fe0e6bc666dac8fc2697ff9baa04c111e3cf45c98002ed0024c7e52986e65276bdf91a1a95a688306d8721f7987a000dad11f46ced611338df2e6b0398f51632068dac4dbe2c9c1da610b649825eba0fdd8be8f57f9e9abb2a37a485d21a72c61f99d673e66f0d61bedd6f3d0197759b90100000000000000000000000000000000000000000000000000000000000000000000000000000000000000000000000000000000000000000000000000000000000000000000000000000000000000000000000000000000000000000000000000000000000000000000000000000000000000000000000000000000000000000000000000000000000000000000000000000000000000000000000000000000000000000000000000000000000000000000000000000000000000000000000000000000000000000000000000000000000000000000000000000000000000000000000000000000000000000000000000000000000000000000000000000000008302000001887fffffffffffffff82af668203e800a00000000000000000000000000000000000000000000000000000000000000000880000000000000000f862f860800183061a8094aaaf5374fce5edbc8e2a8697c15331677e6ebf0b80801ba004c67190aa6e36769187121480435a41efa7d46cfe676e416ca5b3a1dc0ab29ba0583105dc4153b04086ba000b9dc25af01145974222931ab105301d8c455176e9c0",
                "blockHeader" : {
                    "bloom" : "0x00000000000000000000000000000000000000000000000000000000000000000000000000000000000000000000000000000000000000000000000000000000000000000000000000000000000000000000000000000000000000000000000000000000000000000000000000000000000000000000000000000000000000000000000000000000000000000000000000000000000000000000000000000000000000000000000000000000000000000000000000000000000000000000000000000000000000000000000000000000000000000000000000000000000000000000000000000000000000000000000000000000000000000000000000000000",
                    "coinbase" : "0x2adc25665018aa1fe0e6bc666dac8fc2697ff9ba",
                    "difficulty" : "0x20000",
                    "extraData" : "0x00",
                    "gasLimit" : "0x7fffffffffffffff",
                    "gasUsed" : "0xaf66",
                    "hash" : "0xc1a48a7a609322a2b011d721bb14cf5e411fa4c0cb279ea0caaada470a21cafc",
                    "mixHash" : "0x0000000000000000000000000000000000000000000000000000000000000000",
                    "nonce" : "0x0000000000000000",
                    "number" : "0x1",
                    "parentHash" : "0xb994b3a7a2c8fb29f083d23cca49e9e6f74b6ed14f4b2e97f2357bb114085f7c",
                    "receiptTrie" : "0xfdd8be8f57f9e9abb2a37a485d21a72c61f99d673e66f0d61bedd6f3d0197759",
                    "stateRoot" : "0x4c111e3cf45c98002ed0024c7e52986e65276bdf91a1a95a688306d8721f7987",
                    "timestamp" : "0x3e8",
                    "transactionsTrie" : "0x00dad11f46ced611338df2e6b0398f51632068dac4dbe2c9c1da610b649825eb",
                    "uncleHash" : "0x1dcc4de8dec75d7aab85b567b6ccd41ad312451b948a7413f0a142fd40d49347"
                },
                "transactions" : [
                    {
                        "data" : "0x",
                        "gasLimit" : "0x061a80",
                        "gasPrice" : "0x01",
                        "nonce" : "0x00",
                        "to" : "0xaaaf5374fce5edbc8e2a8697c15331677e6ebf0b",
                        "value" : "0x00",
                        "v" : "0x1b",
                        "r" : "0x04c67190aa6e36769187121480435a41efa7d46cfe676e416ca5b3a1dc0ab29b",
                        "s" : "0x583105dc4153b04086ba000b9dc25af01145974222931ab105301d8c455176e9"
                    }
                ]
            }
        ]
    }
}