{
    "ExtCodeCopyTests_d0g0v0_Istanbul" : {
        "_info" : {
            "comment" : "",
            "filling-rpc-server" : "Geth-1.9.6-unstable-63b18027-20190920",
            "filling-tool-version" : "retesteth-0.0.1+commit.0ae18aef.Linux.g++",
            "lllcversion" : "Version: 0.5.12-develop.2019.9.13+commit.2d601a4f.Linux.g++",
            "source" : "src/GeneralStateTestsFiller/stCodeCopyTest/ExtCodeCopyTestsFiller.json",
            "sourceHash" : "68077c4d5b4eccb625aaa3bca2b66a709938f8509cce9064e2771170903004d1"
        },
        "genesisBlockHeader" : {
            "bloom" : "0x00000000000000000000000000000000000000000000000000000000000000000000000000000000000000000000000000000000000000000000000000000000000000000000000000000000000000000000000000000000000000000000000000000000000000000000000000000000000000000000000000000000000000000000000000000000000000000000000000000000000000000000000000000000000000000000000000000000000000000000000000000000000000000000000000000000000000000000000000000000000000000000000000000000000000000000000000000000000000000000000000000000000000000000000000000000",
            "coinbase" : "0x2adc25665018aa1fe0e6bc666dac8fc2697ff9ba",
            "difficulty" : "0x20000",
            "extraData" : "0x00",
            "gasLimit" : "0x7fffffffffffffff",
            "gasUsed" : "0x0",
            "hash" : "0xf10ea626b9d2f87e874964f58d4b7260fa2a192488c276ab8d2f0d5f21037d61",
            "mixHash" : "0x0000000000000000000000000000000000000000000000000000000000000000",
            "nonce" : "0x0000000000000000",
            "number" : "0x0",
            "parentHash" : "0x0000000000000000000000000000000000000000000000000000000000000000",
            "receiptTrie" : "0x56e81f171bcc55a6ff8345e692c0f86e5b48e01b996cadc001622fb5e363b421",
            "stateRoot" : "0x3b4a5b9c5c5478428c164909d37eea354574423bd01ad605903820a8cb7d7d35",
            "timestamp" : "0x0",
            "transactionsTrie" : "0x56e81f171bcc55a6ff8345e692c0f86e5b48e01b996cadc001622fb5e363b421",
            "uncleHash" : "0x1dcc4de8dec75d7aab85b567b6ccd41ad312451b948a7413f0a142fd40d49347"
        },
        "pre" : {
            "0xa94f5374fce5edbc8e2a8697c15331677e6ebf0b" : {
                "balance" : "0xffffffffffffffffffffffffffffffff",
                "code" : "0x",
                "nonce" : "0x00",
                "storage" : {
                }
            },
            "0xaaaf5374fce5edbc8e2a8697c15331677e6ebf0b" : {
                "balance" : "0x1b58",
                "code" : "0x6002600a600173bbbf5374fce5edbc8e2a8697c15331677e6ebf0b3c6000516002556002600a600173cccf5374fce5edbc8e2a8697c15331677e6ebf0b3c6000516003556002600a600173dddf5374fce5edbc8e2a8697c15331677e6ebf0b3c6000516004556002600a600173eeef5374fce5edbc8e2a8697c15331677e6ebf0b3c60005160055560c8600a600173eeef5374fce5edbc8e2a8697c15331677e6ebf0b3c60005160065500",
                "nonce" : "0x00",
                "storage" : {
                }
            },
            "0xcccf5374fce5edbc8e2a8697c15331677e6ebf0b" : {
                "balance" : "0x00",
                "code" : "0x",
                "nonce" : "0x00",
                "storage" : {
                }
            },
            "0xdddf5374fce5edbc8e2a8697c15331677e6ebf0b" : {
                "balance" : "0x00",
                "code" : "0x",
                "nonce" : "0x01",
                "storage" : {
                }
            },
            "0xeeef5374fce5edbc8e2a8697c15331677e6ebf0b" : {
                "balance" : "0x00",
                "code" : "0x1122334455667788991011121314151617181920212223242526272829303132",
                "nonce" : "0x01",
                "storage" : {
                }
            }
        },
        "postState" : {
            "0xa94f5374fce5edbc8e2a8697c15331677e6ebf0b" : {
                "code" : "0x",
                "nonce" : "0x01",
                "balance" : "0xfffffffffffffffffffffffffffefa0c",
                "storage" : {
                }
            },
            "0xeeef5374fce5edbc8e2a8697c15331677e6ebf0b" : {
                "code" : "0x1122334455667788991011121314151617181920212223242526272829303132",
                "nonce" : "0x01",
                "balance" : "0x00",
                "storage" : {
                }
            },
            "0xcccf5374fce5edbc8e2a8697c15331677e6ebf0b" : {
                "code" : "0x",
                "nonce" : "0x00",
                "balance" : "0x00",
                "storage" : {
                }
            },
            "0x2adc25665018aa1fe0e6bc666dac8fc2697ff9ba" : {
                "code" : "0x",
                "nonce" : "0x00",
                "balance" : "0x1bc16d674ec905f3",
                "storage" : {
                }
            },
            "0xdddf5374fce5edbc8e2a8697c15331677e6ebf0b" : {
                "code" : "0x",
                "nonce" : "0x01",
                "balance" : "0x00",
                "storage" : {
                }
            },
            "0xaaaf5374fce5edbc8e2a8697c15331677e6ebf0b" : {
                "code" : "0x6002600a600173bbbf5374fce5edbc8e2a8697c15331677e6ebf0b3c6000516002556002600a600173cccf5374fce5edbc8e2a8697c15331677e6ebf0b3c6000516003556002600a600173dddf5374fce5edbc8e2a8697c15331677e6ebf0b3c6000516004556002600a600173eeef5374fce5edbc8e2a8697c15331677e6ebf0b3c60005160055560c8600a600173eeef5374fce5edbc8e2a8697c15331677e6ebf0b3c60005160065500",
                "nonce" : "0x00",
                "balance" : "0x1b58",
                "storage" : {
                    "0x05" : "0x11120000000000000000000000000000000000000000000000000000000000",
                    "0x06" : "0x11121314151617181920212223242526272829303132000000000000000000"
                }
            }
        },
        "network" : "Istanbul",
        "sealEngine" : "NoProof",
        "lastblockhash" : "0x12904740d2639038c60894049a06ebf5159576a5aecee4b2a122bcc5e8c519c2",
        "genesisRLP" : "0xf901fdf901f8a00000000000000000000000000000000000000000000000000000000000000000a01dcc4de8dec75d7aab85b567b6ccd41ad312451b948a7413f0a142fd40d49347942adc25665018aa1fe0e6bc666dac8fc2697ff9baa03b4a5b9c5c5478428c164909d37eea354574423bd01ad605903820a8cb7d7d35a056e81f171bcc55a6ff8345e692c0f86e5b48e01b996cadc001622fb5e363b421a056e81f171bcc55a6ff8345e692c0f86e5b48e01b996cadc001622fb5e363b421b90100000000000000000000000000000000000000000000000000000000000000000000000000000000000000000000000000000000000000000000000000000000000000000000000000000000000000000000000000000000000000000000000000000000000000000000000000000000000000000000000000000000000000000000000000000000000000000000000000000000000000000000000000000000000000000000000000000000000000000000000000000000000000000000000000000000000000000000000000000000000000000000000000000000000000000000000000000000000000000000000000000000000000000000000000000000008302000080887fffffffffffffff808000a00000000000000000000000000000000000000000000000000000000000000000880000000000000000c0c0",
        "blocks" : [
            {
                "rlp" : "0xf90265f901fda0f10ea626b9d2f87e874964f58d4b7260fa2a192488c276ab8d2f0d5f21037d61a01dcc4de8dec75d7aab85b567b6ccd41ad312451b948a7413f0a142fd40d49347942adc25665018aa1fe0e6bc666dac8fc2697ff9baa0ec633ca366412ddb0b1ceca062d42879173d9fb80cf19c5af4ad2db0efb6326da000dad11f46ced611338df2e6b0398f51632068dac4dbe2c9c1da610b649825eba08bf3d978e0212186c73781e9f70669a75ee1e9e769957b5b6d2889d140960e15b90100000000000000000000000000000000000000000000000000000000000000000000000000000000000000000000000000000000000000000000000000000000000000000000000000000000000000000000000000000000000000000000000000000000000000000000000000000000000000000000000000000000000000000000000000000000000000000000000000000000000000000000000000000000000000000000000000000000000000000000000000000000000000000000000000000000000000000000000000000000000000000000000000000000000000000000000000000000000000000000000000000000000000000000000000000000008302000001887fffffffffffffff830105f38203e800a00000000000000000000000000000000000000000000000000000000000000000880000000000000000f862f860800183061a8094aaaf5374fce5edbc8e2a8697c15331677e6ebf0b80801ba004c67190aa6e36769187121480435a41efa7d46cfe676e416ca5b3a1dc0ab29ba0583105dc4153b04086ba000b9dc25af01145974222931ab105301d8c455176e9c0",
                "blockHeader" : {
                    "bloom" : "0x00000000000000000000000000000000000000000000000000000000000000000000000000000000000000000000000000000000000000000000000000000000000000000000000000000000000000000000000000000000000000000000000000000000000000000000000000000000000000000000000000000000000000000000000000000000000000000000000000000000000000000000000000000000000000000000000000000000000000000000000000000000000000000000000000000000000000000000000000000000000000000000000000000000000000000000000000000000000000000000000000000000000000000000000000000000",
                    "coinbase" : "0x2adc25665018aa1fe0e6bc666dac8fc2697ff9ba",
                    "difficulty" : "0x20000",
                    "extraData" : "0x00",
                    "gasLimit" : "0x7fffffffffffffff",
                    "gasUsed" : "0x105f3",
                    "hash" : "0x12904740d2639038c60894049a06ebf5159576a5aecee4b2a122bcc5e8c519c2",
                    "mixHash" : "0x0000000000000000000000000000000000000000000000000000000000000000",
                    "nonce" : "0x0000000000000000",
                    "number" : "0x1",
                    "parentHash" : "0xf10ea626b9d2f87e874964f58d4b7260fa2a192488c276ab8d2f0d5f21037d61",
                    "receiptTrie" : "0x8bf3d978e0212186c73781e9f70669a75ee1e9e769957b5b6d2889d140960e15",
                    "stateRoot" : "0xec633ca366412ddb0b1ceca062d42879173d9fb80cf19c5af4ad2db0efb6326d",
                    "timestamp" : "0x3e8",
                    "transactionsTrie" : "0x00dad11f46ced611338df2e6b0398f51632068dac4dbe2c9c1da610b649825eb",
                    "uncleHash" : "0x1dcc4de8dec75d7aab85b567b6ccd41ad312451b948a7413f0a142fd40d49347"
                },
                "transactions" : [
                    {
                        "data" : "0x",
                        "gasLimit" : "0x061a80",
                        "gasPrice" : "0x01",
                        "nonce" : "0x00",
                        "to" : "0xaaaf5374fce5edbc8e2a8697c15331677e6ebf0b",
                        "value" : "0x00",
                        "v" : "0x1b",
                        "r" : "0x04c67190aa6e36769187121480435a41efa7d46cfe676e416ca5b3a1dc0ab29b",
                        "s" : "0x583105dc4153b04086ba000b9dc25af01145974222931ab105301d8c455176e9"
                    }
                ]
            }
        ]
    }
}