{
    "InChainUncleGreatGrandPa_Istanbul" : {
        "_info" : {
            "comment" : "",
            "filledwith" : "testeth 1.8.0-alpha.0-12+commit.b120a12c.dirty",
            "lllcversion" : "Version: 0.5.12-develop.2019.9.13+commit.2d601a4f.Linux.g++",
            "source" : "src/BlockchainTestsFiller/InvalidBlocks/bcUncleTest/InChainUncleGreatGrandPaFiller.json",
            "sourceHash" : "f28c49d28d077432ef55a5ae43d70cee4fd34a8041fab4a2a9e69432dced6c8c"
        },
        "blocks" : [
            {
                "blockHeader" : {
                    "bloom" : "0x00000000000000000000000000000000000000000000000000000000000000000000000000000000000000000000000000000000000000000000000000000000000000000000000000000000000000000000000000000000000000000000000000000000000000000000000000000000000000000000000000000000000000000000000000000000000000000000000000000000000000000000000000000000000000000000000000000000000000000000000000000000000000000000000000000000000000000000000000000000000000000000000000000000000000000000000000000000000000000000000000000000000000000000000000000000",
                    "coinbase" : "0x8888f1f195afa192cfee860698584c030f4c9db1",
                    "difficulty" : "0x020000",
                    "extraData" : "",
                    "gasLimit" : "0x2fefba",
                    "gasUsed" : "0x5208",
                    "hash" : "0x97ed35bea5171891fa6a5869ba0f5168f11834793560fd53221355d970a5e8f9",
                    "mixHash" : "0x0000000000000000000000000000000000000000000000000000000000000000",
                    "nonce" : "0x0000000000000000",
                    "number" : "0x01",
                    "parentHash" : "0x5a39ed1020c04d4d84539975b893a4e7c53eab6c2965db8bc3468093a31bc5ae",
                    "receiptTrie" : "0x056b23fbba480696b65fe5a59b8f2148a1299103c4f57df839233af2cf4ca2d2",
                    "stateRoot" : "0x9f975da0cdc4d5f074009af73873d83f3e29d9e7f33fee3f11a38133166034e5",
                    "timestamp" : "0x5db726bc",
                    "transactionsTrie" : "0x5c9151c2413d1cd25c51ffb4ac38948acc1359bf08c6b49f283660e9bcf0f516",
                    "uncleHash" : "0x1dcc4de8dec75d7aab85b567b6ccd41ad312451b948a7413f0a142fd40d49347"
                },
                "rlp" : "0xf90261f901f9a05a39ed1020c04d4d84539975b893a4e7c53eab6c2965db8bc3468093a31bc5aea01dcc4de8dec75d7aab85b567b6ccd41ad312451b948a7413f0a142fd40d49347948888f1f195afa192cfee860698584c030f4c9db1a09f975da0cdc4d5f074009af73873d83f3e29d9e7f33fee3f11a38133166034e5a05c9151c2413d1cd25c51ffb4ac38948acc1359bf08c6b49f283660e9bcf0f516a0056b23fbba480696b65fe5a59b8f2148a1299103c4f57df839233af2cf4ca2d2b90100000000000000000000000000000000000000000000000000000000000000000000000000000000000000000000000000000000000000000000000000000000000000000000000000000000000000000000000000000000000000000000000000000000000000000000000000000000000000000000000000000000000000000000000000000000000000000000000000000000000000000000000000000000000000000000000000000000000000000000000000000000000000000000000000000000000000000000000000000000000000000000000000000000000000000000000000000000000000000000000000000000000000000000000000000000008302000001832fefba825208845db726bc80a00000000000000000000000000000000000000000000000000000000000000000880000000000000000f862f86080018304cb2f94095e7baea6a6c7c4c2dfeb977efac326af552d870a801ba077c7cd36820c71821c1aed59de46e70e701c4a8dd89c9ba508ab722210f60da8a03f29825d40c7c3f7bff3ca69267e0f3fb74b2d18b8c2c4e3c135b5d3b06e288dc0",
                "transactions" : [
                    {
                        "data" : "0x",
                        "gasLimit" : "0x04cb2f",
                        "gasPrice" : "0x01",
                        "nonce" : "0x00",
                        "r" : "0x77c7cd36820c71821c1aed59de46e70e701c4a8dd89c9ba508ab722210f60da8",
                        "s" : "0x3f29825d40c7c3f7bff3ca69267e0f3fb74b2d18b8c2c4e3c135b5d3b06e288d",
                        "to" : "0x095e7baea6a6c7c4c2dfeb977efac326af552d87",
                        "v" : "0x1b",
                        "value" : "0x0a"
                    }
                ],
                "uncleHeaders" : [
                ]
            },
            {
                "blockHeader" : {
                    "bloom" : "0x00000000000000000000000000000000000000000000000000000000000000000000000000000000000000000000000000000000000000000000000000000000000000000000000000000000000000000000000000000000000000000000000000000000000000000000000000000000000000000000000000000000000000000000000000000000000000000000000000000000000000000000000000000000000000000000000000000000000000000000000000000000000000000000000000000000000000000000000000000000000000000000000000000000000000000000000000000000000000000000000000000000000000000000000000000000",
                    "coinbase" : "0x8888f1f195afa192cfee860698584c030f4c9db1",
                    "difficulty" : "0x020040",
                    "extraData" : "",
                    "gasLimit" : "0x2fefba",
                    "gasUsed" : "0x5208",
                    "hash" : "0xc43718afbb9616d902df7b97407a188f73cb7cb4cafd6dcd1ca5560ca80e728b",
                    "mixHash" : "0x0000000000000000000000000000000000000000000000000000000000000000",
                    "nonce" : "0x0000000000000000",
                    "number" : "0x02",
                    "parentHash" : "0x97ed35bea5171891fa6a5869ba0f5168f11834793560fd53221355d970a5e8f9",
                    "receiptTrie" : "0x056b23fbba480696b65fe5a59b8f2148a1299103c4f57df839233af2cf4ca2d2",
                    "stateRoot" : "0xdf68925b0ee17b44c826ce4537dc0924700f7b7aa1c7c1b1d489a779b1be2525",
                    "timestamp" : "0x5db726bd",
                    "transactionsTrie" : "0xc673e076264c4669a5c2e479f1757b78e42511efe33b5fd2c0a23b929c7f87f5",
                    "uncleHash" : "0x1dcc4de8dec75d7aab85b567b6ccd41ad312451b948a7413f0a142fd40d49347"
                },
                "rlp" : "0xf90260f901f9a097ed35bea5171891fa6a5869ba0f5168f11834793560fd53221355d970a5e8f9a01dcc4de8dec75d7aab85b567b6ccd41ad312451b948a7413f0a142fd40d49347948888f1f195afa192cfee860698584c030f4c9db1a0df68925b0ee17b44c826ce4537dc0924700f7b7aa1c7c1b1d489a779b1be2525a0c673e076264c4669a5c2e479f1757b78e42511efe33b5fd2c0a23b929c7f87f5a0056b23fbba480696b65fe5a59b8f2148a1299103c4f57df839233af2cf4ca2d2b90100000000000000000000000000000000000000000000000000000000000000000000000000000000000000000000000000000000000000000000000000000000000000000000000000000000000000000000000000000000000000000000000000000000000000000000000000000000000000000000000000000000000000000000000000000000000000000000000000000000000000000000000000000000000000000000000000000000000000000000000000000000000000000000000000000000000000000000000000000000000000000000000000000000000000000000000000000000000000000000000000000000000000000000000000000000008302004002832fefba825208845db726bd80a00000000000000000000000000000000000000000000000000000000000000000880000000000000000f861f85f01018304cb2f94095e7baea6a6c7c4c2dfeb977efac326af552d870a801ba033c86e64d708c97c6b135cadff79dbf45985aa0b53694789e90d15f756765f239f1d0f8caa2a16405148c9d85581be5814960010f3cba938b5501590cea1f7cfc0",
                "transactions" : [
                    {
                        "data" : "0x",
                        "gasLimit" : "0x04cb2f",
                        "gasPrice" : "0x01",
                        "nonce" : "0x01",
                        "r" : "0x33c86e64d708c97c6b135cadff79dbf45985aa0b53694789e90d15f756765f23",
                        "s" : "0x1d0f8caa2a16405148c9d85581be5814960010f3cba938b5501590cea1f7cf",
                        "to" : "0x095e7baea6a6c7c4c2dfeb977efac326af552d87",
                        "v" : "0x1b",
                        "value" : "0x0a"
                    }
                ],
                "uncleHeaders" : [
                ]
            },
            {
                "blockHeader" : {
                    "bloom" : "0x00000000000000000000000000000000000000000000000000000000000000000000000000000000000000000000000000000000000000000000000000000000000000000000000000000000000000000000000000000000000000000000000000000000000000000000000000000000000000000000000000000000000000000000000000000000000000000000000000000000000000000000000000000000000000000000000000000000000000000000000000000000000000000000000000000000000000000000000000000000000000000000000000000000000000000000000000000000000000000000000000000000000000000000000000000000",
                    "coinbase" : "0x8888f1f195afa192cfee860698584c030f4c9db1",
                    "difficulty" : "0x020080",
                    "extraData" : "",
                    "gasLimit" : "0x2fefba",
                    "gasUsed" : "0x5208",
                    "hash" : "0x0c6fea0d018ca8647cd6dd4a5803d908544dcfefeaf17627b87b4c9dac34017b",
                    "mixHash" : "0x0000000000000000000000000000000000000000000000000000000000000000",
                    "nonce" : "0x0000000000000000",
                    "number" : "0x03",
                    "parentHash" : "0xc43718afbb9616d902df7b97407a188f73cb7cb4cafd6dcd1ca5560ca80e728b",
                    "receiptTrie" : "0x056b23fbba480696b65fe5a59b8f2148a1299103c4f57df839233af2cf4ca2d2",
                    "stateRoot" : "0xa886e704f7f73b0aa9dbfe288bcd7b6ab47c82b37cd29fabb7b5d21bbae3e72b",
                    "timestamp" : "0x5db726be",
                    "transactionsTrie" : "0x1722b8a91bfc4f5614ce36ee77c7cce6620ab4af36d3c54baa66d7dbeb7bce1a",
                    "uncleHash" : "0x1dcc4de8dec75d7aab85b567b6ccd41ad312451b948a7413f0a142fd40d49347"
                },
                "rlp" : "0xf90261f901f9a0c43718afbb9616d902df7b97407a188f73cb7cb4cafd6dcd1ca5560ca80e728ba01dcc4de8dec75d7aab85b567b6ccd41ad312451b948a7413f0a142fd40d49347948888f1f195afa192cfee860698584c030f4c9db1a0a886e704f7f73b0aa9dbfe288bcd7b6ab47c82b37cd29fabb7b5d21bbae3e72ba01722b8a91bfc4f5614ce36ee77c7cce6620ab4af36d3c54baa66d7dbeb7bce1aa0056b23fbba480696b65fe5a59b8f2148a1299103c4f57df839233af2cf4ca2d2b90100000000000000000000000000000000000000000000000000000000000000000000000000000000000000000000000000000000000000000000000000000000000000000000000000000000000000000000000000000000000000000000000000000000000000000000000000000000000000000000000000000000000000000000000000000000000000000000000000000000000000000000000000000000000000000000000000000000000000000000000000000000000000000000000000000000000000000000000000000000000000000000000000000000000000000000000000000000000000000000000000000000000000000000000000000000008302008003832fefba825208845db726be80a00000000000000000000000000000000000000000000000000000000000000000880000000000000000f862f86002018304cb2f94095e7baea6a6c7c4c2dfeb977efac326af552d870a801ca015eb1cc916728b9799e55c489857727669afb2986433d5f54cde11faaed9f0eea05d36f6d06c34aae8d0a2a5895c8ba4a17ad46a5fa59f361cb3e7e01a23030e38c0",
                "transactions" : [
                    {
                        "data" : "0x",
                        "gasLimit" : "0x04cb2f",
                        "gasPrice" : "0x01",
                        "nonce" : "0x02",
                        "r" : "0x15eb1cc916728b9799e55c489857727669afb2986433d5f54cde11faaed9f0ee",
                        "s" : "0x5d36f6d06c34aae8d0a2a5895c8ba4a17ad46a5fa59f361cb3e7e01a23030e38",
                        "to" : "0x095e7baea6a6c7c4c2dfeb977efac326af552d87",
                        "v" : "0x1c",
                        "value" : "0x0a"
                    }
                ],
                "uncleHeaders" : [
                ]
            },
            {
                "expectExceptionALL" : "UncleInChain",
                "rlp" : "0xf9045ff901f9a00c6fea0d018ca8647cd6dd4a5803d908544dcfefeaf17627b87b4c9dac34017ba02c62115eb2becbdec50a4968ce2b7081ed8c1cc9a4fb1d9bc3f36d3b9aa724af948888f1f195afa192cfee860698584c030f4c9db1a00277faba6f397b4cf0d8b95f0bb705614350672bb7d9a43a7a24b98d1b2667e9a09735e49acaddb4d8338ed33df8dd006449b20b85e89e47224ac8ec8f7ea26071a0056b23fbba480696b65fe5a59b8f2148a1299103c4f57df839233af2cf4ca2d2b9010000000000000000000000000000000000000000000000000000000000000000000000000000000000000000000000000000000000000000000000000000000000000000000000000000000000000000000000000000000000000000000000000000000000000000000000000000000000000000000000000000000000000000000000000000000000000000000000000000000000000000000000000000000000000000000000000000000000000000000000000000000000000000000000000000000000000000000000000000000000000000000000000000000000000000000000000000000000000000000000000000000000000000000000000000000000830200c004832fefba825208845db726bf80a00000000000000000000000000000000000000000000000000000000000000000880000000000000000f862f86003018304cb2f94095e7baea6a6c7c4c2dfeb977efac326af552d870a801ba0a7b7f2fa93025fc1e6aa18c1aa07c32a456439754e196cb74f2f7d12cf3e840da02078cf840fb25fc3d858b2a85b622f21be0588b5c5d81d433427f6470e06a4a7f901fcf901f9a05a39ed1020c04d4d84539975b893a4e7c53eab6c2965db8bc3468093a31bc5aea01dcc4de8dec75d7aab85b567b6ccd41ad312451b948a7413f0a142fd40d49347948888f1f195afa192cfee860698584c030f4c9db1a09f975da0cdc4d5f074009af73873d83f3e29d9e7f33fee3f11a38133166034e5a05c9151c2413d1cd25c51ffb4ac38948acc1359bf08c6b49f283660e9bcf0f516a0056b23fbba480696b65fe5a59b8f2148a1299103c4f57df839233af2cf4ca2d2b90100000000000000000000000000000000000000000000000000000000000000000000000000000000000000000000000000000000000000000000000000000000000000000000000000000000000000000000000000000000000000000000000000000000000000000000000000000000000000000000000000000000000000000000000000000000000000000000000000000000000000000000000000000000000000000000000000000000000000000000000000000000000000000000000000000000000000000000000000000000000000000000000000000000000000000000000000000000000000000000000000000000000000000000000000000000008302000001832fefba825208845db726bc80a00000000000000000000000000000000000000000000000000000000000000000880000000000000000"
            }
        ],
        "genesisBlockHeader" : {
            "bloom" : "0x00000000000000000000000000000000000000000000000000000000000000000000000000000000000000000000000000000000000000000000000000000000000000000000000000000000000000000000000000000000000000000000000000000000000000000000000000000000000000000000000000000000000000000000000000000000000000000000000000000000000000000000000000000000000000000000000000000000000000000000000000000000000000000000000000000000000000000000000000000000000000000000000000000000000000000000000000000000000000000000000000000000000000000000000000000000",
            "coinbase" : "0x8888f1f195afa192cfee860698584c030f4c9db1",
            "difficulty" : "0x020000",
            "extraData" : "0x42",
            "gasLimit" : "0x2fefd8",
            "gasUsed" : "0x00",
            "hash" : "0x5a39ed1020c04d4d84539975b893a4e7c53eab6c2965db8bc3468093a31bc5ae",
            "mixHash" : "0x56e81f171bcc55a6ff8345e692c0f86e5b48e01b996cadc001622fb5e363b421",
            "nonce" : "0x0102030405060708",
            "number" : "0x00",
            "parentHash" : "0x0000000000000000000000000000000000000000000000000000000000000000",
            "receiptTrie" : "0x56e81f171bcc55a6ff8345e692c0f86e5b48e01b996cadc001622fb5e363b421",
            "stateRoot" : "0x7dba07d6b448a186e9612e5f737d1c909dce473e53199901a302c00646d523c1",
            "timestamp" : "0x54c98c81",
            "transactionsTrie" : "0x56e81f171bcc55a6ff8345e692c0f86e5b48e01b996cadc001622fb5e363b421",
            "uncleHash" : "0x1dcc4de8dec75d7aab85b567b6ccd41ad312451b948a7413f0a142fd40d49347"
        },
        "genesisRLP" : "0xf901fcf901f7a00000000000000000000000000000000000000000000000000000000000000000a01dcc4de8dec75d7aab85b567b6ccd41ad312451b948a7413f0a142fd40d49347948888f1f195afa192cfee860698584c030f4c9db1a07dba07d6b448a186e9612e5f737d1c909dce473e53199901a302c00646d523c1a056e81f171bcc55a6ff8345e692c0f86e5b48e01b996cadc001622fb5e363b421a056e81f171bcc55a6ff8345e692c0f86e5b48e01b996cadc001622fb5e363b421b90100000000000000000000000000000000000000000000000000000000000000000000000000000000000000000000000000000000000000000000000000000000000000000000000000000000000000000000000000000000000000000000000000000000000000000000000000000000000000000000000000000000000000000000000000000000000000000000000000000000000000000000000000000000000000000000000000000000000000000000000000000000000000000000000000000000000000000000000000000000000000000000000000000000000000000000000000000000000000000000000000000000000000000000000000000000008302000080832fefd8808454c98c8142a056e81f171bcc55a6ff8345e692c0f86e5b48e01b996cadc001622fb5e363b421880102030405060708c0c0",
        "lastblockhash" : "0x0c6fea0d018ca8647cd6dd4a5803d908544dcfefeaf17627b87b4c9dac34017b",
        "network" : "Istanbul",
        "postState" : {
            "0x095e7baea6a6c7c4c2dfeb977efac326af552d87" : {
                "balance" : "0x1e",
                "code" : "",
                "nonce" : "0x00",
                "storage" : {
                }
            },
            "0x8888f1f195afa192cfee860698584c030f4c9db1" : {
                "balance" : "0x53444835ec58f618",
                "code" : "",
                "nonce" : "0x00",
                "storage" : {
                }
            },
            "0xa94f5374fce5edbc8e2a8697c15331677e6ebf0b" : {
                "balance" : "0x09184e71a9ca",
                "code" : "",
                "nonce" : "0x03",
                "storage" : {
                }
            }
        },
        "pre" : {
            "0xa94f5374fce5edbc8e2a8697c15331677e6ebf0b" : {
                "balance" : "0x09184e72a000",
                "code" : "",
                "nonce" : "0x00",
                "storage" : {
                }
            }
        },
        "sealEngine" : "NoProof"
    }
}