{
    "blockChainFrontierWithLargerTDvsHomesteadBlockchain" : {
        "_info" : {
            "comment" : "",
            "filledwith" : "testeth 1.5.0.dev2-65+commit.3be27deb",
            "lllcversion" : "Version: 0.4.26-develop.2018.9.19+commit.785cbf40.Linux.g++",
            "source" : "src/BlockchainTestsFiller/TransitionTests/bcFrontierToHomestead/blockChainFrontierWithLargerTDvsHomesteadBlockchainFiller.json",
            "sourceHash" : "11559c8592dedaa576939cb874f3100b24910bca9de9975d1a9e45f763d4bda3"
        },
        "blocks" : [
            {
                "blockHeader" : {
                    "bloom" : "0x00000000000000000000000000000000000000000000000000000000000000000000000000000000000000000000000000000000000000000000000000000000000000000000000000000000000000000000000000000000000000000000000000000000000000000000000000000000000000000000000000000000000000000000000000000000000000000000000000000000000000000000000000000000000000000000000000000000000000000000000000000000000000000000000000000000000000000000000000000000000000000000000000000000000000000000000000000000000000000000000000000000000000000000000000000000",
                    "coinbase" : "0x8888f1f195afa192cfee860698584c030f4c9db1",
                    "difficulty" : "0x020040",
                    "extraData" : "",
                    "gasLimit" : "0x2fefba",
                    "gasUsed" : "0x5208",
                    "hash" : "0x99b6bfb496e3d410364f5b05337cfa07a966ba0864e14eb01b1ce3a24f2541b5",
                    "mixHash" : "0x13b9d5b25e2da047e15b92ff24d10fed26d9916bdc3558f17dad64253f57a937",
                    "nonce" : "0xc4702d1500a305e7",
                    "number" : "0x01",
                    "parentHash" : "0x7285abd5b24742f184ad676e31f6054663b3529bc35ea2fcad8a3e0f642a46f7",
                    "receiptTrie" : "0x33cd44b2139aac546ef61d35a34d414dbeb17fd06d0521890dafa5af8b5b99e3",
                    "stateRoot" : "0x8fca94adef834d4b525ca53df6625a3e5375d779e48421c59ab105eeb8f6acdc",
                    "timestamp" : "0x54c98c82",
                    "transactionsTrie" : "0xac81275d7a81a720240146377982939179218535bfcfa9469c8bdd3e264ef179",
                    "uncleHash" : "0x1dcc4de8dec75d7aab85b567b6ccd41ad312451b948a7413f0a142fd40d49347"
                },
                "blocknumber" : "1",
                "chainname" : "A",
                "rlp" : "0xf9024cf901f9a07285abd5b24742f184ad676e31f6054663b3529bc35ea2fcad8a3e0f642a46f7a01dcc4de8dec75d7aab85b567b6ccd41ad312451b948a7413f0a142fd40d49347948888f1f195afa192cfee860698584c030f4c9db1a08fca94adef834d4b525ca53df6625a3e5375d779e48421c59ab105eeb8f6acdca0ac81275d7a81a720240146377982939179218535bfcfa9469c8bdd3e264ef179a033cd44b2139aac546ef61d35a34d414dbeb17fd06d0521890dafa5af8b5b99e3b90100000000000000000000000000000000000000000000000000000000000000000000000000000000000000000000000000000000000000000000000000000000000000000000000000000000000000000000000000000000000000000000000000000000000000000000000000000000000000000000000000000000000000000000000000000000000000000000000000000000000000000000000000000000000000000000000000000000000000000000000000000000000000000000000000000000000000000000000000000000000000000000000000000000000000000000000000000000000000000000000000000000000000000000000000000000008302004001832fefba8252088454c98c8280a013b9d5b25e2da047e15b92ff24d10fed26d9916bdc3558f17dad64253f57a93788c4702d1500a305e7f84df84b8001827530800a801ca057cb46c0b702929c4fd4127b2370f28a7aeeaa65509699e58eedf7692090a0a9a05ba7c83d99be6a9bca0c81947023ba3b5f2162516d82d0757bf8004f3e9bc03ac0",
                "transactions" : [
                    {
                        "data" : "0x",
                        "gasLimit" : "0x7530",
                        "gasPrice" : "0x01",
                        "nonce" : "0x00",
                        "r" : "0x57cb46c0b702929c4fd4127b2370f28a7aeeaa65509699e58eedf7692090a0a9",
                        "s" : "0x5ba7c83d99be6a9bca0c81947023ba3b5f2162516d82d0757bf8004f3e9bc03a",
                        "to" : "",
                        "v" : "0x1c",
                        "value" : "0x0a"
                    }
                ],
                "uncleHeaders" : [
                ]
            },
            {
                "blockHeader" : {
                    "bloom" : "0x00000000000000000000000000000000000000000000000000000000000000000000000000000000000000000000000000000000000000000000000000000000000000000000000000000000000000000000000000000000000000000000000000000000000000000000000000000000000000000000000000000000000000000000000000000000000000000000000000000000000000000000000000000000000000000000000000000000000000000000000000000000000000000000000000000000000000000000000000000000000000000000000000000000000000000000000000000000000000000000000000000000000000000000000000000000",
                    "coinbase" : "0x8888f1f195afa192cfee860698584c030f4c9db1",
                    "difficulty" : "0x020080",
                    "extraData" : "",
                    "gasLimit" : "0x2fefba",
                    "gasUsed" : "0x5208",
                    "hash" : "0x8f490bb2da8cf43d90efb5ef31501421f6f4902f472e15d79f9f59f282d32218",
                    "mixHash" : "0x1913691bf6ec77b7d1dfdbd1fe8da2114c190df1aedea15dfccab333dbff50c9",
                    "nonce" : "0xf6b0ca788a0cbab1",
                    "number" : "0x02",
                    "parentHash" : "0x99b6bfb496e3d410364f5b05337cfa07a966ba0864e14eb01b1ce3a24f2541b5",
                    "receiptTrie" : "0x55c9e60343b1615fe2b2a21039fb43ddf69e8f69e07aaa8d5f1cd054ab25be8f",
                    "stateRoot" : "0xb7b04bf9f5bacb10bb2f761e626b9b7a7874ce855b2f99c0c440794a00e43033",
                    "timestamp" : "0x54c98c83",
                    "transactionsTrie" : "0x76c7a0ce7644661f276c76fb9a82eaee879d0642cf4ed244fc10afc02c646abf",
                    "uncleHash" : "0x1dcc4de8dec75d7aab85b567b6ccd41ad312451b948a7413f0a142fd40d49347"
                },
                "blocknumber" : "2",
                "chainname" : "A",
                "rlp" : "0xf9024cf901f9a099b6bfb496e3d410364f5b05337cfa07a966ba0864e14eb01b1ce3a24f2541b5a01dcc4de8dec75d7aab85b567b6ccd41ad312451b948a7413f0a142fd40d49347948888f1f195afa192cfee860698584c030f4c9db1a0b7b04bf9f5bacb10bb2f761e626b9b7a7874ce855b2f99c0c440794a00e43033a076c7a0ce7644661f276c76fb9a82eaee879d0642cf4ed244fc10afc02c646abfa055c9e60343b1615fe2b2a21039fb43ddf69e8f69e07aaa8d5f1cd054ab25be8fb90100000000000000000000000000000000000000000000000000000000000000000000000000000000000000000000000000000000000000000000000000000000000000000000000000000000000000000000000000000000000000000000000000000000000000000000000000000000000000000000000000000000000000000000000000000000000000000000000000000000000000000000000000000000000000000000000000000000000000000000000000000000000000000000000000000000000000000000000000000000000000000000000000000000000000000000000000000000000000000000000000000000000000000000000000000000008302008002832fefba8252088454c98c8380a01913691bf6ec77b7d1dfdbd1fe8da2114c190df1aedea15dfccab333dbff50c988f6b0ca788a0cbab1f84df84b0101827530800a801ca0bb6e3cf3f281af13ef1393d7052b03cab367079a9eb71aa829ec72b231a60e1fa04bcfe1da53f26bb95806d38e9f42fef262aaaf5191e16ec473a695c8978a0b05c0",
                "transactions" : [
                    {
                        "data" : "0x",
                        "gasLimit" : "0x7530",
                        "gasPrice" : "0x01",
                        "nonce" : "0x01",
                        "r" : "0xbb6e3cf3f281af13ef1393d7052b03cab367079a9eb71aa829ec72b231a60e1f",
                        "s" : "0x4bcfe1da53f26bb95806d38e9f42fef262aaaf5191e16ec473a695c8978a0b05",
                        "to" : "",
                        "v" : "0x1c",
                        "value" : "0x0a"
                    }
                ],
                "uncleHeaders" : [
                ]
            },
            {
                "blockHeader" : {
                    "bloom" : "0x00000000000000000000000000000000000000000000000000000000000000000000000000000000000000000000000000000000000000000000000000000000000000000000000000000000000000000000000000000000000000000000000000000000000000000000000000000000000000000000000000000000000000000000000000000000000000000000000000000000000000000000000000000000000000000000000000000000000000000000000000000000000000000000000000000000000000000000000000000000000000000000000000000000000000000000000000000000000000000000000000000000000000000000000000000000",
                    "coinbase" : "0x8888f1f195afa192cfee860698584c030f4c9db1",
                    "difficulty" : "0x0200c0",
                    "extraData" : "",
                    "gasLimit" : "0x2fefba",
                    "gasUsed" : "0x5208",
                    "hash" : "0x8dafcd4ef22c604b3812a686d6924d8ceabf4c196444117a056b6dda6f39716a",
                    "mixHash" : "0xe38c1050104e226ebbd1987d686a037fbad6682f0defdb20087964a86e2cebd8",
                    "nonce" : "0x8388230f50481e34",
                    "number" : "0x03",
                    "parentHash" : "0x8f490bb2da8cf43d90efb5ef31501421f6f4902f472e15d79f9f59f282d32218",
                    "receiptTrie" : "0x0a48f328e112d3bff61710acd43bc7435f9e320498ee9e2fce1bb54a63481d37",
                    "stateRoot" : "0x9d74bf97b4053baf10189e3a7edef50604baab366e36fc126adf407cb24b4af6",
                    "timestamp" : "0x54c98c84",
                    "transactionsTrie" : "0x3798aa164b61e27b93484c76a5f319bd93c808dc78ef31cf8b93f4e1b248ca2c",
                    "uncleHash" : "0x1dcc4de8dec75d7aab85b567b6ccd41ad312451b948a7413f0a142fd40d49347"
                },
                "blocknumber" : "3",
                "chainname" : "A",
                "rlp" : "0xf9024cf901f9a08f490bb2da8cf43d90efb5ef31501421f6f4902f472e15d79f9f59f282d32218a01dcc4de8dec75d7aab85b567b6ccd41ad312451b948a7413f0a142fd40d49347948888f1f195afa192cfee860698584c030f4c9db1a09d74bf97b4053baf10189e3a7edef50604baab366e36fc126adf407cb24b4af6a03798aa164b61e27b93484c76a5f319bd93c808dc78ef31cf8b93f4e1b248ca2ca00a48f328e112d3bff61710acd43bc7435f9e320498ee9e2fce1bb54a63481d37b9010000000000000000000000000000000000000000000000000000000000000000000000000000000000000000000000000000000000000000000000000000000000000000000000000000000000000000000000000000000000000000000000000000000000000000000000000000000000000000000000000000000000000000000000000000000000000000000000000000000000000000000000000000000000000000000000000000000000000000000000000000000000000000000000000000000000000000000000000000000000000000000000000000000000000000000000000000000000000000000000000000000000000000000000000000000000830200c003832fefba8252088454c98c8480a0e38c1050104e226ebbd1987d686a037fbad6682f0defdb20087964a86e2cebd8888388230f50481e34f84df84b0201827530800a801ca0f6d884cae1f86bdff1281e95e416089c544a4a5578a75d5e8ad76118e341b055a075b7d88985ed5acd61f30c9f9570c6c33bb92f3ad1a32b86a0747817fbc5ededc0",
                "transactions" : [
                    {
                        "data" : "0x",
                        "gasLimit" : "0x7530",
                        "gasPrice" : "0x01",
                        "nonce" : "0x02",
                        "r" : "0xf6d884cae1f86bdff1281e95e416089c544a4a5578a75d5e8ad76118e341b055",
                        "s" : "0x75b7d88985ed5acd61f30c9f9570c6c33bb92f3ad1a32b86a0747817fbc5eded",
                        "to" : "",
                        "v" : "0x1c",
                        "value" : "0x0a"
                    }
                ],
                "uncleHeaders" : [
                ]
            },
            {
                "blockHeader" : {
                    "bloom" : "0x00000000000000000000000000000000000000000000000000000000000000000000000000000000000000000000000000000000000000000000000000000000000000000000000000000000000000000000000000000000000000000000000000000000000000000000000000000000000000000000000000000000000000000000000000000000000000000000000000000000000000000000000000000000000000000000000000000000000000000000000000000000000000000000000000000000000000000000000000000000000000000000000000000000000000000000000000000000000000000000000000000000000000000000000000000000",
                    "coinbase" : "0x8888f1f195afa192cfee860698584c030f4c9db1",
                    "difficulty" : "0x020100",
                    "extraData" : "",
                    "gasLimit" : "0x2fefba",
                    "gasUsed" : "0x5208",
                    "hash" : "0x5c57a3d043f517108ec52938199a1a336bdacd4d72d541d4a3afcb3d897ec00a",
                    "mixHash" : "0xa16d76d5859e8b1817cb80b7a01440b4f46f03e5adfb28d1fb1a6180163393f6",
                    "nonce" : "0x78fff2150176d023",
                    "number" : "0x04",
                    "parentHash" : "0x8dafcd4ef22c604b3812a686d6924d8ceabf4c196444117a056b6dda6f39716a",
                    "receiptTrie" : "0x403564fc3dccf708f5dde6e0d88b59a2229779b67d67b9dc85e8f0b675ee5495",
                    "stateRoot" : "0x884415b633de492a23fc4a024f92ed18185e7f721795b10c5c19eb68ef94ef4a",
                    "timestamp" : "0x54c98c85",
                    "transactionsTrie" : "0x4cc1b34b3a9d29bf69842a54e1c48bc97afc433883f66d2c59287f118c9c3c2c",
                    "uncleHash" : "0x1dcc4de8dec75d7aab85b567b6ccd41ad312451b948a7413f0a142fd40d49347"
                },
                "blocknumber" : "4",
                "chainname" : "A",
                "rlp" : "0xf9024cf901f9a08dafcd4ef22c604b3812a686d6924d8ceabf4c196444117a056b6dda6f39716aa01dcc4de8dec75d7aab85b567b6ccd41ad312451b948a7413f0a142fd40d49347948888f1f195afa192cfee860698584c030f4c9db1a0884415b633de492a23fc4a024f92ed18185e7f721795b10c5c19eb68ef94ef4aa04cc1b34b3a9d29bf69842a54e1c48bc97afc433883f66d2c59287f118c9c3c2ca0403564fc3dccf708f5dde6e0d88b59a2229779b67d67b9dc85e8f0b675ee5495b90100000000000000000000000000000000000000000000000000000000000000000000000000000000000000000000000000000000000000000000000000000000000000000000000000000000000000000000000000000000000000000000000000000000000000000000000000000000000000000000000000000000000000000000000000000000000000000000000000000000000000000000000000000000000000000000000000000000000000000000000000000000000000000000000000000000000000000000000000000000000000000000000000000000000000000000000000000000000000000000000000000000000000000000000000000000008302010004832fefba8252088454c98c8580a0a16d76d5859e8b1817cb80b7a01440b4f46f03e5adfb28d1fb1a6180163393f68878fff2150176d023f84df84b0301827530800a801ca0753ee5d896db8d87fe850e7935418587277cd9c010dfaaf7dd09b0a2e73785dca066deb3c241d532c7b880ae7a9a311ee7a92ef1c5e4e2bf3307990a2881bc13b0c0",
                "transactions" : [
                    {
                        "data" : "0x",
                        "gasLimit" : "0x7530",
                        "gasPrice" : "0x01",
                        "nonce" : "0x03",
                        "r" : "0x753ee5d896db8d87fe850e7935418587277cd9c010dfaaf7dd09b0a2e73785dc",
                        "s" : "0x66deb3c241d532c7b880ae7a9a311ee7a92ef1c5e4e2bf3307990a2881bc13b0",
                        "to" : "",
                        "v" : "0x1c",
                        "value" : "0x0a"
                    }
                ],
                "uncleHeaders" : [
                ]
            },
            {
                "blockHeader" : {
                    "bloom" : "0x00000000000000000000000000000000000000000000000000000000000000000000000000000000000000000000000000000000000000000000000000000000000000000000000000000000000000000000000000000000000000000000000000000000000000000000000000000000000000000000000000000000000000000000000000000000000000000000000000000000000000000000000000000000000000000000000000000000000000000000000000000000000000000000000000000000000000000000000000000000000000000000000000000000000000000000000000000000000000000000000000000000000000000000000000000000",
                    "coinbase" : "0x8888f1f195afa192cfee860698584c030f4c9db1",
                    "difficulty" : "0x020140",
                    "extraData" : "",
                    "gasLimit" : "0x2fefba",
                    "gasUsed" : "0xcf08",
                    "hash" : "0x4c0b14b71a50ce17b9246ec92d8481c1d668ae2655c1d4073bec14ff1307d0c1",
                    "mixHash" : "0xdc8211c24ae5abd5152a0ca3683196001155a6bc9296395d555890b6cfd65f30",
                    "nonce" : "0x6e079e7b177ff458",
                    "number" : "0x05",
                    "parentHash" : "0x5c57a3d043f517108ec52938199a1a336bdacd4d72d541d4a3afcb3d897ec00a",
                    "receiptTrie" : "0x676b1dc7fabf8e93296790a89705198ae55bf7a37083c85bbdfadb05e2ab11cc",
                    "stateRoot" : "0xf7690bfdde5a331c15a5f40ac2d7f711e033d05e16b105cc274db92a5bcaab7f",
                    "timestamp" : "0x54c98c86",
                    "transactionsTrie" : "0xeb76cfc3bfe2bf40c31e25d80b54bd81eaa530ef5dc84b613dec8b5a310bb0a1",
                    "uncleHash" : "0x1dcc4de8dec75d7aab85b567b6ccd41ad312451b948a7413f0a142fd40d49347"
                },
                "blocknumber" : "5",
                "chainname" : "A",
                "rlp" : "0xf9024df901f9a05c57a3d043f517108ec52938199a1a336bdacd4d72d541d4a3afcb3d897ec00aa01dcc4de8dec75d7aab85b567b6ccd41ad312451b948a7413f0a142fd40d49347948888f1f195afa192cfee860698584c030f4c9db1a0f7690bfdde5a331c15a5f40ac2d7f711e033d05e16b105cc274db92a5bcaab7fa0eb76cfc3bfe2bf40c31e25d80b54bd81eaa530ef5dc84b613dec8b5a310bb0a1a0676b1dc7fabf8e93296790a89705198ae55bf7a37083c85bbdfadb05e2ab11ccb90100000000000000000000000000000000000000000000000000000000000000000000000000000000000000000000000000000000000000000000000000000000000000000000000000000000000000000000000000000000000000000000000000000000000000000000000000000000000000000000000000000000000000000000000000000000000000000000000000000000000000000000000000000000000000000000000000000000000000000000000000000000000000000000000000000000000000000000000000000000000000000000000000000000000000000000000000000000000000000000000000000000000000000000000000000000008302014005832fefba82cf088454c98c8680a0dc8211c24ae5abd5152a0ca3683196001155a6bc9296395d555890b6cfd65f30886e079e7b177ff458f84ef84c040183011170800b801ca0fd9baf2a485c6915f2a9d27d1735f9696db3539de2b89df6d04eb83f868451e9a00de415e551da2e8029093b33c636eb56493c3aeb7d042429761fa4f3e0944789c0",
                "transactions" : [
                    {
                        "data" : "0x",
                        "gasLimit" : "0x011170",
                        "gasPrice" : "0x01",
                        "nonce" : "0x04",
                        "r" : "0xfd9baf2a485c6915f2a9d27d1735f9696db3539de2b89df6d04eb83f868451e9",
                        "s" : "0x0de415e551da2e8029093b33c636eb56493c3aeb7d042429761fa4f3e0944789",
                        "to" : "",
                        "v" : "0x1c",
                        "value" : "0x0b"
                    }
                ],
                "uncleHeaders" : [
                ]
            },
            {
                "blockHeader" : {
                    "bloom" : "0x00000000000000000000000000000000000000000000000000000000000000000000000000000000000000000000000000000000000000000000000000000000000000000000000000000000000000000000000000000000000000000000000000000000000000000000000000000000000000000000000000000000000000000000000000000000000000000000000000000000000000000000000000000000000000000000000000000000000000000000000000000000000000000000000000000000000000000000000000000000000000000000000000000000000000000000000000000000000000000000000000000000000000000000000000000000",
                    "coinbase" : "0x8888f1f195afa192cfee860698584c030f4c9db1",
                    "difficulty" : "0x020040",
                    "extraData" : "",
                    "gasLimit" : "0x2fefba",
                    "gasUsed" : "0x5208",
                    "hash" : "0xf785d15c036c6187ffc18ce040b1d1e859f0eec5bb29cdac27a59a6299b98d27",
                    "mixHash" : "0x2d8b63b832be4152eb0fbd3cc90a7427b568d7b2a3b92a27d1ce244a490bf5c0",
                    "nonce" : "0xd40621e2069e8971",
                    "number" : "0x01",
                    "parentHash" : "0x7285abd5b24742f184ad676e31f6054663b3529bc35ea2fcad8a3e0f642a46f7",
                    "receiptTrie" : "0x33cd44b2139aac546ef61d35a34d414dbeb17fd06d0521890dafa5af8b5b99e3",
                    "stateRoot" : "0x8fca94adef834d4b525ca53df6625a3e5375d779e48421c59ab105eeb8f6acdc",
                    "timestamp" : "0x54c98c82",
                    "transactionsTrie" : "0xac81275d7a81a720240146377982939179218535bfcfa9469c8bdd3e264ef179",
                    "uncleHash" : "0x1dcc4de8dec75d7aab85b567b6ccd41ad312451b948a7413f0a142fd40d49347"
                },
                "blocknumber" : "1",
                "chainname" : "F",
                "chainnetwork" : "Frontier",
                "rlp" : "0xf9024cf901f9a07285abd5b24742f184ad676e31f6054663b3529bc35ea2fcad8a3e0f642a46f7a01dcc4de8dec75d7aab85b567b6ccd41ad312451b948a7413f0a142fd40d49347948888f1f195afa192cfee860698584c030f4c9db1a08fca94adef834d4b525ca53df6625a3e5375d779e48421c59ab105eeb8f6acdca0ac81275d7a81a720240146377982939179218535bfcfa9469c8bdd3e264ef179a033cd44b2139aac546ef61d35a34d414dbeb17fd06d0521890dafa5af8b5b99e3b90100000000000000000000000000000000000000000000000000000000000000000000000000000000000000000000000000000000000000000000000000000000000000000000000000000000000000000000000000000000000000000000000000000000000000000000000000000000000000000000000000000000000000000000000000000000000000000000000000000000000000000000000000000000000000000000000000000000000000000000000000000000000000000000000000000000000000000000000000000000000000000000000000000000000000000000000000000000000000000000000000000000000000000000000000000000008302004001832fefba8252088454c98c8280a02d8b63b832be4152eb0fbd3cc90a7427b568d7b2a3b92a27d1ce244a490bf5c088d40621e2069e8971f84df84b8001827530800a801ca057cb46c0b702929c4fd4127b2370f28a7aeeaa65509699e58eedf7692090a0a9a05ba7c83d99be6a9bca0c81947023ba3b5f2162516d82d0757bf8004f3e9bc03ac0",
                "transactions" : [
                    {
                        "data" : "0x",
                        "gasLimit" : "0x7530",
                        "gasPrice" : "0x01",
                        "nonce" : "0x00",
                        "r" : "0x57cb46c0b702929c4fd4127b2370f28a7aeeaa65509699e58eedf7692090a0a9",
                        "s" : "0x5ba7c83d99be6a9bca0c81947023ba3b5f2162516d82d0757bf8004f3e9bc03a",
                        "to" : "",
                        "v" : "0x1c",
                        "value" : "0x0a"
                    }
                ],
                "uncleHeaders" : [
                ]
            },
            {
                "blockHeader" : {
                    "bloom" : "0x00000000000000000000000000000000000000000000000000000000000000000000000000000000000000000000000000000000000000000000000000000000000000000000000000000000000000000000000000000000000000000000000000000000000000000000000000000000000000000000000000000000000000000000000000000000000000000000000000000000000000000000000000000000000000000000000000000000000000000000000000000000000000000000000000000000000000000000000000000000000000000000000000000000000000000000000000000000000000000000000000000000000000000000000000000000",
                    "coinbase" : "0x8888f1f195afa192cfee860698584c030f4c9db1",
                    "difficulty" : "0x020080",
                    "extraData" : "",
                    "gasLimit" : "0x2fefba",
                    "gasUsed" : "0x5208",
                    "hash" : "0x6da3d5f82ae3cedd298d97e0c83a02d90bc14a85f8d6c07d2632a8807285a01d",
                    "mixHash" : "0xfbd975868f07b47c522001ac4864f67388858cd152beb35877a7e6ca6d2e8495",
                    "nonce" : "0xc79ec4850acd83b2",
                    "number" : "0x02",
                    "parentHash" : "0xf785d15c036c6187ffc18ce040b1d1e859f0eec5bb29cdac27a59a6299b98d27",
                    "receiptTrie" : "0x55c9e60343b1615fe2b2a21039fb43ddf69e8f69e07aaa8d5f1cd054ab25be8f",
                    "stateRoot" : "0xb7b04bf9f5bacb10bb2f761e626b9b7a7874ce855b2f99c0c440794a00e43033",
                    "timestamp" : "0x54c98c83",
                    "transactionsTrie" : "0x76c7a0ce7644661f276c76fb9a82eaee879d0642cf4ed244fc10afc02c646abf",
                    "uncleHash" : "0x1dcc4de8dec75d7aab85b567b6ccd41ad312451b948a7413f0a142fd40d49347"
                },
                "blocknumber" : "2",
                "chainname" : "F",
                "chainnetwork" : "Frontier",
                "rlp" : "0xf9024cf901f9a0f785d15c036c6187ffc18ce040b1d1e859f0eec5bb29cdac27a59a6299b98d27a01dcc4de8dec75d7aab85b567b6ccd41ad312451b948a7413f0a142fd40d49347948888f1f195afa192cfee860698584c030f4c9db1a0b7b04bf9f5bacb10bb2f761e626b9b7a7874ce855b2f99c0c440794a00e43033a076c7a0ce7644661f276c76fb9a82eaee879d0642cf4ed244fc10afc02c646abfa055c9e60343b1615fe2b2a21039fb43ddf69e8f69e07aaa8d5f1cd054ab25be8fb90100000000000000000000000000000000000000000000000000000000000000000000000000000000000000000000000000000000000000000000000000000000000000000000000000000000000000000000000000000000000000000000000000000000000000000000000000000000000000000000000000000000000000000000000000000000000000000000000000000000000000000000000000000000000000000000000000000000000000000000000000000000000000000000000000000000000000000000000000000000000000000000000000000000000000000000000000000000000000000000000000000000000000000000000000000000008302008002832fefba8252088454c98c8380a0fbd975868f07b47c522001ac4864f67388858cd152beb35877a7e6ca6d2e849588c79ec4850acd83b2f84df84b0101827530800a801ca0bb6e3cf3f281af13ef1393d7052b03cab367079a9eb71aa829ec72b231a60e1fa04bcfe1da53f26bb95806d38e9f42fef262aaaf5191e16ec473a695c8978a0b05c0",
                "transactions" : [
                    {
                        "data" : "0x",
                        "gasLimit" : "0x7530",
                        "gasPrice" : "0x01",
                        "nonce" : "0x01",
                        "r" : "0xbb6e3cf3f281af13ef1393d7052b03cab367079a9eb71aa829ec72b231a60e1f",
                        "s" : "0x4bcfe1da53f26bb95806d38e9f42fef262aaaf5191e16ec473a695c8978a0b05",
                        "to" : "",
                        "v" : "0x1c",
                        "value" : "0x0a"
                    }
                ],
                "uncleHeaders" : [
                ]
            },
            {
                "blockHeader" : {
                    "bloom" : "0x00000000000000000000000000000000000000000000000000000000000000000000000000000000000000000000000000000000000000000000000000000000000000000000000000000000000000000000000000000000000000000000000000000000000000000000000000000000000000000000000000000000000000000000000000000000000000000000000000000000000000000000000000000000000000000000000000000000000000000000000000000000000000000000000000000000000000000000000000000000000000000000000000000000000000000000000000000000000000000000000000000000000000000000000000000000",
                    "coinbase" : "0x8888f1f195afa192cfee860698584c030f4c9db1",
                    "difficulty" : "0x0200c0",
                    "extraData" : "",
                    "gasLimit" : "0x2fefba",
                    "gasUsed" : "0x5208",
                    "hash" : "0xad8a94e453133c95d18f7df2ebcecaacbdff8a465006a825fc29b07b3bc80ddb",
                    "mixHash" : "0xd781fb9cb95c38a9fb2511b8ee2dba152bf05c08fd743bb00ff118a7698e5cd6",
                    "nonce" : "0x40c30308d50ba418",
                    "number" : "0x03",
                    "parentHash" : "0x6da3d5f82ae3cedd298d97e0c83a02d90bc14a85f8d6c07d2632a8807285a01d",
                    "receiptTrie" : "0x0a48f328e112d3bff61710acd43bc7435f9e320498ee9e2fce1bb54a63481d37",
                    "stateRoot" : "0x9d74bf97b4053baf10189e3a7edef50604baab366e36fc126adf407cb24b4af6",
                    "timestamp" : "0x54c98c84",
                    "transactionsTrie" : "0x3798aa164b61e27b93484c76a5f319bd93c808dc78ef31cf8b93f4e1b248ca2c",
                    "uncleHash" : "0x1dcc4de8dec75d7aab85b567b6ccd41ad312451b948a7413f0a142fd40d49347"
                },
                "blocknumber" : "3",
                "chainname" : "F",
                "chainnetwork" : "Frontier",
                "rlp" : "0xf9024cf901f9a06da3d5f82ae3cedd298d97e0c83a02d90bc14a85f8d6c07d2632a8807285a01da01dcc4de8dec75d7aab85b567b6ccd41ad312451b948a7413f0a142fd40d49347948888f1f195afa192cfee860698584c030f4c9db1a09d74bf97b4053baf10189e3a7edef50604baab366e36fc126adf407cb24b4af6a03798aa164b61e27b93484c76a5f319bd93c808dc78ef31cf8b93f4e1b248ca2ca00a48f328e112d3bff61710acd43bc7435f9e320498ee9e2fce1bb54a63481d37b9010000000000000000000000000000000000000000000000000000000000000000000000000000000000000000000000000000000000000000000000000000000000000000000000000000000000000000000000000000000000000000000000000000000000000000000000000000000000000000000000000000000000000000000000000000000000000000000000000000000000000000000000000000000000000000000000000000000000000000000000000000000000000000000000000000000000000000000000000000000000000000000000000000000000000000000000000000000000000000000000000000000000000000000000000000000000830200c003832fefba8252088454c98c8480a0d781fb9cb95c38a9fb2511b8ee2dba152bf05c08fd743bb00ff118a7698e5cd68840c30308d50ba418f84df84b0201827530800a801ca0f6d884cae1f86bdff1281e95e416089c544a4a5578a75d5e8ad76118e341b055a075b7d88985ed5acd61f30c9f9570c6c33bb92f3ad1a32b86a0747817fbc5ededc0",
                "transactions" : [
                    {
                        "data" : "0x",
                        "gasLimit" : "0x7530",
                        "gasPrice" : "0x01",
                        "nonce" : "0x02",
                        "r" : "0xf6d884cae1f86bdff1281e95e416089c544a4a5578a75d5e8ad76118e341b055",
                        "s" : "0x75b7d88985ed5acd61f30c9f9570c6c33bb92f3ad1a32b86a0747817fbc5eded",
                        "to" : "",
                        "v" : "0x1c",
                        "value" : "0x0a"
                    }
                ],
                "uncleHeaders" : [
                ]
            },
            {
                "blockHeader" : {
                    "bloom" : "0x00000000000000000000000000000000000000000000000000000000000000000000000000000000000000000000000000000000000000000000000000000000000000000000000000000000000000000000000000000000000000000000000000000000000000000000000000000000000000000000000000000000000000000000000000000000000000000000000000000000000000000000000000000000000000000000000000000000000000000000000000000000000000000000000000000000000000000000000000000000000000000000000000000000000000000000000000000000000000000000000000000000000000000000000000000000",
                    "coinbase" : "0x8888f1f195afa192cfee860698584c030f4c9db1",
                    "difficulty" : "0x020100",
                    "extraData" : "",
                    "gasLimit" : "0x2fefba",
                    "gasUsed" : "0x5208",
                    "hash" : "0xf0a6a14efe55ff3ca56b60150c8dfc033b9dc3d00ce3f2b997dd1cd35f0fabde",
                    "mixHash" : "0x91d16d9920db388a7900de3cfd1981fe1d96e03215d9f3c6d9952f757ec87ab8",
                    "nonce" : "0x964f4055f134764d",
                    "number" : "0x04",
                    "parentHash" : "0xad8a94e453133c95d18f7df2ebcecaacbdff8a465006a825fc29b07b3bc80ddb",
                    "receiptTrie" : "0x403564fc3dccf708f5dde6e0d88b59a2229779b67d67b9dc85e8f0b675ee5495",
                    "stateRoot" : "0x884415b633de492a23fc4a024f92ed18185e7f721795b10c5c19eb68ef94ef4a",
                    "timestamp" : "0x54c98c85",
                    "transactionsTrie" : "0x4cc1b34b3a9d29bf69842a54e1c48bc97afc433883f66d2c59287f118c9c3c2c",
                    "uncleHash" : "0x1dcc4de8dec75d7aab85b567b6ccd41ad312451b948a7413f0a142fd40d49347"
                },
                "blocknumber" : "4",
                "chainname" : "F",
                "chainnetwork" : "Frontier",
                "rlp" : "0xf9024cf901f9a0ad8a94e453133c95d18f7df2ebcecaacbdff8a465006a825fc29b07b3bc80ddba01dcc4de8dec75d7aab85b567b6ccd41ad312451b948a7413f0a142fd40d49347948888f1f195afa192cfee860698584c030f4c9db1a0884415b633de492a23fc4a024f92ed18185e7f721795b10c5c19eb68ef94ef4aa04cc1b34b3a9d29bf69842a54e1c48bc97afc433883f66d2c59287f118c9c3c2ca0403564fc3dccf708f5dde6e0d88b59a2229779b67d67b9dc85e8f0b675ee5495b90100000000000000000000000000000000000000000000000000000000000000000000000000000000000000000000000000000000000000000000000000000000000000000000000000000000000000000000000000000000000000000000000000000000000000000000000000000000000000000000000000000000000000000000000000000000000000000000000000000000000000000000000000000000000000000000000000000000000000000000000000000000000000000000000000000000000000000000000000000000000000000000000000000000000000000000000000000000000000000000000000000000000000000000000000000000008302010004832fefba8252088454c98c8580a091d16d9920db388a7900de3cfd1981fe1d96e03215d9f3c6d9952f757ec87ab888964f4055f134764df84df84b0301827530800a801ca0753ee5d896db8d87fe850e7935418587277cd9c010dfaaf7dd09b0a2e73785dca066deb3c241d532c7b880ae7a9a311ee7a92ef1c5e4e2bf3307990a2881bc13b0c0",
                "transactions" : [
                    {
                        "data" : "0x",
                        "gasLimit" : "0x7530",
                        "gasPrice" : "0x01",
                        "nonce" : "0x03",
                        "r" : "0x753ee5d896db8d87fe850e7935418587277cd9c010dfaaf7dd09b0a2e73785dc",
                        "s" : "0x66deb3c241d532c7b880ae7a9a311ee7a92ef1c5e4e2bf3307990a2881bc13b0",
                        "to" : "",
                        "v" : "0x1c",
                        "value" : "0x0a"
                    }
                ],
                "uncleHeaders" : [
                ]
            },
            {
                "blocknumber" : "5",
                "chainname" : "F",
                "chainnetwork" : "Frontier",
                "expectExceptionALL" : "InvalidReceiptsStateRoot",
                "rlp" : "0xf9024df901f9a0f0a6a14efe55ff3ca56b60150c8dfc033b9dc3d00ce3f2b997dd1cd35f0fabdea01dcc4de8dec75d7aab85b567b6ccd41ad312451b948a7413f0a142fd40d49347948888f1f195afa192cfee860698584c030f4c9db1a03782a5a61419d1869d31a36af23817f1c395b961199e89f5a9dc061ebca97f05a0d97a658b78f334c1b831d0348ccbfa81e2a7645d95c9e581384bd206761b096aa03308bccbdb41f2f7f1c45911353f0a00b0c91671dc68a72bb5deb3a120cf5541b90100000000000000000000000000000000000000000000000000000000000000000000000000000000000000000000000000000000000000000000000000000000000000000000000000000000000000000000000000000000000000000000000000000000000000000000000000000000000000000000000000000000000000000000000000000000000000000000000000000000000000000000000000000000000000000000000000000000000000000000000000000000000000000000000000000000000000000000000000000000000000000000000000000000000000000000000000000000000000000000000000000000000000000000000000000000008302014005832fefba8252088454c98c8680a0f150926496052980b42c9d4df97eaf37535e8cd9f7a59fbb57602b359d682a4d8866ae808b5ed853e0f84ef84c040183015f90800a801ba0bca0f3b2307115211574e9d1b73f7f3d1f4f25b0a50485209b0db081cb78dfaea078ca6edcddadc6615feb7f41d94a0151e91b1c8d4ec9d6fa665bff2578003440c0"
            },
            {
                "blocknumber" : "6",
                "chainname" : "F",
                "chainnetwork" : "Frontier",
                "expectExceptionALL" : "UnknownParent",
                "rlp" : "0xf9024df901f9a024e0fe8fb9e58ddbc4c1bfbe653c89607417221623bacfc9391f16f37c6ba771a01dcc4de8dec75d7aab85b567b6ccd41ad312451b948a7413f0a142fd40d49347948888f1f195afa192cfee860698584c030f4c9db1a06f9dde55cf1f663274cc891f4ca9148e5b5c41e2afe5a61e9f68031438cb1c4ca06c5a327bc1f7a929adad5d8b93bfaa5a6fe9085da51d25ad5f77db2c118e7b26a0c6f85e5205e825df5bf9591273df962c1115c9791cd9c66a12ea257cdf005a97b90100000000000000000000000000000000000000000000000000000000000000000000000000000000000000000000000000000000000000000000000000000000000000000000000000000000000000000000000000000000000000000000000000000000000000000000000000000000000000000000000000000000000000000000000000000000000000000000000000000000000000000000000000000000000000000000000000000000000000000000000000000000000000000000000000000000000000000000000000000000000000000000000000000000000000000000000000000000000000000000000000000000000000000000000000000000008302018006832fefba8252088454c98c8780a08d4d808438302211a787fab5f1572766792c6e02d3d908d7851db0268998c69e8844e3761bd5cf9929f84ef84c050183015f90800a801ca0606efbde468754dfb8026225d200fb3588f736d018c601915673d6767ca29d86a079bdb812863f1439a77f27b6b0af48fa083c082cd56f3183a1625333957757cbc0"
            }
        ],
        "genesisBlockHeader" : {
            "bloom" : "0x00000000000000000000000000000000000000000000000000000000000000000000000000000000000000000000000000000000000000000000000000000000000000000000000000000000000000000000000000000000000000000000000000000000000000000000000000000000000000000000000000000000000000000000000000000000000000000000000000000000000000000000000000000000000000000000000000000000000000000000000000000000000000000000000000000000000000000000000000000000000000000000000000000000000000000000000000000000000000000000000000000000000000000000000000000000",
            "coinbase" : "0x8888f1f195afa192cfee860698584c030f4c9db1",
            "difficulty" : "0x020000",
            "extraData" : "0x42",
            "gasLimit" : "0x2fefd8",
            "gasUsed" : "0x00",
            "hash" : "0x7285abd5b24742f184ad676e31f6054663b3529bc35ea2fcad8a3e0f642a46f7",
            "mixHash" : "0x56e81f171bcc55a6ff8345e692c0f86e5b48e01b996cadc001622fb5e363b421",
            "nonce" : "0x0102030405060708",
            "number" : "0x00",
            "parentHash" : "0x0000000000000000000000000000000000000000000000000000000000000000",
            "receiptTrie" : "0x56e81f171bcc55a6ff8345e692c0f86e5b48e01b996cadc001622fb5e363b421",
            "stateRoot" : "0xcafd881ab193703b83816c49ff6c2bf6ba6f464a1be560c42106128c8dbc35e7",
            "timestamp" : "0x54c98c81",
            "transactionsTrie" : "0x56e81f171bcc55a6ff8345e692c0f86e5b48e01b996cadc001622fb5e363b421",
            "uncleHash" : "0x1dcc4de8dec75d7aab85b567b6ccd41ad312451b948a7413f0a142fd40d49347"
        },
        "genesisRLP" : "0xf901fcf901f7a00000000000000000000000000000000000000000000000000000000000000000a01dcc4de8dec75d7aab85b567b6ccd41ad312451b948a7413f0a142fd40d49347948888f1f195afa192cfee860698584c030f4c9db1a0cafd881ab193703b83816c49ff6c2bf6ba6f464a1be560c42106128c8dbc35e7a056e81f171bcc55a6ff8345e692c0f86e5b48e01b996cadc001622fb5e363b421a056e81f171bcc55a6ff8345e692c0f86e5b48e01b996cadc001622fb5e363b421b90100000000000000000000000000000000000000000000000000000000000000000000000000000000000000000000000000000000000000000000000000000000000000000000000000000000000000000000000000000000000000000000000000000000000000000000000000000000000000000000000000000000000000000000000000000000000000000000000000000000000000000000000000000000000000000000000000000000000000000000000000000000000000000000000000000000000000000000000000000000000000000000000000000000000000000000000000000000000000000000000000000000000000000000000000000000008302000080832fefd8808454c98c8142a056e81f171bcc55a6ff8345e692c0f86e5b48e01b996cadc001622fb5e363b421880102030405060708c0c0",
        "lastblockhash" : "0x4c0b14b71a50ce17b9246ec92d8481c1d668ae2655c1d4073bec14ff1307d0c1",
        "network" : "FrontierToHomesteadAt5",
        "postState" : {
            "0x0c243ebe6a031753dc0dd850acf422844a3efb76" : {
                "balance" : "0x0a",
                "code" : "",
                "nonce" : "0x00",
                "storage" : {
                }
            },
            "0x248f0f0f33eadb89e9d87fd5c127f58567f3ffde" : {
                "balance" : "0x0a",
                "code" : "",
                "nonce" : "0x00",
                "storage" : {
                }
            },
            "0x6295ee1b4f6dd65047762f924ecd367c17eabf8f" : {
                "balance" : "0x0a",
                "code" : "",
                "nonce" : "0x00",
                "storage" : {
                }
            },
            "0x8888f1f195afa192cfee860698584c030f4c9db1" : {
                "balance" : "0x015af1d78b58c61728",
                "code" : "",
                "nonce" : "0x00",
                "storage" : {
                }
            },
            "0xa94f5374fce5edbc8e2a8697c15331677e6ebf0b" : {
                "balance" : "0x025409cca5",
                "code" : "",
                "nonce" : "0x05",
                "storage" : {
                }
            },
            "0xb1d37cf6180ceb738ca45b5005a2f418c02e204b" : {
                "balance" : "0x0b",
                "code" : "",
                "nonce" : "0x00",
                "storage" : {
                }
            },
            "0xec0e71ad0a90ffe1909d27dac207f7680abba42d" : {
                "balance" : "0x0a",
                "code" : "",
                "nonce" : "0x00",
                "storage" : {
                }
            }
        },
        "pre" : {
            "0xa94f5374fce5edbc8e2a8697c15331677e6ebf0b" : {
                "balance" : "0x02540be400",
                "code" : "",
                "nonce" : "0x00",
                "storage" : {
                }
            }
        }
    }
}