{
    "CallContractThatCreateContractBeforeAndAfterSwitchover" : {
        "_info" : {
            "comment" : "",
            "filledwith" : "testeth 1.5.0.dev2-65+commit.3be27deb",
            "lllcversion" : "Version: 0.4.26-develop.2018.9.19+commit.785cbf40.Linux.g++",
            "source" : "src/BlockchainTestsFiller/TransitionTests/bcFrontierToHomestead/CallContractThatCreateContractBeforeAndAfterSwitchoverFiller.json",
            "sourceHash" : "35754efa455b04bd57b3b947b968d769c76dcc98d5f9cd68bdb03247f1a1b056"
        },
        "blocks" : [
            {
                "blockHeader" : {
                    "bloom" : "0x00000000000000000000000000000000000000000000000000000000000000000000000000000000000000000000000000000000000000000000000000000000000000000000000000000000000000000000000000000000000000000000000000000000000000000000000000000000000000000000000000000000000000000000000000000000000000000000000000000000000000000000000000000000000000000000000000000000000000000000000000000000000000000000000000000000000000000000000000000000000000000000000000000000000000000000000000000000000000000000000000000000000000000000000000000000",
                    "coinbase" : "0x8888f1f195afa192cfee860698584c030f4c9db1",
                    "difficulty" : "0x020040",
                    "extraData" : "",
                    "gasLimit" : "0x2fefba",
                    "gasUsed" : "0x02bf20",
                    "hash" : "0x1edb25a882dadd3d1f727025bd7259ae757ef42e06d1735be4093cccf189c162",
                    "mixHash" : "0x435ec743a65eb6d189aa4f146471bd4c03bb54d985cf5842d86896acab1cd39a",
                    "nonce" : "0x8acf9c586bbc138f",
                    "number" : "0x01",
                    "parentHash" : "0x4bfa7081bdfeb389d60ae667c91e4ff844efe9f2c7feb10c74e3a177e667bf7a",
                    "receiptTrie" : "0x008a609dfc4f84c4d7a7017a02b92f09818f4a61a16caa7ee8c882ab043fe14b",
                    "stateRoot" : "0x2fa1833966c50439c8ac937e18ac5e0052775da215fad6fdfae91ea55d6218dc",
                    "timestamp" : "0x54c98c82",
                    "transactionsTrie" : "0x2b1f257ab8e110b505dfa58c4c03976e8283602c6480a817d99dbaa2add1f6b0",
                    "uncleHash" : "0x1dcc4de8dec75d7aab85b567b6ccd41ad312451b948a7413f0a142fd40d49347"
                },
                "blocknumber" : "1",
                "rlp" : "0xf90262f901faa04bfa7081bdfeb389d60ae667c91e4ff844efe9f2c7feb10c74e3a177e667bf7aa01dcc4de8dec75d7aab85b567b6ccd41ad312451b948a7413f0a142fd40d49347948888f1f195afa192cfee860698584c030f4c9db1a02fa1833966c50439c8ac937e18ac5e0052775da215fad6fdfae91ea55d6218dca02b1f257ab8e110b505dfa58c4c03976e8283602c6480a817d99dbaa2add1f6b0a0008a609dfc4f84c4d7a7017a02b92f09818f4a61a16caa7ee8c882ab043fe14bb90100000000000000000000000000000000000000000000000000000000000000000000000000000000000000000000000000000000000000000000000000000000000000000000000000000000000000000000000000000000000000000000000000000000000000000000000000000000000000000000000000000000000000000000000000000000000000000000000000000000000000000000000000000000000000000000000000000000000000000000000000000000000000000000000000000000000000000000000000000000000000000000000000000000000000000000000000000000000000000000000000000000000000000000000000000000008302004001832fefba8302bf208454c98c8280a0435ec743a65eb6d189aa4f146471bd4c03bb54d985cf5842d86896acab1cd39a888acf9c586bbc138ff862f86080018302bf209410000000000000000000000000000000000000010a801ca050f65a228a62e41e0da34926b66d010d906ad92c0f5c9c3b5e800d824314e7d7a023710b86f790d387b6e5b83c5efb8babb184b7c2fe2d8a8bf02ce91ff98023ccc0",
                "transactions" : [
                    {
                        "data" : "0x",
                        "gasLimit" : "0x02bf20",
                        "gasPrice" : "0x01",
                        "nonce" : "0x00",
                        "r" : "0x50f65a228a62e41e0da34926b66d010d906ad92c0f5c9c3b5e800d824314e7d7",
                        "s" : "0x23710b86f790d387b6e5b83c5efb8babb184b7c2fe2d8a8bf02ce91ff98023cc",
                        "to" : "0x1000000000000000000000000000000000000001",
                        "v" : "0x1c",
                        "value" : "0x0a"
                    }
                ],
                "uncleHeaders" : [
                ]
            },
            {
                "blockHeader" : {
                    "bloom" : "0x00000000000000000000000000000000000000000000000000000000000000000000000000000000000000000000000000000000000000000000000000000000000000000000000000000000000000000000000000000000000000000000000000000000000000000000000000000000000000000000000000000000000000000000000000000000000000000000000000000000000000000000000000000000000000000000000000000000000000000000000000000000000000000000000000000000000000000000000000000000000000000000000000000000000000000000000000000000000000000000000000000000000000000000000000000000",
                    "coinbase" : "0x8888f1f195afa192cfee860698584c030f4c9db1",
                    "difficulty" : "0x020080",
                    "extraData" : "",
                    "gasLimit" : "0x2fefba",
                    "gasUsed" : "0x5208",
                    "hash" : "0x7ba44a9ae9c427da516fb28058778779ef3d6d2625c7f87c9af5f9c1309f9c36",
                    "mixHash" : "0x949b2f169af2304b59ca1b853c1e135e9c3493c5d176d283c8a4a5cfa44f52dc",
                    "nonce" : "0xf47d6df8fdf41259",
                    "number" : "0x02",
                    "parentHash" : "0x1edb25a882dadd3d1f727025bd7259ae757ef42e06d1735be4093cccf189c162",
                    "receiptTrie" : "0x614245b7f8234b2577e668a89ea49ccaad6afad1c5d8c99f5dd0be223a8645bf",
                    "stateRoot" : "0xc06e5a5c2a57fade98a8022639c2ac2896b1f47188c28668bcd97546d845ad74",
                    "timestamp" : "0x54c98c83",
                    "transactionsTrie" : "0x76c7a0ce7644661f276c76fb9a82eaee879d0642cf4ed244fc10afc02c646abf",
                    "uncleHash" : "0x1dcc4de8dec75d7aab85b567b6ccd41ad312451b948a7413f0a142fd40d49347"
                },
                "blocknumber" : "2",
                "rlp" : "0xf9024cf901f9a01edb25a882dadd3d1f727025bd7259ae757ef42e06d1735be4093cccf189c162a01dcc4de8dec75d7aab85b567b6ccd41ad312451b948a7413f0a142fd40d49347948888f1f195afa192cfee860698584c030f4c9db1a0c06e5a5c2a57fade98a8022639c2ac2896b1f47188c28668bcd97546d845ad74a076c7a0ce7644661f276c76fb9a82eaee879d0642cf4ed244fc10afc02c646abfa0614245b7f8234b2577e668a89ea49ccaad6afad1c5d8c99f5dd0be223a8645bfb90100000000000000000000000000000000000000000000000000000000000000000000000000000000000000000000000000000000000000000000000000000000000000000000000000000000000000000000000000000000000000000000000000000000000000000000000000000000000000000000000000000000000000000000000000000000000000000000000000000000000000000000000000000000000000000000000000000000000000000000000000000000000000000000000000000000000000000000000000000000000000000000000000000000000000000000000000000000000000000000000000000000000000000000000000000000008302008002832fefba8252088454c98c8380a0949b2f169af2304b59ca1b853c1e135e9c3493c5d176d283c8a4a5cfa44f52dc88f47d6df8fdf41259f84df84b0101827530800a801ca0bb6e3cf3f281af13ef1393d7052b03cab367079a9eb71aa829ec72b231a60e1fa04bcfe1da53f26bb95806d38e9f42fef262aaaf5191e16ec473a695c8978a0b05c0",
                "transactions" : [
                    {
                        "data" : "0x",
                        "gasLimit" : "0x7530",
                        "gasPrice" : "0x01",
                        "nonce" : "0x01",
                        "r" : "0xbb6e3cf3f281af13ef1393d7052b03cab367079a9eb71aa829ec72b231a60e1f",
                        "s" : "0x4bcfe1da53f26bb95806d38e9f42fef262aaaf5191e16ec473a695c8978a0b05",
                        "to" : "",
                        "v" : "0x1c",
                        "value" : "0x0a"
                    }
                ],
                "uncleHeaders" : [
                ]
            },
            {
                "blockHeader" : {
                    "bloom" : "0x00000000000000000000000000000000000000000000000000000000000000000000000000000000000000000000000000000000000000000000000000000000000000000000000000000000000000000000000000000000000000000000000000000000000000000000000000000000000000000000000000000000000000000000000000000000000000000000000000000000000000000000000000000000000000000000000000000000000000000000000000000000000000000000000000000000000000000000000000000000000000000000000000000000000000000000000000000000000000000000000000000000000000000000000000000000",
                    "coinbase" : "0x8888f1f195afa192cfee860698584c030f4c9db1",
                    "difficulty" : "0x0200c0",
                    "extraData" : "",
                    "gasLimit" : "0x2fefba",
                    "gasUsed" : "0x5208",
                    "hash" : "0x471d13485dfbdc1f444278cb9d4f8565a8bc99e40a99431e578325e4cf215622",
                    "mixHash" : "0xf9e5cfe0d533bcdbf0b5bd2bbc711df759a7289f26610ba657290be62f9e5451",
                    "nonce" : "0x2cc75aad53b00d04",
                    "number" : "0x03",
                    "parentHash" : "0x7ba44a9ae9c427da516fb28058778779ef3d6d2625c7f87c9af5f9c1309f9c36",
                    "receiptTrie" : "0x7763f606aeaefa30cef63a85e08e92c78746aa879d398cf53029f8b21e2d7d5c",
                    "stateRoot" : "0xb6f30afba924d223b321aaef3a13d20b4b13e3698b3f9e3e81148cc2b946ce3f",
                    "timestamp" : "0x54c98c84",
                    "transactionsTrie" : "0x3798aa164b61e27b93484c76a5f319bd93c808dc78ef31cf8b93f4e1b248ca2c",
                    "uncleHash" : "0x1dcc4de8dec75d7aab85b567b6ccd41ad312451b948a7413f0a142fd40d49347"
                },
                "blocknumber" : "3",
                "rlp" : "0xf9024cf901f9a07ba44a9ae9c427da516fb28058778779ef3d6d2625c7f87c9af5f9c1309f9c36a01dcc4de8dec75d7aab85b567b6ccd41ad312451b948a7413f0a142fd40d49347948888f1f195afa192cfee860698584c030f4c9db1a0b6f30afba924d223b321aaef3a13d20b4b13e3698b3f9e3e81148cc2b946ce3fa03798aa164b61e27b93484c76a5f319bd93c808dc78ef31cf8b93f4e1b248ca2ca07763f606aeaefa30cef63a85e08e92c78746aa879d398cf53029f8b21e2d7d5cb9010000000000000000000000000000000000000000000000000000000000000000000000000000000000000000000000000000000000000000000000000000000000000000000000000000000000000000000000000000000000000000000000000000000000000000000000000000000000000000000000000000000000000000000000000000000000000000000000000000000000000000000000000000000000000000000000000000000000000000000000000000000000000000000000000000000000000000000000000000000000000000000000000000000000000000000000000000000000000000000000000000000000000000000000000000000000830200c003832fefba8252088454c98c8480a0f9e5cfe0d533bcdbf0b5bd2bbc711df759a7289f26610ba657290be62f9e5451882cc75aad53b00d04f84df84b0201827530800a801ca0f6d884cae1f86bdff1281e95e416089c544a4a5578a75d5e8ad76118e341b055a075b7d88985ed5acd61f30c9f9570c6c33bb92f3ad1a32b86a0747817fbc5ededc0",
                "transactions" : [
                    {
                        "data" : "0x",
                        "gasLimit" : "0x7530",
                        "gasPrice" : "0x01",
                        "nonce" : "0x02",
                        "r" : "0xf6d884cae1f86bdff1281e95e416089c544a4a5578a75d5e8ad76118e341b055",
                        "s" : "0x75b7d88985ed5acd61f30c9f9570c6c33bb92f3ad1a32b86a0747817fbc5eded",
                        "to" : "",
                        "v" : "0x1c",
                        "value" : "0x0a"
                    }
                ],
                "uncleHeaders" : [
                ]
            },
            {
                "blockHeader" : {
                    "bloom" : "0x00000000000000000000000000000000000000000000000000000000000000000000000000000000000000000000000000000000000000000000000000000000000000000000000000000000000000000000000000000000000000000000000000000000000000000000000000000000000000000000000000000000000000000000000000000000000000000000000000000000000000000000000000000000000000000000000000000000000000000000000000000000000000000000000000000000000000000000000000000000000000000000000000000000000000000000000000000000000000000000000000000000000000000000000000000000",
                    "coinbase" : "0x8888f1f195afa192cfee860698584c030f4c9db1",
                    "difficulty" : "0x020100",
                    "extraData" : "",
                    "gasLimit" : "0x2fefba",
                    "gasUsed" : "0x5208",
                    "hash" : "0x0429ab98b45547ebc874ad4b09ecb9bdcb2a32572e5b96513fa5ebdbf337d46a",
                    "mixHash" : "0x7e09c740790e914db95a5a21f12948cf5cae198d64805f9d50f41f85c1326e9c",
                    "nonce" : "0xd29daf4c9ab32870",
                    "number" : "0x04",
                    "parentHash" : "0x471d13485dfbdc1f444278cb9d4f8565a8bc99e40a99431e578325e4cf215622",
                    "receiptTrie" : "0xe9c416900379ab6828fffa880390ed23473c2ceecc2ff997bf8aea76f8d25e43",
                    "stateRoot" : "0x63a9ecf09868a45ee59994f6f5a8d34fcf54d34ce426b9a94b292d1ec3e79767",
                    "timestamp" : "0x54c98c85",
                    "transactionsTrie" : "0x4cc1b34b3a9d29bf69842a54e1c48bc97afc433883f66d2c59287f118c9c3c2c",
                    "uncleHash" : "0x1dcc4de8dec75d7aab85b567b6ccd41ad312451b948a7413f0a142fd40d49347"
                },
                "blocknumber" : "4",
                "rlp" : "0xf9024cf901f9a0471d13485dfbdc1f444278cb9d4f8565a8bc99e40a99431e578325e4cf215622a01dcc4de8dec75d7aab85b567b6ccd41ad312451b948a7413f0a142fd40d49347948888f1f195afa192cfee860698584c030f4c9db1a063a9ecf09868a45ee59994f6f5a8d34fcf54d34ce426b9a94b292d1ec3e79767a04cc1b34b3a9d29bf69842a54e1c48bc97afc433883f66d2c59287f118c9c3c2ca0e9c416900379ab6828fffa880390ed23473c2ceecc2ff997bf8aea76f8d25e43b90100000000000000000000000000000000000000000000000000000000000000000000000000000000000000000000000000000000000000000000000000000000000000000000000000000000000000000000000000000000000000000000000000000000000000000000000000000000000000000000000000000000000000000000000000000000000000000000000000000000000000000000000000000000000000000000000000000000000000000000000000000000000000000000000000000000000000000000000000000000000000000000000000000000000000000000000000000000000000000000000000000000000000000000000000000000008302010004832fefba8252088454c98c8580a07e09c740790e914db95a5a21f12948cf5cae198d64805f9d50f41f85c1326e9c88d29daf4c9ab32870f84df84b0301827530800a801ca0753ee5d896db8d87fe850e7935418587277cd9c010dfaaf7dd09b0a2e73785dca066deb3c241d532c7b880ae7a9a311ee7a92ef1c5e4e2bf3307990a2881bc13b0c0",
                "transactions" : [
                    {
                        "data" : "0x",
                        "gasLimit" : "0x7530",
                        "gasPrice" : "0x01",
                        "nonce" : "0x03",
                        "r" : "0x753ee5d896db8d87fe850e7935418587277cd9c010dfaaf7dd09b0a2e73785dc",
                        "s" : "0x66deb3c241d532c7b880ae7a9a311ee7a92ef1c5e4e2bf3307990a2881bc13b0",
                        "to" : "",
                        "v" : "0x1c",
                        "value" : "0x0a"
                    }
                ],
                "uncleHeaders" : [
                ]
            },
            {
                "blockHeader" : {
                    "bloom" : "0x00000000000000000000000000000000000000000000000000000000000000000000000000000000000000000000000000000000000000000000000000000000000000000000000000000000000000000000000000000000000000000000000000000000000000000000000000000000000000000000000000000000000000000000000000000000000000000000000000000000000000000000000000000000000000000000000000000000000000000000000000000000000000000000000000000000000000000000000000000000000000000000000000000000000000000000000000000000000000000000000000000000000000000000000000000000",
                    "coinbase" : "0x8888f1f195afa192cfee860698584c030f4c9db1",
                    "difficulty" : "0x020140",
                    "extraData" : "",
                    "gasLimit" : "0x2fefba",
                    "gasUsed" : "0x0249f0",
                    "hash" : "0x54c46784479c674fffa9b28227cdb6d37675c6e019b548e4996eee92503b7953",
                    "mixHash" : "0xc106299e5b2f4ef61232eb5bafb747a72a4edfe60adfcb756d8dfa57bda4035f",
                    "nonce" : "0xec0d221f28dfc6a1",
                    "number" : "0x05",
                    "parentHash" : "0x0429ab98b45547ebc874ad4b09ecb9bdcb2a32572e5b96513fa5ebdbf337d46a",
                    "receiptTrie" : "0xb74c9ee56c2c3b625fe54c59d62fd105c3c9a909bda7cf9b201779f968a299fc",
                    "stateRoot" : "0x4fea738502058dce84f7ccc96d7b6e2e1deb4024034e42be019f2f4d65fec192",
                    "timestamp" : "0x54c98c86",
                    "transactionsTrie" : "0x705bc9dc486d29159172f7f3e388ba700912983236bba89c5dff01a192fd4fbb",
                    "uncleHash" : "0x1dcc4de8dec75d7aab85b567b6ccd41ad312451b948a7413f0a142fd40d49347"
                },
                "blocknumber" : "5",
                "rlp" : "0xf90262f901faa00429ab98b45547ebc874ad4b09ecb9bdcb2a32572e5b96513fa5ebdbf337d46aa01dcc4de8dec75d7aab85b567b6ccd41ad312451b948a7413f0a142fd40d49347948888f1f195afa192cfee860698584c030f4c9db1a04fea738502058dce84f7ccc96d7b6e2e1deb4024034e42be019f2f4d65fec192a0705bc9dc486d29159172f7f3e388ba700912983236bba89c5dff01a192fd4fbba0b74c9ee56c2c3b625fe54c59d62fd105c3c9a909bda7cf9b201779f968a299fcb90100000000000000000000000000000000000000000000000000000000000000000000000000000000000000000000000000000000000000000000000000000000000000000000000000000000000000000000000000000000000000000000000000000000000000000000000000000000000000000000000000000000000000000000000000000000000000000000000000000000000000000000000000000000000000000000000000000000000000000000000000000000000000000000000000000000000000000000000000000000000000000000000000000000000000000000000000000000000000000000000000000000000000000000000000000000008302014005832fefba830249f08454c98c8680a0c106299e5b2f4ef61232eb5bafb747a72a4edfe60adfcb756d8dfa57bda4035f88ec0d221f28dfc6a1f862f8600401830249f09410000000000000000000000000000000000000010a801ba05513dee7da61e6d1368eb688ca17837ada7d245a529672a17be5ad83f706a8a7a078ea773fd796663e54b0165800ce92dc1190c645bddbb0f3debf4c962bfab4ffc0",
                "transactions" : [
                    {
                        "data" : "0x",
                        "gasLimit" : "0x0249f0",
                        "gasPrice" : "0x01",
                        "nonce" : "0x04",
                        "r" : "0x5513dee7da61e6d1368eb688ca17837ada7d245a529672a17be5ad83f706a8a7",
                        "s" : "0x78ea773fd796663e54b0165800ce92dc1190c645bddbb0f3debf4c962bfab4ff",
                        "to" : "0x1000000000000000000000000000000000000001",
                        "v" : "0x1b",
                        "value" : "0x0a"
                    }
                ],
                "uncleHeaders" : [
                ]
            }
        ],
        "genesisBlockHeader" : {
            "bloom" : "0x00000000000000000000000000000000000000000000000000000000000000000000000000000000000000000000000000000000000000000000000000000000000000000000000000000000000000000000000000000000000000000000000000000000000000000000000000000000000000000000000000000000000000000000000000000000000000000000000000000000000000000000000000000000000000000000000000000000000000000000000000000000000000000000000000000000000000000000000000000000000000000000000000000000000000000000000000000000000000000000000000000000000000000000000000000000",
            "coinbase" : "0x8888f1f195afa192cfee860698584c030f4c9db1",
            "difficulty" : "0x020000",
            "extraData" : "0x42",
            "gasLimit" : "0x2fefd8",
            "gasUsed" : "0x00",
            "hash" : "0x4bfa7081bdfeb389d60ae667c91e4ff844efe9f2c7feb10c74e3a177e667bf7a",
            "mixHash" : "0x56e81f171bcc55a6ff8345e692c0f86e5b48e01b996cadc001622fb5e363b421",
            "nonce" : "0x0102030405060708",
            "number" : "0x00",
            "parentHash" : "0x0000000000000000000000000000000000000000000000000000000000000000",
            "receiptTrie" : "0x56e81f171bcc55a6ff8345e692c0f86e5b48e01b996cadc001622fb5e363b421",
            "stateRoot" : "0xd738da6a6c1299f6ecdfa34a8f213264c4b74edc8be5142bca87e245014b3b38",
            "timestamp" : "0x54c98c81",
            "transactionsTrie" : "0x56e81f171bcc55a6ff8345e692c0f86e5b48e01b996cadc001622fb5e363b421",
            "uncleHash" : "0x1dcc4de8dec75d7aab85b567b6ccd41ad312451b948a7413f0a142fd40d49347"
        },
        "genesisRLP" : "0xf901fcf901f7a00000000000000000000000000000000000000000000000000000000000000000a01dcc4de8dec75d7aab85b567b6ccd41ad312451b948a7413f0a142fd40d49347948888f1f195afa192cfee860698584c030f4c9db1a0d738da6a6c1299f6ecdfa34a8f213264c4b74edc8be5142bca87e245014b3b38a056e81f171bcc55a6ff8345e692c0f86e5b48e01b996cadc001622fb5e363b421a056e81f171bcc55a6ff8345e692c0f86e5b48e01b996cadc001622fb5e363b421b90100000000000000000000000000000000000000000000000000000000000000000000000000000000000000000000000000000000000000000000000000000000000000000000000000000000000000000000000000000000000000000000000000000000000000000000000000000000000000000000000000000000000000000000000000000000000000000000000000000000000000000000000000000000000000000000000000000000000000000000000000000000000000000000000000000000000000000000000000000000000000000000000000000000000000000000000000000000000000000000000000000000000000000000000000000000008302000080832fefd8808454c98c8142a056e81f171bcc55a6ff8345e692c0f86e5b48e01b996cadc001622fb5e363b421880102030405060708c0c0",
        "lastblockhash" : "0x54c46784479c674fffa9b28227cdb6d37675c6e019b548e4996eee92503b7953",
        "network" : "FrontierToHomesteadAt5",
        "postState" : {
            "0x0c243ebe6a031753dc0dd850acf422844a3efb76" : {
                "balance" : "0x0a",
                "code" : "",
                "nonce" : "0x00",
                "storage" : {
                }
            },
            "0x1000000000000000000000000000000000000001" : {
                "balance" : "0x02540be414",
                "code" : "0x446001555a60025560206000600039602060006000f0",
                "nonce" : "0x02",
                "storage" : {
                    "0x01" : "0x020140",
                    "0x02" : "0x01e459"
                }
            },
            "0x248f0f0f33eadb89e9d87fd5c127f58567f3ffde" : {
                "balance" : "0x0a",
                "code" : "",
                "nonce" : "0x00",
                "storage" : {
                }
            },
            "0x5dddfce53ee040d9eb21afbc0ae1bb4dbb0ba643" : {
                "balance" : "0x00",
                "code" : "",
                "nonce" : "0x01",
                "storage" : {
                    "0x01" : "0x020040",
                    "0x02" : "0x01058c"
                }
            },
            "0x5f8bd49cd9f0cb2bd5bb9d4320dfe9b61023249d" : {
                "balance" : "0x00",
                "code" : "",
                "nonce" : "0x01",
                "storage" : {
                    "0x01" : "0x020140",
                    "0x02" : "0x01058c"
                }
            },
            "0x8888f1f195afa192cfee860698584c030f4c9db1" : {
                "balance" : "0x015af1d78b58c9ff28",
                "code" : "",
                "nonce" : "0x00",
                "storage" : {
                }
            },
            "0xa94f5374fce5edbc8e2a8697c15331677e6ebf0b" : {
                "balance" : "0x025405e4a6",
                "code" : "",
                "nonce" : "0x05",
                "storage" : {
                }
            },
            "0xec0e71ad0a90ffe1909d27dac207f7680abba42d" : {
                "balance" : "0x0a",
                "code" : "",
                "nonce" : "0x00",
                "storage" : {
                }
            }
        },
        "pre" : {
            "0x1000000000000000000000000000000000000001" : {
                "balance" : "0x02540be400",
                "code" : "0x446001555a60025560206000600039602060006000f0",
                "nonce" : "0x00",
                "storage" : {
                }
            },
            "0xa94f5374fce5edbc8e2a8697c15331677e6ebf0b" : {
                "balance" : "0x02540be400",
                "code" : "",
                "nonce" : "0x00",
                "storage" : {
                }
            }
        }
    }
}