{
    "ContractCreationFailsOnHomestead" : {
        "_info" : {
            "comment" : "",
            "filledwith" : "testeth 1.5.0.dev2-65+commit.3be27deb",
            "lllcversion" : "Version: 0.4.26-develop.2018.9.19+commit.785cbf40.Linux.g++",
            "source" : "src/BlockchainTestsFiller/TransitionTests/bcFrontierToHomestead/ContractCreationFailsOnHomesteadFiller.json",
            "sourceHash" : "497d81b011ba12c17547da8527ce93f2dc026819c0c8e02aad1eaadaaad36859"
        },
        "blocks" : [
            {
                "blockHeader" : {
                    "bloom" : "0x00000000000000000000000000000000000000000000000000000000000000000000000000000000000000000000000000000000000000000000000000000000000000000000000000000000000000000000000000000000000000000000000000000000000000000000000000000000000000000000000000000000000000000000000000000000000000000000000000000000000000000000000000000000000000000000000000000000000000000000000000000000000000000000000000000000000000000000000000000000000000000000000000000000000000000000000000000000000000000000000000000000000000000000000000000000",
                    "coinbase" : "0x8888f1f195afa192cfee860698584c030f4c9db1",
                    "difficulty" : "0x020040",
                    "extraData" : "",
                    "gasLimit" : "0x2fefba",
                    "gasUsed" : "0x5208",
                    "hash" : "0x6675e972396f1ce7e2d4e5330593a0a23995fb5f3de1735c1fead6219dd89f0f",
                    "mixHash" : "0xe3e8ff40ce73007a66075e085b705fabc3216c279c2bdc7a00a7e68ee684aa8e",
                    "nonce" : "0xd5bf2591129e4c8d",
                    "number" : "0x01",
                    "parentHash" : "0x7285abd5b24742f184ad676e31f6054663b3529bc35ea2fcad8a3e0f642a46f7",
                    "receiptTrie" : "0x33cd44b2139aac546ef61d35a34d414dbeb17fd06d0521890dafa5af8b5b99e3",
                    "stateRoot" : "0x8fca94adef834d4b525ca53df6625a3e5375d779e48421c59ab105eeb8f6acdc",
                    "timestamp" : "0x54c98c82",
                    "transactionsTrie" : "0xac81275d7a81a720240146377982939179218535bfcfa9469c8bdd3e264ef179",
                    "uncleHash" : "0x1dcc4de8dec75d7aab85b567b6ccd41ad312451b948a7413f0a142fd40d49347"
                },
                "blocknumber" : "1",
                "rlp" : "0xf9024cf901f9a07285abd5b24742f184ad676e31f6054663b3529bc35ea2fcad8a3e0f642a46f7a01dcc4de8dec75d7aab85b567b6ccd41ad312451b948a7413f0a142fd40d49347948888f1f195afa192cfee860698584c030f4c9db1a08fca94adef834d4b525ca53df6625a3e5375d779e48421c59ab105eeb8f6acdca0ac81275d7a81a720240146377982939179218535bfcfa9469c8bdd3e264ef179a033cd44b2139aac546ef61d35a34d414dbeb17fd06d0521890dafa5af8b5b99e3b90100000000000000000000000000000000000000000000000000000000000000000000000000000000000000000000000000000000000000000000000000000000000000000000000000000000000000000000000000000000000000000000000000000000000000000000000000000000000000000000000000000000000000000000000000000000000000000000000000000000000000000000000000000000000000000000000000000000000000000000000000000000000000000000000000000000000000000000000000000000000000000000000000000000000000000000000000000000000000000000000000000000000000000000000000000000008302004001832fefba8252088454c98c8280a0e3e8ff40ce73007a66075e085b705fabc3216c279c2bdc7a00a7e68ee684aa8e88d5bf2591129e4c8df84df84b8001827530800a801ca057cb46c0b702929c4fd4127b2370f28a7aeeaa65509699e58eedf7692090a0a9a05ba7c83d99be6a9bca0c81947023ba3b5f2162516d82d0757bf8004f3e9bc03ac0",
                "transactions" : [
                    {
                        "data" : "0x",
                        "gasLimit" : "0x7530",
                        "gasPrice" : "0x01",
                        "nonce" : "0x00",
                        "r" : "0x57cb46c0b702929c4fd4127b2370f28a7aeeaa65509699e58eedf7692090a0a9",
                        "s" : "0x5ba7c83d99be6a9bca0c81947023ba3b5f2162516d82d0757bf8004f3e9bc03a",
                        "to" : "",
                        "v" : "0x1c",
                        "value" : "0x0a"
                    }
                ],
                "uncleHeaders" : [
                ]
            },
            {
                "blockHeader" : {
                    "bloom" : "0x00000000000000000000000000000000000000000000000000000000000000000000000000000000000000000000000000000000000000000000000000000000000000000000000000000000000000000000000000000000000000000000000000000000000000000000000000000000000000000000000000000000000000000000000000000000000000000000000000000000000000000000000000000000000000000000000000000000000000000000000000000000000000000000000000000000000000000000000000000000000000000000000000000000000000000000000000000000000000000000000000000000000000000000000000000000",
                    "coinbase" : "0x8888f1f195afa192cfee860698584c030f4c9db1",
                    "difficulty" : "0x020080",
                    "extraData" : "",
                    "gasLimit" : "0x2fefba",
                    "gasUsed" : "0x5208",
                    "hash" : "0x81f08d4b567599382440669a3e26bdc09e507686d7eede92e281dc295b23cab8",
                    "mixHash" : "0x85835f662b219d14356490438fdc68988ce81a2a1f3f63ed8cfbf31bddc48043",
                    "nonce" : "0x06b30a41358200c6",
                    "number" : "0x02",
                    "parentHash" : "0x6675e972396f1ce7e2d4e5330593a0a23995fb5f3de1735c1fead6219dd89f0f",
                    "receiptTrie" : "0x55c9e60343b1615fe2b2a21039fb43ddf69e8f69e07aaa8d5f1cd054ab25be8f",
                    "stateRoot" : "0xb7b04bf9f5bacb10bb2f761e626b9b7a7874ce855b2f99c0c440794a00e43033",
                    "timestamp" : "0x54c98c83",
                    "transactionsTrie" : "0x76c7a0ce7644661f276c76fb9a82eaee879d0642cf4ed244fc10afc02c646abf",
                    "uncleHash" : "0x1dcc4de8dec75d7aab85b567b6ccd41ad312451b948a7413f0a142fd40d49347"
                },
                "blocknumber" : "2",
                "rlp" : "0xf9024cf901f9a06675e972396f1ce7e2d4e5330593a0a23995fb5f3de1735c1fead6219dd89f0fa01dcc4de8dec75d7aab85b567b6ccd41ad312451b948a7413f0a142fd40d49347948888f1f195afa192cfee860698584c030f4c9db1a0b7b04bf9f5bacb10bb2f761e626b9b7a7874ce855b2f99c0c440794a00e43033a076c7a0ce7644661f276c76fb9a82eaee879d0642cf4ed244fc10afc02c646abfa055c9e60343b1615fe2b2a21039fb43ddf69e8f69e07aaa8d5f1cd054ab25be8fb90100000000000000000000000000000000000000000000000000000000000000000000000000000000000000000000000000000000000000000000000000000000000000000000000000000000000000000000000000000000000000000000000000000000000000000000000000000000000000000000000000000000000000000000000000000000000000000000000000000000000000000000000000000000000000000000000000000000000000000000000000000000000000000000000000000000000000000000000000000000000000000000000000000000000000000000000000000000000000000000000000000000000000000000000000000000008302008002832fefba8252088454c98c8380a085835f662b219d14356490438fdc68988ce81a2a1f3f63ed8cfbf31bddc480438806b30a41358200c6f84df84b0101827530800a801ca0bb6e3cf3f281af13ef1393d7052b03cab367079a9eb71aa829ec72b231a60e1fa04bcfe1da53f26bb95806d38e9f42fef262aaaf5191e16ec473a695c8978a0b05c0",
                "transactions" : [
                    {
                        "data" : "0x",
                        "gasLimit" : "0x7530",
                        "gasPrice" : "0x01",
                        "nonce" : "0x01",
                        "r" : "0xbb6e3cf3f281af13ef1393d7052b03cab367079a9eb71aa829ec72b231a60e1f",
                        "s" : "0x4bcfe1da53f26bb95806d38e9f42fef262aaaf5191e16ec473a695c8978a0b05",
                        "to" : "",
                        "v" : "0x1c",
                        "value" : "0x0a"
                    }
                ],
                "uncleHeaders" : [
                ]
            },
            {
                "blockHeader" : {
                    "bloom" : "0x00000000000000000000000000000000000000000000000000000000000000000000000000000000000000000000000000000000000000000000000000000000000000000000000000000000000000000000000000000000000000000000000000000000000000000000000000000000000000000000000000000000000000000000000000000000000000000000000000000000000000000000000000000000000000000000000000000000000000000000000000000000000000000000000000000000000000000000000000000000000000000000000000000000000000000000000000000000000000000000000000000000000000000000000000000000",
                    "coinbase" : "0x8888f1f195afa192cfee860698584c030f4c9db1",
                    "difficulty" : "0x0200c0",
                    "extraData" : "",
                    "gasLimit" : "0x2fefba",
                    "gasUsed" : "0x5208",
                    "hash" : "0x99b23a9e0863928f362914c6df245f38c683004962d16f7d7b6f3638154325aa",
                    "mixHash" : "0xe4aef62e0a558e1d97da62fc1daa2f18160891d5493c76b1348ec73aefb71362",
                    "nonce" : "0x947472905adaaaa4",
                    "number" : "0x03",
                    "parentHash" : "0x81f08d4b567599382440669a3e26bdc09e507686d7eede92e281dc295b23cab8",
                    "receiptTrie" : "0x0a48f328e112d3bff61710acd43bc7435f9e320498ee9e2fce1bb54a63481d37",
                    "stateRoot" : "0x9d74bf97b4053baf10189e3a7edef50604baab366e36fc126adf407cb24b4af6",
                    "timestamp" : "0x54c98c84",
                    "transactionsTrie" : "0x3798aa164b61e27b93484c76a5f319bd93c808dc78ef31cf8b93f4e1b248ca2c",
                    "uncleHash" : "0x1dcc4de8dec75d7aab85b567b6ccd41ad312451b948a7413f0a142fd40d49347"
                },
                "blocknumber" : "3",
                "rlp" : "0xf9024cf901f9a081f08d4b567599382440669a3e26bdc09e507686d7eede92e281dc295b23cab8a01dcc4de8dec75d7aab85b567b6ccd41ad312451b948a7413f0a142fd40d49347948888f1f195afa192cfee860698584c030f4c9db1a09d74bf97b4053baf10189e3a7edef50604baab366e36fc126adf407cb24b4af6a03798aa164b61e27b93484c76a5f319bd93c808dc78ef31cf8b93f4e1b248ca2ca00a48f328e112d3bff61710acd43bc7435f9e320498ee9e2fce1bb54a63481d37b9010000000000000000000000000000000000000000000000000000000000000000000000000000000000000000000000000000000000000000000000000000000000000000000000000000000000000000000000000000000000000000000000000000000000000000000000000000000000000000000000000000000000000000000000000000000000000000000000000000000000000000000000000000000000000000000000000000000000000000000000000000000000000000000000000000000000000000000000000000000000000000000000000000000000000000000000000000000000000000000000000000000000000000000000000000000000830200c003832fefba8252088454c98c8480a0e4aef62e0a558e1d97da62fc1daa2f18160891d5493c76b1348ec73aefb7136288947472905adaaaa4f84df84b0201827530800a801ca0f6d884cae1f86bdff1281e95e416089c544a4a5578a75d5e8ad76118e341b055a075b7d88985ed5acd61f30c9f9570c6c33bb92f3ad1a32b86a0747817fbc5ededc0",
                "transactions" : [
                    {
                        "data" : "0x",
                        "gasLimit" : "0x7530",
                        "gasPrice" : "0x01",
                        "nonce" : "0x02",
                        "r" : "0xf6d884cae1f86bdff1281e95e416089c544a4a5578a75d5e8ad76118e341b055",
                        "s" : "0x75b7d88985ed5acd61f30c9f9570c6c33bb92f3ad1a32b86a0747817fbc5eded",
                        "to" : "",
                        "v" : "0x1c",
                        "value" : "0x0a"
                    }
                ],
                "uncleHeaders" : [
                ]
            },
            {
                "blockHeader" : {
                    "bloom" : "0x00000000000000000000000000000000000000000000000000000000000000000000000000000000000000000000000000000000000000000000000000000000000000000000000000000000000000000000000000000000000000000000000000000000000000000000000000000000000000000000000000000000000000000000000000000000000000000000000000000000000000000000000000000000000000000000000000000000000000000000000000000000000000000000000000000000000000000000000000000000000000000000000000000000000000000000000000000000000000000000000000000000000000000000000000000000",
                    "coinbase" : "0x8888f1f195afa192cfee860698584c030f4c9db1",
                    "difficulty" : "0x020100",
                    "extraData" : "",
                    "gasLimit" : "0x2fefba",
                    "gasUsed" : "0x5208",
                    "hash" : "0xeed8c59879ff3783e88bde1f9e7af2d1236153d00a5392358f52764b1071db54",
                    "mixHash" : "0x07febbc7b7140e8186d1657bd8de973463c30f10955ac87e421234e6b212a337",
                    "nonce" : "0xea45eb29013aa654",
                    "number" : "0x04",
                    "parentHash" : "0x99b23a9e0863928f362914c6df245f38c683004962d16f7d7b6f3638154325aa",
                    "receiptTrie" : "0x403564fc3dccf708f5dde6e0d88b59a2229779b67d67b9dc85e8f0b675ee5495",
                    "stateRoot" : "0x884415b633de492a23fc4a024f92ed18185e7f721795b10c5c19eb68ef94ef4a",
                    "timestamp" : "0x54c98c85",
                    "transactionsTrie" : "0x4cc1b34b3a9d29bf69842a54e1c48bc97afc433883f66d2c59287f118c9c3c2c",
                    "uncleHash" : "0x1dcc4de8dec75d7aab85b567b6ccd41ad312451b948a7413f0a142fd40d49347"
                },
                "blocknumber" : "4",
                "rlp" : "0xf9024cf901f9a099b23a9e0863928f362914c6df245f38c683004962d16f7d7b6f3638154325aaa01dcc4de8dec75d7aab85b567b6ccd41ad312451b948a7413f0a142fd40d49347948888f1f195afa192cfee860698584c030f4c9db1a0884415b633de492a23fc4a024f92ed18185e7f721795b10c5c19eb68ef94ef4aa04cc1b34b3a9d29bf69842a54e1c48bc97afc433883f66d2c59287f118c9c3c2ca0403564fc3dccf708f5dde6e0d88b59a2229779b67d67b9dc85e8f0b675ee5495b90100000000000000000000000000000000000000000000000000000000000000000000000000000000000000000000000000000000000000000000000000000000000000000000000000000000000000000000000000000000000000000000000000000000000000000000000000000000000000000000000000000000000000000000000000000000000000000000000000000000000000000000000000000000000000000000000000000000000000000000000000000000000000000000000000000000000000000000000000000000000000000000000000000000000000000000000000000000000000000000000000000000000000000000000000000000008302010004832fefba8252088454c98c8580a007febbc7b7140e8186d1657bd8de973463c30f10955ac87e421234e6b212a33788ea45eb29013aa654f84df84b0301827530800a801ca0753ee5d896db8d87fe850e7935418587277cd9c010dfaaf7dd09b0a2e73785dca066deb3c241d532c7b880ae7a9a311ee7a92ef1c5e4e2bf3307990a2881bc13b0c0",
                "transactions" : [
                    {
                        "data" : "0x",
                        "gasLimit" : "0x7530",
                        "gasPrice" : "0x01",
                        "nonce" : "0x03",
                        "r" : "0x753ee5d896db8d87fe850e7935418587277cd9c010dfaaf7dd09b0a2e73785dc",
                        "s" : "0x66deb3c241d532c7b880ae7a9a311ee7a92ef1c5e4e2bf3307990a2881bc13b0",
                        "to" : "",
                        "v" : "0x1c",
                        "value" : "0x0a"
                    }
                ],
                "uncleHeaders" : [
                ]
            },
            {
                "blockHeader" : {
                    "bloom" : "0x00000000000000000000000000000000000000000000000000000000000000000000000000000000000000000000000000000000000000000000000000000000000000000000000000000000000000000000000000000000000000000000000000000000000000000000000000000000000000000000000000000000000000000000000000000000000000000000000000000000000000000000000000000000000000000000000000000000000000000000000000000000000000000000000000000000000000000000000000000000000000000000000000000000000000000000000000000000000000000000000000000000000000000000000000000000",
                    "coinbase" : "0x8888f1f195afa192cfee860698584c030f4c9db1",
                    "difficulty" : "0x020140",
                    "extraData" : "",
                    "gasLimit" : "0x2fefba",
                    "gasUsed" : "0x00",
                    "hash" : "0xb0d2701a3d23d8e965266d5783bcd2f5ffb48d5c9361f029e92e561c8f5a74d9",
                    "mixHash" : "0x5f60c9dca302826aac1f33246ff98cae7a3140e693800dfccb4837660520ff83",
                    "nonce" : "0xd4c1d08c89976c8a",
                    "number" : "0x05",
                    "parentHash" : "0xeed8c59879ff3783e88bde1f9e7af2d1236153d00a5392358f52764b1071db54",
                    "receiptTrie" : "0x56e81f171bcc55a6ff8345e692c0f86e5b48e01b996cadc001622fb5e363b421",
                    "stateRoot" : "0xee974dd01759cc6b6cdbc910bba9648ec148af0e3c96ad6cc3a1bf1fb7794c5d",
                    "timestamp" : "0x54c98c86",
                    "transactionsTrie" : "0x56e81f171bcc55a6ff8345e692c0f86e5b48e01b996cadc001622fb5e363b421",
                    "uncleHash" : "0x1dcc4de8dec75d7aab85b567b6ccd41ad312451b948a7413f0a142fd40d49347"
                },
                "blocknumber" : "5",
                "rlp" : "0xf901fcf901f7a0eed8c59879ff3783e88bde1f9e7af2d1236153d00a5392358f52764b1071db54a01dcc4de8dec75d7aab85b567b6ccd41ad312451b948a7413f0a142fd40d49347948888f1f195afa192cfee860698584c030f4c9db1a0ee974dd01759cc6b6cdbc910bba9648ec148af0e3c96ad6cc3a1bf1fb7794c5da056e81f171bcc55a6ff8345e692c0f86e5b48e01b996cadc001622fb5e363b421a056e81f171bcc55a6ff8345e692c0f86e5b48e01b996cadc001622fb5e363b421b90100000000000000000000000000000000000000000000000000000000000000000000000000000000000000000000000000000000000000000000000000000000000000000000000000000000000000000000000000000000000000000000000000000000000000000000000000000000000000000000000000000000000000000000000000000000000000000000000000000000000000000000000000000000000000000000000000000000000000000000000000000000000000000000000000000000000000000000000000000000000000000000000000000000000000000000000000000000000000000000000000000000000000000000000000000000008302014005832fefba808454c98c8680a05f60c9dca302826aac1f33246ff98cae7a3140e693800dfccb4837660520ff8388d4c1d08c89976c8ac0c0",
                "transactions" : [
                ],
                "uncleHeaders" : [
                ]
            }
        ],
        "genesisBlockHeader" : {
            "bloom" : "0x00000000000000000000000000000000000000000000000000000000000000000000000000000000000000000000000000000000000000000000000000000000000000000000000000000000000000000000000000000000000000000000000000000000000000000000000000000000000000000000000000000000000000000000000000000000000000000000000000000000000000000000000000000000000000000000000000000000000000000000000000000000000000000000000000000000000000000000000000000000000000000000000000000000000000000000000000000000000000000000000000000000000000000000000000000000",
            "coinbase" : "0x8888f1f195afa192cfee860698584c030f4c9db1",
            "difficulty" : "0x020000",
            "extraData" : "0x42",
            "gasLimit" : "0x2fefd8",
            "gasUsed" : "0x00",
            "hash" : "0x7285abd5b24742f184ad676e31f6054663b3529bc35ea2fcad8a3e0f642a46f7",
            "mixHash" : "0x56e81f171bcc55a6ff8345e692c0f86e5b48e01b996cadc001622fb5e363b421",
            "nonce" : "0x0102030405060708",
            "number" : "0x00",
            "parentHash" : "0x0000000000000000000000000000000000000000000000000000000000000000",
            "receiptTrie" : "0x56e81f171bcc55a6ff8345e692c0f86e5b48e01b996cadc001622fb5e363b421",
            "stateRoot" : "0xcafd881ab193703b83816c49ff6c2bf6ba6f464a1be560c42106128c8dbc35e7",
            "timestamp" : "0x54c98c81",
            "transactionsTrie" : "0x56e81f171bcc55a6ff8345e692c0f86e5b48e01b996cadc001622fb5e363b421",
            "uncleHash" : "0x1dcc4de8dec75d7aab85b567b6ccd41ad312451b948a7413f0a142fd40d49347"
        },
        "genesisRLP" : "0xf901fcf901f7a00000000000000000000000000000000000000000000000000000000000000000a01dcc4de8dec75d7aab85b567b6ccd41ad312451b948a7413f0a142fd40d49347948888f1f195afa192cfee860698584c030f4c9db1a0cafd881ab193703b83816c49ff6c2bf6ba6f464a1be560c42106128c8dbc35e7a056e81f171bcc55a6ff8345e692c0f86e5b48e01b996cadc001622fb5e363b421a056e81f171bcc55a6ff8345e692c0f86e5b48e01b996cadc001622fb5e363b421b90100000000000000000000000000000000000000000000000000000000000000000000000000000000000000000000000000000000000000000000000000000000000000000000000000000000000000000000000000000000000000000000000000000000000000000000000000000000000000000000000000000000000000000000000000000000000000000000000000000000000000000000000000000000000000000000000000000000000000000000000000000000000000000000000000000000000000000000000000000000000000000000000000000000000000000000000000000000000000000000000000000000000000000000000000000000008302000080832fefd8808454c98c8142a056e81f171bcc55a6ff8345e692c0f86e5b48e01b996cadc001622fb5e363b421880102030405060708c0c0",
        "lastblockhash" : "0xb0d2701a3d23d8e965266d5783bcd2f5ffb48d5c9361f029e92e561c8f5a74d9",
        "network" : "FrontierToHomesteadAt5",
        "postState" : {
            "0x0c243ebe6a031753dc0dd850acf422844a3efb76" : {
                "balance" : "0x0a",
                "code" : "",
                "nonce" : "0x00",
                "storage" : {
                }
            },
            "0x248f0f0f33eadb89e9d87fd5c127f58567f3ffde" : {
                "balance" : "0x0a",
                "code" : "",
                "nonce" : "0x00",
                "storage" : {
                }
            },
            "0x6295ee1b4f6dd65047762f924ecd367c17eabf8f" : {
                "balance" : "0x0a",
                "code" : "",
                "nonce" : "0x00",
                "storage" : {
                }
            },
            "0x8888f1f195afa192cfee860698584c030f4c9db1" : {
                "balance" : "0x015af1d78b58c54820",
                "code" : "",
                "nonce" : "0x00",
                "storage" : {
                }
            },
            "0xa94f5374fce5edbc8e2a8697c15331677e6ebf0b" : {
                "balance" : "0x02540a9bb8",
                "code" : "",
                "nonce" : "0x04",
                "storage" : {
                }
            },
            "0xec0e71ad0a90ffe1909d27dac207f7680abba42d" : {
                "balance" : "0x0a",
                "code" : "",
                "nonce" : "0x00",
                "storage" : {
                }
            }
        },
        "pre" : {
            "0xa94f5374fce5edbc8e2a8697c15331677e6ebf0b" : {
                "balance" : "0x02540be400",
                "code" : "",
                "nonce" : "0x00",
                "storage" : {
                }
            }
        }
    }
}