{
    "UncleFromFrontierInHomestead" : {
        "_info" : {
            "comment" : "",
            "filledwith" : "testeth 1.5.0.dev2-65+commit.3be27deb",
            "lllcversion" : "Version: 0.4.26-develop.2018.9.19+commit.785cbf40.Linux.g++",
            "source" : "src/BlockchainTestsFiller/TransitionTests/bcFrontierToHomestead/UncleFromFrontierInHomesteadFiller.json",
            "sourceHash" : "484b02e2ca781aa2da89fe008f916a675c3ea4b4f2a9a21e7a10a78e7d3c5cae"
        },
        "blocks" : [
            {
                "blockHeader" : {
                    "bloom" : "0x00000000000000000000000000000000000000000000000000000000000000000000000000000000000000000000000000000000000000000000000000000000000000000000000000000000000000000000000000000000000000000000000000000000000000000000000000000000000000000000000000000000000000000000000000000000000000000000000000000000000000000000000000000000000000000000000000000000000000000000000000000000000000000000000000000000000000000000000000000000000000000000000000000000000000000000000000000000000000000000000000000000000000000000000000000000",
                    "coinbase" : "0x8888f1f195afa192cfee860698584c030f4c9db1",
                    "difficulty" : "0x020040",
                    "extraData" : "",
                    "gasLimit" : "0x2fefba",
                    "gasUsed" : "0x00",
                    "hash" : "0xfd8d28fd62969b730e1967143678181080a551884104e6454844524c71777055",
                    "mixHash" : "0x975c33ed7fa6dad1544fc806bd5cab552a2b8c67a3fa897bf85e4b43d4528ace",
                    "nonce" : "0x3b8abbdb8f05fd6b",
                    "number" : "0x01",
                    "parentHash" : "0x7285abd5b24742f184ad676e31f6054663b3529bc35ea2fcad8a3e0f642a46f7",
                    "receiptTrie" : "0x56e81f171bcc55a6ff8345e692c0f86e5b48e01b996cadc001622fb5e363b421",
                    "stateRoot" : "0x8503769bb14067be7c5e438c353094e5a9a6c72f375fad4a76878a8882ceb496",
                    "timestamp" : "0x54c98c82",
                    "transactionsTrie" : "0x56e81f171bcc55a6ff8345e692c0f86e5b48e01b996cadc001622fb5e363b421",
                    "uncleHash" : "0x1dcc4de8dec75d7aab85b567b6ccd41ad312451b948a7413f0a142fd40d49347"
                },
                "blocknumber" : "1",
                "chainname" : "F",
                "chainnetwork" : "Frontier",
                "rlp" : "0xf901fcf901f7a07285abd5b24742f184ad676e31f6054663b3529bc35ea2fcad8a3e0f642a46f7a01dcc4de8dec75d7aab85b567b6ccd41ad312451b948a7413f0a142fd40d49347948888f1f195afa192cfee860698584c030f4c9db1a08503769bb14067be7c5e438c353094e5a9a6c72f375fad4a76878a8882ceb496a056e81f171bcc55a6ff8345e692c0f86e5b48e01b996cadc001622fb5e363b421a056e81f171bcc55a6ff8345e692c0f86e5b48e01b996cadc001622fb5e363b421b90100000000000000000000000000000000000000000000000000000000000000000000000000000000000000000000000000000000000000000000000000000000000000000000000000000000000000000000000000000000000000000000000000000000000000000000000000000000000000000000000000000000000000000000000000000000000000000000000000000000000000000000000000000000000000000000000000000000000000000000000000000000000000000000000000000000000000000000000000000000000000000000000000000000000000000000000000000000000000000000000000000000000000000000000000000000008302004001832fefba808454c98c8280a0975c33ed7fa6dad1544fc806bd5cab552a2b8c67a3fa897bf85e4b43d4528ace883b8abbdb8f05fd6bc0c0",
                "transactions" : [
                ],
                "uncleHeaders" : [
                ]
            },
            {
                "blockHeader" : {
                    "bloom" : "0x00000000000000000000000000000000000000000000000000000000000000000000000000000000000000000000000000000000000000000000000000000000000000000000000000000000000000000000000000000000000000000000000000000000000000000000000000000000000000000000000000000000000000000000000000000000000000000000000000000000000000000000000000000000000000000000000000000000000000000000000000000000000000000000000000000000000000000000000000000000000000000000000000000000000000000000000000000000000000000000000000000000000000000000000000000000",
                    "coinbase" : "0x8888f1f195afa192cfee860698584c030f4c9db1",
                    "difficulty" : "0x020080",
                    "extraData" : "",
                    "gasLimit" : "0x2fefba",
                    "gasUsed" : "0x00",
                    "hash" : "0x7ccaf8de5e1315d46dd6e0ae9d06110bf8c91f8a78875249ac3a69d77fb38b35",
                    "mixHash" : "0xdfc09fdbc04ffebb14c8b8ee8140370a1aa07cbbf3fe23227a4f261053833757",
                    "nonce" : "0xaab159ab5bb0fede",
                    "number" : "0x02",
                    "parentHash" : "0xfd8d28fd62969b730e1967143678181080a551884104e6454844524c71777055",
                    "receiptTrie" : "0x56e81f171bcc55a6ff8345e692c0f86e5b48e01b996cadc001622fb5e363b421",
                    "stateRoot" : "0x326587c5310ecdbd0c8d36c471eef6595a6046ad46ee90bf0db88e691223ee38",
                    "timestamp" : "0x54c98c83",
                    "transactionsTrie" : "0x56e81f171bcc55a6ff8345e692c0f86e5b48e01b996cadc001622fb5e363b421",
                    "uncleHash" : "0x1dcc4de8dec75d7aab85b567b6ccd41ad312451b948a7413f0a142fd40d49347"
                },
                "blocknumber" : "2",
                "chainname" : "F",
                "chainnetwork" : "Frontier",
                "rlp" : "0xf901fcf901f7a0fd8d28fd62969b730e1967143678181080a551884104e6454844524c71777055a01dcc4de8dec75d7aab85b567b6ccd41ad312451b948a7413f0a142fd40d49347948888f1f195afa192cfee860698584c030f4c9db1a0326587c5310ecdbd0c8d36c471eef6595a6046ad46ee90bf0db88e691223ee38a056e81f171bcc55a6ff8345e692c0f86e5b48e01b996cadc001622fb5e363b421a056e81f171bcc55a6ff8345e692c0f86e5b48e01b996cadc001622fb5e363b421b90100000000000000000000000000000000000000000000000000000000000000000000000000000000000000000000000000000000000000000000000000000000000000000000000000000000000000000000000000000000000000000000000000000000000000000000000000000000000000000000000000000000000000000000000000000000000000000000000000000000000000000000000000000000000000000000000000000000000000000000000000000000000000000000000000000000000000000000000000000000000000000000000000000000000000000000000000000000000000000000000000000000000000000000000000000000008302008002832fefba808454c98c8380a0dfc09fdbc04ffebb14c8b8ee8140370a1aa07cbbf3fe23227a4f26105383375788aab159ab5bb0fedec0c0",
                "transactions" : [
                ],
                "uncleHeaders" : [
                ]
            },
            {
                "blockHeader" : {
                    "bloom" : "0x00000000000000000000000000000000000000000000000000000000000000000000000000000000000000000000000000000000000000000000000000000000000000000000000000000000000000000000000000000000000000000000000000000000000000000000000000000000000000000000000000000000000000000000000000000000000000000000000000000000000000000000000000000000000000000000000000000000000000000000000000000000000000000000000000000000000000000000000000000000000000000000000000000000000000000000000000000000000000000000000000000000000000000000000000000000",
                    "coinbase" : "0x8888f1f195afa192cfee860698584c030f4c9db1",
                    "difficulty" : "0x0200c0",
                    "extraData" : "",
                    "gasLimit" : "0x2fefba",
                    "gasUsed" : "0x00",
                    "hash" : "0xf751749a4b041502806b54c1681ff06d7d0c31f21a45376f1bafdf22a8ab88a0",
                    "mixHash" : "0xe7ff02fbadbbed5228394fe97c86c71421f903eb9ab080fddc0bff9aa7406b79",
                    "nonce" : "0x3bb1bf8abe3fb7a3",
                    "number" : "0x03",
                    "parentHash" : "0x7ccaf8de5e1315d46dd6e0ae9d06110bf8c91f8a78875249ac3a69d77fb38b35",
                    "receiptTrie" : "0x56e81f171bcc55a6ff8345e692c0f86e5b48e01b996cadc001622fb5e363b421",
                    "stateRoot" : "0xc662553363b8624b50cd8f83a2a28ec38b6cf0c029db61cb21e06d7df87fb256",
                    "timestamp" : "0x54c98c84",
                    "transactionsTrie" : "0x56e81f171bcc55a6ff8345e692c0f86e5b48e01b996cadc001622fb5e363b421",
                    "uncleHash" : "0x1dcc4de8dec75d7aab85b567b6ccd41ad312451b948a7413f0a142fd40d49347"
                },
                "blocknumber" : "3",
                "chainname" : "F",
                "chainnetwork" : "Frontier",
                "rlp" : "0xf901fcf901f7a07ccaf8de5e1315d46dd6e0ae9d06110bf8c91f8a78875249ac3a69d77fb38b35a01dcc4de8dec75d7aab85b567b6ccd41ad312451b948a7413f0a142fd40d49347948888f1f195afa192cfee860698584c030f4c9db1a0c662553363b8624b50cd8f83a2a28ec38b6cf0c029db61cb21e06d7df87fb256a056e81f171bcc55a6ff8345e692c0f86e5b48e01b996cadc001622fb5e363b421a056e81f171bcc55a6ff8345e692c0f86e5b48e01b996cadc001622fb5e363b421b9010000000000000000000000000000000000000000000000000000000000000000000000000000000000000000000000000000000000000000000000000000000000000000000000000000000000000000000000000000000000000000000000000000000000000000000000000000000000000000000000000000000000000000000000000000000000000000000000000000000000000000000000000000000000000000000000000000000000000000000000000000000000000000000000000000000000000000000000000000000000000000000000000000000000000000000000000000000000000000000000000000000000000000000000000000000000830200c003832fefba808454c98c8480a0e7ff02fbadbbed5228394fe97c86c71421f903eb9ab080fddc0bff9aa7406b79883bb1bf8abe3fb7a3c0c0",
                "transactions" : [
                ],
                "uncleHeaders" : [
                ]
            },
            {
                "blockHeader" : {
                    "bloom" : "0x00000000000000000000000000000000000000000000000000000000000000000000000000000000000000000000000000000000000000000000000000000000000000000000000000000000000000000000000000000000000000000000000000000000000000000000000000000000000000000000000000000000000000000000000000000000000000000000000000000000000000000000000000000000000000000000000000000000000000000000000000000000000000000000000000000000000000000000000000000000000000000000000000000000000000000000000000000000000000000000000000000000000000000000000000000000",
                    "coinbase" : "0x8888f1f195afa192cfee860698584c030f4c9db1",
                    "difficulty" : "0x020100",
                    "extraData" : "",
                    "gasLimit" : "0x2fefba",
                    "gasUsed" : "0x00",
                    "hash" : "0x32e7ae1dd5e32b8ff23296b98c34e8fc5aa11c3296972223e5e339be1f7b1814",
                    "mixHash" : "0x71a295d90b8a864f79047cb552189c3d481d600e067ade4196f2938f70f130bb",
                    "nonce" : "0x6ea6005c2198d3ec",
                    "number" : "0x04",
                    "parentHash" : "0xf751749a4b041502806b54c1681ff06d7d0c31f21a45376f1bafdf22a8ab88a0",
                    "receiptTrie" : "0x56e81f171bcc55a6ff8345e692c0f86e5b48e01b996cadc001622fb5e363b421",
                    "stateRoot" : "0x6b6c82551219d30f4168674006e3e1ece38eb055d9575f63e6dcce05f4a610af",
                    "timestamp" : "0x54c98c85",
                    "transactionsTrie" : "0x56e81f171bcc55a6ff8345e692c0f86e5b48e01b996cadc001622fb5e363b421",
                    "uncleHash" : "0x1dcc4de8dec75d7aab85b567b6ccd41ad312451b948a7413f0a142fd40d49347"
                },
                "blocknumber" : "4",
                "chainname" : "F",
                "chainnetwork" : "Frontier",
                "rlp" : "0xf901fcf901f7a0f751749a4b041502806b54c1681ff06d7d0c31f21a45376f1bafdf22a8ab88a0a01dcc4de8dec75d7aab85b567b6ccd41ad312451b948a7413f0a142fd40d49347948888f1f195afa192cfee860698584c030f4c9db1a06b6c82551219d30f4168674006e3e1ece38eb055d9575f63e6dcce05f4a610afa056e81f171bcc55a6ff8345e692c0f86e5b48e01b996cadc001622fb5e363b421a056e81f171bcc55a6ff8345e692c0f86e5b48e01b996cadc001622fb5e363b421b90100000000000000000000000000000000000000000000000000000000000000000000000000000000000000000000000000000000000000000000000000000000000000000000000000000000000000000000000000000000000000000000000000000000000000000000000000000000000000000000000000000000000000000000000000000000000000000000000000000000000000000000000000000000000000000000000000000000000000000000000000000000000000000000000000000000000000000000000000000000000000000000000000000000000000000000000000000000000000000000000000000000000000000000000000000000008302010004832fefba808454c98c8580a071a295d90b8a864f79047cb552189c3d481d600e067ade4196f2938f70f130bb886ea6005c2198d3ecc0c0",
                "transactions" : [
                ],
                "uncleHeaders" : [
                ]
            },
            {
                "blockHeader" : {
                    "bloom" : "0x00000000000000000000000000000000000000000000000000000000000000000000000000000000000000000000000000000000000000000000000000000000000000000000000000000000000000000000000000000000000000000000000000000000000000000000000000000000000000000000000000000000000000000000000000000000000000000000000000000000000000000000000000000000000000000000000000000000000000000000000000000000000000000000000000000000000000000000000000000000000000000000000000000000000000000000000000000000000000000000000000000000000000000000000000000000",
                    "coinbase" : "0x8888f1f195afa192cfee860698584c030f4c9db1",
                    "difficulty" : "0x020040",
                    "extraData" : "",
                    "gasLimit" : "0x2fefba",
                    "gasUsed" : "0x00",
                    "hash" : "0xee940231ce33f7e0ea9f2e64f5d9a14adbce08b11086ac8acbc4833b9d92dc91",
                    "mixHash" : "0xf184d9d655852d2800499f68d151fcccc0f5ab179aecfc2c674eae4d20d256f1",
                    "nonce" : "0x485405876e0a9d5a",
                    "number" : "0x01",
                    "parentHash" : "0x7285abd5b24742f184ad676e31f6054663b3529bc35ea2fcad8a3e0f642a46f7",
                    "receiptTrie" : "0x56e81f171bcc55a6ff8345e692c0f86e5b48e01b996cadc001622fb5e363b421",
                    "stateRoot" : "0x8503769bb14067be7c5e438c353094e5a9a6c72f375fad4a76878a8882ceb496",
                    "timestamp" : "0x54c98c82",
                    "transactionsTrie" : "0x56e81f171bcc55a6ff8345e692c0f86e5b48e01b996cadc001622fb5e363b421",
                    "uncleHash" : "0x1dcc4de8dec75d7aab85b567b6ccd41ad312451b948a7413f0a142fd40d49347"
                },
                "blocknumber" : "1",
                "chainname" : "H",
                "rlp" : "0xf901fcf901f7a07285abd5b24742f184ad676e31f6054663b3529bc35ea2fcad8a3e0f642a46f7a01dcc4de8dec75d7aab85b567b6ccd41ad312451b948a7413f0a142fd40d49347948888f1f195afa192cfee860698584c030f4c9db1a08503769bb14067be7c5e438c353094e5a9a6c72f375fad4a76878a8882ceb496a056e81f171bcc55a6ff8345e692c0f86e5b48e01b996cadc001622fb5e363b421a056e81f171bcc55a6ff8345e692c0f86e5b48e01b996cadc001622fb5e363b421b90100000000000000000000000000000000000000000000000000000000000000000000000000000000000000000000000000000000000000000000000000000000000000000000000000000000000000000000000000000000000000000000000000000000000000000000000000000000000000000000000000000000000000000000000000000000000000000000000000000000000000000000000000000000000000000000000000000000000000000000000000000000000000000000000000000000000000000000000000000000000000000000000000000000000000000000000000000000000000000000000000000000000000000000000000000000008302004001832fefba808454c98c8280a0f184d9d655852d2800499f68d151fcccc0f5ab179aecfc2c674eae4d20d256f188485405876e0a9d5ac0c0",
                "transactions" : [
                ],
                "uncleHeaders" : [
                ]
            },
            {
                "blockHeader" : {
                    "bloom" : "0x00000000000000000000000000000000000000000000000000000000000000000000000000000000000000000000000000000000000000000000000000000000000000000000000000000000000000000000000000000000000000000000000000000000000000000000000000000000000000000000000000000000000000000000000000000000000000000000000000000000000000000000000000000000000000000000000000000000000000000000000000000000000000000000000000000000000000000000000000000000000000000000000000000000000000000000000000000000000000000000000000000000000000000000000000000000",
                    "coinbase" : "0x8888f1f195afa192cfee860698584c030f4c9db1",
                    "difficulty" : "0x020080",
                    "extraData" : "",
                    "gasLimit" : "0x2fefba",
                    "gasUsed" : "0x00",
                    "hash" : "0x53cd25bfe17710935073ba3d55c608432bae82ebd294aea203d3f89f53e59ab0",
                    "mixHash" : "0x249ffcea085e2741c43e5feb15dc61dd35a241ce17cdf1facd15a68409e018ce",
                    "nonce" : "0x49cf5ecd802538db",
                    "number" : "0x02",
                    "parentHash" : "0xee940231ce33f7e0ea9f2e64f5d9a14adbce08b11086ac8acbc4833b9d92dc91",
                    "receiptTrie" : "0x56e81f171bcc55a6ff8345e692c0f86e5b48e01b996cadc001622fb5e363b421",
                    "stateRoot" : "0x326587c5310ecdbd0c8d36c471eef6595a6046ad46ee90bf0db88e691223ee38",
                    "timestamp" : "0x54c98c83",
                    "transactionsTrie" : "0x56e81f171bcc55a6ff8345e692c0f86e5b48e01b996cadc001622fb5e363b421",
                    "uncleHash" : "0x1dcc4de8dec75d7aab85b567b6ccd41ad312451b948a7413f0a142fd40d49347"
                },
                "blocknumber" : "2",
                "chainname" : "H",
                "rlp" : "0xf901fcf901f7a0ee940231ce33f7e0ea9f2e64f5d9a14adbce08b11086ac8acbc4833b9d92dc91a01dcc4de8dec75d7aab85b567b6ccd41ad312451b948a7413f0a142fd40d49347948888f1f195afa192cfee860698584c030f4c9db1a0326587c5310ecdbd0c8d36c471eef6595a6046ad46ee90bf0db88e691223ee38a056e81f171bcc55a6ff8345e692c0f86e5b48e01b996cadc001622fb5e363b421a056e81f171bcc55a6ff8345e692c0f86e5b48e01b996cadc001622fb5e363b421b90100000000000000000000000000000000000000000000000000000000000000000000000000000000000000000000000000000000000000000000000000000000000000000000000000000000000000000000000000000000000000000000000000000000000000000000000000000000000000000000000000000000000000000000000000000000000000000000000000000000000000000000000000000000000000000000000000000000000000000000000000000000000000000000000000000000000000000000000000000000000000000000000000000000000000000000000000000000000000000000000000000000000000000000000000000000008302008002832fefba808454c98c8380a0249ffcea085e2741c43e5feb15dc61dd35a241ce17cdf1facd15a68409e018ce8849cf5ecd802538dbc0c0",
                "transactions" : [
                ],
                "uncleHeaders" : [
                ]
            },
            {
                "blockHeader" : {
                    "bloom" : "0x00000000000000000000000000000000000000000000000000000000000000000000000000000000000000000000000000000000000000000000000000000000000000000000000000000000000000000000000000000000000000000000000000000000000000000000000000000000000000000000000000000000000000000000000000000000000000000000000000000000000000000000000000000000000000000000000000000000000000000000000000000000000000000000000000000000000000000000000000000000000000000000000000000000000000000000000000000000000000000000000000000000000000000000000000000000",
                    "coinbase" : "0x8888f1f195afa192cfee860698584c030f4c9db1",
                    "difficulty" : "0x0200c0",
                    "extraData" : "",
                    "gasLimit" : "0x2fefba",
                    "gasUsed" : "0x00",
                    "hash" : "0x60e3beb9b547f3e005c2207e5be1becdba54b7bad970389fbf559a27c1c32604",
                    "mixHash" : "0xadf870e133357995650c76bddb3ca5e962989109ad2f6bf804f4d51e60c8c23e",
                    "nonce" : "0x1b8750c4547ec665",
                    "number" : "0x03",
                    "parentHash" : "0x53cd25bfe17710935073ba3d55c608432bae82ebd294aea203d3f89f53e59ab0",
                    "receiptTrie" : "0x56e81f171bcc55a6ff8345e692c0f86e5b48e01b996cadc001622fb5e363b421",
                    "stateRoot" : "0xc662553363b8624b50cd8f83a2a28ec38b6cf0c029db61cb21e06d7df87fb256",
                    "timestamp" : "0x54c98c84",
                    "transactionsTrie" : "0x56e81f171bcc55a6ff8345e692c0f86e5b48e01b996cadc001622fb5e363b421",
                    "uncleHash" : "0x1dcc4de8dec75d7aab85b567b6ccd41ad312451b948a7413f0a142fd40d49347"
                },
                "blocknumber" : "3",
                "chainname" : "H",
                "rlp" : "0xf901fcf901f7a053cd25bfe17710935073ba3d55c608432bae82ebd294aea203d3f89f53e59ab0a01dcc4de8dec75d7aab85b567b6ccd41ad312451b948a7413f0a142fd40d49347948888f1f195afa192cfee860698584c030f4c9db1a0c662553363b8624b50cd8f83a2a28ec38b6cf0c029db61cb21e06d7df87fb256a056e81f171bcc55a6ff8345e692c0f86e5b48e01b996cadc001622fb5e363b421a056e81f171bcc55a6ff8345e692c0f86e5b48e01b996cadc001622fb5e363b421b9010000000000000000000000000000000000000000000000000000000000000000000000000000000000000000000000000000000000000000000000000000000000000000000000000000000000000000000000000000000000000000000000000000000000000000000000000000000000000000000000000000000000000000000000000000000000000000000000000000000000000000000000000000000000000000000000000000000000000000000000000000000000000000000000000000000000000000000000000000000000000000000000000000000000000000000000000000000000000000000000000000000000000000000000000000000000830200c003832fefba808454c98c8480a0adf870e133357995650c76bddb3ca5e962989109ad2f6bf804f4d51e60c8c23e881b8750c4547ec665c0c0",
                "transactions" : [
                ],
                "uncleHeaders" : [
                ]
            },
            {
                "blockHeader" : {
                    "bloom" : "0x00000000000000000000000000000000000000000000000000000000000000000000000000000000000000000000000000000000000000000000000000000000000000000000000000000000000000000000000000000000000000000000000000000000000000000000000000000000000000000000000000000000000000000000000000000000000000000000000000000000000000000000000000000000000000000000000000000000000000000000000000000000000000000000000000000000000000000000000000000000000000000000000000000000000000000000000000000000000000000000000000000000000000000000000000000000",
                    "coinbase" : "0x8888f1f195afa192cfee860698584c030f4c9db1",
                    "difficulty" : "0x020100",
                    "extraData" : "",
                    "gasLimit" : "0x2fefba",
                    "gasUsed" : "0x00",
                    "hash" : "0x25b04a2494c52bcbf914926f4d4f6f7002d011bfae9a3a704cc0e8d7269f8563",
                    "mixHash" : "0xae61fd72d48e9b9a3fc9ad8e224e1e47f4b0bfd2ab682ab032d4b9cfdd77cb24",
                    "nonce" : "0x1c381170a93013d2",
                    "number" : "0x04",
                    "parentHash" : "0x60e3beb9b547f3e005c2207e5be1becdba54b7bad970389fbf559a27c1c32604",
                    "receiptTrie" : "0x56e81f171bcc55a6ff8345e692c0f86e5b48e01b996cadc001622fb5e363b421",
                    "stateRoot" : "0x6b6c82551219d30f4168674006e3e1ece38eb055d9575f63e6dcce05f4a610af",
                    "timestamp" : "0x54c98c85",
                    "transactionsTrie" : "0x56e81f171bcc55a6ff8345e692c0f86e5b48e01b996cadc001622fb5e363b421",
                    "uncleHash" : "0x1dcc4de8dec75d7aab85b567b6ccd41ad312451b948a7413f0a142fd40d49347"
                },
                "blocknumber" : "4",
                "chainname" : "H",
                "rlp" : "0xf901fcf901f7a060e3beb9b547f3e005c2207e5be1becdba54b7bad970389fbf559a27c1c32604a01dcc4de8dec75d7aab85b567b6ccd41ad312451b948a7413f0a142fd40d49347948888f1f195afa192cfee860698584c030f4c9db1a06b6c82551219d30f4168674006e3e1ece38eb055d9575f63e6dcce05f4a610afa056e81f171bcc55a6ff8345e692c0f86e5b48e01b996cadc001622fb5e363b421a056e81f171bcc55a6ff8345e692c0f86e5b48e01b996cadc001622fb5e363b421b90100000000000000000000000000000000000000000000000000000000000000000000000000000000000000000000000000000000000000000000000000000000000000000000000000000000000000000000000000000000000000000000000000000000000000000000000000000000000000000000000000000000000000000000000000000000000000000000000000000000000000000000000000000000000000000000000000000000000000000000000000000000000000000000000000000000000000000000000000000000000000000000000000000000000000000000000000000000000000000000000000000000000000000000000000000000008302010004832fefba808454c98c8580a0ae61fd72d48e9b9a3fc9ad8e224e1e47f4b0bfd2ab682ab032d4b9cfdd77cb24881c381170a93013d2c0c0",
                "transactions" : [
                ],
                "uncleHeaders" : [
                ]
            },
            {
                "blockHeader" : {
                    "bloom" : "0x00000000000000000000000000000000000000000000000000000000000000000000000000000000000000000000000000000000000000000000000000000000000000000000000000000000000000000000000000000000000000000000000000000000000000000000000000000000000000000000000000000000000000000000000000000000000000000000000000000000000000000000000000000000000000000000000000000000000000000000000000000000000000000000000000000000000000000000000000000000000000000000000000000000000000000000000000000000000000000000000000000000000000000000000000000000",
                    "coinbase" : "0x8888f1f195afa192cfee860698584c030f4c9db1",
                    "difficulty" : "0x020140",
                    "extraData" : "",
                    "gasLimit" : "0x2fefba",
                    "gasUsed" : "0x5208",
                    "hash" : "0x126a7a9692aeff1085a31d51ba160b7a29410034585fdde452c7610189b92514",
                    "mixHash" : "0x47f33802f1b7e908e208dcc82d080664a2977155529ab82d91eadf078808131f",
                    "nonce" : "0xd3ead56140f0e895",
                    "number" : "0x05",
                    "parentHash" : "0x25b04a2494c52bcbf914926f4d4f6f7002d011bfae9a3a704cc0e8d7269f8563",
                    "receiptTrie" : "0x5b4749af198baa08becb063326fd49d5ec23d73a80a74d8ab4781029f8bc0d69",
                    "stateRoot" : "0x5cf72f01972bb65f7080e4ea27e19cc7150bf8117fe4044b337b7e35101d3446",
                    "timestamp" : "0x54c98c86",
                    "transactionsTrie" : "0xb049e948f958fd4f29ff8d237dcf93ad958042c49b5515e2330f1652ae5cc7ec",
                    "uncleHash" : "0x1dcc4de8dec75d7aab85b567b6ccd41ad312451b948a7413f0a142fd40d49347"
                },
                "blocknumber" : "5",
                "chainname" : "H",
                "rlp" : "0xf90261f901f9a025b04a2494c52bcbf914926f4d4f6f7002d011bfae9a3a704cc0e8d7269f8563a01dcc4de8dec75d7aab85b567b6ccd41ad312451b948a7413f0a142fd40d49347948888f1f195afa192cfee860698584c030f4c9db1a05cf72f01972bb65f7080e4ea27e19cc7150bf8117fe4044b337b7e35101d3446a0b049e948f958fd4f29ff8d237dcf93ad958042c49b5515e2330f1652ae5cc7eca05b4749af198baa08becb063326fd49d5ec23d73a80a74d8ab4781029f8bc0d69b90100000000000000000000000000000000000000000000000000000000000000000000000000000000000000000000000000000000000000000000000000000000000000000000000000000000000000000000000000000000000000000000000000000000000000000000000000000000000000000000000000000000000000000000000000000000000000000000000000000000000000000000000000000000000000000000000000000000000000000000000000000000000000000000000000000000000000000000000000000000000000000000000000000000000000000000000000000000000000000000000000000000000000000000000000000000008302014005832fefba8252088454c98c8680a047f33802f1b7e908e208dcc82d080664a2977155529ab82d91eadf078808131f88d3ead56140f0e895f862f86080018301fbd094b94f5374fce5edbc8e2a8697c15331677e6ebf0b0a801ba06738f4afb7c14330fbdd9d3c2ac20b9e12755bbf873edd70962820b3041d50c7a02094fd79dba23f99f79cadcda90aa4545c380a6363f6462d842bd77a921a1d58c0",
                "transactions" : [
                    {
                        "data" : "0x",
                        "gasLimit" : "0x01fbd0",
                        "gasPrice" : "0x01",
                        "nonce" : "0x00",
                        "r" : "0x6738f4afb7c14330fbdd9d3c2ac20b9e12755bbf873edd70962820b3041d50c7",
                        "s" : "0x2094fd79dba23f99f79cadcda90aa4545c380a6363f6462d842bd77a921a1d58",
                        "to" : "0xb94f5374fce5edbc8e2a8697c15331677e6ebf0b",
                        "v" : "0x1b",
                        "value" : "0x0a"
                    }
                ],
                "uncleHeaders" : [
                ]
            },
            {
                "blocknumber" : "6",
                "chainname" : "H",
                "expectExceptionALL" : "InvalidUncleParentHash",
                "rlp" : "0xf905f2f901f7a0126a7a9692aeff1085a31d51ba160b7a29410034585fdde452c7610189b92514a0a73bc06ce7e1b69e1e565a01635563fae42d64def91271d31e4759006226d55f948888f1f195afa192cfee860698584c030f4c9db1a0bbfd9c9e09ffd8e78d7e7d4e2ba77fddc078253105ceca3f0602311385d34606a056e81f171bcc55a6ff8345e692c0f86e5b48e01b996cadc001622fb5e363b421a056e81f171bcc55a6ff8345e692c0f86e5b48e01b996cadc001622fb5e363b421b90100000000000000000000000000000000000000000000000000000000000000000000000000000000000000000000000000000000000000000000000000000000000000000000000000000000000000000000000000000000000000000000000000000000000000000000000000000000000000000000000000000000000000000000000000000000000000000000000000000000000000000000000000000000000000000000000000000000000000000000000000000000000000000000000000000000000000000000000000000000000000000000000000000000000000000000000000000000000000000000000000000000000000000000000000000000008302018006832fefba808454c98c8780a073be6747980912d7ea1f2baab55841a1b8c2d349bf81eaeb618d5ddd5d33e8ef8858ae0ea1e95d1061c0f903f4f901f7a0f751749a4b041502806b54c1681ff06d7d0c31f21a45376f1bafdf22a8ab88a0a01dcc4de8dec75d7aab85b567b6ccd41ad312451b948a7413f0a142fd40d49347940000000000000000000000000000000000000000a0c662553363b8624b50cd8f83a2a28ec38b6cf0c029db61cb21e06d7df87fb256a056e81f171bcc55a6ff8345e692c0f86e5b48e01b996cadc001622fb5e363b421a056e81f171bcc55a6ff8345e692c0f86e5b48e01b996cadc001622fb5e363b421b90100000000000000000000000000000000000000000000000000000000000000000000000000000000000000000000000000000000000000000000000000000000000000000000000000000000000000000000000000000000000000000000000000000000000000000000000000000000000000000000000000000000000000000000000000000000000000000000000000000000000000000000000000000000000000000000000000000000000000000000000000000000000000000000000000000000000000000000000000000000000000000000000000000000000000000000000000000000000000000000000000000000000000000000000000000000008302010004832fefba808454c98c8580a0f2c5bf971102bfb590ca327c610b05a7949b02713d7d4c9c6a78a5b466ce4d2e888a2af0d7075afd25f901f7a060e3beb9b547f3e005c2207e5be1becdba54b7bad970389fbf559a27c1c32604a01dcc4de8dec75d7aab85b567b6ccd41ad312451b948a7413f0a142fd40d49347940000000000000000000000000000000000000000a0c662553363b8624b50cd8f83a2a28ec38b6cf0c029db61cb21e06d7df87fb256a056e81f171bcc55a6ff8345e692c0f86e5b48e01b996cadc001622fb5e363b421a056e81f171bcc55a6ff8345e692c0f86e5b48e01b996cadc001622fb5e363b421b90100000000000000000000000000000000000000000000000000000000000000000000000000000000000000000000000000000000000000000000000000000000000000000000000000000000000000000000000000000000000000000000000000000000000000000000000000000000000000000000000000000000000000000000000000000000000000000000000000000000000000000000000000000000000000000000000000000000000000000000000000000000000000000000000000000000000000000000000000000000000000000000000000000000000000000000000000000000000000000000000000000000000000000000000000000000008302010004832fefba808454c98c8580a0d721111b484da730fe9ea4f5ba56210a9b888bdd28da0244d53089ae29e29699882eb7652ee69fde72"
            }
        ],
        "genesisBlockHeader" : {
            "bloom" : "0x00000000000000000000000000000000000000000000000000000000000000000000000000000000000000000000000000000000000000000000000000000000000000000000000000000000000000000000000000000000000000000000000000000000000000000000000000000000000000000000000000000000000000000000000000000000000000000000000000000000000000000000000000000000000000000000000000000000000000000000000000000000000000000000000000000000000000000000000000000000000000000000000000000000000000000000000000000000000000000000000000000000000000000000000000000000",
            "coinbase" : "0x8888f1f195afa192cfee860698584c030f4c9db1",
            "difficulty" : "0x020000",
            "extraData" : "0x42",
            "gasLimit" : "0x2fefd8",
            "gasUsed" : "0x00",
            "hash" : "0x7285abd5b24742f184ad676e31f6054663b3529bc35ea2fcad8a3e0f642a46f7",
            "mixHash" : "0x56e81f171bcc55a6ff8345e692c0f86e5b48e01b996cadc001622fb5e363b421",
            "nonce" : "0x0102030405060708",
            "number" : "0x00",
            "parentHash" : "0x0000000000000000000000000000000000000000000000000000000000000000",
            "receiptTrie" : "0x56e81f171bcc55a6ff8345e692c0f86e5b48e01b996cadc001622fb5e363b421",
            "stateRoot" : "0xcafd881ab193703b83816c49ff6c2bf6ba6f464a1be560c42106128c8dbc35e7",
            "timestamp" : "0x54c98c81",
            "transactionsTrie" : "0x56e81f171bcc55a6ff8345e692c0f86e5b48e01b996cadc001622fb5e363b421",
            "uncleHash" : "0x1dcc4de8dec75d7aab85b567b6ccd41ad312451b948a7413f0a142fd40d49347"
        },
        "genesisRLP" : "0xf901fcf901f7a00000000000000000000000000000000000000000000000000000000000000000a01dcc4de8dec75d7aab85b567b6ccd41ad312451b948a7413f0a142fd40d49347948888f1f195afa192cfee860698584c030f4c9db1a0cafd881ab193703b83816c49ff6c2bf6ba6f464a1be560c42106128c8dbc35e7a056e81f171bcc55a6ff8345e692c0f86e5b48e01b996cadc001622fb5e363b421a056e81f171bcc55a6ff8345e692c0f86e5b48e01b996cadc001622fb5e363b421b90100000000000000000000000000000000000000000000000000000000000000000000000000000000000000000000000000000000000000000000000000000000000000000000000000000000000000000000000000000000000000000000000000000000000000000000000000000000000000000000000000000000000000000000000000000000000000000000000000000000000000000000000000000000000000000000000000000000000000000000000000000000000000000000000000000000000000000000000000000000000000000000000000000000000000000000000000000000000000000000000000000000000000000000000000000000008302000080832fefd8808454c98c8142a056e81f171bcc55a6ff8345e692c0f86e5b48e01b996cadc001622fb5e363b421880102030405060708c0c0",
        "lastblockhash" : "0x126a7a9692aeff1085a31d51ba160b7a29410034585fdde452c7610189b92514",
        "network" : "FrontierToHomesteadAt5",
        "postState" : {
            "0x8888f1f195afa192cfee860698584c030f4c9db1" : {
                "balance" : "0x015af1d78b58c45208",
                "code" : "",
                "nonce" : "0x00",
                "storage" : {
                }
            },
            "0xa94f5374fce5edbc8e2a8697c15331677e6ebf0b" : {
                "balance" : "0x02540b91ee",
                "code" : "",
                "nonce" : "0x01",
                "storage" : {
                }
            },
            "0xb94f5374fce5edbc8e2a8697c15331677e6ebf0b" : {
                "balance" : "0x0a",
                "code" : "",
                "nonce" : "0x00",
                "storage" : {
                }
            }
        },
        "pre" : {
            "0xa94f5374fce5edbc8e2a8697c15331677e6ebf0b" : {
                "balance" : "0x02540be400",
                "code" : "",
                "nonce" : "0x00",
                "storage" : {
                }
            }
        }
    }
}