{
    "CALL_Bounds3_d0g0v0_Istanbul" : {
        "_info" : {
            "comment" : "",
            "filling-rpc-server" : "Geth-1.9.6-unstable-63b18027-20190920",
            "filling-tool-version" : "retesteth-0.0.1+commit.0ae18aef.Linux.g++",
            "lllcversion" : "Version: 0.5.12-develop.2019.9.13+commit.2d601a4f.Linux.g++",
            "source" : "src/GeneralStateTestsFiller/stMemoryStressTest/CALL_Bounds3Filler.json",
            "sourceHash" : "0e2a48d88802c2aaa0b09cd47961af7effc2a9a6bd9322bc1b1b0a8729b59b21"
        },
        "genesisBlockHeader" : {
            "bloom" : "0x00000000000000000000000000000000000000000000000000000000000000000000000000000000000000000000000000000000000000000000000000000000000000000000000000000000000000000000000000000000000000000000000000000000000000000000000000000000000000000000000000000000000000000000000000000000000000000000000000000000000000000000000000000000000000000000000000000000000000000000000000000000000000000000000000000000000000000000000000000000000000000000000000000000000000000000000000000000000000000000000000000000000000000000000000000000",
            "coinbase" : "0x2adc25665018aa1fe0e6bc666dac8fc2697ff9ba",
            "difficulty" : "0x20000",
            "extraData" : "0x00",
            "gasLimit" : "0x7fffffffffffffff",
            "gasUsed" : "0x0",
            "hash" : "0x9ae2800eccbabeb299d2e38fa12f8fd584d4b7abdc86cafc328d2cbf4d8ee38c",
            "mixHash" : "0x0000000000000000000000000000000000000000000000000000000000000000",
            "nonce" : "0x0000000000000000",
            "number" : "0x0",
            "parentHash" : "0x0000000000000000000000000000000000000000000000000000000000000000",
            "receiptTrie" : "0x56e81f171bcc55a6ff8345e692c0f86e5b48e01b996cadc001622fb5e363b421",
            "stateRoot" : "0x0b926f7bda14d0a4b4b611597e34397f7c5e5e49025815cd5699127ae95f91fe",
            "timestamp" : "0x0",
            "transactionsTrie" : "0x56e81f171bcc55a6ff8345e692c0f86e5b48e01b996cadc001622fb5e363b421",
            "uncleHash" : "0x1dcc4de8dec75d7aab85b567b6ccd41ad312451b948a7413f0a142fd40d49347"
        },
        "pre" : {
            "0x1000000000000000000000000000000000000000" : {
                "balance" : "0x00",
                "code" : "0x67ffffffffffffffff600067ffffffffffffffff600060007310000000000000000000000000000000000000016707fffffffffffffff1506fffffffffffffffffffffffffffffffff60006fffffffffffffffffffffffffffffffff600060007310000000000000000000000000000000000000016707fffffffffffffff1507fffffffffffffffffffffffffffffffffffffffffffffffffffffffffffffffff60007fffffffffffffffffffffffffffffffffffffffffffffffffffffffffffffffff600060007310000000000000000000000000000000000000016707fffffffffffffff15063ffffffff63ffffffff63ffffffff63ffffffff60007310000000000000000000000000000000000000016707fffffffffffffff15067ffffffffffffffff67ffffffffffffffff67ffffffffffffffff67ffffffffffffffff60007310000000000000000000000000000000000000016707fffffffffffffff1506fffffffffffffffffffffffffffffffff6fffffffffffffffffffffffffffffffff6fffffffffffffffffffffffffffffffff6fffffffffffffffffffffffffffffffff60007310000000000000000000000000000000000000016707fffffffffffffff1507fffffffffffffffffffffffffffffffffffffffffffffffffffffffffffffffff7fffffffffffffffffffffffffffffffffffffffffffffffffffffffffffffffff7fffffffffffffffffffffffffffffffffffffffffffffffffffffffffffffffff7fffffffffffffffffffffffffffffffffffffffffffffffffffffffffffffffff60007310000000000000000000000000000000000000016707fffffffffffffff100",
                "nonce" : "0x00",
                "storage" : {
                }
            },
            "0x1000000000000000000000000000000000000001" : {
                "balance" : "0x00",
                "code" : "0x60005460010160005500",
                "nonce" : "0x00",
                "storage" : {
                }
            },
            "0xa94f5374fce5edbc8e2a8697c15331677e6ebf0b" : {
                "balance" : "0xffffffffffffffffffffffffffffffffffffffffffffffffffffff",
                "code" : "0x",
                "nonce" : "0x00",
                "storage" : {
                }
            }
        },
        "postState" : {
            "0xa94f5374fce5edbc8e2a8697c15331677e6ebf0b" : {
                "code" : "0x",
                "nonce" : "0x01",
                "balance" : "0xfffffffffffffffffffffffffffffffffffffffffffffffffdb60f",
                "storage" : {
                }
            },
            "0x1000000000000000000000000000000000000001" : {
                "code" : "0x60005460010160005500",
                "nonce" : "0x00",
                "balance" : "0x00",
                "storage" : {
                }
            },
            "0x2adc25665018aa1fe0e6bc666dac8fc2697ff9ba" : {
                "code" : "0x",
                "nonce" : "0x00",
                "balance" : "0x1bc16d674eca49f0",
                "storage" : {
                }
            },
            "0x1000000000000000000000000000000000000000" : {
                "code" : "0x67ffffffffffffffff600067ffffffffffffffff600060007310000000000000000000000000000000000000016707fffffffffffffff1506fffffffffffffffffffffffffffffffff60006fffffffffffffffffffffffffffffffff600060007310000000000000000000000000000000000000016707fffffffffffffff1507fffffffffffffffffffffffffffffffffffffffffffffffffffffffffffffffff60007fffffffffffffffffffffffffffffffffffffffffffffffffffffffffffffffff600060007310000000000000000000000000000000000000016707fffffffffffffff15063ffffffff63ffffffff63ffffffff63ffffffff60007310000000000000000000000000000000000000016707fffffffffffffff15067ffffffffffffffff67ffffffffffffffff67ffffffffffffffff67ffffffffffffffff60007310000000000000000000000000000000000000016707fffffffffffffff1506fffffffffffffffffffffffffffffffff6fffffffffffffffffffffffffffffffff6fffffffffffffffffffffffffffffffff6fffffffffffffffffffffffffffffffff60007310000000000000000000000000000000000000016707fffffffffffffff1507fffffffffffffffffffffffffffffffffffffffffffffffffffffffffffffffff7fffffffffffffffffffffffffffffffffffffffffffffffffffffffffffffffff7fffffffffffffffffffffffffffffffffffffffffffffffffffffffffffffffff7fffffffffffffffffffffffffffffffffffffffffffffffffffffffffffffffff60007310000000000000000000000000000000000000016707fffffffffffffff100",
                "nonce" : "0x00",
                "balance" : "0x00",
                "storage" : {
                }
            }
        },
        "network" : "Istanbul",
        "sealEngine" : "NoProof",
        "lastblockhash" : "0x70cd091b47969375c56521f3a5e47f0ead967101d36ab14978c0fbc67e2d43e6",
        "genesisRLP" : "0xf901fdf901f8a00000000000000000000000000000000000000000000000000000000000000000a01dcc4de8dec75d7aab85b567b6ccd41ad312451b948a7413f0a142fd40d49347942adc25665018aa1fe0e6bc666dac8fc2697ff9baa00b926f7bda14d0a4b4b611597e34397f7c5e5e49025815cd5699127ae95f91fea056e81f171bcc55a6ff8345e692c0f86e5b48e01b996cadc001622fb5e363b421a056e81f171bcc55a6ff8345e692c0f86e5b48e01b996cadc001622fb5e363b421b90100000000000000000000000000000000000000000000000000000000000000000000000000000000000000000000000000000000000000000000000000000000000000000000000000000000000000000000000000000000000000000000000000000000000000000000000000000000000000000000000000000000000000000000000000000000000000000000000000000000000000000000000000000000000000000000000000000000000000000000000000000000000000000000000000000000000000000000000000000000000000000000000000000000000000000000000000000000000000000000000000000000000000000000000000000000008302000080887fffffffffffffff808000a00000000000000000000000000000000000000000000000000000000000000000880000000000000000c0c0",
        "blocks" : [
            {
                "rlp" : "0xf90265f901fda09ae2800eccbabeb299d2e38fa12f8fd584d4b7abdc86cafc328d2cbf4d8ee38ca01dcc4de8dec75d7aab85b567b6ccd41ad312451b948a7413f0a142fd40d49347942adc25665018aa1fe0e6bc666dac8fc2697ff9baa0b858efa2cb8aa0fbc22a287d0424ed15f82de66d53bed8253823d005b1dc11f5a020ba9b55d8fc4eca7a8962efa4eaa263e5b5d9e0bb537692518fd1649965ac04a0a0e10907f175886de9bd8cd4ac2c21d1db4109a3a9fecf60f54015ee102803fdb90100000000000000000000000000000000000000000000000000000000000000000000000000000000000000000000000000000000000000000000000000000000000000000000000000000000000000000000000000000000000000000000000000000000000000000000000000000000000000000000000000000000000000000000000000000000000000000000000000000000000000000000000000000000000000000000000000000000000000000000000000000000000000000000000000000000000000000000000000000000000000000000000000000000000000000000000000000000000000000000000000000000000000000000000000000000008302000001887fffffffffffffff830249f08203e800a00000000000000000000000000000000000000000000000000000000000000000880000000000000000f862f8608001830249f094100000000000000000000000000000000000000001801ba0a8d69db5cc7b988975447a2e77fa471a04e8738915df60767b3104a95bf95c1aa030d6d7f9cd259c5937c46412312a382eabaf62794a7f6d6183891f864057feecc0",
                "blockHeader" : {
                    "bloom" : "0x00000000000000000000000000000000000000000000000000000000000000000000000000000000000000000000000000000000000000000000000000000000000000000000000000000000000000000000000000000000000000000000000000000000000000000000000000000000000000000000000000000000000000000000000000000000000000000000000000000000000000000000000000000000000000000000000000000000000000000000000000000000000000000000000000000000000000000000000000000000000000000000000000000000000000000000000000000000000000000000000000000000000000000000000000000000",
                    "coinbase" : "0x2adc25665018aa1fe0e6bc666dac8fc2697ff9ba",
                    "difficulty" : "0x20000",
                    "extraData" : "0x00",
                    "gasLimit" : "0x7fffffffffffffff",
                    "gasUsed" : "0x249f0",
                    "hash" : "0x70cd091b47969375c56521f3a5e47f0ead967101d36ab14978c0fbc67e2d43e6",
                    "mixHash" : "0x0000000000000000000000000000000000000000000000000000000000000000",
                    "nonce" : "0x0000000000000000",
                    "number" : "0x1",
                    "parentHash" : "0x9ae2800eccbabeb299d2e38fa12f8fd584d4b7abdc86cafc328d2cbf4d8ee38c",
                    "receiptTrie" : "0xa0e10907f175886de9bd8cd4ac2c21d1db4109a3a9fecf60f54015ee102803fd",
                    "stateRoot" : "0xb858efa2cb8aa0fbc22a287d0424ed15f82de66d53bed8253823d005b1dc11f5",
                    "timestamp" : "0x3e8",
                    "transactionsTrie" : "0x20ba9b55d8fc4eca7a8962efa4eaa263e5b5d9e0bb537692518fd1649965ac04",
                    "uncleHash" : "0x1dcc4de8dec75d7aab85b567b6ccd41ad312451b948a7413f0a142fd40d49347"
                },
                "transactions" : [
                    {
                        "data" : "0x",
                        "gasLimit" : "0x0249f0",
                        "gasPrice" : "0x01",
                        "nonce" : "0x00",
                        "to" : "0x1000000000000000000000000000000000000000",
                        "value" : "0x01",
                        "v" : "0x1b",
                        "r" : "0xa8d69db5cc7b988975447a2e77fa471a04e8738915df60767b3104a95bf95c1a",
                        "s" : "0x30d6d7f9cd259c5937c46412312a382eabaf62794a7f6d6183891f864057feec"
                    }
                ]
            }
        ]
    },
    "CALL_Bounds3_d0g1v0_Istanbul" : {
        "_info" : {
            "comment" : "",
            "filling-rpc-server" : "Geth-1.9.6-unstable-63b18027-20190920",
            "filling-tool-version" : "retesteth-0.0.1+commit.0ae18aef.Linux.g++",
            "lllcversion" : "Version: 0.5.12-develop.2019.9.13+commit.2d601a4f.Linux.g++",
            "source" : "src/GeneralStateTestsFiller/stMemoryStressTest/CALL_Bounds3Filler.json",
            "sourceHash" : "0e2a48d88802c2aaa0b09cd47961af7effc2a9a6bd9322bc1b1b0a8729b59b21"
        },
        "genesisBlockHeader" : {
            "bloom" : "0x00000000000000000000000000000000000000000000000000000000000000000000000000000000000000000000000000000000000000000000000000000000000000000000000000000000000000000000000000000000000000000000000000000000000000000000000000000000000000000000000000000000000000000000000000000000000000000000000000000000000000000000000000000000000000000000000000000000000000000000000000000000000000000000000000000000000000000000000000000000000000000000000000000000000000000000000000000000000000000000000000000000000000000000000000000000",
            "coinbase" : "0x2adc25665018aa1fe0e6bc666dac8fc2697ff9ba",
            "difficulty" : "0x20000",
            "extraData" : "0x00",
            "gasLimit" : "0x7fffffffffffffff",
            "gasUsed" : "0x0",
            "hash" : "0x9ae2800eccbabeb299d2e38fa12f8fd584d4b7abdc86cafc328d2cbf4d8ee38c",
            "mixHash" : "0x0000000000000000000000000000000000000000000000000000000000000000",
            "nonce" : "0x0000000000000000",
            "number" : "0x0",
            "parentHash" : "0x0000000000000000000000000000000000000000000000000000000000000000",
            "receiptTrie" : "0x56e81f171bcc55a6ff8345e692c0f86e5b48e01b996cadc001622fb5e363b421",
            "stateRoot" : "0x0b926f7bda14d0a4b4b611597e34397f7c5e5e49025815cd5699127ae95f91fe",
            "timestamp" : "0x0",
            "transactionsTrie" : "0x56e81f171bcc55a6ff8345e692c0f86e5b48e01b996cadc001622fb5e363b421",
            "uncleHash" : "0x1dcc4de8dec75d7aab85b567b6ccd41ad312451b948a7413f0a142fd40d49347"
        },
        "pre" : {
            "0x1000000000000000000000000000000000000000" : {
                "balance" : "0x00",
                "code" : "0x67ffffffffffffffff600067ffffffffffffffff600060007310000000000000000000000000000000000000016707fffffffffffffff1506fffffffffffffffffffffffffffffffff60006fffffffffffffffffffffffffffffffff600060007310000000000000000000000000000000000000016707fffffffffffffff1507fffffffffffffffffffffffffffffffffffffffffffffffffffffffffffffffff60007fffffffffffffffffffffffffffffffffffffffffffffffffffffffffffffffff600060007310000000000000000000000000000000000000016707fffffffffffffff15063ffffffff63ffffffff63ffffffff63ffffffff60007310000000000000000000000000000000000000016707fffffffffffffff15067ffffffffffffffff67ffffffffffffffff67ffffffffffffffff67ffffffffffffffff60007310000000000000000000000000000000000000016707fffffffffffffff1506fffffffffffffffffffffffffffffffff6fffffffffffffffffffffffffffffffff6fffffffffffffffffffffffffffffffff6fffffffffffffffffffffffffffffffff60007310000000000000000000000000000000000000016707fffffffffffffff1507fffffffffffffffffffffffffffffffffffffffffffffffffffffffffffffffff7fffffffffffffffffffffffffffffffffffffffffffffffffffffffffffffffff7fffffffffffffffffffffffffffffffffffffffffffffffffffffffffffffffff7fffffffffffffffffffffffffffffffffffffffffffffffffffffffffffffffff60007310000000000000000000000000000000000000016707fffffffffffffff100",
                "nonce" : "0x00",
                "storage" : {
                }
            },
            "0x1000000000000000000000000000000000000001" : {
                "balance" : "0x00",
                "code" : "0x60005460010160005500",
                "nonce" : "0x00",
                "storage" : {
                }
            },
            "0xa94f5374fce5edbc8e2a8697c15331677e6ebf0b" : {
                "balance" : "0xffffffffffffffffffffffffffffffffffffffffffffffffffffff",
                "code" : "0x",
                "nonce" : "0x00",
                "storage" : {
                }
            }
        },
        "postState" : {
            "0xa94f5374fce5edbc8e2a8697c15331677e6ebf0b" : {
                "code" : "0x",
                "nonce" : "0x01",
                "balance" : "0xfffffffffffffffffffffffffffffffffffffffffffffffff0bdbf",
                "storage" : {
                }
            },
            "0x1000000000000000000000000000000000000001" : {
                "code" : "0x60005460010160005500",
                "nonce" : "0x00",
                "balance" : "0x00",
                "storage" : {
                }
            },
            "0x2adc25665018aa1fe0e6bc666dac8fc2697ff9ba" : {
                "code" : "0x",
                "nonce" : "0x00",
                "balance" : "0x1bc16d674ed74240",
                "storage" : {
                }
            },
            "0x1000000000000000000000000000000000000000" : {
                "code" : "0x67ffffffffffffffff600067ffffffffffffffff600060007310000000000000000000000000000000000000016707fffffffffffffff1506fffffffffffffffffffffffffffffffff60006fffffffffffffffffffffffffffffffff600060007310000000000000000000000000000000000000016707fffffffffffffff1507fffffffffffffffffffffffffffffffffffffffffffffffffffffffffffffffff60007fffffffffffffffffffffffffffffffffffffffffffffffffffffffffffffffff600060007310000000000000000000000000000000000000016707fffffffffffffff15063ffffffff63ffffffff63ffffffff63ffffffff60007310000000000000000000000000000000000000016707fffffffffffffff15067ffffffffffffffff67ffffffffffffffff67ffffffffffffffff67ffffffffffffffff60007310000000000000000000000000000000000000016707fffffffffffffff1506fffffffffffffffffffffffffffffffff6fffffffffffffffffffffffffffffffff6fffffffffffffffffffffffffffffffff6fffffffffffffffffffffffffffffffff60007310000000000000000000000000000000000000016707fffffffffffffff1507fffffffffffffffffffffffffffffffffffffffffffffffffffffffffffffffff7fffffffffffffffffffffffffffffffffffffffffffffffffffffffffffffffff7fffffffffffffffffffffffffffffffffffffffffffffffffffffffffffffffff7fffffffffffffffffffffffffffffffffffffffffffffffffffffffffffffffff60007310000000000000000000000000000000000000016707fffffffffffffff100",
                "nonce" : "0x00",
                "balance" : "0x00",
                "storage" : {
                }
            }
        },
        "network" : "Istanbul",
        "sealEngine" : "NoProof",
        "lastblockhash" : "0x0c6b9eacfa3a3748edb199b1c1267dd91b59a0ff598ca15cf7d580578ba53d43",
        "genesisRLP" : "0xf901fdf901f8a00000000000000000000000000000000000000000000000000000000000000000a01dcc4de8dec75d7aab85b567b6ccd41ad312451b948a7413f0a142fd40d49347942adc25665018aa1fe0e6bc666dac8fc2697ff9baa00b926f7bda14d0a4b4b611597e34397f7c5e5e49025815cd5699127ae95f91fea056e81f171bcc55a6ff8345e692c0f86e5b48e01b996cadc001622fb5e363b421a056e81f171bcc55a6ff8345e692c0f86e5b48e01b996cadc001622fb5e363b421b90100000000000000000000000000000000000000000000000000000000000000000000000000000000000000000000000000000000000000000000000000000000000000000000000000000000000000000000000000000000000000000000000000000000000000000000000000000000000000000000000000000000000000000000000000000000000000000000000000000000000000000000000000000000000000000000000000000000000000000000000000000000000000000000000000000000000000000000000000000000000000000000000000000000000000000000000000000000000000000000000000000000000000000000000000000000008302000080887fffffffffffffff808000a00000000000000000000000000000000000000000000000000000000000000000880000000000000000c0c0",
        "blocks" : [
            {
                "rlp" : "0xf90265f901fda09ae2800eccbabeb299d2e38fa12f8fd584d4b7abdc86cafc328d2cbf4d8ee38ca01dcc4de8dec75d7aab85b567b6ccd41ad312451b948a7413f0a142fd40d49347942adc25665018aa1fe0e6bc666dac8fc2697ff9baa00628107a2cb2cba7e3e8a4ccaf711fe2ed9ea91a1db7827b61cf939ee48a0da5a0759a1418771df14e6cb03736844d6e890e175a325c7c1c27f85f230b2d2e5b58a06ebeb82e2fd4ad8ef581ba011ed8590752fbb658e86bb4f29d186cba3f7b1357b90100000000000000000000000000000000000000000000000000000000000000000000000000000000000000000000000000000000000000000000000000000000000000000000000000000000000000000000000000000000000000000000000000000000000000000000000000000000000000000000000000000000000000000000000000000000000000000000000000000000000000000000000000000000000000000000000000000000000000000000000000000000000000000000000000000000000000000000000000000000000000000000000000000000000000000000000000000000000000000000000000000000000000000000000000000000008302000001887fffffffffffffff830f42408203e800a00000000000000000000000000000000000000000000000000000000000000000880000000000000000f862f8608001830f424094100000000000000000000000000000000000000001801ba03e25058b9043ef9130f5423b04831a80989f086dacf5ff8468da47b0790086d7a04115beb874eee5f516fd60c91471249bde75186e260632ebf3567b7f05b3ea40c0",
                "blockHeader" : {
                    "bloom" : "0x00000000000000000000000000000000000000000000000000000000000000000000000000000000000000000000000000000000000000000000000000000000000000000000000000000000000000000000000000000000000000000000000000000000000000000000000000000000000000000000000000000000000000000000000000000000000000000000000000000000000000000000000000000000000000000000000000000000000000000000000000000000000000000000000000000000000000000000000000000000000000000000000000000000000000000000000000000000000000000000000000000000000000000000000000000000",
                    "coinbase" : "0x2adc25665018aa1fe0e6bc666dac8fc2697ff9ba",
                    "difficulty" : "0x20000",
                    "extraData" : "0x00",
                    "gasLimit" : "0x7fffffffffffffff",
                    "gasUsed" : "0xf4240",
                    "hash" : "0x0c6b9eacfa3a3748edb199b1c1267dd91b59a0ff598ca15cf7d580578ba53d43",
                    "mixHash" : "0x0000000000000000000000000000000000000000000000000000000000000000",
                    "nonce" : "0x0000000000000000",
                    "number" : "0x1",
                    "parentHash" : "0x9ae2800eccbabeb299d2e38fa12f8fd584d4b7abdc86cafc328d2cbf4d8ee38c",
                    "receiptTrie" : "0x6ebeb82e2fd4ad8ef581ba011ed8590752fbb658e86bb4f29d186cba3f7b1357",
                    "stateRoot" : "0x0628107a2cb2cba7e3e8a4ccaf711fe2ed9ea91a1db7827b61cf939ee48a0da5",
                    "timestamp" : "0x3e8",
                    "transactionsTrie" : "0x759a1418771df14e6cb03736844d6e890e175a325c7c1c27f85f230b2d2e5b58",
                    "uncleHash" : "0x1dcc4de8dec75d7aab85b567b6ccd41ad312451b948a7413f0a142fd40d49347"
                },
                "transactions" : [
                    {
                        "data" : "0x",
                        "gasLimit" : "0x0f4240",
                        "gasPrice" : "0x01",
                        "nonce" : "0x00",
                        "to" : "0x1000000000000000000000000000000000000000",
                        "value" : "0x01",
                        "v" : "0x1b",
                        "r" : "0x3e25058b9043ef9130f5423b04831a80989f086dacf5ff8468da47b0790086d7",
                        "s" : "0x4115beb874eee5f516fd60c91471249bde75186e260632ebf3567b7f05b3ea40"
                    }
                ]
            }
        ]
    },
    "CALL_Bounds3_d0g2v0_Istanbul" : {
        "_info" : {
            "comment" : "",
            "filling-rpc-server" : "Geth-1.9.6-unstable-63b18027-20190920",
            "filling-tool-version" : "retesteth-0.0.1+commit.0ae18aef.Linux.g++",
            "lllcversion" : "Version: 0.5.12-develop.2019.9.13+commit.2d601a4f.Linux.g++",
            "source" : "src/GeneralStateTestsFiller/stMemoryStressTest/CALL_Bounds3Filler.json",
            "sourceHash" : "0e2a48d88802c2aaa0b09cd47961af7effc2a9a6bd9322bc1b1b0a8729b59b21"
        },
        "genesisBlockHeader" : {
            "bloom" : "0x00000000000000000000000000000000000000000000000000000000000000000000000000000000000000000000000000000000000000000000000000000000000000000000000000000000000000000000000000000000000000000000000000000000000000000000000000000000000000000000000000000000000000000000000000000000000000000000000000000000000000000000000000000000000000000000000000000000000000000000000000000000000000000000000000000000000000000000000000000000000000000000000000000000000000000000000000000000000000000000000000000000000000000000000000000000",
            "coinbase" : "0x2adc25665018aa1fe0e6bc666dac8fc2697ff9ba",
            "difficulty" : "0x20000",
            "extraData" : "0x00",
            "gasLimit" : "0x7fffffffffffffff",
            "gasUsed" : "0x0",
            "hash" : "0x9ae2800eccbabeb299d2e38fa12f8fd584d4b7abdc86cafc328d2cbf4d8ee38c",
            "mixHash" : "0x0000000000000000000000000000000000000000000000000000000000000000",
            "nonce" : "0x0000000000000000",
            "number" : "0x0",
            "parentHash" : "0x0000000000000000000000000000000000000000000000000000000000000000",
            "receiptTrie" : "0x56e81f171bcc55a6ff8345e692c0f86e5b48e01b996cadc001622fb5e363b421",
            "stateRoot" : "0x0b926f7bda14d0a4b4b611597e34397f7c5e5e49025815cd5699127ae95f91fe",
            "timestamp" : "0x0",
            "transactionsTrie" : "0x56e81f171bcc55a6ff8345e692c0f86e5b48e01b996cadc001622fb5e363b421",
            "uncleHash" : "0x1dcc4de8dec75d7aab85b567b6ccd41ad312451b948a7413f0a142fd40d49347"
        },
        "pre" : {
            "0x1000000000000000000000000000000000000000" : {
                "balance" : "0x00",
                "code" : "0x67ffffffffffffffff600067ffffffffffffffff600060007310000000000000000000000000000000000000016707fffffffffffffff1506fffffffffffffffffffffffffffffffff60006fffffffffffffffffffffffffffffffff600060007310000000000000000000000000000000000000016707fffffffffffffff1507fffffffffffffffffffffffffffffffffffffffffffffffffffffffffffffffff60007fffffffffffffffffffffffffffffffffffffffffffffffffffffffffffffffff600060007310000000000000000000000000000000000000016707fffffffffffffff15063ffffffff63ffffffff63ffffffff63ffffffff60007310000000000000000000000000000000000000016707fffffffffffffff15067ffffffffffffffff67ffffffffffffffff67ffffffffffffffff67ffffffffffffffff60007310000000000000000000000000000000000000016707fffffffffffffff1506fffffffffffffffffffffffffffffffff6fffffffffffffffffffffffffffffffff6fffffffffffffffffffffffffffffffff6fffffffffffffffffffffffffffffffff60007310000000000000000000000000000000000000016707fffffffffffffff1507fffffffffffffffffffffffffffffffffffffffffffffffffffffffffffffffff7fffffffffffffffffffffffffffffffffffffffffffffffffffffffffffffffff7fffffffffffffffffffffffffffffffffffffffffffffffffffffffffffffffff7fffffffffffffffffffffffffffffffffffffffffffffffffffffffffffffffff60007310000000000000000000000000000000000000016707fffffffffffffff100",
                "nonce" : "0x00",
                "storage" : {
                }
            },
            "0x1000000000000000000000000000000000000001" : {
                "balance" : "0x00",
                "code" : "0x60005460010160005500",
                "nonce" : "0x00",
                "storage" : {
                }
            },
            "0xa94f5374fce5edbc8e2a8697c15331677e6ebf0b" : {
                "balance" : "0xffffffffffffffffffffffffffffffffffffffffffffffffffffff",
                "code" : "0x",
                "nonce" : "0x00",
                "storage" : {
                }
            }
        },
        "postState" : {
            "0xa94f5374fce5edbc8e2a8697c15331677e6ebf0b" : {
                "code" : "0x",
                "nonce" : "0x01",
                "balance" : "0xfffffffffffffffffffffffffffffffffffffffffffffff1194d7f",
                "storage" : {
                }
            },
            "0x1000000000000000000000000000000000000001" : {
                "code" : "0x60005460010160005500",
                "nonce" : "0x00",
                "balance" : "0x00",
                "storage" : {
                }
            },
            "0x2adc25665018aa1fe0e6bc666dac8fc2697ff9ba" : {
                "code" : "0x",
                "nonce" : "0x00",
                "balance" : "0x1bc16d675daeb280",
                "storage" : {
                }
            },
            "0x1000000000000000000000000000000000000000" : {
                "code" : "0x67ffffffffffffffff600067ffffffffffffffff600060007310000000000000000000000000000000000000016707fffffffffffffff1506fffffffffffffffffffffffffffffffff60006fffffffffffffffffffffffffffffffff600060007310000000000000000000000000000000000000016707fffffffffffffff1507fffffffffffffffffffffffffffffffffffffffffffffffffffffffffffffffff60007fffffffffffffffffffffffffffffffffffffffffffffffffffffffffffffffff600060007310000000000000000000000000000000000000016707fffffffffffffff15063ffffffff63ffffffff63ffffffff63ffffffff60007310000000000000000000000000000000000000016707fffffffffffffff15067ffffffffffffffff67ffffffffffffffff67ffffffffffffffff67ffffffffffffffff60007310000000000000000000000000000000000000016707fffffffffffffff1506fffffffffffffffffffffffffffffffff6fffffffffffffffffffffffffffffffff6fffffffffffffffffffffffffffffffff6fffffffffffffffffffffffffffffffff60007310000000000000000000000000000000000000016707fffffffffffffff1507fffffffffffffffffffffffffffffffffffffffffffffffffffffffffffffffff7fffffffffffffffffffffffffffffffffffffffffffffffffffffffffffffffff7fffffffffffffffffffffffffffffffffffffffffffffffffffffffffffffffff7fffffffffffffffffffffffffffffffffffffffffffffffffffffffffffffffff60007310000000000000000000000000000000000000016707fffffffffffffff100",
                "nonce" : "0x00",
                "balance" : "0x00",
                "storage" : {
                }
            }
        },
        "network" : "Istanbul",
        "sealEngine" : "NoProof",
        "lastblockhash" : "0xe13b06238979ed2cc2ed7f2c9057c1146365bc03dbf73fd45a897cb3048e7e3d",
        "genesisRLP" : "0xf901fdf901f8a00000000000000000000000000000000000000000000000000000000000000000a01dcc4de8dec75d7aab85b567b6ccd41ad312451b948a7413f0a142fd40d49347942adc25665018aa1fe0e6bc666dac8fc2697ff9baa00b926f7bda14d0a4b4b611597e34397f7c5e5e49025815cd5699127ae95f91fea056e81f171bcc55a6ff8345e692c0f86e5b48e01b996cadc001622fb5e363b421a056e81f171bcc55a6ff8345e692c0f86e5b48e01b996cadc001622fb5e363b421b90100000000000000000000000000000000000000000000000000000000000000000000000000000000000000000000000000000000000000000000000000000000000000000000000000000000000000000000000000000000000000000000000000000000000000000000000000000000000000000000000000000000000000000000000000000000000000000000000000000000000000000000000000000000000000000000000000000000000000000000000000000000000000000000000000000000000000000000000000000000000000000000000000000000000000000000000000000000000000000000000000000000000000000000000000000000008302000080887fffffffffffffff808000a00000000000000000000000000000000000000000000000000000000000000000880000000000000000c0c0",
        "blocks" : [
            {
                "rlp" : "0xf90267f901fea09ae2800eccbabeb299d2e38fa12f8fd584d4b7abdc86cafc328d2cbf4d8ee38ca01dcc4de8dec75d7aab85b567b6ccd41ad312451b948a7413f0a142fd40d49347942adc25665018aa1fe0e6bc666dac8fc2697ff9baa09ae278cca8d38cd4f3a100900bf27fd8ee4856bb1e8e75064a5879c1bc27b872a0169424331d5695b5f35e4f996370b73c523ae5fa8b48771e7a84a5157d0ee5f8a027408083641cf20cfde86cd87cd57bf10c741d7553352ca96118e31ab8ceb9ceb90100000000000000000000000000000000000000000000000000000000000000000000000000000000000000000000000000000000000000000000000000000000000000000000000000000000000000000000000000000000000000000000000000000000000000000000000000000000000000000000000000000000000000000000000000000000000000000000000000000000000000000000000000000000000000000000000000000000000000000000000000000000000000000000000000000000000000000000000000000000000000000000000000000000000000000000000000000000000000000000000000000000000000000000000000000000008302000001887fffffffffffffff840ee6b2808203e800a00000000000000000000000000000000000000000000000000000000000000000880000000000000000f863f8618001840ee6b28094100000000000000000000000000000000000000001801ca0b4d82d934cb8d0b959b87a51e42cd51d560d24a71047b2127e78830404837662a00e7c42d2e4ce666564a232a4705cf6e43a2bcf29ecbd7db39a21484d01383e75c0",
                "blockHeader" : {
                    "bloom" : "0x00000000000000000000000000000000000000000000000000000000000000000000000000000000000000000000000000000000000000000000000000000000000000000000000000000000000000000000000000000000000000000000000000000000000000000000000000000000000000000000000000000000000000000000000000000000000000000000000000000000000000000000000000000000000000000000000000000000000000000000000000000000000000000000000000000000000000000000000000000000000000000000000000000000000000000000000000000000000000000000000000000000000000000000000000000000",
                    "coinbase" : "0x2adc25665018aa1fe0e6bc666dac8fc2697ff9ba",
                    "difficulty" : "0x20000",
                    "extraData" : "0x00",
                    "gasLimit" : "0x7fffffffffffffff",
                    "gasUsed" : "0xee6b280",
                    "hash" : "0xe13b06238979ed2cc2ed7f2c9057c1146365bc03dbf73fd45a897cb3048e7e3d",
                    "mixHash" : "0x0000000000000000000000000000000000000000000000000000000000000000",
                    "nonce" : "0x0000000000000000",
                    "number" : "0x1",
                    "parentHash" : "0x9ae2800eccbabeb299d2e38fa12f8fd584d4b7abdc86cafc328d2cbf4d8ee38c",
                    "receiptTrie" : "0x27408083641cf20cfde86cd87cd57bf10c741d7553352ca96118e31ab8ceb9ce",
                    "stateRoot" : "0x9ae278cca8d38cd4f3a100900bf27fd8ee4856bb1e8e75064a5879c1bc27b872",
                    "timestamp" : "0x3e8",
                    "transactionsTrie" : "0x169424331d5695b5f35e4f996370b73c523ae5fa8b48771e7a84a5157d0ee5f8",
                    "uncleHash" : "0x1dcc4de8dec75d7aab85b567b6ccd41ad312451b948a7413f0a142fd40d49347"
                },
                "transactions" : [
                    {
                        "data" : "0x",
                        "gasLimit" : "0x0ee6b280",
                        "gasPrice" : "0x01",
                        "nonce" : "0x00",
                        "to" : "0x1000000000000000000000000000000000000000",
                        "value" : "0x01",
                        "v" : "0x1c",
                        "r" : "0xb4d82d934cb8d0b959b87a51e42cd51d560d24a71047b2127e78830404837662",
                        "s" : "0x0e7c42d2e4ce666564a232a4705cf6e43a2bcf29ecbd7db39a21484d01383e75"
                    }
                ]
            }
        ]
    }
}