{
    "CALL_Bounds_d0g0v0_Istanbul" : {
        "_info" : {
            "comment" : "",
            "filling-rpc-server" : "Geth-1.9.6-unstable-63b18027-20190920",
            "filling-tool-version" : "retesteth-0.0.1+commit.0ae18aef.Linux.g++",
            "lllcversion" : "Version: 0.5.12-develop.2019.9.13+commit.2d601a4f.Linux.g++",
            "source" : "src/GeneralStateTestsFiller/stMemoryStressTest/CALL_BoundsFiller.json",
            "sourceHash" : "4643d8dc55f607e78bfc5b99eecc2a4de1a1452e4df517436886b944bb278adf"
        },
        "genesisBlockHeader" : {
            "bloom" : "0x00000000000000000000000000000000000000000000000000000000000000000000000000000000000000000000000000000000000000000000000000000000000000000000000000000000000000000000000000000000000000000000000000000000000000000000000000000000000000000000000000000000000000000000000000000000000000000000000000000000000000000000000000000000000000000000000000000000000000000000000000000000000000000000000000000000000000000000000000000000000000000000000000000000000000000000000000000000000000000000000000000000000000000000000000000000",
            "coinbase" : "0x2adc25665018aa1fe0e6bc666dac8fc2697ff9ba",
            "difficulty" : "0x20000",
            "extraData" : "0x00",
            "gasLimit" : "0x7fffffffffffffff",
            "gasUsed" : "0x0",
            "hash" : "0x7994dfe9c32558a826f996534ca78df76095101934c5b85d9df58d2a69e30d08",
            "mixHash" : "0x0000000000000000000000000000000000000000000000000000000000000000",
            "nonce" : "0x0000000000000000",
            "number" : "0x0",
            "parentHash" : "0x0000000000000000000000000000000000000000000000000000000000000000",
            "receiptTrie" : "0x56e81f171bcc55a6ff8345e692c0f86e5b48e01b996cadc001622fb5e363b421",
            "stateRoot" : "0x01516d7d7d6bf6afec52353ec1ba31b2f771092e0d4d5d5c1188b5cd9e4326af",
            "timestamp" : "0x0",
            "transactionsTrie" : "0x56e81f171bcc55a6ff8345e692c0f86e5b48e01b996cadc001622fb5e363b421",
            "uncleHash" : "0x1dcc4de8dec75d7aab85b567b6ccd41ad312451b948a7413f0a142fd40d49347"
        },
        "pre" : {
            "0x1000000000000000000000000000000000000000" : {
                "balance" : "0x00",
                "code" : "0x600060006000600060007310000000000000000000000000000000000000016707fffffffffffffff150630fffffff6000630fffffff600060007310000000000000000000000000000000000000016707fffffffffffffff15063ffffffff600063ffffffff600060007310000000000000000000000000000000000000016707fffffffffffffff1506000630fffffff6000630fffffff60007310000000000000000000000000000000000000016707fffffffffffffff150600063ffffffff600063ffffffff60007310000000000000000000000000000000000000016707fffffffffffffff150600067ffffffffffffffff600067ffffffffffffffff60007310000000000000000000000000000000000000016707fffffffffffffff15060006fffffffffffffffffffffffffffffffff60006fffffffffffffffffffffffffffffffff60007310000000000000000000000000000000000000016707fffffffffffffff15060007fffffffffffffffffffffffffffffffffffffffffffffffffffffffffffffffff60007fffffffffffffffffffffffffffffffffffffffffffffffffffffffffffffffff60007310000000000000000000000000000000000000016707fffffffffffffff100",
                "nonce" : "0x00",
                "storage" : {
                }
            },
            "0x1000000000000000000000000000000000000001" : {
                "balance" : "0x00",
                "code" : "0x60005460010160005500",
                "nonce" : "0x00",
                "storage" : {
                }
            },
            "0xa94f5374fce5edbc8e2a8697c15331677e6ebf0b" : {
                "balance" : "0xffffffffffffffffffffffffffffffffffffffffffffffffffffff",
                "code" : "0x",
                "nonce" : "0x00",
                "storage" : {
                }
            }
        },
        "postState" : {
            "0xa94f5374fce5edbc8e2a8697c15331677e6ebf0b" : {
                "code" : "0x",
                "nonce" : "0x01",
                "balance" : "0xfffffffffffffffffffffffffffffffffffffffffffffffffdb60f",
                "storage" : {
                }
            },
            "0x1000000000000000000000000000000000000001" : {
                "code" : "0x60005460010160005500",
                "nonce" : "0x00",
                "balance" : "0x00",
                "storage" : {
                }
            },
            "0x2adc25665018aa1fe0e6bc666dac8fc2697ff9ba" : {
                "code" : "0x",
                "nonce" : "0x00",
                "balance" : "0x1bc16d674eca49f0",
                "storage" : {
                }
            },
            "0x1000000000000000000000000000000000000000" : {
                "code" : "0x600060006000600060007310000000000000000000000000000000000000016707fffffffffffffff150630fffffff6000630fffffff600060007310000000000000000000000000000000000000016707fffffffffffffff15063ffffffff600063ffffffff600060007310000000000000000000000000000000000000016707fffffffffffffff1506000630fffffff6000630fffffff60007310000000000000000000000000000000000000016707fffffffffffffff150600063ffffffff600063ffffffff60007310000000000000000000000000000000000000016707fffffffffffffff150600067ffffffffffffffff600067ffffffffffffffff60007310000000000000000000000000000000000000016707fffffffffffffff15060006fffffffffffffffffffffffffffffffff60006fffffffffffffffffffffffffffffffff60007310000000000000000000000000000000000000016707fffffffffffffff15060007fffffffffffffffffffffffffffffffffffffffffffffffffffffffffffffffff60007fffffffffffffffffffffffffffffffffffffffffffffffffffffffffffffffff60007310000000000000000000000000000000000000016707fffffffffffffff100",
                "nonce" : "0x00",
                "balance" : "0x00",
                "storage" : {
                }
            }
        },
        "network" : "Istanbul",
        "sealEngine" : "NoProof",
        "lastblockhash" : "0x190ceda5151e26bd5f4544e051affe68e8710e7af5862d934c7f18c35131f5fe",
        "genesisRLP" : "0xf901fdf901f8a00000000000000000000000000000000000000000000000000000000000000000a01dcc4de8dec75d7aab85b567b6ccd41ad312451b948a7413f0a142fd40d49347942adc25665018aa1fe0e6bc666dac8fc2697ff9baa001516d7d7d6bf6afec52353ec1ba31b2f771092e0d4d5d5c1188b5cd9e4326afa056e81f171bcc55a6ff8345e692c0f86e5b48e01b996cadc001622fb5e363b421a056e81f171bcc55a6ff8345e692c0f86e5b48e01b996cadc001622fb5e363b421b90100000000000000000000000000000000000000000000000000000000000000000000000000000000000000000000000000000000000000000000000000000000000000000000000000000000000000000000000000000000000000000000000000000000000000000000000000000000000000000000000000000000000000000000000000000000000000000000000000000000000000000000000000000000000000000000000000000000000000000000000000000000000000000000000000000000000000000000000000000000000000000000000000000000000000000000000000000000000000000000000000000000000000000000000000000000008302000080887fffffffffffffff808000a00000000000000000000000000000000000000000000000000000000000000000880000000000000000c0c0",
        "blocks" : [
            {
                "rlp" : "0xf90265f901fda07994dfe9c32558a826f996534ca78df76095101934c5b85d9df58d2a69e30d08a01dcc4de8dec75d7aab85b567b6ccd41ad312451b948a7413f0a142fd40d49347942adc25665018aa1fe0e6bc666dac8fc2697ff9baa00a2df62cac690c551879caa299b514a3b600dc96e81ab629a80f3488caad1fd1a020ba9b55d8fc4eca7a8962efa4eaa263e5b5d9e0bb537692518fd1649965ac04a0a0e10907f175886de9bd8cd4ac2c21d1db4109a3a9fecf60f54015ee102803fdb90100000000000000000000000000000000000000000000000000000000000000000000000000000000000000000000000000000000000000000000000000000000000000000000000000000000000000000000000000000000000000000000000000000000000000000000000000000000000000000000000000000000000000000000000000000000000000000000000000000000000000000000000000000000000000000000000000000000000000000000000000000000000000000000000000000000000000000000000000000000000000000000000000000000000000000000000000000000000000000000000000000000000000000000000000000000008302000001887fffffffffffffff830249f08203e800a00000000000000000000000000000000000000000000000000000000000000000880000000000000000f862f8608001830249f094100000000000000000000000000000000000000001801ba0a8d69db5cc7b988975447a2e77fa471a04e8738915df60767b3104a95bf95c1aa030d6d7f9cd259c5937c46412312a382eabaf62794a7f6d6183891f864057feecc0",
                "blockHeader" : {
                    "bloom" : "0x00000000000000000000000000000000000000000000000000000000000000000000000000000000000000000000000000000000000000000000000000000000000000000000000000000000000000000000000000000000000000000000000000000000000000000000000000000000000000000000000000000000000000000000000000000000000000000000000000000000000000000000000000000000000000000000000000000000000000000000000000000000000000000000000000000000000000000000000000000000000000000000000000000000000000000000000000000000000000000000000000000000000000000000000000000000",
                    "coinbase" : "0x2adc25665018aa1fe0e6bc666dac8fc2697ff9ba",
                    "difficulty" : "0x20000",
                    "extraData" : "0x00",
                    "gasLimit" : "0x7fffffffffffffff",
                    "gasUsed" : "0x249f0",
                    "hash" : "0x190ceda5151e26bd5f4544e051affe68e8710e7af5862d934c7f18c35131f5fe",
                    "mixHash" : "0x0000000000000000000000000000000000000000000000000000000000000000",
                    "nonce" : "0x0000000000000000",
                    "number" : "0x1",
                    "parentHash" : "0x7994dfe9c32558a826f996534ca78df76095101934c5b85d9df58d2a69e30d08",
                    "receiptTrie" : "0xa0e10907f175886de9bd8cd4ac2c21d1db4109a3a9fecf60f54015ee102803fd",
                    "stateRoot" : "0x0a2df62cac690c551879caa299b514a3b600dc96e81ab629a80f3488caad1fd1",
                    "timestamp" : "0x3e8",
                    "transactionsTrie" : "0x20ba9b55d8fc4eca7a8962efa4eaa263e5b5d9e0bb537692518fd1649965ac04",
                    "uncleHash" : "0x1dcc4de8dec75d7aab85b567b6ccd41ad312451b948a7413f0a142fd40d49347"
                },
                "transactions" : [
                    {
                        "data" : "0x",
                        "gasLimit" : "0x0249f0",
                        "gasPrice" : "0x01",
                        "nonce" : "0x00",
                        "to" : "0x1000000000000000000000000000000000000000",
                        "value" : "0x01",
                        "v" : "0x1b",
                        "r" : "0xa8d69db5cc7b988975447a2e77fa471a04e8738915df60767b3104a95bf95c1a",
                        "s" : "0x30d6d7f9cd259c5937c46412312a382eabaf62794a7f6d6183891f864057feec"
                    }
                ]
            }
        ]
    },
    "CALL_Bounds_d0g1v0_Istanbul" : {
        "_info" : {
            "comment" : "",
            "filling-rpc-server" : "Geth-1.9.6-unstable-63b18027-20190920",
            "filling-tool-version" : "retesteth-0.0.1+commit.0ae18aef.Linux.g++",
            "lllcversion" : "Version: 0.5.12-develop.2019.9.13+commit.2d601a4f.Linux.g++",
            "source" : "src/GeneralStateTestsFiller/stMemoryStressTest/CALL_BoundsFiller.json",
            "sourceHash" : "4643d8dc55f607e78bfc5b99eecc2a4de1a1452e4df517436886b944bb278adf"
        },
        "genesisBlockHeader" : {
            "bloom" : "0x00000000000000000000000000000000000000000000000000000000000000000000000000000000000000000000000000000000000000000000000000000000000000000000000000000000000000000000000000000000000000000000000000000000000000000000000000000000000000000000000000000000000000000000000000000000000000000000000000000000000000000000000000000000000000000000000000000000000000000000000000000000000000000000000000000000000000000000000000000000000000000000000000000000000000000000000000000000000000000000000000000000000000000000000000000000",
            "coinbase" : "0x2adc25665018aa1fe0e6bc666dac8fc2697ff9ba",
            "difficulty" : "0x20000",
            "extraData" : "0x00",
            "gasLimit" : "0x7fffffffffffffff",
            "gasUsed" : "0x0",
            "hash" : "0x7994dfe9c32558a826f996534ca78df76095101934c5b85d9df58d2a69e30d08",
            "mixHash" : "0x0000000000000000000000000000000000000000000000000000000000000000",
            "nonce" : "0x0000000000000000",
            "number" : "0x0",
            "parentHash" : "0x0000000000000000000000000000000000000000000000000000000000000000",
            "receiptTrie" : "0x56e81f171bcc55a6ff8345e692c0f86e5b48e01b996cadc001622fb5e363b421",
            "stateRoot" : "0x01516d7d7d6bf6afec52353ec1ba31b2f771092e0d4d5d5c1188b5cd9e4326af",
            "timestamp" : "0x0",
            "transactionsTrie" : "0x56e81f171bcc55a6ff8345e692c0f86e5b48e01b996cadc001622fb5e363b421",
            "uncleHash" : "0x1dcc4de8dec75d7aab85b567b6ccd41ad312451b948a7413f0a142fd40d49347"
        },
        "pre" : {
            "0x1000000000000000000000000000000000000000" : {
                "balance" : "0x00",
                "code" : "0x600060006000600060007310000000000000000000000000000000000000016707fffffffffffffff150630fffffff6000630fffffff600060007310000000000000000000000000000000000000016707fffffffffffffff15063ffffffff600063ffffffff600060007310000000000000000000000000000000000000016707fffffffffffffff1506000630fffffff6000630fffffff60007310000000000000000000000000000000000000016707fffffffffffffff150600063ffffffff600063ffffffff60007310000000000000000000000000000000000000016707fffffffffffffff150600067ffffffffffffffff600067ffffffffffffffff60007310000000000000000000000000000000000000016707fffffffffffffff15060006fffffffffffffffffffffffffffffffff60006fffffffffffffffffffffffffffffffff60007310000000000000000000000000000000000000016707fffffffffffffff15060007fffffffffffffffffffffffffffffffffffffffffffffffffffffffffffffffff60007fffffffffffffffffffffffffffffffffffffffffffffffffffffffffffffffff60007310000000000000000000000000000000000000016707fffffffffffffff100",
                "nonce" : "0x00",
                "storage" : {
                }
            },
            "0x1000000000000000000000000000000000000001" : {
                "balance" : "0x00",
                "code" : "0x60005460010160005500",
                "nonce" : "0x00",
                "storage" : {
                }
            },
            "0xa94f5374fce5edbc8e2a8697c15331677e6ebf0b" : {
                "balance" : "0xffffffffffffffffffffffffffffffffffffffffffffffffffffff",
                "code" : "0x",
                "nonce" : "0x00",
                "storage" : {
                }
            }
        },
        "postState" : {
            "0xa94f5374fce5edbc8e2a8697c15331677e6ebf0b" : {
                "code" : "0x",
                "nonce" : "0x01",
                "balance" : "0xfffffffffffffffffffffffffffffffffffffffffffffff1194d7f",
                "storage" : {
                }
            },
            "0x1000000000000000000000000000000000000001" : {
                "code" : "0x60005460010160005500",
                "nonce" : "0x00",
                "balance" : "0x00",
                "storage" : {
                }
            },
            "0x2adc25665018aa1fe0e6bc666dac8fc2697ff9ba" : {
                "code" : "0x",
                "nonce" : "0x00",
                "balance" : "0x1bc16d675daeb280",
                "storage" : {
                }
            },
            "0x1000000000000000000000000000000000000000" : {
                "code" : "0x600060006000600060007310000000000000000000000000000000000000016707fffffffffffffff150630fffffff6000630fffffff600060007310000000000000000000000000000000000000016707fffffffffffffff15063ffffffff600063ffffffff600060007310000000000000000000000000000000000000016707fffffffffffffff1506000630fffffff6000630fffffff60007310000000000000000000000000000000000000016707fffffffffffffff150600063ffffffff600063ffffffff60007310000000000000000000000000000000000000016707fffffffffffffff150600067ffffffffffffffff600067ffffffffffffffff60007310000000000000000000000000000000000000016707fffffffffffffff15060006fffffffffffffffffffffffffffffffff60006fffffffffffffffffffffffffffffffff60007310000000000000000000000000000000000000016707fffffffffffffff15060007fffffffffffffffffffffffffffffffffffffffffffffffffffffffffffffffff60007fffffffffffffffffffffffffffffffffffffffffffffffffffffffffffffffff60007310000000000000000000000000000000000000016707fffffffffffffff100",
                "nonce" : "0x00",
                "balance" : "0x00",
                "storage" : {
                }
            }
        },
        "network" : "Istanbul",
        "sealEngine" : "NoProof",
        "lastblockhash" : "0xc6347d50fe154cfa495f62511414dc6160268f31d8f536f37d83d259a94d8f4d",
        "genesisRLP" : "0xf901fdf901f8a00000000000000000000000000000000000000000000000000000000000000000a01dcc4de8dec75d7aab85b567b6ccd41ad312451b948a7413f0a142fd40d49347942adc25665018aa1fe0e6bc666dac8fc2697ff9baa001516d7d7d6bf6afec52353ec1ba31b2f771092e0d4d5d5c1188b5cd9e4326afa056e81f171bcc55a6ff8345e692c0f86e5b48e01b996cadc001622fb5e363b421a056e81f171bcc55a6ff8345e692c0f86e5b48e01b996cadc001622fb5e363b421b90100000000000000000000000000000000000000000000000000000000000000000000000000000000000000000000000000000000000000000000000000000000000000000000000000000000000000000000000000000000000000000000000000000000000000000000000000000000000000000000000000000000000000000000000000000000000000000000000000000000000000000000000000000000000000000000000000000000000000000000000000000000000000000000000000000000000000000000000000000000000000000000000000000000000000000000000000000000000000000000000000000000000000000000000000000000008302000080887fffffffffffffff808000a00000000000000000000000000000000000000000000000000000000000000000880000000000000000c0c0",
        "blocks" : [
            {
                "rlp" : "0xf90267f901fea07994dfe9c32558a826f996534ca78df76095101934c5b85d9df58d2a69e30d08a01dcc4de8dec75d7aab85b567b6ccd41ad312451b948a7413f0a142fd40d49347942adc25665018aa1fe0e6bc666dac8fc2697ff9baa0670c3e78cabb74a22944d2601cf8769fec377d2145c4766a6e5f3b265023cfcca0169424331d5695b5f35e4f996370b73c523ae5fa8b48771e7a84a5157d0ee5f8a027408083641cf20cfde86cd87cd57bf10c741d7553352ca96118e31ab8ceb9ceb90100000000000000000000000000000000000000000000000000000000000000000000000000000000000000000000000000000000000000000000000000000000000000000000000000000000000000000000000000000000000000000000000000000000000000000000000000000000000000000000000000000000000000000000000000000000000000000000000000000000000000000000000000000000000000000000000000000000000000000000000000000000000000000000000000000000000000000000000000000000000000000000000000000000000000000000000000000000000000000000000000000000000000000000000000000000008302000001887fffffffffffffff840ee6b2808203e800a00000000000000000000000000000000000000000000000000000000000000000880000000000000000f863f8618001840ee6b28094100000000000000000000000000000000000000001801ca0b4d82d934cb8d0b959b87a51e42cd51d560d24a71047b2127e78830404837662a00e7c42d2e4ce666564a232a4705cf6e43a2bcf29ecbd7db39a21484d01383e75c0",
                "blockHeader" : {
                    "bloom" : "0x00000000000000000000000000000000000000000000000000000000000000000000000000000000000000000000000000000000000000000000000000000000000000000000000000000000000000000000000000000000000000000000000000000000000000000000000000000000000000000000000000000000000000000000000000000000000000000000000000000000000000000000000000000000000000000000000000000000000000000000000000000000000000000000000000000000000000000000000000000000000000000000000000000000000000000000000000000000000000000000000000000000000000000000000000000000",
                    "coinbase" : "0x2adc25665018aa1fe0e6bc666dac8fc2697ff9ba",
                    "difficulty" : "0x20000",
                    "extraData" : "0x00",
                    "gasLimit" : "0x7fffffffffffffff",
                    "gasUsed" : "0xee6b280",
                    "hash" : "0xc6347d50fe154cfa495f62511414dc6160268f31d8f536f37d83d259a94d8f4d",
                    "mixHash" : "0x0000000000000000000000000000000000000000000000000000000000000000",
                    "nonce" : "0x0000000000000000",
                    "number" : "0x1",
                    "parentHash" : "0x7994dfe9c32558a826f996534ca78df76095101934c5b85d9df58d2a69e30d08",
                    "receiptTrie" : "0x27408083641cf20cfde86cd87cd57bf10c741d7553352ca96118e31ab8ceb9ce",
                    "stateRoot" : "0x670c3e78cabb74a22944d2601cf8769fec377d2145c4766a6e5f3b265023cfcc",
                    "timestamp" : "0x3e8",
                    "transactionsTrie" : "0x169424331d5695b5f35e4f996370b73c523ae5fa8b48771e7a84a5157d0ee5f8",
                    "uncleHash" : "0x1dcc4de8dec75d7aab85b567b6ccd41ad312451b948a7413f0a142fd40d49347"
                },
                "transactions" : [
                    {
                        "data" : "0x",
                        "gasLimit" : "0x0ee6b280",
                        "gasPrice" : "0x01",
                        "nonce" : "0x00",
                        "to" : "0x1000000000000000000000000000000000000000",
                        "value" : "0x01",
                        "v" : "0x1c",
                        "r" : "0xb4d82d934cb8d0b959b87a51e42cd51d560d24a71047b2127e78830404837662",
                        "s" : "0x0e7c42d2e4ce666564a232a4705cf6e43a2bcf29ecbd7db39a21484d01383e75"
                    }
                ]
            }
        ]
    }
}