{
    "CALL_OneVCallSuicide_d0g0v0_Istanbul" : {
        "_info" : {
            "comment" : "",
            "filling-rpc-server" : "Geth-1.9.6-unstable-63b18027-20190920",
            "filling-tool-version" : "retesteth-0.0.1+commit.0ae18aef.Linux.g++",
            "lllcversion" : "Version: 0.5.12-develop.2019.9.13+commit.2d601a4f.Linux.g++",
            "source" : "src/GeneralStateTestsFiller/stEIP158Specific/CALL_OneVCallSuicideFiller.json",
            "sourceHash" : "2c6091336393e4799cee041d937a3b818331ae42af71358e9aa44f60a94b9d91"
        },
        "genesisBlockHeader" : {
            "bloom" : "0x00000000000000000000000000000000000000000000000000000000000000000000000000000000000000000000000000000000000000000000000000000000000000000000000000000000000000000000000000000000000000000000000000000000000000000000000000000000000000000000000000000000000000000000000000000000000000000000000000000000000000000000000000000000000000000000000000000000000000000000000000000000000000000000000000000000000000000000000000000000000000000000000000000000000000000000000000000000000000000000000000000000000000000000000000000000",
            "coinbase" : "0x2adc25665018aa1fe0e6bc666dac8fc2697ff9ba",
            "difficulty" : "0x20000",
            "extraData" : "0x00",
            "gasLimit" : "0x989680",
            "gasUsed" : "0x0",
            "hash" : "0x0a832c102f508dbba5955cf2ff8658ea3423091fe17a551f77477ab6e5b6d1ce",
            "mixHash" : "0x0000000000000000000000000000000000000000000000000000000000000000",
            "nonce" : "0x0000000000000000",
            "number" : "0x0",
            "parentHash" : "0x0000000000000000000000000000000000000000000000000000000000000000",
            "receiptTrie" : "0x56e81f171bcc55a6ff8345e692c0f86e5b48e01b996cadc001622fb5e363b421",
            "stateRoot" : "0xc6778b8bebfc22980b9c867a5b71d275430d4ae7d4af45c5443591b0713d27b6",
            "timestamp" : "0x0",
            "transactionsTrie" : "0x56e81f171bcc55a6ff8345e692c0f86e5b48e01b996cadc001622fb5e363b421",
            "uncleHash" : "0x1dcc4de8dec75d7aab85b567b6ccd41ad312451b948a7413f0a142fd40d49347"
        },
        "pre" : {
            "0xa94f5374fce5edbc8e2a8697c15331677e6ebf0b" : {
                "balance" : "0xe8d4a51000",
                "code" : "0x",
                "nonce" : "0x00",
                "storage" : {
                }
            },
            "0xb94f5374fce5edbc8e2a8697c15331677e6ebf0b" : {
                "balance" : "0x64",
                "code" : "0x5a6000556000600060006000600173c94f5374fce5edbc8e2a8697c15331677e6ebf0b61ea60f1505a60645500",
                "nonce" : "0x00",
                "storage" : {
                }
            },
            "0xc94f5374fce5edbc8e2a8697c15331677e6ebf0b" : {
                "balance" : "0x00",
                "code" : "0x73b94f5374fce5edbc8e2a8697c15331677e6ebf0bff00",
                "nonce" : "0x00",
                "storage" : {
                }
            }
        },
        "postState" : {
            "0xa94f5374fce5edbc8e2a8697c15331677e6ebf0b" : {
                "code" : "0x",
                "nonce" : "0x01",
                "balance" : "0xe8d4a44ee4",
                "storage" : {
                }
            },
            "0x2adc25665018aa1fe0e6bc666dac8fc2697ff9ba" : {
                "code" : "0x",
                "nonce" : "0x00",
                "balance" : "0x1bc16d674ec8c11c",
                "storage" : {
                }
            },
            "0xb94f5374fce5edbc8e2a8697c15331677e6ebf0b" : {
                "code" : "0x5a6000556000600060006000600173c94f5374fce5edbc8e2a8697c15331677e6ebf0b61ea60f1505a60645500",
                "nonce" : "0x00",
                "balance" : "0x64",
                "storage" : {
                    "0x64" : "0x085707",
                    "0x00" : "0x08d5b6"
                }
            }
        },
        "network" : "Istanbul",
        "sealEngine" : "NoProof",
        "lastblockhash" : "0xbe84b3683aa3c5847b996a7fbe0b776a6f44a3527b6baaa62ca81c9fa227d8b0",
        "genesisRLP" : "0xf901f8f901f3a00000000000000000000000000000000000000000000000000000000000000000a01dcc4de8dec75d7aab85b567b6ccd41ad312451b948a7413f0a142fd40d49347942adc25665018aa1fe0e6bc666dac8fc2697ff9baa0c6778b8bebfc22980b9c867a5b71d275430d4ae7d4af45c5443591b0713d27b6a056e81f171bcc55a6ff8345e692c0f86e5b48e01b996cadc001622fb5e363b421a056e81f171bcc55a6ff8345e692c0f86e5b48e01b996cadc001622fb5e363b421b9010000000000000000000000000000000000000000000000000000000000000000000000000000000000000000000000000000000000000000000000000000000000000000000000000000000000000000000000000000000000000000000000000000000000000000000000000000000000000000000000000000000000000000000000000000000000000000000000000000000000000000000000000000000000000000000000000000000000000000000000000000000000000000000000000000000000000000000000000000000000000000000000000000000000000000000000000000000000000000000000000000000000000000000000000000000000830200008083989680808000a00000000000000000000000000000000000000000000000000000000000000000880000000000000000c0c0",
        "blocks" : [
            {
                "rlp" : "0xf9025ff901f7a00a832c102f508dbba5955cf2ff8658ea3423091fe17a551f77477ab6e5b6d1cea01dcc4de8dec75d7aab85b567b6ccd41ad312451b948a7413f0a142fd40d49347942adc25665018aa1fe0e6bc666dac8fc2697ff9baa0df1b33a0632ae38baaad6e5b4501cbd23ab7ccc324fd380d33c61f74b31e2a8ea059652e5662eb625efd106d67b9b25d3c12a15e69494d1d24f59d867c211f6761a0141d3105f45a668eb1caa4bd529d1586d21ea9110812926457d9a6c4a6924863b901000000000000000000000000000000000000000000000000000000000000000000000000000000000000000000000000000000000000000000000000000000000000000000000000000000000000000000000000000000000000000000000000000000000000000000000000000000000000000000000000000000000000000000000000000000000000000000000000000000000000000000000000000000000000000000000000000000000000000000000000000000000000000000000000000000000000000000000000000000000000000000000000000000000000000000000000000000000000000000000000000000000000000000000000000000000083020000018398bca482c11c8203e800a00000000000000000000000000000000000000000000000000000000000000000880000000000000000f862f8608001830927c094b94f5374fce5edbc8e2a8697c15331677e6ebf0b80801ba08d0699f23d032b86db35ed7bb39c2357bec870fbfbe7db30b1795d320d8965c6a002f578fd949e84f0dc1307f5dd714c9a7158b31891d43f45459edcb52e345f7cc0",
                "blockHeader" : {
                    "bloom" : "0x00000000000000000000000000000000000000000000000000000000000000000000000000000000000000000000000000000000000000000000000000000000000000000000000000000000000000000000000000000000000000000000000000000000000000000000000000000000000000000000000000000000000000000000000000000000000000000000000000000000000000000000000000000000000000000000000000000000000000000000000000000000000000000000000000000000000000000000000000000000000000000000000000000000000000000000000000000000000000000000000000000000000000000000000000000000",
                    "coinbase" : "0x2adc25665018aa1fe0e6bc666dac8fc2697ff9ba",
                    "difficulty" : "0x20000",
                    "extraData" : "0x00",
                    "gasLimit" : "0x98bca4",
                    "gasUsed" : "0xc11c",
                    "hash" : "0xbe84b3683aa3c5847b996a7fbe0b776a6f44a3527b6baaa62ca81c9fa227d8b0",
                    "mixHash" : "0x0000000000000000000000000000000000000000000000000000000000000000",
                    "nonce" : "0x0000000000000000",
                    "number" : "0x1",
                    "parentHash" : "0x0a832c102f508dbba5955cf2ff8658ea3423091fe17a551f77477ab6e5b6d1ce",
                    "receiptTrie" : "0x141d3105f45a668eb1caa4bd529d1586d21ea9110812926457d9a6c4a6924863",
                    "stateRoot" : "0xdf1b33a0632ae38baaad6e5b4501cbd23ab7ccc324fd380d33c61f74b31e2a8e",
                    "timestamp" : "0x3e8",
                    "transactionsTrie" : "0x59652e5662eb625efd106d67b9b25d3c12a15e69494d1d24f59d867c211f6761",
                    "uncleHash" : "0x1dcc4de8dec75d7aab85b567b6ccd41ad312451b948a7413f0a142fd40d49347"
                },
                "transactions" : [
                    {
                        "data" : "0x",
                        "gasLimit" : "0x0927c0",
                        "gasPrice" : "0x01",
                        "nonce" : "0x00",
                        "to" : "0xb94f5374fce5edbc8e2a8697c15331677e6ebf0b",
                        "value" : "0x00",
                        "v" : "0x1b",
                        "r" : "0x8d0699f23d032b86db35ed7bb39c2357bec870fbfbe7db30b1795d320d8965c6",
                        "s" : "0x02f578fd949e84f0dc1307f5dd714c9a7158b31891d43f45459edcb52e345f7c"
                    }
                ]
            }
        ]
    }
}