{
    "EXP_Empty_d0g0v0_Istanbul" : {
        "_info" : {
            "comment" : "",
            "filling-rpc-server" : "Geth-1.9.6-unstable-63b18027-20190920",
            "filling-tool-version" : "retesteth-0.0.1+commit.0ae18aef.Linux.g++",
            "lllcversion" : "Version: 0.5.12-develop.2019.9.13+commit.2d601a4f.Linux.g++",
            "source" : "src/GeneralStateTestsFiller/stEIP158Specific/EXP_EmptyFiller.json",
            "sourceHash" : "8d8b0bbf4944c7405ab47dc9bae2f6dd1e98ad142dc05af6d92ae30dfdfd9938"
        },
        "genesisBlockHeader" : {
            "bloom" : "0x00000000000000000000000000000000000000000000000000000000000000000000000000000000000000000000000000000000000000000000000000000000000000000000000000000000000000000000000000000000000000000000000000000000000000000000000000000000000000000000000000000000000000000000000000000000000000000000000000000000000000000000000000000000000000000000000000000000000000000000000000000000000000000000000000000000000000000000000000000000000000000000000000000000000000000000000000000000000000000000000000000000000000000000000000000000",
            "coinbase" : "0x2adc25665018aa1fe0e6bc666dac8fc2697ff9ba",
            "difficulty" : "0x20000",
            "extraData" : "0x00",
            "gasLimit" : "0x989680",
            "gasUsed" : "0x0",
            "hash" : "0xb092bcf8a2a53dd1938553c3e62ff53ea1893eda758b425828590b56524a18bc",
            "mixHash" : "0x0000000000000000000000000000000000000000000000000000000000000000",
            "nonce" : "0x0000000000000000",
            "number" : "0x0",
            "parentHash" : "0x0000000000000000000000000000000000000000000000000000000000000000",
            "receiptTrie" : "0x56e81f171bcc55a6ff8345e692c0f86e5b48e01b996cadc001622fb5e363b421",
            "stateRoot" : "0x210f167ec3dab0fb1de514292269fd09c484b41ed61752e5db8437000ab4e3ab",
            "timestamp" : "0x0",
            "transactionsTrie" : "0x56e81f171bcc55a6ff8345e692c0f86e5b48e01b996cadc001622fb5e363b421",
            "uncleHash" : "0x1dcc4de8dec75d7aab85b567b6ccd41ad312451b948a7413f0a142fd40d49347"
        },
        "pre" : {
            "0xa94f5374fce5edbc8e2a8697c15331677e6ebf0b" : {
                "balance" : "0xe8d4a51000",
                "code" : "0x",
                "nonce" : "0x00",
                "storage" : {
                }
            },
            "0xb94f5374fce5edbc8e2a8697c15331677e6ebf0b" : {
                "balance" : "0x00",
                "code" : "0x5a600055600c60000a6001555a6002556000600c0a6003555a60045567ffffffffffffffff60000a6005555a6006556fffffffffffffffffffffffffffffffff60000a6007555a6008557fffffffffffffffffffffffffffffffffffffffffffffffffffffffffffffffff60000a6009555a600a55600067ffffffffffffffff0a600b555a600c5560006fffffffffffffffffffffffffffffffff0a600d555a600e5560007fffffffffffffffffffffffffffffffffffffffffffffffffffffffffffffffff0a600f555a60645500",
                "nonce" : "0x00",
                "storage" : {
                }
            }
        },
        "postState" : {
            "0xa94f5374fce5edbc8e2a8697c15331677e6ebf0b" : {
                "code" : "0x",
                "nonce" : "0x01",
                "balance" : "0xe8d4a0adf1",
                "storage" : {
                }
            },
            "0x2adc25665018aa1fe0e6bc666dac8fc2697ff9ba" : {
                "code" : "0x",
                "nonce" : "0x00",
                "balance" : "0x1bc16d674ecc620f",
                "storage" : {
                }
            },
            "0xb94f5374fce5edbc8e2a8697c15331677e6ebf0b" : {
                "code" : "0x5a600055600c60000a6001555a6002556000600c0a6003555a60045567ffffffffffffffff60000a6005555a6006556fffffffffffffffffffffffffffffffff60000a6007555a6008557fffffffffffffffffffffffffffffffffffffffffffffffffffffffffffffffff60000a6009555a600a55600067ffffffffffffffff0a600b555a600c5560006fffffffffffffffffffffffffffffffff0a600d555a600e5560007fffffffffffffffffffffffffffffffffffffffffffffffffffffffffffffffff0a600f555a60645500",
                "nonce" : "0x00",
                "balance" : "0x00",
                "storage" : {
                    "0x0b" : "0x01",
                    "0x64" : "0x0513d4",
                    "0x00" : "0x08d5b6",
                    "0x02" : "0x08842c",
                    "0x04" : "0x07e7d4",
                    "0x0f" : "0x01",
                    "0x0e" : "0x05b02c",
                    "0x03" : "0x01",
                    "0x0a" : "0x06e8dc",
                    "0x0d" : "0x01",
                    "0x0c" : "0x064c84",
                    "0x08" : "0x074074",
                    "0x06" : "0x0794ec"
                }
            }
        },
        "network" : "Istanbul",
        "sealEngine" : "NoProof",
        "lastblockhash" : "0xa04593ff0a35370ac8d06cc3b1bf080128750498dfc79511511b452a7ee8e5dd",
        "genesisRLP" : "0xf901f8f901f3a00000000000000000000000000000000000000000000000000000000000000000a01dcc4de8dec75d7aab85b567b6ccd41ad312451b948a7413f0a142fd40d49347942adc25665018aa1fe0e6bc666dac8fc2697ff9baa0210f167ec3dab0fb1de514292269fd09c484b41ed61752e5db8437000ab4e3aba056e81f171bcc55a6ff8345e692c0f86e5b48e01b996cadc001622fb5e363b421a056e81f171bcc55a6ff8345e692c0f86e5b48e01b996cadc001622fb5e363b421b9010000000000000000000000000000000000000000000000000000000000000000000000000000000000000000000000000000000000000000000000000000000000000000000000000000000000000000000000000000000000000000000000000000000000000000000000000000000000000000000000000000000000000000000000000000000000000000000000000000000000000000000000000000000000000000000000000000000000000000000000000000000000000000000000000000000000000000000000000000000000000000000000000000000000000000000000000000000000000000000000000000000000000000000000000000000000830200008083989680808000a00000000000000000000000000000000000000000000000000000000000000000880000000000000000c0c0",
        "blocks" : [
            {
                "rlp" : "0xf90260f901f8a0b092bcf8a2a53dd1938553c3e62ff53ea1893eda758b425828590b56524a18bca01dcc4de8dec75d7aab85b567b6ccd41ad312451b948a7413f0a142fd40d49347942adc25665018aa1fe0e6bc666dac8fc2697ff9baa0df98679da9252477cc36a3b02d4a4a4b4e48269ca0b4de837f172857c3acf651a059652e5662eb625efd106d67b9b25d3c12a15e69494d1d24f59d867c211f6761a0f066e8c54a17544d70952d6eb94069eb2ee58bd0b5f83bde6d75f61d866d8b7ab901000000000000000000000000000000000000000000000000000000000000000000000000000000000000000000000000000000000000000000000000000000000000000000000000000000000000000000000000000000000000000000000000000000000000000000000000000000000000000000000000000000000000000000000000000000000000000000000000000000000000000000000000000000000000000000000000000000000000000000000000000000000000000000000000000000000000000000000000000000000000000000000000000000000000000000000000000000000000000000000000000000000000000000000000000000000083020000018398bca48304620f8203e800a00000000000000000000000000000000000000000000000000000000000000000880000000000000000f862f8608001830927c094b94f5374fce5edbc8e2a8697c15331677e6ebf0b80801ba08d0699f23d032b86db35ed7bb39c2357bec870fbfbe7db30b1795d320d8965c6a002f578fd949e84f0dc1307f5dd714c9a7158b31891d43f45459edcb52e345f7cc0",
                "blockHeader" : {
                    "bloom" : "0x00000000000000000000000000000000000000000000000000000000000000000000000000000000000000000000000000000000000000000000000000000000000000000000000000000000000000000000000000000000000000000000000000000000000000000000000000000000000000000000000000000000000000000000000000000000000000000000000000000000000000000000000000000000000000000000000000000000000000000000000000000000000000000000000000000000000000000000000000000000000000000000000000000000000000000000000000000000000000000000000000000000000000000000000000000000",
                    "coinbase" : "0x2adc25665018aa1fe0e6bc666dac8fc2697ff9ba",
                    "difficulty" : "0x20000",
                    "extraData" : "0x00",
                    "gasLimit" : "0x98bca4",
                    "gasUsed" : "0x4620f",
                    "hash" : "0xa04593ff0a35370ac8d06cc3b1bf080128750498dfc79511511b452a7ee8e5dd",
                    "mixHash" : "0x0000000000000000000000000000000000000000000000000000000000000000",
                    "nonce" : "0x0000000000000000",
                    "number" : "0x1",
                    "parentHash" : "0xb092bcf8a2a53dd1938553c3e62ff53ea1893eda758b425828590b56524a18bc",
                    "receiptTrie" : "0xf066e8c54a17544d70952d6eb94069eb2ee58bd0b5f83bde6d75f61d866d8b7a",
                    "stateRoot" : "0xdf98679da9252477cc36a3b02d4a4a4b4e48269ca0b4de837f172857c3acf651",
                    "timestamp" : "0x3e8",
                    "transactionsTrie" : "0x59652e5662eb625efd106d67b9b25d3c12a15e69494d1d24f59d867c211f6761",
                    "uncleHash" : "0x1dcc4de8dec75d7aab85b567b6ccd41ad312451b948a7413f0a142fd40d49347"
                },
                "transactions" : [
                    {
                        "data" : "0x",
                        "gasLimit" : "0x0927c0",
                        "gasPrice" : "0x01",
                        "nonce" : "0x00",
                        "to" : "0xb94f5374fce5edbc8e2a8697c15331677e6ebf0b",
                        "value" : "0x00",
                        "v" : "0x1b",
                        "r" : "0x8d0699f23d032b86db35ed7bb39c2357bec870fbfbe7db30b1795d320d8965c6",
                        "s" : "0x02f578fd949e84f0dc1307f5dd714c9a7158b31891d43f45459edcb52e345f7c"
                    }
                ]
            }
        ]
    }
}