{
    "vitalikTransactionTest_d0g0v0_Istanbul" : {
        "_info" : {
            "comment" : "",
            "filling-rpc-server" : "Geth-1.9.6-unstable-63b18027-20190920",
            "filling-tool-version" : "retesteth-0.0.1+commit.0ae18aef.Linux.g++",
            "lllcversion" : "Version: 0.5.12-develop.2019.9.13+commit.2d601a4f.Linux.g++",
            "source" : "src/GeneralStateTestsFiller/stEIP158Specific/vitalikTransactionTestFiller.json",
            "sourceHash" : "742bf45ac59392d856dcb81951a68a543df0052081ca219b64d47a90685ddccd"
        },
        "genesisBlockHeader" : {
            "bloom" : "0x00000000000000000000000000000000000000000000000000000000000000000000000000000000000000000000000000000000000000000000000000000000000000000000000000000000000000000000000000000000000000000000000000000000000000000000000000000000000000000000000000000000000000000000000000000000000000000000000000000000000000000000000000000000000000000000000000000000000000000000000000000000000000000000000000000000000000000000000000000000000000000000000000000000000000000000000000000000000000000000000000000000000000000000000000000000",
            "coinbase" : "0x2adc25665018aa1fe0e6bc666dac8fc2697ff9ba",
            "difficulty" : "0x20000",
            "extraData" : "0x00",
            "gasLimit" : "0x989680",
            "gasUsed" : "0x0",
            "hash" : "0x86e03328b4f7b79b2919a88709a2a6f51a74726523e0f729d97ef5dda26aea0e",
            "mixHash" : "0x0000000000000000000000000000000000000000000000000000000000000000",
            "nonce" : "0x0000000000000000",
            "number" : "0x0",
            "parentHash" : "0x0000000000000000000000000000000000000000000000000000000000000000",
            "receiptTrie" : "0x56e81f171bcc55a6ff8345e692c0f86e5b48e01b996cadc001622fb5e363b421",
            "stateRoot" : "0x28a1a56ea4cf2fbe1c74e013380882a7dd23ced70efcb6f8ce728c3487ed5486",
            "timestamp" : "0x0",
            "transactionsTrie" : "0x56e81f171bcc55a6ff8345e692c0f86e5b48e01b996cadc001622fb5e363b421",
            "uncleHash" : "0x1dcc4de8dec75d7aab85b567b6ccd41ad312451b948a7413f0a142fd40d49347"
        },
        "pre" : {
            "0xcd2a3d9f938e13cd947ec05abc7fe734df8dd826" : {
                "balance" : "0xffffffffffffffffff",
                "code" : "0x",
                "nonce" : "0x014f",
                "storage" : {
                }
            },
            "0xee098e6c2a43d9e2c04f08f0c3a87b0ba59079d4" : {
                "balance" : "0x00",
                "code" : "0x",
                "nonce" : "0x00",
                "storage" : {
                }
            }
        },
        "postState" : {
            "0xee098e6c2a43d9e2c04f08f0c3a87b0ba59079d4" : {
                "code" : "0x",
                "nonce" : "0x00",
                "balance" : "0x00",
                "storage" : {
                }
            },
            "0x2adc25665018aa1fe0e6bc666dac8fc2697ff9ba" : {
                "code" : "0x",
                "nonce" : "0x00",
                "balance" : "0x1bc16d674ecc247c",
                "storage" : {
                }
            },
            "0xcd2a3d9f938e13cd947ec05abc7fe734df8dd826" : {
                "code" : "0x",
                "nonce" : "0x0150",
                "balance" : "0xfffffffffffffbdb83",
                "storage" : {
                }
            },
            "0x51f9d7f98e997bdd6bebde4c2dd27be8c99303aa" : {
                "code" : "0x6000603f5359610043806100135939610056566c010000000000000000000000007fee098e6c2a43d9e2c04f08f0c3a87b0ba59079d4d53532071d6cd0cb86facd5605ff6100008061003f60003961003f565b6000f35b816000f0905050fe",
                "nonce" : "0x01",
                "balance" : "0x00",
                "storage" : {
                }
            },
            "0x1bc78ae0e5ec5cb439f1d5355d6f90d38343e109" : {
                "code" : "0x",
                "nonce" : "0x03",
                "balance" : "0x00",
                "storage" : {
                }
            }
        },
        "network" : "Istanbul",
        "sealEngine" : "NoProof",
        "lastblockhash" : "0xea7a550b5772e019889388e72354aa1192dd14eaec224758c6fbce0ad3b7bbea",
        "genesisRLP" : "0xf901f8f901f3a00000000000000000000000000000000000000000000000000000000000000000a01dcc4de8dec75d7aab85b567b6ccd41ad312451b948a7413f0a142fd40d49347942adc25665018aa1fe0e6bc666dac8fc2697ff9baa028a1a56ea4cf2fbe1c74e013380882a7dd23ced70efcb6f8ce728c3487ed5486a056e81f171bcc55a6ff8345e692c0f86e5b48e01b996cadc001622fb5e363b421a056e81f171bcc55a6ff8345e692c0f86e5b48e01b996cadc001622fb5e363b421b9010000000000000000000000000000000000000000000000000000000000000000000000000000000000000000000000000000000000000000000000000000000000000000000000000000000000000000000000000000000000000000000000000000000000000000000000000000000000000000000000000000000000000000000000000000000000000000000000000000000000000000000000000000000000000000000000000000000000000000000000000000000000000000000000000000000000000000000000000000000000000000000000000000000000000000000000000000000000000000000000000000000000000000000000000000000000830200008083989680808000a00000000000000000000000000000000000000000000000000000000000000000880000000000000000c0c0",
        "blocks" : [
            {
                "rlp" : "0xf9035ef901f8a086e03328b4f7b79b2919a88709a2a6f51a74726523e0f729d97ef5dda26aea0ea01dcc4de8dec75d7aab85b567b6ccd41ad312451b948a7413f0a142fd40d49347942adc25665018aa1fe0e6bc666dac8fc2697ff9baa0d9e0883ce5a422f568420d90c0b76171ef90f33d2541a77d622684aa3212bea8a0074a00c0f6fd145af79af957f629e67ead3d42039282f4b805b3360b46488e9aa0a6ac94dcc74391dbf58a943e2c2284b7939e69edb9bd7aa7967963cdae479a31b901000000000000000000000000000000000000000000000000000000000000000000000000000000000000000000000000000000000000000000000000000000000000000000000000000000000000000000000000000000000000000000000000000000000000000000000000000000000000000000000000000000000000000000000000000000000000000000000000000000000000000000000000000000000000000000000000000000000000000000000000000000000000000000000000000000000000000000000000000000000000000000000000000000000000000000000000000000000000000000000000000000000000000000000000000000000083020000018398bca48304247c8203e800a00000000000000000000000000000000000000000000000000000000000000000880000000000000000f9015ff9015c82014f01831fffff8080b9010c6000607f5359610043806100135939610056566c010000000000000000000000007fee098e6c2a43d9e2c04f08f0c3a87b0ba59079d4d53532071d6cd0cb86facd5605ff6100008061003f60003961003f565b6000f35b816000f0905050596100718061006c59396100dd5661005f8061000e60003961006d566000603f5359610043806100135939610056566c010000000000000000000000007fee098e6c2a43d9e2c04f08f0c3a87b0ba59079d4d53532071d6cd0cb86facd5605ff6100008061003f60003961003f565b6000f35b816000f0905050fe5b6000f35b816000f0905060405260006000600060006000604051620249f0f15061000080610108600039610108565b6000f31ca09bc32976c632e6bcac53eced7ea88998781954ea95835ca55a506e196bb455c4a06b8df38bc887268282cb12ebb53324355300df5b566317409ff41bc89de41277c0",
                "blockHeader" : {
                    "bloom" : "0x00000000000000000000000000000000000000000000000000000000000000000000000000000000000000000000000000000000000000000000000000000000000000000000000000000000000000000000000000000000000000000000000000000000000000000000000000000000000000000000000000000000000000000000000000000000000000000000000000000000000000000000000000000000000000000000000000000000000000000000000000000000000000000000000000000000000000000000000000000000000000000000000000000000000000000000000000000000000000000000000000000000000000000000000000000000",
                    "coinbase" : "0x2adc25665018aa1fe0e6bc666dac8fc2697ff9ba",
                    "difficulty" : "0x20000",
                    "extraData" : "0x00",
                    "gasLimit" : "0x98bca4",
                    "gasUsed" : "0x4247c",
                    "hash" : "0xea7a550b5772e019889388e72354aa1192dd14eaec224758c6fbce0ad3b7bbea",
                    "mixHash" : "0x0000000000000000000000000000000000000000000000000000000000000000",
                    "nonce" : "0x0000000000000000",
                    "number" : "0x1",
                    "parentHash" : "0x86e03328b4f7b79b2919a88709a2a6f51a74726523e0f729d97ef5dda26aea0e",
                    "receiptTrie" : "0xa6ac94dcc74391dbf58a943e2c2284b7939e69edb9bd7aa7967963cdae479a31",
                    "stateRoot" : "0xd9e0883ce5a422f568420d90c0b76171ef90f33d2541a77d622684aa3212bea8",
                    "timestamp" : "0x3e8",
                    "transactionsTrie" : "0x074a00c0f6fd145af79af957f629e67ead3d42039282f4b805b3360b46488e9a",
                    "uncleHash" : "0x1dcc4de8dec75d7aab85b567b6ccd41ad312451b948a7413f0a142fd40d49347"
                },
                "transactions" : [
                    {
                        "data" : "0x6000607f5359610043806100135939610056566c010000000000000000000000007fee098e6c2a43d9e2c04f08f0c3a87b0ba59079d4d53532071d6cd0cb86facd5605ff6100008061003f60003961003f565b6000f35b816000f0905050596100718061006c59396100dd5661005f8061000e60003961006d566000603f5359610043806100135939610056566c010000000000000000000000007fee098e6c2a43d9e2c04f08f0c3a87b0ba59079d4d53532071d6cd0cb86facd5605ff6100008061003f60003961003f565b6000f35b816000f0905050fe5b6000f35b816000f0905060405260006000600060006000604051620249f0f15061000080610108600039610108565b6000f3",
                        "gasLimit" : "0x1fffff",
                        "gasPrice" : "0x01",
                        "nonce" : "0x014f",
                        "to" : "",
                        "value" : "0x00",
                        "v" : "0x1c",
                        "r" : "0x9bc32976c632e6bcac53eced7ea88998781954ea95835ca55a506e196bb455c4",
                        "s" : "0x6b8df38bc887268282cb12ebb53324355300df5b566317409ff41bc89de41277"
                    }
                ]
            }
        ]
    }
}