{
    "CallIdentitiy_1_d0g0v0_Istanbul" : {
        "_info" : {
            "comment" : "",
            "filling-rpc-server" : "Geth-1.9.6-unstable-63b18027-20190920",
            "filling-tool-version" : "retesteth-0.0.1+commit.0ae18aef.Linux.g++",
            "lllcversion" : "Version: 0.5.12-develop.2019.9.13+commit.2d601a4f.Linux.g++",
            "source" : "src/GeneralStateTestsFiller/stPreCompiledContracts2/CallIdentitiy_1Filler.json",
            "sourceHash" : "893781fcb7eaf1b76001146aae0ca8e686605f5f7cf09423552c7643eea69761"
        },
        "genesisBlockHeader" : {
            "bloom" : "0x00000000000000000000000000000000000000000000000000000000000000000000000000000000000000000000000000000000000000000000000000000000000000000000000000000000000000000000000000000000000000000000000000000000000000000000000000000000000000000000000000000000000000000000000000000000000000000000000000000000000000000000000000000000000000000000000000000000000000000000000000000000000000000000000000000000000000000000000000000000000000000000000000000000000000000000000000000000000000000000000000000000000000000000000000000000",
            "coinbase" : "0x2adc25665018aa1fe0e6bc666dac8fc2697ff9ba",
            "difficulty" : "0x20000",
            "extraData" : "0x00",
            "gasLimit" : "0x989680",
            "gasUsed" : "0x0",
            "hash" : "0x646ba7b3dfd853f68850d06e7e41b427ebfafa3003362b2f262f3e3134c74e58",
            "mixHash" : "0x0000000000000000000000000000000000000000000000000000000000000000",
            "nonce" : "0x0000000000000000",
            "number" : "0x0",
            "parentHash" : "0x0000000000000000000000000000000000000000000000000000000000000000",
            "receiptTrie" : "0x56e81f171bcc55a6ff8345e692c0f86e5b48e01b996cadc001622fb5e363b421",
            "stateRoot" : "0x6b395335dc1077dd69ee40c66da251fc70b3d432de9b68cf2de79830bfa6e478",
            "timestamp" : "0x0",
            "transactionsTrie" : "0x56e81f171bcc55a6ff8345e692c0f86e5b48e01b996cadc001622fb5e363b421",
            "uncleHash" : "0x1dcc4de8dec75d7aab85b567b6ccd41ad312451b948a7413f0a142fd40d49347"
        },
        "pre" : {
            "0x095e7baea6a6c7c4c2dfeb977efac326af552d87" : {
                "balance" : "0x01312d00",
                "code" : "0x6020600060006000600060046101f4f160025560005160005500",
                "nonce" : "0x00",
                "storage" : {
                }
            },
            "0xa94f5374fce5edbc8e2a8697c15331677e6ebf0b" : {
                "balance" : "0x0de0b6b3a7640000",
                "code" : "0x",
                "nonce" : "0x00",
                "storage" : {
                }
            }
        },
        "postState" : {
            "0xa94f5374fce5edbc8e2a8697c15331677e6ebf0b" : {
                "code" : "0x",
                "nonce" : "0x01",
                "balance" : "0x0de0b6b3a761d329",
                "storage" : {
                }
            },
            "0x095e7baea6a6c7c4c2dfeb977efac326af552d87" : {
                "code" : "0x6020600060006000600060046101f4f160025560005160005500",
                "nonce" : "0x00",
                "balance" : "0x0132b3a0",
                "storage" : {
                    "0x02" : "0x01"
                }
            },
            "0x2adc25665018aa1fe0e6bc666dac8fc2697ff9ba" : {
                "code" : "0x",
                "nonce" : "0x00",
                "balance" : "0x1bc16d674ec8a637",
                "storage" : {
                }
            }
        },
        "network" : "Istanbul",
        "sealEngine" : "NoProof",
        "lastblockhash" : "0xf0c1222403eb3a5992dd3ff152bc5d116f9e83f023c937cbbddee01959f5f56a",
        "genesisRLP" : "0xf901f8f901f3a00000000000000000000000000000000000000000000000000000000000000000a01dcc4de8dec75d7aab85b567b6ccd41ad312451b948a7413f0a142fd40d49347942adc25665018aa1fe0e6bc666dac8fc2697ff9baa06b395335dc1077dd69ee40c66da251fc70b3d432de9b68cf2de79830bfa6e478a056e81f171bcc55a6ff8345e692c0f86e5b48e01b996cadc001622fb5e363b421a056e81f171bcc55a6ff8345e692c0f86e5b48e01b996cadc001622fb5e363b421b9010000000000000000000000000000000000000000000000000000000000000000000000000000000000000000000000000000000000000000000000000000000000000000000000000000000000000000000000000000000000000000000000000000000000000000000000000000000000000000000000000000000000000000000000000000000000000000000000000000000000000000000000000000000000000000000000000000000000000000000000000000000000000000000000000000000000000000000000000000000000000000000000000000000000000000000000000000000000000000000000000000000000000000000000000000000000830200008083989680808000a00000000000000000000000000000000000000000000000000000000000000000880000000000000000c0c0",
        "blocks" : [
            {
                "rlp" : "0xf90262f901f7a0646ba7b3dfd853f68850d06e7e41b427ebfafa3003362b2f262f3e3134c74e58a01dcc4de8dec75d7aab85b567b6ccd41ad312451b948a7413f0a142fd40d49347942adc25665018aa1fe0e6bc666dac8fc2697ff9baa0d974d176f96dc54c63355bbac6813d4035f4f9d56398c6c6e85fb406213c709ca098fa170d192a6eff341cc8b8392cf1c8256997c28117ae4c20481271ffe00b0ba01036363e1cfa54eb240f96c25b7267dc2d713e7c1bb3aeaaee029431b70f34aab901000000000000000000000000000000000000000000000000000000000000000000000000000000000000000000000000000000000000000000000000000000000000000000000000000000000000000000000000000000000000000000000000000000000000000000000000000000000000000000000000000000000000000000000000000000000000000000000000000000000000000000000000000000000000000000000000000000000000000000000000000000000000000000000000000000000000000000000000000000000000000000000000000000000000000000000000000000000000000000000000000000000000000000000000000000000083020000018398bca482a6378203e800a00000000000000000000000000000000000000000000000000000000000000000880000000000000000f865f8638001830592a894095e7baea6a6c7c4c2dfeb977efac326af552d87830186a0801ca082cfe09a590896d5e895674505c40f1701ab05245f9f568bf506b9558e61c67fa04a98fee75f6fbf3fa4b3e104a9bb7283a6e076670719bac8af481531151b7b3cc0",
                "blockHeader" : {
                    "bloom" : "0x00000000000000000000000000000000000000000000000000000000000000000000000000000000000000000000000000000000000000000000000000000000000000000000000000000000000000000000000000000000000000000000000000000000000000000000000000000000000000000000000000000000000000000000000000000000000000000000000000000000000000000000000000000000000000000000000000000000000000000000000000000000000000000000000000000000000000000000000000000000000000000000000000000000000000000000000000000000000000000000000000000000000000000000000000000000",
                    "coinbase" : "0x2adc25665018aa1fe0e6bc666dac8fc2697ff9ba",
                    "difficulty" : "0x20000",
                    "extraData" : "0x00",
                    "gasLimit" : "0x98bca4",
                    "gasUsed" : "0xa637",
                    "hash" : "0xf0c1222403eb3a5992dd3ff152bc5d116f9e83f023c937cbbddee01959f5f56a",
                    "mixHash" : "0x0000000000000000000000000000000000000000000000000000000000000000",
                    "nonce" : "0x0000000000000000",
                    "number" : "0x1",
                    "parentHash" : "0x646ba7b3dfd853f68850d06e7e41b427ebfafa3003362b2f262f3e3134c74e58",
                    "receiptTrie" : "0x1036363e1cfa54eb240f96c25b7267dc2d713e7c1bb3aeaaee029431b70f34aa",
                    "stateRoot" : "0xd974d176f96dc54c63355bbac6813d4035f4f9d56398c6c6e85fb406213c709c",
                    "timestamp" : "0x3e8",
                    "transactionsTrie" : "0x98fa170d192a6eff341cc8b8392cf1c8256997c28117ae4c20481271ffe00b0b",
                    "uncleHash" : "0x1dcc4de8dec75d7aab85b567b6ccd41ad312451b948a7413f0a142fd40d49347"
                },
                "transactions" : [
                    {
                        "data" : "0x",
                        "gasLimit" : "0x0592a8",
                        "gasPrice" : "0x01",
                        "nonce" : "0x00",
                        "to" : "0x095e7baea6a6c7c4c2dfeb977efac326af552d87",
                        "value" : "0x0186a0",
                        "v" : "0x1c",
                        "r" : "0x82cfe09a590896d5e895674505c40f1701ab05245f9f568bf506b9558e61c67f",
                        "s" : "0x4a98fee75f6fbf3fa4b3e104a9bb7283a6e076670719bac8af481531151b7b3c"
                    }
                ]
            }
        ]
    }
}