{
    "CALLCODEEcrecover0_completeReturnValue_d0g0v0_Istanbul" : {
        "_info" : {
            "comment" : "",
            "filling-rpc-server" : "Geth-1.9.6-unstable-63b18027-20190920",
            "filling-tool-version" : "retesteth-0.0.1+commit.0ae18aef.Linux.g++",
            "lllcversion" : "Version: 0.5.12-develop.2019.9.13+commit.2d601a4f.Linux.g++",
            "source" : "src/GeneralStateTestsFiller/stPreCompiledContracts2/CALLCODEEcrecover0_completeReturnValueFiller.json",
            "sourceHash" : "ba0a3081aafb24a098438ae33b5c278f42c4f309cb4dc9620f0c1628fd521a80"
        },
        "genesisBlockHeader" : {
            "bloom" : "0x00000000000000000000000000000000000000000000000000000000000000000000000000000000000000000000000000000000000000000000000000000000000000000000000000000000000000000000000000000000000000000000000000000000000000000000000000000000000000000000000000000000000000000000000000000000000000000000000000000000000000000000000000000000000000000000000000000000000000000000000000000000000000000000000000000000000000000000000000000000000000000000000000000000000000000000000000000000000000000000000000000000000000000000000000000000",
            "coinbase" : "0x2adc25665018aa1fe0e6bc666dac8fc2697ff9ba",
            "difficulty" : "0x20000",
            "extraData" : "0x00",
            "gasLimit" : "0x989680",
            "gasUsed" : "0x0",
            "hash" : "0x60a41399efec4bde0ea9f5e226357e9093e60096557c1ae70c375a223216c370",
            "mixHash" : "0x0000000000000000000000000000000000000000000000000000000000000000",
            "nonce" : "0x0000000000000000",
            "number" : "0x0",
            "parentHash" : "0x0000000000000000000000000000000000000000000000000000000000000000",
            "receiptTrie" : "0x56e81f171bcc55a6ff8345e692c0f86e5b48e01b996cadc001622fb5e363b421",
            "stateRoot" : "0xb5d85b8d03224167d85f4edfca8f7d56c49639e482392d26b5b55fc0eac552ed",
            "timestamp" : "0x0",
            "transactionsTrie" : "0x56e81f171bcc55a6ff8345e692c0f86e5b48e01b996cadc001622fb5e363b421",
            "uncleHash" : "0x1dcc4de8dec75d7aab85b567b6ccd41ad312451b948a7413f0a142fd40d49347"
        },
        "pre" : {
            "0x095e7baea6a6c7c4c2dfeb977efac326af552d87" : {
                "balance" : "0x01312d00",
                "code" : "0x7f18c547e4f7b0f325ad1e56f57e26c745b09a3e503d86e00e5255ff7f715d3d1c600052601c6020527f73b1693892219d736caba55bdb67216e485557ea6b6af75f37096c9aa6a5a75f6040527feeb940b1d03b21e36b0e47e79769f095fe2ab855bd91e3a38756b7d75a9c4549606052602060806080600060006001610bb8f260025560805160005500",
                "nonce" : "0x00",
                "storage" : {
                }
            },
            "0xa94f5374fce5edbc8e2a8697c15331677e6ebf0b" : {
                "balance" : "0x0de0b6b3a7640000",
                "code" : "0x",
                "nonce" : "0x00",
                "storage" : {
                }
            }
        },
        "postState" : {
            "0xa94f5374fce5edbc8e2a8697c15331677e6ebf0b" : {
                "code" : "0x",
                "nonce" : "0x01",
                "balance" : "0x0de0b6b3a7617c50",
                "storage" : {
                }
            },
            "0x095e7baea6a6c7c4c2dfeb977efac326af552d87" : {
                "code" : "0x7f18c547e4f7b0f325ad1e56f57e26c745b09a3e503d86e00e5255ff7f715d3d1c600052601c6020527f73b1693892219d736caba55bdb67216e485557ea6b6af75f37096c9aa6a5a75f6040527feeb940b1d03b21e36b0e47e79769f095fe2ab855bd91e3a38756b7d75a9c4549606052602060806080600060006001610bb8f260025560805160005500",
                "nonce" : "0x00",
                "balance" : "0x0132b3a0",
                "storage" : {
                    "0x00" : "0xa94f5374fce5edbc8e2a8697c15331677e6ebf0b",
                    "0x02" : "0x01"
                }
            },
            "0x2adc25665018aa1fe0e6bc666dac8fc2697ff9ba" : {
                "code" : "0x",
                "nonce" : "0x00",
                "balance" : "0x1bc16d674ec8fd10",
                "storage" : {
                }
            }
        },
        "network" : "Istanbul",
        "sealEngine" : "NoProof",
        "lastblockhash" : "0x51f4d65c86c9c2adab3893e179f29b782813f776d4a819749c2b46f63e497999",
        "genesisRLP" : "0xf901f8f901f3a00000000000000000000000000000000000000000000000000000000000000000a01dcc4de8dec75d7aab85b567b6ccd41ad312451b948a7413f0a142fd40d49347942adc25665018aa1fe0e6bc666dac8fc2697ff9baa0b5d85b8d03224167d85f4edfca8f7d56c49639e482392d26b5b55fc0eac552eda056e81f171bcc55a6ff8345e692c0f86e5b48e01b996cadc001622fb5e363b421a056e81f171bcc55a6ff8345e692c0f86e5b48e01b996cadc001622fb5e363b421b9010000000000000000000000000000000000000000000000000000000000000000000000000000000000000000000000000000000000000000000000000000000000000000000000000000000000000000000000000000000000000000000000000000000000000000000000000000000000000000000000000000000000000000000000000000000000000000000000000000000000000000000000000000000000000000000000000000000000000000000000000000000000000000000000000000000000000000000000000000000000000000000000000000000000000000000000000000000000000000000000000000000000000000000000000000000000830200008083989680808000a00000000000000000000000000000000000000000000000000000000000000000880000000000000000c0c0",
        "blocks" : [
            {
                "rlp" : "0xf90262f901f7a060a41399efec4bde0ea9f5e226357e9093e60096557c1ae70c375a223216c370a01dcc4de8dec75d7aab85b567b6ccd41ad312451b948a7413f0a142fd40d49347942adc25665018aa1fe0e6bc666dac8fc2697ff9baa00c3a8dfe8628a8012adf61f512f59776bf69a7b614b42f25f79bf025d96770eaa098fa170d192a6eff341cc8b8392cf1c8256997c28117ae4c20481271ffe00b0ba0e764903735305454f8d69d7f882dbdf7a89fb93d2bcfea783b908cdc842562f7b901000000000000000000000000000000000000000000000000000000000000000000000000000000000000000000000000000000000000000000000000000000000000000000000000000000000000000000000000000000000000000000000000000000000000000000000000000000000000000000000000000000000000000000000000000000000000000000000000000000000000000000000000000000000000000000000000000000000000000000000000000000000000000000000000000000000000000000000000000000000000000000000000000000000000000000000000000000000000000000000000000000000000000000000000000000000083020000018398bca482fd108203e800a00000000000000000000000000000000000000000000000000000000000000000880000000000000000f865f8638001830592a894095e7baea6a6c7c4c2dfeb977efac326af552d87830186a0801ca082cfe09a590896d5e895674505c40f1701ab05245f9f568bf506b9558e61c67fa04a98fee75f6fbf3fa4b3e104a9bb7283a6e076670719bac8af481531151b7b3cc0",
                "blockHeader" : {
                    "bloom" : "0x00000000000000000000000000000000000000000000000000000000000000000000000000000000000000000000000000000000000000000000000000000000000000000000000000000000000000000000000000000000000000000000000000000000000000000000000000000000000000000000000000000000000000000000000000000000000000000000000000000000000000000000000000000000000000000000000000000000000000000000000000000000000000000000000000000000000000000000000000000000000000000000000000000000000000000000000000000000000000000000000000000000000000000000000000000000",
                    "coinbase" : "0x2adc25665018aa1fe0e6bc666dac8fc2697ff9ba",
                    "difficulty" : "0x20000",
                    "extraData" : "0x00",
                    "gasLimit" : "0x98bca4",
                    "gasUsed" : "0xfd10",
                    "hash" : "0x51f4d65c86c9c2adab3893e179f29b782813f776d4a819749c2b46f63e497999",
                    "mixHash" : "0x0000000000000000000000000000000000000000000000000000000000000000",
                    "nonce" : "0x0000000000000000",
                    "number" : "0x1",
                    "parentHash" : "0x60a41399efec4bde0ea9f5e226357e9093e60096557c1ae70c375a223216c370",
                    "receiptTrie" : "0xe764903735305454f8d69d7f882dbdf7a89fb93d2bcfea783b908cdc842562f7",
                    "stateRoot" : "0x0c3a8dfe8628a8012adf61f512f59776bf69a7b614b42f25f79bf025d96770ea",
                    "timestamp" : "0x3e8",
                    "transactionsTrie" : "0x98fa170d192a6eff341cc8b8392cf1c8256997c28117ae4c20481271ffe00b0b",
                    "uncleHash" : "0x1dcc4de8dec75d7aab85b567b6ccd41ad312451b948a7413f0a142fd40d49347"
                },
                "transactions" : [
                    {
                        "data" : "0x",
                        "gasLimit" : "0x0592a8",
                        "gasPrice" : "0x01",
                        "nonce" : "0x00",
                        "to" : "0x095e7baea6a6c7c4c2dfeb977efac326af552d87",
                        "value" : "0x0186a0",
                        "v" : "0x1c",
                        "r" : "0x82cfe09a590896d5e895674505c40f1701ab05245f9f568bf506b9558e61c67f",
                        "s" : "0x4a98fee75f6fbf3fa4b3e104a9bb7283a6e076670719bac8af481531151b7b3c"
                    }
                ]
            }
        ]
    }
}