{
    "CALLCODERipemd160_3_prefixed0_d0g0v0_Istanbul" : {
        "_info" : {
            "comment" : "",
            "filling-rpc-server" : "Geth-1.9.6-unstable-63b18027-20190920",
            "filling-tool-version" : "retesteth-0.0.1+commit.0ae18aef.Linux.g++",
            "lllcversion" : "Version: 0.5.12-develop.2019.9.13+commit.2d601a4f.Linux.g++",
            "source" : "src/GeneralStateTestsFiller/stPreCompiledContracts2/CALLCODERipemd160_3_prefixed0Filler.json",
            "sourceHash" : "97c27a35b3e698eee1dcdb5ef642cb24a7a69a8f6c7bb78327ae73b6084c93c9"
        },
        "genesisBlockHeader" : {
            "bloom" : "0x00000000000000000000000000000000000000000000000000000000000000000000000000000000000000000000000000000000000000000000000000000000000000000000000000000000000000000000000000000000000000000000000000000000000000000000000000000000000000000000000000000000000000000000000000000000000000000000000000000000000000000000000000000000000000000000000000000000000000000000000000000000000000000000000000000000000000000000000000000000000000000000000000000000000000000000000000000000000000000000000000000000000000000000000000000000",
            "coinbase" : "0x2adc25665018aa1fe0e6bc666dac8fc2697ff9ba",
            "difficulty" : "0x20000",
            "extraData" : "0x00",
            "gasLimit" : "0x989680",
            "gasUsed" : "0x0",
            "hash" : "0x6dbe4a2b5c2b964e8be2b5a771477aad64cf764488c03c2c972c317e201c4652",
            "mixHash" : "0x0000000000000000000000000000000000000000000000000000000000000000",
            "nonce" : "0x0000000000000000",
            "number" : "0x0",
            "parentHash" : "0x0000000000000000000000000000000000000000000000000000000000000000",
            "receiptTrie" : "0x56e81f171bcc55a6ff8345e692c0f86e5b48e01b996cadc001622fb5e363b421",
            "stateRoot" : "0xcf2d39d4341f2a463e9bd89cd64ef70ba045670137adc317a472985711154859",
            "timestamp" : "0x0",
            "transactionsTrie" : "0x56e81f171bcc55a6ff8345e692c0f86e5b48e01b996cadc001622fb5e363b421",
            "uncleHash" : "0x1dcc4de8dec75d7aab85b567b6ccd41ad312451b948a7413f0a142fd40d49347"
        },
        "pre" : {
            "0x095e7baea6a6c7c4c2dfeb977efac326af552d87" : {
                "balance" : "0x01312d00",
                "code" : "0x64f34578907f600052602060006025600060006003611770f260025560005160005500",
                "nonce" : "0x00",
                "storage" : {
                }
            },
            "0xa94f5374fce5edbc8e2a8697c15331677e6ebf0b" : {
                "balance" : "0x0de0b6b3a7640000",
                "code" : "0x",
                "nonce" : "0x00",
                "storage" : {
                }
            }
        },
        "postState" : {
            "0xa94f5374fce5edbc8e2a8697c15331677e6ebf0b" : {
                "code" : "0x",
                "nonce" : "0x01",
                "balance" : "0x0de0b6b3a76184e4",
                "storage" : {
                }
            },
            "0x095e7baea6a6c7c4c2dfeb977efac326af552d87" : {
                "code" : "0x64f34578907f600052602060006025600060006003611770f260025560005160005500",
                "nonce" : "0x00",
                "balance" : "0x0132b3a0",
                "storage" : {
                    "0x00" : "0x316750573f9be26bc17727b47cacedbd0ab3e6ca",
                    "0x02" : "0x01"
                }
            },
            "0x2adc25665018aa1fe0e6bc666dac8fc2697ff9ba" : {
                "code" : "0x",
                "nonce" : "0x00",
                "balance" : "0x1bc16d674ec8f47c",
                "storage" : {
                }
            }
        },
        "network" : "Istanbul",
        "sealEngine" : "NoProof",
        "lastblockhash" : "0x2ff2f86219c16053875b746b7776cd37543735fd13fb574cf213203bbd3470f1",
        "genesisRLP" : "0xf901f8f901f3a00000000000000000000000000000000000000000000000000000000000000000a01dcc4de8dec75d7aab85b567b6ccd41ad312451b948a7413f0a142fd40d49347942adc25665018aa1fe0e6bc666dac8fc2697ff9baa0cf2d39d4341f2a463e9bd89cd64ef70ba045670137adc317a472985711154859a056e81f171bcc55a6ff8345e692c0f86e5b48e01b996cadc001622fb5e363b421a056e81f171bcc55a6ff8345e692c0f86e5b48e01b996cadc001622fb5e363b421b9010000000000000000000000000000000000000000000000000000000000000000000000000000000000000000000000000000000000000000000000000000000000000000000000000000000000000000000000000000000000000000000000000000000000000000000000000000000000000000000000000000000000000000000000000000000000000000000000000000000000000000000000000000000000000000000000000000000000000000000000000000000000000000000000000000000000000000000000000000000000000000000000000000000000000000000000000000000000000000000000000000000000000000000000000000000000830200008083989680808000a00000000000000000000000000000000000000000000000000000000000000000880000000000000000c0c0",
        "blocks" : [
            {
                "rlp" : "0xf90262f901f7a06dbe4a2b5c2b964e8be2b5a771477aad64cf764488c03c2c972c317e201c4652a01dcc4de8dec75d7aab85b567b6ccd41ad312451b948a7413f0a142fd40d49347942adc25665018aa1fe0e6bc666dac8fc2697ff9baa080420998ff1b7a108498b8f23bb2570b70eb23aed7cc01ef0c32c8f46c52becca098fa170d192a6eff341cc8b8392cf1c8256997c28117ae4c20481271ffe00b0ba0e4264cbca827bc84f3012d6c737e1d86f07879539a32983fd80a939a73bdce48b901000000000000000000000000000000000000000000000000000000000000000000000000000000000000000000000000000000000000000000000000000000000000000000000000000000000000000000000000000000000000000000000000000000000000000000000000000000000000000000000000000000000000000000000000000000000000000000000000000000000000000000000000000000000000000000000000000000000000000000000000000000000000000000000000000000000000000000000000000000000000000000000000000000000000000000000000000000000000000000000000000000000000000000000000000000000083020000018398bca482f47c8203e800a00000000000000000000000000000000000000000000000000000000000000000880000000000000000f865f8638001830592a894095e7baea6a6c7c4c2dfeb977efac326af552d87830186a0801ca082cfe09a590896d5e895674505c40f1701ab05245f9f568bf506b9558e61c67fa04a98fee75f6fbf3fa4b3e104a9bb7283a6e076670719bac8af481531151b7b3cc0",
                "blockHeader" : {
                    "bloom" : "0x00000000000000000000000000000000000000000000000000000000000000000000000000000000000000000000000000000000000000000000000000000000000000000000000000000000000000000000000000000000000000000000000000000000000000000000000000000000000000000000000000000000000000000000000000000000000000000000000000000000000000000000000000000000000000000000000000000000000000000000000000000000000000000000000000000000000000000000000000000000000000000000000000000000000000000000000000000000000000000000000000000000000000000000000000000000",
                    "coinbase" : "0x2adc25665018aa1fe0e6bc666dac8fc2697ff9ba",
                    "difficulty" : "0x20000",
                    "extraData" : "0x00",
                    "gasLimit" : "0x98bca4",
                    "gasUsed" : "0xf47c",
                    "hash" : "0x2ff2f86219c16053875b746b7776cd37543735fd13fb574cf213203bbd3470f1",
                    "mixHash" : "0x0000000000000000000000000000000000000000000000000000000000000000",
                    "nonce" : "0x0000000000000000",
                    "number" : "0x1",
                    "parentHash" : "0x6dbe4a2b5c2b964e8be2b5a771477aad64cf764488c03c2c972c317e201c4652",
                    "receiptTrie" : "0xe4264cbca827bc84f3012d6c737e1d86f07879539a32983fd80a939a73bdce48",
                    "stateRoot" : "0x80420998ff1b7a108498b8f23bb2570b70eb23aed7cc01ef0c32c8f46c52becc",
                    "timestamp" : "0x3e8",
                    "transactionsTrie" : "0x98fa170d192a6eff341cc8b8392cf1c8256997c28117ae4c20481271ffe00b0b",
                    "uncleHash" : "0x1dcc4de8dec75d7aab85b567b6ccd41ad312451b948a7413f0a142fd40d49347"
                },
                "transactions" : [
                    {
                        "data" : "0x",
                        "gasLimit" : "0x0592a8",
                        "gasPrice" : "0x01",
                        "nonce" : "0x00",
                        "to" : "0x095e7baea6a6c7c4c2dfeb977efac326af552d87",
                        "value" : "0x0186a0",
                        "v" : "0x1c",
                        "r" : "0x82cfe09a590896d5e895674505c40f1701ab05245f9f568bf506b9558e61c67f",
                        "s" : "0x4a98fee75f6fbf3fa4b3e104a9bb7283a6e076670719bac8af481531151b7b3c"
                    }
                ]
            }
        ]
    }
}