{
    "modexpRandomInput_d0g0v0_Istanbul" : {
        "_info" : {
            "comment" : "Fuzzed input discovered by Guido",
            "filling-rpc-server" : "Geth-1.9.6-unstable-63b18027-20190920",
            "filling-tool-version" : "retesteth-0.0.1+commit.0ae18aef.Linux.g++",
            "lllcversion" : "Version: 0.5.12-develop.2019.9.13+commit.2d601a4f.Linux.g++",
            "source" : "src/GeneralStateTestsFiller/stPreCompiledContracts2/modexpRandomInputFiller.json",
            "sourceHash" : "db73fc1d7dca90e88a86cda8dff6459e3a00b6503fc406a0991208eea3a0e7fc"
        },
        "genesisBlockHeader" : {
            "bloom" : "0x00000000000000000000000000000000000000000000000000000000000000000000000000000000000000000000000000000000000000000000000000000000000000000000000000000000000000000000000000000000000000000000000000000000000000000000000000000000000000000000000000000000000000000000000000000000000000000000000000000000000000000000000000000000000000000000000000000000000000000000000000000000000000000000000000000000000000000000000000000000000000000000000000000000000000000000000000000000000000000000000000000000000000000000000000000000",
            "coinbase" : "0x3535353535353535353535353535353535353535",
            "difficulty" : "0x20000",
            "extraData" : "0x00",
            "gasLimit" : "0x5f5e100",
            "gasUsed" : "0x0",
            "hash" : "0x4029595dab18862590919e877a064591e934cfdfce51556106377e8afd5ff268",
            "mixHash" : "0x0000000000000000000000000000000000000000000000000000000000000000",
            "nonce" : "0x0000000000000000",
            "number" : "0x0",
            "parentHash" : "0x0000000000000000000000000000000000000000000000000000000000000000",
            "receiptTrie" : "0x56e81f171bcc55a6ff8345e692c0f86e5b48e01b996cadc001622fb5e363b421",
            "stateRoot" : "0x70c42824108fafccadbfce71e6e22660c4fad89be18be324cd15ef351969a8c8",
            "timestamp" : "0x0",
            "transactionsTrie" : "0x56e81f171bcc55a6ff8345e692c0f86e5b48e01b996cadc001622fb5e363b421",
            "uncleHash" : "0x1dcc4de8dec75d7aab85b567b6ccd41ad312451b948a7413f0a142fd40d49347"
        },
        "pre" : {
            "0xa94f5374fce5edbc8e2a8697c15331677e6ebf0b" : {
                "balance" : "0x3635c9adc5dea00000",
                "code" : "0x",
                "nonce" : "0x00",
                "storage" : {
                }
            }
        },
        "postState" : {
            "0xa94f5374fce5edbc8e2a8697c15331677e6ebf0b" : {
                "code" : "0x",
                "nonce" : "0x01",
                "balance" : "0x3635c9adc5de9fa6dc",
                "storage" : {
                }
            },
            "0x3535353535353535353535353535353535353535" : {
                "code" : "0x",
                "nonce" : "0x00",
                "balance" : "0x1bc16d674ec85924",
                "storage" : {
                }
            }
        },
        "network" : "Istanbul",
        "sealEngine" : "NoProof",
        "lastblockhash" : "0xbd11ebdd13415848649a71c93962d5949f99606e89b73a846d1b32d1d3b69f16",
        "genesisRLP" : "0xf901f9f901f4a00000000000000000000000000000000000000000000000000000000000000000a01dcc4de8dec75d7aab85b567b6ccd41ad312451b948a7413f0a142fd40d49347943535353535353535353535353535353535353535a070c42824108fafccadbfce71e6e22660c4fad89be18be324cd15ef351969a8c8a056e81f171bcc55a6ff8345e692c0f86e5b48e01b996cadc001622fb5e363b421a056e81f171bcc55a6ff8345e692c0f86e5b48e01b996cadc001622fb5e363b421b901000000000000000000000000000000000000000000000000000000000000000000000000000000000000000000000000000000000000000000000000000000000000000000000000000000000000000000000000000000000000000000000000000000000000000000000000000000000000000000000000000000000000000000000000000000000000000000000000000000000000000000000000000000000000000000000000000000000000000000000000000000000000000000000000000000000000000000000000000000000000000000000000000000000000000000000000000000000000000000000000000000000000000000000000000000000083020000808405f5e100808000a00000000000000000000000000000000000000000000000000000000000000000880000000000000000c0c0",
        "blocks" : [
            {
                "rlp" : "0xf9029af901f8a04029595dab18862590919e877a064591e934cfdfce51556106377e8afd5ff268a01dcc4de8dec75d7aab85b567b6ccd41ad312451b948a7413f0a142fd40d49347943535353535353535353535353535353535353535a06826b2d3e4ccbfb10d0e5ff8d4e41add75623b29e66e96541579bdbd3e026d1da0ee8f80741f9e3be1e78bc6188bcfcde55b9c9d7fc41a5861a4c43cb8734e841ca0446488b66d8df03c685ccd88fb2feddc7edfbc3943aeda3d6bee91d8363e1847b901000000000000000000000000000000000000000000000000000000000000000000000000000000000000000000000000000000000000000000000000000000000000000000000000000000000000000000000000000000000000000000000000000000000000000000000000000000000000000000000000000000000000000000000000000000000000000000000000000000000000000000000000000000000000000000000000000000000000000000000000000000000000000000000000000000000000000000000000000000000000000000000000000000000000000000000000000000000000000000000000000000000000000000000000000000000083020000018405f75e778259248203e800a00000000000000000000000000000000000000000000000000000000000000000880000000000000000f89cf89a8001830ad57094000000000000000000000000000000000000000580b83900000000000000000000000000000000000000000000000000000000000000e3000000000000000000000000000000000000000000000000001ba041fd5511dbb403047bc5498f30d75f2dd2fdeac98a103807c31900eb17bc10efa00bb0349ba6a48b040494133fba7cdcf86ab4ab130f0a570fea91569622e9612fc0",
                "blockHeader" : {
                    "bloom" : "0x00000000000000000000000000000000000000000000000000000000000000000000000000000000000000000000000000000000000000000000000000000000000000000000000000000000000000000000000000000000000000000000000000000000000000000000000000000000000000000000000000000000000000000000000000000000000000000000000000000000000000000000000000000000000000000000000000000000000000000000000000000000000000000000000000000000000000000000000000000000000000000000000000000000000000000000000000000000000000000000000000000000000000000000000000000000",
                    "coinbase" : "0x3535353535353535353535353535353535353535",
                    "difficulty" : "0x20000",
                    "extraData" : "0x00",
                    "gasLimit" : "0x5f75e77",
                    "gasUsed" : "0x5924",
                    "hash" : "0xbd11ebdd13415848649a71c93962d5949f99606e89b73a846d1b32d1d3b69f16",
                    "mixHash" : "0x0000000000000000000000000000000000000000000000000000000000000000",
                    "nonce" : "0x0000000000000000",
                    "number" : "0x1",
                    "parentHash" : "0x4029595dab18862590919e877a064591e934cfdfce51556106377e8afd5ff268",
                    "receiptTrie" : "0x446488b66d8df03c685ccd88fb2feddc7edfbc3943aeda3d6bee91d8363e1847",
                    "stateRoot" : "0x6826b2d3e4ccbfb10d0e5ff8d4e41add75623b29e66e96541579bdbd3e026d1d",
                    "timestamp" : "0x3e8",
                    "transactionsTrie" : "0xee8f80741f9e3be1e78bc6188bcfcde55b9c9d7fc41a5861a4c43cb8734e841c",
                    "uncleHash" : "0x1dcc4de8dec75d7aab85b567b6ccd41ad312451b948a7413f0a142fd40d49347"
                },
                "transactions" : [
                    {
                        "data" : "0x00000000000000000000000000000000000000000000000000000000000000e300000000000000000000000000000000000000000000000000",
                        "gasLimit" : "0x0ad570",
                        "gasPrice" : "0x01",
                        "nonce" : "0x00",
                        "to" : "0x0000000000000000000000000000000000000005",
                        "value" : "0x",
                        "v" : "0x1b",
                        "r" : "0x41fd5511dbb403047bc5498f30d75f2dd2fdeac98a103807c31900eb17bc10ef",
                        "s" : "0x0bb0349ba6a48b040494133fba7cdcf86ab4ab130f0a570fea91569622e9612f"
                    }
                ]
            }
        ]
    },
    "modexpRandomInput_d0g1v0_Istanbul" : {
        "_info" : {
            "comment" : "Fuzzed input discovered by Guido",
            "filling-rpc-server" : "Geth-1.9.6-unstable-63b18027-20190920",
            "filling-tool-version" : "retesteth-0.0.1+commit.0ae18aef.Linux.g++",
            "lllcversion" : "Version: 0.5.12-develop.2019.9.13+commit.2d601a4f.Linux.g++",
            "source" : "src/GeneralStateTestsFiller/stPreCompiledContracts2/modexpRandomInputFiller.json",
            "sourceHash" : "db73fc1d7dca90e88a86cda8dff6459e3a00b6503fc406a0991208eea3a0e7fc"
        },
        "genesisBlockHeader" : {
            "bloom" : "0x00000000000000000000000000000000000000000000000000000000000000000000000000000000000000000000000000000000000000000000000000000000000000000000000000000000000000000000000000000000000000000000000000000000000000000000000000000000000000000000000000000000000000000000000000000000000000000000000000000000000000000000000000000000000000000000000000000000000000000000000000000000000000000000000000000000000000000000000000000000000000000000000000000000000000000000000000000000000000000000000000000000000000000000000000000000",
            "coinbase" : "0x3535353535353535353535353535353535353535",
            "difficulty" : "0x20000",
            "extraData" : "0x00",
            "gasLimit" : "0x5f5e100",
            "gasUsed" : "0x0",
            "hash" : "0x4029595dab18862590919e877a064591e934cfdfce51556106377e8afd5ff268",
            "mixHash" : "0x0000000000000000000000000000000000000000000000000000000000000000",
            "nonce" : "0x0000000000000000",
            "number" : "0x0",
            "parentHash" : "0x0000000000000000000000000000000000000000000000000000000000000000",
            "receiptTrie" : "0x56e81f171bcc55a6ff8345e692c0f86e5b48e01b996cadc001622fb5e363b421",
            "stateRoot" : "0x70c42824108fafccadbfce71e6e22660c4fad89be18be324cd15ef351969a8c8",
            "timestamp" : "0x0",
            "transactionsTrie" : "0x56e81f171bcc55a6ff8345e692c0f86e5b48e01b996cadc001622fb5e363b421",
            "uncleHash" : "0x1dcc4de8dec75d7aab85b567b6ccd41ad312451b948a7413f0a142fd40d49347"
        },
        "pre" : {
            "0xa94f5374fce5edbc8e2a8697c15331677e6ebf0b" : {
                "balance" : "0x3635c9adc5dea00000",
                "code" : "0x",
                "nonce" : "0x00",
                "storage" : {
                }
            }
        },
        "postState" : {
            "0xa94f5374fce5edbc8e2a8697c15331677e6ebf0b" : {
                "code" : "0x",
                "nonce" : "0x01",
                "balance" : "0x3635c9adc5de9fa6dc",
                "storage" : {
                }
            },
            "0x3535353535353535353535353535353535353535" : {
                "code" : "0x",
                "nonce" : "0x00",
                "balance" : "0x1bc16d674ec85924",
                "storage" : {
                }
            }
        },
        "network" : "Istanbul",
        "sealEngine" : "NoProof",
        "lastblockhash" : "0xaa3dd7cc5692ec0a55468bdf506b659eaaf8d790462ea0dd81c8bd8d3090b022",
        "genesisRLP" : "0xf901f9f901f4a00000000000000000000000000000000000000000000000000000000000000000a01dcc4de8dec75d7aab85b567b6ccd41ad312451b948a7413f0a142fd40d49347943535353535353535353535353535353535353535a070c42824108fafccadbfce71e6e22660c4fad89be18be324cd15ef351969a8c8a056e81f171bcc55a6ff8345e692c0f86e5b48e01b996cadc001622fb5e363b421a056e81f171bcc55a6ff8345e692c0f86e5b48e01b996cadc001622fb5e363b421b901000000000000000000000000000000000000000000000000000000000000000000000000000000000000000000000000000000000000000000000000000000000000000000000000000000000000000000000000000000000000000000000000000000000000000000000000000000000000000000000000000000000000000000000000000000000000000000000000000000000000000000000000000000000000000000000000000000000000000000000000000000000000000000000000000000000000000000000000000000000000000000000000000000000000000000000000000000000000000000000000000000000000000000000000000000000083020000808405f5e100808000a00000000000000000000000000000000000000000000000000000000000000000880000000000000000c0c0",
        "blocks" : [
            {
                "rlp" : "0xf9029af901f8a04029595dab18862590919e877a064591e934cfdfce51556106377e8afd5ff268a01dcc4de8dec75d7aab85b567b6ccd41ad312451b948a7413f0a142fd40d49347943535353535353535353535353535353535353535a06826b2d3e4ccbfb10d0e5ff8d4e41add75623b29e66e96541579bdbd3e026d1da05db033e231491127337a966ec6d70208ebec077c5a9b55db36753120d1c542aca0446488b66d8df03c685ccd88fb2feddc7edfbc3943aeda3d6bee91d8363e1847b901000000000000000000000000000000000000000000000000000000000000000000000000000000000000000000000000000000000000000000000000000000000000000000000000000000000000000000000000000000000000000000000000000000000000000000000000000000000000000000000000000000000000000000000000000000000000000000000000000000000000000000000000000000000000000000000000000000000000000000000000000000000000000000000000000000000000000000000000000000000000000000000000000000000000000000000000000000000000000000000000000000000000000000000000000000000083020000018405f75e778259248203e800a00000000000000000000000000000000000000000000000000000000000000000880000000000000000f89cf89a8001836acfc094000000000000000000000000000000000000000580b83900000000000000000000000000000000000000000000000000000000000000e3000000000000000000000000000000000000000000000000001ca0b0f96af4a341d9a1346fdd37f633eb5017ff95d6312b4cbd7533a21dfecb3302a01b4b565910d9767b232e0d39d3bd997fa95a02093269bb15d22239d4135fefebc0",
                "blockHeader" : {
                    "bloom" : "0x00000000000000000000000000000000000000000000000000000000000000000000000000000000000000000000000000000000000000000000000000000000000000000000000000000000000000000000000000000000000000000000000000000000000000000000000000000000000000000000000000000000000000000000000000000000000000000000000000000000000000000000000000000000000000000000000000000000000000000000000000000000000000000000000000000000000000000000000000000000000000000000000000000000000000000000000000000000000000000000000000000000000000000000000000000000",
                    "coinbase" : "0x3535353535353535353535353535353535353535",
                    "difficulty" : "0x20000",
                    "extraData" : "0x00",
                    "gasLimit" : "0x5f75e77",
                    "gasUsed" : "0x5924",
                    "hash" : "0xaa3dd7cc5692ec0a55468bdf506b659eaaf8d790462ea0dd81c8bd8d3090b022",
                    "mixHash" : "0x0000000000000000000000000000000000000000000000000000000000000000",
                    "nonce" : "0x0000000000000000",
                    "number" : "0x1",
                    "parentHash" : "0x4029595dab18862590919e877a064591e934cfdfce51556106377e8afd5ff268",
                    "receiptTrie" : "0x446488b66d8df03c685ccd88fb2feddc7edfbc3943aeda3d6bee91d8363e1847",
                    "stateRoot" : "0x6826b2d3e4ccbfb10d0e5ff8d4e41add75623b29e66e96541579bdbd3e026d1d",
                    "timestamp" : "0x3e8",
                    "transactionsTrie" : "0x5db033e231491127337a966ec6d70208ebec077c5a9b55db36753120d1c542ac",
                    "uncleHash" : "0x1dcc4de8dec75d7aab85b567b6ccd41ad312451b948a7413f0a142fd40d49347"
                },
                "transactions" : [
                    {
                        "data" : "0x00000000000000000000000000000000000000000000000000000000000000e300000000000000000000000000000000000000000000000000",
                        "gasLimit" : "0x6acfc0",
                        "gasPrice" : "0x01",
                        "nonce" : "0x00",
                        "to" : "0x0000000000000000000000000000000000000005",
                        "value" : "0x",
                        "v" : "0x1c",
                        "r" : "0xb0f96af4a341d9a1346fdd37f633eb5017ff95d6312b4cbd7533a21dfecb3302",
                        "s" : "0x1b4b565910d9767b232e0d39d3bd997fa95a02093269bb15d22239d4135fefeb"
                    }
                ]
            }
        ]
    },
    "modexpRandomInput_d1g0v0_Istanbul" : {
        "_info" : {
            "comment" : "Fuzzed input discovered by Guido",
            "filling-rpc-server" : "Geth-1.9.6-unstable-63b18027-20190920",
            "filling-tool-version" : "retesteth-0.0.1+commit.0ae18aef.Linux.g++",
            "lllcversion" : "Version: 0.5.12-develop.2019.9.13+commit.2d601a4f.Linux.g++",
            "source" : "src/GeneralStateTestsFiller/stPreCompiledContracts2/modexpRandomInputFiller.json",
            "sourceHash" : "db73fc1d7dca90e88a86cda8dff6459e3a00b6503fc406a0991208eea3a0e7fc"
        },
        "genesisBlockHeader" : {
            "bloom" : "0x00000000000000000000000000000000000000000000000000000000000000000000000000000000000000000000000000000000000000000000000000000000000000000000000000000000000000000000000000000000000000000000000000000000000000000000000000000000000000000000000000000000000000000000000000000000000000000000000000000000000000000000000000000000000000000000000000000000000000000000000000000000000000000000000000000000000000000000000000000000000000000000000000000000000000000000000000000000000000000000000000000000000000000000000000000000",
            "coinbase" : "0x3535353535353535353535353535353535353535",
            "difficulty" : "0x20000",
            "extraData" : "0x00",
            "gasLimit" : "0x5f5e100",
            "gasUsed" : "0x0",
            "hash" : "0x4029595dab18862590919e877a064591e934cfdfce51556106377e8afd5ff268",
            "mixHash" : "0x0000000000000000000000000000000000000000000000000000000000000000",
            "nonce" : "0x0000000000000000",
            "number" : "0x0",
            "parentHash" : "0x0000000000000000000000000000000000000000000000000000000000000000",
            "receiptTrie" : "0x56e81f171bcc55a6ff8345e692c0f86e5b48e01b996cadc001622fb5e363b421",
            "stateRoot" : "0x70c42824108fafccadbfce71e6e22660c4fad89be18be324cd15ef351969a8c8",
            "timestamp" : "0x0",
            "transactionsTrie" : "0x56e81f171bcc55a6ff8345e692c0f86e5b48e01b996cadc001622fb5e363b421",
            "uncleHash" : "0x1dcc4de8dec75d7aab85b567b6ccd41ad312451b948a7413f0a142fd40d49347"
        },
        "pre" : {
            "0xa94f5374fce5edbc8e2a8697c15331677e6ebf0b" : {
                "balance" : "0x3635c9adc5dea00000",
                "code" : "0x",
                "nonce" : "0x00",
                "storage" : {
                }
            }
        },
        "postState" : {
            "0xa94f5374fce5edbc8e2a8697c15331677e6ebf0b" : {
                "code" : "0x",
                "nonce" : "0x01",
                "balance" : "0x3635c9adc5de952a90",
                "storage" : {
                }
            },
            "0x3535353535353535353535353535353535353535" : {
                "code" : "0x",
                "nonce" : "0x00",
                "balance" : "0x1bc16d674ed2d570",
                "storage" : {
                }
            }
        },
        "network" : "Istanbul",
        "sealEngine" : "NoProof",
        "lastblockhash" : "0x5f396480b60e4e004a0951ab9273b489e9adcc482acf39f7f40a73750cd2fd2d",
        "genesisRLP" : "0xf901f9f901f4a00000000000000000000000000000000000000000000000000000000000000000a01dcc4de8dec75d7aab85b567b6ccd41ad312451b948a7413f0a142fd40d49347943535353535353535353535353535353535353535a070c42824108fafccadbfce71e6e22660c4fad89be18be324cd15ef351969a8c8a056e81f171bcc55a6ff8345e692c0f86e5b48e01b996cadc001622fb5e363b421a056e81f171bcc55a6ff8345e692c0f86e5b48e01b996cadc001622fb5e363b421b901000000000000000000000000000000000000000000000000000000000000000000000000000000000000000000000000000000000000000000000000000000000000000000000000000000000000000000000000000000000000000000000000000000000000000000000000000000000000000000000000000000000000000000000000000000000000000000000000000000000000000000000000000000000000000000000000000000000000000000000000000000000000000000000000000000000000000000000000000000000000000000000000000000000000000000000000000000000000000000000000000000000000000000000000000000000083020000808405f5e100808000a00000000000000000000000000000000000000000000000000000000000000000880000000000000000c0c0",
        "blocks" : [
            {
                "rlp" : "0xf90291f901f9a04029595dab18862590919e877a064591e934cfdfce51556106377e8afd5ff268a01dcc4de8dec75d7aab85b567b6ccd41ad312451b948a7413f0a142fd40d49347943535353535353535353535353535353535353535a0dd7406d06c4c49098a37b13a7a7f67fb9be577d945d168a36536b96da8787e83a06392afb63ed1734cd3a3037e0e37e4571727f5f375098de8f4e3a5c751574ef2a08dfd9d049e0456bf94a974667d609e5c56576d7aafa33db7ec255242954592feb901000000000000000000000000000000000000000000000000000000000000000000000000000000000000000000000000000000000000000000000000000000000000000000000000000000000000000000000000000000000000000000000000000000000000000000000000000000000000000000000000000000000000000000000000000000000000000000000000000000000000000000000000000000000000000000000000000000000000000000000000000000000000000000000000000000000000000000000000000000000000000000000000000000000000000000000000000000000000000000000000000000000000000000000000000000000083020000018405f75e77830ad5708203e800a00000000000000000000000000000000000000000000000000000000000000000880000000000000000f892f8908001830ad57094000000000000000000000000000000000000000580b000000000008000000000000000000000000000000000000000000000000000000000000400000000000000000000000a1ba07f92f6c87aa5aae5de02f4fef7b8625a4705dcc83101f5064e85d0451d6f7061a017646ae6179dc3564553aa73ff108c14e72d191c147bfa38b4885b7b88548c23c0",
                "blockHeader" : {
                    "bloom" : "0x00000000000000000000000000000000000000000000000000000000000000000000000000000000000000000000000000000000000000000000000000000000000000000000000000000000000000000000000000000000000000000000000000000000000000000000000000000000000000000000000000000000000000000000000000000000000000000000000000000000000000000000000000000000000000000000000000000000000000000000000000000000000000000000000000000000000000000000000000000000000000000000000000000000000000000000000000000000000000000000000000000000000000000000000000000000",
                    "coinbase" : "0x3535353535353535353535353535353535353535",
                    "difficulty" : "0x20000",
                    "extraData" : "0x00",
                    "gasLimit" : "0x5f75e77",
                    "gasUsed" : "0xad570",
                    "hash" : "0x5f396480b60e4e004a0951ab9273b489e9adcc482acf39f7f40a73750cd2fd2d",
                    "mixHash" : "0x0000000000000000000000000000000000000000000000000000000000000000",
                    "nonce" : "0x0000000000000000",
                    "number" : "0x1",
                    "parentHash" : "0x4029595dab18862590919e877a064591e934cfdfce51556106377e8afd5ff268",
                    "receiptTrie" : "0x8dfd9d049e0456bf94a974667d609e5c56576d7aafa33db7ec255242954592fe",
                    "stateRoot" : "0xdd7406d06c4c49098a37b13a7a7f67fb9be577d945d168a36536b96da8787e83",
                    "timestamp" : "0x3e8",
                    "transactionsTrie" : "0x6392afb63ed1734cd3a3037e0e37e4571727f5f375098de8f4e3a5c751574ef2",
                    "uncleHash" : "0x1dcc4de8dec75d7aab85b567b6ccd41ad312451b948a7413f0a142fd40d49347"
                },
                "transactions" : [
                    {
                        "data" : "0x00000000008000000000000000000000000000000000000000000000000000000000000400000000000000000000000a",
                        "gasLimit" : "0x0ad570",
                        "gasPrice" : "0x01",
                        "nonce" : "0x00",
                        "to" : "0x0000000000000000000000000000000000000005",
                        "value" : "0x",
                        "v" : "0x1b",
                        "r" : "0x7f92f6c87aa5aae5de02f4fef7b8625a4705dcc83101f5064e85d0451d6f7061",
                        "s" : "0x17646ae6179dc3564553aa73ff108c14e72d191c147bfa38b4885b7b88548c23"
                    }
                ]
            }
        ]
    },
    "modexpRandomInput_d1g1v0_Istanbul" : {
        "_info" : {
            "comment" : "Fuzzed input discovered by Guido",
            "filling-rpc-server" : "Geth-1.9.6-unstable-63b18027-20190920",
            "filling-tool-version" : "retesteth-0.0.1+commit.0ae18aef.Linux.g++",
            "lllcversion" : "Version: 0.5.12-develop.2019.9.13+commit.2d601a4f.Linux.g++",
            "source" : "src/GeneralStateTestsFiller/stPreCompiledContracts2/modexpRandomInputFiller.json",
            "sourceHash" : "db73fc1d7dca90e88a86cda8dff6459e3a00b6503fc406a0991208eea3a0e7fc"
        },
        "genesisBlockHeader" : {
            "bloom" : "0x00000000000000000000000000000000000000000000000000000000000000000000000000000000000000000000000000000000000000000000000000000000000000000000000000000000000000000000000000000000000000000000000000000000000000000000000000000000000000000000000000000000000000000000000000000000000000000000000000000000000000000000000000000000000000000000000000000000000000000000000000000000000000000000000000000000000000000000000000000000000000000000000000000000000000000000000000000000000000000000000000000000000000000000000000000000",
            "coinbase" : "0x3535353535353535353535353535353535353535",
            "difficulty" : "0x20000",
            "extraData" : "0x00",
            "gasLimit" : "0x5f5e100",
            "gasUsed" : "0x0",
            "hash" : "0x4029595dab18862590919e877a064591e934cfdfce51556106377e8afd5ff268",
            "mixHash" : "0x0000000000000000000000000000000000000000000000000000000000000000",
            "nonce" : "0x0000000000000000",
            "number" : "0x0",
            "parentHash" : "0x0000000000000000000000000000000000000000000000000000000000000000",
            "receiptTrie" : "0x56e81f171bcc55a6ff8345e692c0f86e5b48e01b996cadc001622fb5e363b421",
            "stateRoot" : "0x70c42824108fafccadbfce71e6e22660c4fad89be18be324cd15ef351969a8c8",
            "timestamp" : "0x0",
            "transactionsTrie" : "0x56e81f171bcc55a6ff8345e692c0f86e5b48e01b996cadc001622fb5e363b421",
            "uncleHash" : "0x1dcc4de8dec75d7aab85b567b6ccd41ad312451b948a7413f0a142fd40d49347"
        },
        "pre" : {
            "0xa94f5374fce5edbc8e2a8697c15331677e6ebf0b" : {
                "balance" : "0x3635c9adc5dea00000",
                "code" : "0x",
                "nonce" : "0x00",
                "storage" : {
                }
            }
        },
        "postState" : {
            "0xa94f5374fce5edbc8e2a8697c15331677e6ebf0b" : {
                "code" : "0x",
                "nonce" : "0x01",
                "balance" : "0x3635c9adc5de353040",
                "storage" : {
                }
            },
            "0x3535353535353535353535353535353535353535" : {
                "code" : "0x",
                "nonce" : "0x00",
                "balance" : "0x1bc16d674f32cfc0",
                "storage" : {
                }
            }
        },
        "network" : "Istanbul",
        "sealEngine" : "NoProof",
        "lastblockhash" : "0x3abe821160aaf9218c52b7e9f5e802f102b00eaf07e1072c00d249d7ee1066fb",
        "genesisRLP" : "0xf901f9f901f4a00000000000000000000000000000000000000000000000000000000000000000a01dcc4de8dec75d7aab85b567b6ccd41ad312451b948a7413f0a142fd40d49347943535353535353535353535353535353535353535a070c42824108fafccadbfce71e6e22660c4fad89be18be324cd15ef351969a8c8a056e81f171bcc55a6ff8345e692c0f86e5b48e01b996cadc001622fb5e363b421a056e81f171bcc55a6ff8345e692c0f86e5b48e01b996cadc001622fb5e363b421b901000000000000000000000000000000000000000000000000000000000000000000000000000000000000000000000000000000000000000000000000000000000000000000000000000000000000000000000000000000000000000000000000000000000000000000000000000000000000000000000000000000000000000000000000000000000000000000000000000000000000000000000000000000000000000000000000000000000000000000000000000000000000000000000000000000000000000000000000000000000000000000000000000000000000000000000000000000000000000000000000000000000000000000000000000000000083020000808405f5e100808000a00000000000000000000000000000000000000000000000000000000000000000880000000000000000c0c0",
        "blocks" : [
            {
                "rlp" : "0xf90291f901f9a04029595dab18862590919e877a064591e934cfdfce51556106377e8afd5ff268a01dcc4de8dec75d7aab85b567b6ccd41ad312451b948a7413f0a142fd40d49347943535353535353535353535353535353535353535a05f9e9b218bb4b565a41dea7c812178fdb6ca460343a94055628e6dd41f1f45aaa0812b801814eaff2a4fb1d08fccc2a9c43bb0b7645f0232a4fb2e856ebef5af8da0f5e363cde3e4f35c049a324bc4f12b97d4026a4d3e18175fa175dc877ce185e4b901000000000000000000000000000000000000000000000000000000000000000000000000000000000000000000000000000000000000000000000000000000000000000000000000000000000000000000000000000000000000000000000000000000000000000000000000000000000000000000000000000000000000000000000000000000000000000000000000000000000000000000000000000000000000000000000000000000000000000000000000000000000000000000000000000000000000000000000000000000000000000000000000000000000000000000000000000000000000000000000000000000000000000000000000000000000083020000018405f75e77836acfc08203e800a00000000000000000000000000000000000000000000000000000000000000000880000000000000000f892f8908001836acfc094000000000000000000000000000000000000000580b000000000008000000000000000000000000000000000000000000000000000000000000400000000000000000000000a1ba01146ab4d2425f6d4771a02c80223b8ba38e236b06b08062041b6d173137dac48a060be39d14b2fd099aaca849e4785dbc283612fb335239c3d37056afc9edfe998c0",
                "blockHeader" : {
                    "bloom" : "0x00000000000000000000000000000000000000000000000000000000000000000000000000000000000000000000000000000000000000000000000000000000000000000000000000000000000000000000000000000000000000000000000000000000000000000000000000000000000000000000000000000000000000000000000000000000000000000000000000000000000000000000000000000000000000000000000000000000000000000000000000000000000000000000000000000000000000000000000000000000000000000000000000000000000000000000000000000000000000000000000000000000000000000000000000000000",
                    "coinbase" : "0x3535353535353535353535353535353535353535",
                    "difficulty" : "0x20000",
                    "extraData" : "0x00",
                    "gasLimit" : "0x5f75e77",
                    "gasUsed" : "0x6acfc0",
                    "hash" : "0x3abe821160aaf9218c52b7e9f5e802f102b00eaf07e1072c00d249d7ee1066fb",
                    "mixHash" : "0x0000000000000000000000000000000000000000000000000000000000000000",
                    "nonce" : "0x0000000000000000",
                    "number" : "0x1",
                    "parentHash" : "0x4029595dab18862590919e877a064591e934cfdfce51556106377e8afd5ff268",
                    "receiptTrie" : "0xf5e363cde3e4f35c049a324bc4f12b97d4026a4d3e18175fa175dc877ce185e4",
                    "stateRoot" : "0x5f9e9b218bb4b565a41dea7c812178fdb6ca460343a94055628e6dd41f1f45aa",
                    "timestamp" : "0x3e8",
                    "transactionsTrie" : "0x812b801814eaff2a4fb1d08fccc2a9c43bb0b7645f0232a4fb2e856ebef5af8d",
                    "uncleHash" : "0x1dcc4de8dec75d7aab85b567b6ccd41ad312451b948a7413f0a142fd40d49347"
                },
                "transactions" : [
                    {
                        "data" : "0x00000000008000000000000000000000000000000000000000000000000000000000000400000000000000000000000a",
                        "gasLimit" : "0x6acfc0",
                        "gasPrice" : "0x01",
                        "nonce" : "0x00",
                        "to" : "0x0000000000000000000000000000000000000005",
                        "value" : "0x",
                        "v" : "0x1b",
                        "r" : "0x1146ab4d2425f6d4771a02c80223b8ba38e236b06b08062041b6d173137dac48",
                        "s" : "0x60be39d14b2fd099aaca849e4785dbc283612fb335239c3d37056afc9edfe998"
                    }
                ]
            }
        ]
    },
    "modexpRandomInput_d2g1v0_Istanbul" : {
        "_info" : {
            "comment" : "Fuzzed input discovered by Guido",
            "filling-rpc-server" : "Geth-1.9.6-unstable-63b18027-20190920",
            "filling-tool-version" : "retesteth-0.0.1+commit.0ae18aef.Linux.g++",
            "lllcversion" : "Version: 0.5.12-develop.2019.9.13+commit.2d601a4f.Linux.g++",
            "source" : "src/GeneralStateTestsFiller/stPreCompiledContracts2/modexpRandomInputFiller.json",
            "sourceHash" : "db73fc1d7dca90e88a86cda8dff6459e3a00b6503fc406a0991208eea3a0e7fc"
        },
        "genesisBlockHeader" : {
            "bloom" : "0x00000000000000000000000000000000000000000000000000000000000000000000000000000000000000000000000000000000000000000000000000000000000000000000000000000000000000000000000000000000000000000000000000000000000000000000000000000000000000000000000000000000000000000000000000000000000000000000000000000000000000000000000000000000000000000000000000000000000000000000000000000000000000000000000000000000000000000000000000000000000000000000000000000000000000000000000000000000000000000000000000000000000000000000000000000000",
            "coinbase" : "0x3535353535353535353535353535353535353535",
            "difficulty" : "0x20000",
            "extraData" : "0x00",
            "gasLimit" : "0x5f5e100",
            "gasUsed" : "0x0",
            "hash" : "0x4029595dab18862590919e877a064591e934cfdfce51556106377e8afd5ff268",
            "mixHash" : "0x0000000000000000000000000000000000000000000000000000000000000000",
            "nonce" : "0x0000000000000000",
            "number" : "0x0",
            "parentHash" : "0x0000000000000000000000000000000000000000000000000000000000000000",
            "receiptTrie" : "0x56e81f171bcc55a6ff8345e692c0f86e5b48e01b996cadc001622fb5e363b421",
            "stateRoot" : "0x70c42824108fafccadbfce71e6e22660c4fad89be18be324cd15ef351969a8c8",
            "timestamp" : "0x0",
            "transactionsTrie" : "0x56e81f171bcc55a6ff8345e692c0f86e5b48e01b996cadc001622fb5e363b421",
            "uncleHash" : "0x1dcc4de8dec75d7aab85b567b6ccd41ad312451b948a7413f0a142fd40d49347"
        },
        "pre" : {
            "0xa94f5374fce5edbc8e2a8697c15331677e6ebf0b" : {
                "balance" : "0x3635c9adc5dea00000",
                "code" : "0x",
                "nonce" : "0x00",
                "storage" : {
                }
            }
        },
        "postState" : {
            "0xa94f5374fce5edbc8e2a8697c15331677e6ebf0b" : {
                "code" : "0x",
                "nonce" : "0x01",
                "balance" : "0x3635c9adc5de353040",
                "storage" : {
                }
            },
            "0x3535353535353535353535353535353535353535" : {
                "code" : "0x",
                "nonce" : "0x00",
                "balance" : "0x1bc16d674f32cfc0",
                "storage" : {
                }
            }
        },
        "network" : "Istanbul",
        "sealEngine" : "NoProof",
        "lastblockhash" : "0xe4722f07a492b5b30b7a82b4cec2af9c7c73bc4d9f741a21578a7de99e2d1b0e",
        "genesisRLP" : "0xf901f9f901f4a00000000000000000000000000000000000000000000000000000000000000000a01dcc4de8dec75d7aab85b567b6ccd41ad312451b948a7413f0a142fd40d49347943535353535353535353535353535353535353535a070c42824108fafccadbfce71e6e22660c4fad89be18be324cd15ef351969a8c8a056e81f171bcc55a6ff8345e692c0f86e5b48e01b996cadc001622fb5e363b421a056e81f171bcc55a6ff8345e692c0f86e5b48e01b996cadc001622fb5e363b421b901000000000000000000000000000000000000000000000000000000000000000000000000000000000000000000000000000000000000000000000000000000000000000000000000000000000000000000000000000000000000000000000000000000000000000000000000000000000000000000000000000000000000000000000000000000000000000000000000000000000000000000000000000000000000000000000000000000000000000000000000000000000000000000000000000000000000000000000000000000000000000000000000000000000000000000000000000000000000000000000000000000000000000000000000000000000083020000808405f5e100808000a00000000000000000000000000000000000000000000000000000000000000000880000000000000000c0c0",
        "blocks" : [
            {
                "rlp" : "0xf902e1f901f9a04029595dab18862590919e877a064591e934cfdfce51556106377e8afd5ff268a01dcc4de8dec75d7aab85b567b6ccd41ad312451b948a7413f0a142fd40d49347943535353535353535353535353535353535353535a05f9e9b218bb4b565a41dea7c812178fdb6ca460343a94055628e6dd41f1f45aaa0f1ef70de54cd45e6c294d78cf889ea15ef5585fbf6c8b72521c30e274fc50e27a0f5e363cde3e4f35c049a324bc4f12b97d4026a4d3e18175fa175dc877ce185e4b901000000000000000000000000000000000000000000000000000000000000000000000000000000000000000000000000000000000000000000000000000000000000000000000000000000000000000000000000000000000000000000000000000000000000000000000000000000000000000000000000000000000000000000000000000000000000000000000000000000000000000000000000000000000000000000000000000000000000000000000000000000000000000000000000000000000000000000000000000000000000000000000000000000000000000000000000000000000000000000000000000000000000000000000000000000000083020000018405f75e77836acfc08203e800a00000000000000000000000000000000000000000000000000000000000000000880000000000000000f8e2f8e08001836acfc094000000000000000000000000000000000000000580b88000000000000000000000000000000000000000000000000000000000000000000000000000000000000000000000000000000000000000000000000000011470000000000000000000000000000000000000000000000000000000000616603500000000000000000000000000000000000000000000000000000000000000081ba0b37d77a66c3e92e5bc6ce02c5cf681dc209534afb388b763837cff9400b6a69b9f08d5cbe47b56954f8a061cfe20c4144f5331587210444a3d0d8b6cbc21869cc0",
                "blockHeader" : {
                    "bloom" : "0x00000000000000000000000000000000000000000000000000000000000000000000000000000000000000000000000000000000000000000000000000000000000000000000000000000000000000000000000000000000000000000000000000000000000000000000000000000000000000000000000000000000000000000000000000000000000000000000000000000000000000000000000000000000000000000000000000000000000000000000000000000000000000000000000000000000000000000000000000000000000000000000000000000000000000000000000000000000000000000000000000000000000000000000000000000000",
                    "coinbase" : "0x3535353535353535353535353535353535353535",
                    "difficulty" : "0x20000",
                    "extraData" : "0x00",
                    "gasLimit" : "0x5f75e77",
                    "gasUsed" : "0x6acfc0",
                    "hash" : "0xe4722f07a492b5b30b7a82b4cec2af9c7c73bc4d9f741a21578a7de99e2d1b0e",
                    "mixHash" : "0x0000000000000000000000000000000000000000000000000000000000000000",
                    "nonce" : "0x0000000000000000",
                    "number" : "0x1",
                    "parentHash" : "0x4029595dab18862590919e877a064591e934cfdfce51556106377e8afd5ff268",
                    "receiptTrie" : "0xf5e363cde3e4f35c049a324bc4f12b97d4026a4d3e18175fa175dc877ce185e4",
                    "stateRoot" : "0x5f9e9b218bb4b565a41dea7c812178fdb6ca460343a94055628e6dd41f1f45aa",
                    "timestamp" : "0x3e8",
                    "transactionsTrie" : "0xf1ef70de54cd45e6c294d78cf889ea15ef5585fbf6c8b72521c30e274fc50e27",
                    "uncleHash" : "0x1dcc4de8dec75d7aab85b567b6ccd41ad312451b948a7413f0a142fd40d49347"
                },
                "transactions" : [
                    {
                        "data" : "0x0000000000000000000000000000000000000000000000000000000000000000000000000000000000000000000000000000000000000000000000000001147000000000000000000000000000000000000000000000000000000000061660350000000000000000000000000000000000000000000000000000000000000008",
                        "gasLimit" : "0x6acfc0",
                        "gasPrice" : "0x01",
                        "nonce" : "0x00",
                        "to" : "0x0000000000000000000000000000000000000005",
                        "value" : "0x",
                        "v" : "0x1b",
                        "r" : "0xb37d77a66c3e92e5bc6ce02c5cf681dc209534afb388b763837cff9400b6a69b",
                        "s" : "0x0008d5cbe47b56954f8a061cfe20c4144f5331587210444a3d0d8b6cbc21869c"
                    }
                ]
            }
        ]
    },
    "modexpRandomInput_d2g0v0_Istanbul" : {
        "_info" : {
            "comment" : "Fuzzed input discovered by Guido",
            "filling-rpc-server" : "Geth-1.9.6-unstable-63b18027-20190920",
            "filling-tool-version" : "retesteth-0.0.1+commit.0ae18aef.Linux.g++",
            "lllcversion" : "Version: 0.5.12-develop.2019.9.13+commit.2d601a4f.Linux.g++",
            "source" : "src/GeneralStateTestsFiller/stPreCompiledContracts2/modexpRandomInputFiller.json",
            "sourceHash" : "db73fc1d7dca90e88a86cda8dff6459e3a00b6503fc406a0991208eea3a0e7fc"
        },
        "genesisBlockHeader" : {
            "bloom" : "0x00000000000000000000000000000000000000000000000000000000000000000000000000000000000000000000000000000000000000000000000000000000000000000000000000000000000000000000000000000000000000000000000000000000000000000000000000000000000000000000000000000000000000000000000000000000000000000000000000000000000000000000000000000000000000000000000000000000000000000000000000000000000000000000000000000000000000000000000000000000000000000000000000000000000000000000000000000000000000000000000000000000000000000000000000000000",
            "coinbase" : "0x3535353535353535353535353535353535353535",
            "difficulty" : "0x20000",
            "extraData" : "0x00",
            "gasLimit" : "0x5f5e100",
            "gasUsed" : "0x0",
            "hash" : "0x4029595dab18862590919e877a064591e934cfdfce51556106377e8afd5ff268",
            "mixHash" : "0x0000000000000000000000000000000000000000000000000000000000000000",
            "nonce" : "0x0000000000000000",
            "number" : "0x0",
            "parentHash" : "0x0000000000000000000000000000000000000000000000000000000000000000",
            "receiptTrie" : "0x56e81f171bcc55a6ff8345e692c0f86e5b48e01b996cadc001622fb5e363b421",
            "stateRoot" : "0x70c42824108fafccadbfce71e6e22660c4fad89be18be324cd15ef351969a8c8",
            "timestamp" : "0x0",
            "transactionsTrie" : "0x56e81f171bcc55a6ff8345e692c0f86e5b48e01b996cadc001622fb5e363b421",
            "uncleHash" : "0x1dcc4de8dec75d7aab85b567b6ccd41ad312451b948a7413f0a142fd40d49347"
        },
        "pre" : {
            "0xa94f5374fce5edbc8e2a8697c15331677e6ebf0b" : {
                "balance" : "0x3635c9adc5dea00000",
                "code" : "0x",
                "nonce" : "0x00",
                "storage" : {
                }
            }
        },
        "postState" : {
            "0xa94f5374fce5edbc8e2a8697c15331677e6ebf0b" : {
                "code" : "0x",
                "nonce" : "0x01",
                "balance" : "0x3635c9adc5de952a90",
                "storage" : {
                }
            },
            "0x3535353535353535353535353535353535353535" : {
                "code" : "0x",
                "nonce" : "0x00",
                "balance" : "0x1bc16d674ed2d570",
                "storage" : {
                }
            }
        },
        "network" : "Istanbul",
        "sealEngine" : "NoProof",
        "lastblockhash" : "0xedf586f5f23e37dbfc7d57fb25168983f288e8d5d9b6bf15244d58cb2fd98d4f",
        "genesisRLP" : "0xf901f9f901f4a00000000000000000000000000000000000000000000000000000000000000000a01dcc4de8dec75d7aab85b567b6ccd41ad312451b948a7413f0a142fd40d49347943535353535353535353535353535353535353535a070c42824108fafccadbfce71e6e22660c4fad89be18be324cd15ef351969a8c8a056e81f171bcc55a6ff8345e692c0f86e5b48e01b996cadc001622fb5e363b421a056e81f171bcc55a6ff8345e692c0f86e5b48e01b996cadc001622fb5e363b421b901000000000000000000000000000000000000000000000000000000000000000000000000000000000000000000000000000000000000000000000000000000000000000000000000000000000000000000000000000000000000000000000000000000000000000000000000000000000000000000000000000000000000000000000000000000000000000000000000000000000000000000000000000000000000000000000000000000000000000000000000000000000000000000000000000000000000000000000000000000000000000000000000000000000000000000000000000000000000000000000000000000000000000000000000000000000083020000808405f5e100808000a00000000000000000000000000000000000000000000000000000000000000000880000000000000000c0c0",
        "blocks" : [
            {
                "rlp" : "0xf902e2f901f9a04029595dab18862590919e877a064591e934cfdfce51556106377e8afd5ff268a01dcc4de8dec75d7aab85b567b6ccd41ad312451b948a7413f0a142fd40d49347943535353535353535353535353535353535353535a0dd7406d06c4c49098a37b13a7a7f67fb9be577d945d168a36536b96da8787e83a0d93477ed709cac0c09f365415693eb1bec6b1baf71b445724b3c60e07530b5e5a08dfd9d049e0456bf94a974667d609e5c56576d7aafa33db7ec255242954592feb901000000000000000000000000000000000000000000000000000000000000000000000000000000000000000000000000000000000000000000000000000000000000000000000000000000000000000000000000000000000000000000000000000000000000000000000000000000000000000000000000000000000000000000000000000000000000000000000000000000000000000000000000000000000000000000000000000000000000000000000000000000000000000000000000000000000000000000000000000000000000000000000000000000000000000000000000000000000000000000000000000000000000000000000000000000000083020000018405f75e77830ad5708203e800a00000000000000000000000000000000000000000000000000000000000000000880000000000000000f8e3f8e18001830ad57094000000000000000000000000000000000000000580b88000000000000000000000000000000000000000000000000000000000000000000000000000000000000000000000000000000000000000000000000000011470000000000000000000000000000000000000000000000000000000000616603500000000000000000000000000000000000000000000000000000000000000081ca0a61dd9f5a65cd90ee4caf2b2660743384f5777328b536d21851d94fc8bc17b7ea0135b6e1801f3a2b34b301dd8667e859b58a4b876c7d506b242957a3b33e9f77dc0",
                "blockHeader" : {
                    "bloom" : "0x00000000000000000000000000000000000000000000000000000000000000000000000000000000000000000000000000000000000000000000000000000000000000000000000000000000000000000000000000000000000000000000000000000000000000000000000000000000000000000000000000000000000000000000000000000000000000000000000000000000000000000000000000000000000000000000000000000000000000000000000000000000000000000000000000000000000000000000000000000000000000000000000000000000000000000000000000000000000000000000000000000000000000000000000000000000",
                    "coinbase" : "0x3535353535353535353535353535353535353535",
                    "difficulty" : "0x20000",
                    "extraData" : "0x00",
                    "gasLimit" : "0x5f75e77",
                    "gasUsed" : "0xad570",
                    "hash" : "0xedf586f5f23e37dbfc7d57fb25168983f288e8d5d9b6bf15244d58cb2fd98d4f",
                    "mixHash" : "0x0000000000000000000000000000000000000000000000000000000000000000",
                    "nonce" : "0x0000000000000000",
                    "number" : "0x1",
                    "parentHash" : "0x4029595dab18862590919e877a064591e934cfdfce51556106377e8afd5ff268",
                    "receiptTrie" : "0x8dfd9d049e0456bf94a974667d609e5c56576d7aafa33db7ec255242954592fe",
                    "stateRoot" : "0xdd7406d06c4c49098a37b13a7a7f67fb9be577d945d168a36536b96da8787e83",
                    "timestamp" : "0x3e8",
                    "transactionsTrie" : "0xd93477ed709cac0c09f365415693eb1bec6b1baf71b445724b3c60e07530b5e5",
                    "uncleHash" : "0x1dcc4de8dec75d7aab85b567b6ccd41ad312451b948a7413f0a142fd40d49347"
                },
                "transactions" : [
                    {
                        "data" : "0x0000000000000000000000000000000000000000000000000000000000000000000000000000000000000000000000000000000000000000000000000001147000000000000000000000000000000000000000000000000000000000061660350000000000000000000000000000000000000000000000000000000000000008",
                        "gasLimit" : "0x0ad570",
                        "gasPrice" : "0x01",
                        "nonce" : "0x00",
                        "to" : "0x0000000000000000000000000000000000000005",
                        "value" : "0x",
                        "v" : "0x1c",
                        "r" : "0xa61dd9f5a65cd90ee4caf2b2660743384f5777328b536d21851d94fc8bc17b7e",
                        "s" : "0x135b6e1801f3a2b34b301dd8667e859b58a4b876c7d506b242957a3b33e9f77d"
                    }
                ]
            }
        ]
    }
}