{
    "dayLimitConstruction_d0g0v0_Istanbul" : {
        "_info" : {
            "comment" : "",
            "filling-rpc-server" : "Geth-1.9.6-unstable-63b18027-20190920",
            "filling-tool-version" : "retesteth-0.0.1+commit.0ae18aef.Linux.g++",
            "lllcversion" : "Version: 0.5.12-develop.2019.9.13+commit.2d601a4f.Linux.g++",
            "source" : "src/GeneralStateTestsFiller/stWalletTest/dayLimitConstructionFiller.json",
            "sourceHash" : "b94c69f62018737eeb00bc78ee76fb9c305c7d45113c50914301d3c75a718169"
        },
        "genesisBlockHeader" : {
            "bloom" : "0x00000000000000000000000000000000000000000000000000000000000000000000000000000000000000000000000000000000000000000000000000000000000000000000000000000000000000000000000000000000000000000000000000000000000000000000000000000000000000000000000000000000000000000000000000000000000000000000000000000000000000000000000000000000000000000000000000000000000000000000000000000000000000000000000000000000000000000000000000000000000000000000000000000000000000000000000000000000000000000000000000000000000000000000000000000000",
            "coinbase" : "0x2adc25665018aa1fe0e6bc666dac8fc2697ff9ba",
            "difficulty" : "0x20000",
            "extraData" : "0x00",
            "gasLimit" : "0x989680",
            "gasUsed" : "0x0",
            "hash" : "0x544a18ac741c77d71efa04ac2a8791ea14b5568aa0f083e1edef8785eba411fe",
            "mixHash" : "0x0000000000000000000000000000000000000000000000000000000000000000",
            "nonce" : "0x0000000000000000",
            "number" : "0x0",
            "parentHash" : "0x0000000000000000000000000000000000000000000000000000000000000000",
            "receiptTrie" : "0x56e81f171bcc55a6ff8345e692c0f86e5b48e01b996cadc001622fb5e363b421",
            "stateRoot" : "0xb583c2416af24efb20fda3822ff7e84d27d78015aa0627f3edec1124956ac797",
            "timestamp" : "0x0",
            "transactionsTrie" : "0x56e81f171bcc55a6ff8345e692c0f86e5b48e01b996cadc001622fb5e363b421",
            "uncleHash" : "0x1dcc4de8dec75d7aab85b567b6ccd41ad312451b948a7413f0a142fd40d49347"
        },
        "pre" : {
            "0xa94f5374fce5edbc8e2a8697c15331677e6ebf0b" : {
                "balance" : "0x0de0b6b3a75ef08f",
                "code" : "0x",
                "nonce" : "0x01",
                "storage" : {
                }
            }
        },
        "postState" : {
            "0xa94f5374fce5edbc8e2a8697c15331677e6ebf0b" : {
                "code" : "0x",
                "nonce" : "0x02",
                "balance" : "0x0de0b6b3a754b3b8",
                "storage" : {
                }
            },
            "0x2adc25665018aa1fe0e6bc666dac8fc2697ff9ba" : {
                "code" : "0x",
                "nonce" : "0x00",
                "balance" : "0x1bc16d674ed23c73",
                "storage" : {
                }
            },
            "0xec0e71ad0a90ffe1909d27dac207f7680abba42d" : {
                "code" : "0x606060405236156100985760e060020a6000350463173825d9811461009a5780632f54bf6e146100f65780634123cb6b1461011a5780635c52c2f5146101235780637065cb4814610154578063746c917114610188578063b20d30a914610191578063b75c7dc6146101c5578063ba51a6df146101f5578063c2cf732614610229578063f00d4b5d14610269578063f1736d86146102a2575b005b6100986004356000600036436040518084848082843750505090910190815260405190819003602001902090506105b9815b600160a060020a0333166000908152610102602052604081205481808083811415610719576108b0565b6102ac6004355b600160a060020a0316600090815261010260205260408120541190565b6102ac60015481565b6100986000364360405180848480828437505050909101908152604051908190036020019020905061070b816100cc565b61009860043560003643604051808484808284375050509091019081526040519081900360200190209050610531816100cc565b6102ac60005481565b610098600435600036436040518084848082843750505090910190815260405190819003602001902090506106ff816100cc565b610098600435600160a060020a03331660009081526101026020526040812054908080838114156102be57610340565b61009860043560003643604051808484808284375050509091019081526040519081900360200190209050610678816100cc565b6102ac600435602435600082815261010360209081526040808320600160a060020a0385168452610102909252822054829081818114156106d1576106f5565b6100986004356024356000600036436040518084848082843750505090910190815260405190819003602001902090506103ca816100cc565b6102ac6101055481565b60408051918252519081900360200190f35b5050506000828152610103602052604081206001810154600284900a92908316819011156103405781546001838101805492909101845590849003905560408051600160a060020a03331681526020810187905281517fc7fb647e59b18047309aa15aad418e5d7ca96d173ad704f1031a2c3d7591734b929181900390910190a15b5050505050565b600160a060020a038316600283610100811015610002570155600160a060020a0384811660008181526101026020908152604080832083905593871680835291849020869055835192835282015281517fb532073b38c83145e3e5135377a08bf9aab55bc0fd7c1179cd4fb995d2a5159c929181900390910190a15b505b505050565b156103c3576103d8836100fd565b156103e357506103c5565b600160a060020a03841660009081526101026020526040812054925082141561040c57506103c5565b6103475b6101045460005b8181101561085f576101048054829081101561000257600091825260008051602061099483398151915201541461048a5761010480546101039160009184908110156100025760008051602061099483398151915201548252506020919091526040812081815560018101829055600201555b600101610417565b60018054810190819055600160a060020a038316906002906101008110156100025790900160005081905550600160005054610102600050600084600160a060020a03168152602001908152602001600020600050819055507f994a936646fe87ffe4f1e469d3d6aa417d6b855598397f323de5b449f765f0c3826040518082600160a060020a0316815260200191505060405180910390a15b505b50565b1561052c5761053f826100fd565b1561054a575061052e565b610552610410565b60015460fa90106105675761056561057c565b505b60015460fa9010610492575061052e565b6106365b600060015b600154811015610899575b600154811080156105ac5750600281610100811015610002570154600014155b156108b95760010161058c565b156103c557600160a060020a0383166000908152610102602052604081205492508214156105e7575061052c565b6001600160005054036000600050541115610602575061052c565b600060028361010081101561000257508301819055600160a060020a03841681526101026020526040812055610578610410565b5060408051600160a060020a038516815290517f58619076adf5bb0943d100ef88d52d7c3fd691b19d3a9071b555b651fbf418da9181900360200190a1505050565b1561052c5760015482111561068d575061052e565b600082905561069a610410565b6040805183815290517facbdb084c721332ac59f9b8e392196c9eb0e4932862da8eb9beaf0dad4f550da9181900360200190a15050565b506001830154600282900a908116600014156106f057600094506106f5565b600194505b5050505092915050565b1561052c575061010555565b1561052e5760006101065550565b60008681526101036020526040812080549094509092508214156107a2578154835560018381018390556101048054918201808255828015829011610771578183600052602060002091820191016107719190610885565b5050506002840181905561010480548892908110156100025760009190915260008051602061099483398151915201555b506001820154600284900a908116600014156108b05760408051600160a060020a03331681526020810188905281517fe1c52dc63b719ade82e8bea94cc41a0d5d28e4aaf536adb5e9cccc9ff8c1aeda929181900390910190a182546001901161089d57600086815261010360205260409020600201546101048054909190811015610002576040600090812060008051602061099483398151915292909201819055808255600180830182905560029092015595506108b09050565b61010480546000808355919091526103c590600080516020610994833981519152908101905b808211156108995760008155600101610885565b5090565b8254600019018355600183018054821790555b50505050919050565b5b600180541180156108dc57506001546002906101008110156100025701546000145b156108f057600180546000190190556108ba565b600154811080156109135750600154600290610100811015610002570154600014155b801561092d57506002816101008110156100025701546000145b1561098e57600154600290610100811015610002578101549082610100811015610002578101919091558190610102906000908361010081101561000257810154825260209290925260408120929092556001546101008110156100025701555b61058156004c0be60200faa20559308cb7b5a1bb3255c16cb1cab91f525b5ae7a03d02fabe",
                "nonce" : "0x01",
                "balance" : "0x64",
                "storage" : {
                    "0x00" : "0x01",
                    "0x6e369836487c234b9e553ef3f787c2d8865520739d340c67b3d251a33986e58d" : "0x01",
                    "0x01" : "0x01",
                    "0x03" : "0xa94f5374fce5edbc8e2a8697c15331677e6ebf0b"
                }
            }
        },
        "network" : "Istanbul",
        "sealEngine" : "NoProof",
        "lastblockhash" : "0x50cc30bbcbf6043409a33a4b7d3fceaa7c6f6331315dd7311b5a01a89c560608",
        "genesisRLP" : "0xf901f8f901f3a00000000000000000000000000000000000000000000000000000000000000000a01dcc4de8dec75d7aab85b567b6ccd41ad312451b948a7413f0a142fd40d49347942adc25665018aa1fe0e6bc666dac8fc2697ff9baa0b583c2416af24efb20fda3822ff7e84d27d78015aa0627f3edec1124956ac797a056e81f171bcc55a6ff8345e692c0f86e5b48e01b996cadc001622fb5e363b421a056e81f171bcc55a6ff8345e692c0f86e5b48e01b996cadc001622fb5e363b421b9010000000000000000000000000000000000000000000000000000000000000000000000000000000000000000000000000000000000000000000000000000000000000000000000000000000000000000000000000000000000000000000000000000000000000000000000000000000000000000000000000000000000000000000000000000000000000000000000000000000000000000000000000000000000000000000000000000000000000000000000000000000000000000000000000000000000000000000000000000000000000000000000000000000000000000000000000000000000000000000000000000000000000000000000000000000000830200008083989680808000a00000000000000000000000000000000000000000000000000000000000000000880000000000000000c0c0",
        "blocks" : [
            {
                "rlp" : "0xf90c49f901f8a0544a18ac741c77d71efa04ac2a8791ea14b5568aa0f083e1edef8785eba411fea01dcc4de8dec75d7aab85b567b6ccd41ad312451b948a7413f0a142fd40d49347942adc25665018aa1fe0e6bc666dac8fc2697ff9baa0f8cd17d19b8610df83176832f6fd20cb40c16e380691ac1b56e5f6b693d2627da00732bbcd019806cbc1b56bb1c206f39e7827fac84b67a5d7c510d5a6c9ef2776a0b1e23a857047933adabbbbbafb83bc0ce951ee0bed34a79882353457a45d9ffab901000000000000000000000000000000000000000000000000000000000000000000000000000000000000000000000000000000000000000000000000000000000000000000000000000000000000000000000000000000000000000000000000000000000000000000000000000000000000000000000000000000000000000000000000000000000000000000000000000000000000000000000000000000000000000000000000000000000000000000000000000000000000000000000000000000000000000000000000000000000000000000000000000000000000000000000000000000000000000000000000000000000000000000000000000000000083020000018398bca4830a3c738203e800a00000000000000000000000000000000000000000000000000000000000000000880000000000000000f90a4af90a470101830c77bb8064b909f9606060409081526001600081815581805533600160a060020a0316600381905581526101026020529190912055620151804204610107556109b4806100456000396000f300606060405236156100985760e060020a6000350463173825d9811461009a5780632f54bf6e146100f65780634123cb6b1461011a5780635c52c2f5146101235780637065cb4814610154578063746c917114610188578063b20d30a914610191578063b75c7dc6146101c5578063ba51a6df146101f5578063c2cf732614610229578063f00d4b5d14610269578063f1736d86146102a2575b005b6100986004356000600036436040518084848082843750505090910190815260405190819003602001902090506105b9815b600160a060020a0333166000908152610102602052604081205481808083811415610719576108b0565b6102ac6004355b600160a060020a0316600090815261010260205260408120541190565b6102ac60015481565b6100986000364360405180848480828437505050909101908152604051908190036020019020905061070b816100cc565b61009860043560003643604051808484808284375050509091019081526040519081900360200190209050610531816100cc565b6102ac60005481565b610098600435600036436040518084848082843750505090910190815260405190819003602001902090506106ff816100cc565b610098600435600160a060020a03331660009081526101026020526040812054908080838114156102be57610340565b61009860043560003643604051808484808284375050509091019081526040519081900360200190209050610678816100cc565b6102ac600435602435600082815261010360209081526040808320600160a060020a0385168452610102909252822054829081818114156106d1576106f5565b6100986004356024356000600036436040518084848082843750505090910190815260405190819003602001902090506103ca816100cc565b6102ac6101055481565b60408051918252519081900360200190f35b5050506000828152610103602052604081206001810154600284900a92908316819011156103405781546001838101805492909101845590849003905560408051600160a060020a03331681526020810187905281517fc7fb647e59b18047309aa15aad418e5d7ca96d173ad704f1031a2c3d7591734b929181900390910190a15b5050505050565b600160a060020a038316600283610100811015610002570155600160a060020a0384811660008181526101026020908152604080832083905593871680835291849020869055835192835282015281517fb532073b38c83145e3e5135377a08bf9aab55bc0fd7c1179cd4fb995d2a5159c929181900390910190a15b505b505050565b156103c3576103d8836100fd565b156103e357506103c5565b600160a060020a03841660009081526101026020526040812054925082141561040c57506103c5565b6103475b6101045460005b8181101561085f576101048054829081101561000257600091825260008051602061099483398151915201541461048a5761010480546101039160009184908110156100025760008051602061099483398151915201548252506020919091526040812081815560018101829055600201555b600101610417565b60018054810190819055600160a060020a038316906002906101008110156100025790900160005081905550600160005054610102600050600084600160a060020a03168152602001908152602001600020600050819055507f994a936646fe87ffe4f1e469d3d6aa417d6b855598397f323de5b449f765f0c3826040518082600160a060020a0316815260200191505060405180910390a15b505b50565b1561052c5761053f826100fd565b1561054a575061052e565b610552610410565b60015460fa90106105675761056561057c565b505b60015460fa9010610492575061052e565b6106365b600060015b600154811015610899575b600154811080156105ac5750600281610100811015610002570154600014155b156108b95760010161058c565b156103c557600160a060020a0383166000908152610102602052604081205492508214156105e7575061052c565b6001600160005054036000600050541115610602575061052c565b600060028361010081101561000257508301819055600160a060020a03841681526101026020526040812055610578610410565b5060408051600160a060020a038516815290517f58619076adf5bb0943d100ef88d52d7c3fd691b19d3a9071b555b651fbf418da9181900360200190a1505050565b1561052c5760015482111561068d575061052e565b600082905561069a610410565b6040805183815290517facbdb084c721332ac59f9b8e392196c9eb0e4932862da8eb9beaf0dad4f550da9181900360200190a15050565b506001830154600282900a908116600014156106f057600094506106f5565b600194505b5050505092915050565b1561052c575061010555565b1561052e5760006101065550565b60008681526101036020526040812080549094509092508214156107a2578154835560018381018390556101048054918201808255828015829011610771578183600052602060002091820191016107719190610885565b5050506002840181905561010480548892908110156100025760009190915260008051602061099483398151915201555b506001820154600284900a908116600014156108b05760408051600160a060020a03331681526020810188905281517fe1c52dc63b719ade82e8bea94cc41a0d5d28e4aaf536adb5e9cccc9ff8c1aeda929181900390910190a182546001901161089d57600086815261010360205260409020600201546101048054909190811015610002576040600090812060008051602061099483398151915292909201819055808255600180830182905560029092015595506108b09050565b61010480546000808355919091526103c590600080516020610994833981519152908101905b808211156108995760008155600101610885565b5090565b8254600019018355600183018054821790555b50505050919050565b5b600180541180156108dc57506001546002906101008110156100025701546000145b156108f057600180546000190190556108ba565b600154811080156109135750600154600290610100811015610002570154600014155b801561092d57506002816101008110156100025701546000145b1561098e57600154600290610100811015610002578101549082610100811015610002578101919091558190610102906000908361010081101561000257810154825260209290925260408120929092556001546101008110156100025701555b61058156004c0be60200faa20559308cb7b5a1bb3255c16cb1cab91f525b5ae7a03d02fabe1ba0ff912aa8486d80e9a2a7df5a1697503ee11b0db319dd0fb88a0f909cd73e94a2a0336c490b9fef56b4a26be1ae4e10fc57f1d5ab47caa3d97e9e0b50d968dd8e60c0",
                "blockHeader" : {
                    "bloom" : "0x00000000000000000000000000000000000000000000000000000000000000000000000000000000000000000000000000000000000000000000000000000000000000000000000000000000000000000000000000000000000000000000000000000000000000000000000000000000000000000000000000000000000000000000000000000000000000000000000000000000000000000000000000000000000000000000000000000000000000000000000000000000000000000000000000000000000000000000000000000000000000000000000000000000000000000000000000000000000000000000000000000000000000000000000000000000",
                    "coinbase" : "0x2adc25665018aa1fe0e6bc666dac8fc2697ff9ba",
                    "difficulty" : "0x20000",
                    "extraData" : "0x00",
                    "gasLimit" : "0x98bca4",
                    "gasUsed" : "0xa3c73",
                    "hash" : "0x50cc30bbcbf6043409a33a4b7d3fceaa7c6f6331315dd7311b5a01a89c560608",
                    "mixHash" : "0x0000000000000000000000000000000000000000000000000000000000000000",
                    "nonce" : "0x0000000000000000",
                    "number" : "0x1",
                    "parentHash" : "0x544a18ac741c77d71efa04ac2a8791ea14b5568aa0f083e1edef8785eba411fe",
                    "receiptTrie" : "0xb1e23a857047933adabbbbbafb83bc0ce951ee0bed34a79882353457a45d9ffa",
                    "stateRoot" : "0xf8cd17d19b8610df83176832f6fd20cb40c16e380691ac1b56e5f6b693d2627d",
                    "timestamp" : "0x3e8",
                    "transactionsTrie" : "0x0732bbcd019806cbc1b56bb1c206f39e7827fac84b67a5d7c510d5a6c9ef2776",
                    "uncleHash" : "0x1dcc4de8dec75d7aab85b567b6ccd41ad312451b948a7413f0a142fd40d49347"
                },
                "transactions" : [
                    {
                        "data" : "0x606060409081526001600081815581805533600160a060020a0316600381905581526101026020529190912055620151804204610107556109b4806100456000396000f300606060405236156100985760e060020a6000350463173825d9811461009a5780632f54bf6e146100f65780634123cb6b1461011a5780635c52c2f5146101235780637065cb4814610154578063746c917114610188578063b20d30a914610191578063b75c7dc6146101c5578063ba51a6df146101f5578063c2cf732614610229578063f00d4b5d14610269578063f1736d86146102a2575b005b6100986004356000600036436040518084848082843750505090910190815260405190819003602001902090506105b9815b600160a060020a0333166000908152610102602052604081205481808083811415610719576108b0565b6102ac6004355b600160a060020a0316600090815261010260205260408120541190565b6102ac60015481565b6100986000364360405180848480828437505050909101908152604051908190036020019020905061070b816100cc565b61009860043560003643604051808484808284375050509091019081526040519081900360200190209050610531816100cc565b6102ac60005481565b610098600435600036436040518084848082843750505090910190815260405190819003602001902090506106ff816100cc565b610098600435600160a060020a03331660009081526101026020526040812054908080838114156102be57610340565b61009860043560003643604051808484808284375050509091019081526040519081900360200190209050610678816100cc565b6102ac600435602435600082815261010360209081526040808320600160a060020a0385168452610102909252822054829081818114156106d1576106f5565b6100986004356024356000600036436040518084848082843750505090910190815260405190819003602001902090506103ca816100cc565b6102ac6101055481565b60408051918252519081900360200190f35b5050506000828152610103602052604081206001810154600284900a92908316819011156103405781546001838101805492909101845590849003905560408051600160a060020a03331681526020810187905281517fc7fb647e59b18047309aa15aad418e5d7ca96d173ad704f1031a2c3d7591734b929181900390910190a15b5050505050565b600160a060020a038316600283610100811015610002570155600160a060020a0384811660008181526101026020908152604080832083905593871680835291849020869055835192835282015281517fb532073b38c83145e3e5135377a08bf9aab55bc0fd7c1179cd4fb995d2a5159c929181900390910190a15b505b505050565b156103c3576103d8836100fd565b156103e357506103c5565b600160a060020a03841660009081526101026020526040812054925082141561040c57506103c5565b6103475b6101045460005b8181101561085f576101048054829081101561000257600091825260008051602061099483398151915201541461048a5761010480546101039160009184908110156100025760008051602061099483398151915201548252506020919091526040812081815560018101829055600201555b600101610417565b60018054810190819055600160a060020a038316906002906101008110156100025790900160005081905550600160005054610102600050600084600160a060020a03168152602001908152602001600020600050819055507f994a936646fe87ffe4f1e469d3d6aa417d6b855598397f323de5b449f765f0c3826040518082600160a060020a0316815260200191505060405180910390a15b505b50565b1561052c5761053f826100fd565b1561054a575061052e565b610552610410565b60015460fa90106105675761056561057c565b505b60015460fa9010610492575061052e565b6106365b600060015b600154811015610899575b600154811080156105ac5750600281610100811015610002570154600014155b156108b95760010161058c565b156103c557600160a060020a0383166000908152610102602052604081205492508214156105e7575061052c565b6001600160005054036000600050541115610602575061052c565b600060028361010081101561000257508301819055600160a060020a03841681526101026020526040812055610578610410565b5060408051600160a060020a038516815290517f58619076adf5bb0943d100ef88d52d7c3fd691b19d3a9071b555b651fbf418da9181900360200190a1505050565b1561052c5760015482111561068d575061052e565b600082905561069a610410565b6040805183815290517facbdb084c721332ac59f9b8e392196c9eb0e4932862da8eb9beaf0dad4f550da9181900360200190a15050565b506001830154600282900a908116600014156106f057600094506106f5565b600194505b5050505092915050565b1561052c575061010555565b1561052e5760006101065550565b60008681526101036020526040812080549094509092508214156107a2578154835560018381018390556101048054918201808255828015829011610771578183600052602060002091820191016107719190610885565b5050506002840181905561010480548892908110156100025760009190915260008051602061099483398151915201555b506001820154600284900a908116600014156108b05760408051600160a060020a03331681526020810188905281517fe1c52dc63b719ade82e8bea94cc41a0d5d28e4aaf536adb5e9cccc9ff8c1aeda929181900390910190a182546001901161089d57600086815261010360205260409020600201546101048054909190811015610002576040600090812060008051602061099483398151915292909201819055808255600180830182905560029092015595506108b09050565b61010480546000808355919091526103c590600080516020610994833981519152908101905b808211156108995760008155600101610885565b5090565b8254600019018355600183018054821790555b50505050919050565b5b600180541180156108dc57506001546002906101008110156100025701546000145b156108f057600180546000190190556108ba565b600154811080156109135750600154600290610100811015610002570154600014155b801561092d57506002816101008110156100025701546000145b1561098e57600154600290610100811015610002578101549082610100811015610002578101919091558190610102906000908361010081101561000257810154825260209290925260408120929092556001546101008110156100025701555b61058156004c0be60200faa20559308cb7b5a1bb3255c16cb1cab91f525b5ae7a03d02fabe",
                        "gasLimit" : "0x0c77bb",
                        "gasPrice" : "0x01",
                        "nonce" : "0x01",
                        "to" : "",
                        "value" : "0x64",
                        "v" : "0x1b",
                        "r" : "0xff912aa8486d80e9a2a7df5a1697503ee11b0db319dd0fb88a0f909cd73e94a2",
                        "s" : "0x336c490b9fef56b4a26be1ae4e10fc57f1d5ab47caa3d97e9e0b50d968dd8e60"
                    }
                ]
            }
        ]
    },
    "dayLimitConstruction_d0g1v0_Istanbul" : {
        "_info" : {
            "comment" : "",
            "filling-rpc-server" : "Geth-1.9.6-unstable-63b18027-20190920",
            "filling-tool-version" : "retesteth-0.0.1+commit.0ae18aef.Linux.g++",
            "lllcversion" : "Version: 0.5.12-develop.2019.9.13+commit.2d601a4f.Linux.g++",
            "source" : "src/GeneralStateTestsFiller/stWalletTest/dayLimitConstructionFiller.json",
            "sourceHash" : "b94c69f62018737eeb00bc78ee76fb9c305c7d45113c50914301d3c75a718169"
        },
        "genesisBlockHeader" : {
            "bloom" : "0x00000000000000000000000000000000000000000000000000000000000000000000000000000000000000000000000000000000000000000000000000000000000000000000000000000000000000000000000000000000000000000000000000000000000000000000000000000000000000000000000000000000000000000000000000000000000000000000000000000000000000000000000000000000000000000000000000000000000000000000000000000000000000000000000000000000000000000000000000000000000000000000000000000000000000000000000000000000000000000000000000000000000000000000000000000000",
            "coinbase" : "0x2adc25665018aa1fe0e6bc666dac8fc2697ff9ba",
            "difficulty" : "0x20000",
            "extraData" : "0x00",
            "gasLimit" : "0x989680",
            "gasUsed" : "0x0",
            "hash" : "0x544a18ac741c77d71efa04ac2a8791ea14b5568aa0f083e1edef8785eba411fe",
            "mixHash" : "0x0000000000000000000000000000000000000000000000000000000000000000",
            "nonce" : "0x0000000000000000",
            "number" : "0x0",
            "parentHash" : "0x0000000000000000000000000000000000000000000000000000000000000000",
            "receiptTrie" : "0x56e81f171bcc55a6ff8345e692c0f86e5b48e01b996cadc001622fb5e363b421",
            "stateRoot" : "0xb583c2416af24efb20fda3822ff7e84d27d78015aa0627f3edec1124956ac797",
            "timestamp" : "0x0",
            "transactionsTrie" : "0x56e81f171bcc55a6ff8345e692c0f86e5b48e01b996cadc001622fb5e363b421",
            "uncleHash" : "0x1dcc4de8dec75d7aab85b567b6ccd41ad312451b948a7413f0a142fd40d49347"
        },
        "pre" : {
            "0xa94f5374fce5edbc8e2a8697c15331677e6ebf0b" : {
                "balance" : "0x0de0b6b3a75ef08f",
                "code" : "0x",
                "nonce" : "0x01",
                "storage" : {
                }
            }
        },
        "postState" : {
            "0xa94f5374fce5edbc8e2a8697c15331677e6ebf0b" : {
                "code" : "0x",
                "nonce" : "0x02",
                "balance" : "0x0de0b6b3a754b3b8",
                "storage" : {
                }
            },
            "0x2adc25665018aa1fe0e6bc666dac8fc2697ff9ba" : {
                "code" : "0x",
                "nonce" : "0x00",
                "balance" : "0x1bc16d674ed23c73",
                "storage" : {
                }
            },
            "0xec0e71ad0a90ffe1909d27dac207f7680abba42d" : {
                "code" : "0x606060405236156100985760e060020a6000350463173825d9811461009a5780632f54bf6e146100f65780634123cb6b1461011a5780635c52c2f5146101235780637065cb4814610154578063746c917114610188578063b20d30a914610191578063b75c7dc6146101c5578063ba51a6df146101f5578063c2cf732614610229578063f00d4b5d14610269578063f1736d86146102a2575b005b6100986004356000600036436040518084848082843750505090910190815260405190819003602001902090506105b9815b600160a060020a0333166000908152610102602052604081205481808083811415610719576108b0565b6102ac6004355b600160a060020a0316600090815261010260205260408120541190565b6102ac60015481565b6100986000364360405180848480828437505050909101908152604051908190036020019020905061070b816100cc565b61009860043560003643604051808484808284375050509091019081526040519081900360200190209050610531816100cc565b6102ac60005481565b610098600435600036436040518084848082843750505090910190815260405190819003602001902090506106ff816100cc565b610098600435600160a060020a03331660009081526101026020526040812054908080838114156102be57610340565b61009860043560003643604051808484808284375050509091019081526040519081900360200190209050610678816100cc565b6102ac600435602435600082815261010360209081526040808320600160a060020a0385168452610102909252822054829081818114156106d1576106f5565b6100986004356024356000600036436040518084848082843750505090910190815260405190819003602001902090506103ca816100cc565b6102ac6101055481565b60408051918252519081900360200190f35b5050506000828152610103602052604081206001810154600284900a92908316819011156103405781546001838101805492909101845590849003905560408051600160a060020a03331681526020810187905281517fc7fb647e59b18047309aa15aad418e5d7ca96d173ad704f1031a2c3d7591734b929181900390910190a15b5050505050565b600160a060020a038316600283610100811015610002570155600160a060020a0384811660008181526101026020908152604080832083905593871680835291849020869055835192835282015281517fb532073b38c83145e3e5135377a08bf9aab55bc0fd7c1179cd4fb995d2a5159c929181900390910190a15b505b505050565b156103c3576103d8836100fd565b156103e357506103c5565b600160a060020a03841660009081526101026020526040812054925082141561040c57506103c5565b6103475b6101045460005b8181101561085f576101048054829081101561000257600091825260008051602061099483398151915201541461048a5761010480546101039160009184908110156100025760008051602061099483398151915201548252506020919091526040812081815560018101829055600201555b600101610417565b60018054810190819055600160a060020a038316906002906101008110156100025790900160005081905550600160005054610102600050600084600160a060020a03168152602001908152602001600020600050819055507f994a936646fe87ffe4f1e469d3d6aa417d6b855598397f323de5b449f765f0c3826040518082600160a060020a0316815260200191505060405180910390a15b505b50565b1561052c5761053f826100fd565b1561054a575061052e565b610552610410565b60015460fa90106105675761056561057c565b505b60015460fa9010610492575061052e565b6106365b600060015b600154811015610899575b600154811080156105ac5750600281610100811015610002570154600014155b156108b95760010161058c565b156103c557600160a060020a0383166000908152610102602052604081205492508214156105e7575061052c565b6001600160005054036000600050541115610602575061052c565b600060028361010081101561000257508301819055600160a060020a03841681526101026020526040812055610578610410565b5060408051600160a060020a038516815290517f58619076adf5bb0943d100ef88d52d7c3fd691b19d3a9071b555b651fbf418da9181900360200190a1505050565b1561052c5760015482111561068d575061052e565b600082905561069a610410565b6040805183815290517facbdb084c721332ac59f9b8e392196c9eb0e4932862da8eb9beaf0dad4f550da9181900360200190a15050565b506001830154600282900a908116600014156106f057600094506106f5565b600194505b5050505092915050565b1561052c575061010555565b1561052e5760006101065550565b60008681526101036020526040812080549094509092508214156107a2578154835560018381018390556101048054918201808255828015829011610771578183600052602060002091820191016107719190610885565b5050506002840181905561010480548892908110156100025760009190915260008051602061099483398151915201555b506001820154600284900a908116600014156108b05760408051600160a060020a03331681526020810188905281517fe1c52dc63b719ade82e8bea94cc41a0d5d28e4aaf536adb5e9cccc9ff8c1aeda929181900390910190a182546001901161089d57600086815261010360205260409020600201546101048054909190811015610002576040600090812060008051602061099483398151915292909201819055808255600180830182905560029092015595506108b09050565b61010480546000808355919091526103c590600080516020610994833981519152908101905b808211156108995760008155600101610885565b5090565b8254600019018355600183018054821790555b50505050919050565b5b600180541180156108dc57506001546002906101008110156100025701546000145b156108f057600180546000190190556108ba565b600154811080156109135750600154600290610100811015610002570154600014155b801561092d57506002816101008110156100025701546000145b1561098e57600154600290610100811015610002578101549082610100811015610002578101919091558190610102906000908361010081101561000257810154825260209290925260408120929092556001546101008110156100025701555b61058156004c0be60200faa20559308cb7b5a1bb3255c16cb1cab91f525b5ae7a03d02fabe",
                "nonce" : "0x01",
                "balance" : "0x64",
                "storage" : {
                    "0x00" : "0x01",
                    "0x6e369836487c234b9e553ef3f787c2d8865520739d340c67b3d251a33986e58d" : "0x01",
                    "0x01" : "0x01",
                    "0x03" : "0xa94f5374fce5edbc8e2a8697c15331677e6ebf0b"
                }
            }
        },
        "network" : "Istanbul",
        "sealEngine" : "NoProof",
        "lastblockhash" : "0x623de8c8c8ea45fc6091d7a758a525f4b1555f8f5d9b65325e25efdbf9bedf5d",
        "genesisRLP" : "0xf901f8f901f3a00000000000000000000000000000000000000000000000000000000000000000a01dcc4de8dec75d7aab85b567b6ccd41ad312451b948a7413f0a142fd40d49347942adc25665018aa1fe0e6bc666dac8fc2697ff9baa0b583c2416af24efb20fda3822ff7e84d27d78015aa0627f3edec1124956ac797a056e81f171bcc55a6ff8345e692c0f86e5b48e01b996cadc001622fb5e363b421a056e81f171bcc55a6ff8345e692c0f86e5b48e01b996cadc001622fb5e363b421b9010000000000000000000000000000000000000000000000000000000000000000000000000000000000000000000000000000000000000000000000000000000000000000000000000000000000000000000000000000000000000000000000000000000000000000000000000000000000000000000000000000000000000000000000000000000000000000000000000000000000000000000000000000000000000000000000000000000000000000000000000000000000000000000000000000000000000000000000000000000000000000000000000000000000000000000000000000000000000000000000000000000000000000000000000000000000830200008083989680808000a00000000000000000000000000000000000000000000000000000000000000000880000000000000000c0c0",
        "blocks" : [
            {
                "rlp" : "0xf90c49f901f8a0544a18ac741c77d71efa04ac2a8791ea14b5568aa0f083e1edef8785eba411fea01dcc4de8dec75d7aab85b567b6ccd41ad312451b948a7413f0a142fd40d49347942adc25665018aa1fe0e6bc666dac8fc2697ff9baa0f8cd17d19b8610df83176832f6fd20cb40c16e380691ac1b56e5f6b693d2627da0637cf67276bb38ca171e1d6a216d2f75980aec386947c98080a251949aeedee5a0b1e23a857047933adabbbbbafb83bc0ce951ee0bed34a79882353457a45d9ffab901000000000000000000000000000000000000000000000000000000000000000000000000000000000000000000000000000000000000000000000000000000000000000000000000000000000000000000000000000000000000000000000000000000000000000000000000000000000000000000000000000000000000000000000000000000000000000000000000000000000000000000000000000000000000000000000000000000000000000000000000000000000000000000000000000000000000000000000000000000000000000000000000000000000000000000000000000000000000000000000000000000000000000000000000000000000083020000018398bca4830a3c738203e800a00000000000000000000000000000000000000000000000000000000000000000880000000000000000f90a4af90a4701018312923b8064b909f9606060409081526001600081815581805533600160a060020a0316600381905581526101026020529190912055620151804204610107556109b4806100456000396000f300606060405236156100985760e060020a6000350463173825d9811461009a5780632f54bf6e146100f65780634123cb6b1461011a5780635c52c2f5146101235780637065cb4814610154578063746c917114610188578063b20d30a914610191578063b75c7dc6146101c5578063ba51a6df146101f5578063c2cf732614610229578063f00d4b5d14610269578063f1736d86146102a2575b005b6100986004356000600036436040518084848082843750505090910190815260405190819003602001902090506105b9815b600160a060020a0333166000908152610102602052604081205481808083811415610719576108b0565b6102ac6004355b600160a060020a0316600090815261010260205260408120541190565b6102ac60015481565b6100986000364360405180848480828437505050909101908152604051908190036020019020905061070b816100cc565b61009860043560003643604051808484808284375050509091019081526040519081900360200190209050610531816100cc565b6102ac60005481565b610098600435600036436040518084848082843750505090910190815260405190819003602001902090506106ff816100cc565b610098600435600160a060020a03331660009081526101026020526040812054908080838114156102be57610340565b61009860043560003643604051808484808284375050509091019081526040519081900360200190209050610678816100cc565b6102ac600435602435600082815261010360209081526040808320600160a060020a0385168452610102909252822054829081818114156106d1576106f5565b6100986004356024356000600036436040518084848082843750505090910190815260405190819003602001902090506103ca816100cc565b6102ac6101055481565b60408051918252519081900360200190f35b5050506000828152610103602052604081206001810154600284900a92908316819011156103405781546001838101805492909101845590849003905560408051600160a060020a03331681526020810187905281517fc7fb647e59b18047309aa15aad418e5d7ca96d173ad704f1031a2c3d7591734b929181900390910190a15b5050505050565b600160a060020a038316600283610100811015610002570155600160a060020a0384811660008181526101026020908152604080832083905593871680835291849020869055835192835282015281517fb532073b38c83145e3e5135377a08bf9aab55bc0fd7c1179cd4fb995d2a5159c929181900390910190a15b505b505050565b156103c3576103d8836100fd565b156103e357506103c5565b600160a060020a03841660009081526101026020526040812054925082141561040c57506103c5565b6103475b6101045460005b8181101561085f576101048054829081101561000257600091825260008051602061099483398151915201541461048a5761010480546101039160009184908110156100025760008051602061099483398151915201548252506020919091526040812081815560018101829055600201555b600101610417565b60018054810190819055600160a060020a038316906002906101008110156100025790900160005081905550600160005054610102600050600084600160a060020a03168152602001908152602001600020600050819055507f994a936646fe87ffe4f1e469d3d6aa417d6b855598397f323de5b449f765f0c3826040518082600160a060020a0316815260200191505060405180910390a15b505b50565b1561052c5761053f826100fd565b1561054a575061052e565b610552610410565b60015460fa90106105675761056561057c565b505b60015460fa9010610492575061052e565b6106365b600060015b600154811015610899575b600154811080156105ac5750600281610100811015610002570154600014155b156108b95760010161058c565b156103c557600160a060020a0383166000908152610102602052604081205492508214156105e7575061052c565b6001600160005054036000600050541115610602575061052c565b600060028361010081101561000257508301819055600160a060020a03841681526101026020526040812055610578610410565b5060408051600160a060020a038516815290517f58619076adf5bb0943d100ef88d52d7c3fd691b19d3a9071b555b651fbf418da9181900360200190a1505050565b1561052c5760015482111561068d575061052e565b600082905561069a610410565b6040805183815290517facbdb084c721332ac59f9b8e392196c9eb0e4932862da8eb9beaf0dad4f550da9181900360200190a15050565b506001830154600282900a908116600014156106f057600094506106f5565b600194505b5050505092915050565b1561052c575061010555565b1561052e5760006101065550565b60008681526101036020526040812080549094509092508214156107a2578154835560018381018390556101048054918201808255828015829011610771578183600052602060002091820191016107719190610885565b5050506002840181905561010480548892908110156100025760009190915260008051602061099483398151915201555b506001820154600284900a908116600014156108b05760408051600160a060020a03331681526020810188905281517fe1c52dc63b719ade82e8bea94cc41a0d5d28e4aaf536adb5e9cccc9ff8c1aeda929181900390910190a182546001901161089d57600086815261010360205260409020600201546101048054909190811015610002576040600090812060008051602061099483398151915292909201819055808255600180830182905560029092015595506108b09050565b61010480546000808355919091526103c590600080516020610994833981519152908101905b808211156108995760008155600101610885565b5090565b8254600019018355600183018054821790555b50505050919050565b5b600180541180156108dc57506001546002906101008110156100025701546000145b156108f057600180546000190190556108ba565b600154811080156109135750600154600290610100811015610002570154600014155b801561092d57506002816101008110156100025701546000145b1561098e57600154600290610100811015610002578101549082610100811015610002578101919091558190610102906000908361010081101561000257810154825260209290925260408120929092556001546101008110156100025701555b61058156004c0be60200faa20559308cb7b5a1bb3255c16cb1cab91f525b5ae7a03d02fabe1ca020a717a88baa3836ef3e6f9bcd1fbcd98fb4fec82a0718be7e4a527236bdeb09a035e1b2c47ff7863c52a6cbac901db73192b3c06231f92453cefb595460668081c0",
                "blockHeader" : {
                    "bloom" : "0x00000000000000000000000000000000000000000000000000000000000000000000000000000000000000000000000000000000000000000000000000000000000000000000000000000000000000000000000000000000000000000000000000000000000000000000000000000000000000000000000000000000000000000000000000000000000000000000000000000000000000000000000000000000000000000000000000000000000000000000000000000000000000000000000000000000000000000000000000000000000000000000000000000000000000000000000000000000000000000000000000000000000000000000000000000000",
                    "coinbase" : "0x2adc25665018aa1fe0e6bc666dac8fc2697ff9ba",
                    "difficulty" : "0x20000",
                    "extraData" : "0x00",
                    "gasLimit" : "0x98bca4",
                    "gasUsed" : "0xa3c73",
                    "hash" : "0x623de8c8c8ea45fc6091d7a758a525f4b1555f8f5d9b65325e25efdbf9bedf5d",
                    "mixHash" : "0x0000000000000000000000000000000000000000000000000000000000000000",
                    "nonce" : "0x0000000000000000",
                    "number" : "0x1",
                    "parentHash" : "0x544a18ac741c77d71efa04ac2a8791ea14b5568aa0f083e1edef8785eba411fe",
                    "receiptTrie" : "0xb1e23a857047933adabbbbbafb83bc0ce951ee0bed34a79882353457a45d9ffa",
                    "stateRoot" : "0xf8cd17d19b8610df83176832f6fd20cb40c16e380691ac1b56e5f6b693d2627d",
                    "timestamp" : "0x3e8",
                    "transactionsTrie" : "0x637cf67276bb38ca171e1d6a216d2f75980aec386947c98080a251949aeedee5",
                    "uncleHash" : "0x1dcc4de8dec75d7aab85b567b6ccd41ad312451b948a7413f0a142fd40d49347"
                },
                "transactions" : [
                    {
                        "data" : "0x606060409081526001600081815581805533600160a060020a0316600381905581526101026020529190912055620151804204610107556109b4806100456000396000f300606060405236156100985760e060020a6000350463173825d9811461009a5780632f54bf6e146100f65780634123cb6b1461011a5780635c52c2f5146101235780637065cb4814610154578063746c917114610188578063b20d30a914610191578063b75c7dc6146101c5578063ba51a6df146101f5578063c2cf732614610229578063f00d4b5d14610269578063f1736d86146102a2575b005b6100986004356000600036436040518084848082843750505090910190815260405190819003602001902090506105b9815b600160a060020a0333166000908152610102602052604081205481808083811415610719576108b0565b6102ac6004355b600160a060020a0316600090815261010260205260408120541190565b6102ac60015481565b6100986000364360405180848480828437505050909101908152604051908190036020019020905061070b816100cc565b61009860043560003643604051808484808284375050509091019081526040519081900360200190209050610531816100cc565b6102ac60005481565b610098600435600036436040518084848082843750505090910190815260405190819003602001902090506106ff816100cc565b610098600435600160a060020a03331660009081526101026020526040812054908080838114156102be57610340565b61009860043560003643604051808484808284375050509091019081526040519081900360200190209050610678816100cc565b6102ac600435602435600082815261010360209081526040808320600160a060020a0385168452610102909252822054829081818114156106d1576106f5565b6100986004356024356000600036436040518084848082843750505090910190815260405190819003602001902090506103ca816100cc565b6102ac6101055481565b60408051918252519081900360200190f35b5050506000828152610103602052604081206001810154600284900a92908316819011156103405781546001838101805492909101845590849003905560408051600160a060020a03331681526020810187905281517fc7fb647e59b18047309aa15aad418e5d7ca96d173ad704f1031a2c3d7591734b929181900390910190a15b5050505050565b600160a060020a038316600283610100811015610002570155600160a060020a0384811660008181526101026020908152604080832083905593871680835291849020869055835192835282015281517fb532073b38c83145e3e5135377a08bf9aab55bc0fd7c1179cd4fb995d2a5159c929181900390910190a15b505b505050565b156103c3576103d8836100fd565b156103e357506103c5565b600160a060020a03841660009081526101026020526040812054925082141561040c57506103c5565b6103475b6101045460005b8181101561085f576101048054829081101561000257600091825260008051602061099483398151915201541461048a5761010480546101039160009184908110156100025760008051602061099483398151915201548252506020919091526040812081815560018101829055600201555b600101610417565b60018054810190819055600160a060020a038316906002906101008110156100025790900160005081905550600160005054610102600050600084600160a060020a03168152602001908152602001600020600050819055507f994a936646fe87ffe4f1e469d3d6aa417d6b855598397f323de5b449f765f0c3826040518082600160a060020a0316815260200191505060405180910390a15b505b50565b1561052c5761053f826100fd565b1561054a575061052e565b610552610410565b60015460fa90106105675761056561057c565b505b60015460fa9010610492575061052e565b6106365b600060015b600154811015610899575b600154811080156105ac5750600281610100811015610002570154600014155b156108b95760010161058c565b156103c557600160a060020a0383166000908152610102602052604081205492508214156105e7575061052c565b6001600160005054036000600050541115610602575061052c565b600060028361010081101561000257508301819055600160a060020a03841681526101026020526040812055610578610410565b5060408051600160a060020a038516815290517f58619076adf5bb0943d100ef88d52d7c3fd691b19d3a9071b555b651fbf418da9181900360200190a1505050565b1561052c5760015482111561068d575061052e565b600082905561069a610410565b6040805183815290517facbdb084c721332ac59f9b8e392196c9eb0e4932862da8eb9beaf0dad4f550da9181900360200190a15050565b506001830154600282900a908116600014156106f057600094506106f5565b600194505b5050505092915050565b1561052c575061010555565b1561052e5760006101065550565b60008681526101036020526040812080549094509092508214156107a2578154835560018381018390556101048054918201808255828015829011610771578183600052602060002091820191016107719190610885565b5050506002840181905561010480548892908110156100025760009190915260008051602061099483398151915201555b506001820154600284900a908116600014156108b05760408051600160a060020a03331681526020810188905281517fe1c52dc63b719ade82e8bea94cc41a0d5d28e4aaf536adb5e9cccc9ff8c1aeda929181900390910190a182546001901161089d57600086815261010360205260409020600201546101048054909190811015610002576040600090812060008051602061099483398151915292909201819055808255600180830182905560029092015595506108b09050565b61010480546000808355919091526103c590600080516020610994833981519152908101905b808211156108995760008155600101610885565b5090565b8254600019018355600183018054821790555b50505050919050565b5b600180541180156108dc57506001546002906101008110156100025701546000145b156108f057600180546000190190556108ba565b600154811080156109135750600154600290610100811015610002570154600014155b801561092d57506002816101008110156100025701546000145b1561098e57600154600290610100811015610002578101549082610100811015610002578101919091558190610102906000908361010081101561000257810154825260209290925260408120929092556001546101008110156100025701555b61058156004c0be60200faa20559308cb7b5a1bb3255c16cb1cab91f525b5ae7a03d02fabe",
                        "gasLimit" : "0x12923b",
                        "gasPrice" : "0x01",
                        "nonce" : "0x01",
                        "to" : "",
                        "value" : "0x64",
                        "v" : "0x1c",
                        "r" : "0x20a717a88baa3836ef3e6f9bcd1fbcd98fb4fec82a0718be7e4a527236bdeb09",
                        "s" : "0x35e1b2c47ff7863c52a6cbac901db73192b3c06231f92453cefb595460668081"
                    }
                ]
            }
        ]
    }
}