{
    "multiOwnedChangeOwner_d0g0v0_Istanbul" : {
        "_info" : {
            "comment" : "",
            "filling-rpc-server" : "Geth-1.9.6-unstable-63b18027-20190920",
            "filling-tool-version" : "retesteth-0.0.1+commit.0ae18aef.Linux.g++",
            "lllcversion" : "Version: 0.5.12-develop.2019.9.13+commit.2d601a4f.Linux.g++",
            "source" : "src/GeneralStateTestsFiller/stWalletTest/multiOwnedChangeOwnerFiller.json",
            "sourceHash" : "0c58010d23465646c3d1f04c39869cca8f486e40b685ca89ae769084ff4e9369"
        },
        "genesisBlockHeader" : {
            "bloom" : "0x00000000000000000000000000000000000000000000000000000000000000000000000000000000000000000000000000000000000000000000000000000000000000000000000000000000000000000000000000000000000000000000000000000000000000000000000000000000000000000000000000000000000000000000000000000000000000000000000000000000000000000000000000000000000000000000000000000000000000000000000000000000000000000000000000000000000000000000000000000000000000000000000000000000000000000000000000000000000000000000000000000000000000000000000000000000",
            "coinbase" : "0x2adc25665018aa1fe0e6bc666dac8fc2697ff9ba",
            "difficulty" : "0x20000",
            "extraData" : "0x00",
            "gasLimit" : "0x5f5e100",
            "gasUsed" : "0x0",
            "hash" : "0xf3298a15ce441df483b3096c4145e20e03c45a1e121cc8645a69f65e6f271e78",
            "mixHash" : "0x0000000000000000000000000000000000000000000000000000000000000000",
            "nonce" : "0x0000000000000000",
            "number" : "0x0",
            "parentHash" : "0x0000000000000000000000000000000000000000000000000000000000000000",
            "receiptTrie" : "0x56e81f171bcc55a6ff8345e692c0f86e5b48e01b996cadc001622fb5e363b421",
            "stateRoot" : "0x163363998057037c27d0553bd4c94fd31f8be0471159b985a2d947c3f3901d00",
            "timestamp" : "0x0",
            "transactionsTrie" : "0x56e81f171bcc55a6ff8345e692c0f86e5b48e01b996cadc001622fb5e363b421",
            "uncleHash" : "0x1dcc4de8dec75d7aab85b567b6ccd41ad312451b948a7413f0a142fd40d49347"
        },
        "pre" : {
            "0x6295ee1b4f6dd65047762f924ecd367c17eabf8f" : {
                "balance" : "0x64",
                "code" : "0x606060405236156100775760e060020a6000350463173825d981146100795780632f54bf6e146100d55780634123cb6b146100f95780637065cb4814610102578063746c917114610136578063b75c7dc61461013f578063ba51a6df1461016f578063c2cf7326146101a3578063f00d4b5d146101e3575b005b610077600435600060003643604051808484808284375050509091019081526040519081900360200190209050610529815b600160a060020a033316600090815261010260205260408120548180808381141561066f57610806565b61021c6004355b600160a060020a0316600090815261010260205260408120541190565b61021c60015481565b610077600435600036436040518084848082843750505090910190815260405190819003602001902090506104a1816100ab565b61021c60005481565b610077600435600160a060020a033316600090815261010260205260408120549080808381141561022e576102b0565b610077600435600036436040518084848082843750505090910190815260405190819003602001902090506105e8816100ab565b61021c600435602435600082815261010360209081526040808320600160a060020a03851684526101029092528220548290818181141561064157610665565b61007760043560243560006000364360405180848480828437505050909101908152604051908190036020019020905061033a816100ab565b60408051918252519081900360200190f35b5050506000828152610103602052604081206001810154600284900a92908316819011156102b05781546001838101805492909101845590849003905560408051600160a060020a03331681526020810187905281517fc7fb647e59b18047309aa15aad418e5d7ca96d173ad704f1031a2c3d7591734b929181900390910190a15b5050505050565b600160a060020a038316600283610100811015610002570155600160a060020a0384811660008181526101026020908152604080832083905593871680835291849020869055835192835282015281517fb532073b38c83145e3e5135377a08bf9aab55bc0fd7c1179cd4fb995d2a5159c929181900390910190a15b505b505050565b1561033357610348836100dc565b156103535750610335565b600160a060020a03841660009081526101026020526040812054925082141561037c5750610335565b6102b75b6101045460005b818110156107b557610104805482908110156100025760009182526000805160206108ea8339815191520154146103fa576101048054610103916000918490811015610002576000805160206108ea83398151915201548252506020919091526040812081815560018101829055600201555b600101610387565b60018054810190819055600160a060020a038316906002906101008110156100025790900160005081905550600160005054610102600050600084600160a060020a03168152602001908152602001600020600050819055507f994a936646fe87ffe4f1e469d3d6aa417d6b855598397f323de5b449f765f0c3826040518082600160a060020a0316815260200191505060405180910390a15b505b50565b1561049c576104af826100dc565b156104ba575061049e565b6104c2610380565b60015460fa90106104d7576104d56104ec565b505b60015460fa9010610402575061049e565b6105a65b600060015b6001548110156107ef575b6001548110801561051c5750600281610100811015610002570154600014155b1561080f576001016104fc565b1561033557600160a060020a038316600090815261010260205260408120549250821415610557575061049c565b6001600160005054036000600050541115610572575061049c565b600060028361010081101561000257508301819055600160a060020a038416815261010260205260408120556104e8610380565b5060408051600160a060020a038516815290517f58619076adf5bb0943d100ef88d52d7c3fd691b19d3a9071b555b651fbf418da9181900360200190a1505050565b1561049c576001548211156105fd575061049e565b600082905561060a610380565b6040805183815290517facbdb084c721332ac59f9b8e392196c9eb0e4932862da8eb9beaf0dad4f550da9181900360200190a15050565b506001830154600282900a908116600014156106605760009450610665565b600194505b5050505092915050565b60008681526101036020526040812080549094509092508214156106f85781548355600183810183905561010480549182018082558280158290116106c7578183600052602060002091820191016106c791906107db565b505050600284018190556101048054889290811015610002576000919091526000805160206108ea83398151915201555b506001820154600284900a908116600014156108065760408051600160a060020a03331681526020810188905281517fe1c52dc63b719ade82e8bea94cc41a0d5d28e4aaf536adb5e9cccc9ff8c1aeda929181900390910190a18254600190116107f35760008681526101036020526040902060020154610104805490919081101561000257604060009081206000805160206108ea83398151915292909201819055808255600180830182905560029092015595506108069050565b6101048054600080835591909152610335906000805160206108ea833981519152908101905b808211156107ef57600081556001016107db565b5090565b8254600019018355600183018054821790555b50505050919050565b5b6001805411801561083257506001546002906101008110156100025701546000145b156108465760018054600019019055610810565b600154811080156108695750600154600290610100811015610002570154600014155b801561088357506002816101008110156100025701546000145b156108e457600154600290610100811015610002578101549082610100811015610002578101919091558190610102906000908361010081101561000257810154825260209290925260408120929092556001546101008110156100025701555b6104f156004c0be60200faa20559308cb7b5a1bb3255c16cb1cab91f525b5ae7a03d02fabe",
                "nonce" : "0x00",
                "storage" : {
                    "0x00" : "0x01",
                    "0x01" : "0x01",
                    "0x03" : "0xa94f5374fce5edbc8e2a8697c15331677e6ebf0b",
                    "0x6e369836487c234b9e553ef3f787c2d8865520739d340c67b3d251a33986e58d" : "0x01"
                }
            },
            "0xa94f5374fce5edbc8e2a8697c15331677e6ebf0b" : {
                "balance" : "0x0de0b6b3a75ef08f",
                "code" : "0x",
                "nonce" : "0x01",
                "storage" : {
                }
            }
        },
        "postState" : {
            "0xa94f5374fce5edbc8e2a8697c15331677e6ebf0b" : {
                "code" : "0x",
                "nonce" : "0x02",
                "balance" : "0x0de0b6b3a75de74b",
                "storage" : {
                }
            },
            "0x2adc25665018aa1fe0e6bc666dac8fc2697ff9ba" : {
                "code" : "0x",
                "nonce" : "0x00",
                "balance" : "0x1bc16d674ec908e0",
                "storage" : {
                }
            },
            "0x6295ee1b4f6dd65047762f924ecd367c17eabf8f" : {
                "code" : "0x606060405236156100775760e060020a6000350463173825d981146100795780632f54bf6e146100d55780634123cb6b146100f95780637065cb4814610102578063746c917114610136578063b75c7dc61461013f578063ba51a6df1461016f578063c2cf7326146101a3578063f00d4b5d146101e3575b005b610077600435600060003643604051808484808284375050509091019081526040519081900360200190209050610529815b600160a060020a033316600090815261010260205260408120548180808381141561066f57610806565b61021c6004355b600160a060020a0316600090815261010260205260408120541190565b61021c60015481565b610077600435600036436040518084848082843750505090910190815260405190819003602001902090506104a1816100ab565b61021c60005481565b610077600435600160a060020a033316600090815261010260205260408120549080808381141561022e576102b0565b610077600435600036436040518084848082843750505090910190815260405190819003602001902090506105e8816100ab565b61021c600435602435600082815261010360209081526040808320600160a060020a03851684526101029092528220548290818181141561064157610665565b61007760043560243560006000364360405180848480828437505050909101908152604051908190036020019020905061033a816100ab565b60408051918252519081900360200190f35b5050506000828152610103602052604081206001810154600284900a92908316819011156102b05781546001838101805492909101845590849003905560408051600160a060020a03331681526020810187905281517fc7fb647e59b18047309aa15aad418e5d7ca96d173ad704f1031a2c3d7591734b929181900390910190a15b5050505050565b600160a060020a038316600283610100811015610002570155600160a060020a0384811660008181526101026020908152604080832083905593871680835291849020869055835192835282015281517fb532073b38c83145e3e5135377a08bf9aab55bc0fd7c1179cd4fb995d2a5159c929181900390910190a15b505b505050565b1561033357610348836100dc565b156103535750610335565b600160a060020a03841660009081526101026020526040812054925082141561037c5750610335565b6102b75b6101045460005b818110156107b557610104805482908110156100025760009182526000805160206108ea8339815191520154146103fa576101048054610103916000918490811015610002576000805160206108ea83398151915201548252506020919091526040812081815560018101829055600201555b600101610387565b60018054810190819055600160a060020a038316906002906101008110156100025790900160005081905550600160005054610102600050600084600160a060020a03168152602001908152602001600020600050819055507f994a936646fe87ffe4f1e469d3d6aa417d6b855598397f323de5b449f765f0c3826040518082600160a060020a0316815260200191505060405180910390a15b505b50565b1561049c576104af826100dc565b156104ba575061049e565b6104c2610380565b60015460fa90106104d7576104d56104ec565b505b60015460fa9010610402575061049e565b6105a65b600060015b6001548110156107ef575b6001548110801561051c5750600281610100811015610002570154600014155b1561080f576001016104fc565b1561033557600160a060020a038316600090815261010260205260408120549250821415610557575061049c565b6001600160005054036000600050541115610572575061049c565b600060028361010081101561000257508301819055600160a060020a038416815261010260205260408120556104e8610380565b5060408051600160a060020a038516815290517f58619076adf5bb0943d100ef88d52d7c3fd691b19d3a9071b555b651fbf418da9181900360200190a1505050565b1561049c576001548211156105fd575061049e565b600082905561060a610380565b6040805183815290517facbdb084c721332ac59f9b8e392196c9eb0e4932862da8eb9beaf0dad4f550da9181900360200190a15050565b506001830154600282900a908116600014156106605760009450610665565b600194505b5050505092915050565b60008681526101036020526040812080549094509092508214156106f85781548355600183810183905561010480549182018082558280158290116106c7578183600052602060002091820191016106c791906107db565b505050600284018190556101048054889290811015610002576000919091526000805160206108ea83398151915201555b506001820154600284900a908116600014156108065760408051600160a060020a03331681526020810188905281517fe1c52dc63b719ade82e8bea94cc41a0d5d28e4aaf536adb5e9cccc9ff8c1aeda929181900390910190a18254600190116107f35760008681526101036020526040902060020154610104805490919081101561000257604060009081206000805160206108ea83398151915292909201819055808255600180830182905560029092015595506108069050565b6101048054600080835591909152610335906000805160206108ea833981519152908101905b808211156107ef57600081556001016107db565b5090565b8254600019018355600183018054821790555b50505050919050565b5b6001805411801561083257506001546002906101008110156100025701546000145b156108465760018054600019019055610810565b600154811080156108695750600154600290610100811015610002570154600014155b801561088357506002816101008110156100025701546000145b156108e457600154600290610100811015610002578101549082610100811015610002578101919091558190610102906000908361010081101561000257810154825260209290925260408120929092556001546101008110156100025701555b6104f156004c0be60200faa20559308cb7b5a1bb3255c16cb1cab91f525b5ae7a03d02fabe",
                "nonce" : "0x00",
                "balance" : "0xc8",
                "storage" : {
                    "0x00" : "0x01",
                    "0x62ce4f671906be9a217487bb98e428b08e12100fb0007df10572ca00206e7d73" : "0x01",
                    "0x01" : "0x01",
                    "0x03" : "0xaaaf5374fce5edbc8e2a8697c15331677e6ebaaa"
                }
            }
        },
        "network" : "Istanbul",
        "sealEngine" : "NoProof",
        "lastblockhash" : "0xceb09a074d47f52376a10a76b938f6c41338afe4a076530f26c4bdc55f459ba3",
        "genesisRLP" : "0xf901f9f901f4a00000000000000000000000000000000000000000000000000000000000000000a01dcc4de8dec75d7aab85b567b6ccd41ad312451b948a7413f0a142fd40d49347942adc25665018aa1fe0e6bc666dac8fc2697ff9baa0163363998057037c27d0553bd4c94fd31f8be0471159b985a2d947c3f3901d00a056e81f171bcc55a6ff8345e692c0f86e5b48e01b996cadc001622fb5e363b421a056e81f171bcc55a6ff8345e692c0f86e5b48e01b996cadc001622fb5e363b421b901000000000000000000000000000000000000000000000000000000000000000000000000000000000000000000000000000000000000000000000000000000000000000000000000000000000000000000000000000000000000000000000000000000000000000000000000000000000000000000000000000000000000000000000000000000000000000000000000000000000000000000000000000000000000000000000000000000000000000000000000000000000000000000000000000000000000000000000000000000000000000000000000000000000000000000000000000000000000000000000000000000000000000000000000000000000083020000808405f5e100808000a00000000000000000000000000000000000000000000000000000000000000000880000000000000000c0c0",
        "blocks" : [
            {
                "rlp" : "0xf902a6f901f9a0f3298a15ce441df483b3096c4145e20e03c45a1e121cc8645a69f65e6f271e78a01dcc4de8dec75d7aab85b567b6ccd41ad312451b948a7413f0a142fd40d49347942adc25665018aa1fe0e6bc666dac8fc2697ff9baa0d550bca08f21ca7efbe0af6d0039efba4c031cdcda9bfd111e58495540422e64a08fa45b7e2d0c0db51b371d2f9ef45734b59170c676eb6931e33fa4ceb22adde7a0cc28dc5bf979a978d3583ced4dd5df93ef213daa7d3de906eb2544740aef17e2b90100000000000000000000000000000000000000000000000000000a000000000000000000000000000000000000000000000000000000000000000000000000000000000000000000000000000000000000000000000000000000000000000000000000000000000000000000000000000000000000000000000000000000000000000000000000000000000000000040000000000000000000000000000000000000200000000000000000000000010000000000000000000000000000000000000000000000000000000000000000000000000000040008000080000000000000000000000000000000000000000000000000000000000004000000000000000083020000018405f75e77830108e08203e800a00000000000000000000000000000000000000000000000000000000000000000880000000000000000f8a7f8a5010183989680946295ee1b4f6dd65047762f924ecd367c17eabf8f64b844f00d4b5d000000000000000000000000a94f5374fce5edbc8e2a8697c15331677e6ebf0b000000000000000000000000aaaf5374fce5edbc8e2a8697c15331677e6ebaaa1ba016e203f90f4ec83e7c6e188f637cee5d0e38b8be3ff10e73d14eed5bddd1b731a01ca63a535619bae50d7f6b91f7193b41bbd2697fe6d88ae1970f60c8a23313a7c0",
                "blockHeader" : {
                    "bloom" : "0x000000000000000000000000000000000000000000000000000a0000000000000000000000000000000000000000000000000000000000000000000000000000000000000000000000000000000000000000000000000000000000000000000000000000000000000000000000000000000000000000000000000000000000000000000000000000000000000000400000000000000000000000000000000000002000000000000000000000000100000000000000000000000000000000000000000000000000000000000000000000000000000400080000800000000000000000000000000000000000000000000000000000000000040000000000000000",
                    "coinbase" : "0x2adc25665018aa1fe0e6bc666dac8fc2697ff9ba",
                    "difficulty" : "0x20000",
                    "extraData" : "0x00",
                    "gasLimit" : "0x5f75e77",
                    "gasUsed" : "0x108e0",
                    "hash" : "0xceb09a074d47f52376a10a76b938f6c41338afe4a076530f26c4bdc55f459ba3",
                    "mixHash" : "0x0000000000000000000000000000000000000000000000000000000000000000",
                    "nonce" : "0x0000000000000000",
                    "number" : "0x1",
                    "parentHash" : "0xf3298a15ce441df483b3096c4145e20e03c45a1e121cc8645a69f65e6f271e78",
                    "receiptTrie" : "0xcc28dc5bf979a978d3583ced4dd5df93ef213daa7d3de906eb2544740aef17e2",
                    "stateRoot" : "0xd550bca08f21ca7efbe0af6d0039efba4c031cdcda9bfd111e58495540422e64",
                    "timestamp" : "0x3e8",
                    "transactionsTrie" : "0x8fa45b7e2d0c0db51b371d2f9ef45734b59170c676eb6931e33fa4ceb22adde7",
                    "uncleHash" : "0x1dcc4de8dec75d7aab85b567b6ccd41ad312451b948a7413f0a142fd40d49347"
                },
                "transactions" : [
                    {
                        "data" : "0xf00d4b5d000000000000000000000000a94f5374fce5edbc8e2a8697c15331677e6ebf0b000000000000000000000000aaaf5374fce5edbc8e2a8697c15331677e6ebaaa",
                        "gasLimit" : "0x989680",
                        "gasPrice" : "0x01",
                        "nonce" : "0x01",
                        "to" : "0x6295ee1b4f6dd65047762f924ecd367c17eabf8f",
                        "value" : "0x64",
                        "v" : "0x1b",
                        "r" : "0x16e203f90f4ec83e7c6e188f637cee5d0e38b8be3ff10e73d14eed5bddd1b731",
                        "s" : "0x1ca63a535619bae50d7f6b91f7193b41bbd2697fe6d88ae1970f60c8a23313a7"
                    }
                ]
            }
        ]
    }
}