{
    "multiOwnedConstructionNotEnoughGasPartial_d0g0v0_Istanbul" : {
        "_info" : {
            "comment" : "",
            "filling-rpc-server" : "Geth-1.9.6-unstable-63b18027-20190920",
            "filling-tool-version" : "retesteth-0.0.1+commit.0ae18aef.Linux.g++",
            "lllcversion" : "Version: 0.5.12-develop.2019.9.13+commit.2d601a4f.Linux.g++",
            "source" : "src/GeneralStateTestsFiller/stWalletTest/multiOwnedConstructionNotEnoughGasPartialFiller.json",
            "sourceHash" : "44860e2b97032b69fb9f6084a2c695ec8ad763e1e2df4ed903d54e3deed9a655"
        },
        "genesisBlockHeader" : {
            "bloom" : "0x00000000000000000000000000000000000000000000000000000000000000000000000000000000000000000000000000000000000000000000000000000000000000000000000000000000000000000000000000000000000000000000000000000000000000000000000000000000000000000000000000000000000000000000000000000000000000000000000000000000000000000000000000000000000000000000000000000000000000000000000000000000000000000000000000000000000000000000000000000000000000000000000000000000000000000000000000000000000000000000000000000000000000000000000000000000",
            "coinbase" : "0x2adc25665018aa1fe0e6bc666dac8fc2697ff9ba",
            "difficulty" : "0x20000",
            "extraData" : "0x00",
            "gasLimit" : "0x989680",
            "gasUsed" : "0x0",
            "hash" : "0xd904cbf32732e787dc48a343cd362ad56d6ac31c731b2c26d25dd3795fe1ecc1",
            "mixHash" : "0x0000000000000000000000000000000000000000000000000000000000000000",
            "nonce" : "0x0000000000000000",
            "number" : "0x0",
            "parentHash" : "0x0000000000000000000000000000000000000000000000000000000000000000",
            "receiptTrie" : "0x56e81f171bcc55a6ff8345e692c0f86e5b48e01b996cadc001622fb5e363b421",
            "stateRoot" : "0x517f2cdf6adb1a644878c390ffab4e130f1bed4b498ef7ce58c5addd98d61018",
            "timestamp" : "0x0",
            "transactionsTrie" : "0x56e81f171bcc55a6ff8345e692c0f86e5b48e01b996cadc001622fb5e363b421",
            "uncleHash" : "0x1dcc4de8dec75d7aab85b567b6ccd41ad312451b948a7413f0a142fd40d49347"
        },
        "pre" : {
            "0xa94f5374fce5edbc8e2a8697c15331677e6ebf0b" : {
                "balance" : "0x0de0b6b3a7640000",
                "code" : "0x",
                "nonce" : "0x00",
                "storage" : {
                }
            }
        },
        "postState" : {
            "0xa94f5374fce5edbc8e2a8697c15331677e6ebf0b" : {
                "code" : "0x",
                "nonce" : "0x01",
                "balance" : "0x0de0b6b3a75ad35f",
                "storage" : {
                }
            },
            "0x2adc25665018aa1fe0e6bc666dac8fc2697ff9ba" : {
                "code" : "0x",
                "nonce" : "0x00",
                "balance" : "0x1bc16d674ed12ca1",
                "storage" : {
                }
            }
        },
        "network" : "Istanbul",
        "sealEngine" : "NoProof",
        "lastblockhash" : "0x35c124f6c1f4154623605358f884f29e733cf9f8f013be18d40c26763e6701b7",
        "genesisRLP" : "0xf901f8f901f3a00000000000000000000000000000000000000000000000000000000000000000a01dcc4de8dec75d7aab85b567b6ccd41ad312451b948a7413f0a142fd40d49347942adc25665018aa1fe0e6bc666dac8fc2697ff9baa0517f2cdf6adb1a644878c390ffab4e130f1bed4b498ef7ce58c5addd98d61018a056e81f171bcc55a6ff8345e692c0f86e5b48e01b996cadc001622fb5e363b421a056e81f171bcc55a6ff8345e692c0f86e5b48e01b996cadc001622fb5e363b421b9010000000000000000000000000000000000000000000000000000000000000000000000000000000000000000000000000000000000000000000000000000000000000000000000000000000000000000000000000000000000000000000000000000000000000000000000000000000000000000000000000000000000000000000000000000000000000000000000000000000000000000000000000000000000000000000000000000000000000000000000000000000000000000000000000000000000000000000000000000000000000000000000000000000000000000000000000000000000000000000000000000000000000000000000000000000000830200008083989680808000a00000000000000000000000000000000000000000000000000000000000000000880000000000000000c0c0",
        "blocks" : [
            {
                "rlp" : "0xf90b95f901f8a0d904cbf32732e787dc48a343cd362ad56d6ac31c731b2c26d25dd3795fe1ecc1a01dcc4de8dec75d7aab85b567b6ccd41ad312451b948a7413f0a142fd40d49347942adc25665018aa1fe0e6bc666dac8fc2697ff9baa0649408c7bd4db5a3330a352491ee20efba80aee26ce24810dbbc58c8db6ef1b5a05979fa737f796a176711b221c5db25158be7822f6eff1a149f818a3183473d9ba01111421901c95ceb9c3d7655342ac3a43566836a4ae88ace49881a03c14aa8d3b901000000000000000000000000000000000000000000000000000000000000000000000000000000000000000000000000000000000000000000000000000000000000000000000000000000000000000000000000000000000000000000000000000000000000000000000000000000000000000000000000000000000000000000000000000000000000000000000000000000000000000000000000000000000000000000000000000000000000000000000000000000000000000000000000000000000000000000000000000000000000000000000000000000000000000000000000000000000000000000000000000000000000000000000000000000000083020000018398bca483092ca18203e800a00000000000000000000000000000000000000000000000000000000000000000880000000000000000f90996f90993800183092ca18064b90945606060409081526001600081815581805533600160a060020a0316600381905581526101026020529182205561090a90819061003b90396000f300606060405236156100775760e060020a6000350463173825d981146100795780632f54bf6e146100d55780634123cb6b146100f95780637065cb4814610102578063746c917114610136578063b75c7dc61461013f578063ba51a6df1461016f578063c2cf7326146101a3578063f00d4b5d146101e3575b005b610077600435600060003643604051808484808284375050509091019081526040519081900360200190209050610529815b600160a060020a033316600090815261010260205260408120548180808381141561066f57610806565b61021c6004355b600160a060020a0316600090815261010260205260408120541190565b61021c60015481565b610077600435600036436040518084848082843750505090910190815260405190819003602001902090506104a1816100ab565b61021c60005481565b610077600435600160a060020a033316600090815261010260205260408120549080808381141561022e576102b0565b610077600435600036436040518084848082843750505090910190815260405190819003602001902090506105e8816100ab565b61021c600435602435600082815261010360209081526040808320600160a060020a03851684526101029092528220548290818181141561064157610665565b61007760043560243560006000364360405180848480828437505050909101908152604051908190036020019020905061033a816100ab565b60408051918252519081900360200190f35b5050506000828152610103602052604081206001810154600284900a92908316819011156102b05781546001838101805492909101845590849003905560408051600160a060020a03331681526020810187905281517fc7fb647e59b18047309aa15aad418e5d7ca96d173ad704f1031a2c3d7591734b929181900390910190a15b5050505050565b600160a060020a038316600283610100811015610002570155600160a060020a0384811660008181526101026020908152604080832083905593871680835291849020869055835192835282015281517fb532073b38c83145e3e5135377a08bf9aab55bc0fd7c1179cd4fb995d2a5159c929181900390910190a15b505b505050565b1561033357610348836100dc565b156103535750610335565b600160a060020a03841660009081526101026020526040812054925082141561037c5750610335565b6102b75b6101045460005b818110156107b557610104805482908110156100025760009182526000805160206108ea8339815191520154146103fa576101048054610103916000918490811015610002576000805160206108ea83398151915201548252506020919091526040812081815560018101829055600201555b600101610387565b60018054810190819055600160a060020a038316906002906101008110156100025790900160005081905550600160005054610102600050600084600160a060020a03168152602001908152602001600020600050819055507f994a936646fe87ffe4f1e469d3d6aa417d6b855598397f323de5b449f765f0c3826040518082600160a060020a0316815260200191505060405180910390a15b505b50565b1561049c576104af826100dc565b156104ba575061049e565b6104c2610380565b60015460fa90106104d7576104d56104ec565b505b60015460fa9010610402575061049e565b6105a65b600060015b6001548110156107ef575b6001548110801561051c5750600281610100811015610002570154600014155b1561080f576001016104fc565b1561033557600160a060020a038316600090815261010260205260408120549250821415610557575061049c565b6001600160005054036000600050541115610572575061049c565b600060028361010081101561000257508301819055600160a060020a038416815261010260205260408120556104e8610380565b5060408051600160a060020a038516815290517f58619076adf5bb0943d100ef88d52d7c3fd691b19d3a9071b555b651fbf418da9181900360200190a1505050565b1561049c576001548211156105fd575061049e565b600082905561060a610380565b6040805183815290517facbdb084c721332ac59f9b8e392196c9eb0e4932862da8eb9beaf0dad4f550da9181900360200190a15050565b506001830154600282900a908116600014156106605760009450610665565b600194505b5050505092915050565b60008681526101036020526040812080549094509092508214156106f85781548355600183810183905561010480549182018082558280158290116106c7578183600052602060002091820191016106c791906107db565b505050600284018190556101048054889290811015610002576000919091526000805160206108ea83398151915201555b506001820154600284900a908116600014156108065760408051600160a060020a03331681526020810188905281517fe1c52dc63b719ade82e8bea94cc41a0d5d28e4aaf536adb5e9cccc9ff8c1aeda929181900390910190a18254600190116107f35760008681526101036020526040902060020154610104805490919081101561000257604060009081206000805160206108ea83398151915292909201819055808255600180830182905560029092015595506108069050565b6101048054600080835591909152610335906000805160206108ea833981519152908101905b808211156107ef57600081556001016107db565b5090565b8254600019018355600183018054821790555b50505050919050565b5b6001805411801561083257506001546002906101008110156100025701546000145b156108465760018054600019019055610810565b600154811080156108695750600154600290610100811015610002570154600014155b801561088357506002816101008110156100025701546000145b156108e457600154600290610100811015610002578101549082610100811015610002578101919091558190610102906000908361010081101561000257810154825260209290925260408120929092556001546101008110156100025701555b6104f156004c0be60200faa20559308cb7b5a1bb3255c16cb1cab91f525b5ae7a03d02fabe1ca0cf98fcf9d2b75c13b98aa00642ed1636397fdc9baebf36f6aec602ac283073aaa030af7f1bec3214dd52e2bb38801d4cda36432c7259a810c9f2bc52fdb85130ffc0",
                "blockHeader" : {
                    "bloom" : "0x00000000000000000000000000000000000000000000000000000000000000000000000000000000000000000000000000000000000000000000000000000000000000000000000000000000000000000000000000000000000000000000000000000000000000000000000000000000000000000000000000000000000000000000000000000000000000000000000000000000000000000000000000000000000000000000000000000000000000000000000000000000000000000000000000000000000000000000000000000000000000000000000000000000000000000000000000000000000000000000000000000000000000000000000000000000",
                    "coinbase" : "0x2adc25665018aa1fe0e6bc666dac8fc2697ff9ba",
                    "difficulty" : "0x20000",
                    "extraData" : "0x00",
                    "gasLimit" : "0x98bca4",
                    "gasUsed" : "0x92ca1",
                    "hash" : "0x35c124f6c1f4154623605358f884f29e733cf9f8f013be18d40c26763e6701b7",
                    "mixHash" : "0x0000000000000000000000000000000000000000000000000000000000000000",
                    "nonce" : "0x0000000000000000",
                    "number" : "0x1",
                    "parentHash" : "0xd904cbf32732e787dc48a343cd362ad56d6ac31c731b2c26d25dd3795fe1ecc1",
                    "receiptTrie" : "0x1111421901c95ceb9c3d7655342ac3a43566836a4ae88ace49881a03c14aa8d3",
                    "stateRoot" : "0x649408c7bd4db5a3330a352491ee20efba80aee26ce24810dbbc58c8db6ef1b5",
                    "timestamp" : "0x3e8",
                    "transactionsTrie" : "0x5979fa737f796a176711b221c5db25158be7822f6eff1a149f818a3183473d9b",
                    "uncleHash" : "0x1dcc4de8dec75d7aab85b567b6ccd41ad312451b948a7413f0a142fd40d49347"
                },
                "transactions" : [
                    {
                        "data" : "0x606060409081526001600081815581805533600160a060020a0316600381905581526101026020529182205561090a90819061003b90396000f300606060405236156100775760e060020a6000350463173825d981146100795780632f54bf6e146100d55780634123cb6b146100f95780637065cb4814610102578063746c917114610136578063b75c7dc61461013f578063ba51a6df1461016f578063c2cf7326146101a3578063f00d4b5d146101e3575b005b610077600435600060003643604051808484808284375050509091019081526040519081900360200190209050610529815b600160a060020a033316600090815261010260205260408120548180808381141561066f57610806565b61021c6004355b600160a060020a0316600090815261010260205260408120541190565b61021c60015481565b610077600435600036436040518084848082843750505090910190815260405190819003602001902090506104a1816100ab565b61021c60005481565b610077600435600160a060020a033316600090815261010260205260408120549080808381141561022e576102b0565b610077600435600036436040518084848082843750505090910190815260405190819003602001902090506105e8816100ab565b61021c600435602435600082815261010360209081526040808320600160a060020a03851684526101029092528220548290818181141561064157610665565b61007760043560243560006000364360405180848480828437505050909101908152604051908190036020019020905061033a816100ab565b60408051918252519081900360200190f35b5050506000828152610103602052604081206001810154600284900a92908316819011156102b05781546001838101805492909101845590849003905560408051600160a060020a03331681526020810187905281517fc7fb647e59b18047309aa15aad418e5d7ca96d173ad704f1031a2c3d7591734b929181900390910190a15b5050505050565b600160a060020a038316600283610100811015610002570155600160a060020a0384811660008181526101026020908152604080832083905593871680835291849020869055835192835282015281517fb532073b38c83145e3e5135377a08bf9aab55bc0fd7c1179cd4fb995d2a5159c929181900390910190a15b505b505050565b1561033357610348836100dc565b156103535750610335565b600160a060020a03841660009081526101026020526040812054925082141561037c5750610335565b6102b75b6101045460005b818110156107b557610104805482908110156100025760009182526000805160206108ea8339815191520154146103fa576101048054610103916000918490811015610002576000805160206108ea83398151915201548252506020919091526040812081815560018101829055600201555b600101610387565b60018054810190819055600160a060020a038316906002906101008110156100025790900160005081905550600160005054610102600050600084600160a060020a03168152602001908152602001600020600050819055507f994a936646fe87ffe4f1e469d3d6aa417d6b855598397f323de5b449f765f0c3826040518082600160a060020a0316815260200191505060405180910390a15b505b50565b1561049c576104af826100dc565b156104ba575061049e565b6104c2610380565b60015460fa90106104d7576104d56104ec565b505b60015460fa9010610402575061049e565b6105a65b600060015b6001548110156107ef575b6001548110801561051c5750600281610100811015610002570154600014155b1561080f576001016104fc565b1561033557600160a060020a038316600090815261010260205260408120549250821415610557575061049c565b6001600160005054036000600050541115610572575061049c565b600060028361010081101561000257508301819055600160a060020a038416815261010260205260408120556104e8610380565b5060408051600160a060020a038516815290517f58619076adf5bb0943d100ef88d52d7c3fd691b19d3a9071b555b651fbf418da9181900360200190a1505050565b1561049c576001548211156105fd575061049e565b600082905561060a610380565b6040805183815290517facbdb084c721332ac59f9b8e392196c9eb0e4932862da8eb9beaf0dad4f550da9181900360200190a15050565b506001830154600282900a908116600014156106605760009450610665565b600194505b5050505092915050565b60008681526101036020526040812080549094509092508214156106f85781548355600183810183905561010480549182018082558280158290116106c7578183600052602060002091820191016106c791906107db565b505050600284018190556101048054889290811015610002576000919091526000805160206108ea83398151915201555b506001820154600284900a908116600014156108065760408051600160a060020a03331681526020810188905281517fe1c52dc63b719ade82e8bea94cc41a0d5d28e4aaf536adb5e9cccc9ff8c1aeda929181900390910190a18254600190116107f35760008681526101036020526040902060020154610104805490919081101561000257604060009081206000805160206108ea83398151915292909201819055808255600180830182905560029092015595506108069050565b6101048054600080835591909152610335906000805160206108ea833981519152908101905b808211156107ef57600081556001016107db565b5090565b8254600019018355600183018054821790555b50505050919050565b5b6001805411801561083257506001546002906101008110156100025701546000145b156108465760018054600019019055610810565b600154811080156108695750600154600290610100811015610002570154600014155b801561088357506002816101008110156100025701546000145b156108e457600154600290610100811015610002578101549082610100811015610002578101919091558190610102906000908361010081101561000257810154825260209290925260408120929092556001546101008110156100025701555b6104f156004c0be60200faa20559308cb7b5a1bb3255c16cb1cab91f525b5ae7a03d02fabe",
                        "gasLimit" : "0x092ca1",
                        "gasPrice" : "0x01",
                        "nonce" : "0x00",
                        "to" : "",
                        "value" : "0x64",
                        "v" : "0x1c",
                        "r" : "0xcf98fcf9d2b75c13b98aa00642ed1636397fdc9baebf36f6aec602ac283073aa",
                        "s" : "0x30af7f1bec3214dd52e2bb38801d4cda36432c7259a810c9f2bc52fdb85130ff"
                    }
                ]
            }
        ]
    },
    "multiOwnedConstructionNotEnoughGasPartial_d0g1v0_Istanbul" : {
        "_info" : {
            "comment" : "",
            "filling-rpc-server" : "Geth-1.9.6-unstable-63b18027-20190920",
            "filling-tool-version" : "retesteth-0.0.1+commit.0ae18aef.Linux.g++",
            "lllcversion" : "Version: 0.5.12-develop.2019.9.13+commit.2d601a4f.Linux.g++",
            "source" : "src/GeneralStateTestsFiller/stWalletTest/multiOwnedConstructionNotEnoughGasPartialFiller.json",
            "sourceHash" : "44860e2b97032b69fb9f6084a2c695ec8ad763e1e2df4ed903d54e3deed9a655"
        },
        "genesisBlockHeader" : {
            "bloom" : "0x00000000000000000000000000000000000000000000000000000000000000000000000000000000000000000000000000000000000000000000000000000000000000000000000000000000000000000000000000000000000000000000000000000000000000000000000000000000000000000000000000000000000000000000000000000000000000000000000000000000000000000000000000000000000000000000000000000000000000000000000000000000000000000000000000000000000000000000000000000000000000000000000000000000000000000000000000000000000000000000000000000000000000000000000000000000",
            "coinbase" : "0x2adc25665018aa1fe0e6bc666dac8fc2697ff9ba",
            "difficulty" : "0x20000",
            "extraData" : "0x00",
            "gasLimit" : "0x989680",
            "gasUsed" : "0x0",
            "hash" : "0xd904cbf32732e787dc48a343cd362ad56d6ac31c731b2c26d25dd3795fe1ecc1",
            "mixHash" : "0x0000000000000000000000000000000000000000000000000000000000000000",
            "nonce" : "0x0000000000000000",
            "number" : "0x0",
            "parentHash" : "0x0000000000000000000000000000000000000000000000000000000000000000",
            "receiptTrie" : "0x56e81f171bcc55a6ff8345e692c0f86e5b48e01b996cadc001622fb5e363b421",
            "stateRoot" : "0x517f2cdf6adb1a644878c390ffab4e130f1bed4b498ef7ce58c5addd98d61018",
            "timestamp" : "0x0",
            "transactionsTrie" : "0x56e81f171bcc55a6ff8345e692c0f86e5b48e01b996cadc001622fb5e363b421",
            "uncleHash" : "0x1dcc4de8dec75d7aab85b567b6ccd41ad312451b948a7413f0a142fd40d49347"
        },
        "pre" : {
            "0xa94f5374fce5edbc8e2a8697c15331677e6ebf0b" : {
                "balance" : "0x0de0b6b3a7640000",
                "code" : "0x",
                "nonce" : "0x00",
                "storage" : {
                }
            }
        },
        "postState" : {
            "0xa94f5374fce5edbc8e2a8697c15331677e6ebf0b" : {
                "code" : "0x",
                "nonce" : "0x01",
                "balance" : "0x0de0b6b3a75a562e",
                "storage" : {
                }
            },
            "0x2adc25665018aa1fe0e6bc666dac8fc2697ff9ba" : {
                "code" : "0x",
                "nonce" : "0x00",
                "balance" : "0x1bc16d674ed1a96e",
                "storage" : {
                }
            },
            "0x6295ee1b4f6dd65047762f924ecd367c17eabf8f" : {
                "code" : "0x606060405236156100775760e060020a6000350463173825d981146100795780632f54bf6e146100d55780634123cb6b146100f95780637065cb4814610102578063746c917114610136578063b75c7dc61461013f578063ba51a6df1461016f578063c2cf7326146101a3578063f00d4b5d146101e3575b005b610077600435600060003643604051808484808284375050509091019081526040519081900360200190209050610529815b600160a060020a033316600090815261010260205260408120548180808381141561066f57610806565b61021c6004355b600160a060020a0316600090815261010260205260408120541190565b61021c60015481565b610077600435600036436040518084848082843750505090910190815260405190819003602001902090506104a1816100ab565b61021c60005481565b610077600435600160a060020a033316600090815261010260205260408120549080808381141561022e576102b0565b610077600435600036436040518084848082843750505090910190815260405190819003602001902090506105e8816100ab565b61021c600435602435600082815261010360209081526040808320600160a060020a03851684526101029092528220548290818181141561064157610665565b61007760043560243560006000364360405180848480828437505050909101908152604051908190036020019020905061033a816100ab565b60408051918252519081900360200190f35b5050506000828152610103602052604081206001810154600284900a92908316819011156102b05781546001838101805492909101845590849003905560408051600160a060020a03331681526020810187905281517fc7fb647e59b18047309aa15aad418e5d7ca96d173ad704f1031a2c3d7591734b929181900390910190a15b5050505050565b600160a060020a038316600283610100811015610002570155600160a060020a0384811660008181526101026020908152604080832083905593871680835291849020869055835192835282015281517fb532073b38c83145e3e5135377a08bf9aab55bc0fd7c1179cd4fb995d2a5159c929181900390910190a15b505b505050565b1561033357610348836100dc565b156103535750610335565b600160a060020a03841660009081526101026020526040812054925082141561037c5750610335565b6102b75b6101045460005b818110156107b557610104805482908110156100025760009182526000805160206108ea8339815191520154146103fa576101048054610103916000918490811015610002576000805160206108ea83398151915201548252506020919091526040812081815560018101829055600201555b600101610387565b60018054810190819055600160a060020a038316906002906101008110156100025790900160005081905550600160005054610102600050600084600160a060020a03168152602001908152602001600020600050819055507f994a936646fe87ffe4f1e469d3d6aa417d6b855598397f323de5b449f765f0c3826040518082600160a060020a0316815260200191505060405180910390a15b505b50565b1561049c576104af826100dc565b156104ba575061049e565b6104c2610380565b60015460fa90106104d7576104d56104ec565b505b60015460fa9010610402575061049e565b6105a65b600060015b6001548110156107ef575b6001548110801561051c5750600281610100811015610002570154600014155b1561080f576001016104fc565b1561033557600160a060020a038316600090815261010260205260408120549250821415610557575061049c565b6001600160005054036000600050541115610572575061049c565b600060028361010081101561000257508301819055600160a060020a038416815261010260205260408120556104e8610380565b5060408051600160a060020a038516815290517f58619076adf5bb0943d100ef88d52d7c3fd691b19d3a9071b555b651fbf418da9181900360200190a1505050565b1561049c576001548211156105fd575061049e565b600082905561060a610380565b6040805183815290517facbdb084c721332ac59f9b8e392196c9eb0e4932862da8eb9beaf0dad4f550da9181900360200190a15050565b506001830154600282900a908116600014156106605760009450610665565b600194505b5050505092915050565b60008681526101036020526040812080549094509092508214156106f85781548355600183810183905561010480549182018082558280158290116106c7578183600052602060002091820191016106c791906107db565b505050600284018190556101048054889290811015610002576000919091526000805160206108ea83398151915201555b506001820154600284900a908116600014156108065760408051600160a060020a03331681526020810188905281517fe1c52dc63b719ade82e8bea94cc41a0d5d28e4aaf536adb5e9cccc9ff8c1aeda929181900390910190a18254600190116107f35760008681526101036020526040902060020154610104805490919081101561000257604060009081206000805160206108ea83398151915292909201819055808255600180830182905560029092015595506108069050565b6101048054600080835591909152610335906000805160206108ea833981519152908101905b808211156107ef57600081556001016107db565b5090565b8254600019018355600183018054821790555b50505050919050565b5b6001805411801561083257506001546002906101008110156100025701546000145b156108465760018054600019019055610810565b600154811080156108695750600154600290610100811015610002570154600014155b801561088357506002816101008110156100025701546000145b156108e457600154600290610100811015610002578101549082610100811015610002578101919091558190610102906000908361010081101561000257810154825260209290925260408120929092556001546101008110156100025701555b6104f156004c0be60200faa20559308cb7b5a1bb3255c16cb1cab91f525b5ae7a03d02fabe",
                "nonce" : "0x01",
                "balance" : "0x64",
                "storage" : {
                    "0x00" : "0x01",
                    "0x6e369836487c234b9e553ef3f787c2d8865520739d340c67b3d251a33986e58d" : "0x01",
                    "0x01" : "0x01",
                    "0x03" : "0xa94f5374fce5edbc8e2a8697c15331677e6ebf0b"
                }
            }
        },
        "network" : "Istanbul",
        "sealEngine" : "NoProof",
        "lastblockhash" : "0x2157563bc45939831dc62c6dae65810f46d053c83286abd8bbf08fff30f6d3ec",
        "genesisRLP" : "0xf901f8f901f3a00000000000000000000000000000000000000000000000000000000000000000a01dcc4de8dec75d7aab85b567b6ccd41ad312451b948a7413f0a142fd40d49347942adc25665018aa1fe0e6bc666dac8fc2697ff9baa0517f2cdf6adb1a644878c390ffab4e130f1bed4b498ef7ce58c5addd98d61018a056e81f171bcc55a6ff8345e692c0f86e5b48e01b996cadc001622fb5e363b421a056e81f171bcc55a6ff8345e692c0f86e5b48e01b996cadc001622fb5e363b421b9010000000000000000000000000000000000000000000000000000000000000000000000000000000000000000000000000000000000000000000000000000000000000000000000000000000000000000000000000000000000000000000000000000000000000000000000000000000000000000000000000000000000000000000000000000000000000000000000000000000000000000000000000000000000000000000000000000000000000000000000000000000000000000000000000000000000000000000000000000000000000000000000000000000000000000000000000000000000000000000000000000000000000000000000000000000000830200008083989680808000a00000000000000000000000000000000000000000000000000000000000000000880000000000000000c0c0",
        "blocks" : [
            {
                "rlp" : "0xf90b94f901f8a0d904cbf32732e787dc48a343cd362ad56d6ac31c731b2c26d25dd3795fe1ecc1a01dcc4de8dec75d7aab85b567b6ccd41ad312451b948a7413f0a142fd40d49347942adc25665018aa1fe0e6bc666dac8fc2697ff9baa0576f3f558d3023a2fb53e018ad3e140aee1a84da11a1fbbd8fb175c83a95ca6aa02886fc86322c3d15c82023e09346ab2a4782b7fa96a8dcd9d6093ec960ae463da0bedc7ea3522f19d4346d038d983fc26222ce85599b31ae522f51b5285449125eb901000000000000000000000000000000000000000000000000000000000000000000000000000000000000000000000000000000000000000000000000000000000000000000000000000000000000000000000000000000000000000000000000000000000000000000000000000000000000000000000000000000000000000000000000000000000000000000000000000000000000000000000000000000000000000000000000000000000000000000000000000000000000000000000000000000000000000000000000000000000000000000000000000000000000000000000000000000000000000000000000000000000000000000000000000000000083020000018398bca48309a96e8203e800a00000000000000000000000000000000000000000000000000000000000000000880000000000000000f90995f909928001830b76918064b90945606060409081526001600081815581805533600160a060020a0316600381905581526101026020529182205561090a90819061003b90396000f300606060405236156100775760e060020a6000350463173825d981146100795780632f54bf6e146100d55780634123cb6b146100f95780637065cb4814610102578063746c917114610136578063b75c7dc61461013f578063ba51a6df1461016f578063c2cf7326146101a3578063f00d4b5d146101e3575b005b610077600435600060003643604051808484808284375050509091019081526040519081900360200190209050610529815b600160a060020a033316600090815261010260205260408120548180808381141561066f57610806565b61021c6004355b600160a060020a0316600090815261010260205260408120541190565b61021c60015481565b610077600435600036436040518084848082843750505090910190815260405190819003602001902090506104a1816100ab565b61021c60005481565b610077600435600160a060020a033316600090815261010260205260408120549080808381141561022e576102b0565b610077600435600036436040518084848082843750505090910190815260405190819003602001902090506105e8816100ab565b61021c600435602435600082815261010360209081526040808320600160a060020a03851684526101029092528220548290818181141561064157610665565b61007760043560243560006000364360405180848480828437505050909101908152604051908190036020019020905061033a816100ab565b60408051918252519081900360200190f35b5050506000828152610103602052604081206001810154600284900a92908316819011156102b05781546001838101805492909101845590849003905560408051600160a060020a03331681526020810187905281517fc7fb647e59b18047309aa15aad418e5d7ca96d173ad704f1031a2c3d7591734b929181900390910190a15b5050505050565b600160a060020a038316600283610100811015610002570155600160a060020a0384811660008181526101026020908152604080832083905593871680835291849020869055835192835282015281517fb532073b38c83145e3e5135377a08bf9aab55bc0fd7c1179cd4fb995d2a5159c929181900390910190a15b505b505050565b1561033357610348836100dc565b156103535750610335565b600160a060020a03841660009081526101026020526040812054925082141561037c5750610335565b6102b75b6101045460005b818110156107b557610104805482908110156100025760009182526000805160206108ea8339815191520154146103fa576101048054610103916000918490811015610002576000805160206108ea83398151915201548252506020919091526040812081815560018101829055600201555b600101610387565b60018054810190819055600160a060020a038316906002906101008110156100025790900160005081905550600160005054610102600050600084600160a060020a03168152602001908152602001600020600050819055507f994a936646fe87ffe4f1e469d3d6aa417d6b855598397f323de5b449f765f0c3826040518082600160a060020a0316815260200191505060405180910390a15b505b50565b1561049c576104af826100dc565b156104ba575061049e565b6104c2610380565b60015460fa90106104d7576104d56104ec565b505b60015460fa9010610402575061049e565b6105a65b600060015b6001548110156107ef575b6001548110801561051c5750600281610100811015610002570154600014155b1561080f576001016104fc565b1561033557600160a060020a038316600090815261010260205260408120549250821415610557575061049c565b6001600160005054036000600050541115610572575061049c565b600060028361010081101561000257508301819055600160a060020a038416815261010260205260408120556104e8610380565b5060408051600160a060020a038516815290517f58619076adf5bb0943d100ef88d52d7c3fd691b19d3a9071b555b651fbf418da9181900360200190a1505050565b1561049c576001548211156105fd575061049e565b600082905561060a610380565b6040805183815290517facbdb084c721332ac59f9b8e392196c9eb0e4932862da8eb9beaf0dad4f550da9181900360200190a15050565b506001830154600282900a908116600014156106605760009450610665565b600194505b5050505092915050565b60008681526101036020526040812080549094509092508214156106f85781548355600183810183905561010480549182018082558280158290116106c7578183600052602060002091820191016106c791906107db565b505050600284018190556101048054889290811015610002576000919091526000805160206108ea83398151915201555b506001820154600284900a908116600014156108065760408051600160a060020a03331681526020810188905281517fe1c52dc63b719ade82e8bea94cc41a0d5d28e4aaf536adb5e9cccc9ff8c1aeda929181900390910190a18254600190116107f35760008681526101036020526040902060020154610104805490919081101561000257604060009081206000805160206108ea83398151915292909201819055808255600180830182905560029092015595506108069050565b6101048054600080835591909152610335906000805160206108ea833981519152908101905b808211156107ef57600081556001016107db565b5090565b8254600019018355600183018054821790555b50505050919050565b5b6001805411801561083257506001546002906101008110156100025701546000145b156108465760018054600019019055610810565b600154811080156108695750600154600290610100811015610002570154600014155b801561088357506002816101008110156100025701546000145b156108e457600154600290610100811015610002578101549082610100811015610002578101919091558190610102906000908361010081101561000257810154825260209290925260408120929092556001546101008110156100025701555b6104f156004c0be60200faa20559308cb7b5a1bb3255c16cb1cab91f525b5ae7a03d02fabe1ba004c7af036442d3c64d3ce1e8a15c476127106adf0e7338d673bc0275ea8d56699f23c9509772dd670463cf71e882dc0660ed54c2591ac6415a48c9f0ec614391c0",
                "blockHeader" : {
                    "bloom" : "0x00000000000000000000000000000000000000000000000000000000000000000000000000000000000000000000000000000000000000000000000000000000000000000000000000000000000000000000000000000000000000000000000000000000000000000000000000000000000000000000000000000000000000000000000000000000000000000000000000000000000000000000000000000000000000000000000000000000000000000000000000000000000000000000000000000000000000000000000000000000000000000000000000000000000000000000000000000000000000000000000000000000000000000000000000000000",
                    "coinbase" : "0x2adc25665018aa1fe0e6bc666dac8fc2697ff9ba",
                    "difficulty" : "0x20000",
                    "extraData" : "0x00",
                    "gasLimit" : "0x98bca4",
                    "gasUsed" : "0x9a96e",
                    "hash" : "0x2157563bc45939831dc62c6dae65810f46d053c83286abd8bbf08fff30f6d3ec",
                    "mixHash" : "0x0000000000000000000000000000000000000000000000000000000000000000",
                    "nonce" : "0x0000000000000000",
                    "number" : "0x1",
                    "parentHash" : "0xd904cbf32732e787dc48a343cd362ad56d6ac31c731b2c26d25dd3795fe1ecc1",
                    "receiptTrie" : "0xbedc7ea3522f19d4346d038d983fc26222ce85599b31ae522f51b5285449125e",
                    "stateRoot" : "0x576f3f558d3023a2fb53e018ad3e140aee1a84da11a1fbbd8fb175c83a95ca6a",
                    "timestamp" : "0x3e8",
                    "transactionsTrie" : "0x2886fc86322c3d15c82023e09346ab2a4782b7fa96a8dcd9d6093ec960ae463d",
                    "uncleHash" : "0x1dcc4de8dec75d7aab85b567b6ccd41ad312451b948a7413f0a142fd40d49347"
                },
                "transactions" : [
                    {
                        "data" : "0x606060409081526001600081815581805533600160a060020a0316600381905581526101026020529182205561090a90819061003b90396000f300606060405236156100775760e060020a6000350463173825d981146100795780632f54bf6e146100d55780634123cb6b146100f95780637065cb4814610102578063746c917114610136578063b75c7dc61461013f578063ba51a6df1461016f578063c2cf7326146101a3578063f00d4b5d146101e3575b005b610077600435600060003643604051808484808284375050509091019081526040519081900360200190209050610529815b600160a060020a033316600090815261010260205260408120548180808381141561066f57610806565b61021c6004355b600160a060020a0316600090815261010260205260408120541190565b61021c60015481565b610077600435600036436040518084848082843750505090910190815260405190819003602001902090506104a1816100ab565b61021c60005481565b610077600435600160a060020a033316600090815261010260205260408120549080808381141561022e576102b0565b610077600435600036436040518084848082843750505090910190815260405190819003602001902090506105e8816100ab565b61021c600435602435600082815261010360209081526040808320600160a060020a03851684526101029092528220548290818181141561064157610665565b61007760043560243560006000364360405180848480828437505050909101908152604051908190036020019020905061033a816100ab565b60408051918252519081900360200190f35b5050506000828152610103602052604081206001810154600284900a92908316819011156102b05781546001838101805492909101845590849003905560408051600160a060020a03331681526020810187905281517fc7fb647e59b18047309aa15aad418e5d7ca96d173ad704f1031a2c3d7591734b929181900390910190a15b5050505050565b600160a060020a038316600283610100811015610002570155600160a060020a0384811660008181526101026020908152604080832083905593871680835291849020869055835192835282015281517fb532073b38c83145e3e5135377a08bf9aab55bc0fd7c1179cd4fb995d2a5159c929181900390910190a15b505b505050565b1561033357610348836100dc565b156103535750610335565b600160a060020a03841660009081526101026020526040812054925082141561037c5750610335565b6102b75b6101045460005b818110156107b557610104805482908110156100025760009182526000805160206108ea8339815191520154146103fa576101048054610103916000918490811015610002576000805160206108ea83398151915201548252506020919091526040812081815560018101829055600201555b600101610387565b60018054810190819055600160a060020a038316906002906101008110156100025790900160005081905550600160005054610102600050600084600160a060020a03168152602001908152602001600020600050819055507f994a936646fe87ffe4f1e469d3d6aa417d6b855598397f323de5b449f765f0c3826040518082600160a060020a0316815260200191505060405180910390a15b505b50565b1561049c576104af826100dc565b156104ba575061049e565b6104c2610380565b60015460fa90106104d7576104d56104ec565b505b60015460fa9010610402575061049e565b6105a65b600060015b6001548110156107ef575b6001548110801561051c5750600281610100811015610002570154600014155b1561080f576001016104fc565b1561033557600160a060020a038316600090815261010260205260408120549250821415610557575061049c565b6001600160005054036000600050541115610572575061049c565b600060028361010081101561000257508301819055600160a060020a038416815261010260205260408120556104e8610380565b5060408051600160a060020a038516815290517f58619076adf5bb0943d100ef88d52d7c3fd691b19d3a9071b555b651fbf418da9181900360200190a1505050565b1561049c576001548211156105fd575061049e565b600082905561060a610380565b6040805183815290517facbdb084c721332ac59f9b8e392196c9eb0e4932862da8eb9beaf0dad4f550da9181900360200190a15050565b506001830154600282900a908116600014156106605760009450610665565b600194505b5050505092915050565b60008681526101036020526040812080549094509092508214156106f85781548355600183810183905561010480549182018082558280158290116106c7578183600052602060002091820191016106c791906107db565b505050600284018190556101048054889290811015610002576000919091526000805160206108ea83398151915201555b506001820154600284900a908116600014156108065760408051600160a060020a03331681526020810188905281517fe1c52dc63b719ade82e8bea94cc41a0d5d28e4aaf536adb5e9cccc9ff8c1aeda929181900390910190a18254600190116107f35760008681526101036020526040902060020154610104805490919081101561000257604060009081206000805160206108ea83398151915292909201819055808255600180830182905560029092015595506108069050565b6101048054600080835591909152610335906000805160206108ea833981519152908101905b808211156107ef57600081556001016107db565b5090565b8254600019018355600183018054821790555b50505050919050565b5b6001805411801561083257506001546002906101008110156100025701546000145b156108465760018054600019019055610810565b600154811080156108695750600154600290610100811015610002570154600014155b801561088357506002816101008110156100025701546000145b156108e457600154600290610100811015610002578101549082610100811015610002578101919091558190610102906000908361010081101561000257810154825260209290925260408120929092556001546101008110156100025701555b6104f156004c0be60200faa20559308cb7b5a1bb3255c16cb1cab91f525b5ae7a03d02fabe",
                        "gasLimit" : "0x0b7691",
                        "gasPrice" : "0x01",
                        "nonce" : "0x00",
                        "to" : "",
                        "value" : "0x64",
                        "v" : "0x1b",
                        "r" : "0x04c7af036442d3c64d3ce1e8a15c476127106adf0e7338d673bc0275ea8d5669",
                        "s" : "0x0023c9509772dd670463cf71e882dc0660ed54c2591ac6415a48c9f0ec614391"
                    }
                ]
            }
        ]
    }
}