{
    "multiOwnedRemoveOwner_d0g0v0_Istanbul" : {
        "_info" : {
            "comment" : "",
            "filling-rpc-server" : "Geth-1.9.6-unstable-63b18027-20190920",
            "filling-tool-version" : "retesteth-0.0.1+commit.0ae18aef.Linux.g++",
            "lllcversion" : "Version: 0.5.12-develop.2019.9.13+commit.2d601a4f.Linux.g++",
            "source" : "src/GeneralStateTestsFiller/stWalletTest/multiOwnedRemoveOwnerFiller.json",
            "sourceHash" : "56243866dcb71b60bc4818cdfff07ca36651fc945e504515c14ae0614f779ed3"
        },
        "genesisBlockHeader" : {
            "bloom" : "0x00000000000000000000000000000000000000000000000000000000000000000000000000000000000000000000000000000000000000000000000000000000000000000000000000000000000000000000000000000000000000000000000000000000000000000000000000000000000000000000000000000000000000000000000000000000000000000000000000000000000000000000000000000000000000000000000000000000000000000000000000000000000000000000000000000000000000000000000000000000000000000000000000000000000000000000000000000000000000000000000000000000000000000000000000000000",
            "coinbase" : "0x2adc25665018aa1fe0e6bc666dac8fc2697ff9ba",
            "difficulty" : "0x20000",
            "extraData" : "0x00",
            "gasLimit" : "0x5f5e100",
            "gasUsed" : "0x0",
            "hash" : "0xfac136204e96bbb49ae2466ab4b0256ce200e0f5befdb65e0021918f7eb6ebab",
            "mixHash" : "0x0000000000000000000000000000000000000000000000000000000000000000",
            "nonce" : "0x0000000000000000",
            "number" : "0x0",
            "parentHash" : "0x0000000000000000000000000000000000000000000000000000000000000000",
            "receiptTrie" : "0x56e81f171bcc55a6ff8345e692c0f86e5b48e01b996cadc001622fb5e363b421",
            "stateRoot" : "0x4bddf3003fd9831aa97ded067eeef014a37522bc289ccff813180ee3ace77243",
            "timestamp" : "0x0",
            "transactionsTrie" : "0x56e81f171bcc55a6ff8345e692c0f86e5b48e01b996cadc001622fb5e363b421",
            "uncleHash" : "0x1dcc4de8dec75d7aab85b567b6ccd41ad312451b948a7413f0a142fd40d49347"
        },
        "pre" : {
            "0x6295ee1b4f6dd65047762f924ecd367c17eabf8f" : {
                "balance" : "0x64",
                "code" : "0x7c01000000000000000000000000000000000000000000000000000000006000350463173825d981146100655780632f54bf6e146100b75780637065cb48146100e8578063b75c7dc614610105578063ba51a6df14610142578063f00d4b5d1461015f57005b6101816004356000604060003680828437909120905061046d815b73ffffffffffffffffffffffffffffffffffffffff3316600090815261010260205260408120548180808381141561058f57610586565b6101876004355b73ffffffffffffffffffffffffffffffffffffffff16600090815261010260205260408120541190565b610181600435604060003680828437909120905061037c81610080565b61018160043573ffffffffffffffffffffffffffffffffffffffff3316600090815261010260205260408120549080808381141561019157610213565b610181600435604060003680828437909120905061053381610080565b6101816004356024356000604060003680828437909120905061028681610080565b60006000f35b8060005260206000f35b5050506000828152610103602052604081206001810154600284900a929083168190111561021357815460018084018054919092018455849003905573ffffffffffffffffffffffffffffffffffffffff3316604090815260608690527fc7fb647e59b18047309aa15aad418e5d7ca96d173ad704f1031a2c3d7591734b9080a15b5050505050565b015573ffffffffffffffffffffffffffffffffffffffff84811660008181526101026020526040808220829055928616808252908390208590559082526060527fb532073b38c83145e3e5135377a08bf9aab55bc0fd7c1179cd4fb995d2a5159c9080a15b505b505050565b1561027f57610294836100be565b1561029f5750610281565b73ffffffffffffffffffffffffffffffffffffffff84166000908152610102602052604081205492508214156102d55750610281565b6102f75b6101045460005b8181101561080c5761010480548290811061085457005b73ffffffffffffffffffffffffffffffffffffffff8316600283610100811061021a57005b015560015473ffffffffffffffffffffffffffffffffffffffff831660008181526101026020908152604091829020939093559081527f994a936646fe87ffe4f1e469d3d6aa417d6b855598397f323de5b449f765f0c39190a15b505b50565b156103775761038a826100be565b156103955750610379565b61039d6102d9565b60015460fa901015156103b4576103b26103cb565b505b60015460fa901015156103f55750610379565b6104255b600060015b6001548110156106f7575b600154811080156107535750600281610100811061074c57005b6001805481019081905573ffffffffffffffffffffffffffffffffffffffff831690600290610100811061031c57005b5073ffffffffffffffffffffffffffffffffffffffff831660409081527f58619076adf5bb0943d100ef88d52d7c3fd691b19d3a9071b555b651fbf418da90602090a1505050565b156102815773ffffffffffffffffffffffffffffffffffffffff83166000908152610102602052604081205492508214156104a85750610377565b60016001600050540360006000505411156104c35750610377565b600060028361010081106104d357005b015573ffffffffffffffffffffffffffffffffffffffff8316600090815261010260205260408120556103c76102d9565b60408281527facbdb084c721332ac59f9b8e392196c9eb0e4932862da8eb9beaf0dad4f550da90602090a15050565b15610377576001548211156105485750610379565b60008290556105046102d9565b82547fffffffffffffffffffffffffffffffffffffffffffffffffffffffffffffffff018355600183018054821790555b50505050919050565b600086815261010360205260408120805490945090925082141561061a5781548355600183810183905561010480549182018082558280158290116106a6578286527f4c0be60200faa20559308cb7b5a1bb3255c16cb1cab91f525b5ae7a03d02fabe9081019082015b808211156106a457600081556001016105f9565b6000918252602090912001555b506001820154600284900a908116600014156105865773ffffffffffffffffffffffffffffffffffffffff3316604090815260608790527fe1c52dc63b719ade82e8bea94cc41a0d5d28e4aaf536adb5e9cccc9ff8c1aeda9080a182546001901115156105555760008681526101036020526101048054604090922060020154909181106106c057005b505b505050600284018190556101048054889290811061060d57005b6000918252602080832090910182905587825261010390526040812081815560018181018390556002909101919091559450610586565b5090565b01546000145b1561076057600180547fffffffffffffffffffffffffffffffffffffffffffffffffffffffffffffffff0190555b60018054118015610701575060015460029061010081106106fb57005b0154600014155b1561072f576001016103db565b600154811080156107845750600154600290610100811061077d57005b0154600014155b801561079f5750600281610100811061079957005b01546000145b156107b85760015460029061010081106107bd57005b01555b6103d0565b015460028261010081106107cd57005b015580610102600060028361010081106107e357005b01548152602081019190915260400160009081209190915560015460029061010081106107b557005b61010480546000808355919091527f4c0be60200faa20559308cb7b5a1bb3255c16cb1cab91f525b5ae7a03d02fabe908101905b8082111561027f5760008155600101610840565b60009182526020822001541415156108a6576101048054610103916000918490811061087c57005b60009182526020808320909101548352820192909252604001812081815560018101829055600201555b6001016102e056",
                "nonce" : "0x00",
                "storage" : {
                    "0x00" : "0x01",
                    "0x01" : "0x02",
                    "0x03" : "0xa94f5374fce5edbc8e2a8697c15331677e6ebf0b",
                    "0x04" : "0x3fb1cd2cd96c6d5c0b5eb3322d807b34482481d4",
                    "0x6e369836487c234b9e553ef3f787c2d8865520739d340c67b3d251a33986e58d" : "0x01",
                    "0xd3e69d8c7f41f7aeaf8130ddc53047aeee8cb46a73d6bae86b7e7d6bf8312e6b" : "0x02"
                }
            },
            "0xa94f5374fce5edbc8e2a8697c15331677e6ebf0b" : {
                "balance" : "0x0de0b6b3a75ef08f",
                "code" : "0x",
                "nonce" : "0x01",
                "storage" : {
                }
            }
        },
        "postState" : {
            "0xa94f5374fce5edbc8e2a8697c15331677e6ebf0b" : {
                "code" : "0x",
                "nonce" : "0x02",
                "balance" : "0x0de0b6b3a75dc820",
                "storage" : {
                }
            },
            "0x2adc25665018aa1fe0e6bc666dac8fc2697ff9ba" : {
                "code" : "0x",
                "nonce" : "0x00",
                "balance" : "0x1bc16d674ec9280b",
                "storage" : {
                }
            },
            "0x6295ee1b4f6dd65047762f924ecd367c17eabf8f" : {
                "code" : "0x7c01000000000000000000000000000000000000000000000000000000006000350463173825d981146100655780632f54bf6e146100b75780637065cb48146100e8578063b75c7dc614610105578063ba51a6df14610142578063f00d4b5d1461015f57005b6101816004356000604060003680828437909120905061046d815b73ffffffffffffffffffffffffffffffffffffffff3316600090815261010260205260408120548180808381141561058f57610586565b6101876004355b73ffffffffffffffffffffffffffffffffffffffff16600090815261010260205260408120541190565b610181600435604060003680828437909120905061037c81610080565b61018160043573ffffffffffffffffffffffffffffffffffffffff3316600090815261010260205260408120549080808381141561019157610213565b610181600435604060003680828437909120905061053381610080565b6101816004356024356000604060003680828437909120905061028681610080565b60006000f35b8060005260206000f35b5050506000828152610103602052604081206001810154600284900a929083168190111561021357815460018084018054919092018455849003905573ffffffffffffffffffffffffffffffffffffffff3316604090815260608690527fc7fb647e59b18047309aa15aad418e5d7ca96d173ad704f1031a2c3d7591734b9080a15b5050505050565b015573ffffffffffffffffffffffffffffffffffffffff84811660008181526101026020526040808220829055928616808252908390208590559082526060527fb532073b38c83145e3e5135377a08bf9aab55bc0fd7c1179cd4fb995d2a5159c9080a15b505b505050565b1561027f57610294836100be565b1561029f5750610281565b73ffffffffffffffffffffffffffffffffffffffff84166000908152610102602052604081205492508214156102d55750610281565b6102f75b6101045460005b8181101561080c5761010480548290811061085457005b73ffffffffffffffffffffffffffffffffffffffff8316600283610100811061021a57005b015560015473ffffffffffffffffffffffffffffffffffffffff831660008181526101026020908152604091829020939093559081527f994a936646fe87ffe4f1e469d3d6aa417d6b855598397f323de5b449f765f0c39190a15b505b50565b156103775761038a826100be565b156103955750610379565b61039d6102d9565b60015460fa901015156103b4576103b26103cb565b505b60015460fa901015156103f55750610379565b6104255b600060015b6001548110156106f7575b600154811080156107535750600281610100811061074c57005b6001805481019081905573ffffffffffffffffffffffffffffffffffffffff831690600290610100811061031c57005b5073ffffffffffffffffffffffffffffffffffffffff831660409081527f58619076adf5bb0943d100ef88d52d7c3fd691b19d3a9071b555b651fbf418da90602090a1505050565b156102815773ffffffffffffffffffffffffffffffffffffffff83166000908152610102602052604081205492508214156104a85750610377565b60016001600050540360006000505411156104c35750610377565b600060028361010081106104d357005b015573ffffffffffffffffffffffffffffffffffffffff8316600090815261010260205260408120556103c76102d9565b60408281527facbdb084c721332ac59f9b8e392196c9eb0e4932862da8eb9beaf0dad4f550da90602090a15050565b15610377576001548211156105485750610379565b60008290556105046102d9565b82547fffffffffffffffffffffffffffffffffffffffffffffffffffffffffffffffff018355600183018054821790555b50505050919050565b600086815261010360205260408120805490945090925082141561061a5781548355600183810183905561010480549182018082558280158290116106a6578286527f4c0be60200faa20559308cb7b5a1bb3255c16cb1cab91f525b5ae7a03d02fabe9081019082015b808211156106a457600081556001016105f9565b6000918252602090912001555b506001820154600284900a908116600014156105865773ffffffffffffffffffffffffffffffffffffffff3316604090815260608790527fe1c52dc63b719ade82e8bea94cc41a0d5d28e4aaf536adb5e9cccc9ff8c1aeda9080a182546001901115156105555760008681526101036020526101048054604090922060020154909181106106c057005b505b505050600284018190556101048054889290811061060d57005b6000918252602080832090910182905587825261010390526040812081815560018181018390556002909101919091559450610586565b5090565b01546000145b1561076057600180547fffffffffffffffffffffffffffffffffffffffffffffffffffffffffffffffff0190555b60018054118015610701575060015460029061010081106106fb57005b0154600014155b1561072f576001016103db565b600154811080156107845750600154600290610100811061077d57005b0154600014155b801561079f5750600281610100811061079957005b01546000145b156107b85760015460029061010081106107bd57005b01555b6103d0565b015460028261010081106107cd57005b015580610102600060028361010081106107e357005b01548152602081019190915260400160009081209190915560015460029061010081106107b557005b61010480546000808355919091527f4c0be60200faa20559308cb7b5a1bb3255c16cb1cab91f525b5ae7a03d02fabe908101905b8082111561027f5760008155600101610840565b60009182526020822001541415156108a6576101048054610103916000918490811061087c57005b60009182526020808320909101548352820192909252604001812081815560018101829055600201555b6001016102e056",
                "nonce" : "0x00",
                "balance" : "0xc8",
                "storage" : {
                    "0x00" : "0x01",
                    "0xd3e69d8c7f41f7aeaf8130ddc53047aeee8cb46a73d6bae86b7e7d6bf8312e6b" : "0x01",
                    "0x01" : "0x01",
                    "0x03" : "0x3fb1cd2cd96c6d5c0b5eb3322d807b34482481d4"
                }
            }
        },
        "network" : "Istanbul",
        "sealEngine" : "NoProof",
        "lastblockhash" : "0x7c2c841d05c3426a83e8c5f97f1c955b9bde88a095c973423ce732be7bd22cfc",
        "genesisRLP" : "0xf901f9f901f4a00000000000000000000000000000000000000000000000000000000000000000a01dcc4de8dec75d7aab85b567b6ccd41ad312451b948a7413f0a142fd40d49347942adc25665018aa1fe0e6bc666dac8fc2697ff9baa04bddf3003fd9831aa97ded067eeef014a37522bc289ccff813180ee3ace77243a056e81f171bcc55a6ff8345e692c0f86e5b48e01b996cadc001622fb5e363b421a056e81f171bcc55a6ff8345e692c0f86e5b48e01b996cadc001622fb5e363b421b901000000000000000000000000000000000000000000000000000000000000000000000000000000000000000000000000000000000000000000000000000000000000000000000000000000000000000000000000000000000000000000000000000000000000000000000000000000000000000000000000000000000000000000000000000000000000000000000000000000000000000000000000000000000000000000000000000000000000000000000000000000000000000000000000000000000000000000000000000000000000000000000000000000000000000000000000000000000000000000000000000000000000000000000000000000000083020000808405f5e100808000a00000000000000000000000000000000000000000000000000000000000000000880000000000000000c0c0",
        "blocks" : [
            {
                "rlp" : "0xf90285f901f9a0fac136204e96bbb49ae2466ab4b0256ce200e0f5befdb65e0021918f7eb6ebaba01dcc4de8dec75d7aab85b567b6ccd41ad312451b948a7413f0a142fd40d49347942adc25665018aa1fe0e6bc666dac8fc2697ff9baa037a825662a36b2122d604307db5eb7e76871ba5d14960a9d54e7d53df9468580a05eefb371b5622f4ba14203292763da53b6c602c622baf3a6c360f2701ac9b691a02565219f767918fb6d6e3608bbd34b03420f892a0e95631f391359391b2ecc0cb901000000000000000000000000000000000000000000000000000002000000000000000000000000000000000000000000000000000000000000000000000000000000000000000000000000000000000000000000000000000000000000000040000000000000000000000000000000000000000000000000000000000000000000000000000000000000000000000040000000000000000080000000000000000000200000000000000000000000000000000000000000000000000000000000000000000000000000000000000000000000000000040000000080000000000000000000000000000040000000000000000000000000000004000000000000000083020000018405f75e778301280b8203e800a00000000000000000000000000000000000000000000000000000000000000000880000000000000000f886f884010183989680946295ee1b4f6dd65047762f924ecd367c17eabf8f64a4173825d9000000000000000000000000a94f5374fce5edbc8e2a8697c15331677e6ebf0b1ca032e57eb76c9349c8f12277e3cdcf08cc42d3b98d506bc7295890fb626e9a66afa0605d870f1a06bea945c0aaecc470ea487f74b6e3541ad5b51b9c69fd14ed59a5c0",
                "blockHeader" : {
                    "bloom" : "0x00000000000000000000000000000000000000000000000000020000000000000000000000000000000000000000000000000000000000000000000000000000000000000000000000000000000000000000000000000000000000000000400000000000000000000000000000000000000000000000000000000000000000000000000000000000000000000000400000000000000000800000000000000000002000000000000000000000000000000000000000000000000000000000000000000000000000000000000000000000000000000400000000800000000000000000000000000000400000000000000000000000000000040000000000000000",
                    "coinbase" : "0x2adc25665018aa1fe0e6bc666dac8fc2697ff9ba",
                    "difficulty" : "0x20000",
                    "extraData" : "0x00",
                    "gasLimit" : "0x5f75e77",
                    "gasUsed" : "0x1280b",
                    "hash" : "0x7c2c841d05c3426a83e8c5f97f1c955b9bde88a095c973423ce732be7bd22cfc",
                    "mixHash" : "0x0000000000000000000000000000000000000000000000000000000000000000",
                    "nonce" : "0x0000000000000000",
                    "number" : "0x1",
                    "parentHash" : "0xfac136204e96bbb49ae2466ab4b0256ce200e0f5befdb65e0021918f7eb6ebab",
                    "receiptTrie" : "0x2565219f767918fb6d6e3608bbd34b03420f892a0e95631f391359391b2ecc0c",
                    "stateRoot" : "0x37a825662a36b2122d604307db5eb7e76871ba5d14960a9d54e7d53df9468580",
                    "timestamp" : "0x3e8",
                    "transactionsTrie" : "0x5eefb371b5622f4ba14203292763da53b6c602c622baf3a6c360f2701ac9b691",
                    "uncleHash" : "0x1dcc4de8dec75d7aab85b567b6ccd41ad312451b948a7413f0a142fd40d49347"
                },
                "transactions" : [
                    {
                        "data" : "0x173825d9000000000000000000000000a94f5374fce5edbc8e2a8697c15331677e6ebf0b",
                        "gasLimit" : "0x989680",
                        "gasPrice" : "0x01",
                        "nonce" : "0x01",
                        "to" : "0x6295ee1b4f6dd65047762f924ecd367c17eabf8f",
                        "value" : "0x64",
                        "v" : "0x1c",
                        "r" : "0x32e57eb76c9349c8f12277e3cdcf08cc42d3b98d506bc7295890fb626e9a66af",
                        "s" : "0x605d870f1a06bea945c0aaecc470ea487f74b6e3541ad5b51b9c69fd14ed59a5"
                    }
                ]
            }
        ]
    }
}