{
    "failed_tx_xcf416c53_d0g0v0_Istanbul" : {
        "_info" : {
            "comment" : "",
            "filling-rpc-server" : "Geth-1.9.6-unstable-63b18027-20190920",
            "filling-tool-version" : "retesteth-0.0.1+commit.0ae18aef.Linux.g++",
            "lllcversion" : "Version: 0.5.12-develop.2019.9.13+commit.2d601a4f.Linux.g++",
            "source" : "src/GeneralStateTestsFiller/stSpecialTest/failed_tx_xcf416c53Filler.json",
            "sourceHash" : "ab95efa0b43e495fc5e71326d29c5e590f1407ba129e26e944b2d696fbe2fc65"
        },
        "genesisBlockHeader" : {
            "bloom" : "0x00000000000000000000000000000000000000000000000000000000000000000000000000000000000000000000000000000000000000000000000000000000000000000000000000000000000000000000000000000000000000000000000000000000000000000000000000000000000000000000000000000000000000000000000000000000000000000000000000000000000000000000000000000000000000000000000000000000000000000000000000000000000000000000000000000000000000000000000000000000000000000000000000000000000000000000000000000000000000000000000000000000000000000000000000000000",
            "coinbase" : "0x68795c4aa09d6f4ed3e5deddf8c2ad3049a601da",
            "difficulty" : "0x20000",
            "extraData" : "0x00",
            "gasLimit" : "0x1e8480",
            "gasUsed" : "0x0",
            "hash" : "0xd4d0d68cba619d42724dcf6071e03490059b6667002ab0293bb214adedbea516",
            "mixHash" : "0x0000000000000000000000000000000000000000000000000000000000000000",
            "nonce" : "0x0000000000000000",
            "number" : "0x0",
            "parentHash" : "0x0000000000000000000000000000000000000000000000000000000000000000",
            "receiptTrie" : "0x56e81f171bcc55a6ff8345e692c0f86e5b48e01b996cadc001622fb5e363b421",
            "stateRoot" : "0x071f5dbe08f2a3b33b8c4a046998e5e5d7131356f95c13da91a2062236b92642",
            "timestamp" : "0x0",
            "transactionsTrie" : "0x56e81f171bcc55a6ff8345e692c0f86e5b48e01b996cadc001622fb5e363b421",
            "uncleHash" : "0x1dcc4de8dec75d7aab85b567b6ccd41ad312451b948a7413f0a142fd40d49347"
        },
        "pre" : {
            "0x0000000000000000000000000000000000000003" : {
                "balance" : "0x00",
                "code" : "0x",
                "nonce" : "0x00",
                "storage" : {
                }
            },
            "0x0e879AE28cdDdEB31A405A9dB354505a5560b0Bd" : {
                "balance" : "0x00",
                "code" : "0x7c0100000000000000000000000000000000000000000000000000000000600035046397dd3054811415610065576004356040526024356060526040516060515b808212156100625760006000600060006000866000f150600182019150610040565b50505b50",
                "nonce" : "0x00",
                "storage" : {
                }
            },
            "0xa94f5374fce5edbc8e2a8697c15331677e6ebf0b" : {
                "balance" : "0x0de0b6b3a7640000",
                "code" : "0x",
                "nonce" : "0x01",
                "storage" : {
                }
            }
        },
        "postState" : {
            "0xa94f5374fce5edbc8e2a8697c15331677e6ebf0b" : {
                "code" : "0x",
                "nonce" : "0x02",
                "balance" : "0x0de0b6b3a75b67bf",
                "storage" : {
                }
            },
            "0x0e879ae28cdddeb31a405a9db354505a5560b0bd" : {
                "code" : "0x7c0100000000000000000000000000000000000000000000000000000000600035046397dd3054811415610065576004356040526024356060526040516060515b808212156100625760006000600060006000866000f150600182019150610040565b50505b50",
                "nonce" : "0x00",
                "balance" : "0x00",
                "storage" : {
                }
            },
            "0x68795c4aa09d6f4ed3e5deddf8c2ad3049a601da" : {
                "code" : "0x",
                "nonce" : "0x00",
                "balance" : "0x1bc16d674ed09841",
                "storage" : {
                }
            }
        },
        "network" : "Istanbul",
        "sealEngine" : "NoProof",
        "lastblockhash" : "0x6580433354a443d6a1db47b5a57ca255ece30328affb08c23aefc1c512725173",
        "genesisRLP" : "0xf901f8f901f3a00000000000000000000000000000000000000000000000000000000000000000a01dcc4de8dec75d7aab85b567b6ccd41ad312451b948a7413f0a142fd40d493479468795c4aa09d6f4ed3e5deddf8c2ad3049a601daa0071f5dbe08f2a3b33b8c4a046998e5e5d7131356f95c13da91a2062236b92642a056e81f171bcc55a6ff8345e692c0f86e5b48e01b996cadc001622fb5e363b421a056e81f171bcc55a6ff8345e692c0f86e5b48e01b996cadc001622fb5e363b421b90100000000000000000000000000000000000000000000000000000000000000000000000000000000000000000000000000000000000000000000000000000000000000000000000000000000000000000000000000000000000000000000000000000000000000000000000000000000000000000000000000000000000000000000000000000000000000000000000000000000000000000000000000000000000000000000000000000000000000000000000000000000000000000000000000000000000000000000000000000000000000000000000000000000000000000000000000000000000000000000000000000000000000000000000000000000008302000080831e8480808000a00000000000000000000000000000000000000000000000000000000000000000880000000000000000c0c0",
        "blocks" : [
            {
                "rlp" : "0xf902a5f901f8a0d4d0d68cba619d42724dcf6071e03490059b6667002ab0293bb214adedbea516a01dcc4de8dec75d7aab85b567b6ccd41ad312451b948a7413f0a142fd40d493479468795c4aa09d6f4ed3e5deddf8c2ad3049a601daa0c543b29f1821de0c88824bbe724a32817852d4602daeca93b2f5e537e7003f76a0a89e4908dab3b9c1bd296492981e2531591f34f001e85d14444905667c0db09ea02511efbccc0cdc0f80fdf2ec6f0287ceebe7d0f4d8ccc640a79b0184c2519d1eb90100000000000000000000000000000000000000000000000000000000000000000000000000000000000000000000000000000000000000000000000000000000000000000000000000000000000000000000000000000000000000000000000000000000000000000000000000000000000000000000000000000000000000000000000000000000000000000000000000000000000000000000000000000000000000000000000000000000000000000000000000000000000000000000000000000000000000000000000000000000000000000000000000000000000000000000000000000000000000000000000000000000000000000000000000000000008302000001831e8c20830898418203e800a00000000000000000000000000000000000000000000000000000000000000000880000000000000000f8a7f8a5010183099cf0940e879ae28cdddeb31a405a9db354505a5560b0bd80b84497dd3054000000000000000000000000000000000000000000000000000000000000000000000000000000000000000000000000000000000000000000000000000002bc1ba0a7a1fd1df0db2196f0b3d46632897d2173ec9b24810dc89273ad922ecdd7dde9a06e4b3ffe2e9d049f2460bb1659d3b04a56499c5a8b19809928d13d969de15454c0",
                "blockHeader" : {
                    "bloom" : "0x00000000000000000000000000000000000000000000000000000000000000000000000000000000000000000000000000000000000000000000000000000000000000000000000000000000000000000000000000000000000000000000000000000000000000000000000000000000000000000000000000000000000000000000000000000000000000000000000000000000000000000000000000000000000000000000000000000000000000000000000000000000000000000000000000000000000000000000000000000000000000000000000000000000000000000000000000000000000000000000000000000000000000000000000000000000",
                    "coinbase" : "0x68795c4aa09d6f4ed3e5deddf8c2ad3049a601da",
                    "difficulty" : "0x20000",
                    "extraData" : "0x00",
                    "gasLimit" : "0x1e8c20",
                    "gasUsed" : "0x89841",
                    "hash" : "0x6580433354a443d6a1db47b5a57ca255ece30328affb08c23aefc1c512725173",
                    "mixHash" : "0x0000000000000000000000000000000000000000000000000000000000000000",
                    "nonce" : "0x0000000000000000",
                    "number" : "0x1",
                    "parentHash" : "0xd4d0d68cba619d42724dcf6071e03490059b6667002ab0293bb214adedbea516",
                    "receiptTrie" : "0x2511efbccc0cdc0f80fdf2ec6f0287ceebe7d0f4d8ccc640a79b0184c2519d1e",
                    "stateRoot" : "0xc543b29f1821de0c88824bbe724a32817852d4602daeca93b2f5e537e7003f76",
                    "timestamp" : "0x3e8",
                    "transactionsTrie" : "0xa89e4908dab3b9c1bd296492981e2531591f34f001e85d14444905667c0db09e",
                    "uncleHash" : "0x1dcc4de8dec75d7aab85b567b6ccd41ad312451b948a7413f0a142fd40d49347"
                },
                "transactions" : [
                    {
                        "data" : "0x97dd3054000000000000000000000000000000000000000000000000000000000000000000000000000000000000000000000000000000000000000000000000000002bc",
                        "gasLimit" : "0x099cf0",
                        "gasPrice" : "0x01",
                        "nonce" : "0x01",
                        "to" : "0x0e879AE28cdDdEB31A405A9dB354505a5560b0Bd",
                        "value" : "0x00",
                        "v" : "0x1b",
                        "r" : "0xa7a1fd1df0db2196f0b3d46632897d2173ec9b24810dc89273ad922ecdd7dde9",
                        "s" : "0x6e4b3ffe2e9d049f2460bb1659d3b04a56499c5a8b19809928d13d969de15454"
                    }
                ]
            }
        ]
    }
}