{
    "push32withoutByte_d0g0v0_Istanbul" : {
        "_info" : {
            "comment" : "push expect 32 bytes. but we have only 10 byte",
            "filling-rpc-server" : "Geth-1.9.6-unstable-63b18027-20190920",
            "filling-tool-version" : "retesteth-0.0.1+commit.0ae18aef.Linux.g++",
            "lllcversion" : "Version: 0.5.12-develop.2019.9.13+commit.2d601a4f.Linux.g++",
            "source" : "src/GeneralStateTestsFiller/stSpecialTest/push32withoutByteFiller.json",
            "sourceHash" : "761813427d3e0994bb1c41db566ef44b8db5cbfd49367aa2861e7624a445bc8d"
        },
        "genesisBlockHeader" : {
            "bloom" : "0x00000000000000000000000000000000000000000000000000000000000000000000000000000000000000000000000000000000000000000000000000000000000000000000000000000000000000000000000000000000000000000000000000000000000000000000000000000000000000000000000000000000000000000000000000000000000000000000000000000000000000000000000000000000000000000000000000000000000000000000000000000000000000000000000000000000000000000000000000000000000000000000000000000000000000000000000000000000000000000000000000000000000000000000000000000000",
            "coinbase" : "0x68795c4aa09d6f4ed3e5deddf8c2ad3049a601da",
            "difficulty" : "0x20000",
            "extraData" : "0x00",
            "gasLimit" : "0x2fefd8",
            "gasUsed" : "0x0",
            "hash" : "0x664b4df758ef9bb264ef891ed8f0b83e9d64c80c65c4aa80bb145f1b1ff07bd5",
            "mixHash" : "0x0000000000000000000000000000000000000000000000000000000000000000",
            "nonce" : "0x0000000000000000",
            "number" : "0x0",
            "parentHash" : "0x0000000000000000000000000000000000000000000000000000000000000000",
            "receiptTrie" : "0x56e81f171bcc55a6ff8345e692c0f86e5b48e01b996cadc001622fb5e363b421",
            "stateRoot" : "0xf27e966e246ddaeb8822b8e9238dcf32157f710b15ee3ed4e4200090c7751a54",
            "timestamp" : "0x0",
            "transactionsTrie" : "0x56e81f171bcc55a6ff8345e692c0f86e5b48e01b996cadc001622fb5e363b421",
            "uncleHash" : "0x1dcc4de8dec75d7aab85b567b6ccd41ad312451b948a7413f0a142fd40d49347"
        },
        "pre" : {
            "0x0dc02922f33e45537411b9f92a1dcc9750ba9932" : {
                "balance" : "0x00",
                "code" : "0x7f11223344556677889910",
                "nonce" : "0x00",
                "storage" : {
                }
            },
            "0xa94f5374fce5edbc8e2a8697c15331677e6ebf0b" : {
                "balance" : "0x0de0b6b3a7640000",
                "code" : "0x",
                "nonce" : "0x01",
                "storage" : {
                }
            }
        },
        "postState" : {
            "0xa94f5374fce5edbc8e2a8697c15331677e6ebf0b" : {
                "code" : "0x",
                "nonce" : "0x02",
                "balance" : "0x0de0b6b3a763adf5",
                "storage" : {
                }
            },
            "0x0dc02922f33e45537411b9f92a1dcc9750ba9932" : {
                "code" : "0x7f11223344556677889910",
                "nonce" : "0x00",
                "balance" : "0x00",
                "storage" : {
                }
            },
            "0x68795c4aa09d6f4ed3e5deddf8c2ad3049a601da" : {
                "code" : "0x",
                "nonce" : "0x00",
                "balance" : "0x1bc16d674ec8520b",
                "storage" : {
                }
            }
        },
        "network" : "Istanbul",
        "sealEngine" : "NoProof",
        "lastblockhash" : "0x756902c00c1fc08e1060e14ecdf18ba2295d59fdd14b1f4169abebe7b4f34a02",
        "genesisRLP" : "0xf901f8f901f3a00000000000000000000000000000000000000000000000000000000000000000a01dcc4de8dec75d7aab85b567b6ccd41ad312451b948a7413f0a142fd40d493479468795c4aa09d6f4ed3e5deddf8c2ad3049a601daa0f27e966e246ddaeb8822b8e9238dcf32157f710b15ee3ed4e4200090c7751a54a056e81f171bcc55a6ff8345e692c0f86e5b48e01b996cadc001622fb5e363b421a056e81f171bcc55a6ff8345e692c0f86e5b48e01b996cadc001622fb5e363b421b90100000000000000000000000000000000000000000000000000000000000000000000000000000000000000000000000000000000000000000000000000000000000000000000000000000000000000000000000000000000000000000000000000000000000000000000000000000000000000000000000000000000000000000000000000000000000000000000000000000000000000000000000000000000000000000000000000000000000000000000000000000000000000000000000000000000000000000000000000000000000000000000000000000000000000000000000000000000000000000000000000000000000000000000000000000000008302000080832fefd8808000a00000000000000000000000000000000000000000000000000000000000000000880000000000000000c0c0",
        "blocks" : [
            {
                "rlp" : "0xf9025ff901f7a0664b4df758ef9bb264ef891ed8f0b83e9d64c80c65c4aa80bb145f1b1ff07bd5a01dcc4de8dec75d7aab85b567b6ccd41ad312451b948a7413f0a142fd40d493479468795c4aa09d6f4ed3e5deddf8c2ad3049a601daa087d3b33c85e42a144b5445a6ea582675d31cfaea417f0fa74df0bd1e370c9426a04c634f32aa14e92f2c3fb89ac7c91d56610f36826e78022ec5aaf1bf86f6ea2aa0f951f9396af203499cc7d379715a9110323de73967c5700e2f424725446a3c76b90100000000000000000000000000000000000000000000000000000000000000000000000000000000000000000000000000000000000000000000000000000000000000000000000000000000000000000000000000000000000000000000000000000000000000000000000000000000000000000000000000000000000000000000000000000000000000000000000000000000000000000000000000000000000000000000000000000000000000000000000000000000000000000000000000000000000000000000000000000000000000000000000000000000000000000000000000000000000000000000000000000000000000000000000000000000008302000001832ffbd282520b8203e800a00000000000000000000000000000000000000000000000000000000000000000880000000000000000f862f86001018307a120940dc02922f33e45537411b9f92a1dcc9750ba993280801ba0932e278b5beb5e3451006c170ac478c8e04566268f0aaa1be1f2ccd95f3c2ff3a0415b798d20c83f196f18ea39ab8e81371254b309915bf33cd361a943c04e7250c0",
                "blockHeader" : {
                    "bloom" : "0x00000000000000000000000000000000000000000000000000000000000000000000000000000000000000000000000000000000000000000000000000000000000000000000000000000000000000000000000000000000000000000000000000000000000000000000000000000000000000000000000000000000000000000000000000000000000000000000000000000000000000000000000000000000000000000000000000000000000000000000000000000000000000000000000000000000000000000000000000000000000000000000000000000000000000000000000000000000000000000000000000000000000000000000000000000000",
                    "coinbase" : "0x68795c4aa09d6f4ed3e5deddf8c2ad3049a601da",
                    "difficulty" : "0x20000",
                    "extraData" : "0x00",
                    "gasLimit" : "0x2ffbd2",
                    "gasUsed" : "0x520b",
                    "hash" : "0x756902c00c1fc08e1060e14ecdf18ba2295d59fdd14b1f4169abebe7b4f34a02",
                    "mixHash" : "0x0000000000000000000000000000000000000000000000000000000000000000",
                    "nonce" : "0x0000000000000000",
                    "number" : "0x1",
                    "parentHash" : "0x664b4df758ef9bb264ef891ed8f0b83e9d64c80c65c4aa80bb145f1b1ff07bd5",
                    "receiptTrie" : "0xf951f9396af203499cc7d379715a9110323de73967c5700e2f424725446a3c76",
                    "stateRoot" : "0x87d3b33c85e42a144b5445a6ea582675d31cfaea417f0fa74df0bd1e370c9426",
                    "timestamp" : "0x3e8",
                    "transactionsTrie" : "0x4c634f32aa14e92f2c3fb89ac7c91d56610f36826e78022ec5aaf1bf86f6ea2a",
                    "uncleHash" : "0x1dcc4de8dec75d7aab85b567b6ccd41ad312451b948a7413f0a142fd40d49347"
                },
                "transactions" : [
                    {
                        "data" : "0x",
                        "gasLimit" : "0x07a120",
                        "gasPrice" : "0x01",
                        "nonce" : "0x01",
                        "to" : "0x0dc02922f33e45537411b9f92a1dcc9750ba9932",
                        "value" : "0x00",
                        "v" : "0x1b",
                        "r" : "0x932e278b5beb5e3451006c170ac478c8e04566268f0aaa1be1f2ccd95f3c2ff3",
                        "s" : "0x415b798d20c83f196f18ea39ab8e81371254b309915bf33cd361a943c04e7250"
                    }
                ]
            }
        ]
    }
}