{
    "StackDepthLimitSEC_d0g0v0_Istanbul" : {
        "_info" : {
            "comment" : "",
            "filling-rpc-server" : "Geth-1.9.6-unstable-63b18027-20190920",
            "filling-tool-version" : "retesteth-0.0.1+commit.0ae18aef.Linux.g++",
            "lllcversion" : "Version: 0.5.12-develop.2019.9.13+commit.2d601a4f.Linux.g++",
            "source" : "src/GeneralStateTestsFiller/stSpecialTest/StackDepthLimitSECFiller.json",
            "sourceHash" : "8568a942ba58ef41f7253ac7d4ca42abd72671861e53faf6fbde1a0137c9ba4a"
        },
        "genesisBlockHeader" : {
            "bloom" : "0x00000000000000000000000000000000000000000000000000000000000000000000000000000000000000000000000000000000000000000000000000000000000000000000000000000000000000000000000000000000000000000000000000000000000000000000000000000000000000000000000000000000000000000000000000000000000000000000000000000000000000000000000000000000000000000000000000000000000000000000000000000000000000000000000000000000000000000000000000000000000000000000000000000000000000000000000000000000000000000000000000000000000000000000000000000000",
            "coinbase" : "0x2adc25665018aa1fe0e6bc666dac8fc2697ff9ba",
            "difficulty" : "0x20000",
            "extraData" : "0x00",
            "gasLimit" : "0xf4240",
            "gasUsed" : "0x0",
            "hash" : "0x7dd1a3114b7c1c75c76f1ffc96432bae23897e302cb6e851c881690c40dd3c71",
            "mixHash" : "0x0000000000000000000000000000000000000000000000000000000000000000",
            "nonce" : "0x0000000000000000",
            "number" : "0x0",
            "parentHash" : "0x0000000000000000000000000000000000000000000000000000000000000000",
            "receiptTrie" : "0x56e81f171bcc55a6ff8345e692c0f86e5b48e01b996cadc001622fb5e363b421",
            "stateRoot" : "0x9d354f9b5ba851a35eced279ef377111387197581429cfcc7f744ef89a30b5d4",
            "timestamp" : "0x0",
            "transactionsTrie" : "0x56e81f171bcc55a6ff8345e692c0f86e5b48e01b996cadc001622fb5e363b421",
            "uncleHash" : "0x1dcc4de8dec75d7aab85b567b6ccd41ad312451b948a7413f0a142fd40d49347"
        },
        "pre" : {
            "0xa94f5374fce5edbc8e2a8697c15331677e6ebf0b" : {
                "balance" : "0x05f5e100",
                "code" : "0x",
                "nonce" : "0x00",
                "storage" : {
                }
            }
        },
        "postState" : {
            "0xa94f5374fce5edbc8e2a8697c15331677e6ebf0b" : {
                "code" : "0x",
                "nonce" : "0x01",
                "balance" : "0x05f50262",
                "storage" : {
                }
            },
            "0x2adc25665018aa1fe0e6bc666dac8fc2697ff9ba" : {
                "code" : "0x",
                "nonce" : "0x00",
                "balance" : "0x1bc16d674ec8de94",
                "storage" : {
                }
            },
            "0x6295ee1b4f6dd65047762f924ecd367c17eabf8f" : {
                "code" : "0x600060006000600060003060405a03f1",
                "nonce" : "0x01",
                "balance" : "0x0a",
                "storage" : {
                }
            }
        },
        "network" : "Istanbul",
        "sealEngine" : "NoProof",
        "lastblockhash" : "0x93a24441b8bd4b4a8cac168b1b66d2899f6c5fcdab08afa7c00ea0decd634d7d",
        "genesisRLP" : "0xf901f8f901f3a00000000000000000000000000000000000000000000000000000000000000000a01dcc4de8dec75d7aab85b567b6ccd41ad312451b948a7413f0a142fd40d49347942adc25665018aa1fe0e6bc666dac8fc2697ff9baa09d354f9b5ba851a35eced279ef377111387197581429cfcc7f744ef89a30b5d4a056e81f171bcc55a6ff8345e692c0f86e5b48e01b996cadc001622fb5e363b421a056e81f171bcc55a6ff8345e692c0f86e5b48e01b996cadc001622fb5e363b421b90100000000000000000000000000000000000000000000000000000000000000000000000000000000000000000000000000000000000000000000000000000000000000000000000000000000000000000000000000000000000000000000000000000000000000000000000000000000000000000000000000000000000000000000000000000000000000000000000000000000000000000000000000000000000000000000000000000000000000000000000000000000000000000000000000000000000000000000000000000000000000000000000000000000000000000000000000000000000000000000000000000000000000000000000000000000008302000080830f4240808000a00000000000000000000000000000000000000000000000000000000000000000880000000000000000c0c0",
        "blocks" : [
            {
                "rlp" : "0xf90280f901f7a07dd1a3114b7c1c75c76f1ffc96432bae23897e302cb6e851c881690c40dd3c71a01dcc4de8dec75d7aab85b567b6ccd41ad312451b948a7413f0a142fd40d49347942adc25665018aa1fe0e6bc666dac8fc2697ff9baa0be87ba42f5b116f28b3e7b1621665656bee8cd80c9f8c4876e12b494a73ead9ea07af7ff34e7d0a8b77a04fb7e3b69b3772b7fd1d8c1dcabff11039cae0672732ca0c89b87100fd6109b581b007749109dd3dca4b65dece090aa22aec02046c089e5b90100000000000000000000000000000000000000000000000000000000000000000000000000000000000000000000000000000000000000000000000000000000000000000000000000000000000000000000000000000000000000000000000000000000000000000000000000000000000000000000000000000000000000000000000000000000000000000000000000000000000000000000000000000000000000000000000000000000000000000000000000000000000000000000000000000000000000000000000000000000000000000000000000000000000000000000000000000000000000000000000000000000000000000000000000000000008302000001830f460f82de948203e800a00000000000000000000000000000000000000000000000000000000000000000880000000000000000f883f8818001830f4240800ab5305032503350600460006000396000515060046000600037600051506f600060006000600060003060405a03f160005260106010f31ba077fd122f22775b2a472c013825e36bb717bdde2c259e4da7634e3e3f405e9d42a0257245ae942b235c1972173abc056dde77fa599abbdea3cb62672544020e429cc0",
                "blockHeader" : {
                    "bloom" : "0x00000000000000000000000000000000000000000000000000000000000000000000000000000000000000000000000000000000000000000000000000000000000000000000000000000000000000000000000000000000000000000000000000000000000000000000000000000000000000000000000000000000000000000000000000000000000000000000000000000000000000000000000000000000000000000000000000000000000000000000000000000000000000000000000000000000000000000000000000000000000000000000000000000000000000000000000000000000000000000000000000000000000000000000000000000000",
                    "coinbase" : "0x2adc25665018aa1fe0e6bc666dac8fc2697ff9ba",
                    "difficulty" : "0x20000",
                    "extraData" : "0x00",
                    "gasLimit" : "0xf460f",
                    "gasUsed" : "0xde94",
                    "hash" : "0x93a24441b8bd4b4a8cac168b1b66d2899f6c5fcdab08afa7c00ea0decd634d7d",
                    "mixHash" : "0x0000000000000000000000000000000000000000000000000000000000000000",
                    "nonce" : "0x0000000000000000",
                    "number" : "0x1",
                    "parentHash" : "0x7dd1a3114b7c1c75c76f1ffc96432bae23897e302cb6e851c881690c40dd3c71",
                    "receiptTrie" : "0xc89b87100fd6109b581b007749109dd3dca4b65dece090aa22aec02046c089e5",
                    "stateRoot" : "0xbe87ba42f5b116f28b3e7b1621665656bee8cd80c9f8c4876e12b494a73ead9e",
                    "timestamp" : "0x3e8",
                    "transactionsTrie" : "0x7af7ff34e7d0a8b77a04fb7e3b69b3772b7fd1d8c1dcabff11039cae0672732c",
                    "uncleHash" : "0x1dcc4de8dec75d7aab85b567b6ccd41ad312451b948a7413f0a142fd40d49347"
                },
                "transactions" : [
                    {
                        "data" : "0x305032503350600460006000396000515060046000600037600051506f600060006000600060003060405a03f160005260106010f3",
                        "gasLimit" : "0x0f4240",
                        "gasPrice" : "0x01",
                        "nonce" : "0x00",
                        "to" : "",
                        "value" : "0x0a",
                        "v" : "0x1b",
                        "r" : "0x77fd122f22775b2a472c013825e36bb717bdde2c259e4da7634e3e3f405e9d42",
                        "s" : "0x257245ae942b235c1972173abc056dde77fa599abbdea3cb62672544020e429c"
                    }
                ]
            }
        ]
    }
}