{
    "CREATE_ContractSuicideDuringInit_ThenStoreThenReturn_d0g0v0_Istanbul" : {
        "_info" : {
            "comment" : "",
            "filling-rpc-server" : "Geth-1.9.6-unstable-63b18027-20190920",
            "filling-tool-version" : "retesteth-0.0.1+commit.0ae18aef.Linux.g++",
            "lllcversion" : "Version: 0.5.12-develop.2019.9.13+commit.2d601a4f.Linux.g++",
            "source" : "src/GeneralStateTestsFiller/stCreateTest/CREATE_ContractSuicideDuringInit_ThenStoreThenReturnFiller.json",
            "sourceHash" : "938f716bf1637e92560e9a568ac3c67a941dcc98a80ca5a85fee3abc76b600d6"
        },
        "genesisBlockHeader" : {
            "bloom" : "0x00000000000000000000000000000000000000000000000000000000000000000000000000000000000000000000000000000000000000000000000000000000000000000000000000000000000000000000000000000000000000000000000000000000000000000000000000000000000000000000000000000000000000000000000000000000000000000000000000000000000000000000000000000000000000000000000000000000000000000000000000000000000000000000000000000000000000000000000000000000000000000000000000000000000000000000000000000000000000000000000000000000000000000000000000000000",
            "coinbase" : "0x2adc25665018aa1fe0e6bc666dac8fc2697ff9ba",
            "difficulty" : "0x20000",
            "extraData" : "0x00",
            "gasLimit" : "0x989680",
            "gasUsed" : "0x0",
            "hash" : "0xfb74e8bda660854109b90b2f4c202b03480c2b40d40e76b79a1219799bb8b4b6",
            "mixHash" : "0x0000000000000000000000000000000000000000000000000000000000000000",
            "nonce" : "0x0000000000000000",
            "number" : "0x0",
            "parentHash" : "0x0000000000000000000000000000000000000000000000000000000000000000",
            "receiptTrie" : "0x56e81f171bcc55a6ff8345e692c0f86e5b48e01b996cadc001622fb5e363b421",
            "stateRoot" : "0x6e5ed0e80bd601a7d31c4d7b51dcd14e12ff75db60d98f2861b5f39eb6b50365",
            "timestamp" : "0x0",
            "transactionsTrie" : "0x56e81f171bcc55a6ff8345e692c0f86e5b48e01b996cadc001622fb5e363b421",
            "uncleHash" : "0x1dcc4de8dec75d7aab85b567b6ccd41ad312451b948a7413f0a142fd40d49347"
        },
        "pre" : {
            "0xa94f5374fce5edbc8e2a8697c15331677e6ebf0b" : {
                "balance" : "0xe8d4a51000",
                "code" : "0x",
                "nonce" : "0x00",
                "storage" : {
                }
            },
            "0xc94f5374fce5edbc8e2a8697c15331677e6ebf0b" : {
                "balance" : "0x00",
                "code" : "0x600c60015500",
                "nonce" : "0x00",
                "storage" : {
                }
            },
            "0xd94f5374fce5edbc8e2a8697c15331677e6ebf0b" : {
                "balance" : "0x00",
                "code" : "0x600c60015500",
                "nonce" : "0x00",
                "storage" : {
                }
            }
        },
        "postState" : {
            "0xa94f5374fce5edbc8e2a8697c15331677e6ebf0b" : {
                "code" : "0x",
                "nonce" : "0x01",
                "balance" : "0xe8d4a43326",
                "storage" : {
                }
            },
            "0xd94f5374fce5edbc8e2a8697c15331677e6ebf0b" : {
                "code" : "0x600c60015500",
                "nonce" : "0x00",
                "balance" : "0x0a",
                "storage" : {
                }
            },
            "0xc94f5374fce5edbc8e2a8697c15331677e6ebf0b" : {
                "code" : "0x600c60015500",
                "nonce" : "0x00",
                "balance" : "0x00",
                "storage" : {
                    "0x01" : "0x0c"
                }
            },
            "0x2adc25665018aa1fe0e6bc666dac8fc2697ff9ba" : {
                "code" : "0x",
                "nonce" : "0x00",
                "balance" : "0x1bc16d674ec8dcd0",
                "storage" : {
                }
            }
        },
        "network" : "Istanbul",
        "sealEngine" : "NoProof",
        "lastblockhash" : "0x1296ce1ca3f7c9ec317d6c4d05e183d16a92d671127434c34e2b2a109d4ef5c8",
        "genesisRLP" : "0xf901f8f901f3a00000000000000000000000000000000000000000000000000000000000000000a01dcc4de8dec75d7aab85b567b6ccd41ad312451b948a7413f0a142fd40d49347942adc25665018aa1fe0e6bc666dac8fc2697ff9baa06e5ed0e80bd601a7d31c4d7b51dcd14e12ff75db60d98f2861b5f39eb6b50365a056e81f171bcc55a6ff8345e692c0f86e5b48e01b996cadc001622fb5e363b421a056e81f171bcc55a6ff8345e692c0f86e5b48e01b996cadc001622fb5e363b421b9010000000000000000000000000000000000000000000000000000000000000000000000000000000000000000000000000000000000000000000000000000000000000000000000000000000000000000000000000000000000000000000000000000000000000000000000000000000000000000000000000000000000000000000000000000000000000000000000000000000000000000000000000000000000000000000000000000000000000000000000000000000000000000000000000000000000000000000000000000000000000000000000000000000000000000000000000000000000000000000000000000000000000000000000000000000000830200008083989680808000a00000000000000000000000000000000000000000000000000000000000000000880000000000000000c0c0",
        "blocks" : [
            {
                "rlp" : "0xf902c6f901f7a0fb74e8bda660854109b90b2f4c202b03480c2b40d40e76b79a1219799bb8b4b6a01dcc4de8dec75d7aab85b567b6ccd41ad312451b948a7413f0a142fd40d49347942adc25665018aa1fe0e6bc666dac8fc2697ff9baa0c05c7ad22d065554aad6fc92382364a01404a543b73295ec1ddf1af88858cc85a00c2861c7c773367058155fd48db84f221aa6019726912e2cf21d2958bd6636bea0ff55374a4c8cf4b3c0ef4082763d345011347a759a0a831664841cd423578baab901000000000000000000000000000000000000000000000000000000000000000000000000000000000000000000000000000000000000000000000000000000000000000000000000000000000000000000000000000000000000000000000000000000000000000000000000000000000000000000000000000000000000000000000000000000000000000000000000000000000000000000000000000000000000000000000000000000000000000000000000000000000000000000000000000000000000000000000000000000000000000000000000000000000000000000000000000000000000000000000000000000000000000000000000000000000083020000018398bca482dcd08203e800a00000000000000000000000000000000000000000000000000000000000000000880000000000000000f8c9f8c78001830927c0800ab87a6000600060006000600073c94f5374fce5edbc8e2a8697c15331677e6ebf0b61ea60f1506d64600c6000556000526005601bf360005273d94f5374fce5edbc8e2a8697c15331677e6ebf0bff6000600060006000600073d94f5374fce5edbc8e2a8697c15331677e6ebf0b61ea60f150600b600055600e6012f31ca054ca77a931f3b3592a33cc63442109a96241e2800362bd35628bd33e8442616fa0097b0eb289b78a9e8f96cc29ec18e79785f4ba70c62b2443208714429d5bba9bc0",
                "blockHeader" : {
                    "bloom" : "0x00000000000000000000000000000000000000000000000000000000000000000000000000000000000000000000000000000000000000000000000000000000000000000000000000000000000000000000000000000000000000000000000000000000000000000000000000000000000000000000000000000000000000000000000000000000000000000000000000000000000000000000000000000000000000000000000000000000000000000000000000000000000000000000000000000000000000000000000000000000000000000000000000000000000000000000000000000000000000000000000000000000000000000000000000000000",
                    "coinbase" : "0x2adc25665018aa1fe0e6bc666dac8fc2697ff9ba",
                    "difficulty" : "0x20000",
                    "extraData" : "0x00",
                    "gasLimit" : "0x98bca4",
                    "gasUsed" : "0xdcd0",
                    "hash" : "0x1296ce1ca3f7c9ec317d6c4d05e183d16a92d671127434c34e2b2a109d4ef5c8",
                    "mixHash" : "0x0000000000000000000000000000000000000000000000000000000000000000",
                    "nonce" : "0x0000000000000000",
                    "number" : "0x1",
                    "parentHash" : "0xfb74e8bda660854109b90b2f4c202b03480c2b40d40e76b79a1219799bb8b4b6",
                    "receiptTrie" : "0xff55374a4c8cf4b3c0ef4082763d345011347a759a0a831664841cd423578baa",
                    "stateRoot" : "0xc05c7ad22d065554aad6fc92382364a01404a543b73295ec1ddf1af88858cc85",
                    "timestamp" : "0x3e8",
                    "transactionsTrie" : "0x0c2861c7c773367058155fd48db84f221aa6019726912e2cf21d2958bd6636be",
                    "uncleHash" : "0x1dcc4de8dec75d7aab85b567b6ccd41ad312451b948a7413f0a142fd40d49347"
                },
                "transactions" : [
                    {
                        "data" : "0x6000600060006000600073c94f5374fce5edbc8e2a8697c15331677e6ebf0b61ea60f1506d64600c6000556000526005601bf360005273d94f5374fce5edbc8e2a8697c15331677e6ebf0bff6000600060006000600073d94f5374fce5edbc8e2a8697c15331677e6ebf0b61ea60f150600b600055600e6012f3",
                        "gasLimit" : "0x0927c0",
                        "gasPrice" : "0x01",
                        "nonce" : "0x00",
                        "to" : "",
                        "value" : "0x0a",
                        "v" : "0x1c",
                        "r" : "0x54ca77a931f3b3592a33cc63442109a96241e2800362bd35628bd33e8442616f",
                        "s" : "0x097b0eb289b78a9e8f96cc29ec18e79785f4ba70c62b2443208714429d5bba9b"
                    }
                ]
            }
        ]
    }
}