{
    "CREATE_AcreateB_BSuicide_BStore_d0g0v0_Istanbul" : {
        "_info" : {
            "comment" : "",
            "filling-rpc-server" : "Geth-1.9.6-unstable-63b18027-20190920",
            "filling-tool-version" : "retesteth-0.0.1+commit.0ae18aef.Linux.g++",
            "lllcversion" : "Version: 0.5.12-develop.2019.9.13+commit.2d601a4f.Linux.g++",
            "source" : "src/GeneralStateTestsFiller/stCreateTest/CREATE_AcreateB_BSuicide_BStoreFiller.json",
            "sourceHash" : "b419aa1c92758dfdeb1220432bc813c1a88eaa5c7af42f670bc5f4c91285e0c4"
        },
        "genesisBlockHeader" : {
            "bloom" : "0x00000000000000000000000000000000000000000000000000000000000000000000000000000000000000000000000000000000000000000000000000000000000000000000000000000000000000000000000000000000000000000000000000000000000000000000000000000000000000000000000000000000000000000000000000000000000000000000000000000000000000000000000000000000000000000000000000000000000000000000000000000000000000000000000000000000000000000000000000000000000000000000000000000000000000000000000000000000000000000000000000000000000000000000000000000000",
            "coinbase" : "0x2adc25665018aa1fe0e6bc666dac8fc2697ff9ba",
            "difficulty" : "0x20000",
            "extraData" : "0x00",
            "gasLimit" : "0x989680",
            "gasUsed" : "0x0",
            "hash" : "0x56726b111ee0a651af50ad552eb9418711209144871ee745ded651909878d49b",
            "mixHash" : "0x0000000000000000000000000000000000000000000000000000000000000000",
            "nonce" : "0x0000000000000000",
            "number" : "0x0",
            "parentHash" : "0x0000000000000000000000000000000000000000000000000000000000000000",
            "receiptTrie" : "0x56e81f171bcc55a6ff8345e692c0f86e5b48e01b996cadc001622fb5e363b421",
            "stateRoot" : "0x16a9e12ff192097b3be5177731211aaa10145474731be2f109806ca5ee8debe1",
            "timestamp" : "0x0",
            "transactionsTrie" : "0x56e81f171bcc55a6ff8345e692c0f86e5b48e01b996cadc001622fb5e363b421",
            "uncleHash" : "0x1dcc4de8dec75d7aab85b567b6ccd41ad312451b948a7413f0a142fd40d49347"
        },
        "pre" : {
            "0x1000000000000000000000000000000000000000" : {
                "balance" : "0x01",
                "code" : "0x",
                "nonce" : "0x00",
                "storage" : {
                }
            },
            "0xa94f5374fce5edbc8e2a8697c15331677e6ebf0b" : {
                "balance" : "0xe8d4a51000",
                "code" : "0x",
                "nonce" : "0x00",
                "storage" : {
                }
            },
            "0xb94f5374fce5edbc8e2a8697c15331677e6ebf0b" : {
                "balance" : "0xe8d4a51000",
                "code" : "0x60606040526000357c010000000000000000000000000000000000000000000000000000000090048063c04062261461003c57610037565b610002565b346100025761004e6004805050610050565b005b600060405160c9806101d3833901809050604051809103906000f080156100025790508073ffffffffffffffffffffffffffffffffffffffff166369bda7aa604051817c0100000000000000000000000000000000000000000000000000000000028152600401809050600060405180830381600087803b156100025760325a03f115610002575050508073ffffffffffffffffffffffffffffffffffffffff16633ac6dff3604051817c0100000000000000000000000000000000000000000000000000000000028152600401809050600060405180830381600087803b156100025760325a03f115610002575050508073ffffffffffffffffffffffffffffffffffffffff16636f118b2b600060405160200152604051817c0100000000000000000000000000000000000000000000000000000000028152600401809050602060405180830381600087803b156100025760325a03f115610002575050506040518051906020015060016000508190555060016000600050819055505b5056606060405260b98060106000396000f360606040526000357c0100000000000000000000000000000000000000000000000000000000900480633ac6dff314604d57806369bda7aa14605e5780636f118b2b14606f576049565b6002565b34600257605c60048050506094565b005b34600257606d600480505060a2565b005b34600257607e600480505060a8565b6040518082815260200191505060405180910390f35b600c6000600050819055505b565b6011ff5b565b6000600060005054905060b6565b9056",
                "nonce" : "0x00",
                "storage" : {
                }
            }
        },
        "postState" : {
            "0xa94f5374fce5edbc8e2a8697c15331677e6ebf0b" : {
                "code" : "0x",
                "nonce" : "0x01",
                "balance" : "0xe8d4a2f7b2",
                "storage" : {
                }
            },
            "0x2adc25665018aa1fe0e6bc666dac8fc2697ff9ba" : {
                "code" : "0x",
                "nonce" : "0x00",
                "balance" : "0x1bc16d674eca184e",
                "storage" : {
                }
            },
            "0xb94f5374fce5edbc8e2a8697c15331677e6ebf0b" : {
                "code" : "0x60606040526000357c010000000000000000000000000000000000000000000000000000000090048063c04062261461003c57610037565b610002565b346100025761004e6004805050610050565b005b600060405160c9806101d3833901809050604051809103906000f080156100025790508073ffffffffffffffffffffffffffffffffffffffff166369bda7aa604051817c0100000000000000000000000000000000000000000000000000000000028152600401809050600060405180830381600087803b156100025760325a03f115610002575050508073ffffffffffffffffffffffffffffffffffffffff16633ac6dff3604051817c0100000000000000000000000000000000000000000000000000000000028152600401809050600060405180830381600087803b156100025760325a03f115610002575050508073ffffffffffffffffffffffffffffffffffffffff16636f118b2b600060405160200152604051817c0100000000000000000000000000000000000000000000000000000000028152600401809050602060405180830381600087803b156100025760325a03f115610002575050506040518051906020015060016000508190555060016000600050819055505b5056606060405260b98060106000396000f360606040526000357c0100000000000000000000000000000000000000000000000000000000900480633ac6dff314604d57806369bda7aa14605e5780636f118b2b14606f576049565b6002565b34600257605c60048050506094565b005b34600257606d600480505060a2565b005b34600257607e600480505060a8565b6040518082815260200191505060405180910390f35b600c6000600050819055505b565b6011ff5b565b6000600060005054905060b6565b9056",
                "nonce" : "0x01",
                "balance" : "0xe8d4a51000",
                "storage" : {
                    "0x00" : "0x01",
                    "0x01" : "0x0c"
                }
            },
            "0x1000000000000000000000000000000000000000" : {
                "code" : "0x",
                "nonce" : "0x00",
                "balance" : "0x01",
                "storage" : {
                }
            }
        },
        "network" : "Istanbul",
        "sealEngine" : "NoProof",
        "lastblockhash" : "0x379b02a3e23b91c3749c908fa381a98875bb44230ef955ae4a0566499645cd1d",
        "genesisRLP" : "0xf901f8f901f3a00000000000000000000000000000000000000000000000000000000000000000a01dcc4de8dec75d7aab85b567b6ccd41ad312451b948a7413f0a142fd40d49347942adc25665018aa1fe0e6bc666dac8fc2697ff9baa016a9e12ff192097b3be5177731211aaa10145474731be2f109806ca5ee8debe1a056e81f171bcc55a6ff8345e692c0f86e5b48e01b996cadc001622fb5e363b421a056e81f171bcc55a6ff8345e692c0f86e5b48e01b996cadc001622fb5e363b421b9010000000000000000000000000000000000000000000000000000000000000000000000000000000000000000000000000000000000000000000000000000000000000000000000000000000000000000000000000000000000000000000000000000000000000000000000000000000000000000000000000000000000000000000000000000000000000000000000000000000000000000000000000000000000000000000000000000000000000000000000000000000000000000000000000000000000000000000000000000000000000000000000000000000000000000000000000000000000000000000000000000000000000000000000000000000000830200008083989680808000a00000000000000000000000000000000000000000000000000000000000000000880000000000000000c0c0",
        "blocks" : [
            {
                "rlp" : "0xf90264f901f8a056726b111ee0a651af50ad552eb9418711209144871ee745ded651909878d49ba01dcc4de8dec75d7aab85b567b6ccd41ad312451b948a7413f0a142fd40d49347942adc25665018aa1fe0e6bc666dac8fc2697ff9baa031ffc90b1a64d120a2b54ffe26820b057245e63b9e1c5a23c41f8cfb3c2cdabca081ad0f293bbbdad8b96a977a265021ce8eb0c23ff57f1011eb70212eadb41431a064992ebd53e980c2120190d90cccfb45d8133bd38162753f4ac2b08ac78b32f7b901000000000000000000000000000000000000000000000000000000000000000000000000000000000000000000000000000000000000000000000000000000000000000000000000000000000000000000000000000000000000000000000000000000000000000000000000000000000000000000000000000000000000000000000000000000000000000000000000000000000000000000000000000000000000000000000000000000000000000000000000000000000000000000000000000000000000000000000000000000000000000000000000000000000000000000000000000000000000000000000000000000000000000000000000000000000083020000018398bca48302184e8203e800a00000000000000000000000000000000000000000000000000000000000000000880000000000000000f866f8648001830927c094b94f5374fce5edbc8e2a8697c15331677e6ebf0b8084c04062261ba0d4381c6e085035a8798ee92e57777582ba84c7e7ffd58cab345538b4d8165664a0475c18fa38480718a0b67621fb2323ee64ed7a0e3cecf5f5581f569ab00ba41ec0",
                "blockHeader" : {
                    "bloom" : "0x00000000000000000000000000000000000000000000000000000000000000000000000000000000000000000000000000000000000000000000000000000000000000000000000000000000000000000000000000000000000000000000000000000000000000000000000000000000000000000000000000000000000000000000000000000000000000000000000000000000000000000000000000000000000000000000000000000000000000000000000000000000000000000000000000000000000000000000000000000000000000000000000000000000000000000000000000000000000000000000000000000000000000000000000000000000",
                    "coinbase" : "0x2adc25665018aa1fe0e6bc666dac8fc2697ff9ba",
                    "difficulty" : "0x20000",
                    "extraData" : "0x00",
                    "gasLimit" : "0x98bca4",
                    "gasUsed" : "0x2184e",
                    "hash" : "0x379b02a3e23b91c3749c908fa381a98875bb44230ef955ae4a0566499645cd1d",
                    "mixHash" : "0x0000000000000000000000000000000000000000000000000000000000000000",
                    "nonce" : "0x0000000000000000",
                    "number" : "0x1",
                    "parentHash" : "0x56726b111ee0a651af50ad552eb9418711209144871ee745ded651909878d49b",
                    "receiptTrie" : "0x64992ebd53e980c2120190d90cccfb45d8133bd38162753f4ac2b08ac78b32f7",
                    "stateRoot" : "0x31ffc90b1a64d120a2b54ffe26820b057245e63b9e1c5a23c41f8cfb3c2cdabc",
                    "timestamp" : "0x3e8",
                    "transactionsTrie" : "0x81ad0f293bbbdad8b96a977a265021ce8eb0c23ff57f1011eb70212eadb41431",
                    "uncleHash" : "0x1dcc4de8dec75d7aab85b567b6ccd41ad312451b948a7413f0a142fd40d49347"
                },
                "transactions" : [
                    {
                        "data" : "0xc0406226",
                        "gasLimit" : "0x0927c0",
                        "gasPrice" : "0x01",
                        "nonce" : "0x00",
                        "to" : "0xb94f5374fce5edbc8e2a8697c15331677e6ebf0b",
                        "value" : "0x00",
                        "v" : "0x1b",
                        "r" : "0xd4381c6e085035a8798ee92e57777582ba84c7e7ffd58cab345538b4d8165664",
                        "s" : "0x475c18fa38480718a0b67621fb2323ee64ed7a0e3cecf5f5581f569ab00ba41e"
                    }
                ]
            }
        ]
    }
}