{
    "CREATE_ContractSuicideDuringInit_d0g0v0_Istanbul" : {
        "_info" : {
            "comment" : "",
            "filling-rpc-server" : "Geth-1.9.6-unstable-63b18027-20190920",
            "filling-tool-version" : "retesteth-0.0.1+commit.0ae18aef.Linux.g++",
            "lllcversion" : "Version: 0.5.12-develop.2019.9.13+commit.2d601a4f.Linux.g++",
            "source" : "src/GeneralStateTestsFiller/stCreateTest/CREATE_ContractSuicideDuringInitFiller.json",
            "sourceHash" : "dcff70a0828dd75cc85c5e0a3b4e6ecf509a32014fa777c529bf2950c5212ad2"
        },
        "genesisBlockHeader" : {
            "bloom" : "0x00000000000000000000000000000000000000000000000000000000000000000000000000000000000000000000000000000000000000000000000000000000000000000000000000000000000000000000000000000000000000000000000000000000000000000000000000000000000000000000000000000000000000000000000000000000000000000000000000000000000000000000000000000000000000000000000000000000000000000000000000000000000000000000000000000000000000000000000000000000000000000000000000000000000000000000000000000000000000000000000000000000000000000000000000000000",
            "coinbase" : "0x2adc25665018aa1fe0e6bc666dac8fc2697ff9ba",
            "difficulty" : "0x20000",
            "extraData" : "0x00",
            "gasLimit" : "0x989680",
            "gasUsed" : "0x0",
            "hash" : "0x2942fd00ae676027af36c3f8ef928fe1f4c128b8f4a012137716708f50adf521",
            "mixHash" : "0x0000000000000000000000000000000000000000000000000000000000000000",
            "nonce" : "0x0000000000000000",
            "number" : "0x0",
            "parentHash" : "0x0000000000000000000000000000000000000000000000000000000000000000",
            "receiptTrie" : "0x56e81f171bcc55a6ff8345e692c0f86e5b48e01b996cadc001622fb5e363b421",
            "stateRoot" : "0xeb086f0f3ad036409f66653afa393b638043c9daeb8d8458bdf6ae804948cf11",
            "timestamp" : "0x0",
            "transactionsTrie" : "0x56e81f171bcc55a6ff8345e692c0f86e5b48e01b996cadc001622fb5e363b421",
            "uncleHash" : "0x1dcc4de8dec75d7aab85b567b6ccd41ad312451b948a7413f0a142fd40d49347"
        },
        "pre" : {
            "0xa94f5374fce5edbc8e2a8697c15331677e6ebf0b" : {
                "balance" : "0xe8d4a51000",
                "code" : "0x",
                "nonce" : "0x00",
                "storage" : {
                }
            },
            "0xc94f5374fce5edbc8e2a8697c15331677e6ebf0b" : {
                "balance" : "0x00",
                "code" : "0x600c60015500",
                "nonce" : "0x00",
                "storage" : {
                }
            }
        },
        "postState" : {
            "0xa94f5374fce5edbc8e2a8697c15331677e6ebf0b" : {
                "code" : "0x",
                "nonce" : "0x01",
                "balance" : "0xe8d4a435c8",
                "storage" : {
                }
            },
            "0xc94f5374fce5edbc8e2a8697c15331677e6ebf0b" : {
                "code" : "0x600c60015500",
                "nonce" : "0x00",
                "balance" : "0x00",
                "storage" : {
                    "0x01" : "0x0c"
                }
            },
            "0x2adc25665018aa1fe0e6bc666dac8fc2697ff9ba" : {
                "code" : "0x",
                "nonce" : "0x00",
                "balance" : "0x1bc16d674ec8da38",
                "storage" : {
                }
            }
        },
        "network" : "Istanbul",
        "sealEngine" : "NoProof",
        "lastblockhash" : "0x16b5b852521d3ece076079d6d957eb6d09097dc6cf02b2ebb07e4f7d5f39a960",
        "genesisRLP" : "0xf901f8f901f3a00000000000000000000000000000000000000000000000000000000000000000a01dcc4de8dec75d7aab85b567b6ccd41ad312451b948a7413f0a142fd40d49347942adc25665018aa1fe0e6bc666dac8fc2697ff9baa0eb086f0f3ad036409f66653afa393b638043c9daeb8d8458bdf6ae804948cf11a056e81f171bcc55a6ff8345e692c0f86e5b48e01b996cadc001622fb5e363b421a056e81f171bcc55a6ff8345e692c0f86e5b48e01b996cadc001622fb5e363b421b9010000000000000000000000000000000000000000000000000000000000000000000000000000000000000000000000000000000000000000000000000000000000000000000000000000000000000000000000000000000000000000000000000000000000000000000000000000000000000000000000000000000000000000000000000000000000000000000000000000000000000000000000000000000000000000000000000000000000000000000000000000000000000000000000000000000000000000000000000000000000000000000000000000000000000000000000000000000000000000000000000000000000000000000000000000000000830200008083989680808000a00000000000000000000000000000000000000000000000000000000000000000880000000000000000c0c0",
        "blocks" : [
            {
                "rlp" : "0xf90297f901f7a02942fd00ae676027af36c3f8ef928fe1f4c128b8f4a012137716708f50adf521a01dcc4de8dec75d7aab85b567b6ccd41ad312451b948a7413f0a142fd40d49347942adc25665018aa1fe0e6bc666dac8fc2697ff9baa0c8bde5359261883443eb69ad2be9ae22084ae4249594927ec33ef054a79e7ebea030ff81e54324ce771265cf38d5fc3421d2d990613e4f69a4d566b345051e6beba07620ca41b2d05fb18139a98833cc4c39eed50215b2325a80a1d5740d3e19ba6bb901000000000000000000000000000000000000000000000000000000000000000000000000000000000000000000000000000000000000000000000000000000000000000000000000000000000000000000000000000000000000000000000000000000000000000000000000000000000000000000000000000000000000000000000000000000000000000000000000000000000000000000000000000000000000000000000000000000000000000000000000000000000000000000000000000000000000000000000000000000000000000000000000000000000000000000000000000000000000000000000000000000000000000000000000000000000083020000018398bca482da388203e800a00000000000000000000000000000000000000000000000000000000000000000880000000000000000f89af8988001830249f08080b84c6000600060006000600073c94f5374fce5edbc8e2a8697c15331677e6ebf0b61ea60f1506d64600c6000556000526005601bf360005273c94f5374fce5edbc8e2a8697c15331677e6ebf0bff1c9f98d0ca334067d304753b0b0878fcb6ad6645b920ec3a7917b00873ddc41b78a02c1af56035a8cebff67a179f68ecc296bd767edfd4bae89d624fdf79bfcf8a6cc0",
                "blockHeader" : {
                    "bloom" : "0x00000000000000000000000000000000000000000000000000000000000000000000000000000000000000000000000000000000000000000000000000000000000000000000000000000000000000000000000000000000000000000000000000000000000000000000000000000000000000000000000000000000000000000000000000000000000000000000000000000000000000000000000000000000000000000000000000000000000000000000000000000000000000000000000000000000000000000000000000000000000000000000000000000000000000000000000000000000000000000000000000000000000000000000000000000000",
                    "coinbase" : "0x2adc25665018aa1fe0e6bc666dac8fc2697ff9ba",
                    "difficulty" : "0x20000",
                    "extraData" : "0x00",
                    "gasLimit" : "0x98bca4",
                    "gasUsed" : "0xda38",
                    "hash" : "0x16b5b852521d3ece076079d6d957eb6d09097dc6cf02b2ebb07e4f7d5f39a960",
                    "mixHash" : "0x0000000000000000000000000000000000000000000000000000000000000000",
                    "nonce" : "0x0000000000000000",
                    "number" : "0x1",
                    "parentHash" : "0x2942fd00ae676027af36c3f8ef928fe1f4c128b8f4a012137716708f50adf521",
                    "receiptTrie" : "0x7620ca41b2d05fb18139a98833cc4c39eed50215b2325a80a1d5740d3e19ba6b",
                    "stateRoot" : "0xc8bde5359261883443eb69ad2be9ae22084ae4249594927ec33ef054a79e7ebe",
                    "timestamp" : "0x3e8",
                    "transactionsTrie" : "0x30ff81e54324ce771265cf38d5fc3421d2d990613e4f69a4d566b345051e6beb",
                    "uncleHash" : "0x1dcc4de8dec75d7aab85b567b6ccd41ad312451b948a7413f0a142fd40d49347"
                },
                "transactions" : [
                    {
                        "data" : "0x6000600060006000600073c94f5374fce5edbc8e2a8697c15331677e6ebf0b61ea60f1506d64600c6000556000526005601bf360005273c94f5374fce5edbc8e2a8697c15331677e6ebf0bff",
                        "gasLimit" : "0x0249f0",
                        "gasPrice" : "0x01",
                        "nonce" : "0x00",
                        "to" : "",
                        "value" : "0x00",
                        "v" : "0x1c",
                        "r" : "0x0098d0ca334067d304753b0b0878fcb6ad6645b920ec3a7917b00873ddc41b78",
                        "s" : "0x2c1af56035a8cebff67a179f68ecc296bd767edfd4bae89d624fdf79bfcf8a6c"
                    }
                ]
            }
        ]
    }
}