{
    "CREATE_EmptyContractWithBalance_d0g0v0_Istanbul" : {
        "_info" : {
            "comment" : "",
            "filling-rpc-server" : "Geth-1.9.6-unstable-63b18027-20190920",
            "filling-tool-version" : "retesteth-0.0.1+commit.0ae18aef.Linux.g++",
            "lllcversion" : "Version: 0.5.12-develop.2019.9.13+commit.2d601a4f.Linux.g++",
            "source" : "src/GeneralStateTestsFiller/stCreateTest/CREATE_EmptyContractWithBalanceFiller.json",
            "sourceHash" : "4b51764efdc90986f1c0090b38a34ed17024901f242c280b8bd456db17082400"
        },
        "genesisBlockHeader" : {
            "bloom" : "0x00000000000000000000000000000000000000000000000000000000000000000000000000000000000000000000000000000000000000000000000000000000000000000000000000000000000000000000000000000000000000000000000000000000000000000000000000000000000000000000000000000000000000000000000000000000000000000000000000000000000000000000000000000000000000000000000000000000000000000000000000000000000000000000000000000000000000000000000000000000000000000000000000000000000000000000000000000000000000000000000000000000000000000000000000000000",
            "coinbase" : "0x2adc25665018aa1fe0e6bc666dac8fc2697ff9ba",
            "difficulty" : "0x20000",
            "extraData" : "0x00",
            "gasLimit" : "0x989680",
            "gasUsed" : "0x0",
            "hash" : "0xd637a5fbbe51cfd36d2c433f799b21232cd9b4c22d15eb1c806a64f7ad58a78d",
            "mixHash" : "0x0000000000000000000000000000000000000000000000000000000000000000",
            "nonce" : "0x0000000000000000",
            "number" : "0x0",
            "parentHash" : "0x0000000000000000000000000000000000000000000000000000000000000000",
            "receiptTrie" : "0x56e81f171bcc55a6ff8345e692c0f86e5b48e01b996cadc001622fb5e363b421",
            "stateRoot" : "0x8e76bf3218d9866c3bfd07ab1d44fc065ff59533f4317133c9159597d91daac1",
            "timestamp" : "0x0",
            "transactionsTrie" : "0x56e81f171bcc55a6ff8345e692c0f86e5b48e01b996cadc001622fb5e363b421",
            "uncleHash" : "0x1dcc4de8dec75d7aab85b567b6ccd41ad312451b948a7413f0a142fd40d49347"
        },
        "pre" : {
            "0xa94f5374fce5edbc8e2a8697c15331677e6ebf0b" : {
                "balance" : "0xe8d4a51000",
                "code" : "0x",
                "nonce" : "0x00",
                "storage" : {
                }
            },
            "0xb94f5374fce5edbc8e2a8697c15331677e6ebf0b" : {
                "balance" : "0x01",
                "code" : "0x5a600055602060006001f06001555a60645500",
                "nonce" : "0x00",
                "storage" : {
                }
            }
        },
        "postState" : {
            "0xa94f5374fce5edbc8e2a8697c15331677e6ebf0b" : {
                "code" : "0x",
                "nonce" : "0x01",
                "balance" : "0xe8d4a3567f",
                "storage" : {
                }
            },
            "0x2adc25665018aa1fe0e6bc666dac8fc2697ff9ba" : {
                "code" : "0x",
                "nonce" : "0x00",
                "balance" : "0x1bc16d674ec9b981",
                "storage" : {
                }
            },
            "0xf1ecf98489fa9ed60a664fc4998db699cfa39d40" : {
                "code" : "0x",
                "nonce" : "0x01",
                "balance" : "0x01",
                "storage" : {
                }
            },
            "0xb94f5374fce5edbc8e2a8697c15331677e6ebf0b" : {
                "code" : "0x5a600055602060006001f06001555a60645500",
                "nonce" : "0x01",
                "balance" : "0x00",
                "storage" : {
                    "0x64" : "0x07bc62",
                    "0x00" : "0x08d5b6",
                    "0x01" : "0xf1ecf98489fa9ed60a664fc4998db699cfa39d40"
                }
            }
        },
        "network" : "Istanbul",
        "sealEngine" : "NoProof",
        "lastblockhash" : "0x0080f02b17e7573dad06d1641501c517099f7e6538340b20ca51b1592101ecab",
        "genesisRLP" : "0xf901f8f901f3a00000000000000000000000000000000000000000000000000000000000000000a01dcc4de8dec75d7aab85b567b6ccd41ad312451b948a7413f0a142fd40d49347942adc25665018aa1fe0e6bc666dac8fc2697ff9baa08e76bf3218d9866c3bfd07ab1d44fc065ff59533f4317133c9159597d91daac1a056e81f171bcc55a6ff8345e692c0f86e5b48e01b996cadc001622fb5e363b421a056e81f171bcc55a6ff8345e692c0f86e5b48e01b996cadc001622fb5e363b421b9010000000000000000000000000000000000000000000000000000000000000000000000000000000000000000000000000000000000000000000000000000000000000000000000000000000000000000000000000000000000000000000000000000000000000000000000000000000000000000000000000000000000000000000000000000000000000000000000000000000000000000000000000000000000000000000000000000000000000000000000000000000000000000000000000000000000000000000000000000000000000000000000000000000000000000000000000000000000000000000000000000000000000000000000000000000000830200008083989680808000a00000000000000000000000000000000000000000000000000000000000000000880000000000000000c0c0",
        "blocks" : [
            {
                "rlp" : "0xf90260f901f8a0d637a5fbbe51cfd36d2c433f799b21232cd9b4c22d15eb1c806a64f7ad58a78da01dcc4de8dec75d7aab85b567b6ccd41ad312451b948a7413f0a142fd40d49347942adc25665018aa1fe0e6bc666dac8fc2697ff9baa0ad657eb3036476863ff7840060576a4cb3a43ed9e8d3200ab4e5f81717e234caa059652e5662eb625efd106d67b9b25d3c12a15e69494d1d24f59d867c211f6761a0d4d2482dccff0f84f939ea5d3db0279bc78c8dfca6665752719017040184abe0b901000000000000000000000000000000000000000000000000000000000000000000000000000000000000000000000000000000000000000000000000000000000000000000000000000000000000000000000000000000000000000000000000000000000000000000000000000000000000000000000000000000000000000000000000000000000000000000000000000000000000000000000000000000000000000000000000000000000000000000000000000000000000000000000000000000000000000000000000000000000000000000000000000000000000000000000000000000000000000000000000000000000000000000000000000000000083020000018398bca48301b9818203e800a00000000000000000000000000000000000000000000000000000000000000000880000000000000000f862f8608001830927c094b94f5374fce5edbc8e2a8697c15331677e6ebf0b80801ba08d0699f23d032b86db35ed7bb39c2357bec870fbfbe7db30b1795d320d8965c6a002f578fd949e84f0dc1307f5dd714c9a7158b31891d43f45459edcb52e345f7cc0",
                "blockHeader" : {
                    "bloom" : "0x00000000000000000000000000000000000000000000000000000000000000000000000000000000000000000000000000000000000000000000000000000000000000000000000000000000000000000000000000000000000000000000000000000000000000000000000000000000000000000000000000000000000000000000000000000000000000000000000000000000000000000000000000000000000000000000000000000000000000000000000000000000000000000000000000000000000000000000000000000000000000000000000000000000000000000000000000000000000000000000000000000000000000000000000000000000",
                    "coinbase" : "0x2adc25665018aa1fe0e6bc666dac8fc2697ff9ba",
                    "difficulty" : "0x20000",
                    "extraData" : "0x00",
                    "gasLimit" : "0x98bca4",
                    "gasUsed" : "0x1b981",
                    "hash" : "0x0080f02b17e7573dad06d1641501c517099f7e6538340b20ca51b1592101ecab",
                    "mixHash" : "0x0000000000000000000000000000000000000000000000000000000000000000",
                    "nonce" : "0x0000000000000000",
                    "number" : "0x1",
                    "parentHash" : "0xd637a5fbbe51cfd36d2c433f799b21232cd9b4c22d15eb1c806a64f7ad58a78d",
                    "receiptTrie" : "0xd4d2482dccff0f84f939ea5d3db0279bc78c8dfca6665752719017040184abe0",
                    "stateRoot" : "0xad657eb3036476863ff7840060576a4cb3a43ed9e8d3200ab4e5f81717e234ca",
                    "timestamp" : "0x3e8",
                    "transactionsTrie" : "0x59652e5662eb625efd106d67b9b25d3c12a15e69494d1d24f59d867c211f6761",
                    "uncleHash" : "0x1dcc4de8dec75d7aab85b567b6ccd41ad312451b948a7413f0a142fd40d49347"
                },
                "transactions" : [
                    {
                        "data" : "0x",
                        "gasLimit" : "0x0927c0",
                        "gasPrice" : "0x01",
                        "nonce" : "0x00",
                        "to" : "0xb94f5374fce5edbc8e2a8697c15331677e6ebf0b",
                        "value" : "0x00",
                        "v" : "0x1b",
                        "r" : "0x8d0699f23d032b86db35ed7bb39c2357bec870fbfbe7db30b1795d320d8965c6",
                        "s" : "0x02f578fd949e84f0dc1307f5dd714c9a7158b31891d43f45459edcb52e345f7c"
                    }
                ]
            }
        ]
    }
}