{
    "CreateOOGafterInitCodeReturndata2_d0g0v0_Istanbul" : {
        "_info" : {
            "comment" : "Call RETURNDATASIZE and RETURNDATACOPY after CREATE deploy a contract. correct returndata copy.",
            "filling-rpc-server" : "Geth-1.9.6-unstable-63b18027-20190920",
            "filling-tool-version" : "retesteth-0.0.1+commit.0ae18aef.Linux.g++",
            "lllcversion" : "Version: 0.5.12-develop.2019.9.13+commit.2d601a4f.Linux.g++",
            "source" : "src/GeneralStateTestsFiller/stCreateTest/CreateOOGafterInitCodeReturndata2Filler.json",
            "sourceHash" : "1a742f6757ae15ece0dbbddad9aae018bde492cd89ec41308de033687a62e3f4"
        },
        "genesisBlockHeader" : {
            "bloom" : "0x00000000000000000000000000000000000000000000000000000000000000000000000000000000000000000000000000000000000000000000000000000000000000000000000000000000000000000000000000000000000000000000000000000000000000000000000000000000000000000000000000000000000000000000000000000000000000000000000000000000000000000000000000000000000000000000000000000000000000000000000000000000000000000000000000000000000000000000000000000000000000000000000000000000000000000000000000000000000000000000000000000000000000000000000000000000",
            "coinbase" : "0x2adc25665018aa1fe0e6bc666dac8fc2697ff9ba",
            "difficulty" : "0x20000",
            "extraData" : "0x00",
            "gasLimit" : "0x989680",
            "gasUsed" : "0x0",
            "hash" : "0xa830951c118da9c2f0273af0559889b7225c4d6767f8e47329f936a13f9531b7",
            "mixHash" : "0x0000000000000000000000000000000000000000000000000000000000000000",
            "nonce" : "0x0000000000000000",
            "number" : "0x0",
            "parentHash" : "0x0000000000000000000000000000000000000000000000000000000000000000",
            "receiptTrie" : "0x56e81f171bcc55a6ff8345e692c0f86e5b48e01b996cadc001622fb5e363b421",
            "stateRoot" : "0x66091d70c1afc87d53542587db4e515ba42313a694cfcf04e93de41c7c8aaa10",
            "timestamp" : "0x0",
            "transactionsTrie" : "0x56e81f171bcc55a6ff8345e692c0f86e5b48e01b996cadc001622fb5e363b421",
            "uncleHash" : "0x1dcc4de8dec75d7aab85b567b6ccd41ad312451b948a7413f0a142fd40d49347"
        },
        "pre" : {
            "0xa94f5374fce5edbc8e2a8697c15331677e6ebf0b" : {
                "balance" : "0xe8d4a51000",
                "code" : "0x",
                "nonce" : "0x00",
                "storage" : {
                }
            },
            "0xb94f5374fce5edbc8e2a8697c15331677e6ebf0b" : {
                "balance" : "0x00",
                "code" : "0x6d6460016001556000526005601bf3600052600e60126000f0503d6001556000600060003e60005160025500",
                "nonce" : "0x00",
                "storage" : {
                }
            }
        },
        "postState" : {
            "0xa94f5374fce5edbc8e2a8697c15331677e6ebf0b" : {
                "code" : "0x",
                "nonce" : "0x01",
                "balance" : "0xe8d4a43d10",
                "storage" : {
                }
            },
            "0x2adc25665018aa1fe0e6bc666dac8fc2697ff9ba" : {
                "code" : "0x",
                "nonce" : "0x00",
                "balance" : "0x1bc16d674ec8d2f0",
                "storage" : {
                }
            },
            "0xb94f5374fce5edbc8e2a8697c15331677e6ebf0b" : {
                "code" : "0x6d6460016001556000526005601bf3600052600e60126000f0503d6001556000600060003e60005160025500",
                "nonce" : "0x00",
                "balance" : "0x00",
                "storage" : {
                }
            }
        },
        "network" : "Istanbul",
        "sealEngine" : "NoProof",
        "lastblockhash" : "0xe590d01e37ae6a5c78b0e82808e168221211997eba9f230e8853e3ebb3c89977",
        "genesisRLP" : "0xf901f8f901f3a00000000000000000000000000000000000000000000000000000000000000000a01dcc4de8dec75d7aab85b567b6ccd41ad312451b948a7413f0a142fd40d49347942adc25665018aa1fe0e6bc666dac8fc2697ff9baa066091d70c1afc87d53542587db4e515ba42313a694cfcf04e93de41c7c8aaa10a056e81f171bcc55a6ff8345e692c0f86e5b48e01b996cadc001622fb5e363b421a056e81f171bcc55a6ff8345e692c0f86e5b48e01b996cadc001622fb5e363b421b9010000000000000000000000000000000000000000000000000000000000000000000000000000000000000000000000000000000000000000000000000000000000000000000000000000000000000000000000000000000000000000000000000000000000000000000000000000000000000000000000000000000000000000000000000000000000000000000000000000000000000000000000000000000000000000000000000000000000000000000000000000000000000000000000000000000000000000000000000000000000000000000000000000000000000000000000000000000000000000000000000000000000000000000000000000000000830200008083989680808000a00000000000000000000000000000000000000000000000000000000000000000880000000000000000c0c0",
        "blocks" : [
            {
                "rlp" : "0xf9025ef901f7a0a830951c118da9c2f0273af0559889b7225c4d6767f8e47329f936a13f9531b7a01dcc4de8dec75d7aab85b567b6ccd41ad312451b948a7413f0a142fd40d49347942adc25665018aa1fe0e6bc666dac8fc2697ff9baa0029000911b9af498e0a8f589547be8385662a4b66763203c59760701858f8160a0d1203c53b8c29493980e69a532ca755ba180085393bbfde48ba5c6ce648c08fca0a0012fbba7ac8349cb3a08fc9718afc72efcd07c28df76cdc294f15c233f5003b901000000000000000000000000000000000000000000000000000000000000000000000000000000000000000000000000000000000000000000000000000000000000000000000000000000000000000000000000000000000000000000000000000000000000000000000000000000000000000000000000000000000000000000000000000000000000000000000000000000000000000000000000000000000000000000000000000000000000000000000000000000000000000000000000000000000000000000000000000000000000000000000000000000000000000000000000000000000000000000000000000000000000000000000000000000000083020000018398bca482d2f08203e800a00000000000000000000000000000000000000000000000000000000000000000880000000000000000f861f85f800182d2f094b94f5374fce5edbc8e2a8697c15331677e6ebf0b80801ba09f57d6181791523d1cd9e2eb90ea0ba38f8733010a628ed76873f339fe4eabdba02631234da766ed6f2d50f3960ede7ef162264794ebfeacdd49c7454192e6c809c0",
                "blockHeader" : {
                    "bloom" : "0x00000000000000000000000000000000000000000000000000000000000000000000000000000000000000000000000000000000000000000000000000000000000000000000000000000000000000000000000000000000000000000000000000000000000000000000000000000000000000000000000000000000000000000000000000000000000000000000000000000000000000000000000000000000000000000000000000000000000000000000000000000000000000000000000000000000000000000000000000000000000000000000000000000000000000000000000000000000000000000000000000000000000000000000000000000000",
                    "coinbase" : "0x2adc25665018aa1fe0e6bc666dac8fc2697ff9ba",
                    "difficulty" : "0x20000",
                    "extraData" : "0x00",
                    "gasLimit" : "0x98bca4",
                    "gasUsed" : "0xd2f0",
                    "hash" : "0xe590d01e37ae6a5c78b0e82808e168221211997eba9f230e8853e3ebb3c89977",
                    "mixHash" : "0x0000000000000000000000000000000000000000000000000000000000000000",
                    "nonce" : "0x0000000000000000",
                    "number" : "0x1",
                    "parentHash" : "0xa830951c118da9c2f0273af0559889b7225c4d6767f8e47329f936a13f9531b7",
                    "receiptTrie" : "0xa0012fbba7ac8349cb3a08fc9718afc72efcd07c28df76cdc294f15c233f5003",
                    "stateRoot" : "0x029000911b9af498e0a8f589547be8385662a4b66763203c59760701858f8160",
                    "timestamp" : "0x3e8",
                    "transactionsTrie" : "0xd1203c53b8c29493980e69a532ca755ba180085393bbfde48ba5c6ce648c08fc",
                    "uncleHash" : "0x1dcc4de8dec75d7aab85b567b6ccd41ad312451b948a7413f0a142fd40d49347"
                },
                "transactions" : [
                    {
                        "data" : "0x",
                        "gasLimit" : "0xd2f0",
                        "gasPrice" : "0x01",
                        "nonce" : "0x00",
                        "to" : "0xb94f5374fce5edbc8e2a8697c15331677e6ebf0b",
                        "value" : "0x00",
                        "v" : "0x1b",
                        "r" : "0x9f57d6181791523d1cd9e2eb90ea0ba38f8733010a628ed76873f339fe4eabdb",
                        "s" : "0x2631234da766ed6f2d50f3960ede7ef162264794ebfeacdd49c7454192e6c809"
                    }
                ]
            }
        ]
    },
    "CreateOOGafterInitCodeReturndata2_d0g1v0_Istanbul" : {
        "_info" : {
            "comment" : "Call RETURNDATASIZE and RETURNDATACOPY after CREATE deploy a contract. correct returndata copy.",
            "filling-rpc-server" : "Geth-1.9.6-unstable-63b18027-20190920",
            "filling-tool-version" : "retesteth-0.0.1+commit.0ae18aef.Linux.g++",
            "lllcversion" : "Version: 0.5.12-develop.2019.9.13+commit.2d601a4f.Linux.g++",
            "source" : "src/GeneralStateTestsFiller/stCreateTest/CreateOOGafterInitCodeReturndata2Filler.json",
            "sourceHash" : "1a742f6757ae15ece0dbbddad9aae018bde492cd89ec41308de033687a62e3f4"
        },
        "genesisBlockHeader" : {
            "bloom" : "0x00000000000000000000000000000000000000000000000000000000000000000000000000000000000000000000000000000000000000000000000000000000000000000000000000000000000000000000000000000000000000000000000000000000000000000000000000000000000000000000000000000000000000000000000000000000000000000000000000000000000000000000000000000000000000000000000000000000000000000000000000000000000000000000000000000000000000000000000000000000000000000000000000000000000000000000000000000000000000000000000000000000000000000000000000000000",
            "coinbase" : "0x2adc25665018aa1fe0e6bc666dac8fc2697ff9ba",
            "difficulty" : "0x20000",
            "extraData" : "0x00",
            "gasLimit" : "0x989680",
            "gasUsed" : "0x0",
            "hash" : "0xa830951c118da9c2f0273af0559889b7225c4d6767f8e47329f936a13f9531b7",
            "mixHash" : "0x0000000000000000000000000000000000000000000000000000000000000000",
            "nonce" : "0x0000000000000000",
            "number" : "0x0",
            "parentHash" : "0x0000000000000000000000000000000000000000000000000000000000000000",
            "receiptTrie" : "0x56e81f171bcc55a6ff8345e692c0f86e5b48e01b996cadc001622fb5e363b421",
            "stateRoot" : "0x66091d70c1afc87d53542587db4e515ba42313a694cfcf04e93de41c7c8aaa10",
            "timestamp" : "0x0",
            "transactionsTrie" : "0x56e81f171bcc55a6ff8345e692c0f86e5b48e01b996cadc001622fb5e363b421",
            "uncleHash" : "0x1dcc4de8dec75d7aab85b567b6ccd41ad312451b948a7413f0a142fd40d49347"
        },
        "pre" : {
            "0xa94f5374fce5edbc8e2a8697c15331677e6ebf0b" : {
                "balance" : "0xe8d4a51000",
                "code" : "0x",
                "nonce" : "0x00",
                "storage" : {
                }
            },
            "0xb94f5374fce5edbc8e2a8697c15331677e6ebf0b" : {
                "balance" : "0x00",
                "code" : "0x6d6460016001556000526005601bf3600052600e60126000f0503d6001556000600060003e60005160025500",
                "nonce" : "0x00",
                "storage" : {
                }
            }
        },
        "postState" : {
            "0xa94f5374fce5edbc8e2a8697c15331677e6ebf0b" : {
                "code" : "0x",
                "nonce" : "0x01",
                "balance" : "0xe8d4a3eb8d",
                "storage" : {
                }
            },
            "0x2adc25665018aa1fe0e6bc666dac8fc2697ff9ba" : {
                "code" : "0x",
                "nonce" : "0x00",
                "balance" : "0x1bc16d674ec92473",
                "storage" : {
                }
            },
            "0xf1ecf98489fa9ed60a664fc4998db699cfa39d40" : {
                "code" : "0x6001600155",
                "nonce" : "0x01",
                "balance" : "0x00",
                "storage" : {
                }
            },
            "0xb94f5374fce5edbc8e2a8697c15331677e6ebf0b" : {
                "code" : "0x6d6460016001556000526005601bf3600052600e60126000f0503d6001556000600060003e60005160025500",
                "nonce" : "0x01",
                "balance" : "0x00",
                "storage" : {
                    "0x02" : "0x6460016001556000526005601bf3"
                }
            }
        },
        "network" : "Istanbul",
        "sealEngine" : "NoProof",
        "lastblockhash" : "0xe22e3622e53dd5bb6ccb8f598a918343321d20792d3b6e19f61ccd12005d4586",
        "genesisRLP" : "0xf901f8f901f3a00000000000000000000000000000000000000000000000000000000000000000a01dcc4de8dec75d7aab85b567b6ccd41ad312451b948a7413f0a142fd40d49347942adc25665018aa1fe0e6bc666dac8fc2697ff9baa066091d70c1afc87d53542587db4e515ba42313a694cfcf04e93de41c7c8aaa10a056e81f171bcc55a6ff8345e692c0f86e5b48e01b996cadc001622fb5e363b421a056e81f171bcc55a6ff8345e692c0f86e5b48e01b996cadc001622fb5e363b421b9010000000000000000000000000000000000000000000000000000000000000000000000000000000000000000000000000000000000000000000000000000000000000000000000000000000000000000000000000000000000000000000000000000000000000000000000000000000000000000000000000000000000000000000000000000000000000000000000000000000000000000000000000000000000000000000000000000000000000000000000000000000000000000000000000000000000000000000000000000000000000000000000000000000000000000000000000000000000000000000000000000000000000000000000000000000000830200008083989680808000a00000000000000000000000000000000000000000000000000000000000000000880000000000000000c0c0",
        "blocks" : [
            {
                "rlp" : "0xf90260f901f8a0a830951c118da9c2f0273af0559889b7225c4d6767f8e47329f936a13f9531b7a01dcc4de8dec75d7aab85b567b6ccd41ad312451b948a7413f0a142fd40d49347942adc25665018aa1fe0e6bc666dac8fc2697ff9baa0ad5b29c1cb41361ccd163d4fe2e8f04812c112e4c3754a8a003f9f0db671d14ba00b1473e7c89a58aba867501ee4abd101e6c011850cd4ac489716505eb21e5db4a0e8caa6ad44c5fb8368620a1a9f0b54d04df7cc5e696a879b385336bf17899812b901000000000000000000000000000000000000000000000000000000000000000000000000000000000000000000000000000000000000000000000000000000000000000000000000000000000000000000000000000000000000000000000000000000000000000000000000000000000000000000000000000000000000000000000000000000000000000000000000000000000000000000000000000000000000000000000000000000000000000000000000000000000000000000000000000000000000000000000000000000000000000000000000000000000000000000000000000000000000000000000000000000000000000000000000000000000083020000018398bca4830124738203e800a00000000000000000000000000000000000000000000000000000000000000000880000000000000000f862f86080018301731894b94f5374fce5edbc8e2a8697c15331677e6ebf0b80801ba0f7dca5ea253a0c2d8a7a0f0e7cffa6f69339635fe23a803315e7356ce51fa0f8a02c694d350ee3e50c2ebaff4bb0e047722b09c46b837fd5dececbb3e22b5924a7c0",
                "blockHeader" : {
                    "bloom" : "0x00000000000000000000000000000000000000000000000000000000000000000000000000000000000000000000000000000000000000000000000000000000000000000000000000000000000000000000000000000000000000000000000000000000000000000000000000000000000000000000000000000000000000000000000000000000000000000000000000000000000000000000000000000000000000000000000000000000000000000000000000000000000000000000000000000000000000000000000000000000000000000000000000000000000000000000000000000000000000000000000000000000000000000000000000000000",
                    "coinbase" : "0x2adc25665018aa1fe0e6bc666dac8fc2697ff9ba",
                    "difficulty" : "0x20000",
                    "extraData" : "0x00",
                    "gasLimit" : "0x98bca4",
                    "gasUsed" : "0x12473",
                    "hash" : "0xe22e3622e53dd5bb6ccb8f598a918343321d20792d3b6e19f61ccd12005d4586",
                    "mixHash" : "0x0000000000000000000000000000000000000000000000000000000000000000",
                    "nonce" : "0x0000000000000000",
                    "number" : "0x1",
                    "parentHash" : "0xa830951c118da9c2f0273af0559889b7225c4d6767f8e47329f936a13f9531b7",
                    "receiptTrie" : "0xe8caa6ad44c5fb8368620a1a9f0b54d04df7cc5e696a879b385336bf17899812",
                    "stateRoot" : "0xad5b29c1cb41361ccd163d4fe2e8f04812c112e4c3754a8a003f9f0db671d14b",
                    "timestamp" : "0x3e8",
                    "transactionsTrie" : "0x0b1473e7c89a58aba867501ee4abd101e6c011850cd4ac489716505eb21e5db4",
                    "uncleHash" : "0x1dcc4de8dec75d7aab85b567b6ccd41ad312451b948a7413f0a142fd40d49347"
                },
                "transactions" : [
                    {
                        "data" : "0x",
                        "gasLimit" : "0x017318",
                        "gasPrice" : "0x01",
                        "nonce" : "0x00",
                        "to" : "0xb94f5374fce5edbc8e2a8697c15331677e6ebf0b",
                        "value" : "0x00",
                        "v" : "0x1b",
                        "r" : "0xf7dca5ea253a0c2d8a7a0f0e7cffa6f69339635fe23a803315e7356ce51fa0f8",
                        "s" : "0x2c694d350ee3e50c2ebaff4bb0e047722b09c46b837fd5dececbb3e22b5924a7"
                    }
                ]
            }
        ]
    }
}