{
    "refundSuicide50procentCap_d0g0v0_Istanbul" : {
        "_info" : {
            "comment" : "",
            "filling-rpc-server" : "Geth-1.9.6-unstable-63b18027-20190920",
            "filling-tool-version" : "retesteth-0.0.1+commit.0ae18aef.Linux.g++",
            "lllcversion" : "Version: 0.5.12-develop.2019.9.13+commit.2d601a4f.Linux.g++",
            "source" : "src/GeneralStateTestsFiller/stRefundTest/refundSuicide50procentCapFiller.json",
            "sourceHash" : "b5ae31bdf472ee38e000d13e2949bbcae2ee1d4c7af8b194eab3ca5573c66aea"
        },
        "genesisBlockHeader" : {
            "bloom" : "0x00000000000000000000000000000000000000000000000000000000000000000000000000000000000000000000000000000000000000000000000000000000000000000000000000000000000000000000000000000000000000000000000000000000000000000000000000000000000000000000000000000000000000000000000000000000000000000000000000000000000000000000000000000000000000000000000000000000000000000000000000000000000000000000000000000000000000000000000000000000000000000000000000000000000000000000000000000000000000000000000000000000000000000000000000000000",
            "coinbase" : "0x2adc25665018aa1fe0e6bc666dac8fc2697ff9ba",
            "difficulty" : "0x20000",
            "extraData" : "0x00",
            "gasLimit" : "0x5f5e100",
            "gasUsed" : "0x0",
            "hash" : "0xca3b3cffba5da24e282976eb93e8c0e4fa85d737ec90d84bbc0bcf3db46997e2",
            "mixHash" : "0x0000000000000000000000000000000000000000000000000000000000000000",
            "nonce" : "0x0000000000000000",
            "number" : "0x0",
            "parentHash" : "0x0000000000000000000000000000000000000000000000000000000000000000",
            "receiptTrie" : "0x56e81f171bcc55a6ff8345e692c0f86e5b48e01b996cadc001622fb5e363b421",
            "stateRoot" : "0x96df01f3e495cf47a242885aa3bae55b8a318cdb08156817267e7a608477bad5",
            "timestamp" : "0x0",
            "transactionsTrie" : "0x56e81f171bcc55a6ff8345e692c0f86e5b48e01b996cadc001622fb5e363b421",
            "uncleHash" : "0x1dcc4de8dec75d7aab85b567b6ccd41ad312451b948a7413f0a142fd40d49347"
        },
        "pre" : {
            "0x095e7baea6a6c7c4c2dfeb977efac326af552d87" : {
                "balance" : "0x0de0b6b3a7640000",
                "code" : "0x5a6016556001600a556000600060006000600073aaae7baea6a6c7c4c2dfeb977efac326af552aaa600035f1600b55600060015560006002556000600355600060045560006005556000600655600060075560006008555a60175500",
                "nonce" : "0x00",
                "storage" : {
                    "0x01" : "0x01",
                    "0x02" : "0x01",
                    "0x03" : "0x01",
                    "0x04" : "0x01",
                    "0x05" : "0x01",
                    "0x06" : "0x01",
                    "0x07" : "0x01",
                    "0x08" : "0x01"
                }
            },
            "0xa94f5374fce5edbc8e2a8697c15331677e6ebf0b" : {
                "balance" : "0x989680",
                "code" : "0x",
                "nonce" : "0x00",
                "storage" : {
                }
            },
            "0xaaae7baea6a6c7c4c2dfeb977efac326af552aaa" : {
                "balance" : "0x0de0b6b3a7640000",
                "code" : "0x73095e7baea6a6c7c4c2dfeb977efac326af552d87ff00",
                "nonce" : "0x00",
                "storage" : {
                }
            }
        },
        "postState" : {
            "0xa94f5374fce5edbc8e2a8697c15331677e6ebf0b" : {
                "code" : "0x",
                "nonce" : "0x01",
                "balance" : "0x97a5ca",
                "storage" : {
                }
            },
            "0x095e7baea6a6c7c4c2dfeb977efac326af552d87" : {
                "code" : "0x5a6016556001600a556000600060006000600073aaae7baea6a6c7c4c2dfeb977efac326af552aaa600035f1600b55600060015560006002556000600355600060045560006005556000600655600060075560006008555a60175500",
                "nonce" : "0x00",
                "balance" : "0x0de0b6b3a7640000",
                "storage" : {
                    "0x17" : "0x970338",
                    "0x0a" : "0x01",
                    "0x16" : "0x9843de"
                }
            },
            "0xaaae7baea6a6c7c4c2dfeb977efac326af552aaa" : {
                "code" : "0x73095e7baea6a6c7c4c2dfeb977efac326af552d87ff00",
                "nonce" : "0x00",
                "balance" : "0x0de0b6b3a7640000",
                "storage" : {
                }
            },
            "0x2adc25665018aa1fe0e6bc666dac8fc2697ff9ba" : {
                "code" : "0x",
                "nonce" : "0x00",
                "balance" : "0x1bc16d674ec8f0b6",
                "storage" : {
                }
            }
        },
        "network" : "Istanbul",
        "sealEngine" : "NoProof",
        "lastblockhash" : "0xada30d2d7cb240539e7cac405869779f4168f136e9beb0583101f300c5792906",
        "genesisRLP" : "0xf901f9f901f4a00000000000000000000000000000000000000000000000000000000000000000a01dcc4de8dec75d7aab85b567b6ccd41ad312451b948a7413f0a142fd40d49347942adc25665018aa1fe0e6bc666dac8fc2697ff9baa096df01f3e495cf47a242885aa3bae55b8a318cdb08156817267e7a608477bad5a056e81f171bcc55a6ff8345e692c0f86e5b48e01b996cadc001622fb5e363b421a056e81f171bcc55a6ff8345e692c0f86e5b48e01b996cadc001622fb5e363b421b901000000000000000000000000000000000000000000000000000000000000000000000000000000000000000000000000000000000000000000000000000000000000000000000000000000000000000000000000000000000000000000000000000000000000000000000000000000000000000000000000000000000000000000000000000000000000000000000000000000000000000000000000000000000000000000000000000000000000000000000000000000000000000000000000000000000000000000000000000000000000000000000000000000000000000000000000000000000000000000000000000000000000000000000000000000000083020000808405f5e100808000a00000000000000000000000000000000000000000000000000000000000000000880000000000000000c0c0",
        "blocks" : [
            {
                "rlp" : "0xf90280f901f8a0ca3b3cffba5da24e282976eb93e8c0e4fa85d737ec90d84bbc0bcf3db46997e2a01dcc4de8dec75d7aab85b567b6ccd41ad312451b948a7413f0a142fd40d49347942adc25665018aa1fe0e6bc666dac8fc2697ff9baa0ed86be14373174fd70f63fbac90841e102bcdf20647ccfacc1e070b138f2a8eaa0152ce708665da4f8b22d15f1b7f6d376eee2f93874a4d1f6272c5e657dbe1b0ba0bc47537febe08161154edc37a00f3d4f31efc89fe2d3616e969fa5a262d8fd0cb901000000000000000000000000000000000000000000000000000000000000000000000000000000000000000000000000000000000000000000000000000000000000000000000000000000000000000000000000000000000000000000000000000000000000000000000000000000000000000000000000000000000000000000000000000000000000000000000000000000000000000000000000000000000000000000000000000000000000000000000000000000000000000000000000000000000000000000000000000000000000000000000000000000000000000000000000000000000000000000000000000000000000000000000000000000000083020000018405f75e7782f0b68203e800a00000000000000000000000000000000000000000000000000000000000000000880000000000000000f882f88080018398968094095e7baea6a6c7c4c2dfeb977efac326af552d8780a000000000000000000000000000000000000000000000000000000000000001f41ba0ca6eed05ee408be0dd60eaf1be4ed39e132fca30191b5d29a1d539f62659ee2da07638bed28aa6eec9d1b8a1a8e96f3fdb7117b2b0412f0804b1cb2f3f3c4f4056c0",
                "blockHeader" : {
                    "bloom" : "0x00000000000000000000000000000000000000000000000000000000000000000000000000000000000000000000000000000000000000000000000000000000000000000000000000000000000000000000000000000000000000000000000000000000000000000000000000000000000000000000000000000000000000000000000000000000000000000000000000000000000000000000000000000000000000000000000000000000000000000000000000000000000000000000000000000000000000000000000000000000000000000000000000000000000000000000000000000000000000000000000000000000000000000000000000000000",
                    "coinbase" : "0x2adc25665018aa1fe0e6bc666dac8fc2697ff9ba",
                    "difficulty" : "0x20000",
                    "extraData" : "0x00",
                    "gasLimit" : "0x5f75e77",
                    "gasUsed" : "0xf0b6",
                    "hash" : "0xada30d2d7cb240539e7cac405869779f4168f136e9beb0583101f300c5792906",
                    "mixHash" : "0x0000000000000000000000000000000000000000000000000000000000000000",
                    "nonce" : "0x0000000000000000",
                    "number" : "0x1",
                    "parentHash" : "0xca3b3cffba5da24e282976eb93e8c0e4fa85d737ec90d84bbc0bcf3db46997e2",
                    "receiptTrie" : "0xbc47537febe08161154edc37a00f3d4f31efc89fe2d3616e969fa5a262d8fd0c",
                    "stateRoot" : "0xed86be14373174fd70f63fbac90841e102bcdf20647ccfacc1e070b138f2a8ea",
                    "timestamp" : "0x3e8",
                    "transactionsTrie" : "0x152ce708665da4f8b22d15f1b7f6d376eee2f93874a4d1f6272c5e657dbe1b0b",
                    "uncleHash" : "0x1dcc4de8dec75d7aab85b567b6ccd41ad312451b948a7413f0a142fd40d49347"
                },
                "transactions" : [
                    {
                        "data" : "0x00000000000000000000000000000000000000000000000000000000000001f4",
                        "gasLimit" : "0x989680",
                        "gasPrice" : "0x01",
                        "nonce" : "0x00",
                        "to" : "0x095e7baea6a6c7c4c2dfeb977efac326af552d87",
                        "value" : "0x00",
                        "v" : "0x1b",
                        "r" : "0xca6eed05ee408be0dd60eaf1be4ed39e132fca30191b5d29a1d539f62659ee2d",
                        "s" : "0x7638bed28aa6eec9d1b8a1a8e96f3fdb7117b2b0412f0804b1cb2f3f3c4f4056"
                    }
                ]
            }
        ]
    },
    "refundSuicide50procentCap_d1g0v0_Istanbul" : {
        "_info" : {
            "comment" : "",
            "filling-rpc-server" : "Geth-1.9.6-unstable-63b18027-20190920",
            "filling-tool-version" : "retesteth-0.0.1+commit.0ae18aef.Linux.g++",
            "lllcversion" : "Version: 0.5.12-develop.2019.9.13+commit.2d601a4f.Linux.g++",
            "source" : "src/GeneralStateTestsFiller/stRefundTest/refundSuicide50procentCapFiller.json",
            "sourceHash" : "b5ae31bdf472ee38e000d13e2949bbcae2ee1d4c7af8b194eab3ca5573c66aea"
        },
        "genesisBlockHeader" : {
            "bloom" : "0x00000000000000000000000000000000000000000000000000000000000000000000000000000000000000000000000000000000000000000000000000000000000000000000000000000000000000000000000000000000000000000000000000000000000000000000000000000000000000000000000000000000000000000000000000000000000000000000000000000000000000000000000000000000000000000000000000000000000000000000000000000000000000000000000000000000000000000000000000000000000000000000000000000000000000000000000000000000000000000000000000000000000000000000000000000000",
            "coinbase" : "0x2adc25665018aa1fe0e6bc666dac8fc2697ff9ba",
            "difficulty" : "0x20000",
            "extraData" : "0x00",
            "gasLimit" : "0x5f5e100",
            "gasUsed" : "0x0",
            "hash" : "0xca3b3cffba5da24e282976eb93e8c0e4fa85d737ec90d84bbc0bcf3db46997e2",
            "mixHash" : "0x0000000000000000000000000000000000000000000000000000000000000000",
            "nonce" : "0x0000000000000000",
            "number" : "0x0",
            "parentHash" : "0x0000000000000000000000000000000000000000000000000000000000000000",
            "receiptTrie" : "0x56e81f171bcc55a6ff8345e692c0f86e5b48e01b996cadc001622fb5e363b421",
            "stateRoot" : "0x96df01f3e495cf47a242885aa3bae55b8a318cdb08156817267e7a608477bad5",
            "timestamp" : "0x0",
            "transactionsTrie" : "0x56e81f171bcc55a6ff8345e692c0f86e5b48e01b996cadc001622fb5e363b421",
            "uncleHash" : "0x1dcc4de8dec75d7aab85b567b6ccd41ad312451b948a7413f0a142fd40d49347"
        },
        "pre" : {
            "0x095e7baea6a6c7c4c2dfeb977efac326af552d87" : {
                "balance" : "0x0de0b6b3a7640000",
                "code" : "0x5a6016556001600a556000600060006000600073aaae7baea6a6c7c4c2dfeb977efac326af552aaa600035f1600b55600060015560006002556000600355600060045560006005556000600655600060075560006008555a60175500",
                "nonce" : "0x00",
                "storage" : {
                    "0x01" : "0x01",
                    "0x02" : "0x01",
                    "0x03" : "0x01",
                    "0x04" : "0x01",
                    "0x05" : "0x01",
                    "0x06" : "0x01",
                    "0x07" : "0x01",
                    "0x08" : "0x01"
                }
            },
            "0xa94f5374fce5edbc8e2a8697c15331677e6ebf0b" : {
                "balance" : "0x989680",
                "code" : "0x",
                "nonce" : "0x00",
                "storage" : {
                }
            },
            "0xaaae7baea6a6c7c4c2dfeb977efac326af552aaa" : {
                "balance" : "0x0de0b6b3a7640000",
                "code" : "0x73095e7baea6a6c7c4c2dfeb977efac326af552d87ff00",
                "nonce" : "0x00",
                "storage" : {
                }
            }
        },
        "postState" : {
            "0xa94f5374fce5edbc8e2a8697c15331677e6ebf0b" : {
                "code" : "0x",
                "nonce" : "0x01",
                "balance" : "0x977785",
                "storage" : {
                }
            },
            "0x095e7baea6a6c7c4c2dfeb977efac326af552d87" : {
                "code" : "0x5a6016556001600a556000600060006000600073aaae7baea6a6c7c4c2dfeb977efac326af552aaa600035f1600b55600060015560006002556000600355600060045560006005556000600655600060075560006008555a60175500",
                "nonce" : "0x00",
                "balance" : "0x1bc16d674ec80000",
                "storage" : {
                    "0x0b" : "0x01",
                    "0x17" : "0x96a6ad",
                    "0x0a" : "0x01",
                    "0x16" : "0x9843ea"
                }
            },
            "0x2adc25665018aa1fe0e6bc666dac8fc2697ff9ba" : {
                "code" : "0x",
                "nonce" : "0x00",
                "balance" : "0x1bc16d674ec91efb",
                "storage" : {
                }
            }
        },
        "network" : "Istanbul",
        "sealEngine" : "NoProof",
        "lastblockhash" : "0x793422856033fe940a056c2270583d3c133656867ba7f8c4cf57fdeca1df0c72",
        "genesisRLP" : "0xf901f9f901f4a00000000000000000000000000000000000000000000000000000000000000000a01dcc4de8dec75d7aab85b567b6ccd41ad312451b948a7413f0a142fd40d49347942adc25665018aa1fe0e6bc666dac8fc2697ff9baa096df01f3e495cf47a242885aa3bae55b8a318cdb08156817267e7a608477bad5a056e81f171bcc55a6ff8345e692c0f86e5b48e01b996cadc001622fb5e363b421a056e81f171bcc55a6ff8345e692c0f86e5b48e01b996cadc001622fb5e363b421b901000000000000000000000000000000000000000000000000000000000000000000000000000000000000000000000000000000000000000000000000000000000000000000000000000000000000000000000000000000000000000000000000000000000000000000000000000000000000000000000000000000000000000000000000000000000000000000000000000000000000000000000000000000000000000000000000000000000000000000000000000000000000000000000000000000000000000000000000000000000000000000000000000000000000000000000000000000000000000000000000000000000000000000000000000000000083020000808405f5e100808000a00000000000000000000000000000000000000000000000000000000000000000880000000000000000c0c0",
        "blocks" : [
            {
                "rlp" : "0xf90281f901f9a0ca3b3cffba5da24e282976eb93e8c0e4fa85d737ec90d84bbc0bcf3db46997e2a01dcc4de8dec75d7aab85b567b6ccd41ad312451b948a7413f0a142fd40d49347942adc25665018aa1fe0e6bc666dac8fc2697ff9baa04d402283013665f6158f1b6cf51ef2ffc3cace67ae2e50fa930fe69fa3eedd8ea08126dc7596f9071315e97337ede1e7484c48a8cdc17bc70bba57bccaad9ee810a07e2d8dac8b71d64804884fe49759494b4b09db1493bfb8be406d854a8b2317b5b901000000000000000000000000000000000000000000000000000000000000000000000000000000000000000000000000000000000000000000000000000000000000000000000000000000000000000000000000000000000000000000000000000000000000000000000000000000000000000000000000000000000000000000000000000000000000000000000000000000000000000000000000000000000000000000000000000000000000000000000000000000000000000000000000000000000000000000000000000000000000000000000000000000000000000000000000000000000000000000000000000000000000000000000000000000000083020000018405f75e7783011efb8203e800a00000000000000000000000000000000000000000000000000000000000000000880000000000000000f882f88080018398968094095e7baea6a6c7c4c2dfeb977efac326af552d8780a000000000000000000000000000000000000000000000000000000000000100001ca0f7999e1c73e1c97b1f50c47c01c2e4b7e373d7f7c283212b4384cce240f5b61fa07194855dd81cab147aaefecbcad9ae4af1fd2955975afb6a8b42d8c12a4cd215c0",
                "blockHeader" : {
                    "bloom" : "0x00000000000000000000000000000000000000000000000000000000000000000000000000000000000000000000000000000000000000000000000000000000000000000000000000000000000000000000000000000000000000000000000000000000000000000000000000000000000000000000000000000000000000000000000000000000000000000000000000000000000000000000000000000000000000000000000000000000000000000000000000000000000000000000000000000000000000000000000000000000000000000000000000000000000000000000000000000000000000000000000000000000000000000000000000000000",
                    "coinbase" : "0x2adc25665018aa1fe0e6bc666dac8fc2697ff9ba",
                    "difficulty" : "0x20000",
                    "extraData" : "0x00",
                    "gasLimit" : "0x5f75e77",
                    "gasUsed" : "0x11efb",
                    "hash" : "0x793422856033fe940a056c2270583d3c133656867ba7f8c4cf57fdeca1df0c72",
                    "mixHash" : "0x0000000000000000000000000000000000000000000000000000000000000000",
                    "nonce" : "0x0000000000000000",
                    "number" : "0x1",
                    "parentHash" : "0xca3b3cffba5da24e282976eb93e8c0e4fa85d737ec90d84bbc0bcf3db46997e2",
                    "receiptTrie" : "0x7e2d8dac8b71d64804884fe49759494b4b09db1493bfb8be406d854a8b2317b5",
                    "stateRoot" : "0x4d402283013665f6158f1b6cf51ef2ffc3cace67ae2e50fa930fe69fa3eedd8e",
                    "timestamp" : "0x3e8",
                    "transactionsTrie" : "0x8126dc7596f9071315e97337ede1e7484c48a8cdc17bc70bba57bccaad9ee810",
                    "uncleHash" : "0x1dcc4de8dec75d7aab85b567b6ccd41ad312451b948a7413f0a142fd40d49347"
                },
                "transactions" : [
                    {
                        "data" : "0x0000000000000000000000000000000000000000000000000000000000010000",
                        "gasLimit" : "0x989680",
                        "gasPrice" : "0x01",
                        "nonce" : "0x00",
                        "to" : "0x095e7baea6a6c7c4c2dfeb977efac326af552d87",
                        "value" : "0x00",
                        "v" : "0x1c",
                        "r" : "0xf7999e1c73e1c97b1f50c47c01c2e4b7e373d7f7c283212b4384cce240f5b61f",
                        "s" : "0x7194855dd81cab147aaefecbcad9ae4af1fd2955975afb6a8b42d8c12a4cd215"
                    }
                ]
            }
        ]
    }
}