{
    "refund_TxToSuicideOOG_d0g0v0_Istanbul" : {
        "_info" : {
            "comment" : "",
            "filling-rpc-server" : "Geth-1.9.6-unstable-63b18027-20190920",
            "filling-tool-version" : "retesteth-0.0.1+commit.0ae18aef.Linux.g++",
            "lllcversion" : "Version: 0.5.12-develop.2019.9.13+commit.2d601a4f.Linux.g++",
            "source" : "src/GeneralStateTestsFiller/stRefundTest/refund_TxToSuicideOOGFiller.json",
            "sourceHash" : "7219d92dde22bdf5c72cd174c81be9570af882eafa71cf82e5975612516fc6c7"
        },
        "genesisBlockHeader" : {
            "bloom" : "0x00000000000000000000000000000000000000000000000000000000000000000000000000000000000000000000000000000000000000000000000000000000000000000000000000000000000000000000000000000000000000000000000000000000000000000000000000000000000000000000000000000000000000000000000000000000000000000000000000000000000000000000000000000000000000000000000000000000000000000000000000000000000000000000000000000000000000000000000000000000000000000000000000000000000000000000000000000000000000000000000000000000000000000000000000000000",
            "coinbase" : "0x2adc25665018aa1fe0e6bc666dac8fc2697ff9ba",
            "difficulty" : "0x20000",
            "extraData" : "0x00",
            "gasLimit" : "0x989680",
            "gasUsed" : "0x0",
            "hash" : "0x66c5ad491d37a960faa1671d9e11f62ce2a6f13a98511a3721b68fbfa72c683f",
            "mixHash" : "0x0000000000000000000000000000000000000000000000000000000000000000",
            "nonce" : "0x0000000000000000",
            "number" : "0x0",
            "parentHash" : "0x0000000000000000000000000000000000000000000000000000000000000000",
            "receiptTrie" : "0x56e81f171bcc55a6ff8345e692c0f86e5b48e01b996cadc001622fb5e363b421",
            "stateRoot" : "0xd7802c45fc09b360e90059267edf4196fd50213f3ac3b4e7d6602565728ce339",
            "timestamp" : "0x0",
            "transactionsTrie" : "0x56e81f171bcc55a6ff8345e692c0f86e5b48e01b996cadc001622fb5e363b421",
            "uncleHash" : "0x1dcc4de8dec75d7aab85b567b6ccd41ad312451b948a7413f0a142fd40d49347"
        },
        "pre" : {
            "0xa94f5374fce5edbc8e2a8697c15331677e6ebf0b" : {
                "balance" : "0x05f5e100",
                "code" : "0x",
                "nonce" : "0x00",
                "storage" : {
                }
            },
            "0xaaae7baea6a6c7c4c2dfeb977efac326af552aaa" : {
                "balance" : "0x0de0b6b3a7640000",
                "code" : "0x73095e7baea6a6c7c4c2dfeb977efac326af552d87ff00",
                "nonce" : "0x00",
                "storage" : {
                    "0x01" : "0x01"
                }
            }
        },
        "postState" : {
            "0xa94f5374fce5edbc8e2a8697c15331677e6ebf0b" : {
                "code" : "0x",
                "nonce" : "0x01",
                "balance" : "0x05f58ef6",
                "storage" : {
                }
            },
            "0xaaae7baea6a6c7c4c2dfeb977efac326af552aaa" : {
                "code" : "0x73095e7baea6a6c7c4c2dfeb977efac326af552d87ff00",
                "nonce" : "0x00",
                "balance" : "0x0de0b6b3a7640000",
                "storage" : {
                    "0x01" : "0x01"
                }
            },
            "0x2adc25665018aa1fe0e6bc666dac8fc2697ff9ba" : {
                "code" : "0x",
                "nonce" : "0x00",
                "balance" : "0x1bc16d674ec8520a",
                "storage" : {
                }
            }
        },
        "network" : "Istanbul",
        "sealEngine" : "NoProof",
        "lastblockhash" : "0x6a96492a76afb21a642f705331f45ef4d5aa2aaeb47cd1770b1d97b023e52043",
        "genesisRLP" : "0xf901f8f901f3a00000000000000000000000000000000000000000000000000000000000000000a01dcc4de8dec75d7aab85b567b6ccd41ad312451b948a7413f0a142fd40d49347942adc25665018aa1fe0e6bc666dac8fc2697ff9baa0d7802c45fc09b360e90059267edf4196fd50213f3ac3b4e7d6602565728ce339a056e81f171bcc55a6ff8345e692c0f86e5b48e01b996cadc001622fb5e363b421a056e81f171bcc55a6ff8345e692c0f86e5b48e01b996cadc001622fb5e363b421b9010000000000000000000000000000000000000000000000000000000000000000000000000000000000000000000000000000000000000000000000000000000000000000000000000000000000000000000000000000000000000000000000000000000000000000000000000000000000000000000000000000000000000000000000000000000000000000000000000000000000000000000000000000000000000000000000000000000000000000000000000000000000000000000000000000000000000000000000000000000000000000000000000000000000000000000000000000000000000000000000000000000000000000000000000000000000830200008083989680808000a00000000000000000000000000000000000000000000000000000000000000000880000000000000000c0c0",
        "blocks" : [
            {
                "rlp" : "0xf9025ef901f7a066c5ad491d37a960faa1671d9e11f62ce2a6f13a98511a3721b68fbfa72c683fa01dcc4de8dec75d7aab85b567b6ccd41ad312451b948a7413f0a142fd40d49347942adc25665018aa1fe0e6bc666dac8fc2697ff9baa0b82bf06fea7680de1b604600a24c98294d2297fdbbc9bd86504b503cbd53a20ca07210e5b1e98318cc777a06b9f3c8d639ff872ee48490861aeee6f9ea0875f0ada02f80f76d88921985d5457a0dde2cf5102df4037660f8902f3fa43762ea476d71b901000000000000000000000000000000000000000000000000000000000000000000000000000000000000000000000000000000000000000000000000000000000000000000000000000000000000000000000000000000000000000000000000000000000000000000000000000000000000000000000000000000000000000000000000000000000000000000000000000000000000000000000000000000000000000000000000000000000000000000000000000000000000000000000000000000000000000000000000000000000000000000000000000000000000000000000000000000000000000000000000000000000000000000000000000000000083020000018398bca482520a8203e800a00000000000000000000000000000000000000000000000000000000000000000880000000000000000f861f85f800182520a94aaae7baea6a6c7c4c2dfeb977efac326af552aaa0a801ca09c647c65c10f9a3f2e16878a25405b22f2fef2ec96b18d68f68d34d551b93de4a023267f7401ef09f9615de4bbb3943cb2be892bc889efff06f16fddf59ac3ac91c0",
                "blockHeader" : {
                    "bloom" : "0x00000000000000000000000000000000000000000000000000000000000000000000000000000000000000000000000000000000000000000000000000000000000000000000000000000000000000000000000000000000000000000000000000000000000000000000000000000000000000000000000000000000000000000000000000000000000000000000000000000000000000000000000000000000000000000000000000000000000000000000000000000000000000000000000000000000000000000000000000000000000000000000000000000000000000000000000000000000000000000000000000000000000000000000000000000000",
                    "coinbase" : "0x2adc25665018aa1fe0e6bc666dac8fc2697ff9ba",
                    "difficulty" : "0x20000",
                    "extraData" : "0x00",
                    "gasLimit" : "0x98bca4",
                    "gasUsed" : "0x520a",
                    "hash" : "0x6a96492a76afb21a642f705331f45ef4d5aa2aaeb47cd1770b1d97b023e52043",
                    "mixHash" : "0x0000000000000000000000000000000000000000000000000000000000000000",
                    "nonce" : "0x0000000000000000",
                    "number" : "0x1",
                    "parentHash" : "0x66c5ad491d37a960faa1671d9e11f62ce2a6f13a98511a3721b68fbfa72c683f",
                    "receiptTrie" : "0x2f80f76d88921985d5457a0dde2cf5102df4037660f8902f3fa43762ea476d71",
                    "stateRoot" : "0xb82bf06fea7680de1b604600a24c98294d2297fdbbc9bd86504b503cbd53a20c",
                    "timestamp" : "0x3e8",
                    "transactionsTrie" : "0x7210e5b1e98318cc777a06b9f3c8d639ff872ee48490861aeee6f9ea0875f0ad",
                    "uncleHash" : "0x1dcc4de8dec75d7aab85b567b6ccd41ad312451b948a7413f0a142fd40d49347"
                },
                "transactions" : [
                    {
                        "data" : "0x",
                        "gasLimit" : "0x520a",
                        "gasPrice" : "0x01",
                        "nonce" : "0x00",
                        "to" : "0xaaae7baea6a6c7c4c2dfeb977efac326af552aaa",
                        "value" : "0x0a",
                        "v" : "0x1c",
                        "r" : "0x9c647c65c10f9a3f2e16878a25405b22f2fef2ec96b18d68f68d34d551b93de4",
                        "s" : "0x23267f7401ef09f9615de4bbb3943cb2be892bc889efff06f16fddf59ac3ac91"
                    }
                ]
            }
        ]
    }
}