{
  "blockNumber": "bf13",
  "txTraces": [
    {
      "gas": 61181,
      "failed": false,
      "returnValue": "0x60606040526000357c010000000000000000000000000000000000000000000000000000000090048063b19eaf1e146037576035565b005b6046600480359060200150605c565b6040518082815260200191505060405180910390f35b60006000600290505b82818202111515608d57600081840614156080578091506094565b5b80806001019150506065565b8291506094565b5091905056",
      "structLogs": [
        {
          "op": "PUSH1",
          "pc": 0,
          "depth": 1,
          "gas": 89676,
          "stack": [],
          "memory": [],
          "storage": {},
          "gasCost": 3
        },
        {
          "op": "PUSH1",
          "pc": 2,
          "depth": 1,
          "gas": 89673,
          "stack": [
            "0000000000000000000000000000000000000000000000000000000000000060"
          ],
          "memory": [],
          "storage": {},
          "gasCost": 3
        },
        {
          "op": "MSTORE",
          "pc": 4,
          "depth": 1,
          "gas": 89670,
          "stack": [
            "0000000000000000000000000000000000000000000000000000000000000060",
            "0000000000000000000000000000000000000000000000000000000000000040"
          ],
          "memory": [],
          "storage": {},
          "gasCost": 12
        },
        {
          "op": "PUSH1",
          "pc": 5,
          "depth": 1,
          "gas": 89658,
          "stack": [],
          "memory": [
            "0000000000000000000000000000000000000000000000000000000000000000",
            "0000000000000000000000000000000000000000000000000000000000000000",
            "0000000000000000000000000000000000000000000000000000000000000060"
          ],
          "storage": {},
          "gasCost": 3
        },
        {
          "op": "DUP1",
          "pc": 7,
          "depth": 1,
          "gas": 89655,
          "stack": [
            "000000000000000000000000000000000000000000000000000000000000009a"
          ],
          "memory": [
            "0000000000000000000000000000000000000000000000000000000000000000",
            "0000000000000000000000000000000000000000000000000000000000000000",
            "0000000000000000000000000000000000000000000000000000000000000060"
          ],
          "storage": {},
          "gasCost": 3
        },
        {
          "op": "PUSH1",
          "pc": 8,
          "depth": 1,
          "gas": 89652,
          "stack": [
            "000000000000000000000000000000000000000000000000000000000000009a",
            "000000000000000000000000000000000000000000000000000000000000009a"
          ],
          "memory": [
            "0000000000000000000000000000000000000000000000000000000000000000",
            "0000000000000000000000000000000000000000000000000000000000000000",
            "0000000000000000000000000000000000000000000000000000000000000060"
          ],
          "storage": {},
          "gasCost": 3
        },
        {
          "op": "PUSH1",
          "pc": 10,
          "depth": 1,
          "gas": 89649,
          "stack": [
            "000000000000000000000000000000000000000000000000000000000000009a",
            "000000000000000000000000000000000000000000000000000000000000009a",
            "0000000000000000000000000000000000000000000000000000000000000011"
          ],
          "memory": [
            "0000000000000000000000000000000000000000000000000000000000000000",
            "0000000000000000000000000000000000000000000000000000000000000000",
            "0000000000000000000000000000000000000000000000000000000000000060"
          ],
          "storage": {},
          "gasCost": 3
        },
        {
          "op": "CODECOPY",
          "pc": 12,
          "depth": 1,
          "gas": 89646,
          "stack": [
            "000000000000000000000000000000000000000000000000000000000000009a",
            "000000000000000000000000000000000000000000000000000000000000009a",
            "0000000000000000000000000000000000000000000000000000000000000011",
            "0000000000000000000000000000000000000000000000000000000000000000"
          ],
          "memory": [
            "0000000000000000000000000000000000000000000000000000000000000000",
            "0000000000000000000000000000000000000000000000000000000000000000",
            "0000000000000000000000000000000000000000000000000000000000000060"
          ],
          "storage": {},
          "gasCost": 24
        },
        {
          "op": "PUSH1",
          "pc": 13,
          "depth": 1,
          "gas": 89622,
          "stack": [
            "000000000000000000000000000000000000000000000000000000000000009a"
          ],
          "memory": [
            "60606040526000357C0100000000000000000000000000000000000000000000",
            "00000000000090048063B19EAF1E146037576035565B005B6046600480359060",
            "200150605C565B6040518082815260200191505060405180910390F35B600060",
            "00600290505B82818202111515608D5760008184061415608057809150609456",
            "5B5B80806001019150506065565B8291506094565B5091905056000000000000"
          ],
          "storage": {},
          "gasCost": 3
        },
        {
          "op": "RETURN",
          "pc": 15,
          "depth": 1,
          "gas": 89619,
          "stack": [
            "000000000000000000000000000000000000000000000000000000000000009a",
            "0000000000000000000000000000000000000000000000000000000000000000"
          ],
          "memory": [
            "60606040526000357C0100000000000000000000000000000000000000000000",
            "00000000000090048063B19EAF1E146037576035565B005B6046600480359060",
            "200150605C565B6040518082815260200191505060405180910390F35B600060",
            "00600290505B82818202111515608D5760008184061415608057809150609456",
            "5B5B80806001019150506065565B8291506094565B5091905056000000000000"
          ],
          "storage": {},
          "gasCost": 0,
          "returnValue": "0x60606040526000357c010000000000000000000000000000000000000000000000000000000090048063b19eaf1e146037576035565b005b6046600480359060200150605c565b6040518082815260200191505060405180910390f35b60006000600290505b82818202111515608d57600081840614156080578091506094565b5b80806001019150506065565b8291506094565b5091905056"
        }
      ],
      "stateDiff": {
        "before": [
          {
            "name": "sender",
            "address": "0x6b4971f56172fe56565fd3d6b56f8ca3c91b2bad",
            "nonce": "0x2",
            "balance": "0x9d99c23fbc1c7ad5",
            "codeHash": "0xc5d2460186f7233c927e7db2dcc703c0e500b653ca82273b7bfad8045d85a470",
            "code": "0x",
            "storageRoot": "0x56e81f171bcc55a6ff8345e692c0f86e5b48e01b996cadc001622fb5e363b421",
            "storage": {}
          },
          {
            "name": "recipient",
            "address": "0x7b2d5c63d3671092d3d44671717ea78018164661",
            "nonce": "0x0",
            "balance": "0x0",
            "codeHash": "0xc5d2460186f7233c927e7db2dcc703c0e500b653ca82273b7bfad8045d85a470",
            "code": "0x",
            "storageRoot": "0x56e81f171bcc55a6ff8345e692c0f86e5b48e01b996cadc001622fb5e363b421",
            "storage": {}
          },
          {
            "name": "miner",
            "address": "0xf927a40c8b7f6e07c5af7fa2155b4864a4112b13",
            "nonce": "0x0",
            "balance": "0x5f2499cfd29c860fcfc",
            "codeHash": "0xc5d2460186f7233c927e7db2dcc703c0e500b653ca82273b7bfad8045d85a470",
            "code": "0x",
            "storageRoot": "0x56e81f171bcc55a6ff8345e692c0f86e5b48e01b996cadc001622fb5e363b421",
            "storage": {}
          }
        ],
        "after": [
          {
            "name": "sender",
            "address": "0x6b4971f56172fe56565fd3d6b56f8ca3c91b2bad",
            "nonce": "0x3",
            "balance": "0x9d6a5eb6605571d8",
            "codeHash": "0xc5d2460186f7233c927e7db2dcc703c0e500b653ca82273b7bfad8045d85a470",
            "code": "0x",
            "storageRoot": "0x56e81f171bcc55a6ff8345e692c0f86e5b48e01b996cadc001622fb5e363b421",
            "storage": {}
          },
          {
            "name": "recipient",
            "address": "0x7b2d5c63d3671092d3d44671717ea78018164661",
            "nonce": "0x0",
            "balance": "0x2386f26fc10000",
            "codeHash": "0x5972ffc0214427735e7745a766b85395f83f5073a7adeb2a7a2ac0f9f0ea520a",
            "code": "0x60606040526000357c010000000000000000000000000000000000000000000000000000000090048063b19eaf1e146037576035565b005b6046600480359060200150605c565b6040518082815260200191505060405180910390f35b60006000600290505b82818202111515608d57600081840614156080578091506094565b5b80806001019150506065565b8291506094565b5091905056",
            "storageRoot": "0x56e81f171bcc55a6ff8345e692c0f86e5b48e01b996cadc001622fb5e363b421",
            "storage": {}
          },
          {
            "name": "miner",
            "address": "0xf927a40c8b7f6e07c5af7fa2155b4864a4112b13",
            "nonce": "0x0",
            "balance": "0x5f249a8d9c0b46705f9",
            "codeHash": "0xc5d2460186f7233c927e7db2dcc703c0e500b653ca82273b7bfad8045d85a470",
            "code": "0x",
            "storageRoot": "0x56e81f171bcc55a6ff8345e692c0f86e5b48e01b996cadc001622fb5e363b421",
            "storage": {}
          }
        ],
        "beforeRoot": "A58B1673B3764F3EF96BE81B6A9E42E3E0E00E873046938DEE2D76022272EFE0",
        "afterRoot": "B2509D7951E7B73689DB0ABD67D5C4D22E5E7A01516F21995C31D710B93DD5DC"
      }
    }
  ],
  "stateDump": {
    "before": [
      {
        "name": "sender0",
        "address": "0x6b4971f56172fe56565fd3d6b56f8ca3c91b2bad",
        "nonce": "0x2",
        "balance": "0x9d99c23fbc1c7ad5",
        "codeHash": "0xc5d2460186f7233c927e7db2dcc703c0e500b653ca82273b7bfad8045d85a470",
        "code": "0x",
        "storageRoot": "0x56e81f171bcc55a6ff8345e692c0f86e5b48e01b996cadc001622fb5e363b421",
        "storage": {}
      },
      {
        "name": "recipient0",
        "address": "0x7b2d5c63d3671092d3d44671717ea78018164661",
        "nonce": "0x0",
        "balance": "0x0",
        "codeHash": "0xc5d2460186f7233c927e7db2dcc703c0e500b653ca82273b7bfad8045d85a470",
        "code": "0x",
        "storageRoot": "0x56e81f171bcc55a6ff8345e692c0f86e5b48e01b996cadc001622fb5e363b421",
        "storage": {}
      },
      {
        "name": "miner",
        "address": "0xf927a40c8b7f6e07c5af7fa2155b4864a4112b13",
        "nonce": "0x0",
        "balance": "0x5f2499cfd29c860fcfc",
        "codeHash": "0xc5d2460186f7233c927e7db2dcc703c0e500b653ca82273b7bfad8045d85a470",
        "code": "0x",
        "storageRoot": "0x56e81f171bcc55a6ff8345e692c0f86e5b48e01b996cadc001622fb5e363b421",
        "storage": {}
      }
    ],
    "after": [
      {
        "name": "sender0",
        "address": "0x6b4971f56172fe56565fd3d6b56f8ca3c91b2bad",
        "nonce": "0x3",
        "balance": "0x9d6a5eb6605571d8",
        "codeHash": "0xc5d2460186f7233c927e7db2dcc703c0e500b653ca82273b7bfad8045d85a470",
        "code": "0x",
        "storageRoot": "0x56e81f171bcc55a6ff8345e692c0f86e5b48e01b996cadc001622fb5e363b421",
        "storage": {}
      },
      {
        "name": "recipient0",
        "address": "0x7b2d5c63d3671092d3d44671717ea78018164661",
        "nonce": "0x0",
        "balance": "0x2386f26fc10000",
        "codeHash": "0x5972ffc0214427735e7745a766b85395f83f5073a7adeb2a7a2ac0f9f0ea520a",
        "code": "0x60606040526000357c010000000000000000000000000000000000000000000000000000000090048063b19eaf1e146037576035565b005b6046600480359060200150605c565b6040518082815260200191505060405180910390f35b60006000600290505b82818202111515608d57600081840614156080578091506094565b5b80806001019150506065565b8291506094565b5091905056",
        "storageRoot": "0x56e81f171bcc55a6ff8345e692c0f86e5b48e01b996cadc001622fb5e363b421",
        "storage": {}
      },
      {
        "name": "miner",
        "address": "0xf927a40c8b7f6e07c5af7fa2155b4864a4112b13",
        "nonce": "0x0",
        "balance": "0x5f28f0c6b42f95b05f9",
        "codeHash": "0xc5d2460186f7233c927e7db2dcc703c0e500b653ca82273b7bfad8045d85a470",
        "code": "0x",
        "storageRoot": "0x56e81f171bcc55a6ff8345e692c0f86e5b48e01b996cadc001622fb5e363b421",
        "storage": {}
      }
    ]
  },
  "blockTrace": {
    "gas": 61181,
    "failed": false,
    "returnValue": "0x60606040526000357c010000000000000000000000000000000000000000000000000000000090048063b19eaf1e146037576035565b005b6046600480359060200150605c565b6040518082815260200191505060405180910390f35b60006000600290505b82818202111515608d57600081840614156080578091506094565b5b80806001019150506065565b8291506094565b5091905056",
    "structLogs": [
      {
        "op": "PUSH1",
        "pc": 0,
        "depth": 1,
        "gas": 89676,
        "stack": [],
        "memory": [],
        "storage": {},
        "gasCost": 3
      },
      {
        "op": "PUSH1",
        "pc": 2,
        "depth": 1,
        "gas": 89673,
        "stack": [
          "0000000000000000000000000000000000000000000000000000000000000060"
        ],
        "memory": [],
        "storage": {},
        "gasCost": 3
      },
      {
        "op": "MSTORE",
        "pc": 4,
        "depth": 1,
        "gas": 89670,
        "stack": [
          "0000000000000000000000000000000000000000000000000000000000000060",
          "0000000000000000000000000000000000000000000000000000000000000040"
        ],
        "memory": [],
        "storage": {},
        "gasCost": 12
      },
      {
        "op": "PUSH1",
        "pc": 5,
        "depth": 1,
        "gas": 89658,
        "stack": [],
        "memory": [
          "0000000000000000000000000000000000000000000000000000000000000000",
          "0000000000000000000000000000000000000000000000000000000000000000",
          "0000000000000000000000000000000000000000000000000000000000000060"
        ],
        "storage": {},
        "gasCost": 3
      },
      {
        "op": "DUP1",
        "pc": 7,
        "depth": 1,
        "gas": 89655,
        "stack": [
          "000000000000000000000000000000000000000000000000000000000000009a"
        ],
        "memory": [
          "0000000000000000000000000000000000000000000000000000000000000000",
          "0000000000000000000000000000000000000000000000000000000000000000",
          "0000000000000000000000000000000000000000000000000000000000000060"
        ],
        "storage": {},
        "gasCost": 3
      },
      {
        "op": "PUSH1",
        "pc": 8,
        "depth": 1,
        "gas": 89652,
        "stack": [
          "000000000000000000000000000000000000000000000000000000000000009a",
          "000000000000000000000000000000000000000000000000000000000000009a"
        ],
        "memory": [
          "0000000000000000000000000000000000000000000000000000000000000000",
          "0000000000000000000000000000000000000000000000000000000000000000",
          "0000000000000000000000000000000000000000000000000000000000000060"
        ],
        "storage": {},
        "gasCost": 3
      },
      {
        "op": "PUSH1",
        "pc": 10,
        "depth": 1,
        "gas": 89649,
        "stack": [
          "000000000000000000000000000000000000000000000000000000000000009a",
          "000000000000000000000000000000000000000000000000000000000000009a",
          "0000000000000000000000000000000000000000000000000000000000000011"
        ],
        "memory": [
          "0000000000000000000000000000000000000000000000000000000000000000",
          "0000000000000000000000000000000000000000000000000000000000000000",
          "0000000000000000000000000000000000000000000000000000000000000060"
        ],
        "storage": {},
        "gasCost": 3
      },
      {
        "op": "CODECOPY",
        "pc": 12,
        "depth": 1,
        "gas": 89646,
        "stack": [
          "000000000000000000000000000000000000000000000000000000000000009a",
          "000000000000000000000000000000000000000000000000000000000000009a",
          "0000000000000000000000000000000000000000000000000000000000000011",
          "0000000000000000000000000000000000000000000000000000000000000000"
        ],
        "memory": [
          "0000000000000000000000000000000000000000000000000000000000000000",
          "0000000000000000000000000000000000000000000000000000000000000000",
          "0000000000000000000000000000000000000000000000000000000000000060"
        ],
        "storage": {},
        "gasCost": 24
      },
      {
        "op": "PUSH1",
        "pc": 13,
        "depth": 1,
        "gas": 89622,
        "stack": [
          "000000000000000000000000000000000000000000000000000000000000009a"
        ],
        "memory": [
          "60606040526000357C0100000000000000000000000000000000000000000000",
          "00000000000090048063B19EAF1E146037576035565B005B6046600480359060",
          "200150605C565B6040518082815260200191505060405180910390F35B600060",
          "00600290505B82818202111515608D5760008184061415608057809150609456",
          "5B5B80806001019150506065565B8291506094565B5091905056000000000000"
        ],
        "storage": {},
        "gasCost": 3
      },
      {
        "op": "RETURN",
        "pc": 15,
        "depth": 1,
        "gas": 89619,
        "stack": [
          "000000000000000000000000000000000000000000000000000000000000009a",
          "0000000000000000000000000000000000000000000000000000000000000000"
        ],
        "memory": [
          "60606040526000357C0100000000000000000000000000000000000000000000",
          "00000000000090048063B19EAF1E146037576035565B005B6046600480359060",
          "200150605C565B6040518082815260200191505060405180910390F35B600060",
          "00600290505B82818202111515608D5760008184061415608057809150609456",
          "5B5B80806001019150506065565B8291506094565B5091905056000000000000"
        ],
        "storage": {},
        "gasCost": 0,
        "returnValue": "0x60606040526000357c010000000000000000000000000000000000000000000000000000000090048063b19eaf1e146037576035565b005b6046600480359060200150605c565b6040518082815260200191505060405180910390f35b60006000600290505b82818202111515608d57600081840614156080578091506094565b5b80806001019150506065565b8291506094565b5091905056"
      }
    ]
  },
  "receipts": [
    {
      "cumulativeGasUsed": 61181,
      "bloom": "00000000000000000000000000000000000000000000000000000000000000000000000000000000000000000000000000000000000000000000000000000000000000000000000000000000000000000000000000000000000000000000000000000000000000000000000000000000000000000000000000000000000000000000000000000000000000000000000000000000000000000000000000000000000000000000000000000000000000000000000000000000000000000000000000000000000000000000000000000000000000000000000000000000000000000000000000000000000000000000000000000000000000000000000000000000",
      "logs": [],
      "root": "B2509D7951E7B73689DB0ABD67D5C4D22E5E7A01516F21995C31D710B93DD5DC"
    }
  ],
  "state": {
    "0113BF000000000000": "A02F58A1FA8B4C9A945BA6CD9BEB98F0298A71D507693A4F7C8778571B4B9A0040",
    "9C14B628EAB51B7B5B1624BCCA150CAD37F679BE839E7CBD6FD5A23F6113CC53": "F901F1A088E83CF830375E1B5C4CD389E2C803F5B8E80E69A1869A198DCDD9759483CA9E80A0926C37EBDA308455D98F08EFFCC18DFE2A524469441E7D1719583489181D7151A072A403F9B5ADA10A53743CBD93AD31D21BB094E5AE4DC451935B9AAA39EB2F4EA0C7F29424051A57CA2F7C89D23734470FB6EF3D745991228963DED696664666C4A066DAD1C949E69EE8AC95ABED09F24A934D2056D51AEBF1C5B933EBF7BC9E7503A05D1D93F9EA366249216471E7576C1FDBE6510E8511369B58E875161C775E0060A000EB16FD161F6630D76DE59075FD720C4D4257758B8A44B2162B2FEE7D841F29A07E263A893FD1F4CD633A042A4602CCC26710A2FAEF57E3B5AF647E640A89215FA0AA7F022D4C024EDB4EE72EF2F0BA8B02E38F1E44EC5FFCBCD5FD378B04DEA3A5A0559520C332549E394CF61E754E6467965E64774EE089430185A87FDAED26ACC7A0DB0CD95A34F14D6FD37B9F0EA261B2611BE650A511CA6B1BCB78525E691B5EAAA0616ACC17D09C0A11EF790979E13CCC1741A4AB1704B0487A65DF5749DA209086A024B228AE92FF13CEF6D05356D640F8BBACFC200F9226BECBB1293E07E73FF284A06902E5D975054D9B347BC80D8F5F9A7B405A027DE3250E9AF69FCF843905A3A0A0250DA64C1476B73C3726970004D417A339DF041EA44DB1CB0B9CF54F0AEE27FD80",
    "A32F0BB3FFAA9AEF98D7FF8E26F117AE446A72F2FB17A66CD58F454577EC713B": "F90211A0A2F0DCFC61934BF48DA584E6892FBC2E0608663F45788ECDD3FA89308B3D6BE3A0C2E14D9412AA3303CBF34415FC15FE10EE9AA177227A001C3F805C07D4554FB8A0F3F8E2D490F4420DA631F57482AE74A6AAF61E135E5FD6664188C5070EACA544A017D4CC47A783DB73953ACE2767C8556E12358A734D543D028D7DA54BC8E95BB0A0BAE9C2F34C637C05979D677427A4EB638999E7C0584023B88E6D66CFCB41C0ACA04CFC9E4F7CB640362E763F14C48B20024887BE74FC6D970CC9BDB399BF2C1D1DA0E6CCA36112D80E7A000DFB2FA8EA93569D1C96B76BCCC5D36D6269E6ECC1708DA03552B48ECCE21BC63DE42E8420BFB483635382D4261E02F8765C1D3C45D2EF92A0A95340AD4C6A22B2F4D1E4F2BB169C567E37E21224FB67613B10806EC30CF127A0D9CFBA2BA169C9394C23E49319866EC07BFFAAA7CC1E8047CBB6DEE3AB7F3923A09C8040D944ABF7BFF15F9D29AACC17FA8595C18F823A63E85CBB9941F6E16886A04DC81B6F8E8CCE066D5483D140D0FC251D5C6F38619D9143B051030C01FE716EA09AC5FF42A36523B5493FB4FFC3F46340BC5EBF35EBEF50B4D5B2DF4BA86F881CA038517D527084889E2C197552304FE68CF0D7E10B10CF9D20858CD297545D3392A00C3AE2FFA68BF62ECBEBC2C343D008D857130E1505AEFDEB7DC192A35C81B98CA0404F4EEDB718D4BE0252A20DE242AB7C98F6C8BA73EE37EE0DA3C49A3145C44A80",
    "EC4E983A62E4607D9B77634035680E19E0660CC3D928773945C4A86C44E2BBFE": "F8719F205983F8AD36BB34D77730505275FB403A91FAF89DFCBF84A482276CAE3B3FB84FF84D808901159AB5726495D700A056E81F171BCC55A6FF8345E692C0F86E5B48E01B996CADC001622FB5E363B421A0C5D2460186F7233C927E7DB2DCC703C0E500B653CA82273B7BFAD8045D85A470",
    "ACC4303FFFE86EEBCDFE0CA066E0C6C37B5CDBDA61B78C39C186B44950772092": "F9010D822080B90107F9010402850CB4BDA2018301D4C080872386F26FC10000B8AB6060604052609A8060116000396000F30060606040526000357C010000000000000000000000000000000000000000000000000000000090048063B19EAF1E146037576035565B005B6046600480359060200150605C565B6040518082815260200191505060405180910390F35B60006000600290505B82818202111515608D57600081840614156080578091506094565B5B80806001019150506065565B8291506094565B50919050561CA095EC8C58951BA31DB77747544473EF9A522E4AF5F62ED60EC132BDA73A58C80EA07432CAD9F4F3CE7FEEC8193F72C6D7E585C0086C8848A3F9E165FEB4A94BA556",
    "28DE31BC2BAFF4ACDB6A988B65BF666AABCE25EBC686AAE8FA0D9DEF89422586": "F8518080808080808080A0741C85B07BA74C67D777D6271D6DEBD62FABE9A4D5263038FBAC96DE80948E3F80A0EC4E983A62E4607D9B77634035680E19E0660CC3D928773945C4A86C44E2BBFE808080808080",
    "002F58A1FA8B4C9A945BA6CD9BEB98F0298A71D507693A4F7C8778571B4B9A0040": "F90217A01A1DE7B8FADDFE64EDF3EAADC484C6FFC76537DB17F6B51BE8E496A12753FC7AA01DCC4DE8DEC75D7AAB85B567B6CCD41AD312451B948A7413F0A142FD40D4934794F927A40C8B7F6E07C5AF7FA2155B4864A4112B13A0BFA3D3298FC19819F0C6E8A48058E9CD3B6DAC0B90C7E3041E7D08842D3974D9A0ACC4303FFFE86EEBCDFE0CA066E0C6C37B5CDBDA61B78C39C186B44950772092A0D7C90EB090E3A41004FD2B586097536FEAF68FDD9E9296753DA68DC09E629015B90100000000000000000000000000000000000000000000000000000000000000000000000000000000000000000000000000000000000000000000000000000000000000000000000000000000000000000000000000000000000000000000000000000000000000000000000000000000000000000000000000000000000000000000000000000000000000000000000000000000000000000000000000000000000000000000000000000000000000000000000000000000000000000000000000000000000000000000000000000000000000000000000000000000000000000000000000000000000000000000000000000000000000000000000000000000008601586DF13DC282BF13830210B082EEFD8455C4DD2299476574682F76312E302E312F6C696E75782F676F312E342E32A0CE196A0C41007C33849D5972408CFD6FC86D7DDB9AECABC3A5FDD8129C4938E488BA7EB4FA7CE088D3",
    "001A1DE7B8FADDFE64EDF3EAADC484C6FFC76537DB17F6B51BE8E496A12753FC7A": "F90217A0F87C791E9EC124D5195AC01DA503E96976FB7778C52F7839C1EB8F086648437CA01DCC4DE8DEC75D7AAB85B567B6CCD41AD312451B948A7413F0A142FD40D49347949D240FC84828526E0C5A46FDF84B94EF888F8D61A0A58B1673B3764F3EF96BE81B6A9E42E3E0E00E873046938DEE2D76022272EFE0A056E81F171BCC55A6FF8345E692C0F86E5B48E01B996CADC001622FB5E363B421A056E81F171BCC55A6FF8345E692C0F86E5B48E01B996CADC001622FB5E363B421B901000000000000000000000000000000000000000000000000000000000000000000000000000000000000000000000000000000000000000000000000000000000000000000000000000000000000000000000000000000000000000000000000000000000000000000000000000000000000000000000000000000000000000000000000000000000000000000000000000000000000000000000000000000000000000000000000000000000000000000000000000000000000000000000000000000000000000000000000000000000000000000000000000000000000000000000000000000000000000000000000000000000000000000000000000000000086015842E8E0A682BF128302102D808455C4DD199BDA8098302E392E33382B2B302D524C696E75782F672B2B2F696E74A0CCF792A230ED9BF5B3CBF69AEF8E9ABA553564178794C33723580F37395AA98F8849E39D01D8952C76",
    "E6428B693E7CA3548DF8A1A736870E40E3392BEF339F250C9D3CD3CC08335B9F": "F8719E3A0FA8776951DFB66B84E3329ED5119C2EC46651161A4EE80B063C2742F3B850F84E808A05F2499CFD29C860FCFCA056E81F171BCC55A6FF8345E692C0F86E5B48E01B996CADC001622FB5E363B421A0C5D2460186F7233C927E7DB2DCC703C0E500B653CA82273B7BFAD8045D85A470",
    "2C4B4F11589419532C92A329C18300F1D159019F9BD3403A9CE1BDDDFCDEBEAB": "F8709F202DC60F03940053D492C65ADBA3C8FE8B8B866F19AB43767A594132740B23B84EF84C02889D99C23FBC1C7AD5A056E81F171BCC55A6FF8345E692C0F86E5B48E01B996CADC001622FB5E363B421A0C5D2460186F7233C927E7DB2DCC703C0E500B653CA82273B7BFAD8045D85A470",
    "C46EB5DD93F143CD144F66A20727958E435A96DC730E454B3886259E81BC6942": "F851808080A0E6428B693E7CA3548DF8A1A736870E40E3392BEF339F250C9D3CD3CC08335B9FA091A2BE08E82E80573E6D6577265874C45DA30D924D1D35306982DACCB72E7E7C808080808080808080808080",
    "56E81F171BCC55A6FF8345E692C0F86E5B48E01B996CADC001622FB5E363B421": "80",
    "D7C90EB090E3A41004FD2B586097536FEAF68FDD9E9296753DA68DC09E629015": "F90131822080B9012BF90128A0B2509D7951E7B73689DB0ABD67D5C4D22E5E7A01516F21995C31D710B93DD5DC82EEFDB9010000000000000000000000000000000000000000000000000000000000000000000000000000000000000000000000000000000000000000000000000000000000000000000000000000000000000000000000000000000000000000000000000000000000000000000000000000000000000000000000000000000000000000000000000000000000000000000000000000000000000000000000000000000000000000000000000000000000000000000000000000000000000000000000000000000000000000000000000000000000000000000000000000000000000000000000000000000000000000000000000000000000000000000000000000000000C0",
    "D887B922756CB299C51ED268C25202CBA486CCEF650CE4E9281BB9C712AC1F0F": "F90211A0AA1EEE6095B2FD476661488E9EF0A2934FD51BFA87862F071FB32327965BB10DA02FCFA52FE9A4EA090456E6ED20A8542AC9209A0A0DF8E031450A62D4E9726D70A0D72DB1B5891244F0C01C1B62D96A6D3667DBF934F75E5A9054E18F0B6A39FE16A056410320A3302BAAFFEA6F1E0E90D85F4F0CDC6FAF49DF63BDB93D14DA61D72BA0EFBD81A90220CCECAB4BBD7C2BA7382DBCFAF7C9233A094F54F79D12EB60AC1EA045385604B6EE7E5D60EA07FDDCC68607A2756655B64D0028681E3A3468E0A7D7A0C1E73D2BA0DA2B90E81AD967A9A7FAC81243A6F9B51C2AB360968CB7948C264AA041631647226A276634D30FA55CA84FE7A7AEC9ABD04017586AD38EAF1FE03FFCA049BFE4193BA3989528D2D8C4CA257FDB7DA6FA93C43F19795F7087ACEC037802A097578A6BD11ECF776D83DFA130A9F14A046EA49EACA09177D80F9DDE6D4036B0A03B81D7918D43B77C11EFFE2D4B1468F63799AD3EE063D756DBD0895A3297CCB8A0FF4F800E49E557ECB21F3171E660E31F39FF0C3F64D38A91704C313C2B5BE505A0151F27E4BA8D7908B61503664D2B1BB7CC7B63AECAE0BDB9F791A06612FB2D84A09BA7965B10EAB064024967918822D57820644A72D9EC6635E01623B567EF4CD8A0FA27B3D06B359E6A58BE3CE09273D5C29E3617D27FCE7D7AA5C4F68277993BCFA0CCBDF0F66A60FA570FB8B0EDE5CE164A93A50955ECD3E2611A5A97987A13C5B280",
    "AA7F022D4C024EDB4EE72EF2F0BA8B02E38F1E44EC5FFCBCD5FD378B04DEA3A5": "F8B180808080A099412CDB32732EACCCC8CBEAFDE1AEDBD85A6026EDE0EBF23555ECEEE4FEFE668080808080A0C46EB5DD93F143CD144F66A20727958E435A96DC730E454B3886259E81BC694280A099B7C72C7C0BA2132E2BF925FD3BF161032EE026C67C08BFE7EE3A14C68CA33EA05A94175D08957E584142462BAE48584CF12778B414D33325A97513F7647B87BA80A0580388C98E06D5F95EC3D5FCC8F1B2E742E0257AC6BFE266CB76C632CD68D2AE80",
    "BAE9C2F34C637C05979D677427A4EB638999E7C0584023B88E6D66CFCB41C0AC": "F90211A099AE1BBB2D9D0774E3753CFA37A02D5177077759762F481F0204382E3F86D8E1A06CC4E1093C86CB3D16A163F8E80D32561FD91928C9D27DFABC6D9B35D790BF4AA0E4B4F3B11C7FE02914C0C778928AD124242BF8A1EF494773908A6F4E3EB80302A085A0FC77E7588178E826804E2830FA202506B5609F47A74FB0A07F0E980B7E0FA035D0766357755D2718274A2D32B698CA45F6C070AF83438A2255F0CED7D3433BA0E1AC3D4F12C335FEFD48C1CDD3D68AD30BA15CD394E6DF6F86899B9E331DCB47A054403D0DD5FBCD2F90D655EFC840E88D8F5AB0C625FEFF88C8065F94CD75B632A0EB9437DE6315224B73C42A24C59CA1B528C01D1EE5FBF88C542A9BC545E0B7F4A01807E1920E595B3D15A27F7D5B7AC06B7164B527741A839F288F9A1BB6CEFE37A0D26DE39C72431C00D164FF63F8653578EDF1E3485CA50A22A1113960AE2968FAA009481E0C6F9A84A372F405C05A5C7A6D98A1AA567C085988F0610C5D4001E96BA028DE31BC2BAFF4ACDB6A988B65BF666AABCE25EBC686AAE8FA0D9DEF89422586A03467446762AEDF17213F54C6905FA2C6D6ED13D36AEA60A891D700FD11DB9918A028F820F6CCE6CD04C0488362E9B7B25826DFA013A429375BAE8A6D11B6DD4CFBA0E317E3718E0EF5E074FA42555FD328C9538079AE8DD2DB0F768D7CEA161633B4A0F6A2135F2EFB0F9C136B7C3891083D104B7703423E3262FA5DF2D786FE2AC35180",
    "6F29D5E27A8101B0EBB9AD7C5BB4C5D6281DB0819FEAA145AC9B92B06F06D2F4": "F851A09248178E613C773413426F553D17391396BF5335D065BB91125F1D19909CC7B9808080808080808080808080A02C4B4F11589419532C92A329C18300F1D159019F9BD3403A9CE1BDDDFCDEBEAB808080",
    "A58B1673B3764F3EF96BE81B6A9E42E3E0E00E873046938DEE2D76022272EFE0": "F90211A0C649AC919BF49CA45A107C983923DA69DD6B5750DF751DDFDB6B8604E1746214A0C436E429EF18393371E9FC06AF236C566D611EFD706D63259F2424D8C91A67E0A0D714090A0C8ED123E2EB61921E1192955272DB96FF01CBE3C53295DFD707D1C8A0E13C230643DD6978E73F24AEC7047F556903D9C0A56A0ACBE0DE6D7520009F24A0A32F0BB3FFAA9AEF98D7FF8E26F117AE446A72F2FB17A66CD58F454577EC713BA0EF7B52C7EB4E3DB41A06EACAD286697576641713548EDCD962F932E453B38038A015F11FCE293BDA73BF5B88DCDF19BF1D87C62D74FF12BF159E18E310E10C1216A0CF0475D947298509DEE9346ACCD2639A4BAA61193455C8F0B73E81E504B4BA48A036E667772E31D6B06B1F4F77C4C2EEA5D16827FB05080B54B975AAC780222111A0342A3B0920517BDEB20C175943096FF8209BBABB99144C781675C5A4C04D4735A04DDD9A19DE93CF5E63B47FE9EA55504D32D1E57990C3ABB86E9BFFCB298A979EA0D887B922756CB299C51ED268C25202CBA486CCEF650CE4E9281BB9C712AC1F0FA0E1F69ADFA15AC611CB243B1F3A5211EF20880940F80244A8A336FF5AF280B6D4A0CC4D02FC5DEEB03FF14E97253BC56E1D906DBD13EFC22331868DDF20ED96CE6AA0310ACCA7E63F449D1D0324ED9719152564D15BE16118C98BF68FA9C4FDC7654CA0450E0A740AFDEE044D80D5FDCE72E1F390A3859866A83CB1D7F14BF97C80A21580",
    "97578A6BD11ECF776D83DFA130A9F14A046EA49EACA09177D80F9DDE6D4036B0": "F90211A034E5145D4C81B7ABB866099A81F89650C50612B6834EF755C805D0237FFDC374A01D274D2610B25F4697AA04A5B0E778CF2743BD4B95B815F4CF361005C38C1993A075B3F4B5829430BAA18117C00AA749C5A66CD574FE11B8A5F84263FF510C2914A0DC9F2893FFB40925781CC680EF08EF00B8D0CEC5DB6BF2FAC06988D5BF1EA57AA0D9A128FED424CBD1F39A9C594033E91251F221F76FD61CBF225DB8E207D9F125A0BEE2C5849696681D34FB75B696AAC4CD2DF94E9E8E9E50351C0367E1A210C304A001DAF4435DDC997172657B192CD0E3586440F6191D180D6E42A036F88F704280A0F5DE6619D2F53E001C0EB2A83009B70094773845D850AED567A57067FF0DB7C3A0A53B03CA1D95929C9F467B57E215F5A59C29FD8DD91FEA747E664F16FC6BCC9AA0D0575B9F9FEBEC720713D7EF1340D569D1F0770EAA936212A96741AF04E0D3FCA0C7865AE2888221CFA4C5018E56DDE4DFE7F05E98AEAF1C772EFE2056158755CEA05931F5D8C980B59506138118EA96C85E1BED39977F055D4AA3ED3A3A07235DBAA084A776D99F2BC3C0031089E17EE02618C8CC6FD52ECBCA9B126679DF3993E542A02579D6F22DB32F9EB5CDBF2FE8A03E2D08C80B5D188B523D8CE87B5275DC0E85A0CBEBB2B38685061EBFE9FA0BCFCF86372A74D0C561277AC31C36038B437C3E9CA06F29D5E27A8101B0EBB9AD7C5BB4C5D6281DB0819FEAA145AC9B92B06F06D2F480",
    "E13C230643DD6978E73F24AEC7047F556903D9C0A56A0ACBE0DE6D7520009F24": "F90211A04BCF1259EC8608F727CE64DBFB74BEDD81E74560267A660639A1BE1CFB6275C2A09C14B628EAB51B7B5B1624BCCA150CAD37F679BE839E7CBD6FD5A23F6113CC53A0BBC112198622132A0858EB7639B6456576D655EE41E9876A7A146F57F9194F74A0867935708A4B562CD7035D2F80B480DEBC8A4361AC2924C316E51FC4B99788DEA0E883076EC147EC8082D705748693A40C6B7A19B82DC55DF88C135736907876DAA02B3F2B1E7320A163C3232F3206A24AA9B7E53C89B687BBECC4287DAD2F84B132A0754527D44352BC93714F0AC0668617AB6B89D1F48E9AC64569365E57AC2BD180A080EA5C91983D46139B39D8579347BCF825A38F3DDE83BE31843FEB34CEFA637AA079ED9FFB3224B77247C359432846E430B27C04F040B36B965F0E1AA52DD378A3A09D8BA9B75F931AF86A90A4D887A6674AFAA694F4C64D527427A5CC98C5BEEA77A0BA2074B2ABBEFCE5268B49E80C55DFDEAE441AE2F4C92B557D8CF025479235EFA04EA73056BABDBE1D1DE9545EAB1E707A0578A05F1651E5D0A1632BDA56404ADAA092637349C1C6E3B88F7984F7DE9FDD856E5E5C8C8A278DD5F4B3C8F035EC9FE5A060C0D32F3848AB2D68B54D45CF7102B347B72CEE08C15DCAD58BD6E1C4C5B8B7A09ECB75240F09F97D0342035C5EE6545FA806145F0EBBE90EB7BC11FF50272415A01DEEA9C7524001E91ACDE6B08880C0BA504D06D7B92179DE97ACF4A53A62C8EB80"
  }
}