{
  "blockNumber": "b542",
  "txTraces": [
    {
      "gas": 24000,
      "failed": true,
      "returnValue": "",
      "structLogs": [
        {
          "op": "PUSH1",
          "pc": 0,
          "depth": 1,
          "gas": 532,
          "stack": [],
          "memory": [],
          "storage": {},
          "gasCost": 3
        },
        {
          "op": "PUSH1",
          "pc": 2,
          "depth": 1,
          "gas": 529,
          "stack": [
            "0000000000000000000000000000000000000000000000000000000000000060"
          ],
          "memory": [],
          "storage": {},
          "gasCost": 3
        },
        {
          "op": "MSTORE",
          "pc": 4,
          "depth": 1,
          "gas": 526,
          "stack": [
            "0000000000000000000000000000000000000000000000000000000000000060",
            "0000000000000000000000000000000000000000000000000000000000000040"
          ],
          "memory": [],
          "storage": {},
          "gasCost": 12
        },
        {
          "op": "PUSH1",
          "pc": 5,
          "depth": 1,
          "gas": 514,
          "stack": [],
          "memory": [
            "0000000000000000000000000000000000000000000000000000000000000000",
            "0000000000000000000000000000000000000000000000000000000000000000",
            "0000000000000000000000000000000000000000000000000000000000000060"
          ],
          "storage": {},
          "gasCost": 3
        },
        {
          "op": "DUP1",
          "pc": 7,
          "depth": 1,
          "gas": 511,
          "stack": [
            "0000000000000000000000000000000000000000000000000000000000000000"
          ],
          "memory": [
            "0000000000000000000000000000000000000000000000000000000000000000",
            "0000000000000000000000000000000000000000000000000000000000000000",
            "0000000000000000000000000000000000000000000000000000000000000060"
          ],
          "storage": {},
          "gasCost": 3
        },
        {
          "op": "SLOAD",
          "pc": 8,
          "depth": 1,
          "gas": 508,
          "stack": [
            "0000000000000000000000000000000000000000000000000000000000000000",
            "0000000000000000000000000000000000000000000000000000000000000000"
          ],
          "memory": [
            "0000000000000000000000000000000000000000000000000000000000000000",
            "0000000000000000000000000000000000000000000000000000000000000000",
            "0000000000000000000000000000000000000000000000000000000000000060"
          ],
          "storage": {},
          "gasCost": 50
        },
        {
          "op": "PUSH1",
          "pc": 9,
          "depth": 1,
          "gas": 458,
          "stack": [
            "0000000000000000000000000000000000000000000000000000000000000000",
            "0000000000000000000000000000000000000000000000000000000000000000"
          ],
          "memory": [
            "0000000000000000000000000000000000000000000000000000000000000000",
            "0000000000000000000000000000000000000000000000000000000000000000",
            "0000000000000000000000000000000000000000000000000000000000000060"
          ],
          "storage": {},
          "gasCost": 3
        },
        {
          "op": "PUSH1",
          "pc": 11,
          "depth": 1,
          "gas": 455,
          "stack": [
            "0000000000000000000000000000000000000000000000000000000000000000",
            "0000000000000000000000000000000000000000000000000000000000000000",
            "0000000000000000000000000000000000000000000000000000000000000001"
          ],
          "memory": [
            "0000000000000000000000000000000000000000000000000000000000000000",
            "0000000000000000000000000000000000000000000000000000000000000000",
            "0000000000000000000000000000000000000000000000000000000000000060"
          ],
          "storage": {},
          "gasCost": 3
        },
        {
          "op": "PUSH1",
          "pc": 13,
          "depth": 1,
          "gas": 452,
          "stack": [
            "0000000000000000000000000000000000000000000000000000000000000000",
            "0000000000000000000000000000000000000000000000000000000000000000",
            "0000000000000000000000000000000000000000000000000000000000000001",
            "00000000000000000000000000000000000000000000000000000000000000a0"
          ],
          "memory": [
            "0000000000000000000000000000000000000000000000000000000000000000",
            "0000000000000000000000000000000000000000000000000000000000000000",
            "0000000000000000000000000000000000000000000000000000000000000060"
          ],
          "storage": {},
          "gasCost": 3
        },
        {
          "op": "EXP",
          "pc": 15,
          "depth": 1,
          "gas": 449,
          "stack": [
            "0000000000000000000000000000000000000000000000000000000000000000",
            "0000000000000000000000000000000000000000000000000000000000000000",
            "0000000000000000000000000000000000000000000000000000000000000001",
            "00000000000000000000000000000000000000000000000000000000000000a0",
            "0000000000000000000000000000000000000000000000000000000000000002"
          ],
          "memory": [
            "0000000000000000000000000000000000000000000000000000000000000000",
            "0000000000000000000000000000000000000000000000000000000000000000",
            "0000000000000000000000000000000000000000000000000000000000000060"
          ],
          "storage": {},
          "gasCost": 20
        },
        {
          "op": "SUB",
          "pc": 16,
          "depth": 1,
          "gas": 429,
          "stack": [
            "0000000000000000000000000000000000000000000000000000000000000000",
            "0000000000000000000000000000000000000000000000000000000000000000",
            "0000000000000000000000000000000000000000000000000000000000000001",
            "0000000000000000000000010000000000000000000000000000000000000000"
          ],
          "memory": [
            "0000000000000000000000000000000000000000000000000000000000000000",
            "0000000000000000000000000000000000000000000000000000000000000000",
            "0000000000000000000000000000000000000000000000000000000000000060"
          ],
          "storage": {},
          "gasCost": 3
        },
        {
          "op": "NOT",
          "pc": 17,
          "depth": 1,
          "gas": 426,
          "stack": [
            "0000000000000000000000000000000000000000000000000000000000000000",
            "0000000000000000000000000000000000000000000000000000000000000000",
            "000000000000000000000000ffffffffffffffffffffffffffffffffffffffff"
          ],
          "memory": [
            "0000000000000000000000000000000000000000000000000000000000000000",
            "0000000000000000000000000000000000000000000000000000000000000000",
            "0000000000000000000000000000000000000000000000000000000000000060"
          ],
          "storage": {},
          "gasCost": 3
        },
        {
          "op": "AND",
          "pc": 18,
          "depth": 1,
          "gas": 423,
          "stack": [
            "0000000000000000000000000000000000000000000000000000000000000000",
            "0000000000000000000000000000000000000000000000000000000000000000",
            "ffffffffffffffffffffffff0000000000000000000000000000000000000000"
          ],
          "memory": [
            "0000000000000000000000000000000000000000000000000000000000000000",
            "0000000000000000000000000000000000000000000000000000000000000000",
            "0000000000000000000000000000000000000000000000000000000000000060"
          ],
          "storage": {},
          "gasCost": 3
        },
        {
          "op": "CALLER",
          "pc": 19,
          "depth": 1,
          "gas": 420,
          "stack": [
            "0000000000000000000000000000000000000000000000000000000000000000",
            "0000000000000000000000000000000000000000000000000000000000000000"
          ],
          "memory": [
            "0000000000000000000000000000000000000000000000000000000000000000",
            "0000000000000000000000000000000000000000000000000000000000000000",
            "0000000000000000000000000000000000000000000000000000000000000060"
          ],
          "storage": {},
          "gasCost": 2
        },
        {
          "op": "OR",
          "pc": 20,
          "depth": 1,
          "gas": 418,
          "stack": [
            "0000000000000000000000000000000000000000000000000000000000000000",
            "0000000000000000000000000000000000000000000000000000000000000000",
            "000000000000000000000000a1e4380a3b1f749673e270229993ee55f35663b4"
          ],
          "memory": [
            "0000000000000000000000000000000000000000000000000000000000000000",
            "0000000000000000000000000000000000000000000000000000000000000000",
            "0000000000000000000000000000000000000000000000000000000000000060"
          ],
          "storage": {},
          "gasCost": 3
        },
        {
          "op": "SWAP1",
          "pc": 21,
          "depth": 1,
          "gas": 415,
          "stack": [
            "0000000000000000000000000000000000000000000000000000000000000000",
            "000000000000000000000000a1e4380a3b1f749673e270229993ee55f35663b4"
          ],
          "memory": [
            "0000000000000000000000000000000000000000000000000000000000000000",
            "0000000000000000000000000000000000000000000000000000000000000000",
            "0000000000000000000000000000000000000000000000000000000000000060"
          ],
          "storage": {},
          "gasCost": 3
        },
        {
          "op": "SSTORE",
          "pc": 22,
          "depth": 1,
          "gas": 412,
          "stack": [
            "000000000000000000000000a1e4380a3b1f749673e270229993ee55f35663b4",
            "0000000000000000000000000000000000000000000000000000000000000000"
          ],
          "memory": [
            "0000000000000000000000000000000000000000000000000000000000000000",
            "0000000000000000000000000000000000000000000000000000000000000000",
            "0000000000000000000000000000000000000000000000000000000000000060"
          ],
          "error": "Opcode Dispatch Error: Out of gas: Needed 20000 - Remaining 412 - Reason: SSTORE, depth=1",
          "gasCost": 0
        }
      ],
      "stateDiff": {
        "before": [
          {
            "name": "sender",
            "address": "0xa1e4380a3b1f749673e270229993ee55f35663b4",
            "nonce": "0x3",
            "balance": "0x6c3ed29108159090c5",
            "codeHash": "0xc5d2460186f7233c927e7db2dcc703c0e500b653ca82273b7bfad8045d85a470",
            "code": "0x",
            "storageRoot": "0x56e81f171bcc55a6ff8345e692c0f86e5b48e01b996cadc001622fb5e363b421",
            "storage": {}
          },
          {
            "name": "recipient",
            "address": "0x9a049f5d18c239efaa258af9f3e7002949a977a0",
            "nonce": "0x0",
            "balance": "0x0",
            "codeHash": "0xc5d2460186f7233c927e7db2dcc703c0e500b653ca82273b7bfad8045d85a470",
            "code": "0x",
            "storageRoot": "0x56e81f171bcc55a6ff8345e692c0f86e5b48e01b996cadc001622fb5e363b421",
            "storage": {}
          },
          {
            "name": "miner",
            "address": "0x01434e4ac3238bec44a39ad642ababbb68d097e6",
            "nonce": "0x0",
            "balance": "0x10c570cb5c6a798000",
            "codeHash": "0xc5d2460186f7233c927e7db2dcc703c0e500b653ca82273b7bfad8045d85a470",
            "code": "0x",
            "storageRoot": "0x56e81f171bcc55a6ff8345e692c0f86e5b48e01b996cadc001622fb5e363b421",
            "storage": {}
          }
        ],
        "after": [
          {
            "name": "sender",
            "address": "0xa1e4380a3b1f749673e270229993ee55f35663b4",
            "nonce": "0x4",
            "balance": "0x6c3b7dea4d9b7890c5",
            "codeHash": "0xc5d2460186f7233c927e7db2dcc703c0e500b653ca82273b7bfad8045d85a470",
            "code": "0x",
            "storageRoot": "0x56e81f171bcc55a6ff8345e692c0f86e5b48e01b996cadc001622fb5e363b421",
            "storage": {}
          },
          {
            "name": "recipient",
            "address": "0x9a049f5d18c239efaa258af9f3e7002949a977a0",
            "nonce": "0x0",
            "balance": "0x0",
            "codeHash": "0xc5d2460186f7233c927e7db2dcc703c0e500b653ca82273b7bfad8045d85a470",
            "code": "0x",
            "storageRoot": "0x56e81f171bcc55a6ff8345e692c0f86e5b48e01b996cadc001622fb5e363b421",
            "storage": {}
          },
          {
            "name": "miner",
            "address": "0x01434e4ac3238bec44a39ad642ababbb68d097e6",
            "nonce": "0x0",
            "balance": "0x10c8c57216e4918000",
            "codeHash": "0xc5d2460186f7233c927e7db2dcc703c0e500b653ca82273b7bfad8045d85a470",
            "code": "0x",
            "storageRoot": "0x56e81f171bcc55a6ff8345e692c0f86e5b48e01b996cadc001622fb5e363b421",
            "storage": {}
          }
        ],
        "beforeRoot": "B4B462E3F1894D4D2C50F18B23B22792BDC95ABF09061E662A1C0B7293EEDEBE",
        "afterRoot": "202FDC79415E532F84009D8D5836EC3BB09D3DD75220EAB0092603AA53BB2046"
      }
    }
  ],
  "stateDump": {
    "before": [
      {
        "name": "sender0",
        "address": "0xa1e4380a3b1f749673e270229993ee55f35663b4",
        "nonce": "0x3",
        "balance": "0x6c3ed29108159090c5",
        "codeHash": "0xc5d2460186f7233c927e7db2dcc703c0e500b653ca82273b7bfad8045d85a470",
        "code": "0x",
        "storageRoot": "0x56e81f171bcc55a6ff8345e692c0f86e5b48e01b996cadc001622fb5e363b421",
        "storage": {}
      },
      {
        "name": "recipient0",
        "address": "0x9a049f5d18c239efaa258af9f3e7002949a977a0",
        "nonce": "0x0",
        "balance": "0x0",
        "codeHash": "0xc5d2460186f7233c927e7db2dcc703c0e500b653ca82273b7bfad8045d85a470",
        "code": "0x",
        "storageRoot": "0x56e81f171bcc55a6ff8345e692c0f86e5b48e01b996cadc001622fb5e363b421",
        "storage": {}
      },
      {
        "name": "miner",
        "address": "0x01434e4ac3238bec44a39ad642ababbb68d097e6",
        "nonce": "0x0",
        "balance": "0x10c570cb5c6a798000",
        "codeHash": "0xc5d2460186f7233c927e7db2dcc703c0e500b653ca82273b7bfad8045d85a470",
        "code": "0x",
        "storageRoot": "0x56e81f171bcc55a6ff8345e692c0f86e5b48e01b996cadc001622fb5e363b421",
        "storage": {}
      }
    ],
    "after": [
      {
        "name": "sender0",
        "address": "0xa1e4380a3b1f749673e270229993ee55f35663b4",
        "nonce": "0x4",
        "balance": "0x6c3b7dea4d9b7890c5",
        "codeHash": "0xc5d2460186f7233c927e7db2dcc703c0e500b653ca82273b7bfad8045d85a470",
        "code": "0x",
        "storageRoot": "0x56e81f171bcc55a6ff8345e692c0f86e5b48e01b996cadc001622fb5e363b421",
        "storage": {}
      },
      {
        "name": "recipient0",
        "address": "0x9a049f5d18c239efaa258af9f3e7002949a977a0",
        "nonce": "0x0",
        "balance": "0x0",
        "codeHash": "0xc5d2460186f7233c927e7db2dcc703c0e500b653ca82273b7bfad8045d85a470",
        "code": "0x",
        "storageRoot": "0x56e81f171bcc55a6ff8345e692c0f86e5b48e01b996cadc001622fb5e363b421",
        "storage": {}
      },
      {
        "name": "miner",
        "address": "0x01434e4ac3238bec44a39ad642ababbb68d097e6",
        "nonce": "0x0",
        "balance": "0x110e29039929858000",
        "codeHash": "0xc5d2460186f7233c927e7db2dcc703c0e500b653ca82273b7bfad8045d85a470",
        "code": "0x",
        "storageRoot": "0x56e81f171bcc55a6ff8345e692c0f86e5b48e01b996cadc001622fb5e363b421",
        "storage": {}
      }
    ]
  },
  "blockTrace": {
    "gas": 24000,
    "failed": true,
    "returnValue": "",
    "structLogs": [
      {
        "op": "PUSH1",
        "pc": 0,
        "depth": 1,
        "gas": 532,
        "stack": [],
        "memory": [],
        "storage": {},
        "gasCost": 3
      },
      {
        "op": "PUSH1",
        "pc": 2,
        "depth": 1,
        "gas": 529,
        "stack": [
          "0000000000000000000000000000000000000000000000000000000000000060"
        ],
        "memory": [],
        "storage": {},
        "gasCost": 3
      },
      {
        "op": "MSTORE",
        "pc": 4,
        "depth": 1,
        "gas": 526,
        "stack": [
          "0000000000000000000000000000000000000000000000000000000000000060",
          "0000000000000000000000000000000000000000000000000000000000000040"
        ],
        "memory": [],
        "storage": {},
        "gasCost": 12
      },
      {
        "op": "PUSH1",
        "pc": 5,
        "depth": 1,
        "gas": 514,
        "stack": [],
        "memory": [
          "0000000000000000000000000000000000000000000000000000000000000000",
          "0000000000000000000000000000000000000000000000000000000000000000",
          "0000000000000000000000000000000000000000000000000000000000000060"
        ],
        "storage": {},
        "gasCost": 3
      },
      {
        "op": "DUP1",
        "pc": 7,
        "depth": 1,
        "gas": 511,
        "stack": [
          "0000000000000000000000000000000000000000000000000000000000000000"
        ],
        "memory": [
          "0000000000000000000000000000000000000000000000000000000000000000",
          "0000000000000000000000000000000000000000000000000000000000000000",
          "0000000000000000000000000000000000000000000000000000000000000060"
        ],
        "storage": {},
        "gasCost": 3
      },
      {
        "op": "SLOAD",
        "pc": 8,
        "depth": 1,
        "gas": 508,
        "stack": [
          "0000000000000000000000000000000000000000000000000000000000000000",
          "0000000000000000000000000000000000000000000000000000000000000000"
        ],
        "memory": [
          "0000000000000000000000000000000000000000000000000000000000000000",
          "0000000000000000000000000000000000000000000000000000000000000000",
          "0000000000000000000000000000000000000000000000000000000000000060"
        ],
        "storage": {},
        "gasCost": 50
      },
      {
        "op": "PUSH1",
        "pc": 9,
        "depth": 1,
        "gas": 458,
        "stack": [
          "0000000000000000000000000000000000000000000000000000000000000000",
          "0000000000000000000000000000000000000000000000000000000000000000"
        ],
        "memory": [
          "0000000000000000000000000000000000000000000000000000000000000000",
          "0000000000000000000000000000000000000000000000000000000000000000",
          "0000000000000000000000000000000000000000000000000000000000000060"
        ],
        "storage": {},
        "gasCost": 3
      },
      {
        "op": "PUSH1",
        "pc": 11,
        "depth": 1,
        "gas": 455,
        "stack": [
          "0000000000000000000000000000000000000000000000000000000000000000",
          "0000000000000000000000000000000000000000000000000000000000000000",
          "0000000000000000000000000000000000000000000000000000000000000001"
        ],
        "memory": [
          "0000000000000000000000000000000000000000000000000000000000000000",
          "0000000000000000000000000000000000000000000000000000000000000000",
          "0000000000000000000000000000000000000000000000000000000000000060"
        ],
        "storage": {},
        "gasCost": 3
      },
      {
        "op": "PUSH1",
        "pc": 13,
        "depth": 1,
        "gas": 452,
        "stack": [
          "0000000000000000000000000000000000000000000000000000000000000000",
          "0000000000000000000000000000000000000000000000000000000000000000",
          "0000000000000000000000000000000000000000000000000000000000000001",
          "00000000000000000000000000000000000000000000000000000000000000a0"
        ],
        "memory": [
          "0000000000000000000000000000000000000000000000000000000000000000",
          "0000000000000000000000000000000000000000000000000000000000000000",
          "0000000000000000000000000000000000000000000000000000000000000060"
        ],
        "storage": {},
        "gasCost": 3
      },
      {
        "op": "EXP",
        "pc": 15,
        "depth": 1,
        "gas": 449,
        "stack": [
          "0000000000000000000000000000000000000000000000000000000000000000",
          "0000000000000000000000000000000000000000000000000000000000000000",
          "0000000000000000000000000000000000000000000000000000000000000001",
          "00000000000000000000000000000000000000000000000000000000000000a0",
          "0000000000000000000000000000000000000000000000000000000000000002"
        ],
        "memory": [
          "0000000000000000000000000000000000000000000000000000000000000000",
          "0000000000000000000000000000000000000000000000000000000000000000",
          "0000000000000000000000000000000000000000000000000000000000000060"
        ],
        "storage": {},
        "gasCost": 20
      },
      {
        "op": "SUB",
        "pc": 16,
        "depth": 1,
        "gas": 429,
        "stack": [
          "0000000000000000000000000000000000000000000000000000000000000000",
          "0000000000000000000000000000000000000000000000000000000000000000",
          "0000000000000000000000000000000000000000000000000000000000000001",
          "0000000000000000000000010000000000000000000000000000000000000000"
        ],
        "memory": [
          "0000000000000000000000000000000000000000000000000000000000000000",
          "0000000000000000000000000000000000000000000000000000000000000000",
          "0000000000000000000000000000000000000000000000000000000000000060"
        ],
        "storage": {},
        "gasCost": 3
      },
      {
        "op": "NOT",
        "pc": 17,
        "depth": 1,
        "gas": 426,
        "stack": [
          "0000000000000000000000000000000000000000000000000000000000000000",
          "0000000000000000000000000000000000000000000000000000000000000000",
          "000000000000000000000000ffffffffffffffffffffffffffffffffffffffff"
        ],
        "memory": [
          "0000000000000000000000000000000000000000000000000000000000000000",
          "0000000000000000000000000000000000000000000000000000000000000000",
          "0000000000000000000000000000000000000000000000000000000000000060"
        ],
        "storage": {},
        "gasCost": 3
      },
      {
        "op": "AND",
        "pc": 18,
        "depth": 1,
        "gas": 423,
        "stack": [
          "0000000000000000000000000000000000000000000000000000000000000000",
          "0000000000000000000000000000000000000000000000000000000000000000",
          "ffffffffffffffffffffffff0000000000000000000000000000000000000000"
        ],
        "memory": [
          "0000000000000000000000000000000000000000000000000000000000000000",
          "0000000000000000000000000000000000000000000000000000000000000000",
          "0000000000000000000000000000000000000000000000000000000000000060"
        ],
        "storage": {},
        "gasCost": 3
      },
      {
        "op": "CALLER",
        "pc": 19,
        "depth": 1,
        "gas": 420,
        "stack": [
          "0000000000000000000000000000000000000000000000000000000000000000",
          "0000000000000000000000000000000000000000000000000000000000000000"
        ],
        "memory": [
          "0000000000000000000000000000000000000000000000000000000000000000",
          "0000000000000000000000000000000000000000000000000000000000000000",
          "0000000000000000000000000000000000000000000000000000000000000060"
        ],
        "storage": {},
        "gasCost": 2
      },
      {
        "op": "OR",
        "pc": 20,
        "depth": 1,
        "gas": 418,
        "stack": [
          "0000000000000000000000000000000000000000000000000000000000000000",
          "0000000000000000000000000000000000000000000000000000000000000000",
          "000000000000000000000000a1e4380a3b1f749673e270229993ee55f35663b4"
        ],
        "memory": [
          "0000000000000000000000000000000000000000000000000000000000000000",
          "0000000000000000000000000000000000000000000000000000000000000000",
          "0000000000000000000000000000000000000000000000000000000000000060"
        ],
        "storage": {},
        "gasCost": 3
      },
      {
        "op": "SWAP1",
        "pc": 21,
        "depth": 1,
        "gas": 415,
        "stack": [
          "0000000000000000000000000000000000000000000000000000000000000000",
          "000000000000000000000000a1e4380a3b1f749673e270229993ee55f35663b4"
        ],
        "memory": [
          "0000000000000000000000000000000000000000000000000000000000000000",
          "0000000000000000000000000000000000000000000000000000000000000000",
          "0000000000000000000000000000000000000000000000000000000000000060"
        ],
        "storage": {},
        "gasCost": 3
      },
      {
        "op": "SSTORE",
        "pc": 22,
        "depth": 1,
        "gas": 412,
        "stack": [
          "000000000000000000000000a1e4380a3b1f749673e270229993ee55f35663b4",
          "0000000000000000000000000000000000000000000000000000000000000000"
        ],
        "memory": [
          "0000000000000000000000000000000000000000000000000000000000000000",
          "0000000000000000000000000000000000000000000000000000000000000000",
          "0000000000000000000000000000000000000000000000000000000000000060"
        ],
        "error": "Opcode Dispatch Error: Out of gas: Needed 20000 - Remaining 412 - Reason: SSTORE, depth=1",
        "gasCost": 0
      }
    ]
  },
  "receipts": [
    {
      "cumulativeGasUsed": 24000,
      "bloom": "00000000000000000000000000000000000000000000000000000000000000000000000000000000000000000000000000000000000000000000000000000000000000000000000000000000000000000000000000000000000000000000000000000000000000000000000000000000000000000000000000000000000000000000000000000000000000000000000000000000000000000000000000000000000000000000000000000000000000000000000000000000000000000000000000000000000000000000000000000000000000000000000000000000000000000000000000000000000000000000000000000000000000000000000000000000",
      "logs": [],
      "root": "202FDC79415E532F84009D8D5836EC3BB09D3DD75220EAB0092603AA53BB2046"
    }
  ],
  "state": {
    "006CC737FCA2DA03BB89557857C7558F8AD470587B99E01689EFDF0DF0A040B080": "F9021DA09B430B5151969097FD7E5C29726A3AFE680AB56F0F14A49A8F045B66392ADD15A01DCC4DE8DEC75D7AAB85B567B6CCD41AD312451B948A7413F0A142FD40D493479488D74A59454F6CF3B51EF6B9136AFB6B9D405A88A0B4B462E3F1894D4D2C50F18B23B22792BDC95ABF09061E662A1C0B7293EEDEBEA0F7EEAF3D6C6AD9A1EBCE576EAD9287D8743EB0BFBEBB897C2BBD07D3DC4A350CA03D978F340C96F262435CEF54283A4EEFFF08F421D555E04C79B12C44FD511C68B90100000000000000000000000000000000000000000000000000000000000000000000000000000000000000000000000000000000000000000000000000000000000000000000000000000000000000000000000000000000000000000000000000000000000000000000000000000000000000000000000000000000000000000000000000000000000000000000000000000000000000000000000000000000000000000000000000000000000000000000000000000000000000000000000000000000000000000000000000000000000000000000000000000000000000000000000000000000000000000000000000000000000000000000000000000000008601558491C39682B541825F3E8252088455C43725A0476574682F76312E302E302D66633739643332642F6C696E75782F676F312E34A02FDA0FB660BF4F34B9E67A745821A43DDB1DDF5AC081B6038CC8ED09D520ECC388091888036AEDAFAC",
    "A80F8CE52136CA8DB40FA8382F98AE38A5E2DE830EDA8981461197BC11E4B1A3": "F90211A07DE2A505460A313A3152DB671B303EC4BA5F928B5980AB7D46660A9FBDCEA69FA094032AEB0C0CECD1D9E9401ACC53110822E7047D2184D26299E8251F26F353A9A05535123A8DEB3032601498A85AB792BBE34C11A86F0F9D77591F831B912BF3AFA0CB60BA5A516B24386F1C2A59BC36892ED1E44F8BFF8211571A1B9AB024B3BFB1A07DD71D2CB7AFCC147732751C35845E9EA211412F8D7271AAC893698835F78F7AA0D082C0F73C5CE4B960E6CAA93B4C1388BDA6505E0F0DDBE2EEB33811B9EA4EBBA0258A870DDB303034F1BE037F8F7C03FC1C031EA164BB58F6C35028E40C3FC9D5A0D38D1283C099D51163911822306D515C1D15CD2E9D451A7563A0444B42B72B56A0A9D7AFBB32F7D82B2BDC4BD5417952DA615C80AE6921C6BA8F729D8EE6FC9361A0F834464B3BF02EB8EC50FCFE89108C96DD90182E54B42B033BA3C165EAFBA2BBA0433D3E8FEEBBBC6B1C52FA294EC0EA402239C889C5E73EF50E6BB68E12B3840CA03B3ACB3E1A96C1973B9BAEC646CA82AECCDFF4BCFD63AF38740D902BAF57A85BA0DCEAB9D63410F703925AC2ED0F9E29491C5BF2B5DEE4565EC5D7F26BA22FE78EA0AC74AFBD784643AF712BEDB318856D29A085F839E11B4B12FE6E55817F282071A03F1D9F9175E9C355138FC21C6407CB0FEE9B7CE764F788C02BA04CB9BDC8C0CFA01E1913C2C58B6857DCD6EAF8CE2E21E05CFC47C20E4C8C59BB559A4C92061A5280",
    "DAD1CBBD2E0BD3EEFB65FE19E5451F2A4AA40F7A488D636A51262A33B8BE14D0": "F8719F20AA17394DDFE9EC6A2746D49D26F17E454D3647C860F9FC2F3AE086A40983B84FF84D808910C570CB5C6A798000A056E81F171BCC55A6FF8345E692C0F86E5B48E01B996CADC001622FB5E363B421A0C5D2460186F7233C927E7DB2DCC703C0E500B653CA82273B7BFAD8045D85A470",
    "98584BC49DF3557FABE5228B785FD5C0E6A57A663933110A60491924F6676DCC": "F90131822080B9012BF90128A0202FDC79415E532F84009D8D5836EC3BB09D3DD75220EAB0092603AA53BB2046825DC0B9010000000000000000000000000000000000000000000000000000000000000000000000000000000000000000000000000000000000000000000000000000000000000000000000000000000000000000000000000000000000000000000000000000000000000000000000000000000000000000000000000000000000000000000000000000000000000000000000000000000000000000000000000000000000000000000000000000000000000000000000000000000000000000000000000000000000000000000000000000000000000000000000000000000000000000000000000000000000000000000000000000000000000000000000000000000000C0",
    "B953389A94907D48655B150A0A305E9BED4244003A24CC82E4BC39C928B05980": "F90211A027018684478CA048FCE86ECA65187640E744D47254426A069AD8E6CE1D1831ADA0EED582236D2F6966F77A285B0CE6585345E887D5644B9CE2D8728065778B3DD7A06F8D33CE3B221381CCD2595215543BED42B5505A90E7846B364533B48EBA8AFAA0A80F8CE52136CA8DB40FA8382F98AE38A5E2DE830EDA8981461197BC11E4B1A3A090CBD57F982120C22F7666477BAB8FE71E2CF3EC96097DD9F10B8F9210B20C1AA0D6E3B1B6B07EC72B8A2F78763FC105CB93598B7DAA4BC837A596092C90B68A34A0FE2E4D87FDA934861603ECD2930DC9CC095AA78C61A5C47CB66EC45263756433A0F7C820F1090CB533483F898A41D2C4B12813E9256B525DBD0638BDB650B1D096A0ED8B20108EB384FD4F9260471424BE136610A7F4E2865DB195BC056A7FB4603BA05BC8698614A884A8A362739A62F33690C9CE4FE39A9D24DEE497E92D82475212A0940623162750948FA1046B29B785B3BDC03B918E7863ABCBE67523E533C466A6A0DFA2C83653950CEC99F90CA1DD77DADDBEF61847B95888E6BD537AC03B3950F4A06A3A92E929839AB61D41A42EAF6166DD816BDEE4AC5DDAC2CD544FE6BDC58941A042B517223BAF6FCB6A84AFC770B721736A6434D739694244C1A226B76E2E286AA0684C69945A9AF7A1294E8C0431596C8E0B77E1B6AFE8D6FE0B14D8DC44187718A0FC008CF07A7C91E9FF251831A2F05678FE20C27D4D16D1D747D268AF72BB551980",
    "B4B462E3F1894D4D2C50F18B23B22792BDC95ABF09061E662A1C0B7293EEDEBE": "F90211A0C79BB5857EB10A970A2136F3A134818661560386BC3BF8305855BDF0034B18ACA0E290C81E9504475F10080C9C05451ED5DC91488D7450ECF7BB91858A7B70F235A05A1A506E868F771422BA5D4495FE88E59F3FA88BC94975D8908AD864765A78B7A0C5A67B2CAD5189ECA7F5F3D306039903B38A25BFF81AF15A2526F59B09D750E6A07B4D7D795C3DB85A3E03A4861D740B79A1277DE20E5562F909F065ED461C2AFBA0DE72DD710BD502E7BEBA559B32A34516EAB5F24A49AFBBFE8B4EC96117683E38A0B953389A94907D48655B150A0A305E9BED4244003A24CC82E4BC39C928B05980A0AF8C22E83AD3C146867A2ACA7D0A1B77099D75E017B0031900A71ADFF6035EA1A04AC4EBC354C1A77C9CDB2F527808F79CA32190CC32C6F2916305847986863F73A0CF06A8E4E85C5E1520DF6B37454792BC540FA97F4BC5DBC5FDE66F92F824155FA0595BDC63A42A791CEB543A1F1808A614EA01D7D7A2EBA8B43CA6D403A7FD134CA0FDA41CAE3F2A46CC892F064C6B8C5C953154A08248F38B6BE158BFE0BC6AD3FFA0655D317E4D97057451900595AF30646812DE8CC23278F28F6EE45AC0D9629593A0717B256530E04D8F4D0A42394C1EF2716B6DD33027C9D1E5A8CA627D3FEB85FBA05708F26C9EBC6D645B41A8F695E6CC0AA503FC49E2D4FCFDA7FF9C1FFE505808A0C3C39A0533559515EBD00A9E4FCC0D79AF0A0CF85B811AE71D87FCCEFE35A21780",
    "FDA41CAE3F2A46CC892F064C6B8C5C953154A08248F38B6BE158BFE0BC6AD3FF": "F90211A051E25A02E831F0B035C3173C818C3479808781655E96AE794788297A10451935A0A5DB3DA981F7AFD2BDE1725C930391C2DF8E8E167ADE599D4078EE51DAAF03E9A0B0A9A21671498F6EDD836DDAE4C7B7C4A386F58FCD9153C57972C351145F5A70A08909949B542BE2F68C30BF44719FDCC2D196397271F29901410D86BEB257C85AA0FB55C899608674F965A487129C97B971FB70C298EC8C191FA3286EBDBD5D614FA08D77868471DC849C81D77AB4BCE9389D7146A0D14EF278401ABB275A8CB4D749A0309AF7AE7CDA28F7C521378BFE2F0BB6FF3A7C032708F6DF0F1A6C9BE2D8ACCFA07EF17FACA9C6EED00032151E5D5ED7F31B77B5BA02A68B5C34031A18A9633508A02D4FCB9453E0343B53929AACBC488A6BF5973027170FB645DE9035E93AB37973A0140C5DE45B31D4FD7086E73336DFD96831BB55460358B7AD7898DE4EC0BEFA7DA098C62818D395D87CA1AFB12524BB8EF817C7177CD5A269EECEBD1EF2E55AF568A0DCEA4E62792E30B3CCF168E4E6821F62D008D074809620D59F1B7669F750BB5DA0C11A7A707BE772D5105E350E33901501E3B6A1BC05E25189343BF8C8FAD13A8FA0C134795F44AAE96835A526CC9971A95D1982A11B687896F5B603A8F870C34A87A041CCA2B3F40DA0EBFC155D322F0D084408DA7E788F767C6BEDF315C0DA1BA9C2A04BFF4F37EE1070FB9BA054075045349B182F02AED4348E50004D6D2715FD9D2980",
    "DCEAB9D63410F703925AC2ED0F9E29491C5BF2B5DEE4565EC5D7F26BA22FE78E": "F8D1A0B15BF36657F62A59FAEDAFE3B77D43125D1C2B470126CA794ED22F8AB2AB58E3808080A0D5850F34DEEF43B076AC2D485F72CC64A22AF3CE7AEA2FB7E756B31F70DBDFEF8080A07F63B78EF1D858B0D7B2C513B0B46330588E808998C38C1A6FA54B3C290FE15280A0DFFB5C4E8920ABFCB50B5E974A42366CB64151623F2C3A91B86ECAD240D722A780808080A078DA4EDC0FD5A77EDDA2B0B024330C98C4A4389E30E53E136FA4F43B076D1570A0DAD1CBBD2E0BD3EEFB65FE19E5451F2A4AA40F7A488D636A51262A33B8BE14D080",
    "C11A7A707BE772D5105E350E33901501E3B6A1BC05E25189343BF8C8FAD13A8F": "F90211A04D9634FDAD2C5BE49C74FB1F3D8EEEFE490291B99927BB8181A8216D64EBCBBAA0469638D37FFDE39F3D212ABAC67DB789446E309AB898EA2B89182D0BFA093697A02B7558FEFA7D2C139E6BC74CA3BC0B623F21F243C8A6850D4DC747BBE7A27847A0F644A0F013873ABFBDFA09FE9D59F336422ABC9403373A2B83AC3AB6D19D2597A0C085D1C12138C63574C3AD478322FCC477C1E6CF28BBCD5AF4D6F1BB520B7D29A0AE6720A71335679A38EB12C0E359B36C0D58A1AAFB04303DD4090385B4166318A0A2E15B03BD66EA93DF6F1895C3A67386511D45818152E08EAA2A7594654E0953A0751FF56B65472E5D9B682EBF1EEEFC408DB0A81611F234766A03B4789AC13A6AA0F3C85ADDE18670778BA049D6AA1654AA476A2CD0BE9249BACEE56B5351AB74BBA0DBAD1F1BC948D6223E3AF14ECC06BE47D405472AF4B2AB1A16A72EE398BC4060A0153F46A5DC86BC30D8620555E1D96E7E28B1EE999D36E3998B69086631B6FE2EA0E874336C68FAE483498A1F18519C2CB6F7EE024B498A6B40AF63C40177CBBDD0A0664AB0E5DE3D3EBD8F9C66D7D1436D666472AE26207E0DBC25B54350C07F3CB9A041BED9733EB03A087FC69E8DD0D80B546647276D1921FE6BDBAD06DABABF54EEA09CA505C9ECAE8A8196C959DD629B65A4236F8B176AB91D8EAD578D872DA8721CA07F73F8CABB77A3D66528EE4F6CAB343B03E885FE22E87AE7F43EBE0255F9202180",
    "56E81F171BCC55A6FF8345E692C0F86E5B48E01B996CADC001622FB5E363B421": "80",
    "5708F26C9EBC6D645B41A8F695E6CC0AA503FC49E2D4FCFDA7FF9C1FFE505808": "F90211A028BAA23D3062382310899793A9FDB01534B820FEA601272FC713C4D8A3440203A055C03D814060FFB4923CF2D7FB5E9E3C8256F5759BEDAAD0BBE811EA848E3251A0BEF8A03D28E3D6074A1754891FD5B19CECBE34E5CA22775D9F991CFB0329BDA1A0766C61F38ECF6F10320DD6D0440C9E804E3425D19F4DECE5FAEF4C5A70BB54E1A00DA11923EB659D0972DA9F45C7D7C51FEADAF0F6D8964545C4647A1DDBE507E5A05C6FCAE1770CBEFBA440A5986677FC3E1302AD21CE92BCC85B8F30A5ACD468BDA074C16CD0A82A53953FB26422FED0F80F4C98EDF567EC209F4BBD678B67FFAE06A0E317F138C0A697D83207BD102A73505FDEAD9999A6F2C9889E11520A0B1D72A8A008BCF12CC8584E9ECD38141B62968A1FB50954D4E34DC3022CEA5BFC50C8FF8BA0F63D306B35EA9B9F6ABA22719B97B15E12EB0BBCC6157A2FD2319B427977B034A0AC3EEEF7D89C662707CDAAD6C4A25EE7AAEA65CA11966325F2287EE055705ABFA0048BF63BFB97D83B3740B53F66BED6C9BD4081469A41F78156373552C2025708A091DA6A990F5C6224FAA732379F1EE1728D8DAAB8366FEC9A80568B55B510E86BA0BB45BF2253F9B2054B1927D49802A635C1A49A1AF7478CE16BA67F540D10DAC2A085ADF2EEE152FDDDA16A42E4880451669A78FEFE71E6CC8C07D65B0C7CA28A56A059CF4B462F305BDED1CB911C484B386AF0658539D00BD29F2317CCFB7AF7765F80",
    "72C02C0BCE7FF357E228773C7129B0E57DD1F7F8C5025341B93C8634DD11A7DA": "F8719F20BC78D73B85DC7C81AF5CDE0D18A7A6F26A6ECB3B74C5892E8DC052E84D77B84FF84D03896C3ED29108159090C5A056E81F171BCC55A6FF8345E692C0F86E5B48E01B996CADC001622FB5E363B421A0C5D2460186F7233C927E7DB2DCC703C0E500B653CA82273B7BFAD8045D85A470",
    "0142B5000000000000000000000000000000000000000000000000000000000000": "A0249EA54EADA07708B29D7C424B8466DEC9F1D98067B0BE1B89C7EE660CCA858D",
    "EBB4F31EF3E0DFF0174E82D159D9E6112699FDFB878D280465CE92EBB73B0742": "F89180A09B9F85631EB59095CDC5BDF03F3556B7D9933BF2EAB9EA3720ABA22E73023FF1808080A02B83B1BA2674A6AB622282AF7A3E56AED6DC0E427EAEF14A1711612CD86FDD42A08DAED4D73CA8D6A29A96EC92C0C788F41C16AABC72CFD368D1AD818875C683EF80808080808080A072C02C0BCE7FF357E228773C7129B0E57DD1F7F8C5025341B93C8634DD11A7DA8080",
    "1CF10BA2B41800CC55E1A380ACC3BAD7F86C7BA8A7BC3D1B1759858B6FF5EA11": "F881822080B87CF87A038609184E72A000825DC08080A9606060405260008054600160A060020A0319163317905560068060236000396000F3006060604052001CA0589B4531C6D66F6850277AF29E06E60B28A280916CCBB38595BF3347ACA65C2CA040B1A3D6E47A04C0CD78506AA7D3AA0AEEF734D7942424ABDB64C88C2BA5F536",
    "41BED9733EB03A087FC69E8DD0D80B546647276D1921FE6BDBAD06DABABF54EE": "F8719F397B0E43D0507C3DC69B82B3B19194D28155268EC637FF005973E8521B9181B84FF84D808910CE1D3D8CB3180000A056E81F171BCC55A6FF8345E692C0F86E5B48E01B996CADC001622FB5E363B421A0C5D2460186F7233C927E7DB2DCC703C0E500B653CA82273B7BFAD8045D85A470",
    "00249EA54EADA07708B29D7C424B8466DEC9F1D98067B0BE1B89C7EE660CCA858D": "F90218A06CC737FCA2DA03BB89557857C7558F8AD470587B99E01689EFDF0DF0A040B080A01DCC4DE8DEC75D7AAB85B567B6CCD41AD312451B948A7413F0A142FD40D493479401434E4AC3238BEC44A39AD642ABABBB68D097E6A0BC0B8B03CB982332189C176697CFD8EAAB07BEEF16BFB2D0CA2003A5E30A8F59A01CF10BA2B41800CC55E1A380ACC3BAD7F86C7BA8A7BC3D1B1759858B6FF5EA11A098584BC49DF3557FABE5228B785FD5C0E6A57A663933110A60491924F6676DCCB9010000000000000000000000000000000000000000000000000000000000000000000000000000000000000000000000000000000000000000000000000000000000000000000000000000000000000000000000000000000000000000000000000000000000000000000000000000000000000000000000000000000000000000000000000000000000000000000000000000000000000000000000000000000000000000000000000000000000000000000000000000000000000000000000000000000000000000000000000000000000000000000000000000000000000000000000000000000000000000000000000000000000000000000000000000000000860155AF4255CE82B542825F54825DC08455C437279B476574682F76312E302E302F77696E646F77732F676F312E342E32A0F8808DF56CBE52AE9C97985E824DA926FD05505266960C37A516219F85C131D488BCFD19034FDA0490",
    "59CF4B462F305BDED1CB911C484B386AF0658539D00BD29F2317CCFB7AF7765F": "F901F1A0B3A36DE009FA40468344E1FA0942E477E208237A6F11286DE035958CE069CEBBA077D1FC9C8E712220EB84D9A9933C5E92EB0879C5358AAA8949D23D31664AE68F80A0D31C15E29A27218045FF7C1E65B3E27659394026BE1C0FCD1E2205FE6E558B9DA02B92D0DC968DD9D6057DA8FC110D19F0B7373CC897BA7280522D5CCDD9A34A6CA02DDE8893774861FD048051B1244A9A1802F4A5CF2B8248BA259BC2ED4F13068FA0EBB4F31EF3E0DFF0174E82D159D9E6112699FDFB878D280465CE92EBB73B0742A028E1CA504A5A4DBC5B2D9EB3DC1A0D44DA97FE04641D386B3CF458D22330EC46A0CAB1E53213D344B3969CF800BB29A85C991F3096AF83B18B5C16D769D0F96C3AA0744B06537E3CEA527394AA7A9A464C7197BE4F9138F08989D70541609D20DB2DA03FB172A53827AD5C1FC22E7D227EA51CF62B53C3152113019C9B48068ED7ACA6A0AA63FD3B68758D055D7A298C5C8AAE14A4B5D7B74790FC88E0285DAFF14BE603A0E3FF207C89B1E7588CACF154C52AF9FB82096F4599F3F588D0150379535A9062A0C59F52560CA4BF9BB180BBBBCAFB908088B5AB1388B60B364692D00DC66ABB29A0EAF31F6D96FC50FCD83CD84AE0292C0A11AFDDAEDB94EE85BA31EC0AF6F5414CA0DFB3C73F2AD5D1B88ED3609C4508A0989B55A0663F6001D02620F61228695FEF80"
  }
}