{
  "blockNumber": "b865",
  "txTraces": [
    {
      "gas": 21000,
      "failed": false,
      "returnValue": "",
      "structLogs": [],
      "stateDiff": {
        "before": [
          {
            "name": "sender",
            "address": "0xfbe0afcd7658ba86be41922059dd879c192d4c73",
            "nonce": "0x0",
            "balance": "0xd02ab486cedc0000",
            "codeHash": "0xc5d2460186f7233c927e7db2dcc703c0e500b653ca82273b7bfad8045d85a470",
            "code": "0x",
            "storageRoot": "0x56e81f171bcc55a6ff8345e692c0f86e5b48e01b996cadc001622fb5e363b421",
            "storage": {}
          },
          {
            "name": "recipient",
            "address": "0xc669eaad75042be84daaf9b461b0e868b9ac1871",
            "nonce": "0x0",
            "balance": "0x0",
            "codeHash": "0xc5d2460186f7233c927e7db2dcc703c0e500b653ca82273b7bfad8045d85a470",
            "code": "0x",
            "storageRoot": "0x56e81f171bcc55a6ff8345e692c0f86e5b48e01b996cadc001622fb5e363b421",
            "storage": {}
          },
          {
            "name": "miner",
            "address": "0xbb7b8287f3f0a933474a79eae42cbca977791171",
            "nonce": "0x0",
            "balance": "0x66c62cebf6a0179a328",
            "codeHash": "0xc5d2460186f7233c927e7db2dcc703c0e500b653ca82273b7bfad8045d85a470",
            "code": "0x",
            "storageRoot": "0x56e81f171bcc55a6ff8345e692c0f86e5b48e01b996cadc001622fb5e363b421",
            "storage": {}
          }
        ],
        "after": [
          {
            "name": "sender",
            "address": "0xfbe0afcd7658ba86be41922059dd879c192d4c73",
            "nonce": "0x1",
            "balance": "0xffcb9e57d4000",
            "codeHash": "0xc5d2460186f7233c927e7db2dcc703c0e500b653ca82273b7bfad8045d85a470",
            "code": "0x",
            "storageRoot": "0x56e81f171bcc55a6ff8345e692c0f86e5b48e01b996cadc001622fb5e363b421",
            "storage": {}
          },
          {
            "name": "recipient",
            "address": "0xc669eaad75042be84daaf9b461b0e868b9ac1871",
            "nonce": "0x0",
            "balance": "0xcff56a1b273a8000",
            "codeHash": "0xc5d2460186f7233c927e7db2dcc703c0e500b653ca82273b7bfad8045d85a470",
            "code": "0x",
            "storageRoot": "0x56e81f171bcc55a6ff8345e692c0f86e5b48e01b996cadc001622fb5e363b421",
            "storage": {}
          },
          {
            "name": "miner",
            "address": "0xbb7b8287f3f0a933474a79eae42cbca977791171",
            "nonce": "0x0",
            "balance": "0x66c62f40d1bc39de328",
            "codeHash": "0xc5d2460186f7233c927e7db2dcc703c0e500b653ca82273b7bfad8045d85a470",
            "code": "0x",
            "storageRoot": "0x56e81f171bcc55a6ff8345e692c0f86e5b48e01b996cadc001622fb5e363b421",
            "storage": {}
          }
        ],
        "beforeRoot": "5EEA610130E3A2368C6FD102E9A7E4D0BCAAF5152DD18DCE60D74E1C46219A94",
        "afterRoot": "796DAAED278F45139BF18E434901B6524ABB841F5CDF001A01EA0097D3AF6A74"
      }
    }
  ],
  "stateDump": {
    "before": [
      {
        "name": "sender0",
        "address": "0xfbe0afcd7658ba86be41922059dd879c192d4c73",
        "nonce": "0x0",
        "balance": "0xd02ab486cedc0000",
        "codeHash": "0xc5d2460186f7233c927e7db2dcc703c0e500b653ca82273b7bfad8045d85a470",
        "code": "0x",
        "storageRoot": "0x56e81f171bcc55a6ff8345e692c0f86e5b48e01b996cadc001622fb5e363b421",
        "storage": {}
      },
      {
        "name": "recipient0",
        "address": "0xc669eaad75042be84daaf9b461b0e868b9ac1871",
        "nonce": "0x0",
        "balance": "0x0",
        "codeHash": "0xc5d2460186f7233c927e7db2dcc703c0e500b653ca82273b7bfad8045d85a470",
        "code": "0x",
        "storageRoot": "0x56e81f171bcc55a6ff8345e692c0f86e5b48e01b996cadc001622fb5e363b421",
        "storage": {}
      },
      {
        "name": "miner",
        "address": "0xbb7b8287f3f0a933474a79eae42cbca977791171",
        "nonce": "0x0",
        "balance": "0x66c62cebf6a0179a328",
        "codeHash": "0xc5d2460186f7233c927e7db2dcc703c0e500b653ca82273b7bfad8045d85a470",
        "code": "0x",
        "storageRoot": "0x56e81f171bcc55a6ff8345e692c0f86e5b48e01b996cadc001622fb5e363b421",
        "storage": {}
      }
    ],
    "after": [
      {
        "name": "sender0",
        "address": "0xfbe0afcd7658ba86be41922059dd879c192d4c73",
        "nonce": "0x1",
        "balance": "0xffcb9e57d4000",
        "codeHash": "0xc5d2460186f7233c927e7db2dcc703c0e500b653ca82273b7bfad8045d85a470",
        "code": "0x",
        "storageRoot": "0x56e81f171bcc55a6ff8345e692c0f86e5b48e01b996cadc001622fb5e363b421",
        "storage": {}
      },
      {
        "name": "recipient0",
        "address": "0xc669eaad75042be84daaf9b461b0e868b9ac1871",
        "nonce": "0x0",
        "balance": "0xcff56a1b273a8000",
        "codeHash": "0xc5d2460186f7233c927e7db2dcc703c0e500b653ca82273b7bfad8045d85a470",
        "code": "0x",
        "storageRoot": "0x56e81f171bcc55a6ff8345e692c0f86e5b48e01b996cadc001622fb5e363b421",
        "storage": {}
      },
      {
        "name": "miner",
        "address": "0xbb7b8287f3f0a933474a79eae42cbca977791171",
        "nonce": "0x0",
        "balance": "0x66ca8579e9e0891e328",
        "codeHash": "0xc5d2460186f7233c927e7db2dcc703c0e500b653ca82273b7bfad8045d85a470",
        "code": "0x",
        "storageRoot": "0x56e81f171bcc55a6ff8345e692c0f86e5b48e01b996cadc001622fb5e363b421",
        "storage": {}
      }
    ]
  },
  "blockTrace": {
    "gas": 21000,
    "failed": false,
    "returnValue": "",
    "structLogs": []
  },
  "receipts": [
    {
      "cumulativeGasUsed": 21000,
      "bloom": "00000000000000000000000000000000000000000000000000000000000000000000000000000000000000000000000000000000000000000000000000000000000000000000000000000000000000000000000000000000000000000000000000000000000000000000000000000000000000000000000000000000000000000000000000000000000000000000000000000000000000000000000000000000000000000000000000000000000000000000000000000000000000000000000000000000000000000000000000000000000000000000000000000000000000000000000000000000000000000000000000000000000000000000000000000000",
      "logs": [],
      "root": "796DAAED278F45139BF18E434901B6524ABB841F5CDF001A01EA0097D3AF6A74"
    }
  ],
  "state": {
    "D6F0FD6E62BA1677944AC70C24C7CB9C30CC5BA8A96EAA189B22D44DD06B16C8": "F86F9E3B346B0B529CFDE3D7A05A942D6891980356A34EC5133AA0BD2E6EC9354DB84EF84C8088D02AB486CEDC0000A056E81F171BCC55A6FF8345E692C0F86E5B48E01B996CADC001622FB5E363B421A0C5D2460186F7233C927E7DB2DCC703C0E500B653CA82273B7BFAD8045D85A470",
    "30AB21F33FB9BFF8DF3F6CF65380589A96CFC224943EC1CE3B2CBB7FAB5E6463": "F90211A078DDA26A52B7ACA39EE745884A94426F3FAE59C8A530C9FFFF9572900D098988A0E1873CA348667FB981A9D7BCF3A2D59713E244268C168F4F1B31E8E75433A906A0FE0B9CA8B8F12DD1D1D7F5B0D4CD0E2942F4F688AF48EDBE1787371261706544A046F5B76154B3F73E6EAD8CC34DC12E4A464D95FFFFA14391794185A7E13D1D95A02142EC0C48669316796487F7D960E0C01D429913C34EABDB0D6473CE71CA80A5A045B887F6B950FEBE82BEE928D5FC97146C1C0040D04FC7A6FEF1A1C1832FA6CDA05B29E4B97303A5665247525A0C6420BEA3033D43CFB05AE141EF4CE32E930AD9A02E5EB5029E05BEB7E3E1D060A8530037796A5DE53D620BEB9539F3E9A6D3DD15A015C38E1E2E074377E2F91136CFA0FCF6DD4A71F8F7BBE94E6AAD85512089837CA03EA4FD917D9AF7F9E236E6C8F348662EBF6C7698D43A0C6405025B11CFC688F8A0F42B081F158CB649DFDEC4A6DD91C571FC9FFD95F1858C8C6EFE96E115380460A08584296339BB2A100045EF00E681DF7BB01ED0FD4E3A18AB3B2E1C725FC10EDEA03D0B9885370FCCAE0EB00C3C30B4B3620439E531E058582964614F24F42E31BAA015D24D88EE32423B54B4BA9D74E008F5063A0043D417E9B576F7BC77A393D7A0A02FD0DE7934B8F56D343D4B98137DA1364F35FE03DE7F100B66A6551EB25E03B4A0D94A49F5B0AB6B6FE4FDCFFF6454E1627C2CCEAAABCAE17B153D457731652CC580",
    "00A85842A20755232169DB76C5BD4AD4672C1551FCA4B07D0BD139CD0E6FEF684D": "F90216A0C751D07FCA9FF9BF7B1BEE2625DC028608EC20BAB292A8E52D3247785FAD3CDDA01DCC4DE8DEC75D7AAB85B567B6CCD41AD312451B948A7413F0A142FD40D4934794C0EDE9A639D107851462C15F2FB729C7C61BBF62A05EEA610130E3A2368C6FD102E9A7E4D0BCAAF5152DD18DCE60D74E1C46219A94A0D709B472238C8B12B0B66ACD2DC3302BFCC5FE30FF1669865E4887F717597075A0FDBC75CBD98E50C3D4CAD07B9C2D0EA604318FAB47D686CB5D4DE622B58C2057B901000000000000000000000000000000000000000000000000000000000000000000000000000000000000000000000000000000000000000000000000000000000000000000000000000000000000000000000000000000000000000000000000000000000000000000000000000000000000000000000000000000000000000000000000000000000000000000000000000000000000000000000000000000000000000000000000000000000000000000000000000000000000000000000000000000000000000000000000000000000000000000000000000000000000000000000000000000000000000000000000000000000000000000000000000000000086015451E9450582B86482A2718252088455C46BB399476574682F76312E302E312F6C696E75782F676F312E342E32A09DFFD5055C23D0FCF7695A877CA56CEE801230BA43B7597DF0F76AFA7949762288169B5BC47FDAC77F",
    "008CC34CFE4E1C5CC49EB8F7D6242F5F7A84DA3539B5AB68FAEDEE634776EE5B47": "F9021BA0A85842A20755232169DB76C5BD4AD4672C1551FCA4B07D0BD139CD0E6FEF684DA01DCC4DE8DEC75D7AAB85B567B6CCD41AD312451B948A7413F0A142FD40D4934794BB7B8287F3F0A933474A79EAE42CBCA977791171A0D1F9DD04F17019A7A08D7F8641601C36F293C301FE0AF8E0823F2480784315C6A0C864072AF2EC7514CA19131D4007AAE00D429452E5E2059E02C84BD5676C5C1CA0A7DF100062910A5F3425D5FFC97F92463BD677B05B88FDB1521CD451DC4E049DB90100000000000000000000000000000000000000000000000000000000000000000000000000000000000000000000000000000000000000000000000000000000000000000000000000000000000000000000000000000000000000000000000000000000000000000000000000000000000000000000000000000000000000000000000000000000000000000000000000000000000000000000000000000000000000000000000000000000000000000000000000000000000000000000000000000000000000000000000000000000000000000000000000000000000000000000000000000000000000000000000000000000000000000000000000000000008601547C73822D82B86582A2988252088455C46BBA9E476574682F4C5649562F76312E302E312F6C696E75782F676F312E342E32A0FBF2DBBB310A4E45DB26492A432900A4BFBD90031DD3704D77CD27FBF83C38FE884C7FC9AE12C9677A",
    "0165B8000000000000": "A08CC34CFE4E1C5CC49EB8F7D6242F5F7A84DA3539B5AB68FAEDEE634776EE5B47",
    "CEFD3B0B7336ED9F68447A4A3E2545C4B1A93B2777F152198D03331E0F4AC640": "F901B1A084957E0882A83E8A2B4B4D53478DE1AC7259A556CA0432BC93A8101D02ECF16BA019D297F57CF479FC7E2D774B7FECB2C323E7CC23C0865B4F39843D8D755EB3E8A09812B2E76D9DE7E16251436641DF5E3D5FF1973ADA13187414D665F42C2EB0F680A087E1E054DC75D06145BF158B7C746D35586EA0EA64B4943B092C7657F268A110A049B3E569F9D418875FD44D4229CF721B7279E987ADDBD33CCD400CA5ED5FA615A0DBE00D606478B8E631B340E94A0CE269F784CC8EB28A404324EBF9FDFB4DF96480A087952CE54F47F497AA3A92BECE385FD7A99C730ACDAF9C806B8EC8BF935A41B5A0CD3F06248B9F8B5144E2A3E4D00BCD716F912DBBA8CC2DF0192D424682892951A063C3B649EF9F70CB8BC3E17A9C97BEBDCA7C6D278F0E91B8860D6D4AE4996D51A0E5682CC25C3BDD35C5E00A39A2293FAC682567F3E09C6305AAE49150605032D280A07DA50003001A681080D1857E5BB585522C7869AA1AC71F1D8625A6220FF9B0BEA03877E05A14C10B7692F087F6B48B9DE74A5875549D867AC5601E5579249F0B3EA07F64010B162255F7B3CB0A3C58691FC4DE275BF09D43ED597A983FF5DDAF153480",
    "56E81F171BCC55A6FF8345E692C0F86E5B48E01B996CADC001622FB5E363B421": "80",
    "5EEA610130E3A2368C6FD102E9A7E4D0BCAAF5152DD18DCE60D74E1C46219A94": "F90211A0D2E8DBA0642753922F398B07096F611A20263D9F9E585FB66AE0780D5370A36DA0F27488264A4FFE3526608DECFFC2ED1092E40D626A46A6F876C06BA8831F42CFA01C1471B7C5CD4FB822AF83115A666C36370CD60628BF25631E2040DBC4A45274A0017D63205C1546279F96C7AA67766C2F1EE332ECC0C8A1504438F12CD2C3A247A090FC1BB8EFB80653679D0C86AAECE868FF59F9BB466BEF7D7A47CBACAB9A7592A043A0F22C40B2576CE1077A60B77E83CA4CF21C4FDAC07B74E1EC7AE4782877D6A07A48B72AB4CD323303FDC75E194264D6C63CEDBEA72A461FE22E31BB64220411A06A5FCA8D789C4D864D054E10CEEC042FB075DAA3CA6DEE3605269743A21CBE9EA0AF6F533CBADCEC117C729772DF8AD184A68EA066F96037CC817C741A8370F07AA03A97BA115E7C117E5F7FDFBDDC1C6E83A8DAF45C7E6EA384B4AE13EE1B4AEBDAA0919A81EBF1D48403F242864BB4BED15A0C8D3EF61BC7EA6EDB8173E555F189FCA07674E887298ABE5D32ABB42A5C10565CF7CEF3D747AA0355570AC0CC4CCB7CADA030AB21F33FB9BFF8DF3F6CF65380589A96CFC224943EC1CE3B2CBB7FAB5E6463A0477EC8D35720FFF05BF627560C62ED9E60E99A9A9720DACE70CE6569127E9FBDA0F6AEEA1C1EE6453077B346361B29345EF0AB1397B9C3C501575796D8E8D0B64FA0E81D29B9625B71E8C68921119BBB5C416CFB52E4146D79A71C0E3BF78893FE0280",
    "C0B3B229E0400AE3896AA1401CC023940F9BB740137631975A18B60670B28FE8": "F90211A0321CE3DBEFD6BBFE3EB0EC01E69C8C02DEFAECEE55C35537FB17CFDAA61FEA01A0C9070D92AC06F82C774D835CEB0B8F9D5BABAABA72780DDCFC61899169C1429FA0CF8A4080CFAE61E14F66C4DBBAA0E030E1AE628A1C5D567D2A218ED518A11F1BA059BBB3D53D72247AF6B96B293057B1BD4B3E33E16A43BB987AC5B39B66C0DF88A021836F56FD3379012136AFB8BAC3FA129009A53AC690092F726E58F7E3744303A06E4756BCDC63ADB15284916232DAF199220135DBD4E6C301C34AEB87D01794A9A036ED834810103F7FEA46A26C02268C55E1C3643704CBA91051B7067FDF2A64C4A00B9124A8A02B8B0032563E77EC01D099890C56436BA6FD130510945D9D2EF349A004A23CB6ADCFCCF8AF2F7B708564201FD45DA31D1A073AA1ACD4F80F9EE2B5C3A0A92CEB11375BC0DB2C7D8BF277B0759E509FF551B9F3690C747CEF59A3344636A07527BB8C0749EC0984759716C16FF8A822B76E79910291599A0870C7B30B39F5A0970E4426CE35EA36A11A3951FA77E6AF6E710CB2DB92362E1D767AF5FD942C13A0F84D7A19F192FBE04F0DA9B912E354885CB2C40DB429C40238CEB5F2F6038788A01F7B133E84B9424C37AA4B271F9656BB0087A540BC8E4DEC719C68EC5B7293C7A012F648DB1A3F1E4D83FFDC1BD6E8ACD5B6DA0003A64C0D291352E53B31BEEC44A066E8C6454BA1B3715E502D44085E3BCF2A5D7F902D6B18F379BF94AA6EBA794680",
    "D2A4C7F376EC7F82649AF0339653D4AD1FAA9BE1794A50D3EF6F5363F2E43E7A": "F8729F20E342BBA2807022514C2D522E22BA66F911653D1ABCC74BD0A7868AD3CB36B850F84E808A066C62CEBF6A0179A328A056E81F171BCC55A6FF8345E692C0F86E5B48E01B996CADC001622FB5E363B421A0C5D2460186F7233C927E7DB2DCC703C0E500B653CA82273B7BFAD8045D85A470",
    "2657DA6CA284C641C9AE2FBE45FCFBE1F7745DD8AD88F926F253BB0CC7A06210": "F871808080A0880DE69BFE92C4F8CF85EBC8DC95B540649615A3FC603E1FCE0AEF88FA0C62D3808080A0D2A4C7F376EC7F82649AF0339653D4AD1FAA9BE1794A50D3EF6F5363F2E43E7A8080A095E6383C0BCF66C6040F6330A9CF8B06F149F6D018FF02FC462702049CD9C9E9808080808080",
    "A7DF100062910A5F3425D5FFC97F92463BD677B05B88FDB1521CD451DC4E049D": "F90131822080B9012BF90128A0796DAAED278F45139BF18E434901B6524ABB841F5CDF001A01EA0097D3AF6A74825208B9010000000000000000000000000000000000000000000000000000000000000000000000000000000000000000000000000000000000000000000000000000000000000000000000000000000000000000000000000000000000000000000000000000000000000000000000000000000000000000000000000000000000000000000000000000000000000000000000000000000000000000000000000000000000000000000000000000000000000000000000000000000000000000000000000000000000000000000000000000000000000000000000000000000000000000000000000000000000000000000000000000000000000000000000000000000000C0",
    "04A23CB6ADCFCCF8AF2F7B708564201FD45DA31D1A073AA1ACD4F80F9EE2B5C3": "F8718080808080A00332B99003892A30FF9CCDE54345019B734B42E88150A2BB7E9AF8454A28FF9B8080A0836CA7ED25503A6A6AD5B1961C6A2A6913C52A0A0698D8BFB473E895A6631AAB808080A0625690EF87051BD898FD152DF03B27EAFECFDE1B014582EECA4260261352E12080808080",
    "45CD1AA62183926A5A07607DCE726EF86CC52D8481DF238C4A517AA0D3E8BCAA": "F85180808080808080808080808080A0D6F0FD6E62BA1677944AC70C24C7CB9C30CC5BA8A96EAA189B22D44DD06B16C880A07B6AA3E946C50350CBF3215095485509A2834DD050EF9943D4E90C812282D69D80",
    "5B29E4B97303A5665247525A0C6420BEA3033D43CFB05AE141EF4CE32E930AD9": "F901F1A07E3841A449BD5A6DF6ACEACCE40C5B64DA60027FA5100AE010CCB96966FA40A3A021B066C4E81C1FE54C8034493A4F97104721FF18B19D41CF6E4180D031FCBF48A02657DA6CA284C641C9AE2FBE45FCFBE1F7745DD8AD88F926F253BB0CC7A06210A01DC1363756D994C0DED724EEB3B962044517EE8CCB2D819EF806CCC22D6B19BCA0881D03A502FB8B7AE1EA1AC001BC18B5D16AE2352B759753ECA8DBCD1929A4C9A09B0966FC8B888D9469A91DCE55EE2DB5C0D5C78BE83C04EFD6EC7E0961BA18ABA0ECFD6C4C8066F5BA5D3E5799BB791E9027389448120B9B85D2F225F7AF95B81BA038C0BE1A498CC8A81B3823420F588262BA547123CBBE5496ED9C9BBE8746E2EEA0FB973E874FEFB1A847154BA6711CCA33610C2916B37E5853A8DB434D63DE56D0A014E1434148BAE838820BF07E69756B5A23497BBA247E466E9A9C82FAAC33E41AA0737A835A03BB4D86E72CCB72C5A19A4FB5D527D7574DF7E707CC2D2E968C6B91A02B33586FFFEE450DF84D574BD66E98DB9F5059DDBC111984B38EBFD941E278F3A0D92E5C7BA701F75F742D824235AFB2FF5F228FAD3ACA6A30EDED0336D648F214A0B41EFE936355F7EA256D1FB5212563F6C36611CAE557A70917B26AB69ABB6BCD80A071BE33594382CD7FB42D039800CA2026FF2FC1FF4BC06963F3B4DA16E90577C180",
    "84957E0882A83E8A2B4B4D53478DE1AC7259A556CA0432BC93A8101D02ECF16B": "F8B18080A045CD1AA62183926A5A07607DCE726EF86CC52D8481DF238C4A517AA0D3E8BCAA8080A0D17D0BBD67BCD1BC9C0AE4F4A178BB23FD4C4776F49E997CDC8F9F32198D4C14A0F154B09B80E4E19BE2E92E3FA89315C366E77B133F2C1320B1D52FAB8CADFFA1A0CBEB6E4F814CC57E127A360BCE8EAAD00F86028A52FFB49308057C57036610F58080808080A0E23C11D769A144655F95BE0CBA44C820710C874CA096B1AA183A98DCE1F77DBD808080",
    "D2E8DBA0642753922F398B07096F611A20263D9F9E585FB66AE0780D5370A36D": "F90211A0C0B3B229E0400AE3896AA1401CC023940F9BB740137631975A18B60670B28FE8A024F27C137B531FE5060523F25A3062FA488AE84A49AB398E439DCBD23A646EFFA0D07AD6D669979225ECBA4D075821BC1163D216F1403978EA68201A13B75C306BA0EBEE1A7E32541CFBF8562DB290954EE5E0F2F6E2F388720EA04301059F07E6E0A011FF45F4AAEACBACA9F4282C61CF96C2D290175DDB846533A8681DA0526537A7A0F92F562B60DB4E5CED4C694A8B2A6936F6BDC5E54375AF3BE13A186ABA94A7DDA0775394C71A5EE90DA608D7A8533F20C497A902D9B835AFE7A5731574FF321ECDA0A15BA80A378C19080E9090E59338DCACBD39D2BDCD0D5C3FC372CA3F37A38EDAA0475CF0216586AE3B9A4688C9D7AACE81A66E060750623D74AD60BA51DD618E76A0B5E90075BB1D31058ED4F7F4A8E85C3D917D30E5414B342BBBB04E9E01EBD79FA070E483BAC3BBCBB4B0F4594667EB9806A5B246924B25AB9C5D0524C77AC2A5FFA0BA57F2C1CC9F0F3D07D695BD85968E279B8728448B33DED065F50FC26DD43EBEA0FC796EEA131F54AD2C154FE8B4009A559577F0F7145CD15353DA5CC694F873EBA0380AA59F023669FCA09F83C330F32540B00716E2CD940E1244E858225BA98841A02F964800B412725FF10E2457DA83C3A7EE8367A912D49132D1EB356B9048F52EA0CEFD3B0B7336ED9F68447A4A3E2545C4B1A93B2777F152198D03331E0F4AC64080",
    "C864072AF2EC7514CA19131D4007AAE00D429452E5E2059E02C84BD5676C5C1C": "F85F822080B85AF8588085746A5288008252088088CFF56A1B273A8000801BA0A81156F75388615D235562EBE28ED019B083654E4DC51AD52BFF4DEF29E6C4CFA0459D6CC8DCE4B01683D5A90067569FACD763E5CD27C71CA99C78BDAE38DE8F4B"
  }
}