{
  "blockNumber": "b540",
  "txTraces": [
    {
      "gas": 21000,
      "failed": false,
      "returnValue": "",
      "structLogs": [],
      "stateDiff": {
        "before": [
          {
            "name": "sender",
            "address": "0xf55cdbdf978f539ea4eee0621f7f1a0f9f00f7d9",
            "nonce": "0x0",
            "balance": "0xb1a2bc2ec50000",
            "codeHash": "0xc5d2460186f7233c927e7db2dcc703c0e500b653ca82273b7bfad8045d85a470",
            "code": "0x",
            "storageRoot": "0x56e81f171bcc55a6ff8345e692c0f86e5b48e01b996cadc001622fb5e363b421",
            "storage": {}
          },
          {
            "name": "recipient",
            "address": "0x6baf48e1c966d16559ce2dddb616ffa72004851e",
            "nonce": "0x1",
            "balance": "0x23baaa0acf79020e0",
            "codeHash": "0xc5d2460186f7233c927e7db2dcc703c0e500b653ca82273b7bfad8045d85a470",
            "code": "0x",
            "storageRoot": "0x56e81f171bcc55a6ff8345e692c0f86e5b48e01b996cadc001622fb5e363b421",
            "storage": {}
          },
          {
            "name": "miner",
            "address": "0x123843545fb525c8e134c9a5f15ada6865cc3848",
            "nonce": "0x0",
            "balance": "0x53b42bf6f4cd964000",
            "codeHash": "0xc5d2460186f7233c927e7db2dcc703c0e500b653ca82273b7bfad8045d85a470",
            "code": "0x",
            "storageRoot": "0x56e81f171bcc55a6ff8345e692c0f86e5b48e01b996cadc001622fb5e363b421",
            "storage": {}
          }
        ],
        "after": [
          {
            "name": "sender",
            "address": "0xf55cdbdf978f539ea4eee0621f7f1a0f9f00f7d9",
            "nonce": "0x1",
            "balance": "0x7a919134c04000",
            "codeHash": "0xc5d2460186f7233c927e7db2dcc703c0e500b653ca82273b7bfad8045d85a470",
            "code": "0x",
            "storageRoot": "0x56e81f171bcc55a6ff8345e692c0f86e5b48e01b996cadc001622fb5e363b421",
            "storage": {}
          },
          {
            "name": "recipient",
            "address": "0x6baf48e1c966d16559ce2dddb616ffa72004851e",
            "nonce": "0x1",
            "balance": "0x23bbc64262f70a0e0",
            "codeHash": "0xc5d2460186f7233c927e7db2dcc703c0e500b653ca82273b7bfad8045d85a470",
            "code": "0x",
            "storageRoot": "0x56e81f171bcc55a6ff8345e692c0f86e5b48e01b996cadc001622fb5e363b421",
            "storage": {}
          },
          {
            "name": "miner",
            "address": "0x123843545fb525c8e134c9a5f15ada6865cc3848",
            "nonce": "0x0",
            "balance": "0x53b45144a68fba8000",
            "codeHash": "0xc5d2460186f7233c927e7db2dcc703c0e500b653ca82273b7bfad8045d85a470",
            "code": "0x",
            "storageRoot": "0x56e81f171bcc55a6ff8345e692c0f86e5b48e01b996cadc001622fb5e363b421",
            "storage": {}
          }
        ],
        "beforeRoot": "7224FBEAD7F295EDFAD8E3798A17B9AD16324DB12655BE09BA6973C17E2EF6AF",
        "afterRoot": "1940908699D36A1E95C8375C0D916CDEFF60B72E784EF19C970031E844ED1C7F"
      }
    }
  ],
  "stateDump": {
    "before": [
      {
        "name": "sender0",
        "address": "0xf55cdbdf978f539ea4eee0621f7f1a0f9f00f7d9",
        "nonce": "0x0",
        "balance": "0xb1a2bc2ec50000",
        "codeHash": "0xc5d2460186f7233c927e7db2dcc703c0e500b653ca82273b7bfad8045d85a470",
        "code": "0x",
        "storageRoot": "0x56e81f171bcc55a6ff8345e692c0f86e5b48e01b996cadc001622fb5e363b421",
        "storage": {}
      },
      {
        "name": "recipient0",
        "address": "0x6baf48e1c966d16559ce2dddb616ffa72004851e",
        "nonce": "0x1",
        "balance": "0x23baaa0acf79020e0",
        "codeHash": "0xc5d2460186f7233c927e7db2dcc703c0e500b653ca82273b7bfad8045d85a470",
        "code": "0x",
        "storageRoot": "0x56e81f171bcc55a6ff8345e692c0f86e5b48e01b996cadc001622fb5e363b421",
        "storage": {}
      },
      {
        "name": "miner",
        "address": "0x123843545fb525c8e134c9a5f15ada6865cc3848",
        "nonce": "0x0",
        "balance": "0x53b42bf6f4cd964000",
        "codeHash": "0xc5d2460186f7233c927e7db2dcc703c0e500b653ca82273b7bfad8045d85a470",
        "code": "0x",
        "storageRoot": "0x56e81f171bcc55a6ff8345e692c0f86e5b48e01b996cadc001622fb5e363b421",
        "storage": {}
      }
    ],
    "after": [
      {
        "name": "sender0",
        "address": "0xf55cdbdf978f539ea4eee0621f7f1a0f9f00f7d9",
        "nonce": "0x1",
        "balance": "0x7a919134c04000",
        "codeHash": "0xc5d2460186f7233c927e7db2dcc703c0e500b653ca82273b7bfad8045d85a470",
        "code": "0x",
        "storageRoot": "0x56e81f171bcc55a6ff8345e692c0f86e5b48e01b996cadc001622fb5e363b421",
        "storage": {}
      },
      {
        "name": "recipient0",
        "address": "0x6baf48e1c966d16559ce2dddb616ffa72004851e",
        "nonce": "0x1",
        "balance": "0x23bbc64262f70a0e0",
        "codeHash": "0xc5d2460186f7233c927e7db2dcc703c0e500b653ca82273b7bfad8045d85a470",
        "code": "0x",
        "storageRoot": "0x56e81f171bcc55a6ff8345e692c0f86e5b48e01b996cadc001622fb5e363b421",
        "storage": {}
      },
      {
        "name": "miner",
        "address": "0x123843545fb525c8e134c9a5f15ada6865cc3848",
        "nonce": "0x0",
        "balance": "0x53f9b4d628d4ae8000",
        "codeHash": "0xc5d2460186f7233c927e7db2dcc703c0e500b653ca82273b7bfad8045d85a470",
        "code": "0x",
        "storageRoot": "0x56e81f171bcc55a6ff8345e692c0f86e5b48e01b996cadc001622fb5e363b421",
        "storage": {}
      }
    ]
  },
  "blockTrace": {
    "gas": 21000,
    "failed": false,
    "returnValue": "",
    "structLogs": []
  },
  "receipts": [
    {
      "cumulativeGasUsed": 21000,
      "bloom": "00000000000000000000000000000000000000000000000000000000000000000000000000000000000000000000000000000000000000000000000000000000000000000000000000000000000000000000000000000000000000000000000000000000000000000000000000000000000000000000000000000000000000000000000000000000000000000000000000000000000000000000000000000000000000000000000000000000000000000000000000000000000000000000000000000000000000000000000000000000000000000000000000000000000000000000000000000000000000000000000000000000000000000000000000000000",
      "logs": [],
      "root": "1940908699D36A1E95C8375C0D916CDEFF60B72E784EF19C970031E844ED1C7F"
    }
  ],
  "state": {
    "93C1B2E1B72497F62E5037834B4DC51E276B784F8D3155C01A4717A5C778E92B": "F90211A027018684478CA048FCE86ECA65187640E744D47254426A069AD8E6CE1D1831ADA0EED582236D2F6966F77A285B0CE6585345E887D5644B9CE2D8728065778B3DD7A06F8D33CE3B221381CCD2595215543BED42B5505A90E7846B364533B48EBA8AFAA0A80F8CE52136CA8DB40FA8382F98AE38A5E2DE830EDA8981461197BC11E4B1A3A090CBD57F982120C22F7666477BAB8FE71E2CF3EC96097DD9F10B8F9210B20C1AA0D6E3B1B6B07EC72B8A2F78763FC105CB93598B7DAA4BC837A596092C90B68A34A0FE2E4D87FDA934861603ECD2930DC9CC095AA78C61A5C47CB66EC45263756433A0F7C820F1090CB533483F898A41D2C4B12813E9256B525DBD0638BDB650B1D096A05CB2E10967B7F6E99EF27131296B1A437A93F906B547A9D8F1613DFD0D05E39EA05BC8698614A884A8A362739A62F33690C9CE4FE39A9D24DEE497E92D82475212A0940623162750948FA1046B29B785B3BDC03B918E7863ABCBE67523E533C466A6A0DFA2C83653950CEC99F90CA1DD77DADDBEF61847B95888E6BD537AC03B3950F4A06A3A92E929839AB61D41A42EAF6166DD816BDEE4AC5DDAC2CD544FE6BDC58941A042B517223BAF6FCB6A84AFC770B721736A6434D739694244C1A226B76E2E286AA0684C69945A9AF7A1294E8C0431596C8E0B77E1B6AFE8D6FE0B14D8DC44187718A0FC008CF07A7C91E9FF251831A2F05678FE20C27D4D16D1D747D268AF72BB551980",
    "7C9E920B3AC2821AFE7F0B9708D8C67833CD1A07B007CBF951929EA8CB6FC981": "F901F1A077FAEBCC879974708F0F2B8C840F188257289A604689D07F241EEDF201486D0EA023DD573AB23EA51D96723F351A7EE5D2077F16EC5D8F2DE11E0F1CB676B810D1A0F6DED1A017E47B7891BCB0ECA010F804EDCAFFFD8D98C19C150DEC177C475609A0C1795A017640277CB4FC4F54FC2AD1B0EB6CC5A439496D66E417ADE3D9C3589EA02FFC00DA7CB3B809DB730965D311B9DD991E7173F844867F21D42754536E0498A04B9178BD7093B53715CA3F1F9F6D3E924485F065DEE1977DAECFC77A89E5E16CA0AE691C8BC9439CF5A32E05FF70BB3F9F1E0098C549604401321E332E43A50AC5A07286A91A91E73AE929492FC464812AD7916FC0B3E36190B013F39A75B35EE578A0E37538E95053EEFB5FC4A56D3A2EB82741A5B7D68A10FB85F1D0431405DCC730A0F081F92B78DDFAD24B2DC48C85364C2A29C036C93ACF8067513F63446A5CA0B9A044221B96858ACD554B2686CD629A845633AB1C75DE485EB2B7B939C62B5463E2A030BA76E4A97808F630F391C370CE47EA6DC07E1968351A657AFCC004195AA6D4A0C4CEC91168025BE71DB56ABD91D7F21D7A76CDE6721BC9E0C755371001747240A00511617272816B89CF88A1066C55075C49FC96C92A97E3398A94F1A1F460D1EAA0BE0F763D3A5A75EBCDC781BC920A702D2AFA814EAEFA3174FB93378052575D6A8080",
    "009B430B5151969097FD7E5C29726A3AFE680AB56F0F14A49A8F045B66392ADD15": "F90218A07428907E594ABB3E850E07AA5DAA7161E4C35E95E2A17A4664E5516CA304624DA01DCC4DE8DEC75D7AAB85B567B6CCD41AD312451B948A7413F0A142FD40D4934794123843545FB525C8E134C9A5F15ADA6865CC3848A02D2F94130573B3EECA5F158197DDBCAE4D4B5B85B3C8E7928BF94430B427FFB9A0B341C601247D7DC10F8BCC9DCC0A4309623A9A775AC2908866121D17F21701D3A0EEDFC82032CD38BD563791E05017E6961563E671BFAD1ADB0A2DD61A16EF5160B901000000000000000000000000000000000000000000000000000000000000000000000000000000000000000000000000000000000000000000000000000000000000000000000000000000000000000000000000000000000000000000000000000000000000000000000000000000000000000000000000000000000000000000000000000000000000000000000000000000000000000000000000000000000000000000000000000000000000000000000000000000000000000000000000000000000000000000000000000000000000000000000000000000000000000000000000000000000000000000000000000000000000000000000000000000000086015559E686C682B540825F368252088455C4371F9B476574682F76312E302E302F77696E646F77732F676F312E342E32A09158557AD5EEB2A1C69CAB7FC74E7CB85A45DA815405184D7647E056C38604AC88724B0A6D3B38E92D",
    "5DF13E609FC2216AA8E0E8CA3E8B9E227AAC227368FA24780F25E7D7748FEC71": "F891808080A06D7921049D8130F1EBE70EF8CD281457E7D0BCC28AB023605F3ABAAAB075EE568080A0397B9E46D7E8678516C8820E610F5825A42C5FDA6D9C89FA3263D9802F144A7A808080808080A0A2B574D2FD051C1F6352E8B25ECF87635781D3D995F57CEC66D3996CEE0EECB1A0CD6F358285CFFA18F8A0CB6677FC4BFD5FF1902BF4CC1684A8965C6BAF49C6DD8080",
    "8D91A0573DDFC17B493C534AF1FB25DDE9FD691ABAFC49BB0B58A48CA4F5FA6A": "F90211A0821B49C8DB2BAB13D71CCC6122E4E4F22FA27B13E81C8B28829C330E50CF726DA0B18C618A130472BE5C0B41DA3DB6480AB2B95D7FD5F06527BD5CAAD358C464E1A05E37E3F77ECACDF3A9B5BF4BB9DB8CF40008C4A0DA0E78914970212BD4F4CB01A07C9E920B3AC2821AFE7F0B9708D8C67833CD1A07B007CBF951929EA8CB6FC981A007E50E4D0D17D9FED85636890FA22F9CB4D68678921FC4B499B8437599307B59A0F54D8CD657665653B9CDC21511CBB142FA48F79707FFD16CC69743DA8C59B341A072B5B3B00B262DCCD18F5978F96E1734508E161718DF7C7530890B04BD3FA47EA0FD6BB56D941A1E358F9B2F9D740A3EABE38048E7A4C31689C2CB087E21671662A0CE145D7F56C9C0A65CB91193FBF31720B8DAABDE23461A7498B85B4C719B4A22A04F271F07A8185B830BAFB75C4D1AA9FACFAFC10D51F767CCAD725990BF985EF9A0CF10892B07A197925BB17794B77725638565666D378FF83CC396EB89AF3E973EA0A3519A6790058194618464B319A5892AAD401D0D2AE3DAC58760A9FFE3F8182AA05D54CCF59FDFBB78A4622F9CBA66FD105DC7F227A8F8C4D433FAD47D67AA75C3A0E7086D3AF05D5B4D3D93562EEE01F883D25FBC45A62CCD0D20B1D3DB73529118A059D6F2F448856FE7F27EB5CF04B90BB4B1A5B46FD8A957C8A916EE34FF4C1E60A0195D1EF76C03C9682ABAE9CEAD00FCB51CE000926DB12C880FC51FDAFF43F50180",
    "B341C601247D7DC10F8BCC9DCC0A4309623A9A775AC2908866121D17F21701D3": "F872822080B86DF86B8085746A528800825208946BAF48E1C966D16559CE2DDDB616FFA72004851E8711C37937E08000801BA05F5DC76FCE727FE1A2C973A182D56B00C6A740F25111081E309FD2E16014290DA0177A6C3CC3A6E80A5044E0F7CB537EF81B590B71E21C56EB5E93E6A851B79860",
    "CA8E1276AC8496651F04D85E905D0DEBECBB09B1C8B104A24C7FA5AEDAF86833": "F8719F20A29AC7E3706BD65FB777A4E5EACEEEDBC5E1655D5A4FF4E4A423C7D17044B84FF84D808953B42BF6F4CD964000A056E81F171BCC55A6FF8345E692C0F86E5B48E01B996CADC001622FB5E363B421A0C5D2460186F7233C927E7DB2DCC703C0E500B653CA82273B7BFAD8045D85A470",
    "5D54CCF59FDFBB78A4622F9CBA66FD105DC7F227A8F8C4D433FAD47D67AA75C3": "F901F1A0CA3EEAA38C766080D8ED2E06F8E1F8D9D45AB1168E6924CAC49683DE452780AAA0E16F176DE82289A6E611979EF2CF8E09C1AC8E3F94A7A1400EC761292931D3FBA09D333BEC818E7A1BDFB4A133FC7814BA41FF44E8D858E2CC90C83D5C661EA80CA0374AD38C7F489D42DEE02AE7A80DBC71472D74CF04AB747EE2DB416F12475DE3A08E26819BAAFF50D8EBF1FBACA37C8AF08E167FE66553FF5E31A28C1C47A54F47A04A3A02F88D981898A6E09940E2C6A95A6B982BDCB899B9D4C7FDB914E3FCDB53A00EFA1D6C080B92AB6E560913FE50FBDE0F2D30FAA4DE4EC2B96646C24747D83BA0661EC5DECCDFD4B535BA19524F344DF89C80E7FB21F04597F2ED34263B41A8DEA06E431D90A7BF613D0A9681841B0AF52873EC8BDB7A4EAB13694CAD1758D54896A0D24D447E9DFEABDA72C72D139107D7CFF3FD67E64B86E0CF0AE39AA39BCD0DE8A08451BBE4D124545C3AE823548201BF06DF39DFF9BA51C9FD945E4E83F76F40E8A05DF13E609FC2216AA8E0E8CA3E8B9E227AAC227368FA24780F25E7D7748FEC7180A00E17B853F5961029AE0B8CF0F2CA616C85EAC982D1A5389429F25F7A40535726A021EE05CFB790D6BB9D5A2791F203DA3242C1662073427A99B5DD6AB536365099A0E479B3313DC79AF3F39C6FD6DA943BC194FBCEAC12E80F119BE810B5F86ACD6480",
    "27054556A1FFE03835448641692D5FA0752EC1E44C197E8A1710A9EB1165871B": "F8709E3761C9C0BD5CB39E03D3C68C3F356B45C45ED51CB9D42C91AD869529DC39B84FF84D0189023BAAA0ACF79020E0A056E81F171BCC55A6FF8345E692C0F86E5B48E01B996CADC001622FB5E363B421A0C5D2460186F7233C927E7DB2DCC703C0E500B653CA82273B7BFAD8045D85A470",
    "5CB2E10967B7F6E99EF27131296B1A437A93F906B547A9D8F1613DFD0D05E39E": "F901F1A09CAB3DEECB3FA76CC3CEED9A9C6B376A8340B9F53E0225C327900F8634FBA00F80A0EACD1C5BC03B56A682C55A3B5F1BA2C55E5E0DCFD4534EFCAE1CFFE45038890BA0E24BE25ECB914AD7B73928054F5F781C702A46BD555D2A09E3AB88870D7827E9A04AD8CF4799D432AB62A749D4C92CFDA9CA43EB7D7072176473DF48552B64105EA08C35A03B8583DA7DD9010DD7FA0EBA29C8F2EC05F45D0A859762B196206C0D0BA08E72A76EB0DAB09FF4FDCEB37149175CD66975DFD0863948AD5D0CEF47426449A0C8562CEC73340A655559E0DDF8ED7808C702C2462E6F1A5FDFA552606EF8B7B1A054FFD758CD9859F3EAA8CAB0B17D682ABD863D94E35705FC262E2FC2D4E8DC6EA0CC63F87033310932F5C17F6C222A3FAC3D48C1551FC8D895464B9CD30172FA26A0C98460DA75E60E035F5B26075FE1FC2F2174C952A02C234E43D7BEE61280A860A03932FAF9691CD061D83F2C9AAAEDAE67204093702F0A259729FFEA69BCCC8DDDA062D87B452726077D12494335E8594F0FCD0E936719CF67EE96DD7508386E4A92A0361CC2E0E99B1CD3AB6A489AAD302409ACA0D958AED5D47D31DD50123A2241E6A08D04043C602DC1A519BFF28B17E4B3089579B6B8DD77BFB7F62F8CCA187653D1A0D0D7579A2AD173C20D565EA489439971E4F67A728A6885E2101053C3DB7A98B480",
    "56E81F171BCC55A6FF8345E692C0F86E5B48E01B996CADC001622FB5E363B421": "80",
    "0140B5000000000000": "A09B430B5151969097FD7E5C29726A3AFE680AB56F0F14A49A8F045B66392ADD15",
    "007428907E594ABB3E850E07AA5DAA7161E4C35E95E2A17A4664E5516CA304624D": "F9021DA066B948E173404273B343FDCDE1F07B21615061BEF65E494197C77DAEF5B7C4E9A01DCC4DE8DEC75D7AAB85B567B6CCD41AD312451B948A7413F0A142FD40D493479488D74A59454F6CF3B51EF6B9136AFB6B9D405A88A07224FBEAD7F295EDFAD8E3798A17B9AD16324DB12655BE09BA6973C17E2EF6AFA0B9ED4837D90935F63FEEBD006F130DC69CB00249B646E50287AA82B90ED62AA9A0A6E753EDC1A92FAFC1355C2DD450F8D6CC285BF455ACCF9B7202847272EE2FF5B9010000000000000000000000000000000000000000000000000000000000000000000000000000000000000000000000000000000000000000000000000000000000000000000000000000000000000000000000000000000000000000000000000000000000000000000000000000000000000000000000000000000000000000000000000000000000000000000000000000000000000000000000000000000000000000000000000000000000000000000000000000000000000000000000000000000000000000000000000000000000000000000000000000000000000000000000000000000000000000000000000000000000000000000000000000000000860155849719A982B53F825F2E8252088455C436EEA0476574682F76312E302E302D66633739643332642F6C696E75782F676F312E34A074EB70001E83F0C74852704FFE3BBAABA812AAC96940BC9608B89C888E38322288AA79D8EA2F3EC35A",
    "397B9E46D7E8678516C8820E610F5825A42C5FDA6D9C89FA3263D9802F144A7A": "F86F9F201ACF57F99D21DD086E2C1516595BF3190F4925D4A416F0D675F615CE0E35B84DF84B8087B1A2BC2EC50000A056E81F171BCC55A6FF8345E692C0F86E5B48E01B996CADC001622FB5E363B421A0C5D2460186F7233C927E7DB2DCC703C0E500B653CA82273B7BFAD8045D85A470",
    "6DDBD0DC5643168D9CC99EBA533E0E231E9F2E07A550D27E2BA94CC79A2FB1AF": "F851A027054556A1FFE03835448641692D5FA0752EC1E44C197E8A1710A9EB1165871B8080808080808080A01FE898C16A3E5B21746823E564D2115FCF2F648732D9941CDB11290D06DF431980808080808080",
    "7224FBEAD7F295EDFAD8E3798A17B9AD16324DB12655BE09BA6973C17E2EF6AF": "F90211A00B0628A32FA056F1A1B66E7D1ECB44A405354DD8F7259DF5C02E76F3A87B3430A0E290C81E9504475F10080C9C05451ED5DC91488D7450ECF7BB91858A7B70F235A05A1A506E868F771422BA5D4495FE88E59F3FA88BC94975D8908AD864765A78B7A0C5A67B2CAD5189ECA7F5F3D306039903B38A25BFF81AF15A2526F59B09D750E6A0DE3DE3A3493E217900F150164F7C3AF827A8BBF2697D44157E3AAC94E54DDAA5A0DE72DD710BD502E7BEBA559B32A34516EAB5F24A49AFBBFE8B4EC96117683E38A093C1B2E1B72497F62E5037834B4DC51E276B784F8D3155C01A4717A5C778E92BA0F5CCD603B3EDCAEAF8595280738D7D75C493D1119A21296C625DA1A6E7E96489A04AC4EBC354C1A77C9CDB2F527808F79CA32190CC32C6F2916305847986863F73A0CF06A8E4E85C5E1520DF6B37454792BC540FA97F4BC5DBC5FDE66F92F824155FA0595BDC63A42A791CEB543A1F1808A614EA01D7D7A2EBA8B43CA6D403A7FD134CA0FDA41CAE3F2A46CC892F064C6B8C5C953154A08248F38B6BE158BFE0BC6AD3FFA0655D317E4D97057451900595AF30646812DE8CC23278F28F6EE45AC0D9629593A0717B256530E04D8F4D0A42394C1EF2716B6DD33027C9D1E5A8CA627D3FEB85FBA05708F26C9EBC6D645B41A8F695E6CC0AA503FC49E2D4FCFDA7FF9C1FFE505808A08D91A0573DDFC17B493C534AF1FB25DDE9FD691ABAFC49BB0B58A48CA4F5FA6A80",
    "EEDFC82032CD38BD563791E05017E6961563E671BFAD1ADB0A2DD61A16EF5160": "F90131822080B9012BF90128A01940908699D36A1E95C8375C0D916CDEFF60B72E784EF19C970031E844ED1C7F825208B9010000000000000000000000000000000000000000000000000000000000000000000000000000000000000000000000000000000000000000000000000000000000000000000000000000000000000000000000000000000000000000000000000000000000000000000000000000000000000000000000000000000000000000000000000000000000000000000000000000000000000000000000000000000000000000000000000000000000000000000000000000000000000000000000000000000000000000000000000000000000000000000000000000000000000000000000000000000000000000000000000000000000000000000000000000000000C0",
    "8E72A76EB0DAB09FF4FDCEB37149175CD66975DFD0863948AD5D0CEF47426449": "F87180A0F904EE7483E34CF9FAF1EF785D0A4B168D1A290AE208218E7C9DDCAD415428C980A0CA8E1276AC8496651F04D85E905D0DEBECBB09B1C8B104A24C7FA5AEDAF8683380808080808080A00AAC4AA4C83AF2A0C046A51781E6E149F83F9A536F39B515B58A68E4D74614418080808080",
    "0511617272816B89CF88A1066C55075C49FC96C92A97E3398A94F1A1F460D1EA": "F871808080A06DDBD0DC5643168D9CC99EBA533E0E231E9F2E07A550D27E2BA94CC79A2FB1AFA012FAC5D752FF5B653F0BADC569CC78DE4F0F8A85D8E095D548759A59C6A55AC880808080A0B9CD1544584F9E6883B8B736BB3F1380E58A8B4C1BECC91A483068D7702F7F8780808080808080"
  }
}