{
  "blockNumber": "61",
  "txTraces": [],
  "stateDump": {
    "before": [
      {
        "name": "miner",
        "address": "0xbb7b8287f3f0a933474a79eae42cbca977791171",
        "nonce": "0x0",
        "balance": "0x6e2e9a8d5a7d72000",
        "codeHash": "0xc5d2460186f7233c927e7db2dcc703c0e500b653ca82273b7bfad8045d85a470",
        "code": "0x",
        "storageRoot": "0x56e81f171bcc55a6ff8345e692c0f86e5b48e01b996cadc001622fb5e363b421",
        "storage": {}
      },
      {
        "name": "uncle0",
        "address": "0x1b7047b4338acf65be94c1a3e8c5c9338ad7d67c",
        "nonce": "0x0",
        "balance": "0x45cba6dc885b6e000",
        "codeHash": "0xc5d2460186f7233c927e7db2dcc703c0e500b653ca82273b7bfad8045d85a470",
        "code": "0x",
        "storageRoot": "0x56e81f171bcc55a6ff8345e692c0f86e5b48e01b996cadc001622fb5e363b421",
        "storage": {}
      },
      {
        "name": "uncle1",
        "address": "0x28921e4e2c9d84f4c0f0c0ceb991f45751a0fe93",
        "nonce": "0x0",
        "balance": "0x1f090894c3d722000",
        "codeHash": "0xc5d2460186f7233c927e7db2dcc703c0e500b653ca82273b7bfad8045d85a470",
        "code": "0x",
        "storageRoot": "0x56e81f171bcc55a6ff8345e692c0f86e5b48e01b996cadc001622fb5e363b421",
        "storage": {}
      }
    ],
    "after": [
      {
        "name": "miner",
        "address": "0xbb7b8287f3f0a933474a79eae42cbca977791171",
        "nonce": "0x0",
        "balance": "0x72ca37370111a6000",
        "codeHash": "0xc5d2460186f7233c927e7db2dcc703c0e500b653ca82273b7bfad8045d85a470",
        "code": "0x",
        "storageRoot": "0x56e81f171bcc55a6ff8345e692c0f86e5b48e01b996cadc001622fb5e363b421",
        "storage": {}
      },
      {
        "name": "uncle0",
        "address": "0x1b7047b4338acf65be94c1a3e8c5c9338ad7d67c",
        "nonce": "0x0",
        "balance": "0x48818a8b9f0cf6000",
        "codeHash": "0xc5d2460186f7233c927e7db2dcc703c0e500b653ca82273b7bfad8045d85a470",
        "code": "0x",
        "storageRoot": "0x56e81f171bcc55a6ff8345e692c0f86e5b48e01b996cadc001622fb5e363b421",
        "storage": {}
      },
      {
        "name": "uncle1",
        "address": "0x28921e4e2c9d84f4c0f0c0ceb991f45751a0fe93",
        "nonce": "0x0",
        "balance": "0x21beec43da88aa000",
        "codeHash": "0xc5d2460186f7233c927e7db2dcc703c0e500b653ca82273b7bfad8045d85a470",
        "code": "0x",
        "storageRoot": "0x56e81f171bcc55a6ff8345e692c0f86e5b48e01b996cadc001622fb5e363b421",
        "storage": {}
      }
    ]
  },
  "blockTrace": null,
  "receipts": [],
  "state": {
    "857866471DC094921E22545450C5B800ED1142C848B94C48EB406277128BF87B": "F90211A0DAE48F5B47930C28BB116FBD55E52CD47242C71BF55373B55EB2805EE2E4A929A00F1F37F337EC800E2E5974E2E7355F10F1A4832B39B846D916C3597A460E0676A0DA8F627BB8FBEEAD17B318E0A8E4F528DB310F591BB6AB2DEDA4A9F7CA902AB5A0971C662648D58295D0D0AA4B8055588DA0037619951217C22052802549D94A2FA0CCC701EFE4B3413FD6A61A6C9F40E955AF774649A8D9FD212D046A5A39DDBB67A0D607CDB32E2BD635EE7F2F9E07BC94DDBD09B10EC0901B66628E15667AEC570BA052F2948EB467E1980241B8E20558F78EA874BC7C858672BBE21B6AA5685A2400A0B84227D48DF68AECC772939A59AFA9E1A4AB578F7B698BDB1289E29B6044668EA0FD1C992070B94ACE57E48CBF6511A16AA770C645F9F5EFBA87BBE59D0A042913A0E16A7CCEA6748AE90DE92F8AEF3B3DC248A557B9AC4E296934313F24F7FCED5FA042373CF4A00630D94DE90D0A23B8F38CED6B0F7CB818B8925FEE8F0C2A28A25AA05F89D2161C1741FF428864F7889866484CEF622DE5023A46E795DFDEC336319FA07597A017664526C8C795CE1DA27B8B72455C49657113E0455552DBC068C5BA31A0D5BE9089012FDA2C585A1B961E988EA5EFCD3A06988E150A8682091F694B37C5A0E2C42346CC3F45F7AC5DFBFA6A2BA779F210D05C016693F3493AEB78F7980A85A049BF6E8DF0ACAFD0EFF86DEFEEB305568E44D52D2235CF340AE15C6034E2B24180",
    "0027E6B6AD4E6D50EF76EC5C1A8B09A6F852EF5D589FE8D87873F5935A9FEF1BBA": "F90429F90212A0FD07E36CFAF327801E5696134B36678F6A89FB1E8F017F2411A29D0AE810AB8BA07766C4251396A6833CCBE4BE86FBDA3A200DCCBE6A15D80AE3DE5378B1540E04941B7047B4338ACF65BE94C1A3E8C5C9338AD7D67CA052CE0FF43D7DF2CF39F8CB8832F94D2280EBE856D84D8FEB7B2281D3C5CFB990A056E81F171BCC55A6FF8345E692C0F86E5B48E01B996CADC001622FB5E363B421A056E81F171BCC55A6FF8345E692C0F86E5B48E01B996CADC001622FB5E363B421B9010000000000000000000000000000000000000000000000000000000000000000000000000000000000000000000000000000000000000000000000000000000000000000000000000000000000000000000000000000000000000000000000000000000000000000000000000000000000000000000000000000000000000000000000000000000000000000000000000000000000000000000000000000000000000000000000000000000000000000000000000000000000000000000000000000000000000000000000000000000000000000000000000000000000000000000000000000000000000000000000000000000000000000000000000000000000850428C793525E821388808455BA43DF9A426974636F696E2069732054484520426C6F636B636861696E2EA0C6D695926546D3D679199303A6D1FC983FE3F09F44396619A24C4271830A7B958862BC3DCA012C1B27F90211A0FD07E36CFAF327801E5696134B36678F6A89FB1E8F017F2411A29D0AE810AB8BA07766C4251396A6833CCBE4BE86FBDA3A200DCCBE6A15D80AE3DE5378B1540E049428921E4E2C9D84F4C0F0C0CEB991F45751A0FE93A0E766F9C51536E9038849E5EB0A143C3B3409B5385098359837CBF3324AD22328A056E81F171BCC55A6FF8345E692C0F86E5B48E01B996CADC001622FB5E363B421A056E81F171BCC55A6FF8345E692C0F86E5B48E01B996CADC001622FB5E363B421B9010000000000000000000000000000000000000000000000000000000000000000000000000000000000000000000000000000000000000000000000000000000000000000000000000000000000000000000000000000000000000000000000000000000000000000000000000000000000000000000000000000000000000000000000000000000000000000000000000000000000000000000000000000000000000000000000000000000000000000000000000000000000000000000000000000000000000000000000000000000000000000000000000000000000000000000000000000000000000000000000000000000000000000000000000000000000850428C793525E821388808455BA43DF99476574682F76312E302E302F6C696E75782F676F312E342E32A08C1ED8037984BE0FE9065F8F8663C3BAEEB6436868AC6915DD3C2CD5FD46FA968840B0B2C0B6D14706",
    "3D666815D326EA39BB152FD7A94305180D243D6AB090BD85B2079FC3EF288804": "F90211A06F499AAFD2FCC95DB6AC85B9EC36CE16B3747180D51B7BA72BABDBCEAEF0CAC8A034FFBE94CC9F4AC7E43BBD0AB875CE079E5D131F72F33974C09525BAD37DA4B4A0985DB173348C2B98E528D58A36236C53155E216AA82C93AE85E0B5A12037A891A0A33D103A92FF6F95C081309F83F474A009048614D5D40E14067DBAE0CF9ED084A046A0E834A4F3482CB37F70F1F188D7C749C33FB8B94854B16DCEBE840FC9390AA0A5A914013E15472DC3AE08F774E9D5AC3127419A2C81BEC98963F40DDE42EBAAA0B5740BDFA8ECF2B4D0B560F72474846788A3E19F9E0894C6BD2EB46255D222E9A04AA4E4EBE1930364AE283E8F1FA4DE7EF1867A3F7FB89C23E068B807464EAC14A0F84E5E71DB73C15FC0BFA5566FAE5E687E8EED398EF68E0D8229A7BC2EB333FDA0551D35FA9C76D23BBBC1FEB30A16E6EE1087C96AA2C31A8BE297C4904C37373BA0F25B1BE3EA53F222E17985DDE60B04716BC342232874AF3AD0AF1652165138F2A0E50848E903B54F966851F4CBAC1DEB5B1D1BEB42B4223379BB911F68001747F8A021D90BCCF615FF6349CC5FDF8604EE52789C0E977FE12C2401B1CC229A9E7E47A0ADE009F37DD2907895900D853EEFBCF26AF8F1665C8802804584241D825A6B49A09FE500DED938F686589AB2F42CAAD51341441980EA20E9FCB69E62B774C9990FA087888BB118BE98FA5DFD57A76D0B59AF08D7977FE87BAD7C0D68EF82F2C9A92880",
    "C56035D12BF01BE9579A38CF056CD6D25259DE3FB664087477036C3915270F76": "F871808080A0880DE69BFE92C4F8CF85EBC8DC95B540649615A3FC603E1FCE0AEF88FA0C62D3808080A01BE272B3F91D7222F80A910E584AE7C7A75ECC07C707078CE17480EEBB7AA3E48080A095E6383C0BCF66C6040F6330A9CF8B06F149F6D018FF02FC462702049CD9C9E9808080808080",
    "985DB173348C2B98E528D58A36236C53155E216AA82C93AE85E0B5A12037A891": "F901F1A0BFF20B92776D8571E785A953AE7E792DBB598E2776C8B616E383A89DED578998A0AAAA1C9DD156328A9A0CDB6A886DA95B8A31303212AE27E58EBA6572B34CC664A0C4B0F91889244D9FB86468A8A5B4D9B6411F97BF45485C81645605057E1B7632A073DEF700D71056A85E16A98E1948F7438A60A6B1A60A832A03508510EA958E11A024A55FC5737A2BF3B9F9614F8E4A133C4A0B37D945DB803DE8C1B52CDF348381A092B449BF1F2B2733AC87C7EAB715A7EC38D2A29063C051C2EC6721818721E29AA0C73BF2847C8EF60429C9F684F43974F13595F7DF4DEE6C06207DBAC4334F3E1BA03657712F56E647526ACD494009741487F6192A89DBC96F29F3861FB14CF3B8FEA0D42141675612CAE8DA814C8F6041D97609B83669EF130AE9C93C23A574042CE380A05A095BA25878439C95E9E35F017DE1B1858CFD61B06F15D2DDA5A2D53D22D4FAA017D065D2CC4B46275F9B4943EB30BD29CFB81E0086683441B6466F56A8ACB5C7A08DC673D032E71568A7902B3C5D0DD00BB7437FBC1A5416AD6FCAC408707A6447A00B3342A9ED3F64549953D7FB9735E5614AA5BF772B296523F5135083B1184769A07C412299F51E70256F7A50186066FD0584977A81328EE2158B6079FE36024E63A0757B393A9B0F909EB65943582C415D1235240E8D6D333DC34FE9D4B25205299C80",
    "7BF4E05AE66046604857258474E844622E1084FEEF55E115332AD67A5EB54478": "F90211A0D6077D49E154D6CDF1AA6AC7991FC8981B3B8AA5F99F6C3AD86FB9ED4EA64FF0A09A7BEA850D9C77A8992D096084B11CE2B409B3F590CB36ED9B3ED721EFB8E1F3A0362BB2F66B20A274A295B069CEFFC67E7C6615D90EA4011C5CD1261E1C23F17DA0064529B3E1F7BF6B9ADB40A2A0E8740AFF90D0958487D6C1C7FF92880A99A88AA0EEC386172EC92E1E3B29BFF3C9F6E2076774F0F47600E265778112A77A1C45C3A05BABE001FD5C118558E7B131ADBC41D9131F51A5A94E875FBA41D070B72C7809A04B61A4DC669231FDE09B6251F820377527D5CB1C3624D47EBDB4A8B4974372C7A0B38438E6256273CE207DED52F997E91F6DACBC949045C4B76405288CFAFEA6F1A032E7AB2BDCF8FCDFBF47E618176E4534C9876E1EAF30D10A04E9FEF22AB5DCA5A064F5DC2B9910AAB4AAE3254B9D195804BFB8E2C1E2D22274908FCA6594D9CFF6A0B3DECA7AC4915DF5366C3D2DB7AF663DD88539F99AB042E2A42693297073405EA0E4D9E822A9235FEE09104594979BB8542978C61C643D96FDEE2155DB30D18B81A0A970BA7BF16733277DAEC7615158BBC3004271843B680812079228162E11F7D2A01E95878CAC4FA491FCB56F10B067AB9CFC64826365C14BDDE7C73F96052D459EA0DD479BE18DEE55633B3B890F5AE9515BF3A9D56B1A02FE9818159E11D5BA5D77A096FB3979B65236F6572DD86A760CAE36B2ED154B0F66059B65D64B6297723A4580",
    "00350565A8DA416084AF658287442EEF4F651BF944C6D804B5C3BDEE5D7D951F80": "F90212A0C0F772DB658B2279A736F232E75D98629A53D36086E34A18F9FE65A4650D50A7A01DCC4DE8DEC75D7AAB85B567B6CCD41AD312451B948A7413F0A142FD40D49347941B7047B4338ACF65BE94C1A3E8C5C9338AD7D67CA0563401469B5C16712B251E6042620838DCF4B88B6C59969A86FAA94C7B4402D8A056E81F171BCC55A6FF8345E692C0F86E5B48E01B996CADC001622FB5E363B421A056E81F171BCC55A6FF8345E692C0F86E5B48E01B996CADC001622FB5E363B421B9010000000000000000000000000000000000000000000000000000000000000000000000000000000000000000000000000000000000000000000000000000000000000000000000000000000000000000000000000000000000000000000000000000000000000000000000000000000000000000000000000000000000000000000000000000000000000000000000000000000000000000000000000000000000000000000000000000000000000000000000000000000000000000000000000000000000000000000000000000000000000000000000000000000000000000000000000000000000000000000000000000000000000000000000000000000000850429D1D5D960821388808455BA43E39A426974636F696E2069732054484520426C6F636B636861696E2EA0B4F571ECF4DCEBE75260F4929A01DE8B2C19C161BEA20DDA91BFB92298F7262F881DBC948CB756C2B9",
    "52F2948EB467E1980241B8E20558F78EA874BC7C858672BBE21B6AA5685A2400": "F901F1A07E3841A449BD5A6DF6ACEACCE40C5B64DA60027FA5100AE010CCB96966FA40A3A021B066C4E81C1FE54C8034493A4F97104721FF18B19D41CF6E4180D031FCBF48A0C56035D12BF01BE9579A38CF056CD6D25259DE3FB664087477036C3915270F76A01DC1363756D994C0DED724EEB3B962044517EE8CCB2D819EF806CCC22D6B19BCA0881D03A502FB8B7AE1EA1AC001BC18B5D16AE2352B759753ECA8DBCD1929A4C9A0CECE003B7FA28B1DAC7AB6679A822D2ED1816B74E0CE1FB2039449EEF285438BA0ECFD6C4C8066F5BA5D3E5799BB791E9027389448120B9B85D2F225F7AF95B81BA038C0BE1A498CC8A81B3823420F588262BA547123CBBE5496ED9C9BBE8746E2EEA0FB973E874FEFB1A847154BA6711CCA33610C2916B37E5853A8DB434D63DE56D0A014E1434148BAE838820BF07E69756B5A23497BBA247E466E9A9C82FAAC33E41AA0737A835A03BB4D86E72CCB72C5A19A4FB5D527D7574DF7E707CC2D2E968C6B91A02B33586FFFEE450DF84D574BD66E98DB9F5059DDBC111984B38EBFD941E278F3A0D92E5C7BA701F75F742D824235AFB2FF5F228FAD3ACA6A30EDED0336D648F214A0B41EFE936355F7EA256D1FB5212563F6C36611CAE557A70917B26AB69ABB6BCD80A071BE33594382CD7FB42D039800CA2026FF2FC1FF4BC06963F3B4DA16E90577C180",
    "1BE272B3F91D7222F80A910E584AE7C7A75ECC07C707078CE17480EEBB7AA3E4": "F8719F20E342BBA2807022514C2D522E22BA66F911653D1ABCC74BD0A7868AD3CB36B84FF84D808906E2E9A8D5A7D72000A056E81F171BCC55A6FF8345E692C0F86E5B48E01B996CADC001622FB5E363B421A0C5D2460186F7233C927E7DB2DCC703C0E500B653CA82273B7BFAD8045D85A470",
    "F30E9A00AC1D8B2033452A21A03FDCC06D93A004463B52A165F67D1E0EB2847E": "F90211A0C2A1C2E665FEA05F4D30D31B272A8C047AACF3D1A0B7C1A0EE906E60A035C9B0A0FA0A4FBF9BDA7B85F7BBA427D4AB7CC70F3D34D950A6FC2BCEB13EAA768FFA82A06C66A1CCF1D6970C50A3EB4813B84119251C2B71D40E77A09D7D410D8C1651BEA0F5F7CFE57B613DF20AED3EF170DFAE14158662A70F454057D089EF8218E1D945A01E62382D88F4307AF1F6D593267055E17283C3A519920501173862CC54506B37A00D82C6F4338226409FF07FE8F999012ED5AAD5DAE6A6894BAB2EC6BDA95181BAA0E51D2988718103DC33E1F3B9204D9183F46D90F702E1026D2CE7555CB3DB2E8CA0E332A5537D655E5AB4226C7C536B20062878DCD45AB087B4A6264ED4A407F5E5A0990BF2D32A9B6BED5864DBD67EB10C1AD02C97CA9C5A668672313847B467539BA047A426BAA25EA76BAB89D112FA8BB0BA047694B0FB7C178AF959900154F81B37A0347005207F82C3BD3858B7B29BD04A947B36E8D9B920319C47430F110231CCF3A0AA17D50BEB86B446E83392263AFB42C91D06D921357E99FFA59075805B0E102BA094330E81B25F1542AA6EDB00ED4AB8F19C87315B8BE3537034DA6F6C8CC7FFDBA07BF4E05AE66046604857258474E844622E1084FEEF55E115332AD67A5EB54478A0EF4DEFD9E89F008BD41F4900D338C5DE14430D1AB7CA1D1CBBF300390C86038CA0AE1B8F9AB35E0746EC2F4595BAD98D7A42ECED5A50858D9F91D506FD9B263E6280",
    "5BABE001FD5C118558E7B131ADBC41D9131F51A5A94E875FBA41D070B72C7809": "F871808080808080A0582A075603FD332B47322AF21B0358619BD1865CA6402DF0D6888005EDBCE16480A07DD486BA8BC217016258648DAB25924EB47588642FA0F9BE579867256E798517808080A0D07D20A429C8A0CD30B5C30FD6E72E6D5404795A9B10ED31FDA1422014036E8380808080",
    "56E81F171BCC55A6FF8345E692C0F86E5B48E01B996CADC001622FB5E363B421": "80",
    "803B0C8EC037D493EBF19CDFFD202A826C82A3F7CBE55495FC53E4092432693B": "F8719F205CFF8BE348CB55792F52966BBC619F0BC63DDAB2BF660D6F8A8E452CF27EB84FF84D808901F090894C3D722000A056E81F171BCC55A6FF8345E692C0F86E5B48E01B996CADC001622FB5E363B421A0C5D2460186F7233C927E7DB2DCC703C0E500B653CA82273B7BFAD8045D85A470",
    "016100000000000000": "A0E9FB121A7EE5CB03B33ADBF59E95321A2453F09DB98068E1F31F0DA79860C50C",
    "00E9FB121A7EE5CB03B33ADBF59E95321A2453F09DB98068E1F31F0DA79860C50C": "F90216A0350565A8DA416084AF658287442EEF4F651BF944C6D804B5C3BDEE5D7D951F80A027E6B6AD4E6D50EF76EC5C1A8B09A6F852EF5D589FE8D87873F5935A9FEF1BBA94BB7B8287F3F0A933474A79EAE42CBCA977791171A092AE5D0DCC3E4329063C0D80FF5745E16C23EB23D187AD89F9AD0FD5105508CAA056E81F171BCC55A6FF8345E692C0F86E5B48E01B996CADC001622FB5E363B421A056E81F171BCC55A6FF8345E692C0F86E5B48E01B996CADC001622FB5E363B421B901000000000000000000000000000000000000000000000000000000000000000000000000000000000000000000000000000000000000000000000000000000000000000000000000000000000000000000000000000000000000000000000000000000000000000000000000000000000000000000000000000000000000000000000000000000000000000000000000000000000000000000000000000000000000000000000000000000000000000000000000000000000000000000000000000000000000000000000000000000000000000000000000000000000000000000000000000000000000000000000000000000000000000000000000000000000085042A57101361821388808455BA43E69E476574682F4C5649562F76312E302E302F6C696E75782F676F312E342E32A0FA49E533FBF3C65EC8F3C3D23FC5F74C47C41DFE952ED3B756A5B4EA2A7ACFFD883688FCDCA62E5DF3",
    "D07D20A429C8A0CD30B5C30FD6E72E6D5404795A9B10ED31FDA1422014036E83": "F8719F201318F1145B0B422363876E3BCDAD686EF7B177708C4616E795A67CA42BC1B84FF84D8089045CBA6DC885B6E000A056E81F171BCC55A6FF8345E692C0F86E5B48E01B996CADC001622FB5E363B421A0C5D2460186F7233C927E7DB2DCC703C0E500B653CA82273B7BFAD8045D85A470",
    "563401469B5C16712B251E6042620838DCF4B88B6C59969A86FAA94C7B4402D8": "F90211A0C637B5994860158E4EFC9ABACA8B16FD7D690896FF610F3F40EBFCED8A80FB8EA0BABE369F6B12092F49181AE04CA173FB68D1A5456F18D20FA32CBA73954052BDA0302EB94C0B18C718D1D7465DD0E0E090B57114CAA335A187ABC90B1AF6E8286AA06152AF848978F926680FD694B2EEB6DB839BB30EBAB8E3EF8E8765B3D61081A4A0FCB892B735626A4B290598396D07818BE4DC4EA54B79704D23AACE3283EF1788A03D666815D326EA39BB152FD7A94305180D243D6AB090BD85B2079FC3EF288804A09C8A14529A6EB5508F695352706A8BFADB3044BDC70FE71DDB0B0FB31C868664A0F7A00CBE7D4B30B11FAEA3AE61B7F1F2B315B61D9F6BD68BFE587AD0EECEB721A087D97DC44C15FFDCC44AC0A08EB4C696193AEE5CE0AFE2DADBF372FE76F0A6F4A0F30E9A00AC1D8B2033452A21A03FDCC06D93A004463B52A165F67D1E0EB2847EA0203D26456312BBC4DA5CD293B75B840FC5045E493D6F904D180823EC22BFED8EA04933DCD3876194414121888105975C1D2D3E6F2058F76B54A7E7078F93F2CEB5A0857866471DC094921E22545450C5B800ED1142C848B94C48EB406277128BF87BA08E438497094BF3918FBF639F70E88E47F18BD864DBE4BC79C9B40C990B653462A051F9DD3739A927C89E357580A4C97B40234AA01ED3D5E0390DC982A7975880A0A0E49D17F8244F436A0BE2E72109684E38FEABC82C9D03CDD6C389621BE4123A1980",
    "92B449BF1F2B2733AC87C7EAB715A7EC38D2A29063C051C2EC6721818721E29A": "F871A0ACEB13A080436B0269A60282228C3504E4619E8184DEABDDB7F16D6DC6FBCFA2808080A0D419CD046EBAE8E300D69E1D50ED49DD86C2F3E8DDF3F679F2841204C8B5BDCB80808080808080808080A0803B0C8EC037D493EBF19CDFFD202A826C82A3F7CBE55495FC53E4092432693B80"
  }
}