{
  "blockNumber": "b443",
  "txTraces": [
    {
      "gas": 21000,
      "failed": false,
      "returnValue": "",
      "structLogs": [],
      "stateDiff": {
        "before": [
          {
            "name": "sender",
            "address": "0xa1e4380a3b1f749673e270229993ee55f35663b4",
            "nonce": "0x0",
            "balance": "0x6c6b935b8bbd400000",
            "codeHash": "0xc5d2460186f7233c927e7db2dcc703c0e500b653ca82273b7bfad8045d85a470",
            "code": "0x",
            "storageRoot": "0x56e81f171bcc55a6ff8345e692c0f86e5b48e01b996cadc001622fb5e363b421",
            "storage": {}
          },
          {
            "name": "recipient",
            "address": "0x5df9b87991262f6ba471f09758cde1c0fc1de734",
            "nonce": "0x0",
            "balance": "0x0",
            "codeHash": "0xc5d2460186f7233c927e7db2dcc703c0e500b653ca82273b7bfad8045d85a470",
            "code": "0x",
            "storageRoot": "0x56e81f171bcc55a6ff8345e692c0f86e5b48e01b996cadc001622fb5e363b421",
            "storage": {}
          },
          {
            "name": "miner",
            "address": "0xe6a7a1d47ff21b6321162aea7c6cb457d5476bca",
            "nonce": "0x0",
            "balance": "0xf3426785a8ab466000",
            "codeHash": "0xc5d2460186f7233c927e7db2dcc703c0e500b653ca82273b7bfad8045d85a470",
            "code": "0x",
            "storageRoot": "0x56e81f171bcc55a6ff8345e692c0f86e5b48e01b996cadc001622fb5e363b421",
            "storage": {}
          }
        ],
        "after": [
          {
            "name": "sender",
            "address": "0xa1e4380a3b1f749673e270229993ee55f35663b4",
            "nonce": "0x1",
            "balance": "0x6c5d01021be7168597",
            "codeHash": "0xc5d2460186f7233c927e7db2dcc703c0e500b653ca82273b7bfad8045d85a470",
            "code": "0x",
            "storageRoot": "0x56e81f171bcc55a6ff8345e692c0f86e5b48e01b996cadc001622fb5e363b421",
            "storage": {}
          },
          {
            "name": "recipient",
            "address": "0x5df9b87991262f6ba471f09758cde1c0fc1de734",
            "nonce": "0x0",
            "balance": "0x7a69",
            "codeHash": "0xc5d2460186f7233c927e7db2dcc703c0e500b653ca82273b7bfad8045d85a470",
            "code": "0x",
            "storageRoot": "0x56e81f171bcc55a6ff8345e692c0f86e5b48e01b996cadc001622fb5e363b421",
            "storage": {}
          },
          {
            "name": "miner",
            "address": "0xe6a7a1d47ff21b6321162aea7c6cb457d5476bca",
            "nonce": "0x0",
            "balance": "0xf350f9df18816f6000",
            "codeHash": "0xc5d2460186f7233c927e7db2dcc703c0e500b653ca82273b7bfad8045d85a470",
            "code": "0x",
            "storageRoot": "0x56e81f171bcc55a6ff8345e692c0f86e5b48e01b996cadc001622fb5e363b421",
            "storage": {}
          }
        ],
        "beforeRoot": "691FC4F4D21D10787902E8F3266711F1D640E75FEDBEB406DC0B8D3096128436",
        "afterRoot": "96A8E009D2B88B1483E6941E6812E32263B05683FAC202ABC622A3E31AED1957"
      }
    }
  ],
  "stateDump": {
    "before": [
      {
        "name": "sender0",
        "address": "0xa1e4380a3b1f749673e270229993ee55f35663b4",
        "nonce": "0x0",
        "balance": "0x6c6b935b8bbd400000",
        "codeHash": "0xc5d2460186f7233c927e7db2dcc703c0e500b653ca82273b7bfad8045d85a470",
        "code": "0x",
        "storageRoot": "0x56e81f171bcc55a6ff8345e692c0f86e5b48e01b996cadc001622fb5e363b421",
        "storage": {}
      },
      {
        "name": "recipient0",
        "address": "0x5df9b87991262f6ba471f09758cde1c0fc1de734",
        "nonce": "0x0",
        "balance": "0x0",
        "codeHash": "0xc5d2460186f7233c927e7db2dcc703c0e500b653ca82273b7bfad8045d85a470",
        "code": "0x",
        "storageRoot": "0x56e81f171bcc55a6ff8345e692c0f86e5b48e01b996cadc001622fb5e363b421",
        "storage": {}
      },
      {
        "name": "miner",
        "address": "0xe6a7a1d47ff21b6321162aea7c6cb457d5476bca",
        "nonce": "0x0",
        "balance": "0xf3426785a8ab466000",
        "codeHash": "0xc5d2460186f7233c927e7db2dcc703c0e500b653ca82273b7bfad8045d85a470",
        "code": "0x",
        "storageRoot": "0x56e81f171bcc55a6ff8345e692c0f86e5b48e01b996cadc001622fb5e363b421",
        "storage": {}
      }
    ],
    "after": [
      {
        "name": "sender0",
        "address": "0xa1e4380a3b1f749673e270229993ee55f35663b4",
        "nonce": "0x1",
        "balance": "0x6c5d01021be7168597",
        "codeHash": "0xc5d2460186f7233c927e7db2dcc703c0e500b653ca82273b7bfad8045d85a470",
        "code": "0x",
        "storageRoot": "0x56e81f171bcc55a6ff8345e692c0f86e5b48e01b996cadc001622fb5e363b421",
        "storage": {}
      },
      {
        "name": "recipient0",
        "address": "0x5df9b87991262f6ba471f09758cde1c0fc1de734",
        "nonce": "0x0",
        "balance": "0x7a69",
        "codeHash": "0xc5d2460186f7233c927e7db2dcc703c0e500b653ca82273b7bfad8045d85a470",
        "code": "0x",
        "storageRoot": "0x56e81f171bcc55a6ff8345e692c0f86e5b48e01b996cadc001622fb5e363b421",
        "storage": {}
      },
      {
        "name": "miner",
        "address": "0xe6a7a1d47ff21b6321162aea7c6cb457d5476bca",
        "nonce": "0x0",
        "balance": "0xf3965d709ac6636000",
        "codeHash": "0xc5d2460186f7233c927e7db2dcc703c0e500b653ca82273b7bfad8045d85a470",
        "code": "0x",
        "storageRoot": "0x56e81f171bcc55a6ff8345e692c0f86e5b48e01b996cadc001622fb5e363b421",
        "storage": {}
      }
    ]
  },
  "blockTrace": {
    "gas": 21000,
    "failed": false,
    "returnValue": "",
    "structLogs": []
  },
  "receipts": [
    {
      "cumulativeGasUsed": 21000,
      "bloom": "00000000000000000000000000000000000000000000000000000000000000000000000000000000000000000000000000000000000000000000000000000000000000000000000000000000000000000000000000000000000000000000000000000000000000000000000000000000000000000000000000000000000000000000000000000000000000000000000000000000000000000000000000000000000000000000000000000000000000000000000000000000000000000000000000000000000000000000000000000000000000000000000000000000000000000000000000000000000000000000000000000000000000000000000000000000",
      "logs": [],
      "root": "96A8E009D2B88B1483E6941E6812E32263B05683FAC202ABC622A3E31AED1957"
    }
  ],
  "state": {
    "FD8B8ED81CE9C92162A37456BBC65EB09C59A59159FEA166AEF8D70E0560C697": "F901D1A0262CAA00FB7840634767DC16F70F8E9990F27F9C43D9FF8349A0B61C332FDF74A0872C5D2A9A5F8A004953B2E7228014FFC1FFBDD39A5E98BF8F1CBB55AC96A1EE80A0BAE5FF57F2E7D370AD2A7444C09B70E0C688E469B71390677D3FB6F099B9F59BA04FED6CE8422F82708C15682DC3027A54B34FAEC61F9C070B08B11829D5971D0EA0908DCDE7FFE13097DE81B81E90042F6331ECACFDA66CFD432B8A05F30BDD3812A0C112058DB3B8CB4E477C0EB19722B661A23E5CCFD2C90E748040C522EA514054A0D882C86261FAC4DB5DFD8C8A5BACFA0A6523779194FFA19561C373C2556A6A2A80A0C4831DE9432083D0D6BC381D1855E4D387600D8A2FB89A9E59FC77246316CBE8A0A70A8B973D101FD8FF04FBD3C04A433856997DBAB21A38D01C6B995F6930FBF8A03F5CBFBBF8B0B47E7D624497DBDEB885A303210B88DD43D265670842D9D8A427A0F7F24BA0CF8F44642902C2093D8330F95814F604AE083136DE238EC629337278A0348958AF28C0A217EB8A4A65511701F39E5F98903E2F344233AE8A3D5E428C4CA0AE914B48B05E2AF91032A9D648C2C71E8846A3CE7CCD5B0DACBE75F38AE53FC9A03EBE0AD64CBE3E2972C3A6A0158DF85C9DDF6189D33DC893FF27B50EAD8BBB3880",
    "2967BDF8160FDFF829F298FC127749A9342D839272B51C88A97C85AC4A10DA02": "F90211A028BAA23D3062382310899793A9FDB01534B820FEA601272FC713C4D8A3440203A055C03D814060FFB4923CF2D7FB5E9E3C8256F5759BEDAAD0BBE811EA848E3251A0BEF8A03D28E3D6074A1754891FD5B19CECBE34E5CA22775D9F991CFB0329BDA1A0766C61F38ECF6F10320DD6D0440C9E804E3425D19F4DECE5FAEF4C5A70BB54E1A014EAA7E93570C884A41C976EDDA8BBF5169171FB6E0495DDCEE1AC29C62D39CAA05C6FCAE1770CBEFBA440A5986677FC3E1302AD21CE92BCC85B8F30A5ACD468BDA074C16CD0A82A53953FB26422FED0F80F4C98EDF567EC209F4BBD678B67FFAE06A05869EDDF0601BB6E01B96FBEBDE027C6BB298818D0A58CB55BA13642A83F0F81A008BCF12CC8584E9ECD38141B62968A1FB50954D4E34DC3022CEA5BFC50C8FF8BA0F63D306B35EA9B9F6ABA22719B97B15E12EB0BBCC6157A2FD2319B427977B034A0247F7E93C134FA5FA6BBEAC737EB32340EB4876CB69018FBC8841422AC25E768A0180EFAC2DFC865DE369B03B1C6CC0FA25C776C5D59F4A0CAD98B4CD72666911BA091DA6A990F5C6224FAA732379F1EE1728D8DAAB8366FEC9A80568B55B510E86BA04CAFC03C0CD29D4FAB5851A46A7E00D6AFC44C58A255CF9265C6D7B2E98EB645A06422AF5D855E5A36B5AB8F55DEAD3381B8901100EE847D7FFCEB94790C5CB130A043CAAFCD43CADC01CEA150B49C33B80C9EFAFB2199F68812CC241BD8262E744880",
    "A70A8B973D101FD8FF04FBD3C04A433856997DBAB21A38D01C6B995F6930FBF8": "F87180808080A0D53C2AF52B9847097C11843BD1251C52646048720938BA21375F8DB8CCBCF64B808080A00266D8FB39448D40EA621D193AA8137522DB79351194CDEB2C4812D508359638808080808080A0DF2258A72399BCC4937B8C11404DDC137A0D588A2172C0883328CD049AFFA65480",
    "22F00FC57402189B89A3478B8E0D96746B7B59BCF3330B29EFB2F60548721D54": "F851A0D171EDE5375406EFCA67C35BF64EF787A7E1319DEEEB9A2A84426A316878909A8080808080808080808080A0AB0B8E76ADA01578F395C4151A0CC4BC4B323EC56DBEB28D98AEBAD9C47F6A1680808080",
    "005A41D0E66B4120775176C09FCF39E7C0520517A13D2B57B18D33D342DF038BFC": "F9021BA0D521BD1D6050FCF9248CD8DEF5EFB020DA1DA1891BC8514A9977117AEC7238A6A01DCC4DE8DEC75D7AAB85B567B6CCD41AD312451B948A7413F0A142FD40D493479488D74A59454F6CF3B51EF6B9136AFB6B9D405A88A0691FC4F4D21D10787902E8F3266711F1D640E75FEDBEB406DC0B8D3096128436A056E81F171BCC55A6FF8345E692C0F86E5B48E01B996CADC001622FB5E363B421A056E81F171BCC55A6FF8345E692C0F86E5B48E01B996CADC001622FB5E363B421B90100000000000000000000000000000000000000000000000000000000000000000000000000000000000000000000000000000000000000000000000000000000000000000000000000000000000000000000000000000000000000000000000000000000000000000000000000000000000000000000000000000000000000000000000000000000000000000000000000000000000000000000000000000000000000000000000000000000000000000000000000000000000000000000000000000000000000000000000000000000000000000000000000000000000000000000000000000000000000000000000000000000000000000000000000000000008601535E005BB282B4428251F8808455C42650A0476574682F76312E302E302D66633739643332642F6C696E75782F676F312E34A07DAECB502315705A32AEA4CFC39F24CE75949D173BF0B88170476AE17533AFD88836FA33077A2427A5",
    "43CAAFCD43CADC01CEA150B49C33B80C9EFAFB2199F68812CC241BD8262E7448": "F901F1A0B3A36DE009FA40468344E1FA0942E477E208237A6F11286DE035958CE069CEBBA077D1FC9C8E712220EB84D9A9933C5E92EB0879C5358AAA8949D23D31664AE68F80A0D31C15E29A27218045FF7C1E65B3E27659394026BE1C0FCD1E2205FE6E558B9DA02B92D0DC968DD9D6057DA8FC110D19F0B7373CC897BA7280522D5CCDD9A34A6CA02DDE8893774861FD048051B1244A9A1802F4A5CF2B8248BA259BC2ED4F13068FA0B539144F583404BD6D0237772890D37356CCA6117310842F798F8F5C847E4FBEA028E1CA504A5A4DBC5B2D9EB3DC1A0D44DA97FE04641D386B3CF458D22330EC46A0CAB1E53213D344B3969CF800BB29A85C991F3096AF83B18B5C16D769D0F96C3AA0744B06537E3CEA527394AA7A9A464C7197BE4F9138F08989D70541609D20DB2DA03FB172A53827AD5C1FC22E7D227EA51CF62B53C3152113019C9B48068ED7ACA6A0AA63FD3B68758D055D7A298C5C8AAE14A4B5D7B74790FC88E0285DAFF14BE603A0E3FF207C89B1E7588CACF154C52AF9FB82096F4599F3F588D0150379535A9062A0C59F52560CA4BF9BB180BBBBCAFB908088B5AB1388B60B364692D00DC66ABB29A0EAF31F6D96FC50FCD83CD84AE0292C0A11AFDDAEDB94EE85BA31EC0AF6F5414CA0DFB3C73F2AD5D1B88ED3609C4508A0989B55A0663F6001D02620F61228695FEF80",
    "0266D8FB39448D40EA621D193AA8137522DB79351194CDEB2C4812D508359638": "F8719F202121F7C68579158AC339BAA264AA87365A93ACD7530176DDD09BFA12C62CB84FF84D80890796E3EA3F8AB00000A056E81F171BCC55A6FF8345E692C0F86E5B48E01B996CADC001622FB5E363B421A0C5D2460186F7233C927E7DB2DCC703C0E500B653CA82273B7BFAD8045D85A470",
    "B539144F583404BD6D0237772890D37356CCA6117310842F798F8F5C847E4FBE": "F89180A09B9F85631EB59095CDC5BDF03F3556B7D9933BF2EAB9EA3720ABA22E73023FF1808080A02B83B1BA2674A6AB622282AF7A3E56AED6DC0E427EAEF14A1711612CD86FDD42A08DAED4D73CA8D6A29A96EC92C0C788F41C16AABC72CFD368D1AD818875C683EF80808080808080A0A14E1370978C58FC48F1E7A7F63DABD083C96E771DC1605885AE41D5D4047B6F8080",
    "4513310FCB9F6F616972A3B948DC5D547F280849A87EBB5AF0191F98B87BE598": "F86E822080B869F86780862D79883D2000825208945DF9B87991262F6BA471F09758CDE1C0FC1DE734827A69801CA088FF6CF0FEFD94DB46111149AE4BFC179E9B94721FFFD821D38D16464B3F71D0A045E0AFF800961CFCE805DAEF7016B9B675C137A6A41A548F7B60A3484C06A33A",
    "004E3A3754410177E6937EF1F84BBA68EA139E8D1A2258C5F85DB9F1CD715A1BDD": "F90208A05A41D0E66B4120775176C09FCF39E7C0520517A13D2B57B18D33D342DF038BFCA01DCC4DE8DEC75D7AAB85B567B6CCD41AD312451B948A7413F0A142FD40D4934794E6A7A1D47FF21B6321162AEA7C6CB457D5476BCAA00E0DF2706B0A4FB8BD08C9246D472ABBE850AF446405D9EBA1DB41DB18B4A169A04513310FCB9F6F616972A3B948DC5D547F280849A87EBB5AF0191F98B87BE598A0FE2BF2A941ABF41D72637E5B91750332A30283EFD40C424DC522B77E6F0ED8C4B9010000000000000000000000000000000000000000000000000000000000000000000000000000000000000000000000000000000000000000000000000000000000000000000000000000000000000000000000000000000000000000000000000000000000000000000000000000000000000000000000000000000000000000000000000000000000000000000000000000000000000000000000000000000000000000000000000000000000000000000000000000000000000000000000000000000000000000000000000000000000000000000000000000000000000000000000000000000000000000000000000000000000000000000000000000000000860153886C1BBD82B44382520B8252088455C426598B657468706F6F6C2E6F7267A0B48C515A9DDE8D346C3337EA520AA995A4738BB595495506125449C1149D6CF488BA4F8ECD18AAB215",
    "56E81F171BCC55A6FF8345E692C0F86E5B48E01B996CADC001622FB5E363B421": "80",
    "0143B4000000000000": "A04E3A3754410177E6937EF1F84BBA68EA139E8D1A2258C5F85DB9F1CD715A1BDD",
    "FE2BF2A941ABF41D72637E5B91750332A30283EFD40C424DC522B77E6F0ED8C4": "F90131822080B9012BF90128A096A8E009D2B88B1483E6941E6812E32263B05683FAC202ABC622A3E31AED1957825208B9010000000000000000000000000000000000000000000000000000000000000000000000000000000000000000000000000000000000000000000000000000000000000000000000000000000000000000000000000000000000000000000000000000000000000000000000000000000000000000000000000000000000000000000000000000000000000000000000000000000000000000000000000000000000000000000000000000000000000000000000000000000000000000000000000000000000000000000000000000000000000000000000000000000000000000000000000000000000000000000000000000000000000000000000000000000000C0",
    "5BA4F56BA77B4D796A6901126E6EA7632A99E8437C62242B0182EDE6E7A3CB59": "F90211A0FD8B8ED81CE9C92162A37456BBC65EB09C59A59159FEA166AEF8D70E0560C697A0A9F3F642CD4621068258A1BC8098C467B3E617DDF480610B8D971F9B86F21C42A0941B16643A3F3A50687108CC498CAA2CEFACD7EC53756B8E6A8A2A9485DBF5FFA0F25EBB37FB04D725BCFBD38A7DBF260A4003C6149F6DA3E5105FAB580C7DB8FAA09B12DEE4DE8754528FFE313CA135149001394A72D7637C1B401F09E6F36DF3ECA0A39723C4F872A2596154BC430093799B5CC630B003F4F227B34B390AEB7E39FDA0FDC112AA83DACBEF35165F40D7E0EC7BCEC10E4176597FE524F172B9E31FFC57A0EC11A92536F952138379A77EDF5F6453F52FCC8DDAA48E2796EF38933FB87DE3A0AC9E27F43F4965F73F11289B0D1FCA7C212F977F41DE8662F75ADEF09E47D135A0163B88927480AAD3B83498C08AEBF181ABBBAC93F4F4675EE58120664F2382A3A0C077CE8064CB20C31118AF3B99CB4AC77A371A12B44058B44A25E7FBF8AB4288A059872941F5434694B9E22253251166F797B83691BCAB723005692287A36CFF95A0E1888DFF1A3E4FD453FBCF657D55CAAE2F64D6EEB3A9B072C7CB15A3738C1488A0D7F40FEEC87A940C994E4200F68CE5CC0FDB527FCA1741AC4C4D212AFDCB4AAAA0A8440EF6E36D273B58C65344EDAB0583A03F09912D22E723DAE51CC1D716D786A080931062CF57B118E1E88A9508B2DCE6E2A6E4E73F388CC23AAE90DB1F53B3A880",
    "691FC4F4D21D10787902E8F3266711F1D640E75FEDBEB406DC0B8D3096128436": "F90211A0DC089BF98B185C858EC4B865117FF57AE79656A627437848E1C6D61E64DC8040A0614A746937F7FAE4206B30E9C513E3224A5E0862A53EFCBD50DDC23907A810D9A0220E8A43118054330D08E22AF1BE29B7C8EEAD661EC8F73A1DE50741019EBA76A05D4FCE5D8DF4B4DDE9640219F0CA4104A229E1053FF7ED15FDF85208890CF203A0F95407904CB0E7910A7CDE600CAA0F8C32D997480C99D44347936BD7C638DC9EA0F1EA4A2BE43078928EC8BED825293778121173755A146C2A44627923F7CC67FEA07C868FBC08F09FE674B381F467D43F3D5B1AA86DAC98FCA1E0EA6CC7C1BB715EA0932107FC43830D02D9C20A142653D91A738ECDCB51D03EF36E016EAEAB49323BA0014996DE5CC0B2EE1AAA1FF209870A808D4C407F0EE4143F6E50FA7129466847A0FEB4F03FD566F8EF81B82C633D3E9C1784F159E86613487C607BA2403B1088EBA05BA4F56BA77B4D796A6901126E6EA7632A99E8437C62242B0182EDE6E7A3CB59A017AAF2F4CB447BB9B776EFD70A723AD6D801A93469B52170E49835DE2EF38CA2A0F46BED067E2729A639BA465DD6BDA652813F63D17C54B30D1EDCE879C4331902A0D8B23924722A6C570FF99DFE4215852EAA932F9237517C2C19E0A72B965CC66BA02967BDF8160FDFF829F298FC127749A9342D839272B51C88A97C85AC4A10DA02A02F679EFC42E7F825F27AE68F5876BD506D0DBDD5BAC1343FADFF3630920F741480",
    "F95407904CB0E7910A7CDE600CAA0F8C32D997480C99D44347936BD7C638DC9E": "F90211A07430FB380FDCA6ED84C50BC135607D8397003825C153C9B1F4B8E11F941C5493A0C89713ADB8FD959F421AEA89B044A66B777EC90AF329C176BC32B5A2000E3373A01172B111A81F1F8C0070C536C76A203A9C31E7D88DC55C049026227622D02217A01A7E76AB14F55F8DD90FC5A53CF93EDD3102970C7DB869E26327214D081BAF28A016A6145B772B0EA0732E5368F0DFD61D676D396C71B6B4289B472B3765075290A04C686E626F75F57806FBB7B1DE9276BACF53AC177EF967553C4E3D324F5C0A79A0D1BE9CD30CC6468E7F1AF92AFA0DA2AE58D78AE10DB3FF8963271339BA4CB9E4A0E4C6E4399A5B251963CA1E3370C3D9F70773F5A1B4617F3D2FE2ABC6519F10EBA0B7B06F412E132C2B0AA7CCB9AB7B045BA0ADA3EA06AFA5CA18BD5CED0DB1AF07A068073D8BFDF6A393DE6BD39CFAFADD94C9B33AA04BD8CD5A039A026076434CCFA0BD23B2AA15460FF8FB30AEE5913682222CFFB0E0090F5EBD4DF9A8BE852BA2FBA0E77E62232CB722DEDAB94C78AEB08E78C715A1DC66970D5277B4AF056243DB77A02E9A0CC2DDADE0053338053B42B1905E20E169C3209FCB54C37946E24097861DA0BB9BAE6803C046E8EA74C8C47C732415C8A1EAAC67FA6045B8F4C621C4F095CCA016EE635418E034B76389C6651B4A5758F7C334CAAFB9F781530D606B375D3202A014FABF19A2CF2A646D801D657ECC54698A1972EB2E026AF31A3E7632B5EBDA9780",
    "D171EDE5375406EFCA67C35BF64EF787A7E1319DEEEB9A2A84426A316878909A": "F8719F20E16D49202E884407F85BB18DAEBE29216EA0E353494C957C29C2F2F317F9B84FF84D8089F3426785A8AB466000A056E81F171BCC55A6FF8345E692C0F86E5B48E01B996CADC001622FB5E363B421A0C5D2460186F7233C927E7DB2DCC703C0E500B653CA82273B7BFAD8045D85A470",
    "BB9BAE6803C046E8EA74C8C47C732415C8A1EAAC67FA6045B8F4C621C4F095CC": "F901D1A0D88B88C0E54ACBC0D051A5B186E351F9710217E9CF0E0B9CC0C9EC59457D4309A09A106E20261A522032001513598AD931D89F6811EF7E7D9685FF91C3BAFC7121A03F13F4FD2EE516EF1AFC073056A9905BCE55B3F35CC5365DF865014C7BAAE8FCA01479201F2ABDC5845158262B1967A1A4D3E73D6A21506C39063BBD42CC1A6EABA0F618960BF5B4CD9705014AF96DA401EA6703746D010C03665523CD03A373E9F9A0836EECFAD198F25DB064DB8924CA8158DAEA7B78C3999F5C8C2B77523EA210F5A0D5B3EBA3585B667F5E13D00BF216ACB4AA57B39623047D60B8B0C0AD08FF1FFB80A022F00FC57402189B89A3478B8E0D96746B7B59BCF3330B29EFB2F60548721D54A003554A55DB00EA63712AA6BCC954635FAFB9E5BF85B98FE2E13A9DF5F00E1EBC80A0BED3ED82623B5591EB56D59EBE7560B01C6FED4FB165CAF6CB11188DD7214960A05F100BA6893431B3DB0D7CE666C1A7A34B2827E8D9D91A0D9CFAE6273A7D4005A06845B69F70FCA02E02D17262524F454E55F79BF12D4BF29A4903BF76767D6A82A0B4349B3D4AE6235648590C248E7D5DF07EE87BD0978B002BEC815655D8B8DA5AA086DB579B939F7F68E929768A98EC8402FF2214785312E9DDD168FF1A436259DD80",
    "A14E1370978C58FC48F1E7A7F63DABD083C96E771DC1605885AE41D5D4047B6F": "F8719F20BC78D73B85DC7C81AF5CDE0D18A7A6F26A6ECB3B74C5892E8DC052E84D77B84FF84D80896C6B935B8BBD400000A056E81F171BCC55A6FF8345E692C0F86E5B48E01B996CADC001622FB5E363B421A0C5D2460186F7233C927E7DB2DCC703C0E500B653CA82273B7BFAD8045D85A470"
  }
}