{
    "recursiveCreateReturnValue_d0g0v0_Istanbul" : {
        "_info" : {
            "comment" : "",
            "filling-rpc-server" : "Geth-1.9.6-unstable-63b18027-20190920",
            "filling-tool-version" : "retesteth-0.0.1+commit.ec77a361.Linux.g++",
            "lllcversion" : "Version: 0.5.12-develop.2019.9.13+commit.2d601a4f.Linux.g++",
            "source" : "src/GeneralStateTestsFiller/stRecursiveCreate/recursiveCreateReturnValueFiller.json",
            "sourceHash" : "5e83402507881f5154a1512bf7b02b660bb3cdbbd77a5d20480784521f7ed7c7"
        },
        "genesisBlockHeader" : {
            "bloom" : "0x00000000000000000000000000000000000000000000000000000000000000000000000000000000000000000000000000000000000000000000000000000000000000000000000000000000000000000000000000000000000000000000000000000000000000000000000000000000000000000000000000000000000000000000000000000000000000000000000000000000000000000000000000000000000000000000000000000000000000000000000000000000000000000000000000000000000000000000000000000000000000000000000000000000000000000000000000000000000000000000000000000000000000000000000000000000",
            "coinbase" : "0x2adc25665018aa1fe0e6bc666dac8fc2697ff9ba",
            "difficulty" : "0x20000",
            "extraData" : "0x00",
            "gasLimit" : "0x2540be400",
            "gasUsed" : "0x0",
            "hash" : "0xd002560353fb98b9ed547e3ef0eff98f5927be466a0ab26106ab83a2a35fa78b",
            "mixHash" : "0x0000000000000000000000000000000000000000000000000000000000000000",
            "nonce" : "0x0000000000000000",
            "number" : "0x0",
            "parentHash" : "0x0000000000000000000000000000000000000000000000000000000000000000",
            "receiptTrie" : "0x56e81f171bcc55a6ff8345e692c0f86e5b48e01b996cadc001622fb5e363b421",
            "stateRoot" : "0xd774f75ea6c7d2da11110f6275e2d7e736623bfd08939f6350fb4643e5120078",
            "timestamp" : "0x0",
            "transactionsTrie" : "0x56e81f171bcc55a6ff8345e692c0f86e5b48e01b996cadc001622fb5e363b421",
            "uncleHash" : "0x1dcc4de8dec75d7aab85b567b6ccd41ad312451b948a7413f0a142fd40d49347"
        },
        "pre" : {
            "0x095e7baea6a6c7c4c2dfeb977efac326af552d87" : {
                "balance" : "0x01312d00",
                "code" : "0x602060006000396001602060006000f00160005500",
                "nonce" : "0x00",
                "storage" : {
                }
            },
            "0xa94f5374fce5edbc8e2a8697c15331677e6ebf0b" : {
                "balance" : "0x0de0b6b3a7640000",
                "code" : "0x",
                "nonce" : "0x00",
                "storage" : {
                }
            }
        },
        "postStateHash" : "0x118ca95a4f97dd4d457712ff326a4d53f4c2d4a53b9165ea1ecdfdf7b45d94dd",
        "network" : "Istanbul",
        "sealEngine" : "NoProof",
        "lastblockhash" : "0x94aa1f91dcf4327403337d8a06514d0da370f65e2ca14e34ce3572c5f4e20fc5",
        "genesisRLP" : "0xf901faf901f5a00000000000000000000000000000000000000000000000000000000000000000a01dcc4de8dec75d7aab85b567b6ccd41ad312451b948a7413f0a142fd40d49347942adc25665018aa1fe0e6bc666dac8fc2697ff9baa0d774f75ea6c7d2da11110f6275e2d7e736623bfd08939f6350fb4643e5120078a056e81f171bcc55a6ff8345e692c0f86e5b48e01b996cadc001622fb5e363b421a056e81f171bcc55a6ff8345e692c0f86e5b48e01b996cadc001622fb5e363b421b901000000000000000000000000000000000000000000000000000000000000000000000000000000000000000000000000000000000000000000000000000000000000000000000000000000000000000000000000000000000000000000000000000000000000000000000000000000000000000000000000000000000000000000000000000000000000000000000000000000000000000000000000000000000000000000000000000000000000000000000000000000000000000000000000000000000000000000000000000000000000000000000000000000000000000000000000000000000000000000000000000000000000000000000000000000000083020000808502540be400808000a00000000000000000000000000000000000000000000000000000000000000000880000000000000000c0c0",
        "blocks" : [
            {
                "rlp" : "0xf90267f901fba0d002560353fb98b9ed547e3ef0eff98f5927be466a0ab26106ab83a2a35fa78ba01dcc4de8dec75d7aab85b567b6ccd41ad312451b948a7413f0a142fd40d49347942adc25665018aa1fe0e6bc666dac8fc2697ff9baa0118ca95a4f97dd4d457712ff326a4d53f4c2d4a53b9165ea1ecdfdf7b45d94dda0b14d4e511cd1cd050a993566dc733305ccdfc7318d7ea754af53906f3af56461a08860726da2a424e857e2a136fe9baa94a7c06ba440925773bcfaf1ce667aa349b90100000000000000000000000000000000000000000000000000000000000000000000000000000000000000000000000000000000000000000000000000000000000000000000000000000000000000000000000000000000000000000000000000000000000000000000000000000000000000000000000000000000000000000000000000000000000000000000000000000000000000000000000000000000000000000000000000000000000000000000000000000000000000000000000000000000000000000000000000000000000000000000000000000000000000000000000000000000000000000000000000000000000000000000000000000000008302000001850254a0e6f8840134112c8203e800a00000000000000000000000000000000000000000000000000000000000000000880000000000000000f866f8648001843b9aca0094095e7baea6a6c7c4c2dfeb977efac326af552d87830186a0801ba0f887f2ca3ec36a75a448f79d918a98c1325f546833bb1fc2b380297227dda065a04b041227709c35276540c843d255d62194a7fc216157add44479854321f031d1c0",
                "blockHeader" : {
                    "bloom" : "0x00000000000000000000000000000000000000000000000000000000000000000000000000000000000000000000000000000000000000000000000000000000000000000000000000000000000000000000000000000000000000000000000000000000000000000000000000000000000000000000000000000000000000000000000000000000000000000000000000000000000000000000000000000000000000000000000000000000000000000000000000000000000000000000000000000000000000000000000000000000000000000000000000000000000000000000000000000000000000000000000000000000000000000000000000000000",
                    "coinbase" : "0x2adc25665018aa1fe0e6bc666dac8fc2697ff9ba",
                    "difficulty" : "0x20000",
                    "extraData" : "0x00",
                    "gasLimit" : "0x254a0e6f8",
                    "gasUsed" : "0x134112c",
                    "hash" : "0x94aa1f91dcf4327403337d8a06514d0da370f65e2ca14e34ce3572c5f4e20fc5",
                    "mixHash" : "0x0000000000000000000000000000000000000000000000000000000000000000",
                    "nonce" : "0x0000000000000000",
                    "number" : "0x1",
                    "parentHash" : "0xd002560353fb98b9ed547e3ef0eff98f5927be466a0ab26106ab83a2a35fa78b",
                    "receiptTrie" : "0x8860726da2a424e857e2a136fe9baa94a7c06ba440925773bcfaf1ce667aa349",
                    "stateRoot" : "0x118ca95a4f97dd4d457712ff326a4d53f4c2d4a53b9165ea1ecdfdf7b45d94dd",
                    "timestamp" : "0x3e8",
                    "transactionsTrie" : "0xb14d4e511cd1cd050a993566dc733305ccdfc7318d7ea754af53906f3af56461",
                    "uncleHash" : "0x1dcc4de8dec75d7aab85b567b6ccd41ad312451b948a7413f0a142fd40d49347"
                },
                "transactions" : [
                    {
                        "data" : "0x",
                        "gasLimit" : "0x3b9aca00",
                        "gasPrice" : "0x01",
                        "nonce" : "0x00",
                        "to" : "0x095e7baea6a6c7c4c2dfeb977efac326af552d87",
                        "value" : "0x0186a0",
                        "v" : "0x1b",
                        "r" : "0xf887f2ca3ec36a75a448f79d918a98c1325f546833bb1fc2b380297227dda065",
                        "s" : "0x4b041227709c35276540c843d255d62194a7fc216157add44479854321f031d1"
                    }
                ]
            }
        ]
    }
}