{
    "stackOverflowSWAP_d0g0v0_Istanbul" : {
        "_info" : {
            "comment" : "",
            "filling-rpc-server" : "Geth-1.9.7-unstable-9a770659-20191018",
            "filling-tool-version" : "retesteth-0.0.1+commit.e4b931fe.Darwin.appleclang",
            "lllcversion" : "Error getting LLLC Version",
            "source" : "src/GeneralStateTestsFiller/stStackTests/stackOverflowSWAPFiller.json",
            "sourceHash" : "f79d059507157276d3c92a65966f78772d33c5fd345c18e61c9f01678ff87660"
        },
        "genesisBlockHeader" : {
            "bloom" : "0x00000000000000000000000000000000000000000000000000000000000000000000000000000000000000000000000000000000000000000000000000000000000000000000000000000000000000000000000000000000000000000000000000000000000000000000000000000000000000000000000000000000000000000000000000000000000000000000000000000000000000000000000000000000000000000000000000000000000000000000000000000000000000000000000000000000000000000000000000000000000000000000000000000000000000000000000000000000000000000000000000000000000000000000000000000000",
            "coinbase" : "0x2adc25665018aa1fe0e6bc666dac8fc2697ff9ba",
            "difficulty" : "0x20000",
            "extraData" : "0x00",
            "gasLimit" : "0xa00000000",
            "gasUsed" : "0x0",
            "hash" : "0x09e3a36241f87756fe24bcc093e0024aabc45e48e12f05c48070bd1039d893c4",
            "mixHash" : "0x0000000000000000000000000000000000000000000000000000000000000000",
            "nonce" : "0x0000000000000000",
            "number" : "0x0",
            "parentHash" : "0x0000000000000000000000000000000000000000000000000000000000000000",
            "receiptTrie" : "0x56e81f171bcc55a6ff8345e692c0f86e5b48e01b996cadc001622fb5e363b421",
            "stateRoot" : "0xf88012c07d4f4c3463fad1a106542c15693af39cb215f195035f63ab2497aa01",
            "timestamp" : "0x0",
            "transactionsTrie" : "0x56e81f171bcc55a6ff8345e692c0f86e5b48e01b996cadc001622fb5e363b421",
            "uncleHash" : "0x1dcc4de8dec75d7aab85b567b6ccd41ad312451b948a7413f0a142fd40d49347"
        },
        "pre" : {
            "0xa94f5374fce5edbc8e2a8697c15331677e6ebf0b" : {
                "balance" : "0xe8d4a5100000000000",
                "code" : "0x",
                "nonce" : "0x00",
                "storage" : {
                }
            },
            "0xb94f5374fce5edbc8e2a8697c15331677e6ebf0b" : {
                "balance" : "0xe8d4a5100000000000",
                "code" : "0x",
                "nonce" : "0x00",
                "storage" : {
                }
            }
        },
        "postState" : {
            "0xa94f5374fce5edbc8e2a8697c15331677e6ebf0b" : {
                "code" : "0x",
                "nonce" : "0x01",
                "balance" : "0xe8d4a50ffffffed4e4",
                "storage" : {
                }
            },
            "0x2adc25665018aa1fe0e6bc666dac8fc2697ff9ba" : {
                "code" : "0x",
                "nonce" : "0x00",
                "balance" : "0x1bc16d674ec92b1b",
                "storage" : {
                }
            },
            "0xb94f5374fce5edbc8e2a8697c15331677e6ebf0b" : {
                "code" : "0x",
                "nonce" : "0x00",
                "balance" : "0xe8d4a5100000000000",
                "storage" : {
                }
            },
            "0x6295ee1b4f6dd65047762f924ecd367c17eabf8f" : {
                "code" : "0x",
                "nonce" : "0x01",
                "balance" : "0x01",
                "storage" : {
                }
            }
        },
        "network" : "Istanbul",
        "sealEngine" : "NoProof",
        "lastblockhash" : "0xc4599694b5ba2d966ba393e936f7305780eae71a30f55572fd4de0dc6eaced1a",
        "genesisRLP" : "0xf901faf901f5a00000000000000000000000000000000000000000000000000000000000000000a01dcc4de8dec75d7aab85b567b6ccd41ad312451b948a7413f0a142fd40d49347942adc25665018aa1fe0e6bc666dac8fc2697ff9baa0f88012c07d4f4c3463fad1a106542c15693af39cb215f195035f63ab2497aa01a056e81f171bcc55a6ff8345e692c0f86e5b48e01b996cadc001622fb5e363b421a056e81f171bcc55a6ff8345e692c0f86e5b48e01b996cadc001622fb5e363b421b90100000000000000000000000000000000000000000000000000000000000000000000000000000000000000000000000000000000000000000000000000000000000000000000000000000000000000000000000000000000000000000000000000000000000000000000000000000000000000000000000000000000000000000000000000000000000000000000000000000000000000000000000000000000000000000000000000000000000000000000000000000000000000000000000000000000000000000000000000000000000000000000000000000000000000000000000000000000000000000000000000000000000000000000000000000000008302000080850a00000000808000a00000000000000000000000000000000000000000000000000000000000000000880000000000000000c0c0",
        "blocks" : [
            {
                "rlp" : "0xf90a53f901faa009e3a36241f87756fe24bcc093e0024aabc45e48e12f05c48070bd1039d893c4a01dcc4de8dec75d7aab85b567b6ccd41ad312451b948a7413f0a142fd40d49347942adc25665018aa1fe0e6bc666dac8fc2697ff9baa0eb9f8b1f0bb2a9241d028d476016f5d9926e2aaffe45e8af72943501bae27f2da00da2315992d84b09b20966d41b3fa026183cb680a414ef29e0f008b7eac2e0fea07fb474bc5919d6e87f4267fed1c87279ecbf71a4217e17ca5db78672307202adb90100000000000000000000000000000000000000000000000000000000000000000000000000000000000000000000000000000000000000000000000000000000000000000000000000000000000000000000000000000000000000000000000000000000000000000000000000000000000000000000000000000000000000000000000000000000000000000000000000000000000000000000000000000000000000000000000000000000000000000000000000000000000000000000000000000000000000000000000000000000000000000000000000000000000000000000000000000000000000000000000000000000000000000000000000000000008302000001850a027fffff83012b1b8203e800a00000000000000000000000000000000000000000000000000000000000000000880000000000000000f90852f9084f8001835b8d808001b908016000600060006000600060006000600060006000600060006000600060006000600060006000600060006000600060006000600060006000600060006000600060006000600060006000600060006000600060006000600060006000600060006000600060006000600060006000600060006000600060006000600060006000600060006000600060006000600060006000600060006000600060006000600060006000600060006000600060006000600060006000600060006000600060006000600060006000600060006000600060006000600060006000600060006000600060006000600060006000600060006000600060006000600060006000600060006000600060006000600060006000600060006000600060006000600060006000600060006000600060006000600060006000600060006000600060006000600060006000600060006000600060006000600060006000600060006000600060006000600060006000600060006000600060006000600060006000600060006000600060006000600060006000600060006000600060006000600060006000600060006000600060006000600060006000600060006000600060006000600060006000600060006000600060006000600060006000600060006000600060006000600060006000600060006000600060006000600060006000600060006000600060006000600060006000600060006000600060006000600060006000600060006000600060006000600060006000600060006000600060006000600060006000600060006000600060006000600060006000600060006000600060006000600060006000600060006000600060006000600060006000600060006000600060006000600060006000600060006000600060006000600060006000600060006000600060006000600060006000600060006000600060006000600060006000600060006000600060006000600060006000600060006000600060006000600060006000600060006000600060006000600060006000600060006000600060006000600060006000600060006000600060006000600060006000600060006000600060006000600060006000600060006000600060006000600060006000600060006000600060006000600060006000600060006000600060006000600060006000600060006000600060006000600060006000600060006000600060006000600060006000600060006000600060006000600060006000600060006000600060006000600060006000600060006000600060006000600060006000600060006000600060006000600060006000600060006000600060006000600060006000600060006000600060006000600060006000600060006000600060006000600060006000600060006000600060006000600060006000600060006000600060006000600060006000600060006000600060006000600060006000600060006000600060006000600060006000600060006000600060006000600060006000600060006000600060006000600060006000600060006000600060006000600060006000600060006000600060006000600060006000600060006000600060006000600060006000600060006000600060006000600060006000600060006000600060006000600060006000600060006000600060006000600060006000600060006000600060006000600060006000600060006000600060006000600060006000600060006000600060006000600060006000600060006000600060006000600060006000600060006000600060006000600060006000600060006000600060006000600060006000600060006000600060006000600060006000600060006000600060006000600060006000600060006000600060006000600060006000600060006000600060006000600060006000600060006000600060006000600060006000600060006000600060006000600060006000600060006000600060006000600060006000600060006000600060006000600060006000600060006000600060006000600060006000600060006000600060006000600060006000600060006000600060006000600060006000600060006000600060006000600060006000600060006000600060006000600060006000600060006000600060006000600060006000600060006000600060006000600060006000600060006000600060006000600060006000600060006000600060006000600060006000600060006000600060006000600060006000600060006000600060006000600060006000600060006000600060006000600060006000600060006000600060006000600060006000600060006000600060006000600060006000600060006000600060006000600060006000600060006000600060006000600060006000600060006000600060006000600060006000600060006000600060006000600060006000600060006000600060006000600060006000600060006000600060006000600060006000600060006000600060006000600060006000600060006000600060006000600060006000600060006000600060006000600060006000600060006000600060006000600060006000600060006000600060006000600060006000600060006000600060006000600060006000600060006000600060006000600060006000600060006000600060006000600060006000600060006000600060006000600060006000600060006000600060006000600060006000600060006000600060006000901ca0d90b00abcf1be86bf1c0b54817ad1be50fa75b739e0dc4d9a31c029688e6381da07bb5ef7c8c93f0bf176e320f46ac066bbaa88870f0a6713d0e2944754ddc59c1c0",
                "blockHeader" : {
                    "bloom" : "0x00000000000000000000000000000000000000000000000000000000000000000000000000000000000000000000000000000000000000000000000000000000000000000000000000000000000000000000000000000000000000000000000000000000000000000000000000000000000000000000000000000000000000000000000000000000000000000000000000000000000000000000000000000000000000000000000000000000000000000000000000000000000000000000000000000000000000000000000000000000000000000000000000000000000000000000000000000000000000000000000000000000000000000000000000000000",
                    "coinbase" : "0x2adc25665018aa1fe0e6bc666dac8fc2697ff9ba",
                    "difficulty" : "0x20000",
                    "extraData" : "0x00",
                    "gasLimit" : "0xa027fffff",
                    "gasUsed" : "0x12b1b",
                    "hash" : "0xc4599694b5ba2d966ba393e936f7305780eae71a30f55572fd4de0dc6eaced1a",
                    "mixHash" : "0x0000000000000000000000000000000000000000000000000000000000000000",
                    "nonce" : "0x0000000000000000",
                    "number" : "0x1",
                    "parentHash" : "0x09e3a36241f87756fe24bcc093e0024aabc45e48e12f05c48070bd1039d893c4",
                    "receiptTrie" : "0x7fb474bc5919d6e87f4267fed1c87279ecbf71a4217e17ca5db78672307202ad",
                    "stateRoot" : "0xeb9f8b1f0bb2a9241d028d476016f5d9926e2aaffe45e8af72943501bae27f2d",
                    "timestamp" : "0x3e8",
                    "transactionsTrie" : "0x0da2315992d84b09b20966d41b3fa026183cb680a414ef29e0f008b7eac2e0fe",
                    "uncleHash" : "0x1dcc4de8dec75d7aab85b567b6ccd41ad312451b948a7413f0a142fd40d49347"
                },
                "transactions" : [
                    {
                        "data" : "0x600060006000600060006000600060006000600060006000600060006000600060006000600060006000600060006000600060006000600060006000600060006000600060006000600060006000600060006000600060006000600060006000600060006000600060006000600060006000600060006000600060006000600060006000600060006000600060006000600060006000600060006000600060006000600060006000600060006000600060006000600060006000600060006000600060006000600060006000600060006000600060006000600060006000600060006000600060006000600060006000600060006000600060006000600060006000600060006000600060006000600060006000600060006000600060006000600060006000600060006000600060006000600060006000600060006000600060006000600060006000600060006000600060006000600060006000600060006000600060006000600060006000600060006000600060006000600060006000600060006000600060006000600060006000600060006000600060006000600060006000600060006000600060006000600060006000600060006000600060006000600060006000600060006000600060006000600060006000600060006000600060006000600060006000600060006000600060006000600060006000600060006000600060006000600060006000600060006000600060006000600060006000600060006000600060006000600060006000600060006000600060006000600060006000600060006000600060006000600060006000600060006000600060006000600060006000600060006000600060006000600060006000600060006000600060006000600060006000600060006000600060006000600060006000600060006000600060006000600060006000600060006000600060006000600060006000600060006000600060006000600060006000600060006000600060006000600060006000600060006000600060006000600060006000600060006000600060006000600060006000600060006000600060006000600060006000600060006000600060006000600060006000600060006000600060006000600060006000600060006000600060006000600060006000600060006000600060006000600060006000600060006000600060006000600060006000600060006000600060006000600060006000600060006000600060006000600060006000600060006000600060006000600060006000600060006000600060006000600060006000600060006000600060006000600060006000600060006000600060006000600060006000600060006000600060006000600060006000600060006000600060006000600060006000600060006000600060006000600060006000600060006000600060006000600060006000600060006000600060006000600060006000600060006000600060006000600060006000600060006000600060006000600060006000600060006000600060006000600060006000600060006000600060006000600060006000600060006000600060006000600060006000600060006000600060006000600060006000600060006000600060006000600060006000600060006000600060006000600060006000600060006000600060006000600060006000600060006000600060006000600060006000600060006000600060006000600060006000600060006000600060006000600060006000600060006000600060006000600060006000600060006000600060006000600060006000600060006000600060006000600060006000600060006000600060006000600060006000600060006000600060006000600060006000600060006000600060006000600060006000600060006000600060006000600060006000600060006000600060006000600060006000600060006000600060006000600060006000600060006000600060006000600060006000600060006000600060006000600060006000600060006000600060006000600060006000600060006000600060006000600060006000600060006000600060006000600060006000600060006000600060006000600060006000600060006000600060006000600060006000600060006000600060006000600060006000600060006000600060006000600060006000600060006000600060006000600060006000600060006000600060006000600060006000600060006000600060006000600060006000600060006000600060006000600060006000600060006000600060006000600060006000600060006000600060006000600060006000600060006000600060006000600060006000600060006000600060006000600060006000600060006000600060006000600060006000600060006000600060006000600060006000600060006000600060006000600060006000600060006000600060006000600060006000600060006000600060006000600060006000600060006000600060006000600060006000600060006000600060006000600060006000600060006000600060006000600060006000600060006000600060006000600060006000600060006000600060006000600060006000600060006000600060006000600060006000600060006000600060006000600060006000600060006000600060006000600060006000600060006000600060006000600060006000600060006000600060006000600060006000600060006000600090",
                        "gasLimit" : "0x5b8d80",
                        "gasPrice" : "0x01",
                        "nonce" : "0x00",
                        "to" : "",
                        "value" : "0x01",
                        "v" : "0x1c",
                        "r" : "0xd90b00abcf1be86bf1c0b54817ad1be50fa75b739e0dc4d9a31c029688e6381d",
                        "s" : "0x7bb5ef7c8c93f0bf176e320f46ac066bbaa88870f0a6713d0e2944754ddc59c1"
                    }
                ]
            }
        ]
    }
}