{
    "lotsOfLeafs_Istanbul" : {
        "_info" : {
            "comment" : "",
            "filledwith" : "testeth 1.8.0-alpha.0-12+commit.b120a12c.dirty",
            "lllcversion" : "Version: 0.5.12-develop.2019.9.13+commit.2d601a4f.Linux.g++",
            "source" : "src/BlockchainTestsFiller/ValidBlocks/bcTotalDifficultyTest/lotsOfLeafsFiller.json",
            "sourceHash" : "f7fff02cf97a23faa2c6c42e08f2018640608bfc6b105418a3836e2acabde7dd"
        },
        "blocks" : [
            {
                "blockHeader" : {
                    "bloom" : "0x00000000000000000000000000000000000000000000000000000000000000000000000000000000000000000000000000000000000000000000000000000000000000000000000000000000000000000000000000000000000000000000000000000000000000000000000000000000000000000000000000000000000000000000000000000000000000000000000000000000000000000000000000000000000000000000000000000000000000000000000000000000000000000000000000000000000000000000000000000000000000000000000000000000000000000000000000000000000000000000000000000000000000000000000000000000",
                    "coinbase" : "0x8888f1f195afa192cfee860698584c030f4c9db1",
                    "difficulty" : "0x035b50",
                    "extraData" : "",
                    "gasLimit" : "0x2fefba",
                    "gasUsed" : "0x5208",
                    "hash" : "0x4f92f5fbbed4a1af10a8cbefe68867843a25c97208755a6808eb43526b3209d4",
                    "mixHash" : "0xca35c6875384772e44810a41ebf38b9cc962387697c7f1529510b1f536f10c8d",
                    "nonce" : "0x8d198f845624fc54",
                    "number" : "0x01",
                    "parentHash" : "0x6d991da1db456d86ca4438279b25d771e8e8d4fd288be2f2bc3a49d6b04f29ee",
                    "receiptTrie" : "0x056b23fbba480696b65fe5a59b8f2148a1299103c4f57df839233af2cf4ca2d2",
                    "stateRoot" : "0xc4c180ffe5b334f70df53ceaeb79553b8121234b35ae63afcbbd9a283ab20bab",
                    "timestamp" : "0x5db7325c",
                    "transactionsTrie" : "0x21ca11429aca1bd82ce042ca3f678e5851d4d40dd6ba1ba9676d828977745adc",
                    "uncleHash" : "0x1dcc4de8dec75d7aab85b567b6ccd41ad312451b948a7413f0a142fd40d49347"
                },
                "blocknumber" : "1",
                "rlp" : "0xf90261f901f9a06d991da1db456d86ca4438279b25d771e8e8d4fd288be2f2bc3a49d6b04f29eea01dcc4de8dec75d7aab85b567b6ccd41ad312451b948a7413f0a142fd40d49347948888f1f195afa192cfee860698584c030f4c9db1a0c4c180ffe5b334f70df53ceaeb79553b8121234b35ae63afcbbd9a283ab20baba021ca11429aca1bd82ce042ca3f678e5851d4d40dd6ba1ba9676d828977745adca0056b23fbba480696b65fe5a59b8f2148a1299103c4f57df839233af2cf4ca2d2b901000000000000000000000000000000000000000000000000000000000000000000000000000000000000000000000000000000000000000000000000000000000000000000000000000000000000000000000000000000000000000000000000000000000000000000000000000000000000000000000000000000000000000000000000000000000000000000000000000000000000000000000000000000000000000000000000000000000000000000000000000000000000000000000000000000000000000000000000000000000000000000000000000000000000000000000000000000000000000000000000000000000000000000000000000000000083035b5001832fefba825208845db7325c80a0ca35c6875384772e44810a41ebf38b9cc962387697c7f1529510b1f536f10c8d888d198f845624fc54f862f86080018304cb2f94095e7baea6a6c7c4c2dfeb977efac326af552d8780801ca0d8c3d8bdd11779b7fa8b672699646f6c62e7637f90ae50216936688cd060d5aca013c873b28a04a51026e9692c93e0f20d69109ba1972d58057d1e3a195f41a727c0",
                "transactions" : [
                    {
                        "data" : "0x",
                        "gasLimit" : "0x04cb2f",
                        "gasPrice" : "0x01",
                        "nonce" : "0x00",
                        "r" : "0xd8c3d8bdd11779b7fa8b672699646f6c62e7637f90ae50216936688cd060d5ac",
                        "s" : "0x13c873b28a04a51026e9692c93e0f20d69109ba1972d58057d1e3a195f41a727",
                        "to" : "0x095e7baea6a6c7c4c2dfeb977efac326af552d87",
                        "v" : "0x1c",
                        "value" : "0x00"
                    }
                ],
                "uncleHeaders" : [
                ]
            },
            {
                "blockHeader" : {
                    "bloom" : "0x00000000000000000000000000000000000000000000000000000000000000000000000000000000000000000000000000000000000000000000000000000000000000000000000000000000000000000000000000000000000000000000000000000000000000000000000000000000000000000000000000000000000000000000000000000000000000000000000000000000000000000000000000000000000000000000000000000000000000000000000000000000000000000000000000000000000000000000000000000000000000000000000000000000000000000000000000000000000000000000000000000000000000000000000000000000",
                    "coinbase" : "0x8888f1f195afa192cfee860698584c030f4c9db1",
                    "difficulty" : "0x035bbb",
                    "extraData" : "",
                    "gasLimit" : "0x2fefba",
                    "gasUsed" : "0x5208",
                    "hash" : "0x943b9b445957376c6ab2a9f4c3ca9105f2dea126b5d71631b9d4b624549088c1",
                    "mixHash" : "0xeb5ed36e164ffc0da3a3101a53994b27aa3dbe1ca582be220c93a1d1585d2669",
                    "nonce" : "0xf7e03550e0d00301",
                    "number" : "0x02",
                    "parentHash" : "0x4f92f5fbbed4a1af10a8cbefe68867843a25c97208755a6808eb43526b3209d4",
                    "receiptTrie" : "0x056b23fbba480696b65fe5a59b8f2148a1299103c4f57df839233af2cf4ca2d2",
                    "stateRoot" : "0xf6cffa86ee24f5e1278d39f275b4086c96cb518cb875e9c92cc8c13ff7ab7d92",
                    "timestamp" : "0x5db7325d",
                    "transactionsTrie" : "0x0abf4a9e610582d29ac505c389230c598d54e74441f481954249ddc39fe7f9af",
                    "uncleHash" : "0x1dcc4de8dec75d7aab85b567b6ccd41ad312451b948a7413f0a142fd40d49347"
                },
                "blocknumber" : "2",
                "rlp" : "0xf90261f901f9a04f92f5fbbed4a1af10a8cbefe68867843a25c97208755a6808eb43526b3209d4a01dcc4de8dec75d7aab85b567b6ccd41ad312451b948a7413f0a142fd40d49347948888f1f195afa192cfee860698584c030f4c9db1a0f6cffa86ee24f5e1278d39f275b4086c96cb518cb875e9c92cc8c13ff7ab7d92a00abf4a9e610582d29ac505c389230c598d54e74441f481954249ddc39fe7f9afa0056b23fbba480696b65fe5a59b8f2148a1299103c4f57df839233af2cf4ca2d2b901000000000000000000000000000000000000000000000000000000000000000000000000000000000000000000000000000000000000000000000000000000000000000000000000000000000000000000000000000000000000000000000000000000000000000000000000000000000000000000000000000000000000000000000000000000000000000000000000000000000000000000000000000000000000000000000000000000000000000000000000000000000000000000000000000000000000000000000000000000000000000000000000000000000000000000000000000000000000000000000000000000000000000000000000000000000083035bbb02832fefba825208845db7325d80a0eb5ed36e164ffc0da3a3101a53994b27aa3dbe1ca582be220c93a1d1585d266988f7e03550e0d00301f862f86001018304cb2f94095e7baea6a6c7c4c2dfeb977efac326af552d8780801ba0604ff269abdc5f9caafae2deb24c15d0596033e4e32023f152ea3143dc3faeeaa04f704a5b7f09d0ab97254ad3b21fd53560f18f4d76e6eae2adadcc634320e7b4c0",
                "transactions" : [
                    {
                        "data" : "0x",
                        "gasLimit" : "0x04cb2f",
                        "gasPrice" : "0x01",
                        "nonce" : "0x01",
                        "r" : "0x604ff269abdc5f9caafae2deb24c15d0596033e4e32023f152ea3143dc3faeea",
                        "s" : "0x4f704a5b7f09d0ab97254ad3b21fd53560f18f4d76e6eae2adadcc634320e7b4",
                        "to" : "0x095e7baea6a6c7c4c2dfeb977efac326af552d87",
                        "v" : "0x1b",
                        "value" : "0x00"
                    }
                ],
                "uncleHeaders" : [
                ]
            },
            {
                "blockHeader" : {
                    "bloom" : "0x00000000000000000000000000000000000000000000000000000000000000000000000000000000000000000000000000000000000000000000000000000000000000000000000000000000000000000000000000000000000000000000000000000000000000000000000000000000000000000000000000000000000000000000000000000000000000000000000000000000000000000000000000000000000000000000000000000000000000000000000000000000000000000000000000000000000000000000000000000000000000000000000000000000000000000000000000000000000000000000000000000000000000000000000000000000",
                    "coinbase" : "0x8888f1f195afa192cfee860698584c030f4c9db1",
                    "difficulty" : "0x0356b7",
                    "extraData" : "",
                    "gasLimit" : "0x2fefba",
                    "gasUsed" : "0x5208",
                    "hash" : "0x8e8d2d05fc11760015f9f96b8e8090c7b4f788821cecce24e474b44946010454",
                    "mixHash" : "0xcab40ce61f28316966ec9cbbb18849813eaa686c9c140d5f4163f42544776381",
                    "nonce" : "0x157720944ab7746f",
                    "number" : "0x03",
                    "parentHash" : "0x943b9b445957376c6ab2a9f4c3ca9105f2dea126b5d71631b9d4b624549088c1",
                    "receiptTrie" : "0x056b23fbba480696b65fe5a59b8f2148a1299103c4f57df839233af2cf4ca2d2",
                    "stateRoot" : "0x8053a7345725920283f76bcb679791c5c811fef9e3f54743d90034e9cce0d7b8",
                    "timestamp" : "0x5db732d5",
                    "transactionsTrie" : "0x80d4b46e8fe207267e6c285a3dda9ec5ced32396da0061816fc9c663ec9e378e",
                    "uncleHash" : "0x1dcc4de8dec75d7aab85b567b6ccd41ad312451b948a7413f0a142fd40d49347"
                },
                "blocknumber" : "3",
                "rlp" : "0xf90261f901f9a0943b9b445957376c6ab2a9f4c3ca9105f2dea126b5d71631b9d4b624549088c1a01dcc4de8dec75d7aab85b567b6ccd41ad312451b948a7413f0a142fd40d49347948888f1f195afa192cfee860698584c030f4c9db1a08053a7345725920283f76bcb679791c5c811fef9e3f54743d90034e9cce0d7b8a080d4b46e8fe207267e6c285a3dda9ec5ced32396da0061816fc9c663ec9e378ea0056b23fbba480696b65fe5a59b8f2148a1299103c4f57df839233af2cf4ca2d2b9010000000000000000000000000000000000000000000000000000000000000000000000000000000000000000000000000000000000000000000000000000000000000000000000000000000000000000000000000000000000000000000000000000000000000000000000000000000000000000000000000000000000000000000000000000000000000000000000000000000000000000000000000000000000000000000000000000000000000000000000000000000000000000000000000000000000000000000000000000000000000000000000000000000000000000000000000000000000000000000000000000000000000000000000000000000000830356b703832fefba825208845db732d580a0cab40ce61f28316966ec9cbbb18849813eaa686c9c140d5f4163f4254477638188157720944ab7746ff862f86002018304cb2f94095e7baea6a6c7c4c2dfeb977efac326af552d8701801ca049c097ec19a9bb679b0e274d28ac550908402a04d5d5e97704248d2018cc52dba06372a58cd7c606d7fb0183d4d80b43a385cf7cfb2f0ad21edde9900753c03d60c0",
                "transactions" : [
                    {
                        "data" : "0x",
                        "gasLimit" : "0x04cb2f",
                        "gasPrice" : "0x01",
                        "nonce" : "0x02",
                        "r" : "0x49c097ec19a9bb679b0e274d28ac550908402a04d5d5e97704248d2018cc52db",
                        "s" : "0x6372a58cd7c606d7fb0183d4d80b43a385cf7cfb2f0ad21edde9900753c03d60",
                        "to" : "0x095e7baea6a6c7c4c2dfeb977efac326af552d87",
                        "v" : "0x1c",
                        "value" : "0x01"
                    }
                ],
                "uncleHeaders" : [
                ]
            },
            {
                "blockHeader" : {
                    "bloom" : "0x00000000000000000000000000000000000000000000000000000000000000000000000000000000000000000000000000000000000000000000000000000000000000000000000000000000000000000000000000000000000000000000000000000000000000000000000000000000000000000000000000000000000000000000000000000000000000000000000000000000000000000000000000000000000000000000000000000000000000000000000000000000000000000000000000000000000000000000000000000000000000000000000000000000000000000000000000000000000000000000000000000000000000000000000000000000",
                    "coinbase" : "0x8888f1f195afa192cfee860698584c030f4c9db1",
                    "difficulty" : "0x0356b7",
                    "extraData" : "",
                    "gasLimit" : "0x2fefba",
                    "gasUsed" : "0x00",
                    "hash" : "0xfb70a3e0009fa344d24630fe30955e557601e7ad1e0ff41d940b9a7d335f4403",
                    "mixHash" : "0x0a9623161e9fe4e2567e4dba4f83e6fa3845ee1ce9245435ec315a91fb33d9d1",
                    "nonce" : "0xf6cf62d11a2bc029",
                    "number" : "0x03",
                    "parentHash" : "0x943b9b445957376c6ab2a9f4c3ca9105f2dea126b5d71631b9d4b624549088c1",
                    "receiptTrie" : "0x56e81f171bcc55a6ff8345e692c0f86e5b48e01b996cadc001622fb5e363b421",
                    "stateRoot" : "0x0c2c66a78eb0e38ea6a5b3a693731b0718e20007e8de9e8f0674a21fa8541ba7",
                    "timestamp" : "0x5db732d5",
                    "transactionsTrie" : "0x56e81f171bcc55a6ff8345e692c0f86e5b48e01b996cadc001622fb5e363b421",
                    "uncleHash" : "0x1dcc4de8dec75d7aab85b567b6ccd41ad312451b948a7413f0a142fd40d49347"
                },
                "blocknumber" : "3",
                "rlp" : "0xf901fcf901f7a0943b9b445957376c6ab2a9f4c3ca9105f2dea126b5d71631b9d4b624549088c1a01dcc4de8dec75d7aab85b567b6ccd41ad312451b948a7413f0a142fd40d49347948888f1f195afa192cfee860698584c030f4c9db1a00c2c66a78eb0e38ea6a5b3a693731b0718e20007e8de9e8f0674a21fa8541ba7a056e81f171bcc55a6ff8345e692c0f86e5b48e01b996cadc001622fb5e363b421a056e81f171bcc55a6ff8345e692c0f86e5b48e01b996cadc001622fb5e363b421b9010000000000000000000000000000000000000000000000000000000000000000000000000000000000000000000000000000000000000000000000000000000000000000000000000000000000000000000000000000000000000000000000000000000000000000000000000000000000000000000000000000000000000000000000000000000000000000000000000000000000000000000000000000000000000000000000000000000000000000000000000000000000000000000000000000000000000000000000000000000000000000000000000000000000000000000000000000000000000000000000000000000000000000000000000000000000830356b703832fefba80845db732d580a00a9623161e9fe4e2567e4dba4f83e6fa3845ee1ce9245435ec315a91fb33d9d188f6cf62d11a2bc029c0c0",
                "transactions" : [
                ],
                "uncleHeaders" : [
                ]
            },
            {
                "blockHeader" : {
                    "bloom" : "0x00000000000000000000000000000000000000000000000000000000000000000000000000000000000000000000000000000000000000000000000000000000000000000000000000000000000000000000000000000000000000000000000000000000000000000000000000000000000000000000000000000000000000000000000000000000000000000000000000000000000000000000000000000000000000000000000000000000000000000000000000000000000000000000000000000000000000000000000000000000000000000000000000000000000000000000000000000000000000000000000000000000000000000000000000000000",
                    "coinbase" : "0x8888f1f195afa192cfee860698584c030f4c9db1",
                    "difficulty" : "0x0356b7",
                    "extraData" : "",
                    "gasLimit" : "0x2fefba",
                    "gasUsed" : "0x00",
                    "hash" : "0xeefb1e2f700ca2ba5dc8eb14c5fbb111404a86a8bdca1bf4ff5efcf8bd8967b4",
                    "mixHash" : "0xc029e239fbbe55bf92165f7f6a99f10d366763cde4d0108ffcc2a83627555e7c",
                    "nonce" : "0x9c443dc7c483abad",
                    "number" : "0x03",
                    "parentHash" : "0x943b9b445957376c6ab2a9f4c3ca9105f2dea126b5d71631b9d4b624549088c1",
                    "receiptTrie" : "0x56e81f171bcc55a6ff8345e692c0f86e5b48e01b996cadc001622fb5e363b421",
                    "stateRoot" : "0x0c2c66a78eb0e38ea6a5b3a693731b0718e20007e8de9e8f0674a21fa8541ba7",
                    "timestamp" : "0x5db732d5",
                    "transactionsTrie" : "0x56e81f171bcc55a6ff8345e692c0f86e5b48e01b996cadc001622fb5e363b421",
                    "uncleHash" : "0x1dcc4de8dec75d7aab85b567b6ccd41ad312451b948a7413f0a142fd40d49347"
                },
                "blocknumber" : "3",
                "rlp" : "0xf901fcf901f7a0943b9b445957376c6ab2a9f4c3ca9105f2dea126b5d71631b9d4b624549088c1a01dcc4de8dec75d7aab85b567b6ccd41ad312451b948a7413f0a142fd40d49347948888f1f195afa192cfee860698584c030f4c9db1a00c2c66a78eb0e38ea6a5b3a693731b0718e20007e8de9e8f0674a21fa8541ba7a056e81f171bcc55a6ff8345e692c0f86e5b48e01b996cadc001622fb5e363b421a056e81f171bcc55a6ff8345e692c0f86e5b48e01b996cadc001622fb5e363b421b9010000000000000000000000000000000000000000000000000000000000000000000000000000000000000000000000000000000000000000000000000000000000000000000000000000000000000000000000000000000000000000000000000000000000000000000000000000000000000000000000000000000000000000000000000000000000000000000000000000000000000000000000000000000000000000000000000000000000000000000000000000000000000000000000000000000000000000000000000000000000000000000000000000000000000000000000000000000000000000000000000000000000000000000000000000000000830356b703832fefba80845db732d580a0c029e239fbbe55bf92165f7f6a99f10d366763cde4d0108ffcc2a83627555e7c889c443dc7c483abadc0c0",
                "transactions" : [
                ],
                "uncleHeaders" : [
                ]
            },
            {
                "blockHeader" : {
                    "bloom" : "0x00000000000000000000000000000000000000000000000000000000000000000000000000000000000000000000000000000000000000000000000000000000000000000000000000000000000000000000000000000000000000000000000000000000000000000000000000000000000000000000000000000000000000000000000000000000000000000000000000000000000000000000000000000000000000000000000000000000000000000000000000000000000000000000000000000000000000000000000000000000000000000000000000000000000000000000000000000000000000000000000000000000000000000000000000000000",
                    "coinbase" : "0x8888f1f195afa192cfee860698584c030f4c9db1",
                    "difficulty" : "0x035c26",
                    "extraData" : "",
                    "gasLimit" : "0x2fefba",
                    "gasUsed" : "0x5208",
                    "hash" : "0x9a318bea2e21c67a4bee67efd31fb71d43dc29c2361bc406e0282538b6881a8e",
                    "mixHash" : "0x3eb1d30e4ac1a97ac8fc2d959e61ff0188c395b8b724ea21abda3fbc5d528fd2",
                    "nonce" : "0x7fea478a17cb5329",
                    "number" : "0x03",
                    "parentHash" : "0x943b9b445957376c6ab2a9f4c3ca9105f2dea126b5d71631b9d4b624549088c1",
                    "receiptTrie" : "0x056b23fbba480696b65fe5a59b8f2148a1299103c4f57df839233af2cf4ca2d2",
                    "stateRoot" : "0x59c7188fb4c50599d7c446d57245d59d8b189420cc20bc1d3818c63d850ab77a",
                    "timestamp" : "0x5db73262",
                    "transactionsTrie" : "0x6248badbff65ed9910fe53dc4368a1d8db872f00d9b32713d4e876763a5fe96c",
                    "uncleHash" : "0x1dcc4de8dec75d7aab85b567b6ccd41ad312451b948a7413f0a142fd40d49347"
                },
                "blocknumber" : "3",
                "rlp" : "0xf90263f901f9a0943b9b445957376c6ab2a9f4c3ca9105f2dea126b5d71631b9d4b624549088c1a01dcc4de8dec75d7aab85b567b6ccd41ad312451b948a7413f0a142fd40d49347948888f1f195afa192cfee860698584c030f4c9db1a059c7188fb4c50599d7c446d57245d59d8b189420cc20bc1d3818c63d850ab77aa06248badbff65ed9910fe53dc4368a1d8db872f00d9b32713d4e876763a5fe96ca0056b23fbba480696b65fe5a59b8f2148a1299103c4f57df839233af2cf4ca2d2b901000000000000000000000000000000000000000000000000000000000000000000000000000000000000000000000000000000000000000000000000000000000000000000000000000000000000000000000000000000000000000000000000000000000000000000000000000000000000000000000000000000000000000000000000000000000000000000000000000000000000000000000000000000000000000000000000000000000000000000000000000000000000000000000000000000000000000000000000000000000000000000000000000000000000000000000000000000000000000000000000000000000000000000000000000000000083035c2603832fefba825208845db7326280a03eb1d30e4ac1a97ac8fc2d959e61ff0188c395b8b724ea21abda3fbc5d528fd2887fea478a17cb5329f864f86202820d038304cb2f94095e7baea6a6c7c4c2dfeb977efac326af552d8704801ba0fc2548515447aee1b15e9e2f1c1889caa5c43b55a04fd83b6fa6febc865816bba0128812d72c943c7bfd17545c2b353d28712534bda7e362c09b9dcff77c774f9ec0",
                "transactions" : [
                    {
                        "data" : "0x",
                        "gasLimit" : "0x04cb2f",
                        "gasPrice" : "0x0d03",
                        "nonce" : "0x02",
                        "r" : "0xfc2548515447aee1b15e9e2f1c1889caa5c43b55a04fd83b6fa6febc865816bb",
                        "s" : "0x128812d72c943c7bfd17545c2b353d28712534bda7e362c09b9dcff77c774f9e",
                        "to" : "0x095e7baea6a6c7c4c2dfeb977efac326af552d87",
                        "v" : "0x1b",
                        "value" : "0x04"
                    }
                ],
                "uncleHeaders" : [
                ]
            },
            {
                "blockHeader" : {
                    "bloom" : "0x00000000000000000000000000000000000000000000000000000000000000000000000000000000000000000000000000000000000000000000000000000000000000000000000000000000000000000000000000000000000000000000000000000000000000000000000000000000000000000000000000000000000000000000000000000000000000000000000000000000000000000000000000000000000000000000000000000000000000000000000000000000000000000000000000000000000000000000000000000000000000000000000000000000000000000000000000000000000000000000000000000000000000000000000000000000",
                    "coinbase" : "0x8888f1f195afa192cfee860698584c030f4c9db1",
                    "difficulty" : "0x0356b7",
                    "extraData" : "",
                    "gasLimit" : "0x2fefba",
                    "gasUsed" : "0x5248",
                    "hash" : "0x22714ecdf68932a94da81e304d7d267f41794dcbc3aade4c0dfb15ee76251212",
                    "mixHash" : "0x12fa84aff4f251ebc4051b01cd5be6b290c4c056764344c90e1e2f66cbc351bf",
                    "nonce" : "0x41787a0438416887",
                    "number" : "0x03",
                    "parentHash" : "0x943b9b445957376c6ab2a9f4c3ca9105f2dea126b5d71631b9d4b624549088c1",
                    "receiptTrie" : "0x0283bc637c8509fb7f2c2ea8fea3ea4492b8f576fc05ad4efb828f7a736275e0",
                    "stateRoot" : "0x977ad0cea67dc9d80b838a398bb402bd5667b08fa414dd5795c150d1e74f95fd",
                    "timestamp" : "0x5db732d5",
                    "transactionsTrie" : "0x15f7fc6985115c0094cdb4d454c1cf7925c0bbfede919337af9d2f67e8460f88",
                    "uncleHash" : "0x1dcc4de8dec75d7aab85b567b6ccd41ad312451b948a7413f0a142fd40d49347"
                },
                "blocknumber" : "3",
                "rlp" : "0xf90265f901f9a0943b9b445957376c6ab2a9f4c3ca9105f2dea126b5d71631b9d4b624549088c1a01dcc4de8dec75d7aab85b567b6ccd41ad312451b948a7413f0a142fd40d49347948888f1f195afa192cfee860698584c030f4c9db1a0977ad0cea67dc9d80b838a398bb402bd5667b08fa414dd5795c150d1e74f95fda015f7fc6985115c0094cdb4d454c1cf7925c0bbfede919337af9d2f67e8460f88a00283bc637c8509fb7f2c2ea8fea3ea4492b8f576fc05ad4efb828f7a736275e0b9010000000000000000000000000000000000000000000000000000000000000000000000000000000000000000000000000000000000000000000000000000000000000000000000000000000000000000000000000000000000000000000000000000000000000000000000000000000000000000000000000000000000000000000000000000000000000000000000000000000000000000000000000000000000000000000000000000000000000000000000000000000000000000000000000000000000000000000000000000000000000000000000000000000000000000000000000000000000000000000000000000000000000000000000000000000000830356b703832fefba825248845db732d580a012fa84aff4f251ebc4051b01cd5be6b290c4c056764344c90e1e2f66cbc351bf8841787a0438416887f866f86402018304cb2f94095e7baea6a6c7c4c2dfeb977efac326af552d870584446346341ba038bb0b4c094d0f4e3ad6ea586f78321b8199330a3399a9121e91e7b7b36c199fa010f625e63324d66a3cbe2296d1d1d435a01384d060d8e66f9ddad186a25171a5c0",
                "transactions" : [
                    {
                        "data" : "0x44634634",
                        "gasLimit" : "0x04cb2f",
                        "gasPrice" : "0x01",
                        "nonce" : "0x02",
                        "r" : "0x38bb0b4c094d0f4e3ad6ea586f78321b8199330a3399a9121e91e7b7b36c199f",
                        "s" : "0x10f625e63324d66a3cbe2296d1d1d435a01384d060d8e66f9ddad186a25171a5",
                        "to" : "0x095e7baea6a6c7c4c2dfeb977efac326af552d87",
                        "v" : "0x1b",
                        "value" : "0x05"
                    }
                ],
                "uncleHeaders" : [
                ]
            },
            {
                "blockHeader" : {
                    "bloom" : "0x00000000000000000000000000000000000000000000000000000000000000000000000000000000000000000000000000000000000000000000000000000000000000000000000000000000000000000000000000000000000000000000000000000000000000000000000000000000000000000000000000000000000000000000000000000000000000000000000000000000000000000000000000000000000000000000000000000000000000000000000000000000000000000000000000000000000000000000000000000000000000000000000000000000000000000000000000000000000000000000000000000000000000000000000000000000",
                    "coinbase" : "0x8888f1f195afa192cfee860698584c030f4c9db1",
                    "difficulty" : "0x0356b7",
                    "extraData" : "",
                    "gasLimit" : "0x2fefba",
                    "gasUsed" : "0x5208",
                    "hash" : "0xe6df15f3fc891d8040fbfc1dfd8cf136240e3b1e590eb03673ffda7d46b7c302",
                    "mixHash" : "0xd17dac38650eb687a6f5f43edead86e7c16758eb41bfbf72fc0f163dd449c195",
                    "nonce" : "0x208b049df639ee5e",
                    "number" : "0x03",
                    "parentHash" : "0x943b9b445957376c6ab2a9f4c3ca9105f2dea126b5d71631b9d4b624549088c1",
                    "receiptTrie" : "0x056b23fbba480696b65fe5a59b8f2148a1299103c4f57df839233af2cf4ca2d2",
                    "stateRoot" : "0xa9ae17c702a3b4513bb9dd6f4cbace10378c4eeb645a4e3a129f98eac8637156",
                    "timestamp" : "0x5db732d5",
                    "transactionsTrie" : "0x75fbaa0d21261c250d72804548590a0dcaf3f1849fcb9036eae67a1ea1328de3",
                    "uncleHash" : "0x1dcc4de8dec75d7aab85b567b6ccd41ad312451b948a7413f0a142fd40d49347"
                },
                "blocknumber" : "3",
                "rlp" : "0xf90260f901f9a0943b9b445957376c6ab2a9f4c3ca9105f2dea126b5d71631b9d4b624549088c1a01dcc4de8dec75d7aab85b567b6ccd41ad312451b948a7413f0a142fd40d49347948888f1f195afa192cfee860698584c030f4c9db1a0a9ae17c702a3b4513bb9dd6f4cbace10378c4eeb645a4e3a129f98eac8637156a075fbaa0d21261c250d72804548590a0dcaf3f1849fcb9036eae67a1ea1328de3a0056b23fbba480696b65fe5a59b8f2148a1299103c4f57df839233af2cf4ca2d2b9010000000000000000000000000000000000000000000000000000000000000000000000000000000000000000000000000000000000000000000000000000000000000000000000000000000000000000000000000000000000000000000000000000000000000000000000000000000000000000000000000000000000000000000000000000000000000000000000000000000000000000000000000000000000000000000000000000000000000000000000000000000000000000000000000000000000000000000000000000000000000000000000000000000000000000000000000000000000000000000000000000000000000000000000000000000000830356b703832fefba825208845db732d580a0d17dac38650eb687a6f5f43edead86e7c16758eb41bfbf72fc0f163dd449c19588208b049df639ee5ef861f85f020182795394095e7baea6a6c7c4c2dfeb977efac326af552d8706801ba0f0270ab1d37cefd527be86ad9914256506d919c1da6b825044ece7bb7f32b6bda0347c1adf10978e380be412dfb3f9e44d834aa17536abf14f15f61692ca60b24dc0",
                "transactions" : [
                    {
                        "data" : "0x",
                        "gasLimit" : "0x7953",
                        "gasPrice" : "0x01",
                        "nonce" : "0x02",
                        "r" : "0xf0270ab1d37cefd527be86ad9914256506d919c1da6b825044ece7bb7f32b6bd",
                        "s" : "0x347c1adf10978e380be412dfb3f9e44d834aa17536abf14f15f61692ca60b24d",
                        "to" : "0x095e7baea6a6c7c4c2dfeb977efac326af552d87",
                        "v" : "0x1b",
                        "value" : "0x06"
                    }
                ],
                "uncleHeaders" : [
                ]
            },
            {
                "blockHeader" : {
                    "bloom" : "0x00000000000000000000000000000000000000000000000000000000000000000000000000000000000000000000000000000000000000000000000000000000000000000000000000000000000000000000000000000000000000000000000000000000000000000000000000000000000000000000000000000000000000000000000000000000000000000000000000000000000000000000000000000000000000000000000000000000000000000000000000000000000000000000000000000000000000000000000000000000000000000000000000000000000000000000000000000000000000000000000000000000000000000000000000000000",
                    "coinbase" : "0x8888f1f195afa192cfee860698584c030f4c9db1",
                    "difficulty" : "0x0356b7",
                    "extraData" : "",
                    "gasLimit" : "0x2fefba",
                    "gasUsed" : "0x5248",
                    "hash" : "0xc27dc278f30806ac3ebe6651be5bd8bf7b36dab849ed3a77b0ab3d48f789c9ce",
                    "mixHash" : "0x6a7bd13d52c652f344f5e5c13e0cb157dc4648433121fc4a6997b3e5dbbfe0df",
                    "nonce" : "0x2bc55ff9ff849a38",
                    "number" : "0x03",
                    "parentHash" : "0x943b9b445957376c6ab2a9f4c3ca9105f2dea126b5d71631b9d4b624549088c1",
                    "receiptTrie" : "0x0283bc637c8509fb7f2c2ea8fea3ea4492b8f576fc05ad4efb828f7a736275e0",
                    "stateRoot" : "0x38dfb15be716a13936ba4d3cfdc324867dc667a591ca363aa39d9429cf0630b5",
                    "timestamp" : "0x5db732d5",
                    "transactionsTrie" : "0x8669745990c090d4f9b0fc2211287a67bb5d00adf5dd6453d833223533ad5791",
                    "uncleHash" : "0x1dcc4de8dec75d7aab85b567b6ccd41ad312451b948a7413f0a142fd40d49347"
                },
                "blocknumber" : "3",
                "rlp" : "0xf90264f901f9a0943b9b445957376c6ab2a9f4c3ca9105f2dea126b5d71631b9d4b624549088c1a01dcc4de8dec75d7aab85b567b6ccd41ad312451b948a7413f0a142fd40d49347948888f1f195afa192cfee860698584c030f4c9db1a038dfb15be716a13936ba4d3cfdc324867dc667a591ca363aa39d9429cf0630b5a08669745990c090d4f9b0fc2211287a67bb5d00adf5dd6453d833223533ad5791a00283bc637c8509fb7f2c2ea8fea3ea4492b8f576fc05ad4efb828f7a736275e0b9010000000000000000000000000000000000000000000000000000000000000000000000000000000000000000000000000000000000000000000000000000000000000000000000000000000000000000000000000000000000000000000000000000000000000000000000000000000000000000000000000000000000000000000000000000000000000000000000000000000000000000000000000000000000000000000000000000000000000000000000000000000000000000000000000000000000000000000000000000000000000000000000000000000000000000000000000000000000000000000000000000000000000000000000000000000000830356b703832fefba825248845db732d580a06a7bd13d52c652f344f5e5c13e0cb157dc4648433121fc4a6997b3e5dbbfe0df882bc55ff9ff849a38f865f8630201827b1594095e7baea6a6c7c4c2dfeb977efac326af552d870784345345401ca0ce87045a5369aba7265ad97dc16fe942ceff7d0fc48ad0f060d0ee818e1fab48a06cad108943efb7508c9c4d51b678cdfed19de5bdbdc84f2344f2add6a4ef01ffc0",
                "transactions" : [
                    {
                        "data" : "0x34534540",
                        "gasLimit" : "0x7b15",
                        "gasPrice" : "0x01",
                        "nonce" : "0x02",
                        "r" : "0xce87045a5369aba7265ad97dc16fe942ceff7d0fc48ad0f060d0ee818e1fab48",
                        "s" : "0x6cad108943efb7508c9c4d51b678cdfed19de5bdbdc84f2344f2add6a4ef01ff",
                        "to" : "0x095e7baea6a6c7c4c2dfeb977efac326af552d87",
                        "v" : "0x1c",
                        "value" : "0x07"
                    }
                ],
                "uncleHeaders" : [
                ]
            },
            {
                "blockHeader" : {
                    "bloom" : "0x00000000000000000000000000000000000000000000000000000000000000000000000000000000000000000000000000000000000000000000000000000000000000000000000000000000000000000000000000000000000000000000000000000000000000000000000000000000000000000000000000000000000000000000000000000000000000000000000000000000000000000000000000000000000000000000000000000000000000000000000000000000000000000000000000000000000000000000000000000000000000000000000000000000000000000000000000000000000000000000000000000000000000000000000000000000",
                    "coinbase" : "0x8888f1f195afa192cfee860698584c030f4c9db1",
                    "difficulty" : "0x0356b7",
                    "extraData" : "",
                    "gasLimit" : "0x2fefba",
                    "gasUsed" : "0x00",
                    "hash" : "0x4fcc6980391e576a0da5d843fa5f1cbae5c33a27645359f77a9fd0a99bd702e7",
                    "mixHash" : "0x2121bc28318cb5a518f752e6f222b4f38fb7f9b586ee786b39c309c07e588e2b",
                    "nonce" : "0x3a72d21c63431435",
                    "number" : "0x03",
                    "parentHash" : "0x943b9b445957376c6ab2a9f4c3ca9105f2dea126b5d71631b9d4b624549088c1",
                    "receiptTrie" : "0x56e81f171bcc55a6ff8345e692c0f86e5b48e01b996cadc001622fb5e363b421",
                    "stateRoot" : "0x0c2c66a78eb0e38ea6a5b3a693731b0718e20007e8de9e8f0674a21fa8541ba7",
                    "timestamp" : "0x5db732d5",
                    "transactionsTrie" : "0x56e81f171bcc55a6ff8345e692c0f86e5b48e01b996cadc001622fb5e363b421",
                    "uncleHash" : "0x1dcc4de8dec75d7aab85b567b6ccd41ad312451b948a7413f0a142fd40d49347"
                },
                "blocknumber" : "3",
                "rlp" : "0xf901fcf901f7a0943b9b445957376c6ab2a9f4c3ca9105f2dea126b5d71631b9d4b624549088c1a01dcc4de8dec75d7aab85b567b6ccd41ad312451b948a7413f0a142fd40d49347948888f1f195afa192cfee860698584c030f4c9db1a00c2c66a78eb0e38ea6a5b3a693731b0718e20007e8de9e8f0674a21fa8541ba7a056e81f171bcc55a6ff8345e692c0f86e5b48e01b996cadc001622fb5e363b421a056e81f171bcc55a6ff8345e692c0f86e5b48e01b996cadc001622fb5e363b421b9010000000000000000000000000000000000000000000000000000000000000000000000000000000000000000000000000000000000000000000000000000000000000000000000000000000000000000000000000000000000000000000000000000000000000000000000000000000000000000000000000000000000000000000000000000000000000000000000000000000000000000000000000000000000000000000000000000000000000000000000000000000000000000000000000000000000000000000000000000000000000000000000000000000000000000000000000000000000000000000000000000000000000000000000000000000000830356b703832fefba80845db732d580a02121bc28318cb5a518f752e6f222b4f38fb7f9b586ee786b39c309c07e588e2b883a72d21c63431435c0c0",
                "transactions" : [
                ],
                "uncleHeaders" : [
                ]
            },
            {
                "blockHeader" : {
                    "bloom" : "0x00000000000000000000000000000000000000000000000000000000000000000000000000000000000000000000000000000000000000000000000000000000000000000000000000000000000000000000000000000000000000000000000000000000000000000000000000000000000000000000000000000000000000000000000000000000000000000000000000000000000000000000000000000000000000000000000000000000000000000000000000000000000000000000000000000000000000000000000000000000000000000000000000000000000000000000000000000000000000000000000000000000000000000000000000000000",
                    "coinbase" : "0x8888f1f195afa192cfee860698584c030f4c9db1",
                    "difficulty" : "0x0356b7",
                    "extraData" : "",
                    "gasLimit" : "0x2fefba",
                    "gasUsed" : "0x5208",
                    "hash" : "0x8be0edadd36bda28e85f68d36b6eb21a8bbba23b5465ab3ad007b9779be59cd2",
                    "mixHash" : "0x81b3f2a0ce62e6c4dd028a59b680a27ff47df3e6da8e4c56cca53b01e76c5b1e",
                    "nonce" : "0xf4d5dc9304a61a5c",
                    "number" : "0x03",
                    "parentHash" : "0x943b9b445957376c6ab2a9f4c3ca9105f2dea126b5d71631b9d4b624549088c1",
                    "receiptTrie" : "0x056b23fbba480696b65fe5a59b8f2148a1299103c4f57df839233af2cf4ca2d2",
                    "stateRoot" : "0x4a52df456083b838f6b3d36a3bc6084d9f07897efc73697be66ef3279b4648a4",
                    "timestamp" : "0x5db732d5",
                    "transactionsTrie" : "0xeee8da1032d67fdbdd8a06aae4be0dd76a950314a182b72e9a741e82e7bb3c1b",
                    "uncleHash" : "0x1dcc4de8dec75d7aab85b567b6ccd41ad312451b948a7413f0a142fd40d49347"
                },
                "blocknumber" : "3",
                "rlp" : "0xf90261f901f9a0943b9b445957376c6ab2a9f4c3ca9105f2dea126b5d71631b9d4b624549088c1a01dcc4de8dec75d7aab85b567b6ccd41ad312451b948a7413f0a142fd40d49347948888f1f195afa192cfee860698584c030f4c9db1a04a52df456083b838f6b3d36a3bc6084d9f07897efc73697be66ef3279b4648a4a0eee8da1032d67fdbdd8a06aae4be0dd76a950314a182b72e9a741e82e7bb3c1ba0056b23fbba480696b65fe5a59b8f2148a1299103c4f57df839233af2cf4ca2d2b9010000000000000000000000000000000000000000000000000000000000000000000000000000000000000000000000000000000000000000000000000000000000000000000000000000000000000000000000000000000000000000000000000000000000000000000000000000000000000000000000000000000000000000000000000000000000000000000000000000000000000000000000000000000000000000000000000000000000000000000000000000000000000000000000000000000000000000000000000000000000000000000000000000000000000000000000000000000000000000000000000000000000000000000000000000000000830356b703832fefba825208845db732d580a081b3f2a0ce62e6c4dd028a59b680a27ff47df3e6da8e4c56cca53b01e76c5b1e88f4d5dc9304a61a5cf862f86002018304cb2f94795e7baea6a6c7c4c2dfeb977efac326af552d8709801ba09aebe65f630416e9f8d0b6d2767f6f7247fcd91a975ffb43f0cd4ad70c271f26a066deb8ae753107c19abb0cbe97b3252334dc17a985c5d02b490146caf21c8133c0",
                "transactions" : [
                    {
                        "data" : "0x",
                        "gasLimit" : "0x04cb2f",
                        "gasPrice" : "0x01",
                        "nonce" : "0x02",
                        "r" : "0x9aebe65f630416e9f8d0b6d2767f6f7247fcd91a975ffb43f0cd4ad70c271f26",
                        "s" : "0x66deb8ae753107c19abb0cbe97b3252334dc17a985c5d02b490146caf21c8133",
                        "to" : "0x795e7baea6a6c7c4c2dfeb977efac326af552d87",
                        "v" : "0x1b",
                        "value" : "0x09"
                    }
                ],
                "uncleHeaders" : [
                ]
            },
            {
                "blockHeader" : {
                    "bloom" : "0x00000000000000000000000000000000000000000000000000000000000000000000000000000000000000000000000000000000000000000000000000000000000000000000000000000000000000000000000000000000000000000000000000000000000000000000000000000000000000000000000000000000000000000000000000000000000000000000000000000000000000000000000000000000000000000000000000000000000000000000000000000000000000000000000000000000000000000000000000000000000000000000000000000000000000000000000000000000000000000000000000000000000000000000000000000000",
                    "coinbase" : "0x8888f1f195afa192cfee860698584c030f4c9db1",
                    "difficulty" : "0x0356b7",
                    "extraData" : "",
                    "gasLimit" : "0x2fefba",
                    "gasUsed" : "0x00",
                    "hash" : "0x548919424c33282e63691aba31ba3dc7c6b728cd4dc019a3a7377cacc0bde38a",
                    "mixHash" : "0x57ba3da9cd10e06610c1657d50446322d7d3581aefe0edcf8249c720c561ed37",
                    "nonce" : "0x8bfb8584a2c958cf",
                    "number" : "0x03",
                    "parentHash" : "0x943b9b445957376c6ab2a9f4c3ca9105f2dea126b5d71631b9d4b624549088c1",
                    "receiptTrie" : "0x56e81f171bcc55a6ff8345e692c0f86e5b48e01b996cadc001622fb5e363b421",
                    "stateRoot" : "0x0c2c66a78eb0e38ea6a5b3a693731b0718e20007e8de9e8f0674a21fa8541ba7",
                    "timestamp" : "0x5db732d5",
                    "transactionsTrie" : "0x56e81f171bcc55a6ff8345e692c0f86e5b48e01b996cadc001622fb5e363b421",
                    "uncleHash" : "0x1dcc4de8dec75d7aab85b567b6ccd41ad312451b948a7413f0a142fd40d49347"
                },
                "blocknumber" : "3",
                "rlp" : "0xf901fcf901f7a0943b9b445957376c6ab2a9f4c3ca9105f2dea126b5d71631b9d4b624549088c1a01dcc4de8dec75d7aab85b567b6ccd41ad312451b948a7413f0a142fd40d49347948888f1f195afa192cfee860698584c030f4c9db1a00c2c66a78eb0e38ea6a5b3a693731b0718e20007e8de9e8f0674a21fa8541ba7a056e81f171bcc55a6ff8345e692c0f86e5b48e01b996cadc001622fb5e363b421a056e81f171bcc55a6ff8345e692c0f86e5b48e01b996cadc001622fb5e363b421b9010000000000000000000000000000000000000000000000000000000000000000000000000000000000000000000000000000000000000000000000000000000000000000000000000000000000000000000000000000000000000000000000000000000000000000000000000000000000000000000000000000000000000000000000000000000000000000000000000000000000000000000000000000000000000000000000000000000000000000000000000000000000000000000000000000000000000000000000000000000000000000000000000000000000000000000000000000000000000000000000000000000000000000000000000000000000830356b703832fefba80845db732d580a057ba3da9cd10e06610c1657d50446322d7d3581aefe0edcf8249c720c561ed37888bfb8584a2c958cfc0c0",
                "transactions" : [
                ],
                "uncleHeaders" : [
                ]
            },
            {
                "blockHeader" : {
                    "bloom" : "0x00000000000000000000000000000000000000000000000000000000000000000000000000000000000000000000000000000000000000000000000000000000000000000000000000000000000000000000000000000000000000000000000000000000000000000000000000000000000000000000000000000000000000000000000000000000000000000000000000000000000000000000000000000000000000000000000000000000000000000000000000000000000000000000000000000000000000000000000000000000000000000000000000000000000000000000000000000000000000000000000000000000000000000000000000000000",
                    "coinbase" : "0x8888f1f195afa192cfee860698584c030f4c9db1",
                    "difficulty" : "0x0356b7",
                    "extraData" : "",
                    "gasLimit" : "0x2fefba",
                    "gasUsed" : "0x5208",
                    "hash" : "0x770f6339adbfe1cf847b9dc3f95f254e7176bc2d90981976ff97811d76b45954",
                    "mixHash" : "0x2d68b5ea4656d7b682cdb5f8cbb69ee469e479ad6f54aeea4ac65a26148691ee",
                    "nonce" : "0x7d32badc04e72b7e",
                    "number" : "0x03",
                    "parentHash" : "0x943b9b445957376c6ab2a9f4c3ca9105f2dea126b5d71631b9d4b624549088c1",
                    "receiptTrie" : "0x056b23fbba480696b65fe5a59b8f2148a1299103c4f57df839233af2cf4ca2d2",
                    "stateRoot" : "0x9f6777e5ff7bd4d31b60a44b33bda965a1e51849b72f5d7e88fb999f1a525a61",
                    "timestamp" : "0x5db732d5",
                    "transactionsTrie" : "0x4aecda80a762615dbd4ba2ae6c0634b9042a6efb10aa841b59370258b7f226b5",
                    "uncleHash" : "0x1dcc4de8dec75d7aab85b567b6ccd41ad312451b948a7413f0a142fd40d49347"
                },
                "blocknumber" : "3",
                "rlp" : "0xf90261f901f9a0943b9b445957376c6ab2a9f4c3ca9105f2dea126b5d71631b9d4b624549088c1a01dcc4de8dec75d7aab85b567b6ccd41ad312451b948a7413f0a142fd40d49347948888f1f195afa192cfee860698584c030f4c9db1a09f6777e5ff7bd4d31b60a44b33bda965a1e51849b72f5d7e88fb999f1a525a61a04aecda80a762615dbd4ba2ae6c0634b9042a6efb10aa841b59370258b7f226b5a0056b23fbba480696b65fe5a59b8f2148a1299103c4f57df839233af2cf4ca2d2b9010000000000000000000000000000000000000000000000000000000000000000000000000000000000000000000000000000000000000000000000000000000000000000000000000000000000000000000000000000000000000000000000000000000000000000000000000000000000000000000000000000000000000000000000000000000000000000000000000000000000000000000000000000000000000000000000000000000000000000000000000000000000000000000000000000000000000000000000000000000000000000000000000000000000000000000000000000000000000000000000000000000000000000000000000000000000830356b703832fefba825208845db732d580a02d68b5ea4656d7b682cdb5f8cbb69ee469e479ad6f54aeea4ac65a26148691ee887d32badc04e72b7ef862f860020a8304cb2f94095e7baea6a6c7c4c2dfeb977efac326af552d870b801ba09a5a25de70854a14113a86ce21d085b82198187e82576ef02ebd97598f47a917a07f718d34b77e73aa1ffdcd53da9c609bc4e551d13dc5d6afdfed23dcaf843e4bc0",
                "transactions" : [
                    {
                        "data" : "0x",
                        "gasLimit" : "0x04cb2f",
                        "gasPrice" : "0x0a",
                        "nonce" : "0x02",
                        "r" : "0x9a5a25de70854a14113a86ce21d085b82198187e82576ef02ebd97598f47a917",
                        "s" : "0x7f718d34b77e73aa1ffdcd53da9c609bc4e551d13dc5d6afdfed23dcaf843e4b",
                        "to" : "0x095e7baea6a6c7c4c2dfeb977efac326af552d87",
                        "v" : "0x1b",
                        "value" : "0x0b"
                    }
                ],
                "uncleHeaders" : [
                ]
            }
        ],
        "genesisBlockHeader" : {
            "bloom" : "0x00000000000000000000000000000000000000000000000000000000000000000000000000000000000000000000000000000000000000000000000000000000000000000000000000000000000000000000000000000000000000000000000000000000000000000000000000000000000000000000000000000000000000000000000000000000000000000000000000000000000000000000000000000000000000000000000000000000000000000000000000000000000000000000000000000000000000000000000000000000000000000000000000000000000000000000000000000000000000000000000000000000000000000000000000000000",
            "coinbase" : "0x8888f1f195afa192cfee860698584c030f4c9db1",
            "difficulty" : "0x0386a0",
            "extraData" : "0x42",
            "gasLimit" : "0x2fefd8",
            "gasUsed" : "0x00",
            "hash" : "0x6d991da1db456d86ca4438279b25d771e8e8d4fd288be2f2bc3a49d6b04f29ee",
            "mixHash" : "0x56e81f171bcc55a6ff8345e692c0f86e5b48e01b996cadc001622fb5e363b421",
            "nonce" : "0x0102030405060708",
            "number" : "0x00",
            "parentHash" : "0x0000000000000000000000000000000000000000000000000000000000000000",
            "receiptTrie" : "0x56e81f171bcc55a6ff8345e692c0f86e5b48e01b996cadc001622fb5e363b421",
            "stateRoot" : "0x7dba07d6b448a186e9612e5f737d1c909dce473e53199901a302c00646d523c1",
            "timestamp" : "0x54c98c81",
            "transactionsTrie" : "0x56e81f171bcc55a6ff8345e692c0f86e5b48e01b996cadc001622fb5e363b421",
            "uncleHash" : "0x1dcc4de8dec75d7aab85b567b6ccd41ad312451b948a7413f0a142fd40d49347"
        },
        "genesisRLP" : "0xf901fcf901f7a00000000000000000000000000000000000000000000000000000000000000000a01dcc4de8dec75d7aab85b567b6ccd41ad312451b948a7413f0a142fd40d49347948888f1f195afa192cfee860698584c030f4c9db1a07dba07d6b448a186e9612e5f737d1c909dce473e53199901a302c00646d523c1a056e81f171bcc55a6ff8345e692c0f86e5b48e01b996cadc001622fb5e363b421a056e81f171bcc55a6ff8345e692c0f86e5b48e01b996cadc001622fb5e363b421b9010000000000000000000000000000000000000000000000000000000000000000000000000000000000000000000000000000000000000000000000000000000000000000000000000000000000000000000000000000000000000000000000000000000000000000000000000000000000000000000000000000000000000000000000000000000000000000000000000000000000000000000000000000000000000000000000000000000000000000000000000000000000000000000000000000000000000000000000000000000000000000000000000000000000000000000000000000000000000000000000000000000000000000000000000000000000830386a080832fefd8808454c98c8142a056e81f171bcc55a6ff8345e692c0f86e5b48e01b996cadc001622fb5e363b421880102030405060708c0c0",
        "lastblockhash" : "0x9a318bea2e21c67a4bee67efd31fb71d43dc29c2361bc406e0282538b6881a8e",
        "network" : "Istanbul",
        "postState" : {
            "0x095e7baea6a6c7c4c2dfeb977efac326af552d87" : {
                "balance" : "0x04",
                "code" : "",
                "nonce" : "0x00",
                "storage" : {
                }
            },
            "0x8888f1f195afa192cfee860698584c030f4c9db1" : {
                "balance" : "0x53444835f0840228",
                "code" : "",
                "nonce" : "0x00",
                "storage" : {
                }
            },
            "0xa94f5374fce5edbc8e2a8697c15331677e6ebf0b" : {
                "balance" : "0x09184a469dd4",
                "code" : "",
                "nonce" : "0x03",
                "storage" : {
                }
            }
        },
        "pre" : {
            "0xa94f5374fce5edbc8e2a8697c15331677e6ebf0b" : {
                "balance" : "0x09184e72a000",
                "code" : "",
                "nonce" : "0x00",
                "storage" : {
                }
            }
        },
        "sealEngine" : "Ethash"
    }
}