{
    "uncleBlockAtBlock3AfterBlock3_Istanbul" : {
        "_info" : {
            "comment" : "",
            "filling-rpc-server" : "Geth-1.9.11-unstable-a382d783-20200127",
            "filling-tool-version" : "retesteth-0.0.2+commit.e8723140.Linux.g++",
            "lllcversion" : "Version: 0.5.14-develop.2019.11.27+commit.8f259595.Linux.g++",
            "source" : "src/BlockchainTestsFiller/ValidBlocks/bcTotalDifficultyTest/uncleBlockAtBlock3AfterBlock3Filler.json",
            "sourceHash" : "8855a425e5cde7361dadcc2ee61a73ad6f594164b250282bbc9f0c9abca14827"
        },
        "sealEngine" : "NoProof",
        "network" : "Istanbul",
        "pre" : {
            "0xa94f5374fce5edbc8e2a8697c15331677e6ebf0b" : {
                "balance" : "0x09184e72a000",
                "code" : "0x",
                "nonce" : "0x00",
                "storage" : {
                }
            }
        },
        "genesisBlockHeader" : {
            "bloom" : "0x00000000000000000000000000000000000000000000000000000000000000000000000000000000000000000000000000000000000000000000000000000000000000000000000000000000000000000000000000000000000000000000000000000000000000000000000000000000000000000000000000000000000000000000000000000000000000000000000000000000000000000000000000000000000000000000000000000000000000000000000000000000000000000000000000000000000000000000000000000000000000000000000000000000000000000000000000000000000000000000000000000000000000000000000000000000",
            "coinbase" : "0x8888f1f195afa192cfee860698584c030f4c9db1",
            "difficulty" : "0x020000",
            "extraData" : "0x42",
            "gasLimit" : "0x2fefd8",
            "gasUsed" : "0x00",
            "hash" : "0x2b253498ad5e63a16978753398bad1fde371a3e513438297b52d65dc98e1db29",
            "mixHash" : "0x0000000000000000000000000000000000000000000000000000000000000000",
            "nonce" : "0x0000000000000000",
            "number" : "0x00",
            "parentHash" : "0x0000000000000000000000000000000000000000000000000000000000000000",
            "receiptTrie" : "0x56e81f171bcc55a6ff8345e692c0f86e5b48e01b996cadc001622fb5e363b421",
            "stateRoot" : "0x7dba07d6b448a186e9612e5f737d1c909dce473e53199901a302c00646d523c1",
            "timestamp" : "0x54c98c81",
            "transactionsTrie" : "0x56e81f171bcc55a6ff8345e692c0f86e5b48e01b996cadc001622fb5e363b421",
            "uncleHash" : "0x1dcc4de8dec75d7aab85b567b6ccd41ad312451b948a7413f0a142fd40d49347"
        },
        "genesisRLP" : "0xf901fcf901f7a00000000000000000000000000000000000000000000000000000000000000000a01dcc4de8dec75d7aab85b567b6ccd41ad312451b948a7413f0a142fd40d49347948888f1f195afa192cfee860698584c030f4c9db1a07dba07d6b448a186e9612e5f737d1c909dce473e53199901a302c00646d523c1a056e81f171bcc55a6ff8345e692c0f86e5b48e01b996cadc001622fb5e363b421a056e81f171bcc55a6ff8345e692c0f86e5b48e01b996cadc001622fb5e363b421b90100000000000000000000000000000000000000000000000000000000000000000000000000000000000000000000000000000000000000000000000000000000000000000000000000000000000000000000000000000000000000000000000000000000000000000000000000000000000000000000000000000000000000000000000000000000000000000000000000000000000000000000000000000000000000000000000000000000000000000000000000000000000000000000000000000000000000000000000000000000000000000000000000000000000000000000000000000000000000000000000000000000000000000000000000000000008302000080832fefd8808454c98c8142a00000000000000000000000000000000000000000000000000000000000000000880000000000000000c0c0",
        "blocks" : [
            {
                "chainname" : "default",
                "blocknumber" : "1",
                "uncleHeaders" : [
                ],
                "blockHeader" : {
                    "bloom" : "0x00000000000000000000000000000000000000000000000000000000000000000000000000000000000000000000000000000000000000000000000000000000000000000000000000000000000000000000000000000000000000000000000000000000000000000000000000000000000000000000000000000000000000000000000000000000000000000000000000000000000000000000000000000000000000000000000000000000000000000000000000000000000000000000000000000000000000000000000000000000000000000000000000000000000000000000000000000000000000000000000000000000000000000000000000000000",
                    "coinbase" : "0x8888f1f195afa192cfee860698584c030f4c9db1",
                    "difficulty" : "0x020000",
                    "extraData" : "0x42",
                    "gasLimit" : "0x2ffbd2",
                    "gasUsed" : "0x5208",
                    "hash" : "0x674b3c1365730f8f06c83a7674582f562bbcd9092e84de63a2ddeac1ae7e9339",
                    "mixHash" : "0x0000000000000000000000000000000000000000000000000000000000000000",
                    "nonce" : "0x0000000000000000",
                    "number" : "0x01",
                    "parentHash" : "0x2b253498ad5e63a16978753398bad1fde371a3e513438297b52d65dc98e1db29",
                    "receiptTrie" : "0x056b23fbba480696b65fe5a59b8f2148a1299103c4f57df839233af2cf4ca2d2",
                    "stateRoot" : "0xa906bc55ef9e617131a43378f56f3b07edb8fbab7bcc3da5b0b0da1667361b96",
                    "timestamp" : "0x54c99069",
                    "transactionsTrie" : "0x1539b31ea0fa548996a2f64f4d86cadb9c97f2c9ca7923218fe0d38ea5ba1c75",
                    "uncleHash" : "0x1dcc4de8dec75d7aab85b567b6ccd41ad312451b948a7413f0a142fd40d49347"
                },
                "transactions" : [
                    {
                        "data" : "0x",
                        "gasLimit" : "0x04cb2f",
                        "gasPrice" : "0x01",
                        "nonce" : "0x00",
                        "r" : "0xf95ddcbc36fb927c225810016715b2ebb5478efcdeb241ee8816e590c1e42559",
                        "s" : "0x51012cc60ee68f0d042f6e148550acafb3f306a381e69d003909c30acb15ff56",
                        "to" : "0x095e7baea6a6c7c4c2dfeb977efac326af552d87",
                        "v" : "0x1c",
                        "value" : "0x01"
                    }
                ],
                "rlp" : "0xf90261f901f9a02b253498ad5e63a16978753398bad1fde371a3e513438297b52d65dc98e1db29a01dcc4de8dec75d7aab85b567b6ccd41ad312451b948a7413f0a142fd40d49347948888f1f195afa192cfee860698584c030f4c9db1a0a906bc55ef9e617131a43378f56f3b07edb8fbab7bcc3da5b0b0da1667361b96a01539b31ea0fa548996a2f64f4d86cadb9c97f2c9ca7923218fe0d38ea5ba1c75a0056b23fbba480696b65fe5a59b8f2148a1299103c4f57df839233af2cf4ca2d2b90100000000000000000000000000000000000000000000000000000000000000000000000000000000000000000000000000000000000000000000000000000000000000000000000000000000000000000000000000000000000000000000000000000000000000000000000000000000000000000000000000000000000000000000000000000000000000000000000000000000000000000000000000000000000000000000000000000000000000000000000000000000000000000000000000000000000000000000000000000000000000000000000000000000000000000000000000000000000000000000000000000000000000000000000000000000008302000001832ffbd28252088454c9906942a00000000000000000000000000000000000000000000000000000000000000000880000000000000000f862f86080018304cb2f94095e7baea6a6c7c4c2dfeb977efac326af552d8701801ca0f95ddcbc36fb927c225810016715b2ebb5478efcdeb241ee8816e590c1e42559a051012cc60ee68f0d042f6e148550acafb3f306a381e69d003909c30acb15ff56c0"
            },
            {
                "chainname" : "default",
                "blocknumber" : "2",
                "uncleHeaders" : [
                ],
                "blockHeader" : {
                    "bloom" : "0x00000000000000000000000000000000000000000000000000000000000000000000000000000000000000000000000000000000000000000000000000000000000000000000000000000000000000000000000000000000000000000000000000000000000000000000000000000000000000000000000000000000000000000000000000000000000000000000000000000000000000000000000000000000000000000000000000000000000000000000000000000000000000000000000000000000000000000000000000000000000000000000000000000000000000000000000000000000000000000000000000000000000000000000000000000000",
                    "coinbase" : "0x8888f1f195afa192cfee860698584c030f4c9db1",
                    "difficulty" : "0x020000",
                    "extraData" : "0x42",
                    "gasLimit" : "0x3007cf",
                    "gasUsed" : "0x5208",
                    "hash" : "0xa89c88971b05c7d93952436aa344a209937b445f06a1046950a69546d9db45f7",
                    "mixHash" : "0x0000000000000000000000000000000000000000000000000000000000000000",
                    "nonce" : "0x0000000000000000",
                    "number" : "0x02",
                    "parentHash" : "0x674b3c1365730f8f06c83a7674582f562bbcd9092e84de63a2ddeac1ae7e9339",
                    "receiptTrie" : "0x056b23fbba480696b65fe5a59b8f2148a1299103c4f57df839233af2cf4ca2d2",
                    "stateRoot" : "0xdb8de281cab30cc75708a134c896ee7f5b89d933baf1d8bbfd7d0eceb6813bc1",
                    "timestamp" : "0x54c99451",
                    "transactionsTrie" : "0x1dc43d9a5f5fefc8664903164d46adf3a98248d858a885558916dd8d73f5166c",
                    "uncleHash" : "0x1dcc4de8dec75d7aab85b567b6ccd41ad312451b948a7413f0a142fd40d49347"
                },
                "transactions" : [
                    {
                        "data" : "0x",
                        "gasLimit" : "0x04cb2f",
                        "gasPrice" : "0x01",
                        "nonce" : "0x01",
                        "r" : "0x28fc37782401456825e0faa1a1f8e1e034d8047f29cf44d21d29f55ce0b8159e",
                        "s" : "0x0cac7f7c3e6e141c14e9465a9f1e11705f17f93d637996c9a19f82f69f2aafb8",
                        "to" : "0x095e7baea6a6c7c4c2dfeb977efac326af552d87",
                        "v" : "0x1b",
                        "value" : "0x03"
                    }
                ],
                "rlp" : "0xf90261f901f9a0674b3c1365730f8f06c83a7674582f562bbcd9092e84de63a2ddeac1ae7e9339a01dcc4de8dec75d7aab85b567b6ccd41ad312451b948a7413f0a142fd40d49347948888f1f195afa192cfee860698584c030f4c9db1a0db8de281cab30cc75708a134c896ee7f5b89d933baf1d8bbfd7d0eceb6813bc1a01dc43d9a5f5fefc8664903164d46adf3a98248d858a885558916dd8d73f5166ca0056b23fbba480696b65fe5a59b8f2148a1299103c4f57df839233af2cf4ca2d2b90100000000000000000000000000000000000000000000000000000000000000000000000000000000000000000000000000000000000000000000000000000000000000000000000000000000000000000000000000000000000000000000000000000000000000000000000000000000000000000000000000000000000000000000000000000000000000000000000000000000000000000000000000000000000000000000000000000000000000000000000000000000000000000000000000000000000000000000000000000000000000000000000000000000000000000000000000000000000000000000000000000000000000000000000000000000008302000002833007cf8252088454c9945142a00000000000000000000000000000000000000000000000000000000000000000880000000000000000f862f86001018304cb2f94095e7baea6a6c7c4c2dfeb977efac326af552d8703801ba028fc37782401456825e0faa1a1f8e1e034d8047f29cf44d21d29f55ce0b8159ea00cac7f7c3e6e141c14e9465a9f1e11705f17f93d637996c9a19f82f69f2aafb8c0"
            },
            {
                "chainname" : "default",
                "blocknumber" : "3",
                "uncleHeaders" : [
                ],
                "blockHeader" : {
                    "bloom" : "0x00000000000000000000000000000000000000000000000000000000000000000000000000000000000000000000000000000000000000000000000000000000000000000000000000000000000000000000000000000000000000000000000000000000000000000000000000000000000000000000000000000000000000000000000000000000000000000000000000000000000000000000000000000000000000000000000000000000000000000000000000000000000000000000000000000000000000000000000000000000000000000000000000000000000000000000000000000000000000000000000000000000000000000000000000000000",
                    "coinbase" : "0x8888f1f195afa192cfee860698584c030f4c9db1",
                    "difficulty" : "0x020000",
                    "extraData" : "0x42",
                    "gasLimit" : "0x3013cf",
                    "gasUsed" : "0x5208",
                    "hash" : "0x01c6d3942e392f7335c71ec522a6b545cef42946f725652da6c7c5bdba3d7d04",
                    "mixHash" : "0x0000000000000000000000000000000000000000000000000000000000000000",
                    "nonce" : "0x0000000000000000",
                    "number" : "0x03",
                    "parentHash" : "0xa89c88971b05c7d93952436aa344a209937b445f06a1046950a69546d9db45f7",
                    "receiptTrie" : "0x056b23fbba480696b65fe5a59b8f2148a1299103c4f57df839233af2cf4ca2d2",
                    "stateRoot" : "0x05392fd2041e4fe7fd48a00c4b8cfa410392e35c075d8546abf5b3a891e06d3c",
                    "timestamp" : "0x54c99839",
                    "transactionsTrie" : "0x8978964c37007b0091eb3e3489639ea5a5adbf295b717ab9f0c01895f97f5147",
                    "uncleHash" : "0x1dcc4de8dec75d7aab85b567b6ccd41ad312451b948a7413f0a142fd40d49347"
                },
                "transactions" : [
                    {
                        "data" : "0x",
                        "gasLimit" : "0x04cb2f",
                        "gasPrice" : "0x01",
                        "nonce" : "0x02",
                        "r" : "0x6b1c1f6f2ac96f1d898113dbc02465001044fb7330cf7554d569ffec31c14839",
                        "s" : "0x737e986047bf3d15120f8ed04a414bb827237a6346b52a90745ae0ae6334e4a1",
                        "to" : "0x095e7baea6a6c7c4c2dfeb977efac326af552d87",
                        "v" : "0x1c",
                        "value" : "0x05"
                    }
                ],
                "rlp" : "0xf90261f901f9a0a89c88971b05c7d93952436aa344a209937b445f06a1046950a69546d9db45f7a01dcc4de8dec75d7aab85b567b6ccd41ad312451b948a7413f0a142fd40d49347948888f1f195afa192cfee860698584c030f4c9db1a005392fd2041e4fe7fd48a00c4b8cfa410392e35c075d8546abf5b3a891e06d3ca08978964c37007b0091eb3e3489639ea5a5adbf295b717ab9f0c01895f97f5147a0056b23fbba480696b65fe5a59b8f2148a1299103c4f57df839233af2cf4ca2d2b90100000000000000000000000000000000000000000000000000000000000000000000000000000000000000000000000000000000000000000000000000000000000000000000000000000000000000000000000000000000000000000000000000000000000000000000000000000000000000000000000000000000000000000000000000000000000000000000000000000000000000000000000000000000000000000000000000000000000000000000000000000000000000000000000000000000000000000000000000000000000000000000000000000000000000000000000000000000000000000000000000000000000000000000000000000000008302000003833013cf8252088454c9983942a00000000000000000000000000000000000000000000000000000000000000000880000000000000000f862f86002018304cb2f94095e7baea6a6c7c4c2dfeb977efac326af552d8705801ca06b1c1f6f2ac96f1d898113dbc02465001044fb7330cf7554d569ffec31c14839a0737e986047bf3d15120f8ed04a414bb827237a6346b52a90745ae0ae6334e4a1c0"
            },
            {
                "chainname" : "default",
                "blocknumber" : "3",
                "uncleHeaders" : [
                    {
                        "bloom" : "0x00000000000000000000000000000000000000000000000000000000000000000000000000000000000000000000000000000000000000000000000000000000000000000000000000000000000000000000000000000000000000000000000000000000000000000000000000000000000000000000000000000000000000000000000000000000000000000000000000000000000000000000000000000000000000000000000000000000000000000000000000000000000000000000000000000000000000000000000000000000000000000000000000000000000000000000000000000000000000000000000000000000000000000000000000000000",
                        "coinbase" : "0xb94f5374fce5ed0000000097c15331677e6ebf0b",
                        "difficulty" : "0x020000",
                        "extraData" : "0x42",
                        "gasLimit" : "0x3007cf",
                        "gasUsed" : "0x00",
                        "hash" : "0x59634339cd13493e4f05f304035937be12b0c095b4998c68dbc6aaf361139f1e",
                        "mixHash" : "0x0000000000000000000000000000000000000000000000000000000000000000",
                        "nonce" : "0x0000000000000000",
                        "number" : "0x02",
                        "parentHash" : "0x674b3c1365730f8f06c83a7674582f562bbcd9092e84de63a2ddeac1ae7e9339",
                        "receiptTrie" : "0x56e81f171bcc55a6ff8345e692c0f86e5b48e01b996cadc001622fb5e363b421",
                        "stateRoot" : "0x2efab456abb46dc256c08444e60557f356b7236e06bea235ff787a609c192797",
                        "timestamp" : "0x54c99451",
                        "transactionsTrie" : "0x56e81f171bcc55a6ff8345e692c0f86e5b48e01b996cadc001622fb5e363b421",
                        "uncleHash" : "0x1dcc4de8dec75d7aab85b567b6ccd41ad312451b948a7413f0a142fd40d49347"
                    }
                ],
                "blockHeader" : {
                    "bloom" : "0x00000000000000000000000000000000000000000000000000000000000000000000000000000000000000000000000000000000000000000000000000000000000000000000000000000000000000000000000000000000000000000000000000000000000000000000000000000000000000000000000000000000000000000000000000000000000000000000000000000000000000000000000000000000000000000000000000000000000000000000000000000000000000000000000000000000000000000000000000000000000000000000000000000000000000000000000000000000000000000000000000000000000000000000000000000000",
                    "coinbase" : "0x8888f1f195afa192cfee860698584c030f4c9db1",
                    "difficulty" : "0x020000",
                    "extraData" : "0x42",
                    "gasLimit" : "0x3013cf",
                    "gasUsed" : "0x5208",
                    "hash" : "0x75b9f532916b9e46a34ca7af933aaf9cdc6368121ae5d4ba65a8e3c639c2ca01",
                    "mixHash" : "0x0000000000000000000000000000000000000000000000000000000000000000",
                    "nonce" : "0x0000000000000000",
                    "number" : "0x03",
                    "parentHash" : "0xa89c88971b05c7d93952436aa344a209937b445f06a1046950a69546d9db45f7",
                    "receiptTrie" : "0x056b23fbba480696b65fe5a59b8f2148a1299103c4f57df839233af2cf4ca2d2",
                    "stateRoot" : "0xce418061fe2297fccd050321a29551d25d5af973e741ed7a171209f561d47c52",
                    "timestamp" : "0x54c99839",
                    "transactionsTrie" : "0x582d246aa9271772d565ffde8a2f76929622ccc2e73c1fa9f6fc5d1ce7209fb7",
                    "uncleHash" : "0x1c20b4a220ec7124e44bcd99c5c50078384996c6fd8a98872b84ecb2cf39f03c"
                },
                "transactions" : [
                    {
                        "data" : "0x",
                        "gasLimit" : "0x04cb2f",
                        "gasPrice" : "0x01",
                        "nonce" : "0x02",
                        "r" : "0xb2f92882853ce993eb018d89be06502b909e5374412b252703f291b1e0ddac33",
                        "s" : "0x73cf199dd59fb906fc88f9dfaa0efe1ad58c6bbcf6c98472eddd24b08544134d",
                        "to" : "0x095e7baea6a6c7c4c2dfeb977efac326af552d87",
                        "v" : "0x1b",
                        "value" : "0x07"
                    }
                ],
                "rlp" : "0xf9045df901f9a0a89c88971b05c7d93952436aa344a209937b445f06a1046950a69546d9db45f7a01c20b4a220ec7124e44bcd99c5c50078384996c6fd8a98872b84ecb2cf39f03c948888f1f195afa192cfee860698584c030f4c9db1a0ce418061fe2297fccd050321a29551d25d5af973e741ed7a171209f561d47c52a0582d246aa9271772d565ffde8a2f76929622ccc2e73c1fa9f6fc5d1ce7209fb7a0056b23fbba480696b65fe5a59b8f2148a1299103c4f57df839233af2cf4ca2d2b90100000000000000000000000000000000000000000000000000000000000000000000000000000000000000000000000000000000000000000000000000000000000000000000000000000000000000000000000000000000000000000000000000000000000000000000000000000000000000000000000000000000000000000000000000000000000000000000000000000000000000000000000000000000000000000000000000000000000000000000000000000000000000000000000000000000000000000000000000000000000000000000000000000000000000000000000000000000000000000000000000000000000000000000000000000000008302000003833013cf8252088454c9983942a00000000000000000000000000000000000000000000000000000000000000000880000000000000000f862f86002018304cb2f94095e7baea6a6c7c4c2dfeb977efac326af552d8707801ba0b2f92882853ce993eb018d89be06502b909e5374412b252703f291b1e0ddac33a073cf199dd59fb906fc88f9dfaa0efe1ad58c6bbcf6c98472eddd24b08544134df901faf901f7a0674b3c1365730f8f06c83a7674582f562bbcd9092e84de63a2ddeac1ae7e9339a01dcc4de8dec75d7aab85b567b6ccd41ad312451b948a7413f0a142fd40d4934794b94f5374fce5ed0000000097c15331677e6ebf0ba02efab456abb46dc256c08444e60557f356b7236e06bea235ff787a609c192797a056e81f171bcc55a6ff8345e692c0f86e5b48e01b996cadc001622fb5e363b421a056e81f171bcc55a6ff8345e692c0f86e5b48e01b996cadc001622fb5e363b421b90100000000000000000000000000000000000000000000000000000000000000000000000000000000000000000000000000000000000000000000000000000000000000000000000000000000000000000000000000000000000000000000000000000000000000000000000000000000000000000000000000000000000000000000000000000000000000000000000000000000000000000000000000000000000000000000000000000000000000000000000000000000000000000000000000000000000000000000000000000000000000000000000000000000000000000000000000000000000000000000000000000000000000000000000000000000008302000002833007cf808454c9945142a00000000000000000000000000000000000000000000000000000000000000000880000000000000000"
            },
            {
                "chainname" : "default",
                "blocknumber" : "4",
                "uncleHeaders" : [
                ],
                "blockHeader" : {
                    "bloom" : "0x00000000000000000000000000000000000000000000000000000000000000000000000000000000000000000000000000000000000000000000000000000000000000000000000000000000000000000000000000000000000000000000000000000000000000000000000000000000000000000000000000000000000000000000000000000000000000000000000000000000000000000000000000000000000000000000000000000000000000000000000000000000000000000000000000000000000000000000000000000000000000000000000000000000000000000000000000000000000000000000000000000000000000000000000000000000",
                    "coinbase" : "0x8888f1f195afa192cfee860698584c030f4c9db1",
                    "difficulty" : "0x020000",
                    "extraData" : "0x42",
                    "gasLimit" : "0x301fd2",
                    "gasUsed" : "0x5208",
                    "hash" : "0xc65d97a9b45a74f92b977bb792536d41b6cefdb48493ab6b8b3407474303cad5",
                    "mixHash" : "0x0000000000000000000000000000000000000000000000000000000000000000",
                    "nonce" : "0x0000000000000000",
                    "number" : "0x04",
                    "parentHash" : "0x75b9f532916b9e46a34ca7af933aaf9cdc6368121ae5d4ba65a8e3c639c2ca01",
                    "receiptTrie" : "0x056b23fbba480696b65fe5a59b8f2148a1299103c4f57df839233af2cf4ca2d2",
                    "stateRoot" : "0x0bf19936dc64fb69297f31bee662ce109d0ce76ab5ff83107d6ff7901f438509",
                    "timestamp" : "0x54c99c21",
                    "transactionsTrie" : "0xbd4756c0508618c7df829e5c341f701cfd63fbfeea380fd06b30bf4496a3ce89",
                    "uncleHash" : "0x1dcc4de8dec75d7aab85b567b6ccd41ad312451b948a7413f0a142fd40d49347"
                },
                "transactions" : [
                    {
                        "data" : "0x",
                        "gasLimit" : "0x04cb2f",
                        "gasPrice" : "0x01",
                        "nonce" : "0x03",
                        "r" : "0xd224c5a0e2d5380702198df0c809d0c38c371189b60a87e490329ea66f9ab327",
                        "s" : "0x0509ff147a5b1c375298d17895d0a8d8008d636fe94ec8dd78586f67c71f5606",
                        "to" : "0x095e7baea6a6c7c4c2dfeb977efac326af552d87",
                        "v" : "0x1b",
                        "value" : "0x0b"
                    }
                ],
                "rlp" : "0xf90261f901f9a075b9f532916b9e46a34ca7af933aaf9cdc6368121ae5d4ba65a8e3c639c2ca01a01dcc4de8dec75d7aab85b567b6ccd41ad312451b948a7413f0a142fd40d49347948888f1f195afa192cfee860698584c030f4c9db1a00bf19936dc64fb69297f31bee662ce109d0ce76ab5ff83107d6ff7901f438509a0bd4756c0508618c7df829e5c341f701cfd63fbfeea380fd06b30bf4496a3ce89a0056b23fbba480696b65fe5a59b8f2148a1299103c4f57df839233af2cf4ca2d2b9010000000000000000000000000000000000000000000000000000000000000000000000000000000000000000000000000000000000000000000000000000000000000000000000000000000000000000000000000000000000000000000000000000000000000000000000000000000000000000000000000000000000000000000000000000000000000000000000000000000000000000000000000000000000000000000000000000000000000000000000000000000000000000000000000000000000000000000000000000000000000000000000000000000000000000000000000000000000000000000000000000000000000000000000000000000000830200000483301fd28252088454c99c2142a00000000000000000000000000000000000000000000000000000000000000000880000000000000000f862f86003018304cb2f94095e7baea6a6c7c4c2dfeb977efac326af552d870b801ba0d224c5a0e2d5380702198df0c809d0c38c371189b60a87e490329ea66f9ab327a00509ff147a5b1c375298d17895d0a8d8008d636fe94ec8dd78586f67c71f5606c0"
            }
        ],
        "postState" : {
            "0xb94f5374fce5ed0000000097c15331677e6ebf0b" : {
                "code" : "0x",
                "nonce" : "0x00",
                "balance" : "0x18493fba64ef0000",
                "storage" : {
                }
            },
            "0xa94f5374fce5edbc8e2a8697c15331677e6ebf0b" : {
                "code" : "0x",
                "nonce" : "0x04",
                "balance" : "0x09184e7157ca",
                "storage" : {
                }
            },
            "0x095e7baea6a6c7c4c2dfeb977efac326af552d87" : {
                "code" : "0x",
                "nonce" : "0x00",
                "balance" : "0x16",
                "storage" : {
                }
            },
            "0x8888f1f195afa192cfee860698584c030f4c9db1" : {
                "code" : "0x",
                "nonce" : "0x00",
                "balance" : "0x6fe3c10875978820",
                "storage" : {
                }
            }
        },
        "lastblockhash" : "0xc65d97a9b45a74f92b977bb792536d41b6cefdb48493ab6b8b3407474303cad5"
    }
}