{
    "uncleBlockAtBlock3AfterBlock3_Istanbul" : {
        "_info" : {
            "comment" : "",
            "filledwith" : "testeth 1.8.0-alpha.0-12+commit.b120a12c.dirty",
            "lllcversion" : "Version: 0.5.12-develop.2019.9.13+commit.2d601a4f.Linux.g++",
            "source" : "src/BlockchainTestsFiller/ValidBlocks/bcTotalDifficultyTest/uncleBlockAtBlock3AfterBlock3Filler.json",
            "sourceHash" : "bec9adc09fedb4a92a90f11442d6b16de3dd68b95f72e3c07e2041a778d117a6"
        },
        "blocks" : [
            {
                "blockHeader" : {
                    "bloom" : "0x00000000000000000000000000000000000000000000000000000000000000000000000000000000000000000000000000000000000000000000000000000000000000000000000000000000000000000000000000000000000000000000000000000000000000000000000000000000000000000000000000000000000000000000000000000000000000000000000000000000000000000000000000000000000000000000000000000000000000000000000000000000000000000000000000000000000000000000000000000000000000000000000000000000000000000000000000000000000000000000000000000000000000000000000000000000",
                    "coinbase" : "0x8888f1f195afa192cfee860698584c030f4c9db1",
                    "difficulty" : "0x020000",
                    "extraData" : "",
                    "gasLimit" : "0x2fefba",
                    "gasUsed" : "0x5208",
                    "hash" : "0x58975ada856361e20e90643d3c3b4a8de1b6e5034df1d406ca8e2ac0fe9db275",
                    "mixHash" : "0xa5dff37e2c3b272c5c746a05a055cc584fbae9721f8eef6d33684c3c599f3ed1",
                    "nonce" : "0x18720c1466aad845",
                    "number" : "0x01",
                    "parentHash" : "0x5a39ed1020c04d4d84539975b893a4e7c53eab6c2965db8bc3468093a31bc5ae",
                    "receiptTrie" : "0x056b23fbba480696b65fe5a59b8f2148a1299103c4f57df839233af2cf4ca2d2",
                    "stateRoot" : "0xa906bc55ef9e617131a43378f56f3b07edb8fbab7bcc3da5b0b0da1667361b96",
                    "timestamp" : "0x5db7328d",
                    "transactionsTrie" : "0x1539b31ea0fa548996a2f64f4d86cadb9c97f2c9ca7923218fe0d38ea5ba1c75",
                    "uncleHash" : "0x1dcc4de8dec75d7aab85b567b6ccd41ad312451b948a7413f0a142fd40d49347"
                },
                "blocknumber" : "1",
                "rlp" : "0xf90261f901f9a05a39ed1020c04d4d84539975b893a4e7c53eab6c2965db8bc3468093a31bc5aea01dcc4de8dec75d7aab85b567b6ccd41ad312451b948a7413f0a142fd40d49347948888f1f195afa192cfee860698584c030f4c9db1a0a906bc55ef9e617131a43378f56f3b07edb8fbab7bcc3da5b0b0da1667361b96a01539b31ea0fa548996a2f64f4d86cadb9c97f2c9ca7923218fe0d38ea5ba1c75a0056b23fbba480696b65fe5a59b8f2148a1299103c4f57df839233af2cf4ca2d2b90100000000000000000000000000000000000000000000000000000000000000000000000000000000000000000000000000000000000000000000000000000000000000000000000000000000000000000000000000000000000000000000000000000000000000000000000000000000000000000000000000000000000000000000000000000000000000000000000000000000000000000000000000000000000000000000000000000000000000000000000000000000000000000000000000000000000000000000000000000000000000000000000000000000000000000000000000000000000000000000000000000000000000000000000000000000008302000001832fefba825208845db7328d80a0a5dff37e2c3b272c5c746a05a055cc584fbae9721f8eef6d33684c3c599f3ed18818720c1466aad845f862f86080018304cb2f94095e7baea6a6c7c4c2dfeb977efac326af552d8701801ca0f95ddcbc36fb927c225810016715b2ebb5478efcdeb241ee8816e590c1e42559a051012cc60ee68f0d042f6e148550acafb3f306a381e69d003909c30acb15ff56c0",
                "transactions" : [
                    {
                        "data" : "0x",
                        "gasLimit" : "0x04cb2f",
                        "gasPrice" : "0x01",
                        "nonce" : "0x00",
                        "r" : "0xf95ddcbc36fb927c225810016715b2ebb5478efcdeb241ee8816e590c1e42559",
                        "s" : "0x51012cc60ee68f0d042f6e148550acafb3f306a381e69d003909c30acb15ff56",
                        "to" : "0x095e7baea6a6c7c4c2dfeb977efac326af552d87",
                        "v" : "0x1c",
                        "value" : "0x01"
                    }
                ],
                "uncleHeaders" : [
                ]
            },
            {
                "blockHeader" : {
                    "bloom" : "0x00000000000000000000000000000000000000000000000000000000000000000000000000000000000000000000000000000000000000000000000000000000000000000000000000000000000000000000000000000000000000000000000000000000000000000000000000000000000000000000000000000000000000000000000000000000000000000000000000000000000000000000000000000000000000000000000000000000000000000000000000000000000000000000000000000000000000000000000000000000000000000000000000000000000000000000000000000000000000000000000000000000000000000000000000000000",
                    "coinbase" : "0x8888f1f195afa192cfee860698584c030f4c9db1",
                    "difficulty" : "0x020040",
                    "extraData" : "",
                    "gasLimit" : "0x2fefba",
                    "gasUsed" : "0x5208",
                    "hash" : "0x8f51f59b9425c1c8b07d9c09b9eab6cf14a3d93e0bf998566a9b14c431289ec0",
                    "mixHash" : "0x0352e023585a3bfff8f1f71c710f5d17df0a520d8b2e45cdad4543e2f94bf741",
                    "nonce" : "0x0003487c1c185e73",
                    "number" : "0x02",
                    "parentHash" : "0x58975ada856361e20e90643d3c3b4a8de1b6e5034df1d406ca8e2ac0fe9db275",
                    "receiptTrie" : "0x056b23fbba480696b65fe5a59b8f2148a1299103c4f57df839233af2cf4ca2d2",
                    "stateRoot" : "0xdb8de281cab30cc75708a134c896ee7f5b89d933baf1d8bbfd7d0eceb6813bc1",
                    "timestamp" : "0x5db7328e",
                    "transactionsTrie" : "0x1dc43d9a5f5fefc8664903164d46adf3a98248d858a885558916dd8d73f5166c",
                    "uncleHash" : "0x1dcc4de8dec75d7aab85b567b6ccd41ad312451b948a7413f0a142fd40d49347"
                },
                "blocknumber" : "2",
                "rlp" : "0xf90261f901f9a058975ada856361e20e90643d3c3b4a8de1b6e5034df1d406ca8e2ac0fe9db275a01dcc4de8dec75d7aab85b567b6ccd41ad312451b948a7413f0a142fd40d49347948888f1f195afa192cfee860698584c030f4c9db1a0db8de281cab30cc75708a134c896ee7f5b89d933baf1d8bbfd7d0eceb6813bc1a01dc43d9a5f5fefc8664903164d46adf3a98248d858a885558916dd8d73f5166ca0056b23fbba480696b65fe5a59b8f2148a1299103c4f57df839233af2cf4ca2d2b90100000000000000000000000000000000000000000000000000000000000000000000000000000000000000000000000000000000000000000000000000000000000000000000000000000000000000000000000000000000000000000000000000000000000000000000000000000000000000000000000000000000000000000000000000000000000000000000000000000000000000000000000000000000000000000000000000000000000000000000000000000000000000000000000000000000000000000000000000000000000000000000000000000000000000000000000000000000000000000000000000000000000000000000000000000000008302004002832fefba825208845db7328e80a00352e023585a3bfff8f1f71c710f5d17df0a520d8b2e45cdad4543e2f94bf741880003487c1c185e73f862f86001018304cb2f94095e7baea6a6c7c4c2dfeb977efac326af552d8703801ba028fc37782401456825e0faa1a1f8e1e034d8047f29cf44d21d29f55ce0b8159ea00cac7f7c3e6e141c14e9465a9f1e11705f17f93d637996c9a19f82f69f2aafb8c0",
                "transactions" : [
                    {
                        "data" : "0x",
                        "gasLimit" : "0x04cb2f",
                        "gasPrice" : "0x01",
                        "nonce" : "0x01",
                        "r" : "0x28fc37782401456825e0faa1a1f8e1e034d8047f29cf44d21d29f55ce0b8159e",
                        "s" : "0x0cac7f7c3e6e141c14e9465a9f1e11705f17f93d637996c9a19f82f69f2aafb8",
                        "to" : "0x095e7baea6a6c7c4c2dfeb977efac326af552d87",
                        "v" : "0x1b",
                        "value" : "0x03"
                    }
                ],
                "uncleHeaders" : [
                ]
            },
            {
                "blockHeader" : {
                    "bloom" : "0x00000000000000000000000000000000000000000000000000000000000000000000000000000000000000000000000000000000000000000000000000000000000000000000000000000000000000000000000000000000000000000000000000000000000000000000000000000000000000000000000000000000000000000000000000000000000000000000000000000000000000000000000000000000000000000000000000000000000000000000000000000000000000000000000000000000000000000000000000000000000000000000000000000000000000000000000000000000000000000000000000000000000000000000000000000000",
                    "coinbase" : "0x8888f1f195afa192cfee860698584c030f4c9db1",
                    "difficulty" : "0x020080",
                    "extraData" : "",
                    "gasLimit" : "0x2fefba",
                    "gasUsed" : "0x5208",
                    "hash" : "0x73a43390cdb24a059580eab76d5ea12e76f9cb2a24a1df9e22bef673e687e28e",
                    "mixHash" : "0xca74d9595936dbfd58567f2d638d7f40375ea90baa80395c0948c85a4253b0aa",
                    "nonce" : "0x8129d9789e9b5ab0",
                    "number" : "0x03",
                    "parentHash" : "0x8f51f59b9425c1c8b07d9c09b9eab6cf14a3d93e0bf998566a9b14c431289ec0",
                    "receiptTrie" : "0x056b23fbba480696b65fe5a59b8f2148a1299103c4f57df839233af2cf4ca2d2",
                    "stateRoot" : "0x05392fd2041e4fe7fd48a00c4b8cfa410392e35c075d8546abf5b3a891e06d3c",
                    "timestamp" : "0x5db7328f",
                    "transactionsTrie" : "0x8978964c37007b0091eb3e3489639ea5a5adbf295b717ab9f0c01895f97f5147",
                    "uncleHash" : "0x1dcc4de8dec75d7aab85b567b6ccd41ad312451b948a7413f0a142fd40d49347"
                },
                "blocknumber" : "3",
                "rlp" : "0xf90261f901f9a08f51f59b9425c1c8b07d9c09b9eab6cf14a3d93e0bf998566a9b14c431289ec0a01dcc4de8dec75d7aab85b567b6ccd41ad312451b948a7413f0a142fd40d49347948888f1f195afa192cfee860698584c030f4c9db1a005392fd2041e4fe7fd48a00c4b8cfa410392e35c075d8546abf5b3a891e06d3ca08978964c37007b0091eb3e3489639ea5a5adbf295b717ab9f0c01895f97f5147a0056b23fbba480696b65fe5a59b8f2148a1299103c4f57df839233af2cf4ca2d2b90100000000000000000000000000000000000000000000000000000000000000000000000000000000000000000000000000000000000000000000000000000000000000000000000000000000000000000000000000000000000000000000000000000000000000000000000000000000000000000000000000000000000000000000000000000000000000000000000000000000000000000000000000000000000000000000000000000000000000000000000000000000000000000000000000000000000000000000000000000000000000000000000000000000000000000000000000000000000000000000000000000000000000000000000000000000008302008003832fefba825208845db7328f80a0ca74d9595936dbfd58567f2d638d7f40375ea90baa80395c0948c85a4253b0aa888129d9789e9b5ab0f862f86002018304cb2f94095e7baea6a6c7c4c2dfeb977efac326af552d8705801ca06b1c1f6f2ac96f1d898113dbc02465001044fb7330cf7554d569ffec31c14839a0737e986047bf3d15120f8ed04a414bb827237a6346b52a90745ae0ae6334e4a1c0",
                "transactions" : [
                    {
                        "data" : "0x",
                        "gasLimit" : "0x04cb2f",
                        "gasPrice" : "0x01",
                        "nonce" : "0x02",
                        "r" : "0x6b1c1f6f2ac96f1d898113dbc02465001044fb7330cf7554d569ffec31c14839",
                        "s" : "0x737e986047bf3d15120f8ed04a414bb827237a6346b52a90745ae0ae6334e4a1",
                        "to" : "0x095e7baea6a6c7c4c2dfeb977efac326af552d87",
                        "v" : "0x1c",
                        "value" : "0x05"
                    }
                ],
                "uncleHeaders" : [
                ]
            },
            {
                "blockHeader" : {
                    "bloom" : "0x00000000000000000000000000000000000000000000000000000000000000000000000000000000000000000000000000000000000000000000000000000000000000000000000000000000000000000000000000000000000000000000000000000000000000000000000000000000000000000000000000000000000000000000000000000000000000000000000000000000000000000000000000000000000000000000000000000000000000000000000000000000000000000000000000000000000000000000000000000000000000000000000000000000000000000000000000000000000000000000000000000000000000000000000000000000",
                    "coinbase" : "0x8888f1f195afa192cfee860698584c030f4c9db1",
                    "difficulty" : "0x020080",
                    "extraData" : "",
                    "gasLimit" : "0x2fefba",
                    "gasUsed" : "0x5208",
                    "hash" : "0xeda65ca40849e9b621fde27d7de607ac897c40e31f8d5e46f95fc38648d07f03",
                    "mixHash" : "0x325613005d5ec5a2ff2777b057640a3321eecb438749e33cc408926205330d3f",
                    "nonce" : "0xe97c1bf5355b42bc",
                    "number" : "0x03",
                    "parentHash" : "0x8f51f59b9425c1c8b07d9c09b9eab6cf14a3d93e0bf998566a9b14c431289ec0",
                    "receiptTrie" : "0x056b23fbba480696b65fe5a59b8f2148a1299103c4f57df839233af2cf4ca2d2",
                    "stateRoot" : "0x7a8d2fc24fbdccfca44efd0531bda5da85e63db5d247afee281b67d03f2959ef",
                    "timestamp" : "0x5db73292",
                    "transactionsTrie" : "0x582d246aa9271772d565ffde8a2f76929622ccc2e73c1fa9f6fc5d1ce7209fb7",
                    "uncleHash" : "0xc4553253585bb05f269d675ccbf62f2de764305ccfa6ed33a0c83d59d6eba265"
                },
                "blocknumber" : "3",
                "rlp" : "0xf9045df901f9a08f51f59b9425c1c8b07d9c09b9eab6cf14a3d93e0bf998566a9b14c431289ec0a0c4553253585bb05f269d675ccbf62f2de764305ccfa6ed33a0c83d59d6eba265948888f1f195afa192cfee860698584c030f4c9db1a07a8d2fc24fbdccfca44efd0531bda5da85e63db5d247afee281b67d03f2959efa0582d246aa9271772d565ffde8a2f76929622ccc2e73c1fa9f6fc5d1ce7209fb7a0056b23fbba480696b65fe5a59b8f2148a1299103c4f57df839233af2cf4ca2d2b90100000000000000000000000000000000000000000000000000000000000000000000000000000000000000000000000000000000000000000000000000000000000000000000000000000000000000000000000000000000000000000000000000000000000000000000000000000000000000000000000000000000000000000000000000000000000000000000000000000000000000000000000000000000000000000000000000000000000000000000000000000000000000000000000000000000000000000000000000000000000000000000000000000000000000000000000000000000000000000000000000000000000000000000000000000000008302008003832fefba825208845db7329280a0325613005d5ec5a2ff2777b057640a3321eecb438749e33cc408926205330d3f88e97c1bf5355b42bcf862f86002018304cb2f94095e7baea6a6c7c4c2dfeb977efac326af552d8707801ba0b2f92882853ce993eb018d89be06502b909e5374412b252703f291b1e0ddac33a073cf199dd59fb906fc88f9dfaa0efe1ad58c6bbcf6c98472eddd24b08544134df901faf901f7a058975ada856361e20e90643d3c3b4a8de1b6e5034df1d406ca8e2ac0fe9db275a01dcc4de8dec75d7aab85b567b6ccd41ad312451b948a7413f0a142fd40d4934794248abac64fa3f419f0da77c9fcca0a55b4adbe7ba0a906bc55ef9e617131a43378f56f3b07edb8fbab7bcc3da5b0b0da1667361b96a056e81f171bcc55a6ff8345e692c0f86e5b48e01b996cadc001622fb5e363b421a056e81f171bcc55a6ff8345e692c0f86e5b48e01b996cadc001622fb5e363b421b90100000000000000000000000000000000000000000000000000000000000000000000000000000000000000000000000000000000000000000000000000000000000000000000000000000000000000000000000000000000000000000000000000000000000000000000000000000000000000000000000000000000000000000000000000000000000000000000000000000000000000000000000000000000000000000000000000000000000000000000000000000000000000000000000000000000000000000000000000000000000000000000000000000000000000000000000000000000000000000000000000000000000000000000000000000000008302004002832fefba80845db7328e80a005c374d34a72528b795c963d231f29e7f08505d11acfb7542715196f2e98f4d98889beb240c8ee043c",
                "transactions" : [
                    {
                        "data" : "0x",
                        "gasLimit" : "0x04cb2f",
                        "gasPrice" : "0x01",
                        "nonce" : "0x02",
                        "r" : "0xb2f92882853ce993eb018d89be06502b909e5374412b252703f291b1e0ddac33",
                        "s" : "0x73cf199dd59fb906fc88f9dfaa0efe1ad58c6bbcf6c98472eddd24b08544134d",
                        "to" : "0x095e7baea6a6c7c4c2dfeb977efac326af552d87",
                        "v" : "0x1b",
                        "value" : "0x07"
                    }
                ],
                "uncleHeaders" : [
                    {
                        "bloom" : "0x00000000000000000000000000000000000000000000000000000000000000000000000000000000000000000000000000000000000000000000000000000000000000000000000000000000000000000000000000000000000000000000000000000000000000000000000000000000000000000000000000000000000000000000000000000000000000000000000000000000000000000000000000000000000000000000000000000000000000000000000000000000000000000000000000000000000000000000000000000000000000000000000000000000000000000000000000000000000000000000000000000000000000000000000000000000",
                        "coinbase" : "0x248abac64fa3f419f0da77c9fcca0a55b4adbe7b",
                        "difficulty" : "0x020040",
                        "extraData" : "",
                        "gasLimit" : "0x2fefba",
                        "gasUsed" : "0x00",
                        "hash" : "0x251adba72c154360767bae5c199c73c5ca3db2b2318fe788d338df5d50f127cc",
                        "mixHash" : "0x05c374d34a72528b795c963d231f29e7f08505d11acfb7542715196f2e98f4d9",
                        "nonce" : "0x89beb240c8ee043c",
                        "number" : "0x02",
                        "parentHash" : "0x58975ada856361e20e90643d3c3b4a8de1b6e5034df1d406ca8e2ac0fe9db275",
                        "receiptTrie" : "0x56e81f171bcc55a6ff8345e692c0f86e5b48e01b996cadc001622fb5e363b421",
                        "stateRoot" : "0xa906bc55ef9e617131a43378f56f3b07edb8fbab7bcc3da5b0b0da1667361b96",
                        "timestamp" : "0x5db7328e",
                        "transactionsTrie" : "0x56e81f171bcc55a6ff8345e692c0f86e5b48e01b996cadc001622fb5e363b421",
                        "uncleHash" : "0x1dcc4de8dec75d7aab85b567b6ccd41ad312451b948a7413f0a142fd40d49347"
                    }
                ]
            },
            {
                "blockHeader" : {
                    "bloom" : "0x00000000000000000000000000000000000000000000000000000000000000000000000000000000000000000000000000000000000000000000000000000000000000000000000000000000000000000000000000000000000000000000000000000000000000000000000000000000000000000000000000000000000000000000000000000000000000000000000000000000000000000000000000000000000000000000000000000000000000000000000000000000000000000000000000000000000000000000000000000000000000000000000000000000000000000000000000000000000000000000000000000000000000000000000000000000",
                    "coinbase" : "0x8888f1f195afa192cfee860698584c030f4c9db1",
                    "difficulty" : "0x020100",
                    "extraData" : "",
                    "gasLimit" : "0x2fefba",
                    "gasUsed" : "0x5208",
                    "hash" : "0x9a18c3a370c82bbf2ac47456124c15fe385334b23669b86c037a1db4bce7ef70",
                    "mixHash" : "0x093defc399b0741c25e2b6e7dba909e904360e91a1fddd02e2feada554e53310",
                    "nonce" : "0xb473fe73774a1523",
                    "number" : "0x04",
                    "parentHash" : "0xeda65ca40849e9b621fde27d7de607ac897c40e31f8d5e46f95fc38648d07f03",
                    "receiptTrie" : "0x056b23fbba480696b65fe5a59b8f2148a1299103c4f57df839233af2cf4ca2d2",
                    "stateRoot" : "0xae67a6b2b926dd2b64c1f428f9d565744c594da1dbaea96380753b4650b03b77",
                    "timestamp" : "0x5db73293",
                    "transactionsTrie" : "0xbd4756c0508618c7df829e5c341f701cfd63fbfeea380fd06b30bf4496a3ce89",
                    "uncleHash" : "0x1dcc4de8dec75d7aab85b567b6ccd41ad312451b948a7413f0a142fd40d49347"
                },
                "blocknumber" : "4",
                "rlp" : "0xf90261f901f9a0eda65ca40849e9b621fde27d7de607ac897c40e31f8d5e46f95fc38648d07f03a01dcc4de8dec75d7aab85b567b6ccd41ad312451b948a7413f0a142fd40d49347948888f1f195afa192cfee860698584c030f4c9db1a0ae67a6b2b926dd2b64c1f428f9d565744c594da1dbaea96380753b4650b03b77a0bd4756c0508618c7df829e5c341f701cfd63fbfeea380fd06b30bf4496a3ce89a0056b23fbba480696b65fe5a59b8f2148a1299103c4f57df839233af2cf4ca2d2b90100000000000000000000000000000000000000000000000000000000000000000000000000000000000000000000000000000000000000000000000000000000000000000000000000000000000000000000000000000000000000000000000000000000000000000000000000000000000000000000000000000000000000000000000000000000000000000000000000000000000000000000000000000000000000000000000000000000000000000000000000000000000000000000000000000000000000000000000000000000000000000000000000000000000000000000000000000000000000000000000000000000000000000000000000000000008302010004832fefba825208845db7329380a0093defc399b0741c25e2b6e7dba909e904360e91a1fddd02e2feada554e5331088b473fe73774a1523f862f86003018304cb2f94095e7baea6a6c7c4c2dfeb977efac326af552d870b801ba0d224c5a0e2d5380702198df0c809d0c38c371189b60a87e490329ea66f9ab327a00509ff147a5b1c375298d17895d0a8d8008d636fe94ec8dd78586f67c71f5606c0",
                "transactions" : [
                    {
                        "data" : "0x",
                        "gasLimit" : "0x04cb2f",
                        "gasPrice" : "0x01",
                        "nonce" : "0x03",
                        "r" : "0xd224c5a0e2d5380702198df0c809d0c38c371189b60a87e490329ea66f9ab327",
                        "s" : "0x0509ff147a5b1c375298d17895d0a8d8008d636fe94ec8dd78586f67c71f5606",
                        "to" : "0x095e7baea6a6c7c4c2dfeb977efac326af552d87",
                        "v" : "0x1b",
                        "value" : "0x0b"
                    }
                ],
                "uncleHeaders" : [
                ]
            }
        ],
        "genesisBlockHeader" : {
            "bloom" : "0x00000000000000000000000000000000000000000000000000000000000000000000000000000000000000000000000000000000000000000000000000000000000000000000000000000000000000000000000000000000000000000000000000000000000000000000000000000000000000000000000000000000000000000000000000000000000000000000000000000000000000000000000000000000000000000000000000000000000000000000000000000000000000000000000000000000000000000000000000000000000000000000000000000000000000000000000000000000000000000000000000000000000000000000000000000000",
            "coinbase" : "0x8888f1f195afa192cfee860698584c030f4c9db1",
            "difficulty" : "0x020000",
            "extraData" : "0x42",
            "gasLimit" : "0x2fefd8",
            "gasUsed" : "0x00",
            "hash" : "0x5a39ed1020c04d4d84539975b893a4e7c53eab6c2965db8bc3468093a31bc5ae",
            "mixHash" : "0x56e81f171bcc55a6ff8345e692c0f86e5b48e01b996cadc001622fb5e363b421",
            "nonce" : "0x0102030405060708",
            "number" : "0x00",
            "parentHash" : "0x0000000000000000000000000000000000000000000000000000000000000000",
            "receiptTrie" : "0x56e81f171bcc55a6ff8345e692c0f86e5b48e01b996cadc001622fb5e363b421",
            "stateRoot" : "0x7dba07d6b448a186e9612e5f737d1c909dce473e53199901a302c00646d523c1",
            "timestamp" : "0x54c98c81",
            "transactionsTrie" : "0x56e81f171bcc55a6ff8345e692c0f86e5b48e01b996cadc001622fb5e363b421",
            "uncleHash" : "0x1dcc4de8dec75d7aab85b567b6ccd41ad312451b948a7413f0a142fd40d49347"
        },
        "genesisRLP" : "0xf901fcf901f7a00000000000000000000000000000000000000000000000000000000000000000a01dcc4de8dec75d7aab85b567b6ccd41ad312451b948a7413f0a142fd40d49347948888f1f195afa192cfee860698584c030f4c9db1a07dba07d6b448a186e9612e5f737d1c909dce473e53199901a302c00646d523c1a056e81f171bcc55a6ff8345e692c0f86e5b48e01b996cadc001622fb5e363b421a056e81f171bcc55a6ff8345e692c0f86e5b48e01b996cadc001622fb5e363b421b90100000000000000000000000000000000000000000000000000000000000000000000000000000000000000000000000000000000000000000000000000000000000000000000000000000000000000000000000000000000000000000000000000000000000000000000000000000000000000000000000000000000000000000000000000000000000000000000000000000000000000000000000000000000000000000000000000000000000000000000000000000000000000000000000000000000000000000000000000000000000000000000000000000000000000000000000000000000000000000000000000000000000000000000000000000000008302000080832fefd8808454c98c8142a056e81f171bcc55a6ff8345e692c0f86e5b48e01b996cadc001622fb5e363b421880102030405060708c0c0",
        "lastblockhash" : "0x9a18c3a370c82bbf2ac47456124c15fe385334b23669b86c037a1db4bce7ef70",
        "network" : "Istanbul",
        "postState" : {
            "0x095e7baea6a6c7c4c2dfeb977efac326af552d87" : {
                "balance" : "0x16",
                "code" : "",
                "nonce" : "0x00",
                "storage" : {
                }
            },
            "0x248abac64fa3f419f0da77c9fcca0a55b4adbe7b" : {
                "balance" : "0x18493fba64ef0000",
                "code" : "",
                "nonce" : "0x00",
                "storage" : {
                }
            },
            "0x8888f1f195afa192cfee860698584c030f4c9db1" : {
                "balance" : "0x6fe3c10875978820",
                "code" : "",
                "nonce" : "0x00",
                "storage" : {
                }
            },
            "0xa94f5374fce5edbc8e2a8697c15331677e6ebf0b" : {
                "balance" : "0x09184e7157ca",
                "code" : "",
                "nonce" : "0x04",
                "storage" : {
                }
            }
        },
        "pre" : {
            "0xa94f5374fce5edbc8e2a8697c15331677e6ebf0b" : {
                "balance" : "0x09184e72a000",
                "code" : "",
                "nonce" : "0x00",
                "storage" : {
                }
            }
        },
        "sealEngine" : "Ethash"
    }
}