{
    "highGasUsage_Istanbul" : {
        "_info" : {
            "comment" : "",
            "filledwith" : "testeth 1.8.0-alpha.0-12+commit.b120a12c.dirty",
            "lllcversion" : "Version: 0.5.12-develop.2019.9.13+commit.2d601a4f.Linux.g++",
            "source" : "src/BlockchainTestsFiller/ValidBlocks/bcGasPricerTest/highGasUsageFiller.json",
            "sourceHash" : "45fa5c3eeffb69e9da7d07e1dfcbcd7afde0fb6406f8ca8befef0bdca6046f3f"
        },
        "blocks" : [
            {
                "blockHeader" : {
                    "bloom" : "0x00000000000000000000000000000000000000000000000000000000000000000000000000000000000000000000000000000000000000000000000000000000000000000000000000000000000000000000000000000000000000000000000000000000000000000000000000000000000000000000000000000000000000000000000000000000000000000000000000000000000000000000000000000000000000000000000000000000000000000000000000000000000000000000000000000000000000000000000000000000000000000000000000000000000000000000000000000000000000000000000000000000000000000000000000000000",
                    "coinbase" : "0x8888f1f195afa192cfee860698584c030f4c9db1",
                    "difficulty" : "0x020000",
                    "extraData" : "",
                    "gasLimit" : "0x01dee69a",
                    "gasUsed" : "0x5268",
                    "hash" : "0x3ea86668df36d14381ec8c9b5d7dac0ca081665a77466e2b2552107cdd8380e2",
                    "mixHash" : "0x0000000000000000000000000000000000000000000000000000000000000000",
                    "nonce" : "0x0000000000000000",
                    "number" : "0x01",
                    "parentHash" : "0x77b486355f28180f65accb3be55e117aafb307e1ea2d05e92691876998752d83",
                    "receiptTrie" : "0xd97e9fa4c540a47a0da01ef860511324c8e5c7d9c69bd7cf31260d895a27df34",
                    "stateRoot" : "0xbf220c854e7d0deecff767409b57f097014b3ff69f628b099560c7fa7f8e77b2",
                    "timestamp" : "0x5db7318c",
                    "transactionsTrie" : "0xbdb25a2e5860522e943625b58a5429571aaf3123038ffff0922fe58753e51b83",
                    "uncleHash" : "0x1dcc4de8dec75d7aab85b567b6ccd41ad312451b948a7413f0a142fd40d49347"
                },
                "rlp" : "0xf9026ef901faa077b486355f28180f65accb3be55e117aafb307e1ea2d05e92691876998752d83a01dcc4de8dec75d7aab85b567b6ccd41ad312451b948a7413f0a142fd40d49347948888f1f195afa192cfee860698584c030f4c9db1a0bf220c854e7d0deecff767409b57f097014b3ff69f628b099560c7fa7f8e77b2a0bdb25a2e5860522e943625b58a5429571aaf3123038ffff0922fe58753e51b83a0d97e9fa4c540a47a0da01ef860511324c8e5c7d9c69bd7cf31260d895a27df34b901000000000000000000000000000000000000000000000000000000000000000000000000000000000000000000000000000000000000000000000000000000000000000000000000000000000000000000000000000000000000000000000000000000000000000000000000000000000000000000000000000000000000000000000000000000000000000000000000000000000000000000000000000000000000000000000000000000000000000000000000000000000000000000000000000000000000000000000000000000000000000000000000000000000000000000000000000000000000000000000000000000000000000000000000000000000083020000018401dee69a825268845db7318c80a00000000000000000000000000000000000000000000000000000000000000000880000000000000000f86ef86c808609184e72a000830cf85094095e7baea6a6c7c4c2dfeb977efac326af552d870a86ffffffffffff1ca019b72b9fb71e156dc46b934987514054bf7c6ba1b3f0030a2645d31d51f92979a01f60971cd6a647c763d70e81fbd3fdc8ad1c9a2b93771397040c2842042ae10dc0",
                "transactions" : [
                    {
                        "data" : "0xffffffffffff",
                        "gasLimit" : "0x0cf850",
                        "gasPrice" : "0x09184e72a000",
                        "nonce" : "0x00",
                        "r" : "0x19b72b9fb71e156dc46b934987514054bf7c6ba1b3f0030a2645d31d51f92979",
                        "s" : "0x1f60971cd6a647c763d70e81fbd3fdc8ad1c9a2b93771397040c2842042ae10d",
                        "to" : "0x095e7baea6a6c7c4c2dfeb977efac326af552d87",
                        "v" : "0x1c",
                        "value" : "0x0a"
                    }
                ],
                "uncleHeaders" : [
                ]
            },
            {
                "blockHeader" : {
                    "bloom" : "0x00000000000000000000000000000000000000000000000000000000000000000000000000000000000000000000000000000000000000000000000000000000000000000000000000000000000000000000000000000000000000000000000000000000000000000000000000000000000000000000000000000000000000000000000000000000000000000000000000000000000000000000000000000000000000000000000000000000000000000000000000000000000000000000000000000000000000000000000000000000000000000000000000000000000000000000000000000000000000000000000000000000000000000000000000000000",
                    "coinbase" : "0x8888f1f195afa192cfee860698584c030f4c9db1",
                    "difficulty" : "0x020040",
                    "extraData" : "",
                    "gasLimit" : "0x01de6ee2",
                    "gasUsed" : "0x5268",
                    "hash" : "0x507fe958f1639f5aede10ed88d1b9f945b2786cf7a8dcf8dd5f2b28d9b4391b1",
                    "mixHash" : "0x0000000000000000000000000000000000000000000000000000000000000000",
                    "nonce" : "0x0000000000000000",
                    "number" : "0x02",
                    "parentHash" : "0x3ea86668df36d14381ec8c9b5d7dac0ca081665a77466e2b2552107cdd8380e2",
                    "receiptTrie" : "0xd97e9fa4c540a47a0da01ef860511324c8e5c7d9c69bd7cf31260d895a27df34",
                    "stateRoot" : "0xe0595c7979eb4458436caa4ab3627c94fef351e113f26ab7bba429be869086ae",
                    "timestamp" : "0x5db7318d",
                    "transactionsTrie" : "0x17db9a3dd5b472429bd1b90821461a18b829a3b9c2a9fca3ad191f0b661cc407",
                    "uncleHash" : "0x1dcc4de8dec75d7aab85b567b6ccd41ad312451b948a7413f0a142fd40d49347"
                },
                "rlp" : "0xf9026ef901faa03ea86668df36d14381ec8c9b5d7dac0ca081665a77466e2b2552107cdd8380e2a01dcc4de8dec75d7aab85b567b6ccd41ad312451b948a7413f0a142fd40d49347948888f1f195afa192cfee860698584c030f4c9db1a0e0595c7979eb4458436caa4ab3627c94fef351e113f26ab7bba429be869086aea017db9a3dd5b472429bd1b90821461a18b829a3b9c2a9fca3ad191f0b661cc407a0d97e9fa4c540a47a0da01ef860511324c8e5c7d9c69bd7cf31260d895a27df34b901000000000000000000000000000000000000000000000000000000000000000000000000000000000000000000000000000000000000000000000000000000000000000000000000000000000000000000000000000000000000000000000000000000000000000000000000000000000000000000000000000000000000000000000000000000000000000000000000000000000000000000000000000000000000000000000000000000000000000000000000000000000000000000000000000000000000000000000000000000000000000000000000000000000000000000000000000000000000000000000000000000000000000000000000000000000083020040028401de6ee2825268845db7318d80a00000000000000000000000000000000000000000000000000000000000000000880000000000000000f86ef86c01860ae9f7bcc000830cf85094095e7baea6a6c7c4c2dfeb977efac326af552d870a86ffffffffffff1ca0b4ab3eb88ca16e29f56e151a20ea5ee639ae06675f09fb6c6e16c4bc1e959626a002489e2fd69bffcb8da9fef04e8392fc0d54cae04d2b0d7b97eaa1a2da10c4b3c0",
                "transactions" : [
                    {
                        "data" : "0xffffffffffff",
                        "gasLimit" : "0x0cf850",
                        "gasPrice" : "0x0ae9f7bcc000",
                        "nonce" : "0x01",
                        "r" : "0xb4ab3eb88ca16e29f56e151a20ea5ee639ae06675f09fb6c6e16c4bc1e959626",
                        "s" : "0x02489e2fd69bffcb8da9fef04e8392fc0d54cae04d2b0d7b97eaa1a2da10c4b3",
                        "to" : "0x095e7baea6a6c7c4c2dfeb977efac326af552d87",
                        "v" : "0x1c",
                        "value" : "0x0a"
                    }
                ],
                "uncleHeaders" : [
                ]
            },
            {
                "blockHeader" : {
                    "bloom" : "0x00000000000000000000000000000000000000000000000000000000000000000000000000000000000000000000000000000000000000000000000000000000000000000000000000000000000000000000000000000000000000000000000000000000000000000000000000000000000000000000000000000000000000000000000000000000000000000000000000000000000000000000000000000000000000000000000000000000000000000000000000000000000000000000000000000000000000000000000000000000000000000000000000000000000000000000000000000000000000000000000000000000000000000000000000000000",
                    "coinbase" : "0x8888f1f195afa192cfee860698584c030f4c9db1",
                    "difficulty" : "0x020080",
                    "extraData" : "",
                    "gasLimit" : "0x01ddf748",
                    "gasUsed" : "0x5268",
                    "hash" : "0xced03950f44bfd76ecb7938c5efd32bdba64dd6ad1785425f4b114a4516f23b4",
                    "mixHash" : "0x0000000000000000000000000000000000000000000000000000000000000000",
                    "nonce" : "0x0000000000000000",
                    "number" : "0x03",
                    "parentHash" : "0x507fe958f1639f5aede10ed88d1b9f945b2786cf7a8dcf8dd5f2b28d9b4391b1",
                    "receiptTrie" : "0xd97e9fa4c540a47a0da01ef860511324c8e5c7d9c69bd7cf31260d895a27df34",
                    "stateRoot" : "0xb63f2eab4e88cbbbeb353c37c733bd9131173a28c52c3866d9abb16f5b57e4d5",
                    "timestamp" : "0x5db7318e",
                    "transactionsTrie" : "0xd57c128083300688fb576176b64642c73923b044aac86cfd7a1ebbe06c05eb96",
                    "uncleHash" : "0x1dcc4de8dec75d7aab85b567b6ccd41ad312451b948a7413f0a142fd40d49347"
                },
                "rlp" : "0xf9026df901faa0507fe958f1639f5aede10ed88d1b9f945b2786cf7a8dcf8dd5f2b28d9b4391b1a01dcc4de8dec75d7aab85b567b6ccd41ad312451b948a7413f0a142fd40d49347948888f1f195afa192cfee860698584c030f4c9db1a0b63f2eab4e88cbbbeb353c37c733bd9131173a28c52c3866d9abb16f5b57e4d5a0d57c128083300688fb576176b64642c73923b044aac86cfd7a1ebbe06c05eb96a0d97e9fa4c540a47a0da01ef860511324c8e5c7d9c69bd7cf31260d895a27df34b901000000000000000000000000000000000000000000000000000000000000000000000000000000000000000000000000000000000000000000000000000000000000000000000000000000000000000000000000000000000000000000000000000000000000000000000000000000000000000000000000000000000000000000000000000000000000000000000000000000000000000000000000000000000000000000000000000000000000000000000000000000000000000000000000000000000000000000000000000000000000000000000000000000000000000000000000000000000000000000000000000000000000000000000000000000000083020080038401ddf748825268845db7318e80a00000000000000000000000000000000000000000000000000000000000000000880000000000000000f86df86b02860cbba106e000830cf85094095e7baea6a6c7c4c2dfeb977efac326af552d870a86ffffffffffff1ca0a3a2bcd3060ce8c9dc7581366dd6b8aed226741ff0bd3cdbdbaaf91aef5e9bd89f4812314cce53dc10fcc9176b981858bc806b5fcb42a72fd5675027750ff925c0",
                "transactions" : [
                    {
                        "data" : "0xffffffffffff",
                        "gasLimit" : "0x0cf850",
                        "gasPrice" : "0x0cbba106e000",
                        "nonce" : "0x02",
                        "r" : "0xa3a2bcd3060ce8c9dc7581366dd6b8aed226741ff0bd3cdbdbaaf91aef5e9bd8",
                        "s" : "0x4812314cce53dc10fcc9176b981858bc806b5fcb42a72fd5675027750ff925",
                        "to" : "0x095e7baea6a6c7c4c2dfeb977efac326af552d87",
                        "v" : "0x1c",
                        "value" : "0x0a"
                    }
                ],
                "uncleHeaders" : [
                ]
            },
            {
                "blockHeader" : {
                    "bloom" : "0x00000000000000000000000000000000000000000000000000000000000000000000000000000000000000000000000000000000000000000000000000000000000000000000000000000000000000000000000000000000000000000000000000000000000000000000000000000000000000000000000000000000000000000000000000000000000000000000000000000000000000000000000000000000000000000000000000000000000000000000000000000000000000000000000000000000000000000000000000000000000000000000000000000000000000000000000000000000000000000000000000000000000000000000000000000000",
                    "coinbase" : "0x8888f1f195afa192cfee860698584c030f4c9db1",
                    "difficulty" : "0x0200c0",
                    "extraData" : "",
                    "gasLimit" : "0x01dd7fcc",
                    "gasUsed" : "0x5268",
                    "hash" : "0x57586643780b541781d0f35c1ccc457b12f40b2926163a3310c3ed6cfea5cf60",
                    "mixHash" : "0x0000000000000000000000000000000000000000000000000000000000000000",
                    "nonce" : "0x0000000000000000",
                    "number" : "0x04",
                    "parentHash" : "0xced03950f44bfd76ecb7938c5efd32bdba64dd6ad1785425f4b114a4516f23b4",
                    "receiptTrie" : "0xd97e9fa4c540a47a0da01ef860511324c8e5c7d9c69bd7cf31260d895a27df34",
                    "stateRoot" : "0x47b0fbd3af02bd24b4002db709ea199c651513052672e6f99a00646a66683574",
                    "timestamp" : "0x5db7318f",
                    "transactionsTrie" : "0xd78763945db011d5419eec1a4ec20ae122a9e1360b5ba7bd255ae495d73be17f",
                    "uncleHash" : "0x1dcc4de8dec75d7aab85b567b6ccd41ad312451b948a7413f0a142fd40d49347"
                },
                "rlp" : "0xf9026ef901faa0ced03950f44bfd76ecb7938c5efd32bdba64dd6ad1785425f4b114a4516f23b4a01dcc4de8dec75d7aab85b567b6ccd41ad312451b948a7413f0a142fd40d49347948888f1f195afa192cfee860698584c030f4c9db1a047b0fbd3af02bd24b4002db709ea199c651513052672e6f99a00646a66683574a0d78763945db011d5419eec1a4ec20ae122a9e1360b5ba7bd255ae495d73be17fa0d97e9fa4c540a47a0da01ef860511324c8e5c7d9c69bd7cf31260d895a27df34b9010000000000000000000000000000000000000000000000000000000000000000000000000000000000000000000000000000000000000000000000000000000000000000000000000000000000000000000000000000000000000000000000000000000000000000000000000000000000000000000000000000000000000000000000000000000000000000000000000000000000000000000000000000000000000000000000000000000000000000000000000000000000000000000000000000000000000000000000000000000000000000000000000000000000000000000000000000000000000000000000000000000000000000000000000000000000830200c0048401dd7fcc825268845db7318f80a00000000000000000000000000000000000000000000000000000000000000000880000000000000000f86ef86c03860e8d4a510000830cf85094095e7baea6a6c7c4c2dfeb977efac326af552d870a86ffffffffffff1ca0f9cc20ee2874dce3b534d35149f43b4a0f3356d833d9d445fa8c161a6b622e6ba06543b736231a6d85107c7e6083e9067a0d00aaad744816646e16115445f908cac0",
                "transactions" : [
                    {
                        "data" : "0xffffffffffff",
                        "gasLimit" : "0x0cf850",
                        "gasPrice" : "0x0e8d4a510000",
                        "nonce" : "0x03",
                        "r" : "0xf9cc20ee2874dce3b534d35149f43b4a0f3356d833d9d445fa8c161a6b622e6b",
                        "s" : "0x6543b736231a6d85107c7e6083e9067a0d00aaad744816646e16115445f908ca",
                        "to" : "0x095e7baea6a6c7c4c2dfeb977efac326af552d87",
                        "v" : "0x1c",
                        "value" : "0x0a"
                    }
                ],
                "uncleHeaders" : [
                ]
            },
            {
                "blockHeader" : {
                    "bloom" : "0x00000000000000000000000000000000000000000000000000000000000000000000000000000000000000000000000000000000000000000000000000000000000000000000000000000000000000000000000000000000000000000000000000000000000000000000000000000000000000000000000000000000000000000000000000000000000000000000000000000000000000000000000000000000000000000000000000000000000000000000000000000000000000000000000000000000000000000000000000000000000000000000000000000000000000000000000000000000000000000000000000000000000000000000000000000000",
                    "coinbase" : "0x8888f1f195afa192cfee860698584c030f4c9db1",
                    "difficulty" : "0x020100",
                    "extraData" : "",
                    "gasLimit" : "0x01dd086e",
                    "gasUsed" : "0x5268",
                    "hash" : "0x24bda5d184caabbcf0822e6aa11d5c7849c1d6d5aa79b94334ac064b9814f3b4",
                    "mixHash" : "0x0000000000000000000000000000000000000000000000000000000000000000",
                    "nonce" : "0x0000000000000000",
                    "number" : "0x05",
                    "parentHash" : "0x57586643780b541781d0f35c1ccc457b12f40b2926163a3310c3ed6cfea5cf60",
                    "receiptTrie" : "0xd97e9fa4c540a47a0da01ef860511324c8e5c7d9c69bd7cf31260d895a27df34",
                    "stateRoot" : "0xc47376ccfdb1adbdc898a53d2450238b1a31a1a4e53522f2a6bd8058770483a5",
                    "timestamp" : "0x5db73190",
                    "transactionsTrie" : "0x066a7ed4bb74feca3008a9dcfda7ad4291fe4124dd335ada65989ab27a776af9",
                    "uncleHash" : "0x1dcc4de8dec75d7aab85b567b6ccd41ad312451b948a7413f0a142fd40d49347"
                },
                "rlp" : "0xf9026ef901faa057586643780b541781d0f35c1ccc457b12f40b2926163a3310c3ed6cfea5cf60a01dcc4de8dec75d7aab85b567b6ccd41ad312451b948a7413f0a142fd40d49347948888f1f195afa192cfee860698584c030f4c9db1a0c47376ccfdb1adbdc898a53d2450238b1a31a1a4e53522f2a6bd8058770483a5a0066a7ed4bb74feca3008a9dcfda7ad4291fe4124dd335ada65989ab27a776af9a0d97e9fa4c540a47a0da01ef860511324c8e5c7d9c69bd7cf31260d895a27df34b901000000000000000000000000000000000000000000000000000000000000000000000000000000000000000000000000000000000000000000000000000000000000000000000000000000000000000000000000000000000000000000000000000000000000000000000000000000000000000000000000000000000000000000000000000000000000000000000000000000000000000000000000000000000000000000000000000000000000000000000000000000000000000000000000000000000000000000000000000000000000000000000000000000000000000000000000000000000000000000000000000000000000000000000000000000000083020100058401dd086e825268845db7319080a00000000000000000000000000000000000000000000000000000000000000000880000000000000000f86ef86c0486105ef39b2000830cf85094095e7baea6a6c7c4c2dfeb977efac326af552d870a86ffffffffffff1ca06cda2e6b92c549ee2fb1c1078ad116315093eae7b06d54dd6ad8f3d4d1d246e5a026b9d1b5dfe1480b3b8f1cdccb06714f61631dcac3680f3b45ac9a84928b78a3c0",
                "transactions" : [
                    {
                        "data" : "0xffffffffffff",
                        "gasLimit" : "0x0cf850",
                        "gasPrice" : "0x105ef39b2000",
                        "nonce" : "0x04",
                        "r" : "0x6cda2e6b92c549ee2fb1c1078ad116315093eae7b06d54dd6ad8f3d4d1d246e5",
                        "s" : "0x26b9d1b5dfe1480b3b8f1cdccb06714f61631dcac3680f3b45ac9a84928b78a3",
                        "to" : "0x095e7baea6a6c7c4c2dfeb977efac326af552d87",
                        "v" : "0x1c",
                        "value" : "0x0a"
                    }
                ],
                "uncleHeaders" : [
                ]
            },
            {
                "blockHeader" : {
                    "bloom" : "0x00000000000000000000000000000000000000000000000000000000000000000000000000000000000000000000000000000000000000000000000000000000000000000000000000000000000000000000000000000000000000000000000000000000000000000000000000000000000000000000000000000000000000000000000000000000000000000000000000000000000000000000000000000000000000000000000000000000000000000000000000000000000000000000000000000000000000000000000000000000000000000000000000000000000000000000000000000000000000000000000000000000000000000000000000000000",
                    "coinbase" : "0x8888f1f195afa192cfee860698584c030f4c9db1",
                    "difficulty" : "0x020140",
                    "extraData" : "",
                    "gasLimit" : "0x01dc912d",
                    "gasUsed" : "0x5268",
                    "hash" : "0xa0d31a6cafd474769f8f03fadd8cacfa3a1a65af5f5c359643762fd6506a771d",
                    "mixHash" : "0x0000000000000000000000000000000000000000000000000000000000000000",
                    "nonce" : "0x0000000000000000",
                    "number" : "0x06",
                    "parentHash" : "0x24bda5d184caabbcf0822e6aa11d5c7849c1d6d5aa79b94334ac064b9814f3b4",
                    "receiptTrie" : "0xd97e9fa4c540a47a0da01ef860511324c8e5c7d9c69bd7cf31260d895a27df34",
                    "stateRoot" : "0x665f67b992b3e681a04c74003c809d8a07efa062936e7adcff9af9fc93ae466a",
                    "timestamp" : "0x5db73191",
                    "transactionsTrie" : "0x1f4f6fa6c6d35a4af215a996cfcdcfb8eb3df22f0f6ab2f57ec58d6ad6a4e57d",
                    "uncleHash" : "0x1dcc4de8dec75d7aab85b567b6ccd41ad312451b948a7413f0a142fd40d49347"
                },
                "rlp" : "0xf9026ef901faa024bda5d184caabbcf0822e6aa11d5c7849c1d6d5aa79b94334ac064b9814f3b4a01dcc4de8dec75d7aab85b567b6ccd41ad312451b948a7413f0a142fd40d49347948888f1f195afa192cfee860698584c030f4c9db1a0665f67b992b3e681a04c74003c809d8a07efa062936e7adcff9af9fc93ae466aa01f4f6fa6c6d35a4af215a996cfcdcfb8eb3df22f0f6ab2f57ec58d6ad6a4e57da0d97e9fa4c540a47a0da01ef860511324c8e5c7d9c69bd7cf31260d895a27df34b901000000000000000000000000000000000000000000000000000000000000000000000000000000000000000000000000000000000000000000000000000000000000000000000000000000000000000000000000000000000000000000000000000000000000000000000000000000000000000000000000000000000000000000000000000000000000000000000000000000000000000000000000000000000000000000000000000000000000000000000000000000000000000000000000000000000000000000000000000000000000000000000000000000000000000000000000000000000000000000000000000000000000000000000000000000000083020140068401dc912d825268845db7319180a00000000000000000000000000000000000000000000000000000000000000000880000000000000000f86ef86c058612309ce54000830cf85094095e7baea6a6c7c4c2dfeb977efac326af552d870a86ffffffffffff1ca0d2b6a9d3c6286c1a71d88ef2e3d3889352311a9348ee7c7256c2af3db4b048dca00e3f13618132ebefdf2e207668c6fff0b2b3f2bbe95f2b1528e2d267a24cade2c0",
                "transactions" : [
                    {
                        "data" : "0xffffffffffff",
                        "gasLimit" : "0x0cf850",
                        "gasPrice" : "0x12309ce54000",
                        "nonce" : "0x05",
                        "r" : "0xd2b6a9d3c6286c1a71d88ef2e3d3889352311a9348ee7c7256c2af3db4b048dc",
                        "s" : "0x0e3f13618132ebefdf2e207668c6fff0b2b3f2bbe95f2b1528e2d267a24cade2",
                        "to" : "0x095e7baea6a6c7c4c2dfeb977efac326af552d87",
                        "v" : "0x1c",
                        "value" : "0x0a"
                    }
                ],
                "uncleHeaders" : [
                ]
            },
            {
                "blockHeader" : {
                    "bloom" : "0x00000000000000000000000000000000000000000000000000000000000000000000000000000000000000000000000000000000000000000000000000000000000000000000000000000000000000000000000000000000000000000000000000000000000000000000000000000000000000000000000000000000000000000000000000000000000000000000000000000000000000000000000000000000000000000000000000000000000000000000000000000000000000000000000000000000000000000000000000000000000000000000000000000000000000000000000000000000000000000000000000000000000000000000000000000000",
                    "coinbase" : "0x8888f1f195afa192cfee860698584c030f4c9db1",
                    "difficulty" : "0x020180",
                    "extraData" : "",
                    "gasLimit" : "0x01dc1a0a",
                    "gasUsed" : "0x5268",
                    "hash" : "0xaeadcbe0c7e4105fb257a21437eea938a98ecc9e326c4c177f3eec2d4024807c",
                    "mixHash" : "0x0000000000000000000000000000000000000000000000000000000000000000",
                    "nonce" : "0x0000000000000000",
                    "number" : "0x07",
                    "parentHash" : "0xa0d31a6cafd474769f8f03fadd8cacfa3a1a65af5f5c359643762fd6506a771d",
                    "receiptTrie" : "0xd97e9fa4c540a47a0da01ef860511324c8e5c7d9c69bd7cf31260d895a27df34",
                    "stateRoot" : "0xaf2004f5c92bc31db8ebf166a40360ffc8c694abe3effe3f8b627f7da5a29a2d",
                    "timestamp" : "0x5db73192",
                    "transactionsTrie" : "0x71e64105f752773f43221dd85e44d299d08b229cdbcea166536fb48f72de8b73",
                    "uncleHash" : "0x1dcc4de8dec75d7aab85b567b6ccd41ad312451b948a7413f0a142fd40d49347"
                },
                "rlp" : "0xf9026ef901faa0a0d31a6cafd474769f8f03fadd8cacfa3a1a65af5f5c359643762fd6506a771da01dcc4de8dec75d7aab85b567b6ccd41ad312451b948a7413f0a142fd40d49347948888f1f195afa192cfee860698584c030f4c9db1a0af2004f5c92bc31db8ebf166a40360ffc8c694abe3effe3f8b627f7da5a29a2da071e64105f752773f43221dd85e44d299d08b229cdbcea166536fb48f72de8b73a0d97e9fa4c540a47a0da01ef860511324c8e5c7d9c69bd7cf31260d895a27df34b901000000000000000000000000000000000000000000000000000000000000000000000000000000000000000000000000000000000000000000000000000000000000000000000000000000000000000000000000000000000000000000000000000000000000000000000000000000000000000000000000000000000000000000000000000000000000000000000000000000000000000000000000000000000000000000000000000000000000000000000000000000000000000000000000000000000000000000000000000000000000000000000000000000000000000000000000000000000000000000000000000000000000000000000000000000000083020180078401dc1a0a825268845db7319280a00000000000000000000000000000000000000000000000000000000000000000880000000000000000f86ef86c06861402462f6000830cf85094095e7baea6a6c7c4c2dfeb977efac326af552d870a86ffffffffffff1ca07dbb1abd6964f8167ff9d79b438a83137eda9ee4d8d5e73b6088113249846956a03de1e4e462f720df0f4d7012c0f3be32cb908b309d70642fcf8175f2ca3b0c8fc0",
                "transactions" : [
                    {
                        "data" : "0xffffffffffff",
                        "gasLimit" : "0x0cf850",
                        "gasPrice" : "0x1402462f6000",
                        "nonce" : "0x06",
                        "r" : "0x7dbb1abd6964f8167ff9d79b438a83137eda9ee4d8d5e73b6088113249846956",
                        "s" : "0x3de1e4e462f720df0f4d7012c0f3be32cb908b309d70642fcf8175f2ca3b0c8f",
                        "to" : "0x095e7baea6a6c7c4c2dfeb977efac326af552d87",
                        "v" : "0x1c",
                        "value" : "0x0a"
                    }
                ],
                "uncleHeaders" : [
                ]
            },
            {
                "blockHeader" : {
                    "bloom" : "0x00000000000000000000000000000000000000000000000000000000000000000000000000000000000000000000000000000000000000000000000000000000000000000000000000000000000000000000000000000000000000000000000000000000000000000000000000000000000000000000000000000000000000000000000000000000000000000000000000000000000000000000000000000000000000000000000000000000000000000000000000000000000000000000000000000000000000000000000000000000000000000000000000000000000000000000000000000000000000000000000000000000000000000000000000000000",
                    "coinbase" : "0x8888f1f195afa192cfee860698584c030f4c9db1",
                    "difficulty" : "0x0201c0",
                    "extraData" : "",
                    "gasLimit" : "0x01dba305",
                    "gasUsed" : "0x5268",
                    "hash" : "0x965b26511063e27e581e1ca753863f2f1fd07485919949e10f2b598b702b465f",
                    "mixHash" : "0x0000000000000000000000000000000000000000000000000000000000000000",
                    "nonce" : "0x0000000000000000",
                    "number" : "0x08",
                    "parentHash" : "0xaeadcbe0c7e4105fb257a21437eea938a98ecc9e326c4c177f3eec2d4024807c",
                    "receiptTrie" : "0xd97e9fa4c540a47a0da01ef860511324c8e5c7d9c69bd7cf31260d895a27df34",
                    "stateRoot" : "0xf7825c98f09898948d812ac39efd9deba69e53460469bd0e78acfb09f8b40d71",
                    "timestamp" : "0x5db73193",
                    "transactionsTrie" : "0x5292f0bb53c9ff642471ea0098f045c8871914dc62bc44123f7db66adc83e925",
                    "uncleHash" : "0x1dcc4de8dec75d7aab85b567b6ccd41ad312451b948a7413f0a142fd40d49347"
                },
                "rlp" : "0xf9026ef901faa0aeadcbe0c7e4105fb257a21437eea938a98ecc9e326c4c177f3eec2d4024807ca01dcc4de8dec75d7aab85b567b6ccd41ad312451b948a7413f0a142fd40d49347948888f1f195afa192cfee860698584c030f4c9db1a0f7825c98f09898948d812ac39efd9deba69e53460469bd0e78acfb09f8b40d71a05292f0bb53c9ff642471ea0098f045c8871914dc62bc44123f7db66adc83e925a0d97e9fa4c540a47a0da01ef860511324c8e5c7d9c69bd7cf31260d895a27df34b9010000000000000000000000000000000000000000000000000000000000000000000000000000000000000000000000000000000000000000000000000000000000000000000000000000000000000000000000000000000000000000000000000000000000000000000000000000000000000000000000000000000000000000000000000000000000000000000000000000000000000000000000000000000000000000000000000000000000000000000000000000000000000000000000000000000000000000000000000000000000000000000000000000000000000000000000000000000000000000000000000000000000000000000000000000000000830201c0088401dba305825268845db7319380a00000000000000000000000000000000000000000000000000000000000000000880000000000000000f86ef86c078615d3ef798000830cf85094095e7baea6a6c7c4c2dfeb977efac326af552d870a86ffffffffffff1ba0a4d2b7612da4b7493213decb120ea2826e72adac5e605bc9a889d287df4e6a50a04b08a8ee68b2e984220db524a5e6c5fa93b083bafb728734a5ddad91ee51b41fc0",
                "transactions" : [
                    {
                        "data" : "0xffffffffffff",
                        "gasLimit" : "0x0cf850",
                        "gasPrice" : "0x15d3ef798000",
                        "nonce" : "0x07",
                        "r" : "0xa4d2b7612da4b7493213decb120ea2826e72adac5e605bc9a889d287df4e6a50",
                        "s" : "0x4b08a8ee68b2e984220db524a5e6c5fa93b083bafb728734a5ddad91ee51b41f",
                        "to" : "0x095e7baea6a6c7c4c2dfeb977efac326af552d87",
                        "v" : "0x1b",
                        "value" : "0x0a"
                    }
                ],
                "uncleHeaders" : [
                ]
            },
            {
                "blockHeader" : {
                    "bloom" : "0x00000000000000000000000000000000000000000000000000000000000000000000000000000000000000000000000000000000000000000000000000000000000000000000000000000000000000000000000000000000000000000000000000000000000000000000000000000000000000000000000000000000000000000000000000000000000000000000000000000000000000000000000000000000000000000000000000000000000000000000000000000000000000000000000000000000000000000000000000000000000000000000000000000000000000000000000000000000000000000000000000000000000000000000000000000000",
                    "coinbase" : "0x8888f1f195afa192cfee860698584c030f4c9db1",
                    "difficulty" : "0x020200",
                    "extraData" : "",
                    "gasLimit" : "0x01db2c1e",
                    "gasUsed" : "0x5268",
                    "hash" : "0x5f4309d1862c3a2fe51a4a5757f67a5d38f50836c7535b014d3831f813bbb1a9",
                    "mixHash" : "0x0000000000000000000000000000000000000000000000000000000000000000",
                    "nonce" : "0x0000000000000000",
                    "number" : "0x09",
                    "parentHash" : "0x965b26511063e27e581e1ca753863f2f1fd07485919949e10f2b598b702b465f",
                    "receiptTrie" : "0xd97e9fa4c540a47a0da01ef860511324c8e5c7d9c69bd7cf31260d895a27df34",
                    "stateRoot" : "0xc92047df3585c0cf6704c2596c6e8b3f7a3eeca5921a0e6db1d22fb9feeae01a",
                    "timestamp" : "0x5db73194",
                    "transactionsTrie" : "0x874dabcca653170e57fe4d0241cddcd6f9ef93c07765e1635de159cff6c4e753",
                    "uncleHash" : "0x1dcc4de8dec75d7aab85b567b6ccd41ad312451b948a7413f0a142fd40d49347"
                },
                "rlp" : "0xf9026ef901faa0965b26511063e27e581e1ca753863f2f1fd07485919949e10f2b598b702b465fa01dcc4de8dec75d7aab85b567b6ccd41ad312451b948a7413f0a142fd40d49347948888f1f195afa192cfee860698584c030f4c9db1a0c92047df3585c0cf6704c2596c6e8b3f7a3eeca5921a0e6db1d22fb9feeae01aa0874dabcca653170e57fe4d0241cddcd6f9ef93c07765e1635de159cff6c4e753a0d97e9fa4c540a47a0da01ef860511324c8e5c7d9c69bd7cf31260d895a27df34b901000000000000000000000000000000000000000000000000000000000000000000000000000000000000000000000000000000000000000000000000000000000000000000000000000000000000000000000000000000000000000000000000000000000000000000000000000000000000000000000000000000000000000000000000000000000000000000000000000000000000000000000000000000000000000000000000000000000000000000000000000000000000000000000000000000000000000000000000000000000000000000000000000000000000000000000000000000000000000000000000000000000000000000000000000000000083020200098401db2c1e825268845db7319480a00000000000000000000000000000000000000000000000000000000000000000880000000000000000f86ef86c088617a598c3a000830cf85094095e7baea6a6c7c4c2dfeb977efac326af552d870a86ffffffffffff1ba09d1e6336a3acb8cf03efb4ab7e187a8bcaa125bbbe195997ac6fe2664b1ccce7a027d556535661b74e4453f54e6921117abbf541de92cbe791c463037bec440285c0",
                "transactions" : [
                    {
                        "data" : "0xffffffffffff",
                        "gasLimit" : "0x0cf850",
                        "gasPrice" : "0x17a598c3a000",
                        "nonce" : "0x08",
                        "r" : "0x9d1e6336a3acb8cf03efb4ab7e187a8bcaa125bbbe195997ac6fe2664b1ccce7",
                        "s" : "0x27d556535661b74e4453f54e6921117abbf541de92cbe791c463037bec440285",
                        "to" : "0x095e7baea6a6c7c4c2dfeb977efac326af552d87",
                        "v" : "0x1b",
                        "value" : "0x0a"
                    }
                ],
                "uncleHeaders" : [
                ]
            },
            {
                "blockHeader" : {
                    "bloom" : "0x00000000000000000000000000000000000000000000000000000000000000000000000000000000000000000000000000000000000000000000000000000000000000000000000000000000000000000000000000000000000000000000000000000000000000000000000000000000000000000000000000000000000000000000000000000000000000000000000000000000000000000000000000000000000000000000000000000000000000000000000000000000000000000000000000000000000000000000000000000000000000000000000000000000000000000000000000000000000000000000000000000000000000000000000000000000",
                    "coinbase" : "0x8888f1f195afa192cfee860698584c030f4c9db1",
                    "difficulty" : "0x020240",
                    "extraData" : "",
                    "gasLimit" : "0x01dab554",
                    "gasUsed" : "0x5268",
                    "hash" : "0xdb9c5b3cac6c5b51b5087b55fe2a301ef94749904b8973c6b0e3a7f870fc8cd1",
                    "mixHash" : "0x0000000000000000000000000000000000000000000000000000000000000000",
                    "nonce" : "0x0000000000000000",
                    "number" : "0x0a",
                    "parentHash" : "0x5f4309d1862c3a2fe51a4a5757f67a5d38f50836c7535b014d3831f813bbb1a9",
                    "receiptTrie" : "0xd97e9fa4c540a47a0da01ef860511324c8e5c7d9c69bd7cf31260d895a27df34",
                    "stateRoot" : "0x9e5695e8c0543fcda883de318be67ce1c748e82a94be77239ecda04584343a07",
                    "timestamp" : "0x5db73195",
                    "transactionsTrie" : "0x557fb34c4e06a92e14a8dbf88f43c139ae7cfee4654b01f159509179eb86f17e",
                    "uncleHash" : "0x1dcc4de8dec75d7aab85b567b6ccd41ad312451b948a7413f0a142fd40d49347"
                },
                "rlp" : "0xf9026ef901faa05f4309d1862c3a2fe51a4a5757f67a5d38f50836c7535b014d3831f813bbb1a9a01dcc4de8dec75d7aab85b567b6ccd41ad312451b948a7413f0a142fd40d49347948888f1f195afa192cfee860698584c030f4c9db1a09e5695e8c0543fcda883de318be67ce1c748e82a94be77239ecda04584343a07a0557fb34c4e06a92e14a8dbf88f43c139ae7cfee4654b01f159509179eb86f17ea0d97e9fa4c540a47a0da01ef860511324c8e5c7d9c69bd7cf31260d895a27df34b9010000000000000000000000000000000000000000000000000000000000000000000000000000000000000000000000000000000000000000000000000000000000000000000000000000000000000000000000000000000000000000000000000000000000000000000000000000000000000000000000000000000000000000000000000000000000000000000000000000000000000000000000000000000000000000000000000000000000000000000000000000000000000000000000000000000000000000000000000000000000000000000000000000000000000000000000000000000000000000000000000000000000000000000000000000000000830202400a8401dab554825268845db7319580a00000000000000000000000000000000000000000000000000000000000000000880000000000000000f86ef86c09861977420dc000830cf85094095e7baea6a6c7c4c2dfeb977efac326af552d870a86ffffffffffff1ba03e0d159c71bddaf7507905a0f97fb2c86b773a56460d3c3ae461fdb2593a0d4ea02deec822756dddc958ce784740a503cf4895e632502c6c7966a5c662cf6a3561c0",
                "transactions" : [
                    {
                        "data" : "0xffffffffffff",
                        "gasLimit" : "0x0cf850",
                        "gasPrice" : "0x1977420dc000",
                        "nonce" : "0x09",
                        "r" : "0x3e0d159c71bddaf7507905a0f97fb2c86b773a56460d3c3ae461fdb2593a0d4e",
                        "s" : "0x2deec822756dddc958ce784740a503cf4895e632502c6c7966a5c662cf6a3561",
                        "to" : "0x095e7baea6a6c7c4c2dfeb977efac326af552d87",
                        "v" : "0x1b",
                        "value" : "0x0a"
                    }
                ],
                "uncleHeaders" : [
                ]
            },
            {
                "blockHeader" : {
                    "bloom" : "0x00000000000000000000000000000000000000000000000000000000000000000000000000000000000000000000000000000000000000000000000000000000000000000000000000000000000000000000000000000000000000000000000000000000000000000000000000000000000000000000000000000000000000000000000000000000000000000000000000000000000000000000000000000000000000000000000000000000000000000000000000000000000000000000000000000000000000000000000000000000000000000000000000000000000000000000000000000000000000000000000000000000000000000000000000000000",
                    "coinbase" : "0x8888f1f195afa192cfee860698584c030f4c9db1",
                    "difficulty" : "0x020280",
                    "extraData" : "",
                    "gasLimit" : "0x01da3ea8",
                    "gasUsed" : "0x5268",
                    "hash" : "0x9a987486ea7873dc2fb1bce74c77b9c337e904d797b28e41bbaf8a9ef181f738",
                    "mixHash" : "0x0000000000000000000000000000000000000000000000000000000000000000",
                    "nonce" : "0x0000000000000000",
                    "number" : "0x0b",
                    "parentHash" : "0xdb9c5b3cac6c5b51b5087b55fe2a301ef94749904b8973c6b0e3a7f870fc8cd1",
                    "receiptTrie" : "0xd97e9fa4c540a47a0da01ef860511324c8e5c7d9c69bd7cf31260d895a27df34",
                    "stateRoot" : "0xbb27ebaa73f12612e7b4b161628224812b65d78f91e280f57e90591c2c8edc28",
                    "timestamp" : "0x5db73196",
                    "transactionsTrie" : "0x54541930d62573205e70bcfd40bc51c131e79d9f038a85b84d20203381407e21",
                    "uncleHash" : "0x1dcc4de8dec75d7aab85b567b6ccd41ad312451b948a7413f0a142fd40d49347"
                },
                "rlp" : "0xf9026ef901faa0db9c5b3cac6c5b51b5087b55fe2a301ef94749904b8973c6b0e3a7f870fc8cd1a01dcc4de8dec75d7aab85b567b6ccd41ad312451b948a7413f0a142fd40d49347948888f1f195afa192cfee860698584c030f4c9db1a0bb27ebaa73f12612e7b4b161628224812b65d78f91e280f57e90591c2c8edc28a054541930d62573205e70bcfd40bc51c131e79d9f038a85b84d20203381407e21a0d97e9fa4c540a47a0da01ef860511324c8e5c7d9c69bd7cf31260d895a27df34b9010000000000000000000000000000000000000000000000000000000000000000000000000000000000000000000000000000000000000000000000000000000000000000000000000000000000000000000000000000000000000000000000000000000000000000000000000000000000000000000000000000000000000000000000000000000000000000000000000000000000000000000000000000000000000000000000000000000000000000000000000000000000000000000000000000000000000000000000000000000000000000000000000000000000000000000000000000000000000000000000000000000000000000000000000000000000830202800b8401da3ea8825268845db7319680a00000000000000000000000000000000000000000000000000000000000000000880000000000000000f86ef86c0a861b48eb57e000830cf85094095e7baea6a6c7c4c2dfeb977efac326af552d870a86ffffffffffff1ba0a4ce64813530f35e4c45168988a82aaa5dd4ffec2e1325e8edc99b428dc390a8a0270598015d7aa6d92aacaad70a4c72f9022db2642c77b06cd068e28ba80a5a68c0",
                "transactions" : [
                    {
                        "data" : "0xffffffffffff",
                        "gasLimit" : "0x0cf850",
                        "gasPrice" : "0x1b48eb57e000",
                        "nonce" : "0x0a",
                        "r" : "0xa4ce64813530f35e4c45168988a82aaa5dd4ffec2e1325e8edc99b428dc390a8",
                        "s" : "0x270598015d7aa6d92aacaad70a4c72f9022db2642c77b06cd068e28ba80a5a68",
                        "to" : "0x095e7baea6a6c7c4c2dfeb977efac326af552d87",
                        "v" : "0x1b",
                        "value" : "0x0a"
                    }
                ],
                "uncleHeaders" : [
                ]
            }
        ],
        "genesisBlockHeader" : {
            "bloom" : "0x00000000000000000000000000000000000000000000000000000000000000000000000000000000000000000000000000000000000000000000000000000000000000000000000000000000000000000000000000000000000000000000000000000000000000000000000000000000000000000000000000000000000000000000000000000000000000000000000000000000000000000000000000000000000000000000000000000000000000000000000000000000000000000000000000000000000000000000000000000000000000000000000000000000000000000000000000000000000000000000000000000000000000000000000000000000",
            "coinbase" : "0x8888f1f195afa192cfee860698584c030f4c9db1",
            "difficulty" : "0x020000",
            "extraData" : "0x42",
            "gasLimit" : "0x01df5e70",
            "gasUsed" : "0x00",
            "hash" : "0x77b486355f28180f65accb3be55e117aafb307e1ea2d05e92691876998752d83",
            "mixHash" : "0x56e81f171bcc55a6ff8345e692c0f86e5b48e01b996cadc001622fb5e363b421",
            "nonce" : "0x0102030405060708",
            "number" : "0x00",
            "parentHash" : "0x0000000000000000000000000000000000000000000000000000000000000000",
            "receiptTrie" : "0x56e81f171bcc55a6ff8345e692c0f86e5b48e01b996cadc001622fb5e363b421",
            "stateRoot" : "0x71f7c8fb1ecac2ee69cd5aa02564d358fc641845977fa4e30c65be195167bb45",
            "timestamp" : "0x54c98c81",
            "transactionsTrie" : "0x56e81f171bcc55a6ff8345e692c0f86e5b48e01b996cadc001622fb5e363b421",
            "uncleHash" : "0x1dcc4de8dec75d7aab85b567b6ccd41ad312451b948a7413f0a142fd40d49347"
        },
        "genesisRLP" : "0xf901fdf901f8a00000000000000000000000000000000000000000000000000000000000000000a01dcc4de8dec75d7aab85b567b6ccd41ad312451b948a7413f0a142fd40d49347948888f1f195afa192cfee860698584c030f4c9db1a071f7c8fb1ecac2ee69cd5aa02564d358fc641845977fa4e30c65be195167bb45a056e81f171bcc55a6ff8345e692c0f86e5b48e01b996cadc001622fb5e363b421a056e81f171bcc55a6ff8345e692c0f86e5b48e01b996cadc001622fb5e363b421b901000000000000000000000000000000000000000000000000000000000000000000000000000000000000000000000000000000000000000000000000000000000000000000000000000000000000000000000000000000000000000000000000000000000000000000000000000000000000000000000000000000000000000000000000000000000000000000000000000000000000000000000000000000000000000000000000000000000000000000000000000000000000000000000000000000000000000000000000000000000000000000000000000000000000000000000000000000000000000000000000000000000000000000000000000000000083020000808401df5e70808454c98c8142a056e81f171bcc55a6ff8345e692c0f86e5b48e01b996cadc001622fb5e363b421880102030405060708c0c0",
        "lastblockhash" : "0x9a987486ea7873dc2fb1bce74c77b9c337e904d797b28e41bbaf8a9ef181f738",
        "network" : "Istanbul",
        "postState" : {
            "0x095e7baea6a6c7c4c2dfeb977efac326af552d87" : {
                "balance" : "0x6e",
                "code" : "",
                "nonce" : "0x00",
                "storage" : {
                }
            },
            "0x8888f1f195afa192cfee860698584c030f4c9db1" : {
                "balance" : "0x0171b8457d428e0000",
                "code" : "",
                "nonce" : "0x00",
                "storage" : {
                }
            },
            "0xa94f5374fce5edbc8e2a8697c15331677e6ebf0b" : {
                "balance" : "0x1d14a0215debf0174809ff92",
                "code" : "",
                "nonce" : "0x0b",
                "storage" : {
                }
            },
            "0xaaaf5374fce5edbc8e2a8697c15331677e6ebf0b" : {
                "balance" : "0x02540be400",
                "code" : "0x60003551",
                "nonce" : "0x00",
                "storage" : {
                }
            }
        },
        "pre" : {
            "0xa94f5374fce5edbc8e2a8697c15331677e6ebf0b" : {
                "balance" : "0x1d14a0219e54822428000000",
                "code" : "",
                "nonce" : "0x00",
                "storage" : {
                }
            },
            "0xaaaf5374fce5edbc8e2a8697c15331677e6ebf0b" : {
                "balance" : "0x02540be400",
                "code" : "0x60003551",
                "nonce" : "0x00",
                "storage" : {
                }
            }
        },
        "sealEngine" : "NoProof"
    }
}