{
    "highGasUsage_Istanbul" : {
        "_info" : {
            "comment" : "",
            "filling-rpc-server" : "Geth-1.9.11-unstable-a382d783-20200127",
            "filling-tool-version" : "retesteth-0.0.2+commit.e8723140.Linux.g++",
            "lllcversion" : "Version: 0.5.14-develop.2019.11.27+commit.8f259595.Linux.g++",
            "source" : "src/BlockchainTestsFiller/ValidBlocks/bcGasPricerTest/highGasUsageFiller.json",
            "sourceHash" : "45fa5c3eeffb69e9da7d07e1dfcbcd7afde0fb6406f8ca8befef0bdca6046f3f"
        },
        "sealEngine" : "NoProof",
        "network" : "Istanbul",
        "pre" : {
            "0xa94f5374fce5edbc8e2a8697c15331677e6ebf0b" : {
                "balance" : "0x1d14a0219e54822428000000",
                "code" : "0x",
                "nonce" : "0x00",
                "storage" : {
                }
            },
            "0xaaaf5374fce5edbc8e2a8697c15331677e6ebf0b" : {
                "balance" : "0x02540be400",
                "code" : "0x60003551",
                "nonce" : "0x00",
                "storage" : {
                }
            }
        },
        "genesisBlockHeader" : {
            "bloom" : "0x00000000000000000000000000000000000000000000000000000000000000000000000000000000000000000000000000000000000000000000000000000000000000000000000000000000000000000000000000000000000000000000000000000000000000000000000000000000000000000000000000000000000000000000000000000000000000000000000000000000000000000000000000000000000000000000000000000000000000000000000000000000000000000000000000000000000000000000000000000000000000000000000000000000000000000000000000000000000000000000000000000000000000000000000000000000",
            "coinbase" : "0x8888f1f195afa192cfee860698584c030f4c9db1",
            "difficulty" : "0x020000",
            "extraData" : "0x42",
            "gasLimit" : "0x01df5e70",
            "gasUsed" : "0x00",
            "hash" : "0x458f1c166a359f6747b0bf612f18863fbaac19c20472af3269b1b9ba88142504",
            "mixHash" : "0x0000000000000000000000000000000000000000000000000000000000000000",
            "nonce" : "0x0000000000000000",
            "number" : "0x00",
            "parentHash" : "0x0000000000000000000000000000000000000000000000000000000000000000",
            "receiptTrie" : "0x56e81f171bcc55a6ff8345e692c0f86e5b48e01b996cadc001622fb5e363b421",
            "stateRoot" : "0x71f7c8fb1ecac2ee69cd5aa02564d358fc641845977fa4e30c65be195167bb45",
            "timestamp" : "0x54c98c81",
            "transactionsTrie" : "0x56e81f171bcc55a6ff8345e692c0f86e5b48e01b996cadc001622fb5e363b421",
            "uncleHash" : "0x1dcc4de8dec75d7aab85b567b6ccd41ad312451b948a7413f0a142fd40d49347"
        },
        "genesisRLP" : "0xf901fdf901f8a00000000000000000000000000000000000000000000000000000000000000000a01dcc4de8dec75d7aab85b567b6ccd41ad312451b948a7413f0a142fd40d49347948888f1f195afa192cfee860698584c030f4c9db1a071f7c8fb1ecac2ee69cd5aa02564d358fc641845977fa4e30c65be195167bb45a056e81f171bcc55a6ff8345e692c0f86e5b48e01b996cadc001622fb5e363b421a056e81f171bcc55a6ff8345e692c0f86e5b48e01b996cadc001622fb5e363b421b901000000000000000000000000000000000000000000000000000000000000000000000000000000000000000000000000000000000000000000000000000000000000000000000000000000000000000000000000000000000000000000000000000000000000000000000000000000000000000000000000000000000000000000000000000000000000000000000000000000000000000000000000000000000000000000000000000000000000000000000000000000000000000000000000000000000000000000000000000000000000000000000000000000000000000000000000000000000000000000000000000000000000000000000000000000000083020000808401df5e70808454c98c8142a00000000000000000000000000000000000000000000000000000000000000000880000000000000000c0c0",
        "blocks" : [
            {
                "chainname" : "default",
                "blocknumber" : "1",
                "uncleHeaders" : [
                ],
                "blockHeader" : {
                    "bloom" : "0x00000000000000000000000000000000000000000000000000000000000000000000000000000000000000000000000000000000000000000000000000000000000000000000000000000000000000000000000000000000000000000000000000000000000000000000000000000000000000000000000000000000000000000000000000000000000000000000000000000000000000000000000000000000000000000000000000000000000000000000000000000000000000000000000000000000000000000000000000000000000000000000000000000000000000000000000000000000000000000000000000000000000000000000000000000000",
                    "coinbase" : "0x8888f1f195afa192cfee860698584c030f4c9db1",
                    "difficulty" : "0x020000",
                    "extraData" : "0x42",
                    "gasLimit" : "0x01dfd646",
                    "gasUsed" : "0x5268",
                    "hash" : "0xf7e1a3044e331153513c420a9917c6894cf297f7a478fe8567299d8c6e454379",
                    "mixHash" : "0x0000000000000000000000000000000000000000000000000000000000000000",
                    "nonce" : "0x0000000000000000",
                    "number" : "0x01",
                    "parentHash" : "0x458f1c166a359f6747b0bf612f18863fbaac19c20472af3269b1b9ba88142504",
                    "receiptTrie" : "0xd97e9fa4c540a47a0da01ef860511324c8e5c7d9c69bd7cf31260d895a27df34",
                    "stateRoot" : "0xbf220c854e7d0deecff767409b57f097014b3ff69f628b099560c7fa7f8e77b2",
                    "timestamp" : "0x54c99069",
                    "transactionsTrie" : "0xbdb25a2e5860522e943625b58a5429571aaf3123038ffff0922fe58753e51b83",
                    "uncleHash" : "0x1dcc4de8dec75d7aab85b567b6ccd41ad312451b948a7413f0a142fd40d49347"
                },
                "transactions" : [
                    {
                        "data" : "0xffffffffffff",
                        "gasLimit" : "0x0cf850",
                        "gasPrice" : "0x09184e72a000",
                        "nonce" : "0x00",
                        "r" : "0x19b72b9fb71e156dc46b934987514054bf7c6ba1b3f0030a2645d31d51f92979",
                        "s" : "0x1f60971cd6a647c763d70e81fbd3fdc8ad1c9a2b93771397040c2842042ae10d",
                        "to" : "0x095e7baea6a6c7c4c2dfeb977efac326af552d87",
                        "v" : "0x1c",
                        "value" : "0x0a"
                    }
                ],
                "rlp" : "0xf9026ef901faa0458f1c166a359f6747b0bf612f18863fbaac19c20472af3269b1b9ba88142504a01dcc4de8dec75d7aab85b567b6ccd41ad312451b948a7413f0a142fd40d49347948888f1f195afa192cfee860698584c030f4c9db1a0bf220c854e7d0deecff767409b57f097014b3ff69f628b099560c7fa7f8e77b2a0bdb25a2e5860522e943625b58a5429571aaf3123038ffff0922fe58753e51b83a0d97e9fa4c540a47a0da01ef860511324c8e5c7d9c69bd7cf31260d895a27df34b901000000000000000000000000000000000000000000000000000000000000000000000000000000000000000000000000000000000000000000000000000000000000000000000000000000000000000000000000000000000000000000000000000000000000000000000000000000000000000000000000000000000000000000000000000000000000000000000000000000000000000000000000000000000000000000000000000000000000000000000000000000000000000000000000000000000000000000000000000000000000000000000000000000000000000000000000000000000000000000000000000000000000000000000000000000000083020000018401dfd6468252688454c9906942a00000000000000000000000000000000000000000000000000000000000000000880000000000000000f86ef86c808609184e72a000830cf85094095e7baea6a6c7c4c2dfeb977efac326af552d870a86ffffffffffff1ca019b72b9fb71e156dc46b934987514054bf7c6ba1b3f0030a2645d31d51f92979a01f60971cd6a647c763d70e81fbd3fdc8ad1c9a2b93771397040c2842042ae10dc0"
            },
            {
                "chainname" : "default",
                "blocknumber" : "2",
                "uncleHeaders" : [
                ],
                "blockHeader" : {
                    "bloom" : "0x00000000000000000000000000000000000000000000000000000000000000000000000000000000000000000000000000000000000000000000000000000000000000000000000000000000000000000000000000000000000000000000000000000000000000000000000000000000000000000000000000000000000000000000000000000000000000000000000000000000000000000000000000000000000000000000000000000000000000000000000000000000000000000000000000000000000000000000000000000000000000000000000000000000000000000000000000000000000000000000000000000000000000000000000000000000",
                    "coinbase" : "0x8888f1f195afa192cfee860698584c030f4c9db1",
                    "difficulty" : "0x020000",
                    "extraData" : "0x42",
                    "gasLimit" : "0x01e04e3a",
                    "gasUsed" : "0x5268",
                    "hash" : "0xfefc7e599f13aa7657c3edbbed67598d277193875365c1b393ce2c745721c348",
                    "mixHash" : "0x0000000000000000000000000000000000000000000000000000000000000000",
                    "nonce" : "0x0000000000000000",
                    "number" : "0x02",
                    "parentHash" : "0xf7e1a3044e331153513c420a9917c6894cf297f7a478fe8567299d8c6e454379",
                    "receiptTrie" : "0xd97e9fa4c540a47a0da01ef860511324c8e5c7d9c69bd7cf31260d895a27df34",
                    "stateRoot" : "0xe0595c7979eb4458436caa4ab3627c94fef351e113f26ab7bba429be869086ae",
                    "timestamp" : "0x54c99451",
                    "transactionsTrie" : "0x17db9a3dd5b472429bd1b90821461a18b829a3b9c2a9fca3ad191f0b661cc407",
                    "uncleHash" : "0x1dcc4de8dec75d7aab85b567b6ccd41ad312451b948a7413f0a142fd40d49347"
                },
                "transactions" : [
                    {
                        "data" : "0xffffffffffff",
                        "gasLimit" : "0x0cf850",
                        "gasPrice" : "0x0ae9f7bcc000",
                        "nonce" : "0x01",
                        "r" : "0xb4ab3eb88ca16e29f56e151a20ea5ee639ae06675f09fb6c6e16c4bc1e959626",
                        "s" : "0x02489e2fd69bffcb8da9fef04e8392fc0d54cae04d2b0d7b97eaa1a2da10c4b3",
                        "to" : "0x095e7baea6a6c7c4c2dfeb977efac326af552d87",
                        "v" : "0x1c",
                        "value" : "0x0a"
                    }
                ],
                "rlp" : "0xf9026ef901faa0f7e1a3044e331153513c420a9917c6894cf297f7a478fe8567299d8c6e454379a01dcc4de8dec75d7aab85b567b6ccd41ad312451b948a7413f0a142fd40d49347948888f1f195afa192cfee860698584c030f4c9db1a0e0595c7979eb4458436caa4ab3627c94fef351e113f26ab7bba429be869086aea017db9a3dd5b472429bd1b90821461a18b829a3b9c2a9fca3ad191f0b661cc407a0d97e9fa4c540a47a0da01ef860511324c8e5c7d9c69bd7cf31260d895a27df34b901000000000000000000000000000000000000000000000000000000000000000000000000000000000000000000000000000000000000000000000000000000000000000000000000000000000000000000000000000000000000000000000000000000000000000000000000000000000000000000000000000000000000000000000000000000000000000000000000000000000000000000000000000000000000000000000000000000000000000000000000000000000000000000000000000000000000000000000000000000000000000000000000000000000000000000000000000000000000000000000000000000000000000000000000000000000083020000028401e04e3a8252688454c9945142a00000000000000000000000000000000000000000000000000000000000000000880000000000000000f86ef86c01860ae9f7bcc000830cf85094095e7baea6a6c7c4c2dfeb977efac326af552d870a86ffffffffffff1ca0b4ab3eb88ca16e29f56e151a20ea5ee639ae06675f09fb6c6e16c4bc1e959626a002489e2fd69bffcb8da9fef04e8392fc0d54cae04d2b0d7b97eaa1a2da10c4b3c0"
            },
            {
                "chainname" : "default",
                "blocknumber" : "3",
                "uncleHeaders" : [
                ],
                "blockHeader" : {
                    "bloom" : "0x00000000000000000000000000000000000000000000000000000000000000000000000000000000000000000000000000000000000000000000000000000000000000000000000000000000000000000000000000000000000000000000000000000000000000000000000000000000000000000000000000000000000000000000000000000000000000000000000000000000000000000000000000000000000000000000000000000000000000000000000000000000000000000000000000000000000000000000000000000000000000000000000000000000000000000000000000000000000000000000000000000000000000000000000000000000",
                    "coinbase" : "0x8888f1f195afa192cfee860698584c030f4c9db1",
                    "difficulty" : "0x020000",
                    "extraData" : "0x42",
                    "gasLimit" : "0x01e0c64c",
                    "gasUsed" : "0x5268",
                    "hash" : "0x359c1192292affd843464b36459efe98004389e34516b3408d5b03c49468335b",
                    "mixHash" : "0x0000000000000000000000000000000000000000000000000000000000000000",
                    "nonce" : "0x0000000000000000",
                    "number" : "0x03",
                    "parentHash" : "0xfefc7e599f13aa7657c3edbbed67598d277193875365c1b393ce2c745721c348",
                    "receiptTrie" : "0xd97e9fa4c540a47a0da01ef860511324c8e5c7d9c69bd7cf31260d895a27df34",
                    "stateRoot" : "0xb63f2eab4e88cbbbeb353c37c733bd9131173a28c52c3866d9abb16f5b57e4d5",
                    "timestamp" : "0x54c99839",
                    "transactionsTrie" : "0xd57c128083300688fb576176b64642c73923b044aac86cfd7a1ebbe06c05eb96",
                    "uncleHash" : "0x1dcc4de8dec75d7aab85b567b6ccd41ad312451b948a7413f0a142fd40d49347"
                },
                "transactions" : [
                    {
                        "data" : "0xffffffffffff",
                        "gasLimit" : "0x0cf850",
                        "gasPrice" : "0x0cbba106e000",
                        "nonce" : "0x02",
                        "r" : "0xa3a2bcd3060ce8c9dc7581366dd6b8aed226741ff0bd3cdbdbaaf91aef5e9bd8",
                        "s" : "0x004812314cce53dc10fcc9176b981858bc806b5fcb42a72fd5675027750ff925",
                        "to" : "0x095e7baea6a6c7c4c2dfeb977efac326af552d87",
                        "v" : "0x1c",
                        "value" : "0x0a"
                    }
                ],
                "rlp" : "0xf9026df901faa0fefc7e599f13aa7657c3edbbed67598d277193875365c1b393ce2c745721c348a01dcc4de8dec75d7aab85b567b6ccd41ad312451b948a7413f0a142fd40d49347948888f1f195afa192cfee860698584c030f4c9db1a0b63f2eab4e88cbbbeb353c37c733bd9131173a28c52c3866d9abb16f5b57e4d5a0d57c128083300688fb576176b64642c73923b044aac86cfd7a1ebbe06c05eb96a0d97e9fa4c540a47a0da01ef860511324c8e5c7d9c69bd7cf31260d895a27df34b901000000000000000000000000000000000000000000000000000000000000000000000000000000000000000000000000000000000000000000000000000000000000000000000000000000000000000000000000000000000000000000000000000000000000000000000000000000000000000000000000000000000000000000000000000000000000000000000000000000000000000000000000000000000000000000000000000000000000000000000000000000000000000000000000000000000000000000000000000000000000000000000000000000000000000000000000000000000000000000000000000000000000000000000000000000000083020000038401e0c64c8252688454c9983942a00000000000000000000000000000000000000000000000000000000000000000880000000000000000f86df86b02860cbba106e000830cf85094095e7baea6a6c7c4c2dfeb977efac326af552d870a86ffffffffffff1ca0a3a2bcd3060ce8c9dc7581366dd6b8aed226741ff0bd3cdbdbaaf91aef5e9bd89f4812314cce53dc10fcc9176b981858bc806b5fcb42a72fd5675027750ff925c0"
            },
            {
                "chainname" : "default",
                "blocknumber" : "4",
                "uncleHeaders" : [
                ],
                "blockHeader" : {
                    "bloom" : "0x00000000000000000000000000000000000000000000000000000000000000000000000000000000000000000000000000000000000000000000000000000000000000000000000000000000000000000000000000000000000000000000000000000000000000000000000000000000000000000000000000000000000000000000000000000000000000000000000000000000000000000000000000000000000000000000000000000000000000000000000000000000000000000000000000000000000000000000000000000000000000000000000000000000000000000000000000000000000000000000000000000000000000000000000000000000",
                    "coinbase" : "0x8888f1f195afa192cfee860698584c030f4c9db1",
                    "difficulty" : "0x020000",
                    "extraData" : "0x42",
                    "gasLimit" : "0x01e13e7c",
                    "gasUsed" : "0x5268",
                    "hash" : "0xc6b94ef986958479242580f072d4c2fb152059a95fe62d65ba63b2614bcc55ce",
                    "mixHash" : "0x0000000000000000000000000000000000000000000000000000000000000000",
                    "nonce" : "0x0000000000000000",
                    "number" : "0x04",
                    "parentHash" : "0x359c1192292affd843464b36459efe98004389e34516b3408d5b03c49468335b",
                    "receiptTrie" : "0xd97e9fa4c540a47a0da01ef860511324c8e5c7d9c69bd7cf31260d895a27df34",
                    "stateRoot" : "0x47b0fbd3af02bd24b4002db709ea199c651513052672e6f99a00646a66683574",
                    "timestamp" : "0x54c99c21",
                    "transactionsTrie" : "0xd78763945db011d5419eec1a4ec20ae122a9e1360b5ba7bd255ae495d73be17f",
                    "uncleHash" : "0x1dcc4de8dec75d7aab85b567b6ccd41ad312451b948a7413f0a142fd40d49347"
                },
                "transactions" : [
                    {
                        "data" : "0xffffffffffff",
                        "gasLimit" : "0x0cf850",
                        "gasPrice" : "0x0e8d4a510000",
                        "nonce" : "0x03",
                        "r" : "0xf9cc20ee2874dce3b534d35149f43b4a0f3356d833d9d445fa8c161a6b622e6b",
                        "s" : "0x6543b736231a6d85107c7e6083e9067a0d00aaad744816646e16115445f908ca",
                        "to" : "0x095e7baea6a6c7c4c2dfeb977efac326af552d87",
                        "v" : "0x1c",
                        "value" : "0x0a"
                    }
                ],
                "rlp" : "0xf9026ef901faa0359c1192292affd843464b36459efe98004389e34516b3408d5b03c49468335ba01dcc4de8dec75d7aab85b567b6ccd41ad312451b948a7413f0a142fd40d49347948888f1f195afa192cfee860698584c030f4c9db1a047b0fbd3af02bd24b4002db709ea199c651513052672e6f99a00646a66683574a0d78763945db011d5419eec1a4ec20ae122a9e1360b5ba7bd255ae495d73be17fa0d97e9fa4c540a47a0da01ef860511324c8e5c7d9c69bd7cf31260d895a27df34b901000000000000000000000000000000000000000000000000000000000000000000000000000000000000000000000000000000000000000000000000000000000000000000000000000000000000000000000000000000000000000000000000000000000000000000000000000000000000000000000000000000000000000000000000000000000000000000000000000000000000000000000000000000000000000000000000000000000000000000000000000000000000000000000000000000000000000000000000000000000000000000000000000000000000000000000000000000000000000000000000000000000000000000000000000000000083020000048401e13e7c8252688454c99c2142a00000000000000000000000000000000000000000000000000000000000000000880000000000000000f86ef86c03860e8d4a510000830cf85094095e7baea6a6c7c4c2dfeb977efac326af552d870a86ffffffffffff1ca0f9cc20ee2874dce3b534d35149f43b4a0f3356d833d9d445fa8c161a6b622e6ba06543b736231a6d85107c7e6083e9067a0d00aaad744816646e16115445f908cac0"
            },
            {
                "chainname" : "default",
                "blocknumber" : "5",
                "uncleHeaders" : [
                ],
                "blockHeader" : {
                    "bloom" : "0x00000000000000000000000000000000000000000000000000000000000000000000000000000000000000000000000000000000000000000000000000000000000000000000000000000000000000000000000000000000000000000000000000000000000000000000000000000000000000000000000000000000000000000000000000000000000000000000000000000000000000000000000000000000000000000000000000000000000000000000000000000000000000000000000000000000000000000000000000000000000000000000000000000000000000000000000000000000000000000000000000000000000000000000000000000000",
                    "coinbase" : "0x8888f1f195afa192cfee860698584c030f4c9db1",
                    "difficulty" : "0x020000",
                    "extraData" : "0x42",
                    "gasLimit" : "0x01e1b6ca",
                    "gasUsed" : "0x5268",
                    "hash" : "0xbbdc0607fd31fd9fe4d5995b2c8dd2e593da84dee646a4648d24ca26248a8755",
                    "mixHash" : "0x0000000000000000000000000000000000000000000000000000000000000000",
                    "nonce" : "0x0000000000000000",
                    "number" : "0x05",
                    "parentHash" : "0xc6b94ef986958479242580f072d4c2fb152059a95fe62d65ba63b2614bcc55ce",
                    "receiptTrie" : "0xd97e9fa4c540a47a0da01ef860511324c8e5c7d9c69bd7cf31260d895a27df34",
                    "stateRoot" : "0xc47376ccfdb1adbdc898a53d2450238b1a31a1a4e53522f2a6bd8058770483a5",
                    "timestamp" : "0x54c9a009",
                    "transactionsTrie" : "0x066a7ed4bb74feca3008a9dcfda7ad4291fe4124dd335ada65989ab27a776af9",
                    "uncleHash" : "0x1dcc4de8dec75d7aab85b567b6ccd41ad312451b948a7413f0a142fd40d49347"
                },
                "transactions" : [
                    {
                        "data" : "0xffffffffffff",
                        "gasLimit" : "0x0cf850",
                        "gasPrice" : "0x105ef39b2000",
                        "nonce" : "0x04",
                        "r" : "0x6cda2e6b92c549ee2fb1c1078ad116315093eae7b06d54dd6ad8f3d4d1d246e5",
                        "s" : "0x26b9d1b5dfe1480b3b8f1cdccb06714f61631dcac3680f3b45ac9a84928b78a3",
                        "to" : "0x095e7baea6a6c7c4c2dfeb977efac326af552d87",
                        "v" : "0x1c",
                        "value" : "0x0a"
                    }
                ],
                "rlp" : "0xf9026ef901faa0c6b94ef986958479242580f072d4c2fb152059a95fe62d65ba63b2614bcc55cea01dcc4de8dec75d7aab85b567b6ccd41ad312451b948a7413f0a142fd40d49347948888f1f195afa192cfee860698584c030f4c9db1a0c47376ccfdb1adbdc898a53d2450238b1a31a1a4e53522f2a6bd8058770483a5a0066a7ed4bb74feca3008a9dcfda7ad4291fe4124dd335ada65989ab27a776af9a0d97e9fa4c540a47a0da01ef860511324c8e5c7d9c69bd7cf31260d895a27df34b901000000000000000000000000000000000000000000000000000000000000000000000000000000000000000000000000000000000000000000000000000000000000000000000000000000000000000000000000000000000000000000000000000000000000000000000000000000000000000000000000000000000000000000000000000000000000000000000000000000000000000000000000000000000000000000000000000000000000000000000000000000000000000000000000000000000000000000000000000000000000000000000000000000000000000000000000000000000000000000000000000000000000000000000000000000000083020000058401e1b6ca8252688454c9a00942a00000000000000000000000000000000000000000000000000000000000000000880000000000000000f86ef86c0486105ef39b2000830cf85094095e7baea6a6c7c4c2dfeb977efac326af552d870a86ffffffffffff1ca06cda2e6b92c549ee2fb1c1078ad116315093eae7b06d54dd6ad8f3d4d1d246e5a026b9d1b5dfe1480b3b8f1cdccb06714f61631dcac3680f3b45ac9a84928b78a3c0"
            },
            {
                "chainname" : "default",
                "blocknumber" : "6",
                "uncleHeaders" : [
                ],
                "blockHeader" : {
                    "bloom" : "0x00000000000000000000000000000000000000000000000000000000000000000000000000000000000000000000000000000000000000000000000000000000000000000000000000000000000000000000000000000000000000000000000000000000000000000000000000000000000000000000000000000000000000000000000000000000000000000000000000000000000000000000000000000000000000000000000000000000000000000000000000000000000000000000000000000000000000000000000000000000000000000000000000000000000000000000000000000000000000000000000000000000000000000000000000000000",
                    "coinbase" : "0x8888f1f195afa192cfee860698584c030f4c9db1",
                    "difficulty" : "0x020000",
                    "extraData" : "0x42",
                    "gasLimit" : "0x01e22f36",
                    "gasUsed" : "0x5268",
                    "hash" : "0x44f7bda0474915f2fa0d2c33ec2daff66ba88942538f57be26c5dbc26040049a",
                    "mixHash" : "0x0000000000000000000000000000000000000000000000000000000000000000",
                    "nonce" : "0x0000000000000000",
                    "number" : "0x06",
                    "parentHash" : "0xbbdc0607fd31fd9fe4d5995b2c8dd2e593da84dee646a4648d24ca26248a8755",
                    "receiptTrie" : "0xd97e9fa4c540a47a0da01ef860511324c8e5c7d9c69bd7cf31260d895a27df34",
                    "stateRoot" : "0x665f67b992b3e681a04c74003c809d8a07efa062936e7adcff9af9fc93ae466a",
                    "timestamp" : "0x54c9a3f1",
                    "transactionsTrie" : "0x1f4f6fa6c6d35a4af215a996cfcdcfb8eb3df22f0f6ab2f57ec58d6ad6a4e57d",
                    "uncleHash" : "0x1dcc4de8dec75d7aab85b567b6ccd41ad312451b948a7413f0a142fd40d49347"
                },
                "transactions" : [
                    {
                        "data" : "0xffffffffffff",
                        "gasLimit" : "0x0cf850",
                        "gasPrice" : "0x12309ce54000",
                        "nonce" : "0x05",
                        "r" : "0xd2b6a9d3c6286c1a71d88ef2e3d3889352311a9348ee7c7256c2af3db4b048dc",
                        "s" : "0x0e3f13618132ebefdf2e207668c6fff0b2b3f2bbe95f2b1528e2d267a24cade2",
                        "to" : "0x095e7baea6a6c7c4c2dfeb977efac326af552d87",
                        "v" : "0x1c",
                        "value" : "0x0a"
                    }
                ],
                "rlp" : "0xf9026ef901faa0bbdc0607fd31fd9fe4d5995b2c8dd2e593da84dee646a4648d24ca26248a8755a01dcc4de8dec75d7aab85b567b6ccd41ad312451b948a7413f0a142fd40d49347948888f1f195afa192cfee860698584c030f4c9db1a0665f67b992b3e681a04c74003c809d8a07efa062936e7adcff9af9fc93ae466aa01f4f6fa6c6d35a4af215a996cfcdcfb8eb3df22f0f6ab2f57ec58d6ad6a4e57da0d97e9fa4c540a47a0da01ef860511324c8e5c7d9c69bd7cf31260d895a27df34b901000000000000000000000000000000000000000000000000000000000000000000000000000000000000000000000000000000000000000000000000000000000000000000000000000000000000000000000000000000000000000000000000000000000000000000000000000000000000000000000000000000000000000000000000000000000000000000000000000000000000000000000000000000000000000000000000000000000000000000000000000000000000000000000000000000000000000000000000000000000000000000000000000000000000000000000000000000000000000000000000000000000000000000000000000000000083020000068401e22f368252688454c9a3f142a00000000000000000000000000000000000000000000000000000000000000000880000000000000000f86ef86c058612309ce54000830cf85094095e7baea6a6c7c4c2dfeb977efac326af552d870a86ffffffffffff1ca0d2b6a9d3c6286c1a71d88ef2e3d3889352311a9348ee7c7256c2af3db4b048dca00e3f13618132ebefdf2e207668c6fff0b2b3f2bbe95f2b1528e2d267a24cade2c0"
            },
            {
                "chainname" : "default",
                "blocknumber" : "7",
                "uncleHeaders" : [
                ],
                "blockHeader" : {
                    "bloom" : "0x00000000000000000000000000000000000000000000000000000000000000000000000000000000000000000000000000000000000000000000000000000000000000000000000000000000000000000000000000000000000000000000000000000000000000000000000000000000000000000000000000000000000000000000000000000000000000000000000000000000000000000000000000000000000000000000000000000000000000000000000000000000000000000000000000000000000000000000000000000000000000000000000000000000000000000000000000000000000000000000000000000000000000000000000000000000",
                    "coinbase" : "0x8888f1f195afa192cfee860698584c030f4c9db1",
                    "difficulty" : "0x020000",
                    "extraData" : "0x42",
                    "gasLimit" : "0x01e2a7c0",
                    "gasUsed" : "0x5268",
                    "hash" : "0xfd8cbba21943c8add70ee1839b2d4c165fe36ed22f99385d1a301b9012b2e890",
                    "mixHash" : "0x0000000000000000000000000000000000000000000000000000000000000000",
                    "nonce" : "0x0000000000000000",
                    "number" : "0x07",
                    "parentHash" : "0x44f7bda0474915f2fa0d2c33ec2daff66ba88942538f57be26c5dbc26040049a",
                    "receiptTrie" : "0xd97e9fa4c540a47a0da01ef860511324c8e5c7d9c69bd7cf31260d895a27df34",
                    "stateRoot" : "0xaf2004f5c92bc31db8ebf166a40360ffc8c694abe3effe3f8b627f7da5a29a2d",
                    "timestamp" : "0x54c9a7d9",
                    "transactionsTrie" : "0x71e64105f752773f43221dd85e44d299d08b229cdbcea166536fb48f72de8b73",
                    "uncleHash" : "0x1dcc4de8dec75d7aab85b567b6ccd41ad312451b948a7413f0a142fd40d49347"
                },
                "transactions" : [
                    {
                        "data" : "0xffffffffffff",
                        "gasLimit" : "0x0cf850",
                        "gasPrice" : "0x1402462f6000",
                        "nonce" : "0x06",
                        "r" : "0x7dbb1abd6964f8167ff9d79b438a83137eda9ee4d8d5e73b6088113249846956",
                        "s" : "0x3de1e4e462f720df0f4d7012c0f3be32cb908b309d70642fcf8175f2ca3b0c8f",
                        "to" : "0x095e7baea6a6c7c4c2dfeb977efac326af552d87",
                        "v" : "0x1c",
                        "value" : "0x0a"
                    }
                ],
                "rlp" : "0xf9026ef901faa044f7bda0474915f2fa0d2c33ec2daff66ba88942538f57be26c5dbc26040049aa01dcc4de8dec75d7aab85b567b6ccd41ad312451b948a7413f0a142fd40d49347948888f1f195afa192cfee860698584c030f4c9db1a0af2004f5c92bc31db8ebf166a40360ffc8c694abe3effe3f8b627f7da5a29a2da071e64105f752773f43221dd85e44d299d08b229cdbcea166536fb48f72de8b73a0d97e9fa4c540a47a0da01ef860511324c8e5c7d9c69bd7cf31260d895a27df34b901000000000000000000000000000000000000000000000000000000000000000000000000000000000000000000000000000000000000000000000000000000000000000000000000000000000000000000000000000000000000000000000000000000000000000000000000000000000000000000000000000000000000000000000000000000000000000000000000000000000000000000000000000000000000000000000000000000000000000000000000000000000000000000000000000000000000000000000000000000000000000000000000000000000000000000000000000000000000000000000000000000000000000000000000000000000083020000078401e2a7c08252688454c9a7d942a00000000000000000000000000000000000000000000000000000000000000000880000000000000000f86ef86c06861402462f6000830cf85094095e7baea6a6c7c4c2dfeb977efac326af552d870a86ffffffffffff1ca07dbb1abd6964f8167ff9d79b438a83137eda9ee4d8d5e73b6088113249846956a03de1e4e462f720df0f4d7012c0f3be32cb908b309d70642fcf8175f2ca3b0c8fc0"
            },
            {
                "chainname" : "default",
                "blocknumber" : "8",
                "uncleHeaders" : [
                ],
                "blockHeader" : {
                    "bloom" : "0x00000000000000000000000000000000000000000000000000000000000000000000000000000000000000000000000000000000000000000000000000000000000000000000000000000000000000000000000000000000000000000000000000000000000000000000000000000000000000000000000000000000000000000000000000000000000000000000000000000000000000000000000000000000000000000000000000000000000000000000000000000000000000000000000000000000000000000000000000000000000000000000000000000000000000000000000000000000000000000000000000000000000000000000000000000000",
                    "coinbase" : "0x8888f1f195afa192cfee860698584c030f4c9db1",
                    "difficulty" : "0x020000",
                    "extraData" : "0x42",
                    "gasLimit" : "0x01e32068",
                    "gasUsed" : "0x5268",
                    "hash" : "0x2277609c38bc2fb1aec8c903c89e5aab31aa8960805e35bf6be926d8b14636f2",
                    "mixHash" : "0x0000000000000000000000000000000000000000000000000000000000000000",
                    "nonce" : "0x0000000000000000",
                    "number" : "0x08",
                    "parentHash" : "0xfd8cbba21943c8add70ee1839b2d4c165fe36ed22f99385d1a301b9012b2e890",
                    "receiptTrie" : "0xd97e9fa4c540a47a0da01ef860511324c8e5c7d9c69bd7cf31260d895a27df34",
                    "stateRoot" : "0xf7825c98f09898948d812ac39efd9deba69e53460469bd0e78acfb09f8b40d71",
                    "timestamp" : "0x54c9abc1",
                    "transactionsTrie" : "0x5292f0bb53c9ff642471ea0098f045c8871914dc62bc44123f7db66adc83e925",
                    "uncleHash" : "0x1dcc4de8dec75d7aab85b567b6ccd41ad312451b948a7413f0a142fd40d49347"
                },
                "transactions" : [
                    {
                        "data" : "0xffffffffffff",
                        "gasLimit" : "0x0cf850",
                        "gasPrice" : "0x15d3ef798000",
                        "nonce" : "0x07",
                        "r" : "0xa4d2b7612da4b7493213decb120ea2826e72adac5e605bc9a889d287df4e6a50",
                        "s" : "0x4b08a8ee68b2e984220db524a5e6c5fa93b083bafb728734a5ddad91ee51b41f",
                        "to" : "0x095e7baea6a6c7c4c2dfeb977efac326af552d87",
                        "v" : "0x1b",
                        "value" : "0x0a"
                    }
                ],
                "rlp" : "0xf9026ef901faa0fd8cbba21943c8add70ee1839b2d4c165fe36ed22f99385d1a301b9012b2e890a01dcc4de8dec75d7aab85b567b6ccd41ad312451b948a7413f0a142fd40d49347948888f1f195afa192cfee860698584c030f4c9db1a0f7825c98f09898948d812ac39efd9deba69e53460469bd0e78acfb09f8b40d71a05292f0bb53c9ff642471ea0098f045c8871914dc62bc44123f7db66adc83e925a0d97e9fa4c540a47a0da01ef860511324c8e5c7d9c69bd7cf31260d895a27df34b901000000000000000000000000000000000000000000000000000000000000000000000000000000000000000000000000000000000000000000000000000000000000000000000000000000000000000000000000000000000000000000000000000000000000000000000000000000000000000000000000000000000000000000000000000000000000000000000000000000000000000000000000000000000000000000000000000000000000000000000000000000000000000000000000000000000000000000000000000000000000000000000000000000000000000000000000000000000000000000000000000000000000000000000000000000000083020000088401e320688252688454c9abc142a00000000000000000000000000000000000000000000000000000000000000000880000000000000000f86ef86c078615d3ef798000830cf85094095e7baea6a6c7c4c2dfeb977efac326af552d870a86ffffffffffff1ba0a4d2b7612da4b7493213decb120ea2826e72adac5e605bc9a889d287df4e6a50a04b08a8ee68b2e984220db524a5e6c5fa93b083bafb728734a5ddad91ee51b41fc0"
            },
            {
                "chainname" : "default",
                "blocknumber" : "9",
                "uncleHeaders" : [
                ],
                "blockHeader" : {
                    "bloom" : "0x00000000000000000000000000000000000000000000000000000000000000000000000000000000000000000000000000000000000000000000000000000000000000000000000000000000000000000000000000000000000000000000000000000000000000000000000000000000000000000000000000000000000000000000000000000000000000000000000000000000000000000000000000000000000000000000000000000000000000000000000000000000000000000000000000000000000000000000000000000000000000000000000000000000000000000000000000000000000000000000000000000000000000000000000000000000",
                    "coinbase" : "0x8888f1f195afa192cfee860698584c030f4c9db1",
                    "difficulty" : "0x020000",
                    "extraData" : "0x42",
                    "gasLimit" : "0x01e3992f",
                    "gasUsed" : "0x5268",
                    "hash" : "0x5008857d3982ad21e4cd44e1b4a8442f526afe7fac53f1bda845c803d3a997b6",
                    "mixHash" : "0x0000000000000000000000000000000000000000000000000000000000000000",
                    "nonce" : "0x0000000000000000",
                    "number" : "0x09",
                    "parentHash" : "0x2277609c38bc2fb1aec8c903c89e5aab31aa8960805e35bf6be926d8b14636f2",
                    "receiptTrie" : "0xd97e9fa4c540a47a0da01ef860511324c8e5c7d9c69bd7cf31260d895a27df34",
                    "stateRoot" : "0xc92047df3585c0cf6704c2596c6e8b3f7a3eeca5921a0e6db1d22fb9feeae01a",
                    "timestamp" : "0x54c9afa9",
                    "transactionsTrie" : "0x874dabcca653170e57fe4d0241cddcd6f9ef93c07765e1635de159cff6c4e753",
                    "uncleHash" : "0x1dcc4de8dec75d7aab85b567b6ccd41ad312451b948a7413f0a142fd40d49347"
                },
                "transactions" : [
                    {
                        "data" : "0xffffffffffff",
                        "gasLimit" : "0x0cf850",
                        "gasPrice" : "0x17a598c3a000",
                        "nonce" : "0x08",
                        "r" : "0x9d1e6336a3acb8cf03efb4ab7e187a8bcaa125bbbe195997ac6fe2664b1ccce7",
                        "s" : "0x27d556535661b74e4453f54e6921117abbf541de92cbe791c463037bec440285",
                        "to" : "0x095e7baea6a6c7c4c2dfeb977efac326af552d87",
                        "v" : "0x1b",
                        "value" : "0x0a"
                    }
                ],
                "rlp" : "0xf9026ef901faa02277609c38bc2fb1aec8c903c89e5aab31aa8960805e35bf6be926d8b14636f2a01dcc4de8dec75d7aab85b567b6ccd41ad312451b948a7413f0a142fd40d49347948888f1f195afa192cfee860698584c030f4c9db1a0c92047df3585c0cf6704c2596c6e8b3f7a3eeca5921a0e6db1d22fb9feeae01aa0874dabcca653170e57fe4d0241cddcd6f9ef93c07765e1635de159cff6c4e753a0d97e9fa4c540a47a0da01ef860511324c8e5c7d9c69bd7cf31260d895a27df34b901000000000000000000000000000000000000000000000000000000000000000000000000000000000000000000000000000000000000000000000000000000000000000000000000000000000000000000000000000000000000000000000000000000000000000000000000000000000000000000000000000000000000000000000000000000000000000000000000000000000000000000000000000000000000000000000000000000000000000000000000000000000000000000000000000000000000000000000000000000000000000000000000000000000000000000000000000000000000000000000000000000000000000000000000000000000083020000098401e3992f8252688454c9afa942a00000000000000000000000000000000000000000000000000000000000000000880000000000000000f86ef86c088617a598c3a000830cf85094095e7baea6a6c7c4c2dfeb977efac326af552d870a86ffffffffffff1ba09d1e6336a3acb8cf03efb4ab7e187a8bcaa125bbbe195997ac6fe2664b1ccce7a027d556535661b74e4453f54e6921117abbf541de92cbe791c463037bec440285c0"
            },
            {
                "chainname" : "default",
                "blocknumber" : "10",
                "uncleHeaders" : [
                ],
                "blockHeader" : {
                    "bloom" : "0x00000000000000000000000000000000000000000000000000000000000000000000000000000000000000000000000000000000000000000000000000000000000000000000000000000000000000000000000000000000000000000000000000000000000000000000000000000000000000000000000000000000000000000000000000000000000000000000000000000000000000000000000000000000000000000000000000000000000000000000000000000000000000000000000000000000000000000000000000000000000000000000000000000000000000000000000000000000000000000000000000000000000000000000000000000000",
                    "coinbase" : "0x8888f1f195afa192cfee860698584c030f4c9db1",
                    "difficulty" : "0x020000",
                    "extraData" : "0x42",
                    "gasLimit" : "0x01e41214",
                    "gasUsed" : "0x5268",
                    "hash" : "0x5c9405bc04a4100aae0ebc25601c047d5a07afe0a945615726456ecb590a4906",
                    "mixHash" : "0x0000000000000000000000000000000000000000000000000000000000000000",
                    "nonce" : "0x0000000000000000",
                    "number" : "0x0a",
                    "parentHash" : "0x5008857d3982ad21e4cd44e1b4a8442f526afe7fac53f1bda845c803d3a997b6",
                    "receiptTrie" : "0xd97e9fa4c540a47a0da01ef860511324c8e5c7d9c69bd7cf31260d895a27df34",
                    "stateRoot" : "0x9e5695e8c0543fcda883de318be67ce1c748e82a94be77239ecda04584343a07",
                    "timestamp" : "0x54c9b391",
                    "transactionsTrie" : "0x557fb34c4e06a92e14a8dbf88f43c139ae7cfee4654b01f159509179eb86f17e",
                    "uncleHash" : "0x1dcc4de8dec75d7aab85b567b6ccd41ad312451b948a7413f0a142fd40d49347"
                },
                "transactions" : [
                    {
                        "data" : "0xffffffffffff",
                        "gasLimit" : "0x0cf850",
                        "gasPrice" : "0x1977420dc000",
                        "nonce" : "0x09",
                        "r" : "0x3e0d159c71bddaf7507905a0f97fb2c86b773a56460d3c3ae461fdb2593a0d4e",
                        "s" : "0x2deec822756dddc958ce784740a503cf4895e632502c6c7966a5c662cf6a3561",
                        "to" : "0x095e7baea6a6c7c4c2dfeb977efac326af552d87",
                        "v" : "0x1b",
                        "value" : "0x0a"
                    }
                ],
                "rlp" : "0xf9026ef901faa05008857d3982ad21e4cd44e1b4a8442f526afe7fac53f1bda845c803d3a997b6a01dcc4de8dec75d7aab85b567b6ccd41ad312451b948a7413f0a142fd40d49347948888f1f195afa192cfee860698584c030f4c9db1a09e5695e8c0543fcda883de318be67ce1c748e82a94be77239ecda04584343a07a0557fb34c4e06a92e14a8dbf88f43c139ae7cfee4654b01f159509179eb86f17ea0d97e9fa4c540a47a0da01ef860511324c8e5c7d9c69bd7cf31260d895a27df34b9010000000000000000000000000000000000000000000000000000000000000000000000000000000000000000000000000000000000000000000000000000000000000000000000000000000000000000000000000000000000000000000000000000000000000000000000000000000000000000000000000000000000000000000000000000000000000000000000000000000000000000000000000000000000000000000000000000000000000000000000000000000000000000000000000000000000000000000000000000000000000000000000000000000000000000000000000000000000000000000000000000000000000000000000000000000000830200000a8401e412148252688454c9b39142a00000000000000000000000000000000000000000000000000000000000000000880000000000000000f86ef86c09861977420dc000830cf85094095e7baea6a6c7c4c2dfeb977efac326af552d870a86ffffffffffff1ba03e0d159c71bddaf7507905a0f97fb2c86b773a56460d3c3ae461fdb2593a0d4ea02deec822756dddc958ce784740a503cf4895e632502c6c7966a5c662cf6a3561c0"
            },
            {
                "chainname" : "default",
                "blocknumber" : "11",
                "uncleHeaders" : [
                ],
                "blockHeader" : {
                    "bloom" : "0x00000000000000000000000000000000000000000000000000000000000000000000000000000000000000000000000000000000000000000000000000000000000000000000000000000000000000000000000000000000000000000000000000000000000000000000000000000000000000000000000000000000000000000000000000000000000000000000000000000000000000000000000000000000000000000000000000000000000000000000000000000000000000000000000000000000000000000000000000000000000000000000000000000000000000000000000000000000000000000000000000000000000000000000000000000000",
                    "coinbase" : "0x8888f1f195afa192cfee860698584c030f4c9db1",
                    "difficulty" : "0x020000",
                    "extraData" : "0x42",
                    "gasLimit" : "0x01e48b17",
                    "gasUsed" : "0x5268",
                    "hash" : "0x2851a2835bc6787716f1c939e888276dadcf8c7c06122de8f58eb51256a48df6",
                    "mixHash" : "0x0000000000000000000000000000000000000000000000000000000000000000",
                    "nonce" : "0x0000000000000000",
                    "number" : "0x0b",
                    "parentHash" : "0x5c9405bc04a4100aae0ebc25601c047d5a07afe0a945615726456ecb590a4906",
                    "receiptTrie" : "0xd97e9fa4c540a47a0da01ef860511324c8e5c7d9c69bd7cf31260d895a27df34",
                    "stateRoot" : "0xbb27ebaa73f12612e7b4b161628224812b65d78f91e280f57e90591c2c8edc28",
                    "timestamp" : "0x54c9b779",
                    "transactionsTrie" : "0x54541930d62573205e70bcfd40bc51c131e79d9f038a85b84d20203381407e21",
                    "uncleHash" : "0x1dcc4de8dec75d7aab85b567b6ccd41ad312451b948a7413f0a142fd40d49347"
                },
                "transactions" : [
                    {
                        "data" : "0xffffffffffff",
                        "gasLimit" : "0x0cf850",
                        "gasPrice" : "0x1b48eb57e000",
                        "nonce" : "0x0a",
                        "r" : "0xa4ce64813530f35e4c45168988a82aaa5dd4ffec2e1325e8edc99b428dc390a8",
                        "s" : "0x270598015d7aa6d92aacaad70a4c72f9022db2642c77b06cd068e28ba80a5a68",
                        "to" : "0x095e7baea6a6c7c4c2dfeb977efac326af552d87",
                        "v" : "0x1b",
                        "value" : "0x0a"
                    }
                ],
                "rlp" : "0xf9026ef901faa05c9405bc04a4100aae0ebc25601c047d5a07afe0a945615726456ecb590a4906a01dcc4de8dec75d7aab85b567b6ccd41ad312451b948a7413f0a142fd40d49347948888f1f195afa192cfee860698584c030f4c9db1a0bb27ebaa73f12612e7b4b161628224812b65d78f91e280f57e90591c2c8edc28a054541930d62573205e70bcfd40bc51c131e79d9f038a85b84d20203381407e21a0d97e9fa4c540a47a0da01ef860511324c8e5c7d9c69bd7cf31260d895a27df34b9010000000000000000000000000000000000000000000000000000000000000000000000000000000000000000000000000000000000000000000000000000000000000000000000000000000000000000000000000000000000000000000000000000000000000000000000000000000000000000000000000000000000000000000000000000000000000000000000000000000000000000000000000000000000000000000000000000000000000000000000000000000000000000000000000000000000000000000000000000000000000000000000000000000000000000000000000000000000000000000000000000000000000000000000000000000000830200000b8401e48b178252688454c9b77942a00000000000000000000000000000000000000000000000000000000000000000880000000000000000f86ef86c0a861b48eb57e000830cf85094095e7baea6a6c7c4c2dfeb977efac326af552d870a86ffffffffffff1ba0a4ce64813530f35e4c45168988a82aaa5dd4ffec2e1325e8edc99b428dc390a8a0270598015d7aa6d92aacaad70a4c72f9022db2642c77b06cd068e28ba80a5a68c0"
            }
        ],
        "postState" : {
            "0xa94f5374fce5edbc8e2a8697c15331677e6ebf0b" : {
                "code" : "0x",
                "nonce" : "0x0b",
                "balance" : "0x1d14a0215debf0174809ff92",
                "storage" : {
                }
            },
            "0x095e7baea6a6c7c4c2dfeb977efac326af552d87" : {
                "code" : "0x",
                "nonce" : "0x00",
                "balance" : "0x6e",
                "storage" : {
                }
            },
            "0x8888f1f195afa192cfee860698584c030f4c9db1" : {
                "code" : "0x",
                "nonce" : "0x00",
                "balance" : "0x0171b8457d428e0000",
                "storage" : {
                }
            },
            "0xaaaf5374fce5edbc8e2a8697c15331677e6ebf0b" : {
                "code" : "0x60003551",
                "nonce" : "0x00",
                "balance" : "0x02540be400",
                "storage" : {
                }
            }
        },
        "lastblockhash" : "0x2851a2835bc6787716f1c939e888276dadcf8c7c06122de8f58eb51256a48df6"
    }
}