{
    "identity_to_bigger_d0g0v0_Istanbul" : {
        "_info" : {
            "comment" : "have a call to e.g. identity built-in that specifies output size more than input size. Check that only the short amount is available with RETURNDATA.  CALL is with 100000 as gas, address 4 as destination, 0 as value, 0 as in-offset, 16 as in-size, 16 as out-offset, 32 as out-size.  The returndatasize should see 16.",
            "filling-rpc-server" : "Geth-1.9.6-unstable-63b18027-20190920",
            "filling-tool-version" : "retesteth-0.0.1+commit.0ae18aef.Linux.g++",
            "lllcversion" : "Version: 0.5.12-develop.2019.9.13+commit.2d601a4f.Linux.g++",
            "source" : "src/GeneralStateTestsFiller/stPreCompiledContracts/identity_to_biggerFiller.json",
            "sourceHash" : "f819edb38c330eb581bb4b70bf455245629984c7ade5c835a57aba7c284d99d7"
        },
        "genesisBlockHeader" : {
            "bloom" : "0x00000000000000000000000000000000000000000000000000000000000000000000000000000000000000000000000000000000000000000000000000000000000000000000000000000000000000000000000000000000000000000000000000000000000000000000000000000000000000000000000000000000000000000000000000000000000000000000000000000000000000000000000000000000000000000000000000000000000000000000000000000000000000000000000000000000000000000000000000000000000000000000000000000000000000000000000000000000000000000000000000000000000000000000000000000000",
            "coinbase" : "0x3535353535353535353535353535353535353535",
            "difficulty" : "0x20000",
            "extraData" : "0x00",
            "gasLimit" : "0x5f5e100",
            "gasUsed" : "0x0",
            "hash" : "0xe8cc098163f0dfc8a0ca790140508080dbaf209cf68a627be33818e7858068c3",
            "mixHash" : "0x0000000000000000000000000000000000000000000000000000000000000000",
            "nonce" : "0x0000000000000000",
            "number" : "0x0",
            "parentHash" : "0x0000000000000000000000000000000000000000000000000000000000000000",
            "receiptTrie" : "0x56e81f171bcc55a6ff8345e692c0f86e5b48e01b996cadc001622fb5e363b421",
            "stateRoot" : "0xa4b02d9b4c905694fe34441d119765896e2f89c69740011595171569841170ef",
            "timestamp" : "0x0",
            "transactionsTrie" : "0x56e81f171bcc55a6ff8345e692c0f86e5b48e01b996cadc001622fb5e363b421",
            "uncleHash" : "0x1dcc4de8dec75d7aab85b567b6ccd41ad312451b948a7413f0a142fd40d49347"
        },
        "pre" : {
            "0x82a978b3f5962a5b0957d9ee9eef472ee55b42f1" : {
                "balance" : "0x0de0b6b3a761fe12",
                "code" : "0x",
                "nonce" : "0x01",
                "storage" : {
                }
            },
            "0xc305c901078781c232a2a521c2af7980f8385ee9" : {
                "balance" : "0x00",
                "code" : "0x7f112233445566778899aabbccddeeff00112233445566778899aabbccddeeff00600052602060106010600060006004620186a0f1503d60005500",
                "nonce" : "0x21",
                "storage" : {
                }
            }
        },
        "postState" : {
            "0xc305c901078781c232a2a521c2af7980f8385ee9" : {
                "code" : "0x7f112233445566778899aabbccddeeff00112233445566778899aabbccddeeff00600052602060106010600060006004620186a0f1503d60005500",
                "nonce" : "0x21",
                "balance" : "0x00",
                "storage" : {
                    "0x00" : "0x10"
                }
            },
            "0x82a978b3f5962a5b0957d9ee9eef472ee55b42f1" : {
                "code" : "0x",
                "nonce" : "0x02",
                "balance" : "0x0de0b6b3a7615af1",
                "storage" : {
                }
            },
            "0x3535353535353535353535353535353535353535" : {
                "code" : "0x",
                "nonce" : "0x00",
                "balance" : "0x1bc16d674ec8a321",
                "storage" : {
                }
            }
        },
        "network" : "Istanbul",
        "sealEngine" : "NoProof",
        "lastblockhash" : "0xcb02c0cde481d8ac2a99cf0b57fe4241c4dc16947537860b68b5a207f9b55916",
        "genesisRLP" : "0xf901f9f901f4a00000000000000000000000000000000000000000000000000000000000000000a01dcc4de8dec75d7aab85b567b6ccd41ad312451b948a7413f0a142fd40d49347943535353535353535353535353535353535353535a0a4b02d9b4c905694fe34441d119765896e2f89c69740011595171569841170efa056e81f171bcc55a6ff8345e692c0f86e5b48e01b996cadc001622fb5e363b421a056e81f171bcc55a6ff8345e692c0f86e5b48e01b996cadc001622fb5e363b421b901000000000000000000000000000000000000000000000000000000000000000000000000000000000000000000000000000000000000000000000000000000000000000000000000000000000000000000000000000000000000000000000000000000000000000000000000000000000000000000000000000000000000000000000000000000000000000000000000000000000000000000000000000000000000000000000000000000000000000000000000000000000000000000000000000000000000000000000000000000000000000000000000000000000000000000000000000000000000000000000000000000000000000000000000000000000083020000808405f5e100808000a00000000000000000000000000000000000000000000000000000000000000000880000000000000000c0c0",
        "blocks" : [
            {
                "rlp" : "0xf90260f901f8a0e8cc098163f0dfc8a0ca790140508080dbaf209cf68a627be33818e7858068c3a01dcc4de8dec75d7aab85b567b6ccd41ad312451b948a7413f0a142fd40d49347943535353535353535353535353535353535353535a09390205e796c67a082466d00d4ed31b15c58b6acc8d627628ba9e43675194258a0ec6a57e4973f6e046d48544dbdefff8286397777cc2c8660adcdb38c6b0ddabda032031c46b0217eaf3f840d756c50595dc41651dfac8da63124c7acbd4d1f7522b901000000000000000000000000000000000000000000000000000000000000000000000000000000000000000000000000000000000000000000000000000000000000000000000000000000000000000000000000000000000000000000000000000000000000000000000000000000000000000000000000000000000000000000000000000000000000000000000000000000000000000000000000000000000000000000000000000000000000000000000000000000000000000000000000000000000000000000000000000000000000000000000000000000000000000000000000000000000000000000000000000000000000000000000000000000000083020000018405f75e7782a3218203e800a00000000000000000000000000000000000000000000000000000000000000000880000000000000000f862f860010183030d4094c305c901078781c232a2a521c2af7980f8385ee980801ba05082ac608c80290af68a18d44edf0526a3abc6ea3652ab46f63e8953eb813b57a06b1bc1f0b9eb8de1e19d159c9efb8607c2f24643982b112c98ade3e28af22722c0",
                "blockHeader" : {
                    "bloom" : "0x00000000000000000000000000000000000000000000000000000000000000000000000000000000000000000000000000000000000000000000000000000000000000000000000000000000000000000000000000000000000000000000000000000000000000000000000000000000000000000000000000000000000000000000000000000000000000000000000000000000000000000000000000000000000000000000000000000000000000000000000000000000000000000000000000000000000000000000000000000000000000000000000000000000000000000000000000000000000000000000000000000000000000000000000000000000",
                    "coinbase" : "0x3535353535353535353535353535353535353535",
                    "difficulty" : "0x20000",
                    "extraData" : "0x00",
                    "gasLimit" : "0x5f75e77",
                    "gasUsed" : "0xa321",
                    "hash" : "0xcb02c0cde481d8ac2a99cf0b57fe4241c4dc16947537860b68b5a207f9b55916",
                    "mixHash" : "0x0000000000000000000000000000000000000000000000000000000000000000",
                    "nonce" : "0x0000000000000000",
                    "number" : "0x1",
                    "parentHash" : "0xe8cc098163f0dfc8a0ca790140508080dbaf209cf68a627be33818e7858068c3",
                    "receiptTrie" : "0x32031c46b0217eaf3f840d756c50595dc41651dfac8da63124c7acbd4d1f7522",
                    "stateRoot" : "0x9390205e796c67a082466d00d4ed31b15c58b6acc8d627628ba9e43675194258",
                    "timestamp" : "0x3e8",
                    "transactionsTrie" : "0xec6a57e4973f6e046d48544dbdefff8286397777cc2c8660adcdb38c6b0ddabd",
                    "uncleHash" : "0x1dcc4de8dec75d7aab85b567b6ccd41ad312451b948a7413f0a142fd40d49347"
                },
                "transactions" : [
                    {
                        "data" : "0x",
                        "gasLimit" : "0x030d40",
                        "gasPrice" : "0x01",
                        "nonce" : "0x01",
                        "to" : "0xc305c901078781c232a2a521c2af7980f8385ee9",
                        "value" : "0x",
                        "v" : "0x1b",
                        "r" : "0x5082ac608c80290af68a18d44edf0526a3abc6ea3652ab46f63e8953eb813b57",
                        "s" : "0x6b1bc1f0b9eb8de1e19d159c9efb8607c2f24643982b112c98ade3e28af22722"
                    }
                ]
            }
        ]
    }
}