{
    "CallRecursiveContract_d0g0v0_Istanbul" : {
        "_info" : {
            "comment" : "",
            "filling-rpc-server" : "Geth-1.9.6-unstable-63b18027-20190920",
            "filling-tool-version" : "retesteth-0.0.1+commit.0ae18aef.Linux.g++",
            "lllcversion" : "Version: 0.5.12-develop.2019.9.13+commit.2d601a4f.Linux.g++",
            "source" : "src/GeneralStateTestsFiller/stInitCodeTest/CallRecursiveContractFiller.json",
            "sourceHash" : "52f039261cdf219f740c3d5ec150d7dcd3f162cc2c1635c0a896f6ac27af5a6d"
        },
        "genesisBlockHeader" : {
            "bloom" : "0x00000000000000000000000000000000000000000000000000000000000000000000000000000000000000000000000000000000000000000000000000000000000000000000000000000000000000000000000000000000000000000000000000000000000000000000000000000000000000000000000000000000000000000000000000000000000000000000000000000000000000000000000000000000000000000000000000000000000000000000000000000000000000000000000000000000000000000000000000000000000000000000000000000000000000000000000000000000000000000000000000000000000000000000000000000000",
            "coinbase" : "0x2adc25665018aa1fe0e6bc666dac8fc2697ff9ba",
            "difficulty" : "0x20000",
            "extraData" : "0x00",
            "gasLimit" : "0x5f5e100",
            "gasUsed" : "0x0",
            "hash" : "0x745cea27423ead7af394f7423c7f27bbea54143a59698765e1a27ec18d6ae938",
            "mixHash" : "0x0000000000000000000000000000000000000000000000000000000000000000",
            "nonce" : "0x0000000000000000",
            "number" : "0x0",
            "parentHash" : "0x0000000000000000000000000000000000000000000000000000000000000000",
            "receiptTrie" : "0x56e81f171bcc55a6ff8345e692c0f86e5b48e01b996cadc001622fb5e363b421",
            "stateRoot" : "0x839c507b1111a5391146ff3dc07c3c096c2fc7980d191067b8fd35c5bb517bc9",
            "timestamp" : "0x0",
            "transactionsTrie" : "0x56e81f171bcc55a6ff8345e692c0f86e5b48e01b996cadc001622fb5e363b421",
            "uncleHash" : "0x1dcc4de8dec75d7aab85b567b6ccd41ad312451b948a7413f0a142fd40d49347"
        },
        "pre" : {
            "0x095e7baea6a6c7c4c2dfeb977efac326af552d87" : {
                "balance" : "0x00",
                "code" : "0x3060025560206000600039602060006000f000",
                "nonce" : "0x28",
                "storage" : {
                }
            },
            "0xa94f5374fce5edbc8e2a8697c15331677e6ebf0b" : {
                "balance" : "0x0f4240",
                "code" : "0x",
                "nonce" : "0x00",
                "storage" : {
                }
            }
        },
        "postState" : {
            "0xa94f5374fce5edbc8e2a8697c15331677e6ebf0b" : {
                "code" : "0x",
                "nonce" : "0x01",
                "balance" : "0x096c3d",
                "storage" : {
                }
            },
            "0x095e7baea6a6c7c4c2dfeb977efac326af552d87" : {
                "code" : "0x3060025560206000600039602060006000f000",
                "nonce" : "0x29",
                "balance" : "0x01",
                "storage" : {
                    "0x02" : "0x095e7baea6a6c7c4c2dfeb977efac326af552d87"
                }
            },
            "0xf0064be0919341a45680ec0d592eaee47df671ac" : {
                "code" : "0x",
                "nonce" : "0x02",
                "balance" : "0x00",
                "storage" : {
                    "0x02" : "0xf0064be0919341a45680ec0d592eaee47df671ac"
                }
            },
            "0x4b0b4b3c7fd3dd5cea1d04dcf027dea29f84acb1" : {
                "code" : "0x",
                "nonce" : "0x02",
                "balance" : "0x00",
                "storage" : {
                    "0x02" : "0x4b0b4b3c7fd3dd5cea1d04dcf027dea29f84acb1"
                }
            },
            "0x2adc25665018aa1fe0e6bc666dac8fc2697ff9ba" : {
                "code" : "0x",
                "nonce" : "0x00",
                "balance" : "0x1bc16d674ecdd602",
                "storage" : {
                }
            },
            "0x60f971aa65f7e520dcb750823e2c239e61c3736b" : {
                "code" : "0x",
                "nonce" : "0x02",
                "balance" : "0x00",
                "storage" : {
                    "0x02" : "0x60f971aa65f7e520dcb750823e2c239e61c3736b"
                }
            },
            "0x74a77e95f3228f0b4d116d5a12e09aaf99ce54ae" : {
                "code" : "0x",
                "nonce" : "0x02",
                "balance" : "0x00",
                "storage" : {
                    "0x02" : "0x74a77e95f3228f0b4d116d5a12e09aaf99ce54ae"
                }
            },
            "0x6fc9df08d2206eff4f4c378aeb2a1f8c570952b9" : {
                "code" : "0x",
                "nonce" : "0x02",
                "balance" : "0x00",
                "storage" : {
                    "0x02" : "0x6fc9df08d2206eff4f4c378aeb2a1f8c570952b9"
                }
            }
        },
        "network" : "Istanbul",
        "sealEngine" : "NoProof",
        "lastblockhash" : "0x27eaa23ace6054ff0d79905da48172cc7bdb927227dce3dd00122e597e23054b",
        "genesisRLP" : "0xf901f9f901f4a00000000000000000000000000000000000000000000000000000000000000000a01dcc4de8dec75d7aab85b567b6ccd41ad312451b948a7413f0a142fd40d49347942adc25665018aa1fe0e6bc666dac8fc2697ff9baa0839c507b1111a5391146ff3dc07c3c096c2fc7980d191067b8fd35c5bb517bc9a056e81f171bcc55a6ff8345e692c0f86e5b48e01b996cadc001622fb5e363b421a056e81f171bcc55a6ff8345e692c0f86e5b48e01b996cadc001622fb5e363b421b901000000000000000000000000000000000000000000000000000000000000000000000000000000000000000000000000000000000000000000000000000000000000000000000000000000000000000000000000000000000000000000000000000000000000000000000000000000000000000000000000000000000000000000000000000000000000000000000000000000000000000000000000000000000000000000000000000000000000000000000000000000000000000000000000000000000000000000000000000000000000000000000000000000000000000000000000000000000000000000000000000000000000000000000000000000000083020000808405f5e100808000a00000000000000000000000000000000000000000000000000000000000000000880000000000000000c0c0",
        "blocks" : [
            {
                "rlp" : "0xf90261f901f9a0745cea27423ead7af394f7423c7f27bbea54143a59698765e1a27ec18d6ae938a01dcc4de8dec75d7aab85b567b6ccd41ad312451b948a7413f0a142fd40d49347942adc25665018aa1fe0e6bc666dac8fc2697ff9baa0b09696498fb962db6f3f5c9dc23c0ba0a00fb76d70fad93b804b9ebadbaadd27a0d4be89a2f61318fc9713ec59a5f4dc08476e084155c765e911baf3180b66a493a029cd73fe1868f13a298f87d55ffc3c35f6c1251f98fd58835f99a95c718fbd31b901000000000000000000000000000000000000000000000000000000000000000000000000000000000000000000000000000000000000000000000000000000000000000000000000000000000000000000000000000000000000000000000000000000000000000000000000000000000000000000000000000000000000000000000000000000000000000000000000000000000000000000000000000000000000000000000000000000000000000000000000000000000000000000000000000000000000000000000000000000000000000000000000000000000000000000000000000000000000000000000000000000000000000000000000000000000083020000018405f75e778305d6028203e800a00000000000000000000000000000000000000000000000000000000000000000880000000000000000f862f860800183061a8094095e7baea6a6c7c4c2dfeb977efac326af552d8701001ca0767b4aeef3b7b464066b6622894304ddbe828ff6f7d35b4a208479b84190072da06d23402c4c7144e986f0a9dbbb8bfc7fd8e1d75f13bb85d5cce03b46f0a8b0cac0",
                "blockHeader" : {
                    "bloom" : "0x00000000000000000000000000000000000000000000000000000000000000000000000000000000000000000000000000000000000000000000000000000000000000000000000000000000000000000000000000000000000000000000000000000000000000000000000000000000000000000000000000000000000000000000000000000000000000000000000000000000000000000000000000000000000000000000000000000000000000000000000000000000000000000000000000000000000000000000000000000000000000000000000000000000000000000000000000000000000000000000000000000000000000000000000000000000",
                    "coinbase" : "0x2adc25665018aa1fe0e6bc666dac8fc2697ff9ba",
                    "difficulty" : "0x20000",
                    "extraData" : "0x00",
                    "gasLimit" : "0x5f75e77",
                    "gasUsed" : "0x5d602",
                    "hash" : "0x27eaa23ace6054ff0d79905da48172cc7bdb927227dce3dd00122e597e23054b",
                    "mixHash" : "0x0000000000000000000000000000000000000000000000000000000000000000",
                    "nonce" : "0x0000000000000000",
                    "number" : "0x1",
                    "parentHash" : "0x745cea27423ead7af394f7423c7f27bbea54143a59698765e1a27ec18d6ae938",
                    "receiptTrie" : "0x29cd73fe1868f13a298f87d55ffc3c35f6c1251f98fd58835f99a95c718fbd31",
                    "stateRoot" : "0xb09696498fb962db6f3f5c9dc23c0ba0a00fb76d70fad93b804b9ebadbaadd27",
                    "timestamp" : "0x3e8",
                    "transactionsTrie" : "0xd4be89a2f61318fc9713ec59a5f4dc08476e084155c765e911baf3180b66a493",
                    "uncleHash" : "0x1dcc4de8dec75d7aab85b567b6ccd41ad312451b948a7413f0a142fd40d49347"
                },
                "transactions" : [
                    {
                        "data" : "0x00",
                        "gasLimit" : "0x061a80",
                        "gasPrice" : "0x01",
                        "nonce" : "0x00",
                        "to" : "0x095e7baea6a6c7c4c2dfeb977efac326af552d87",
                        "value" : "0x01",
                        "v" : "0x1c",
                        "r" : "0x767b4aeef3b7b464066b6622894304ddbe828ff6f7d35b4a208479b84190072d",
                        "s" : "0x6d23402c4c7144e986f0a9dbbb8bfc7fd8e1d75f13bb85d5cce03b46f0a8b0ca"
                    }
                ]
            }
        ]
    }
}