{
    "OutOfGasPrefundedContractCreation_d0g0v0_Istanbul" : {
        "_info" : {
            "comment" : "",
            "filling-rpc-server" : "Geth-1.9.6-unstable-63b18027-20190920",
            "filling-tool-version" : "retesteth-0.0.1+commit.0ae18aef.Linux.g++",
            "lllcversion" : "Version: 0.5.12-develop.2019.9.13+commit.2d601a4f.Linux.g++",
            "source" : "src/GeneralStateTestsFiller/stInitCodeTest/OutOfGasPrefundedContractCreationFiller.json",
            "sourceHash" : "75388b9c0078e31db92a6f46b06c28301a676bea42ae0191f6f52412f4acfa9d"
        },
        "genesisBlockHeader" : {
            "bloom" : "0x00000000000000000000000000000000000000000000000000000000000000000000000000000000000000000000000000000000000000000000000000000000000000000000000000000000000000000000000000000000000000000000000000000000000000000000000000000000000000000000000000000000000000000000000000000000000000000000000000000000000000000000000000000000000000000000000000000000000000000000000000000000000000000000000000000000000000000000000000000000000000000000000000000000000000000000000000000000000000000000000000000000000000000000000000000000",
            "coinbase" : "0x2adc25665018aa1fe0e6bc666dac8fc2697ff9ba",
            "difficulty" : "0x20000",
            "extraData" : "0x00",
            "gasLimit" : "0x5f5e100",
            "gasUsed" : "0x0",
            "hash" : "0xbeb861557255d671a963465cbb4e4c9213773abef2f8c353e5c2fd7e498a4477",
            "mixHash" : "0x0000000000000000000000000000000000000000000000000000000000000000",
            "nonce" : "0x0000000000000000",
            "number" : "0x0",
            "parentHash" : "0x0000000000000000000000000000000000000000000000000000000000000000",
            "receiptTrie" : "0x56e81f171bcc55a6ff8345e692c0f86e5b48e01b996cadc001622fb5e363b421",
            "stateRoot" : "0x820dea567b5028afad5568712a2bbfcf60e44f845b8d9d5668e8abf00763867b",
            "timestamp" : "0x0",
            "transactionsTrie" : "0x56e81f171bcc55a6ff8345e692c0f86e5b48e01b996cadc001622fb5e363b421",
            "uncleHash" : "0x1dcc4de8dec75d7aab85b567b6ccd41ad312451b948a7413f0a142fd40d49347"
        },
        "pre" : {
            "0x6295ee1b4f6dd65047762f924ecd367c17eabf8f" : {
                "balance" : "0x01",
                "code" : "0x",
                "nonce" : "0x00",
                "storage" : {
                }
            },
            "0xa94f5374fce5edbc8e2a8697c15331677e6ebf0b" : {
                "balance" : "0x0f4240",
                "code" : "0x",
                "nonce" : "0x00",
                "storage" : {
                }
            }
        },
        "postState" : {
            "0xa94f5374fce5edbc8e2a8697c15331677e6ebf0b" : {
                "code" : "0x",
                "nonce" : "0x01",
                "balance" : "0x0a6f7a",
                "storage" : {
                }
            },
            "0x2adc25665018aa1fe0e6bc666dac8fc2697ff9ba" : {
                "code" : "0x",
                "nonce" : "0x00",
                "balance" : "0x1bc16d674eccd2c5",
                "storage" : {
                }
            },
            "0x64e2ebd6405af8cb348aec519084d3fff42ebba6" : {
                "code" : "0x",
                "nonce" : "0x01",
                "balance" : "0x01",
                "storage" : {
                    "0x00" : "0x112233"
                }
            },
            "0x6295ee1b4f6dd65047762f924ecd367c17eabf8f" : {
                "code" : "0x",
                "nonce" : "0x02",
                "balance" : "0x01",
                "storage" : {
                }
            }
        },
        "network" : "Istanbul",
        "sealEngine" : "NoProof",
        "lastblockhash" : "0xf213ce098291f0f652d80aa45554583486e9642d4102ba64c85d03177603390f",
        "genesisRLP" : "0xf901f9f901f4a00000000000000000000000000000000000000000000000000000000000000000a01dcc4de8dec75d7aab85b567b6ccd41ad312451b948a7413f0a142fd40d49347942adc25665018aa1fe0e6bc666dac8fc2697ff9baa0820dea567b5028afad5568712a2bbfcf60e44f845b8d9d5668e8abf00763867ba056e81f171bcc55a6ff8345e692c0f86e5b48e01b996cadc001622fb5e363b421a056e81f171bcc55a6ff8345e692c0f86e5b48e01b996cadc001622fb5e363b421b901000000000000000000000000000000000000000000000000000000000000000000000000000000000000000000000000000000000000000000000000000000000000000000000000000000000000000000000000000000000000000000000000000000000000000000000000000000000000000000000000000000000000000000000000000000000000000000000000000000000000000000000000000000000000000000000000000000000000000000000000000000000000000000000000000000000000000000000000000000000000000000000000000000000000000000000000000000000000000000000000000000000000000000000000000000000083020000808405f5e100808000a00000000000000000000000000000000000000000000000000000000000000000880000000000000000c0c0",
        "blocks" : [
            {
                "rlp" : "0xf90267f901f9a0beb861557255d671a963465cbb4e4c9213773abef2f8c353e5c2fd7e498a4477a01dcc4de8dec75d7aab85b567b6ccd41ad312451b948a7413f0a142fd40d49347942adc25665018aa1fe0e6bc666dac8fc2697ff9baa06ebb6fff7256287cac3a0de4a916daf0c01083e602bcebc7d88dc858436ee26aa098df6d732a2647fd4dff26db1c3ec294f99649e9cc4ccc51c910e9cb79179157a02e4cda3bae1e1e8aaada50b1b83e7fa176165d208afa11a758a93d32000fcef9b901000000000000000000000000000000000000000000000000000000000000000000000000000000000000000000000000000000000000000000000000000000000000000000000000000000000000000000000000000000000000000000000000000000000000000000000000000000000000000000000000000000000000000000000000000000000000000000000000000000000000000000000000000000000000000000000000000000000000000000000000000000000000000000000000000000000000000000000000000000000000000000000000000000000000000000000000000000000000000000000000000000000000000000000000000000000083020000018405f75e7783019b978203e800a00000000000000000000000000000000000000000000000000000000000000000880000000000000000f868f86680038302599080019a600980601160003960006001f0500000fe6211223360005500001ca07b19742003a28e2bd44124b327a1a9cf97b3d0860707b5fc1a80fa06b4e0d7c8a0529936e1158ebe782a36b1d4ddb912fb46daabf019657bbdc90ff1adc32e5733c0",
                "blockHeader" : {
                    "bloom" : "0x00000000000000000000000000000000000000000000000000000000000000000000000000000000000000000000000000000000000000000000000000000000000000000000000000000000000000000000000000000000000000000000000000000000000000000000000000000000000000000000000000000000000000000000000000000000000000000000000000000000000000000000000000000000000000000000000000000000000000000000000000000000000000000000000000000000000000000000000000000000000000000000000000000000000000000000000000000000000000000000000000000000000000000000000000000000",
                    "coinbase" : "0x2adc25665018aa1fe0e6bc666dac8fc2697ff9ba",
                    "difficulty" : "0x20000",
                    "extraData" : "0x00",
                    "gasLimit" : "0x5f75e77",
                    "gasUsed" : "0x19b97",
                    "hash" : "0xf213ce098291f0f652d80aa45554583486e9642d4102ba64c85d03177603390f",
                    "mixHash" : "0x0000000000000000000000000000000000000000000000000000000000000000",
                    "nonce" : "0x0000000000000000",
                    "number" : "0x1",
                    "parentHash" : "0xbeb861557255d671a963465cbb4e4c9213773abef2f8c353e5c2fd7e498a4477",
                    "receiptTrie" : "0x2e4cda3bae1e1e8aaada50b1b83e7fa176165d208afa11a758a93d32000fcef9",
                    "stateRoot" : "0x6ebb6fff7256287cac3a0de4a916daf0c01083e602bcebc7d88dc858436ee26a",
                    "timestamp" : "0x3e8",
                    "transactionsTrie" : "0x98df6d732a2647fd4dff26db1c3ec294f99649e9cc4ccc51c910e9cb79179157",
                    "uncleHash" : "0x1dcc4de8dec75d7aab85b567b6ccd41ad312451b948a7413f0a142fd40d49347"
                },
                "transactions" : [
                    {
                        "data" : "0x600980601160003960006001f0500000fe621122336000550000",
                        "gasLimit" : "0x025990",
                        "gasPrice" : "0x03",
                        "nonce" : "0x00",
                        "to" : "",
                        "value" : "0x01",
                        "v" : "0x1c",
                        "r" : "0x7b19742003a28e2bd44124b327a1a9cf97b3d0860707b5fc1a80fa06b4e0d7c8",
                        "s" : "0x529936e1158ebe782a36b1d4ddb912fb46daabf019657bbdc90ff1adc32e5733"
                    }
                ]
            }
        ]
    },
    "OutOfGasPrefundedContractCreation_d0g1v0_Istanbul" : {
        "_info" : {
            "comment" : "",
            "filling-rpc-server" : "Geth-1.9.6-unstable-63b18027-20190920",
            "filling-tool-version" : "retesteth-0.0.1+commit.0ae18aef.Linux.g++",
            "lllcversion" : "Version: 0.5.12-develop.2019.9.13+commit.2d601a4f.Linux.g++",
            "source" : "src/GeneralStateTestsFiller/stInitCodeTest/OutOfGasPrefundedContractCreationFiller.json",
            "sourceHash" : "75388b9c0078e31db92a6f46b06c28301a676bea42ae0191f6f52412f4acfa9d"
        },
        "genesisBlockHeader" : {
            "bloom" : "0x00000000000000000000000000000000000000000000000000000000000000000000000000000000000000000000000000000000000000000000000000000000000000000000000000000000000000000000000000000000000000000000000000000000000000000000000000000000000000000000000000000000000000000000000000000000000000000000000000000000000000000000000000000000000000000000000000000000000000000000000000000000000000000000000000000000000000000000000000000000000000000000000000000000000000000000000000000000000000000000000000000000000000000000000000000000",
            "coinbase" : "0x2adc25665018aa1fe0e6bc666dac8fc2697ff9ba",
            "difficulty" : "0x20000",
            "extraData" : "0x00",
            "gasLimit" : "0x5f5e100",
            "gasUsed" : "0x0",
            "hash" : "0xbeb861557255d671a963465cbb4e4c9213773abef2f8c353e5c2fd7e498a4477",
            "mixHash" : "0x0000000000000000000000000000000000000000000000000000000000000000",
            "nonce" : "0x0000000000000000",
            "number" : "0x0",
            "parentHash" : "0x0000000000000000000000000000000000000000000000000000000000000000",
            "receiptTrie" : "0x56e81f171bcc55a6ff8345e692c0f86e5b48e01b996cadc001622fb5e363b421",
            "stateRoot" : "0x820dea567b5028afad5568712a2bbfcf60e44f845b8d9d5668e8abf00763867b",
            "timestamp" : "0x0",
            "transactionsTrie" : "0x56e81f171bcc55a6ff8345e692c0f86e5b48e01b996cadc001622fb5e363b421",
            "uncleHash" : "0x1dcc4de8dec75d7aab85b567b6ccd41ad312451b948a7413f0a142fd40d49347"
        },
        "pre" : {
            "0x6295ee1b4f6dd65047762f924ecd367c17eabf8f" : {
                "balance" : "0x01",
                "code" : "0x",
                "nonce" : "0x00",
                "storage" : {
                }
            },
            "0xa94f5374fce5edbc8e2a8697c15331677e6ebf0b" : {
                "balance" : "0x0f4240",
                "code" : "0x",
                "nonce" : "0x00",
                "storage" : {
                }
            }
        },
        "postState" : {
            "0xa94f5374fce5edbc8e2a8697c15331677e6ebf0b" : {
                "code" : "0x",
                "nonce" : "0x01",
                "balance" : "0x0c4888",
                "storage" : {
                }
            },
            "0x2adc25665018aa1fe0e6bc666dac8fc2697ff9ba" : {
                "code" : "0x",
                "nonce" : "0x00",
                "balance" : "0x1bc16d674ecaf9b8",
                "storage" : {
                }
            },
            "0x6295ee1b4f6dd65047762f924ecd367c17eabf8f" : {
                "code" : "0x",
                "nonce" : "0x00",
                "balance" : "0x01",
                "storage" : {
                }
            }
        },
        "network" : "Istanbul",
        "sealEngine" : "NoProof",
        "lastblockhash" : "0x4dd030bffc07eaa30df53a2e005927bcf0bcddb5dd8b47c71ef4de64384889a2",
        "genesisRLP" : "0xf901f9f901f4a00000000000000000000000000000000000000000000000000000000000000000a01dcc4de8dec75d7aab85b567b6ccd41ad312451b948a7413f0a142fd40d49347942adc25665018aa1fe0e6bc666dac8fc2697ff9baa0820dea567b5028afad5568712a2bbfcf60e44f845b8d9d5668e8abf00763867ba056e81f171bcc55a6ff8345e692c0f86e5b48e01b996cadc001622fb5e363b421a056e81f171bcc55a6ff8345e692c0f86e5b48e01b996cadc001622fb5e363b421b901000000000000000000000000000000000000000000000000000000000000000000000000000000000000000000000000000000000000000000000000000000000000000000000000000000000000000000000000000000000000000000000000000000000000000000000000000000000000000000000000000000000000000000000000000000000000000000000000000000000000000000000000000000000000000000000000000000000000000000000000000000000000000000000000000000000000000000000000000000000000000000000000000000000000000000000000000000000000000000000000000000000000000000000000000000000083020000808405f5e100808000a00000000000000000000000000000000000000000000000000000000000000000880000000000000000c0c0",
        "blocks" : [
            {
                "rlp" : "0xf90265f901f8a0beb861557255d671a963465cbb4e4c9213773abef2f8c353e5c2fd7e498a4477a01dcc4de8dec75d7aab85b567b6ccd41ad312451b948a7413f0a142fd40d49347942adc25665018aa1fe0e6bc666dac8fc2697ff9baa0c460f7095859403a1deb612cc7c2d6e7ba92b1586f9f4c2482ce733b61e0c35fa07363274bb6f0fe458acb2e61e7ae819e0ca0074d85552c4bdea148a37233b0a0a07263f21091439fecb4cecea692f538fccab73b4ed6103ba3c7590e1c033ed139b901000000000000000000000000000000000000000000000000000000000000000000000000000000000000000000000000000000000000000000000000000000000000000000000000000000000000000000000000000000000000000000000000000000000000000000000000000000000000000000000000000000000000000000000000000000000000000000000000000000000000000000000000000000000000000000000000000000000000000000000000000000000000000000000000000000000000000000000000000000000000000000000000000000000000000000000000000000000000000000000000000000000000000000000000000000000083020000018405f75e7782fde88203e800a00000000000000000000000000000000000000000000000000000000000000000880000000000000000f867f865800382fde880019a600980601160003960006001f0500000fe6211223360005500001ca0aded459d7a95d159639b4d2e695ef3a8717039fbb7a2e4ac9f6a1938a62d560aa02b988f8c3397378b6f37ecb360b991dbb5e99824594ec80e973a0a07ac897a48c0",
                "blockHeader" : {
                    "bloom" : "0x00000000000000000000000000000000000000000000000000000000000000000000000000000000000000000000000000000000000000000000000000000000000000000000000000000000000000000000000000000000000000000000000000000000000000000000000000000000000000000000000000000000000000000000000000000000000000000000000000000000000000000000000000000000000000000000000000000000000000000000000000000000000000000000000000000000000000000000000000000000000000000000000000000000000000000000000000000000000000000000000000000000000000000000000000000000",
                    "coinbase" : "0x2adc25665018aa1fe0e6bc666dac8fc2697ff9ba",
                    "difficulty" : "0x20000",
                    "extraData" : "0x00",
                    "gasLimit" : "0x5f75e77",
                    "gasUsed" : "0xfde8",
                    "hash" : "0x4dd030bffc07eaa30df53a2e005927bcf0bcddb5dd8b47c71ef4de64384889a2",
                    "mixHash" : "0x0000000000000000000000000000000000000000000000000000000000000000",
                    "nonce" : "0x0000000000000000",
                    "number" : "0x1",
                    "parentHash" : "0xbeb861557255d671a963465cbb4e4c9213773abef2f8c353e5c2fd7e498a4477",
                    "receiptTrie" : "0x7263f21091439fecb4cecea692f538fccab73b4ed6103ba3c7590e1c033ed139",
                    "stateRoot" : "0xc460f7095859403a1deb612cc7c2d6e7ba92b1586f9f4c2482ce733b61e0c35f",
                    "timestamp" : "0x3e8",
                    "transactionsTrie" : "0x7363274bb6f0fe458acb2e61e7ae819e0ca0074d85552c4bdea148a37233b0a0",
                    "uncleHash" : "0x1dcc4de8dec75d7aab85b567b6ccd41ad312451b948a7413f0a142fd40d49347"
                },
                "transactions" : [
                    {
                        "data" : "0x600980601160003960006001f0500000fe621122336000550000",
                        "gasLimit" : "0xfde8",
                        "gasPrice" : "0x03",
                        "nonce" : "0x00",
                        "to" : "",
                        "value" : "0x01",
                        "v" : "0x1c",
                        "r" : "0xaded459d7a95d159639b4d2e695ef3a8717039fbb7a2e4ac9f6a1938a62d560a",
                        "s" : "0x2b988f8c3397378b6f37ecb360b991dbb5e99824594ec80e973a0a07ac897a48"
                    }
                ]
            }
        ]
    },
    "OutOfGasPrefundedContractCreation_d0g2v0_Istanbul" : {
        "_info" : {
            "comment" : "",
            "filling-rpc-server" : "Geth-1.9.6-unstable-63b18027-20190920",
            "filling-tool-version" : "retesteth-0.0.1+commit.0ae18aef.Linux.g++",
            "lllcversion" : "Version: 0.5.12-develop.2019.9.13+commit.2d601a4f.Linux.g++",
            "source" : "src/GeneralStateTestsFiller/stInitCodeTest/OutOfGasPrefundedContractCreationFiller.json",
            "sourceHash" : "75388b9c0078e31db92a6f46b06c28301a676bea42ae0191f6f52412f4acfa9d"
        },
        "genesisBlockHeader" : {
            "bloom" : "0x00000000000000000000000000000000000000000000000000000000000000000000000000000000000000000000000000000000000000000000000000000000000000000000000000000000000000000000000000000000000000000000000000000000000000000000000000000000000000000000000000000000000000000000000000000000000000000000000000000000000000000000000000000000000000000000000000000000000000000000000000000000000000000000000000000000000000000000000000000000000000000000000000000000000000000000000000000000000000000000000000000000000000000000000000000000",
            "coinbase" : "0x2adc25665018aa1fe0e6bc666dac8fc2697ff9ba",
            "difficulty" : "0x20000",
            "extraData" : "0x00",
            "gasLimit" : "0x5f5e100",
            "gasUsed" : "0x0",
            "hash" : "0xbeb861557255d671a963465cbb4e4c9213773abef2f8c353e5c2fd7e498a4477",
            "mixHash" : "0x0000000000000000000000000000000000000000000000000000000000000000",
            "nonce" : "0x0000000000000000",
            "number" : "0x0",
            "parentHash" : "0x0000000000000000000000000000000000000000000000000000000000000000",
            "receiptTrie" : "0x56e81f171bcc55a6ff8345e692c0f86e5b48e01b996cadc001622fb5e363b421",
            "stateRoot" : "0x820dea567b5028afad5568712a2bbfcf60e44f845b8d9d5668e8abf00763867b",
            "timestamp" : "0x0",
            "transactionsTrie" : "0x56e81f171bcc55a6ff8345e692c0f86e5b48e01b996cadc001622fb5e363b421",
            "uncleHash" : "0x1dcc4de8dec75d7aab85b567b6ccd41ad312451b948a7413f0a142fd40d49347"
        },
        "pre" : {
            "0x6295ee1b4f6dd65047762f924ecd367c17eabf8f" : {
                "balance" : "0x01",
                "code" : "0x",
                "nonce" : "0x00",
                "storage" : {
                }
            },
            "0xa94f5374fce5edbc8e2a8697c15331677e6ebf0b" : {
                "balance" : "0x0f4240",
                "code" : "0x",
                "nonce" : "0x00",
                "storage" : {
                }
            }
        },
        "postState" : {
            "0xa94f5374fce5edbc8e2a8697c15331677e6ebf0b" : {
                "code" : "0x",
                "nonce" : "0x01",
                "balance" : "0x0aeab3",
                "storage" : {
                }
            },
            "0x2adc25665018aa1fe0e6bc666dac8fc2697ff9ba" : {
                "code" : "0x",
                "nonce" : "0x00",
                "balance" : "0x1bc16d674ecc578c",
                "storage" : {
                }
            },
            "0x6295ee1b4f6dd65047762f924ecd367c17eabf8f" : {
                "code" : "0x",
                "nonce" : "0x02",
                "balance" : "0x02",
                "storage" : {
                }
            }
        },
        "network" : "Istanbul",
        "sealEngine" : "NoProof",
        "lastblockhash" : "0x08d6a618a38338957affdf84bebf8aae3621a998808840a27f5e480928843dae",
        "genesisRLP" : "0xf901f9f901f4a00000000000000000000000000000000000000000000000000000000000000000a01dcc4de8dec75d7aab85b567b6ccd41ad312451b948a7413f0a142fd40d49347942adc25665018aa1fe0e6bc666dac8fc2697ff9baa0820dea567b5028afad5568712a2bbfcf60e44f845b8d9d5668e8abf00763867ba056e81f171bcc55a6ff8345e692c0f86e5b48e01b996cadc001622fb5e363b421a056e81f171bcc55a6ff8345e692c0f86e5b48e01b996cadc001622fb5e363b421b901000000000000000000000000000000000000000000000000000000000000000000000000000000000000000000000000000000000000000000000000000000000000000000000000000000000000000000000000000000000000000000000000000000000000000000000000000000000000000000000000000000000000000000000000000000000000000000000000000000000000000000000000000000000000000000000000000000000000000000000000000000000000000000000000000000000000000000000000000000000000000000000000000000000000000000000000000000000000000000000000000000000000000000000000000000000083020000808405f5e100808000a00000000000000000000000000000000000000000000000000000000000000000880000000000000000c0c0",
        "blocks" : [
            {
                "rlp" : "0xf90267f901f9a0beb861557255d671a963465cbb4e4c9213773abef2f8c353e5c2fd7e498a4477a01dcc4de8dec75d7aab85b567b6ccd41ad312451b948a7413f0a142fd40d49347942adc25665018aa1fe0e6bc666dac8fc2697ff9baa00fb92ceff387481bbc0ff76446fbb247b3edbfff51a8af4eb42ea783dee5ae95a0c01dcf24e8117fae67025fae64c53f1cb80d94c9689b3dedf1a4a07a741b044aa05124bc67fcf0c4e5d02dbc52d5e9c4604238295715b053dafa1d25976f669a60b901000000000000000000000000000000000000000000000000000000000000000000000000000000000000000000000000000000000000000000000000000000000000000000000000000000000000000000000000000000000000000000000000000000000000000000000000000000000000000000000000000000000000000000000000000000000000000000000000000000000000000000000000000000000000000000000000000000000000000000000000000000000000000000000000000000000000000000000000000000000000000000000000000000000000000000000000000000000000000000000000000000000000000000000000000000000083020000018405f75e77830172848203e800a00000000000000000000000000000000000000000000000000000000000000000880000000000000000f868f86680038301731880019a600980601160003960006001f0500000fe6211223360005500001ba0486353dd90ce38870aa4c7924a8eadf52c16b61cf9b772896f0628fedc943f28a02553e73c680e81a8a8a29a06a9f5210e2910e21dfdf06ead7006e96261ec4eedc0",
                "blockHeader" : {
                    "bloom" : "0x00000000000000000000000000000000000000000000000000000000000000000000000000000000000000000000000000000000000000000000000000000000000000000000000000000000000000000000000000000000000000000000000000000000000000000000000000000000000000000000000000000000000000000000000000000000000000000000000000000000000000000000000000000000000000000000000000000000000000000000000000000000000000000000000000000000000000000000000000000000000000000000000000000000000000000000000000000000000000000000000000000000000000000000000000000000",
                    "coinbase" : "0x2adc25665018aa1fe0e6bc666dac8fc2697ff9ba",
                    "difficulty" : "0x20000",
                    "extraData" : "0x00",
                    "gasLimit" : "0x5f75e77",
                    "gasUsed" : "0x17284",
                    "hash" : "0x08d6a618a38338957affdf84bebf8aae3621a998808840a27f5e480928843dae",
                    "mixHash" : "0x0000000000000000000000000000000000000000000000000000000000000000",
                    "nonce" : "0x0000000000000000",
                    "number" : "0x1",
                    "parentHash" : "0xbeb861557255d671a963465cbb4e4c9213773abef2f8c353e5c2fd7e498a4477",
                    "receiptTrie" : "0x5124bc67fcf0c4e5d02dbc52d5e9c4604238295715b053dafa1d25976f669a60",
                    "stateRoot" : "0x0fb92ceff387481bbc0ff76446fbb247b3edbfff51a8af4eb42ea783dee5ae95",
                    "timestamp" : "0x3e8",
                    "transactionsTrie" : "0xc01dcf24e8117fae67025fae64c53f1cb80d94c9689b3dedf1a4a07a741b044a",
                    "uncleHash" : "0x1dcc4de8dec75d7aab85b567b6ccd41ad312451b948a7413f0a142fd40d49347"
                },
                "transactions" : [
                    {
                        "data" : "0x600980601160003960006001f0500000fe621122336000550000",
                        "gasLimit" : "0x017318",
                        "gasPrice" : "0x03",
                        "nonce" : "0x00",
                        "to" : "",
                        "value" : "0x01",
                        "v" : "0x1b",
                        "r" : "0x486353dd90ce38870aa4c7924a8eadf52c16b61cf9b772896f0628fedc943f28",
                        "s" : "0x2553e73c680e81a8a8a29a06a9f5210e2910e21dfdf06ead7006e96261ec4eed"
                    }
                ]
            }
        ]
    }
}