{
    "ReturnTest2_d0g0v0_Istanbul" : {
        "_info" : {
            "comment" : "",
            "filling-rpc-server" : "Geth-1.9.6-unstable-63b18027-20190920",
            "filling-tool-version" : "retesteth-0.0.1+commit.0ae18aef.Linux.g++",
            "lllcversion" : "Version: 0.5.12-develop.2019.9.13+commit.2d601a4f.Linux.g++",
            "source" : "src/GeneralStateTestsFiller/stInitCodeTest/ReturnTest2Filler.json",
            "sourceHash" : "ab8a52509b120cb8fa48a13e58d546b2cdbe91f8e36455bbc57f0779c522c879"
        },
        "genesisBlockHeader" : {
            "bloom" : "0x00000000000000000000000000000000000000000000000000000000000000000000000000000000000000000000000000000000000000000000000000000000000000000000000000000000000000000000000000000000000000000000000000000000000000000000000000000000000000000000000000000000000000000000000000000000000000000000000000000000000000000000000000000000000000000000000000000000000000000000000000000000000000000000000000000000000000000000000000000000000000000000000000000000000000000000000000000000000000000000000000000000000000000000000000000000",
            "coinbase" : "0x2adc25665018aa1fe0e6bc666dac8fc2697ff9ba",
            "difficulty" : "0x20000",
            "extraData" : "0x00",
            "gasLimit" : "0x3b9aca00",
            "gasUsed" : "0x0",
            "hash" : "0x28657ff1a82184cefefb219f999e6658e66eb70e5ee6b2cee5071bad8cacea27",
            "mixHash" : "0x0000000000000000000000000000000000000000000000000000000000000000",
            "nonce" : "0x0000000000000000",
            "number" : "0x0",
            "parentHash" : "0x0000000000000000000000000000000000000000000000000000000000000000",
            "receiptTrie" : "0x56e81f171bcc55a6ff8345e692c0f86e5b48e01b996cadc001622fb5e363b421",
            "stateRoot" : "0x0ca4b15836cf54a01191a09e908ea1142876f37872eb7635a9654b040ff3bb06",
            "timestamp" : "0x0",
            "transactionsTrie" : "0x56e81f171bcc55a6ff8345e692c0f86e5b48e01b996cadc001622fb5e363b421",
            "uncleHash" : "0x1dcc4de8dec75d7aab85b567b6ccd41ad312451b948a7413f0a142fd40d49347"
        },
        "pre" : {
            "0x194f5374fce5edbc8e2a8697c15331677e6ebf0b" : {
                "balance" : "0x00",
                "code" : "0x60156000526020602060206000600073b94f5374fce5edbc8e2a8697c15331677e6ebf0b611b58f15060005160005560205160015560406000f300",
                "nonce" : "0x00",
                "storage" : {
                }
            },
            "0xa94f5374fce5edbc8e2a8697c15331677e6ebf0b" : {
                "balance" : "0x0f4240",
                "code" : "0x",
                "nonce" : "0x00",
                "storage" : {
                }
            },
            "0xb94f5374fce5edbc8e2a8697c15331677e6ebf0b" : {
                "balance" : "0x0186a0",
                "code" : "0x60003560030260005260206000f300",
                "nonce" : "0x00",
                "storage" : {
                }
            }
        },
        "postState" : {
            "0xa94f5374fce5edbc8e2a8697c15331677e6ebf0b" : {
                "code" : "0x",
                "nonce" : "0x01",
                "balance" : "0x0e50e1",
                "storage" : {
                }
            },
            "0x194f5374fce5edbc8e2a8697c15331677e6ebf0b" : {
                "code" : "0x60156000526020602060206000600073b94f5374fce5edbc8e2a8697c15331677e6ebf0b611b58f15060005160005560205160015560406000f300",
                "nonce" : "0x00",
                "balance" : "0x00",
                "storage" : {
                    "0x00" : "0x15",
                    "0x01" : "0x3f"
                }
            },
            "0x2adc25665018aa1fe0e6bc666dac8fc2697ff9ba" : {
                "code" : "0x",
                "nonce" : "0x00",
                "balance" : "0x1bc16d674ec8f15f",
                "storage" : {
                }
            },
            "0xb94f5374fce5edbc8e2a8697c15331677e6ebf0b" : {
                "code" : "0x60003560030260005260206000f300",
                "nonce" : "0x00",
                "balance" : "0x0186a0",
                "storage" : {
                }
            }
        },
        "network" : "Istanbul",
        "sealEngine" : "NoProof",
        "lastblockhash" : "0x93526b40bee38f289b44c049fcf5bcc32fcd98555bc9e6ca996062e9407523cd",
        "genesisRLP" : "0xf901f9f901f4a00000000000000000000000000000000000000000000000000000000000000000a01dcc4de8dec75d7aab85b567b6ccd41ad312451b948a7413f0a142fd40d49347942adc25665018aa1fe0e6bc666dac8fc2697ff9baa00ca4b15836cf54a01191a09e908ea1142876f37872eb7635a9654b040ff3bb06a056e81f171bcc55a6ff8345e692c0f86e5b48e01b996cadc001622fb5e363b421a056e81f171bcc55a6ff8345e692c0f86e5b48e01b996cadc001622fb5e363b421b90100000000000000000000000000000000000000000000000000000000000000000000000000000000000000000000000000000000000000000000000000000000000000000000000000000000000000000000000000000000000000000000000000000000000000000000000000000000000000000000000000000000000000000000000000000000000000000000000000000000000000000000000000000000000000000000000000000000000000000000000000000000000000000000000000000000000000000000000000000000000000000000000000000000000000000000000000000000000000000000000000000000000000000000000000000000008302000080843b9aca00808000a00000000000000000000000000000000000000000000000000000000000000000880000000000000000c0c0",
        "blocks" : [
            {
                "rlp" : "0xf90260f901f8a028657ff1a82184cefefb219f999e6658e66eb70e5ee6b2cee5071bad8cacea27a01dcc4de8dec75d7aab85b567b6ccd41ad312451b948a7413f0a142fd40d49347942adc25665018aa1fe0e6bc666dac8fc2697ff9baa0e6d82fc5657f0cdf6fd830eacdf9457dbbe40c1feba608582f5ccd70b0cbcfe8a0714f2dbf5a5c30b30264417545757fe69da878802c4ec75e9fd1c1be9988a148a0af2d14f7f0d7fec8f1c7b2a19528e892fd6ce383a7c9b82fc601439fff3b6952b90100000000000000000000000000000000000000000000000000000000000000000000000000000000000000000000000000000000000000000000000000000000000000000000000000000000000000000000000000000000000000000000000000000000000000000000000000000000000000000000000000000000000000000000000000000000000000000000000000000000000000000000000000000000000000000000000000000000000000000000000000000000000000000000000000000000000000000000000000000000000000000000000000000000000000000000000000000000000000000000000000000000000000000000000000000000008302000001843ba9b0b182f15f8203e800a00000000000000000000000000000000000000000000000000000000000000000880000000000000000f862f86080018303d09094194f5374fce5edbc8e2a8697c15331677e6ebf0b80801ba040400852d7bed4663d6174943fa640fcc4f146f8e849b92a6cae735cdf2fc827a00cdc17ce38a87eedda06d9d1c7c98ef9a083c0a200a1ac1a4fe9d439ace32fc0c0",
                "blockHeader" : {
                    "bloom" : "0x00000000000000000000000000000000000000000000000000000000000000000000000000000000000000000000000000000000000000000000000000000000000000000000000000000000000000000000000000000000000000000000000000000000000000000000000000000000000000000000000000000000000000000000000000000000000000000000000000000000000000000000000000000000000000000000000000000000000000000000000000000000000000000000000000000000000000000000000000000000000000000000000000000000000000000000000000000000000000000000000000000000000000000000000000000000",
                    "coinbase" : "0x2adc25665018aa1fe0e6bc666dac8fc2697ff9ba",
                    "difficulty" : "0x20000",
                    "extraData" : "0x00",
                    "gasLimit" : "0x3ba9b0b1",
                    "gasUsed" : "0xf15f",
                    "hash" : "0x93526b40bee38f289b44c049fcf5bcc32fcd98555bc9e6ca996062e9407523cd",
                    "mixHash" : "0x0000000000000000000000000000000000000000000000000000000000000000",
                    "nonce" : "0x0000000000000000",
                    "number" : "0x1",
                    "parentHash" : "0x28657ff1a82184cefefb219f999e6658e66eb70e5ee6b2cee5071bad8cacea27",
                    "receiptTrie" : "0xaf2d14f7f0d7fec8f1c7b2a19528e892fd6ce383a7c9b82fc601439fff3b6952",
                    "stateRoot" : "0xe6d82fc5657f0cdf6fd830eacdf9457dbbe40c1feba608582f5ccd70b0cbcfe8",
                    "timestamp" : "0x3e8",
                    "transactionsTrie" : "0x714f2dbf5a5c30b30264417545757fe69da878802c4ec75e9fd1c1be9988a148",
                    "uncleHash" : "0x1dcc4de8dec75d7aab85b567b6ccd41ad312451b948a7413f0a142fd40d49347"
                },
                "transactions" : [
                    {
                        "data" : "0x",
                        "gasLimit" : "0x03d090",
                        "gasPrice" : "0x01",
                        "nonce" : "0x00",
                        "to" : "0x194f5374fce5edbc8e2a8697c15331677e6ebf0b",
                        "value" : "0x00",
                        "v" : "0x1b",
                        "r" : "0x40400852d7bed4663d6174943fa640fcc4f146f8e849b92a6cae735cdf2fc827",
                        "s" : "0x0cdc17ce38a87eedda06d9d1c7c98ef9a083c0a200a1ac1a4fe9d439ace32fc0"
                    }
                ]
            }
        ]
    }
}