{
    "TransactionCreateAutoSuicideContract_d0g0v0_Istanbul" : {
        "_info" : {
            "comment" : "",
            "filling-rpc-server" : "Geth-1.9.6-unstable-63b18027-20190920",
            "filling-tool-version" : "retesteth-0.0.1+commit.0ae18aef.Linux.g++",
            "lllcversion" : "Version: 0.5.12-develop.2019.9.13+commit.2d601a4f.Linux.g++",
            "source" : "src/GeneralStateTestsFiller/stInitCodeTest/TransactionCreateAutoSuicideContractFiller.json",
            "sourceHash" : "061a9bc21c85cadf1ac9ea1d61ea56f53855166a79096fd3cdf4306505fc13d9"
        },
        "genesisBlockHeader" : {
            "bloom" : "0x00000000000000000000000000000000000000000000000000000000000000000000000000000000000000000000000000000000000000000000000000000000000000000000000000000000000000000000000000000000000000000000000000000000000000000000000000000000000000000000000000000000000000000000000000000000000000000000000000000000000000000000000000000000000000000000000000000000000000000000000000000000000000000000000000000000000000000000000000000000000000000000000000000000000000000000000000000000000000000000000000000000000000000000000000000000",
            "coinbase" : "0x2adc25665018aa1fe0e6bc666dac8fc2697ff9ba",
            "difficulty" : "0x20000",
            "extraData" : "0x00",
            "gasLimit" : "0xf4240",
            "gasUsed" : "0x0",
            "hash" : "0x427e5aaa65149ab0fee58e9df6bf91ed77cd001e2876282edc99692058717248",
            "mixHash" : "0x0000000000000000000000000000000000000000000000000000000000000000",
            "nonce" : "0x0000000000000000",
            "number" : "0x0",
            "parentHash" : "0x0000000000000000000000000000000000000000000000000000000000000000",
            "receiptTrie" : "0x56e81f171bcc55a6ff8345e692c0f86e5b48e01b996cadc001622fb5e363b421",
            "stateRoot" : "0xa3e1c133a5a51b03399ed9ad0380f3182e9e18322f232b816dd4b9094f871e1b",
            "timestamp" : "0x0",
            "transactionsTrie" : "0x56e81f171bcc55a6ff8345e692c0f86e5b48e01b996cadc001622fb5e363b421",
            "uncleHash" : "0x1dcc4de8dec75d7aab85b567b6ccd41ad312451b948a7413f0a142fd40d49347"
        },
        "pre" : {
            "0xa94f5374fce5edbc8e2a8697c15331677e6ebf0b" : {
                "balance" : "0x0186a0",
                "code" : "0x",
                "nonce" : "0x00",
                "storage" : {
                }
            }
        },
        "postState" : {
            "0xa94f5374fce5edbc8e2a8697c15331677e6ebf0b" : {
                "code" : "0x",
                "nonce" : "0x01",
                "balance" : "0xafc8",
                "storage" : {
                }
            },
            "0x2adc25665018aa1fe0e6bc666dac8fc2697ff9ba" : {
                "code" : "0x",
                "nonce" : "0x00",
                "balance" : "0x1bc16d674ec8d6d8",
                "storage" : {
                }
            }
        },
        "network" : "Istanbul",
        "sealEngine" : "NoProof",
        "lastblockhash" : "0x4da6a5b9e3d99210fc5758fdafec28497c7b878ffe4ca5b54df8828e406fcea3",
        "genesisRLP" : "0xf901f8f901f3a00000000000000000000000000000000000000000000000000000000000000000a01dcc4de8dec75d7aab85b567b6ccd41ad312451b948a7413f0a142fd40d49347942adc25665018aa1fe0e6bc666dac8fc2697ff9baa0a3e1c133a5a51b03399ed9ad0380f3182e9e18322f232b816dd4b9094f871e1ba056e81f171bcc55a6ff8345e692c0f86e5b48e01b996cadc001622fb5e363b421a056e81f171bcc55a6ff8345e692c0f86e5b48e01b996cadc001622fb5e363b421b90100000000000000000000000000000000000000000000000000000000000000000000000000000000000000000000000000000000000000000000000000000000000000000000000000000000000000000000000000000000000000000000000000000000000000000000000000000000000000000000000000000000000000000000000000000000000000000000000000000000000000000000000000000000000000000000000000000000000000000000000000000000000000000000000000000000000000000000000000000000000000000000000000000000000000000000000000000000000000000000000000000000000000000000000000000000008302000080830f4240808000a00000000000000000000000000000000000000000000000000000000000000000880000000000000000c0c0",
        "blocks" : [
            {
                "rlp" : "0xf90261f901f7a0427e5aaa65149ab0fee58e9df6bf91ed77cd001e2876282edc99692058717248a01dcc4de8dec75d7aab85b567b6ccd41ad312451b948a7413f0a142fd40d49347942adc25665018aa1fe0e6bc666dac8fc2697ff9baa08a91734a84723f0f7b6e52f78d8124ac6841d9c0aa4ced315c1b0af2e0f601cca000ab3d9f2d83e228edb6b16982f447c62a2142276e38525a112638e20d4e6b2da0b243137394e58a80308b9d4a47f7c6186dc2bb5619f108404e51a55f6e15cfd3b90100000000000000000000000000000000000000000000000000000000000000000000000000000000000000000000000000000000000000000000000000000000000000000000000000000000000000000000000000000000000000000000000000000000000000000000000000000000000000000000000000000000000000000000000000000000000000000000000000000000000000000000000000000000000000000000000000000000000000000000000000000000000000000000000000000000000000000000000000000000000000000000000000000000000000000000000000000000000000000000000000000000000000000000000000000000008302000001830f460f82d6d88203e800a00000000000000000000000000000000000000000000000000000000000000000880000000000000000f864f862800182d6d8800f97600a80600c6000396000fff2ffff600160008035811a811ca0413f5ee4083496d95e6ff1f802d040abeebff9d8554f55efef6c8eaa069a5cada024fbceb28bf499e9476cd47e1520a69c58a8e525d075f3d936348e2e52d1d5a1c0",
                "blockHeader" : {
                    "bloom" : "0x00000000000000000000000000000000000000000000000000000000000000000000000000000000000000000000000000000000000000000000000000000000000000000000000000000000000000000000000000000000000000000000000000000000000000000000000000000000000000000000000000000000000000000000000000000000000000000000000000000000000000000000000000000000000000000000000000000000000000000000000000000000000000000000000000000000000000000000000000000000000000000000000000000000000000000000000000000000000000000000000000000000000000000000000000000000",
                    "coinbase" : "0x2adc25665018aa1fe0e6bc666dac8fc2697ff9ba",
                    "difficulty" : "0x20000",
                    "extraData" : "0x00",
                    "gasLimit" : "0xf460f",
                    "gasUsed" : "0xd6d8",
                    "hash" : "0x4da6a5b9e3d99210fc5758fdafec28497c7b878ffe4ca5b54df8828e406fcea3",
                    "mixHash" : "0x0000000000000000000000000000000000000000000000000000000000000000",
                    "nonce" : "0x0000000000000000",
                    "number" : "0x1",
                    "parentHash" : "0x427e5aaa65149ab0fee58e9df6bf91ed77cd001e2876282edc99692058717248",
                    "receiptTrie" : "0xb243137394e58a80308b9d4a47f7c6186dc2bb5619f108404e51a55f6e15cfd3",
                    "stateRoot" : "0x8a91734a84723f0f7b6e52f78d8124ac6841d9c0aa4ced315c1b0af2e0f601cc",
                    "timestamp" : "0x3e8",
                    "transactionsTrie" : "0x00ab3d9f2d83e228edb6b16982f447c62a2142276e38525a112638e20d4e6b2d",
                    "uncleHash" : "0x1dcc4de8dec75d7aab85b567b6ccd41ad312451b948a7413f0a142fd40d49347"
                },
                "transactions" : [
                    {
                        "data" : "0x600a80600c6000396000fff2ffff600160008035811a81",
                        "gasLimit" : "0xd6d8",
                        "gasPrice" : "0x01",
                        "nonce" : "0x00",
                        "to" : "",
                        "value" : "0x0f",
                        "v" : "0x1c",
                        "r" : "0x413f5ee4083496d95e6ff1f802d040abeebff9d8554f55efef6c8eaa069a5cad",
                        "s" : "0x24fbceb28bf499e9476cd47e1520a69c58a8e525d075f3d936348e2e52d1d5a1"
                    }
                ]
            }
        ]
    }
}