{
    "TransactionCreateSuicideInInitcode_d0g0v0_Istanbul" : {
        "_info" : {
            "comment" : "",
            "filling-rpc-server" : "Geth-1.9.6-unstable-63b18027-20190920",
            "filling-tool-version" : "retesteth-0.0.1+commit.0ae18aef.Linux.g++",
            "lllcversion" : "Version: 0.5.12-develop.2019.9.13+commit.2d601a4f.Linux.g++",
            "source" : "src/GeneralStateTestsFiller/stInitCodeTest/TransactionCreateSuicideInInitcodeFiller.json",
            "sourceHash" : "ad1797eb088ac47fe0d54be94a95faad1bb45c82c33c1fff2f2906ee9d4af2ba"
        },
        "genesisBlockHeader" : {
            "bloom" : "0x00000000000000000000000000000000000000000000000000000000000000000000000000000000000000000000000000000000000000000000000000000000000000000000000000000000000000000000000000000000000000000000000000000000000000000000000000000000000000000000000000000000000000000000000000000000000000000000000000000000000000000000000000000000000000000000000000000000000000000000000000000000000000000000000000000000000000000000000000000000000000000000000000000000000000000000000000000000000000000000000000000000000000000000000000000000",
            "coinbase" : "0x2adc25665018aa1fe0e6bc666dac8fc2697ff9ba",
            "difficulty" : "0x20000",
            "extraData" : "0x00",
            "gasLimit" : "0xf4240",
            "gasUsed" : "0x0",
            "hash" : "0x427e5aaa65149ab0fee58e9df6bf91ed77cd001e2876282edc99692058717248",
            "mixHash" : "0x0000000000000000000000000000000000000000000000000000000000000000",
            "nonce" : "0x0000000000000000",
            "number" : "0x0",
            "parentHash" : "0x0000000000000000000000000000000000000000000000000000000000000000",
            "receiptTrie" : "0x56e81f171bcc55a6ff8345e692c0f86e5b48e01b996cadc001622fb5e363b421",
            "stateRoot" : "0xa3e1c133a5a51b03399ed9ad0380f3182e9e18322f232b816dd4b9094f871e1b",
            "timestamp" : "0x0",
            "transactionsTrie" : "0x56e81f171bcc55a6ff8345e692c0f86e5b48e01b996cadc001622fb5e363b421",
            "uncleHash" : "0x1dcc4de8dec75d7aab85b567b6ccd41ad312451b948a7413f0a142fd40d49347"
        },
        "pre" : {
            "0xa94f5374fce5edbc8e2a8697c15331677e6ebf0b" : {
                "balance" : "0x0186a0",
                "code" : "0x",
                "nonce" : "0x00",
                "storage" : {
                }
            }
        },
        "postState" : {
            "0xa94f5374fce5edbc8e2a8697c15331677e6ebf0b" : {
                "code" : "0x",
                "nonce" : "0x01",
                "balance" : "0xafc8",
                "storage" : {
                }
            },
            "0x2adc25665018aa1fe0e6bc666dac8fc2697ff9ba" : {
                "code" : "0x",
                "nonce" : "0x00",
                "balance" : "0x1bc16d674ec8d6d8",
                "storage" : {
                }
            }
        },
        "network" : "Istanbul",
        "sealEngine" : "NoProof",
        "lastblockhash" : "0x1afd350012adae61460b2ea5e1a94a9161877e70c9cd486cbd0bf0de79448101",
        "genesisRLP" : "0xf901f8f901f3a00000000000000000000000000000000000000000000000000000000000000000a01dcc4de8dec75d7aab85b567b6ccd41ad312451b948a7413f0a142fd40d49347942adc25665018aa1fe0e6bc666dac8fc2697ff9baa0a3e1c133a5a51b03399ed9ad0380f3182e9e18322f232b816dd4b9094f871e1ba056e81f171bcc55a6ff8345e692c0f86e5b48e01b996cadc001622fb5e363b421a056e81f171bcc55a6ff8345e692c0f86e5b48e01b996cadc001622fb5e363b421b90100000000000000000000000000000000000000000000000000000000000000000000000000000000000000000000000000000000000000000000000000000000000000000000000000000000000000000000000000000000000000000000000000000000000000000000000000000000000000000000000000000000000000000000000000000000000000000000000000000000000000000000000000000000000000000000000000000000000000000000000000000000000000000000000000000000000000000000000000000000000000000000000000000000000000000000000000000000000000000000000000000000000000000000000000000000008302000080830f4240808000a00000000000000000000000000000000000000000000000000000000000000000880000000000000000c0c0",
        "blocks" : [
            {
                "rlp" : "0xf90260f901f7a0427e5aaa65149ab0fee58e9df6bf91ed77cd001e2876282edc99692058717248a01dcc4de8dec75d7aab85b567b6ccd41ad312451b948a7413f0a142fd40d49347942adc25665018aa1fe0e6bc666dac8fc2697ff9baa08a91734a84723f0f7b6e52f78d8124ac6841d9c0aa4ced315c1b0af2e0f601cca04bca6ae0565f681cedbf26ba5abf9e93636596433158f4f6a863534da1d87ae2a0b243137394e58a80308b9d4a47f7c6186dc2bb5619f108404e51a55f6e15cfd3b90100000000000000000000000000000000000000000000000000000000000000000000000000000000000000000000000000000000000000000000000000000000000000000000000000000000000000000000000000000000000000000000000000000000000000000000000000000000000000000000000000000000000000000000000000000000000000000000000000000000000000000000000000000000000000000000000000000000000000000000000000000000000000000000000000000000000000000000000000000000000000000000000000000000000000000000000000000000000000000000000000000000000000000000000000000000008302000001830f460f82d6d88203e800a00000000000000000000000000000000000000000000000000000000000000000880000000000000000f863f861800182d6d8800196600a80600c6000396000f200ff600160008035811a811ca0c5bd65fa108c957564f4e5d3d62c2b7282a2981b031899a2fd897dd9843d32e0a0444bfcb5ab0f57048cf2cce5e2c33495e624b4b09e3c30391187d7fe7f70aedec0",
                "blockHeader" : {
                    "bloom" : "0x00000000000000000000000000000000000000000000000000000000000000000000000000000000000000000000000000000000000000000000000000000000000000000000000000000000000000000000000000000000000000000000000000000000000000000000000000000000000000000000000000000000000000000000000000000000000000000000000000000000000000000000000000000000000000000000000000000000000000000000000000000000000000000000000000000000000000000000000000000000000000000000000000000000000000000000000000000000000000000000000000000000000000000000000000000000",
                    "coinbase" : "0x2adc25665018aa1fe0e6bc666dac8fc2697ff9ba",
                    "difficulty" : "0x20000",
                    "extraData" : "0x00",
                    "gasLimit" : "0xf460f",
                    "gasUsed" : "0xd6d8",
                    "hash" : "0x1afd350012adae61460b2ea5e1a94a9161877e70c9cd486cbd0bf0de79448101",
                    "mixHash" : "0x0000000000000000000000000000000000000000000000000000000000000000",
                    "nonce" : "0x0000000000000000",
                    "number" : "0x1",
                    "parentHash" : "0x427e5aaa65149ab0fee58e9df6bf91ed77cd001e2876282edc99692058717248",
                    "receiptTrie" : "0xb243137394e58a80308b9d4a47f7c6186dc2bb5619f108404e51a55f6e15cfd3",
                    "stateRoot" : "0x8a91734a84723f0f7b6e52f78d8124ac6841d9c0aa4ced315c1b0af2e0f601cc",
                    "timestamp" : "0x3e8",
                    "transactionsTrie" : "0x4bca6ae0565f681cedbf26ba5abf9e93636596433158f4f6a863534da1d87ae2",
                    "uncleHash" : "0x1dcc4de8dec75d7aab85b567b6ccd41ad312451b948a7413f0a142fd40d49347"
                },
                "transactions" : [
                    {
                        "data" : "0x600a80600c6000396000f200ff600160008035811a81",
                        "gasLimit" : "0xd6d8",
                        "gasPrice" : "0x01",
                        "nonce" : "0x00",
                        "to" : "",
                        "value" : "0x01",
                        "v" : "0x1c",
                        "r" : "0xc5bd65fa108c957564f4e5d3d62c2b7282a2981b031899a2fd897dd9843d32e0",
                        "s" : "0x444bfcb5ab0f57048cf2cce5e2c33495e624b4b09e3c30391187d7fe7f70aede"
                    }
                ]
            }
        ]
    }
}