{
    "SstoreCallToSelfSubRefundBelowZero_d0g0v0_Istanbul" : {
        "_info" : {
            "comment" : "Test where accnt has slot 1 value of '2', is cleared, then calls itself and overwrites with '3', causing a refund-deduction in second call context",
            "filling-rpc-server" : "Geth-1.9.6-unstable-63b18027-20190920",
            "filling-tool-version" : "retesteth-0.0.1+commit.0ae18aef.Linux.g++",
            "lllcversion" : "Version: 0.5.12-develop.2019.9.13+commit.2d601a4f.Linux.g++",
            "source" : "src/GeneralStateTestsFiller/stSStoreTest/SstoreCallToSelfSubRefundBelowZeroFiller.json",
            "sourceHash" : "66870d27e0049c1d0caed77c194edd0e97f55156b1ebe7ff2aaa4f97a9ec7cb4"
        },
        "genesisBlockHeader" : {
            "bloom" : "0x00000000000000000000000000000000000000000000000000000000000000000000000000000000000000000000000000000000000000000000000000000000000000000000000000000000000000000000000000000000000000000000000000000000000000000000000000000000000000000000000000000000000000000000000000000000000000000000000000000000000000000000000000000000000000000000000000000000000000000000000000000000000000000000000000000000000000000000000000000000000000000000000000000000000000000000000000000000000000000000000000000000000000000000000000000000",
            "coinbase" : "0x2adc25665018aa1fe0e6bc666dac8fc2697ff9ba",
            "difficulty" : "0x20000",
            "extraData" : "0x00",
            "gasLimit" : "0x1000000000",
            "gasUsed" : "0x0",
            "hash" : "0x7693f74dcb3d08b5e8ad70afc72d0eb8401c1f8d5a370207122712b64a325894",
            "mixHash" : "0x0000000000000000000000000000000000000000000000000000000000000000",
            "nonce" : "0x0000000000000000",
            "number" : "0x0",
            "parentHash" : "0x0000000000000000000000000000000000000000000000000000000000000000",
            "receiptTrie" : "0x56e81f171bcc55a6ff8345e692c0f86e5b48e01b996cadc001622fb5e363b421",
            "stateRoot" : "0xb5197b759277337f234eb73abc3bfba4dfe159be8f4aa34370893fe95fb7b4c0",
            "timestamp" : "0x0",
            "transactionsTrie" : "0x56e81f171bcc55a6ff8345e692c0f86e5b48e01b996cadc001622fb5e363b421",
            "uncleHash" : "0x1dcc4de8dec75d7aab85b567b6ccd41ad312451b948a7413f0a142fd40d49347"
        },
        "pre" : {
            "0xa94f5374fce5edbc8e2a8697c15331677e6ebf0b" : {
                "balance" : "0xffffffffffffffff",
                "code" : "0x",
                "nonce" : "0x00",
                "storage" : {
                }
            },
            "0xe12d6474ac4964b9f23812bf3375c1fe637ad3b6" : {
                "balance" : "0x00",
                "code" : "0x3330146015576000600155600080808080305af1005b600360015500",
                "nonce" : "0x00",
                "storage" : {
                    "0x01" : "0x0000000000000000000000000000000000000000000000000000000000000002"
                }
            }
        },
        "postState" : {
            "0xa94f5374fce5edbc8e2a8697c15331677e6ebf0b" : {
                "code" : "0x",
                "nonce" : "0x01",
                "balance" : "0xffffffffffff944b",
                "storage" : {
                }
            },
            "0x2adc25665018aa1fe0e6bc666dac8fc2697ff9ba" : {
                "code" : "0x",
                "nonce" : "0x00",
                "balance" : "0x1bc16d674ec86bb4",
                "storage" : {
                }
            },
            "0xe12d6474ac4964b9f23812bf3375c1fe637ad3b6" : {
                "code" : "0x3330146015576000600155600080808080305af1005b600360015500",
                "nonce" : "0x00",
                "balance" : "0x00",
                "storage" : {
                    "0x01" : "0x03"
                }
            }
        },
        "network" : "Istanbul",
        "sealEngine" : "NoProof",
        "lastblockhash" : "0x94096d9fd06df68c1b7d49bf6a1ec7281255718f5c758d772dfe323a2ef17b7c",
        "genesisRLP" : "0xf901faf901f5a00000000000000000000000000000000000000000000000000000000000000000a01dcc4de8dec75d7aab85b567b6ccd41ad312451b948a7413f0a142fd40d49347942adc25665018aa1fe0e6bc666dac8fc2697ff9baa0b5197b759277337f234eb73abc3bfba4dfe159be8f4aa34370893fe95fb7b4c0a056e81f171bcc55a6ff8345e692c0f86e5b48e01b996cadc001622fb5e363b421a056e81f171bcc55a6ff8345e692c0f86e5b48e01b996cadc001622fb5e363b421b90100000000000000000000000000000000000000000000000000000000000000000000000000000000000000000000000000000000000000000000000000000000000000000000000000000000000000000000000000000000000000000000000000000000000000000000000000000000000000000000000000000000000000000000000000000000000000000000000000000000000000000000000000000000000000000000000000000000000000000000000000000000000000000000000000000000000000000000000000000000000000000000000000000000000000000000000000000000000000000000000000000000000000000000000000000000008302000080851000000000808000a00000000000000000000000000000000000000000000000000000000000000000880000000000000000c0c0",
        "blocks" : [
            {
                "rlp" : "0xf90261f901f9a07693f74dcb3d08b5e8ad70afc72d0eb8401c1f8d5a370207122712b64a325894a01dcc4de8dec75d7aab85b567b6ccd41ad312451b948a7413f0a142fd40d49347942adc25665018aa1fe0e6bc666dac8fc2697ff9baa037243cf0ad25f6419ab707bab16df6f2735e58e551d98b3e5cbe1cf41c493315a0e9c09daf24f4a6c41251992fd395c4860e16b49538b8f054b07254beb6764ebfa03b8f8d10cb7ab3d7326a51a0272aa192c91c79b9aabebd17ac25dc5b54e2f317b90100000000000000000000000000000000000000000000000000000000000000000000000000000000000000000000000000000000000000000000000000000000000000000000000000000000000000000000000000000000000000000000000000000000000000000000000000000000000000000000000000000000000000000000000000000000000000000000000000000000000000000000000000000000000000000000000000000000000000000000000000000000000000000000000000000000000000000000000000000000000000000000000000000000000000000000000000000000000000000000000000000000000000000000000000000000008302000001851003ffffff826bb48203e800a00000000000000000000000000000000000000000000000000000000000000000880000000000000000f862f860800183241eb294e12d6474ac4964b9f23812bf3375c1fe637ad3b680801ba040f3438db266a7d413ce23bbf53af41f8ebf855945148418ae6da0213d26c8c5a07aa326d6bf378497d42da537ba6aee21e642d64e734def1ceda80eee7b361f92c0",
                "blockHeader" : {
                    "bloom" : "0x00000000000000000000000000000000000000000000000000000000000000000000000000000000000000000000000000000000000000000000000000000000000000000000000000000000000000000000000000000000000000000000000000000000000000000000000000000000000000000000000000000000000000000000000000000000000000000000000000000000000000000000000000000000000000000000000000000000000000000000000000000000000000000000000000000000000000000000000000000000000000000000000000000000000000000000000000000000000000000000000000000000000000000000000000000000",
                    "coinbase" : "0x2adc25665018aa1fe0e6bc666dac8fc2697ff9ba",
                    "difficulty" : "0x20000",
                    "extraData" : "0x00",
                    "gasLimit" : "0x1003ffffff",
                    "gasUsed" : "0x6bb4",
                    "hash" : "0x94096d9fd06df68c1b7d49bf6a1ec7281255718f5c758d772dfe323a2ef17b7c",
                    "mixHash" : "0x0000000000000000000000000000000000000000000000000000000000000000",
                    "nonce" : "0x0000000000000000",
                    "number" : "0x1",
                    "parentHash" : "0x7693f74dcb3d08b5e8ad70afc72d0eb8401c1f8d5a370207122712b64a325894",
                    "receiptTrie" : "0x3b8f8d10cb7ab3d7326a51a0272aa192c91c79b9aabebd17ac25dc5b54e2f317",
                    "stateRoot" : "0x37243cf0ad25f6419ab707bab16df6f2735e58e551d98b3e5cbe1cf41c493315",
                    "timestamp" : "0x3e8",
                    "transactionsTrie" : "0xe9c09daf24f4a6c41251992fd395c4860e16b49538b8f054b07254beb6764ebf",
                    "uncleHash" : "0x1dcc4de8dec75d7aab85b567b6ccd41ad312451b948a7413f0a142fd40d49347"
                },
                "transactions" : [
                    {
                        "data" : "0x",
                        "gasLimit" : "0x241eb2",
                        "gasPrice" : "0x01",
                        "nonce" : "0x00",
                        "to" : "0xe12d6474ac4964b9f23812bf3375c1fe637ad3b6",
                        "value" : "0x00",
                        "v" : "0x1b",
                        "r" : "0x40f3438db266a7d413ce23bbf53af41f8ebf855945148418ae6da0213d26c8c5",
                        "s" : "0x7aa326d6bf378497d42da537ba6aee21e642d64e734def1ceda80eee7b361f92"
                    }
                ]
            }
        ]
    }
}