{
    "ZeroValue_CALLCODE_ToNonZeroBalance_OOGRevert_d0g0v0_Istanbul" : {
        "_info" : {
            "comment" : "",
            "filling-rpc-server" : "Geth-1.9.6-unstable-63b18027-20190920",
            "filling-tool-version" : "retesteth-0.0.1+commit.0ae18aef.Linux.g++",
            "lllcversion" : "Version: 0.5.12-develop.2019.9.13+commit.2d601a4f.Linux.g++",
            "source" : "src/GeneralStateTestsFiller/stZeroCallsRevert/ZeroValue_CALLCODE_ToNonZeroBalance_OOGRevertFiller.json",
            "sourceHash" : "a4e42e7ad2e62d4d2b9ad0a4bd70688760b2363310c2470ef22a27e466bf6ee2"
        },
        "genesisBlockHeader" : {
            "bloom" : "0x00000000000000000000000000000000000000000000000000000000000000000000000000000000000000000000000000000000000000000000000000000000000000000000000000000000000000000000000000000000000000000000000000000000000000000000000000000000000000000000000000000000000000000000000000000000000000000000000000000000000000000000000000000000000000000000000000000000000000000000000000000000000000000000000000000000000000000000000000000000000000000000000000000000000000000000000000000000000000000000000000000000000000000000000000000000",
            "coinbase" : "0x2adc25665018aa1fe0e6bc666dac8fc2697ff9ba",
            "difficulty" : "0x20000",
            "extraData" : "0x00",
            "gasLimit" : "0x989680",
            "gasUsed" : "0x0",
            "hash" : "0x3ba1a9b90db1d9002f96f969c72679248f014efde53ee08da3f22757d8c58301",
            "mixHash" : "0x0000000000000000000000000000000000000000000000000000000000000000",
            "nonce" : "0x0000000000000000",
            "number" : "0x0",
            "parentHash" : "0x0000000000000000000000000000000000000000000000000000000000000000",
            "receiptTrie" : "0x56e81f171bcc55a6ff8345e692c0f86e5b48e01b996cadc001622fb5e363b421",
            "stateRoot" : "0x26daeb7336defff6778edd66d7f0f723ff7f11d89ee852220fc618dbff3a88f9",
            "timestamp" : "0x0",
            "transactionsTrie" : "0x56e81f171bcc55a6ff8345e692c0f86e5b48e01b996cadc001622fb5e363b421",
            "uncleHash" : "0x1dcc4de8dec75d7aab85b567b6ccd41ad312451b948a7413f0a142fd40d49347"
        },
        "pre" : {
            "0xa94f5374fce5edbc8e2a8697c15331677e6ebf0b" : {
                "balance" : "0xe8d4a51000",
                "code" : "0x",
                "nonce" : "0x00",
                "storage" : {
                }
            },
            "0xb94f5374fce5edbc8e2a8697c15331677e6ebf0b" : {
                "balance" : "0x00",
                "code" : "0x5a6000556000600060006000600073c94f5374fce5edbc8e2a8697c15331677e6ebf0b61ea60f2600155600c600255600c600355600c6004555a60645500",
                "nonce" : "0x00",
                "storage" : {
                }
            },
            "0xc94f5374fce5edbc8e2a8697c15331677e6ebf0b" : {
                "balance" : "0x64",
                "code" : "0x",
                "nonce" : "0x00",
                "storage" : {
                }
            }
        },
        "postState" : {
            "0xa94f5374fce5edbc8e2a8697c15331677e6ebf0b" : {
                "code" : "0x",
                "nonce" : "0x01",
                "balance" : "0xe8d4a300a8",
                "storage" : {
                }
            },
            "0xc94f5374fce5edbc8e2a8697c15331677e6ebf0b" : {
                "code" : "0x",
                "nonce" : "0x00",
                "balance" : "0x64",
                "storage" : {
                }
            },
            "0x2adc25665018aa1fe0e6bc666dac8fc2697ff9ba" : {
                "code" : "0x",
                "nonce" : "0x00",
                "balance" : "0x1bc16d674eca0f58",
                "storage" : {
                }
            },
            "0xb94f5374fce5edbc8e2a8697c15331677e6ebf0b" : {
                "code" : "0x5a6000556000600060006000600073c94f5374fce5edbc8e2a8697c15331677e6ebf0b61ea60f2600155600c600255600c600355600c6004555a60645500",
                "nonce" : "0x00",
                "balance" : "0x00",
                "storage" : {
                }
            }
        },
        "network" : "Istanbul",
        "sealEngine" : "NoProof",
        "lastblockhash" : "0xb6b76520c48f0c43a8e52c28f9f5e70cba1d5d0240cf3d48f6b99f968aeb1d85",
        "genesisRLP" : "0xf901f8f901f3a00000000000000000000000000000000000000000000000000000000000000000a01dcc4de8dec75d7aab85b567b6ccd41ad312451b948a7413f0a142fd40d49347942adc25665018aa1fe0e6bc666dac8fc2697ff9baa026daeb7336defff6778edd66d7f0f723ff7f11d89ee852220fc618dbff3a88f9a056e81f171bcc55a6ff8345e692c0f86e5b48e01b996cadc001622fb5e363b421a056e81f171bcc55a6ff8345e692c0f86e5b48e01b996cadc001622fb5e363b421b9010000000000000000000000000000000000000000000000000000000000000000000000000000000000000000000000000000000000000000000000000000000000000000000000000000000000000000000000000000000000000000000000000000000000000000000000000000000000000000000000000000000000000000000000000000000000000000000000000000000000000000000000000000000000000000000000000000000000000000000000000000000000000000000000000000000000000000000000000000000000000000000000000000000000000000000000000000000000000000000000000000000000000000000000000000000000830200008083989680808000a00000000000000000000000000000000000000000000000000000000000000000880000000000000000c0c0",
        "blocks" : [
            {
                "rlp" : "0xf90260f901f8a03ba1a9b90db1d9002f96f969c72679248f014efde53ee08da3f22757d8c58301a01dcc4de8dec75d7aab85b567b6ccd41ad312451b948a7413f0a142fd40d49347942adc25665018aa1fe0e6bc666dac8fc2697ff9baa03e094913d8b1a1b9f8eac09800879ec0b8d5b26d9ed2bcd3036e71e4be4dae5fa0aa88f8c92f1660ca93f6181e71ae0f3922f03c2634cf8c759793327a523efb40a054eeafc8891222b787b9c9bfab7e0d99866447dad965b012fa2e09404455ec9db901000000000000000000000000000000000000000000000000000000000000000000000000000000000000000000000000000000000000000000000000000000000000000000000000000000000000000000000000000000000000000000000000000000000000000000000000000000000000000000000000000000000000000000000000000000000000000000000000000000000000000000000000000000000000000000000000000000000000000000000000000000000000000000000000000000000000000000000000000000000000000000000000000000000000000000000000000000000000000000000000000000000000000000000000000000000083020000018398bca483020f588203e800a00000000000000000000000000000000000000000000000000000000000000000880000000000000000f862f860800183020f5894b94f5374fce5edbc8e2a8697c15331677e6ebf0b80801ba0a379f1c29785f2dbdf0e550632f4c8ec03817168d8be30fba39d51ddc5ede242a016db8cae0757ac3707f3c6c3e04f7384d33208d7cc2ea7f571965fdc9de023e7c0",
                "blockHeader" : {
                    "bloom" : "0x00000000000000000000000000000000000000000000000000000000000000000000000000000000000000000000000000000000000000000000000000000000000000000000000000000000000000000000000000000000000000000000000000000000000000000000000000000000000000000000000000000000000000000000000000000000000000000000000000000000000000000000000000000000000000000000000000000000000000000000000000000000000000000000000000000000000000000000000000000000000000000000000000000000000000000000000000000000000000000000000000000000000000000000000000000000",
                    "coinbase" : "0x2adc25665018aa1fe0e6bc666dac8fc2697ff9ba",
                    "difficulty" : "0x20000",
                    "extraData" : "0x00",
                    "gasLimit" : "0x98bca4",
                    "gasUsed" : "0x20f58",
                    "hash" : "0xb6b76520c48f0c43a8e52c28f9f5e70cba1d5d0240cf3d48f6b99f968aeb1d85",
                    "mixHash" : "0x0000000000000000000000000000000000000000000000000000000000000000",
                    "nonce" : "0x0000000000000000",
                    "number" : "0x1",
                    "parentHash" : "0x3ba1a9b90db1d9002f96f969c72679248f014efde53ee08da3f22757d8c58301",
                    "receiptTrie" : "0x54eeafc8891222b787b9c9bfab7e0d99866447dad965b012fa2e09404455ec9d",
                    "stateRoot" : "0x3e094913d8b1a1b9f8eac09800879ec0b8d5b26d9ed2bcd3036e71e4be4dae5f",
                    "timestamp" : "0x3e8",
                    "transactionsTrie" : "0xaa88f8c92f1660ca93f6181e71ae0f3922f03c2634cf8c759793327a523efb40",
                    "uncleHash" : "0x1dcc4de8dec75d7aab85b567b6ccd41ad312451b948a7413f0a142fd40d49347"
                },
                "transactions" : [
                    {
                        "data" : "0x",
                        "gasLimit" : "0x020f58",
                        "gasPrice" : "0x01",
                        "nonce" : "0x00",
                        "to" : "0xb94f5374fce5edbc8e2a8697c15331677e6ebf0b",
                        "value" : "0x00",
                        "v" : "0x1b",
                        "r" : "0xa379f1c29785f2dbdf0e550632f4c8ec03817168d8be30fba39d51ddc5ede242",
                        "s" : "0x16db8cae0757ac3707f3c6c3e04f7384d33208d7cc2ea7f571965fdc9de023e7"
                    }
                ]
            }
        ]
    }
}